{
	"contracts/contracts/DisputeDAO.sol": {
		"DisputeDAO": {
			"abi": [
				{
					"inputs": [
						{
							"internalType": "address",
							"name": "_taskFactory",
							"type": "address"
						}
					],
					"stateMutability": "nonpayable",
					"type": "constructor"
				},
				{
					"anonymous": false,
					"inputs": [
						{
							"indexed": true,
							"internalType": "uint256",
							"name": "disputeId",
							"type": "uint256"
						},
						{
							"indexed": false,
							"internalType": "address",
							"name": "winner",
							"type": "address"
						}
					],
					"name": "DisputeResolved",
					"type": "event"
				},
				{
					"anonymous": false,
					"inputs": [
						{
							"indexed": true,
							"internalType": "uint256",
							"name": "disputeId",
							"type": "uint256"
						},
						{
							"indexed": false,
							"internalType": "address[]",
							"name": "jurors",
							"type": "address[]"
						}
					],
					"name": "DisputeStarted",
					"type": "event"
				},
				{
					"anonymous": false,
					"inputs": [
						{
							"indexed": true,
							"internalType": "address",
							"name": "juror",
							"type": "address"
						},
						{
							"indexed": false,
							"internalType": "uint256",
							"name": "amount",
							"type": "uint256"
						}
					],
					"name": "JurorStaked",
					"type": "event"
				},
				{
					"anonymous": false,
					"inputs": [
						{
							"indexed": true,
							"internalType": "address",
							"name": "juror",
							"type": "address"
						},
						{
							"indexed": false,
							"internalType": "uint256",
							"name": "amount",
							"type": "uint256"
						}
					],
					"name": "JurorUnstaked",
					"type": "event"
				},
				{
					"anonymous": false,
					"inputs": [
						{
							"indexed": true,
							"internalType": "uint256",
							"name": "disputeId",
							"type": "uint256"
						},
						{
							"indexed": false,
							"internalType": "address[]",
							"name": "jurors",
							"type": "address[]"
						}
					],
					"name": "MaliciousTaskResolved",
					"type": "event"
				},
				{
					"anonymous": false,
					"inputs": [
						{
							"indexed": true,
							"internalType": "uint256",
							"name": "disputeId",
							"type": "uint256"
						},
						{
							"indexed": true,
							"internalType": "address",
							"name": "juror",
							"type": "address"
						},
						{
							"indexed": false,
							"internalType": "address",
							"name": "winner",
							"type": "address"
						}
					],
					"name": "Voted",
					"type": "event"
				},
				{
					"inputs": [],
					"name": "JUROR_REWARD",
					"outputs": [
						{
							"internalType": "uint256",
							"name": "",
							"type": "uint256"
						}
					],
					"stateMutability": "view",
					"type": "function"
				},
				{
					"inputs": [
						{
							"internalType": "uint256",
							"name": "disputeId",
							"type": "uint256"
						}
					],
					"name": "arbitrateMaliciousTask",
					"outputs": [],
					"stateMutability": "nonpayable",
					"type": "function"
				},
				{
					"inputs": [
						{
							"internalType": "uint256",
							"name": "",
							"type": "uint256"
						},
						{
							"internalType": "address",
							"name": "",
							"type": "address"
						}
					],
					"name": "candidateVotes",
					"outputs": [
						{
							"internalType": "uint256",
							"name": "",
							"type": "uint256"
						}
					],
					"stateMutability": "view",
					"type": "function"
				},
				{
					"inputs": [
						{
							"internalType": "uint256",
							"name": "",
							"type": "uint256"
						},
						{
							"internalType": "uint256",
							"name": "",
							"type": "uint256"
						}
					],
					"name": "disputeJurors",
					"outputs": [
						{
							"internalType": "address",
							"name": "",
							"type": "address"
						}
					],
					"stateMutability": "view",
					"type": "function"
				},
				{
					"inputs": [],
					"name": "factorySet",
					"outputs": [
						{
							"internalType": "bool",
							"name": "",
							"type": "bool"
						}
					],
					"stateMutability": "view",
					"type": "function"
				},
				{
					"inputs": [],
					"name": "getActiveJurors",
					"outputs": [
						{
							"internalType": "address[]",
							"name": "",
							"type": "address[]"
						}
					],
					"stateMutability": "view",
					"type": "function"
				},
				{
					"inputs": [
						{
							"internalType": "uint256",
							"name": "disputeId",
							"type": "uint256"
						}
					],
					"name": "getDisputeJurors",
					"outputs": [
						{
							"internalType": "address[]",
							"name": "",
							"type": "address[]"
						}
					],
					"stateMutability": "view",
					"type": "function"
				},
				{
					"inputs": [
						{
							"internalType": "address",
							"name": "_jurorAddr",
							"type": "address"
						}
					],
					"name": "getJurorInfo",
					"outputs": [
						{
							"internalType": "uint256",
							"name": "stakeAmount",
							"type": "uint256"
						},
						{
							"internalType": "bool",
							"name": "isActive",
							"type": "bool"
						},
						{
							"internalType": "uint256",
							"name": "lastDisputeId",
							"type": "uint256"
						}
					],
					"stateMutability": "view",
					"type": "function"
				},
				{
					"inputs": [
						{
							"internalType": "uint256",
							"name": "disputeId",
							"type": "uint256"
						}
					],
					"name": "handleDispute",
					"outputs": [],
					"stateMutability": "nonpayable",
					"type": "function"
				},
				{
					"inputs": [
						{
							"internalType": "uint256",
							"name": "",
							"type": "uint256"
						},
						{
							"internalType": "address",
							"name": "",
							"type": "address"
						}
					],
					"name": "hasVoted",
					"outputs": [
						{
							"internalType": "bool",
							"name": "",
							"type": "bool"
						}
					],
					"stateMutability": "view",
					"type": "function"
				},
				{
					"inputs": [],
					"name": "jurorCooldown",
					"outputs": [
						{
							"internalType": "uint256",
							"name": "",
							"type": "uint256"
						}
					],
					"stateMutability": "view",
					"type": "function"
				},
				{
					"inputs": [
						{
							"internalType": "uint256",
							"name": "",
							"type": "uint256"
						}
					],
					"name": "jurorList",
					"outputs": [
						{
							"internalType": "address",
							"name": "",
							"type": "address"
						}
					],
					"stateMutability": "view",
					"type": "function"
				},
				{
					"inputs": [
						{
							"internalType": "address",
							"name": "",
							"type": "address"
						}
					],
					"name": "jurors",
					"outputs": [
						{
							"internalType": "address",
							"name": "addr",
							"type": "address"
						},
						{
							"internalType": "uint256",
							"name": "stakeAmount",
							"type": "uint256"
						},
						{
							"internalType": "bool",
							"name": "isActive",
							"type": "bool"
						},
						{
							"internalType": "uint256",
							"name": "lastDisputeId",
							"type": "uint256"
						}
					],
					"stateMutability": "view",
					"type": "function"
				},
				{
					"inputs": [],
					"name": "jurorsPerDispute",
					"outputs": [
						{
							"internalType": "uint256",
							"name": "",
							"type": "uint256"
						}
					],
					"stateMutability": "view",
					"type": "function"
				},
				{
					"inputs": [],
					"name": "minStake",
					"outputs": [
						{
							"internalType": "uint256",
							"name": "",
							"type": "uint256"
						}
					],
					"stateMutability": "view",
					"type": "function"
				},
				{
					"inputs": [
						{
							"internalType": "address",
							"name": "_factory",
							"type": "address"
						}
					],
					"name": "setFactory",
					"outputs": [],
					"stateMutability": "nonpayable",
					"type": "function"
				},
				{
					"inputs": [],
					"name": "stake",
					"outputs": [],
					"stateMutability": "payable",
					"type": "function"
				},
				{
					"inputs": [],
					"name": "taskFactory",
					"outputs": [
						{
							"internalType": "address",
							"name": "",
							"type": "address"
						}
					],
					"stateMutability": "view",
					"type": "function"
				},
				{
					"inputs": [],
					"name": "unstake",
					"outputs": [],
					"stateMutability": "nonpayable",
					"type": "function"
				},
				{
					"inputs": [
						{
							"internalType": "uint256",
							"name": "disputeId",
							"type": "uint256"
						},
						{
							"internalType": "address",
							"name": "winner",
							"type": "address"
						}
					],
					"name": "vote",
					"outputs": [],
					"stateMutability": "nonpayable",
					"type": "function"
				},
				{
					"inputs": [
						{
							"internalType": "uint256",
							"name": "",
							"type": "uint256"
						}
					],
					"name": "voteCount",
					"outputs": [
						{
							"internalType": "uint256",
							"name": "",
							"type": "uint256"
						}
					],
					"stateMutability": "view",
					"type": "function"
				},
				{
					"inputs": [
						{
							"internalType": "uint256",
							"name": "",
							"type": "uint256"
						},
						{
							"internalType": "address",
							"name": "",
							"type": "address"
						}
					],
					"name": "votes",
					"outputs": [
						{
							"internalType": "address",
							"name": "",
							"type": "address"
						}
					],
					"stateMutability": "view",
					"type": "function"
				}
			],
			"devdoc": {
				"kind": "dev",
				"methods": {},
				"version": 1
			},
			"evm": {
				"assembly": "    /* \"contracts/contracts/DisputeDAO.sol\":132:9436  contract DisputeDAO {... */\n  mstore(0x40, 0x80)\n    /* \"contracts/contracts/DisputeDAO.sol\":510:519  0.1 ether */\n  0x016345785d8a0000\n    /* \"contracts/contracts/DisputeDAO.sol\":484:519  uint256 public minStake = 0.1 ether */\n  0x02\n  sstore\n    /* \"contracts/contracts/DisputeDAO.sol\":605:606  3 */\n  0x03\n    /* \"contracts/contracts/DisputeDAO.sol\":571:606  uint256 public jurorsPerDispute = 3 */\n  dup1\n  sstore\n    /* \"contracts/contracts/DisputeDAO.sol\":671:676  false */\n  0x00\n    /* \"contracts/contracts/DisputeDAO.sol\":646:676  bool public factorySet = false */\n  0x04\n  exp(0x0100, 0x14)\n  dup2\n  sload\n  dup2\n  0xff\n  mul\n  not\n  and\n  swap1\n  dup4\n  iszero\n  iszero\n  mul\n  or\n  swap1\n  sstore\n  pop\n    /* \"contracts/contracts/DisputeDAO.sol\":714:715  3 */\n  0x03\n    /* \"contracts/contracts/DisputeDAO.sol\":683:715  uint256 public jurorCooldown = 3 */\n  0x05\n  sstore\n    /* \"contracts/contracts/DisputeDAO.sol\":1892:2030  constructor(address _taskFactory) {... */\n  callvalue\n  dup1\n  iszero\n  tag_1\n  jumpi\n  revert(0x00, 0x00)\ntag_1:\n  pop\n  mload(0x40)\n  sub(codesize, bytecodeSize)\n  dup1\n  bytecodeSize\n  dup4\n  codecopy\n  dup2\n  dup2\n  add\n  0x40\n  mstore\n  dup2\n  add\n  swap1\n  tag_2\n  swap2\n  swap1\n  tag_3\n  jump\t// in\ntag_2:\n    /* \"contracts/contracts/DisputeDAO.sol\":1951:1963  _taskFactory */\n  dup1\n    /* \"contracts/contracts/DisputeDAO.sol\":1937:1948  taskFactory */\n  0x04\n  0x00\n    /* \"contracts/contracts/DisputeDAO.sol\":1937:1963  taskFactory = _taskFactory */\n  0x0100\n  exp\n  dup2\n  sload\n  dup2\n  0xffffffffffffffffffffffffffffffffffffffff\n  mul\n  not\n  and\n  swap1\n  dup4\n  0xffffffffffffffffffffffffffffffffffffffff\n  and\n  mul\n  or\n  swap1\n  sstore\n  pop\n    /* \"contracts/contracts/DisputeDAO.sol\":2001:2002  0 */\n  0x00\n    /* \"contracts/contracts/DisputeDAO.sol\":1977:2003  _taskFactory != address(0) */\n  0xffffffffffffffffffffffffffffffffffffffff\n  and\n    /* \"contracts/contracts/DisputeDAO.sol\":1977:1989  _taskFactory */\n  dup2\n    /* \"contracts/contracts/DisputeDAO.sol\":1977:2003  _taskFactory != address(0) */\n  0xffffffffffffffffffffffffffffffffffffffff\n  and\n  eq\n    /* \"contracts/contracts/DisputeDAO.sol\":1974:2022  if(_taskFactory != address(0)) factorySet = true */\n  tag_6\n  jumpi\n    /* \"contracts/contracts/DisputeDAO.sol\":2018:2022  true */\n  0x01\n    /* \"contracts/contracts/DisputeDAO.sol\":2005:2015  factorySet */\n  0x04\n  0x14\n    /* \"contracts/contracts/DisputeDAO.sol\":2005:2022  factorySet = true */\n  0x0100\n  exp\n  dup2\n  sload\n  dup2\n  0xff\n  mul\n  not\n  and\n  swap1\n  dup4\n  iszero\n  iszero\n  mul\n  or\n  swap1\n  sstore\n  pop\n    /* \"contracts/contracts/DisputeDAO.sol\":1974:2022  if(_taskFactory != address(0)) factorySet = true */\ntag_6:\n    /* \"contracts/contracts/DisputeDAO.sol\":1892:2030  constructor(address _taskFactory) {... */\n  pop\n    /* \"contracts/contracts/DisputeDAO.sol\":132:9436  contract DisputeDAO {... */\n  jump(tag_7)\n    /* \"#utility.yul\":88:205   */\ntag_9:\n    /* \"#utility.yul\":197:198   */\n  0x00\n    /* \"#utility.yul\":194:195   */\n  0x00\n    /* \"#utility.yul\":187:199   */\n  revert\n    /* \"#utility.yul\":334:460   */\ntag_11:\n    /* \"#utility.yul\":371:378   */\n  0x00\n    /* \"#utility.yul\":411:453   */\n  0xffffffffffffffffffffffffffffffffffffffff\n    /* \"#utility.yul\":404:409   */\n  dup3\n    /* \"#utility.yul\":400:454   */\n  and\n    /* \"#utility.yul\":389:454   */\n  swap1\n  pop\n    /* \"#utility.yul\":334:460   */\n  swap2\n  swap1\n  pop\n  jump\t// out\n    /* \"#utility.yul\":466:562   */\ntag_12:\n    /* \"#utility.yul\":503:510   */\n  0x00\n    /* \"#utility.yul\":532:556   */\n  tag_21\n    /* \"#utility.yul\":550:555   */\n  dup3\n    /* \"#utility.yul\":532:556   */\n  tag_11\n  jump\t// in\ntag_21:\n    /* \"#utility.yul\":521:556   */\n  swap1\n  pop\n    /* \"#utility.yul\":466:562   */\n  swap2\n  swap1\n  pop\n  jump\t// out\n    /* \"#utility.yul\":568:690   */\ntag_13:\n    /* \"#utility.yul\":641:665   */\n  tag_23\n    /* \"#utility.yul\":659:664   */\n  dup2\n    /* \"#utility.yul\":641:665   */\n  tag_12\n  jump\t// in\ntag_23:\n    /* \"#utility.yul\":634:639   */\n  dup2\n    /* \"#utility.yul\":631:666   */\n  eq\n    /* \"#utility.yul\":621:684   */\n  tag_24\n  jumpi\n    /* \"#utility.yul\":680:681   */\n  0x00\n    /* \"#utility.yul\":677:678   */\n  0x00\n    /* \"#utility.yul\":670:682   */\n  revert\n    /* \"#utility.yul\":621:684   */\ntag_24:\n    /* \"#utility.yul\":568:690   */\n  pop\n  jump\t// out\n    /* \"#utility.yul\":696:839   */\ntag_14:\n    /* \"#utility.yul\":753:758   */\n  0x00\n    /* \"#utility.yul\":784:790   */\n  dup2\n    /* \"#utility.yul\":778:791   */\n  mload\n    /* \"#utility.yul\":769:791   */\n  swap1\n  pop\n    /* \"#utility.yul\":800:833   */\n  tag_26\n    /* \"#utility.yul\":827:832   */\n  dup2\n    /* \"#utility.yul\":800:833   */\n  tag_13\n  jump\t// in\ntag_26:\n    /* \"#utility.yul\":696:839   */\n  swap3\n  swap2\n  pop\n  pop\n  jump\t// out\n    /* \"#utility.yul\":845:1196   */\ntag_3:\n    /* \"#utility.yul\":915:921   */\n  0x00\n    /* \"#utility.yul\":964:966   */\n  0x20\n    /* \"#utility.yul\":952:961   */\n  dup3\n    /* \"#utility.yul\":943:950   */\n  dup5\n    /* \"#utility.yul\":939:962   */\n  sub\n    /* \"#utility.yul\":935:967   */\n  slt\n    /* \"#utility.yul\":932:1051   */\n  iszero\n  tag_28\n  jumpi\n    /* \"#utility.yul\":970:1049   */\n  tag_29\n  tag_9\n  jump\t// in\ntag_29:\n    /* \"#utility.yul\":932:1051   */\ntag_28:\n    /* \"#utility.yul\":1090:1091   */\n  0x00\n    /* \"#utility.yul\":1115:1179   */\n  tag_30\n    /* \"#utility.yul\":1171:1178   */\n  dup5\n    /* \"#utility.yul\":1162:1168   */\n  dup3\n    /* \"#utility.yul\":1151:1160   */\n  dup6\n    /* \"#utility.yul\":1147:1169   */\n  add\n    /* \"#utility.yul\":1115:1179   */\n  tag_14\n  jump\t// in\ntag_30:\n    /* \"#utility.yul\":1105:1179   */\n  swap2\n  pop\n    /* \"#utility.yul\":1061:1189   */\n  pop\n    /* \"#utility.yul\":845:1196   */\n  swap3\n  swap2\n  pop\n  pop\n  jump\t// out\n    /* \"contracts/contracts/DisputeDAO.sol\":132:9436  contract DisputeDAO {... */\ntag_7:\n  dataSize(sub_0)\n  dup1\n  dataOffset(sub_0)\n  0x00\n  codecopy\n  0x00\n  return\nstop\n\nsub_0: assembly {\n        /* \"contracts/contracts/DisputeDAO.sol\":132:9436  contract DisputeDAO {... */\n      mstore(0x40, 0x80)\n      jumpi(tag_1, lt(calldatasize, 0x04))\n      shr(0xe0, calldataload(0x00))\n      dup1\n      0x5bb47808\n      gt\n      tag_24\n      jumpi\n      dup1\n      0xc9bc0c11\n      gt\n      tag_25\n      jumpi\n      dup1\n      0xc9bc0c11\n      eq\n      tag_18\n      jumpi\n      dup1\n      0xd23254b4\n      eq\n      tag_19\n      jumpi\n      dup1\n      0xd369506c\n      eq\n      tag_20\n      jumpi\n      dup1\n      0xdca5f6b0\n      eq\n      tag_21\n      jumpi\n      dup1\n      0xe21875e2\n      eq\n      tag_22\n      jumpi\n      dup1\n      0xeff2c3ec\n      eq\n      tag_23\n      jumpi\n      jump(tag_1)\n    tag_25:\n      dup1\n      0x5bb47808\n      eq\n      tag_13\n      jumpi\n      dup1\n      0x5da93070\n      eq\n      tag_14\n      jumpi\n      dup1\n      0x6058e685\n      eq\n      tag_15\n      jumpi\n      dup1\n      0x8e230e6f\n      eq\n      tag_16\n      jumpi\n      dup1\n      0xafa9c5b0\n      eq\n      tag_17\n      jumpi\n      jump(tag_1)\n    tag_24:\n      dup1\n      0x3a4b66f1\n      gt\n      tag_26\n      jumpi\n      dup1\n      0x3a4b66f1\n      eq\n      tag_7\n      jumpi\n      dup1\n      0x43859632\n      eq\n      tag_8\n      jumpi\n      dup1\n      0x47e2a6e6\n      eq\n      tag_9\n      jumpi\n      dup1\n      0x4b54a379\n      eq\n      tag_10\n      jumpi\n      dup1\n      0x4dc35f7a\n      eq\n      tag_11\n      jumpi\n      dup1\n      0x4fc8a20d\n      eq\n      tag_12\n      jumpi\n      jump(tag_1)\n    tag_26:\n      dup1\n      0x02d947ef\n      eq\n      tag_2\n      jumpi\n      dup1\n      0x0fa17000\n      eq\n      tag_3\n      jumpi\n      dup1\n      0x2249c562\n      eq\n      tag_4\n      jumpi\n      dup1\n      0x2def6620\n      eq\n      tag_5\n      jumpi\n      dup1\n      0x375b3c0a\n      eq\n      tag_6\n      jumpi\n    tag_1:\n      revert(0x00, 0x00)\n        /* \"contracts/contracts/DisputeDAO.sol\":5942:7579  function vote(uint256 disputeId, address winner) external {... */\n    tag_2:\n      callvalue\n      dup1\n      iszero\n      tag_27\n      jumpi\n      revert(0x00, 0x00)\n    tag_27:\n      pop\n      tag_28\n      0x04\n      dup1\n      calldatasize\n      sub\n      dup2\n      add\n      swap1\n      tag_29\n      swap2\n      swap1\n      tag_30\n      jump\t// in\n    tag_29:\n      tag_31\n      jump\t// in\n    tag_28:\n      stop\n        /* \"contracts/contracts/DisputeDAO.sol\":7754:8387  function arbitrateMaliciousTask(uint256 disputeId) external onlyTaskFactory {... */\n    tag_3:\n      callvalue\n      dup1\n      iszero\n      tag_32\n      jumpi\n      revert(0x00, 0x00)\n    tag_32:\n      pop\n      tag_33\n      0x04\n      dup1\n      calldatasize\n      sub\n      dup2\n      add\n      swap1\n      tag_34\n      swap2\n      swap1\n      tag_35\n      jump\t// in\n    tag_34:\n      tag_36\n      jump\t// in\n    tag_33:\n      stop\n        /* \"contracts/contracts/DisputeDAO.sol\":788:838  mapping(uint256 => address[]) public disputeJurors */\n    tag_4:\n      callvalue\n      dup1\n      iszero\n      tag_37\n      jumpi\n      revert(0x00, 0x00)\n    tag_37:\n      pop\n      tag_38\n      0x04\n      dup1\n      calldatasize\n      sub\n      dup2\n      add\n      swap1\n      tag_39\n      swap2\n      swap1\n      tag_40\n      jump\t// in\n    tag_39:\n      tag_41\n      jump\t// in\n    tag_38:\n      mload(0x40)\n      tag_42\n      swap2\n      swap1\n      tag_43\n      jump\t// in\n    tag_42:\n      mload(0x40)\n      dup1\n      swap2\n      sub\n      swap1\n      return\n        /* \"contracts/contracts/DisputeDAO.sol\":2735:3077  function unstake() external {... */\n    tag_5:\n      callvalue\n      dup1\n      iszero\n      tag_44\n      jumpi\n      revert(0x00, 0x00)\n    tag_44:\n      pop\n      tag_45\n      tag_46\n      jump\t// in\n    tag_45:\n      stop\n        /* \"contracts/contracts/DisputeDAO.sol\":484:519  uint256 public minStake = 0.1 ether */\n    tag_6:\n      callvalue\n      dup1\n      iszero\n      tag_47\n      jumpi\n      revert(0x00, 0x00)\n    tag_47:\n      pop\n      tag_48\n      tag_49\n      jump\t// in\n    tag_48:\n      mload(0x40)\n      tag_50\n      swap2\n      swap1\n      tag_51\n      jump\t// in\n    tag_50:\n      mload(0x40)\n      dup1\n      swap2\n      sub\n      swap1\n      return\n        /* \"contracts/contracts/DisputeDAO.sol\":2313:2685  function stake() external payable {... */\n    tag_7:\n      tag_52\n      tag_53\n      jump\t// in\n    tag_52:\n      stop\n        /* \"contracts/contracts/DisputeDAO.sol\":845:905  mapping(uint256 => mapping(address => bool)) public hasVoted */\n    tag_8:\n      callvalue\n      dup1\n      iszero\n      tag_54\n      jumpi\n      revert(0x00, 0x00)\n    tag_54:\n      pop\n      tag_55\n      0x04\n      dup1\n      calldatasize\n      sub\n      dup2\n      add\n      swap1\n      tag_56\n      swap2\n      swap1\n      tag_30\n      jump\t// in\n    tag_56:\n      tag_57\n      jump\t// in\n    tag_55:\n      mload(0x40)\n      tag_58\n      swap2\n      swap1\n      tag_59\n      jump\t// in\n    tag_58:\n      mload(0x40)\n      dup1\n      swap2\n      sub\n      swap1\n      return\n        /* \"contracts/contracts/DisputeDAO.sol\":8440:8576  function getDisputeJurors(uint256 disputeId) external view returns (address[] memory) {... */\n    tag_9:\n      callvalue\n      dup1\n      iszero\n      tag_60\n      jumpi\n      revert(0x00, 0x00)\n    tag_60:\n      pop\n      tag_61\n      0x04\n      dup1\n      calldatasize\n      sub\n      dup2\n      add\n      swap1\n      tag_62\n      swap2\n      swap1\n      tag_35\n      jump\t// in\n    tag_62:\n      tag_63\n      jump\t// in\n    tag_61:\n      mload(0x40)\n      tag_64\n      swap2\n      swap1\n      tag_65\n      jump\t// in\n    tag_64:\n      mload(0x40)\n      dup1\n      swap2\n      sub\n      swap1\n      return\n        /* \"contracts/contracts/DisputeDAO.sol\":3190:5895  function handleDispute(uint256 disputeId) external onlyTaskFactory {... */\n    tag_10:\n      callvalue\n      dup1\n      iszero\n      tag_66\n      jumpi\n      revert(0x00, 0x00)\n    tag_66:\n      pop\n      tag_67\n      0x04\n      dup1\n      calldatasize\n      sub\n      dup2\n      add\n      swap1\n      tag_68\n      swap2\n      swap1\n      tag_35\n      jump\t// in\n    tag_68:\n      tag_69\n      jump\t// in\n    tag_67:\n      stop\n        /* \"contracts/contracts/DisputeDAO.sol\":683:715  uint256 public jurorCooldown = 3 */\n    tag_11:\n      callvalue\n      dup1\n      iszero\n      tag_70\n      jumpi\n      revert(0x00, 0x00)\n    tag_70:\n      pop\n      tag_71\n      tag_72\n      jump\t// in\n    tag_71:\n      mload(0x40)\n      tag_73\n      swap2\n      swap1\n      tag_51\n      jump\t// in\n    tag_73:\n      mload(0x40)\n      dup1\n      swap2\n      sub\n      swap1\n      return\n        /* \"contracts/contracts/DisputeDAO.sol\":1011:1055  mapping(uint256 => uint256) public voteCount */\n    tag_12:\n      callvalue\n      dup1\n      iszero\n      tag_74\n      jumpi\n      revert(0x00, 0x00)\n    tag_74:\n      pop\n      tag_75\n      0x04\n      dup1\n      calldatasize\n      sub\n      dup2\n      add\n      swap1\n      tag_76\n      swap2\n      swap1\n      tag_35\n      jump\t// in\n    tag_76:\n      tag_77\n      jump\t// in\n    tag_75:\n      mload(0x40)\n      tag_78\n      swap2\n      swap1\n      tag_51\n      jump\t// in\n    tag_78:\n      mload(0x40)\n      dup1\n      swap2\n      sub\n      swap1\n      return\n        /* \"contracts/contracts/DisputeDAO.sol\":2038:2269  function setFactory(address _factory) external {... */\n    tag_13:\n      callvalue\n      dup1\n      iszero\n      tag_79\n      jumpi\n      revert(0x00, 0x00)\n    tag_79:\n      pop\n      tag_80\n      0x04\n      dup1\n      calldatasize\n      sub\n      dup2\n      add\n      swap1\n      tag_81\n      swap2\n      swap1\n      tag_82\n      jump\t// in\n    tag_81:\n      tag_83\n      jump\t// in\n    tag_80:\n      stop\n        /* \"contracts/contracts/DisputeDAO.sol\":7635:7685  uint256 public constant JUROR_REWARD = 0.003 ether */\n    tag_14:\n      callvalue\n      dup1\n      iszero\n      tag_84\n      jumpi\n      revert(0x00, 0x00)\n    tag_84:\n      pop\n      tag_85\n      tag_86\n      jump\t// in\n    tag_85:\n      mload(0x40)\n      tag_87\n      swap2\n      swap1\n      tag_51\n      jump\t// in\n    tag_87:\n      mload(0x40)\n      dup1\n      swap2\n      sub\n      swap1\n      return\n        /* \"contracts/contracts/DisputeDAO.sol\":8915:9433  function getActiveJurors() external view returns (address[] memory) {... */\n    tag_15:\n      callvalue\n      dup1\n      iszero\n      tag_88\n      jumpi\n      revert(0x00, 0x00)\n    tag_88:\n      pop\n      tag_89\n      tag_90\n      jump\t// in\n    tag_89:\n      mload(0x40)\n      tag_91\n      swap2\n      swap1\n      tag_65\n      jump\t// in\n    tag_91:\n      mload(0x40)\n      dup1\n      swap2\n      sub\n      swap1\n      return\n        /* \"contracts/contracts/DisputeDAO.sol\":393:419  address[] public jurorList */\n    tag_16:\n      callvalue\n      dup1\n      iszero\n      tag_92\n      jumpi\n      revert(0x00, 0x00)\n    tag_92:\n      pop\n      tag_93\n      0x04\n      dup1\n      calldatasize\n      sub\n      dup2\n      add\n      swap1\n      tag_94\n      swap2\n      swap1\n      tag_35\n      jump\t// in\n    tag_94:\n      tag_95\n      jump\t// in\n    tag_93:\n      mload(0x40)\n      tag_96\n      swap2\n      swap1\n      tag_43\n      jump\t// in\n    tag_96:\n      mload(0x40)\n      dup1\n      swap2\n      sub\n      swap1\n      return\n        /* \"contracts/contracts/DisputeDAO.sol\":1107:1176  mapping(uint256 => mapping(address => uint256)) public candidateVotes */\n    tag_17:\n      callvalue\n      dup1\n      iszero\n      tag_97\n      jumpi\n      revert(0x00, 0x00)\n    tag_97:\n      pop\n      tag_98\n      0x04\n      dup1\n      calldatasize\n      sub\n      dup2\n      add\n      swap1\n      tag_99\n      swap2\n      swap1\n      tag_30\n      jump\t// in\n    tag_99:\n      tag_100\n      jump\t// in\n    tag_98:\n      mload(0x40)\n      tag_101\n      swap2\n      swap1\n      tag_51\n      jump\t// in\n    tag_101:\n      mload(0x40)\n      dup1\n      swap2\n      sub\n      swap1\n      return\n        /* \"contracts/contracts/DisputeDAO.sol\":613:639  address public taskFactory */\n    tag_18:\n      callvalue\n      dup1\n      iszero\n      tag_102\n      jumpi\n      revert(0x00, 0x00)\n    tag_102:\n      pop\n      tag_103\n      tag_104\n      jump\t// in\n    tag_103:\n      mload(0x40)\n      tag_105\n      swap2\n      swap1\n      tag_43\n      jump\t// in\n    tag_105:\n      mload(0x40)\n      dup1\n      swap2\n      sub\n      swap1\n      return\n        /* \"contracts/contracts/DisputeDAO.sol\":912:972  mapping(uint256 => mapping(address => address)) public votes */\n    tag_19:\n      callvalue\n      dup1\n      iszero\n      tag_106\n      jumpi\n      revert(0x00, 0x00)\n    tag_106:\n      pop\n      tag_107\n      0x04\n      dup1\n      calldatasize\n      sub\n      dup2\n      add\n      swap1\n      tag_108\n      swap2\n      swap1\n      tag_30\n      jump\t// in\n    tag_108:\n      tag_109\n      jump\t// in\n    tag_107:\n      mload(0x40)\n      tag_110\n      swap2\n      swap1\n      tag_43\n      jump\t// in\n    tag_110:\n      mload(0x40)\n      dup1\n      swap2\n      sub\n      swap1\n      return\n        /* \"contracts/contracts/DisputeDAO.sol\":571:606  uint256 public jurorsPerDispute = 3 */\n    tag_20:\n      callvalue\n      dup1\n      iszero\n      tag_111\n      jumpi\n      revert(0x00, 0x00)\n    tag_111:\n      pop\n      tag_112\n      tag_113\n      jump\t// in\n    tag_112:\n      mload(0x40)\n      tag_114\n      swap2\n      swap1\n      tag_51\n      jump\t// in\n    tag_114:\n      mload(0x40)\n      dup1\n      swap2\n      sub\n      swap1\n      return\n        /* \"contracts/contracts/DisputeDAO.sol\":347:386  mapping(address => Juror) public jurors */\n    tag_21:\n      callvalue\n      dup1\n      iszero\n      tag_115\n      jumpi\n      revert(0x00, 0x00)\n    tag_115:\n      pop\n      tag_116\n      0x04\n      dup1\n      calldatasize\n      sub\n      dup2\n      add\n      swap1\n      tag_117\n      swap2\n      swap1\n      tag_82\n      jump\t// in\n    tag_117:\n      tag_118\n      jump\t// in\n    tag_116:\n      mload(0x40)\n      tag_119\n      swap5\n      swap4\n      swap3\n      swap2\n      swap1\n      tag_120\n      jump\t// in\n    tag_119:\n      mload(0x40)\n      dup1\n      swap2\n      sub\n      swap1\n      return\n        /* \"contracts/contracts/DisputeDAO.sol\":646:676  bool public factorySet = false */\n    tag_22:\n      callvalue\n      dup1\n      iszero\n      tag_121\n      jumpi\n      revert(0x00, 0x00)\n    tag_121:\n      pop\n      tag_122\n      tag_123\n      jump\t// in\n    tag_122:\n      mload(0x40)\n      tag_124\n      swap2\n      swap1\n      tag_59\n      jump\t// in\n    tag_124:\n      mload(0x40)\n      dup1\n      swap2\n      sub\n      swap1\n      return\n        /* \"contracts/contracts/DisputeDAO.sol\":8614:8871  function getJurorInfo(address _jurorAddr) external view returns (uint256 stakeAmount, bool isActive, uint256 lastDisputeId) {... */\n    tag_23:\n      callvalue\n      dup1\n      iszero\n      tag_125\n      jumpi\n      revert(0x00, 0x00)\n    tag_125:\n      pop\n      tag_126\n      0x04\n      dup1\n      calldatasize\n      sub\n      dup2\n      add\n      swap1\n      tag_127\n      swap2\n      swap1\n      tag_82\n      jump\t// in\n    tag_127:\n      tag_128\n      jump\t// in\n    tag_126:\n      mload(0x40)\n      tag_129\n      swap4\n      swap3\n      swap2\n      swap1\n      tag_130\n      jump\t// in\n    tag_129:\n      mload(0x40)\n      dup1\n      swap2\n      sub\n      swap1\n      return\n        /* \"contracts/contracts/DisputeDAO.sol\":5942:7579  function vote(uint256 disputeId, address winner) external {... */\n    tag_31:\n        /* \"contracts/contracts/DisputeDAO.sol\":6019:6025  jurors */\n      0x00\n        /* \"contracts/contracts/DisputeDAO.sol\":6019:6037  jurors[msg.sender] */\n      0x00\n        /* \"contracts/contracts/DisputeDAO.sol\":6026:6036  msg.sender */\n      caller\n        /* \"contracts/contracts/DisputeDAO.sol\":6019:6037  jurors[msg.sender] */\n      0xffffffffffffffffffffffffffffffffffffffff\n      and\n      0xffffffffffffffffffffffffffffffffffffffff\n      and\n      dup2\n      mstore\n      0x20\n      add\n      swap1\n      dup2\n      mstore\n      0x20\n      add\n      0x00\n      keccak256\n        /* \"contracts/contracts/DisputeDAO.sol\":6019:6046  jurors[msg.sender].isActive */\n      0x02\n      add\n      0x00\n      swap1\n      sload\n      swap1\n      0x0100\n      exp\n      swap1\n      div\n      0xff\n      and\n        /* \"contracts/contracts/DisputeDAO.sol\":6011:6062  require(jurors[msg.sender].isActive, \"Not a juror\") */\n      tag_132\n      jumpi\n      mload(0x40)\n      0x08c379a000000000000000000000000000000000000000000000000000000000\n      dup2\n      mstore\n      0x04\n      add\n      tag_133\n      swap1\n      tag_134\n      jump\t// in\n    tag_133:\n      mload(0x40)\n      dup1\n      swap2\n      sub\n      swap1\n      revert\n    tag_132:\n        /* \"contracts/contracts/DisputeDAO.sol\":6119:6131  bool isJuror */\n      0x00\n        /* \"contracts/contracts/DisputeDAO.sol\":6134:6139  false */\n      0x00\n        /* \"contracts/contracts/DisputeDAO.sol\":6119:6139  bool isJuror = false */\n      swap1\n      pop\n        /* \"contracts/contracts/DisputeDAO.sol\":6155:6161  uint i */\n      0x00\n        /* \"contracts/contracts/DisputeDAO.sol\":6164:6165  0 */\n      0x00\n        /* \"contracts/contracts/DisputeDAO.sol\":6155:6165  uint i = 0 */\n      swap1\n      pop\n        /* \"contracts/contracts/DisputeDAO.sol\":6150:6355  for (uint i = 0; i < disputeJurors[disputeId].length; i++) {... */\n    tag_135:\n        /* \"contracts/contracts/DisputeDAO.sol\":6171:6184  disputeJurors */\n      0x06\n        /* \"contracts/contracts/DisputeDAO.sol\":6171:6195  disputeJurors[disputeId] */\n      0x00\n        /* \"contracts/contracts/DisputeDAO.sol\":6185:6194  disputeId */\n      dup6\n        /* \"contracts/contracts/DisputeDAO.sol\":6171:6195  disputeJurors[disputeId] */\n      dup2\n      mstore\n      0x20\n      add\n      swap1\n      dup2\n      mstore\n      0x20\n      add\n      0x00\n      keccak256\n        /* \"contracts/contracts/DisputeDAO.sol\":6171:6202  disputeJurors[disputeId].length */\n      dup1\n      sload\n      swap1\n      pop\n        /* \"contracts/contracts/DisputeDAO.sol\":6167:6168  i */\n      dup2\n        /* \"contracts/contracts/DisputeDAO.sol\":6167:6202  i < disputeJurors[disputeId].length */\n      lt\n        /* \"contracts/contracts/DisputeDAO.sol\":6150:6355  for (uint i = 0; i < disputeJurors[disputeId].length; i++) {... */\n      iszero\n      tag_136\n      jumpi\n        /* \"contracts/contracts/DisputeDAO.sol\":6259:6269  msg.sender */\n      caller\n        /* \"contracts/contracts/DisputeDAO.sol\":6228:6269  disputeJurors[disputeId][i] == msg.sender */\n      0xffffffffffffffffffffffffffffffffffffffff\n      and\n        /* \"contracts/contracts/DisputeDAO.sol\":6228:6241  disputeJurors */\n      0x06\n        /* \"contracts/contracts/DisputeDAO.sol\":6228:6252  disputeJurors[disputeId] */\n      0x00\n        /* \"contracts/contracts/DisputeDAO.sol\":6242:6251  disputeId */\n      dup7\n        /* \"contracts/contracts/DisputeDAO.sol\":6228:6252  disputeJurors[disputeId] */\n      dup2\n      mstore\n      0x20\n      add\n      swap1\n      dup2\n      mstore\n      0x20\n      add\n      0x00\n      keccak256\n        /* \"contracts/contracts/DisputeDAO.sol\":6253:6254  i */\n      dup3\n        /* \"contracts/contracts/DisputeDAO.sol\":6228:6255  disputeJurors[disputeId][i] */\n      dup2\n      sload\n      dup2\n      lt\n      tag_138\n      jumpi\n      tag_139\n      tag_140\n      jump\t// in\n    tag_139:\n    tag_138:\n      swap1\n      0x00\n      mstore\n      keccak256(0x00, 0x20)\n      add\n      0x00\n      swap1\n      sload\n      swap1\n      0x0100\n      exp\n      swap1\n      div\n      0xffffffffffffffffffffffffffffffffffffffff\n      and\n        /* \"contracts/contracts/DisputeDAO.sol\":6228:6269  disputeJurors[disputeId][i] == msg.sender */\n      0xffffffffffffffffffffffffffffffffffffffff\n      and\n      sub\n        /* \"contracts/contracts/DisputeDAO.sol\":6224:6344  if (disputeJurors[disputeId][i] == msg.sender) {... */\n      tag_142\n      jumpi\n        /* \"contracts/contracts/DisputeDAO.sol\":6300:6304  true */\n      0x01\n        /* \"contracts/contracts/DisputeDAO.sol\":6290:6304  isJuror = true */\n      swap2\n      pop\n        /* \"contracts/contracts/DisputeDAO.sol\":6323:6328  break */\n      jump(tag_136)\n        /* \"contracts/contracts/DisputeDAO.sol\":6224:6344  if (disputeJurors[disputeId][i] == msg.sender) {... */\n    tag_142:\n        /* \"contracts/contracts/DisputeDAO.sol\":6204:6207  i++ */\n      dup1\n      dup1\n      0x01\n      add\n      swap2\n      pop\n      pop\n        /* \"contracts/contracts/DisputeDAO.sol\":6150:6355  for (uint i = 0; i < disputeJurors[disputeId].length; i++) {... */\n      jump(tag_135)\n    tag_136:\n      pop\n        /* \"contracts/contracts/DisputeDAO.sol\":6373:6380  isJuror */\n      dup1\n        /* \"contracts/contracts/DisputeDAO.sol\":6365:6403  require(isJuror, \"Not selected juror\") */\n      tag_143\n      jumpi\n      mload(0x40)\n      0x08c379a000000000000000000000000000000000000000000000000000000000\n      dup2\n      mstore\n      0x04\n      add\n      tag_144\n      swap1\n      tag_145\n      jump\t// in\n    tag_144:\n      mload(0x40)\n      dup1\n      swap2\n      sub\n      swap1\n      revert\n    tag_143:\n        /* \"contracts/contracts/DisputeDAO.sol\":6423:6431  hasVoted */\n      0x07\n        /* \"contracts/contracts/DisputeDAO.sol\":6423:6442  hasVoted[disputeId] */\n      0x00\n        /* \"contracts/contracts/DisputeDAO.sol\":6432:6441  disputeId */\n      dup5\n        /* \"contracts/contracts/DisputeDAO.sol\":6423:6442  hasVoted[disputeId] */\n      dup2\n      mstore\n      0x20\n      add\n      swap1\n      dup2\n      mstore\n      0x20\n      add\n      0x00\n      keccak256\n        /* \"contracts/contracts/DisputeDAO.sol\":6423:6454  hasVoted[disputeId][msg.sender] */\n      0x00\n        /* \"contracts/contracts/DisputeDAO.sol\":6443:6453  msg.sender */\n      caller\n        /* \"contracts/contracts/DisputeDAO.sol\":6423:6454  hasVoted[disputeId][msg.sender] */\n      0xffffffffffffffffffffffffffffffffffffffff\n      and\n      0xffffffffffffffffffffffffffffffffffffffff\n      and\n      dup2\n      mstore\n      0x20\n      add\n      swap1\n      dup2\n      mstore\n      0x20\n      add\n      0x00\n      keccak256\n      0x00\n      swap1\n      sload\n      swap1\n      0x0100\n      exp\n      swap1\n      div\n      0xff\n      and\n        /* \"contracts/contracts/DisputeDAO.sol\":6422:6454  !hasVoted[disputeId][msg.sender] */\n      iszero\n        /* \"contracts/contracts/DisputeDAO.sol\":6414:6472  require(!hasVoted[disputeId][msg.sender], \"Already voted\") */\n      tag_146\n      jumpi\n      mload(0x40)\n      0x08c379a000000000000000000000000000000000000000000000000000000000\n      dup2\n      mstore\n      0x04\n      add\n      tag_147\n      swap1\n      tag_148\n      jump\t// in\n    tag_147:\n      mload(0x40)\n      dup1\n      swap2\n      sub\n      swap1\n      revert\n    tag_146:\n        /* \"contracts/contracts/DisputeDAO.sol\":6517:6521  true */\n      0x01\n        /* \"contracts/contracts/DisputeDAO.sol\":6483:6491  hasVoted */\n      0x07\n        /* \"contracts/contracts/DisputeDAO.sol\":6483:6502  hasVoted[disputeId] */\n      0x00\n        /* \"contracts/contracts/DisputeDAO.sol\":6492:6501  disputeId */\n      dup6\n        /* \"contracts/contracts/DisputeDAO.sol\":6483:6502  hasVoted[disputeId] */\n      dup2\n      mstore\n      0x20\n      add\n      swap1\n      dup2\n      mstore\n      0x20\n      add\n      0x00\n      keccak256\n        /* \"contracts/contracts/DisputeDAO.sol\":6483:6514  hasVoted[disputeId][msg.sender] */\n      0x00\n        /* \"contracts/contracts/DisputeDAO.sol\":6503:6513  msg.sender */\n      caller\n        /* \"contracts/contracts/DisputeDAO.sol\":6483:6514  hasVoted[disputeId][msg.sender] */\n      0xffffffffffffffffffffffffffffffffffffffff\n      and\n      0xffffffffffffffffffffffffffffffffffffffff\n      and\n      dup2\n      mstore\n      0x20\n      add\n      swap1\n      dup2\n      mstore\n      0x20\n      add\n      0x00\n      keccak256\n      0x00\n        /* \"contracts/contracts/DisputeDAO.sol\":6483:6521  hasVoted[disputeId][msg.sender] = true */\n      0x0100\n      exp\n      dup2\n      sload\n      dup2\n      0xff\n      mul\n      not\n      and\n      swap1\n      dup4\n      iszero\n      iszero\n      mul\n      or\n      swap1\n      sstore\n      pop\n        /* \"contracts/contracts/DisputeDAO.sol\":6563:6569  winner */\n      dup2\n        /* \"contracts/contracts/DisputeDAO.sol\":6532:6537  votes */\n      0x08\n        /* \"contracts/contracts/DisputeDAO.sol\":6532:6548  votes[disputeId] */\n      0x00\n        /* \"contracts/contracts/DisputeDAO.sol\":6538:6547  disputeId */\n      dup6\n        /* \"contracts/contracts/DisputeDAO.sol\":6532:6548  votes[disputeId] */\n      dup2\n      mstore\n      0x20\n      add\n      swap1\n      dup2\n      mstore\n      0x20\n      add\n      0x00\n      keccak256\n        /* \"contracts/contracts/DisputeDAO.sol\":6532:6560  votes[disputeId][msg.sender] */\n      0x00\n        /* \"contracts/contracts/DisputeDAO.sol\":6549:6559  msg.sender */\n      caller\n        /* \"contracts/contracts/DisputeDAO.sol\":6532:6560  votes[disputeId][msg.sender] */\n      0xffffffffffffffffffffffffffffffffffffffff\n      and\n      0xffffffffffffffffffffffffffffffffffffffff\n      and\n      dup2\n      mstore\n      0x20\n      add\n      swap1\n      dup2\n      mstore\n      0x20\n      add\n      0x00\n      keccak256\n      0x00\n        /* \"contracts/contracts/DisputeDAO.sol\":6532:6569  votes[disputeId][msg.sender] = winner */\n      0x0100\n      exp\n      dup2\n      sload\n      dup2\n      0xffffffffffffffffffffffffffffffffffffffff\n      mul\n      not\n      and\n      swap1\n      dup4\n      0xffffffffffffffffffffffffffffffffffffffff\n      and\n      mul\n      or\n      swap1\n      sstore\n      pop\n        /* \"contracts/contracts/DisputeDAO.sol\":6580:6594  candidateVotes */\n      0x0a\n        /* \"contracts/contracts/DisputeDAO.sol\":6580:6605  candidateVotes[disputeId] */\n      0x00\n        /* \"contracts/contracts/DisputeDAO.sol\":6595:6604  disputeId */\n      dup5\n        /* \"contracts/contracts/DisputeDAO.sol\":6580:6605  candidateVotes[disputeId] */\n      dup2\n      mstore\n      0x20\n      add\n      swap1\n      dup2\n      mstore\n      0x20\n      add\n      0x00\n      keccak256\n        /* \"contracts/contracts/DisputeDAO.sol\":6580:6613  candidateVotes[disputeId][winner] */\n      0x00\n        /* \"contracts/contracts/DisputeDAO.sol\":6606:6612  winner */\n      dup4\n        /* \"contracts/contracts/DisputeDAO.sol\":6580:6613  candidateVotes[disputeId][winner] */\n      0xffffffffffffffffffffffffffffffffffffffff\n      and\n      0xffffffffffffffffffffffffffffffffffffffff\n      and\n      dup2\n      mstore\n      0x20\n      add\n      swap1\n      dup2\n      mstore\n      0x20\n      add\n      0x00\n      keccak256\n      0x00\n        /* \"contracts/contracts/DisputeDAO.sol\":6580:6615  candidateVotes[disputeId][winner]++ */\n      dup2\n      sload\n      dup1\n      swap3\n      swap2\n      swap1\n      tag_149\n      swap1\n      tag_150\n      jump\t// in\n    tag_149:\n      swap2\n      swap1\n      pop\n      sstore\n      pop\n        /* \"contracts/contracts/DisputeDAO.sol\":6626:6635  voteCount */\n      0x09\n        /* \"contracts/contracts/DisputeDAO.sol\":6626:6646  voteCount[disputeId] */\n      0x00\n        /* \"contracts/contracts/DisputeDAO.sol\":6636:6645  disputeId */\n      dup5\n        /* \"contracts/contracts/DisputeDAO.sol\":6626:6646  voteCount[disputeId] */\n      dup2\n      mstore\n      0x20\n      add\n      swap1\n      dup2\n      mstore\n      0x20\n      add\n      0x00\n      keccak256\n      0x00\n        /* \"contracts/contracts/DisputeDAO.sol\":6626:6648  voteCount[disputeId]++ */\n      dup2\n      sload\n      dup1\n      swap3\n      swap2\n      swap1\n      tag_151\n      swap1\n      tag_150\n      jump\t// in\n    tag_151:\n      swap2\n      swap1\n      pop\n      sstore\n      pop\n        /* \"contracts/contracts/DisputeDAO.sol\":6681:6691  msg.sender */\n      caller\n        /* \"contracts/contracts/DisputeDAO.sol\":6664:6700  Voted(disputeId, msg.sender, winner) */\n      0xffffffffffffffffffffffffffffffffffffffff\n      and\n        /* \"contracts/contracts/DisputeDAO.sol\":6670:6679  disputeId */\n      dup4\n        /* \"contracts/contracts/DisputeDAO.sol\":6664:6700  Voted(disputeId, msg.sender, winner) */\n      0xf6c8f1f54b2f54fb963820203fdef5b9aefb56ae2c4dd8b6133e151791a07f36\n        /* \"contracts/contracts/DisputeDAO.sol\":6693:6699  winner */\n      dup5\n        /* \"contracts/contracts/DisputeDAO.sol\":6664:6700  Voted(disputeId, msg.sender, winner) */\n      mload(0x40)\n      tag_152\n      swap2\n      swap1\n      tag_43\n      jump\t// in\n    tag_152:\n      mload(0x40)\n      dup1\n      swap2\n      sub\n      swap1\n      log3\n        /* \"contracts/contracts/DisputeDAO.sol\":6779:6795  jurorsPerDispute */\n      sload(0x03)\n        /* \"contracts/contracts/DisputeDAO.sol\":6755:6764  voteCount */\n      0x09\n        /* \"contracts/contracts/DisputeDAO.sol\":6755:6775  voteCount[disputeId] */\n      0x00\n        /* \"contracts/contracts/DisputeDAO.sol\":6765:6774  disputeId */\n      dup6\n        /* \"contracts/contracts/DisputeDAO.sol\":6755:6775  voteCount[disputeId] */\n      dup2\n      mstore\n      0x20\n      add\n      swap1\n      dup2\n      mstore\n      0x20\n      add\n      0x00\n      keccak256\n      sload\n        /* \"contracts/contracts/DisputeDAO.sol\":6755:6795  voteCount[disputeId] == jurorsPerDispute */\n      sub\n        /* \"contracts/contracts/DisputeDAO.sol\":6751:7572  if (voteCount[disputeId] == jurorsPerDispute) {... */\n      tag_153\n      jumpi\n        /* \"contracts/contracts/DisputeDAO.sol\":6812:6831  address finalWinner */\n      0x00\n        /* \"contracts/contracts/DisputeDAO.sol\":6834:6840  winner */\n      dup3\n        /* \"contracts/contracts/DisputeDAO.sol\":6812:6840  address finalWinner = winner */\n      swap1\n      pop\n        /* \"contracts/contracts/DisputeDAO.sol\":6855:6871  uint256 maxVotes */\n      0x00\n        /* \"contracts/contracts/DisputeDAO.sol\":6874:6875  0 */\n      0x00\n        /* \"contracts/contracts/DisputeDAO.sol\":6855:6875  uint256 maxVotes = 0 */\n      swap1\n      pop\n        /* \"contracts/contracts/DisputeDAO.sol\":6895:6901  uint i */\n      0x00\n        /* \"contracts/contracts/DisputeDAO.sol\":6904:6905  0 */\n      0x00\n        /* \"contracts/contracts/DisputeDAO.sol\":6895:6905  uint i = 0 */\n      swap1\n      pop\n        /* \"contracts/contracts/DisputeDAO.sol\":6890:7253  for (uint i = 0; i < disputeJurors[disputeId].length; i++) {... */\n    tag_154:\n        /* \"contracts/contracts/DisputeDAO.sol\":6911:6924  disputeJurors */\n      0x06\n        /* \"contracts/contracts/DisputeDAO.sol\":6911:6935  disputeJurors[disputeId] */\n      0x00\n        /* \"contracts/contracts/DisputeDAO.sol\":6925:6934  disputeId */\n      dup8\n        /* \"contracts/contracts/DisputeDAO.sol\":6911:6935  disputeJurors[disputeId] */\n      dup2\n      mstore\n      0x20\n      add\n      swap1\n      dup2\n      mstore\n      0x20\n      add\n      0x00\n      keccak256\n        /* \"contracts/contracts/DisputeDAO.sol\":6911:6942  disputeJurors[disputeId].length */\n      dup1\n      sload\n      swap1\n      pop\n        /* \"contracts/contracts/DisputeDAO.sol\":6907:6908  i */\n      dup2\n        /* \"contracts/contracts/DisputeDAO.sol\":6907:6942  i < disputeJurors[disputeId].length */\n      lt\n        /* \"contracts/contracts/DisputeDAO.sol\":6890:7253  for (uint i = 0; i < disputeJurors[disputeId].length; i++) {... */\n      iszero\n      tag_155\n      jumpi\n        /* \"contracts/contracts/DisputeDAO.sol\":6968:6985  address candidate */\n      0x00\n        /* \"contracts/contracts/DisputeDAO.sol\":6988:6993  votes */\n      0x08\n        /* \"contracts/contracts/DisputeDAO.sol\":6988:7004  votes[disputeId] */\n      0x00\n        /* \"contracts/contracts/DisputeDAO.sol\":6994:7003  disputeId */\n      dup9\n        /* \"contracts/contracts/DisputeDAO.sol\":6988:7004  votes[disputeId] */\n      dup2\n      mstore\n      0x20\n      add\n      swap1\n      dup2\n      mstore\n      0x20\n      add\n      0x00\n      keccak256\n        /* \"contracts/contracts/DisputeDAO.sol\":6988:7033  votes[disputeId][disputeJurors[disputeId][i]] */\n      0x00\n        /* \"contracts/contracts/DisputeDAO.sol\":7005:7018  disputeJurors */\n      0x06\n        /* \"contracts/contracts/DisputeDAO.sol\":7005:7029  disputeJurors[disputeId] */\n      0x00\n        /* \"contracts/contracts/DisputeDAO.sol\":7019:7028  disputeId */\n      dup11\n        /* \"contracts/contracts/DisputeDAO.sol\":7005:7029  disputeJurors[disputeId] */\n      dup2\n      mstore\n      0x20\n      add\n      swap1\n      dup2\n      mstore\n      0x20\n      add\n      0x00\n      keccak256\n        /* \"contracts/contracts/DisputeDAO.sol\":7030:7031  i */\n      dup5\n        /* \"contracts/contracts/DisputeDAO.sol\":7005:7032  disputeJurors[disputeId][i] */\n      dup2\n      sload\n      dup2\n      lt\n      tag_157\n      jumpi\n      tag_158\n      tag_140\n      jump\t// in\n    tag_158:\n    tag_157:\n      swap1\n      0x00\n      mstore\n      keccak256(0x00, 0x20)\n      add\n      0x00\n      swap1\n      sload\n      swap1\n      0x0100\n      exp\n      swap1\n      div\n      0xffffffffffffffffffffffffffffffffffffffff\n      and\n        /* \"contracts/contracts/DisputeDAO.sol\":6988:7033  votes[disputeId][disputeJurors[disputeId][i]] */\n      0xffffffffffffffffffffffffffffffffffffffff\n      and\n      0xffffffffffffffffffffffffffffffffffffffff\n      and\n      dup2\n      mstore\n      0x20\n      add\n      swap1\n      dup2\n      mstore\n      0x20\n      add\n      0x00\n      keccak256\n      0x00\n      swap1\n      sload\n      swap1\n      0x0100\n      exp\n      swap1\n      div\n      0xffffffffffffffffffffffffffffffffffffffff\n      and\n        /* \"contracts/contracts/DisputeDAO.sol\":6968:7033  address candidate = votes[disputeId][disputeJurors[disputeId][i]] */\n      swap1\n      pop\n        /* \"contracts/contracts/DisputeDAO.sol\":7052:7061  uint256 v */\n      0x00\n        /* \"contracts/contracts/DisputeDAO.sol\":7064:7078  candidateVotes */\n      0x0a\n        /* \"contracts/contracts/DisputeDAO.sol\":7064:7089  candidateVotes[disputeId] */\n      0x00\n        /* \"contracts/contracts/DisputeDAO.sol\":7079:7088  disputeId */\n      dup10\n        /* \"contracts/contracts/DisputeDAO.sol\":7064:7089  candidateVotes[disputeId] */\n      dup2\n      mstore\n      0x20\n      add\n      swap1\n      dup2\n      mstore\n      0x20\n      add\n      0x00\n      keccak256\n        /* \"contracts/contracts/DisputeDAO.sol\":7064:7100  candidateVotes[disputeId][candidate] */\n      0x00\n        /* \"contracts/contracts/DisputeDAO.sol\":7090:7099  candidate */\n      dup4\n        /* \"contracts/contracts/DisputeDAO.sol\":7064:7100  candidateVotes[disputeId][candidate] */\n      0xffffffffffffffffffffffffffffffffffffffff\n      and\n      0xffffffffffffffffffffffffffffffffffffffff\n      and\n      dup2\n      mstore\n      0x20\n      add\n      swap1\n      dup2\n      mstore\n      0x20\n      add\n      0x00\n      keccak256\n      sload\n        /* \"contracts/contracts/DisputeDAO.sol\":7052:7100  uint256 v = candidateVotes[disputeId][candidate] */\n      swap1\n      pop\n        /* \"contracts/contracts/DisputeDAO.sol\":7127:7135  maxVotes */\n      dup4\n        /* \"contracts/contracts/DisputeDAO.sol\":7123:7124  v */\n      dup2\n        /* \"contracts/contracts/DisputeDAO.sol\":7123:7135  v > maxVotes */\n      gt\n        /* \"contracts/contracts/DisputeDAO.sol\":7119:7238  if (v > maxVotes) {... */\n      iszero\n      tag_160\n      jumpi\n        /* \"contracts/contracts/DisputeDAO.sol\":7171:7172  v */\n      dup1\n        /* \"contracts/contracts/DisputeDAO.sol\":7160:7172  maxVotes = v */\n      swap4\n      pop\n        /* \"contracts/contracts/DisputeDAO.sol\":7209:7218  candidate */\n      dup2\n        /* \"contracts/contracts/DisputeDAO.sol\":7195:7218  finalWinner = candidate */\n      swap5\n      pop\n        /* \"contracts/contracts/DisputeDAO.sol\":7119:7238  if (v > maxVotes) {... */\n    tag_160:\n        /* \"contracts/contracts/DisputeDAO.sol\":6949:7253  {... */\n      pop\n      pop\n        /* \"contracts/contracts/DisputeDAO.sol\":6944:6947  i++ */\n      dup1\n      dup1\n      0x01\n      add\n      swap2\n      pop\n      pop\n        /* \"contracts/contracts/DisputeDAO.sol\":6890:7253  for (uint i = 0; i < disputeJurors[disputeId].length; i++) {... */\n      jump(tag_154)\n    tag_155:\n      pop\n        /* \"contracts/contracts/DisputeDAO.sol\":7302:7314  bool success */\n      0x00\n        /* \"contracts/contracts/DisputeDAO.sol\":7320:7331  taskFactory */\n      0x04\n      0x00\n      swap1\n      sload\n      swap1\n      0x0100\n      exp\n      swap1\n      div\n      0xffffffffffffffffffffffffffffffffffffffff\n      and\n        /* \"contracts/contracts/DisputeDAO.sol\":7320:7336  taskFactory.call */\n      0xffffffffffffffffffffffffffffffffffffffff\n      and\n        /* \"contracts/contracts/DisputeDAO.sol\":7414:7423  disputeId */\n      dup7\n        /* \"contracts/contracts/DisputeDAO.sol\":7425:7436  finalWinner */\n      dup5\n        /* \"contracts/contracts/DisputeDAO.sol\":7355:7437  abi.encodeWithSignature(\"resolveDispute(uint256,address)\", disputeId, finalWinner) */\n      add(0x24, mload(0x40))\n      tag_161\n      swap3\n      swap2\n      swap1\n      tag_162\n      jump\t// in\n    tag_161:\n      mload(0x40)\n      0x20\n      dup2\n      dup4\n      sub\n      sub\n      dup2\n      mstore\n      swap1\n      0x40\n      mstore\n      and(not(0xffffffffffffffffffffffffffffffffffffffffffffffffffffffff), 0x0e33599d00000000000000000000000000000000000000000000000000000000)\n      0x20\n      dup3\n      add\n      dup1\n      mload\n      0xffffffffffffffffffffffffffffffffffffffffffffffffffffffff\n      dup4\n      dup2\n      dup4\n      and\n      or\n      dup4\n      mstore\n      pop\n      pop\n      pop\n      pop\n        /* \"contracts/contracts/DisputeDAO.sol\":7320:7452  taskFactory.call(... */\n      mload(0x40)\n      tag_163\n      swap2\n      swap1\n      tag_164\n      jump\t// in\n    tag_163:\n      0x00\n      mload(0x40)\n      dup1\n      dup4\n      sub\n      dup2\n      0x00\n      dup7\n      gas\n      call\n      swap2\n      pop\n      pop\n      returndatasize\n      dup1\n      0x00\n      dup2\n      eq\n      tag_167\n      jumpi\n      mload(0x40)\n      swap2\n      pop\n      and(add(returndatasize, 0x3f), not(0x1f))\n      dup3\n      add\n      0x40\n      mstore\n      returndatasize\n      dup3\n      mstore\n      returndatasize\n      0x00\n      0x20\n      dup5\n      add\n      returndatacopy\n      jump(tag_166)\n    tag_167:\n      0x60\n      swap2\n      pop\n    tag_166:\n      pop\n        /* \"contracts/contracts/DisputeDAO.sol\":7301:7452  (bool success, ) = taskFactory.call(... */\n      pop\n      swap1\n      pop\n        /* \"contracts/contracts/DisputeDAO.sol\":7475:7482  success */\n      dup1\n        /* \"contracts/contracts/DisputeDAO.sol\":7467:7501  require(success, \"Resolve failed\") */\n      tag_168\n      jumpi\n      mload(0x40)\n      0x08c379a000000000000000000000000000000000000000000000000000000000\n      dup2\n      mstore\n      0x04\n      add\n      tag_169\n      swap1\n      tag_170\n      jump\t// in\n    tag_169:\n      mload(0x40)\n      dup1\n      swap2\n      sub\n      swap1\n      revert\n    tag_168:\n        /* \"contracts/contracts/DisputeDAO.sol\":7537:7546  disputeId */\n      dup6\n        /* \"contracts/contracts/DisputeDAO.sol\":7521:7560  DisputeResolved(disputeId, finalWinner) */\n      0xf77ceb5e091d2da041bc760667f9d5fe7a756949eaf29250ad0e60ca6f4c27d9\n        /* \"contracts/contracts/DisputeDAO.sol\":7548:7559  finalWinner */\n      dup5\n        /* \"contracts/contracts/DisputeDAO.sol\":7521:7560  DisputeResolved(disputeId, finalWinner) */\n      mload(0x40)\n      tag_171\n      swap2\n      swap1\n      tag_43\n      jump\t// in\n    tag_171:\n      mload(0x40)\n      dup1\n      swap2\n      sub\n      swap1\n      log2\n        /* \"contracts/contracts/DisputeDAO.sol\":6797:7572  {... */\n      pop\n      pop\n      pop\n        /* \"contracts/contracts/DisputeDAO.sol\":6751:7572  if (voteCount[disputeId] == jurorsPerDispute) {... */\n    tag_153:\n        /* \"contracts/contracts/DisputeDAO.sol\":6000:7579  {... */\n      pop\n        /* \"contracts/contracts/DisputeDAO.sol\":5942:7579  function vote(uint256 disputeId, address winner) external {... */\n      pop\n      pop\n      jump\t// out\n        /* \"contracts/contracts/DisputeDAO.sol\":7754:8387  function arbitrateMaliciousTask(uint256 disputeId) external onlyTaskFactory {... */\n    tag_36:\n        /* \"contracts/contracts/DisputeDAO.sol\":1833:1844  taskFactory */\n      0x04\n      0x00\n      swap1\n      sload\n      swap1\n      0x0100\n      exp\n      swap1\n      div\n      0xffffffffffffffffffffffffffffffffffffffff\n      and\n        /* \"contracts/contracts/DisputeDAO.sol\":1819:1844  msg.sender == taskFactory */\n      0xffffffffffffffffffffffffffffffffffffffff\n      and\n        /* \"contracts/contracts/DisputeDAO.sol\":1819:1829  msg.sender */\n      caller\n        /* \"contracts/contracts/DisputeDAO.sol\":1819:1844  msg.sender == taskFactory */\n      0xffffffffffffffffffffffffffffffffffffffff\n      and\n      eq\n        /* \"contracts/contracts/DisputeDAO.sol\":1811:1865  require(msg.sender == taskFactory, \"Only TaskFactory\") */\n      tag_173\n      jumpi\n      mload(0x40)\n      0x08c379a000000000000000000000000000000000000000000000000000000000\n      dup2\n      mstore\n      0x04\n      add\n      tag_174\n      swap1\n      tag_175\n      jump\t// in\n    tag_174:\n      mload(0x40)\n      dup1\n      swap2\n      sub\n      swap1\n      revert\n    tag_173:\n        /* \"contracts/contracts/DisputeDAO.sol\":7841:7872  address[] memory disputeJurors_ */\n      0x00\n        /* \"contracts/contracts/DisputeDAO.sol\":7875:7888  disputeJurors */\n      0x06\n        /* \"contracts/contracts/DisputeDAO.sol\":7875:7899  disputeJurors[disputeId] */\n      0x00\n        /* \"contracts/contracts/DisputeDAO.sol\":7889:7898  disputeId */\n      dup4\n        /* \"contracts/contracts/DisputeDAO.sol\":7875:7899  disputeJurors[disputeId] */\n      dup2\n      mstore\n      0x20\n      add\n      swap1\n      dup2\n      mstore\n      0x20\n      add\n      0x00\n      keccak256\n        /* \"contracts/contracts/DisputeDAO.sol\":7841:7899  address[] memory disputeJurors_ = disputeJurors[disputeId] */\n      dup1\n      sload\n      dup1\n      0x20\n      mul\n      0x20\n      add\n      mload(0x40)\n      swap1\n      dup2\n      add\n      0x40\n      mstore\n      dup1\n      swap3\n      swap2\n      swap1\n      dup2\n      dup2\n      mstore\n      0x20\n      add\n      dup3\n      dup1\n      sload\n      dup1\n      iszero\n      tag_177\n      jumpi\n      0x20\n      mul\n      dup3\n      add\n      swap2\n      swap1\n      0x00\n      mstore\n      keccak256(0x00, 0x20)\n      swap1\n    tag_178:\n      dup2\n      0x00\n      swap1\n      sload\n      swap1\n      0x0100\n      exp\n      swap1\n      div\n      0xffffffffffffffffffffffffffffffffffffffff\n      and\n      0xffffffffffffffffffffffffffffffffffffffff\n      and\n      dup2\n      mstore\n      0x20\n      add\n      swap1\n      0x01\n      add\n      swap1\n      dup1\n      dup4\n      gt\n      tag_178\n      jumpi\n    tag_177:\n      pop\n      pop\n      pop\n      pop\n      pop\n      swap1\n      pop\n        /* \"contracts/contracts/DisputeDAO.sol\":7943:7959  jurorsPerDispute */\n      sload(0x03)\n        /* \"contracts/contracts/DisputeDAO.sol\":7918:7932  disputeJurors_ */\n      dup2\n        /* \"contracts/contracts/DisputeDAO.sol\":7918:7939  disputeJurors_.length */\n      mload\n        /* \"contracts/contracts/DisputeDAO.sol\":7918:7959  disputeJurors_.length == jurorsPerDispute */\n      eq\n        /* \"contracts/contracts/DisputeDAO.sol\":7910:8007  require(disputeJurors_.length == jurorsPerDispute, \"Dispute not started or juror count mismatch\") */\n      tag_179\n      jumpi\n      mload(0x40)\n      0x08c379a000000000000000000000000000000000000000000000000000000000\n      dup2\n      mstore\n      0x04\n      add\n      tag_180\n      swap1\n      tag_181\n      jump\t// in\n    tag_180:\n      mload(0x40)\n      dup1\n      swap2\n      sub\n      swap1\n      revert\n    tag_179:\n        /* \"contracts/contracts/DisputeDAO.sol\":8085:8097  bool success */\n      0x00\n        /* \"contracts/contracts/DisputeDAO.sol\":8103:8114  taskFactory */\n      0x04\n      0x00\n      swap1\n      sload\n      swap1\n      0x0100\n      exp\n      swap1\n      div\n      0xffffffffffffffffffffffffffffffffffffffff\n      and\n        /* \"contracts/contracts/DisputeDAO.sol\":8103:8119  taskFactory.call */\n      0xffffffffffffffffffffffffffffffffffffffff\n      and\n        /* \"contracts/contracts/DisputeDAO.sol\":8209:8218  disputeId */\n      dup4\n        /* \"contracts/contracts/DisputeDAO.sol\":8220:8234  disputeJurors_ */\n      dup4\n        /* \"contracts/contracts/DisputeDAO.sol\":7674:7685  0.003 ether */\n      0x0aa87bee538000\n        /* \"contracts/contracts/DisputeDAO.sol\":8134:8249  abi.encodeWithSignature(\"resolveMaliciousTask(uint256,address[],uint256)\", disputeId, disputeJurors_, JUROR_REWARD) */\n      add(0x24, mload(0x40))\n      tag_182\n      swap4\n      swap3\n      swap2\n      swap1\n      tag_183\n      jump\t// in\n    tag_182:\n      mload(0x40)\n      0x20\n      dup2\n      dup4\n      sub\n      sub\n      dup2\n      mstore\n      swap1\n      0x40\n      mstore\n      and(not(0xffffffffffffffffffffffffffffffffffffffffffffffffffffffff), 0x4ced8c8800000000000000000000000000000000000000000000000000000000)\n      0x20\n      dup3\n      add\n      dup1\n      mload\n      0xffffffffffffffffffffffffffffffffffffffffffffffffffffffff\n      dup4\n      dup2\n      dup4\n      and\n      or\n      dup4\n      mstore\n      pop\n      pop\n      pop\n      pop\n        /* \"contracts/contracts/DisputeDAO.sol\":8103:8260  taskFactory.call(... */\n      mload(0x40)\n      tag_184\n      swap2\n      swap1\n      tag_164\n      jump\t// in\n    tag_184:\n      0x00\n      mload(0x40)\n      dup1\n      dup4\n      sub\n      dup2\n      0x00\n      dup7\n      gas\n      call\n      swap2\n      pop\n      pop\n      returndatasize\n      dup1\n      0x00\n      dup2\n      eq\n      tag_187\n      jumpi\n      mload(0x40)\n      swap2\n      pop\n      and(add(returndatasize, 0x3f), not(0x1f))\n      dup3\n      add\n      0x40\n      mstore\n      returndatasize\n      dup3\n      mstore\n      returndatasize\n      0x00\n      0x20\n      dup5\n      add\n      returndatacopy\n      jump(tag_186)\n    tag_187:\n      0x60\n      swap2\n      pop\n    tag_186:\n      pop\n        /* \"contracts/contracts/DisputeDAO.sol\":8084:8260  (bool success, ) = taskFactory.call(... */\n      pop\n      swap1\n      pop\n        /* \"contracts/contracts/DisputeDAO.sol\":8279:8286  success */\n      dup1\n        /* \"contracts/contracts/DisputeDAO.sol\":8271:8315  require(success, \"Malicious resolve failed\") */\n      tag_188\n      jumpi\n      mload(0x40)\n      0x08c379a000000000000000000000000000000000000000000000000000000000\n      dup2\n      mstore\n      0x04\n      add\n      tag_189\n      swap1\n      tag_190\n      jump\t// in\n    tag_189:\n      mload(0x40)\n      dup1\n      swap2\n      sub\n      swap1\n      revert\n    tag_188:\n        /* \"contracts/contracts/DisputeDAO.sol\":8353:8362  disputeId */\n      dup3\n        /* \"contracts/contracts/DisputeDAO.sol\":8331:8379  MaliciousTaskResolved(disputeId, disputeJurors_) */\n      0x45be258c7ac307c57ff3ebde0a70f122ca9e4f76a87a9d25991297ba27524562\n        /* \"contracts/contracts/DisputeDAO.sol\":8364:8378  disputeJurors_ */\n      dup4\n        /* \"contracts/contracts/DisputeDAO.sol\":8331:8379  MaliciousTaskResolved(disputeId, disputeJurors_) */\n      mload(0x40)\n      tag_191\n      swap2\n      swap1\n      tag_65\n      jump\t// in\n    tag_191:\n      mload(0x40)\n      dup1\n      swap2\n      sub\n      swap1\n      log2\n        /* \"contracts/contracts/DisputeDAO.sol\":7830:8387  {... */\n      pop\n      pop\n        /* \"contracts/contracts/DisputeDAO.sol\":7754:8387  function arbitrateMaliciousTask(uint256 disputeId) external onlyTaskFactory {... */\n      pop\n      jump\t// out\n        /* \"contracts/contracts/DisputeDAO.sol\":788:838  mapping(uint256 => address[]) public disputeJurors */\n    tag_41:\n      mstore(0x20, 0x06)\n      dup2\n      0x00\n      mstore\n      keccak256(0x00, 0x40)\n      dup2\n      dup2\n      sload\n      dup2\n      lt\n      tag_192\n      jumpi\n      0x00\n      dup1\n      revert\n    tag_192:\n      swap1\n      0x00\n      mstore\n      keccak256(0x00, 0x20)\n      add\n      0x00\n      swap2\n      pop\n      swap2\n      pop\n      swap1\n      sload\n      swap1\n      0x0100\n      exp\n      swap1\n      div\n      0xffffffffffffffffffffffffffffffffffffffff\n      and\n      dup2\n      jump\t// out\n        /* \"contracts/contracts/DisputeDAO.sol\":2735:3077  function unstake() external {... */\n    tag_46:\n        /* \"contracts/contracts/DisputeDAO.sol\":2774:2793  Juror storage juror */\n      0x00\n        /* \"contracts/contracts/DisputeDAO.sol\":2796:2802  jurors */\n      0x00\n        /* \"contracts/contracts/DisputeDAO.sol\":2796:2814  jurors[msg.sender] */\n      0x00\n        /* \"contracts/contracts/DisputeDAO.sol\":2803:2813  msg.sender */\n      caller\n        /* \"contracts/contracts/DisputeDAO.sol\":2796:2814  jurors[msg.sender] */\n      0xffffffffffffffffffffffffffffffffffffffff\n      and\n      0xffffffffffffffffffffffffffffffffffffffff\n      and\n      dup2\n      mstore\n      0x20\n      add\n      swap1\n      dup2\n      mstore\n      0x20\n      add\n      0x00\n      keccak256\n        /* \"contracts/contracts/DisputeDAO.sol\":2774:2814  Juror storage juror = jurors[msg.sender] */\n      swap1\n      pop\n        /* \"contracts/contracts/DisputeDAO.sol\":2833:2838  juror */\n      dup1\n        /* \"contracts/contracts/DisputeDAO.sol\":2833:2847  juror.isActive */\n      0x02\n      add\n      0x00\n      swap1\n      sload\n      swap1\n      0x0100\n      exp\n      swap1\n      div\n      0xff\n      and\n        /* \"contracts/contracts/DisputeDAO.sol\":2825:2863  require(juror.isActive, \"Not a juror\") */\n      tag_195\n      jumpi\n      mload(0x40)\n      0x08c379a000000000000000000000000000000000000000000000000000000000\n      dup2\n      mstore\n      0x04\n      add\n      tag_196\n      swap1\n      tag_134\n      jump\t// in\n    tag_196:\n      mload(0x40)\n      dup1\n      swap2\n      sub\n      swap1\n      revert\n    tag_195:\n        /* \"contracts/contracts/DisputeDAO.sol\":2874:2888  uint256 amount */\n      0x00\n        /* \"contracts/contracts/DisputeDAO.sol\":2891:2896  juror */\n      dup2\n        /* \"contracts/contracts/DisputeDAO.sol\":2891:2908  juror.stakeAmount */\n      0x01\n      add\n      sload\n        /* \"contracts/contracts/DisputeDAO.sol\":2874:2908  uint256 amount = juror.stakeAmount */\n      swap1\n      pop\n        /* \"contracts/contracts/DisputeDAO.sol\":2936:2941  false */\n      0x00\n        /* \"contracts/contracts/DisputeDAO.sol\":2919:2924  juror */\n      dup3\n        /* \"contracts/contracts/DisputeDAO.sol\":2919:2933  juror.isActive */\n      0x02\n      add\n      0x00\n        /* \"contracts/contracts/DisputeDAO.sol\":2919:2941  juror.isActive = false */\n      0x0100\n      exp\n      dup2\n      sload\n      dup2\n      0xff\n      mul\n      not\n      and\n      swap1\n      dup4\n      iszero\n      iszero\n      mul\n      or\n      swap1\n      sstore\n      pop\n        /* \"contracts/contracts/DisputeDAO.sol\":2972:2973  0 */\n      0x00\n        /* \"contracts/contracts/DisputeDAO.sol\":2952:2957  juror */\n      dup3\n        /* \"contracts/contracts/DisputeDAO.sol\":2952:2969  juror.stakeAmount */\n      0x01\n      add\n        /* \"contracts/contracts/DisputeDAO.sol\":2952:2973  juror.stakeAmount = 0 */\n      dup2\n      swap1\n      sstore\n      pop\n        /* \"contracts/contracts/DisputeDAO.sol\":2992:3002  msg.sender */\n      caller\n        /* \"contracts/contracts/DisputeDAO.sol\":2984:3012  payable(msg.sender).transfer */\n      0xffffffffffffffffffffffffffffffffffffffff\n      and\n        /* \"contracts/contracts/DisputeDAO.sol\":2984:3020  payable(msg.sender).transfer(amount) */\n      0x08fc\n        /* \"contracts/contracts/DisputeDAO.sol\":3013:3019  amount */\n      dup3\n        /* \"contracts/contracts/DisputeDAO.sol\":2984:3020  payable(msg.sender).transfer(amount) */\n      swap1\n      dup2\n      iszero\n      mul\n      swap1\n      mload(0x40)\n      0x00\n      mload(0x40)\n      dup1\n      dup4\n      sub\n      dup2\n      dup6\n      dup9\n      dup9\n      call\n      swap4\n      pop\n      pop\n      pop\n      pop\n      iszero\n      dup1\n      iszero\n      tag_198\n      jumpi\n      returndatacopy(0x00, 0x00, returndatasize)\n      revert(0x00, returndatasize)\n    tag_198:\n      pop\n        /* \"contracts/contracts/DisputeDAO.sol\":3050:3060  msg.sender */\n      caller\n        /* \"contracts/contracts/DisputeDAO.sol\":3036:3069  JurorUnstaked(msg.sender, amount) */\n      0xffffffffffffffffffffffffffffffffffffffff\n      and\n      0x610a1d949cc1ca7d4391b2530deda84f33b5f02dbd462643f21cd8a1b3cd573f\n        /* \"contracts/contracts/DisputeDAO.sol\":3062:3068  amount */\n      dup3\n        /* \"contracts/contracts/DisputeDAO.sol\":3036:3069  JurorUnstaked(msg.sender, amount) */\n      mload(0x40)\n      tag_199\n      swap2\n      swap1\n      tag_51\n      jump\t// in\n    tag_199:\n      mload(0x40)\n      dup1\n      swap2\n      sub\n      swap1\n      log2\n        /* \"contracts/contracts/DisputeDAO.sol\":2763:3077  {... */\n      pop\n      pop\n        /* \"contracts/contracts/DisputeDAO.sol\":2735:3077  function unstake() external {... */\n      jump\t// out\n        /* \"contracts/contracts/DisputeDAO.sol\":484:519  uint256 public minStake = 0.1 ether */\n    tag_49:\n      sload(0x02)\n      dup2\n      jump\t// out\n        /* \"contracts/contracts/DisputeDAO.sol\":2313:2685  function stake() external payable {... */\n    tag_53:\n        /* \"contracts/contracts/DisputeDAO.sol\":2379:2387  minStake */\n      sload(0x02)\n        /* \"contracts/contracts/DisputeDAO.sol\":2366:2375  msg.value */\n      callvalue\n        /* \"contracts/contracts/DisputeDAO.sol\":2366:2387  msg.value >= minStake */\n      lt\n      iszero\n        /* \"contracts/contracts/DisputeDAO.sol\":2358:2410  require(msg.value >= minStake, \"Insufficient stake\") */\n      tag_201\n      jumpi\n      mload(0x40)\n      0x08c379a000000000000000000000000000000000000000000000000000000000\n      dup2\n      mstore\n      0x04\n      add\n      tag_202\n      swap1\n      tag_203\n      jump\t// in\n    tag_202:\n      mload(0x40)\n      dup1\n      swap2\n      sub\n      swap1\n      revert\n    tag_201:\n        /* \"contracts/contracts/DisputeDAO.sol\":2430:2436  jurors */\n      0x00\n        /* \"contracts/contracts/DisputeDAO.sol\":2430:2448  jurors[msg.sender] */\n      0x00\n        /* \"contracts/contracts/DisputeDAO.sol\":2437:2447  msg.sender */\n      caller\n        /* \"contracts/contracts/DisputeDAO.sol\":2430:2448  jurors[msg.sender] */\n      0xffffffffffffffffffffffffffffffffffffffff\n      and\n      0xffffffffffffffffffffffffffffffffffffffff\n      and\n      dup2\n      mstore\n      0x20\n      add\n      swap1\n      dup2\n      mstore\n      0x20\n      add\n      0x00\n      keccak256\n        /* \"contracts/contracts/DisputeDAO.sol\":2430:2457  jurors[msg.sender].isActive */\n      0x02\n      add\n      0x00\n      swap1\n      sload\n      swap1\n      0x0100\n      exp\n      swap1\n      div\n      0xff\n      and\n        /* \"contracts/contracts/DisputeDAO.sol\":2429:2457  !jurors[msg.sender].isActive */\n      iszero\n        /* \"contracts/contracts/DisputeDAO.sol\":2421:2475  require(!jurors[msg.sender].isActive, \"Already juror\") */\n      tag_204\n      jumpi\n      mload(0x40)\n      0x08c379a000000000000000000000000000000000000000000000000000000000\n      dup2\n      mstore\n      0x04\n      add\n      tag_205\n      swap1\n      tag_206\n      jump\t// in\n    tag_205:\n      mload(0x40)\n      dup1\n      swap2\n      sub\n      swap1\n      revert\n    tag_204:\n        /* \"contracts/contracts/DisputeDAO.sol\":2507:2590  Juror({addr: msg.sender, stakeAmount: msg.value, isActive: true, lastDisputeId: 0}) */\n      mload(0x40)\n      dup1\n      0x80\n      add\n      0x40\n      mstore\n      dup1\n        /* \"contracts/contracts/DisputeDAO.sol\":2520:2530  msg.sender */\n      caller\n        /* \"contracts/contracts/DisputeDAO.sol\":2507:2590  Juror({addr: msg.sender, stakeAmount: msg.value, isActive: true, lastDisputeId: 0}) */\n      0xffffffffffffffffffffffffffffffffffffffff\n      and\n      dup2\n      mstore\n      0x20\n      add\n        /* \"contracts/contracts/DisputeDAO.sol\":2545:2554  msg.value */\n      callvalue\n        /* \"contracts/contracts/DisputeDAO.sol\":2507:2590  Juror({addr: msg.sender, stakeAmount: msg.value, isActive: true, lastDisputeId: 0}) */\n      dup2\n      mstore\n      0x20\n      add\n        /* \"contracts/contracts/DisputeDAO.sol\":2566:2570  true */\n      0x01\n        /* \"contracts/contracts/DisputeDAO.sol\":2507:2590  Juror({addr: msg.sender, stakeAmount: msg.value, isActive: true, lastDisputeId: 0}) */\n      iszero\n      iszero\n      dup2\n      mstore\n      0x20\n      add\n        /* \"contracts/contracts/DisputeDAO.sol\":2587:2588  0 */\n      0x00\n        /* \"contracts/contracts/DisputeDAO.sol\":2507:2590  Juror({addr: msg.sender, stakeAmount: msg.value, isActive: true, lastDisputeId: 0}) */\n      dup2\n      mstore\n      pop\n        /* \"contracts/contracts/DisputeDAO.sol\":2486:2492  jurors */\n      0x00\n        /* \"contracts/contracts/DisputeDAO.sol\":2486:2504  jurors[msg.sender] */\n      0x00\n        /* \"contracts/contracts/DisputeDAO.sol\":2493:2503  msg.sender */\n      caller\n        /* \"contracts/contracts/DisputeDAO.sol\":2486:2504  jurors[msg.sender] */\n      0xffffffffffffffffffffffffffffffffffffffff\n      and\n      0xffffffffffffffffffffffffffffffffffffffff\n      and\n      dup2\n      mstore\n      0x20\n      add\n      swap1\n      dup2\n      mstore\n      0x20\n      add\n      0x00\n      keccak256\n        /* \"contracts/contracts/DisputeDAO.sol\":2486:2590  jurors[msg.sender] = Juror({addr: msg.sender, stakeAmount: msg.value, isActive: true, lastDisputeId: 0}) */\n      0x00\n      dup3\n      add\n      mload\n      dup2\n      0x00\n      add\n      exp(0x0100, 0x00)\n      dup2\n      sload\n      dup2\n      0xffffffffffffffffffffffffffffffffffffffff\n      mul\n      not\n      and\n      swap1\n      dup4\n      0xffffffffffffffffffffffffffffffffffffffff\n      and\n      mul\n      or\n      swap1\n      sstore\n      pop\n      0x20\n      dup3\n      add\n      mload\n      dup2\n      0x01\n      add\n      sstore\n      0x40\n      dup3\n      add\n      mload\n      dup2\n      0x02\n      add\n      exp(0x0100, 0x00)\n      dup2\n      sload\n      dup2\n      0xff\n      mul\n      not\n      and\n      swap1\n      dup4\n      iszero\n      iszero\n      mul\n      or\n      swap1\n      sstore\n      pop\n      0x60\n      dup3\n      add\n      mload\n      dup2\n      0x03\n      add\n      sstore\n      swap1\n      pop\n      pop\n        /* \"contracts/contracts/DisputeDAO.sol\":2601:2610  jurorList */\n      0x01\n        /* \"contracts/contracts/DisputeDAO.sol\":2616:2626  msg.sender */\n      caller\n        /* \"contracts/contracts/DisputeDAO.sol\":2601:2627  jurorList.push(msg.sender) */\n      swap1\n      dup1\n      0x01\n      dup2\n      sload\n      add\n      dup1\n      dup3\n      sstore\n      dup1\n      swap2\n      pop\n      pop\n      0x01\n      swap1\n      sub\n      swap1\n      0x00\n      mstore\n      keccak256(0x00, 0x20)\n      add\n      0x00\n      swap1\n      swap2\n      swap1\n      swap2\n      swap1\n      swap2\n      0x0100\n      exp\n      dup2\n      sload\n      dup2\n      0xffffffffffffffffffffffffffffffffffffffff\n      mul\n      not\n      and\n      swap1\n      dup4\n      0xffffffffffffffffffffffffffffffffffffffff\n      and\n      mul\n      or\n      swap1\n      sstore\n      pop\n        /* \"contracts/contracts/DisputeDAO.sol\":2655:2665  msg.sender */\n      caller\n        /* \"contracts/contracts/DisputeDAO.sol\":2643:2677  JurorStaked(msg.sender, msg.value) */\n      0xffffffffffffffffffffffffffffffffffffffff\n      and\n      0xc9626d754b3720da351a26831dc4d1481cb9f2dd7ec9ba5356f710bcf4354b59\n        /* \"contracts/contracts/DisputeDAO.sol\":2667:2676  msg.value */\n      callvalue\n        /* \"contracts/contracts/DisputeDAO.sol\":2643:2677  JurorStaked(msg.sender, msg.value) */\n      mload(0x40)\n      tag_208\n      swap2\n      swap1\n      tag_51\n      jump\t// in\n    tag_208:\n      mload(0x40)\n      dup1\n      swap2\n      sub\n      swap1\n      log2\n        /* \"contracts/contracts/DisputeDAO.sol\":2313:2685  function stake() external payable {... */\n      jump\t// out\n        /* \"contracts/contracts/DisputeDAO.sol\":845:905  mapping(uint256 => mapping(address => bool)) public hasVoted */\n    tag_57:\n      mstore(0x20, 0x07)\n      dup2\n      0x00\n      mstore\n      mstore(0x20, keccak256(0x00, 0x40))\n      dup1\n      0x00\n      mstore\n      keccak256(0x00, 0x40)\n      0x00\n      swap2\n      pop\n      swap2\n      pop\n      swap1\n      sload\n      swap1\n      0x0100\n      exp\n      swap1\n      div\n      0xff\n      and\n      dup2\n      jump\t// out\n        /* \"contracts/contracts/DisputeDAO.sol\":8440:8576  function getDisputeJurors(uint256 disputeId) external view returns (address[] memory) {... */\n    tag_63:\n        /* \"contracts/contracts/DisputeDAO.sol\":8508:8524  address[] memory */\n      0x60\n        /* \"contracts/contracts/DisputeDAO.sol\":8544:8557  disputeJurors */\n      0x06\n        /* \"contracts/contracts/DisputeDAO.sol\":8544:8568  disputeJurors[disputeId] */\n      0x00\n        /* \"contracts/contracts/DisputeDAO.sol\":8558:8567  disputeId */\n      dup4\n        /* \"contracts/contracts/DisputeDAO.sol\":8544:8568  disputeJurors[disputeId] */\n      dup2\n      mstore\n      0x20\n      add\n      swap1\n      dup2\n      mstore\n      0x20\n      add\n      0x00\n      keccak256\n        /* \"contracts/contracts/DisputeDAO.sol\":8537:8568  return disputeJurors[disputeId] */\n      dup1\n      sload\n      dup1\n      0x20\n      mul\n      0x20\n      add\n      mload(0x40)\n      swap1\n      dup2\n      add\n      0x40\n      mstore\n      dup1\n      swap3\n      swap2\n      swap1\n      dup2\n      dup2\n      mstore\n      0x20\n      add\n      dup3\n      dup1\n      sload\n      dup1\n      iszero\n      tag_210\n      jumpi\n      0x20\n      mul\n      dup3\n      add\n      swap2\n      swap1\n      0x00\n      mstore\n      keccak256(0x00, 0x20)\n      swap1\n    tag_211:\n      dup2\n      0x00\n      swap1\n      sload\n      swap1\n      0x0100\n      exp\n      swap1\n      div\n      0xffffffffffffffffffffffffffffffffffffffff\n      and\n      0xffffffffffffffffffffffffffffffffffffffff\n      and\n      dup2\n      mstore\n      0x20\n      add\n      swap1\n      0x01\n      add\n      swap1\n      dup1\n      dup4\n      gt\n      tag_211\n      jumpi\n    tag_210:\n      pop\n      pop\n      pop\n      pop\n      pop\n      swap1\n      pop\n        /* \"contracts/contracts/DisputeDAO.sol\":8440:8576  function getDisputeJurors(uint256 disputeId) external view returns (address[] memory) {... */\n      swap2\n      swap1\n      pop\n      jump\t// out\n        /* \"contracts/contracts/DisputeDAO.sol\":3190:5895  function handleDispute(uint256 disputeId) external onlyTaskFactory {... */\n    tag_69:\n        /* \"contracts/contracts/DisputeDAO.sol\":1833:1844  taskFactory */\n      0x04\n      0x00\n      swap1\n      sload\n      swap1\n      0x0100\n      exp\n      swap1\n      div\n      0xffffffffffffffffffffffffffffffffffffffff\n      and\n        /* \"contracts/contracts/DisputeDAO.sol\":1819:1844  msg.sender == taskFactory */\n      0xffffffffffffffffffffffffffffffffffffffff\n      and\n        /* \"contracts/contracts/DisputeDAO.sol\":1819:1829  msg.sender */\n      caller\n        /* \"contracts/contracts/DisputeDAO.sol\":1819:1844  msg.sender == taskFactory */\n      0xffffffffffffffffffffffffffffffffffffffff\n      and\n      eq\n        /* \"contracts/contracts/DisputeDAO.sol\":1811:1865  require(msg.sender == taskFactory, \"Only TaskFactory\") */\n      tag_213\n      jumpi\n      mload(0x40)\n      0x08c379a000000000000000000000000000000000000000000000000000000000\n      dup2\n      mstore\n      0x04\n      add\n      tag_214\n      swap1\n      tag_175\n      jump\t// in\n    tag_214:\n      mload(0x40)\n      dup1\n      swap2\n      sub\n      swap1\n      revert\n    tag_213:\n        /* \"contracts/contracts/DisputeDAO.sol\":3311:3312  0 */\n      0x00\n        /* \"contracts/contracts/DisputeDAO.sol\":3276:3289  disputeJurors */\n      0x06\n        /* \"contracts/contracts/DisputeDAO.sol\":3276:3300  disputeJurors[disputeId] */\n      0x00\n        /* \"contracts/contracts/DisputeDAO.sol\":3290:3299  disputeId */\n      dup4\n        /* \"contracts/contracts/DisputeDAO.sol\":3276:3300  disputeJurors[disputeId] */\n      dup2\n      mstore\n      0x20\n      add\n      swap1\n      dup2\n      mstore\n      0x20\n      add\n      0x00\n      keccak256\n        /* \"contracts/contracts/DisputeDAO.sol\":3276:3307  disputeJurors[disputeId].length */\n      dup1\n      sload\n      swap1\n      pop\n        /* \"contracts/contracts/DisputeDAO.sol\":3276:3312  disputeJurors[disputeId].length == 0 */\n      eq\n        /* \"contracts/contracts/DisputeDAO.sol\":3268:3340  require(disputeJurors[disputeId].length == 0, \"Dispute already started\") */\n      tag_216\n      jumpi\n      mload(0x40)\n      0x08c379a000000000000000000000000000000000000000000000000000000000\n      dup2\n      mstore\n      0x04\n      add\n      tag_217\n      swap1\n      tag_218\n      jump\t// in\n    tag_217:\n      mload(0x40)\n      dup1\n      swap2\n      sub\n      swap1\n      revert\n    tag_216:\n        /* \"contracts/contracts/DisputeDAO.sol\":3379:3395  jurorsPerDispute */\n      sload(0x03)\n        /* \"contracts/contracts/DisputeDAO.sol\":3359:3368  jurorList */\n      0x01\n        /* \"contracts/contracts/DisputeDAO.sol\":3359:3375  jurorList.length */\n      dup1\n      sload\n      swap1\n      pop\n        /* \"contracts/contracts/DisputeDAO.sol\":3359:3395  jurorList.length >= jurorsPerDispute */\n      lt\n      iszero\n        /* \"contracts/contracts/DisputeDAO.sol\":3351:3417  require(jurorList.length >= jurorsPerDispute, \"Not enough jurors\") */\n      tag_219\n      jumpi\n      mload(0x40)\n      0x08c379a000000000000000000000000000000000000000000000000000000000\n      dup2\n      mstore\n      0x04\n      add\n      tag_220\n      swap1\n      tag_221\n      jump\t// in\n    tag_220:\n      mload(0x40)\n      dup1\n      swap2\n      sub\n      swap1\n      revert\n    tag_219:\n        /* \"contracts/contracts/DisputeDAO.sol\":3428:3455  address[] memory candidates */\n      0x00\n        /* \"contracts/contracts/DisputeDAO.sol\":3472:3481  jurorList */\n      0x01\n        /* \"contracts/contracts/DisputeDAO.sol\":3472:3488  jurorList.length */\n      dup1\n      sload\n      swap1\n      pop\n        /* \"contracts/contracts/DisputeDAO.sol\":3458:3489  new address[](jurorList.length) */\n      0xffffffffffffffff\n      dup2\n      gt\n      iszero\n      tag_222\n      jumpi\n      tag_223\n      tag_224\n      jump\t// in\n    tag_223:\n    tag_222:\n      mload(0x40)\n      swap1\n      dup1\n      dup3\n      mstore\n      dup1\n      0x20\n      mul\n      0x20\n      add\n      dup3\n      add\n      0x40\n      mstore\n      dup1\n      iszero\n      tag_225\n      jumpi\n      dup2\n      0x20\n      add\n      0x20\n      dup3\n      mul\n      dup1\n      calldatasize\n      dup4\n      calldatacopy\n      dup1\n      dup3\n      add\n      swap2\n      pop\n      pop\n      swap1\n      pop\n    tag_225:\n      pop\n        /* \"contracts/contracts/DisputeDAO.sol\":3428:3489  address[] memory candidates = new address[](jurorList.length) */\n      swap1\n      pop\n        /* \"contracts/contracts/DisputeDAO.sol\":3500:3522  uint256 candidateCount */\n      0x00\n        /* \"contracts/contracts/DisputeDAO.sol\":3525:3526  0 */\n      0x00\n        /* \"contracts/contracts/DisputeDAO.sol\":3500:3526  uint256 candidateCount = 0 */\n      swap1\n      pop\n        /* \"contracts/contracts/DisputeDAO.sol\":3588:3606  uint256 jurorIndex */\n      0x00\n        /* \"contracts/contracts/DisputeDAO.sol\":3609:3610  0 */\n      0x00\n        /* \"contracts/contracts/DisputeDAO.sol\":3588:3610  uint256 jurorIndex = 0 */\n      swap1\n      pop\n        /* \"contracts/contracts/DisputeDAO.sol\":3583:3909  for (uint256 jurorIndex = 0; jurorIndex < jurorList.length; jurorIndex++) {... */\n    tag_226:\n        /* \"contracts/contracts/DisputeDAO.sol\":3625:3634  jurorList */\n      0x01\n        /* \"contracts/contracts/DisputeDAO.sol\":3625:3641  jurorList.length */\n      dup1\n      sload\n      swap1\n      pop\n        /* \"contracts/contracts/DisputeDAO.sol\":3612:3622  jurorIndex */\n      dup2\n        /* \"contracts/contracts/DisputeDAO.sol\":3612:3641  jurorIndex < jurorList.length */\n      lt\n        /* \"contracts/contracts/DisputeDAO.sol\":3583:3909  for (uint256 jurorIndex = 0; jurorIndex < jurorList.length; jurorIndex++) {... */\n      iszero\n      tag_227\n      jumpi\n        /* \"contracts/contracts/DisputeDAO.sol\":3672:3689  address jurorAddr */\n      0x00\n        /* \"contracts/contracts/DisputeDAO.sol\":3692:3701  jurorList */\n      0x01\n        /* \"contracts/contracts/DisputeDAO.sol\":3702:3712  jurorIndex */\n      dup3\n        /* \"contracts/contracts/DisputeDAO.sol\":3692:3713  jurorList[jurorIndex] */\n      dup2\n      sload\n      dup2\n      lt\n      tag_229\n      jumpi\n      tag_230\n      tag_140\n      jump\t// in\n    tag_230:\n    tag_229:\n      swap1\n      0x00\n      mstore\n      keccak256(0x00, 0x20)\n      add\n      0x00\n      swap1\n      sload\n      swap1\n      0x0100\n      exp\n      swap1\n      div\n      0xffffffffffffffffffffffffffffffffffffffff\n      and\n        /* \"contracts/contracts/DisputeDAO.sol\":3672:3713  address jurorAddr = jurorList[jurorIndex] */\n      swap1\n      pop\n        /* \"contracts/contracts/DisputeDAO.sol\":3732:3738  jurors */\n      0x00\n        /* \"contracts/contracts/DisputeDAO.sol\":3732:3749  jurors[jurorAddr] */\n      0x00\n        /* \"contracts/contracts/DisputeDAO.sol\":3739:3748  jurorAddr */\n      dup3\n        /* \"contracts/contracts/DisputeDAO.sol\":3732:3749  jurors[jurorAddr] */\n      0xffffffffffffffffffffffffffffffffffffffff\n      and\n      0xffffffffffffffffffffffffffffffffffffffff\n      and\n      dup2\n      mstore\n      0x20\n      add\n      swap1\n      dup2\n      mstore\n      0x20\n      add\n      0x00\n      keccak256\n        /* \"contracts/contracts/DisputeDAO.sol\":3732:3758  jurors[jurorAddr].isActive */\n      0x02\n      add\n      0x00\n      swap1\n      sload\n      swap1\n      0x0100\n      exp\n      swap1\n      div\n      0xff\n      and\n        /* \"contracts/contracts/DisputeDAO.sol\":3732:3821  jurors[jurorAddr].isActive && disputeId > jurors[jurorAddr].lastDisputeId + jurorCooldown */\n      dup1\n      iszero\n      tag_232\n      jumpi\n      pop\n        /* \"contracts/contracts/DisputeDAO.sol\":3808:3821  jurorCooldown */\n      sload(0x05)\n        /* \"contracts/contracts/DisputeDAO.sol\":3774:3780  jurors */\n      0x00\n        /* \"contracts/contracts/DisputeDAO.sol\":3774:3791  jurors[jurorAddr] */\n      0x00\n        /* \"contracts/contracts/DisputeDAO.sol\":3781:3790  jurorAddr */\n      dup4\n        /* \"contracts/contracts/DisputeDAO.sol\":3774:3791  jurors[jurorAddr] */\n      0xffffffffffffffffffffffffffffffffffffffff\n      and\n      0xffffffffffffffffffffffffffffffffffffffff\n      and\n      dup2\n      mstore\n      0x20\n      add\n      swap1\n      dup2\n      mstore\n      0x20\n      add\n      0x00\n      keccak256\n        /* \"contracts/contracts/DisputeDAO.sol\":3774:3805  jurors[jurorAddr].lastDisputeId */\n      0x03\n      add\n      sload\n        /* \"contracts/contracts/DisputeDAO.sol\":3774:3821  jurors[jurorAddr].lastDisputeId + jurorCooldown */\n      tag_233\n      swap2\n      swap1\n      tag_234\n      jump\t// in\n    tag_233:\n        /* \"contracts/contracts/DisputeDAO.sol\":3762:3771  disputeId */\n      dup6\n        /* \"contracts/contracts/DisputeDAO.sol\":3762:3821  disputeId > jurors[jurorAddr].lastDisputeId + jurorCooldown */\n      gt\n        /* \"contracts/contracts/DisputeDAO.sol\":3732:3821  jurors[jurorAddr].isActive && disputeId > jurors[jurorAddr].lastDisputeId + jurorCooldown */\n    tag_232:\n        /* \"contracts/contracts/DisputeDAO.sol\":3728:3898  if (jurors[jurorAddr].isActive && disputeId > jurors[jurorAddr].lastDisputeId + jurorCooldown) {... */\n      iszero\n      tag_235\n      jumpi\n        /* \"contracts/contracts/DisputeDAO.sol\":3873:3882  jurorAddr */\n      dup1\n        /* \"contracts/contracts/DisputeDAO.sol\":3842:3852  candidates */\n      dup5\n        /* \"contracts/contracts/DisputeDAO.sol\":3853:3869  candidateCount++ */\n      dup5\n      dup1\n      tag_236\n      swap1\n      tag_150\n      jump\t// in\n    tag_236:\n      swap6\n      pop\n        /* \"contracts/contracts/DisputeDAO.sol\":3842:3870  candidates[candidateCount++] */\n      dup2\n      mload\n      dup2\n      lt\n      tag_237\n      jumpi\n      tag_238\n      tag_140\n      jump\t// in\n    tag_238:\n    tag_237:\n      0x20\n      mul\n      0x20\n      add\n      add\n        /* \"contracts/contracts/DisputeDAO.sol\":3842:3882  candidates[candidateCount++] = jurorAddr */\n      swap1\n      0xffffffffffffffffffffffffffffffffffffffff\n      and\n      swap1\n      dup2\n      0xffffffffffffffffffffffffffffffffffffffff\n      and\n      dup2\n      mstore\n      pop\n      pop\n        /* \"contracts/contracts/DisputeDAO.sol\":3728:3898  if (jurors[jurorAddr].isActive && disputeId > jurors[jurorAddr].lastDisputeId + jurorCooldown) {... */\n    tag_235:\n        /* \"contracts/contracts/DisputeDAO.sol\":3657:3909  {... */\n      pop\n        /* \"contracts/contracts/DisputeDAO.sol\":3643:3655  jurorIndex++ */\n      dup1\n      dup1\n      0x01\n      add\n      swap2\n      pop\n      pop\n        /* \"contracts/contracts/DisputeDAO.sol\":3583:3909  for (uint256 jurorIndex = 0; jurorIndex < jurorList.length; jurorIndex++) {... */\n      jump(tag_226)\n    tag_227:\n      pop\n        /* \"contracts/contracts/DisputeDAO.sol\":3947:3972  address[] memory selected */\n      0x00\n        /* \"contracts/contracts/DisputeDAO.sol\":3989:4005  jurorsPerDispute */\n      sload(0x03)\n        /* \"contracts/contracts/DisputeDAO.sol\":3975:4006  new address[](jurorsPerDispute) */\n      0xffffffffffffffff\n      dup2\n      gt\n      iszero\n      tag_239\n      jumpi\n      tag_240\n      tag_224\n      jump\t// in\n    tag_240:\n    tag_239:\n      mload(0x40)\n      swap1\n      dup1\n      dup3\n      mstore\n      dup1\n      0x20\n      mul\n      0x20\n      add\n      dup3\n      add\n      0x40\n      mstore\n      dup1\n      iszero\n      tag_241\n      jumpi\n      dup2\n      0x20\n      add\n      0x20\n      dup3\n      mul\n      dup1\n      calldatasize\n      dup4\n      calldatacopy\n      dup1\n      dup3\n      add\n      swap2\n      pop\n      pop\n      swap1\n      pop\n    tag_241:\n      pop\n        /* \"contracts/contracts/DisputeDAO.sol\":3947:4006  address[] memory selected = new address[](jurorsPerDispute) */\n      swap1\n      pop\n        /* \"contracts/contracts/DisputeDAO.sol\":4017:4030  uint256 count */\n      0x00\n        /* \"contracts/contracts/DisputeDAO.sol\":4033:4034  0 */\n      0x00\n        /* \"contracts/contracts/DisputeDAO.sol\":4017:4034  uint256 count = 0 */\n      swap1\n      pop\n        /* \"contracts/contracts/DisputeDAO.sol\":4045:4057  uint256 seed */\n      0x00\n        /* \"contracts/contracts/DisputeDAO.sol\":4095:4110  block.timestamp */\n      timestamp\n        /* \"contracts/contracts/DisputeDAO.sol\":4112:4121  disputeId */\n      dup7\n        /* \"contracts/contracts/DisputeDAO.sol\":4078:4122  abi.encodePacked(block.timestamp, disputeId) */\n      add(0x20, mload(0x40))\n      tag_242\n      swap3\n      swap2\n      swap1\n      tag_243\n      jump\t// in\n    tag_242:\n      mload(0x40)\n      0x20\n      dup2\n      dup4\n      sub\n      sub\n      dup2\n      mstore\n      swap1\n      0x40\n      mstore\n        /* \"contracts/contracts/DisputeDAO.sol\":4068:4123  keccak256(abi.encodePacked(block.timestamp, disputeId)) */\n      dup1\n      mload\n      swap1\n      0x20\n      add\n      keccak256\n        /* \"contracts/contracts/DisputeDAO.sol\":4060:4124  uint256(keccak256(abi.encodePacked(block.timestamp, disputeId))) */\n      0x00\n      shr\n        /* \"contracts/contracts/DisputeDAO.sol\":4045:4124  uint256 seed = uint256(keccak256(abi.encodePacked(block.timestamp, disputeId))) */\n      swap1\n      pop\n        /* \"contracts/contracts/DisputeDAO.sol\":4135:4144  uint256 i */\n      0x00\n        /* \"contracts/contracts/DisputeDAO.sol\":4147:4148  0 */\n      0x00\n        /* \"contracts/contracts/DisputeDAO.sol\":4135:4148  uint256 i = 0 */\n      swap1\n      pop\n        /* \"contracts/contracts/DisputeDAO.sol\":4159:4728  while (count < jurorsPerDispute && i < candidateCount * 2) {... */\n    tag_244:\n        /* \"contracts/contracts/DisputeDAO.sol\":4174:4190  jurorsPerDispute */\n      sload(0x03)\n        /* \"contracts/contracts/DisputeDAO.sol\":4166:4171  count */\n      dup4\n        /* \"contracts/contracts/DisputeDAO.sol\":4166:4190  count < jurorsPerDispute */\n      lt\n        /* \"contracts/contracts/DisputeDAO.sol\":4166:4216  count < jurorsPerDispute && i < candidateCount * 2 */\n      dup1\n      iszero\n      tag_246\n      jumpi\n      pop\n        /* \"contracts/contracts/DisputeDAO.sol\":4215:4216  2 */\n      0x02\n        /* \"contracts/contracts/DisputeDAO.sol\":4198:4212  candidateCount */\n      dup6\n        /* \"contracts/contracts/DisputeDAO.sol\":4198:4216  candidateCount * 2 */\n      tag_247\n      swap2\n      swap1\n      tag_248\n      jump\t// in\n    tag_247:\n        /* \"contracts/contracts/DisputeDAO.sol\":4194:4195  i */\n      dup2\n        /* \"contracts/contracts/DisputeDAO.sol\":4194:4216  i < candidateCount * 2 */\n      lt\n        /* \"contracts/contracts/DisputeDAO.sol\":4166:4216  count < jurorsPerDispute && i < candidateCount * 2 */\n    tag_246:\n        /* \"contracts/contracts/DisputeDAO.sol\":4159:4728  while (count < jurorsPerDispute && i < candidateCount * 2) {... */\n      iszero\n      tag_245\n      jumpi\n        /* \"contracts/contracts/DisputeDAO.sol\":4233:4250  address candidate */\n      0x00\n        /* \"contracts/contracts/DisputeDAO.sol\":4253:4263  candidates */\n      dup7\n        /* \"contracts/contracts/DisputeDAO.sol\":4312:4326  candidateCount */\n      dup7\n        /* \"contracts/contracts/DisputeDAO.sol\":4299:4303  seed */\n      dup5\n        /* \"contracts/contracts/DisputeDAO.sol\":4305:4306  i */\n      dup5\n        /* \"contracts/contracts/DisputeDAO.sol\":4282:4307  abi.encodePacked(seed, i) */\n      add(0x20, mload(0x40))\n      tag_249\n      swap3\n      swap2\n      swap1\n      tag_243\n      jump\t// in\n    tag_249:\n      mload(0x40)\n      0x20\n      dup2\n      dup4\n      sub\n      sub\n      dup2\n      mstore\n      swap1\n      0x40\n      mstore\n        /* \"contracts/contracts/DisputeDAO.sol\":4272:4308  keccak256(abi.encodePacked(seed, i)) */\n      dup1\n      mload\n      swap1\n      0x20\n      add\n      keccak256\n        /* \"contracts/contracts/DisputeDAO.sol\":4264:4309  uint256(keccak256(abi.encodePacked(seed, i))) */\n      0x00\n      shr\n        /* \"contracts/contracts/DisputeDAO.sol\":4264:4326  uint256(keccak256(abi.encodePacked(seed, i))) % candidateCount */\n      tag_250\n      swap2\n      swap1\n      tag_251\n      jump\t// in\n    tag_250:\n        /* \"contracts/contracts/DisputeDAO.sol\":4253:4327  candidates[uint256(keccak256(abi.encodePacked(seed, i))) % candidateCount] */\n      dup2\n      mload\n      dup2\n      lt\n      tag_252\n      jumpi\n      tag_253\n      tag_140\n      jump\t// in\n    tag_253:\n    tag_252:\n      0x20\n      mul\n      0x20\n      add\n      add\n      mload\n        /* \"contracts/contracts/DisputeDAO.sol\":4233:4327  address candidate = candidates[uint256(keccak256(abi.encodePacked(seed, i))) % candidateCount] */\n      swap1\n      pop\n        /* \"contracts/contracts/DisputeDAO.sol\":4342:4362  bool alreadySelected */\n      0x00\n        /* \"contracts/contracts/DisputeDAO.sol\":4365:4370  false */\n      0x00\n        /* \"contracts/contracts/DisputeDAO.sol\":4342:4370  bool alreadySelected = false */\n      swap1\n      pop\n        /* \"contracts/contracts/DisputeDAO.sol\":4390:4396  uint j */\n      0x00\n        /* \"contracts/contracts/DisputeDAO.sol\":4399:4400  0 */\n      0x00\n        /* \"contracts/contracts/DisputeDAO.sol\":4390:4400  uint j = 0 */\n      swap1\n      pop\n        /* \"contracts/contracts/DisputeDAO.sol\":4385:4575  for (uint j = 0; j < count; j++) {... */\n    tag_254:\n        /* \"contracts/contracts/DisputeDAO.sol\":4406:4411  count */\n      dup6\n        /* \"contracts/contracts/DisputeDAO.sol\":4402:4403  j */\n      dup2\n        /* \"contracts/contracts/DisputeDAO.sol\":4402:4411  j < count */\n      lt\n        /* \"contracts/contracts/DisputeDAO.sol\":4385:4575  for (uint j = 0; j < count; j++) {... */\n      iszero\n      tag_255\n      jumpi\n        /* \"contracts/contracts/DisputeDAO.sol\":4456:4465  candidate */\n      dup3\n        /* \"contracts/contracts/DisputeDAO.sol\":4441:4465  selected[j] == candidate */\n      0xffffffffffffffffffffffffffffffffffffffff\n      and\n        /* \"contracts/contracts/DisputeDAO.sol\":4441:4449  selected */\n      dup8\n        /* \"contracts/contracts/DisputeDAO.sol\":4450:4451  j */\n      dup3\n        /* \"contracts/contracts/DisputeDAO.sol\":4441:4452  selected[j] */\n      dup2\n      mload\n      dup2\n      lt\n      tag_257\n      jumpi\n      tag_258\n      tag_140\n      jump\t// in\n    tag_258:\n    tag_257:\n      0x20\n      mul\n      0x20\n      add\n      add\n      mload\n        /* \"contracts/contracts/DisputeDAO.sol\":4441:4465  selected[j] == candidate */\n      0xffffffffffffffffffffffffffffffffffffffff\n      and\n      sub\n        /* \"contracts/contracts/DisputeDAO.sol\":4437:4560  if (selected[j] == candidate) {... */\n      tag_259\n      jumpi\n        /* \"contracts/contracts/DisputeDAO.sol\":4508:4512  true */\n      0x01\n        /* \"contracts/contracts/DisputeDAO.sol\":4490:4512  alreadySelected = true */\n      swap2\n      pop\n        /* \"contracts/contracts/DisputeDAO.sol\":4535:4540  break */\n      jump(tag_255)\n        /* \"contracts/contracts/DisputeDAO.sol\":4437:4560  if (selected[j] == candidate) {... */\n    tag_259:\n        /* \"contracts/contracts/DisputeDAO.sol\":4413:4416  j++ */\n      dup1\n      dup1\n      0x01\n      add\n      swap2\n      pop\n      pop\n        /* \"contracts/contracts/DisputeDAO.sol\":4385:4575  for (uint j = 0; j < count; j++) {... */\n      jump(tag_254)\n    tag_255:\n      pop\n        /* \"contracts/contracts/DisputeDAO.sol\":4594:4609  alreadySelected */\n      dup1\n        /* \"contracts/contracts/DisputeDAO.sol\":4589:4699  if (!alreadySelected) {... */\n      tag_260\n      jumpi\n        /* \"contracts/contracts/DisputeDAO.sol\":4648:4657  candidate */\n      dup2\n        /* \"contracts/contracts/DisputeDAO.sol\":4630:4638  selected */\n      dup7\n        /* \"contracts/contracts/DisputeDAO.sol\":4639:4644  count */\n      dup7\n        /* \"contracts/contracts/DisputeDAO.sol\":4630:4645  selected[count] */\n      dup2\n      mload\n      dup2\n      lt\n      tag_261\n      jumpi\n      tag_262\n      tag_140\n      jump\t// in\n    tag_262:\n    tag_261:\n      0x20\n      mul\n      0x20\n      add\n      add\n        /* \"contracts/contracts/DisputeDAO.sol\":4630:4657  selected[count] = candidate */\n      swap1\n      0xffffffffffffffffffffffffffffffffffffffff\n      and\n      swap1\n      dup2\n      0xffffffffffffffffffffffffffffffffffffffff\n      and\n      dup2\n      mstore\n      pop\n      pop\n        /* \"contracts/contracts/DisputeDAO.sol\":4676:4683  count++ */\n      dup5\n      dup1\n      tag_263\n      swap1\n      tag_150\n      jump\t// in\n    tag_263:\n      swap6\n      pop\n      pop\n        /* \"contracts/contracts/DisputeDAO.sol\":4589:4699  if (!alreadySelected) {... */\n    tag_260:\n        /* \"contracts/contracts/DisputeDAO.sol\":4713:4716  i++ */\n      dup3\n      dup1\n      tag_264\n      swap1\n      tag_150\n      jump\t// in\n    tag_264:\n      swap4\n      pop\n      pop\n        /* \"contracts/contracts/DisputeDAO.sol\":4218:4728  {... */\n      pop\n      pop\n        /* \"contracts/contracts/DisputeDAO.sol\":4159:4728  while (count < jurorsPerDispute && i < candidateCount * 2) {... */\n      jump(tag_244)\n    tag_245:\n        /* \"contracts/contracts/DisputeDAO.sol\":4832:4848  jurorsPerDispute */\n      sload(0x03)\n        /* \"contracts/contracts/DisputeDAO.sol\":4824:4829  count */\n      dup4\n        /* \"contracts/contracts/DisputeDAO.sol\":4824:4848  count < jurorsPerDispute */\n      lt\n        /* \"contracts/contracts/DisputeDAO.sol\":4820:5544  if (count < jurorsPerDispute) {... */\n      iszero\n      tag_265\n      jumpi\n        /* \"contracts/contracts/DisputeDAO.sol\":4870:4876  uint k */\n      0x00\n        /* \"contracts/contracts/DisputeDAO.sol\":4879:4880  0 */\n      0x00\n        /* \"contracts/contracts/DisputeDAO.sol\":4870:4880  uint k = 0 */\n      swap1\n      pop\n        /* \"contracts/contracts/DisputeDAO.sol\":4865:5533  for (uint k = 0; k < jurorList.length && count < jurorsPerDispute; k++) {... */\n    tag_266:\n        /* \"contracts/contracts/DisputeDAO.sol\":4886:4895  jurorList */\n      0x01\n        /* \"contracts/contracts/DisputeDAO.sol\":4886:4902  jurorList.length */\n      dup1\n      sload\n      swap1\n      pop\n        /* \"contracts/contracts/DisputeDAO.sol\":4882:4883  k */\n      dup2\n        /* \"contracts/contracts/DisputeDAO.sol\":4882:4902  k < jurorList.length */\n      lt\n        /* \"contracts/contracts/DisputeDAO.sol\":4882:4930  k < jurorList.length && count < jurorsPerDispute */\n      dup1\n      iszero\n      tag_269\n      jumpi\n      pop\n        /* \"contracts/contracts/DisputeDAO.sol\":4914:4930  jurorsPerDispute */\n      sload(0x03)\n        /* \"contracts/contracts/DisputeDAO.sol\":4906:4911  count */\n      dup5\n        /* \"contracts/contracts/DisputeDAO.sol\":4906:4930  count < jurorsPerDispute */\n      lt\n        /* \"contracts/contracts/DisputeDAO.sol\":4882:4930  k < jurorList.length && count < jurorsPerDispute */\n    tag_269:\n        /* \"contracts/contracts/DisputeDAO.sol\":4865:5533  for (uint k = 0; k < jurorList.length && count < jurorsPerDispute; k++) {... */\n      iszero\n      tag_267\n      jumpi\n        /* \"contracts/contracts/DisputeDAO.sol\":4956:4973  address jurorAddr */\n      0x00\n        /* \"contracts/contracts/DisputeDAO.sol\":4976:4985  jurorList */\n      0x01\n        /* \"contracts/contracts/DisputeDAO.sol\":4986:4987  k */\n      dup3\n        /* \"contracts/contracts/DisputeDAO.sol\":4976:4988  jurorList[k] */\n      dup2\n      sload\n      dup2\n      lt\n      tag_270\n      jumpi\n      tag_271\n      tag_140\n      jump\t// in\n    tag_271:\n    tag_270:\n      swap1\n      0x00\n      mstore\n      keccak256(0x00, 0x20)\n      add\n      0x00\n      swap1\n      sload\n      swap1\n      0x0100\n      exp\n      swap1\n      div\n      0xffffffffffffffffffffffffffffffffffffffff\n      and\n        /* \"contracts/contracts/DisputeDAO.sol\":4956:4988  address jurorAddr = jurorList[k] */\n      swap1\n      pop\n        /* \"contracts/contracts/DisputeDAO.sol\":5011:5017  jurors */\n      0x00\n        /* \"contracts/contracts/DisputeDAO.sol\":5011:5028  jurors[jurorAddr] */\n      0x00\n        /* \"contracts/contracts/DisputeDAO.sol\":5018:5027  jurorAddr */\n      dup3\n        /* \"contracts/contracts/DisputeDAO.sol\":5011:5028  jurors[jurorAddr] */\n      0xffffffffffffffffffffffffffffffffffffffff\n      and\n      0xffffffffffffffffffffffffffffffffffffffff\n      and\n      dup2\n      mstore\n      0x20\n      add\n      swap1\n      dup2\n      mstore\n      0x20\n      add\n      0x00\n      keccak256\n        /* \"contracts/contracts/DisputeDAO.sol\":5011:5037  jurors[jurorAddr].isActive */\n      0x02\n      add\n      0x00\n      swap1\n      sload\n      swap1\n      0x0100\n      exp\n      swap1\n      div\n      0xff\n      and\n        /* \"contracts/contracts/DisputeDAO.sol\":5007:5518  if (jurors[jurorAddr].isActive) {... */\n      iszero\n      tag_273\n      jumpi\n        /* \"contracts/contracts/DisputeDAO.sol\":5062:5082  bool alreadySelected */\n      0x00\n        /* \"contracts/contracts/DisputeDAO.sol\":5085:5090  false */\n      0x00\n        /* \"contracts/contracts/DisputeDAO.sol\":5062:5090  bool alreadySelected = false */\n      swap1\n      pop\n        /* \"contracts/contracts/DisputeDAO.sol\":5118:5124  uint j */\n      0x00\n        /* \"contracts/contracts/DisputeDAO.sol\":5127:5128  0 */\n      0x00\n        /* \"contracts/contracts/DisputeDAO.sol\":5118:5128  uint j = 0 */\n      swap1\n      pop\n        /* \"contracts/contracts/DisputeDAO.sol\":5113:5343  for (uint j = 0; j < count; j++) {... */\n    tag_274:\n        /* \"contracts/contracts/DisputeDAO.sol\":5134:5139  count */\n      dup7\n        /* \"contracts/contracts/DisputeDAO.sol\":5130:5131  j */\n      dup2\n        /* \"contracts/contracts/DisputeDAO.sol\":5130:5139  j < count */\n      lt\n        /* \"contracts/contracts/DisputeDAO.sol\":5113:5343  for (uint j = 0; j < count; j++) {... */\n      iszero\n      tag_275\n      jumpi\n        /* \"contracts/contracts/DisputeDAO.sol\":5192:5201  jurorAddr */\n      dup3\n        /* \"contracts/contracts/DisputeDAO.sol\":5177:5201  selected[j] == jurorAddr */\n      0xffffffffffffffffffffffffffffffffffffffff\n      and\n        /* \"contracts/contracts/DisputeDAO.sol\":5177:5185  selected */\n      dup9\n        /* \"contracts/contracts/DisputeDAO.sol\":5186:5187  j */\n      dup3\n        /* \"contracts/contracts/DisputeDAO.sol\":5177:5188  selected[j] */\n      dup2\n      mload\n      dup2\n      lt\n      tag_277\n      jumpi\n      tag_278\n      tag_140\n      jump\t// in\n    tag_278:\n    tag_277:\n      0x20\n      mul\n      0x20\n      add\n      add\n      mload\n        /* \"contracts/contracts/DisputeDAO.sol\":5177:5201  selected[j] == jurorAddr */\n      0xffffffffffffffffffffffffffffffffffffffff\n      and\n      sub\n        /* \"contracts/contracts/DisputeDAO.sol\":5173:5320  if (selected[j] == jurorAddr) {... */\n      tag_279\n      jumpi\n        /* \"contracts/contracts/DisputeDAO.sol\":5252:5256  true */\n      0x01\n        /* \"contracts/contracts/DisputeDAO.sol\":5234:5256  alreadySelected = true */\n      swap2\n      pop\n        /* \"contracts/contracts/DisputeDAO.sol\":5287:5292  break */\n      jump(tag_275)\n        /* \"contracts/contracts/DisputeDAO.sol\":5173:5320  if (selected[j] == jurorAddr) {... */\n    tag_279:\n        /* \"contracts/contracts/DisputeDAO.sol\":5141:5144  j++ */\n      dup1\n      dup1\n      0x01\n      add\n      swap2\n      pop\n      pop\n        /* \"contracts/contracts/DisputeDAO.sol\":5113:5343  for (uint j = 0; j < count; j++) {... */\n      jump(tag_274)\n    tag_275:\n      pop\n        /* \"contracts/contracts/DisputeDAO.sol\":5370:5385  alreadySelected */\n      dup1\n        /* \"contracts/contracts/DisputeDAO.sol\":5365:5499  if (!alreadySelected) {... */\n      tag_280\n      jumpi\n        /* \"contracts/contracts/DisputeDAO.sol\":5432:5441  jurorAddr */\n      dup2\n        /* \"contracts/contracts/DisputeDAO.sol\":5414:5422  selected */\n      dup8\n        /* \"contracts/contracts/DisputeDAO.sol\":5423:5428  count */\n      dup8\n        /* \"contracts/contracts/DisputeDAO.sol\":5414:5429  selected[count] */\n      dup2\n      mload\n      dup2\n      lt\n      tag_281\n      jumpi\n      tag_282\n      tag_140\n      jump\t// in\n    tag_282:\n    tag_281:\n      0x20\n      mul\n      0x20\n      add\n      add\n        /* \"contracts/contracts/DisputeDAO.sol\":5414:5441  selected[count] = jurorAddr */\n      swap1\n      0xffffffffffffffffffffffffffffffffffffffff\n      and\n      swap1\n      dup2\n      0xffffffffffffffffffffffffffffffffffffffff\n      and\n      dup2\n      mstore\n      pop\n      pop\n        /* \"contracts/contracts/DisputeDAO.sol\":5468:5475  count++ */\n      dup6\n      dup1\n      tag_283\n      swap1\n      tag_150\n      jump\t// in\n    tag_283:\n      swap7\n      pop\n      pop\n        /* \"contracts/contracts/DisputeDAO.sol\":5365:5499  if (!alreadySelected) {... */\n    tag_280:\n        /* \"contracts/contracts/DisputeDAO.sol\":5039:5518  {... */\n      pop\n        /* \"contracts/contracts/DisputeDAO.sol\":5007:5518  if (jurors[jurorAddr].isActive) {... */\n    tag_273:\n        /* \"contracts/contracts/DisputeDAO.sol\":4937:5533  {... */\n      pop\n        /* \"contracts/contracts/DisputeDAO.sol\":4932:4935  k++ */\n      dup1\n      dup1\n      tag_284\n      swap1\n      tag_150\n      jump\t// in\n    tag_284:\n      swap2\n      pop\n      pop\n        /* \"contracts/contracts/DisputeDAO.sol\":4865:5533  for (uint k = 0; k < jurorList.length && count < jurorsPerDispute; k++) {... */\n      jump(tag_266)\n    tag_267:\n      pop\n        /* \"contracts/contracts/DisputeDAO.sol\":4820:5544  if (count < jurorsPerDispute) {... */\n    tag_265:\n        /* \"contracts/contracts/DisputeDAO.sol\":5571:5587  jurorsPerDispute */\n      sload(0x03)\n        /* \"contracts/contracts/DisputeDAO.sol\":5562:5567  count */\n      dup4\n        /* \"contracts/contracts/DisputeDAO.sol\":5562:5587  count == jurorsPerDispute */\n      eq\n        /* \"contracts/contracts/DisputeDAO.sol\":5554:5616  require(count == jurorsPerDispute, \"Not enough unique jurors\") */\n      tag_285\n      jumpi\n      mload(0x40)\n      0x08c379a000000000000000000000000000000000000000000000000000000000\n      dup2\n      mstore\n      0x04\n      add\n      tag_286\n      swap1\n      tag_287\n      jump\t// in\n    tag_286:\n      mload(0x40)\n      dup1\n      swap2\n      sub\n      swap1\n      revert\n    tag_285:\n        /* \"contracts/contracts/DisputeDAO.sol\":5654:5662  selected */\n      dup4\n        /* \"contracts/contracts/DisputeDAO.sol\":5627:5640  disputeJurors */\n      0x06\n        /* \"contracts/contracts/DisputeDAO.sol\":5627:5651  disputeJurors[disputeId] */\n      0x00\n        /* \"contracts/contracts/DisputeDAO.sol\":5641:5650  disputeId */\n      dup10\n        /* \"contracts/contracts/DisputeDAO.sol\":5627:5651  disputeJurors[disputeId] */\n      dup2\n      mstore\n      0x20\n      add\n      swap1\n      dup2\n      mstore\n      0x20\n      add\n      0x00\n      keccak256\n        /* \"contracts/contracts/DisputeDAO.sol\":5627:5662  disputeJurors[disputeId] = selected */\n      swap1\n      dup1\n      mload\n      swap1\n      0x20\n      add\n      swap1\n      tag_288\n      swap3\n      swap2\n      swap1\n      tag_289\n      jump\t// in\n    tag_288:\n      pop\n        /* \"contracts/contracts/DisputeDAO.sol\":5727:5733  uint j */\n      0x00\n        /* \"contracts/contracts/DisputeDAO.sol\":5736:5737  0 */\n      0x00\n        /* \"contracts/contracts/DisputeDAO.sol\":5727:5737  uint j = 0 */\n      swap1\n      pop\n        /* \"contracts/contracts/DisputeDAO.sol\":5722:5837  for (uint j = 0; j < selected.length; j++) {... */\n    tag_290:\n        /* \"contracts/contracts/DisputeDAO.sol\":5743:5751  selected */\n      dup5\n        /* \"contracts/contracts/DisputeDAO.sol\":5743:5758  selected.length */\n      mload\n        /* \"contracts/contracts/DisputeDAO.sol\":5739:5740  j */\n      dup2\n        /* \"contracts/contracts/DisputeDAO.sol\":5739:5758  j < selected.length */\n      lt\n        /* \"contracts/contracts/DisputeDAO.sol\":5722:5837  for (uint j = 0; j < selected.length; j++) {... */\n      iszero\n      tag_291\n      jumpi\n        /* \"contracts/contracts/DisputeDAO.sol\":5816:5825  disputeId */\n      dup8\n        /* \"contracts/contracts/DisputeDAO.sol\":5780:5786  jurors */\n      0x00\n        /* \"contracts/contracts/DisputeDAO.sol\":5780:5799  jurors[selected[j]] */\n      0x00\n        /* \"contracts/contracts/DisputeDAO.sol\":5787:5795  selected */\n      dup8\n        /* \"contracts/contracts/DisputeDAO.sol\":5796:5797  j */\n      dup5\n        /* \"contracts/contracts/DisputeDAO.sol\":5787:5798  selected[j] */\n      dup2\n      mload\n      dup2\n      lt\n      tag_293\n      jumpi\n      tag_294\n      tag_140\n      jump\t// in\n    tag_294:\n    tag_293:\n      0x20\n      mul\n      0x20\n      add\n      add\n      mload\n        /* \"contracts/contracts/DisputeDAO.sol\":5780:5799  jurors[selected[j]] */\n      0xffffffffffffffffffffffffffffffffffffffff\n      and\n      0xffffffffffffffffffffffffffffffffffffffff\n      and\n      dup2\n      mstore\n      0x20\n      add\n      swap1\n      dup2\n      mstore\n      0x20\n      add\n      0x00\n      keccak256\n        /* \"contracts/contracts/DisputeDAO.sol\":5780:5813  jurors[selected[j]].lastDisputeId */\n      0x03\n      add\n        /* \"contracts/contracts/DisputeDAO.sol\":5780:5825  jurors[selected[j]].lastDisputeId = disputeId */\n      dup2\n      swap1\n      sstore\n      pop\n        /* \"contracts/contracts/DisputeDAO.sol\":5760:5763  j++ */\n      dup1\n      dup1\n      0x01\n      add\n      swap2\n      pop\n      pop\n        /* \"contracts/contracts/DisputeDAO.sol\":5722:5837  for (uint j = 0; j < selected.length; j++) {... */\n      jump(tag_290)\n    tag_291:\n      pop\n        /* \"contracts/contracts/DisputeDAO.sol\":5867:5876  disputeId */\n      dup7\n        /* \"contracts/contracts/DisputeDAO.sol\":5852:5887  DisputeStarted(disputeId, selected) */\n      0x5623bb8130ac6988ab91c966d08c23b84de074a147bb0a3677a9e322b0a5145b\n        /* \"contracts/contracts/DisputeDAO.sol\":5878:5886  selected */\n      dup6\n        /* \"contracts/contracts/DisputeDAO.sol\":5852:5887  DisputeStarted(disputeId, selected) */\n      mload(0x40)\n      tag_295\n      swap2\n      swap1\n      tag_65\n      jump\t// in\n    tag_295:\n      mload(0x40)\n      dup1\n      swap2\n      sub\n      swap1\n      log2\n        /* \"contracts/contracts/DisputeDAO.sol\":3257:5895  {... */\n      pop\n      pop\n      pop\n      pop\n      pop\n      pop\n        /* \"contracts/contracts/DisputeDAO.sol\":3190:5895  function handleDispute(uint256 disputeId) external onlyTaskFactory {... */\n      pop\n      jump\t// out\n        /* \"contracts/contracts/DisputeDAO.sol\":683:715  uint256 public jurorCooldown = 3 */\n    tag_72:\n      sload(0x05)\n      dup2\n      jump\t// out\n        /* \"contracts/contracts/DisputeDAO.sol\":1011:1055  mapping(uint256 => uint256) public voteCount */\n    tag_77:\n      mstore(0x20, 0x09)\n      dup1\n      0x00\n      mstore\n      keccak256(0x00, 0x40)\n      0x00\n      swap2\n      pop\n      swap1\n      pop\n      sload\n      dup2\n      jump\t// out\n        /* \"contracts/contracts/DisputeDAO.sol\":2038:2269  function setFactory(address _factory) external {... */\n    tag_83:\n        /* \"contracts/contracts/DisputeDAO.sol\":2105:2115  factorySet */\n      0x04\n      0x14\n      swap1\n      sload\n      swap1\n      0x0100\n      exp\n      swap1\n      div\n      0xff\n      and\n        /* \"contracts/contracts/DisputeDAO.sol\":2104:2115  !factorySet */\n      iszero\n        /* \"contracts/contracts/DisputeDAO.sol\":2096:2139  require(!factorySet, \"Factory already set\") */\n      tag_297\n      jumpi\n      mload(0x40)\n      0x08c379a000000000000000000000000000000000000000000000000000000000\n      dup2\n      mstore\n      0x04\n      add\n      tag_298\n      swap1\n      tag_299\n      jump\t// in\n    tag_298:\n      mload(0x40)\n      dup1\n      swap2\n      sub\n      swap1\n      revert\n    tag_297:\n        /* \"contracts/contracts/DisputeDAO.sol\":2178:2179  0 */\n      0x00\n        /* \"contracts/contracts/DisputeDAO.sol\":2158:2180  _factory != address(0) */\n      0xffffffffffffffffffffffffffffffffffffffff\n      and\n        /* \"contracts/contracts/DisputeDAO.sol\":2158:2166  _factory */\n      dup2\n        /* \"contracts/contracts/DisputeDAO.sol\":2158:2180  _factory != address(0) */\n      0xffffffffffffffffffffffffffffffffffffffff\n      and\n      sub\n        /* \"contracts/contracts/DisputeDAO.sol\":2150:2200  require(_factory != address(0), \"Invalid address\") */\n      tag_300\n      jumpi\n      mload(0x40)\n      0x08c379a000000000000000000000000000000000000000000000000000000000\n      dup2\n      mstore\n      0x04\n      add\n      tag_301\n      swap1\n      tag_302\n      jump\t// in\n    tag_301:\n      mload(0x40)\n      dup1\n      swap2\n      sub\n      swap1\n      revert\n    tag_300:\n        /* \"contracts/contracts/DisputeDAO.sol\":2225:2233  _factory */\n      dup1\n        /* \"contracts/contracts/DisputeDAO.sol\":2211:2222  taskFactory */\n      0x04\n      0x00\n        /* \"contracts/contracts/DisputeDAO.sol\":2211:2233  taskFactory = _factory */\n      0x0100\n      exp\n      dup2\n      sload\n      dup2\n      0xffffffffffffffffffffffffffffffffffffffff\n      mul\n      not\n      and\n      swap1\n      dup4\n      0xffffffffffffffffffffffffffffffffffffffff\n      and\n      mul\n      or\n      swap1\n      sstore\n      pop\n        /* \"contracts/contracts/DisputeDAO.sol\":2257:2261  true */\n      0x01\n        /* \"contracts/contracts/DisputeDAO.sol\":2244:2254  factorySet */\n      0x04\n      0x14\n        /* \"contracts/contracts/DisputeDAO.sol\":2244:2261  factorySet = true */\n      0x0100\n      exp\n      dup2\n      sload\n      dup2\n      0xff\n      mul\n      not\n      and\n      swap1\n      dup4\n      iszero\n      iszero\n      mul\n      or\n      swap1\n      sstore\n      pop\n        /* \"contracts/contracts/DisputeDAO.sol\":2038:2269  function setFactory(address _factory) external {... */\n      pop\n      jump\t// out\n        /* \"contracts/contracts/DisputeDAO.sol\":7635:7685  uint256 public constant JUROR_REWARD = 0.003 ether */\n    tag_86:\n        /* \"contracts/contracts/DisputeDAO.sol\":7674:7685  0.003 ether */\n      0x0aa87bee538000\n        /* \"contracts/contracts/DisputeDAO.sol\":7635:7685  uint256 public constant JUROR_REWARD = 0.003 ether */\n      dup2\n      jump\t// out\n        /* \"contracts/contracts/DisputeDAO.sol\":8915:9433  function getActiveJurors() external view returns (address[] memory) {... */\n    tag_90:\n        /* \"contracts/contracts/DisputeDAO.sol\":8965:8981  address[] memory */\n      0x60\n        /* \"contracts/contracts/DisputeDAO.sol\":8994:9007  uint256 count */\n      0x00\n        /* \"contracts/contracts/DisputeDAO.sol\":9010:9011  0 */\n      0x00\n        /* \"contracts/contracts/DisputeDAO.sol\":8994:9011  uint256 count = 0 */\n      swap1\n      pop\n        /* \"contracts/contracts/DisputeDAO.sol\":9027:9036  uint256 i */\n      0x00\n        /* \"contracts/contracts/DisputeDAO.sol\":9039:9040  0 */\n      0x00\n        /* \"contracts/contracts/DisputeDAO.sol\":9027:9040  uint256 i = 0 */\n      swap1\n      pop\n        /* \"contracts/contracts/DisputeDAO.sol\":9022:9138  for (uint256 i = 0; i < jurorList.length; i++) {... */\n    tag_304:\n        /* \"contracts/contracts/DisputeDAO.sol\":9046:9055  jurorList */\n      0x01\n        /* \"contracts/contracts/DisputeDAO.sol\":9046:9062  jurorList.length */\n      dup1\n      sload\n      swap1\n      pop\n        /* \"contracts/contracts/DisputeDAO.sol\":9042:9043  i */\n      dup2\n        /* \"contracts/contracts/DisputeDAO.sol\":9042:9062  i < jurorList.length */\n      lt\n        /* \"contracts/contracts/DisputeDAO.sol\":9022:9138  for (uint256 i = 0; i < jurorList.length; i++) {... */\n      iszero\n      tag_305\n      jumpi\n        /* \"contracts/contracts/DisputeDAO.sol\":9088:9094  jurors */\n      0x00\n        /* \"contracts/contracts/DisputeDAO.sol\":9088:9108  jurors[jurorList[i]] */\n      0x00\n        /* \"contracts/contracts/DisputeDAO.sol\":9095:9104  jurorList */\n      0x01\n        /* \"contracts/contracts/DisputeDAO.sol\":9105:9106  i */\n      dup4\n        /* \"contracts/contracts/DisputeDAO.sol\":9095:9107  jurorList[i] */\n      dup2\n      sload\n      dup2\n      lt\n      tag_307\n      jumpi\n      tag_308\n      tag_140\n      jump\t// in\n    tag_308:\n    tag_307:\n      swap1\n      0x00\n      mstore\n      keccak256(0x00, 0x20)\n      add\n      0x00\n      swap1\n      sload\n      swap1\n      0x0100\n      exp\n      swap1\n      div\n      0xffffffffffffffffffffffffffffffffffffffff\n      and\n        /* \"contracts/contracts/DisputeDAO.sol\":9088:9108  jurors[jurorList[i]] */\n      0xffffffffffffffffffffffffffffffffffffffff\n      and\n      0xffffffffffffffffffffffffffffffffffffffff\n      and\n      dup2\n      mstore\n      0x20\n      add\n      swap1\n      dup2\n      mstore\n      0x20\n      add\n      0x00\n      keccak256\n        /* \"contracts/contracts/DisputeDAO.sol\":9088:9117  jurors[jurorList[i]].isActive */\n      0x02\n      add\n      0x00\n      swap1\n      sload\n      swap1\n      0x0100\n      exp\n      swap1\n      div\n      0xff\n      and\n        /* \"contracts/contracts/DisputeDAO.sol\":9084:9126  if (jurors[jurorList[i]].isActive) count++ */\n      iszero\n      tag_310\n      jumpi\n        /* \"contracts/contracts/DisputeDAO.sol\":9119:9126  count++ */\n      dup2\n      dup1\n      tag_311\n      swap1\n      tag_150\n      jump\t// in\n    tag_311:\n      swap3\n      pop\n      pop\n        /* \"contracts/contracts/DisputeDAO.sol\":9084:9126  if (jurors[jurorList[i]].isActive) count++ */\n    tag_310:\n        /* \"contracts/contracts/DisputeDAO.sol\":9064:9067  i++ */\n      dup1\n      dup1\n      0x01\n      add\n      swap2\n      pop\n      pop\n        /* \"contracts/contracts/DisputeDAO.sol\":9022:9138  for (uint256 i = 0; i < jurorList.length; i++) {... */\n      jump(tag_304)\n    tag_305:\n      pop\n        /* \"contracts/contracts/DisputeDAO.sol\":9148:9172  address[] memory actives */\n      0x00\n        /* \"contracts/contracts/DisputeDAO.sol\":9189:9194  count */\n      dup2\n        /* \"contracts/contracts/DisputeDAO.sol\":9175:9195  new address[](count) */\n      0xffffffffffffffff\n      dup2\n      gt\n      iszero\n      tag_312\n      jumpi\n      tag_313\n      tag_224\n      jump\t// in\n    tag_313:\n    tag_312:\n      mload(0x40)\n      swap1\n      dup1\n      dup3\n      mstore\n      dup1\n      0x20\n      mul\n      0x20\n      add\n      dup3\n      add\n      0x40\n      mstore\n      dup1\n      iszero\n      tag_314\n      jumpi\n      dup2\n      0x20\n      add\n      0x20\n      dup3\n      mul\n      dup1\n      calldatasize\n      dup4\n      calldatacopy\n      dup1\n      dup3\n      add\n      swap2\n      pop\n      pop\n      swap1\n      pop\n    tag_314:\n      pop\n        /* \"contracts/contracts/DisputeDAO.sol\":9148:9195  address[] memory actives = new address[](count) */\n      swap1\n      pop\n        /* \"contracts/contracts/DisputeDAO.sol\":9206:9217  uint256 idx */\n      0x00\n        /* \"contracts/contracts/DisputeDAO.sol\":9220:9221  0 */\n      0x00\n        /* \"contracts/contracts/DisputeDAO.sol\":9206:9221  uint256 idx = 0 */\n      swap1\n      pop\n        /* \"contracts/contracts/DisputeDAO.sol\":9237:9243  uint i */\n      0x00\n        /* \"contracts/contracts/DisputeDAO.sol\":9246:9247  0 */\n      0x00\n        /* \"contracts/contracts/DisputeDAO.sol\":9237:9247  uint i = 0 */\n      swap1\n      pop\n        /* \"contracts/contracts/DisputeDAO.sol\":9232:9401  for (uint i = 0; i < jurorList.length; i++) {... */\n    tag_315:\n        /* \"contracts/contracts/DisputeDAO.sol\":9253:9262  jurorList */\n      0x01\n        /* \"contracts/contracts/DisputeDAO.sol\":9253:9269  jurorList.length */\n      dup1\n      sload\n      swap1\n      pop\n        /* \"contracts/contracts/DisputeDAO.sol\":9249:9250  i */\n      dup2\n        /* \"contracts/contracts/DisputeDAO.sol\":9249:9269  i < jurorList.length */\n      lt\n        /* \"contracts/contracts/DisputeDAO.sol\":9232:9401  for (uint i = 0; i < jurorList.length; i++) {... */\n      iszero\n      tag_316\n      jumpi\n        /* \"contracts/contracts/DisputeDAO.sol\":9295:9301  jurors */\n      0x00\n        /* \"contracts/contracts/DisputeDAO.sol\":9295:9315  jurors[jurorList[i]] */\n      0x00\n        /* \"contracts/contracts/DisputeDAO.sol\":9302:9311  jurorList */\n      0x01\n        /* \"contracts/contracts/DisputeDAO.sol\":9312:9313  i */\n      dup4\n        /* \"contracts/contracts/DisputeDAO.sol\":9302:9314  jurorList[i] */\n      dup2\n      sload\n      dup2\n      lt\n      tag_318\n      jumpi\n      tag_319\n      tag_140\n      jump\t// in\n    tag_319:\n    tag_318:\n      swap1\n      0x00\n      mstore\n      keccak256(0x00, 0x20)\n      add\n      0x00\n      swap1\n      sload\n      swap1\n      0x0100\n      exp\n      swap1\n      div\n      0xffffffffffffffffffffffffffffffffffffffff\n      and\n        /* \"contracts/contracts/DisputeDAO.sol\":9295:9315  jurors[jurorList[i]] */\n      0xffffffffffffffffffffffffffffffffffffffff\n      and\n      0xffffffffffffffffffffffffffffffffffffffff\n      and\n      dup2\n      mstore\n      0x20\n      add\n      swap1\n      dup2\n      mstore\n      0x20\n      add\n      0x00\n      keccak256\n        /* \"contracts/contracts/DisputeDAO.sol\":9295:9324  jurors[jurorList[i]].isActive */\n      0x02\n      add\n      0x00\n      swap1\n      sload\n      swap1\n      0x0100\n      exp\n      swap1\n      div\n      0xff\n      and\n        /* \"contracts/contracts/DisputeDAO.sol\":9291:9390  if (jurors[jurorList[i]].isActive) {... */\n      iszero\n      tag_321\n      jumpi\n        /* \"contracts/contracts/DisputeDAO.sol\":9362:9371  jurorList */\n      0x01\n        /* \"contracts/contracts/DisputeDAO.sol\":9372:9373  i */\n      dup2\n        /* \"contracts/contracts/DisputeDAO.sol\":9362:9374  jurorList[i] */\n      dup2\n      sload\n      dup2\n      lt\n      tag_322\n      jumpi\n      tag_323\n      tag_140\n      jump\t// in\n    tag_323:\n    tag_322:\n      swap1\n      0x00\n      mstore\n      keccak256(0x00, 0x20)\n      add\n      0x00\n      swap1\n      sload\n      swap1\n      0x0100\n      exp\n      swap1\n      div\n      0xffffffffffffffffffffffffffffffffffffffff\n      and\n        /* \"contracts/contracts/DisputeDAO.sol\":9345:9352  actives */\n      dup4\n        /* \"contracts/contracts/DisputeDAO.sol\":9353:9358  idx++ */\n      dup4\n      dup1\n      tag_325\n      swap1\n      tag_150\n      jump\t// in\n    tag_325:\n      swap5\n      pop\n        /* \"contracts/contracts/DisputeDAO.sol\":9345:9359  actives[idx++] */\n      dup2\n      mload\n      dup2\n      lt\n      tag_326\n      jumpi\n      tag_327\n      tag_140\n      jump\t// in\n    tag_327:\n    tag_326:\n      0x20\n      mul\n      0x20\n      add\n      add\n        /* \"contracts/contracts/DisputeDAO.sol\":9345:9374  actives[idx++] = jurorList[i] */\n      swap1\n      0xffffffffffffffffffffffffffffffffffffffff\n      and\n      swap1\n      dup2\n      0xffffffffffffffffffffffffffffffffffffffff\n      and\n      dup2\n      mstore\n      pop\n      pop\n        /* \"contracts/contracts/DisputeDAO.sol\":9291:9390  if (jurors[jurorList[i]].isActive) {... */\n    tag_321:\n        /* \"contracts/contracts/DisputeDAO.sol\":9271:9274  i++ */\n      dup1\n      dup1\n      0x01\n      add\n      swap2\n      pop\n      pop\n        /* \"contracts/contracts/DisputeDAO.sol\":9232:9401  for (uint i = 0; i < jurorList.length; i++) {... */\n      jump(tag_315)\n    tag_316:\n      pop\n        /* \"contracts/contracts/DisputeDAO.sol\":9418:9425  actives */\n      dup2\n        /* \"contracts/contracts/DisputeDAO.sol\":9411:9425  return actives */\n      swap4\n      pop\n      pop\n      pop\n      pop\n        /* \"contracts/contracts/DisputeDAO.sol\":8915:9433  function getActiveJurors() external view returns (address[] memory) {... */\n      swap1\n      jump\t// out\n        /* \"contracts/contracts/DisputeDAO.sol\":393:419  address[] public jurorList */\n    tag_95:\n      0x01\n      dup2\n      dup2\n      sload\n      dup2\n      lt\n      tag_328\n      jumpi\n      0x00\n      dup1\n      revert\n    tag_328:\n      swap1\n      0x00\n      mstore\n      keccak256(0x00, 0x20)\n      add\n      0x00\n      swap2\n      pop\n      sload\n      swap1\n      0x0100\n      exp\n      swap1\n      div\n      0xffffffffffffffffffffffffffffffffffffffff\n      and\n      dup2\n      jump\t// out\n        /* \"contracts/contracts/DisputeDAO.sol\":1107:1176  mapping(uint256 => mapping(address => uint256)) public candidateVotes */\n    tag_100:\n      mstore(0x20, 0x0a)\n      dup2\n      0x00\n      mstore\n      mstore(0x20, keccak256(0x00, 0x40))\n      dup1\n      0x00\n      mstore\n      keccak256(0x00, 0x40)\n      0x00\n      swap2\n      pop\n      swap2\n      pop\n      pop\n      sload\n      dup2\n      jump\t// out\n        /* \"contracts/contracts/DisputeDAO.sol\":613:639  address public taskFactory */\n    tag_104:\n      0x04\n      0x00\n      swap1\n      sload\n      swap1\n      0x0100\n      exp\n      swap1\n      div\n      0xffffffffffffffffffffffffffffffffffffffff\n      and\n      dup2\n      jump\t// out\n        /* \"contracts/contracts/DisputeDAO.sol\":912:972  mapping(uint256 => mapping(address => address)) public votes */\n    tag_109:\n      mstore(0x20, 0x08)\n      dup2\n      0x00\n      mstore\n      mstore(0x20, keccak256(0x00, 0x40))\n      dup1\n      0x00\n      mstore\n      keccak256(0x00, 0x40)\n      0x00\n      swap2\n      pop\n      swap2\n      pop\n      swap1\n      sload\n      swap1\n      0x0100\n      exp\n      swap1\n      div\n      0xffffffffffffffffffffffffffffffffffffffff\n      and\n      dup2\n      jump\t// out\n        /* \"contracts/contracts/DisputeDAO.sol\":571:606  uint256 public jurorsPerDispute = 3 */\n    tag_113:\n      sload(0x03)\n      dup2\n      jump\t// out\n        /* \"contracts/contracts/DisputeDAO.sol\":347:386  mapping(address => Juror) public jurors */\n    tag_118:\n      mstore(0x20, 0x00)\n      dup1\n      0x00\n      mstore\n      keccak256(0x00, 0x40)\n      0x00\n      swap2\n      pop\n      swap1\n      pop\n      dup1\n      0x00\n      add\n      0x00\n      swap1\n      sload\n      swap1\n      0x0100\n      exp\n      swap1\n      div\n      0xffffffffffffffffffffffffffffffffffffffff\n      and\n      swap1\n      dup1\n      0x01\n      add\n      sload\n      swap1\n      dup1\n      0x02\n      add\n      0x00\n      swap1\n      sload\n      swap1\n      0x0100\n      exp\n      swap1\n      div\n      0xff\n      and\n      swap1\n      dup1\n      0x03\n      add\n      sload\n      swap1\n      pop\n      dup5\n      jump\t// out\n        /* \"contracts/contracts/DisputeDAO.sol\":646:676  bool public factorySet = false */\n    tag_123:\n      0x04\n      0x14\n      swap1\n      sload\n      swap1\n      0x0100\n      exp\n      swap1\n      div\n      0xff\n      and\n      dup2\n      jump\t// out\n        /* \"contracts/contracts/DisputeDAO.sol\":8614:8871  function getJurorInfo(address _jurorAddr) external view returns (uint256 stakeAmount, bool isActive, uint256 lastDisputeId) {... */\n    tag_128:\n        /* \"contracts/contracts/DisputeDAO.sol\":8679:8698  uint256 stakeAmount */\n      0x00\n        /* \"contracts/contracts/DisputeDAO.sol\":8700:8713  bool isActive */\n      0x00\n        /* \"contracts/contracts/DisputeDAO.sol\":8715:8736  uint256 lastDisputeId */\n      0x00\n        /* \"contracts/contracts/DisputeDAO.sol\":8749:8768  Juror storage juror */\n      0x00\n        /* \"contracts/contracts/DisputeDAO.sol\":8771:8777  jurors */\n      0x00\n        /* \"contracts/contracts/DisputeDAO.sol\":8771:8789  jurors[_jurorAddr] */\n      0x00\n        /* \"contracts/contracts/DisputeDAO.sol\":8778:8788  _jurorAddr */\n      dup7\n        /* \"contracts/contracts/DisputeDAO.sol\":8771:8789  jurors[_jurorAddr] */\n      0xffffffffffffffffffffffffffffffffffffffff\n      and\n      0xffffffffffffffffffffffffffffffffffffffff\n      and\n      dup2\n      mstore\n      0x20\n      add\n      swap1\n      dup2\n      mstore\n      0x20\n      add\n      0x00\n      keccak256\n        /* \"contracts/contracts/DisputeDAO.sol\":8749:8789  Juror storage juror = jurors[_jurorAddr] */\n      swap1\n      pop\n        /* \"contracts/contracts/DisputeDAO.sol\":8808:8813  juror */\n      dup1\n        /* \"contracts/contracts/DisputeDAO.sol\":8808:8825  juror.stakeAmount */\n      0x01\n      add\n      sload\n        /* \"contracts/contracts/DisputeDAO.sol\":8827:8832  juror */\n      dup2\n        /* \"contracts/contracts/DisputeDAO.sol\":8827:8841  juror.isActive */\n      0x02\n      add\n      0x00\n      swap1\n      sload\n      swap1\n      0x0100\n      exp\n      swap1\n      div\n      0xff\n      and\n        /* \"contracts/contracts/DisputeDAO.sol\":8843:8848  juror */\n      dup3\n        /* \"contracts/contracts/DisputeDAO.sol\":8843:8862  juror.lastDisputeId */\n      0x03\n      add\n      sload\n        /* \"contracts/contracts/DisputeDAO.sol\":8800:8863  return (juror.stakeAmount, juror.isActive, juror.lastDisputeId) */\n      swap4\n      pop\n      swap4\n      pop\n      swap4\n      pop\n      pop\n        /* \"contracts/contracts/DisputeDAO.sol\":8614:8871  function getJurorInfo(address _jurorAddr) external view returns (uint256 stakeAmount, bool isActive, uint256 lastDisputeId) {... */\n      swap2\n      swap4\n      swap1\n      swap3\n      pop\n      jump\t// out\n    tag_289:\n      dup3\n      dup1\n      sload\n      dup3\n      dup3\n      sstore\n      swap1\n      0x00\n      mstore\n      keccak256(0x00, 0x20)\n      swap1\n      dup2\n      add\n      swap3\n      dup3\n      iszero\n      tag_331\n      jumpi\n      swap2\n      0x20\n      mul\n      dup3\n      add\n    tag_332:\n      dup3\n      dup2\n      gt\n      iszero\n      tag_333\n      jumpi\n      dup3\n      mload\n      dup3\n      exp(0x0100, 0x00)\n      dup2\n      sload\n      dup2\n      0xffffffffffffffffffffffffffffffffffffffff\n      mul\n      not\n      and\n      swap1\n      dup4\n      0xffffffffffffffffffffffffffffffffffffffff\n      and\n      mul\n      or\n      swap1\n      sstore\n      pop\n      swap2\n      0x20\n      add\n      swap2\n      swap1\n      0x01\n      add\n      swap1\n      jump(tag_332)\n    tag_333:\n    tag_331:\n      pop\n      swap1\n      pop\n      tag_334\n      swap2\n      swap1\n      tag_335\n      jump\t// in\n    tag_334:\n      pop\n      swap1\n      jump\t// out\n    tag_335:\n    tag_336:\n      dup1\n      dup3\n      gt\n      iszero\n      tag_337\n      jumpi\n      0x00\n      dup2\n      0x00\n      swap1\n      sstore\n      pop\n      0x01\n      add\n      jump(tag_336)\n    tag_337:\n      pop\n      swap1\n      jump\t// out\n        /* \"#utility.yul\":88:205   */\n    tag_339:\n        /* \"#utility.yul\":197:198   */\n      0x00\n        /* \"#utility.yul\":194:195   */\n      0x00\n        /* \"#utility.yul\":187:199   */\n      revert\n        /* \"#utility.yul\":334:411   */\n    tag_341:\n        /* \"#utility.yul\":371:378   */\n      0x00\n        /* \"#utility.yul\":400:405   */\n      dup2\n        /* \"#utility.yul\":389:405   */\n      swap1\n      pop\n        /* \"#utility.yul\":334:411   */\n      swap2\n      swap1\n      pop\n      jump\t// out\n        /* \"#utility.yul\":417:539   */\n    tag_342:\n        /* \"#utility.yul\":490:514   */\n      tag_402\n        /* \"#utility.yul\":508:513   */\n      dup2\n        /* \"#utility.yul\":490:514   */\n      tag_341\n      jump\t// in\n    tag_402:\n        /* \"#utility.yul\":483:488   */\n      dup2\n        /* \"#utility.yul\":480:515   */\n      eq\n        /* \"#utility.yul\":470:533   */\n      tag_403\n      jumpi\n        /* \"#utility.yul\":529:530   */\n      0x00\n        /* \"#utility.yul\":526:527   */\n      0x00\n        /* \"#utility.yul\":519:531   */\n      revert\n        /* \"#utility.yul\":470:533   */\n    tag_403:\n        /* \"#utility.yul\":417:539   */\n      pop\n      jump\t// out\n        /* \"#utility.yul\":545:684   */\n    tag_343:\n        /* \"#utility.yul\":591:596   */\n      0x00\n        /* \"#utility.yul\":629:635   */\n      dup2\n        /* \"#utility.yul\":616:636   */\n      calldataload\n        /* \"#utility.yul\":607:636   */\n      swap1\n      pop\n        /* \"#utility.yul\":645:678   */\n      tag_405\n        /* \"#utility.yul\":672:677   */\n      dup2\n        /* \"#utility.yul\":645:678   */\n      tag_342\n      jump\t// in\n    tag_405:\n        /* \"#utility.yul\":545:684   */\n      swap3\n      swap2\n      pop\n      pop\n      jump\t// out\n        /* \"#utility.yul\":690:816   */\n    tag_344:\n        /* \"#utility.yul\":727:734   */\n      0x00\n        /* \"#utility.yul\":767:809   */\n      0xffffffffffffffffffffffffffffffffffffffff\n        /* \"#utility.yul\":760:765   */\n      dup3\n        /* \"#utility.yul\":756:810   */\n      and\n        /* \"#utility.yul\":745:810   */\n      swap1\n      pop\n        /* \"#utility.yul\":690:816   */\n      swap2\n      swap1\n      pop\n      jump\t// out\n        /* \"#utility.yul\":822:918   */\n    tag_345:\n        /* \"#utility.yul\":859:866   */\n      0x00\n        /* \"#utility.yul\":888:912   */\n      tag_408\n        /* \"#utility.yul\":906:911   */\n      dup3\n        /* \"#utility.yul\":888:912   */\n      tag_344\n      jump\t// in\n    tag_408:\n        /* \"#utility.yul\":877:912   */\n      swap1\n      pop\n        /* \"#utility.yul\":822:918   */\n      swap2\n      swap1\n      pop\n      jump\t// out\n        /* \"#utility.yul\":924:1046   */\n    tag_346:\n        /* \"#utility.yul\":997:1021   */\n      tag_410\n        /* \"#utility.yul\":1015:1020   */\n      dup2\n        /* \"#utility.yul\":997:1021   */\n      tag_345\n      jump\t// in\n    tag_410:\n        /* \"#utility.yul\":990:995   */\n      dup2\n        /* \"#utility.yul\":987:1022   */\n      eq\n        /* \"#utility.yul\":977:1040   */\n      tag_411\n      jumpi\n        /* \"#utility.yul\":1036:1037   */\n      0x00\n        /* \"#utility.yul\":1033:1034   */\n      0x00\n        /* \"#utility.yul\":1026:1038   */\n      revert\n        /* \"#utility.yul\":977:1040   */\n    tag_411:\n        /* \"#utility.yul\":924:1046   */\n      pop\n      jump\t// out\n        /* \"#utility.yul\":1052:1191   */\n    tag_347:\n        /* \"#utility.yul\":1098:1103   */\n      0x00\n        /* \"#utility.yul\":1136:1142   */\n      dup2\n        /* \"#utility.yul\":1123:1143   */\n      calldataload\n        /* \"#utility.yul\":1114:1143   */\n      swap1\n      pop\n        /* \"#utility.yul\":1152:1185   */\n      tag_413\n        /* \"#utility.yul\":1179:1184   */\n      dup2\n        /* \"#utility.yul\":1152:1185   */\n      tag_346\n      jump\t// in\n    tag_413:\n        /* \"#utility.yul\":1052:1191   */\n      swap3\n      swap2\n      pop\n      pop\n      jump\t// out\n        /* \"#utility.yul\":1197:1671   */\n    tag_30:\n        /* \"#utility.yul\":1265:1271   */\n      0x00\n        /* \"#utility.yul\":1273:1279   */\n      0x00\n        /* \"#utility.yul\":1322:1324   */\n      0x40\n        /* \"#utility.yul\":1310:1319   */\n      dup4\n        /* \"#utility.yul\":1301:1308   */\n      dup6\n        /* \"#utility.yul\":1297:1320   */\n      sub\n        /* \"#utility.yul\":1293:1325   */\n      slt\n        /* \"#utility.yul\":1290:1409   */\n      iszero\n      tag_415\n      jumpi\n        /* \"#utility.yul\":1328:1407   */\n      tag_416\n      tag_339\n      jump\t// in\n    tag_416:\n        /* \"#utility.yul\":1290:1409   */\n    tag_415:\n        /* \"#utility.yul\":1448:1449   */\n      0x00\n        /* \"#utility.yul\":1473:1526   */\n      tag_417\n        /* \"#utility.yul\":1518:1525   */\n      dup6\n        /* \"#utility.yul\":1509:1515   */\n      dup3\n        /* \"#utility.yul\":1498:1507   */\n      dup7\n        /* \"#utility.yul\":1494:1516   */\n      add\n        /* \"#utility.yul\":1473:1526   */\n      tag_343\n      jump\t// in\n    tag_417:\n        /* \"#utility.yul\":1463:1526   */\n      swap3\n      pop\n        /* \"#utility.yul\":1419:1536   */\n      pop\n        /* \"#utility.yul\":1575:1577   */\n      0x20\n        /* \"#utility.yul\":1601:1654   */\n      tag_418\n        /* \"#utility.yul\":1646:1653   */\n      dup6\n        /* \"#utility.yul\":1637:1643   */\n      dup3\n        /* \"#utility.yul\":1626:1635   */\n      dup7\n        /* \"#utility.yul\":1622:1644   */\n      add\n        /* \"#utility.yul\":1601:1654   */\n      tag_347\n      jump\t// in\n    tag_418:\n        /* \"#utility.yul\":1591:1654   */\n      swap2\n      pop\n        /* \"#utility.yul\":1546:1664   */\n      pop\n        /* \"#utility.yul\":1197:1671   */\n      swap3\n      pop\n      swap3\n      swap1\n      pop\n      jump\t// out\n        /* \"#utility.yul\":1677:2006   */\n    tag_35:\n        /* \"#utility.yul\":1736:1742   */\n      0x00\n        /* \"#utility.yul\":1785:1787   */\n      0x20\n        /* \"#utility.yul\":1773:1782   */\n      dup3\n        /* \"#utility.yul\":1764:1771   */\n      dup5\n        /* \"#utility.yul\":1760:1783   */\n      sub\n        /* \"#utility.yul\":1756:1788   */\n      slt\n        /* \"#utility.yul\":1753:1872   */\n      iszero\n      tag_420\n      jumpi\n        /* \"#utility.yul\":1791:1870   */\n      tag_421\n      tag_339\n      jump\t// in\n    tag_421:\n        /* \"#utility.yul\":1753:1872   */\n    tag_420:\n        /* \"#utility.yul\":1911:1912   */\n      0x00\n        /* \"#utility.yul\":1936:1989   */\n      tag_422\n        /* \"#utility.yul\":1981:1988   */\n      dup5\n        /* \"#utility.yul\":1972:1978   */\n      dup3\n        /* \"#utility.yul\":1961:1970   */\n      dup6\n        /* \"#utility.yul\":1957:1979   */\n      add\n        /* \"#utility.yul\":1936:1989   */\n      tag_343\n      jump\t// in\n    tag_422:\n        /* \"#utility.yul\":1926:1989   */\n      swap2\n      pop\n        /* \"#utility.yul\":1882:1999   */\n      pop\n        /* \"#utility.yul\":1677:2006   */\n      swap3\n      swap2\n      pop\n      pop\n      jump\t// out\n        /* \"#utility.yul\":2012:2486   */\n    tag_40:\n        /* \"#utility.yul\":2080:2086   */\n      0x00\n        /* \"#utility.yul\":2088:2094   */\n      0x00\n        /* \"#utility.yul\":2137:2139   */\n      0x40\n        /* \"#utility.yul\":2125:2134   */\n      dup4\n        /* \"#utility.yul\":2116:2123   */\n      dup6\n        /* \"#utility.yul\":2112:2135   */\n      sub\n        /* \"#utility.yul\":2108:2140   */\n      slt\n        /* \"#utility.yul\":2105:2224   */\n      iszero\n      tag_424\n      jumpi\n        /* \"#utility.yul\":2143:2222   */\n      tag_425\n      tag_339\n      jump\t// in\n    tag_425:\n        /* \"#utility.yul\":2105:2224   */\n    tag_424:\n        /* \"#utility.yul\":2263:2264   */\n      0x00\n        /* \"#utility.yul\":2288:2341   */\n      tag_426\n        /* \"#utility.yul\":2333:2340   */\n      dup6\n        /* \"#utility.yul\":2324:2330   */\n      dup3\n        /* \"#utility.yul\":2313:2322   */\n      dup7\n        /* \"#utility.yul\":2309:2331   */\n      add\n        /* \"#utility.yul\":2288:2341   */\n      tag_343\n      jump\t// in\n    tag_426:\n        /* \"#utility.yul\":2278:2341   */\n      swap3\n      pop\n        /* \"#utility.yul\":2234:2351   */\n      pop\n        /* \"#utility.yul\":2390:2392   */\n      0x20\n        /* \"#utility.yul\":2416:2469   */\n      tag_427\n        /* \"#utility.yul\":2461:2468   */\n      dup6\n        /* \"#utility.yul\":2452:2458   */\n      dup3\n        /* \"#utility.yul\":2441:2450   */\n      dup7\n        /* \"#utility.yul\":2437:2459   */\n      add\n        /* \"#utility.yul\":2416:2469   */\n      tag_343\n      jump\t// in\n    tag_427:\n        /* \"#utility.yul\":2406:2469   */\n      swap2\n      pop\n        /* \"#utility.yul\":2361:2479   */\n      pop\n        /* \"#utility.yul\":2012:2486   */\n      swap3\n      pop\n      swap3\n      swap1\n      pop\n      jump\t// out\n        /* \"#utility.yul\":2492:2610   */\n    tag_348:\n        /* \"#utility.yul\":2579:2603   */\n      tag_429\n        /* \"#utility.yul\":2597:2602   */\n      dup2\n        /* \"#utility.yul\":2579:2603   */\n      tag_345\n      jump\t// in\n    tag_429:\n        /* \"#utility.yul\":2574:2577   */\n      dup3\n        /* \"#utility.yul\":2567:2604   */\n      mstore\n        /* \"#utility.yul\":2492:2610   */\n      pop\n      pop\n      jump\t// out\n        /* \"#utility.yul\":2616:2838   */\n    tag_43:\n        /* \"#utility.yul\":2709:2713   */\n      0x00\n        /* \"#utility.yul\":2747:2749   */\n      0x20\n        /* \"#utility.yul\":2736:2745   */\n      dup3\n        /* \"#utility.yul\":2732:2750   */\n      add\n        /* \"#utility.yul\":2724:2750   */\n      swap1\n      pop\n        /* \"#utility.yul\":2760:2831   */\n      tag_431\n        /* \"#utility.yul\":2828:2829   */\n      0x00\n        /* \"#utility.yul\":2817:2826   */\n      dup4\n        /* \"#utility.yul\":2813:2830   */\n      add\n        /* \"#utility.yul\":2804:2810   */\n      dup5\n        /* \"#utility.yul\":2760:2831   */\n      tag_348\n      jump\t// in\n    tag_431:\n        /* \"#utility.yul\":2616:2838   */\n      swap3\n      swap2\n      pop\n      pop\n      jump\t// out\n        /* \"#utility.yul\":2844:2962   */\n    tag_349:\n        /* \"#utility.yul\":2931:2955   */\n      tag_433\n        /* \"#utility.yul\":2949:2954   */\n      dup2\n        /* \"#utility.yul\":2931:2955   */\n      tag_341\n      jump\t// in\n    tag_433:\n        /* \"#utility.yul\":2926:2929   */\n      dup3\n        /* \"#utility.yul\":2919:2956   */\n      mstore\n        /* \"#utility.yul\":2844:2962   */\n      pop\n      pop\n      jump\t// out\n        /* \"#utility.yul\":2968:3190   */\n    tag_51:\n        /* \"#utility.yul\":3061:3065   */\n      0x00\n        /* \"#utility.yul\":3099:3101   */\n      0x20\n        /* \"#utility.yul\":3088:3097   */\n      dup3\n        /* \"#utility.yul\":3084:3102   */\n      add\n        /* \"#utility.yul\":3076:3102   */\n      swap1\n      pop\n        /* \"#utility.yul\":3112:3183   */\n      tag_435\n        /* \"#utility.yul\":3180:3181   */\n      0x00\n        /* \"#utility.yul\":3169:3178   */\n      dup4\n        /* \"#utility.yul\":3165:3182   */\n      add\n        /* \"#utility.yul\":3156:3162   */\n      dup5\n        /* \"#utility.yul\":3112:3183   */\n      tag_349\n      jump\t// in\n    tag_435:\n        /* \"#utility.yul\":2968:3190   */\n      swap3\n      swap2\n      pop\n      pop\n      jump\t// out\n        /* \"#utility.yul\":3196:3286   */\n    tag_350:\n        /* \"#utility.yul\":3230:3237   */\n      0x00\n        /* \"#utility.yul\":3273:3278   */\n      dup2\n        /* \"#utility.yul\":3266:3279   */\n      iszero\n        /* \"#utility.yul\":3259:3280   */\n      iszero\n        /* \"#utility.yul\":3248:3280   */\n      swap1\n      pop\n        /* \"#utility.yul\":3196:3286   */\n      swap2\n      swap1\n      pop\n      jump\t// out\n        /* \"#utility.yul\":3292:3401   */\n    tag_351:\n        /* \"#utility.yul\":3373:3394   */\n      tag_438\n        /* \"#utility.yul\":3388:3393   */\n      dup2\n        /* \"#utility.yul\":3373:3394   */\n      tag_350\n      jump\t// in\n    tag_438:\n        /* \"#utility.yul\":3368:3371   */\n      dup3\n        /* \"#utility.yul\":3361:3395   */\n      mstore\n        /* \"#utility.yul\":3292:3401   */\n      pop\n      pop\n      jump\t// out\n        /* \"#utility.yul\":3407:3617   */\n    tag_59:\n        /* \"#utility.yul\":3494:3498   */\n      0x00\n        /* \"#utility.yul\":3532:3534   */\n      0x20\n        /* \"#utility.yul\":3521:3530   */\n      dup3\n        /* \"#utility.yul\":3517:3535   */\n      add\n        /* \"#utility.yul\":3509:3535   */\n      swap1\n      pop\n        /* \"#utility.yul\":3545:3610   */\n      tag_440\n        /* \"#utility.yul\":3607:3608   */\n      0x00\n        /* \"#utility.yul\":3596:3605   */\n      dup4\n        /* \"#utility.yul\":3592:3609   */\n      add\n        /* \"#utility.yul\":3583:3589   */\n      dup5\n        /* \"#utility.yul\":3545:3610   */\n      tag_351\n      jump\t// in\n    tag_440:\n        /* \"#utility.yul\":3407:3617   */\n      swap3\n      swap2\n      pop\n      pop\n      jump\t// out\n        /* \"#utility.yul\":3623:3737   */\n    tag_352:\n        /* \"#utility.yul\":3690:3696   */\n      0x00\n        /* \"#utility.yul\":3724:3729   */\n      dup2\n        /* \"#utility.yul\":3718:3730   */\n      mload\n        /* \"#utility.yul\":3708:3730   */\n      swap1\n      pop\n        /* \"#utility.yul\":3623:3737   */\n      swap2\n      swap1\n      pop\n      jump\t// out\n        /* \"#utility.yul\":3743:3927   */\n    tag_353:\n        /* \"#utility.yul\":3842:3853   */\n      0x00\n        /* \"#utility.yul\":3876:3882   */\n      dup3\n        /* \"#utility.yul\":3871:3874   */\n      dup3\n        /* \"#utility.yul\":3864:3883   */\n      mstore\n        /* \"#utility.yul\":3916:3920   */\n      0x20\n        /* \"#utility.yul\":3911:3914   */\n      dup3\n        /* \"#utility.yul\":3907:3921   */\n      add\n        /* \"#utility.yul\":3892:3921   */\n      swap1\n      pop\n        /* \"#utility.yul\":3743:3927   */\n      swap3\n      swap2\n      pop\n      pop\n      jump\t// out\n        /* \"#utility.yul\":3933:4065   */\n    tag_354:\n        /* \"#utility.yul\":4000:4004   */\n      0x00\n        /* \"#utility.yul\":4023:4026   */\n      dup2\n        /* \"#utility.yul\":4015:4026   */\n      swap1\n      pop\n        /* \"#utility.yul\":4053:4057   */\n      0x20\n        /* \"#utility.yul\":4048:4051   */\n      dup3\n        /* \"#utility.yul\":4044:4058   */\n      add\n        /* \"#utility.yul\":4036:4058   */\n      swap1\n      pop\n        /* \"#utility.yul\":3933:4065   */\n      swap2\n      swap1\n      pop\n      jump\t// out\n        /* \"#utility.yul\":4071:4179   */\n    tag_355:\n        /* \"#utility.yul\":4148:4172   */\n      tag_445\n        /* \"#utility.yul\":4166:4171   */\n      dup2\n        /* \"#utility.yul\":4148:4172   */\n      tag_345\n      jump\t// in\n    tag_445:\n        /* \"#utility.yul\":4143:4146   */\n      dup3\n        /* \"#utility.yul\":4136:4173   */\n      mstore\n        /* \"#utility.yul\":4071:4179   */\n      pop\n      pop\n      jump\t// out\n        /* \"#utility.yul\":4185:4364   */\n    tag_356:\n        /* \"#utility.yul\":4254:4264   */\n      0x00\n        /* \"#utility.yul\":4275:4321   */\n      tag_447\n        /* \"#utility.yul\":4317:4320   */\n      dup4\n        /* \"#utility.yul\":4309:4315   */\n      dup4\n        /* \"#utility.yul\":4275:4321   */\n      tag_355\n      jump\t// in\n    tag_447:\n        /* \"#utility.yul\":4353:4357   */\n      0x20\n        /* \"#utility.yul\":4348:4351   */\n      dup4\n        /* \"#utility.yul\":4344:4358   */\n      add\n        /* \"#utility.yul\":4330:4358   */\n      swap1\n      pop\n        /* \"#utility.yul\":4185:4364   */\n      swap3\n      swap2\n      pop\n      pop\n      jump\t// out\n        /* \"#utility.yul\":4370:4483   */\n    tag_357:\n        /* \"#utility.yul\":4440:4444   */\n      0x00\n        /* \"#utility.yul\":4472:4476   */\n      0x20\n        /* \"#utility.yul\":4467:4470   */\n      dup3\n        /* \"#utility.yul\":4463:4477   */\n      add\n        /* \"#utility.yul\":4455:4477   */\n      swap1\n      pop\n        /* \"#utility.yul\":4370:4483   */\n      swap2\n      swap1\n      pop\n      jump\t// out\n        /* \"#utility.yul\":4519:5251   */\n    tag_358:\n        /* \"#utility.yul\":4638:4641   */\n      0x00\n        /* \"#utility.yul\":4667:4721   */\n      tag_450\n        /* \"#utility.yul\":4715:4720   */\n      dup3\n        /* \"#utility.yul\":4667:4721   */\n      tag_352\n      jump\t// in\n    tag_450:\n        /* \"#utility.yul\":4737:4823   */\n      tag_451\n        /* \"#utility.yul\":4816:4822   */\n      dup2\n        /* \"#utility.yul\":4811:4814   */\n      dup6\n        /* \"#utility.yul\":4737:4823   */\n      tag_353\n      jump\t// in\n    tag_451:\n        /* \"#utility.yul\":4730:4823   */\n      swap4\n      pop\n        /* \"#utility.yul\":4847:4903   */\n      tag_452\n        /* \"#utility.yul\":4897:4902   */\n      dup4\n        /* \"#utility.yul\":4847:4903   */\n      tag_354\n      jump\t// in\n    tag_452:\n        /* \"#utility.yul\":4926:4933   */\n      dup1\n        /* \"#utility.yul\":4957:4958   */\n      0x00\n        /* \"#utility.yul\":4942:5226   */\n    tag_453:\n        /* \"#utility.yul\":4967:4973   */\n      dup4\n        /* \"#utility.yul\":4964:4965   */\n      dup2\n        /* \"#utility.yul\":4961:4974   */\n      lt\n        /* \"#utility.yul\":4942:5226   */\n      iszero\n      tag_455\n      jumpi\n        /* \"#utility.yul\":5043:5049   */\n      dup2\n        /* \"#utility.yul\":5037:5050   */\n      mload\n        /* \"#utility.yul\":5070:5133   */\n      tag_456\n        /* \"#utility.yul\":5129:5132   */\n      dup9\n        /* \"#utility.yul\":5114:5127   */\n      dup3\n        /* \"#utility.yul\":5070:5133   */\n      tag_356\n      jump\t// in\n    tag_456:\n        /* \"#utility.yul\":5063:5133   */\n      swap8\n      pop\n        /* \"#utility.yul\":5156:5216   */\n      tag_457\n        /* \"#utility.yul\":5209:5215   */\n      dup4\n        /* \"#utility.yul\":5156:5216   */\n      tag_357\n      jump\t// in\n    tag_457:\n        /* \"#utility.yul\":5146:5216   */\n      swap3\n      pop\n        /* \"#utility.yul\":5002:5226   */\n      pop\n        /* \"#utility.yul\":4989:4990   */\n      0x01\n        /* \"#utility.yul\":4986:4987   */\n      dup2\n        /* \"#utility.yul\":4982:4991   */\n      add\n        /* \"#utility.yul\":4977:4991   */\n      swap1\n      pop\n        /* \"#utility.yul\":4942:5226   */\n      jump(tag_453)\n    tag_455:\n        /* \"#utility.yul\":4946:4960   */\n      pop\n        /* \"#utility.yul\":5242:5245   */\n      dup6\n        /* \"#utility.yul\":5235:5245   */\n      swap4\n      pop\n        /* \"#utility.yul\":4643:5251   */\n      pop\n      pop\n      pop\n        /* \"#utility.yul\":4519:5251   */\n      swap3\n      swap2\n      pop\n      pop\n      jump\t// out\n        /* \"#utility.yul\":5257:5630   */\n    tag_65:\n        /* \"#utility.yul\":5400:5404   */\n      0x00\n        /* \"#utility.yul\":5438:5440   */\n      0x20\n        /* \"#utility.yul\":5427:5436   */\n      dup3\n        /* \"#utility.yul\":5423:5441   */\n      add\n        /* \"#utility.yul\":5415:5441   */\n      swap1\n      pop\n        /* \"#utility.yul\":5487:5496   */\n      dup2\n        /* \"#utility.yul\":5481:5485   */\n      dup2\n        /* \"#utility.yul\":5477:5497   */\n      sub\n        /* \"#utility.yul\":5473:5474   */\n      0x00\n        /* \"#utility.yul\":5462:5471   */\n      dup4\n        /* \"#utility.yul\":5458:5475   */\n      add\n        /* \"#utility.yul\":5451:5498   */\n      mstore\n        /* \"#utility.yul\":5515:5623   */\n      tag_459\n        /* \"#utility.yul\":5618:5622   */\n      dup2\n        /* \"#utility.yul\":5609:5615   */\n      dup5\n        /* \"#utility.yul\":5515:5623   */\n      tag_358\n      jump\t// in\n    tag_459:\n        /* \"#utility.yul\":5507:5623   */\n      swap1\n      pop\n        /* \"#utility.yul\":5257:5630   */\n      swap3\n      swap2\n      pop\n      pop\n      jump\t// out\n        /* \"#utility.yul\":5636:5965   */\n    tag_82:\n        /* \"#utility.yul\":5695:5701   */\n      0x00\n        /* \"#utility.yul\":5744:5746   */\n      0x20\n        /* \"#utility.yul\":5732:5741   */\n      dup3\n        /* \"#utility.yul\":5723:5730   */\n      dup5\n        /* \"#utility.yul\":5719:5742   */\n      sub\n        /* \"#utility.yul\":5715:5747   */\n      slt\n        /* \"#utility.yul\":5712:5831   */\n      iszero\n      tag_461\n      jumpi\n        /* \"#utility.yul\":5750:5829   */\n      tag_462\n      tag_339\n      jump\t// in\n    tag_462:\n        /* \"#utility.yul\":5712:5831   */\n    tag_461:\n        /* \"#utility.yul\":5870:5871   */\n      0x00\n        /* \"#utility.yul\":5895:5948   */\n      tag_463\n        /* \"#utility.yul\":5940:5947   */\n      dup5\n        /* \"#utility.yul\":5931:5937   */\n      dup3\n        /* \"#utility.yul\":5920:5929   */\n      dup6\n        /* \"#utility.yul\":5916:5938   */\n      add\n        /* \"#utility.yul\":5895:5948   */\n      tag_347\n      jump\t// in\n    tag_463:\n        /* \"#utility.yul\":5885:5948   */\n      swap2\n      pop\n        /* \"#utility.yul\":5841:5958   */\n      pop\n        /* \"#utility.yul\":5636:5965   */\n      swap3\n      swap2\n      pop\n      pop\n      jump\t// out\n        /* \"#utility.yul\":5971:6512   */\n    tag_120:\n        /* \"#utility.yul\":6142:6146   */\n      0x00\n        /* \"#utility.yul\":6180:6183   */\n      0x80\n        /* \"#utility.yul\":6169:6178   */\n      dup3\n        /* \"#utility.yul\":6165:6184   */\n      add\n        /* \"#utility.yul\":6157:6184   */\n      swap1\n      pop\n        /* \"#utility.yul\":6194:6265   */\n      tag_465\n        /* \"#utility.yul\":6262:6263   */\n      0x00\n        /* \"#utility.yul\":6251:6260   */\n      dup4\n        /* \"#utility.yul\":6247:6264   */\n      add\n        /* \"#utility.yul\":6238:6244   */\n      dup8\n        /* \"#utility.yul\":6194:6265   */\n      tag_348\n      jump\t// in\n    tag_465:\n        /* \"#utility.yul\":6275:6347   */\n      tag_466\n        /* \"#utility.yul\":6343:6345   */\n      0x20\n        /* \"#utility.yul\":6332:6341   */\n      dup4\n        /* \"#utility.yul\":6328:6346   */\n      add\n        /* \"#utility.yul\":6319:6325   */\n      dup7\n        /* \"#utility.yul\":6275:6347   */\n      tag_349\n      jump\t// in\n    tag_466:\n        /* \"#utility.yul\":6357:6423   */\n      tag_467\n        /* \"#utility.yul\":6419:6421   */\n      0x40\n        /* \"#utility.yul\":6408:6417   */\n      dup4\n        /* \"#utility.yul\":6404:6422   */\n      add\n        /* \"#utility.yul\":6395:6401   */\n      dup6\n        /* \"#utility.yul\":6357:6423   */\n      tag_351\n      jump\t// in\n    tag_467:\n        /* \"#utility.yul\":6433:6505   */\n      tag_468\n        /* \"#utility.yul\":6501:6503   */\n      0x60\n        /* \"#utility.yul\":6490:6499   */\n      dup4\n        /* \"#utility.yul\":6486:6504   */\n      add\n        /* \"#utility.yul\":6477:6483   */\n      dup5\n        /* \"#utility.yul\":6433:6505   */\n      tag_349\n      jump\t// in\n    tag_468:\n        /* \"#utility.yul\":5971:6512   */\n      swap6\n      swap5\n      pop\n      pop\n      pop\n      pop\n      pop\n      jump\t// out\n        /* \"#utility.yul\":6518:6948   */\n    tag_130:\n        /* \"#utility.yul\":6661:6665   */\n      0x00\n        /* \"#utility.yul\":6699:6701   */\n      0x60\n        /* \"#utility.yul\":6688:6697   */\n      dup3\n        /* \"#utility.yul\":6684:6702   */\n      add\n        /* \"#utility.yul\":6676:6702   */\n      swap1\n      pop\n        /* \"#utility.yul\":6712:6783   */\n      tag_470\n        /* \"#utility.yul\":6780:6781   */\n      0x00\n        /* \"#utility.yul\":6769:6778   */\n      dup4\n        /* \"#utility.yul\":6765:6782   */\n      add\n        /* \"#utility.yul\":6756:6762   */\n      dup7\n        /* \"#utility.yul\":6712:6783   */\n      tag_349\n      jump\t// in\n    tag_470:\n        /* \"#utility.yul\":6793:6859   */\n      tag_471\n        /* \"#utility.yul\":6855:6857   */\n      0x20\n        /* \"#utility.yul\":6844:6853   */\n      dup4\n        /* \"#utility.yul\":6840:6858   */\n      add\n        /* \"#utility.yul\":6831:6837   */\n      dup6\n        /* \"#utility.yul\":6793:6859   */\n      tag_351\n      jump\t// in\n    tag_471:\n        /* \"#utility.yul\":6869:6941   */\n      tag_472\n        /* \"#utility.yul\":6937:6939   */\n      0x40\n        /* \"#utility.yul\":6926:6935   */\n      dup4\n        /* \"#utility.yul\":6922:6940   */\n      add\n        /* \"#utility.yul\":6913:6919   */\n      dup5\n        /* \"#utility.yul\":6869:6941   */\n      tag_349\n      jump\t// in\n    tag_472:\n        /* \"#utility.yul\":6518:6948   */\n      swap5\n      swap4\n      pop\n      pop\n      pop\n      pop\n      jump\t// out\n        /* \"#utility.yul\":6954:7123   */\n    tag_359:\n        /* \"#utility.yul\":7038:7049   */\n      0x00\n        /* \"#utility.yul\":7072:7078   */\n      dup3\n        /* \"#utility.yul\":7067:7070   */\n      dup3\n        /* \"#utility.yul\":7060:7079   */\n      mstore\n        /* \"#utility.yul\":7112:7116   */\n      0x20\n        /* \"#utility.yul\":7107:7110   */\n      dup3\n        /* \"#utility.yul\":7103:7117   */\n      add\n        /* \"#utility.yul\":7088:7117   */\n      swap1\n      pop\n        /* \"#utility.yul\":6954:7123   */\n      swap3\n      swap2\n      pop\n      pop\n      jump\t// out\n        /* \"#utility.yul\":7129:7290   */\n    tag_360:\n        /* \"#utility.yul\":7269:7282   */\n      0x4e6f742061206a75726f72000000000000000000000000000000000000000000\n        /* \"#utility.yul\":7265:7266   */\n      0x00\n        /* \"#utility.yul\":7257:7263   */\n      dup3\n        /* \"#utility.yul\":7253:7267   */\n      add\n        /* \"#utility.yul\":7246:7283   */\n      mstore\n        /* \"#utility.yul\":7129:7290   */\n      pop\n      jump\t// out\n        /* \"#utility.yul\":7296:7662   */\n    tag_361:\n        /* \"#utility.yul\":7438:7441   */\n      0x00\n        /* \"#utility.yul\":7459:7526   */\n      tag_476\n        /* \"#utility.yul\":7523:7525   */\n      0x0b\n        /* \"#utility.yul\":7518:7521   */\n      dup4\n        /* \"#utility.yul\":7459:7526   */\n      tag_359\n      jump\t// in\n    tag_476:\n        /* \"#utility.yul\":7452:7526   */\n      swap2\n      pop\n        /* \"#utility.yul\":7535:7628   */\n      tag_477\n        /* \"#utility.yul\":7624:7627   */\n      dup3\n        /* \"#utility.yul\":7535:7628   */\n      tag_360\n      jump\t// in\n    tag_477:\n        /* \"#utility.yul\":7653:7655   */\n      0x20\n        /* \"#utility.yul\":7648:7651   */\n      dup3\n        /* \"#utility.yul\":7644:7656   */\n      add\n        /* \"#utility.yul\":7637:7656   */\n      swap1\n      pop\n        /* \"#utility.yul\":7296:7662   */\n      swap2\n      swap1\n      pop\n      jump\t// out\n        /* \"#utility.yul\":7668:8087   */\n    tag_134:\n        /* \"#utility.yul\":7834:7838   */\n      0x00\n        /* \"#utility.yul\":7872:7874   */\n      0x20\n        /* \"#utility.yul\":7861:7870   */\n      dup3\n        /* \"#utility.yul\":7857:7875   */\n      add\n        /* \"#utility.yul\":7849:7875   */\n      swap1\n      pop\n        /* \"#utility.yul\":7921:7930   */\n      dup2\n        /* \"#utility.yul\":7915:7919   */\n      dup2\n        /* \"#utility.yul\":7911:7931   */\n      sub\n        /* \"#utility.yul\":7907:7908   */\n      0x00\n        /* \"#utility.yul\":7896:7905   */\n      dup4\n        /* \"#utility.yul\":7892:7909   */\n      add\n        /* \"#utility.yul\":7885:7932   */\n      mstore\n        /* \"#utility.yul\":7949:8080   */\n      tag_479\n        /* \"#utility.yul\":8075:8079   */\n      dup2\n        /* \"#utility.yul\":7949:8080   */\n      tag_361\n      jump\t// in\n    tag_479:\n        /* \"#utility.yul\":7941:8080   */\n      swap1\n      pop\n        /* \"#utility.yul\":7668:8087   */\n      swap2\n      swap1\n      pop\n      jump\t// out\n        /* \"#utility.yul\":8093:8273   */\n    tag_140:\n        /* \"#utility.yul\":8141:8218   */\n      0x4e487b7100000000000000000000000000000000000000000000000000000000\n        /* \"#utility.yul\":8138:8139   */\n      0x00\n        /* \"#utility.yul\":8131:8219   */\n      mstore\n        /* \"#utility.yul\":8238:8242   */\n      0x32\n        /* \"#utility.yul\":8235:8236   */\n      0x04\n        /* \"#utility.yul\":8228:8243   */\n      mstore\n        /* \"#utility.yul\":8262:8266   */\n      0x24\n        /* \"#utility.yul\":8259:8260   */\n      0x00\n        /* \"#utility.yul\":8252:8267   */\n      revert\n        /* \"#utility.yul\":8279:8447   */\n    tag_362:\n        /* \"#utility.yul\":8419:8439   */\n      0x4e6f742073656c6563746564206a75726f720000000000000000000000000000\n        /* \"#utility.yul\":8415:8416   */\n      0x00\n        /* \"#utility.yul\":8407:8413   */\n      dup3\n        /* \"#utility.yul\":8403:8417   */\n      add\n        /* \"#utility.yul\":8396:8440   */\n      mstore\n        /* \"#utility.yul\":8279:8447   */\n      pop\n      jump\t// out\n        /* \"#utility.yul\":8453:8819   */\n    tag_363:\n        /* \"#utility.yul\":8595:8598   */\n      0x00\n        /* \"#utility.yul\":8616:8683   */\n      tag_483\n        /* \"#utility.yul\":8680:8682   */\n      0x12\n        /* \"#utility.yul\":8675:8678   */\n      dup4\n        /* \"#utility.yul\":8616:8683   */\n      tag_359\n      jump\t// in\n    tag_483:\n        /* \"#utility.yul\":8609:8683   */\n      swap2\n      pop\n        /* \"#utility.yul\":8692:8785   */\n      tag_484\n        /* \"#utility.yul\":8781:8784   */\n      dup3\n        /* \"#utility.yul\":8692:8785   */\n      tag_362\n      jump\t// in\n    tag_484:\n        /* \"#utility.yul\":8810:8812   */\n      0x20\n        /* \"#utility.yul\":8805:8808   */\n      dup3\n        /* \"#utility.yul\":8801:8813   */\n      add\n        /* \"#utility.yul\":8794:8813   */\n      swap1\n      pop\n        /* \"#utility.yul\":8453:8819   */\n      swap2\n      swap1\n      pop\n      jump\t// out\n        /* \"#utility.yul\":8825:9244   */\n    tag_145:\n        /* \"#utility.yul\":8991:8995   */\n      0x00\n        /* \"#utility.yul\":9029:9031   */\n      0x20\n        /* \"#utility.yul\":9018:9027   */\n      dup3\n        /* \"#utility.yul\":9014:9032   */\n      add\n        /* \"#utility.yul\":9006:9032   */\n      swap1\n      pop\n        /* \"#utility.yul\":9078:9087   */\n      dup2\n        /* \"#utility.yul\":9072:9076   */\n      dup2\n        /* \"#utility.yul\":9068:9088   */\n      sub\n        /* \"#utility.yul\":9064:9065   */\n      0x00\n        /* \"#utility.yul\":9053:9062   */\n      dup4\n        /* \"#utility.yul\":9049:9066   */\n      add\n        /* \"#utility.yul\":9042:9089   */\n      mstore\n        /* \"#utility.yul\":9106:9237   */\n      tag_486\n        /* \"#utility.yul\":9232:9236   */\n      dup2\n        /* \"#utility.yul\":9106:9237   */\n      tag_363\n      jump\t// in\n    tag_486:\n        /* \"#utility.yul\":9098:9237   */\n      swap1\n      pop\n        /* \"#utility.yul\":8825:9244   */\n      swap2\n      swap1\n      pop\n      jump\t// out\n        /* \"#utility.yul\":9250:9413   */\n    tag_364:\n        /* \"#utility.yul\":9390:9405   */\n      0x416c726561647920766f74656400000000000000000000000000000000000000\n        /* \"#utility.yul\":9386:9387   */\n      0x00\n        /* \"#utility.yul\":9378:9384   */\n      dup3\n        /* \"#utility.yul\":9374:9388   */\n      add\n        /* \"#utility.yul\":9367:9406   */\n      mstore\n        /* \"#utility.yul\":9250:9413   */\n      pop\n      jump\t// out\n        /* \"#utility.yul\":9419:9785   */\n    tag_365:\n        /* \"#utility.yul\":9561:9564   */\n      0x00\n        /* \"#utility.yul\":9582:9649   */\n      tag_489\n        /* \"#utility.yul\":9646:9648   */\n      0x0d\n        /* \"#utility.yul\":9641:9644   */\n      dup4\n        /* \"#utility.yul\":9582:9649   */\n      tag_359\n      jump\t// in\n    tag_489:\n        /* \"#utility.yul\":9575:9649   */\n      swap2\n      pop\n        /* \"#utility.yul\":9658:9751   */\n      tag_490\n        /* \"#utility.yul\":9747:9750   */\n      dup3\n        /* \"#utility.yul\":9658:9751   */\n      tag_364\n      jump\t// in\n    tag_490:\n        /* \"#utility.yul\":9776:9778   */\n      0x20\n        /* \"#utility.yul\":9771:9774   */\n      dup3\n        /* \"#utility.yul\":9767:9779   */\n      add\n        /* \"#utility.yul\":9760:9779   */\n      swap1\n      pop\n        /* \"#utility.yul\":9419:9785   */\n      swap2\n      swap1\n      pop\n      jump\t// out\n        /* \"#utility.yul\":9791:10210   */\n    tag_148:\n        /* \"#utility.yul\":9957:9961   */\n      0x00\n        /* \"#utility.yul\":9995:9997   */\n      0x20\n        /* \"#utility.yul\":9984:9993   */\n      dup3\n        /* \"#utility.yul\":9980:9998   */\n      add\n        /* \"#utility.yul\":9972:9998   */\n      swap1\n      pop\n        /* \"#utility.yul\":10044:10053   */\n      dup2\n        /* \"#utility.yul\":10038:10042   */\n      dup2\n        /* \"#utility.yul\":10034:10054   */\n      sub\n        /* \"#utility.yul\":10030:10031   */\n      0x00\n        /* \"#utility.yul\":10019:10028   */\n      dup4\n        /* \"#utility.yul\":10015:10032   */\n      add\n        /* \"#utility.yul\":10008:10055   */\n      mstore\n        /* \"#utility.yul\":10072:10203   */\n      tag_492\n        /* \"#utility.yul\":10198:10202   */\n      dup2\n        /* \"#utility.yul\":10072:10203   */\n      tag_365\n      jump\t// in\n    tag_492:\n        /* \"#utility.yul\":10064:10203   */\n      swap1\n      pop\n        /* \"#utility.yul\":9791:10210   */\n      swap2\n      swap1\n      pop\n      jump\t// out\n        /* \"#utility.yul\":10216:10396   */\n    tag_366:\n        /* \"#utility.yul\":10264:10341   */\n      0x4e487b7100000000000000000000000000000000000000000000000000000000\n        /* \"#utility.yul\":10261:10262   */\n      0x00\n        /* \"#utility.yul\":10254:10342   */\n      mstore\n        /* \"#utility.yul\":10361:10365   */\n      0x11\n        /* \"#utility.yul\":10358:10359   */\n      0x04\n        /* \"#utility.yul\":10351:10366   */\n      mstore\n        /* \"#utility.yul\":10385:10389   */\n      0x24\n        /* \"#utility.yul\":10382:10383   */\n      0x00\n        /* \"#utility.yul\":10375:10390   */\n      revert\n        /* \"#utility.yul\":10402:10635   */\n    tag_150:\n        /* \"#utility.yul\":10441:10444   */\n      0x00\n        /* \"#utility.yul\":10464:10488   */\n      tag_495\n        /* \"#utility.yul\":10482:10487   */\n      dup3\n        /* \"#utility.yul\":10464:10488   */\n      tag_341\n      jump\t// in\n    tag_495:\n        /* \"#utility.yul\":10455:10488   */\n      swap2\n      pop\n        /* \"#utility.yul\":10510:10576   */\n      0xffffffffffffffffffffffffffffffffffffffffffffffffffffffffffffffff\n        /* \"#utility.yul\":10503:10508   */\n      dup3\n        /* \"#utility.yul\":10500:10577   */\n      sub\n        /* \"#utility.yul\":10497:10600   */\n      tag_496\n      jumpi\n        /* \"#utility.yul\":10580:10598   */\n      tag_497\n      tag_366\n      jump\t// in\n    tag_497:\n        /* \"#utility.yul\":10497:10600   */\n    tag_496:\n        /* \"#utility.yul\":10627:10628   */\n      0x01\n        /* \"#utility.yul\":10620:10625   */\n      dup3\n        /* \"#utility.yul\":10616:10629   */\n      add\n        /* \"#utility.yul\":10609:10629   */\n      swap1\n      pop\n        /* \"#utility.yul\":10402:10635   */\n      swap2\n      swap1\n      pop\n      jump\t// out\n        /* \"#utility.yul\":10641:10973   */\n    tag_162:\n        /* \"#utility.yul\":10762:10766   */\n      0x00\n        /* \"#utility.yul\":10800:10802   */\n      0x40\n        /* \"#utility.yul\":10789:10798   */\n      dup3\n        /* \"#utility.yul\":10785:10803   */\n      add\n        /* \"#utility.yul\":10777:10803   */\n      swap1\n      pop\n        /* \"#utility.yul\":10813:10884   */\n      tag_499\n        /* \"#utility.yul\":10881:10882   */\n      0x00\n        /* \"#utility.yul\":10870:10879   */\n      dup4\n        /* \"#utility.yul\":10866:10883   */\n      add\n        /* \"#utility.yul\":10857:10863   */\n      dup6\n        /* \"#utility.yul\":10813:10884   */\n      tag_349\n      jump\t// in\n    tag_499:\n        /* \"#utility.yul\":10894:10966   */\n      tag_500\n        /* \"#utility.yul\":10962:10964   */\n      0x20\n        /* \"#utility.yul\":10951:10960   */\n      dup4\n        /* \"#utility.yul\":10947:10965   */\n      add\n        /* \"#utility.yul\":10938:10944   */\n      dup5\n        /* \"#utility.yul\":10894:10966   */\n      tag_348\n      jump\t// in\n    tag_500:\n        /* \"#utility.yul\":10641:10973   */\n      swap4\n      swap3\n      pop\n      pop\n      pop\n      jump\t// out\n        /* \"#utility.yul\":10979:11077   */\n    tag_367:\n        /* \"#utility.yul\":11030:11036   */\n      0x00\n        /* \"#utility.yul\":11064:11069   */\n      dup2\n        /* \"#utility.yul\":11058:11070   */\n      mload\n        /* \"#utility.yul\":11048:11070   */\n      swap1\n      pop\n        /* \"#utility.yul\":10979:11077   */\n      swap2\n      swap1\n      pop\n      jump\t// out\n        /* \"#utility.yul\":11083:11230   */\n    tag_368:\n        /* \"#utility.yul\":11184:11195   */\n      0x00\n        /* \"#utility.yul\":11221:11224   */\n      dup2\n        /* \"#utility.yul\":11206:11224   */\n      swap1\n      pop\n        /* \"#utility.yul\":11083:11230   */\n      swap3\n      swap2\n      pop\n      pop\n      jump\t// out\n        /* \"#utility.yul\":11236:11375   */\n    tag_369:\n        /* \"#utility.yul\":11325:11331   */\n      dup3\n        /* \"#utility.yul\":11320:11323   */\n      dup2\n        /* \"#utility.yul\":11315:11318   */\n      dup4\n        /* \"#utility.yul\":11309:11332   */\n      mcopy\n        /* \"#utility.yul\":11366:11367   */\n      0x00\n        /* \"#utility.yul\":11357:11363   */\n      dup4\n        /* \"#utility.yul\":11352:11355   */\n      dup4\n        /* \"#utility.yul\":11348:11364   */\n      add\n        /* \"#utility.yul\":11341:11368   */\n      mstore\n        /* \"#utility.yul\":11236:11375   */\n      pop\n      pop\n      pop\n      jump\t// out\n        /* \"#utility.yul\":11381:11767   */\n    tag_370:\n        /* \"#utility.yul\":11485:11488   */\n      0x00\n        /* \"#utility.yul\":11513:11551   */\n      tag_505\n        /* \"#utility.yul\":11545:11550   */\n      dup3\n        /* \"#utility.yul\":11513:11551   */\n      tag_367\n      jump\t// in\n    tag_505:\n        /* \"#utility.yul\":11567:11655   */\n      tag_506\n        /* \"#utility.yul\":11648:11654   */\n      dup2\n        /* \"#utility.yul\":11643:11646   */\n      dup6\n        /* \"#utility.yul\":11567:11655   */\n      tag_368\n      jump\t// in\n    tag_506:\n        /* \"#utility.yul\":11560:11655   */\n      swap4\n      pop\n        /* \"#utility.yul\":11664:11729   */\n      tag_507\n        /* \"#utility.yul\":11722:11728   */\n      dup2\n        /* \"#utility.yul\":11717:11720   */\n      dup6\n        /* \"#utility.yul\":11710:11714   */\n      0x20\n        /* \"#utility.yul\":11703:11708   */\n      dup7\n        /* \"#utility.yul\":11699:11715   */\n      add\n        /* \"#utility.yul\":11664:11729   */\n      tag_369\n      jump\t// in\n    tag_507:\n        /* \"#utility.yul\":11754:11760   */\n      dup1\n        /* \"#utility.yul\":11749:11752   */\n      dup5\n        /* \"#utility.yul\":11745:11761   */\n      add\n        /* \"#utility.yul\":11738:11761   */\n      swap2\n      pop\n        /* \"#utility.yul\":11489:11767   */\n      pop\n        /* \"#utility.yul\":11381:11767   */\n      swap3\n      swap2\n      pop\n      pop\n      jump\t// out\n        /* \"#utility.yul\":11773:12044   */\n    tag_164:\n        /* \"#utility.yul\":11903:11906   */\n      0x00\n        /* \"#utility.yul\":11925:12018   */\n      tag_509\n        /* \"#utility.yul\":12014:12017   */\n      dup3\n        /* \"#utility.yul\":12005:12011   */\n      dup5\n        /* \"#utility.yul\":11925:12018   */\n      tag_370\n      jump\t// in\n    tag_509:\n        /* \"#utility.yul\":11918:12018   */\n      swap2\n      pop\n        /* \"#utility.yul\":12035:12038   */\n      dup2\n        /* \"#utility.yul\":12028:12038   */\n      swap1\n      pop\n        /* \"#utility.yul\":11773:12044   */\n      swap3\n      swap2\n      pop\n      pop\n      jump\t// out\n        /* \"#utility.yul\":12050:12214   */\n    tag_371:\n        /* \"#utility.yul\":12190:12206   */\n      0x5265736f6c7665206661696c6564000000000000000000000000000000000000\n        /* \"#utility.yul\":12186:12187   */\n      0x00\n        /* \"#utility.yul\":12178:12184   */\n      dup3\n        /* \"#utility.yul\":12174:12188   */\n      add\n        /* \"#utility.yul\":12167:12207   */\n      mstore\n        /* \"#utility.yul\":12050:12214   */\n      pop\n      jump\t// out\n        /* \"#utility.yul\":12220:12586   */\n    tag_372:\n        /* \"#utility.yul\":12362:12365   */\n      0x00\n        /* \"#utility.yul\":12383:12450   */\n      tag_512\n        /* \"#utility.yul\":12447:12449   */\n      0x0e\n        /* \"#utility.yul\":12442:12445   */\n      dup4\n        /* \"#utility.yul\":12383:12450   */\n      tag_359\n      jump\t// in\n    tag_512:\n        /* \"#utility.yul\":12376:12450   */\n      swap2\n      pop\n        /* \"#utility.yul\":12459:12552   */\n      tag_513\n        /* \"#utility.yul\":12548:12551   */\n      dup3\n        /* \"#utility.yul\":12459:12552   */\n      tag_371\n      jump\t// in\n    tag_513:\n        /* \"#utility.yul\":12577:12579   */\n      0x20\n        /* \"#utility.yul\":12572:12575   */\n      dup3\n        /* \"#utility.yul\":12568:12580   */\n      add\n        /* \"#utility.yul\":12561:12580   */\n      swap1\n      pop\n        /* \"#utility.yul\":12220:12586   */\n      swap2\n      swap1\n      pop\n      jump\t// out\n        /* \"#utility.yul\":12592:13011   */\n    tag_170:\n        /* \"#utility.yul\":12758:12762   */\n      0x00\n        /* \"#utility.yul\":12796:12798   */\n      0x20\n        /* \"#utility.yul\":12785:12794   */\n      dup3\n        /* \"#utility.yul\":12781:12799   */\n      add\n        /* \"#utility.yul\":12773:12799   */\n      swap1\n      pop\n        /* \"#utility.yul\":12845:12854   */\n      dup2\n        /* \"#utility.yul\":12839:12843   */\n      dup2\n        /* \"#utility.yul\":12835:12855   */\n      sub\n        /* \"#utility.yul\":12831:12832   */\n      0x00\n        /* \"#utility.yul\":12820:12829   */\n      dup4\n        /* \"#utility.yul\":12816:12833   */\n      add\n        /* \"#utility.yul\":12809:12856   */\n      mstore\n        /* \"#utility.yul\":12873:13004   */\n      tag_515\n        /* \"#utility.yul\":12999:13003   */\n      dup2\n        /* \"#utility.yul\":12873:13004   */\n      tag_372\n      jump\t// in\n    tag_515:\n        /* \"#utility.yul\":12865:13004   */\n      swap1\n      pop\n        /* \"#utility.yul\":12592:13011   */\n      swap2\n      swap1\n      pop\n      jump\t// out\n        /* \"#utility.yul\":13017:13183   */\n    tag_373:\n        /* \"#utility.yul\":13157:13175   */\n      0x4f6e6c79205461736b466163746f727900000000000000000000000000000000\n        /* \"#utility.yul\":13153:13154   */\n      0x00\n        /* \"#utility.yul\":13145:13151   */\n      dup3\n        /* \"#utility.yul\":13141:13155   */\n      add\n        /* \"#utility.yul\":13134:13176   */\n      mstore\n        /* \"#utility.yul\":13017:13183   */\n      pop\n      jump\t// out\n        /* \"#utility.yul\":13189:13555   */\n    tag_374:\n        /* \"#utility.yul\":13331:13334   */\n      0x00\n        /* \"#utility.yul\":13352:13419   */\n      tag_518\n        /* \"#utility.yul\":13416:13418   */\n      0x10\n        /* \"#utility.yul\":13411:13414   */\n      dup4\n        /* \"#utility.yul\":13352:13419   */\n      tag_359\n      jump\t// in\n    tag_518:\n        /* \"#utility.yul\":13345:13419   */\n      swap2\n      pop\n        /* \"#utility.yul\":13428:13521   */\n      tag_519\n        /* \"#utility.yul\":13517:13520   */\n      dup3\n        /* \"#utility.yul\":13428:13521   */\n      tag_373\n      jump\t// in\n    tag_519:\n        /* \"#utility.yul\":13546:13548   */\n      0x20\n        /* \"#utility.yul\":13541:13544   */\n      dup3\n        /* \"#utility.yul\":13537:13549   */\n      add\n        /* \"#utility.yul\":13530:13549   */\n      swap1\n      pop\n        /* \"#utility.yul\":13189:13555   */\n      swap2\n      swap1\n      pop\n      jump\t// out\n        /* \"#utility.yul\":13561:13980   */\n    tag_175:\n        /* \"#utility.yul\":13727:13731   */\n      0x00\n        /* \"#utility.yul\":13765:13767   */\n      0x20\n        /* \"#utility.yul\":13754:13763   */\n      dup3\n        /* \"#utility.yul\":13750:13768   */\n      add\n        /* \"#utility.yul\":13742:13768   */\n      swap1\n      pop\n        /* \"#utility.yul\":13814:13823   */\n      dup2\n        /* \"#utility.yul\":13808:13812   */\n      dup2\n        /* \"#utility.yul\":13804:13824   */\n      sub\n        /* \"#utility.yul\":13800:13801   */\n      0x00\n        /* \"#utility.yul\":13789:13798   */\n      dup4\n        /* \"#utility.yul\":13785:13802   */\n      add\n        /* \"#utility.yul\":13778:13825   */\n      mstore\n        /* \"#utility.yul\":13842:13973   */\n      tag_521\n        /* \"#utility.yul\":13968:13972   */\n      dup2\n        /* \"#utility.yul\":13842:13973   */\n      tag_374\n      jump\t// in\n    tag_521:\n        /* \"#utility.yul\":13834:13973   */\n      swap1\n      pop\n        /* \"#utility.yul\":13561:13980   */\n      swap2\n      swap1\n      pop\n      jump\t// out\n        /* \"#utility.yul\":13986:14216   */\n    tag_375:\n        /* \"#utility.yul\":14126:14160   */\n      0x44697370757465206e6f742073746172746564206f72206a75726f7220636f75\n        /* \"#utility.yul\":14122:14123   */\n      0x00\n        /* \"#utility.yul\":14114:14120   */\n      dup3\n        /* \"#utility.yul\":14110:14124   */\n      add\n        /* \"#utility.yul\":14103:14161   */\n      mstore\n        /* \"#utility.yul\":14195:14208   */\n      0x6e74206d69736d61746368000000000000000000000000000000000000000000\n        /* \"#utility.yul\":14190:14192   */\n      0x20\n        /* \"#utility.yul\":14182:14188   */\n      dup3\n        /* \"#utility.yul\":14178:14193   */\n      add\n        /* \"#utility.yul\":14171:14209   */\n      mstore\n        /* \"#utility.yul\":13986:14216   */\n      pop\n      jump\t// out\n        /* \"#utility.yul\":14222:14588   */\n    tag_376:\n        /* \"#utility.yul\":14364:14367   */\n      0x00\n        /* \"#utility.yul\":14385:14452   */\n      tag_524\n        /* \"#utility.yul\":14449:14451   */\n      0x2b\n        /* \"#utility.yul\":14444:14447   */\n      dup4\n        /* \"#utility.yul\":14385:14452   */\n      tag_359\n      jump\t// in\n    tag_524:\n        /* \"#utility.yul\":14378:14452   */\n      swap2\n      pop\n        /* \"#utility.yul\":14461:14554   */\n      tag_525\n        /* \"#utility.yul\":14550:14553   */\n      dup3\n        /* \"#utility.yul\":14461:14554   */\n      tag_375\n      jump\t// in\n    tag_525:\n        /* \"#utility.yul\":14579:14581   */\n      0x40\n        /* \"#utility.yul\":14574:14577   */\n      dup3\n        /* \"#utility.yul\":14570:14582   */\n      add\n        /* \"#utility.yul\":14563:14582   */\n      swap1\n      pop\n        /* \"#utility.yul\":14222:14588   */\n      swap2\n      swap1\n      pop\n      jump\t// out\n        /* \"#utility.yul\":14594:15013   */\n    tag_181:\n        /* \"#utility.yul\":14760:14764   */\n      0x00\n        /* \"#utility.yul\":14798:14800   */\n      0x20\n        /* \"#utility.yul\":14787:14796   */\n      dup3\n        /* \"#utility.yul\":14783:14801   */\n      add\n        /* \"#utility.yul\":14775:14801   */\n      swap1\n      pop\n        /* \"#utility.yul\":14847:14856   */\n      dup2\n        /* \"#utility.yul\":14841:14845   */\n      dup2\n        /* \"#utility.yul\":14837:14857   */\n      sub\n        /* \"#utility.yul\":14833:14834   */\n      0x00\n        /* \"#utility.yul\":14822:14831   */\n      dup4\n        /* \"#utility.yul\":14818:14835   */\n      add\n        /* \"#utility.yul\":14811:14858   */\n      mstore\n        /* \"#utility.yul\":14875:15006   */\n      tag_527\n        /* \"#utility.yul\":15001:15005   */\n      dup2\n        /* \"#utility.yul\":14875:15006   */\n      tag_376\n      jump\t// in\n    tag_527:\n        /* \"#utility.yul\":14867:15006   */\n      swap1\n      pop\n        /* \"#utility.yul\":14594:15013   */\n      swap2\n      swap1\n      pop\n      jump\t// out\n        /* \"#utility.yul\":15019:15612   */\n    tag_183:\n        /* \"#utility.yul\":15218:15222   */\n      0x00\n        /* \"#utility.yul\":15256:15258   */\n      0x60\n        /* \"#utility.yul\":15245:15254   */\n      dup3\n        /* \"#utility.yul\":15241:15259   */\n      add\n        /* \"#utility.yul\":15233:15259   */\n      swap1\n      pop\n        /* \"#utility.yul\":15269:15340   */\n      tag_529\n        /* \"#utility.yul\":15337:15338   */\n      0x00\n        /* \"#utility.yul\":15326:15335   */\n      dup4\n        /* \"#utility.yul\":15322:15339   */\n      add\n        /* \"#utility.yul\":15313:15319   */\n      dup7\n        /* \"#utility.yul\":15269:15340   */\n      tag_349\n      jump\t// in\n    tag_529:\n        /* \"#utility.yul\":15387:15396   */\n      dup2\n        /* \"#utility.yul\":15381:15385   */\n      dup2\n        /* \"#utility.yul\":15377:15397   */\n      sub\n        /* \"#utility.yul\":15372:15374   */\n      0x20\n        /* \"#utility.yul\":15361:15370   */\n      dup4\n        /* \"#utility.yul\":15357:15375   */\n      add\n        /* \"#utility.yul\":15350:15398   */\n      mstore\n        /* \"#utility.yul\":15415:15523   */\n      tag_530\n        /* \"#utility.yul\":15518:15522   */\n      dup2\n        /* \"#utility.yul\":15509:15515   */\n      dup6\n        /* \"#utility.yul\":15415:15523   */\n      tag_358\n      jump\t// in\n    tag_530:\n        /* \"#utility.yul\":15407:15523   */\n      swap1\n      pop\n        /* \"#utility.yul\":15533:15605   */\n      tag_531\n        /* \"#utility.yul\":15601:15603   */\n      0x40\n        /* \"#utility.yul\":15590:15599   */\n      dup4\n        /* \"#utility.yul\":15586:15604   */\n      add\n        /* \"#utility.yul\":15577:15583   */\n      dup5\n        /* \"#utility.yul\":15533:15605   */\n      tag_349\n      jump\t// in\n    tag_531:\n        /* \"#utility.yul\":15019:15612   */\n      swap5\n      swap4\n      pop\n      pop\n      pop\n      pop\n      jump\t// out\n        /* \"#utility.yul\":15618:15792   */\n    tag_377:\n        /* \"#utility.yul\":15758:15784   */\n      0x4d616c6963696f7573207265736f6c7665206661696c65640000000000000000\n        /* \"#utility.yul\":15754:15755   */\n      0x00\n        /* \"#utility.yul\":15746:15752   */\n      dup3\n        /* \"#utility.yul\":15742:15756   */\n      add\n        /* \"#utility.yul\":15735:15785   */\n      mstore\n        /* \"#utility.yul\":15618:15792   */\n      pop\n      jump\t// out\n        /* \"#utility.yul\":15798:16164   */\n    tag_378:\n        /* \"#utility.yul\":15940:15943   */\n      0x00\n        /* \"#utility.yul\":15961:16028   */\n      tag_534\n        /* \"#utility.yul\":16025:16027   */\n      0x18\n        /* \"#utility.yul\":16020:16023   */\n      dup4\n        /* \"#utility.yul\":15961:16028   */\n      tag_359\n      jump\t// in\n    tag_534:\n        /* \"#utility.yul\":15954:16028   */\n      swap2\n      pop\n        /* \"#utility.yul\":16037:16130   */\n      tag_535\n        /* \"#utility.yul\":16126:16129   */\n      dup3\n        /* \"#utility.yul\":16037:16130   */\n      tag_377\n      jump\t// in\n    tag_535:\n        /* \"#utility.yul\":16155:16157   */\n      0x20\n        /* \"#utility.yul\":16150:16153   */\n      dup3\n        /* \"#utility.yul\":16146:16158   */\n      add\n        /* \"#utility.yul\":16139:16158   */\n      swap1\n      pop\n        /* \"#utility.yul\":15798:16164   */\n      swap2\n      swap1\n      pop\n      jump\t// out\n        /* \"#utility.yul\":16170:16589   */\n    tag_190:\n        /* \"#utility.yul\":16336:16340   */\n      0x00\n        /* \"#utility.yul\":16374:16376   */\n      0x20\n        /* \"#utility.yul\":16363:16372   */\n      dup3\n        /* \"#utility.yul\":16359:16377   */\n      add\n        /* \"#utility.yul\":16351:16377   */\n      swap1\n      pop\n        /* \"#utility.yul\":16423:16432   */\n      dup2\n        /* \"#utility.yul\":16417:16421   */\n      dup2\n        /* \"#utility.yul\":16413:16433   */\n      sub\n        /* \"#utility.yul\":16409:16410   */\n      0x00\n        /* \"#utility.yul\":16398:16407   */\n      dup4\n        /* \"#utility.yul\":16394:16411   */\n      add\n        /* \"#utility.yul\":16387:16434   */\n      mstore\n        /* \"#utility.yul\":16451:16582   */\n      tag_537\n        /* \"#utility.yul\":16577:16581   */\n      dup2\n        /* \"#utility.yul\":16451:16582   */\n      tag_378\n      jump\t// in\n    tag_537:\n        /* \"#utility.yul\":16443:16582   */\n      swap1\n      pop\n        /* \"#utility.yul\":16170:16589   */\n      swap2\n      swap1\n      pop\n      jump\t// out\n        /* \"#utility.yul\":16595:16763   */\n    tag_379:\n        /* \"#utility.yul\":16735:16755   */\n      0x496e73756666696369656e74207374616b650000000000000000000000000000\n        /* \"#utility.yul\":16731:16732   */\n      0x00\n        /* \"#utility.yul\":16723:16729   */\n      dup3\n        /* \"#utility.yul\":16719:16733   */\n      add\n        /* \"#utility.yul\":16712:16756   */\n      mstore\n        /* \"#utility.yul\":16595:16763   */\n      pop\n      jump\t// out\n        /* \"#utility.yul\":16769:17135   */\n    tag_380:\n        /* \"#utility.yul\":16911:16914   */\n      0x00\n        /* \"#utility.yul\":16932:16999   */\n      tag_540\n        /* \"#utility.yul\":16996:16998   */\n      0x12\n        /* \"#utility.yul\":16991:16994   */\n      dup4\n        /* \"#utility.yul\":16932:16999   */\n      tag_359\n      jump\t// in\n    tag_540:\n        /* \"#utility.yul\":16925:16999   */\n      swap2\n      pop\n        /* \"#utility.yul\":17008:17101   */\n      tag_541\n        /* \"#utility.yul\":17097:17100   */\n      dup3\n        /* \"#utility.yul\":17008:17101   */\n      tag_379\n      jump\t// in\n    tag_541:\n        /* \"#utility.yul\":17126:17128   */\n      0x20\n        /* \"#utility.yul\":17121:17124   */\n      dup3\n        /* \"#utility.yul\":17117:17129   */\n      add\n        /* \"#utility.yul\":17110:17129   */\n      swap1\n      pop\n        /* \"#utility.yul\":16769:17135   */\n      swap2\n      swap1\n      pop\n      jump\t// out\n        /* \"#utility.yul\":17141:17560   */\n    tag_203:\n        /* \"#utility.yul\":17307:17311   */\n      0x00\n        /* \"#utility.yul\":17345:17347   */\n      0x20\n        /* \"#utility.yul\":17334:17343   */\n      dup3\n        /* \"#utility.yul\":17330:17348   */\n      add\n        /* \"#utility.yul\":17322:17348   */\n      swap1\n      pop\n        /* \"#utility.yul\":17394:17403   */\n      dup2\n        /* \"#utility.yul\":17388:17392   */\n      dup2\n        /* \"#utility.yul\":17384:17404   */\n      sub\n        /* \"#utility.yul\":17380:17381   */\n      0x00\n        /* \"#utility.yul\":17369:17378   */\n      dup4\n        /* \"#utility.yul\":17365:17382   */\n      add\n        /* \"#utility.yul\":17358:17405   */\n      mstore\n        /* \"#utility.yul\":17422:17553   */\n      tag_543\n        /* \"#utility.yul\":17548:17552   */\n      dup2\n        /* \"#utility.yul\":17422:17553   */\n      tag_380\n      jump\t// in\n    tag_543:\n        /* \"#utility.yul\":17414:17553   */\n      swap1\n      pop\n        /* \"#utility.yul\":17141:17560   */\n      swap2\n      swap1\n      pop\n      jump\t// out\n        /* \"#utility.yul\":17566:17729   */\n    tag_381:\n        /* \"#utility.yul\":17706:17721   */\n      0x416c7265616479206a75726f7200000000000000000000000000000000000000\n        /* \"#utility.yul\":17702:17703   */\n      0x00\n        /* \"#utility.yul\":17694:17700   */\n      dup3\n        /* \"#utility.yul\":17690:17704   */\n      add\n        /* \"#utility.yul\":17683:17722   */\n      mstore\n        /* \"#utility.yul\":17566:17729   */\n      pop\n      jump\t// out\n        /* \"#utility.yul\":17735:18101   */\n    tag_382:\n        /* \"#utility.yul\":17877:17880   */\n      0x00\n        /* \"#utility.yul\":17898:17965   */\n      tag_546\n        /* \"#utility.yul\":17962:17964   */\n      0x0d\n        /* \"#utility.yul\":17957:17960   */\n      dup4\n        /* \"#utility.yul\":17898:17965   */\n      tag_359\n      jump\t// in\n    tag_546:\n        /* \"#utility.yul\":17891:17965   */\n      swap2\n      pop\n        /* \"#utility.yul\":17974:18067   */\n      tag_547\n        /* \"#utility.yul\":18063:18066   */\n      dup3\n        /* \"#utility.yul\":17974:18067   */\n      tag_381\n      jump\t// in\n    tag_547:\n        /* \"#utility.yul\":18092:18094   */\n      0x20\n        /* \"#utility.yul\":18087:18090   */\n      dup3\n        /* \"#utility.yul\":18083:18095   */\n      add\n        /* \"#utility.yul\":18076:18095   */\n      swap1\n      pop\n        /* \"#utility.yul\":17735:18101   */\n      swap2\n      swap1\n      pop\n      jump\t// out\n        /* \"#utility.yul\":18107:18526   */\n    tag_206:\n        /* \"#utility.yul\":18273:18277   */\n      0x00\n        /* \"#utility.yul\":18311:18313   */\n      0x20\n        /* \"#utility.yul\":18300:18309   */\n      dup3\n        /* \"#utility.yul\":18296:18314   */\n      add\n        /* \"#utility.yul\":18288:18314   */\n      swap1\n      pop\n        /* \"#utility.yul\":18360:18369   */\n      dup2\n        /* \"#utility.yul\":18354:18358   */\n      dup2\n        /* \"#utility.yul\":18350:18370   */\n      sub\n        /* \"#utility.yul\":18346:18347   */\n      0x00\n        /* \"#utility.yul\":18335:18344   */\n      dup4\n        /* \"#utility.yul\":18331:18348   */\n      add\n        /* \"#utility.yul\":18324:18371   */\n      mstore\n        /* \"#utility.yul\":18388:18519   */\n      tag_549\n        /* \"#utility.yul\":18514:18518   */\n      dup2\n        /* \"#utility.yul\":18388:18519   */\n      tag_382\n      jump\t// in\n    tag_549:\n        /* \"#utility.yul\":18380:18519   */\n      swap1\n      pop\n        /* \"#utility.yul\":18107:18526   */\n      swap2\n      swap1\n      pop\n      jump\t// out\n        /* \"#utility.yul\":18532:18705   */\n    tag_383:\n        /* \"#utility.yul\":18672:18697   */\n      0x4469737075746520616c72656164792073746172746564000000000000000000\n        /* \"#utility.yul\":18668:18669   */\n      0x00\n        /* \"#utility.yul\":18660:18666   */\n      dup3\n        /* \"#utility.yul\":18656:18670   */\n      add\n        /* \"#utility.yul\":18649:18698   */\n      mstore\n        /* \"#utility.yul\":18532:18705   */\n      pop\n      jump\t// out\n        /* \"#utility.yul\":18711:19077   */\n    tag_384:\n        /* \"#utility.yul\":18853:18856   */\n      0x00\n        /* \"#utility.yul\":18874:18941   */\n      tag_552\n        /* \"#utility.yul\":18938:18940   */\n      0x17\n        /* \"#utility.yul\":18933:18936   */\n      dup4\n        /* \"#utility.yul\":18874:18941   */\n      tag_359\n      jump\t// in\n    tag_552:\n        /* \"#utility.yul\":18867:18941   */\n      swap2\n      pop\n        /* \"#utility.yul\":18950:19043   */\n      tag_553\n        /* \"#utility.yul\":19039:19042   */\n      dup3\n        /* \"#utility.yul\":18950:19043   */\n      tag_383\n      jump\t// in\n    tag_553:\n        /* \"#utility.yul\":19068:19070   */\n      0x20\n        /* \"#utility.yul\":19063:19066   */\n      dup3\n        /* \"#utility.yul\":19059:19071   */\n      add\n        /* \"#utility.yul\":19052:19071   */\n      swap1\n      pop\n        /* \"#utility.yul\":18711:19077   */\n      swap2\n      swap1\n      pop\n      jump\t// out\n        /* \"#utility.yul\":19083:19502   */\n    tag_218:\n        /* \"#utility.yul\":19249:19253   */\n      0x00\n        /* \"#utility.yul\":19287:19289   */\n      0x20\n        /* \"#utility.yul\":19276:19285   */\n      dup3\n        /* \"#utility.yul\":19272:19290   */\n      add\n        /* \"#utility.yul\":19264:19290   */\n      swap1\n      pop\n        /* \"#utility.yul\":19336:19345   */\n      dup2\n        /* \"#utility.yul\":19330:19334   */\n      dup2\n        /* \"#utility.yul\":19326:19346   */\n      sub\n        /* \"#utility.yul\":19322:19323   */\n      0x00\n        /* \"#utility.yul\":19311:19320   */\n      dup4\n        /* \"#utility.yul\":19307:19324   */\n      add\n        /* \"#utility.yul\":19300:19347   */\n      mstore\n        /* \"#utility.yul\":19364:19495   */\n      tag_555\n        /* \"#utility.yul\":19490:19494   */\n      dup2\n        /* \"#utility.yul\":19364:19495   */\n      tag_384\n      jump\t// in\n    tag_555:\n        /* \"#utility.yul\":19356:19495   */\n      swap1\n      pop\n        /* \"#utility.yul\":19083:19502   */\n      swap2\n      swap1\n      pop\n      jump\t// out\n        /* \"#utility.yul\":19508:19675   */\n    tag_385:\n        /* \"#utility.yul\":19648:19667   */\n      0x4e6f7420656e6f756768206a75726f7273000000000000000000000000000000\n        /* \"#utility.yul\":19644:19645   */\n      0x00\n        /* \"#utility.yul\":19636:19642   */\n      dup3\n        /* \"#utility.yul\":19632:19646   */\n      add\n        /* \"#utility.yul\":19625:19668   */\n      mstore\n        /* \"#utility.yul\":19508:19675   */\n      pop\n      jump\t// out\n        /* \"#utility.yul\":19681:20047   */\n    tag_386:\n        /* \"#utility.yul\":19823:19826   */\n      0x00\n        /* \"#utility.yul\":19844:19911   */\n      tag_558\n        /* \"#utility.yul\":19908:19910   */\n      0x11\n        /* \"#utility.yul\":19903:19906   */\n      dup4\n        /* \"#utility.yul\":19844:19911   */\n      tag_359\n      jump\t// in\n    tag_558:\n        /* \"#utility.yul\":19837:19911   */\n      swap2\n      pop\n        /* \"#utility.yul\":19920:20013   */\n      tag_559\n        /* \"#utility.yul\":20009:20012   */\n      dup3\n        /* \"#utility.yul\":19920:20013   */\n      tag_385\n      jump\t// in\n    tag_559:\n        /* \"#utility.yul\":20038:20040   */\n      0x20\n        /* \"#utility.yul\":20033:20036   */\n      dup3\n        /* \"#utility.yul\":20029:20041   */\n      add\n        /* \"#utility.yul\":20022:20041   */\n      swap1\n      pop\n        /* \"#utility.yul\":19681:20047   */\n      swap2\n      swap1\n      pop\n      jump\t// out\n        /* \"#utility.yul\":20053:20472   */\n    tag_221:\n        /* \"#utility.yul\":20219:20223   */\n      0x00\n        /* \"#utility.yul\":20257:20259   */\n      0x20\n        /* \"#utility.yul\":20246:20255   */\n      dup3\n        /* \"#utility.yul\":20242:20260   */\n      add\n        /* \"#utility.yul\":20234:20260   */\n      swap1\n      pop\n        /* \"#utility.yul\":20306:20315   */\n      dup2\n        /* \"#utility.yul\":20300:20304   */\n      dup2\n        /* \"#utility.yul\":20296:20316   */\n      sub\n        /* \"#utility.yul\":20292:20293   */\n      0x00\n        /* \"#utility.yul\":20281:20290   */\n      dup4\n        /* \"#utility.yul\":20277:20294   */\n      add\n        /* \"#utility.yul\":20270:20317   */\n      mstore\n        /* \"#utility.yul\":20334:20465   */\n      tag_561\n        /* \"#utility.yul\":20460:20464   */\n      dup2\n        /* \"#utility.yul\":20334:20465   */\n      tag_386\n      jump\t// in\n    tag_561:\n        /* \"#utility.yul\":20326:20465   */\n      swap1\n      pop\n        /* \"#utility.yul\":20053:20472   */\n      swap2\n      swap1\n      pop\n      jump\t// out\n        /* \"#utility.yul\":20478:20658   */\n    tag_224:\n        /* \"#utility.yul\":20526:20603   */\n      0x4e487b7100000000000000000000000000000000000000000000000000000000\n        /* \"#utility.yul\":20523:20524   */\n      0x00\n        /* \"#utility.yul\":20516:20604   */\n      mstore\n        /* \"#utility.yul\":20623:20627   */\n      0x41\n        /* \"#utility.yul\":20620:20621   */\n      0x04\n        /* \"#utility.yul\":20613:20628   */\n      mstore\n        /* \"#utility.yul\":20647:20651   */\n      0x24\n        /* \"#utility.yul\":20644:20645   */\n      0x00\n        /* \"#utility.yul\":20637:20652   */\n      revert\n        /* \"#utility.yul\":20664:20855   */\n    tag_234:\n        /* \"#utility.yul\":20704:20707   */\n      0x00\n        /* \"#utility.yul\":20723:20743   */\n      tag_564\n        /* \"#utility.yul\":20741:20742   */\n      dup3\n        /* \"#utility.yul\":20723:20743   */\n      tag_341\n      jump\t// in\n    tag_564:\n        /* \"#utility.yul\":20718:20743   */\n      swap2\n      pop\n        /* \"#utility.yul\":20757:20777   */\n      tag_565\n        /* \"#utility.yul\":20775:20776   */\n      dup4\n        /* \"#utility.yul\":20757:20777   */\n      tag_341\n      jump\t// in\n    tag_565:\n        /* \"#utility.yul\":20752:20777   */\n      swap3\n      pop\n        /* \"#utility.yul\":20800:20801   */\n      dup3\n        /* \"#utility.yul\":20797:20798   */\n      dup3\n        /* \"#utility.yul\":20793:20802   */\n      add\n        /* \"#utility.yul\":20786:20802   */\n      swap1\n      pop\n        /* \"#utility.yul\":20821:20824   */\n      dup1\n        /* \"#utility.yul\":20818:20819   */\n      dup3\n        /* \"#utility.yul\":20815:20825   */\n      gt\n        /* \"#utility.yul\":20812:20848   */\n      iszero\n      tag_566\n      jumpi\n        /* \"#utility.yul\":20828:20846   */\n      tag_567\n      tag_366\n      jump\t// in\n    tag_567:\n        /* \"#utility.yul\":20812:20848   */\n    tag_566:\n        /* \"#utility.yul\":20664:20855   */\n      swap3\n      swap2\n      pop\n      pop\n      jump\t// out\n        /* \"#utility.yul\":20861:20940   */\n    tag_387:\n        /* \"#utility.yul\":20900:20907   */\n      0x00\n        /* \"#utility.yul\":20929:20934   */\n      dup2\n        /* \"#utility.yul\":20918:20934   */\n      swap1\n      pop\n        /* \"#utility.yul\":20861:20940   */\n      swap2\n      swap1\n      pop\n      jump\t// out\n        /* \"#utility.yul\":20946:21103   */\n    tag_388:\n        /* \"#utility.yul\":21051:21096   */\n      tag_570\n        /* \"#utility.yul\":21071:21095   */\n      tag_571\n        /* \"#utility.yul\":21089:21094   */\n      dup3\n        /* \"#utility.yul\":21071:21095   */\n      tag_341\n      jump\t// in\n    tag_571:\n        /* \"#utility.yul\":21051:21096   */\n      tag_387\n      jump\t// in\n    tag_570:\n        /* \"#utility.yul\":21046:21049   */\n      dup3\n        /* \"#utility.yul\":21039:21097   */\n      mstore\n        /* \"#utility.yul\":20946:21103   */\n      pop\n      pop\n      jump\t// out\n        /* \"#utility.yul\":21109:21506   */\n    tag_243:\n        /* \"#utility.yul\":21249:21252   */\n      0x00\n        /* \"#utility.yul\":21264:21339   */\n      tag_573\n        /* \"#utility.yul\":21335:21338   */\n      dup3\n        /* \"#utility.yul\":21326:21332   */\n      dup6\n        /* \"#utility.yul\":21264:21339   */\n      tag_388\n      jump\t// in\n    tag_573:\n        /* \"#utility.yul\":21364:21366   */\n      0x20\n        /* \"#utility.yul\":21359:21362   */\n      dup3\n        /* \"#utility.yul\":21355:21367   */\n      add\n        /* \"#utility.yul\":21348:21367   */\n      swap2\n      pop\n        /* \"#utility.yul\":21377:21452   */\n      tag_574\n        /* \"#utility.yul\":21448:21451   */\n      dup3\n        /* \"#utility.yul\":21439:21445   */\n      dup5\n        /* \"#utility.yul\":21377:21452   */\n      tag_388\n      jump\t// in\n    tag_574:\n        /* \"#utility.yul\":21477:21479   */\n      0x20\n        /* \"#utility.yul\":21472:21475   */\n      dup3\n        /* \"#utility.yul\":21468:21480   */\n      add\n        /* \"#utility.yul\":21461:21480   */\n      swap2\n      pop\n        /* \"#utility.yul\":21497:21500   */\n      dup2\n        /* \"#utility.yul\":21490:21500   */\n      swap1\n      pop\n        /* \"#utility.yul\":21109:21506   */\n      swap4\n      swap3\n      pop\n      pop\n      pop\n      jump\t// out\n        /* \"#utility.yul\":21512:21922   */\n    tag_248:\n        /* \"#utility.yul\":21552:21559   */\n      0x00\n        /* \"#utility.yul\":21575:21595   */\n      tag_576\n        /* \"#utility.yul\":21593:21594   */\n      dup3\n        /* \"#utility.yul\":21575:21595   */\n      tag_341\n      jump\t// in\n    tag_576:\n        /* \"#utility.yul\":21570:21595   */\n      swap2\n      pop\n        /* \"#utility.yul\":21609:21629   */\n      tag_577\n        /* \"#utility.yul\":21627:21628   */\n      dup4\n        /* \"#utility.yul\":21609:21629   */\n      tag_341\n      jump\t// in\n    tag_577:\n        /* \"#utility.yul\":21604:21629   */\n      swap3\n      pop\n        /* \"#utility.yul\":21664:21665   */\n      dup3\n        /* \"#utility.yul\":21661:21662   */\n      dup3\n        /* \"#utility.yul\":21657:21666   */\n      mul\n        /* \"#utility.yul\":21686:21716   */\n      tag_578\n        /* \"#utility.yul\":21704:21715   */\n      dup2\n        /* \"#utility.yul\":21686:21716   */\n      tag_341\n      jump\t// in\n    tag_578:\n        /* \"#utility.yul\":21675:21716   */\n      swap2\n      pop\n        /* \"#utility.yul\":21865:21866   */\n      dup3\n        /* \"#utility.yul\":21856:21863   */\n      dup3\n        /* \"#utility.yul\":21852:21867   */\n      div\n        /* \"#utility.yul\":21849:21850   */\n      dup5\n        /* \"#utility.yul\":21846:21868   */\n      eq\n        /* \"#utility.yul\":21826:21827   */\n      dup4\n        /* \"#utility.yul\":21819:21828   */\n      iszero\n        /* \"#utility.yul\":21799:21882   */\n      or\n        /* \"#utility.yul\":21776:21915   */\n      tag_579\n      jumpi\n        /* \"#utility.yul\":21895:21913   */\n      tag_580\n      tag_366\n      jump\t// in\n    tag_580:\n        /* \"#utility.yul\":21776:21915   */\n    tag_579:\n        /* \"#utility.yul\":21560:21922   */\n      pop\n        /* \"#utility.yul\":21512:21922   */\n      swap3\n      swap2\n      pop\n      pop\n      jump\t// out\n        /* \"#utility.yul\":21928:22108   */\n    tag_389:\n        /* \"#utility.yul\":21976:22053   */\n      0x4e487b7100000000000000000000000000000000000000000000000000000000\n        /* \"#utility.yul\":21973:21974   */\n      0x00\n        /* \"#utility.yul\":21966:22054   */\n      mstore\n        /* \"#utility.yul\":22073:22077   */\n      0x12\n        /* \"#utility.yul\":22070:22071   */\n      0x04\n        /* \"#utility.yul\":22063:22078   */\n      mstore\n        /* \"#utility.yul\":22097:22101   */\n      0x24\n        /* \"#utility.yul\":22094:22095   */\n      0x00\n        /* \"#utility.yul\":22087:22102   */\n      revert\n        /* \"#utility.yul\":22114:22290   */\n    tag_251:\n        /* \"#utility.yul\":22146:22147   */\n      0x00\n        /* \"#utility.yul\":22163:22183   */\n      tag_583\n        /* \"#utility.yul\":22181:22182   */\n      dup3\n        /* \"#utility.yul\":22163:22183   */\n      tag_341\n      jump\t// in\n    tag_583:\n        /* \"#utility.yul\":22158:22183   */\n      swap2\n      pop\n        /* \"#utility.yul\":22197:22217   */\n      tag_584\n        /* \"#utility.yul\":22215:22216   */\n      dup4\n        /* \"#utility.yul\":22197:22217   */\n      tag_341\n      jump\t// in\n    tag_584:\n        /* \"#utility.yul\":22192:22217   */\n      swap3\n      pop\n        /* \"#utility.yul\":22236:22237   */\n      dup3\n        /* \"#utility.yul\":22226:22261   */\n      tag_585\n      jumpi\n        /* \"#utility.yul\":22241:22259   */\n      tag_586\n      tag_389\n      jump\t// in\n    tag_586:\n        /* \"#utility.yul\":22226:22261   */\n    tag_585:\n        /* \"#utility.yul\":22282:22283   */\n      dup3\n        /* \"#utility.yul\":22279:22280   */\n      dup3\n        /* \"#utility.yul\":22275:22284   */\n      mod\n        /* \"#utility.yul\":22270:22284   */\n      swap1\n      pop\n        /* \"#utility.yul\":22114:22290   */\n      swap3\n      swap2\n      pop\n      pop\n      jump\t// out\n        /* \"#utility.yul\":22296:22470   */\n    tag_390:\n        /* \"#utility.yul\":22436:22462   */\n      0x4e6f7420656e6f75676820756e69717565206a75726f72730000000000000000\n        /* \"#utility.yul\":22432:22433   */\n      0x00\n        /* \"#utility.yul\":22424:22430   */\n      dup3\n        /* \"#utility.yul\":22420:22434   */\n      add\n        /* \"#utility.yul\":22413:22463   */\n      mstore\n        /* \"#utility.yul\":22296:22470   */\n      pop\n      jump\t// out\n        /* \"#utility.yul\":22476:22842   */\n    tag_391:\n        /* \"#utility.yul\":22618:22621   */\n      0x00\n        /* \"#utility.yul\":22639:22706   */\n      tag_589\n        /* \"#utility.yul\":22703:22705   */\n      0x18\n        /* \"#utility.yul\":22698:22701   */\n      dup4\n        /* \"#utility.yul\":22639:22706   */\n      tag_359\n      jump\t// in\n    tag_589:\n        /* \"#utility.yul\":22632:22706   */\n      swap2\n      pop\n        /* \"#utility.yul\":22715:22808   */\n      tag_590\n        /* \"#utility.yul\":22804:22807   */\n      dup3\n        /* \"#utility.yul\":22715:22808   */\n      tag_390\n      jump\t// in\n    tag_590:\n        /* \"#utility.yul\":22833:22835   */\n      0x20\n        /* \"#utility.yul\":22828:22831   */\n      dup3\n        /* \"#utility.yul\":22824:22836   */\n      add\n        /* \"#utility.yul\":22817:22836   */\n      swap1\n      pop\n        /* \"#utility.yul\":22476:22842   */\n      swap2\n      swap1\n      pop\n      jump\t// out\n        /* \"#utility.yul\":22848:23267   */\n    tag_287:\n        /* \"#utility.yul\":23014:23018   */\n      0x00\n        /* \"#utility.yul\":23052:23054   */\n      0x20\n        /* \"#utility.yul\":23041:23050   */\n      dup3\n        /* \"#utility.yul\":23037:23055   */\n      add\n        /* \"#utility.yul\":23029:23055   */\n      swap1\n      pop\n        /* \"#utility.yul\":23101:23110   */\n      dup2\n        /* \"#utility.yul\":23095:23099   */\n      dup2\n        /* \"#utility.yul\":23091:23111   */\n      sub\n        /* \"#utility.yul\":23087:23088   */\n      0x00\n        /* \"#utility.yul\":23076:23085   */\n      dup4\n        /* \"#utility.yul\":23072:23089   */\n      add\n        /* \"#utility.yul\":23065:23112   */\n      mstore\n        /* \"#utility.yul\":23129:23260   */\n      tag_592\n        /* \"#utility.yul\":23255:23259   */\n      dup2\n        /* \"#utility.yul\":23129:23260   */\n      tag_391\n      jump\t// in\n    tag_592:\n        /* \"#utility.yul\":23121:23260   */\n      swap1\n      pop\n        /* \"#utility.yul\":22848:23267   */\n      swap2\n      swap1\n      pop\n      jump\t// out\n        /* \"#utility.yul\":23273:23442   */\n    tag_392:\n        /* \"#utility.yul\":23413:23434   */\n      0x466163746f727920616c72656164792073657400000000000000000000000000\n        /* \"#utility.yul\":23409:23410   */\n      0x00\n        /* \"#utility.yul\":23401:23407   */\n      dup3\n        /* \"#utility.yul\":23397:23411   */\n      add\n        /* \"#utility.yul\":23390:23435   */\n      mstore\n        /* \"#utility.yul\":23273:23442   */\n      pop\n      jump\t// out\n        /* \"#utility.yul\":23448:23814   */\n    tag_393:\n        /* \"#utility.yul\":23590:23593   */\n      0x00\n        /* \"#utility.yul\":23611:23678   */\n      tag_595\n        /* \"#utility.yul\":23675:23677   */\n      0x13\n        /* \"#utility.yul\":23670:23673   */\n      dup4\n        /* \"#utility.yul\":23611:23678   */\n      tag_359\n      jump\t// in\n    tag_595:\n        /* \"#utility.yul\":23604:23678   */\n      swap2\n      pop\n        /* \"#utility.yul\":23687:23780   */\n      tag_596\n        /* \"#utility.yul\":23776:23779   */\n      dup3\n        /* \"#utility.yul\":23687:23780   */\n      tag_392\n      jump\t// in\n    tag_596:\n        /* \"#utility.yul\":23805:23807   */\n      0x20\n        /* \"#utility.yul\":23800:23803   */\n      dup3\n        /* \"#utility.yul\":23796:23808   */\n      add\n        /* \"#utility.yul\":23789:23808   */\n      swap1\n      pop\n        /* \"#utility.yul\":23448:23814   */\n      swap2\n      swap1\n      pop\n      jump\t// out\n        /* \"#utility.yul\":23820:24239   */\n    tag_299:\n        /* \"#utility.yul\":23986:23990   */\n      0x00\n        /* \"#utility.yul\":24024:24026   */\n      0x20\n        /* \"#utility.yul\":24013:24022   */\n      dup3\n        /* \"#utility.yul\":24009:24027   */\n      add\n        /* \"#utility.yul\":24001:24027   */\n      swap1\n      pop\n        /* \"#utility.yul\":24073:24082   */\n      dup2\n        /* \"#utility.yul\":24067:24071   */\n      dup2\n        /* \"#utility.yul\":24063:24083   */\n      sub\n        /* \"#utility.yul\":24059:24060   */\n      0x00\n        /* \"#utility.yul\":24048:24057   */\n      dup4\n        /* \"#utility.yul\":24044:24061   */\n      add\n        /* \"#utility.yul\":24037:24084   */\n      mstore\n        /* \"#utility.yul\":24101:24232   */\n      tag_598\n        /* \"#utility.yul\":24227:24231   */\n      dup2\n        /* \"#utility.yul\":24101:24232   */\n      tag_393\n      jump\t// in\n    tag_598:\n        /* \"#utility.yul\":24093:24232   */\n      swap1\n      pop\n        /* \"#utility.yul\":23820:24239   */\n      swap2\n      swap1\n      pop\n      jump\t// out\n        /* \"#utility.yul\":24245:24410   */\n    tag_394:\n        /* \"#utility.yul\":24385:24402   */\n      0x496e76616c696420616464726573730000000000000000000000000000000000\n        /* \"#utility.yul\":24381:24382   */\n      0x00\n        /* \"#utility.yul\":24373:24379   */\n      dup3\n        /* \"#utility.yul\":24369:24383   */\n      add\n        /* \"#utility.yul\":24362:24403   */\n      mstore\n        /* \"#utility.yul\":24245:24410   */\n      pop\n      jump\t// out\n        /* \"#utility.yul\":24416:24782   */\n    tag_395:\n        /* \"#utility.yul\":24558:24561   */\n      0x00\n        /* \"#utility.yul\":24579:24646   */\n      tag_601\n        /* \"#utility.yul\":24643:24645   */\n      0x0f\n        /* \"#utility.yul\":24638:24641   */\n      dup4\n        /* \"#utility.yul\":24579:24646   */\n      tag_359\n      jump\t// in\n    tag_601:\n        /* \"#utility.yul\":24572:24646   */\n      swap2\n      pop\n        /* \"#utility.yul\":24655:24748   */\n      tag_602\n        /* \"#utility.yul\":24744:24747   */\n      dup3\n        /* \"#utility.yul\":24655:24748   */\n      tag_394\n      jump\t// in\n    tag_602:\n        /* \"#utility.yul\":24773:24775   */\n      0x20\n        /* \"#utility.yul\":24768:24771   */\n      dup3\n        /* \"#utility.yul\":24764:24776   */\n      add\n        /* \"#utility.yul\":24757:24776   */\n      swap1\n      pop\n        /* \"#utility.yul\":24416:24782   */\n      swap2\n      swap1\n      pop\n      jump\t// out\n        /* \"#utility.yul\":24788:25207   */\n    tag_302:\n        /* \"#utility.yul\":24954:24958   */\n      0x00\n        /* \"#utility.yul\":24992:24994   */\n      0x20\n        /* \"#utility.yul\":24981:24990   */\n      dup3\n        /* \"#utility.yul\":24977:24995   */\n      add\n        /* \"#utility.yul\":24969:24995   */\n      swap1\n      pop\n        /* \"#utility.yul\":25041:25050   */\n      dup2\n        /* \"#utility.yul\":25035:25039   */\n      dup2\n        /* \"#utility.yul\":25031:25051   */\n      sub\n        /* \"#utility.yul\":25027:25028   */\n      0x00\n        /* \"#utility.yul\":25016:25025   */\n      dup4\n        /* \"#utility.yul\":25012:25029   */\n      add\n        /* \"#utility.yul\":25005:25052   */\n      mstore\n        /* \"#utility.yul\":25069:25200   */\n      tag_604\n        /* \"#utility.yul\":25195:25199   */\n      dup2\n        /* \"#utility.yul\":25069:25200   */\n      tag_395\n      jump\t// in\n    tag_604:\n        /* \"#utility.yul\":25061:25200   */\n      swap1\n      pop\n        /* \"#utility.yul\":24788:25207   */\n      swap2\n      swap1\n      pop\n      jump\t// out\n\n    auxdata: 0xa26469706673582212207e3b9b540f46efdab7027f8ca3e5824990274924443cf9410bd52140c82d4cc764736f6c634300081e0033\n}\n",
				"bytecode": {
					"linkReferences": {},
					"object": "608060405267016345785d8a0000600255600380555f600460146101000a81548160ff021916908315150217905550600360055534801561003e575f5ffd5b50604051612f03380380612f0383398181016040528101906100609190610153565b8060045f6101000a81548173ffffffffffffffffffffffffffffffffffffffff021916908373ffffffffffffffffffffffffffffffffffffffff1602179055505f73ffffffffffffffffffffffffffffffffffffffff168173ffffffffffffffffffffffffffffffffffffffff16146100ef576001600460146101000a81548160ff0219169083151502179055505b5061017e565b5f5ffd5b5f73ffffffffffffffffffffffffffffffffffffffff82169050919050565b5f610122826100f9565b9050919050565b61013281610118565b811461013c575f5ffd5b50565b5f8151905061014d81610129565b92915050565b5f60208284031215610168576101676100f5565b5b5f6101758482850161013f565b91505092915050565b612d788061018b5f395ff3fe608060405260043610610134575f3560e01c80635bb47808116100aa578063c9bc0c111161006e578063c9bc0c1114610408578063d23254b414610432578063d369506c1461046e578063dca5f6b014610498578063e21875e2146104d7578063eff2c3ec1461050157610134565b80635bb47808146103145780635da930701461033c5780636058e685146103665780638e230e6f14610390578063afa9c5b0146103cc57610134565b80633a4b66f1116100fc5780633a4b66f114610204578063438596321461020e57806347e2a6e61461024a5780634b54a379146102865780634dc35f7a146102ae5780634fc8a20d146102d857610134565b806302d947ef146101385780630fa17000146101605780632249c562146101885780632def6620146101c4578063375b3c0a146101da575b5f5ffd5b348015610143575f5ffd5b5061015e60048036038101906101599190612203565b61053f565b005b34801561016b575f5ffd5b5061018660048036038101906101819190612241565b610c24565b005b348015610193575f5ffd5b506101ae60048036038101906101a9919061226c565b610f2c565b6040516101bb91906122b9565b60405180910390f35b3480156101cf575f5ffd5b506101d8610f74565b005b3480156101e5575f5ffd5b506101ee6110c5565b6040516101fb91906122e1565b60405180910390f35b61020c6110cb565b005b348015610219575f5ffd5b50610234600480360381019061022f9190612203565b61133c565b6040516102419190612314565b60405180910390f35b348015610255575f5ffd5b50610270600480360381019061026b9190612241565b611366565b60405161027d91906123e4565b60405180910390f35b348015610291575f5ffd5b506102ac60048036038101906102a79190612241565b611402565b005b3480156102b9575f5ffd5b506102c2611b9b565b6040516102cf91906122e1565b60405180910390f35b3480156102e3575f5ffd5b506102fe60048036038101906102f99190612241565b611ba1565b60405161030b91906122e1565b60405180910390f35b34801561031f575f5ffd5b5061033a60048036038101906103359190612404565b611bb6565b005b348015610347575f5ffd5b50610350611cd2565b60405161035d91906122e1565b60405180910390f35b348015610371575f5ffd5b5061037a611cdd565b60405161038791906123e4565b60405180910390f35b34801561039b575f5ffd5b506103b660048036038101906103b19190612241565b611f39565b6040516103c391906122b9565b60405180910390f35b3480156103d7575f5ffd5b506103f260048036038101906103ed9190612203565b611f74565b6040516103ff91906122e1565b60405180910390f35b348015610413575f5ffd5b5061041c611f94565b60405161042991906122b9565b60405180910390f35b34801561043d575f5ffd5b5061045860048036038101906104539190612203565b611fb9565b60405161046591906122b9565b60405180910390f35b348015610479575f5ffd5b50610482611ff6565b60405161048f91906122e1565b60405180910390f35b3480156104a3575f5ffd5b506104be60048036038101906104b99190612404565b611ffc565b6040516104ce949392919061242f565b60405180910390f35b3480156104e2575f5ffd5b506104eb612052565b6040516104f89190612314565b60405180910390f35b34801561050c575f5ffd5b5061052760048036038101906105229190612404565b612065565b60405161053693929190612472565b60405180910390f35b5f5f3373ffffffffffffffffffffffffffffffffffffffff1673ffffffffffffffffffffffffffffffffffffffff1681526020019081526020015f206002015f9054906101000a900460ff166105ca576040517f08c379a00000000000000000000000000000000000000000000000000000000081526004016105c190612501565b60405180910390fd5b5f5f90505f5f90505b60065f8581526020019081526020015f2080549050811015610682573373ffffffffffffffffffffffffffffffffffffffff1660065f8681526020019081526020015f2082815481106106295761062861251f565b5b905f5260205f20015f9054906101000a900473ffffffffffffffffffffffffffffffffffffffff1673ffffffffffffffffffffffffffffffffffffffff16036106755760019150610682565b80806001019150506105d3565b50806106c3576040517f08c379a00000000000000000000000000000000000000000000000000000000081526004016106ba90612596565b60405180910390fd5b60075f8481526020019081526020015f205f3373ffffffffffffffffffffffffffffffffffffffff1673ffffffffffffffffffffffffffffffffffffffff1681526020019081526020015f205f9054906101000a900460ff161561075c576040517f08c379a0000000000000000000000000000000000000000000000000000000008152600401610753906125fe565b60405180910390fd5b600160075f8581526020019081526020015f205f3373ffffffffffffffffffffffffffffffffffffffff1673ffffffffffffffffffffffffffffffffffffffff1681526020019081526020015f205f6101000a81548160ff0219169083151502179055508160085f8581526020019081526020015f205f3373ffffffffffffffffffffffffffffffffffffffff1673ffffffffffffffffffffffffffffffffffffffff1681526020019081526020015f205f6101000a81548173ffffffffffffffffffffffffffffffffffffffff021916908373ffffffffffffffffffffffffffffffffffffffff160217905550600a5f8481526020019081526020015f205f8373ffffffffffffffffffffffffffffffffffffffff1673ffffffffffffffffffffffffffffffffffffffff1681526020019081526020015f205f8154809291906108a690612649565b919050555060095f8481526020019081526020015f205f8154809291906108cc90612649565b91905055503373ffffffffffffffffffffffffffffffffffffffff16837ff6c8f1f54b2f54fb963820203fdef5b9aefb56ae2c4dd8b6133e151791a07f368460405161091891906122b9565b60405180910390a360035460095f8581526020019081526020015f205403610c1f575f8290505f5f90505f5f90505b60065f8781526020019081526020015f2080549050811015610a8a575f60085f8881526020019081526020015f205f60065f8a81526020019081526020015f2084815481106109995761099861251f565b5b905f5260205f20015f9054906101000a900473ffffffffffffffffffffffffffffffffffffffff1673ffffffffffffffffffffffffffffffffffffffff1673ffffffffffffffffffffffffffffffffffffffff1681526020019081526020015f205f9054906101000a900473ffffffffffffffffffffffffffffffffffffffff1690505f600a5f8981526020019081526020015f205f8373ffffffffffffffffffffffffffffffffffffffff1673ffffffffffffffffffffffffffffffffffffffff1681526020019081526020015f2054905083811115610a7b578093508194505b50508080600101915050610947565b505f60045f9054906101000a900473ffffffffffffffffffffffffffffffffffffffff1673ffffffffffffffffffffffffffffffffffffffff168684604051602401610ad7929190612690565b6040516020818303038152906040527f0e33599d000000000000000000000000000000000000000000000000000000007bffffffffffffffffffffffffffffffffffffffffffffffffffffffff19166020820180517bffffffffffffffffffffffffffffffffffffffffffffffffffffffff8381831617835250505050604051610b619190612709565b5f604051808303815f865af19150503d805f8114610b9a576040519150601f19603f3d011682016040523d82523d5f602084013e610b9f565b606091505b5050905080610be3576040517f08c379a0000000000000000000000000000000000000000000000000000000008152600401610bda90612769565b60405180910390fd5b857ff77ceb5e091d2da041bc760667f9d5fe7a756949eaf29250ad0e60ca6f4c27d984604051610c1391906122b9565b60405180910390a25050505b505050565b60045f9054906101000a900473ffffffffffffffffffffffffffffffffffffffff1673ffffffffffffffffffffffffffffffffffffffff163373ffffffffffffffffffffffffffffffffffffffff1614610cb3576040517f08c379a0000000000000000000000000000000000000000000000000000000008152600401610caa906127d1565b60405180910390fd5b5f60065f8381526020019081526020015f20805480602002602001604051908101604052809291908181526020018280548015610d4257602002820191905f5260205f20905b815f9054906101000a900473ffffffffffffffffffffffffffffffffffffffff1673ffffffffffffffffffffffffffffffffffffffff1681526020019060010190808311610cf9575b50505050509050600354815114610d8e576040517f08c379a0000000000000000000000000000000000000000000000000000000008152600401610d859061285f565b60405180910390fd5b5f60045f9054906101000a900473ffffffffffffffffffffffffffffffffffffffff1673ffffffffffffffffffffffffffffffffffffffff168383660aa87bee538000604051602401610de39392919061287d565b6040516020818303038152906040527f4ced8c88000000000000000000000000000000000000000000000000000000007bffffffffffffffffffffffffffffffffffffffffffffffffffffffff19166020820180517bffffffffffffffffffffffffffffffffffffffffffffffffffffffff8381831617835250505050604051610e6d9190612709565b5f604051808303815f865af19150503d805f8114610ea6576040519150601f19603f3d011682016040523d82523d5f602084013e610eab565b606091505b5050905080610eef576040517f08c379a0000000000000000000000000000000000000000000000000000000008152600401610ee690612903565b60405180910390fd5b827f45be258c7ac307c57ff3ebde0a70f122ca9e4f76a87a9d25991297ba2752456283604051610f1f91906123e4565b60405180910390a2505050565b6006602052815f5260405f208181548110610f45575f80fd5b905f5260205f20015f915091509054906101000a900473ffffffffffffffffffffffffffffffffffffffff1681565b5f5f5f3373ffffffffffffffffffffffffffffffffffffffff1673ffffffffffffffffffffffffffffffffffffffff1681526020019081526020015f209050806002015f9054906101000a900460ff16611003576040517f08c379a0000000000000000000000000000000000000000000000000000000008152600401610ffa90612501565b60405180910390fd5b5f816001015490505f826002015f6101000a81548160ff0219169083151502179055505f82600101819055503373ffffffffffffffffffffffffffffffffffffffff166108fc8290811502906040515f60405180830381858888f19350505050158015611072573d5f5f3e3d5ffd5b503373ffffffffffffffffffffffffffffffffffffffff167f610a1d949cc1ca7d4391b2530deda84f33b5f02dbd462643f21cd8a1b3cd573f826040516110b991906122e1565b60405180910390a25050565b60025481565b600254341015611110576040517f08c379a00000000000000000000000000000000000000000000000000000000081526004016111079061296b565b60405180910390fd5b5f5f3373ffffffffffffffffffffffffffffffffffffffff1673ffffffffffffffffffffffffffffffffffffffff1681526020019081526020015f206002015f9054906101000a900460ff161561119c576040517f08c379a0000000000000000000000000000000000000000000000000000000008152600401611193906129d3565b60405180910390fd5b60405180608001604052803373ffffffffffffffffffffffffffffffffffffffff1681526020013481526020016001151581526020015f8152505f5f3373ffffffffffffffffffffffffffffffffffffffff1673ffffffffffffffffffffffffffffffffffffffff1681526020019081526020015f205f820151815f015f6101000a81548173ffffffffffffffffffffffffffffffffffffffff021916908373ffffffffffffffffffffffffffffffffffffffff160217905550602082015181600101556040820151816002015f6101000a81548160ff02191690831515021790555060608201518160030155905050600133908060018154018082558091505060019003905f5260205f20015f9091909190916101000a81548173ffffffffffffffffffffffffffffffffffffffff021916908373ffffffffffffffffffffffffffffffffffffffff1602179055503373ffffffffffffffffffffffffffffffffffffffff167fc9626d754b3720da351a26831dc4d1481cb9f2dd7ec9ba5356f710bcf4354b593460405161133291906122e1565b60405180910390a2565b6007602052815f5260405f20602052805f5260405f205f915091509054906101000a900460ff1681565b606060065f8381526020019081526020015f208054806020026020016040519081016040528092919081815260200182805480156113f657602002820191905f5260205f20905b815f9054906101000a900473ffffffffffffffffffffffffffffffffffffffff1673ffffffffffffffffffffffffffffffffffffffff16815260200190600101908083116113ad575b50505050509050919050565b60045f9054906101000a900473ffffffffffffffffffffffffffffffffffffffff1673ffffffffffffffffffffffffffffffffffffffff163373ffffffffffffffffffffffffffffffffffffffff1614611491576040517f08c379a0000000000000000000000000000000000000000000000000000000008152600401611488906127d1565b60405180910390fd5b5f60065f8381526020019081526020015f2080549050146114e7576040517f08c379a00000000000000000000000000000000000000000000000000000000081526004016114de90612a3b565b60405180910390fd5b6003546001805490501015611531576040517f08c379a000000000000000000000000000000000000000000000000000000000815260040161152890612aa3565b60405180910390fd5b5f60018054905067ffffffffffffffff81111561155157611550612ac1565b5b60405190808252806020026020018201604052801561157f5781602001602082028036833780820191505090505b5090505f5f90505f5f90505b6001805490508110156116e8575f600182815481106115ad576115ac61251f565b5b905f5260205f20015f9054906101000a900473ffffffffffffffffffffffffffffffffffffffff1690505f5f8273ffffffffffffffffffffffffffffffffffffffff1673ffffffffffffffffffffffffffffffffffffffff1681526020019081526020015f206002015f9054906101000a900460ff16801561167a57506005545f5f8373ffffffffffffffffffffffffffffffffffffffff1673ffffffffffffffffffffffffffffffffffffffff1681526020019081526020015f20600301546116779190612aee565b85115b156116da578084848061168c90612649565b95508151811061169f5761169e61251f565b5b602002602001019073ffffffffffffffffffffffffffffffffffffffff16908173ffffffffffffffffffffffffffffffffffffffff16815250505b50808060010191505061158b565b505f60035467ffffffffffffffff81111561170657611705612ac1565b5b6040519080825280602002602001820160405280156117345781602001602082028036833780820191505090505b5090505f5f90505f428660405160200161174f929190612b41565b604051602081830303815290604052805190602001205f1c90505f5f90505b6003548310801561178a57506002856117879190612b6c565b81105b156118ce575f868684846040516020016117a5929190612b41565b604051602081830303815290604052805190602001205f1c6117c79190612bda565b815181106117d8576117d761251f565b5b602002602001015190505f5f90505f5f90505b85811015611856578273ffffffffffffffffffffffffffffffffffffffff1687828151811061181d5761181c61251f565b5b602002602001015173ffffffffffffffffffffffffffffffffffffffff16036118495760019150611856565b80806001019150506117eb565b50806118b957818686815181106118705761186f61251f565b5b602002602001019073ffffffffffffffffffffffffffffffffffffffff16908173ffffffffffffffffffffffffffffffffffffffff168152505084806118b590612649565b9550505b82806118c490612649565b935050505061176e565b600354831015611a76575f5f90505b600180549050811080156118f2575060035484105b15611a74575f6001828154811061190c5761190b61251f565b5b905f5260205f20015f9054906101000a900473ffffffffffffffffffffffffffffffffffffffff1690505f5f8273ffffffffffffffffffffffffffffffffffffffff1673ffffffffffffffffffffffffffffffffffffffff1681526020019081526020015f206002015f9054906101000a900460ff1615611a60575f5f90505f5f90505b868110156119fb578273ffffffffffffffffffffffffffffffffffffffff168882815181106119c2576119c161251f565b5b602002602001015173ffffffffffffffffffffffffffffffffffffffff16036119ee57600191506119fb565b8080600101915050611990565b5080611a5e5781878781518110611a1557611a1461251f565b5b602002602001019073ffffffffffffffffffffffffffffffffffffffff16908173ffffffffffffffffffffffffffffffffffffffff16815250508580611a5a90612649565b9650505b505b508080611a6c90612649565b9150506118dd565b505b6003548314611aba576040517f08c379a0000000000000000000000000000000000000000000000000000000008152600401611ab190612c54565b60405180910390fd5b8360065f8981526020019081526020015f209080519060200190611adf9291906120d0565b505f5f90505b8451811015611b5957875f5f878481518110611b0457611b0361251f565b5b602002602001015173ffffffffffffffffffffffffffffffffffffffff1673ffffffffffffffffffffffffffffffffffffffff1681526020019081526020015f20600301819055508080600101915050611ae5565b50867f5623bb8130ac6988ab91c966d08c23b84de074a147bb0a3677a9e322b0a5145b85604051611b8a91906123e4565b60405180910390a250505050505050565b60055481565b6009602052805f5260405f205f915090505481565b600460149054906101000a900460ff1615611c06576040517f08c379a0000000000000000000000000000000000000000000000000000000008152600401611bfd90612cbc565b60405180910390fd5b5f73ffffffffffffffffffffffffffffffffffffffff168173ffffffffffffffffffffffffffffffffffffffff1603611c74576040517f08c379a0000000000000000000000000000000000000000000000000000000008152600401611c6b90612d24565b60405180910390fd5b8060045f6101000a81548173ffffffffffffffffffffffffffffffffffffffff021916908373ffffffffffffffffffffffffffffffffffffffff1602179055506001600460146101000a81548160ff02191690831515021790555050565b660aa87bee53800081565b60605f5f90505f5f90505b600180549050811015611d9d575f5f60018381548110611d0b57611d0a61251f565b5b905f5260205f20015f9054906101000a900473ffffffffffffffffffffffffffffffffffffffff1673ffffffffffffffffffffffffffffffffffffffff1673ffffffffffffffffffffffffffffffffffffffff1681526020019081526020015f206002015f9054906101000a900460ff1615611d90578180611d8c90612649565b9250505b8080600101915050611ce8565b505f8167ffffffffffffffff811115611db957611db8612ac1565b5b604051908082528060200260200182016040528015611de75781602001602082028036833780820191505090505b5090505f5f90505f5f90505b600180549050811015611f2f575f5f60018381548110611e1657611e1561251f565b5b905f5260205f20015f9054906101000a900473ffffffffffffffffffffffffffffffffffffffff1673ffffffffffffffffffffffffffffffffffffffff1673ffffffffffffffffffffffffffffffffffffffff1681526020019081526020015f206002015f9054906101000a900460ff1615611f225760018181548110611ea057611e9f61251f565b5b905f5260205f20015f9054906101000a900473ffffffffffffffffffffffffffffffffffffffff16838380611ed490612649565b945081518110611ee757611ee661251f565b5b602002602001019073ffffffffffffffffffffffffffffffffffffffff16908173ffffffffffffffffffffffffffffffffffffffff16815250505b8080600101915050611df3565b5081935050505090565b60018181548110611f48575f80fd5b905f5260205f20015f915054906101000a900473ffffffffffffffffffffffffffffffffffffffff1681565b600a602052815f5260405f20602052805f5260405f205f91509150505481565b60045f9054906101000a900473ffffffffffffffffffffffffffffffffffffffff1681565b6008602052815f5260405f20602052805f5260405f205f915091509054906101000a900473ffffffffffffffffffffffffffffffffffffffff1681565b60035481565b5f602052805f5260405f205f91509050805f015f9054906101000a900473ffffffffffffffffffffffffffffffffffffffff1690806001015490806002015f9054906101000a900460ff16908060030154905084565b600460149054906101000a900460ff1681565b5f5f5f5f5f5f8673ffffffffffffffffffffffffffffffffffffffff1673ffffffffffffffffffffffffffffffffffffffff1681526020019081526020015f2090508060010154816002015f9054906101000a900460ff168260030154935093509350509193909250565b828054828255905f5260205f20908101928215612146579160200282015b82811115612145578251825f6101000a81548173ffffffffffffffffffffffffffffffffffffffff021916908373ffffffffffffffffffffffffffffffffffffffff160217905550916020019190600101906120ee565b5b5090506121539190612157565b5090565b5b8082111561216e575f815f905550600101612158565b5090565b5f5ffd5b5f819050919050565b61218881612176565b8114612192575f5ffd5b50565b5f813590506121a38161217f565b92915050565b5f73ffffffffffffffffffffffffffffffffffffffff82169050919050565b5f6121d2826121a9565b9050919050565b6121e2816121c8565b81146121ec575f5ffd5b50565b5f813590506121fd816121d9565b92915050565b5f5f6040838503121561221957612218612172565b5b5f61222685828601612195565b9250506020612237858286016121ef565b9150509250929050565b5f6020828403121561225657612255612172565b5b5f61226384828501612195565b91505092915050565b5f5f6040838503121561228257612281612172565b5b5f61228f85828601612195565b92505060206122a085828601612195565b9150509250929050565b6122b3816121c8565b82525050565b5f6020820190506122cc5f8301846122aa565b92915050565b6122db81612176565b82525050565b5f6020820190506122f45f8301846122d2565b92915050565b5f8115159050919050565b61230e816122fa565b82525050565b5f6020820190506123275f830184612305565b92915050565b5f81519050919050565b5f82825260208201905092915050565b5f819050602082019050919050565b61235f816121c8565b82525050565b5f6123708383612356565b60208301905092915050565b5f602082019050919050565b5f6123928261232d565b61239c8185612337565b93506123a783612347565b805f5b838110156123d75781516123be8882612365565b97506123c98361237c565b9250506001810190506123aa565b5085935050505092915050565b5f6020820190508181035f8301526123fc8184612388565b905092915050565b5f6020828403121561241957612418612172565b5b5f612426848285016121ef565b91505092915050565b5f6080820190506124425f8301876122aa565b61244f60208301866122d2565b61245c6040830185612305565b61246960608301846122d2565b95945050505050565b5f6060820190506124855f8301866122d2565b6124926020830185612305565b61249f60408301846122d2565b949350505050565b5f82825260208201905092915050565b7f4e6f742061206a75726f720000000000000000000000000000000000000000005f82015250565b5f6124eb600b836124a7565b91506124f6826124b7565b602082019050919050565b5f6020820190508181035f830152612518816124df565b9050919050565b7f4e487b71000000000000000000000000000000000000000000000000000000005f52603260045260245ffd5b7f4e6f742073656c6563746564206a75726f7200000000000000000000000000005f82015250565b5f6125806012836124a7565b915061258b8261254c565b602082019050919050565b5f6020820190508181035f8301526125ad81612574565b9050919050565b7f416c726561647920766f746564000000000000000000000000000000000000005f82015250565b5f6125e8600d836124a7565b91506125f3826125b4565b602082019050919050565b5f6020820190508181035f830152612615816125dc565b9050919050565b7f4e487b71000000000000000000000000000000000000000000000000000000005f52601160045260245ffd5b5f61265382612176565b91507fffffffffffffffffffffffffffffffffffffffffffffffffffffffffffffffff82036126855761268461261c565b5b600182019050919050565b5f6040820190506126a35f8301856122d2565b6126b060208301846122aa565b9392505050565b5f81519050919050565b5f81905092915050565b8281835e5f83830152505050565b5f6126e3826126b7565b6126ed81856126c1565b93506126fd8185602086016126cb565b80840191505092915050565b5f61271482846126d9565b915081905092915050565b7f5265736f6c7665206661696c65640000000000000000000000000000000000005f82015250565b5f612753600e836124a7565b915061275e8261271f565b602082019050919050565b5f6020820190508181035f83015261278081612747565b9050919050565b7f4f6e6c79205461736b466163746f7279000000000000000000000000000000005f82015250565b5f6127bb6010836124a7565b91506127c682612787565b602082019050919050565b5f6020820190508181035f8301526127e8816127af565b9050919050565b7f44697370757465206e6f742073746172746564206f72206a75726f7220636f755f8201527f6e74206d69736d61746368000000000000000000000000000000000000000000602082015250565b5f612849602b836124a7565b9150612854826127ef565b604082019050919050565b5f6020820190508181035f8301526128768161283d565b9050919050565b5f6060820190506128905f8301866122d2565b81810360208301526128a28185612388565b90506128b160408301846122d2565b949350505050565b7f4d616c6963696f7573207265736f6c7665206661696c656400000000000000005f82015250565b5f6128ed6018836124a7565b91506128f8826128b9565b602082019050919050565b5f6020820190508181035f83015261291a816128e1565b9050919050565b7f496e73756666696369656e74207374616b6500000000000000000000000000005f82015250565b5f6129556012836124a7565b915061296082612921565b602082019050919050565b5f6020820190508181035f83015261298281612949565b9050919050565b7f416c7265616479206a75726f72000000000000000000000000000000000000005f82015250565b5f6129bd600d836124a7565b91506129c882612989565b602082019050919050565b5f6020820190508181035f8301526129ea816129b1565b9050919050565b7f4469737075746520616c726561647920737461727465640000000000000000005f82015250565b5f612a256017836124a7565b9150612a30826129f1565b602082019050919050565b5f6020820190508181035f830152612a5281612a19565b9050919050565b7f4e6f7420656e6f756768206a75726f72730000000000000000000000000000005f82015250565b5f612a8d6011836124a7565b9150612a9882612a59565b602082019050919050565b5f6020820190508181035f830152612aba81612a81565b9050919050565b7f4e487b71000000000000000000000000000000000000000000000000000000005f52604160045260245ffd5b5f612af882612176565b9150612b0383612176565b9250828201905080821115612b1b57612b1a61261c565b5b92915050565b5f819050919050565b612b3b612b3682612176565b612b21565b82525050565b5f612b4c8285612b2a565b602082019150612b5c8284612b2a565b6020820191508190509392505050565b5f612b7682612176565b9150612b8183612176565b9250828202612b8f81612176565b91508282048414831517612ba657612ba561261c565b5b5092915050565b7f4e487b71000000000000000000000000000000000000000000000000000000005f52601260045260245ffd5b5f612be482612176565b9150612bef83612176565b925082612bff57612bfe612bad565b5b828206905092915050565b7f4e6f7420656e6f75676820756e69717565206a75726f727300000000000000005f82015250565b5f612c3e6018836124a7565b9150612c4982612c0a565b602082019050919050565b5f6020820190508181035f830152612c6b81612c32565b9050919050565b7f466163746f727920616c726561647920736574000000000000000000000000005f82015250565b5f612ca66013836124a7565b9150612cb182612c72565b602082019050919050565b5f6020820190508181035f830152612cd381612c9a565b9050919050565b7f496e76616c6964206164647265737300000000000000000000000000000000005f82015250565b5f612d0e600f836124a7565b9150612d1982612cda565b602082019050919050565b5f6020820190508181035f830152612d3b81612d02565b905091905056fea26469706673582212207e3b9b540f46efdab7027f8ca3e5824990274924443cf9410bd52140c82d4cc764736f6c634300081e0033",
					"opcodes": "PUSH1 0x80 PUSH1 0x40 MSTORE PUSH8 0x16345785D8A0000 PUSH1 0x2 SSTORE PUSH1 0x3 DUP1 SSTORE PUSH0 PUSH1 0x4 PUSH1 0x14 PUSH2 0x100 EXP DUP2 SLOAD DUP2 PUSH1 0xFF MUL NOT AND SWAP1 DUP4 ISZERO ISZERO MUL OR SWAP1 SSTORE POP PUSH1 0x3 PUSH1 0x5 SSTORE CALLVALUE DUP1 ISZERO PUSH2 0x3E JUMPI PUSH0 PUSH0 REVERT JUMPDEST POP PUSH1 0x40 MLOAD PUSH2 0x2F03 CODESIZE SUB DUP1 PUSH2 0x2F03 DUP4 CODECOPY DUP2 DUP2 ADD PUSH1 0x40 MSTORE DUP2 ADD SWAP1 PUSH2 0x60 SWAP2 SWAP1 PUSH2 0x153 JUMP JUMPDEST DUP1 PUSH1 0x4 PUSH0 PUSH2 0x100 EXP DUP2 SLOAD DUP2 PUSH20 0xFFFFFFFFFFFFFFFFFFFFFFFFFFFFFFFFFFFFFFFF MUL NOT AND SWAP1 DUP4 PUSH20 0xFFFFFFFFFFFFFFFFFFFFFFFFFFFFFFFFFFFFFFFF AND MUL OR SWAP1 SSTORE POP PUSH0 PUSH20 0xFFFFFFFFFFFFFFFFFFFFFFFFFFFFFFFFFFFFFFFF AND DUP2 PUSH20 0xFFFFFFFFFFFFFFFFFFFFFFFFFFFFFFFFFFFFFFFF AND EQ PUSH2 0xEF JUMPI PUSH1 0x1 PUSH1 0x4 PUSH1 0x14 PUSH2 0x100 EXP DUP2 SLOAD DUP2 PUSH1 0xFF MUL NOT AND SWAP1 DUP4 ISZERO ISZERO MUL OR SWAP1 SSTORE POP JUMPDEST POP PUSH2 0x17E JUMP JUMPDEST PUSH0 PUSH0 REVERT JUMPDEST PUSH0 PUSH20 0xFFFFFFFFFFFFFFFFFFFFFFFFFFFFFFFFFFFFFFFF DUP3 AND SWAP1 POP SWAP2 SWAP1 POP JUMP JUMPDEST PUSH0 PUSH2 0x122 DUP3 PUSH2 0xF9 JUMP JUMPDEST SWAP1 POP SWAP2 SWAP1 POP JUMP JUMPDEST PUSH2 0x132 DUP2 PUSH2 0x118 JUMP JUMPDEST DUP2 EQ PUSH2 0x13C JUMPI PUSH0 PUSH0 REVERT JUMPDEST POP JUMP JUMPDEST PUSH0 DUP2 MLOAD SWAP1 POP PUSH2 0x14D DUP2 PUSH2 0x129 JUMP JUMPDEST SWAP3 SWAP2 POP POP JUMP JUMPDEST PUSH0 PUSH1 0x20 DUP3 DUP5 SUB SLT ISZERO PUSH2 0x168 JUMPI PUSH2 0x167 PUSH2 0xF5 JUMP JUMPDEST JUMPDEST PUSH0 PUSH2 0x175 DUP5 DUP3 DUP6 ADD PUSH2 0x13F JUMP JUMPDEST SWAP2 POP POP SWAP3 SWAP2 POP POP JUMP JUMPDEST PUSH2 0x2D78 DUP1 PUSH2 0x18B PUSH0 CODECOPY PUSH0 RETURN INVALID PUSH1 0x80 PUSH1 0x40 MSTORE PUSH1 0x4 CALLDATASIZE LT PUSH2 0x134 JUMPI PUSH0 CALLDATALOAD PUSH1 0xE0 SHR DUP1 PUSH4 0x5BB47808 GT PUSH2 0xAA JUMPI DUP1 PUSH4 0xC9BC0C11 GT PUSH2 0x6E JUMPI DUP1 PUSH4 0xC9BC0C11 EQ PUSH2 0x408 JUMPI DUP1 PUSH4 0xD23254B4 EQ PUSH2 0x432 JUMPI DUP1 PUSH4 0xD369506C EQ PUSH2 0x46E JUMPI DUP1 PUSH4 0xDCA5F6B0 EQ PUSH2 0x498 JUMPI DUP1 PUSH4 0xE21875E2 EQ PUSH2 0x4D7 JUMPI DUP1 PUSH4 0xEFF2C3EC EQ PUSH2 0x501 JUMPI PUSH2 0x134 JUMP JUMPDEST DUP1 PUSH4 0x5BB47808 EQ PUSH2 0x314 JUMPI DUP1 PUSH4 0x5DA93070 EQ PUSH2 0x33C JUMPI DUP1 PUSH4 0x6058E685 EQ PUSH2 0x366 JUMPI DUP1 PUSH4 0x8E230E6F EQ PUSH2 0x390 JUMPI DUP1 PUSH4 0xAFA9C5B0 EQ PUSH2 0x3CC JUMPI PUSH2 0x134 JUMP JUMPDEST DUP1 PUSH4 0x3A4B66F1 GT PUSH2 0xFC JUMPI DUP1 PUSH4 0x3A4B66F1 EQ PUSH2 0x204 JUMPI DUP1 PUSH4 0x43859632 EQ PUSH2 0x20E JUMPI DUP1 PUSH4 0x47E2A6E6 EQ PUSH2 0x24A JUMPI DUP1 PUSH4 0x4B54A379 EQ PUSH2 0x286 JUMPI DUP1 PUSH4 0x4DC35F7A EQ PUSH2 0x2AE JUMPI DUP1 PUSH4 0x4FC8A20D EQ PUSH2 0x2D8 JUMPI PUSH2 0x134 JUMP JUMPDEST DUP1 PUSH4 0x2D947EF EQ PUSH2 0x138 JUMPI DUP1 PUSH4 0xFA17000 EQ PUSH2 0x160 JUMPI DUP1 PUSH4 0x2249C562 EQ PUSH2 0x188 JUMPI DUP1 PUSH4 0x2DEF6620 EQ PUSH2 0x1C4 JUMPI DUP1 PUSH4 0x375B3C0A EQ PUSH2 0x1DA JUMPI JUMPDEST PUSH0 PUSH0 REVERT JUMPDEST CALLVALUE DUP1 ISZERO PUSH2 0x143 JUMPI PUSH0 PUSH0 REVERT JUMPDEST POP PUSH2 0x15E PUSH1 0x4 DUP1 CALLDATASIZE SUB DUP2 ADD SWAP1 PUSH2 0x159 SWAP2 SWAP1 PUSH2 0x2203 JUMP JUMPDEST PUSH2 0x53F JUMP JUMPDEST STOP JUMPDEST CALLVALUE DUP1 ISZERO PUSH2 0x16B JUMPI PUSH0 PUSH0 REVERT JUMPDEST POP PUSH2 0x186 PUSH1 0x4 DUP1 CALLDATASIZE SUB DUP2 ADD SWAP1 PUSH2 0x181 SWAP2 SWAP1 PUSH2 0x2241 JUMP JUMPDEST PUSH2 0xC24 JUMP JUMPDEST STOP JUMPDEST CALLVALUE DUP1 ISZERO PUSH2 0x193 JUMPI PUSH0 PUSH0 REVERT JUMPDEST POP PUSH2 0x1AE PUSH1 0x4 DUP1 CALLDATASIZE SUB DUP2 ADD SWAP1 PUSH2 0x1A9 SWAP2 SWAP1 PUSH2 0x226C JUMP JUMPDEST PUSH2 0xF2C JUMP JUMPDEST PUSH1 0x40 MLOAD PUSH2 0x1BB SWAP2 SWAP1 PUSH2 0x22B9 JUMP JUMPDEST PUSH1 0x40 MLOAD DUP1 SWAP2 SUB SWAP1 RETURN JUMPDEST CALLVALUE DUP1 ISZERO PUSH2 0x1CF JUMPI PUSH0 PUSH0 REVERT JUMPDEST POP PUSH2 0x1D8 PUSH2 0xF74 JUMP JUMPDEST STOP JUMPDEST CALLVALUE DUP1 ISZERO PUSH2 0x1E5 JUMPI PUSH0 PUSH0 REVERT JUMPDEST POP PUSH2 0x1EE PUSH2 0x10C5 JUMP JUMPDEST PUSH1 0x40 MLOAD PUSH2 0x1FB SWAP2 SWAP1 PUSH2 0x22E1 JUMP JUMPDEST PUSH1 0x40 MLOAD DUP1 SWAP2 SUB SWAP1 RETURN JUMPDEST PUSH2 0x20C PUSH2 0x10CB JUMP JUMPDEST STOP JUMPDEST CALLVALUE DUP1 ISZERO PUSH2 0x219 JUMPI PUSH0 PUSH0 REVERT JUMPDEST POP PUSH2 0x234 PUSH1 0x4 DUP1 CALLDATASIZE SUB DUP2 ADD SWAP1 PUSH2 0x22F SWAP2 SWAP1 PUSH2 0x2203 JUMP JUMPDEST PUSH2 0x133C JUMP JUMPDEST PUSH1 0x40 MLOAD PUSH2 0x241 SWAP2 SWAP1 PUSH2 0x2314 JUMP JUMPDEST PUSH1 0x40 MLOAD DUP1 SWAP2 SUB SWAP1 RETURN JUMPDEST CALLVALUE DUP1 ISZERO PUSH2 0x255 JUMPI PUSH0 PUSH0 REVERT JUMPDEST POP PUSH2 0x270 PUSH1 0x4 DUP1 CALLDATASIZE SUB DUP2 ADD SWAP1 PUSH2 0x26B SWAP2 SWAP1 PUSH2 0x2241 JUMP JUMPDEST PUSH2 0x1366 JUMP JUMPDEST PUSH1 0x40 MLOAD PUSH2 0x27D SWAP2 SWAP1 PUSH2 0x23E4 JUMP JUMPDEST PUSH1 0x40 MLOAD DUP1 SWAP2 SUB SWAP1 RETURN JUMPDEST CALLVALUE DUP1 ISZERO PUSH2 0x291 JUMPI PUSH0 PUSH0 REVERT JUMPDEST POP PUSH2 0x2AC PUSH1 0x4 DUP1 CALLDATASIZE SUB DUP2 ADD SWAP1 PUSH2 0x2A7 SWAP2 SWAP1 PUSH2 0x2241 JUMP JUMPDEST PUSH2 0x1402 JUMP JUMPDEST STOP JUMPDEST CALLVALUE DUP1 ISZERO PUSH2 0x2B9 JUMPI PUSH0 PUSH0 REVERT JUMPDEST POP PUSH2 0x2C2 PUSH2 0x1B9B JUMP JUMPDEST PUSH1 0x40 MLOAD PUSH2 0x2CF SWAP2 SWAP1 PUSH2 0x22E1 JUMP JUMPDEST PUSH1 0x40 MLOAD DUP1 SWAP2 SUB SWAP1 RETURN JUMPDEST CALLVALUE DUP1 ISZERO PUSH2 0x2E3 JUMPI PUSH0 PUSH0 REVERT JUMPDEST POP PUSH2 0x2FE PUSH1 0x4 DUP1 CALLDATASIZE SUB DUP2 ADD SWAP1 PUSH2 0x2F9 SWAP2 SWAP1 PUSH2 0x2241 JUMP JUMPDEST PUSH2 0x1BA1 JUMP JUMPDEST PUSH1 0x40 MLOAD PUSH2 0x30B SWAP2 SWAP1 PUSH2 0x22E1 JUMP JUMPDEST PUSH1 0x40 MLOAD DUP1 SWAP2 SUB SWAP1 RETURN JUMPDEST CALLVALUE DUP1 ISZERO PUSH2 0x31F JUMPI PUSH0 PUSH0 REVERT JUMPDEST POP PUSH2 0x33A PUSH1 0x4 DUP1 CALLDATASIZE SUB DUP2 ADD SWAP1 PUSH2 0x335 SWAP2 SWAP1 PUSH2 0x2404 JUMP JUMPDEST PUSH2 0x1BB6 JUMP JUMPDEST STOP JUMPDEST CALLVALUE DUP1 ISZERO PUSH2 0x347 JUMPI PUSH0 PUSH0 REVERT JUMPDEST POP PUSH2 0x350 PUSH2 0x1CD2 JUMP JUMPDEST PUSH1 0x40 MLOAD PUSH2 0x35D SWAP2 SWAP1 PUSH2 0x22E1 JUMP JUMPDEST PUSH1 0x40 MLOAD DUP1 SWAP2 SUB SWAP1 RETURN JUMPDEST CALLVALUE DUP1 ISZERO PUSH2 0x371 JUMPI PUSH0 PUSH0 REVERT JUMPDEST POP PUSH2 0x37A PUSH2 0x1CDD JUMP JUMPDEST PUSH1 0x40 MLOAD PUSH2 0x387 SWAP2 SWAP1 PUSH2 0x23E4 JUMP JUMPDEST PUSH1 0x40 MLOAD DUP1 SWAP2 SUB SWAP1 RETURN JUMPDEST CALLVALUE DUP1 ISZERO PUSH2 0x39B JUMPI PUSH0 PUSH0 REVERT JUMPDEST POP PUSH2 0x3B6 PUSH1 0x4 DUP1 CALLDATASIZE SUB DUP2 ADD SWAP1 PUSH2 0x3B1 SWAP2 SWAP1 PUSH2 0x2241 JUMP JUMPDEST PUSH2 0x1F39 JUMP JUMPDEST PUSH1 0x40 MLOAD PUSH2 0x3C3 SWAP2 SWAP1 PUSH2 0x22B9 JUMP JUMPDEST PUSH1 0x40 MLOAD DUP1 SWAP2 SUB SWAP1 RETURN JUMPDEST CALLVALUE DUP1 ISZERO PUSH2 0x3D7 JUMPI PUSH0 PUSH0 REVERT JUMPDEST POP PUSH2 0x3F2 PUSH1 0x4 DUP1 CALLDATASIZE SUB DUP2 ADD SWAP1 PUSH2 0x3ED SWAP2 SWAP1 PUSH2 0x2203 JUMP JUMPDEST PUSH2 0x1F74 JUMP JUMPDEST PUSH1 0x40 MLOAD PUSH2 0x3FF SWAP2 SWAP1 PUSH2 0x22E1 JUMP JUMPDEST PUSH1 0x40 MLOAD DUP1 SWAP2 SUB SWAP1 RETURN JUMPDEST CALLVALUE DUP1 ISZERO PUSH2 0x413 JUMPI PUSH0 PUSH0 REVERT JUMPDEST POP PUSH2 0x41C PUSH2 0x1F94 JUMP JUMPDEST PUSH1 0x40 MLOAD PUSH2 0x429 SWAP2 SWAP1 PUSH2 0x22B9 JUMP JUMPDEST PUSH1 0x40 MLOAD DUP1 SWAP2 SUB SWAP1 RETURN JUMPDEST CALLVALUE DUP1 ISZERO PUSH2 0x43D JUMPI PUSH0 PUSH0 REVERT JUMPDEST POP PUSH2 0x458 PUSH1 0x4 DUP1 CALLDATASIZE SUB DUP2 ADD SWAP1 PUSH2 0x453 SWAP2 SWAP1 PUSH2 0x2203 JUMP JUMPDEST PUSH2 0x1FB9 JUMP JUMPDEST PUSH1 0x40 MLOAD PUSH2 0x465 SWAP2 SWAP1 PUSH2 0x22B9 JUMP JUMPDEST PUSH1 0x40 MLOAD DUP1 SWAP2 SUB SWAP1 RETURN JUMPDEST CALLVALUE DUP1 ISZERO PUSH2 0x479 JUMPI PUSH0 PUSH0 REVERT JUMPDEST POP PUSH2 0x482 PUSH2 0x1FF6 JUMP JUMPDEST PUSH1 0x40 MLOAD PUSH2 0x48F SWAP2 SWAP1 PUSH2 0x22E1 JUMP JUMPDEST PUSH1 0x40 MLOAD DUP1 SWAP2 SUB SWAP1 RETURN JUMPDEST CALLVALUE DUP1 ISZERO PUSH2 0x4A3 JUMPI PUSH0 PUSH0 REVERT JUMPDEST POP PUSH2 0x4BE PUSH1 0x4 DUP1 CALLDATASIZE SUB DUP2 ADD SWAP1 PUSH2 0x4B9 SWAP2 SWAP1 PUSH2 0x2404 JUMP JUMPDEST PUSH2 0x1FFC JUMP JUMPDEST PUSH1 0x40 MLOAD PUSH2 0x4CE SWAP5 SWAP4 SWAP3 SWAP2 SWAP1 PUSH2 0x242F JUMP JUMPDEST PUSH1 0x40 MLOAD DUP1 SWAP2 SUB SWAP1 RETURN JUMPDEST CALLVALUE DUP1 ISZERO PUSH2 0x4E2 JUMPI PUSH0 PUSH0 REVERT JUMPDEST POP PUSH2 0x4EB PUSH2 0x2052 JUMP JUMPDEST PUSH1 0x40 MLOAD PUSH2 0x4F8 SWAP2 SWAP1 PUSH2 0x2314 JUMP JUMPDEST PUSH1 0x40 MLOAD DUP1 SWAP2 SUB SWAP1 RETURN JUMPDEST CALLVALUE DUP1 ISZERO PUSH2 0x50C JUMPI PUSH0 PUSH0 REVERT JUMPDEST POP PUSH2 0x527 PUSH1 0x4 DUP1 CALLDATASIZE SUB DUP2 ADD SWAP1 PUSH2 0x522 SWAP2 SWAP1 PUSH2 0x2404 JUMP JUMPDEST PUSH2 0x2065 JUMP JUMPDEST PUSH1 0x40 MLOAD PUSH2 0x536 SWAP4 SWAP3 SWAP2 SWAP1 PUSH2 0x2472 JUMP JUMPDEST PUSH1 0x40 MLOAD DUP1 SWAP2 SUB SWAP1 RETURN JUMPDEST PUSH0 PUSH0 CALLER PUSH20 0xFFFFFFFFFFFFFFFFFFFFFFFFFFFFFFFFFFFFFFFF AND PUSH20 0xFFFFFFFFFFFFFFFFFFFFFFFFFFFFFFFFFFFFFFFF AND DUP2 MSTORE PUSH1 0x20 ADD SWAP1 DUP2 MSTORE PUSH1 0x20 ADD PUSH0 KECCAK256 PUSH1 0x2 ADD PUSH0 SWAP1 SLOAD SWAP1 PUSH2 0x100 EXP SWAP1 DIV PUSH1 0xFF AND PUSH2 0x5CA JUMPI PUSH1 0x40 MLOAD PUSH32 0x8C379A000000000000000000000000000000000000000000000000000000000 DUP2 MSTORE PUSH1 0x4 ADD PUSH2 0x5C1 SWAP1 PUSH2 0x2501 JUMP JUMPDEST PUSH1 0x40 MLOAD DUP1 SWAP2 SUB SWAP1 REVERT JUMPDEST PUSH0 PUSH0 SWAP1 POP PUSH0 PUSH0 SWAP1 POP JUMPDEST PUSH1 0x6 PUSH0 DUP6 DUP2 MSTORE PUSH1 0x20 ADD SWAP1 DUP2 MSTORE PUSH1 0x20 ADD PUSH0 KECCAK256 DUP1 SLOAD SWAP1 POP DUP2 LT ISZERO PUSH2 0x682 JUMPI CALLER PUSH20 0xFFFFFFFFFFFFFFFFFFFFFFFFFFFFFFFFFFFFFFFF AND PUSH1 0x6 PUSH0 DUP7 DUP2 MSTORE PUSH1 0x20 ADD SWAP1 DUP2 MSTORE PUSH1 0x20 ADD PUSH0 KECCAK256 DUP3 DUP2 SLOAD DUP2 LT PUSH2 0x629 JUMPI PUSH2 0x628 PUSH2 0x251F JUMP JUMPDEST JUMPDEST SWAP1 PUSH0 MSTORE PUSH1 0x20 PUSH0 KECCAK256 ADD PUSH0 SWAP1 SLOAD SWAP1 PUSH2 0x100 EXP SWAP1 DIV PUSH20 0xFFFFFFFFFFFFFFFFFFFFFFFFFFFFFFFFFFFFFFFF AND PUSH20 0xFFFFFFFFFFFFFFFFFFFFFFFFFFFFFFFFFFFFFFFF AND SUB PUSH2 0x675 JUMPI PUSH1 0x1 SWAP2 POP PUSH2 0x682 JUMP JUMPDEST DUP1 DUP1 PUSH1 0x1 ADD SWAP2 POP POP PUSH2 0x5D3 JUMP JUMPDEST POP DUP1 PUSH2 0x6C3 JUMPI PUSH1 0x40 MLOAD PUSH32 0x8C379A000000000000000000000000000000000000000000000000000000000 DUP2 MSTORE PUSH1 0x4 ADD PUSH2 0x6BA SWAP1 PUSH2 0x2596 JUMP JUMPDEST PUSH1 0x40 MLOAD DUP1 SWAP2 SUB SWAP1 REVERT JUMPDEST PUSH1 0x7 PUSH0 DUP5 DUP2 MSTORE PUSH1 0x20 ADD SWAP1 DUP2 MSTORE PUSH1 0x20 ADD PUSH0 KECCAK256 PUSH0 CALLER PUSH20 0xFFFFFFFFFFFFFFFFFFFFFFFFFFFFFFFFFFFFFFFF AND PUSH20 0xFFFFFFFFFFFFFFFFFFFFFFFFFFFFFFFFFFFFFFFF AND DUP2 MSTORE PUSH1 0x20 ADD SWAP1 DUP2 MSTORE PUSH1 0x20 ADD PUSH0 KECCAK256 PUSH0 SWAP1 SLOAD SWAP1 PUSH2 0x100 EXP SWAP1 DIV PUSH1 0xFF AND ISZERO PUSH2 0x75C JUMPI PUSH1 0x40 MLOAD PUSH32 0x8C379A000000000000000000000000000000000000000000000000000000000 DUP2 MSTORE PUSH1 0x4 ADD PUSH2 0x753 SWAP1 PUSH2 0x25FE JUMP JUMPDEST PUSH1 0x40 MLOAD DUP1 SWAP2 SUB SWAP1 REVERT JUMPDEST PUSH1 0x1 PUSH1 0x7 PUSH0 DUP6 DUP2 MSTORE PUSH1 0x20 ADD SWAP1 DUP2 MSTORE PUSH1 0x20 ADD PUSH0 KECCAK256 PUSH0 CALLER PUSH20 0xFFFFFFFFFFFFFFFFFFFFFFFFFFFFFFFFFFFFFFFF AND PUSH20 0xFFFFFFFFFFFFFFFFFFFFFFFFFFFFFFFFFFFFFFFF AND DUP2 MSTORE PUSH1 0x20 ADD SWAP1 DUP2 MSTORE PUSH1 0x20 ADD PUSH0 KECCAK256 PUSH0 PUSH2 0x100 EXP DUP2 SLOAD DUP2 PUSH1 0xFF MUL NOT AND SWAP1 DUP4 ISZERO ISZERO MUL OR SWAP1 SSTORE POP DUP2 PUSH1 0x8 PUSH0 DUP6 DUP2 MSTORE PUSH1 0x20 ADD SWAP1 DUP2 MSTORE PUSH1 0x20 ADD PUSH0 KECCAK256 PUSH0 CALLER PUSH20 0xFFFFFFFFFFFFFFFFFFFFFFFFFFFFFFFFFFFFFFFF AND PUSH20 0xFFFFFFFFFFFFFFFFFFFFFFFFFFFFFFFFFFFFFFFF AND DUP2 MSTORE PUSH1 0x20 ADD SWAP1 DUP2 MSTORE PUSH1 0x20 ADD PUSH0 KECCAK256 PUSH0 PUSH2 0x100 EXP DUP2 SLOAD DUP2 PUSH20 0xFFFFFFFFFFFFFFFFFFFFFFFFFFFFFFFFFFFFFFFF MUL NOT AND SWAP1 DUP4 PUSH20 0xFFFFFFFFFFFFFFFFFFFFFFFFFFFFFFFFFFFFFFFF AND MUL OR SWAP1 SSTORE POP PUSH1 0xA PUSH0 DUP5 DUP2 MSTORE PUSH1 0x20 ADD SWAP1 DUP2 MSTORE PUSH1 0x20 ADD PUSH0 KECCAK256 PUSH0 DUP4 PUSH20 0xFFFFFFFFFFFFFFFFFFFFFFFFFFFFFFFFFFFFFFFF AND PUSH20 0xFFFFFFFFFFFFFFFFFFFFFFFFFFFFFFFFFFFFFFFF AND DUP2 MSTORE PUSH1 0x20 ADD SWAP1 DUP2 MSTORE PUSH1 0x20 ADD PUSH0 KECCAK256 PUSH0 DUP2 SLOAD DUP1 SWAP3 SWAP2 SWAP1 PUSH2 0x8A6 SWAP1 PUSH2 0x2649 JUMP JUMPDEST SWAP2 SWAP1 POP SSTORE POP PUSH1 0x9 PUSH0 DUP5 DUP2 MSTORE PUSH1 0x20 ADD SWAP1 DUP2 MSTORE PUSH1 0x20 ADD PUSH0 KECCAK256 PUSH0 DUP2 SLOAD DUP1 SWAP3 SWAP2 SWAP1 PUSH2 0x8CC SWAP1 PUSH2 0x2649 JUMP JUMPDEST SWAP2 SWAP1 POP SSTORE POP CALLER PUSH20 0xFFFFFFFFFFFFFFFFFFFFFFFFFFFFFFFFFFFFFFFF AND DUP4 PUSH32 0xF6C8F1F54B2F54FB963820203FDEF5B9AEFB56AE2C4DD8B6133E151791A07F36 DUP5 PUSH1 0x40 MLOAD PUSH2 0x918 SWAP2 SWAP1 PUSH2 0x22B9 JUMP JUMPDEST PUSH1 0x40 MLOAD DUP1 SWAP2 SUB SWAP1 LOG3 PUSH1 0x3 SLOAD PUSH1 0x9 PUSH0 DUP6 DUP2 MSTORE PUSH1 0x20 ADD SWAP1 DUP2 MSTORE PUSH1 0x20 ADD PUSH0 KECCAK256 SLOAD SUB PUSH2 0xC1F JUMPI PUSH0 DUP3 SWAP1 POP PUSH0 PUSH0 SWAP1 POP PUSH0 PUSH0 SWAP1 POP JUMPDEST PUSH1 0x6 PUSH0 DUP8 DUP2 MSTORE PUSH1 0x20 ADD SWAP1 DUP2 MSTORE PUSH1 0x20 ADD PUSH0 KECCAK256 DUP1 SLOAD SWAP1 POP DUP2 LT ISZERO PUSH2 0xA8A JUMPI PUSH0 PUSH1 0x8 PUSH0 DUP9 DUP2 MSTORE PUSH1 0x20 ADD SWAP1 DUP2 MSTORE PUSH1 0x20 ADD PUSH0 KECCAK256 PUSH0 PUSH1 0x6 PUSH0 DUP11 DUP2 MSTORE PUSH1 0x20 ADD SWAP1 DUP2 MSTORE PUSH1 0x20 ADD PUSH0 KECCAK256 DUP5 DUP2 SLOAD DUP2 LT PUSH2 0x999 JUMPI PUSH2 0x998 PUSH2 0x251F JUMP JUMPDEST JUMPDEST SWAP1 PUSH0 MSTORE PUSH1 0x20 PUSH0 KECCAK256 ADD PUSH0 SWAP1 SLOAD SWAP1 PUSH2 0x100 EXP SWAP1 DIV PUSH20 0xFFFFFFFFFFFFFFFFFFFFFFFFFFFFFFFFFFFFFFFF AND PUSH20 0xFFFFFFFFFFFFFFFFFFFFFFFFFFFFFFFFFFFFFFFF AND PUSH20 0xFFFFFFFFFFFFFFFFFFFFFFFFFFFFFFFFFFFFFFFF AND DUP2 MSTORE PUSH1 0x20 ADD SWAP1 DUP2 MSTORE PUSH1 0x20 ADD PUSH0 KECCAK256 PUSH0 SWAP1 SLOAD SWAP1 PUSH2 0x100 EXP SWAP1 DIV PUSH20 0xFFFFFFFFFFFFFFFFFFFFFFFFFFFFFFFFFFFFFFFF AND SWAP1 POP PUSH0 PUSH1 0xA PUSH0 DUP10 DUP2 MSTORE PUSH1 0x20 ADD SWAP1 DUP2 MSTORE PUSH1 0x20 ADD PUSH0 KECCAK256 PUSH0 DUP4 PUSH20 0xFFFFFFFFFFFFFFFFFFFFFFFFFFFFFFFFFFFFFFFF AND PUSH20 0xFFFFFFFFFFFFFFFFFFFFFFFFFFFFFFFFFFFFFFFF AND DUP2 MSTORE PUSH1 0x20 ADD SWAP1 DUP2 MSTORE PUSH1 0x20 ADD PUSH0 KECCAK256 SLOAD SWAP1 POP DUP4 DUP2 GT ISZERO PUSH2 0xA7B JUMPI DUP1 SWAP4 POP DUP2 SWAP5 POP JUMPDEST POP POP DUP1 DUP1 PUSH1 0x1 ADD SWAP2 POP POP PUSH2 0x947 JUMP JUMPDEST POP PUSH0 PUSH1 0x4 PUSH0 SWAP1 SLOAD SWAP1 PUSH2 0x100 EXP SWAP1 DIV PUSH20 0xFFFFFFFFFFFFFFFFFFFFFFFFFFFFFFFFFFFFFFFF AND PUSH20 0xFFFFFFFFFFFFFFFFFFFFFFFFFFFFFFFFFFFFFFFF AND DUP7 DUP5 PUSH1 0x40 MLOAD PUSH1 0x24 ADD PUSH2 0xAD7 SWAP3 SWAP2 SWAP1 PUSH2 0x2690 JUMP JUMPDEST PUSH1 0x40 MLOAD PUSH1 0x20 DUP2 DUP4 SUB SUB DUP2 MSTORE SWAP1 PUSH1 0x40 MSTORE PUSH32 0xE33599D00000000000000000000000000000000000000000000000000000000 PUSH28 0xFFFFFFFFFFFFFFFFFFFFFFFFFFFFFFFFFFFFFFFFFFFFFFFFFFFFFFFF NOT AND PUSH1 0x20 DUP3 ADD DUP1 MLOAD PUSH28 0xFFFFFFFFFFFFFFFFFFFFFFFFFFFFFFFFFFFFFFFFFFFFFFFFFFFFFFFF DUP4 DUP2 DUP4 AND OR DUP4 MSTORE POP POP POP POP PUSH1 0x40 MLOAD PUSH2 0xB61 SWAP2 SWAP1 PUSH2 0x2709 JUMP JUMPDEST PUSH0 PUSH1 0x40 MLOAD DUP1 DUP4 SUB DUP2 PUSH0 DUP7 GAS CALL SWAP2 POP POP RETURNDATASIZE DUP1 PUSH0 DUP2 EQ PUSH2 0xB9A JUMPI PUSH1 0x40 MLOAD SWAP2 POP PUSH1 0x1F NOT PUSH1 0x3F RETURNDATASIZE ADD AND DUP3 ADD PUSH1 0x40 MSTORE RETURNDATASIZE DUP3 MSTORE RETURNDATASIZE PUSH0 PUSH1 0x20 DUP5 ADD RETURNDATACOPY PUSH2 0xB9F JUMP JUMPDEST PUSH1 0x60 SWAP2 POP JUMPDEST POP POP SWAP1 POP DUP1 PUSH2 0xBE3 JUMPI PUSH1 0x40 MLOAD PUSH32 0x8C379A000000000000000000000000000000000000000000000000000000000 DUP2 MSTORE PUSH1 0x4 ADD PUSH2 0xBDA SWAP1 PUSH2 0x2769 JUMP JUMPDEST PUSH1 0x40 MLOAD DUP1 SWAP2 SUB SWAP1 REVERT JUMPDEST DUP6 PUSH32 0xF77CEB5E091D2DA041BC760667F9D5FE7A756949EAF29250AD0E60CA6F4C27D9 DUP5 PUSH1 0x40 MLOAD PUSH2 0xC13 SWAP2 SWAP1 PUSH2 0x22B9 JUMP JUMPDEST PUSH1 0x40 MLOAD DUP1 SWAP2 SUB SWAP1 LOG2 POP POP POP JUMPDEST POP POP POP JUMP JUMPDEST PUSH1 0x4 PUSH0 SWAP1 SLOAD SWAP1 PUSH2 0x100 EXP SWAP1 DIV PUSH20 0xFFFFFFFFFFFFFFFFFFFFFFFFFFFFFFFFFFFFFFFF AND PUSH20 0xFFFFFFFFFFFFFFFFFFFFFFFFFFFFFFFFFFFFFFFF AND CALLER PUSH20 0xFFFFFFFFFFFFFFFFFFFFFFFFFFFFFFFFFFFFFFFF AND EQ PUSH2 0xCB3 JUMPI PUSH1 0x40 MLOAD PUSH32 0x8C379A000000000000000000000000000000000000000000000000000000000 DUP2 MSTORE PUSH1 0x4 ADD PUSH2 0xCAA SWAP1 PUSH2 0x27D1 JUMP JUMPDEST PUSH1 0x40 MLOAD DUP1 SWAP2 SUB SWAP1 REVERT JUMPDEST PUSH0 PUSH1 0x6 PUSH0 DUP4 DUP2 MSTORE PUSH1 0x20 ADD SWAP1 DUP2 MSTORE PUSH1 0x20 ADD PUSH0 KECCAK256 DUP1 SLOAD DUP1 PUSH1 0x20 MUL PUSH1 0x20 ADD PUSH1 0x40 MLOAD SWAP1 DUP2 ADD PUSH1 0x40 MSTORE DUP1 SWAP3 SWAP2 SWAP1 DUP2 DUP2 MSTORE PUSH1 0x20 ADD DUP3 DUP1 SLOAD DUP1 ISZERO PUSH2 0xD42 JUMPI PUSH1 0x20 MUL DUP3 ADD SWAP2 SWAP1 PUSH0 MSTORE PUSH1 0x20 PUSH0 KECCAK256 SWAP1 JUMPDEST DUP2 PUSH0 SWAP1 SLOAD SWAP1 PUSH2 0x100 EXP SWAP1 DIV PUSH20 0xFFFFFFFFFFFFFFFFFFFFFFFFFFFFFFFFFFFFFFFF AND PUSH20 0xFFFFFFFFFFFFFFFFFFFFFFFFFFFFFFFFFFFFFFFF AND DUP2 MSTORE PUSH1 0x20 ADD SWAP1 PUSH1 0x1 ADD SWAP1 DUP1 DUP4 GT PUSH2 0xCF9 JUMPI JUMPDEST POP POP POP POP POP SWAP1 POP PUSH1 0x3 SLOAD DUP2 MLOAD EQ PUSH2 0xD8E JUMPI PUSH1 0x40 MLOAD PUSH32 0x8C379A000000000000000000000000000000000000000000000000000000000 DUP2 MSTORE PUSH1 0x4 ADD PUSH2 0xD85 SWAP1 PUSH2 0x285F JUMP JUMPDEST PUSH1 0x40 MLOAD DUP1 SWAP2 SUB SWAP1 REVERT JUMPDEST PUSH0 PUSH1 0x4 PUSH0 SWAP1 SLOAD SWAP1 PUSH2 0x100 EXP SWAP1 DIV PUSH20 0xFFFFFFFFFFFFFFFFFFFFFFFFFFFFFFFFFFFFFFFF AND PUSH20 0xFFFFFFFFFFFFFFFFFFFFFFFFFFFFFFFFFFFFFFFF AND DUP4 DUP4 PUSH7 0xAA87BEE538000 PUSH1 0x40 MLOAD PUSH1 0x24 ADD PUSH2 0xDE3 SWAP4 SWAP3 SWAP2 SWAP1 PUSH2 0x287D JUMP JUMPDEST PUSH1 0x40 MLOAD PUSH1 0x20 DUP2 DUP4 SUB SUB DUP2 MSTORE SWAP1 PUSH1 0x40 MSTORE PUSH32 0x4CED8C8800000000000000000000000000000000000000000000000000000000 PUSH28 0xFFFFFFFFFFFFFFFFFFFFFFFFFFFFFFFFFFFFFFFFFFFFFFFFFFFFFFFF NOT AND PUSH1 0x20 DUP3 ADD DUP1 MLOAD PUSH28 0xFFFFFFFFFFFFFFFFFFFFFFFFFFFFFFFFFFFFFFFFFFFFFFFFFFFFFFFF DUP4 DUP2 DUP4 AND OR DUP4 MSTORE POP POP POP POP PUSH1 0x40 MLOAD PUSH2 0xE6D SWAP2 SWAP1 PUSH2 0x2709 JUMP JUMPDEST PUSH0 PUSH1 0x40 MLOAD DUP1 DUP4 SUB DUP2 PUSH0 DUP7 GAS CALL SWAP2 POP POP RETURNDATASIZE DUP1 PUSH0 DUP2 EQ PUSH2 0xEA6 JUMPI PUSH1 0x40 MLOAD SWAP2 POP PUSH1 0x1F NOT PUSH1 0x3F RETURNDATASIZE ADD AND DUP3 ADD PUSH1 0x40 MSTORE RETURNDATASIZE DUP3 MSTORE RETURNDATASIZE PUSH0 PUSH1 0x20 DUP5 ADD RETURNDATACOPY PUSH2 0xEAB JUMP JUMPDEST PUSH1 0x60 SWAP2 POP JUMPDEST POP POP SWAP1 POP DUP1 PUSH2 0xEEF JUMPI PUSH1 0x40 MLOAD PUSH32 0x8C379A000000000000000000000000000000000000000000000000000000000 DUP2 MSTORE PUSH1 0x4 ADD PUSH2 0xEE6 SWAP1 PUSH2 0x2903 JUMP JUMPDEST PUSH1 0x40 MLOAD DUP1 SWAP2 SUB SWAP1 REVERT JUMPDEST DUP3 PUSH32 0x45BE258C7AC307C57FF3EBDE0A70F122CA9E4F76A87A9D25991297BA27524562 DUP4 PUSH1 0x40 MLOAD PUSH2 0xF1F SWAP2 SWAP1 PUSH2 0x23E4 JUMP JUMPDEST PUSH1 0x40 MLOAD DUP1 SWAP2 SUB SWAP1 LOG2 POP POP POP JUMP JUMPDEST PUSH1 0x6 PUSH1 0x20 MSTORE DUP2 PUSH0 MSTORE PUSH1 0x40 PUSH0 KECCAK256 DUP2 DUP2 SLOAD DUP2 LT PUSH2 0xF45 JUMPI PUSH0 DUP1 REVERT JUMPDEST SWAP1 PUSH0 MSTORE PUSH1 0x20 PUSH0 KECCAK256 ADD PUSH0 SWAP2 POP SWAP2 POP SWAP1 SLOAD SWAP1 PUSH2 0x100 EXP SWAP1 DIV PUSH20 0xFFFFFFFFFFFFFFFFFFFFFFFFFFFFFFFFFFFFFFFF AND DUP2 JUMP JUMPDEST PUSH0 PUSH0 PUSH0 CALLER PUSH20 0xFFFFFFFFFFFFFFFFFFFFFFFFFFFFFFFFFFFFFFFF AND PUSH20 0xFFFFFFFFFFFFFFFFFFFFFFFFFFFFFFFFFFFFFFFF AND DUP2 MSTORE PUSH1 0x20 ADD SWAP1 DUP2 MSTORE PUSH1 0x20 ADD PUSH0 KECCAK256 SWAP1 POP DUP1 PUSH1 0x2 ADD PUSH0 SWAP1 SLOAD SWAP1 PUSH2 0x100 EXP SWAP1 DIV PUSH1 0xFF AND PUSH2 0x1003 JUMPI PUSH1 0x40 MLOAD PUSH32 0x8C379A000000000000000000000000000000000000000000000000000000000 DUP2 MSTORE PUSH1 0x4 ADD PUSH2 0xFFA SWAP1 PUSH2 0x2501 JUMP JUMPDEST PUSH1 0x40 MLOAD DUP1 SWAP2 SUB SWAP1 REVERT JUMPDEST PUSH0 DUP2 PUSH1 0x1 ADD SLOAD SWAP1 POP PUSH0 DUP3 PUSH1 0x2 ADD PUSH0 PUSH2 0x100 EXP DUP2 SLOAD DUP2 PUSH1 0xFF MUL NOT AND SWAP1 DUP4 ISZERO ISZERO MUL OR SWAP1 SSTORE POP PUSH0 DUP3 PUSH1 0x1 ADD DUP2 SWAP1 SSTORE POP CALLER PUSH20 0xFFFFFFFFFFFFFFFFFFFFFFFFFFFFFFFFFFFFFFFF AND PUSH2 0x8FC DUP3 SWAP1 DUP2 ISZERO MUL SWAP1 PUSH1 0x40 MLOAD PUSH0 PUSH1 0x40 MLOAD DUP1 DUP4 SUB DUP2 DUP6 DUP9 DUP9 CALL SWAP4 POP POP POP POP ISZERO DUP1 ISZERO PUSH2 0x1072 JUMPI RETURNDATASIZE PUSH0 PUSH0 RETURNDATACOPY RETURNDATASIZE PUSH0 REVERT JUMPDEST POP CALLER PUSH20 0xFFFFFFFFFFFFFFFFFFFFFFFFFFFFFFFFFFFFFFFF AND PUSH32 0x610A1D949CC1CA7D4391B2530DEDA84F33B5F02DBD462643F21CD8A1B3CD573F DUP3 PUSH1 0x40 MLOAD PUSH2 0x10B9 SWAP2 SWAP1 PUSH2 0x22E1 JUMP JUMPDEST PUSH1 0x40 MLOAD DUP1 SWAP2 SUB SWAP1 LOG2 POP POP JUMP JUMPDEST PUSH1 0x2 SLOAD DUP2 JUMP JUMPDEST PUSH1 0x2 SLOAD CALLVALUE LT ISZERO PUSH2 0x1110 JUMPI PUSH1 0x40 MLOAD PUSH32 0x8C379A000000000000000000000000000000000000000000000000000000000 DUP2 MSTORE PUSH1 0x4 ADD PUSH2 0x1107 SWAP1 PUSH2 0x296B JUMP JUMPDEST PUSH1 0x40 MLOAD DUP1 SWAP2 SUB SWAP1 REVERT JUMPDEST PUSH0 PUSH0 CALLER PUSH20 0xFFFFFFFFFFFFFFFFFFFFFFFFFFFFFFFFFFFFFFFF AND PUSH20 0xFFFFFFFFFFFFFFFFFFFFFFFFFFFFFFFFFFFFFFFF AND DUP2 MSTORE PUSH1 0x20 ADD SWAP1 DUP2 MSTORE PUSH1 0x20 ADD PUSH0 KECCAK256 PUSH1 0x2 ADD PUSH0 SWAP1 SLOAD SWAP1 PUSH2 0x100 EXP SWAP1 DIV PUSH1 0xFF AND ISZERO PUSH2 0x119C JUMPI PUSH1 0x40 MLOAD PUSH32 0x8C379A000000000000000000000000000000000000000000000000000000000 DUP2 MSTORE PUSH1 0x4 ADD PUSH2 0x1193 SWAP1 PUSH2 0x29D3 JUMP JUMPDEST PUSH1 0x40 MLOAD DUP1 SWAP2 SUB SWAP1 REVERT JUMPDEST PUSH1 0x40 MLOAD DUP1 PUSH1 0x80 ADD PUSH1 0x40 MSTORE DUP1 CALLER PUSH20 0xFFFFFFFFFFFFFFFFFFFFFFFFFFFFFFFFFFFFFFFF AND DUP2 MSTORE PUSH1 0x20 ADD CALLVALUE DUP2 MSTORE PUSH1 0x20 ADD PUSH1 0x1 ISZERO ISZERO DUP2 MSTORE PUSH1 0x20 ADD PUSH0 DUP2 MSTORE POP PUSH0 PUSH0 CALLER PUSH20 0xFFFFFFFFFFFFFFFFFFFFFFFFFFFFFFFFFFFFFFFF AND PUSH20 0xFFFFFFFFFFFFFFFFFFFFFFFFFFFFFFFFFFFFFFFF AND DUP2 MSTORE PUSH1 0x20 ADD SWAP1 DUP2 MSTORE PUSH1 0x20 ADD PUSH0 KECCAK256 PUSH0 DUP3 ADD MLOAD DUP2 PUSH0 ADD PUSH0 PUSH2 0x100 EXP DUP2 SLOAD DUP2 PUSH20 0xFFFFFFFFFFFFFFFFFFFFFFFFFFFFFFFFFFFFFFFF MUL NOT AND SWAP1 DUP4 PUSH20 0xFFFFFFFFFFFFFFFFFFFFFFFFFFFFFFFFFFFFFFFF AND MUL OR SWAP1 SSTORE POP PUSH1 0x20 DUP3 ADD MLOAD DUP2 PUSH1 0x1 ADD SSTORE PUSH1 0x40 DUP3 ADD MLOAD DUP2 PUSH1 0x2 ADD PUSH0 PUSH2 0x100 EXP DUP2 SLOAD DUP2 PUSH1 0xFF MUL NOT AND SWAP1 DUP4 ISZERO ISZERO MUL OR SWAP1 SSTORE POP PUSH1 0x60 DUP3 ADD MLOAD DUP2 PUSH1 0x3 ADD SSTORE SWAP1 POP POP PUSH1 0x1 CALLER SWAP1 DUP1 PUSH1 0x1 DUP2 SLOAD ADD DUP1 DUP3 SSTORE DUP1 SWAP2 POP POP PUSH1 0x1 SWAP1 SUB SWAP1 PUSH0 MSTORE PUSH1 0x20 PUSH0 KECCAK256 ADD PUSH0 SWAP1 SWAP2 SWAP1 SWAP2 SWAP1 SWAP2 PUSH2 0x100 EXP DUP2 SLOAD DUP2 PUSH20 0xFFFFFFFFFFFFFFFFFFFFFFFFFFFFFFFFFFFFFFFF MUL NOT AND SWAP1 DUP4 PUSH20 0xFFFFFFFFFFFFFFFFFFFFFFFFFFFFFFFFFFFFFFFF AND MUL OR SWAP1 SSTORE POP CALLER PUSH20 0xFFFFFFFFFFFFFFFFFFFFFFFFFFFFFFFFFFFFFFFF AND PUSH32 0xC9626D754B3720DA351A26831DC4D1481CB9F2DD7EC9BA5356F710BCF4354B59 CALLVALUE PUSH1 0x40 MLOAD PUSH2 0x1332 SWAP2 SWAP1 PUSH2 0x22E1 JUMP JUMPDEST PUSH1 0x40 MLOAD DUP1 SWAP2 SUB SWAP1 LOG2 JUMP JUMPDEST PUSH1 0x7 PUSH1 0x20 MSTORE DUP2 PUSH0 MSTORE PUSH1 0x40 PUSH0 KECCAK256 PUSH1 0x20 MSTORE DUP1 PUSH0 MSTORE PUSH1 0x40 PUSH0 KECCAK256 PUSH0 SWAP2 POP SWAP2 POP SWAP1 SLOAD SWAP1 PUSH2 0x100 EXP SWAP1 DIV PUSH1 0xFF AND DUP2 JUMP JUMPDEST PUSH1 0x60 PUSH1 0x6 PUSH0 DUP4 DUP2 MSTORE PUSH1 0x20 ADD SWAP1 DUP2 MSTORE PUSH1 0x20 ADD PUSH0 KECCAK256 DUP1 SLOAD DUP1 PUSH1 0x20 MUL PUSH1 0x20 ADD PUSH1 0x40 MLOAD SWAP1 DUP2 ADD PUSH1 0x40 MSTORE DUP1 SWAP3 SWAP2 SWAP1 DUP2 DUP2 MSTORE PUSH1 0x20 ADD DUP3 DUP1 SLOAD DUP1 ISZERO PUSH2 0x13F6 JUMPI PUSH1 0x20 MUL DUP3 ADD SWAP2 SWAP1 PUSH0 MSTORE PUSH1 0x20 PUSH0 KECCAK256 SWAP1 JUMPDEST DUP2 PUSH0 SWAP1 SLOAD SWAP1 PUSH2 0x100 EXP SWAP1 DIV PUSH20 0xFFFFFFFFFFFFFFFFFFFFFFFFFFFFFFFFFFFFFFFF AND PUSH20 0xFFFFFFFFFFFFFFFFFFFFFFFFFFFFFFFFFFFFFFFF AND DUP2 MSTORE PUSH1 0x20 ADD SWAP1 PUSH1 0x1 ADD SWAP1 DUP1 DUP4 GT PUSH2 0x13AD JUMPI JUMPDEST POP POP POP POP POP SWAP1 POP SWAP2 SWAP1 POP JUMP JUMPDEST PUSH1 0x4 PUSH0 SWAP1 SLOAD SWAP1 PUSH2 0x100 EXP SWAP1 DIV PUSH20 0xFFFFFFFFFFFFFFFFFFFFFFFFFFFFFFFFFFFFFFFF AND PUSH20 0xFFFFFFFFFFFFFFFFFFFFFFFFFFFFFFFFFFFFFFFF AND CALLER PUSH20 0xFFFFFFFFFFFFFFFFFFFFFFFFFFFFFFFFFFFFFFFF AND EQ PUSH2 0x1491 JUMPI PUSH1 0x40 MLOAD PUSH32 0x8C379A000000000000000000000000000000000000000000000000000000000 DUP2 MSTORE PUSH1 0x4 ADD PUSH2 0x1488 SWAP1 PUSH2 0x27D1 JUMP JUMPDEST PUSH1 0x40 MLOAD DUP1 SWAP2 SUB SWAP1 REVERT JUMPDEST PUSH0 PUSH1 0x6 PUSH0 DUP4 DUP2 MSTORE PUSH1 0x20 ADD SWAP1 DUP2 MSTORE PUSH1 0x20 ADD PUSH0 KECCAK256 DUP1 SLOAD SWAP1 POP EQ PUSH2 0x14E7 JUMPI PUSH1 0x40 MLOAD PUSH32 0x8C379A000000000000000000000000000000000000000000000000000000000 DUP2 MSTORE PUSH1 0x4 ADD PUSH2 0x14DE SWAP1 PUSH2 0x2A3B JUMP JUMPDEST PUSH1 0x40 MLOAD DUP1 SWAP2 SUB SWAP1 REVERT JUMPDEST PUSH1 0x3 SLOAD PUSH1 0x1 DUP1 SLOAD SWAP1 POP LT ISZERO PUSH2 0x1531 JUMPI PUSH1 0x40 MLOAD PUSH32 0x8C379A000000000000000000000000000000000000000000000000000000000 DUP2 MSTORE PUSH1 0x4 ADD PUSH2 0x1528 SWAP1 PUSH2 0x2AA3 JUMP JUMPDEST PUSH1 0x40 MLOAD DUP1 SWAP2 SUB SWAP1 REVERT JUMPDEST PUSH0 PUSH1 0x1 DUP1 SLOAD SWAP1 POP PUSH8 0xFFFFFFFFFFFFFFFF DUP2 GT ISZERO PUSH2 0x1551 JUMPI PUSH2 0x1550 PUSH2 0x2AC1 JUMP JUMPDEST JUMPDEST PUSH1 0x40 MLOAD SWAP1 DUP1 DUP3 MSTORE DUP1 PUSH1 0x20 MUL PUSH1 0x20 ADD DUP3 ADD PUSH1 0x40 MSTORE DUP1 ISZERO PUSH2 0x157F JUMPI DUP2 PUSH1 0x20 ADD PUSH1 0x20 DUP3 MUL DUP1 CALLDATASIZE DUP4 CALLDATACOPY DUP1 DUP3 ADD SWAP2 POP POP SWAP1 POP JUMPDEST POP SWAP1 POP PUSH0 PUSH0 SWAP1 POP PUSH0 PUSH0 SWAP1 POP JUMPDEST PUSH1 0x1 DUP1 SLOAD SWAP1 POP DUP2 LT ISZERO PUSH2 0x16E8 JUMPI PUSH0 PUSH1 0x1 DUP3 DUP2 SLOAD DUP2 LT PUSH2 0x15AD JUMPI PUSH2 0x15AC PUSH2 0x251F JUMP JUMPDEST JUMPDEST SWAP1 PUSH0 MSTORE PUSH1 0x20 PUSH0 KECCAK256 ADD PUSH0 SWAP1 SLOAD SWAP1 PUSH2 0x100 EXP SWAP1 DIV PUSH20 0xFFFFFFFFFFFFFFFFFFFFFFFFFFFFFFFFFFFFFFFF AND SWAP1 POP PUSH0 PUSH0 DUP3 PUSH20 0xFFFFFFFFFFFFFFFFFFFFFFFFFFFFFFFFFFFFFFFF AND PUSH20 0xFFFFFFFFFFFFFFFFFFFFFFFFFFFFFFFFFFFFFFFF AND DUP2 MSTORE PUSH1 0x20 ADD SWAP1 DUP2 MSTORE PUSH1 0x20 ADD PUSH0 KECCAK256 PUSH1 0x2 ADD PUSH0 SWAP1 SLOAD SWAP1 PUSH2 0x100 EXP SWAP1 DIV PUSH1 0xFF AND DUP1 ISZERO PUSH2 0x167A JUMPI POP PUSH1 0x5 SLOAD PUSH0 PUSH0 DUP4 PUSH20 0xFFFFFFFFFFFFFFFFFFFFFFFFFFFFFFFFFFFFFFFF AND PUSH20 0xFFFFFFFFFFFFFFFFFFFFFFFFFFFFFFFFFFFFFFFF AND DUP2 MSTORE PUSH1 0x20 ADD SWAP1 DUP2 MSTORE PUSH1 0x20 ADD PUSH0 KECCAK256 PUSH1 0x3 ADD SLOAD PUSH2 0x1677 SWAP2 SWAP1 PUSH2 0x2AEE JUMP JUMPDEST DUP6 GT JUMPDEST ISZERO PUSH2 0x16DA JUMPI DUP1 DUP5 DUP5 DUP1 PUSH2 0x168C SWAP1 PUSH2 0x2649 JUMP JUMPDEST SWAP6 POP DUP2 MLOAD DUP2 LT PUSH2 0x169F JUMPI PUSH2 0x169E PUSH2 0x251F JUMP JUMPDEST JUMPDEST PUSH1 0x20 MUL PUSH1 0x20 ADD ADD SWAP1 PUSH20 0xFFFFFFFFFFFFFFFFFFFFFFFFFFFFFFFFFFFFFFFF AND SWAP1 DUP2 PUSH20 0xFFFFFFFFFFFFFFFFFFFFFFFFFFFFFFFFFFFFFFFF AND DUP2 MSTORE POP POP JUMPDEST POP DUP1 DUP1 PUSH1 0x1 ADD SWAP2 POP POP PUSH2 0x158B JUMP JUMPDEST POP PUSH0 PUSH1 0x3 SLOAD PUSH8 0xFFFFFFFFFFFFFFFF DUP2 GT ISZERO PUSH2 0x1706 JUMPI PUSH2 0x1705 PUSH2 0x2AC1 JUMP JUMPDEST JUMPDEST PUSH1 0x40 MLOAD SWAP1 DUP1 DUP3 MSTORE DUP1 PUSH1 0x20 MUL PUSH1 0x20 ADD DUP3 ADD PUSH1 0x40 MSTORE DUP1 ISZERO PUSH2 0x1734 JUMPI DUP2 PUSH1 0x20 ADD PUSH1 0x20 DUP3 MUL DUP1 CALLDATASIZE DUP4 CALLDATACOPY DUP1 DUP3 ADD SWAP2 POP POP SWAP1 POP JUMPDEST POP SWAP1 POP PUSH0 PUSH0 SWAP1 POP PUSH0 TIMESTAMP DUP7 PUSH1 0x40 MLOAD PUSH1 0x20 ADD PUSH2 0x174F SWAP3 SWAP2 SWAP1 PUSH2 0x2B41 JUMP JUMPDEST PUSH1 0x40 MLOAD PUSH1 0x20 DUP2 DUP4 SUB SUB DUP2 MSTORE SWAP1 PUSH1 0x40 MSTORE DUP1 MLOAD SWAP1 PUSH1 0x20 ADD KECCAK256 PUSH0 SHR SWAP1 POP PUSH0 PUSH0 SWAP1 POP JUMPDEST PUSH1 0x3 SLOAD DUP4 LT DUP1 ISZERO PUSH2 0x178A JUMPI POP PUSH1 0x2 DUP6 PUSH2 0x1787 SWAP2 SWAP1 PUSH2 0x2B6C JUMP JUMPDEST DUP2 LT JUMPDEST ISZERO PUSH2 0x18CE JUMPI PUSH0 DUP7 DUP7 DUP5 DUP5 PUSH1 0x40 MLOAD PUSH1 0x20 ADD PUSH2 0x17A5 SWAP3 SWAP2 SWAP1 PUSH2 0x2B41 JUMP JUMPDEST PUSH1 0x40 MLOAD PUSH1 0x20 DUP2 DUP4 SUB SUB DUP2 MSTORE SWAP1 PUSH1 0x40 MSTORE DUP1 MLOAD SWAP1 PUSH1 0x20 ADD KECCAK256 PUSH0 SHR PUSH2 0x17C7 SWAP2 SWAP1 PUSH2 0x2BDA JUMP JUMPDEST DUP2 MLOAD DUP2 LT PUSH2 0x17D8 JUMPI PUSH2 0x17D7 PUSH2 0x251F JUMP JUMPDEST JUMPDEST PUSH1 0x20 MUL PUSH1 0x20 ADD ADD MLOAD SWAP1 POP PUSH0 PUSH0 SWAP1 POP PUSH0 PUSH0 SWAP1 POP JUMPDEST DUP6 DUP2 LT ISZERO PUSH2 0x1856 JUMPI DUP3 PUSH20 0xFFFFFFFFFFFFFFFFFFFFFFFFFFFFFFFFFFFFFFFF AND DUP8 DUP3 DUP2 MLOAD DUP2 LT PUSH2 0x181D JUMPI PUSH2 0x181C PUSH2 0x251F JUMP JUMPDEST JUMPDEST PUSH1 0x20 MUL PUSH1 0x20 ADD ADD MLOAD PUSH20 0xFFFFFFFFFFFFFFFFFFFFFFFFFFFFFFFFFFFFFFFF AND SUB PUSH2 0x1849 JUMPI PUSH1 0x1 SWAP2 POP PUSH2 0x1856 JUMP JUMPDEST DUP1 DUP1 PUSH1 0x1 ADD SWAP2 POP POP PUSH2 0x17EB JUMP JUMPDEST POP DUP1 PUSH2 0x18B9 JUMPI DUP2 DUP7 DUP7 DUP2 MLOAD DUP2 LT PUSH2 0x1870 JUMPI PUSH2 0x186F PUSH2 0x251F JUMP JUMPDEST JUMPDEST PUSH1 0x20 MUL PUSH1 0x20 ADD ADD SWAP1 PUSH20 0xFFFFFFFFFFFFFFFFFFFFFFFFFFFFFFFFFFFFFFFF AND SWAP1 DUP2 PUSH20 0xFFFFFFFFFFFFFFFFFFFFFFFFFFFFFFFFFFFFFFFF AND DUP2 MSTORE POP POP DUP5 DUP1 PUSH2 0x18B5 SWAP1 PUSH2 0x2649 JUMP JUMPDEST SWAP6 POP POP JUMPDEST DUP3 DUP1 PUSH2 0x18C4 SWAP1 PUSH2 0x2649 JUMP JUMPDEST SWAP4 POP POP POP POP PUSH2 0x176E JUMP JUMPDEST PUSH1 0x3 SLOAD DUP4 LT ISZERO PUSH2 0x1A76 JUMPI PUSH0 PUSH0 SWAP1 POP JUMPDEST PUSH1 0x1 DUP1 SLOAD SWAP1 POP DUP2 LT DUP1 ISZERO PUSH2 0x18F2 JUMPI POP PUSH1 0x3 SLOAD DUP5 LT JUMPDEST ISZERO PUSH2 0x1A74 JUMPI PUSH0 PUSH1 0x1 DUP3 DUP2 SLOAD DUP2 LT PUSH2 0x190C JUMPI PUSH2 0x190B PUSH2 0x251F JUMP JUMPDEST JUMPDEST SWAP1 PUSH0 MSTORE PUSH1 0x20 PUSH0 KECCAK256 ADD PUSH0 SWAP1 SLOAD SWAP1 PUSH2 0x100 EXP SWAP1 DIV PUSH20 0xFFFFFFFFFFFFFFFFFFFFFFFFFFFFFFFFFFFFFFFF AND SWAP1 POP PUSH0 PUSH0 DUP3 PUSH20 0xFFFFFFFFFFFFFFFFFFFFFFFFFFFFFFFFFFFFFFFF AND PUSH20 0xFFFFFFFFFFFFFFFFFFFFFFFFFFFFFFFFFFFFFFFF AND DUP2 MSTORE PUSH1 0x20 ADD SWAP1 DUP2 MSTORE PUSH1 0x20 ADD PUSH0 KECCAK256 PUSH1 0x2 ADD PUSH0 SWAP1 SLOAD SWAP1 PUSH2 0x100 EXP SWAP1 DIV PUSH1 0xFF AND ISZERO PUSH2 0x1A60 JUMPI PUSH0 PUSH0 SWAP1 POP PUSH0 PUSH0 SWAP1 POP JUMPDEST DUP7 DUP2 LT ISZERO PUSH2 0x19FB JUMPI DUP3 PUSH20 0xFFFFFFFFFFFFFFFFFFFFFFFFFFFFFFFFFFFFFFFF AND DUP9 DUP3 DUP2 MLOAD DUP2 LT PUSH2 0x19C2 JUMPI PUSH2 0x19C1 PUSH2 0x251F JUMP JUMPDEST JUMPDEST PUSH1 0x20 MUL PUSH1 0x20 ADD ADD MLOAD PUSH20 0xFFFFFFFFFFFFFFFFFFFFFFFFFFFFFFFFFFFFFFFF AND SUB PUSH2 0x19EE JUMPI PUSH1 0x1 SWAP2 POP PUSH2 0x19FB JUMP JUMPDEST DUP1 DUP1 PUSH1 0x1 ADD SWAP2 POP POP PUSH2 0x1990 JUMP JUMPDEST POP DUP1 PUSH2 0x1A5E JUMPI DUP2 DUP8 DUP8 DUP2 MLOAD DUP2 LT PUSH2 0x1A15 JUMPI PUSH2 0x1A14 PUSH2 0x251F JUMP JUMPDEST JUMPDEST PUSH1 0x20 MUL PUSH1 0x20 ADD ADD SWAP1 PUSH20 0xFFFFFFFFFFFFFFFFFFFFFFFFFFFFFFFFFFFFFFFF AND SWAP1 DUP2 PUSH20 0xFFFFFFFFFFFFFFFFFFFFFFFFFFFFFFFFFFFFFFFF AND DUP2 MSTORE POP POP DUP6 DUP1 PUSH2 0x1A5A SWAP1 PUSH2 0x2649 JUMP JUMPDEST SWAP7 POP POP JUMPDEST POP JUMPDEST POP DUP1 DUP1 PUSH2 0x1A6C SWAP1 PUSH2 0x2649 JUMP JUMPDEST SWAP2 POP POP PUSH2 0x18DD JUMP JUMPDEST POP JUMPDEST PUSH1 0x3 SLOAD DUP4 EQ PUSH2 0x1ABA JUMPI PUSH1 0x40 MLOAD PUSH32 0x8C379A000000000000000000000000000000000000000000000000000000000 DUP2 MSTORE PUSH1 0x4 ADD PUSH2 0x1AB1 SWAP1 PUSH2 0x2C54 JUMP JUMPDEST PUSH1 0x40 MLOAD DUP1 SWAP2 SUB SWAP1 REVERT JUMPDEST DUP4 PUSH1 0x6 PUSH0 DUP10 DUP2 MSTORE PUSH1 0x20 ADD SWAP1 DUP2 MSTORE PUSH1 0x20 ADD PUSH0 KECCAK256 SWAP1 DUP1 MLOAD SWAP1 PUSH1 0x20 ADD SWAP1 PUSH2 0x1ADF SWAP3 SWAP2 SWAP1 PUSH2 0x20D0 JUMP JUMPDEST POP PUSH0 PUSH0 SWAP1 POP JUMPDEST DUP5 MLOAD DUP2 LT ISZERO PUSH2 0x1B59 JUMPI DUP8 PUSH0 PUSH0 DUP8 DUP5 DUP2 MLOAD DUP2 LT PUSH2 0x1B04 JUMPI PUSH2 0x1B03 PUSH2 0x251F JUMP JUMPDEST JUMPDEST PUSH1 0x20 MUL PUSH1 0x20 ADD ADD MLOAD PUSH20 0xFFFFFFFFFFFFFFFFFFFFFFFFFFFFFFFFFFFFFFFF AND PUSH20 0xFFFFFFFFFFFFFFFFFFFFFFFFFFFFFFFFFFFFFFFF AND DUP2 MSTORE PUSH1 0x20 ADD SWAP1 DUP2 MSTORE PUSH1 0x20 ADD PUSH0 KECCAK256 PUSH1 0x3 ADD DUP2 SWAP1 SSTORE POP DUP1 DUP1 PUSH1 0x1 ADD SWAP2 POP POP PUSH2 0x1AE5 JUMP JUMPDEST POP DUP7 PUSH32 0x5623BB8130AC6988AB91C966D08C23B84DE074A147BB0A3677A9E322B0A5145B DUP6 PUSH1 0x40 MLOAD PUSH2 0x1B8A SWAP2 SWAP1 PUSH2 0x23E4 JUMP JUMPDEST PUSH1 0x40 MLOAD DUP1 SWAP2 SUB SWAP1 LOG2 POP POP POP POP POP POP POP JUMP JUMPDEST PUSH1 0x5 SLOAD DUP2 JUMP JUMPDEST PUSH1 0x9 PUSH1 0x20 MSTORE DUP1 PUSH0 MSTORE PUSH1 0x40 PUSH0 KECCAK256 PUSH0 SWAP2 POP SWAP1 POP SLOAD DUP2 JUMP JUMPDEST PUSH1 0x4 PUSH1 0x14 SWAP1 SLOAD SWAP1 PUSH2 0x100 EXP SWAP1 DIV PUSH1 0xFF AND ISZERO PUSH2 0x1C06 JUMPI PUSH1 0x40 MLOAD PUSH32 0x8C379A000000000000000000000000000000000000000000000000000000000 DUP2 MSTORE PUSH1 0x4 ADD PUSH2 0x1BFD SWAP1 PUSH2 0x2CBC JUMP JUMPDEST PUSH1 0x40 MLOAD DUP1 SWAP2 SUB SWAP1 REVERT JUMPDEST PUSH0 PUSH20 0xFFFFFFFFFFFFFFFFFFFFFFFFFFFFFFFFFFFFFFFF AND DUP2 PUSH20 0xFFFFFFFFFFFFFFFFFFFFFFFFFFFFFFFFFFFFFFFF AND SUB PUSH2 0x1C74 JUMPI PUSH1 0x40 MLOAD PUSH32 0x8C379A000000000000000000000000000000000000000000000000000000000 DUP2 MSTORE PUSH1 0x4 ADD PUSH2 0x1C6B SWAP1 PUSH2 0x2D24 JUMP JUMPDEST PUSH1 0x40 MLOAD DUP1 SWAP2 SUB SWAP1 REVERT JUMPDEST DUP1 PUSH1 0x4 PUSH0 PUSH2 0x100 EXP DUP2 SLOAD DUP2 PUSH20 0xFFFFFFFFFFFFFFFFFFFFFFFFFFFFFFFFFFFFFFFF MUL NOT AND SWAP1 DUP4 PUSH20 0xFFFFFFFFFFFFFFFFFFFFFFFFFFFFFFFFFFFFFFFF AND MUL OR SWAP1 SSTORE POP PUSH1 0x1 PUSH1 0x4 PUSH1 0x14 PUSH2 0x100 EXP DUP2 SLOAD DUP2 PUSH1 0xFF MUL NOT AND SWAP1 DUP4 ISZERO ISZERO MUL OR SWAP1 SSTORE POP POP JUMP JUMPDEST PUSH7 0xAA87BEE538000 DUP2 JUMP JUMPDEST PUSH1 0x60 PUSH0 PUSH0 SWAP1 POP PUSH0 PUSH0 SWAP1 POP JUMPDEST PUSH1 0x1 DUP1 SLOAD SWAP1 POP DUP2 LT ISZERO PUSH2 0x1D9D JUMPI PUSH0 PUSH0 PUSH1 0x1 DUP4 DUP2 SLOAD DUP2 LT PUSH2 0x1D0B JUMPI PUSH2 0x1D0A PUSH2 0x251F JUMP JUMPDEST JUMPDEST SWAP1 PUSH0 MSTORE PUSH1 0x20 PUSH0 KECCAK256 ADD PUSH0 SWAP1 SLOAD SWAP1 PUSH2 0x100 EXP SWAP1 DIV PUSH20 0xFFFFFFFFFFFFFFFFFFFFFFFFFFFFFFFFFFFFFFFF AND PUSH20 0xFFFFFFFFFFFFFFFFFFFFFFFFFFFFFFFFFFFFFFFF AND PUSH20 0xFFFFFFFFFFFFFFFFFFFFFFFFFFFFFFFFFFFFFFFF AND DUP2 MSTORE PUSH1 0x20 ADD SWAP1 DUP2 MSTORE PUSH1 0x20 ADD PUSH0 KECCAK256 PUSH1 0x2 ADD PUSH0 SWAP1 SLOAD SWAP1 PUSH2 0x100 EXP SWAP1 DIV PUSH1 0xFF AND ISZERO PUSH2 0x1D90 JUMPI DUP2 DUP1 PUSH2 0x1D8C SWAP1 PUSH2 0x2649 JUMP JUMPDEST SWAP3 POP POP JUMPDEST DUP1 DUP1 PUSH1 0x1 ADD SWAP2 POP POP PUSH2 0x1CE8 JUMP JUMPDEST POP PUSH0 DUP2 PUSH8 0xFFFFFFFFFFFFFFFF DUP2 GT ISZERO PUSH2 0x1DB9 JUMPI PUSH2 0x1DB8 PUSH2 0x2AC1 JUMP JUMPDEST JUMPDEST PUSH1 0x40 MLOAD SWAP1 DUP1 DUP3 MSTORE DUP1 PUSH1 0x20 MUL PUSH1 0x20 ADD DUP3 ADD PUSH1 0x40 MSTORE DUP1 ISZERO PUSH2 0x1DE7 JUMPI DUP2 PUSH1 0x20 ADD PUSH1 0x20 DUP3 MUL DUP1 CALLDATASIZE DUP4 CALLDATACOPY DUP1 DUP3 ADD SWAP2 POP POP SWAP1 POP JUMPDEST POP SWAP1 POP PUSH0 PUSH0 SWAP1 POP PUSH0 PUSH0 SWAP1 POP JUMPDEST PUSH1 0x1 DUP1 SLOAD SWAP1 POP DUP2 LT ISZERO PUSH2 0x1F2F JUMPI PUSH0 PUSH0 PUSH1 0x1 DUP4 DUP2 SLOAD DUP2 LT PUSH2 0x1E16 JUMPI PUSH2 0x1E15 PUSH2 0x251F JUMP JUMPDEST JUMPDEST SWAP1 PUSH0 MSTORE PUSH1 0x20 PUSH0 KECCAK256 ADD PUSH0 SWAP1 SLOAD SWAP1 PUSH2 0x100 EXP SWAP1 DIV PUSH20 0xFFFFFFFFFFFFFFFFFFFFFFFFFFFFFFFFFFFFFFFF AND PUSH20 0xFFFFFFFFFFFFFFFFFFFFFFFFFFFFFFFFFFFFFFFF AND PUSH20 0xFFFFFFFFFFFFFFFFFFFFFFFFFFFFFFFFFFFFFFFF AND DUP2 MSTORE PUSH1 0x20 ADD SWAP1 DUP2 MSTORE PUSH1 0x20 ADD PUSH0 KECCAK256 PUSH1 0x2 ADD PUSH0 SWAP1 SLOAD SWAP1 PUSH2 0x100 EXP SWAP1 DIV PUSH1 0xFF AND ISZERO PUSH2 0x1F22 JUMPI PUSH1 0x1 DUP2 DUP2 SLOAD DUP2 LT PUSH2 0x1EA0 JUMPI PUSH2 0x1E9F PUSH2 0x251F JUMP JUMPDEST JUMPDEST SWAP1 PUSH0 MSTORE PUSH1 0x20 PUSH0 KECCAK256 ADD PUSH0 SWAP1 SLOAD SWAP1 PUSH2 0x100 EXP SWAP1 DIV PUSH20 0xFFFFFFFFFFFFFFFFFFFFFFFFFFFFFFFFFFFFFFFF AND DUP4 DUP4 DUP1 PUSH2 0x1ED4 SWAP1 PUSH2 0x2649 JUMP JUMPDEST SWAP5 POP DUP2 MLOAD DUP2 LT PUSH2 0x1EE7 JUMPI PUSH2 0x1EE6 PUSH2 0x251F JUMP JUMPDEST JUMPDEST PUSH1 0x20 MUL PUSH1 0x20 ADD ADD SWAP1 PUSH20 0xFFFFFFFFFFFFFFFFFFFFFFFFFFFFFFFFFFFFFFFF AND SWAP1 DUP2 PUSH20 0xFFFFFFFFFFFFFFFFFFFFFFFFFFFFFFFFFFFFFFFF AND DUP2 MSTORE POP POP JUMPDEST DUP1 DUP1 PUSH1 0x1 ADD SWAP2 POP POP PUSH2 0x1DF3 JUMP JUMPDEST POP DUP2 SWAP4 POP POP POP POP SWAP1 JUMP JUMPDEST PUSH1 0x1 DUP2 DUP2 SLOAD DUP2 LT PUSH2 0x1F48 JUMPI PUSH0 DUP1 REVERT JUMPDEST SWAP1 PUSH0 MSTORE PUSH1 0x20 PUSH0 KECCAK256 ADD PUSH0 SWAP2 POP SLOAD SWAP1 PUSH2 0x100 EXP SWAP1 DIV PUSH20 0xFFFFFFFFFFFFFFFFFFFFFFFFFFFFFFFFFFFFFFFF AND DUP2 JUMP JUMPDEST PUSH1 0xA PUSH1 0x20 MSTORE DUP2 PUSH0 MSTORE PUSH1 0x40 PUSH0 KECCAK256 PUSH1 0x20 MSTORE DUP1 PUSH0 MSTORE PUSH1 0x40 PUSH0 KECCAK256 PUSH0 SWAP2 POP SWAP2 POP POP SLOAD DUP2 JUMP JUMPDEST PUSH1 0x4 PUSH0 SWAP1 SLOAD SWAP1 PUSH2 0x100 EXP SWAP1 DIV PUSH20 0xFFFFFFFFFFFFFFFFFFFFFFFFFFFFFFFFFFFFFFFF AND DUP2 JUMP JUMPDEST PUSH1 0x8 PUSH1 0x20 MSTORE DUP2 PUSH0 MSTORE PUSH1 0x40 PUSH0 KECCAK256 PUSH1 0x20 MSTORE DUP1 PUSH0 MSTORE PUSH1 0x40 PUSH0 KECCAK256 PUSH0 SWAP2 POP SWAP2 POP SWAP1 SLOAD SWAP1 PUSH2 0x100 EXP SWAP1 DIV PUSH20 0xFFFFFFFFFFFFFFFFFFFFFFFFFFFFFFFFFFFFFFFF AND DUP2 JUMP JUMPDEST PUSH1 0x3 SLOAD DUP2 JUMP JUMPDEST PUSH0 PUSH1 0x20 MSTORE DUP1 PUSH0 MSTORE PUSH1 0x40 PUSH0 KECCAK256 PUSH0 SWAP2 POP SWAP1 POP DUP1 PUSH0 ADD PUSH0 SWAP1 SLOAD SWAP1 PUSH2 0x100 EXP SWAP1 DIV PUSH20 0xFFFFFFFFFFFFFFFFFFFFFFFFFFFFFFFFFFFFFFFF AND SWAP1 DUP1 PUSH1 0x1 ADD SLOAD SWAP1 DUP1 PUSH1 0x2 ADD PUSH0 SWAP1 SLOAD SWAP1 PUSH2 0x100 EXP SWAP1 DIV PUSH1 0xFF AND SWAP1 DUP1 PUSH1 0x3 ADD SLOAD SWAP1 POP DUP5 JUMP JUMPDEST PUSH1 0x4 PUSH1 0x14 SWAP1 SLOAD SWAP1 PUSH2 0x100 EXP SWAP1 DIV PUSH1 0xFF AND DUP2 JUMP JUMPDEST PUSH0 PUSH0 PUSH0 PUSH0 PUSH0 PUSH0 DUP7 PUSH20 0xFFFFFFFFFFFFFFFFFFFFFFFFFFFFFFFFFFFFFFFF AND PUSH20 0xFFFFFFFFFFFFFFFFFFFFFFFFFFFFFFFFFFFFFFFF AND DUP2 MSTORE PUSH1 0x20 ADD SWAP1 DUP2 MSTORE PUSH1 0x20 ADD PUSH0 KECCAK256 SWAP1 POP DUP1 PUSH1 0x1 ADD SLOAD DUP2 PUSH1 0x2 ADD PUSH0 SWAP1 SLOAD SWAP1 PUSH2 0x100 EXP SWAP1 DIV PUSH1 0xFF AND DUP3 PUSH1 0x3 ADD SLOAD SWAP4 POP SWAP4 POP SWAP4 POP POP SWAP2 SWAP4 SWAP1 SWAP3 POP JUMP JUMPDEST DUP3 DUP1 SLOAD DUP3 DUP3 SSTORE SWAP1 PUSH0 MSTORE PUSH1 0x20 PUSH0 KECCAK256 SWAP1 DUP2 ADD SWAP3 DUP3 ISZERO PUSH2 0x2146 JUMPI SWAP2 PUSH1 0x20 MUL DUP3 ADD JUMPDEST DUP3 DUP2 GT ISZERO PUSH2 0x2145 JUMPI DUP3 MLOAD DUP3 PUSH0 PUSH2 0x100 EXP DUP2 SLOAD DUP2 PUSH20 0xFFFFFFFFFFFFFFFFFFFFFFFFFFFFFFFFFFFFFFFF MUL NOT AND SWAP1 DUP4 PUSH20 0xFFFFFFFFFFFFFFFFFFFFFFFFFFFFFFFFFFFFFFFF AND MUL OR SWAP1 SSTORE POP SWAP2 PUSH1 0x20 ADD SWAP2 SWAP1 PUSH1 0x1 ADD SWAP1 PUSH2 0x20EE JUMP JUMPDEST JUMPDEST POP SWAP1 POP PUSH2 0x2153 SWAP2 SWAP1 PUSH2 0x2157 JUMP JUMPDEST POP SWAP1 JUMP JUMPDEST JUMPDEST DUP1 DUP3 GT ISZERO PUSH2 0x216E JUMPI PUSH0 DUP2 PUSH0 SWAP1 SSTORE POP PUSH1 0x1 ADD PUSH2 0x2158 JUMP JUMPDEST POP SWAP1 JUMP JUMPDEST PUSH0 PUSH0 REVERT JUMPDEST PUSH0 DUP2 SWAP1 POP SWAP2 SWAP1 POP JUMP JUMPDEST PUSH2 0x2188 DUP2 PUSH2 0x2176 JUMP JUMPDEST DUP2 EQ PUSH2 0x2192 JUMPI PUSH0 PUSH0 REVERT JUMPDEST POP JUMP JUMPDEST PUSH0 DUP2 CALLDATALOAD SWAP1 POP PUSH2 0x21A3 DUP2 PUSH2 0x217F JUMP JUMPDEST SWAP3 SWAP2 POP POP JUMP JUMPDEST PUSH0 PUSH20 0xFFFFFFFFFFFFFFFFFFFFFFFFFFFFFFFFFFFFFFFF DUP3 AND SWAP1 POP SWAP2 SWAP1 POP JUMP JUMPDEST PUSH0 PUSH2 0x21D2 DUP3 PUSH2 0x21A9 JUMP JUMPDEST SWAP1 POP SWAP2 SWAP1 POP JUMP JUMPDEST PUSH2 0x21E2 DUP2 PUSH2 0x21C8 JUMP JUMPDEST DUP2 EQ PUSH2 0x21EC JUMPI PUSH0 PUSH0 REVERT JUMPDEST POP JUMP JUMPDEST PUSH0 DUP2 CALLDATALOAD SWAP1 POP PUSH2 0x21FD DUP2 PUSH2 0x21D9 JUMP JUMPDEST SWAP3 SWAP2 POP POP JUMP JUMPDEST PUSH0 PUSH0 PUSH1 0x40 DUP4 DUP6 SUB SLT ISZERO PUSH2 0x2219 JUMPI PUSH2 0x2218 PUSH2 0x2172 JUMP JUMPDEST JUMPDEST PUSH0 PUSH2 0x2226 DUP6 DUP3 DUP7 ADD PUSH2 0x2195 JUMP JUMPDEST SWAP3 POP POP PUSH1 0x20 PUSH2 0x2237 DUP6 DUP3 DUP7 ADD PUSH2 0x21EF JUMP JUMPDEST SWAP2 POP POP SWAP3 POP SWAP3 SWAP1 POP JUMP JUMPDEST PUSH0 PUSH1 0x20 DUP3 DUP5 SUB SLT ISZERO PUSH2 0x2256 JUMPI PUSH2 0x2255 PUSH2 0x2172 JUMP JUMPDEST JUMPDEST PUSH0 PUSH2 0x2263 DUP5 DUP3 DUP6 ADD PUSH2 0x2195 JUMP JUMPDEST SWAP2 POP POP SWAP3 SWAP2 POP POP JUMP JUMPDEST PUSH0 PUSH0 PUSH1 0x40 DUP4 DUP6 SUB SLT ISZERO PUSH2 0x2282 JUMPI PUSH2 0x2281 PUSH2 0x2172 JUMP JUMPDEST JUMPDEST PUSH0 PUSH2 0x228F DUP6 DUP3 DUP7 ADD PUSH2 0x2195 JUMP JUMPDEST SWAP3 POP POP PUSH1 0x20 PUSH2 0x22A0 DUP6 DUP3 DUP7 ADD PUSH2 0x2195 JUMP JUMPDEST SWAP2 POP POP SWAP3 POP SWAP3 SWAP1 POP JUMP JUMPDEST PUSH2 0x22B3 DUP2 PUSH2 0x21C8 JUMP JUMPDEST DUP3 MSTORE POP POP JUMP JUMPDEST PUSH0 PUSH1 0x20 DUP3 ADD SWAP1 POP PUSH2 0x22CC PUSH0 DUP4 ADD DUP5 PUSH2 0x22AA JUMP JUMPDEST SWAP3 SWAP2 POP POP JUMP JUMPDEST PUSH2 0x22DB DUP2 PUSH2 0x2176 JUMP JUMPDEST DUP3 MSTORE POP POP JUMP JUMPDEST PUSH0 PUSH1 0x20 DUP3 ADD SWAP1 POP PUSH2 0x22F4 PUSH0 DUP4 ADD DUP5 PUSH2 0x22D2 JUMP JUMPDEST SWAP3 SWAP2 POP POP JUMP JUMPDEST PUSH0 DUP2 ISZERO ISZERO SWAP1 POP SWAP2 SWAP1 POP JUMP JUMPDEST PUSH2 0x230E DUP2 PUSH2 0x22FA JUMP JUMPDEST DUP3 MSTORE POP POP JUMP JUMPDEST PUSH0 PUSH1 0x20 DUP3 ADD SWAP1 POP PUSH2 0x2327 PUSH0 DUP4 ADD DUP5 PUSH2 0x2305 JUMP JUMPDEST SWAP3 SWAP2 POP POP JUMP JUMPDEST PUSH0 DUP2 MLOAD SWAP1 POP SWAP2 SWAP1 POP JUMP JUMPDEST PUSH0 DUP3 DUP3 MSTORE PUSH1 0x20 DUP3 ADD SWAP1 POP SWAP3 SWAP2 POP POP JUMP JUMPDEST PUSH0 DUP2 SWAP1 POP PUSH1 0x20 DUP3 ADD SWAP1 POP SWAP2 SWAP1 POP JUMP JUMPDEST PUSH2 0x235F DUP2 PUSH2 0x21C8 JUMP JUMPDEST DUP3 MSTORE POP POP JUMP JUMPDEST PUSH0 PUSH2 0x2370 DUP4 DUP4 PUSH2 0x2356 JUMP JUMPDEST PUSH1 0x20 DUP4 ADD SWAP1 POP SWAP3 SWAP2 POP POP JUMP JUMPDEST PUSH0 PUSH1 0x20 DUP3 ADD SWAP1 POP SWAP2 SWAP1 POP JUMP JUMPDEST PUSH0 PUSH2 0x2392 DUP3 PUSH2 0x232D JUMP JUMPDEST PUSH2 0x239C DUP2 DUP6 PUSH2 0x2337 JUMP JUMPDEST SWAP4 POP PUSH2 0x23A7 DUP4 PUSH2 0x2347 JUMP JUMPDEST DUP1 PUSH0 JUMPDEST DUP4 DUP2 LT ISZERO PUSH2 0x23D7 JUMPI DUP2 MLOAD PUSH2 0x23BE DUP9 DUP3 PUSH2 0x2365 JUMP JUMPDEST SWAP8 POP PUSH2 0x23C9 DUP4 PUSH2 0x237C JUMP JUMPDEST SWAP3 POP POP PUSH1 0x1 DUP2 ADD SWAP1 POP PUSH2 0x23AA JUMP JUMPDEST POP DUP6 SWAP4 POP POP POP POP SWAP3 SWAP2 POP POP JUMP JUMPDEST PUSH0 PUSH1 0x20 DUP3 ADD SWAP1 POP DUP2 DUP2 SUB PUSH0 DUP4 ADD MSTORE PUSH2 0x23FC DUP2 DUP5 PUSH2 0x2388 JUMP JUMPDEST SWAP1 POP SWAP3 SWAP2 POP POP JUMP JUMPDEST PUSH0 PUSH1 0x20 DUP3 DUP5 SUB SLT ISZERO PUSH2 0x2419 JUMPI PUSH2 0x2418 PUSH2 0x2172 JUMP JUMPDEST JUMPDEST PUSH0 PUSH2 0x2426 DUP5 DUP3 DUP6 ADD PUSH2 0x21EF JUMP JUMPDEST SWAP2 POP POP SWAP3 SWAP2 POP POP JUMP JUMPDEST PUSH0 PUSH1 0x80 DUP3 ADD SWAP1 POP PUSH2 0x2442 PUSH0 DUP4 ADD DUP8 PUSH2 0x22AA JUMP JUMPDEST PUSH2 0x244F PUSH1 0x20 DUP4 ADD DUP7 PUSH2 0x22D2 JUMP JUMPDEST PUSH2 0x245C PUSH1 0x40 DUP4 ADD DUP6 PUSH2 0x2305 JUMP JUMPDEST PUSH2 0x2469 PUSH1 0x60 DUP4 ADD DUP5 PUSH2 0x22D2 JUMP JUMPDEST SWAP6 SWAP5 POP POP POP POP POP JUMP JUMPDEST PUSH0 PUSH1 0x60 DUP3 ADD SWAP1 POP PUSH2 0x2485 PUSH0 DUP4 ADD DUP7 PUSH2 0x22D2 JUMP JUMPDEST PUSH2 0x2492 PUSH1 0x20 DUP4 ADD DUP6 PUSH2 0x2305 JUMP JUMPDEST PUSH2 0x249F PUSH1 0x40 DUP4 ADD DUP5 PUSH2 0x22D2 JUMP JUMPDEST SWAP5 SWAP4 POP POP POP POP JUMP JUMPDEST PUSH0 DUP3 DUP3 MSTORE PUSH1 0x20 DUP3 ADD SWAP1 POP SWAP3 SWAP2 POP POP JUMP JUMPDEST PUSH32 0x4E6F742061206A75726F72000000000000000000000000000000000000000000 PUSH0 DUP3 ADD MSTORE POP JUMP JUMPDEST PUSH0 PUSH2 0x24EB PUSH1 0xB DUP4 PUSH2 0x24A7 JUMP JUMPDEST SWAP2 POP PUSH2 0x24F6 DUP3 PUSH2 0x24B7 JUMP JUMPDEST PUSH1 0x20 DUP3 ADD SWAP1 POP SWAP2 SWAP1 POP JUMP JUMPDEST PUSH0 PUSH1 0x20 DUP3 ADD SWAP1 POP DUP2 DUP2 SUB PUSH0 DUP4 ADD MSTORE PUSH2 0x2518 DUP2 PUSH2 0x24DF JUMP JUMPDEST SWAP1 POP SWAP2 SWAP1 POP JUMP JUMPDEST PUSH32 0x4E487B7100000000000000000000000000000000000000000000000000000000 PUSH0 MSTORE PUSH1 0x32 PUSH1 0x4 MSTORE PUSH1 0x24 PUSH0 REVERT JUMPDEST PUSH32 0x4E6F742073656C6563746564206A75726F720000000000000000000000000000 PUSH0 DUP3 ADD MSTORE POP JUMP JUMPDEST PUSH0 PUSH2 0x2580 PUSH1 0x12 DUP4 PUSH2 0x24A7 JUMP JUMPDEST SWAP2 POP PUSH2 0x258B DUP3 PUSH2 0x254C JUMP JUMPDEST PUSH1 0x20 DUP3 ADD SWAP1 POP SWAP2 SWAP1 POP JUMP JUMPDEST PUSH0 PUSH1 0x20 DUP3 ADD SWAP1 POP DUP2 DUP2 SUB PUSH0 DUP4 ADD MSTORE PUSH2 0x25AD DUP2 PUSH2 0x2574 JUMP JUMPDEST SWAP1 POP SWAP2 SWAP1 POP JUMP JUMPDEST PUSH32 0x416C726561647920766F74656400000000000000000000000000000000000000 PUSH0 DUP3 ADD MSTORE POP JUMP JUMPDEST PUSH0 PUSH2 0x25E8 PUSH1 0xD DUP4 PUSH2 0x24A7 JUMP JUMPDEST SWAP2 POP PUSH2 0x25F3 DUP3 PUSH2 0x25B4 JUMP JUMPDEST PUSH1 0x20 DUP3 ADD SWAP1 POP SWAP2 SWAP1 POP JUMP JUMPDEST PUSH0 PUSH1 0x20 DUP3 ADD SWAP1 POP DUP2 DUP2 SUB PUSH0 DUP4 ADD MSTORE PUSH2 0x2615 DUP2 PUSH2 0x25DC JUMP JUMPDEST SWAP1 POP SWAP2 SWAP1 POP JUMP JUMPDEST PUSH32 0x4E487B7100000000000000000000000000000000000000000000000000000000 PUSH0 MSTORE PUSH1 0x11 PUSH1 0x4 MSTORE PUSH1 0x24 PUSH0 REVERT JUMPDEST PUSH0 PUSH2 0x2653 DUP3 PUSH2 0x2176 JUMP JUMPDEST SWAP2 POP PUSH32 0xFFFFFFFFFFFFFFFFFFFFFFFFFFFFFFFFFFFFFFFFFFFFFFFFFFFFFFFFFFFFFFFF DUP3 SUB PUSH2 0x2685 JUMPI PUSH2 0x2684 PUSH2 0x261C JUMP JUMPDEST JUMPDEST PUSH1 0x1 DUP3 ADD SWAP1 POP SWAP2 SWAP1 POP JUMP JUMPDEST PUSH0 PUSH1 0x40 DUP3 ADD SWAP1 POP PUSH2 0x26A3 PUSH0 DUP4 ADD DUP6 PUSH2 0x22D2 JUMP JUMPDEST PUSH2 0x26B0 PUSH1 0x20 DUP4 ADD DUP5 PUSH2 0x22AA JUMP JUMPDEST SWAP4 SWAP3 POP POP POP JUMP JUMPDEST PUSH0 DUP2 MLOAD SWAP1 POP SWAP2 SWAP1 POP JUMP JUMPDEST PUSH0 DUP2 SWAP1 POP SWAP3 SWAP2 POP POP JUMP JUMPDEST DUP3 DUP2 DUP4 MCOPY PUSH0 DUP4 DUP4 ADD MSTORE POP POP POP JUMP JUMPDEST PUSH0 PUSH2 0x26E3 DUP3 PUSH2 0x26B7 JUMP JUMPDEST PUSH2 0x26ED DUP2 DUP6 PUSH2 0x26C1 JUMP JUMPDEST SWAP4 POP PUSH2 0x26FD DUP2 DUP6 PUSH1 0x20 DUP7 ADD PUSH2 0x26CB JUMP JUMPDEST DUP1 DUP5 ADD SWAP2 POP POP SWAP3 SWAP2 POP POP JUMP JUMPDEST PUSH0 PUSH2 0x2714 DUP3 DUP5 PUSH2 0x26D9 JUMP JUMPDEST SWAP2 POP DUP2 SWAP1 POP SWAP3 SWAP2 POP POP JUMP JUMPDEST PUSH32 0x5265736F6C7665206661696C6564000000000000000000000000000000000000 PUSH0 DUP3 ADD MSTORE POP JUMP JUMPDEST PUSH0 PUSH2 0x2753 PUSH1 0xE DUP4 PUSH2 0x24A7 JUMP JUMPDEST SWAP2 POP PUSH2 0x275E DUP3 PUSH2 0x271F JUMP JUMPDEST PUSH1 0x20 DUP3 ADD SWAP1 POP SWAP2 SWAP1 POP JUMP JUMPDEST PUSH0 PUSH1 0x20 DUP3 ADD SWAP1 POP DUP2 DUP2 SUB PUSH0 DUP4 ADD MSTORE PUSH2 0x2780 DUP2 PUSH2 0x2747 JUMP JUMPDEST SWAP1 POP SWAP2 SWAP1 POP JUMP JUMPDEST PUSH32 0x4F6E6C79205461736B466163746F727900000000000000000000000000000000 PUSH0 DUP3 ADD MSTORE POP JUMP JUMPDEST PUSH0 PUSH2 0x27BB PUSH1 0x10 DUP4 PUSH2 0x24A7 JUMP JUMPDEST SWAP2 POP PUSH2 0x27C6 DUP3 PUSH2 0x2787 JUMP JUMPDEST PUSH1 0x20 DUP3 ADD SWAP1 POP SWAP2 SWAP1 POP JUMP JUMPDEST PUSH0 PUSH1 0x20 DUP3 ADD SWAP1 POP DUP2 DUP2 SUB PUSH0 DUP4 ADD MSTORE PUSH2 0x27E8 DUP2 PUSH2 0x27AF JUMP JUMPDEST SWAP1 POP SWAP2 SWAP1 POP JUMP JUMPDEST PUSH32 0x44697370757465206E6F742073746172746564206F72206A75726F7220636F75 PUSH0 DUP3 ADD MSTORE PUSH32 0x6E74206D69736D61746368000000000000000000000000000000000000000000 PUSH1 0x20 DUP3 ADD MSTORE POP JUMP JUMPDEST PUSH0 PUSH2 0x2849 PUSH1 0x2B DUP4 PUSH2 0x24A7 JUMP JUMPDEST SWAP2 POP PUSH2 0x2854 DUP3 PUSH2 0x27EF JUMP JUMPDEST PUSH1 0x40 DUP3 ADD SWAP1 POP SWAP2 SWAP1 POP JUMP JUMPDEST PUSH0 PUSH1 0x20 DUP3 ADD SWAP1 POP DUP2 DUP2 SUB PUSH0 DUP4 ADD MSTORE PUSH2 0x2876 DUP2 PUSH2 0x283D JUMP JUMPDEST SWAP1 POP SWAP2 SWAP1 POP JUMP JUMPDEST PUSH0 PUSH1 0x60 DUP3 ADD SWAP1 POP PUSH2 0x2890 PUSH0 DUP4 ADD DUP7 PUSH2 0x22D2 JUMP JUMPDEST DUP2 DUP2 SUB PUSH1 0x20 DUP4 ADD MSTORE PUSH2 0x28A2 DUP2 DUP6 PUSH2 0x2388 JUMP JUMPDEST SWAP1 POP PUSH2 0x28B1 PUSH1 0x40 DUP4 ADD DUP5 PUSH2 0x22D2 JUMP JUMPDEST SWAP5 SWAP4 POP POP POP POP JUMP JUMPDEST PUSH32 0x4D616C6963696F7573207265736F6C7665206661696C65640000000000000000 PUSH0 DUP3 ADD MSTORE POP JUMP JUMPDEST PUSH0 PUSH2 0x28ED PUSH1 0x18 DUP4 PUSH2 0x24A7 JUMP JUMPDEST SWAP2 POP PUSH2 0x28F8 DUP3 PUSH2 0x28B9 JUMP JUMPDEST PUSH1 0x20 DUP3 ADD SWAP1 POP SWAP2 SWAP1 POP JUMP JUMPDEST PUSH0 PUSH1 0x20 DUP3 ADD SWAP1 POP DUP2 DUP2 SUB PUSH0 DUP4 ADD MSTORE PUSH2 0x291A DUP2 PUSH2 0x28E1 JUMP JUMPDEST SWAP1 POP SWAP2 SWAP1 POP JUMP JUMPDEST PUSH32 0x496E73756666696369656E74207374616B650000000000000000000000000000 PUSH0 DUP3 ADD MSTORE POP JUMP JUMPDEST PUSH0 PUSH2 0x2955 PUSH1 0x12 DUP4 PUSH2 0x24A7 JUMP JUMPDEST SWAP2 POP PUSH2 0x2960 DUP3 PUSH2 0x2921 JUMP JUMPDEST PUSH1 0x20 DUP3 ADD SWAP1 POP SWAP2 SWAP1 POP JUMP JUMPDEST PUSH0 PUSH1 0x20 DUP3 ADD SWAP1 POP DUP2 DUP2 SUB PUSH0 DUP4 ADD MSTORE PUSH2 0x2982 DUP2 PUSH2 0x2949 JUMP JUMPDEST SWAP1 POP SWAP2 SWAP1 POP JUMP JUMPDEST PUSH32 0x416C7265616479206A75726F7200000000000000000000000000000000000000 PUSH0 DUP3 ADD MSTORE POP JUMP JUMPDEST PUSH0 PUSH2 0x29BD PUSH1 0xD DUP4 PUSH2 0x24A7 JUMP JUMPDEST SWAP2 POP PUSH2 0x29C8 DUP3 PUSH2 0x2989 JUMP JUMPDEST PUSH1 0x20 DUP3 ADD SWAP1 POP SWAP2 SWAP1 POP JUMP JUMPDEST PUSH0 PUSH1 0x20 DUP3 ADD SWAP1 POP DUP2 DUP2 SUB PUSH0 DUP4 ADD MSTORE PUSH2 0x29EA DUP2 PUSH2 0x29B1 JUMP JUMPDEST SWAP1 POP SWAP2 SWAP1 POP JUMP JUMPDEST PUSH32 0x4469737075746520616C72656164792073746172746564000000000000000000 PUSH0 DUP3 ADD MSTORE POP JUMP JUMPDEST PUSH0 PUSH2 0x2A25 PUSH1 0x17 DUP4 PUSH2 0x24A7 JUMP JUMPDEST SWAP2 POP PUSH2 0x2A30 DUP3 PUSH2 0x29F1 JUMP JUMPDEST PUSH1 0x20 DUP3 ADD SWAP1 POP SWAP2 SWAP1 POP JUMP JUMPDEST PUSH0 PUSH1 0x20 DUP3 ADD SWAP1 POP DUP2 DUP2 SUB PUSH0 DUP4 ADD MSTORE PUSH2 0x2A52 DUP2 PUSH2 0x2A19 JUMP JUMPDEST SWAP1 POP SWAP2 SWAP1 POP JUMP JUMPDEST PUSH32 0x4E6F7420656E6F756768206A75726F7273000000000000000000000000000000 PUSH0 DUP3 ADD MSTORE POP JUMP JUMPDEST PUSH0 PUSH2 0x2A8D PUSH1 0x11 DUP4 PUSH2 0x24A7 JUMP JUMPDEST SWAP2 POP PUSH2 0x2A98 DUP3 PUSH2 0x2A59 JUMP JUMPDEST PUSH1 0x20 DUP3 ADD SWAP1 POP SWAP2 SWAP1 POP JUMP JUMPDEST PUSH0 PUSH1 0x20 DUP3 ADD SWAP1 POP DUP2 DUP2 SUB PUSH0 DUP4 ADD MSTORE PUSH2 0x2ABA DUP2 PUSH2 0x2A81 JUMP JUMPDEST SWAP1 POP SWAP2 SWAP1 POP JUMP JUMPDEST PUSH32 0x4E487B7100000000000000000000000000000000000000000000000000000000 PUSH0 MSTORE PUSH1 0x41 PUSH1 0x4 MSTORE PUSH1 0x24 PUSH0 REVERT JUMPDEST PUSH0 PUSH2 0x2AF8 DUP3 PUSH2 0x2176 JUMP JUMPDEST SWAP2 POP PUSH2 0x2B03 DUP4 PUSH2 0x2176 JUMP JUMPDEST SWAP3 POP DUP3 DUP3 ADD SWAP1 POP DUP1 DUP3 GT ISZERO PUSH2 0x2B1B JUMPI PUSH2 0x2B1A PUSH2 0x261C JUMP JUMPDEST JUMPDEST SWAP3 SWAP2 POP POP JUMP JUMPDEST PUSH0 DUP2 SWAP1 POP SWAP2 SWAP1 POP JUMP JUMPDEST PUSH2 0x2B3B PUSH2 0x2B36 DUP3 PUSH2 0x2176 JUMP JUMPDEST PUSH2 0x2B21 JUMP JUMPDEST DUP3 MSTORE POP POP JUMP JUMPDEST PUSH0 PUSH2 0x2B4C DUP3 DUP6 PUSH2 0x2B2A JUMP JUMPDEST PUSH1 0x20 DUP3 ADD SWAP2 POP PUSH2 0x2B5C DUP3 DUP5 PUSH2 0x2B2A JUMP JUMPDEST PUSH1 0x20 DUP3 ADD SWAP2 POP DUP2 SWAP1 POP SWAP4 SWAP3 POP POP POP JUMP JUMPDEST PUSH0 PUSH2 0x2B76 DUP3 PUSH2 0x2176 JUMP JUMPDEST SWAP2 POP PUSH2 0x2B81 DUP4 PUSH2 0x2176 JUMP JUMPDEST SWAP3 POP DUP3 DUP3 MUL PUSH2 0x2B8F DUP2 PUSH2 0x2176 JUMP JUMPDEST SWAP2 POP DUP3 DUP3 DIV DUP5 EQ DUP4 ISZERO OR PUSH2 0x2BA6 JUMPI PUSH2 0x2BA5 PUSH2 0x261C JUMP JUMPDEST JUMPDEST POP SWAP3 SWAP2 POP POP JUMP JUMPDEST PUSH32 0x4E487B7100000000000000000000000000000000000000000000000000000000 PUSH0 MSTORE PUSH1 0x12 PUSH1 0x4 MSTORE PUSH1 0x24 PUSH0 REVERT JUMPDEST PUSH0 PUSH2 0x2BE4 DUP3 PUSH2 0x2176 JUMP JUMPDEST SWAP2 POP PUSH2 0x2BEF DUP4 PUSH2 0x2176 JUMP JUMPDEST SWAP3 POP DUP3 PUSH2 0x2BFF JUMPI PUSH2 0x2BFE PUSH2 0x2BAD JUMP JUMPDEST JUMPDEST DUP3 DUP3 MOD SWAP1 POP SWAP3 SWAP2 POP POP JUMP JUMPDEST PUSH32 0x4E6F7420656E6F75676820756E69717565206A75726F72730000000000000000 PUSH0 DUP3 ADD MSTORE POP JUMP JUMPDEST PUSH0 PUSH2 0x2C3E PUSH1 0x18 DUP4 PUSH2 0x24A7 JUMP JUMPDEST SWAP2 POP PUSH2 0x2C49 DUP3 PUSH2 0x2C0A JUMP JUMPDEST PUSH1 0x20 DUP3 ADD SWAP1 POP SWAP2 SWAP1 POP JUMP JUMPDEST PUSH0 PUSH1 0x20 DUP3 ADD SWAP1 POP DUP2 DUP2 SUB PUSH0 DUP4 ADD MSTORE PUSH2 0x2C6B DUP2 PUSH2 0x2C32 JUMP JUMPDEST SWAP1 POP SWAP2 SWAP1 POP JUMP JUMPDEST PUSH32 0x466163746F727920616C72656164792073657400000000000000000000000000 PUSH0 DUP3 ADD MSTORE POP JUMP JUMPDEST PUSH0 PUSH2 0x2CA6 PUSH1 0x13 DUP4 PUSH2 0x24A7 JUMP JUMPDEST SWAP2 POP PUSH2 0x2CB1 DUP3 PUSH2 0x2C72 JUMP JUMPDEST PUSH1 0x20 DUP3 ADD SWAP1 POP SWAP2 SWAP1 POP JUMP JUMPDEST PUSH0 PUSH1 0x20 DUP3 ADD SWAP1 POP DUP2 DUP2 SUB PUSH0 DUP4 ADD MSTORE PUSH2 0x2CD3 DUP2 PUSH2 0x2C9A JUMP JUMPDEST SWAP1 POP SWAP2 SWAP1 POP JUMP JUMPDEST PUSH32 0x496E76616C696420616464726573730000000000000000000000000000000000 PUSH0 DUP3 ADD MSTORE POP JUMP JUMPDEST PUSH0 PUSH2 0x2D0E PUSH1 0xF DUP4 PUSH2 0x24A7 JUMP JUMPDEST SWAP2 POP PUSH2 0x2D19 DUP3 PUSH2 0x2CDA JUMP JUMPDEST PUSH1 0x20 DUP3 ADD SWAP1 POP SWAP2 SWAP1 POP JUMP JUMPDEST PUSH0 PUSH1 0x20 DUP3 ADD SWAP1 POP DUP2 DUP2 SUB PUSH0 DUP4 ADD MSTORE PUSH2 0x2D3B DUP2 PUSH2 0x2D02 JUMP JUMPDEST SWAP1 POP SWAP2 SWAP1 POP JUMP INVALID LOG2 PUSH5 0x6970667358 0x22 SLT KECCAK256 PUSH31 0x3B9B540F46EFDAB7027F8CA3E5824990274924443CF9410BD52140C82D4CC7 PUSH5 0x736F6C6343 STOP ADDMOD 0x1E STOP CALLER "
				},
				"gasEstimates": {
					"creation": {
						"codeDepositCost": "2328000",
						"executionCost": "infinite",
						"totalCost": "infinite"
					},
					"external": {
						"JUROR_REWARD()": "370",
						"arbitrateMaliciousTask(uint256)": "infinite",
						"candidateVotes(uint256,address)": "infinite",
						"disputeJurors(uint256,uint256)": "infinite",
						"factorySet()": "2627",
						"getActiveJurors()": "infinite",
						"getDisputeJurors(uint256)": "infinite",
						"getJurorInfo(address)": "infinite",
						"handleDispute(uint256)": "infinite",
						"hasVoted(uint256,address)": "3115",
						"jurorCooldown()": "2536",
						"jurorList(uint256)": "5033",
						"jurors(address)": "infinite",
						"jurorsPerDispute()": "2491",
						"minStake()": "2537",
						"setFactory(address)": "51295",
						"stake()": "130558",
						"taskFactory()": "2530",
						"unstake()": "infinite",
						"vote(uint256,address)": "infinite",
						"voteCount(uint256)": "infinite",
						"votes(uint256,address)": "infinite"
					}
				},
				"methodIdentifiers": {
					"JUROR_REWARD()": "5da93070",
					"arbitrateMaliciousTask(uint256)": "0fa17000",
					"candidateVotes(uint256,address)": "afa9c5b0",
					"disputeJurors(uint256,uint256)": "2249c562",
					"factorySet()": "e21875e2",
					"getActiveJurors()": "6058e685",
					"getDisputeJurors(uint256)": "47e2a6e6",
					"getJurorInfo(address)": "eff2c3ec",
					"handleDispute(uint256)": "4b54a379",
					"hasVoted(uint256,address)": "43859632",
					"jurorCooldown()": "4dc35f7a",
					"jurorList(uint256)": "8e230e6f",
					"jurors(address)": "dca5f6b0",
					"jurorsPerDispute()": "d369506c",
					"minStake()": "375b3c0a",
					"setFactory(address)": "5bb47808",
					"stake()": "3a4b66f1",
					"taskFactory()": "c9bc0c11",
					"unstake()": "2def6620",
					"vote(uint256,address)": "02d947ef",
					"voteCount(uint256)": "4fc8a20d",
					"votes(uint256,address)": "d23254b4"
				}
			},
			"storageLayout": {
				"storage": [
					{
						"astId": 15,
						"contract": "contracts/contracts/DisputeDAO.sol:DisputeDAO",
						"label": "jurors",
						"offset": 0,
						"slot": "0",
						"type": "t_mapping(t_address,t_struct(Juror)10_storage)"
					},
					{
						"astId": 18,
						"contract": "contracts/contracts/DisputeDAO.sol:DisputeDAO",
						"label": "jurorList",
						"offset": 0,
						"slot": "1",
						"type": "t_array(t_address)dyn_storage"
					},
					{
						"astId": 21,
						"contract": "contracts/contracts/DisputeDAO.sol:DisputeDAO",
						"label": "minStake",
						"offset": 0,
						"slot": "2",
						"type": "t_uint256"
					},
					{
						"astId": 24,
						"contract": "contracts/contracts/DisputeDAO.sol:DisputeDAO",
						"label": "jurorsPerDispute",
						"offset": 0,
						"slot": "3",
						"type": "t_uint256"
					},
					{
						"astId": 26,
						"contract": "contracts/contracts/DisputeDAO.sol:DisputeDAO",
						"label": "taskFactory",
						"offset": 0,
						"slot": "4",
						"type": "t_address"
					},
					{
						"astId": 29,
						"contract": "contracts/contracts/DisputeDAO.sol:DisputeDAO",
						"label": "factorySet",
						"offset": 20,
						"slot": "4",
						"type": "t_bool"
					},
					{
						"astId": 32,
						"contract": "contracts/contracts/DisputeDAO.sol:DisputeDAO",
						"label": "jurorCooldown",
						"offset": 0,
						"slot": "5",
						"type": "t_uint256"
					},
					{
						"astId": 37,
						"contract": "contracts/contracts/DisputeDAO.sol:DisputeDAO",
						"label": "disputeJurors",
						"offset": 0,
						"slot": "6",
						"type": "t_mapping(t_uint256,t_array(t_address)dyn_storage)"
					},
					{
						"astId": 43,
						"contract": "contracts/contracts/DisputeDAO.sol:DisputeDAO",
						"label": "hasVoted",
						"offset": 0,
						"slot": "7",
						"type": "t_mapping(t_uint256,t_mapping(t_address,t_bool))"
					},
					{
						"astId": 49,
						"contract": "contracts/contracts/DisputeDAO.sol:DisputeDAO",
						"label": "votes",
						"offset": 0,
						"slot": "8",
						"type": "t_mapping(t_uint256,t_mapping(t_address,t_address))"
					},
					{
						"astId": 53,
						"contract": "contracts/contracts/DisputeDAO.sol:DisputeDAO",
						"label": "voteCount",
						"offset": 0,
						"slot": "9",
						"type": "t_mapping(t_uint256,t_uint256)"
					},
					{
						"astId": 59,
						"contract": "contracts/contracts/DisputeDAO.sol:DisputeDAO",
						"label": "candidateVotes",
						"offset": 0,
						"slot": "10",
						"type": "t_mapping(t_uint256,t_mapping(t_address,t_uint256))"
					}
				],
				"types": {
					"t_address": {
						"encoding": "inplace",
						"label": "address",
						"numberOfBytes": "20"
					},
					"t_array(t_address)dyn_storage": {
						"base": "t_address",
						"encoding": "dynamic_array",
						"label": "address[]",
						"numberOfBytes": "32"
					},
					"t_bool": {
						"encoding": "inplace",
						"label": "bool",
						"numberOfBytes": "1"
					},
					"t_mapping(t_address,t_address)": {
						"encoding": "mapping",
						"key": "t_address",
						"label": "mapping(address => address)",
						"numberOfBytes": "32",
						"value": "t_address"
					},
					"t_mapping(t_address,t_bool)": {
						"encoding": "mapping",
						"key": "t_address",
						"label": "mapping(address => bool)",
						"numberOfBytes": "32",
						"value": "t_bool"
					},
					"t_mapping(t_address,t_struct(Juror)10_storage)": {
						"encoding": "mapping",
						"key": "t_address",
						"label": "mapping(address => struct DisputeDAO.Juror)",
						"numberOfBytes": "32",
						"value": "t_struct(Juror)10_storage"
					},
					"t_mapping(t_address,t_uint256)": {
						"encoding": "mapping",
						"key": "t_address",
						"label": "mapping(address => uint256)",
						"numberOfBytes": "32",
						"value": "t_uint256"
					},
					"t_mapping(t_uint256,t_array(t_address)dyn_storage)": {
						"encoding": "mapping",
						"key": "t_uint256",
						"label": "mapping(uint256 => address[])",
						"numberOfBytes": "32",
						"value": "t_array(t_address)dyn_storage"
					},
					"t_mapping(t_uint256,t_mapping(t_address,t_address))": {
						"encoding": "mapping",
						"key": "t_uint256",
						"label": "mapping(uint256 => mapping(address => address))",
						"numberOfBytes": "32",
						"value": "t_mapping(t_address,t_address)"
					},
					"t_mapping(t_uint256,t_mapping(t_address,t_bool))": {
						"encoding": "mapping",
						"key": "t_uint256",
						"label": "mapping(uint256 => mapping(address => bool))",
						"numberOfBytes": "32",
						"value": "t_mapping(t_address,t_bool)"
					},
					"t_mapping(t_uint256,t_mapping(t_address,t_uint256))": {
						"encoding": "mapping",
						"key": "t_uint256",
						"label": "mapping(uint256 => mapping(address => uint256))",
						"numberOfBytes": "32",
						"value": "t_mapping(t_address,t_uint256)"
					},
					"t_mapping(t_uint256,t_uint256)": {
						"encoding": "mapping",
						"key": "t_uint256",
						"label": "mapping(uint256 => uint256)",
						"numberOfBytes": "32",
						"value": "t_uint256"
					},
					"t_struct(Juror)10_storage": {
						"encoding": "inplace",
						"label": "struct DisputeDAO.Juror",
						"members": [
							{
								"astId": 3,
								"contract": "contracts/contracts/DisputeDAO.sol:DisputeDAO",
								"label": "addr",
								"offset": 0,
								"slot": "0",
								"type": "t_address"
							},
							{
								"astId": 5,
								"contract": "contracts/contracts/DisputeDAO.sol:DisputeDAO",
								"label": "stakeAmount",
								"offset": 0,
								"slot": "1",
								"type": "t_uint256"
							},
							{
								"astId": 7,
								"contract": "contracts/contracts/DisputeDAO.sol:DisputeDAO",
								"label": "isActive",
								"offset": 0,
								"slot": "2",
								"type": "t_bool"
							},
							{
								"astId": 9,
								"contract": "contracts/contracts/DisputeDAO.sol:DisputeDAO",
								"label": "lastDisputeId",
								"offset": 0,
								"slot": "3",
								"type": "t_uint256"
							}
						],
						"numberOfBytes": "128"
					},
					"t_uint256": {
						"encoding": "inplace",
						"label": "uint256",
						"numberOfBytes": "32"
					}
				}
			},
			"userdoc": {
				"kind": "user",
				"methods": {},
				"version": 1
			}
		}
	}
}