{
	"DisputeDAO.sol": {
		"DisputeDAO": {
			"abi": [
				{
					"inputs": [
						{
							"internalType": "address",
							"name": "_taskFactory",
							"type": "address"
						}
					],
					"stateMutability": "nonpayable",
					"type": "constructor"
				},
				{
					"anonymous": false,
					"inputs": [
						{
							"indexed": true,
							"internalType": "uint256",
							"name": "disputeId",
							"type": "uint256"
						},
						{
							"indexed": false,
							"internalType": "address",
							"name": "winner",
							"type": "address"
						}
					],
					"name": "DisputeResolved",
					"type": "event"
				},
				{
					"anonymous": false,
					"inputs": [
						{
							"indexed": true,
							"internalType": "uint256",
							"name": "disputeId",
							"type": "uint256"
						},
						{
							"indexed": false,
							"internalType": "address[]",
							"name": "jurors",
							"type": "address[]"
						}
					],
					"name": "DisputeStarted",
					"type": "event"
				},
				{
					"anonymous": false,
					"inputs": [
						{
							"indexed": true,
							"internalType": "address",
							"name": "juror",
							"type": "address"
						},
						{
							"indexed": false,
							"internalType": "uint256",
							"name": "amount",
							"type": "uint256"
						}
					],
					"name": "JurorStaked",
					"type": "event"
				},
				{
					"anonymous": false,
					"inputs": [
						{
							"indexed": true,
							"internalType": "address",
							"name": "juror",
							"type": "address"
						},
						{
							"indexed": false,
							"internalType": "uint256",
							"name": "amount",
							"type": "uint256"
						}
					],
					"name": "JurorUnstaked",
					"type": "event"
				},
				{
					"anonymous": false,
					"inputs": [
						{
							"indexed": true,
							"internalType": "uint256",
							"name": "disputeId",
							"type": "uint256"
						},
						{
							"indexed": true,
							"internalType": "address",
							"name": "juror",
							"type": "address"
						},
						{
							"indexed": false,
							"internalType": "address",
							"name": "winner",
							"type": "address"
						}
					],
					"name": "Voted",
					"type": "event"
				},
				{
					"inputs": [
						{
							"internalType": "uint256",
							"name": "",
							"type": "uint256"
						},
						{
							"internalType": "address",
							"name": "",
							"type": "address"
						}
					],
					"name": "candidateVotes",
					"outputs": [
						{
							"internalType": "uint256",
							"name": "",
							"type": "uint256"
						}
					],
					"stateMutability": "view",
					"type": "function"
				},
				{
					"inputs": [
						{
							"internalType": "uint256",
							"name": "",
							"type": "uint256"
						},
						{
							"internalType": "uint256",
							"name": "",
							"type": "uint256"
						}
					],
					"name": "disputeJurors",
					"outputs": [
						{
							"internalType": "address",
							"name": "",
							"type": "address"
						}
					],
					"stateMutability": "view",
					"type": "function"
				},
				{
					"inputs": [],
					"name": "factorySet",
					"outputs": [
						{
							"internalType": "bool",
							"name": "",
							"type": "bool"
						}
					],
					"stateMutability": "view",
					"type": "function"
				},
				{
					"inputs": [
						{
							"internalType": "uint256",
							"name": "disputeId",
							"type": "uint256"
						}
					],
					"name": "handleDispute",
					"outputs": [],
					"stateMutability": "nonpayable",
					"type": "function"
				},
				{
					"inputs": [
						{
							"internalType": "uint256",
							"name": "",
							"type": "uint256"
						},
						{
							"internalType": "address",
							"name": "",
							"type": "address"
						}
					],
					"name": "hasVoted",
					"outputs": [
						{
							"internalType": "bool",
							"name": "",
							"type": "bool"
						}
					],
					"stateMutability": "view",
					"type": "function"
				},
				{
					"inputs": [
						{
							"internalType": "uint256",
							"name": "",
							"type": "uint256"
						}
					],
					"name": "jurorList",
					"outputs": [
						{
							"internalType": "address",
							"name": "",
							"type": "address"
						}
					],
					"stateMutability": "view",
					"type": "function"
				},
				{
					"inputs": [
						{
							"internalType": "address",
							"name": "",
							"type": "address"
						}
					],
					"name": "jurors",
					"outputs": [
						{
							"internalType": "address",
							"name": "addr",
							"type": "address"
						},
						{
							"internalType": "uint256",
							"name": "stake",
							"type": "uint256"
						},
						{
							"internalType": "bool",
							"name": "isActive",
							"type": "bool"
						}
					],
					"stateMutability": "view",
					"type": "function"
				},
				{
					"inputs": [],
					"name": "jurorsPerDispute",
					"outputs": [
						{
							"internalType": "uint256",
							"name": "",
							"type": "uint256"
						}
					],
					"stateMutability": "view",
					"type": "function"
				},
				{
					"inputs": [],
					"name": "minStake",
					"outputs": [
						{
							"internalType": "uint256",
							"name": "",
							"type": "uint256"
						}
					],
					"stateMutability": "view",
					"type": "function"
				},
				{
					"inputs": [
						{
							"internalType": "address",
							"name": "_factory",
							"type": "address"
						}
					],
					"name": "setFactory",
					"outputs": [],
					"stateMutability": "nonpayable",
					"type": "function"
				},
				{
					"inputs": [],
					"name": "stake",
					"outputs": [],
					"stateMutability": "payable",
					"type": "function"
				},
				{
					"inputs": [],
					"name": "taskFactory",
					"outputs": [
						{
							"internalType": "address",
							"name": "",
							"type": "address"
						}
					],
					"stateMutability": "view",
					"type": "function"
				},
				{
					"inputs": [],
					"name": "unstake",
					"outputs": [],
					"stateMutability": "nonpayable",
					"type": "function"
				},
				{
					"inputs": [
						{
							"internalType": "uint256",
							"name": "disputeId",
							"type": "uint256"
						},
						{
							"internalType": "address",
							"name": "winner",
							"type": "address"
						}
					],
					"name": "vote",
					"outputs": [],
					"stateMutability": "nonpayable",
					"type": "function"
				},
				{
					"inputs": [
						{
							"internalType": "uint256",
							"name": "",
							"type": "uint256"
						}
					],
					"name": "voteCount",
					"outputs": [
						{
							"internalType": "uint256",
							"name": "",
							"type": "uint256"
						}
					],
					"stateMutability": "view",
					"type": "function"
				},
				{
					"inputs": [
						{
							"internalType": "uint256",
							"name": "",
							"type": "uint256"
						},
						{
							"internalType": "address",
							"name": "",
							"type": "address"
						}
					],
					"name": "votes",
					"outputs": [
						{
							"internalType": "address",
							"name": "",
							"type": "address"
						}
					],
					"stateMutability": "view",
					"type": "function"
				}
			],
			"devdoc": {
				"kind": "dev",
				"methods": {},
				"version": 1
			},
			"evm": {
				"assembly": "    /* \"DisputeDAO.sol\":27:5609  contract DisputeDAO {... */\n  mstore(0x40, 0x80)\n    /* \"DisputeDAO.sol\":286:295  0.1 ether */\n  0x016345785d8a0000\n    /* \"DisputeDAO.sol\":260:295  uint256 public minStake = 0.1 ether */\n  0x02\n  sstore\n    /* \"DisputeDAO.sol\":381:382  3 */\n  0x03\n    /* \"DisputeDAO.sol\":347:382  uint256 public jurorsPerDispute = 3 */\n  dup1\n  sstore\n    /* \"DisputeDAO.sol\":447:452  false */\n  0x00\n    /* \"DisputeDAO.sol\":422:452  bool public factorySet = false */\n  0x04\n  exp(0x0100, 0x14)\n  dup2\n  sload\n  dup2\n  0xff\n  mul\n  not\n  and\n  swap1\n  dup4\n  iszero\n  iszero\n  mul\n  or\n  swap1\n  sstore\n  pop\n    /* \"DisputeDAO.sol\":1373:1511  constructor(address _taskFactory) {... */\n  callvalue\n  dup1\n  iszero\n  tag_1\n  jumpi\n  revert(0x00, 0x00)\ntag_1:\n  pop\n  mload(0x40)\n  sub(codesize, bytecodeSize)\n  dup1\n  bytecodeSize\n  dup4\n  codecopy\n  dup2\n  dup2\n  add\n  0x40\n  mstore\n  dup2\n  add\n  swap1\n  tag_2\n  swap2\n  swap1\n  tag_3\n  jump\t// in\ntag_2:\n    /* \"DisputeDAO.sol\":1432:1444  _taskFactory */\n  dup1\n    /* \"DisputeDAO.sol\":1418:1429  taskFactory */\n  0x04\n  0x00\n    /* \"DisputeDAO.sol\":1418:1444  taskFactory = _taskFactory */\n  0x0100\n  exp\n  dup2\n  sload\n  dup2\n  0xffffffffffffffffffffffffffffffffffffffff\n  mul\n  not\n  and\n  swap1\n  dup4\n  0xffffffffffffffffffffffffffffffffffffffff\n  and\n  mul\n  or\n  swap1\n  sstore\n  pop\n    /* \"DisputeDAO.sol\":1482:1483  0 */\n  0x00\n    /* \"DisputeDAO.sol\":1458:1484  _taskFactory != address(0) */\n  0xffffffffffffffffffffffffffffffffffffffff\n  and\n    /* \"DisputeDAO.sol\":1458:1470  _taskFactory */\n  dup2\n    /* \"DisputeDAO.sol\":1458:1484  _taskFactory != address(0) */\n  0xffffffffffffffffffffffffffffffffffffffff\n  and\n  eq\n    /* \"DisputeDAO.sol\":1455:1503  if(_taskFactory != address(0)) factorySet = true */\n  tag_6\n  jumpi\n    /* \"DisputeDAO.sol\":1499:1503  true */\n  0x01\n    /* \"DisputeDAO.sol\":1486:1496  factorySet */\n  0x04\n  0x14\n    /* \"DisputeDAO.sol\":1486:1503  factorySet = true */\n  0x0100\n  exp\n  dup2\n  sload\n  dup2\n  0xff\n  mul\n  not\n  and\n  swap1\n  dup4\n  iszero\n  iszero\n  mul\n  or\n  swap1\n  sstore\n  pop\n    /* \"DisputeDAO.sol\":1455:1503  if(_taskFactory != address(0)) factorySet = true */\ntag_6:\n    /* \"DisputeDAO.sol\":1373:1511  constructor(address _taskFactory) {... */\n  pop\n    /* \"DisputeDAO.sol\":27:5609  contract DisputeDAO {... */\n  jump(tag_7)\n    /* \"#utility.yul\":88:205   */\ntag_9:\n    /* \"#utility.yul\":197:198   */\n  0x00\n    /* \"#utility.yul\":194:195   */\n  0x00\n    /* \"#utility.yul\":187:199   */\n  revert\n    /* \"#utility.yul\":334:460   */\ntag_11:\n    /* \"#utility.yul\":371:378   */\n  0x00\n    /* \"#utility.yul\":411:453   */\n  0xffffffffffffffffffffffffffffffffffffffff\n    /* \"#utility.yul\":404:409   */\n  dup3\n    /* \"#utility.yul\":400:454   */\n  and\n    /* \"#utility.yul\":389:454   */\n  swap1\n  pop\n    /* \"#utility.yul\":334:460   */\n  swap2\n  swap1\n  pop\n  jump\t// out\n    /* \"#utility.yul\":466:562   */\ntag_12:\n    /* \"#utility.yul\":503:510   */\n  0x00\n    /* \"#utility.yul\":532:556   */\n  tag_21\n    /* \"#utility.yul\":550:555   */\n  dup3\n    /* \"#utility.yul\":532:556   */\n  tag_11\n  jump\t// in\ntag_21:\n    /* \"#utility.yul\":521:556   */\n  swap1\n  pop\n    /* \"#utility.yul\":466:562   */\n  swap2\n  swap1\n  pop\n  jump\t// out\n    /* \"#utility.yul\":568:690   */\ntag_13:\n    /* \"#utility.yul\":641:665   */\n  tag_23\n    /* \"#utility.yul\":659:664   */\n  dup2\n    /* \"#utility.yul\":641:665   */\n  tag_12\n  jump\t// in\ntag_23:\n    /* \"#utility.yul\":634:639   */\n  dup2\n    /* \"#utility.yul\":631:666   */\n  eq\n    /* \"#utility.yul\":621:684   */\n  tag_24\n  jumpi\n    /* \"#utility.yul\":680:681   */\n  0x00\n    /* \"#utility.yul\":677:678   */\n  0x00\n    /* \"#utility.yul\":670:682   */\n  revert\n    /* \"#utility.yul\":621:684   */\ntag_24:\n    /* \"#utility.yul\":568:690   */\n  pop\n  jump\t// out\n    /* \"#utility.yul\":696:839   */\ntag_14:\n    /* \"#utility.yul\":753:758   */\n  0x00\n    /* \"#utility.yul\":784:790   */\n  dup2\n    /* \"#utility.yul\":778:791   */\n  mload\n    /* \"#utility.yul\":769:791   */\n  swap1\n  pop\n    /* \"#utility.yul\":800:833   */\n  tag_26\n    /* \"#utility.yul\":827:832   */\n  dup2\n    /* \"#utility.yul\":800:833   */\n  tag_13\n  jump\t// in\ntag_26:\n    /* \"#utility.yul\":696:839   */\n  swap3\n  swap2\n  pop\n  pop\n  jump\t// out\n    /* \"#utility.yul\":845:1196   */\ntag_3:\n    /* \"#utility.yul\":915:921   */\n  0x00\n    /* \"#utility.yul\":964:966   */\n  0x20\n    /* \"#utility.yul\":952:961   */\n  dup3\n    /* \"#utility.yul\":943:950   */\n  dup5\n    /* \"#utility.yul\":939:962   */\n  sub\n    /* \"#utility.yul\":935:967   */\n  slt\n    /* \"#utility.yul\":932:1051   */\n  iszero\n  tag_28\n  jumpi\n    /* \"#utility.yul\":970:1049   */\n  tag_29\n  tag_9\n  jump\t// in\ntag_29:\n    /* \"#utility.yul\":932:1051   */\ntag_28:\n    /* \"#utility.yul\":1090:1091   */\n  0x00\n    /* \"#utility.yul\":1115:1179   */\n  tag_30\n    /* \"#utility.yul\":1171:1178   */\n  dup5\n    /* \"#utility.yul\":1162:1168   */\n  dup3\n    /* \"#utility.yul\":1151:1160   */\n  dup6\n    /* \"#utility.yul\":1147:1169   */\n  add\n    /* \"#utility.yul\":1115:1179   */\n  tag_14\n  jump\t// in\ntag_30:\n    /* \"#utility.yul\":1105:1179   */\n  swap2\n  pop\n    /* \"#utility.yul\":1061:1189   */\n  pop\n    /* \"#utility.yul\":845:1196   */\n  swap3\n  swap2\n  pop\n  pop\n  jump\t// out\n    /* \"DisputeDAO.sol\":27:5609  contract DisputeDAO {... */\ntag_7:\n  dataSize(sub_0)\n  dup1\n  dataOffset(sub_0)\n  0x00\n  codecopy\n  0x00\n  return\nstop\n\nsub_0: assembly {\n        /* \"DisputeDAO.sol\":27:5609  contract DisputeDAO {... */\n      mstore(0x40, 0x80)\n      jumpi(tag_1, lt(calldatasize, 0x04))\n      shr(0xe0, calldataload(0x00))\n      dup1\n      0x5bb47808\n      gt\n      tag_18\n      jumpi\n      dup1\n      0xd23254b4\n      gt\n      tag_19\n      jumpi\n      dup1\n      0xd23254b4\n      eq\n      tag_14\n      jumpi\n      dup1\n      0xd369506c\n      eq\n      tag_15\n      jumpi\n      dup1\n      0xdca5f6b0\n      eq\n      tag_16\n      jumpi\n      dup1\n      0xe21875e2\n      eq\n      tag_17\n      jumpi\n      jump(tag_1)\n    tag_19:\n      dup1\n      0x5bb47808\n      eq\n      tag_10\n      jumpi\n      dup1\n      0x8e230e6f\n      eq\n      tag_11\n      jumpi\n      dup1\n      0xafa9c5b0\n      eq\n      tag_12\n      jumpi\n      dup1\n      0xc9bc0c11\n      eq\n      tag_13\n      jumpi\n      jump(tag_1)\n    tag_18:\n      dup1\n      0x3a4b66f1\n      gt\n      tag_20\n      jumpi\n      dup1\n      0x3a4b66f1\n      eq\n      tag_6\n      jumpi\n      dup1\n      0x43859632\n      eq\n      tag_7\n      jumpi\n      dup1\n      0x4b54a379\n      eq\n      tag_8\n      jumpi\n      dup1\n      0x4fc8a20d\n      eq\n      tag_9\n      jumpi\n      jump(tag_1)\n    tag_20:\n      dup1\n      0x02d947ef\n      eq\n      tag_2\n      jumpi\n      dup1\n      0x2249c562\n      eq\n      tag_3\n      jumpi\n      dup1\n      0x2def6620\n      eq\n      tag_4\n      jumpi\n      dup1\n      0x375b3c0a\n      eq\n      tag_5\n      jumpi\n    tag_1:\n      revert(0x00, 0x00)\n        /* \"DisputeDAO.sol\":3969:5606  function vote(uint256 disputeId, address winner) external {... */\n    tag_2:\n      callvalue\n      dup1\n      iszero\n      tag_21\n      jumpi\n      revert(0x00, 0x00)\n    tag_21:\n      pop\n      tag_22\n      0x04\n      dup1\n      calldatasize\n      sub\n      dup2\n      add\n      swap1\n      tag_23\n      swap2\n      swap1\n      tag_24\n      jump\t// in\n    tag_23:\n      tag_25\n      jump\t// in\n    tag_22:\n      stop\n        /* \"DisputeDAO.sol\":500:550  mapping(uint256 => address[]) public disputeJurors */\n    tag_3:\n      callvalue\n      dup1\n      iszero\n      tag_26\n      jumpi\n      revert(0x00, 0x00)\n    tag_26:\n      pop\n      tag_27\n      0x04\n      dup1\n      calldatasize\n      sub\n      dup2\n      add\n      swap1\n      tag_28\n      swap2\n      swap1\n      tag_29\n      jump\t// in\n    tag_28:\n      tag_30\n      jump\t// in\n    tag_27:\n      mload(0x40)\n      tag_31\n      swap2\n      swap1\n      tag_32\n      jump\t// in\n    tag_31:\n      mload(0x40)\n      dup1\n      swap2\n      sub\n      swap1\n      return\n        /* \"DisputeDAO.sol\":2192:2522  function unstake() external {... */\n    tag_4:\n      callvalue\n      dup1\n      iszero\n      tag_33\n      jumpi\n      revert(0x00, 0x00)\n    tag_33:\n      pop\n      tag_34\n      tag_35\n      jump\t// in\n    tag_34:\n      stop\n        /* \"DisputeDAO.sol\":260:295  uint256 public minStake = 0.1 ether */\n    tag_5:\n      callvalue\n      dup1\n      iszero\n      tag_36\n      jumpi\n      revert(0x00, 0x00)\n    tag_36:\n      pop\n      tag_37\n      tag_38\n      jump\t// in\n    tag_37:\n      mload(0x40)\n      tag_39\n      swap2\n      swap1\n      tag_40\n      jump\t// in\n    tag_39:\n      mload(0x40)\n      dup1\n      swap2\n      sub\n      swap1\n      return\n        /* \"DisputeDAO.sol\":1794:2142  function stake() external payable {... */\n    tag_6:\n      tag_41\n      tag_42\n      jump\t// in\n    tag_41:\n      stop\n        /* \"DisputeDAO.sol\":557:617  mapping(uint256 => mapping(address => bool)) public hasVoted */\n    tag_7:\n      callvalue\n      dup1\n      iszero\n      tag_43\n      jumpi\n      revert(0x00, 0x00)\n    tag_43:\n      pop\n      tag_44\n      0x04\n      dup1\n      calldatasize\n      sub\n      dup2\n      add\n      swap1\n      tag_45\n      swap2\n      swap1\n      tag_24\n      jump\t// in\n    tag_45:\n      tag_46\n      jump\t// in\n    tag_44:\n      mload(0x40)\n      tag_47\n      swap2\n      swap1\n      tag_48\n      jump\t// in\n    tag_47:\n      mload(0x40)\n      dup1\n      swap2\n      sub\n      swap1\n      return\n        /* \"DisputeDAO.sol\":2617:3922  function handleDispute(uint256 disputeId) external onlyTaskFactory {... */\n    tag_8:\n      callvalue\n      dup1\n      iszero\n      tag_49\n      jumpi\n      revert(0x00, 0x00)\n    tag_49:\n      pop\n      tag_50\n      0x04\n      dup1\n      calldatasize\n      sub\n      dup2\n      add\n      swap1\n      tag_51\n      swap2\n      swap1\n      tag_52\n      jump\t// in\n    tag_51:\n      tag_53\n      jump\t// in\n    tag_50:\n      stop\n        /* \"DisputeDAO.sol\":723:767  mapping(uint256 => uint256) public voteCount */\n    tag_9:\n      callvalue\n      dup1\n      iszero\n      tag_54\n      jumpi\n      revert(0x00, 0x00)\n    tag_54:\n      pop\n      tag_55\n      0x04\n      dup1\n      calldatasize\n      sub\n      dup2\n      add\n      swap1\n      tag_56\n      swap2\n      swap1\n      tag_52\n      jump\t// in\n    tag_56:\n      tag_57\n      jump\t// in\n    tag_55:\n      mload(0x40)\n      tag_58\n      swap2\n      swap1\n      tag_40\n      jump\t// in\n    tag_58:\n      mload(0x40)\n      dup1\n      swap2\n      sub\n      swap1\n      return\n        /* \"DisputeDAO.sol\":1519:1750  function setFactory(address _factory) external {... */\n    tag_10:\n      callvalue\n      dup1\n      iszero\n      tag_59\n      jumpi\n      revert(0x00, 0x00)\n    tag_59:\n      pop\n      tag_60\n      0x04\n      dup1\n      calldatasize\n      sub\n      dup2\n      add\n      swap1\n      tag_61\n      swap2\n      swap1\n      tag_62\n      jump\t// in\n    tag_61:\n      tag_63\n      jump\t// in\n    tag_60:\n      stop\n        /* \"DisputeDAO.sol\":200:226  address[] public jurorList */\n    tag_11:\n      callvalue\n      dup1\n      iszero\n      tag_64\n      jumpi\n      revert(0x00, 0x00)\n    tag_64:\n      pop\n      tag_65\n      0x04\n      dup1\n      calldatasize\n      sub\n      dup2\n      add\n      swap1\n      tag_66\n      swap2\n      swap1\n      tag_52\n      jump\t// in\n    tag_66:\n      tag_67\n      jump\t// in\n    tag_65:\n      mload(0x40)\n      tag_68\n      swap2\n      swap1\n      tag_32\n      jump\t// in\n    tag_68:\n      mload(0x40)\n      dup1\n      swap2\n      sub\n      swap1\n      return\n        /* \"DisputeDAO.sol\":819:888  mapping(uint256 => mapping(address => uint256)) public candidateVotes */\n    tag_12:\n      callvalue\n      dup1\n      iszero\n      tag_69\n      jumpi\n      revert(0x00, 0x00)\n    tag_69:\n      pop\n      tag_70\n      0x04\n      dup1\n      calldatasize\n      sub\n      dup2\n      add\n      swap1\n      tag_71\n      swap2\n      swap1\n      tag_24\n      jump\t// in\n    tag_71:\n      tag_72\n      jump\t// in\n    tag_70:\n      mload(0x40)\n      tag_73\n      swap2\n      swap1\n      tag_40\n      jump\t// in\n    tag_73:\n      mload(0x40)\n      dup1\n      swap2\n      sub\n      swap1\n      return\n        /* \"DisputeDAO.sol\":389:415  address public taskFactory */\n    tag_13:\n      callvalue\n      dup1\n      iszero\n      tag_74\n      jumpi\n      revert(0x00, 0x00)\n    tag_74:\n      pop\n      tag_75\n      tag_76\n      jump\t// in\n    tag_75:\n      mload(0x40)\n      tag_77\n      swap2\n      swap1\n      tag_32\n      jump\t// in\n    tag_77:\n      mload(0x40)\n      dup1\n      swap2\n      sub\n      swap1\n      return\n        /* \"DisputeDAO.sol\":624:684  mapping(uint256 => mapping(address => address)) public votes */\n    tag_14:\n      callvalue\n      dup1\n      iszero\n      tag_78\n      jumpi\n      revert(0x00, 0x00)\n    tag_78:\n      pop\n      tag_79\n      0x04\n      dup1\n      calldatasize\n      sub\n      dup2\n      add\n      swap1\n      tag_80\n      swap2\n      swap1\n      tag_24\n      jump\t// in\n    tag_80:\n      tag_81\n      jump\t// in\n    tag_79:\n      mload(0x40)\n      tag_82\n      swap2\n      swap1\n      tag_32\n      jump\t// in\n    tag_82:\n      mload(0x40)\n      dup1\n      swap2\n      sub\n      swap1\n      return\n        /* \"DisputeDAO.sol\":347:382  uint256 public jurorsPerDispute = 3 */\n    tag_15:\n      callvalue\n      dup1\n      iszero\n      tag_83\n      jumpi\n      revert(0x00, 0x00)\n    tag_83:\n      pop\n      tag_84\n      tag_85\n      jump\t// in\n    tag_84:\n      mload(0x40)\n      tag_86\n      swap2\n      swap1\n      tag_40\n      jump\t// in\n    tag_86:\n      mload(0x40)\n      dup1\n      swap2\n      sub\n      swap1\n      return\n        /* \"DisputeDAO.sol\":154:193  mapping(address => Juror) public jurors */\n    tag_16:\n      callvalue\n      dup1\n      iszero\n      tag_87\n      jumpi\n      revert(0x00, 0x00)\n    tag_87:\n      pop\n      tag_88\n      0x04\n      dup1\n      calldatasize\n      sub\n      dup2\n      add\n      swap1\n      tag_89\n      swap2\n      swap1\n      tag_62\n      jump\t// in\n    tag_89:\n      tag_90\n      jump\t// in\n    tag_88:\n      mload(0x40)\n      tag_91\n      swap4\n      swap3\n      swap2\n      swap1\n      tag_92\n      jump\t// in\n    tag_91:\n      mload(0x40)\n      dup1\n      swap2\n      sub\n      swap1\n      return\n        /* \"DisputeDAO.sol\":422:452  bool public factorySet = false */\n    tag_17:\n      callvalue\n      dup1\n      iszero\n      tag_93\n      jumpi\n      revert(0x00, 0x00)\n    tag_93:\n      pop\n      tag_94\n      tag_95\n      jump\t// in\n    tag_94:\n      mload(0x40)\n      tag_96\n      swap2\n      swap1\n      tag_48\n      jump\t// in\n    tag_96:\n      mload(0x40)\n      dup1\n      swap2\n      sub\n      swap1\n      return\n        /* \"DisputeDAO.sol\":3969:5606  function vote(uint256 disputeId, address winner) external {... */\n    tag_25:\n        /* \"DisputeDAO.sol\":4046:4052  jurors */\n      0x00\n        /* \"DisputeDAO.sol\":4046:4064  jurors[msg.sender] */\n      0x00\n        /* \"DisputeDAO.sol\":4053:4063  msg.sender */\n      caller\n        /* \"DisputeDAO.sol\":4046:4064  jurors[msg.sender] */\n      0xffffffffffffffffffffffffffffffffffffffff\n      and\n      0xffffffffffffffffffffffffffffffffffffffff\n      and\n      dup2\n      mstore\n      0x20\n      add\n      swap1\n      dup2\n      mstore\n      0x20\n      add\n      0x00\n      keccak256\n        /* \"DisputeDAO.sol\":4046:4073  jurors[msg.sender].isActive */\n      0x02\n      add\n      0x00\n      swap1\n      sload\n      swap1\n      0x0100\n      exp\n      swap1\n      div\n      0xff\n      and\n        /* \"DisputeDAO.sol\":4038:4089  require(jurors[msg.sender].isActive, \"Not a juror\") */\n      tag_98\n      jumpi\n      mload(0x40)\n      0x08c379a000000000000000000000000000000000000000000000000000000000\n      dup2\n      mstore\n      0x04\n      add\n      tag_99\n      swap1\n      tag_100\n      jump\t// in\n    tag_99:\n      mload(0x40)\n      dup1\n      swap2\n      sub\n      swap1\n      revert\n    tag_98:\n        /* \"DisputeDAO.sol\":4146:4158  bool isJuror */\n      0x00\n        /* \"DisputeDAO.sol\":4161:4166  false */\n      0x00\n        /* \"DisputeDAO.sol\":4146:4166  bool isJuror = false */\n      swap1\n      pop\n        /* \"DisputeDAO.sol\":4182:4188  uint i */\n      0x00\n        /* \"DisputeDAO.sol\":4191:4192  0 */\n      0x00\n        /* \"DisputeDAO.sol\":4182:4192  uint i = 0 */\n      swap1\n      pop\n        /* \"DisputeDAO.sol\":4177:4382  for (uint i = 0; i < disputeJurors[disputeId].length; i++) {... */\n    tag_101:\n        /* \"DisputeDAO.sol\":4198:4211  disputeJurors */\n      0x05\n        /* \"DisputeDAO.sol\":4198:4222  disputeJurors[disputeId] */\n      0x00\n        /* \"DisputeDAO.sol\":4212:4221  disputeId */\n      dup6\n        /* \"DisputeDAO.sol\":4198:4222  disputeJurors[disputeId] */\n      dup2\n      mstore\n      0x20\n      add\n      swap1\n      dup2\n      mstore\n      0x20\n      add\n      0x00\n      keccak256\n        /* \"DisputeDAO.sol\":4198:4229  disputeJurors[disputeId].length */\n      dup1\n      sload\n      swap1\n      pop\n        /* \"DisputeDAO.sol\":4194:4195  i */\n      dup2\n        /* \"DisputeDAO.sol\":4194:4229  i < disputeJurors[disputeId].length */\n      lt\n        /* \"DisputeDAO.sol\":4177:4382  for (uint i = 0; i < disputeJurors[disputeId].length; i++) {... */\n      iszero\n      tag_102\n      jumpi\n        /* \"DisputeDAO.sol\":4286:4296  msg.sender */\n      caller\n        /* \"DisputeDAO.sol\":4255:4296  disputeJurors[disputeId][i] == msg.sender */\n      0xffffffffffffffffffffffffffffffffffffffff\n      and\n        /* \"DisputeDAO.sol\":4255:4268  disputeJurors */\n      0x05\n        /* \"DisputeDAO.sol\":4255:4279  disputeJurors[disputeId] */\n      0x00\n        /* \"DisputeDAO.sol\":4269:4278  disputeId */\n      dup7\n        /* \"DisputeDAO.sol\":4255:4279  disputeJurors[disputeId] */\n      dup2\n      mstore\n      0x20\n      add\n      swap1\n      dup2\n      mstore\n      0x20\n      add\n      0x00\n      keccak256\n        /* \"DisputeDAO.sol\":4280:4281  i */\n      dup3\n        /* \"DisputeDAO.sol\":4255:4282  disputeJurors[disputeId][i] */\n      dup2\n      sload\n      dup2\n      lt\n      tag_104\n      jumpi\n      tag_105\n      tag_106\n      jump\t// in\n    tag_105:\n    tag_104:\n      swap1\n      0x00\n      mstore\n      keccak256(0x00, 0x20)\n      add\n      0x00\n      swap1\n      sload\n      swap1\n      0x0100\n      exp\n      swap1\n      div\n      0xffffffffffffffffffffffffffffffffffffffff\n      and\n        /* \"DisputeDAO.sol\":4255:4296  disputeJurors[disputeId][i] == msg.sender */\n      0xffffffffffffffffffffffffffffffffffffffff\n      and\n      sub\n        /* \"DisputeDAO.sol\":4251:4371  if (disputeJurors[disputeId][i] == msg.sender) {... */\n      tag_108\n      jumpi\n        /* \"DisputeDAO.sol\":4327:4331  true */\n      0x01\n        /* \"DisputeDAO.sol\":4317:4331  isJuror = true */\n      swap2\n      pop\n        /* \"DisputeDAO.sol\":4350:4355  break */\n      jump(tag_102)\n        /* \"DisputeDAO.sol\":4251:4371  if (disputeJurors[disputeId][i] == msg.sender) {... */\n    tag_108:\n        /* \"DisputeDAO.sol\":4231:4234  i++ */\n      dup1\n      dup1\n      0x01\n      add\n      swap2\n      pop\n      pop\n        /* \"DisputeDAO.sol\":4177:4382  for (uint i = 0; i < disputeJurors[disputeId].length; i++) {... */\n      jump(tag_101)\n    tag_102:\n      pop\n        /* \"DisputeDAO.sol\":4400:4407  isJuror */\n      dup1\n        /* \"DisputeDAO.sol\":4392:4430  require(isJuror, \"Not selected juror\") */\n      tag_109\n      jumpi\n      mload(0x40)\n      0x08c379a000000000000000000000000000000000000000000000000000000000\n      dup2\n      mstore\n      0x04\n      add\n      tag_110\n      swap1\n      tag_111\n      jump\t// in\n    tag_110:\n      mload(0x40)\n      dup1\n      swap2\n      sub\n      swap1\n      revert\n    tag_109:\n        /* \"DisputeDAO.sol\":4450:4458  hasVoted */\n      0x06\n        /* \"DisputeDAO.sol\":4450:4469  hasVoted[disputeId] */\n      0x00\n        /* \"DisputeDAO.sol\":4459:4468  disputeId */\n      dup5\n        /* \"DisputeDAO.sol\":4450:4469  hasVoted[disputeId] */\n      dup2\n      mstore\n      0x20\n      add\n      swap1\n      dup2\n      mstore\n      0x20\n      add\n      0x00\n      keccak256\n        /* \"DisputeDAO.sol\":4450:4481  hasVoted[disputeId][msg.sender] */\n      0x00\n        /* \"DisputeDAO.sol\":4470:4480  msg.sender */\n      caller\n        /* \"DisputeDAO.sol\":4450:4481  hasVoted[disputeId][msg.sender] */\n      0xffffffffffffffffffffffffffffffffffffffff\n      and\n      0xffffffffffffffffffffffffffffffffffffffff\n      and\n      dup2\n      mstore\n      0x20\n      add\n      swap1\n      dup2\n      mstore\n      0x20\n      add\n      0x00\n      keccak256\n      0x00\n      swap1\n      sload\n      swap1\n      0x0100\n      exp\n      swap1\n      div\n      0xff\n      and\n        /* \"DisputeDAO.sol\":4449:4481  !hasVoted[disputeId][msg.sender] */\n      iszero\n        /* \"DisputeDAO.sol\":4441:4499  require(!hasVoted[disputeId][msg.sender], \"Already voted\") */\n      tag_112\n      jumpi\n      mload(0x40)\n      0x08c379a000000000000000000000000000000000000000000000000000000000\n      dup2\n      mstore\n      0x04\n      add\n      tag_113\n      swap1\n      tag_114\n      jump\t// in\n    tag_113:\n      mload(0x40)\n      dup1\n      swap2\n      sub\n      swap1\n      revert\n    tag_112:\n        /* \"DisputeDAO.sol\":4544:4548  true */\n      0x01\n        /* \"DisputeDAO.sol\":4510:4518  hasVoted */\n      0x06\n        /* \"DisputeDAO.sol\":4510:4529  hasVoted[disputeId] */\n      0x00\n        /* \"DisputeDAO.sol\":4519:4528  disputeId */\n      dup6\n        /* \"DisputeDAO.sol\":4510:4529  hasVoted[disputeId] */\n      dup2\n      mstore\n      0x20\n      add\n      swap1\n      dup2\n      mstore\n      0x20\n      add\n      0x00\n      keccak256\n        /* \"DisputeDAO.sol\":4510:4541  hasVoted[disputeId][msg.sender] */\n      0x00\n        /* \"DisputeDAO.sol\":4530:4540  msg.sender */\n      caller\n        /* \"DisputeDAO.sol\":4510:4541  hasVoted[disputeId][msg.sender] */\n      0xffffffffffffffffffffffffffffffffffffffff\n      and\n      0xffffffffffffffffffffffffffffffffffffffff\n      and\n      dup2\n      mstore\n      0x20\n      add\n      swap1\n      dup2\n      mstore\n      0x20\n      add\n      0x00\n      keccak256\n      0x00\n        /* \"DisputeDAO.sol\":4510:4548  hasVoted[disputeId][msg.sender] = true */\n      0x0100\n      exp\n      dup2\n      sload\n      dup2\n      0xff\n      mul\n      not\n      and\n      swap1\n      dup4\n      iszero\n      iszero\n      mul\n      or\n      swap1\n      sstore\n      pop\n        /* \"DisputeDAO.sol\":4590:4596  winner */\n      dup2\n        /* \"DisputeDAO.sol\":4559:4564  votes */\n      0x07\n        /* \"DisputeDAO.sol\":4559:4575  votes[disputeId] */\n      0x00\n        /* \"DisputeDAO.sol\":4565:4574  disputeId */\n      dup6\n        /* \"DisputeDAO.sol\":4559:4575  votes[disputeId] */\n      dup2\n      mstore\n      0x20\n      add\n      swap1\n      dup2\n      mstore\n      0x20\n      add\n      0x00\n      keccak256\n        /* \"DisputeDAO.sol\":4559:4587  votes[disputeId][msg.sender] */\n      0x00\n        /* \"DisputeDAO.sol\":4576:4586  msg.sender */\n      caller\n        /* \"DisputeDAO.sol\":4559:4587  votes[disputeId][msg.sender] */\n      0xffffffffffffffffffffffffffffffffffffffff\n      and\n      0xffffffffffffffffffffffffffffffffffffffff\n      and\n      dup2\n      mstore\n      0x20\n      add\n      swap1\n      dup2\n      mstore\n      0x20\n      add\n      0x00\n      keccak256\n      0x00\n        /* \"DisputeDAO.sol\":4559:4596  votes[disputeId][msg.sender] = winner */\n      0x0100\n      exp\n      dup2\n      sload\n      dup2\n      0xffffffffffffffffffffffffffffffffffffffff\n      mul\n      not\n      and\n      swap1\n      dup4\n      0xffffffffffffffffffffffffffffffffffffffff\n      and\n      mul\n      or\n      swap1\n      sstore\n      pop\n        /* \"DisputeDAO.sol\":4607:4621  candidateVotes */\n      0x09\n        /* \"DisputeDAO.sol\":4607:4632  candidateVotes[disputeId] */\n      0x00\n        /* \"DisputeDAO.sol\":4622:4631  disputeId */\n      dup5\n        /* \"DisputeDAO.sol\":4607:4632  candidateVotes[disputeId] */\n      dup2\n      mstore\n      0x20\n      add\n      swap1\n      dup2\n      mstore\n      0x20\n      add\n      0x00\n      keccak256\n        /* \"DisputeDAO.sol\":4607:4640  candidateVotes[disputeId][winner] */\n      0x00\n        /* \"DisputeDAO.sol\":4633:4639  winner */\n      dup4\n        /* \"DisputeDAO.sol\":4607:4640  candidateVotes[disputeId][winner] */\n      0xffffffffffffffffffffffffffffffffffffffff\n      and\n      0xffffffffffffffffffffffffffffffffffffffff\n      and\n      dup2\n      mstore\n      0x20\n      add\n      swap1\n      dup2\n      mstore\n      0x20\n      add\n      0x00\n      keccak256\n      0x00\n        /* \"DisputeDAO.sol\":4607:4642  candidateVotes[disputeId][winner]++ */\n      dup2\n      sload\n      dup1\n      swap3\n      swap2\n      swap1\n      tag_115\n      swap1\n      tag_116\n      jump\t// in\n    tag_115:\n      swap2\n      swap1\n      pop\n      sstore\n      pop\n        /* \"DisputeDAO.sol\":4653:4662  voteCount */\n      0x08\n        /* \"DisputeDAO.sol\":4653:4673  voteCount[disputeId] */\n      0x00\n        /* \"DisputeDAO.sol\":4663:4672  disputeId */\n      dup5\n        /* \"DisputeDAO.sol\":4653:4673  voteCount[disputeId] */\n      dup2\n      mstore\n      0x20\n      add\n      swap1\n      dup2\n      mstore\n      0x20\n      add\n      0x00\n      keccak256\n      0x00\n        /* \"DisputeDAO.sol\":4653:4675  voteCount[disputeId]++ */\n      dup2\n      sload\n      dup1\n      swap3\n      swap2\n      swap1\n      tag_117\n      swap1\n      tag_116\n      jump\t// in\n    tag_117:\n      swap2\n      swap1\n      pop\n      sstore\n      pop\n        /* \"DisputeDAO.sol\":4708:4718  msg.sender */\n      caller\n        /* \"DisputeDAO.sol\":4691:4727  Voted(disputeId, msg.sender, winner) */\n      0xffffffffffffffffffffffffffffffffffffffff\n      and\n        /* \"DisputeDAO.sol\":4697:4706  disputeId */\n      dup4\n        /* \"DisputeDAO.sol\":4691:4727  Voted(disputeId, msg.sender, winner) */\n      0xf6c8f1f54b2f54fb963820203fdef5b9aefb56ae2c4dd8b6133e151791a07f36\n        /* \"DisputeDAO.sol\":4720:4726  winner */\n      dup5\n        /* \"DisputeDAO.sol\":4691:4727  Voted(disputeId, msg.sender, winner) */\n      mload(0x40)\n      tag_118\n      swap2\n      swap1\n      tag_32\n      jump\t// in\n    tag_118:\n      mload(0x40)\n      dup1\n      swap2\n      sub\n      swap1\n      log3\n        /* \"DisputeDAO.sol\":4806:4822  jurorsPerDispute */\n      sload(0x03)\n        /* \"DisputeDAO.sol\":4782:4791  voteCount */\n      0x08\n        /* \"DisputeDAO.sol\":4782:4802  voteCount[disputeId] */\n      0x00\n        /* \"DisputeDAO.sol\":4792:4801  disputeId */\n      dup6\n        /* \"DisputeDAO.sol\":4782:4802  voteCount[disputeId] */\n      dup2\n      mstore\n      0x20\n      add\n      swap1\n      dup2\n      mstore\n      0x20\n      add\n      0x00\n      keccak256\n      sload\n        /* \"DisputeDAO.sol\":4782:4822  voteCount[disputeId] == jurorsPerDispute */\n      sub\n        /* \"DisputeDAO.sol\":4778:5599  if (voteCount[disputeId] == jurorsPerDispute) {... */\n      tag_119\n      jumpi\n        /* \"DisputeDAO.sol\":4839:4858  address finalWinner */\n      0x00\n        /* \"DisputeDAO.sol\":4861:4867  winner */\n      dup3\n        /* \"DisputeDAO.sol\":4839:4867  address finalWinner = winner */\n      swap1\n      pop\n        /* \"DisputeDAO.sol\":4882:4898  uint256 maxVotes */\n      0x00\n        /* \"DisputeDAO.sol\":4901:4902  0 */\n      0x00\n        /* \"DisputeDAO.sol\":4882:4902  uint256 maxVotes = 0 */\n      swap1\n      pop\n        /* \"DisputeDAO.sol\":4922:4928  uint i */\n      0x00\n        /* \"DisputeDAO.sol\":4931:4932  0 */\n      0x00\n        /* \"DisputeDAO.sol\":4922:4932  uint i = 0 */\n      swap1\n      pop\n        /* \"DisputeDAO.sol\":4917:5280  for (uint i = 0; i < disputeJurors[disputeId].length; i++) {... */\n    tag_120:\n        /* \"DisputeDAO.sol\":4938:4951  disputeJurors */\n      0x05\n        /* \"DisputeDAO.sol\":4938:4962  disputeJurors[disputeId] */\n      0x00\n        /* \"DisputeDAO.sol\":4952:4961  disputeId */\n      dup8\n        /* \"DisputeDAO.sol\":4938:4962  disputeJurors[disputeId] */\n      dup2\n      mstore\n      0x20\n      add\n      swap1\n      dup2\n      mstore\n      0x20\n      add\n      0x00\n      keccak256\n        /* \"DisputeDAO.sol\":4938:4969  disputeJurors[disputeId].length */\n      dup1\n      sload\n      swap1\n      pop\n        /* \"DisputeDAO.sol\":4934:4935  i */\n      dup2\n        /* \"DisputeDAO.sol\":4934:4969  i < disputeJurors[disputeId].length */\n      lt\n        /* \"DisputeDAO.sol\":4917:5280  for (uint i = 0; i < disputeJurors[disputeId].length; i++) {... */\n      iszero\n      tag_121\n      jumpi\n        /* \"DisputeDAO.sol\":4995:5012  address candidate */\n      0x00\n        /* \"DisputeDAO.sol\":5015:5020  votes */\n      0x07\n        /* \"DisputeDAO.sol\":5015:5031  votes[disputeId] */\n      0x00\n        /* \"DisputeDAO.sol\":5021:5030  disputeId */\n      dup9\n        /* \"DisputeDAO.sol\":5015:5031  votes[disputeId] */\n      dup2\n      mstore\n      0x20\n      add\n      swap1\n      dup2\n      mstore\n      0x20\n      add\n      0x00\n      keccak256\n        /* \"DisputeDAO.sol\":5015:5060  votes[disputeId][disputeJurors[disputeId][i]] */\n      0x00\n        /* \"DisputeDAO.sol\":5032:5045  disputeJurors */\n      0x05\n        /* \"DisputeDAO.sol\":5032:5056  disputeJurors[disputeId] */\n      0x00\n        /* \"DisputeDAO.sol\":5046:5055  disputeId */\n      dup11\n        /* \"DisputeDAO.sol\":5032:5056  disputeJurors[disputeId] */\n      dup2\n      mstore\n      0x20\n      add\n      swap1\n      dup2\n      mstore\n      0x20\n      add\n      0x00\n      keccak256\n        /* \"DisputeDAO.sol\":5057:5058  i */\n      dup5\n        /* \"DisputeDAO.sol\":5032:5059  disputeJurors[disputeId][i] */\n      dup2\n      sload\n      dup2\n      lt\n      tag_123\n      jumpi\n      tag_124\n      tag_106\n      jump\t// in\n    tag_124:\n    tag_123:\n      swap1\n      0x00\n      mstore\n      keccak256(0x00, 0x20)\n      add\n      0x00\n      swap1\n      sload\n      swap1\n      0x0100\n      exp\n      swap1\n      div\n      0xffffffffffffffffffffffffffffffffffffffff\n      and\n        /* \"DisputeDAO.sol\":5015:5060  votes[disputeId][disputeJurors[disputeId][i]] */\n      0xffffffffffffffffffffffffffffffffffffffff\n      and\n      0xffffffffffffffffffffffffffffffffffffffff\n      and\n      dup2\n      mstore\n      0x20\n      add\n      swap1\n      dup2\n      mstore\n      0x20\n      add\n      0x00\n      keccak256\n      0x00\n      swap1\n      sload\n      swap1\n      0x0100\n      exp\n      swap1\n      div\n      0xffffffffffffffffffffffffffffffffffffffff\n      and\n        /* \"DisputeDAO.sol\":4995:5060  address candidate = votes[disputeId][disputeJurors[disputeId][i]] */\n      swap1\n      pop\n        /* \"DisputeDAO.sol\":5079:5088  uint256 v */\n      0x00\n        /* \"DisputeDAO.sol\":5091:5105  candidateVotes */\n      0x09\n        /* \"DisputeDAO.sol\":5091:5116  candidateVotes[disputeId] */\n      0x00\n        /* \"DisputeDAO.sol\":5106:5115  disputeId */\n      dup10\n        /* \"DisputeDAO.sol\":5091:5116  candidateVotes[disputeId] */\n      dup2\n      mstore\n      0x20\n      add\n      swap1\n      dup2\n      mstore\n      0x20\n      add\n      0x00\n      keccak256\n        /* \"DisputeDAO.sol\":5091:5127  candidateVotes[disputeId][candidate] */\n      0x00\n        /* \"DisputeDAO.sol\":5117:5126  candidate */\n      dup4\n        /* \"DisputeDAO.sol\":5091:5127  candidateVotes[disputeId][candidate] */\n      0xffffffffffffffffffffffffffffffffffffffff\n      and\n      0xffffffffffffffffffffffffffffffffffffffff\n      and\n      dup2\n      mstore\n      0x20\n      add\n      swap1\n      dup2\n      mstore\n      0x20\n      add\n      0x00\n      keccak256\n      sload\n        /* \"DisputeDAO.sol\":5079:5127  uint256 v = candidateVotes[disputeId][candidate] */\n      swap1\n      pop\n        /* \"DisputeDAO.sol\":5154:5162  maxVotes */\n      dup4\n        /* \"DisputeDAO.sol\":5150:5151  v */\n      dup2\n        /* \"DisputeDAO.sol\":5150:5162  v > maxVotes */\n      gt\n        /* \"DisputeDAO.sol\":5146:5265  if (v > maxVotes) {... */\n      iszero\n      tag_126\n      jumpi\n        /* \"DisputeDAO.sol\":5198:5199  v */\n      dup1\n        /* \"DisputeDAO.sol\":5187:5199  maxVotes = v */\n      swap4\n      pop\n        /* \"DisputeDAO.sol\":5236:5245  candidate */\n      dup2\n        /* \"DisputeDAO.sol\":5222:5245  finalWinner = candidate */\n      swap5\n      pop\n        /* \"DisputeDAO.sol\":5146:5265  if (v > maxVotes) {... */\n    tag_126:\n        /* \"DisputeDAO.sol\":4976:5280  {... */\n      pop\n      pop\n        /* \"DisputeDAO.sol\":4971:4974  i++ */\n      dup1\n      dup1\n      0x01\n      add\n      swap2\n      pop\n      pop\n        /* \"DisputeDAO.sol\":4917:5280  for (uint i = 0; i < disputeJurors[disputeId].length; i++) {... */\n      jump(tag_120)\n    tag_121:\n      pop\n        /* \"DisputeDAO.sol\":5329:5341  bool success */\n      0x00\n        /* \"DisputeDAO.sol\":5347:5358  taskFactory */\n      0x04\n      0x00\n      swap1\n      sload\n      swap1\n      0x0100\n      exp\n      swap1\n      div\n      0xffffffffffffffffffffffffffffffffffffffff\n      and\n        /* \"DisputeDAO.sol\":5347:5363  taskFactory.call */\n      0xffffffffffffffffffffffffffffffffffffffff\n      and\n        /* \"DisputeDAO.sol\":5441:5450  disputeId */\n      dup7\n        /* \"DisputeDAO.sol\":5452:5463  finalWinner */\n      dup5\n        /* \"DisputeDAO.sol\":5382:5464  abi.encodeWithSignature(\"resolveDispute(uint256,address)\", disputeId, finalWinner) */\n      add(0x24, mload(0x40))\n      tag_127\n      swap3\n      swap2\n      swap1\n      tag_128\n      jump\t// in\n    tag_127:\n      mload(0x40)\n      0x20\n      dup2\n      dup4\n      sub\n      sub\n      dup2\n      mstore\n      swap1\n      0x40\n      mstore\n      and(not(0xffffffffffffffffffffffffffffffffffffffffffffffffffffffff), 0x0e33599d00000000000000000000000000000000000000000000000000000000)\n      0x20\n      dup3\n      add\n      dup1\n      mload\n      0xffffffffffffffffffffffffffffffffffffffffffffffffffffffff\n      dup4\n      dup2\n      dup4\n      and\n      or\n      dup4\n      mstore\n      pop\n      pop\n      pop\n      pop\n        /* \"DisputeDAO.sol\":5347:5479  taskFactory.call(... */\n      mload(0x40)\n      tag_129\n      swap2\n      swap1\n      tag_130\n      jump\t// in\n    tag_129:\n      0x00\n      mload(0x40)\n      dup1\n      dup4\n      sub\n      dup2\n      0x00\n      dup7\n      gas\n      call\n      swap2\n      pop\n      pop\n      returndatasize\n      dup1\n      0x00\n      dup2\n      eq\n      tag_133\n      jumpi\n      mload(0x40)\n      swap2\n      pop\n      and(add(returndatasize, 0x3f), not(0x1f))\n      dup3\n      add\n      0x40\n      mstore\n      returndatasize\n      dup3\n      mstore\n      returndatasize\n      0x00\n      0x20\n      dup5\n      add\n      returndatacopy\n      jump(tag_132)\n    tag_133:\n      0x60\n      swap2\n      pop\n    tag_132:\n      pop\n        /* \"DisputeDAO.sol\":5328:5479  (bool success, ) = taskFactory.call(... */\n      pop\n      swap1\n      pop\n        /* \"DisputeDAO.sol\":5502:5509  success */\n      dup1\n        /* \"DisputeDAO.sol\":5494:5528  require(success, \"Resolve failed\") */\n      tag_134\n      jumpi\n      mload(0x40)\n      0x08c379a000000000000000000000000000000000000000000000000000000000\n      dup2\n      mstore\n      0x04\n      add\n      tag_135\n      swap1\n      tag_136\n      jump\t// in\n    tag_135:\n      mload(0x40)\n      dup1\n      swap2\n      sub\n      swap1\n      revert\n    tag_134:\n        /* \"DisputeDAO.sol\":5564:5573  disputeId */\n      dup6\n        /* \"DisputeDAO.sol\":5548:5587  DisputeResolved(disputeId, finalWinner) */\n      0xf77ceb5e091d2da041bc760667f9d5fe7a756949eaf29250ad0e60ca6f4c27d9\n        /* \"DisputeDAO.sol\":5575:5586  finalWinner */\n      dup5\n        /* \"DisputeDAO.sol\":5548:5587  DisputeResolved(disputeId, finalWinner) */\n      mload(0x40)\n      tag_137\n      swap2\n      swap1\n      tag_32\n      jump\t// in\n    tag_137:\n      mload(0x40)\n      dup1\n      swap2\n      sub\n      swap1\n      log2\n        /* \"DisputeDAO.sol\":4824:5599  {... */\n      pop\n      pop\n      pop\n        /* \"DisputeDAO.sol\":4778:5599  if (voteCount[disputeId] == jurorsPerDispute) {... */\n    tag_119:\n        /* \"DisputeDAO.sol\":4027:5606  {... */\n      pop\n        /* \"DisputeDAO.sol\":3969:5606  function vote(uint256 disputeId, address winner) external {... */\n      pop\n      pop\n      jump\t// out\n        /* \"DisputeDAO.sol\":500:550  mapping(uint256 => address[]) public disputeJurors */\n    tag_30:\n      mstore(0x20, 0x05)\n      dup2\n      0x00\n      mstore\n      keccak256(0x00, 0x40)\n      dup2\n      dup2\n      sload\n      dup2\n      lt\n      tag_138\n      jumpi\n      0x00\n      dup1\n      revert\n    tag_138:\n      swap1\n      0x00\n      mstore\n      keccak256(0x00, 0x20)\n      add\n      0x00\n      swap2\n      pop\n      swap2\n      pop\n      swap1\n      sload\n      swap1\n      0x0100\n      exp\n      swap1\n      div\n      0xffffffffffffffffffffffffffffffffffffffff\n      and\n      dup2\n      jump\t// out\n        /* \"DisputeDAO.sol\":2192:2522  function unstake() external {... */\n    tag_35:\n        /* \"DisputeDAO.sol\":2231:2250  Juror storage juror */\n      0x00\n        /* \"DisputeDAO.sol\":2253:2259  jurors */\n      0x00\n        /* \"DisputeDAO.sol\":2253:2271  jurors[msg.sender] */\n      0x00\n        /* \"DisputeDAO.sol\":2260:2270  msg.sender */\n      caller\n        /* \"DisputeDAO.sol\":2253:2271  jurors[msg.sender] */\n      0xffffffffffffffffffffffffffffffffffffffff\n      and\n      0xffffffffffffffffffffffffffffffffffffffff\n      and\n      dup2\n      mstore\n      0x20\n      add\n      swap1\n      dup2\n      mstore\n      0x20\n      add\n      0x00\n      keccak256\n        /* \"DisputeDAO.sol\":2231:2271  Juror storage juror = jurors[msg.sender] */\n      swap1\n      pop\n        /* \"DisputeDAO.sol\":2290:2295  juror */\n      dup1\n        /* \"DisputeDAO.sol\":2290:2304  juror.isActive */\n      0x02\n      add\n      0x00\n      swap1\n      sload\n      swap1\n      0x0100\n      exp\n      swap1\n      div\n      0xff\n      and\n        /* \"DisputeDAO.sol\":2282:2320  require(juror.isActive, \"Not a juror\") */\n      tag_141\n      jumpi\n      mload(0x40)\n      0x08c379a000000000000000000000000000000000000000000000000000000000\n      dup2\n      mstore\n      0x04\n      add\n      tag_142\n      swap1\n      tag_100\n      jump\t// in\n    tag_142:\n      mload(0x40)\n      dup1\n      swap2\n      sub\n      swap1\n      revert\n    tag_141:\n        /* \"DisputeDAO.sol\":2331:2345  uint256 amount */\n      0x00\n        /* \"DisputeDAO.sol\":2348:2353  juror */\n      dup2\n        /* \"DisputeDAO.sol\":2348:2359  juror.stake */\n      0x01\n      add\n      sload\n        /* \"DisputeDAO.sol\":2331:2359  uint256 amount = juror.stake */\n      swap1\n      pop\n        /* \"DisputeDAO.sol\":2387:2392  false */\n      0x00\n        /* \"DisputeDAO.sol\":2370:2375  juror */\n      dup3\n        /* \"DisputeDAO.sol\":2370:2384  juror.isActive */\n      0x02\n      add\n      0x00\n        /* \"DisputeDAO.sol\":2370:2392  juror.isActive = false */\n      0x0100\n      exp\n      dup2\n      sload\n      dup2\n      0xff\n      mul\n      not\n      and\n      swap1\n      dup4\n      iszero\n      iszero\n      mul\n      or\n      swap1\n      sstore\n      pop\n        /* \"DisputeDAO.sol\":2417:2418  0 */\n      0x00\n        /* \"DisputeDAO.sol\":2403:2408  juror */\n      dup3\n        /* \"DisputeDAO.sol\":2403:2414  juror.stake */\n      0x01\n      add\n        /* \"DisputeDAO.sol\":2403:2418  juror.stake = 0 */\n      dup2\n      swap1\n      sstore\n      pop\n        /* \"DisputeDAO.sol\":2437:2447  msg.sender */\n      caller\n        /* \"DisputeDAO.sol\":2429:2457  payable(msg.sender).transfer */\n      0xffffffffffffffffffffffffffffffffffffffff\n      and\n        /* \"DisputeDAO.sol\":2429:2465  payable(msg.sender).transfer(amount) */\n      0x08fc\n        /* \"DisputeDAO.sol\":2458:2464  amount */\n      dup3\n        /* \"DisputeDAO.sol\":2429:2465  payable(msg.sender).transfer(amount) */\n      swap1\n      dup2\n      iszero\n      mul\n      swap1\n      mload(0x40)\n      0x00\n      mload(0x40)\n      dup1\n      dup4\n      sub\n      dup2\n      dup6\n      dup9\n      dup9\n      call\n      swap4\n      pop\n      pop\n      pop\n      pop\n      iszero\n      dup1\n      iszero\n      tag_144\n      jumpi\n      returndatacopy(0x00, 0x00, returndatasize)\n      revert(0x00, returndatasize)\n    tag_144:\n      pop\n        /* \"DisputeDAO.sol\":2495:2505  msg.sender */\n      caller\n        /* \"DisputeDAO.sol\":2481:2514  JurorUnstaked(msg.sender, amount) */\n      0xffffffffffffffffffffffffffffffffffffffff\n      and\n      0x610a1d949cc1ca7d4391b2530deda84f33b5f02dbd462643f21cd8a1b3cd573f\n        /* \"DisputeDAO.sol\":2507:2513  amount */\n      dup3\n        /* \"DisputeDAO.sol\":2481:2514  JurorUnstaked(msg.sender, amount) */\n      mload(0x40)\n      tag_145\n      swap2\n      swap1\n      tag_40\n      jump\t// in\n    tag_145:\n      mload(0x40)\n      dup1\n      swap2\n      sub\n      swap1\n      log2\n        /* \"DisputeDAO.sol\":2220:2522  {... */\n      pop\n      pop\n        /* \"DisputeDAO.sol\":2192:2522  function unstake() external {... */\n      jump\t// out\n        /* \"DisputeDAO.sol\":260:295  uint256 public minStake = 0.1 ether */\n    tag_38:\n      sload(0x02)\n      dup2\n      jump\t// out\n        /* \"DisputeDAO.sol\":1794:2142  function stake() external payable {... */\n    tag_42:\n        /* \"DisputeDAO.sol\":1860:1868  minStake */\n      sload(0x02)\n        /* \"DisputeDAO.sol\":1847:1856  msg.value */\n      callvalue\n        /* \"DisputeDAO.sol\":1847:1868  msg.value >= minStake */\n      lt\n      iszero\n        /* \"DisputeDAO.sol\":1839:1891  require(msg.value >= minStake, \"Insufficient stake\") */\n      tag_147\n      jumpi\n      mload(0x40)\n      0x08c379a000000000000000000000000000000000000000000000000000000000\n      dup2\n      mstore\n      0x04\n      add\n      tag_148\n      swap1\n      tag_149\n      jump\t// in\n    tag_148:\n      mload(0x40)\n      dup1\n      swap2\n      sub\n      swap1\n      revert\n    tag_147:\n        /* \"DisputeDAO.sol\":1911:1917  jurors */\n      0x00\n        /* \"DisputeDAO.sol\":1911:1929  jurors[msg.sender] */\n      0x00\n        /* \"DisputeDAO.sol\":1918:1928  msg.sender */\n      caller\n        /* \"DisputeDAO.sol\":1911:1929  jurors[msg.sender] */\n      0xffffffffffffffffffffffffffffffffffffffff\n      and\n      0xffffffffffffffffffffffffffffffffffffffff\n      and\n      dup2\n      mstore\n      0x20\n      add\n      swap1\n      dup2\n      mstore\n      0x20\n      add\n      0x00\n      keccak256\n        /* \"DisputeDAO.sol\":1911:1938  jurors[msg.sender].isActive */\n      0x02\n      add\n      0x00\n      swap1\n      sload\n      swap1\n      0x0100\n      exp\n      swap1\n      div\n      0xff\n      and\n        /* \"DisputeDAO.sol\":1910:1938  !jurors[msg.sender].isActive */\n      iszero\n        /* \"DisputeDAO.sol\":1902:1956  require(!jurors[msg.sender].isActive, \"Already juror\") */\n      tag_150\n      jumpi\n      mload(0x40)\n      0x08c379a000000000000000000000000000000000000000000000000000000000\n      dup2\n      mstore\n      0x04\n      add\n      tag_151\n      swap1\n      tag_152\n      jump\t// in\n    tag_151:\n      mload(0x40)\n      dup1\n      swap2\n      sub\n      swap1\n      revert\n    tag_150:\n        /* \"DisputeDAO.sol\":1988:2047  Juror({addr: msg.sender, stake: msg.value, isActive: true}) */\n      mload(0x40)\n      dup1\n      0x60\n      add\n      0x40\n      mstore\n      dup1\n        /* \"DisputeDAO.sol\":2001:2011  msg.sender */\n      caller\n        /* \"DisputeDAO.sol\":1988:2047  Juror({addr: msg.sender, stake: msg.value, isActive: true}) */\n      0xffffffffffffffffffffffffffffffffffffffff\n      and\n      dup2\n      mstore\n      0x20\n      add\n        /* \"DisputeDAO.sol\":2020:2029  msg.value */\n      callvalue\n        /* \"DisputeDAO.sol\":1988:2047  Juror({addr: msg.sender, stake: msg.value, isActive: true}) */\n      dup2\n      mstore\n      0x20\n      add\n        /* \"DisputeDAO.sol\":2041:2045  true */\n      0x01\n        /* \"DisputeDAO.sol\":1988:2047  Juror({addr: msg.sender, stake: msg.value, isActive: true}) */\n      iszero\n      iszero\n      dup2\n      mstore\n      pop\n        /* \"DisputeDAO.sol\":1967:1973  jurors */\n      0x00\n        /* \"DisputeDAO.sol\":1967:1985  jurors[msg.sender] */\n      0x00\n        /* \"DisputeDAO.sol\":1974:1984  msg.sender */\n      caller\n        /* \"DisputeDAO.sol\":1967:1985  jurors[msg.sender] */\n      0xffffffffffffffffffffffffffffffffffffffff\n      and\n      0xffffffffffffffffffffffffffffffffffffffff\n      and\n      dup2\n      mstore\n      0x20\n      add\n      swap1\n      dup2\n      mstore\n      0x20\n      add\n      0x00\n      keccak256\n        /* \"DisputeDAO.sol\":1967:2047  jurors[msg.sender] = Juror({addr: msg.sender, stake: msg.value, isActive: true}) */\n      0x00\n      dup3\n      add\n      mload\n      dup2\n      0x00\n      add\n      exp(0x0100, 0x00)\n      dup2\n      sload\n      dup2\n      0xffffffffffffffffffffffffffffffffffffffff\n      mul\n      not\n      and\n      swap1\n      dup4\n      0xffffffffffffffffffffffffffffffffffffffff\n      and\n      mul\n      or\n      swap1\n      sstore\n      pop\n      0x20\n      dup3\n      add\n      mload\n      dup2\n      0x01\n      add\n      sstore\n      0x40\n      dup3\n      add\n      mload\n      dup2\n      0x02\n      add\n      exp(0x0100, 0x00)\n      dup2\n      sload\n      dup2\n      0xff\n      mul\n      not\n      and\n      swap1\n      dup4\n      iszero\n      iszero\n      mul\n      or\n      swap1\n      sstore\n      pop\n      swap1\n      pop\n      pop\n        /* \"DisputeDAO.sol\":2058:2067  jurorList */\n      0x01\n        /* \"DisputeDAO.sol\":2073:2083  msg.sender */\n      caller\n        /* \"DisputeDAO.sol\":2058:2084  jurorList.push(msg.sender) */\n      swap1\n      dup1\n      0x01\n      dup2\n      sload\n      add\n      dup1\n      dup3\n      sstore\n      dup1\n      swap2\n      pop\n      pop\n      0x01\n      swap1\n      sub\n      swap1\n      0x00\n      mstore\n      keccak256(0x00, 0x20)\n      add\n      0x00\n      swap1\n      swap2\n      swap1\n      swap2\n      swap1\n      swap2\n      0x0100\n      exp\n      dup2\n      sload\n      dup2\n      0xffffffffffffffffffffffffffffffffffffffff\n      mul\n      not\n      and\n      swap1\n      dup4\n      0xffffffffffffffffffffffffffffffffffffffff\n      and\n      mul\n      or\n      swap1\n      sstore\n      pop\n        /* \"DisputeDAO.sol\":2112:2122  msg.sender */\n      caller\n        /* \"DisputeDAO.sol\":2100:2134  JurorStaked(msg.sender, msg.value) */\n      0xffffffffffffffffffffffffffffffffffffffff\n      and\n      0xc9626d754b3720da351a26831dc4d1481cb9f2dd7ec9ba5356f710bcf4354b59\n        /* \"DisputeDAO.sol\":2124:2133  msg.value */\n      callvalue\n        /* \"DisputeDAO.sol\":2100:2134  JurorStaked(msg.sender, msg.value) */\n      mload(0x40)\n      tag_154\n      swap2\n      swap1\n      tag_40\n      jump\t// in\n    tag_154:\n      mload(0x40)\n      dup1\n      swap2\n      sub\n      swap1\n      log2\n        /* \"DisputeDAO.sol\":1794:2142  function stake() external payable {... */\n      jump\t// out\n        /* \"DisputeDAO.sol\":557:617  mapping(uint256 => mapping(address => bool)) public hasVoted */\n    tag_46:\n      mstore(0x20, 0x06)\n      dup2\n      0x00\n      mstore\n      mstore(0x20, keccak256(0x00, 0x40))\n      dup1\n      0x00\n      mstore\n      keccak256(0x00, 0x40)\n      0x00\n      swap2\n      pop\n      swap2\n      pop\n      swap1\n      sload\n      swap1\n      0x0100\n      exp\n      swap1\n      div\n      0xff\n      and\n      dup2\n      jump\t// out\n        /* \"DisputeDAO.sol\":2617:3922  function handleDispute(uint256 disputeId) external onlyTaskFactory {... */\n    tag_53:\n        /* \"DisputeDAO.sol\":1314:1325  taskFactory */\n      0x04\n      0x00\n      swap1\n      sload\n      swap1\n      0x0100\n      exp\n      swap1\n      div\n      0xffffffffffffffffffffffffffffffffffffffff\n      and\n        /* \"DisputeDAO.sol\":1300:1325  msg.sender == taskFactory */\n      0xffffffffffffffffffffffffffffffffffffffff\n      and\n        /* \"DisputeDAO.sol\":1300:1310  msg.sender */\n      caller\n        /* \"DisputeDAO.sol\":1300:1325  msg.sender == taskFactory */\n      0xffffffffffffffffffffffffffffffffffffffff\n      and\n      eq\n        /* \"DisputeDAO.sol\":1292:1346  require(msg.sender == taskFactory, \"Only TaskFactory\") */\n      tag_156\n      jumpi\n      mload(0x40)\n      0x08c379a000000000000000000000000000000000000000000000000000000000\n      dup2\n      mstore\n      0x04\n      add\n      tag_157\n      swap1\n      tag_158\n      jump\t// in\n    tag_157:\n      mload(0x40)\n      dup1\n      swap2\n      sub\n      swap1\n      revert\n    tag_156:\n        /* \"DisputeDAO.sol\":2738:2739  0 */\n      0x00\n        /* \"DisputeDAO.sol\":2703:2716  disputeJurors */\n      0x05\n        /* \"DisputeDAO.sol\":2703:2727  disputeJurors[disputeId] */\n      0x00\n        /* \"DisputeDAO.sol\":2717:2726  disputeId */\n      dup4\n        /* \"DisputeDAO.sol\":2703:2727  disputeJurors[disputeId] */\n      dup2\n      mstore\n      0x20\n      add\n      swap1\n      dup2\n      mstore\n      0x20\n      add\n      0x00\n      keccak256\n        /* \"DisputeDAO.sol\":2703:2734  disputeJurors[disputeId].length */\n      dup1\n      sload\n      swap1\n      pop\n        /* \"DisputeDAO.sol\":2703:2739  disputeJurors[disputeId].length == 0 */\n      eq\n        /* \"DisputeDAO.sol\":2695:2767  require(disputeJurors[disputeId].length == 0, \"Dispute already started\") */\n      tag_160\n      jumpi\n      mload(0x40)\n      0x08c379a000000000000000000000000000000000000000000000000000000000\n      dup2\n      mstore\n      0x04\n      add\n      tag_161\n      swap1\n      tag_162\n      jump\t// in\n    tag_161:\n      mload(0x40)\n      dup1\n      swap2\n      sub\n      swap1\n      revert\n    tag_160:\n        /* \"DisputeDAO.sol\":2806:2822  jurorsPerDispute */\n      sload(0x03)\n        /* \"DisputeDAO.sol\":2786:2795  jurorList */\n      0x01\n        /* \"DisputeDAO.sol\":2786:2802  jurorList.length */\n      dup1\n      sload\n      swap1\n      pop\n        /* \"DisputeDAO.sol\":2786:2822  jurorList.length >= jurorsPerDispute */\n      lt\n      iszero\n        /* \"DisputeDAO.sol\":2778:2844  require(jurorList.length >= jurorsPerDispute, \"Not enough jurors\") */\n      tag_163\n      jumpi\n      mload(0x40)\n      0x08c379a000000000000000000000000000000000000000000000000000000000\n      dup2\n      mstore\n      0x04\n      add\n      tag_164\n      swap1\n      tag_165\n      jump\t// in\n    tag_164:\n      mload(0x40)\n      dup1\n      swap2\n      sub\n      swap1\n      revert\n    tag_163:\n        /* \"DisputeDAO.sol\":2855:2880  address[] memory selected */\n      0x00\n        /* \"DisputeDAO.sol\":2897:2913  jurorsPerDispute */\n      sload(0x03)\n        /* \"DisputeDAO.sol\":2883:2914  new address[](jurorsPerDispute) */\n      0xffffffffffffffff\n      dup2\n      gt\n      iszero\n      tag_166\n      jumpi\n      tag_167\n      tag_168\n      jump\t// in\n    tag_167:\n    tag_166:\n      mload(0x40)\n      swap1\n      dup1\n      dup3\n      mstore\n      dup1\n      0x20\n      mul\n      0x20\n      add\n      dup3\n      add\n      0x40\n      mstore\n      dup1\n      iszero\n      tag_169\n      jumpi\n      dup2\n      0x20\n      add\n      0x20\n      dup3\n      mul\n      dup1\n      calldatasize\n      dup4\n      calldatacopy\n      dup1\n      dup3\n      add\n      swap2\n      pop\n      pop\n      swap1\n      pop\n    tag_169:\n      pop\n        /* \"DisputeDAO.sol\":2855:2914  address[] memory selected = new address[](jurorsPerDispute) */\n      swap1\n      pop\n        /* \"DisputeDAO.sol\":2925:2937  uint256 seed */\n      0x00\n        /* \"DisputeDAO.sol\":2975:2990  block.timestamp */\n      timestamp\n        /* \"DisputeDAO.sol\":2992:3001  disputeId */\n      dup4\n        /* \"DisputeDAO.sol\":2958:3002  abi.encodePacked(block.timestamp, disputeId) */\n      add(0x20, mload(0x40))\n      tag_170\n      swap3\n      swap2\n      swap1\n      tag_171\n      jump\t// in\n    tag_170:\n      mload(0x40)\n      0x20\n      dup2\n      dup4\n      sub\n      sub\n      dup2\n      mstore\n      swap1\n      0x40\n      mstore\n        /* \"DisputeDAO.sol\":2948:3003  keccak256(abi.encodePacked(block.timestamp, disputeId)) */\n      dup1\n      mload\n      swap1\n      0x20\n      add\n      keccak256\n        /* \"DisputeDAO.sol\":2940:3004  uint256(keccak256(abi.encodePacked(block.timestamp, disputeId))) */\n      0x00\n      shr\n        /* \"DisputeDAO.sol\":2925:3004  uint256 seed = uint256(keccak256(abi.encodePacked(block.timestamp, disputeId))) */\n      swap1\n      pop\n        /* \"DisputeDAO.sol\":3015:3028  uint256 count */\n      0x00\n        /* \"DisputeDAO.sol\":3031:3032  0 */\n      0x00\n        /* \"DisputeDAO.sol\":3015:3032  uint256 count = 0 */\n      swap1\n      pop\n        /* \"DisputeDAO.sol\":3043:3052  uint256 i */\n      0x00\n        /* \"DisputeDAO.sol\":3055:3056  0 */\n      0x00\n        /* \"DisputeDAO.sol\":3043:3056  uint256 i = 0 */\n      swap1\n      pop\n        /* \"DisputeDAO.sol\":3067:3745  while (count < jurorsPerDispute && i < jurorList.length * 2) {... */\n    tag_172:\n        /* \"DisputeDAO.sol\":3082:3098  jurorsPerDispute */\n      sload(0x03)\n        /* \"DisputeDAO.sol\":3074:3079  count */\n      dup3\n        /* \"DisputeDAO.sol\":3074:3098  count < jurorsPerDispute */\n      lt\n        /* \"DisputeDAO.sol\":3074:3126  count < jurorsPerDispute && i < jurorList.length * 2 */\n      dup1\n      iszero\n      tag_174\n      jumpi\n      pop\n        /* \"DisputeDAO.sol\":3125:3126  2 */\n      0x02\n        /* \"DisputeDAO.sol\":3106:3115  jurorList */\n      0x01\n        /* \"DisputeDAO.sol\":3106:3122  jurorList.length */\n      dup1\n      sload\n      swap1\n      pop\n        /* \"DisputeDAO.sol\":3106:3126  jurorList.length * 2 */\n      tag_175\n      swap2\n      swap1\n      tag_176\n      jump\t// in\n    tag_175:\n        /* \"DisputeDAO.sol\":3102:3103  i */\n      dup2\n        /* \"DisputeDAO.sol\":3102:3126  i < jurorList.length * 2 */\n      lt\n        /* \"DisputeDAO.sol\":3074:3126  count < jurorsPerDispute && i < jurorList.length * 2 */\n    tag_174:\n        /* \"DisputeDAO.sol\":3067:3745  while (count < jurorsPerDispute && i < jurorList.length * 2) {... */\n      iszero\n      tag_173\n      jumpi\n        /* \"DisputeDAO.sol\":3143:3160  address candidate */\n      0x00\n        /* \"DisputeDAO.sol\":3163:3172  jurorList */\n      0x01\n        /* \"DisputeDAO.sol\":3221:3230  jurorList */\n      dup1\n        /* \"DisputeDAO.sol\":3221:3237  jurorList.length */\n      dup1\n      sload\n      swap1\n      pop\n        /* \"DisputeDAO.sol\":3208:3212  seed */\n      dup6\n        /* \"DisputeDAO.sol\":3214:3215  i */\n      dup5\n        /* \"DisputeDAO.sol\":3191:3216  abi.encodePacked(seed, i) */\n      add(0x20, mload(0x40))\n      tag_177\n      swap3\n      swap2\n      swap1\n      tag_171\n      jump\t// in\n    tag_177:\n      mload(0x40)\n      0x20\n      dup2\n      dup4\n      sub\n      sub\n      dup2\n      mstore\n      swap1\n      0x40\n      mstore\n        /* \"DisputeDAO.sol\":3181:3217  keccak256(abi.encodePacked(seed, i)) */\n      dup1\n      mload\n      swap1\n      0x20\n      add\n      keccak256\n        /* \"DisputeDAO.sol\":3173:3218  uint256(keccak256(abi.encodePacked(seed, i))) */\n      0x00\n      shr\n        /* \"DisputeDAO.sol\":3173:3237  uint256(keccak256(abi.encodePacked(seed, i))) % jurorList.length */\n      tag_178\n      swap2\n      swap1\n      tag_179\n      jump\t// in\n    tag_178:\n        /* \"DisputeDAO.sol\":3163:3238  jurorList[uint256(keccak256(abi.encodePacked(seed, i))) % jurorList.length] */\n      dup2\n      sload\n      dup2\n      lt\n      tag_180\n      jumpi\n      tag_181\n      tag_106\n      jump\t// in\n    tag_181:\n    tag_180:\n      swap1\n      0x00\n      mstore\n      keccak256(0x00, 0x20)\n      add\n      0x00\n      swap1\n      sload\n      swap1\n      0x0100\n      exp\n      swap1\n      div\n      0xffffffffffffffffffffffffffffffffffffffff\n      and\n        /* \"DisputeDAO.sol\":3143:3238  address candidate = jurorList[uint256(keccak256(abi.encodePacked(seed, i))) % jurorList.length] */\n      swap1\n      pop\n        /* \"DisputeDAO.sol\":3257:3263  jurors */\n      0x00\n        /* \"DisputeDAO.sol\":3257:3274  jurors[candidate] */\n      0x00\n        /* \"DisputeDAO.sol\":3264:3273  candidate */\n      dup3\n        /* \"DisputeDAO.sol\":3257:3274  jurors[candidate] */\n      0xffffffffffffffffffffffffffffffffffffffff\n      and\n      0xffffffffffffffffffffffffffffffffffffffff\n      and\n      dup2\n      mstore\n      0x20\n      add\n      swap1\n      dup2\n      mstore\n      0x20\n      add\n      0x00\n      keccak256\n        /* \"DisputeDAO.sol\":3257:3283  jurors[candidate].isActive */\n      0x02\n      add\n      0x00\n      swap1\n      sload\n      swap1\n      0x0100\n      exp\n      swap1\n      div\n      0xff\n      and\n        /* \"DisputeDAO.sol\":3253:3716  if (jurors[candidate].isActive) {... */\n      iszero\n      tag_183\n      jumpi\n        /* \"DisputeDAO.sol\":3304:3324  bool alreadySelected */\n      0x00\n        /* \"DisputeDAO.sol\":3327:3332  false */\n      0x00\n        /* \"DisputeDAO.sol\":3304:3332  bool alreadySelected = false */\n      swap1\n      pop\n        /* \"DisputeDAO.sol\":3356:3362  uint j */\n      0x00\n        /* \"DisputeDAO.sol\":3365:3366  0 */\n      0x00\n        /* \"DisputeDAO.sol\":3356:3366  uint j = 0 */\n      swap1\n      pop\n        /* \"DisputeDAO.sol\":3351:3561  for (uint j = 0; j < count; j++) {... */\n    tag_184:\n        /* \"DisputeDAO.sol\":3372:3377  count */\n      dup5\n        /* \"DisputeDAO.sol\":3368:3369  j */\n      dup2\n        /* \"DisputeDAO.sol\":3368:3377  j < count */\n      lt\n        /* \"DisputeDAO.sol\":3351:3561  for (uint j = 0; j < count; j++) {... */\n      iszero\n      tag_185\n      jumpi\n        /* \"DisputeDAO.sol\":3426:3435  candidate */\n      dup3\n        /* \"DisputeDAO.sol\":3411:3435  selected[j] == candidate */\n      0xffffffffffffffffffffffffffffffffffffffff\n      and\n        /* \"DisputeDAO.sol\":3411:3419  selected */\n      dup8\n        /* \"DisputeDAO.sol\":3420:3421  j */\n      dup3\n        /* \"DisputeDAO.sol\":3411:3422  selected[j] */\n      dup2\n      mload\n      dup2\n      lt\n      tag_187\n      jumpi\n      tag_188\n      tag_106\n      jump\t// in\n    tag_188:\n    tag_187:\n      0x20\n      mul\n      0x20\n      add\n      add\n      mload\n        /* \"DisputeDAO.sol\":3411:3435  selected[j] == candidate */\n      0xffffffffffffffffffffffffffffffffffffffff\n      and\n      sub\n        /* \"DisputeDAO.sol\":3407:3542  if (selected[j] == candidate) {... */\n      tag_189\n      jumpi\n        /* \"DisputeDAO.sol\":3482:3486  true */\n      0x01\n        /* \"DisputeDAO.sol\":3464:3486  alreadySelected = true */\n      swap2\n      pop\n        /* \"DisputeDAO.sol\":3513:3518  break */\n      jump(tag_185)\n        /* \"DisputeDAO.sol\":3407:3542  if (selected[j] == candidate) {... */\n    tag_189:\n        /* \"DisputeDAO.sol\":3379:3382  j++ */\n      dup1\n      dup1\n      0x01\n      add\n      swap2\n      pop\n      pop\n        /* \"DisputeDAO.sol\":3351:3561  for (uint j = 0; j < count; j++) {... */\n      jump(tag_184)\n    tag_185:\n      pop\n        /* \"DisputeDAO.sol\":3584:3599  alreadySelected */\n      dup1\n        /* \"DisputeDAO.sol\":3579:3701  if (!alreadySelected) {... */\n      tag_190\n      jumpi\n        /* \"DisputeDAO.sol\":3642:3651  candidate */\n      dup2\n        /* \"DisputeDAO.sol\":3624:3632  selected */\n      dup7\n        /* \"DisputeDAO.sol\":3633:3638  count */\n      dup6\n        /* \"DisputeDAO.sol\":3624:3639  selected[count] */\n      dup2\n      mload\n      dup2\n      lt\n      tag_191\n      jumpi\n      tag_192\n      tag_106\n      jump\t// in\n    tag_192:\n    tag_191:\n      0x20\n      mul\n      0x20\n      add\n      add\n        /* \"DisputeDAO.sol\":3624:3651  selected[count] = candidate */\n      swap1\n      0xffffffffffffffffffffffffffffffffffffffff\n      and\n      swap1\n      dup2\n      0xffffffffffffffffffffffffffffffffffffffff\n      and\n      dup2\n      mstore\n      pop\n      pop\n        /* \"DisputeDAO.sol\":3674:3681  count++ */\n      dup4\n      dup1\n      tag_193\n      swap1\n      tag_116\n      jump\t// in\n    tag_193:\n      swap5\n      pop\n      pop\n        /* \"DisputeDAO.sol\":3579:3701  if (!alreadySelected) {... */\n    tag_190:\n        /* \"DisputeDAO.sol\":3285:3716  {... */\n      pop\n        /* \"DisputeDAO.sol\":3253:3716  if (jurors[candidate].isActive) {... */\n    tag_183:\n        /* \"DisputeDAO.sol\":3730:3733  i++ */\n      dup2\n      dup1\n      tag_194\n      swap1\n      tag_116\n      jump\t// in\n    tag_194:\n      swap3\n      pop\n      pop\n        /* \"DisputeDAO.sol\":3128:3745  {... */\n      pop\n        /* \"DisputeDAO.sol\":3067:3745  while (count < jurorsPerDispute && i < jurorList.length * 2) {... */\n      jump(tag_172)\n    tag_173:\n        /* \"DisputeDAO.sol\":3772:3788  jurorsPerDispute */\n      sload(0x03)\n        /* \"DisputeDAO.sol\":3763:3768  count */\n      dup3\n        /* \"DisputeDAO.sol\":3763:3788  count == jurorsPerDispute */\n      eq\n        /* \"DisputeDAO.sol\":3755:3817  require(count == jurorsPerDispute, \"Not enough unique jurors\") */\n      tag_195\n      jumpi\n      mload(0x40)\n      0x08c379a000000000000000000000000000000000000000000000000000000000\n      dup2\n      mstore\n      0x04\n      add\n      tag_196\n      swap1\n      tag_197\n      jump\t// in\n    tag_196:\n      mload(0x40)\n      dup1\n      swap2\n      sub\n      swap1\n      revert\n    tag_195:\n        /* \"DisputeDAO.sol\":3855:3863  selected */\n      dup4\n        /* \"DisputeDAO.sol\":3828:3841  disputeJurors */\n      0x05\n        /* \"DisputeDAO.sol\":3828:3852  disputeJurors[disputeId] */\n      0x00\n        /* \"DisputeDAO.sol\":3842:3851  disputeId */\n      dup8\n        /* \"DisputeDAO.sol\":3828:3852  disputeJurors[disputeId] */\n      dup2\n      mstore\n      0x20\n      add\n      swap1\n      dup2\n      mstore\n      0x20\n      add\n      0x00\n      keccak256\n        /* \"DisputeDAO.sol\":3828:3863  disputeJurors[disputeId] = selected */\n      swap1\n      dup1\n      mload\n      swap1\n      0x20\n      add\n      swap1\n      tag_198\n      swap3\n      swap2\n      swap1\n      tag_199\n      jump\t// in\n    tag_198:\n      pop\n        /* \"DisputeDAO.sol\":3894:3903  disputeId */\n      dup5\n        /* \"DisputeDAO.sol\":3879:3914  DisputeStarted(disputeId, selected) */\n      0x5623bb8130ac6988ab91c966d08c23b84de074a147bb0a3677a9e322b0a5145b\n        /* \"DisputeDAO.sol\":3905:3913  selected */\n      dup6\n        /* \"DisputeDAO.sol\":3879:3914  DisputeStarted(disputeId, selected) */\n      mload(0x40)\n      tag_200\n      swap2\n      swap1\n      tag_201\n      jump\t// in\n    tag_200:\n      mload(0x40)\n      dup1\n      swap2\n      sub\n      swap1\n      log2\n        /* \"DisputeDAO.sol\":2684:3922  {... */\n      pop\n      pop\n      pop\n      pop\n        /* \"DisputeDAO.sol\":2617:3922  function handleDispute(uint256 disputeId) external onlyTaskFactory {... */\n      pop\n      jump\t// out\n        /* \"DisputeDAO.sol\":723:767  mapping(uint256 => uint256) public voteCount */\n    tag_57:\n      mstore(0x20, 0x08)\n      dup1\n      0x00\n      mstore\n      keccak256(0x00, 0x40)\n      0x00\n      swap2\n      pop\n      swap1\n      pop\n      sload\n      dup2\n      jump\t// out\n        /* \"DisputeDAO.sol\":1519:1750  function setFactory(address _factory) external {... */\n    tag_63:\n        /* \"DisputeDAO.sol\":1586:1596  factorySet */\n      0x04\n      0x14\n      swap1\n      sload\n      swap1\n      0x0100\n      exp\n      swap1\n      div\n      0xff\n      and\n        /* \"DisputeDAO.sol\":1585:1596  !factorySet */\n      iszero\n        /* \"DisputeDAO.sol\":1577:1620  require(!factorySet, \"Factory already set\") */\n      tag_203\n      jumpi\n      mload(0x40)\n      0x08c379a000000000000000000000000000000000000000000000000000000000\n      dup2\n      mstore\n      0x04\n      add\n      tag_204\n      swap1\n      tag_205\n      jump\t// in\n    tag_204:\n      mload(0x40)\n      dup1\n      swap2\n      sub\n      swap1\n      revert\n    tag_203:\n        /* \"DisputeDAO.sol\":1659:1660  0 */\n      0x00\n        /* \"DisputeDAO.sol\":1639:1661  _factory != address(0) */\n      0xffffffffffffffffffffffffffffffffffffffff\n      and\n        /* \"DisputeDAO.sol\":1639:1647  _factory */\n      dup2\n        /* \"DisputeDAO.sol\":1639:1661  _factory != address(0) */\n      0xffffffffffffffffffffffffffffffffffffffff\n      and\n      sub\n        /* \"DisputeDAO.sol\":1631:1681  require(_factory != address(0), \"Invalid address\") */\n      tag_206\n      jumpi\n      mload(0x40)\n      0x08c379a000000000000000000000000000000000000000000000000000000000\n      dup2\n      mstore\n      0x04\n      add\n      tag_207\n      swap1\n      tag_208\n      jump\t// in\n    tag_207:\n      mload(0x40)\n      dup1\n      swap2\n      sub\n      swap1\n      revert\n    tag_206:\n        /* \"DisputeDAO.sol\":1706:1714  _factory */\n      dup1\n        /* \"DisputeDAO.sol\":1692:1703  taskFactory */\n      0x04\n      0x00\n        /* \"DisputeDAO.sol\":1692:1714  taskFactory = _factory */\n      0x0100\n      exp\n      dup2\n      sload\n      dup2\n      0xffffffffffffffffffffffffffffffffffffffff\n      mul\n      not\n      and\n      swap1\n      dup4\n      0xffffffffffffffffffffffffffffffffffffffff\n      and\n      mul\n      or\n      swap1\n      sstore\n      pop\n        /* \"DisputeDAO.sol\":1738:1742  true */\n      0x01\n        /* \"DisputeDAO.sol\":1725:1735  factorySet */\n      0x04\n      0x14\n        /* \"DisputeDAO.sol\":1725:1742  factorySet = true */\n      0x0100\n      exp\n      dup2\n      sload\n      dup2\n      0xff\n      mul\n      not\n      and\n      swap1\n      dup4\n      iszero\n      iszero\n      mul\n      or\n      swap1\n      sstore\n      pop\n        /* \"DisputeDAO.sol\":1519:1750  function setFactory(address _factory) external {... */\n      pop\n      jump\t// out\n        /* \"DisputeDAO.sol\":200:226  address[] public jurorList */\n    tag_67:\n      0x01\n      dup2\n      dup2\n      sload\n      dup2\n      lt\n      tag_209\n      jumpi\n      0x00\n      dup1\n      revert\n    tag_209:\n      swap1\n      0x00\n      mstore\n      keccak256(0x00, 0x20)\n      add\n      0x00\n      swap2\n      pop\n      sload\n      swap1\n      0x0100\n      exp\n      swap1\n      div\n      0xffffffffffffffffffffffffffffffffffffffff\n      and\n      dup2\n      jump\t// out\n        /* \"DisputeDAO.sol\":819:888  mapping(uint256 => mapping(address => uint256)) public candidateVotes */\n    tag_72:\n      mstore(0x20, 0x09)\n      dup2\n      0x00\n      mstore\n      mstore(0x20, keccak256(0x00, 0x40))\n      dup1\n      0x00\n      mstore\n      keccak256(0x00, 0x40)\n      0x00\n      swap2\n      pop\n      swap2\n      pop\n      pop\n      sload\n      dup2\n      jump\t// out\n        /* \"DisputeDAO.sol\":389:415  address public taskFactory */\n    tag_76:\n      0x04\n      0x00\n      swap1\n      sload\n      swap1\n      0x0100\n      exp\n      swap1\n      div\n      0xffffffffffffffffffffffffffffffffffffffff\n      and\n      dup2\n      jump\t// out\n        /* \"DisputeDAO.sol\":624:684  mapping(uint256 => mapping(address => address)) public votes */\n    tag_81:\n      mstore(0x20, 0x07)\n      dup2\n      0x00\n      mstore\n      mstore(0x20, keccak256(0x00, 0x40))\n      dup1\n      0x00\n      mstore\n      keccak256(0x00, 0x40)\n      0x00\n      swap2\n      pop\n      swap2\n      pop\n      swap1\n      sload\n      swap1\n      0x0100\n      exp\n      swap1\n      div\n      0xffffffffffffffffffffffffffffffffffffffff\n      and\n      dup2\n      jump\t// out\n        /* \"DisputeDAO.sol\":347:382  uint256 public jurorsPerDispute = 3 */\n    tag_85:\n      sload(0x03)\n      dup2\n      jump\t// out\n        /* \"DisputeDAO.sol\":154:193  mapping(address => Juror) public jurors */\n    tag_90:\n      mstore(0x20, 0x00)\n      dup1\n      0x00\n      mstore\n      keccak256(0x00, 0x40)\n      0x00\n      swap2\n      pop\n      swap1\n      pop\n      dup1\n      0x00\n      add\n      0x00\n      swap1\n      sload\n      swap1\n      0x0100\n      exp\n      swap1\n      div\n      0xffffffffffffffffffffffffffffffffffffffff\n      and\n      swap1\n      dup1\n      0x01\n      add\n      sload\n      swap1\n      dup1\n      0x02\n      add\n      0x00\n      swap1\n      sload\n      swap1\n      0x0100\n      exp\n      swap1\n      div\n      0xff\n      and\n      swap1\n      pop\n      dup4\n      jump\t// out\n        /* \"DisputeDAO.sol\":422:452  bool public factorySet = false */\n    tag_95:\n      0x04\n      0x14\n      swap1\n      sload\n      swap1\n      0x0100\n      exp\n      swap1\n      div\n      0xff\n      and\n      dup2\n      jump\t// out\n    tag_199:\n      dup3\n      dup1\n      sload\n      dup3\n      dup3\n      sstore\n      swap1\n      0x00\n      mstore\n      keccak256(0x00, 0x20)\n      swap1\n      dup2\n      add\n      swap3\n      dup3\n      iszero\n      tag_211\n      jumpi\n      swap2\n      0x20\n      mul\n      dup3\n      add\n    tag_212:\n      dup3\n      dup2\n      gt\n      iszero\n      tag_213\n      jumpi\n      dup3\n      mload\n      dup3\n      exp(0x0100, 0x00)\n      dup2\n      sload\n      dup2\n      0xffffffffffffffffffffffffffffffffffffffff\n      mul\n      not\n      and\n      swap1\n      dup4\n      0xffffffffffffffffffffffffffffffffffffffff\n      and\n      mul\n      or\n      swap1\n      sstore\n      pop\n      swap2\n      0x20\n      add\n      swap2\n      swap1\n      0x01\n      add\n      swap1\n      jump(tag_212)\n    tag_213:\n    tag_211:\n      pop\n      swap1\n      pop\n      tag_214\n      swap2\n      swap1\n      tag_215\n      jump\t// in\n    tag_214:\n      pop\n      swap1\n      jump\t// out\n    tag_215:\n    tag_216:\n      dup1\n      dup3\n      gt\n      iszero\n      tag_217\n      jumpi\n      0x00\n      dup2\n      0x00\n      swap1\n      sstore\n      pop\n      0x01\n      add\n      jump(tag_216)\n    tag_217:\n      pop\n      swap1\n      jump\t// out\n        /* \"#utility.yul\":88:205   */\n    tag_219:\n        /* \"#utility.yul\":197:198   */\n      0x00\n        /* \"#utility.yul\":194:195   */\n      0x00\n        /* \"#utility.yul\":187:199   */\n      revert\n        /* \"#utility.yul\":334:411   */\n    tag_221:\n        /* \"#utility.yul\":371:378   */\n      0x00\n        /* \"#utility.yul\":400:405   */\n      dup2\n        /* \"#utility.yul\":389:405   */\n      swap1\n      pop\n        /* \"#utility.yul\":334:411   */\n      swap2\n      swap1\n      pop\n      jump\t// out\n        /* \"#utility.yul\":417:539   */\n    tag_222:\n        /* \"#utility.yul\":490:514   */\n      tag_278\n        /* \"#utility.yul\":508:513   */\n      dup2\n        /* \"#utility.yul\":490:514   */\n      tag_221\n      jump\t// in\n    tag_278:\n        /* \"#utility.yul\":483:488   */\n      dup2\n        /* \"#utility.yul\":480:515   */\n      eq\n        /* \"#utility.yul\":470:533   */\n      tag_279\n      jumpi\n        /* \"#utility.yul\":529:530   */\n      0x00\n        /* \"#utility.yul\":526:527   */\n      0x00\n        /* \"#utility.yul\":519:531   */\n      revert\n        /* \"#utility.yul\":470:533   */\n    tag_279:\n        /* \"#utility.yul\":417:539   */\n      pop\n      jump\t// out\n        /* \"#utility.yul\":545:684   */\n    tag_223:\n        /* \"#utility.yul\":591:596   */\n      0x00\n        /* \"#utility.yul\":629:635   */\n      dup2\n        /* \"#utility.yul\":616:636   */\n      calldataload\n        /* \"#utility.yul\":607:636   */\n      swap1\n      pop\n        /* \"#utility.yul\":645:678   */\n      tag_281\n        /* \"#utility.yul\":672:677   */\n      dup2\n        /* \"#utility.yul\":645:678   */\n      tag_222\n      jump\t// in\n    tag_281:\n        /* \"#utility.yul\":545:684   */\n      swap3\n      swap2\n      pop\n      pop\n      jump\t// out\n        /* \"#utility.yul\":690:816   */\n    tag_224:\n        /* \"#utility.yul\":727:734   */\n      0x00\n        /* \"#utility.yul\":767:809   */\n      0xffffffffffffffffffffffffffffffffffffffff\n        /* \"#utility.yul\":760:765   */\n      dup3\n        /* \"#utility.yul\":756:810   */\n      and\n        /* \"#utility.yul\":745:810   */\n      swap1\n      pop\n        /* \"#utility.yul\":690:816   */\n      swap2\n      swap1\n      pop\n      jump\t// out\n        /* \"#utility.yul\":822:918   */\n    tag_225:\n        /* \"#utility.yul\":859:866   */\n      0x00\n        /* \"#utility.yul\":888:912   */\n      tag_284\n        /* \"#utility.yul\":906:911   */\n      dup3\n        /* \"#utility.yul\":888:912   */\n      tag_224\n      jump\t// in\n    tag_284:\n        /* \"#utility.yul\":877:912   */\n      swap1\n      pop\n        /* \"#utility.yul\":822:918   */\n      swap2\n      swap1\n      pop\n      jump\t// out\n        /* \"#utility.yul\":924:1046   */\n    tag_226:\n        /* \"#utility.yul\":997:1021   */\n      tag_286\n        /* \"#utility.yul\":1015:1020   */\n      dup2\n        /* \"#utility.yul\":997:1021   */\n      tag_225\n      jump\t// in\n    tag_286:\n        /* \"#utility.yul\":990:995   */\n      dup2\n        /* \"#utility.yul\":987:1022   */\n      eq\n        /* \"#utility.yul\":977:1040   */\n      tag_287\n      jumpi\n        /* \"#utility.yul\":1036:1037   */\n      0x00\n        /* \"#utility.yul\":1033:1034   */\n      0x00\n        /* \"#utility.yul\":1026:1038   */\n      revert\n        /* \"#utility.yul\":977:1040   */\n    tag_287:\n        /* \"#utility.yul\":924:1046   */\n      pop\n      jump\t// out\n        /* \"#utility.yul\":1052:1191   */\n    tag_227:\n        /* \"#utility.yul\":1098:1103   */\n      0x00\n        /* \"#utility.yul\":1136:1142   */\n      dup2\n        /* \"#utility.yul\":1123:1143   */\n      calldataload\n        /* \"#utility.yul\":1114:1143   */\n      swap1\n      pop\n        /* \"#utility.yul\":1152:1185   */\n      tag_289\n        /* \"#utility.yul\":1179:1184   */\n      dup2\n        /* \"#utility.yul\":1152:1185   */\n      tag_226\n      jump\t// in\n    tag_289:\n        /* \"#utility.yul\":1052:1191   */\n      swap3\n      swap2\n      pop\n      pop\n      jump\t// out\n        /* \"#utility.yul\":1197:1671   */\n    tag_24:\n        /* \"#utility.yul\":1265:1271   */\n      0x00\n        /* \"#utility.yul\":1273:1279   */\n      0x00\n        /* \"#utility.yul\":1322:1324   */\n      0x40\n        /* \"#utility.yul\":1310:1319   */\n      dup4\n        /* \"#utility.yul\":1301:1308   */\n      dup6\n        /* \"#utility.yul\":1297:1320   */\n      sub\n        /* \"#utility.yul\":1293:1325   */\n      slt\n        /* \"#utility.yul\":1290:1409   */\n      iszero\n      tag_291\n      jumpi\n        /* \"#utility.yul\":1328:1407   */\n      tag_292\n      tag_219\n      jump\t// in\n    tag_292:\n        /* \"#utility.yul\":1290:1409   */\n    tag_291:\n        /* \"#utility.yul\":1448:1449   */\n      0x00\n        /* \"#utility.yul\":1473:1526   */\n      tag_293\n        /* \"#utility.yul\":1518:1525   */\n      dup6\n        /* \"#utility.yul\":1509:1515   */\n      dup3\n        /* \"#utility.yul\":1498:1507   */\n      dup7\n        /* \"#utility.yul\":1494:1516   */\n      add\n        /* \"#utility.yul\":1473:1526   */\n      tag_223\n      jump\t// in\n    tag_293:\n        /* \"#utility.yul\":1463:1526   */\n      swap3\n      pop\n        /* \"#utility.yul\":1419:1536   */\n      pop\n        /* \"#utility.yul\":1575:1577   */\n      0x20\n        /* \"#utility.yul\":1601:1654   */\n      tag_294\n        /* \"#utility.yul\":1646:1653   */\n      dup6\n        /* \"#utility.yul\":1637:1643   */\n      dup3\n        /* \"#utility.yul\":1626:1635   */\n      dup7\n        /* \"#utility.yul\":1622:1644   */\n      add\n        /* \"#utility.yul\":1601:1654   */\n      tag_227\n      jump\t// in\n    tag_294:\n        /* \"#utility.yul\":1591:1654   */\n      swap2\n      pop\n        /* \"#utility.yul\":1546:1664   */\n      pop\n        /* \"#utility.yul\":1197:1671   */\n      swap3\n      pop\n      swap3\n      swap1\n      pop\n      jump\t// out\n        /* \"#utility.yul\":1677:2151   */\n    tag_29:\n        /* \"#utility.yul\":1745:1751   */\n      0x00\n        /* \"#utility.yul\":1753:1759   */\n      0x00\n        /* \"#utility.yul\":1802:1804   */\n      0x40\n        /* \"#utility.yul\":1790:1799   */\n      dup4\n        /* \"#utility.yul\":1781:1788   */\n      dup6\n        /* \"#utility.yul\":1777:1800   */\n      sub\n        /* \"#utility.yul\":1773:1805   */\n      slt\n        /* \"#utility.yul\":1770:1889   */\n      iszero\n      tag_296\n      jumpi\n        /* \"#utility.yul\":1808:1887   */\n      tag_297\n      tag_219\n      jump\t// in\n    tag_297:\n        /* \"#utility.yul\":1770:1889   */\n    tag_296:\n        /* \"#utility.yul\":1928:1929   */\n      0x00\n        /* \"#utility.yul\":1953:2006   */\n      tag_298\n        /* \"#utility.yul\":1998:2005   */\n      dup6\n        /* \"#utility.yul\":1989:1995   */\n      dup3\n        /* \"#utility.yul\":1978:1987   */\n      dup7\n        /* \"#utility.yul\":1974:1996   */\n      add\n        /* \"#utility.yul\":1953:2006   */\n      tag_223\n      jump\t// in\n    tag_298:\n        /* \"#utility.yul\":1943:2006   */\n      swap3\n      pop\n        /* \"#utility.yul\":1899:2016   */\n      pop\n        /* \"#utility.yul\":2055:2057   */\n      0x20\n        /* \"#utility.yul\":2081:2134   */\n      tag_299\n        /* \"#utility.yul\":2126:2133   */\n      dup6\n        /* \"#utility.yul\":2117:2123   */\n      dup3\n        /* \"#utility.yul\":2106:2115   */\n      dup7\n        /* \"#utility.yul\":2102:2124   */\n      add\n        /* \"#utility.yul\":2081:2134   */\n      tag_223\n      jump\t// in\n    tag_299:\n        /* \"#utility.yul\":2071:2134   */\n      swap2\n      pop\n        /* \"#utility.yul\":2026:2144   */\n      pop\n        /* \"#utility.yul\":1677:2151   */\n      swap3\n      pop\n      swap3\n      swap1\n      pop\n      jump\t// out\n        /* \"#utility.yul\":2157:2275   */\n    tag_228:\n        /* \"#utility.yul\":2244:2268   */\n      tag_301\n        /* \"#utility.yul\":2262:2267   */\n      dup2\n        /* \"#utility.yul\":2244:2268   */\n      tag_225\n      jump\t// in\n    tag_301:\n        /* \"#utility.yul\":2239:2242   */\n      dup3\n        /* \"#utility.yul\":2232:2269   */\n      mstore\n        /* \"#utility.yul\":2157:2275   */\n      pop\n      pop\n      jump\t// out\n        /* \"#utility.yul\":2281:2503   */\n    tag_32:\n        /* \"#utility.yul\":2374:2378   */\n      0x00\n        /* \"#utility.yul\":2412:2414   */\n      0x20\n        /* \"#utility.yul\":2401:2410   */\n      dup3\n        /* \"#utility.yul\":2397:2415   */\n      add\n        /* \"#utility.yul\":2389:2415   */\n      swap1\n      pop\n        /* \"#utility.yul\":2425:2496   */\n      tag_303\n        /* \"#utility.yul\":2493:2494   */\n      0x00\n        /* \"#utility.yul\":2482:2491   */\n      dup4\n        /* \"#utility.yul\":2478:2495   */\n      add\n        /* \"#utility.yul\":2469:2475   */\n      dup5\n        /* \"#utility.yul\":2425:2496   */\n      tag_228\n      jump\t// in\n    tag_303:\n        /* \"#utility.yul\":2281:2503   */\n      swap3\n      swap2\n      pop\n      pop\n      jump\t// out\n        /* \"#utility.yul\":2509:2627   */\n    tag_229:\n        /* \"#utility.yul\":2596:2620   */\n      tag_305\n        /* \"#utility.yul\":2614:2619   */\n      dup2\n        /* \"#utility.yul\":2596:2620   */\n      tag_221\n      jump\t// in\n    tag_305:\n        /* \"#utility.yul\":2591:2594   */\n      dup3\n        /* \"#utility.yul\":2584:2621   */\n      mstore\n        /* \"#utility.yul\":2509:2627   */\n      pop\n      pop\n      jump\t// out\n        /* \"#utility.yul\":2633:2855   */\n    tag_40:\n        /* \"#utility.yul\":2726:2730   */\n      0x00\n        /* \"#utility.yul\":2764:2766   */\n      0x20\n        /* \"#utility.yul\":2753:2762   */\n      dup3\n        /* \"#utility.yul\":2749:2767   */\n      add\n        /* \"#utility.yul\":2741:2767   */\n      swap1\n      pop\n        /* \"#utility.yul\":2777:2848   */\n      tag_307\n        /* \"#utility.yul\":2845:2846   */\n      0x00\n        /* \"#utility.yul\":2834:2843   */\n      dup4\n        /* \"#utility.yul\":2830:2847   */\n      add\n        /* \"#utility.yul\":2821:2827   */\n      dup5\n        /* \"#utility.yul\":2777:2848   */\n      tag_229\n      jump\t// in\n    tag_307:\n        /* \"#utility.yul\":2633:2855   */\n      swap3\n      swap2\n      pop\n      pop\n      jump\t// out\n        /* \"#utility.yul\":2861:2951   */\n    tag_230:\n        /* \"#utility.yul\":2895:2902   */\n      0x00\n        /* \"#utility.yul\":2938:2943   */\n      dup2\n        /* \"#utility.yul\":2931:2944   */\n      iszero\n        /* \"#utility.yul\":2924:2945   */\n      iszero\n        /* \"#utility.yul\":2913:2945   */\n      swap1\n      pop\n        /* \"#utility.yul\":2861:2951   */\n      swap2\n      swap1\n      pop\n      jump\t// out\n        /* \"#utility.yul\":2957:3066   */\n    tag_231:\n        /* \"#utility.yul\":3038:3059   */\n      tag_310\n        /* \"#utility.yul\":3053:3058   */\n      dup2\n        /* \"#utility.yul\":3038:3059   */\n      tag_230\n      jump\t// in\n    tag_310:\n        /* \"#utility.yul\":3033:3036   */\n      dup3\n        /* \"#utility.yul\":3026:3060   */\n      mstore\n        /* \"#utility.yul\":2957:3066   */\n      pop\n      pop\n      jump\t// out\n        /* \"#utility.yul\":3072:3282   */\n    tag_48:\n        /* \"#utility.yul\":3159:3163   */\n      0x00\n        /* \"#utility.yul\":3197:3199   */\n      0x20\n        /* \"#utility.yul\":3186:3195   */\n      dup3\n        /* \"#utility.yul\":3182:3200   */\n      add\n        /* \"#utility.yul\":3174:3200   */\n      swap1\n      pop\n        /* \"#utility.yul\":3210:3275   */\n      tag_312\n        /* \"#utility.yul\":3272:3273   */\n      0x00\n        /* \"#utility.yul\":3261:3270   */\n      dup4\n        /* \"#utility.yul\":3257:3274   */\n      add\n        /* \"#utility.yul\":3248:3254   */\n      dup5\n        /* \"#utility.yul\":3210:3275   */\n      tag_231\n      jump\t// in\n    tag_312:\n        /* \"#utility.yul\":3072:3282   */\n      swap3\n      swap2\n      pop\n      pop\n      jump\t// out\n        /* \"#utility.yul\":3288:3617   */\n    tag_52:\n        /* \"#utility.yul\":3347:3353   */\n      0x00\n        /* \"#utility.yul\":3396:3398   */\n      0x20\n        /* \"#utility.yul\":3384:3393   */\n      dup3\n        /* \"#utility.yul\":3375:3382   */\n      dup5\n        /* \"#utility.yul\":3371:3394   */\n      sub\n        /* \"#utility.yul\":3367:3399   */\n      slt\n        /* \"#utility.yul\":3364:3483   */\n      iszero\n      tag_314\n      jumpi\n        /* \"#utility.yul\":3402:3481   */\n      tag_315\n      tag_219\n      jump\t// in\n    tag_315:\n        /* \"#utility.yul\":3364:3483   */\n    tag_314:\n        /* \"#utility.yul\":3522:3523   */\n      0x00\n        /* \"#utility.yul\":3547:3600   */\n      tag_316\n        /* \"#utility.yul\":3592:3599   */\n      dup5\n        /* \"#utility.yul\":3583:3589   */\n      dup3\n        /* \"#utility.yul\":3572:3581   */\n      dup6\n        /* \"#utility.yul\":3568:3590   */\n      add\n        /* \"#utility.yul\":3547:3600   */\n      tag_223\n      jump\t// in\n    tag_316:\n        /* \"#utility.yul\":3537:3600   */\n      swap2\n      pop\n        /* \"#utility.yul\":3493:3610   */\n      pop\n        /* \"#utility.yul\":3288:3617   */\n      swap3\n      swap2\n      pop\n      pop\n      jump\t// out\n        /* \"#utility.yul\":3623:3952   */\n    tag_62:\n        /* \"#utility.yul\":3682:3688   */\n      0x00\n        /* \"#utility.yul\":3731:3733   */\n      0x20\n        /* \"#utility.yul\":3719:3728   */\n      dup3\n        /* \"#utility.yul\":3710:3717   */\n      dup5\n        /* \"#utility.yul\":3706:3729   */\n      sub\n        /* \"#utility.yul\":3702:3734   */\n      slt\n        /* \"#utility.yul\":3699:3818   */\n      iszero\n      tag_318\n      jumpi\n        /* \"#utility.yul\":3737:3816   */\n      tag_319\n      tag_219\n      jump\t// in\n    tag_319:\n        /* \"#utility.yul\":3699:3818   */\n    tag_318:\n        /* \"#utility.yul\":3857:3858   */\n      0x00\n        /* \"#utility.yul\":3882:3935   */\n      tag_320\n        /* \"#utility.yul\":3927:3934   */\n      dup5\n        /* \"#utility.yul\":3918:3924   */\n      dup3\n        /* \"#utility.yul\":3907:3916   */\n      dup6\n        /* \"#utility.yul\":3903:3925   */\n      add\n        /* \"#utility.yul\":3882:3935   */\n      tag_227\n      jump\t// in\n    tag_320:\n        /* \"#utility.yul\":3872:3935   */\n      swap2\n      pop\n        /* \"#utility.yul\":3828:3945   */\n      pop\n        /* \"#utility.yul\":3623:3952   */\n      swap3\n      swap2\n      pop\n      pop\n      jump\t// out\n        /* \"#utility.yul\":3958:4388   */\n    tag_92:\n        /* \"#utility.yul\":4101:4105   */\n      0x00\n        /* \"#utility.yul\":4139:4141   */\n      0x60\n        /* \"#utility.yul\":4128:4137   */\n      dup3\n        /* \"#utility.yul\":4124:4142   */\n      add\n        /* \"#utility.yul\":4116:4142   */\n      swap1\n      pop\n        /* \"#utility.yul\":4152:4223   */\n      tag_322\n        /* \"#utility.yul\":4220:4221   */\n      0x00\n        /* \"#utility.yul\":4209:4218   */\n      dup4\n        /* \"#utility.yul\":4205:4222   */\n      add\n        /* \"#utility.yul\":4196:4202   */\n      dup7\n        /* \"#utility.yul\":4152:4223   */\n      tag_228\n      jump\t// in\n    tag_322:\n        /* \"#utility.yul\":4233:4305   */\n      tag_323\n        /* \"#utility.yul\":4301:4303   */\n      0x20\n        /* \"#utility.yul\":4290:4299   */\n      dup4\n        /* \"#utility.yul\":4286:4304   */\n      add\n        /* \"#utility.yul\":4277:4283   */\n      dup6\n        /* \"#utility.yul\":4233:4305   */\n      tag_229\n      jump\t// in\n    tag_323:\n        /* \"#utility.yul\":4315:4381   */\n      tag_324\n        /* \"#utility.yul\":4377:4379   */\n      0x40\n        /* \"#utility.yul\":4366:4375   */\n      dup4\n        /* \"#utility.yul\":4362:4380   */\n      add\n        /* \"#utility.yul\":4353:4359   */\n      dup5\n        /* \"#utility.yul\":4315:4381   */\n      tag_231\n      jump\t// in\n    tag_324:\n        /* \"#utility.yul\":3958:4388   */\n      swap5\n      swap4\n      pop\n      pop\n      pop\n      pop\n      jump\t// out\n        /* \"#utility.yul\":4394:4563   */\n    tag_232:\n        /* \"#utility.yul\":4478:4489   */\n      0x00\n        /* \"#utility.yul\":4512:4518   */\n      dup3\n        /* \"#utility.yul\":4507:4510   */\n      dup3\n        /* \"#utility.yul\":4500:4519   */\n      mstore\n        /* \"#utility.yul\":4552:4556   */\n      0x20\n        /* \"#utility.yul\":4547:4550   */\n      dup3\n        /* \"#utility.yul\":4543:4557   */\n      add\n        /* \"#utility.yul\":4528:4557   */\n      swap1\n      pop\n        /* \"#utility.yul\":4394:4563   */\n      swap3\n      swap2\n      pop\n      pop\n      jump\t// out\n        /* \"#utility.yul\":4569:4730   */\n    tag_233:\n        /* \"#utility.yul\":4709:4722   */\n      0x4e6f742061206a75726f72000000000000000000000000000000000000000000\n        /* \"#utility.yul\":4705:4706   */\n      0x00\n        /* \"#utility.yul\":4697:4703   */\n      dup3\n        /* \"#utility.yul\":4693:4707   */\n      add\n        /* \"#utility.yul\":4686:4723   */\n      mstore\n        /* \"#utility.yul\":4569:4730   */\n      pop\n      jump\t// out\n        /* \"#utility.yul\":4736:5102   */\n    tag_234:\n        /* \"#utility.yul\":4878:4881   */\n      0x00\n        /* \"#utility.yul\":4899:4966   */\n      tag_328\n        /* \"#utility.yul\":4963:4965   */\n      0x0b\n        /* \"#utility.yul\":4958:4961   */\n      dup4\n        /* \"#utility.yul\":4899:4966   */\n      tag_232\n      jump\t// in\n    tag_328:\n        /* \"#utility.yul\":4892:4966   */\n      swap2\n      pop\n        /* \"#utility.yul\":4975:5068   */\n      tag_329\n        /* \"#utility.yul\":5064:5067   */\n      dup3\n        /* \"#utility.yul\":4975:5068   */\n      tag_233\n      jump\t// in\n    tag_329:\n        /* \"#utility.yul\":5093:5095   */\n      0x20\n        /* \"#utility.yul\":5088:5091   */\n      dup3\n        /* \"#utility.yul\":5084:5096   */\n      add\n        /* \"#utility.yul\":5077:5096   */\n      swap1\n      pop\n        /* \"#utility.yul\":4736:5102   */\n      swap2\n      swap1\n      pop\n      jump\t// out\n        /* \"#utility.yul\":5108:5527   */\n    tag_100:\n        /* \"#utility.yul\":5274:5278   */\n      0x00\n        /* \"#utility.yul\":5312:5314   */\n      0x20\n        /* \"#utility.yul\":5301:5310   */\n      dup3\n        /* \"#utility.yul\":5297:5315   */\n      add\n        /* \"#utility.yul\":5289:5315   */\n      swap1\n      pop\n        /* \"#utility.yul\":5361:5370   */\n      dup2\n        /* \"#utility.yul\":5355:5359   */\n      dup2\n        /* \"#utility.yul\":5351:5371   */\n      sub\n        /* \"#utility.yul\":5347:5348   */\n      0x00\n        /* \"#utility.yul\":5336:5345   */\n      dup4\n        /* \"#utility.yul\":5332:5349   */\n      add\n        /* \"#utility.yul\":5325:5372   */\n      mstore\n        /* \"#utility.yul\":5389:5520   */\n      tag_331\n        /* \"#utility.yul\":5515:5519   */\n      dup2\n        /* \"#utility.yul\":5389:5520   */\n      tag_234\n      jump\t// in\n    tag_331:\n        /* \"#utility.yul\":5381:5520   */\n      swap1\n      pop\n        /* \"#utility.yul\":5108:5527   */\n      swap2\n      swap1\n      pop\n      jump\t// out\n        /* \"#utility.yul\":5533:5713   */\n    tag_106:\n        /* \"#utility.yul\":5581:5658   */\n      0x4e487b7100000000000000000000000000000000000000000000000000000000\n        /* \"#utility.yul\":5578:5579   */\n      0x00\n        /* \"#utility.yul\":5571:5659   */\n      mstore\n        /* \"#utility.yul\":5678:5682   */\n      0x32\n        /* \"#utility.yul\":5675:5676   */\n      0x04\n        /* \"#utility.yul\":5668:5683   */\n      mstore\n        /* \"#utility.yul\":5702:5706   */\n      0x24\n        /* \"#utility.yul\":5699:5700   */\n      0x00\n        /* \"#utility.yul\":5692:5707   */\n      revert\n        /* \"#utility.yul\":5719:5887   */\n    tag_235:\n        /* \"#utility.yul\":5859:5879   */\n      0x4e6f742073656c6563746564206a75726f720000000000000000000000000000\n        /* \"#utility.yul\":5855:5856   */\n      0x00\n        /* \"#utility.yul\":5847:5853   */\n      dup3\n        /* \"#utility.yul\":5843:5857   */\n      add\n        /* \"#utility.yul\":5836:5880   */\n      mstore\n        /* \"#utility.yul\":5719:5887   */\n      pop\n      jump\t// out\n        /* \"#utility.yul\":5893:6259   */\n    tag_236:\n        /* \"#utility.yul\":6035:6038   */\n      0x00\n        /* \"#utility.yul\":6056:6123   */\n      tag_335\n        /* \"#utility.yul\":6120:6122   */\n      0x12\n        /* \"#utility.yul\":6115:6118   */\n      dup4\n        /* \"#utility.yul\":6056:6123   */\n      tag_232\n      jump\t// in\n    tag_335:\n        /* \"#utility.yul\":6049:6123   */\n      swap2\n      pop\n        /* \"#utility.yul\":6132:6225   */\n      tag_336\n        /* \"#utility.yul\":6221:6224   */\n      dup3\n        /* \"#utility.yul\":6132:6225   */\n      tag_235\n      jump\t// in\n    tag_336:\n        /* \"#utility.yul\":6250:6252   */\n      0x20\n        /* \"#utility.yul\":6245:6248   */\n      dup3\n        /* \"#utility.yul\":6241:6253   */\n      add\n        /* \"#utility.yul\":6234:6253   */\n      swap1\n      pop\n        /* \"#utility.yul\":5893:6259   */\n      swap2\n      swap1\n      pop\n      jump\t// out\n        /* \"#utility.yul\":6265:6684   */\n    tag_111:\n        /* \"#utility.yul\":6431:6435   */\n      0x00\n        /* \"#utility.yul\":6469:6471   */\n      0x20\n        /* \"#utility.yul\":6458:6467   */\n      dup3\n        /* \"#utility.yul\":6454:6472   */\n      add\n        /* \"#utility.yul\":6446:6472   */\n      swap1\n      pop\n        /* \"#utility.yul\":6518:6527   */\n      dup2\n        /* \"#utility.yul\":6512:6516   */\n      dup2\n        /* \"#utility.yul\":6508:6528   */\n      sub\n        /* \"#utility.yul\":6504:6505   */\n      0x00\n        /* \"#utility.yul\":6493:6502   */\n      dup4\n        /* \"#utility.yul\":6489:6506   */\n      add\n        /* \"#utility.yul\":6482:6529   */\n      mstore\n        /* \"#utility.yul\":6546:6677   */\n      tag_338\n        /* \"#utility.yul\":6672:6676   */\n      dup2\n        /* \"#utility.yul\":6546:6677   */\n      tag_236\n      jump\t// in\n    tag_338:\n        /* \"#utility.yul\":6538:6677   */\n      swap1\n      pop\n        /* \"#utility.yul\":6265:6684   */\n      swap2\n      swap1\n      pop\n      jump\t// out\n        /* \"#utility.yul\":6690:6853   */\n    tag_237:\n        /* \"#utility.yul\":6830:6845   */\n      0x416c726561647920766f74656400000000000000000000000000000000000000\n        /* \"#utility.yul\":6826:6827   */\n      0x00\n        /* \"#utility.yul\":6818:6824   */\n      dup3\n        /* \"#utility.yul\":6814:6828   */\n      add\n        /* \"#utility.yul\":6807:6846   */\n      mstore\n        /* \"#utility.yul\":6690:6853   */\n      pop\n      jump\t// out\n        /* \"#utility.yul\":6859:7225   */\n    tag_238:\n        /* \"#utility.yul\":7001:7004   */\n      0x00\n        /* \"#utility.yul\":7022:7089   */\n      tag_341\n        /* \"#utility.yul\":7086:7088   */\n      0x0d\n        /* \"#utility.yul\":7081:7084   */\n      dup4\n        /* \"#utility.yul\":7022:7089   */\n      tag_232\n      jump\t// in\n    tag_341:\n        /* \"#utility.yul\":7015:7089   */\n      swap2\n      pop\n        /* \"#utility.yul\":7098:7191   */\n      tag_342\n        /* \"#utility.yul\":7187:7190   */\n      dup3\n        /* \"#utility.yul\":7098:7191   */\n      tag_237\n      jump\t// in\n    tag_342:\n        /* \"#utility.yul\":7216:7218   */\n      0x20\n        /* \"#utility.yul\":7211:7214   */\n      dup3\n        /* \"#utility.yul\":7207:7219   */\n      add\n        /* \"#utility.yul\":7200:7219   */\n      swap1\n      pop\n        /* \"#utility.yul\":6859:7225   */\n      swap2\n      swap1\n      pop\n      jump\t// out\n        /* \"#utility.yul\":7231:7650   */\n    tag_114:\n        /* \"#utility.yul\":7397:7401   */\n      0x00\n        /* \"#utility.yul\":7435:7437   */\n      0x20\n        /* \"#utility.yul\":7424:7433   */\n      dup3\n        /* \"#utility.yul\":7420:7438   */\n      add\n        /* \"#utility.yul\":7412:7438   */\n      swap1\n      pop\n        /* \"#utility.yul\":7484:7493   */\n      dup2\n        /* \"#utility.yul\":7478:7482   */\n      dup2\n        /* \"#utility.yul\":7474:7494   */\n      sub\n        /* \"#utility.yul\":7470:7471   */\n      0x00\n        /* \"#utility.yul\":7459:7468   */\n      dup4\n        /* \"#utility.yul\":7455:7472   */\n      add\n        /* \"#utility.yul\":7448:7495   */\n      mstore\n        /* \"#utility.yul\":7512:7643   */\n      tag_344\n        /* \"#utility.yul\":7638:7642   */\n      dup2\n        /* \"#utility.yul\":7512:7643   */\n      tag_238\n      jump\t// in\n    tag_344:\n        /* \"#utility.yul\":7504:7643   */\n      swap1\n      pop\n        /* \"#utility.yul\":7231:7650   */\n      swap2\n      swap1\n      pop\n      jump\t// out\n        /* \"#utility.yul\":7656:7836   */\n    tag_239:\n        /* \"#utility.yul\":7704:7781   */\n      0x4e487b7100000000000000000000000000000000000000000000000000000000\n        /* \"#utility.yul\":7701:7702   */\n      0x00\n        /* \"#utility.yul\":7694:7782   */\n      mstore\n        /* \"#utility.yul\":7801:7805   */\n      0x11\n        /* \"#utility.yul\":7798:7799   */\n      0x04\n        /* \"#utility.yul\":7791:7806   */\n      mstore\n        /* \"#utility.yul\":7825:7829   */\n      0x24\n        /* \"#utility.yul\":7822:7823   */\n      0x00\n        /* \"#utility.yul\":7815:7830   */\n      revert\n        /* \"#utility.yul\":7842:8075   */\n    tag_116:\n        /* \"#utility.yul\":7881:7884   */\n      0x00\n        /* \"#utility.yul\":7904:7928   */\n      tag_347\n        /* \"#utility.yul\":7922:7927   */\n      dup3\n        /* \"#utility.yul\":7904:7928   */\n      tag_221\n      jump\t// in\n    tag_347:\n        /* \"#utility.yul\":7895:7928   */\n      swap2\n      pop\n        /* \"#utility.yul\":7950:8016   */\n      0xffffffffffffffffffffffffffffffffffffffffffffffffffffffffffffffff\n        /* \"#utility.yul\":7943:7948   */\n      dup3\n        /* \"#utility.yul\":7940:8017   */\n      sub\n        /* \"#utility.yul\":7937:8040   */\n      tag_348\n      jumpi\n        /* \"#utility.yul\":8020:8038   */\n      tag_349\n      tag_239\n      jump\t// in\n    tag_349:\n        /* \"#utility.yul\":7937:8040   */\n    tag_348:\n        /* \"#utility.yul\":8067:8068   */\n      0x01\n        /* \"#utility.yul\":8060:8065   */\n      dup3\n        /* \"#utility.yul\":8056:8069   */\n      add\n        /* \"#utility.yul\":8049:8069   */\n      swap1\n      pop\n        /* \"#utility.yul\":7842:8075   */\n      swap2\n      swap1\n      pop\n      jump\t// out\n        /* \"#utility.yul\":8081:8413   */\n    tag_128:\n        /* \"#utility.yul\":8202:8206   */\n      0x00\n        /* \"#utility.yul\":8240:8242   */\n      0x40\n        /* \"#utility.yul\":8229:8238   */\n      dup3\n        /* \"#utility.yul\":8225:8243   */\n      add\n        /* \"#utility.yul\":8217:8243   */\n      swap1\n      pop\n        /* \"#utility.yul\":8253:8324   */\n      tag_351\n        /* \"#utility.yul\":8321:8322   */\n      0x00\n        /* \"#utility.yul\":8310:8319   */\n      dup4\n        /* \"#utility.yul\":8306:8323   */\n      add\n        /* \"#utility.yul\":8297:8303   */\n      dup6\n        /* \"#utility.yul\":8253:8324   */\n      tag_229\n      jump\t// in\n    tag_351:\n        /* \"#utility.yul\":8334:8406   */\n      tag_352\n        /* \"#utility.yul\":8402:8404   */\n      0x20\n        /* \"#utility.yul\":8391:8400   */\n      dup4\n        /* \"#utility.yul\":8387:8405   */\n      add\n        /* \"#utility.yul\":8378:8384   */\n      dup5\n        /* \"#utility.yul\":8334:8406   */\n      tag_228\n      jump\t// in\n    tag_352:\n        /* \"#utility.yul\":8081:8413   */\n      swap4\n      swap3\n      pop\n      pop\n      pop\n      jump\t// out\n        /* \"#utility.yul\":8419:8517   */\n    tag_240:\n        /* \"#utility.yul\":8470:8476   */\n      0x00\n        /* \"#utility.yul\":8504:8509   */\n      dup2\n        /* \"#utility.yul\":8498:8510   */\n      mload\n        /* \"#utility.yul\":8488:8510   */\n      swap1\n      pop\n        /* \"#utility.yul\":8419:8517   */\n      swap2\n      swap1\n      pop\n      jump\t// out\n        /* \"#utility.yul\":8523:8670   */\n    tag_241:\n        /* \"#utility.yul\":8624:8635   */\n      0x00\n        /* \"#utility.yul\":8661:8664   */\n      dup2\n        /* \"#utility.yul\":8646:8664   */\n      swap1\n      pop\n        /* \"#utility.yul\":8523:8670   */\n      swap3\n      swap2\n      pop\n      pop\n      jump\t// out\n        /* \"#utility.yul\":8676:8815   */\n    tag_242:\n        /* \"#utility.yul\":8765:8771   */\n      dup3\n        /* \"#utility.yul\":8760:8763   */\n      dup2\n        /* \"#utility.yul\":8755:8758   */\n      dup4\n        /* \"#utility.yul\":8749:8772   */\n      mcopy\n        /* \"#utility.yul\":8806:8807   */\n      0x00\n        /* \"#utility.yul\":8797:8803   */\n      dup4\n        /* \"#utility.yul\":8792:8795   */\n      dup4\n        /* \"#utility.yul\":8788:8804   */\n      add\n        /* \"#utility.yul\":8781:8808   */\n      mstore\n        /* \"#utility.yul\":8676:8815   */\n      pop\n      pop\n      pop\n      jump\t// out\n        /* \"#utility.yul\":8821:9207   */\n    tag_243:\n        /* \"#utility.yul\":8925:8928   */\n      0x00\n        /* \"#utility.yul\":8953:8991   */\n      tag_357\n        /* \"#utility.yul\":8985:8990   */\n      dup3\n        /* \"#utility.yul\":8953:8991   */\n      tag_240\n      jump\t// in\n    tag_357:\n        /* \"#utility.yul\":9007:9095   */\n      tag_358\n        /* \"#utility.yul\":9088:9094   */\n      dup2\n        /* \"#utility.yul\":9083:9086   */\n      dup6\n        /* \"#utility.yul\":9007:9095   */\n      tag_241\n      jump\t// in\n    tag_358:\n        /* \"#utility.yul\":9000:9095   */\n      swap4\n      pop\n        /* \"#utility.yul\":9104:9169   */\n      tag_359\n        /* \"#utility.yul\":9162:9168   */\n      dup2\n        /* \"#utility.yul\":9157:9160   */\n      dup6\n        /* \"#utility.yul\":9150:9154   */\n      0x20\n        /* \"#utility.yul\":9143:9148   */\n      dup7\n        /* \"#utility.yul\":9139:9155   */\n      add\n        /* \"#utility.yul\":9104:9169   */\n      tag_242\n      jump\t// in\n    tag_359:\n        /* \"#utility.yul\":9194:9200   */\n      dup1\n        /* \"#utility.yul\":9189:9192   */\n      dup5\n        /* \"#utility.yul\":9185:9201   */\n      add\n        /* \"#utility.yul\":9178:9201   */\n      swap2\n      pop\n        /* \"#utility.yul\":8929:9207   */\n      pop\n        /* \"#utility.yul\":8821:9207   */\n      swap3\n      swap2\n      pop\n      pop\n      jump\t// out\n        /* \"#utility.yul\":9213:9484   */\n    tag_130:\n        /* \"#utility.yul\":9343:9346   */\n      0x00\n        /* \"#utility.yul\":9365:9458   */\n      tag_361\n        /* \"#utility.yul\":9454:9457   */\n      dup3\n        /* \"#utility.yul\":9445:9451   */\n      dup5\n        /* \"#utility.yul\":9365:9458   */\n      tag_243\n      jump\t// in\n    tag_361:\n        /* \"#utility.yul\":9358:9458   */\n      swap2\n      pop\n        /* \"#utility.yul\":9475:9478   */\n      dup2\n        /* \"#utility.yul\":9468:9478   */\n      swap1\n      pop\n        /* \"#utility.yul\":9213:9484   */\n      swap3\n      swap2\n      pop\n      pop\n      jump\t// out\n        /* \"#utility.yul\":9490:9654   */\n    tag_244:\n        /* \"#utility.yul\":9630:9646   */\n      0x5265736f6c7665206661696c6564000000000000000000000000000000000000\n        /* \"#utility.yul\":9626:9627   */\n      0x00\n        /* \"#utility.yul\":9618:9624   */\n      dup3\n        /* \"#utility.yul\":9614:9628   */\n      add\n        /* \"#utility.yul\":9607:9647   */\n      mstore\n        /* \"#utility.yul\":9490:9654   */\n      pop\n      jump\t// out\n        /* \"#utility.yul\":9660:10026   */\n    tag_245:\n        /* \"#utility.yul\":9802:9805   */\n      0x00\n        /* \"#utility.yul\":9823:9890   */\n      tag_364\n        /* \"#utility.yul\":9887:9889   */\n      0x0e\n        /* \"#utility.yul\":9882:9885   */\n      dup4\n        /* \"#utility.yul\":9823:9890   */\n      tag_232\n      jump\t// in\n    tag_364:\n        /* \"#utility.yul\":9816:9890   */\n      swap2\n      pop\n        /* \"#utility.yul\":9899:9992   */\n      tag_365\n        /* \"#utility.yul\":9988:9991   */\n      dup3\n        /* \"#utility.yul\":9899:9992   */\n      tag_244\n      jump\t// in\n    tag_365:\n        /* \"#utility.yul\":10017:10019   */\n      0x20\n        /* \"#utility.yul\":10012:10015   */\n      dup3\n        /* \"#utility.yul\":10008:10020   */\n      add\n        /* \"#utility.yul\":10001:10020   */\n      swap1\n      pop\n        /* \"#utility.yul\":9660:10026   */\n      swap2\n      swap1\n      pop\n      jump\t// out\n        /* \"#utility.yul\":10032:10451   */\n    tag_136:\n        /* \"#utility.yul\":10198:10202   */\n      0x00\n        /* \"#utility.yul\":10236:10238   */\n      0x20\n        /* \"#utility.yul\":10225:10234   */\n      dup3\n        /* \"#utility.yul\":10221:10239   */\n      add\n        /* \"#utility.yul\":10213:10239   */\n      swap1\n      pop\n        /* \"#utility.yul\":10285:10294   */\n      dup2\n        /* \"#utility.yul\":10279:10283   */\n      dup2\n        /* \"#utility.yul\":10275:10295   */\n      sub\n        /* \"#utility.yul\":10271:10272   */\n      0x00\n        /* \"#utility.yul\":10260:10269   */\n      dup4\n        /* \"#utility.yul\":10256:10273   */\n      add\n        /* \"#utility.yul\":10249:10296   */\n      mstore\n        /* \"#utility.yul\":10313:10444   */\n      tag_367\n        /* \"#utility.yul\":10439:10443   */\n      dup2\n        /* \"#utility.yul\":10313:10444   */\n      tag_245\n      jump\t// in\n    tag_367:\n        /* \"#utility.yul\":10305:10444   */\n      swap1\n      pop\n        /* \"#utility.yul\":10032:10451   */\n      swap2\n      swap1\n      pop\n      jump\t// out\n        /* \"#utility.yul\":10457:10625   */\n    tag_246:\n        /* \"#utility.yul\":10597:10617   */\n      0x496e73756666696369656e74207374616b650000000000000000000000000000\n        /* \"#utility.yul\":10593:10594   */\n      0x00\n        /* \"#utility.yul\":10585:10591   */\n      dup3\n        /* \"#utility.yul\":10581:10595   */\n      add\n        /* \"#utility.yul\":10574:10618   */\n      mstore\n        /* \"#utility.yul\":10457:10625   */\n      pop\n      jump\t// out\n        /* \"#utility.yul\":10631:10997   */\n    tag_247:\n        /* \"#utility.yul\":10773:10776   */\n      0x00\n        /* \"#utility.yul\":10794:10861   */\n      tag_370\n        /* \"#utility.yul\":10858:10860   */\n      0x12\n        /* \"#utility.yul\":10853:10856   */\n      dup4\n        /* \"#utility.yul\":10794:10861   */\n      tag_232\n      jump\t// in\n    tag_370:\n        /* \"#utility.yul\":10787:10861   */\n      swap2\n      pop\n        /* \"#utility.yul\":10870:10963   */\n      tag_371\n        /* \"#utility.yul\":10959:10962   */\n      dup3\n        /* \"#utility.yul\":10870:10963   */\n      tag_246\n      jump\t// in\n    tag_371:\n        /* \"#utility.yul\":10988:10990   */\n      0x20\n        /* \"#utility.yul\":10983:10986   */\n      dup3\n        /* \"#utility.yul\":10979:10991   */\n      add\n        /* \"#utility.yul\":10972:10991   */\n      swap1\n      pop\n        /* \"#utility.yul\":10631:10997   */\n      swap2\n      swap1\n      pop\n      jump\t// out\n        /* \"#utility.yul\":11003:11422   */\n    tag_149:\n        /* \"#utility.yul\":11169:11173   */\n      0x00\n        /* \"#utility.yul\":11207:11209   */\n      0x20\n        /* \"#utility.yul\":11196:11205   */\n      dup3\n        /* \"#utility.yul\":11192:11210   */\n      add\n        /* \"#utility.yul\":11184:11210   */\n      swap1\n      pop\n        /* \"#utility.yul\":11256:11265   */\n      dup2\n        /* \"#utility.yul\":11250:11254   */\n      dup2\n        /* \"#utility.yul\":11246:11266   */\n      sub\n        /* \"#utility.yul\":11242:11243   */\n      0x00\n        /* \"#utility.yul\":11231:11240   */\n      dup4\n        /* \"#utility.yul\":11227:11244   */\n      add\n        /* \"#utility.yul\":11220:11267   */\n      mstore\n        /* \"#utility.yul\":11284:11415   */\n      tag_373\n        /* \"#utility.yul\":11410:11414   */\n      dup2\n        /* \"#utility.yul\":11284:11415   */\n      tag_247\n      jump\t// in\n    tag_373:\n        /* \"#utility.yul\":11276:11415   */\n      swap1\n      pop\n        /* \"#utility.yul\":11003:11422   */\n      swap2\n      swap1\n      pop\n      jump\t// out\n        /* \"#utility.yul\":11428:11591   */\n    tag_248:\n        /* \"#utility.yul\":11568:11583   */\n      0x416c7265616479206a75726f7200000000000000000000000000000000000000\n        /* \"#utility.yul\":11564:11565   */\n      0x00\n        /* \"#utility.yul\":11556:11562   */\n      dup3\n        /* \"#utility.yul\":11552:11566   */\n      add\n        /* \"#utility.yul\":11545:11584   */\n      mstore\n        /* \"#utility.yul\":11428:11591   */\n      pop\n      jump\t// out\n        /* \"#utility.yul\":11597:11963   */\n    tag_249:\n        /* \"#utility.yul\":11739:11742   */\n      0x00\n        /* \"#utility.yul\":11760:11827   */\n      tag_376\n        /* \"#utility.yul\":11824:11826   */\n      0x0d\n        /* \"#utility.yul\":11819:11822   */\n      dup4\n        /* \"#utility.yul\":11760:11827   */\n      tag_232\n      jump\t// in\n    tag_376:\n        /* \"#utility.yul\":11753:11827   */\n      swap2\n      pop\n        /* \"#utility.yul\":11836:11929   */\n      tag_377\n        /* \"#utility.yul\":11925:11928   */\n      dup3\n        /* \"#utility.yul\":11836:11929   */\n      tag_248\n      jump\t// in\n    tag_377:\n        /* \"#utility.yul\":11954:11956   */\n      0x20\n        /* \"#utility.yul\":11949:11952   */\n      dup3\n        /* \"#utility.yul\":11945:11957   */\n      add\n        /* \"#utility.yul\":11938:11957   */\n      swap1\n      pop\n        /* \"#utility.yul\":11597:11963   */\n      swap2\n      swap1\n      pop\n      jump\t// out\n        /* \"#utility.yul\":11969:12388   */\n    tag_152:\n        /* \"#utility.yul\":12135:12139   */\n      0x00\n        /* \"#utility.yul\":12173:12175   */\n      0x20\n        /* \"#utility.yul\":12162:12171   */\n      dup3\n        /* \"#utility.yul\":12158:12176   */\n      add\n        /* \"#utility.yul\":12150:12176   */\n      swap1\n      pop\n        /* \"#utility.yul\":12222:12231   */\n      dup2\n        /* \"#utility.yul\":12216:12220   */\n      dup2\n        /* \"#utility.yul\":12212:12232   */\n      sub\n        /* \"#utility.yul\":12208:12209   */\n      0x00\n        /* \"#utility.yul\":12197:12206   */\n      dup4\n        /* \"#utility.yul\":12193:12210   */\n      add\n        /* \"#utility.yul\":12186:12233   */\n      mstore\n        /* \"#utility.yul\":12250:12381   */\n      tag_379\n        /* \"#utility.yul\":12376:12380   */\n      dup2\n        /* \"#utility.yul\":12250:12381   */\n      tag_249\n      jump\t// in\n    tag_379:\n        /* \"#utility.yul\":12242:12381   */\n      swap1\n      pop\n        /* \"#utility.yul\":11969:12388   */\n      swap2\n      swap1\n      pop\n      jump\t// out\n        /* \"#utility.yul\":12394:12560   */\n    tag_250:\n        /* \"#utility.yul\":12534:12552   */\n      0x4f6e6c79205461736b466163746f727900000000000000000000000000000000\n        /* \"#utility.yul\":12530:12531   */\n      0x00\n        /* \"#utility.yul\":12522:12528   */\n      dup3\n        /* \"#utility.yul\":12518:12532   */\n      add\n        /* \"#utility.yul\":12511:12553   */\n      mstore\n        /* \"#utility.yul\":12394:12560   */\n      pop\n      jump\t// out\n        /* \"#utility.yul\":12566:12932   */\n    tag_251:\n        /* \"#utility.yul\":12708:12711   */\n      0x00\n        /* \"#utility.yul\":12729:12796   */\n      tag_382\n        /* \"#utility.yul\":12793:12795   */\n      0x10\n        /* \"#utility.yul\":12788:12791   */\n      dup4\n        /* \"#utility.yul\":12729:12796   */\n      tag_232\n      jump\t// in\n    tag_382:\n        /* \"#utility.yul\":12722:12796   */\n      swap2\n      pop\n        /* \"#utility.yul\":12805:12898   */\n      tag_383\n        /* \"#utility.yul\":12894:12897   */\n      dup3\n        /* \"#utility.yul\":12805:12898   */\n      tag_250\n      jump\t// in\n    tag_383:\n        /* \"#utility.yul\":12923:12925   */\n      0x20\n        /* \"#utility.yul\":12918:12921   */\n      dup3\n        /* \"#utility.yul\":12914:12926   */\n      add\n        /* \"#utility.yul\":12907:12926   */\n      swap1\n      pop\n        /* \"#utility.yul\":12566:12932   */\n      swap2\n      swap1\n      pop\n      jump\t// out\n        /* \"#utility.yul\":12938:13357   */\n    tag_158:\n        /* \"#utility.yul\":13104:13108   */\n      0x00\n        /* \"#utility.yul\":13142:13144   */\n      0x20\n        /* \"#utility.yul\":13131:13140   */\n      dup3\n        /* \"#utility.yul\":13127:13145   */\n      add\n        /* \"#utility.yul\":13119:13145   */\n      swap1\n      pop\n        /* \"#utility.yul\":13191:13200   */\n      dup2\n        /* \"#utility.yul\":13185:13189   */\n      dup2\n        /* \"#utility.yul\":13181:13201   */\n      sub\n        /* \"#utility.yul\":13177:13178   */\n      0x00\n        /* \"#utility.yul\":13166:13175   */\n      dup4\n        /* \"#utility.yul\":13162:13179   */\n      add\n        /* \"#utility.yul\":13155:13202   */\n      mstore\n        /* \"#utility.yul\":13219:13350   */\n      tag_385\n        /* \"#utility.yul\":13345:13349   */\n      dup2\n        /* \"#utility.yul\":13219:13350   */\n      tag_251\n      jump\t// in\n    tag_385:\n        /* \"#utility.yul\":13211:13350   */\n      swap1\n      pop\n        /* \"#utility.yul\":12938:13357   */\n      swap2\n      swap1\n      pop\n      jump\t// out\n        /* \"#utility.yul\":13363:13536   */\n    tag_252:\n        /* \"#utility.yul\":13503:13528   */\n      0x4469737075746520616c72656164792073746172746564000000000000000000\n        /* \"#utility.yul\":13499:13500   */\n      0x00\n        /* \"#utility.yul\":13491:13497   */\n      dup3\n        /* \"#utility.yul\":13487:13501   */\n      add\n        /* \"#utility.yul\":13480:13529   */\n      mstore\n        /* \"#utility.yul\":13363:13536   */\n      pop\n      jump\t// out\n        /* \"#utility.yul\":13542:13908   */\n    tag_253:\n        /* \"#utility.yul\":13684:13687   */\n      0x00\n        /* \"#utility.yul\":13705:13772   */\n      tag_388\n        /* \"#utility.yul\":13769:13771   */\n      0x17\n        /* \"#utility.yul\":13764:13767   */\n      dup4\n        /* \"#utility.yul\":13705:13772   */\n      tag_232\n      jump\t// in\n    tag_388:\n        /* \"#utility.yul\":13698:13772   */\n      swap2\n      pop\n        /* \"#utility.yul\":13781:13874   */\n      tag_389\n        /* \"#utility.yul\":13870:13873   */\n      dup3\n        /* \"#utility.yul\":13781:13874   */\n      tag_252\n      jump\t// in\n    tag_389:\n        /* \"#utility.yul\":13899:13901   */\n      0x20\n        /* \"#utility.yul\":13894:13897   */\n      dup3\n        /* \"#utility.yul\":13890:13902   */\n      add\n        /* \"#utility.yul\":13883:13902   */\n      swap1\n      pop\n        /* \"#utility.yul\":13542:13908   */\n      swap2\n      swap1\n      pop\n      jump\t// out\n        /* \"#utility.yul\":13914:14333   */\n    tag_162:\n        /* \"#utility.yul\":14080:14084   */\n      0x00\n        /* \"#utility.yul\":14118:14120   */\n      0x20\n        /* \"#utility.yul\":14107:14116   */\n      dup3\n        /* \"#utility.yul\":14103:14121   */\n      add\n        /* \"#utility.yul\":14095:14121   */\n      swap1\n      pop\n        /* \"#utility.yul\":14167:14176   */\n      dup2\n        /* \"#utility.yul\":14161:14165   */\n      dup2\n        /* \"#utility.yul\":14157:14177   */\n      sub\n        /* \"#utility.yul\":14153:14154   */\n      0x00\n        /* \"#utility.yul\":14142:14151   */\n      dup4\n        /* \"#utility.yul\":14138:14155   */\n      add\n        /* \"#utility.yul\":14131:14178   */\n      mstore\n        /* \"#utility.yul\":14195:14326   */\n      tag_391\n        /* \"#utility.yul\":14321:14325   */\n      dup2\n        /* \"#utility.yul\":14195:14326   */\n      tag_253\n      jump\t// in\n    tag_391:\n        /* \"#utility.yul\":14187:14326   */\n      swap1\n      pop\n        /* \"#utility.yul\":13914:14333   */\n      swap2\n      swap1\n      pop\n      jump\t// out\n        /* \"#utility.yul\":14339:14506   */\n    tag_254:\n        /* \"#utility.yul\":14479:14498   */\n      0x4e6f7420656e6f756768206a75726f7273000000000000000000000000000000\n        /* \"#utility.yul\":14475:14476   */\n      0x00\n        /* \"#utility.yul\":14467:14473   */\n      dup3\n        /* \"#utility.yul\":14463:14477   */\n      add\n        /* \"#utility.yul\":14456:14499   */\n      mstore\n        /* \"#utility.yul\":14339:14506   */\n      pop\n      jump\t// out\n        /* \"#utility.yul\":14512:14878   */\n    tag_255:\n        /* \"#utility.yul\":14654:14657   */\n      0x00\n        /* \"#utility.yul\":14675:14742   */\n      tag_394\n        /* \"#utility.yul\":14739:14741   */\n      0x11\n        /* \"#utility.yul\":14734:14737   */\n      dup4\n        /* \"#utility.yul\":14675:14742   */\n      tag_232\n      jump\t// in\n    tag_394:\n        /* \"#utility.yul\":14668:14742   */\n      swap2\n      pop\n        /* \"#utility.yul\":14751:14844   */\n      tag_395\n        /* \"#utility.yul\":14840:14843   */\n      dup3\n        /* \"#utility.yul\":14751:14844   */\n      tag_254\n      jump\t// in\n    tag_395:\n        /* \"#utility.yul\":14869:14871   */\n      0x20\n        /* \"#utility.yul\":14864:14867   */\n      dup3\n        /* \"#utility.yul\":14860:14872   */\n      add\n        /* \"#utility.yul\":14853:14872   */\n      swap1\n      pop\n        /* \"#utility.yul\":14512:14878   */\n      swap2\n      swap1\n      pop\n      jump\t// out\n        /* \"#utility.yul\":14884:15303   */\n    tag_165:\n        /* \"#utility.yul\":15050:15054   */\n      0x00\n        /* \"#utility.yul\":15088:15090   */\n      0x20\n        /* \"#utility.yul\":15077:15086   */\n      dup3\n        /* \"#utility.yul\":15073:15091   */\n      add\n        /* \"#utility.yul\":15065:15091   */\n      swap1\n      pop\n        /* \"#utility.yul\":15137:15146   */\n      dup2\n        /* \"#utility.yul\":15131:15135   */\n      dup2\n        /* \"#utility.yul\":15127:15147   */\n      sub\n        /* \"#utility.yul\":15123:15124   */\n      0x00\n        /* \"#utility.yul\":15112:15121   */\n      dup4\n        /* \"#utility.yul\":15108:15125   */\n      add\n        /* \"#utility.yul\":15101:15148   */\n      mstore\n        /* \"#utility.yul\":15165:15296   */\n      tag_397\n        /* \"#utility.yul\":15291:15295   */\n      dup2\n        /* \"#utility.yul\":15165:15296   */\n      tag_255\n      jump\t// in\n    tag_397:\n        /* \"#utility.yul\":15157:15296   */\n      swap1\n      pop\n        /* \"#utility.yul\":14884:15303   */\n      swap2\n      swap1\n      pop\n      jump\t// out\n        /* \"#utility.yul\":15309:15489   */\n    tag_168:\n        /* \"#utility.yul\":15357:15434   */\n      0x4e487b7100000000000000000000000000000000000000000000000000000000\n        /* \"#utility.yul\":15354:15355   */\n      0x00\n        /* \"#utility.yul\":15347:15435   */\n      mstore\n        /* \"#utility.yul\":15454:15458   */\n      0x41\n        /* \"#utility.yul\":15451:15452   */\n      0x04\n        /* \"#utility.yul\":15444:15459   */\n      mstore\n        /* \"#utility.yul\":15478:15482   */\n      0x24\n        /* \"#utility.yul\":15475:15476   */\n      0x00\n        /* \"#utility.yul\":15468:15483   */\n      revert\n        /* \"#utility.yul\":15495:15574   */\n    tag_256:\n        /* \"#utility.yul\":15534:15541   */\n      0x00\n        /* \"#utility.yul\":15563:15568   */\n      dup2\n        /* \"#utility.yul\":15552:15568   */\n      swap1\n      pop\n        /* \"#utility.yul\":15495:15574   */\n      swap2\n      swap1\n      pop\n      jump\t// out\n        /* \"#utility.yul\":15580:15737   */\n    tag_257:\n        /* \"#utility.yul\":15685:15730   */\n      tag_401\n        /* \"#utility.yul\":15705:15729   */\n      tag_402\n        /* \"#utility.yul\":15723:15728   */\n      dup3\n        /* \"#utility.yul\":15705:15729   */\n      tag_221\n      jump\t// in\n    tag_402:\n        /* \"#utility.yul\":15685:15730   */\n      tag_256\n      jump\t// in\n    tag_401:\n        /* \"#utility.yul\":15680:15683   */\n      dup3\n        /* \"#utility.yul\":15673:15731   */\n      mstore\n        /* \"#utility.yul\":15580:15737   */\n      pop\n      pop\n      jump\t// out\n        /* \"#utility.yul\":15743:16140   */\n    tag_171:\n        /* \"#utility.yul\":15883:15886   */\n      0x00\n        /* \"#utility.yul\":15898:15973   */\n      tag_404\n        /* \"#utility.yul\":15969:15972   */\n      dup3\n        /* \"#utility.yul\":15960:15966   */\n      dup6\n        /* \"#utility.yul\":15898:15973   */\n      tag_257\n      jump\t// in\n    tag_404:\n        /* \"#utility.yul\":15998:16000   */\n      0x20\n        /* \"#utility.yul\":15993:15996   */\n      dup3\n        /* \"#utility.yul\":15989:16001   */\n      add\n        /* \"#utility.yul\":15982:16001   */\n      swap2\n      pop\n        /* \"#utility.yul\":16011:16086   */\n      tag_405\n        /* \"#utility.yul\":16082:16085   */\n      dup3\n        /* \"#utility.yul\":16073:16079   */\n      dup5\n        /* \"#utility.yul\":16011:16086   */\n      tag_257\n      jump\t// in\n    tag_405:\n        /* \"#utility.yul\":16111:16113   */\n      0x20\n        /* \"#utility.yul\":16106:16109   */\n      dup3\n        /* \"#utility.yul\":16102:16114   */\n      add\n        /* \"#utility.yul\":16095:16114   */\n      swap2\n      pop\n        /* \"#utility.yul\":16131:16134   */\n      dup2\n        /* \"#utility.yul\":16124:16134   */\n      swap1\n      pop\n        /* \"#utility.yul\":15743:16140   */\n      swap4\n      swap3\n      pop\n      pop\n      pop\n      jump\t// out\n        /* \"#utility.yul\":16146:16556   */\n    tag_176:\n        /* \"#utility.yul\":16186:16193   */\n      0x00\n        /* \"#utility.yul\":16209:16229   */\n      tag_407\n        /* \"#utility.yul\":16227:16228   */\n      dup3\n        /* \"#utility.yul\":16209:16229   */\n      tag_221\n      jump\t// in\n    tag_407:\n        /* \"#utility.yul\":16204:16229   */\n      swap2\n      pop\n        /* \"#utility.yul\":16243:16263   */\n      tag_408\n        /* \"#utility.yul\":16261:16262   */\n      dup4\n        /* \"#utility.yul\":16243:16263   */\n      tag_221\n      jump\t// in\n    tag_408:\n        /* \"#utility.yul\":16238:16263   */\n      swap3\n      pop\n        /* \"#utility.yul\":16298:16299   */\n      dup3\n        /* \"#utility.yul\":16295:16296   */\n      dup3\n        /* \"#utility.yul\":16291:16300   */\n      mul\n        /* \"#utility.yul\":16320:16350   */\n      tag_409\n        /* \"#utility.yul\":16338:16349   */\n      dup2\n        /* \"#utility.yul\":16320:16350   */\n      tag_221\n      jump\t// in\n    tag_409:\n        /* \"#utility.yul\":16309:16350   */\n      swap2\n      pop\n        /* \"#utility.yul\":16499:16500   */\n      dup3\n        /* \"#utility.yul\":16490:16497   */\n      dup3\n        /* \"#utility.yul\":16486:16501   */\n      div\n        /* \"#utility.yul\":16483:16484   */\n      dup5\n        /* \"#utility.yul\":16480:16502   */\n      eq\n        /* \"#utility.yul\":16460:16461   */\n      dup4\n        /* \"#utility.yul\":16453:16462   */\n      iszero\n        /* \"#utility.yul\":16433:16516   */\n      or\n        /* \"#utility.yul\":16410:16549   */\n      tag_410\n      jumpi\n        /* \"#utility.yul\":16529:16547   */\n      tag_411\n      tag_239\n      jump\t// in\n    tag_411:\n        /* \"#utility.yul\":16410:16549   */\n    tag_410:\n        /* \"#utility.yul\":16194:16556   */\n      pop\n        /* \"#utility.yul\":16146:16556   */\n      swap3\n      swap2\n      pop\n      pop\n      jump\t// out\n        /* \"#utility.yul\":16562:16742   */\n    tag_258:\n        /* \"#utility.yul\":16610:16687   */\n      0x4e487b7100000000000000000000000000000000000000000000000000000000\n        /* \"#utility.yul\":16607:16608   */\n      0x00\n        /* \"#utility.yul\":16600:16688   */\n      mstore\n        /* \"#utility.yul\":16707:16711   */\n      0x12\n        /* \"#utility.yul\":16704:16705   */\n      0x04\n        /* \"#utility.yul\":16697:16712   */\n      mstore\n        /* \"#utility.yul\":16731:16735   */\n      0x24\n        /* \"#utility.yul\":16728:16729   */\n      0x00\n        /* \"#utility.yul\":16721:16736   */\n      revert\n        /* \"#utility.yul\":16748:16924   */\n    tag_179:\n        /* \"#utility.yul\":16780:16781   */\n      0x00\n        /* \"#utility.yul\":16797:16817   */\n      tag_414\n        /* \"#utility.yul\":16815:16816   */\n      dup3\n        /* \"#utility.yul\":16797:16817   */\n      tag_221\n      jump\t// in\n    tag_414:\n        /* \"#utility.yul\":16792:16817   */\n      swap2\n      pop\n        /* \"#utility.yul\":16831:16851   */\n      tag_415\n        /* \"#utility.yul\":16849:16850   */\n      dup4\n        /* \"#utility.yul\":16831:16851   */\n      tag_221\n      jump\t// in\n    tag_415:\n        /* \"#utility.yul\":16826:16851   */\n      swap3\n      pop\n        /* \"#utility.yul\":16870:16871   */\n      dup3\n        /* \"#utility.yul\":16860:16895   */\n      tag_416\n      jumpi\n        /* \"#utility.yul\":16875:16893   */\n      tag_417\n      tag_258\n      jump\t// in\n    tag_417:\n        /* \"#utility.yul\":16860:16895   */\n    tag_416:\n        /* \"#utility.yul\":16916:16917   */\n      dup3\n        /* \"#utility.yul\":16913:16914   */\n      dup3\n        /* \"#utility.yul\":16909:16918   */\n      mod\n        /* \"#utility.yul\":16904:16918   */\n      swap1\n      pop\n        /* \"#utility.yul\":16748:16924   */\n      swap3\n      swap2\n      pop\n      pop\n      jump\t// out\n        /* \"#utility.yul\":16930:17104   */\n    tag_259:\n        /* \"#utility.yul\":17070:17096   */\n      0x4e6f7420656e6f75676820756e69717565206a75726f72730000000000000000\n        /* \"#utility.yul\":17066:17067   */\n      0x00\n        /* \"#utility.yul\":17058:17064   */\n      dup3\n        /* \"#utility.yul\":17054:17068   */\n      add\n        /* \"#utility.yul\":17047:17097   */\n      mstore\n        /* \"#utility.yul\":16930:17104   */\n      pop\n      jump\t// out\n        /* \"#utility.yul\":17110:17476   */\n    tag_260:\n        /* \"#utility.yul\":17252:17255   */\n      0x00\n        /* \"#utility.yul\":17273:17340   */\n      tag_420\n        /* \"#utility.yul\":17337:17339   */\n      0x18\n        /* \"#utility.yul\":17332:17335   */\n      dup4\n        /* \"#utility.yul\":17273:17340   */\n      tag_232\n      jump\t// in\n    tag_420:\n        /* \"#utility.yul\":17266:17340   */\n      swap2\n      pop\n        /* \"#utility.yul\":17349:17442   */\n      tag_421\n        /* \"#utility.yul\":17438:17441   */\n      dup3\n        /* \"#utility.yul\":17349:17442   */\n      tag_259\n      jump\t// in\n    tag_421:\n        /* \"#utility.yul\":17467:17469   */\n      0x20\n        /* \"#utility.yul\":17462:17465   */\n      dup3\n        /* \"#utility.yul\":17458:17470   */\n      add\n        /* \"#utility.yul\":17451:17470   */\n      swap1\n      pop\n        /* \"#utility.yul\":17110:17476   */\n      swap2\n      swap1\n      pop\n      jump\t// out\n        /* \"#utility.yul\":17482:17901   */\n    tag_197:\n        /* \"#utility.yul\":17648:17652   */\n      0x00\n        /* \"#utility.yul\":17686:17688   */\n      0x20\n        /* \"#utility.yul\":17675:17684   */\n      dup3\n        /* \"#utility.yul\":17671:17689   */\n      add\n        /* \"#utility.yul\":17663:17689   */\n      swap1\n      pop\n        /* \"#utility.yul\":17735:17744   */\n      dup2\n        /* \"#utility.yul\":17729:17733   */\n      dup2\n        /* \"#utility.yul\":17725:17745   */\n      sub\n        /* \"#utility.yul\":17721:17722   */\n      0x00\n        /* \"#utility.yul\":17710:17719   */\n      dup4\n        /* \"#utility.yul\":17706:17723   */\n      add\n        /* \"#utility.yul\":17699:17746   */\n      mstore\n        /* \"#utility.yul\":17763:17894   */\n      tag_423\n        /* \"#utility.yul\":17889:17893   */\n      dup2\n        /* \"#utility.yul\":17763:17894   */\n      tag_260\n      jump\t// in\n    tag_423:\n        /* \"#utility.yul\":17755:17894   */\n      swap1\n      pop\n        /* \"#utility.yul\":17482:17901   */\n      swap2\n      swap1\n      pop\n      jump\t// out\n        /* \"#utility.yul\":17907:18021   */\n    tag_261:\n        /* \"#utility.yul\":17974:17980   */\n      0x00\n        /* \"#utility.yul\":18008:18013   */\n      dup2\n        /* \"#utility.yul\":18002:18014   */\n      mload\n        /* \"#utility.yul\":17992:18014   */\n      swap1\n      pop\n        /* \"#utility.yul\":17907:18021   */\n      swap2\n      swap1\n      pop\n      jump\t// out\n        /* \"#utility.yul\":18027:18211   */\n    tag_262:\n        /* \"#utility.yul\":18126:18137   */\n      0x00\n        /* \"#utility.yul\":18160:18166   */\n      dup3\n        /* \"#utility.yul\":18155:18158   */\n      dup3\n        /* \"#utility.yul\":18148:18167   */\n      mstore\n        /* \"#utility.yul\":18200:18204   */\n      0x20\n        /* \"#utility.yul\":18195:18198   */\n      dup3\n        /* \"#utility.yul\":18191:18205   */\n      add\n        /* \"#utility.yul\":18176:18205   */\n      swap1\n      pop\n        /* \"#utility.yul\":18027:18211   */\n      swap3\n      swap2\n      pop\n      pop\n      jump\t// out\n        /* \"#utility.yul\":18217:18349   */\n    tag_263:\n        /* \"#utility.yul\":18284:18288   */\n      0x00\n        /* \"#utility.yul\":18307:18310   */\n      dup2\n        /* \"#utility.yul\":18299:18310   */\n      swap1\n      pop\n        /* \"#utility.yul\":18337:18341   */\n      0x20\n        /* \"#utility.yul\":18332:18335   */\n      dup3\n        /* \"#utility.yul\":18328:18342   */\n      add\n        /* \"#utility.yul\":18320:18342   */\n      swap1\n      pop\n        /* \"#utility.yul\":18217:18349   */\n      swap2\n      swap1\n      pop\n      jump\t// out\n        /* \"#utility.yul\":18355:18463   */\n    tag_264:\n        /* \"#utility.yul\":18432:18456   */\n      tag_428\n        /* \"#utility.yul\":18450:18455   */\n      dup2\n        /* \"#utility.yul\":18432:18456   */\n      tag_225\n      jump\t// in\n    tag_428:\n        /* \"#utility.yul\":18427:18430   */\n      dup3\n        /* \"#utility.yul\":18420:18457   */\n      mstore\n        /* \"#utility.yul\":18355:18463   */\n      pop\n      pop\n      jump\t// out\n        /* \"#utility.yul\":18469:18648   */\n    tag_265:\n        /* \"#utility.yul\":18538:18548   */\n      0x00\n        /* \"#utility.yul\":18559:18605   */\n      tag_430\n        /* \"#utility.yul\":18601:18604   */\n      dup4\n        /* \"#utility.yul\":18593:18599   */\n      dup4\n        /* \"#utility.yul\":18559:18605   */\n      tag_264\n      jump\t// in\n    tag_430:\n        /* \"#utility.yul\":18637:18641   */\n      0x20\n        /* \"#utility.yul\":18632:18635   */\n      dup4\n        /* \"#utility.yul\":18628:18642   */\n      add\n        /* \"#utility.yul\":18614:18642   */\n      swap1\n      pop\n        /* \"#utility.yul\":18469:18648   */\n      swap3\n      swap2\n      pop\n      pop\n      jump\t// out\n        /* \"#utility.yul\":18654:18767   */\n    tag_266:\n        /* \"#utility.yul\":18724:18728   */\n      0x00\n        /* \"#utility.yul\":18756:18760   */\n      0x20\n        /* \"#utility.yul\":18751:18754   */\n      dup3\n        /* \"#utility.yul\":18747:18761   */\n      add\n        /* \"#utility.yul\":18739:18761   */\n      swap1\n      pop\n        /* \"#utility.yul\":18654:18767   */\n      swap2\n      swap1\n      pop\n      jump\t// out\n        /* \"#utility.yul\":18803:19535   */\n    tag_267:\n        /* \"#utility.yul\":18922:18925   */\n      0x00\n        /* \"#utility.yul\":18951:19005   */\n      tag_433\n        /* \"#utility.yul\":18999:19004   */\n      dup3\n        /* \"#utility.yul\":18951:19005   */\n      tag_261\n      jump\t// in\n    tag_433:\n        /* \"#utility.yul\":19021:19107   */\n      tag_434\n        /* \"#utility.yul\":19100:19106   */\n      dup2\n        /* \"#utility.yul\":19095:19098   */\n      dup6\n        /* \"#utility.yul\":19021:19107   */\n      tag_262\n      jump\t// in\n    tag_434:\n        /* \"#utility.yul\":19014:19107   */\n      swap4\n      pop\n        /* \"#utility.yul\":19131:19187   */\n      tag_435\n        /* \"#utility.yul\":19181:19186   */\n      dup4\n        /* \"#utility.yul\":19131:19187   */\n      tag_263\n      jump\t// in\n    tag_435:\n        /* \"#utility.yul\":19210:19217   */\n      dup1\n        /* \"#utility.yul\":19241:19242   */\n      0x00\n        /* \"#utility.yul\":19226:19510   */\n    tag_436:\n        /* \"#utility.yul\":19251:19257   */\n      dup4\n        /* \"#utility.yul\":19248:19249   */\n      dup2\n        /* \"#utility.yul\":19245:19258   */\n      lt\n        /* \"#utility.yul\":19226:19510   */\n      iszero\n      tag_438\n      jumpi\n        /* \"#utility.yul\":19327:19333   */\n      dup2\n        /* \"#utility.yul\":19321:19334   */\n      mload\n        /* \"#utility.yul\":19354:19417   */\n      tag_439\n        /* \"#utility.yul\":19413:19416   */\n      dup9\n        /* \"#utility.yul\":19398:19411   */\n      dup3\n        /* \"#utility.yul\":19354:19417   */\n      tag_265\n      jump\t// in\n    tag_439:\n        /* \"#utility.yul\":19347:19417   */\n      swap8\n      pop\n        /* \"#utility.yul\":19440:19500   */\n      tag_440\n        /* \"#utility.yul\":19493:19499   */\n      dup4\n        /* \"#utility.yul\":19440:19500   */\n      tag_266\n      jump\t// in\n    tag_440:\n        /* \"#utility.yul\":19430:19500   */\n      swap3\n      pop\n        /* \"#utility.yul\":19286:19510   */\n      pop\n        /* \"#utility.yul\":19273:19274   */\n      0x01\n        /* \"#utility.yul\":19270:19271   */\n      dup2\n        /* \"#utility.yul\":19266:19275   */\n      add\n        /* \"#utility.yul\":19261:19275   */\n      swap1\n      pop\n        /* \"#utility.yul\":19226:19510   */\n      jump(tag_436)\n    tag_438:\n        /* \"#utility.yul\":19230:19244   */\n      pop\n        /* \"#utility.yul\":19526:19529   */\n      dup6\n        /* \"#utility.yul\":19519:19529   */\n      swap4\n      pop\n        /* \"#utility.yul\":18927:19535   */\n      pop\n      pop\n      pop\n        /* \"#utility.yul\":18803:19535   */\n      swap3\n      swap2\n      pop\n      pop\n      jump\t// out\n        /* \"#utility.yul\":19541:19914   */\n    tag_201:\n        /* \"#utility.yul\":19684:19688   */\n      0x00\n        /* \"#utility.yul\":19722:19724   */\n      0x20\n        /* \"#utility.yul\":19711:19720   */\n      dup3\n        /* \"#utility.yul\":19707:19725   */\n      add\n        /* \"#utility.yul\":19699:19725   */\n      swap1\n      pop\n        /* \"#utility.yul\":19771:19780   */\n      dup2\n        /* \"#utility.yul\":19765:19769   */\n      dup2\n        /* \"#utility.yul\":19761:19781   */\n      sub\n        /* \"#utility.yul\":19757:19758   */\n      0x00\n        /* \"#utility.yul\":19746:19755   */\n      dup4\n        /* \"#utility.yul\":19742:19759   */\n      add\n        /* \"#utility.yul\":19735:19782   */\n      mstore\n        /* \"#utility.yul\":19799:19907   */\n      tag_442\n        /* \"#utility.yul\":19902:19906   */\n      dup2\n        /* \"#utility.yul\":19893:19899   */\n      dup5\n        /* \"#utility.yul\":19799:19907   */\n      tag_267\n      jump\t// in\n    tag_442:\n        /* \"#utility.yul\":19791:19907   */\n      swap1\n      pop\n        /* \"#utility.yul\":19541:19914   */\n      swap3\n      swap2\n      pop\n      pop\n      jump\t// out\n        /* \"#utility.yul\":19920:20089   */\n    tag_268:\n        /* \"#utility.yul\":20060:20081   */\n      0x466163746f727920616c72656164792073657400000000000000000000000000\n        /* \"#utility.yul\":20056:20057   */\n      0x00\n        /* \"#utility.yul\":20048:20054   */\n      dup3\n        /* \"#utility.yul\":20044:20058   */\n      add\n        /* \"#utility.yul\":20037:20082   */\n      mstore\n        /* \"#utility.yul\":19920:20089   */\n      pop\n      jump\t// out\n        /* \"#utility.yul\":20095:20461   */\n    tag_269:\n        /* \"#utility.yul\":20237:20240   */\n      0x00\n        /* \"#utility.yul\":20258:20325   */\n      tag_445\n        /* \"#utility.yul\":20322:20324   */\n      0x13\n        /* \"#utility.yul\":20317:20320   */\n      dup4\n        /* \"#utility.yul\":20258:20325   */\n      tag_232\n      jump\t// in\n    tag_445:\n        /* \"#utility.yul\":20251:20325   */\n      swap2\n      pop\n        /* \"#utility.yul\":20334:20427   */\n      tag_446\n        /* \"#utility.yul\":20423:20426   */\n      dup3\n        /* \"#utility.yul\":20334:20427   */\n      tag_268\n      jump\t// in\n    tag_446:\n        /* \"#utility.yul\":20452:20454   */\n      0x20\n        /* \"#utility.yul\":20447:20450   */\n      dup3\n        /* \"#utility.yul\":20443:20455   */\n      add\n        /* \"#utility.yul\":20436:20455   */\n      swap1\n      pop\n        /* \"#utility.yul\":20095:20461   */\n      swap2\n      swap1\n      pop\n      jump\t// out\n        /* \"#utility.yul\":20467:20886   */\n    tag_205:\n        /* \"#utility.yul\":20633:20637   */\n      0x00\n        /* \"#utility.yul\":20671:20673   */\n      0x20\n        /* \"#utility.yul\":20660:20669   */\n      dup3\n        /* \"#utility.yul\":20656:20674   */\n      add\n        /* \"#utility.yul\":20648:20674   */\n      swap1\n      pop\n        /* \"#utility.yul\":20720:20729   */\n      dup2\n        /* \"#utility.yul\":20714:20718   */\n      dup2\n        /* \"#utility.yul\":20710:20730   */\n      sub\n        /* \"#utility.yul\":20706:20707   */\n      0x00\n        /* \"#utility.yul\":20695:20704   */\n      dup4\n        /* \"#utility.yul\":20691:20708   */\n      add\n        /* \"#utility.yul\":20684:20731   */\n      mstore\n        /* \"#utility.yul\":20748:20879   */\n      tag_448\n        /* \"#utility.yul\":20874:20878   */\n      dup2\n        /* \"#utility.yul\":20748:20879   */\n      tag_269\n      jump\t// in\n    tag_448:\n        /* \"#utility.yul\":20740:20879   */\n      swap1\n      pop\n        /* \"#utility.yul\":20467:20886   */\n      swap2\n      swap1\n      pop\n      jump\t// out\n        /* \"#utility.yul\":20892:21057   */\n    tag_270:\n        /* \"#utility.yul\":21032:21049   */\n      0x496e76616c696420616464726573730000000000000000000000000000000000\n        /* \"#utility.yul\":21028:21029   */\n      0x00\n        /* \"#utility.yul\":21020:21026   */\n      dup3\n        /* \"#utility.yul\":21016:21030   */\n      add\n        /* \"#utility.yul\":21009:21050   */\n      mstore\n        /* \"#utility.yul\":20892:21057   */\n      pop\n      jump\t// out\n        /* \"#utility.yul\":21063:21429   */\n    tag_271:\n        /* \"#utility.yul\":21205:21208   */\n      0x00\n        /* \"#utility.yul\":21226:21293   */\n      tag_451\n        /* \"#utility.yul\":21290:21292   */\n      0x0f\n        /* \"#utility.yul\":21285:21288   */\n      dup4\n        /* \"#utility.yul\":21226:21293   */\n      tag_232\n      jump\t// in\n    tag_451:\n        /* \"#utility.yul\":21219:21293   */\n      swap2\n      pop\n        /* \"#utility.yul\":21302:21395   */\n      tag_452\n        /* \"#utility.yul\":21391:21394   */\n      dup3\n        /* \"#utility.yul\":21302:21395   */\n      tag_270\n      jump\t// in\n    tag_452:\n        /* \"#utility.yul\":21420:21422   */\n      0x20\n        /* \"#utility.yul\":21415:21418   */\n      dup3\n        /* \"#utility.yul\":21411:21423   */\n      add\n        /* \"#utility.yul\":21404:21423   */\n      swap1\n      pop\n        /* \"#utility.yul\":21063:21429   */\n      swap2\n      swap1\n      pop\n      jump\t// out\n        /* \"#utility.yul\":21435:21854   */\n    tag_208:\n        /* \"#utility.yul\":21601:21605   */\n      0x00\n        /* \"#utility.yul\":21639:21641   */\n      0x20\n        /* \"#utility.yul\":21628:21637   */\n      dup3\n        /* \"#utility.yul\":21624:21642   */\n      add\n        /* \"#utility.yul\":21616:21642   */\n      swap1\n      pop\n        /* \"#utility.yul\":21688:21697   */\n      dup2\n        /* \"#utility.yul\":21682:21686   */\n      dup2\n        /* \"#utility.yul\":21678:21698   */\n      sub\n        /* \"#utility.yul\":21674:21675   */\n      0x00\n        /* \"#utility.yul\":21663:21672   */\n      dup4\n        /* \"#utility.yul\":21659:21676   */\n      add\n        /* \"#utility.yul\":21652:21699   */\n      mstore\n        /* \"#utility.yul\":21716:21847   */\n      tag_454\n        /* \"#utility.yul\":21842:21846   */\n      dup2\n        /* \"#utility.yul\":21716:21847   */\n      tag_271\n      jump\t// in\n    tag_454:\n        /* \"#utility.yul\":21708:21847   */\n      swap1\n      pop\n        /* \"#utility.yul\":21435:21854   */\n      swap2\n      swap1\n      pop\n      jump\t// out\n\n    auxdata: 0xa26469706673582212201d7e24dcaf932b118d54a7c6fe94869bd60b52852d06e502eff78c24efcb489664736f6c634300081e0033\n}\n",
				"bytecode": {
					"linkReferences": {},
					"object": "608060405267016345785d8a0000600255600380555f600460146101000a81548160ff021916908315150217905550348015610039575f5ffd5b50604051612201380380612201833981810160405281019061005b919061014e565b8060045f6101000a81548173ffffffffffffffffffffffffffffffffffffffff021916908373ffffffffffffffffffffffffffffffffffffffff1602179055505f73ffffffffffffffffffffffffffffffffffffffff168173ffffffffffffffffffffffffffffffffffffffff16146100ea576001600460146101000a81548160ff0219169083151502179055505b50610179565b5f5ffd5b5f73ffffffffffffffffffffffffffffffffffffffff82169050919050565b5f61011d826100f4565b9050919050565b61012d81610113565b8114610137575f5ffd5b50565b5f8151905061014881610124565b92915050565b5f60208284031215610163576101626100f0565b5b5f6101708482850161013a565b91505092915050565b61207b806101865f395ff3fe6080604052600436106100f2575f3560e01c80635bb4780811610089578063d23254b411610058578063d23254b41461030e578063d369506c1461034a578063dca5f6b014610374578063e21875e2146103b2576100f2565b80635bb47808146102445780638e230e6f1461026c578063afa9c5b0146102a8578063c9bc0c11146102e4576100f2565b80633a4b66f1116100c55780633a4b66f11461019a57806343859632146101a45780634b54a379146101e05780634fc8a20d14610208576100f2565b806302d947ef146100f65780632249c5621461011e5780632def66201461015a578063375b3c0a14610170575b5f5ffd5b348015610101575f5ffd5b5061011c600480360381019061011791906116ae565b6103dc565b005b348015610129575f5ffd5b50610144600480360381019061013f91906116ec565b610ac1565b6040516101519190611739565b60405180910390f35b348015610165575f5ffd5b5061016e610b09565b005b34801561017b575f5ffd5b50610184610c5a565b6040516101919190611761565b60405180910390f35b6101a2610c60565b005b3480156101af575f5ffd5b506101ca60048036038101906101c591906116ae565b610ec1565b6040516101d79190611794565b60405180910390f35b3480156101eb575f5ffd5b50610206600480360381019061020191906117ad565b610eeb565b005b348015610213575f5ffd5b5061022e600480360381019061022991906117ad565b611324565b60405161023b9190611761565b60405180910390f35b34801561024f575f5ffd5b5061026a600480360381019061026591906117d8565b611339565b005b348015610277575f5ffd5b50610292600480360381019061028d91906117ad565b611455565b60405161029f9190611739565b60405180910390f35b3480156102b3575f5ffd5b506102ce60048036038101906102c991906116ae565b611490565b6040516102db9190611761565b60405180910390f35b3480156102ef575f5ffd5b506102f86114b0565b6040516103059190611739565b60405180910390f35b348015610319575f5ffd5b50610334600480360381019061032f91906116ae565b6114d5565b6040516103419190611739565b60405180910390f35b348015610355575f5ffd5b5061035e611512565b60405161036b9190611761565b60405180910390f35b34801561037f575f5ffd5b5061039a600480360381019061039591906117d8565b611518565b6040516103a993929190611803565b60405180910390f35b3480156103bd575f5ffd5b506103c6611568565b6040516103d39190611794565b60405180910390f35b5f5f3373ffffffffffffffffffffffffffffffffffffffff1673ffffffffffffffffffffffffffffffffffffffff1681526020019081526020015f206002015f9054906101000a900460ff16610467576040517f08c379a000000000000000000000000000000000000000000000000000000000815260040161045e90611892565b60405180910390fd5b5f5f90505f5f90505b60055f8581526020019081526020015f208054905081101561051f573373ffffffffffffffffffffffffffffffffffffffff1660055f8681526020019081526020015f2082815481106104c6576104c56118b0565b5b905f5260205f20015f9054906101000a900473ffffffffffffffffffffffffffffffffffffffff1673ffffffffffffffffffffffffffffffffffffffff1603610512576001915061051f565b8080600101915050610470565b5080610560576040517f08c379a000000000000000000000000000000000000000000000000000000000815260040161055790611927565b60405180910390fd5b60065f8481526020019081526020015f205f3373ffffffffffffffffffffffffffffffffffffffff1673ffffffffffffffffffffffffffffffffffffffff1681526020019081526020015f205f9054906101000a900460ff16156105f9576040517f08c379a00000000000000000000000000000000000000000000000000000000081526004016105f09061198f565b60405180910390fd5b600160065f8581526020019081526020015f205f3373ffffffffffffffffffffffffffffffffffffffff1673ffffffffffffffffffffffffffffffffffffffff1681526020019081526020015f205f6101000a81548160ff0219169083151502179055508160075f8581526020019081526020015f205f3373ffffffffffffffffffffffffffffffffffffffff1673ffffffffffffffffffffffffffffffffffffffff1681526020019081526020015f205f6101000a81548173ffffffffffffffffffffffffffffffffffffffff021916908373ffffffffffffffffffffffffffffffffffffffff16021790555060095f8481526020019081526020015f205f8373ffffffffffffffffffffffffffffffffffffffff1673ffffffffffffffffffffffffffffffffffffffff1681526020019081526020015f205f815480929190610743906119da565b919050555060085f8481526020019081526020015f205f815480929190610769906119da565b91905055503373ffffffffffffffffffffffffffffffffffffffff16837ff6c8f1f54b2f54fb963820203fdef5b9aefb56ae2c4dd8b6133e151791a07f36846040516107b59190611739565b60405180910390a360035460085f8581526020019081526020015f205403610abc575f8290505f5f90505f5f90505b60055f8781526020019081526020015f2080549050811015610927575f60075f8881526020019081526020015f205f60055f8a81526020019081526020015f208481548110610836576108356118b0565b5b905f5260205f20015f9054906101000a900473ffffffffffffffffffffffffffffffffffffffff1673ffffffffffffffffffffffffffffffffffffffff1673ffffffffffffffffffffffffffffffffffffffff1681526020019081526020015f205f9054906101000a900473ffffffffffffffffffffffffffffffffffffffff1690505f60095f8981526020019081526020015f205f8373ffffffffffffffffffffffffffffffffffffffff1673ffffffffffffffffffffffffffffffffffffffff1681526020019081526020015f2054905083811115610918578093508194505b505080806001019150506107e4565b505f60045f9054906101000a900473ffffffffffffffffffffffffffffffffffffffff1673ffffffffffffffffffffffffffffffffffffffff168684604051602401610974929190611a21565b6040516020818303038152906040527f0e33599d000000000000000000000000000000000000000000000000000000007bffffffffffffffffffffffffffffffffffffffffffffffffffffffff19166020820180517bffffffffffffffffffffffffffffffffffffffffffffffffffffffff83818316178352505050506040516109fe9190611a9a565b5f604051808303815f865af19150503d805f8114610a37576040519150601f19603f3d011682016040523d82523d5f602084013e610a3c565b606091505b5050905080610a80576040517f08c379a0000000000000000000000000000000000000000000000000000000008152600401610a7790611afa565b60405180910390fd5b857ff77ceb5e091d2da041bc760667f9d5fe7a756949eaf29250ad0e60ca6f4c27d984604051610ab09190611739565b60405180910390a25050505b505050565b6005602052815f5260405f208181548110610ada575f80fd5b905f5260205f20015f915091509054906101000a900473ffffffffffffffffffffffffffffffffffffffff1681565b5f5f5f3373ffffffffffffffffffffffffffffffffffffffff1673ffffffffffffffffffffffffffffffffffffffff1681526020019081526020015f209050806002015f9054906101000a900460ff16610b98576040517f08c379a0000000000000000000000000000000000000000000000000000000008152600401610b8f90611892565b60405180910390fd5b5f816001015490505f826002015f6101000a81548160ff0219169083151502179055505f82600101819055503373ffffffffffffffffffffffffffffffffffffffff166108fc8290811502906040515f60405180830381858888f19350505050158015610c07573d5f5f3e3d5ffd5b503373ffffffffffffffffffffffffffffffffffffffff167f610a1d949cc1ca7d4391b2530deda84f33b5f02dbd462643f21cd8a1b3cd573f82604051610c4e9190611761565b60405180910390a25050565b60025481565b600254341015610ca5576040517f08c379a0000000000000000000000000000000000000000000000000000000008152600401610c9c90611b62565b60405180910390fd5b5f5f3373ffffffffffffffffffffffffffffffffffffffff1673ffffffffffffffffffffffffffffffffffffffff1681526020019081526020015f206002015f9054906101000a900460ff1615610d31576040517f08c379a0000000000000000000000000000000000000000000000000000000008152600401610d2890611bca565b60405180910390fd5b60405180606001604052803373ffffffffffffffffffffffffffffffffffffffff168152602001348152602001600115158152505f5f3373ffffffffffffffffffffffffffffffffffffffff1673ffffffffffffffffffffffffffffffffffffffff1681526020019081526020015f205f820151815f015f6101000a81548173ffffffffffffffffffffffffffffffffffffffff021916908373ffffffffffffffffffffffffffffffffffffffff160217905550602082015181600101556040820151816002015f6101000a81548160ff021916908315150217905550905050600133908060018154018082558091505060019003905f5260205f20015f9091909190916101000a81548173ffffffffffffffffffffffffffffffffffffffff021916908373ffffffffffffffffffffffffffffffffffffffff1602179055503373ffffffffffffffffffffffffffffffffffffffff167fc9626d754b3720da351a26831dc4d1481cb9f2dd7ec9ba5356f710bcf4354b5934604051610eb79190611761565b60405180910390a2565b6006602052815f5260405f20602052805f5260405f205f915091509054906101000a900460ff1681565b60045f9054906101000a900473ffffffffffffffffffffffffffffffffffffffff1673ffffffffffffffffffffffffffffffffffffffff163373ffffffffffffffffffffffffffffffffffffffff1614610f7a576040517f08c379a0000000000000000000000000000000000000000000000000000000008152600401610f7190611c32565b60405180910390fd5b5f60055f8381526020019081526020015f208054905014610fd0576040517f08c379a0000000000000000000000000000000000000000000000000000000008152600401610fc790611c9a565b60405180910390fd5b600354600180549050101561101a576040517f08c379a000000000000000000000000000000000000000000000000000000000815260040161101190611d02565b60405180910390fd5b5f60035467ffffffffffffffff81111561103757611036611d20565b5b6040519080825280602002602001820160405280156110655781602001602082028036833780820191505090505b5090505f428360405160200161107c929190611d6d565b604051602081830303815290604052805190602001205f1c90505f5f90505f5f90505b600354821080156110c0575060026001805490506110bd9190611d98565b81105b1561127b575f6001808054905085846040516020016110e0929190611d6d565b604051602081830303815290604052805190602001205f1c6111029190611e06565b81548110611113576111126118b0565b5b905f5260205f20015f9054906101000a900473ffffffffffffffffffffffffffffffffffffffff1690505f5f8273ffffffffffffffffffffffffffffffffffffffff1673ffffffffffffffffffffffffffffffffffffffff1681526020019081526020015f206002015f9054906101000a900460ff1615611267575f5f90505f5f90505b84811015611202578273ffffffffffffffffffffffffffffffffffffffff168782815181106111c9576111c86118b0565b5b602002602001015173ffffffffffffffffffffffffffffffffffffffff16036111f55760019150611202565b8080600101915050611197565b5080611265578186858151811061121c5761121b6118b0565b5b602002602001019073ffffffffffffffffffffffffffffffffffffffff16908173ffffffffffffffffffffffffffffffffffffffff16815250508380611261906119da565b9450505b505b8180611272906119da565b9250505061109f565b60035482146112bf576040517f08c379a00000000000000000000000000000000000000000000000000000000081526004016112b690611e80565b60405180910390fd5b8360055f8781526020019081526020015f2090805190602001906112e492919061157b565b50847f5623bb8130ac6988ab91c966d08c23b84de074a147bb0a3677a9e322b0a5145b856040516113159190611f55565b60405180910390a25050505050565b6008602052805f5260405f205f915090505481565b600460149054906101000a900460ff1615611389576040517f08c379a000000000000000000000000000000000000000000000000000000000815260040161138090611fbf565b60405180910390fd5b5f73ffffffffffffffffffffffffffffffffffffffff168173ffffffffffffffffffffffffffffffffffffffff16036113f7576040517f08c379a00000000000000000000000000000000000000000000000000000000081526004016113ee90612027565b60405180910390fd5b8060045f6101000a81548173ffffffffffffffffffffffffffffffffffffffff021916908373ffffffffffffffffffffffffffffffffffffffff1602179055506001600460146101000a81548160ff02191690831515021790555050565b60018181548110611464575f80fd5b905f5260205f20015f915054906101000a900473ffffffffffffffffffffffffffffffffffffffff1681565b6009602052815f5260405f20602052805f5260405f205f91509150505481565b60045f9054906101000a900473ffffffffffffffffffffffffffffffffffffffff1681565b6007602052815f5260405f20602052805f5260405f205f915091509054906101000a900473ffffffffffffffffffffffffffffffffffffffff1681565b60035481565b5f602052805f5260405f205f91509050805f015f9054906101000a900473ffffffffffffffffffffffffffffffffffffffff1690806001015490806002015f9054906101000a900460ff16905083565b600460149054906101000a900460ff1681565b828054828255905f5260205f209081019282156115f1579160200282015b828111156115f0578251825f6101000a81548173ffffffffffffffffffffffffffffffffffffffff021916908373ffffffffffffffffffffffffffffffffffffffff16021790555091602001919060010190611599565b5b5090506115fe9190611602565b5090565b5b80821115611619575f815f905550600101611603565b5090565b5f5ffd5b5f819050919050565b61163381611621565b811461163d575f5ffd5b50565b5f8135905061164e8161162a565b92915050565b5f73ffffffffffffffffffffffffffffffffffffffff82169050919050565b5f61167d82611654565b9050919050565b61168d81611673565b8114611697575f5ffd5b50565b5f813590506116a881611684565b92915050565b5f5f604083850312156116c4576116c361161d565b5b5f6116d185828601611640565b92505060206116e28582860161169a565b9150509250929050565b5f5f604083850312156117025761170161161d565b5b5f61170f85828601611640565b925050602061172085828601611640565b9150509250929050565b61173381611673565b82525050565b5f60208201905061174c5f83018461172a565b92915050565b61175b81611621565b82525050565b5f6020820190506117745f830184611752565b92915050565b5f8115159050919050565b61178e8161177a565b82525050565b5f6020820190506117a75f830184611785565b92915050565b5f602082840312156117c2576117c161161d565b5b5f6117cf84828501611640565b91505092915050565b5f602082840312156117ed576117ec61161d565b5b5f6117fa8482850161169a565b91505092915050565b5f6060820190506118165f83018661172a565b6118236020830185611752565b6118306040830184611785565b949350505050565b5f82825260208201905092915050565b7f4e6f742061206a75726f720000000000000000000000000000000000000000005f82015250565b5f61187c600b83611838565b915061188782611848565b602082019050919050565b5f6020820190508181035f8301526118a981611870565b9050919050565b7f4e487b71000000000000000000000000000000000000000000000000000000005f52603260045260245ffd5b7f4e6f742073656c6563746564206a75726f7200000000000000000000000000005f82015250565b5f611911601283611838565b915061191c826118dd565b602082019050919050565b5f6020820190508181035f83015261193e81611905565b9050919050565b7f416c726561647920766f746564000000000000000000000000000000000000005f82015250565b5f611979600d83611838565b915061198482611945565b602082019050919050565b5f6020820190508181035f8301526119a68161196d565b9050919050565b7f4e487b71000000000000000000000000000000000000000000000000000000005f52601160045260245ffd5b5f6119e482611621565b91507fffffffffffffffffffffffffffffffffffffffffffffffffffffffffffffffff8203611a1657611a156119ad565b5b600182019050919050565b5f604082019050611a345f830185611752565b611a41602083018461172a565b9392505050565b5f81519050919050565b5f81905092915050565b8281835e5f83830152505050565b5f611a7482611a48565b611a7e8185611a52565b9350611a8e818560208601611a5c565b80840191505092915050565b5f611aa58284611a6a565b915081905092915050565b7f5265736f6c7665206661696c65640000000000000000000000000000000000005f82015250565b5f611ae4600e83611838565b9150611aef82611ab0565b602082019050919050565b5f6020820190508181035f830152611b1181611ad8565b9050919050565b7f496e73756666696369656e74207374616b6500000000000000000000000000005f82015250565b5f611b4c601283611838565b9150611b5782611b18565b602082019050919050565b5f6020820190508181035f830152611b7981611b40565b9050919050565b7f416c7265616479206a75726f72000000000000000000000000000000000000005f82015250565b5f611bb4600d83611838565b9150611bbf82611b80565b602082019050919050565b5f6020820190508181035f830152611be181611ba8565b9050919050565b7f4f6e6c79205461736b466163746f7279000000000000000000000000000000005f82015250565b5f611c1c601083611838565b9150611c2782611be8565b602082019050919050565b5f6020820190508181035f830152611c4981611c10565b9050919050565b7f4469737075746520616c726561647920737461727465640000000000000000005f82015250565b5f611c84601783611838565b9150611c8f82611c50565b602082019050919050565b5f6020820190508181035f830152611cb181611c78565b9050919050565b7f4e6f7420656e6f756768206a75726f72730000000000000000000000000000005f82015250565b5f611cec601183611838565b9150611cf782611cb8565b602082019050919050565b5f6020820190508181035f830152611d1981611ce0565b9050919050565b7f4e487b71000000000000000000000000000000000000000000000000000000005f52604160045260245ffd5b5f819050919050565b611d67611d6282611621565b611d4d565b82525050565b5f611d788285611d56565b602082019150611d888284611d56565b6020820191508190509392505050565b5f611da282611621565b9150611dad83611621565b9250828202611dbb81611621565b91508282048414831517611dd257611dd16119ad565b5b5092915050565b7f4e487b71000000000000000000000000000000000000000000000000000000005f52601260045260245ffd5b5f611e1082611621565b9150611e1b83611621565b925082611e2b57611e2a611dd9565b5b828206905092915050565b7f4e6f7420656e6f75676820756e69717565206a75726f727300000000000000005f82015250565b5f611e6a601883611838565b9150611e7582611e36565b602082019050919050565b5f6020820190508181035f830152611e9781611e5e565b9050919050565b5f81519050919050565b5f82825260208201905092915050565b5f819050602082019050919050565b611ed081611673565b82525050565b5f611ee18383611ec7565b60208301905092915050565b5f602082019050919050565b5f611f0382611e9e565b611f0d8185611ea8565b9350611f1883611eb8565b805f5b83811015611f48578151611f2f8882611ed6565b9750611f3a83611eed565b925050600181019050611f1b565b5085935050505092915050565b5f6020820190508181035f830152611f6d8184611ef9565b905092915050565b7f466163746f727920616c726561647920736574000000000000000000000000005f82015250565b5f611fa9601383611838565b9150611fb482611f75565b602082019050919050565b5f6020820190508181035f830152611fd681611f9d565b9050919050565b7f496e76616c6964206164647265737300000000000000000000000000000000005f82015250565b5f612011600f83611838565b915061201c82611fdd565b602082019050919050565b5f6020820190508181035f83015261203e81612005565b905091905056fea26469706673582212201d7e24dcaf932b118d54a7c6fe94869bd60b52852d06e502eff78c24efcb489664736f6c634300081e0033",
					"opcodes": "PUSH1 0x80 PUSH1 0x40 MSTORE PUSH8 0x16345785D8A0000 PUSH1 0x2 SSTORE PUSH1 0x3 DUP1 SSTORE PUSH0 PUSH1 0x4 PUSH1 0x14 PUSH2 0x100 EXP DUP2 SLOAD DUP2 PUSH1 0xFF MUL NOT AND SWAP1 DUP4 ISZERO ISZERO MUL OR SWAP1 SSTORE POP CALLVALUE DUP1 ISZERO PUSH2 0x39 JUMPI PUSH0 PUSH0 REVERT JUMPDEST POP PUSH1 0x40 MLOAD PUSH2 0x2201 CODESIZE SUB DUP1 PUSH2 0x2201 DUP4 CODECOPY DUP2 DUP2 ADD PUSH1 0x40 MSTORE DUP2 ADD SWAP1 PUSH2 0x5B SWAP2 SWAP1 PUSH2 0x14E JUMP JUMPDEST DUP1 PUSH1 0x4 PUSH0 PUSH2 0x100 EXP DUP2 SLOAD DUP2 PUSH20 0xFFFFFFFFFFFFFFFFFFFFFFFFFFFFFFFFFFFFFFFF MUL NOT AND SWAP1 DUP4 PUSH20 0xFFFFFFFFFFFFFFFFFFFFFFFFFFFFFFFFFFFFFFFF AND MUL OR SWAP1 SSTORE POP PUSH0 PUSH20 0xFFFFFFFFFFFFFFFFFFFFFFFFFFFFFFFFFFFFFFFF AND DUP2 PUSH20 0xFFFFFFFFFFFFFFFFFFFFFFFFFFFFFFFFFFFFFFFF AND EQ PUSH2 0xEA JUMPI PUSH1 0x1 PUSH1 0x4 PUSH1 0x14 PUSH2 0x100 EXP DUP2 SLOAD DUP2 PUSH1 0xFF MUL NOT AND SWAP1 DUP4 ISZERO ISZERO MUL OR SWAP1 SSTORE POP JUMPDEST POP PUSH2 0x179 JUMP JUMPDEST PUSH0 PUSH0 REVERT JUMPDEST PUSH0 PUSH20 0xFFFFFFFFFFFFFFFFFFFFFFFFFFFFFFFFFFFFFFFF DUP3 AND SWAP1 POP SWAP2 SWAP1 POP JUMP JUMPDEST PUSH0 PUSH2 0x11D DUP3 PUSH2 0xF4 JUMP JUMPDEST SWAP1 POP SWAP2 SWAP1 POP JUMP JUMPDEST PUSH2 0x12D DUP2 PUSH2 0x113 JUMP JUMPDEST DUP2 EQ PUSH2 0x137 JUMPI PUSH0 PUSH0 REVERT JUMPDEST POP JUMP JUMPDEST PUSH0 DUP2 MLOAD SWAP1 POP PUSH2 0x148 DUP2 PUSH2 0x124 JUMP JUMPDEST SWAP3 SWAP2 POP POP JUMP JUMPDEST PUSH0 PUSH1 0x20 DUP3 DUP5 SUB SLT ISZERO PUSH2 0x163 JUMPI PUSH2 0x162 PUSH2 0xF0 JUMP JUMPDEST JUMPDEST PUSH0 PUSH2 0x170 DUP5 DUP3 DUP6 ADD PUSH2 0x13A JUMP JUMPDEST SWAP2 POP POP SWAP3 SWAP2 POP POP JUMP JUMPDEST PUSH2 0x207B DUP1 PUSH2 0x186 PUSH0 CODECOPY PUSH0 RETURN INVALID PUSH1 0x80 PUSH1 0x40 MSTORE PUSH1 0x4 CALLDATASIZE LT PUSH2 0xF2 JUMPI PUSH0 CALLDATALOAD PUSH1 0xE0 SHR DUP1 PUSH4 0x5BB47808 GT PUSH2 0x89 JUMPI DUP1 PUSH4 0xD23254B4 GT PUSH2 0x58 JUMPI DUP1 PUSH4 0xD23254B4 EQ PUSH2 0x30E JUMPI DUP1 PUSH4 0xD369506C EQ PUSH2 0x34A JUMPI DUP1 PUSH4 0xDCA5F6B0 EQ PUSH2 0x374 JUMPI DUP1 PUSH4 0xE21875E2 EQ PUSH2 0x3B2 JUMPI PUSH2 0xF2 JUMP JUMPDEST DUP1 PUSH4 0x5BB47808 EQ PUSH2 0x244 JUMPI DUP1 PUSH4 0x8E230E6F EQ PUSH2 0x26C JUMPI DUP1 PUSH4 0xAFA9C5B0 EQ PUSH2 0x2A8 JUMPI DUP1 PUSH4 0xC9BC0C11 EQ PUSH2 0x2E4 JUMPI PUSH2 0xF2 JUMP JUMPDEST DUP1 PUSH4 0x3A4B66F1 GT PUSH2 0xC5 JUMPI DUP1 PUSH4 0x3A4B66F1 EQ PUSH2 0x19A JUMPI DUP1 PUSH4 0x43859632 EQ PUSH2 0x1A4 JUMPI DUP1 PUSH4 0x4B54A379 EQ PUSH2 0x1E0 JUMPI DUP1 PUSH4 0x4FC8A20D EQ PUSH2 0x208 JUMPI PUSH2 0xF2 JUMP JUMPDEST DUP1 PUSH4 0x2D947EF EQ PUSH2 0xF6 JUMPI DUP1 PUSH4 0x2249C562 EQ PUSH2 0x11E JUMPI DUP1 PUSH4 0x2DEF6620 EQ PUSH2 0x15A JUMPI DUP1 PUSH4 0x375B3C0A EQ PUSH2 0x170 JUMPI JUMPDEST PUSH0 PUSH0 REVERT JUMPDEST CALLVALUE DUP1 ISZERO PUSH2 0x101 JUMPI PUSH0 PUSH0 REVERT JUMPDEST POP PUSH2 0x11C PUSH1 0x4 DUP1 CALLDATASIZE SUB DUP2 ADD SWAP1 PUSH2 0x117 SWAP2 SWAP1 PUSH2 0x16AE JUMP JUMPDEST PUSH2 0x3DC JUMP JUMPDEST STOP JUMPDEST CALLVALUE DUP1 ISZERO PUSH2 0x129 JUMPI PUSH0 PUSH0 REVERT JUMPDEST POP PUSH2 0x144 PUSH1 0x4 DUP1 CALLDATASIZE SUB DUP2 ADD SWAP1 PUSH2 0x13F SWAP2 SWAP1 PUSH2 0x16EC JUMP JUMPDEST PUSH2 0xAC1 JUMP JUMPDEST PUSH1 0x40 MLOAD PUSH2 0x151 SWAP2 SWAP1 PUSH2 0x1739 JUMP JUMPDEST PUSH1 0x40 MLOAD DUP1 SWAP2 SUB SWAP1 RETURN JUMPDEST CALLVALUE DUP1 ISZERO PUSH2 0x165 JUMPI PUSH0 PUSH0 REVERT JUMPDEST POP PUSH2 0x16E PUSH2 0xB09 JUMP JUMPDEST STOP JUMPDEST CALLVALUE DUP1 ISZERO PUSH2 0x17B JUMPI PUSH0 PUSH0 REVERT JUMPDEST POP PUSH2 0x184 PUSH2 0xC5A JUMP JUMPDEST PUSH1 0x40 MLOAD PUSH2 0x191 SWAP2 SWAP1 PUSH2 0x1761 JUMP JUMPDEST PUSH1 0x40 MLOAD DUP1 SWAP2 SUB SWAP1 RETURN JUMPDEST PUSH2 0x1A2 PUSH2 0xC60 JUMP JUMPDEST STOP JUMPDEST CALLVALUE DUP1 ISZERO PUSH2 0x1AF JUMPI PUSH0 PUSH0 REVERT JUMPDEST POP PUSH2 0x1CA PUSH1 0x4 DUP1 CALLDATASIZE SUB DUP2 ADD SWAP1 PUSH2 0x1C5 SWAP2 SWAP1 PUSH2 0x16AE JUMP JUMPDEST PUSH2 0xEC1 JUMP JUMPDEST PUSH1 0x40 MLOAD PUSH2 0x1D7 SWAP2 SWAP1 PUSH2 0x1794 JUMP JUMPDEST PUSH1 0x40 MLOAD DUP1 SWAP2 SUB SWAP1 RETURN JUMPDEST CALLVALUE DUP1 ISZERO PUSH2 0x1EB JUMPI PUSH0 PUSH0 REVERT JUMPDEST POP PUSH2 0x206 PUSH1 0x4 DUP1 CALLDATASIZE SUB DUP2 ADD SWAP1 PUSH2 0x201 SWAP2 SWAP1 PUSH2 0x17AD JUMP JUMPDEST PUSH2 0xEEB JUMP JUMPDEST STOP JUMPDEST CALLVALUE DUP1 ISZERO PUSH2 0x213 JUMPI PUSH0 PUSH0 REVERT JUMPDEST POP PUSH2 0x22E PUSH1 0x4 DUP1 CALLDATASIZE SUB DUP2 ADD SWAP1 PUSH2 0x229 SWAP2 SWAP1 PUSH2 0x17AD JUMP JUMPDEST PUSH2 0x1324 JUMP JUMPDEST PUSH1 0x40 MLOAD PUSH2 0x23B SWAP2 SWAP1 PUSH2 0x1761 JUMP JUMPDEST PUSH1 0x40 MLOAD DUP1 SWAP2 SUB SWAP1 RETURN JUMPDEST CALLVALUE DUP1 ISZERO PUSH2 0x24F JUMPI PUSH0 PUSH0 REVERT JUMPDEST POP PUSH2 0x26A PUSH1 0x4 DUP1 CALLDATASIZE SUB DUP2 ADD SWAP1 PUSH2 0x265 SWAP2 SWAP1 PUSH2 0x17D8 JUMP JUMPDEST PUSH2 0x1339 JUMP JUMPDEST STOP JUMPDEST CALLVALUE DUP1 ISZERO PUSH2 0x277 JUMPI PUSH0 PUSH0 REVERT JUMPDEST POP PUSH2 0x292 PUSH1 0x4 DUP1 CALLDATASIZE SUB DUP2 ADD SWAP1 PUSH2 0x28D SWAP2 SWAP1 PUSH2 0x17AD JUMP JUMPDEST PUSH2 0x1455 JUMP JUMPDEST PUSH1 0x40 MLOAD PUSH2 0x29F SWAP2 SWAP1 PUSH2 0x1739 JUMP JUMPDEST PUSH1 0x40 MLOAD DUP1 SWAP2 SUB SWAP1 RETURN JUMPDEST CALLVALUE DUP1 ISZERO PUSH2 0x2B3 JUMPI PUSH0 PUSH0 REVERT JUMPDEST POP PUSH2 0x2CE PUSH1 0x4 DUP1 CALLDATASIZE SUB DUP2 ADD SWAP1 PUSH2 0x2C9 SWAP2 SWAP1 PUSH2 0x16AE JUMP JUMPDEST PUSH2 0x1490 JUMP JUMPDEST PUSH1 0x40 MLOAD PUSH2 0x2DB SWAP2 SWAP1 PUSH2 0x1761 JUMP JUMPDEST PUSH1 0x40 MLOAD DUP1 SWAP2 SUB SWAP1 RETURN JUMPDEST CALLVALUE DUP1 ISZERO PUSH2 0x2EF JUMPI PUSH0 PUSH0 REVERT JUMPDEST POP PUSH2 0x2F8 PUSH2 0x14B0 JUMP JUMPDEST PUSH1 0x40 MLOAD PUSH2 0x305 SWAP2 SWAP1 PUSH2 0x1739 JUMP JUMPDEST PUSH1 0x40 MLOAD DUP1 SWAP2 SUB SWAP1 RETURN JUMPDEST CALLVALUE DUP1 ISZERO PUSH2 0x319 JUMPI PUSH0 PUSH0 REVERT JUMPDEST POP PUSH2 0x334 PUSH1 0x4 DUP1 CALLDATASIZE SUB DUP2 ADD SWAP1 PUSH2 0x32F SWAP2 SWAP1 PUSH2 0x16AE JUMP JUMPDEST PUSH2 0x14D5 JUMP JUMPDEST PUSH1 0x40 MLOAD PUSH2 0x341 SWAP2 SWAP1 PUSH2 0x1739 JUMP JUMPDEST PUSH1 0x40 MLOAD DUP1 SWAP2 SUB SWAP1 RETURN JUMPDEST CALLVALUE DUP1 ISZERO PUSH2 0x355 JUMPI PUSH0 PUSH0 REVERT JUMPDEST POP PUSH2 0x35E PUSH2 0x1512 JUMP JUMPDEST PUSH1 0x40 MLOAD PUSH2 0x36B SWAP2 SWAP1 PUSH2 0x1761 JUMP JUMPDEST PUSH1 0x40 MLOAD DUP1 SWAP2 SUB SWAP1 RETURN JUMPDEST CALLVALUE DUP1 ISZERO PUSH2 0x37F JUMPI PUSH0 PUSH0 REVERT JUMPDEST POP PUSH2 0x39A PUSH1 0x4 DUP1 CALLDATASIZE SUB DUP2 ADD SWAP1 PUSH2 0x395 SWAP2 SWAP1 PUSH2 0x17D8 JUMP JUMPDEST PUSH2 0x1518 JUMP JUMPDEST PUSH1 0x40 MLOAD PUSH2 0x3A9 SWAP4 SWAP3 SWAP2 SWAP1 PUSH2 0x1803 JUMP JUMPDEST PUSH1 0x40 MLOAD DUP1 SWAP2 SUB SWAP1 RETURN JUMPDEST CALLVALUE DUP1 ISZERO PUSH2 0x3BD JUMPI PUSH0 PUSH0 REVERT JUMPDEST POP PUSH2 0x3C6 PUSH2 0x1568 JUMP JUMPDEST PUSH1 0x40 MLOAD PUSH2 0x3D3 SWAP2 SWAP1 PUSH2 0x1794 JUMP JUMPDEST PUSH1 0x40 MLOAD DUP1 SWAP2 SUB SWAP1 RETURN JUMPDEST PUSH0 PUSH0 CALLER PUSH20 0xFFFFFFFFFFFFFFFFFFFFFFFFFFFFFFFFFFFFFFFF AND PUSH20 0xFFFFFFFFFFFFFFFFFFFFFFFFFFFFFFFFFFFFFFFF AND DUP2 MSTORE PUSH1 0x20 ADD SWAP1 DUP2 MSTORE PUSH1 0x20 ADD PUSH0 KECCAK256 PUSH1 0x2 ADD PUSH0 SWAP1 SLOAD SWAP1 PUSH2 0x100 EXP SWAP1 DIV PUSH1 0xFF AND PUSH2 0x467 JUMPI PUSH1 0x40 MLOAD PUSH32 0x8C379A000000000000000000000000000000000000000000000000000000000 DUP2 MSTORE PUSH1 0x4 ADD PUSH2 0x45E SWAP1 PUSH2 0x1892 JUMP JUMPDEST PUSH1 0x40 MLOAD DUP1 SWAP2 SUB SWAP1 REVERT JUMPDEST PUSH0 PUSH0 SWAP1 POP PUSH0 PUSH0 SWAP1 POP JUMPDEST PUSH1 0x5 PUSH0 DUP6 DUP2 MSTORE PUSH1 0x20 ADD SWAP1 DUP2 MSTORE PUSH1 0x20 ADD PUSH0 KECCAK256 DUP1 SLOAD SWAP1 POP DUP2 LT ISZERO PUSH2 0x51F JUMPI CALLER PUSH20 0xFFFFFFFFFFFFFFFFFFFFFFFFFFFFFFFFFFFFFFFF AND PUSH1 0x5 PUSH0 DUP7 DUP2 MSTORE PUSH1 0x20 ADD SWAP1 DUP2 MSTORE PUSH1 0x20 ADD PUSH0 KECCAK256 DUP3 DUP2 SLOAD DUP2 LT PUSH2 0x4C6 JUMPI PUSH2 0x4C5 PUSH2 0x18B0 JUMP JUMPDEST JUMPDEST SWAP1 PUSH0 MSTORE PUSH1 0x20 PUSH0 KECCAK256 ADD PUSH0 SWAP1 SLOAD SWAP1 PUSH2 0x100 EXP SWAP1 DIV PUSH20 0xFFFFFFFFFFFFFFFFFFFFFFFFFFFFFFFFFFFFFFFF AND PUSH20 0xFFFFFFFFFFFFFFFFFFFFFFFFFFFFFFFFFFFFFFFF AND SUB PUSH2 0x512 JUMPI PUSH1 0x1 SWAP2 POP PUSH2 0x51F JUMP JUMPDEST DUP1 DUP1 PUSH1 0x1 ADD SWAP2 POP POP PUSH2 0x470 JUMP JUMPDEST POP DUP1 PUSH2 0x560 JUMPI PUSH1 0x40 MLOAD PUSH32 0x8C379A000000000000000000000000000000000000000000000000000000000 DUP2 MSTORE PUSH1 0x4 ADD PUSH2 0x557 SWAP1 PUSH2 0x1927 JUMP JUMPDEST PUSH1 0x40 MLOAD DUP1 SWAP2 SUB SWAP1 REVERT JUMPDEST PUSH1 0x6 PUSH0 DUP5 DUP2 MSTORE PUSH1 0x20 ADD SWAP1 DUP2 MSTORE PUSH1 0x20 ADD PUSH0 KECCAK256 PUSH0 CALLER PUSH20 0xFFFFFFFFFFFFFFFFFFFFFFFFFFFFFFFFFFFFFFFF AND PUSH20 0xFFFFFFFFFFFFFFFFFFFFFFFFFFFFFFFFFFFFFFFF AND DUP2 MSTORE PUSH1 0x20 ADD SWAP1 DUP2 MSTORE PUSH1 0x20 ADD PUSH0 KECCAK256 PUSH0 SWAP1 SLOAD SWAP1 PUSH2 0x100 EXP SWAP1 DIV PUSH1 0xFF AND ISZERO PUSH2 0x5F9 JUMPI PUSH1 0x40 MLOAD PUSH32 0x8C379A000000000000000000000000000000000000000000000000000000000 DUP2 MSTORE PUSH1 0x4 ADD PUSH2 0x5F0 SWAP1 PUSH2 0x198F JUMP JUMPDEST PUSH1 0x40 MLOAD DUP1 SWAP2 SUB SWAP1 REVERT JUMPDEST PUSH1 0x1 PUSH1 0x6 PUSH0 DUP6 DUP2 MSTORE PUSH1 0x20 ADD SWAP1 DUP2 MSTORE PUSH1 0x20 ADD PUSH0 KECCAK256 PUSH0 CALLER PUSH20 0xFFFFFFFFFFFFFFFFFFFFFFFFFFFFFFFFFFFFFFFF AND PUSH20 0xFFFFFFFFFFFFFFFFFFFFFFFFFFFFFFFFFFFFFFFF AND DUP2 MSTORE PUSH1 0x20 ADD SWAP1 DUP2 MSTORE PUSH1 0x20 ADD PUSH0 KECCAK256 PUSH0 PUSH2 0x100 EXP DUP2 SLOAD DUP2 PUSH1 0xFF MUL NOT AND SWAP1 DUP4 ISZERO ISZERO MUL OR SWAP1 SSTORE POP DUP2 PUSH1 0x7 PUSH0 DUP6 DUP2 MSTORE PUSH1 0x20 ADD SWAP1 DUP2 MSTORE PUSH1 0x20 ADD PUSH0 KECCAK256 PUSH0 CALLER PUSH20 0xFFFFFFFFFFFFFFFFFFFFFFFFFFFFFFFFFFFFFFFF AND PUSH20 0xFFFFFFFFFFFFFFFFFFFFFFFFFFFFFFFFFFFFFFFF AND DUP2 MSTORE PUSH1 0x20 ADD SWAP1 DUP2 MSTORE PUSH1 0x20 ADD PUSH0 KECCAK256 PUSH0 PUSH2 0x100 EXP DUP2 SLOAD DUP2 PUSH20 0xFFFFFFFFFFFFFFFFFFFFFFFFFFFFFFFFFFFFFFFF MUL NOT AND SWAP1 DUP4 PUSH20 0xFFFFFFFFFFFFFFFFFFFFFFFFFFFFFFFFFFFFFFFF AND MUL OR SWAP1 SSTORE POP PUSH1 0x9 PUSH0 DUP5 DUP2 MSTORE PUSH1 0x20 ADD SWAP1 DUP2 MSTORE PUSH1 0x20 ADD PUSH0 KECCAK256 PUSH0 DUP4 PUSH20 0xFFFFFFFFFFFFFFFFFFFFFFFFFFFFFFFFFFFFFFFF AND PUSH20 0xFFFFFFFFFFFFFFFFFFFFFFFFFFFFFFFFFFFFFFFF AND DUP2 MSTORE PUSH1 0x20 ADD SWAP1 DUP2 MSTORE PUSH1 0x20 ADD PUSH0 KECCAK256 PUSH0 DUP2 SLOAD DUP1 SWAP3 SWAP2 SWAP1 PUSH2 0x743 SWAP1 PUSH2 0x19DA JUMP JUMPDEST SWAP2 SWAP1 POP SSTORE POP PUSH1 0x8 PUSH0 DUP5 DUP2 MSTORE PUSH1 0x20 ADD SWAP1 DUP2 MSTORE PUSH1 0x20 ADD PUSH0 KECCAK256 PUSH0 DUP2 SLOAD DUP1 SWAP3 SWAP2 SWAP1 PUSH2 0x769 SWAP1 PUSH2 0x19DA JUMP JUMPDEST SWAP2 SWAP1 POP SSTORE POP CALLER PUSH20 0xFFFFFFFFFFFFFFFFFFFFFFFFFFFFFFFFFFFFFFFF AND DUP4 PUSH32 0xF6C8F1F54B2F54FB963820203FDEF5B9AEFB56AE2C4DD8B6133E151791A07F36 DUP5 PUSH1 0x40 MLOAD PUSH2 0x7B5 SWAP2 SWAP1 PUSH2 0x1739 JUMP JUMPDEST PUSH1 0x40 MLOAD DUP1 SWAP2 SUB SWAP1 LOG3 PUSH1 0x3 SLOAD PUSH1 0x8 PUSH0 DUP6 DUP2 MSTORE PUSH1 0x20 ADD SWAP1 DUP2 MSTORE PUSH1 0x20 ADD PUSH0 KECCAK256 SLOAD SUB PUSH2 0xABC JUMPI PUSH0 DUP3 SWAP1 POP PUSH0 PUSH0 SWAP1 POP PUSH0 PUSH0 SWAP1 POP JUMPDEST PUSH1 0x5 PUSH0 DUP8 DUP2 MSTORE PUSH1 0x20 ADD SWAP1 DUP2 MSTORE PUSH1 0x20 ADD PUSH0 KECCAK256 DUP1 SLOAD SWAP1 POP DUP2 LT ISZERO PUSH2 0x927 JUMPI PUSH0 PUSH1 0x7 PUSH0 DUP9 DUP2 MSTORE PUSH1 0x20 ADD SWAP1 DUP2 MSTORE PUSH1 0x20 ADD PUSH0 KECCAK256 PUSH0 PUSH1 0x5 PUSH0 DUP11 DUP2 MSTORE PUSH1 0x20 ADD SWAP1 DUP2 MSTORE PUSH1 0x20 ADD PUSH0 KECCAK256 DUP5 DUP2 SLOAD DUP2 LT PUSH2 0x836 JUMPI PUSH2 0x835 PUSH2 0x18B0 JUMP JUMPDEST JUMPDEST SWAP1 PUSH0 MSTORE PUSH1 0x20 PUSH0 KECCAK256 ADD PUSH0 SWAP1 SLOAD SWAP1 PUSH2 0x100 EXP SWAP1 DIV PUSH20 0xFFFFFFFFFFFFFFFFFFFFFFFFFFFFFFFFFFFFFFFF AND PUSH20 0xFFFFFFFFFFFFFFFFFFFFFFFFFFFFFFFFFFFFFFFF AND PUSH20 0xFFFFFFFFFFFFFFFFFFFFFFFFFFFFFFFFFFFFFFFF AND DUP2 MSTORE PUSH1 0x20 ADD SWAP1 DUP2 MSTORE PUSH1 0x20 ADD PUSH0 KECCAK256 PUSH0 SWAP1 SLOAD SWAP1 PUSH2 0x100 EXP SWAP1 DIV PUSH20 0xFFFFFFFFFFFFFFFFFFFFFFFFFFFFFFFFFFFFFFFF AND SWAP1 POP PUSH0 PUSH1 0x9 PUSH0 DUP10 DUP2 MSTORE PUSH1 0x20 ADD SWAP1 DUP2 MSTORE PUSH1 0x20 ADD PUSH0 KECCAK256 PUSH0 DUP4 PUSH20 0xFFFFFFFFFFFFFFFFFFFFFFFFFFFFFFFFFFFFFFFF AND PUSH20 0xFFFFFFFFFFFFFFFFFFFFFFFFFFFFFFFFFFFFFFFF AND DUP2 MSTORE PUSH1 0x20 ADD SWAP1 DUP2 MSTORE PUSH1 0x20 ADD PUSH0 KECCAK256 SLOAD SWAP1 POP DUP4 DUP2 GT ISZERO PUSH2 0x918 JUMPI DUP1 SWAP4 POP DUP2 SWAP5 POP JUMPDEST POP POP DUP1 DUP1 PUSH1 0x1 ADD SWAP2 POP POP PUSH2 0x7E4 JUMP JUMPDEST POP PUSH0 PUSH1 0x4 PUSH0 SWAP1 SLOAD SWAP1 PUSH2 0x100 EXP SWAP1 DIV PUSH20 0xFFFFFFFFFFFFFFFFFFFFFFFFFFFFFFFFFFFFFFFF AND PUSH20 0xFFFFFFFFFFFFFFFFFFFFFFFFFFFFFFFFFFFFFFFF AND DUP7 DUP5 PUSH1 0x40 MLOAD PUSH1 0x24 ADD PUSH2 0x974 SWAP3 SWAP2 SWAP1 PUSH2 0x1A21 JUMP JUMPDEST PUSH1 0x40 MLOAD PUSH1 0x20 DUP2 DUP4 SUB SUB DUP2 MSTORE SWAP1 PUSH1 0x40 MSTORE PUSH32 0xE33599D00000000000000000000000000000000000000000000000000000000 PUSH28 0xFFFFFFFFFFFFFFFFFFFFFFFFFFFFFFFFFFFFFFFFFFFFFFFFFFFFFFFF NOT AND PUSH1 0x20 DUP3 ADD DUP1 MLOAD PUSH28 0xFFFFFFFFFFFFFFFFFFFFFFFFFFFFFFFFFFFFFFFFFFFFFFFFFFFFFFFF DUP4 DUP2 DUP4 AND OR DUP4 MSTORE POP POP POP POP PUSH1 0x40 MLOAD PUSH2 0x9FE SWAP2 SWAP1 PUSH2 0x1A9A JUMP JUMPDEST PUSH0 PUSH1 0x40 MLOAD DUP1 DUP4 SUB DUP2 PUSH0 DUP7 GAS CALL SWAP2 POP POP RETURNDATASIZE DUP1 PUSH0 DUP2 EQ PUSH2 0xA37 JUMPI PUSH1 0x40 MLOAD SWAP2 POP PUSH1 0x1F NOT PUSH1 0x3F RETURNDATASIZE ADD AND DUP3 ADD PUSH1 0x40 MSTORE RETURNDATASIZE DUP3 MSTORE RETURNDATASIZE PUSH0 PUSH1 0x20 DUP5 ADD RETURNDATACOPY PUSH2 0xA3C JUMP JUMPDEST PUSH1 0x60 SWAP2 POP JUMPDEST POP POP SWAP1 POP DUP1 PUSH2 0xA80 JUMPI PUSH1 0x40 MLOAD PUSH32 0x8C379A000000000000000000000000000000000000000000000000000000000 DUP2 MSTORE PUSH1 0x4 ADD PUSH2 0xA77 SWAP1 PUSH2 0x1AFA JUMP JUMPDEST PUSH1 0x40 MLOAD DUP1 SWAP2 SUB SWAP1 REVERT JUMPDEST DUP6 PUSH32 0xF77CEB5E091D2DA041BC760667F9D5FE7A756949EAF29250AD0E60CA6F4C27D9 DUP5 PUSH1 0x40 MLOAD PUSH2 0xAB0 SWAP2 SWAP1 PUSH2 0x1739 JUMP JUMPDEST PUSH1 0x40 MLOAD DUP1 SWAP2 SUB SWAP1 LOG2 POP POP POP JUMPDEST POP POP POP JUMP JUMPDEST PUSH1 0x5 PUSH1 0x20 MSTORE DUP2 PUSH0 MSTORE PUSH1 0x40 PUSH0 KECCAK256 DUP2 DUP2 SLOAD DUP2 LT PUSH2 0xADA JUMPI PUSH0 DUP1 REVERT JUMPDEST SWAP1 PUSH0 MSTORE PUSH1 0x20 PUSH0 KECCAK256 ADD PUSH0 SWAP2 POP SWAP2 POP SWAP1 SLOAD SWAP1 PUSH2 0x100 EXP SWAP1 DIV PUSH20 0xFFFFFFFFFFFFFFFFFFFFFFFFFFFFFFFFFFFFFFFF AND DUP2 JUMP JUMPDEST PUSH0 PUSH0 PUSH0 CALLER PUSH20 0xFFFFFFFFFFFFFFFFFFFFFFFFFFFFFFFFFFFFFFFF AND PUSH20 0xFFFFFFFFFFFFFFFFFFFFFFFFFFFFFFFFFFFFFFFF AND DUP2 MSTORE PUSH1 0x20 ADD SWAP1 DUP2 MSTORE PUSH1 0x20 ADD PUSH0 KECCAK256 SWAP1 POP DUP1 PUSH1 0x2 ADD PUSH0 SWAP1 SLOAD SWAP1 PUSH2 0x100 EXP SWAP1 DIV PUSH1 0xFF AND PUSH2 0xB98 JUMPI PUSH1 0x40 MLOAD PUSH32 0x8C379A000000000000000000000000000000000000000000000000000000000 DUP2 MSTORE PUSH1 0x4 ADD PUSH2 0xB8F SWAP1 PUSH2 0x1892 JUMP JUMPDEST PUSH1 0x40 MLOAD DUP1 SWAP2 SUB SWAP1 REVERT JUMPDEST PUSH0 DUP2 PUSH1 0x1 ADD SLOAD SWAP1 POP PUSH0 DUP3 PUSH1 0x2 ADD PUSH0 PUSH2 0x100 EXP DUP2 SLOAD DUP2 PUSH1 0xFF MUL NOT AND SWAP1 DUP4 ISZERO ISZERO MUL OR SWAP1 SSTORE POP PUSH0 DUP3 PUSH1 0x1 ADD DUP2 SWAP1 SSTORE POP CALLER PUSH20 0xFFFFFFFFFFFFFFFFFFFFFFFFFFFFFFFFFFFFFFFF AND PUSH2 0x8FC DUP3 SWAP1 DUP2 ISZERO MUL SWAP1 PUSH1 0x40 MLOAD PUSH0 PUSH1 0x40 MLOAD DUP1 DUP4 SUB DUP2 DUP6 DUP9 DUP9 CALL SWAP4 POP POP POP POP ISZERO DUP1 ISZERO PUSH2 0xC07 JUMPI RETURNDATASIZE PUSH0 PUSH0 RETURNDATACOPY RETURNDATASIZE PUSH0 REVERT JUMPDEST POP CALLER PUSH20 0xFFFFFFFFFFFFFFFFFFFFFFFFFFFFFFFFFFFFFFFF AND PUSH32 0x610A1D949CC1CA7D4391B2530DEDA84F33B5F02DBD462643F21CD8A1B3CD573F DUP3 PUSH1 0x40 MLOAD PUSH2 0xC4E SWAP2 SWAP1 PUSH2 0x1761 JUMP JUMPDEST PUSH1 0x40 MLOAD DUP1 SWAP2 SUB SWAP1 LOG2 POP POP JUMP JUMPDEST PUSH1 0x2 SLOAD DUP2 JUMP JUMPDEST PUSH1 0x2 SLOAD CALLVALUE LT ISZERO PUSH2 0xCA5 JUMPI PUSH1 0x40 MLOAD PUSH32 0x8C379A000000000000000000000000000000000000000000000000000000000 DUP2 MSTORE PUSH1 0x4 ADD PUSH2 0xC9C SWAP1 PUSH2 0x1B62 JUMP JUMPDEST PUSH1 0x40 MLOAD DUP1 SWAP2 SUB SWAP1 REVERT JUMPDEST PUSH0 PUSH0 CALLER PUSH20 0xFFFFFFFFFFFFFFFFFFFFFFFFFFFFFFFFFFFFFFFF AND PUSH20 0xFFFFFFFFFFFFFFFFFFFFFFFFFFFFFFFFFFFFFFFF AND DUP2 MSTORE PUSH1 0x20 ADD SWAP1 DUP2 MSTORE PUSH1 0x20 ADD PUSH0 KECCAK256 PUSH1 0x2 ADD PUSH0 SWAP1 SLOAD SWAP1 PUSH2 0x100 EXP SWAP1 DIV PUSH1 0xFF AND ISZERO PUSH2 0xD31 JUMPI PUSH1 0x40 MLOAD PUSH32 0x8C379A000000000000000000000000000000000000000000000000000000000 DUP2 MSTORE PUSH1 0x4 ADD PUSH2 0xD28 SWAP1 PUSH2 0x1BCA JUMP JUMPDEST PUSH1 0x40 MLOAD DUP1 SWAP2 SUB SWAP1 REVERT JUMPDEST PUSH1 0x40 MLOAD DUP1 PUSH1 0x60 ADD PUSH1 0x40 MSTORE DUP1 CALLER PUSH20 0xFFFFFFFFFFFFFFFFFFFFFFFFFFFFFFFFFFFFFFFF AND DUP2 MSTORE PUSH1 0x20 ADD CALLVALUE DUP2 MSTORE PUSH1 0x20 ADD PUSH1 0x1 ISZERO ISZERO DUP2 MSTORE POP PUSH0 PUSH0 CALLER PUSH20 0xFFFFFFFFFFFFFFFFFFFFFFFFFFFFFFFFFFFFFFFF AND PUSH20 0xFFFFFFFFFFFFFFFFFFFFFFFFFFFFFFFFFFFFFFFF AND DUP2 MSTORE PUSH1 0x20 ADD SWAP1 DUP2 MSTORE PUSH1 0x20 ADD PUSH0 KECCAK256 PUSH0 DUP3 ADD MLOAD DUP2 PUSH0 ADD PUSH0 PUSH2 0x100 EXP DUP2 SLOAD DUP2 PUSH20 0xFFFFFFFFFFFFFFFFFFFFFFFFFFFFFFFFFFFFFFFF MUL NOT AND SWAP1 DUP4 PUSH20 0xFFFFFFFFFFFFFFFFFFFFFFFFFFFFFFFFFFFFFFFF AND MUL OR SWAP1 SSTORE POP PUSH1 0x20 DUP3 ADD MLOAD DUP2 PUSH1 0x1 ADD SSTORE PUSH1 0x40 DUP3 ADD MLOAD DUP2 PUSH1 0x2 ADD PUSH0 PUSH2 0x100 EXP DUP2 SLOAD DUP2 PUSH1 0xFF MUL NOT AND SWAP1 DUP4 ISZERO ISZERO MUL OR SWAP1 SSTORE POP SWAP1 POP POP PUSH1 0x1 CALLER SWAP1 DUP1 PUSH1 0x1 DUP2 SLOAD ADD DUP1 DUP3 SSTORE DUP1 SWAP2 POP POP PUSH1 0x1 SWAP1 SUB SWAP1 PUSH0 MSTORE PUSH1 0x20 PUSH0 KECCAK256 ADD PUSH0 SWAP1 SWAP2 SWAP1 SWAP2 SWAP1 SWAP2 PUSH2 0x100 EXP DUP2 SLOAD DUP2 PUSH20 0xFFFFFFFFFFFFFFFFFFFFFFFFFFFFFFFFFFFFFFFF MUL NOT AND SWAP1 DUP4 PUSH20 0xFFFFFFFFFFFFFFFFFFFFFFFFFFFFFFFFFFFFFFFF AND MUL OR SWAP1 SSTORE POP CALLER PUSH20 0xFFFFFFFFFFFFFFFFFFFFFFFFFFFFFFFFFFFFFFFF AND PUSH32 0xC9626D754B3720DA351A26831DC4D1481CB9F2DD7EC9BA5356F710BCF4354B59 CALLVALUE PUSH1 0x40 MLOAD PUSH2 0xEB7 SWAP2 SWAP1 PUSH2 0x1761 JUMP JUMPDEST PUSH1 0x40 MLOAD DUP1 SWAP2 SUB SWAP1 LOG2 JUMP JUMPDEST PUSH1 0x6 PUSH1 0x20 MSTORE DUP2 PUSH0 MSTORE PUSH1 0x40 PUSH0 KECCAK256 PUSH1 0x20 MSTORE DUP1 PUSH0 MSTORE PUSH1 0x40 PUSH0 KECCAK256 PUSH0 SWAP2 POP SWAP2 POP SWAP1 SLOAD SWAP1 PUSH2 0x100 EXP SWAP1 DIV PUSH1 0xFF AND DUP2 JUMP JUMPDEST PUSH1 0x4 PUSH0 SWAP1 SLOAD SWAP1 PUSH2 0x100 EXP SWAP1 DIV PUSH20 0xFFFFFFFFFFFFFFFFFFFFFFFFFFFFFFFFFFFFFFFF AND PUSH20 0xFFFFFFFFFFFFFFFFFFFFFFFFFFFFFFFFFFFFFFFF AND CALLER PUSH20 0xFFFFFFFFFFFFFFFFFFFFFFFFFFFFFFFFFFFFFFFF AND EQ PUSH2 0xF7A JUMPI PUSH1 0x40 MLOAD PUSH32 0x8C379A000000000000000000000000000000000000000000000000000000000 DUP2 MSTORE PUSH1 0x4 ADD PUSH2 0xF71 SWAP1 PUSH2 0x1C32 JUMP JUMPDEST PUSH1 0x40 MLOAD DUP1 SWAP2 SUB SWAP1 REVERT JUMPDEST PUSH0 PUSH1 0x5 PUSH0 DUP4 DUP2 MSTORE PUSH1 0x20 ADD SWAP1 DUP2 MSTORE PUSH1 0x20 ADD PUSH0 KECCAK256 DUP1 SLOAD SWAP1 POP EQ PUSH2 0xFD0 JUMPI PUSH1 0x40 MLOAD PUSH32 0x8C379A000000000000000000000000000000000000000000000000000000000 DUP2 MSTORE PUSH1 0x4 ADD PUSH2 0xFC7 SWAP1 PUSH2 0x1C9A JUMP JUMPDEST PUSH1 0x40 MLOAD DUP1 SWAP2 SUB SWAP1 REVERT JUMPDEST PUSH1 0x3 SLOAD PUSH1 0x1 DUP1 SLOAD SWAP1 POP LT ISZERO PUSH2 0x101A JUMPI PUSH1 0x40 MLOAD PUSH32 0x8C379A000000000000000000000000000000000000000000000000000000000 DUP2 MSTORE PUSH1 0x4 ADD PUSH2 0x1011 SWAP1 PUSH2 0x1D02 JUMP JUMPDEST PUSH1 0x40 MLOAD DUP1 SWAP2 SUB SWAP1 REVERT JUMPDEST PUSH0 PUSH1 0x3 SLOAD PUSH8 0xFFFFFFFFFFFFFFFF DUP2 GT ISZERO PUSH2 0x1037 JUMPI PUSH2 0x1036 PUSH2 0x1D20 JUMP JUMPDEST JUMPDEST PUSH1 0x40 MLOAD SWAP1 DUP1 DUP3 MSTORE DUP1 PUSH1 0x20 MUL PUSH1 0x20 ADD DUP3 ADD PUSH1 0x40 MSTORE DUP1 ISZERO PUSH2 0x1065 JUMPI DUP2 PUSH1 0x20 ADD PUSH1 0x20 DUP3 MUL DUP1 CALLDATASIZE DUP4 CALLDATACOPY DUP1 DUP3 ADD SWAP2 POP POP SWAP1 POP JUMPDEST POP SWAP1 POP PUSH0 TIMESTAMP DUP4 PUSH1 0x40 MLOAD PUSH1 0x20 ADD PUSH2 0x107C SWAP3 SWAP2 SWAP1 PUSH2 0x1D6D JUMP JUMPDEST PUSH1 0x40 MLOAD PUSH1 0x20 DUP2 DUP4 SUB SUB DUP2 MSTORE SWAP1 PUSH1 0x40 MSTORE DUP1 MLOAD SWAP1 PUSH1 0x20 ADD KECCAK256 PUSH0 SHR SWAP1 POP PUSH0 PUSH0 SWAP1 POP PUSH0 PUSH0 SWAP1 POP JUMPDEST PUSH1 0x3 SLOAD DUP3 LT DUP1 ISZERO PUSH2 0x10C0 JUMPI POP PUSH1 0x2 PUSH1 0x1 DUP1 SLOAD SWAP1 POP PUSH2 0x10BD SWAP2 SWAP1 PUSH2 0x1D98 JUMP JUMPDEST DUP2 LT JUMPDEST ISZERO PUSH2 0x127B JUMPI PUSH0 PUSH1 0x1 DUP1 DUP1 SLOAD SWAP1 POP DUP6 DUP5 PUSH1 0x40 MLOAD PUSH1 0x20 ADD PUSH2 0x10E0 SWAP3 SWAP2 SWAP1 PUSH2 0x1D6D JUMP JUMPDEST PUSH1 0x40 MLOAD PUSH1 0x20 DUP2 DUP4 SUB SUB DUP2 MSTORE SWAP1 PUSH1 0x40 MSTORE DUP1 MLOAD SWAP1 PUSH1 0x20 ADD KECCAK256 PUSH0 SHR PUSH2 0x1102 SWAP2 SWAP1 PUSH2 0x1E06 JUMP JUMPDEST DUP2 SLOAD DUP2 LT PUSH2 0x1113 JUMPI PUSH2 0x1112 PUSH2 0x18B0 JUMP JUMPDEST JUMPDEST SWAP1 PUSH0 MSTORE PUSH1 0x20 PUSH0 KECCAK256 ADD PUSH0 SWAP1 SLOAD SWAP1 PUSH2 0x100 EXP SWAP1 DIV PUSH20 0xFFFFFFFFFFFFFFFFFFFFFFFFFFFFFFFFFFFFFFFF AND SWAP1 POP PUSH0 PUSH0 DUP3 PUSH20 0xFFFFFFFFFFFFFFFFFFFFFFFFFFFFFFFFFFFFFFFF AND PUSH20 0xFFFFFFFFFFFFFFFFFFFFFFFFFFFFFFFFFFFFFFFF AND DUP2 MSTORE PUSH1 0x20 ADD SWAP1 DUP2 MSTORE PUSH1 0x20 ADD PUSH0 KECCAK256 PUSH1 0x2 ADD PUSH0 SWAP1 SLOAD SWAP1 PUSH2 0x100 EXP SWAP1 DIV PUSH1 0xFF AND ISZERO PUSH2 0x1267 JUMPI PUSH0 PUSH0 SWAP1 POP PUSH0 PUSH0 SWAP1 POP JUMPDEST DUP5 DUP2 LT ISZERO PUSH2 0x1202 JUMPI DUP3 PUSH20 0xFFFFFFFFFFFFFFFFFFFFFFFFFFFFFFFFFFFFFFFF AND DUP8 DUP3 DUP2 MLOAD DUP2 LT PUSH2 0x11C9 JUMPI PUSH2 0x11C8 PUSH2 0x18B0 JUMP JUMPDEST JUMPDEST PUSH1 0x20 MUL PUSH1 0x20 ADD ADD MLOAD PUSH20 0xFFFFFFFFFFFFFFFFFFFFFFFFFFFFFFFFFFFFFFFF AND SUB PUSH2 0x11F5 JUMPI PUSH1 0x1 SWAP2 POP PUSH2 0x1202 JUMP JUMPDEST DUP1 DUP1 PUSH1 0x1 ADD SWAP2 POP POP PUSH2 0x1197 JUMP JUMPDEST POP DUP1 PUSH2 0x1265 JUMPI DUP2 DUP7 DUP6 DUP2 MLOAD DUP2 LT PUSH2 0x121C JUMPI PUSH2 0x121B PUSH2 0x18B0 JUMP JUMPDEST JUMPDEST PUSH1 0x20 MUL PUSH1 0x20 ADD ADD SWAP1 PUSH20 0xFFFFFFFFFFFFFFFFFFFFFFFFFFFFFFFFFFFFFFFF AND SWAP1 DUP2 PUSH20 0xFFFFFFFFFFFFFFFFFFFFFFFFFFFFFFFFFFFFFFFF AND DUP2 MSTORE POP POP DUP4 DUP1 PUSH2 0x1261 SWAP1 PUSH2 0x19DA JUMP JUMPDEST SWAP5 POP POP JUMPDEST POP JUMPDEST DUP2 DUP1 PUSH2 0x1272 SWAP1 PUSH2 0x19DA JUMP JUMPDEST SWAP3 POP POP POP PUSH2 0x109F JUMP JUMPDEST PUSH1 0x3 SLOAD DUP3 EQ PUSH2 0x12BF JUMPI PUSH1 0x40 MLOAD PUSH32 0x8C379A000000000000000000000000000000000000000000000000000000000 DUP2 MSTORE PUSH1 0x4 ADD PUSH2 0x12B6 SWAP1 PUSH2 0x1E80 JUMP JUMPDEST PUSH1 0x40 MLOAD DUP1 SWAP2 SUB SWAP1 REVERT JUMPDEST DUP4 PUSH1 0x5 PUSH0 DUP8 DUP2 MSTORE PUSH1 0x20 ADD SWAP1 DUP2 MSTORE PUSH1 0x20 ADD PUSH0 KECCAK256 SWAP1 DUP1 MLOAD SWAP1 PUSH1 0x20 ADD SWAP1 PUSH2 0x12E4 SWAP3 SWAP2 SWAP1 PUSH2 0x157B JUMP JUMPDEST POP DUP5 PUSH32 0x5623BB8130AC6988AB91C966D08C23B84DE074A147BB0A3677A9E322B0A5145B DUP6 PUSH1 0x40 MLOAD PUSH2 0x1315 SWAP2 SWAP1 PUSH2 0x1F55 JUMP JUMPDEST PUSH1 0x40 MLOAD DUP1 SWAP2 SUB SWAP1 LOG2 POP POP POP POP POP JUMP JUMPDEST PUSH1 0x8 PUSH1 0x20 MSTORE DUP1 PUSH0 MSTORE PUSH1 0x40 PUSH0 KECCAK256 PUSH0 SWAP2 POP SWAP1 POP SLOAD DUP2 JUMP JUMPDEST PUSH1 0x4 PUSH1 0x14 SWAP1 SLOAD SWAP1 PUSH2 0x100 EXP SWAP1 DIV PUSH1 0xFF AND ISZERO PUSH2 0x1389 JUMPI PUSH1 0x40 MLOAD PUSH32 0x8C379A000000000000000000000000000000000000000000000000000000000 DUP2 MSTORE PUSH1 0x4 ADD PUSH2 0x1380 SWAP1 PUSH2 0x1FBF JUMP JUMPDEST PUSH1 0x40 MLOAD DUP1 SWAP2 SUB SWAP1 REVERT JUMPDEST PUSH0 PUSH20 0xFFFFFFFFFFFFFFFFFFFFFFFFFFFFFFFFFFFFFFFF AND DUP2 PUSH20 0xFFFFFFFFFFFFFFFFFFFFFFFFFFFFFFFFFFFFFFFF AND SUB PUSH2 0x13F7 JUMPI PUSH1 0x40 MLOAD PUSH32 0x8C379A000000000000000000000000000000000000000000000000000000000 DUP2 MSTORE PUSH1 0x4 ADD PUSH2 0x13EE SWAP1 PUSH2 0x2027 JUMP JUMPDEST PUSH1 0x40 MLOAD DUP1 SWAP2 SUB SWAP1 REVERT JUMPDEST DUP1 PUSH1 0x4 PUSH0 PUSH2 0x100 EXP DUP2 SLOAD DUP2 PUSH20 0xFFFFFFFFFFFFFFFFFFFFFFFFFFFFFFFFFFFFFFFF MUL NOT AND SWAP1 DUP4 PUSH20 0xFFFFFFFFFFFFFFFFFFFFFFFFFFFFFFFFFFFFFFFF AND MUL OR SWAP1 SSTORE POP PUSH1 0x1 PUSH1 0x4 PUSH1 0x14 PUSH2 0x100 EXP DUP2 SLOAD DUP2 PUSH1 0xFF MUL NOT AND SWAP1 DUP4 ISZERO ISZERO MUL OR SWAP1 SSTORE POP POP JUMP JUMPDEST PUSH1 0x1 DUP2 DUP2 SLOAD DUP2 LT PUSH2 0x1464 JUMPI PUSH0 DUP1 REVERT JUMPDEST SWAP1 PUSH0 MSTORE PUSH1 0x20 PUSH0 KECCAK256 ADD PUSH0 SWAP2 POP SLOAD SWAP1 PUSH2 0x100 EXP SWAP1 DIV PUSH20 0xFFFFFFFFFFFFFFFFFFFFFFFFFFFFFFFFFFFFFFFF AND DUP2 JUMP JUMPDEST PUSH1 0x9 PUSH1 0x20 MSTORE DUP2 PUSH0 MSTORE PUSH1 0x40 PUSH0 KECCAK256 PUSH1 0x20 MSTORE DUP1 PUSH0 MSTORE PUSH1 0x40 PUSH0 KECCAK256 PUSH0 SWAP2 POP SWAP2 POP POP SLOAD DUP2 JUMP JUMPDEST PUSH1 0x4 PUSH0 SWAP1 SLOAD SWAP1 PUSH2 0x100 EXP SWAP1 DIV PUSH20 0xFFFFFFFFFFFFFFFFFFFFFFFFFFFFFFFFFFFFFFFF AND DUP2 JUMP JUMPDEST PUSH1 0x7 PUSH1 0x20 MSTORE DUP2 PUSH0 MSTORE PUSH1 0x40 PUSH0 KECCAK256 PUSH1 0x20 MSTORE DUP1 PUSH0 MSTORE PUSH1 0x40 PUSH0 KECCAK256 PUSH0 SWAP2 POP SWAP2 POP SWAP1 SLOAD SWAP1 PUSH2 0x100 EXP SWAP1 DIV PUSH20 0xFFFFFFFFFFFFFFFFFFFFFFFFFFFFFFFFFFFFFFFF AND DUP2 JUMP JUMPDEST PUSH1 0x3 SLOAD DUP2 JUMP JUMPDEST PUSH0 PUSH1 0x20 MSTORE DUP1 PUSH0 MSTORE PUSH1 0x40 PUSH0 KECCAK256 PUSH0 SWAP2 POP SWAP1 POP DUP1 PUSH0 ADD PUSH0 SWAP1 SLOAD SWAP1 PUSH2 0x100 EXP SWAP1 DIV PUSH20 0xFFFFFFFFFFFFFFFFFFFFFFFFFFFFFFFFFFFFFFFF AND SWAP1 DUP1 PUSH1 0x1 ADD SLOAD SWAP1 DUP1 PUSH1 0x2 ADD PUSH0 SWAP1 SLOAD SWAP1 PUSH2 0x100 EXP SWAP1 DIV PUSH1 0xFF AND SWAP1 POP DUP4 JUMP JUMPDEST PUSH1 0x4 PUSH1 0x14 SWAP1 SLOAD SWAP1 PUSH2 0x100 EXP SWAP1 DIV PUSH1 0xFF AND DUP2 JUMP JUMPDEST DUP3 DUP1 SLOAD DUP3 DUP3 SSTORE SWAP1 PUSH0 MSTORE PUSH1 0x20 PUSH0 KECCAK256 SWAP1 DUP2 ADD SWAP3 DUP3 ISZERO PUSH2 0x15F1 JUMPI SWAP2 PUSH1 0x20 MUL DUP3 ADD JUMPDEST DUP3 DUP2 GT ISZERO PUSH2 0x15F0 JUMPI DUP3 MLOAD DUP3 PUSH0 PUSH2 0x100 EXP DUP2 SLOAD DUP2 PUSH20 0xFFFFFFFFFFFFFFFFFFFFFFFFFFFFFFFFFFFFFFFF MUL NOT AND SWAP1 DUP4 PUSH20 0xFFFFFFFFFFFFFFFFFFFFFFFFFFFFFFFFFFFFFFFF AND MUL OR SWAP1 SSTORE POP SWAP2 PUSH1 0x20 ADD SWAP2 SWAP1 PUSH1 0x1 ADD SWAP1 PUSH2 0x1599 JUMP JUMPDEST JUMPDEST POP SWAP1 POP PUSH2 0x15FE SWAP2 SWAP1 PUSH2 0x1602 JUMP JUMPDEST POP SWAP1 JUMP JUMPDEST JUMPDEST DUP1 DUP3 GT ISZERO PUSH2 0x1619 JUMPI PUSH0 DUP2 PUSH0 SWAP1 SSTORE POP PUSH1 0x1 ADD PUSH2 0x1603 JUMP JUMPDEST POP SWAP1 JUMP JUMPDEST PUSH0 PUSH0 REVERT JUMPDEST PUSH0 DUP2 SWAP1 POP SWAP2 SWAP1 POP JUMP JUMPDEST PUSH2 0x1633 DUP2 PUSH2 0x1621 JUMP JUMPDEST DUP2 EQ PUSH2 0x163D JUMPI PUSH0 PUSH0 REVERT JUMPDEST POP JUMP JUMPDEST PUSH0 DUP2 CALLDATALOAD SWAP1 POP PUSH2 0x164E DUP2 PUSH2 0x162A JUMP JUMPDEST SWAP3 SWAP2 POP POP JUMP JUMPDEST PUSH0 PUSH20 0xFFFFFFFFFFFFFFFFFFFFFFFFFFFFFFFFFFFFFFFF DUP3 AND SWAP1 POP SWAP2 SWAP1 POP JUMP JUMPDEST PUSH0 PUSH2 0x167D DUP3 PUSH2 0x1654 JUMP JUMPDEST SWAP1 POP SWAP2 SWAP1 POP JUMP JUMPDEST PUSH2 0x168D DUP2 PUSH2 0x1673 JUMP JUMPDEST DUP2 EQ PUSH2 0x1697 JUMPI PUSH0 PUSH0 REVERT JUMPDEST POP JUMP JUMPDEST PUSH0 DUP2 CALLDATALOAD SWAP1 POP PUSH2 0x16A8 DUP2 PUSH2 0x1684 JUMP JUMPDEST SWAP3 SWAP2 POP POP JUMP JUMPDEST PUSH0 PUSH0 PUSH1 0x40 DUP4 DUP6 SUB SLT ISZERO PUSH2 0x16C4 JUMPI PUSH2 0x16C3 PUSH2 0x161D JUMP JUMPDEST JUMPDEST PUSH0 PUSH2 0x16D1 DUP6 DUP3 DUP7 ADD PUSH2 0x1640 JUMP JUMPDEST SWAP3 POP POP PUSH1 0x20 PUSH2 0x16E2 DUP6 DUP3 DUP7 ADD PUSH2 0x169A JUMP JUMPDEST SWAP2 POP POP SWAP3 POP SWAP3 SWAP1 POP JUMP JUMPDEST PUSH0 PUSH0 PUSH1 0x40 DUP4 DUP6 SUB SLT ISZERO PUSH2 0x1702 JUMPI PUSH2 0x1701 PUSH2 0x161D JUMP JUMPDEST JUMPDEST PUSH0 PUSH2 0x170F DUP6 DUP3 DUP7 ADD PUSH2 0x1640 JUMP JUMPDEST SWAP3 POP POP PUSH1 0x20 PUSH2 0x1720 DUP6 DUP3 DUP7 ADD PUSH2 0x1640 JUMP JUMPDEST SWAP2 POP POP SWAP3 POP SWAP3 SWAP1 POP JUMP JUMPDEST PUSH2 0x1733 DUP2 PUSH2 0x1673 JUMP JUMPDEST DUP3 MSTORE POP POP JUMP JUMPDEST PUSH0 PUSH1 0x20 DUP3 ADD SWAP1 POP PUSH2 0x174C PUSH0 DUP4 ADD DUP5 PUSH2 0x172A JUMP JUMPDEST SWAP3 SWAP2 POP POP JUMP JUMPDEST PUSH2 0x175B DUP2 PUSH2 0x1621 JUMP JUMPDEST DUP3 MSTORE POP POP JUMP JUMPDEST PUSH0 PUSH1 0x20 DUP3 ADD SWAP1 POP PUSH2 0x1774 PUSH0 DUP4 ADD DUP5 PUSH2 0x1752 JUMP JUMPDEST SWAP3 SWAP2 POP POP JUMP JUMPDEST PUSH0 DUP2 ISZERO ISZERO SWAP1 POP SWAP2 SWAP1 POP JUMP JUMPDEST PUSH2 0x178E DUP2 PUSH2 0x177A JUMP JUMPDEST DUP3 MSTORE POP POP JUMP JUMPDEST PUSH0 PUSH1 0x20 DUP3 ADD SWAP1 POP PUSH2 0x17A7 PUSH0 DUP4 ADD DUP5 PUSH2 0x1785 JUMP JUMPDEST SWAP3 SWAP2 POP POP JUMP JUMPDEST PUSH0 PUSH1 0x20 DUP3 DUP5 SUB SLT ISZERO PUSH2 0x17C2 JUMPI PUSH2 0x17C1 PUSH2 0x161D JUMP JUMPDEST JUMPDEST PUSH0 PUSH2 0x17CF DUP5 DUP3 DUP6 ADD PUSH2 0x1640 JUMP JUMPDEST SWAP2 POP POP SWAP3 SWAP2 POP POP JUMP JUMPDEST PUSH0 PUSH1 0x20 DUP3 DUP5 SUB SLT ISZERO PUSH2 0x17ED JUMPI PUSH2 0x17EC PUSH2 0x161D JUMP JUMPDEST JUMPDEST PUSH0 PUSH2 0x17FA DUP5 DUP3 DUP6 ADD PUSH2 0x169A JUMP JUMPDEST SWAP2 POP POP SWAP3 SWAP2 POP POP JUMP JUMPDEST PUSH0 PUSH1 0x60 DUP3 ADD SWAP1 POP PUSH2 0x1816 PUSH0 DUP4 ADD DUP7 PUSH2 0x172A JUMP JUMPDEST PUSH2 0x1823 PUSH1 0x20 DUP4 ADD DUP6 PUSH2 0x1752 JUMP JUMPDEST PUSH2 0x1830 PUSH1 0x40 DUP4 ADD DUP5 PUSH2 0x1785 JUMP JUMPDEST SWAP5 SWAP4 POP POP POP POP JUMP JUMPDEST PUSH0 DUP3 DUP3 MSTORE PUSH1 0x20 DUP3 ADD SWAP1 POP SWAP3 SWAP2 POP POP JUMP JUMPDEST PUSH32 0x4E6F742061206A75726F72000000000000000000000000000000000000000000 PUSH0 DUP3 ADD MSTORE POP JUMP JUMPDEST PUSH0 PUSH2 0x187C PUSH1 0xB DUP4 PUSH2 0x1838 JUMP JUMPDEST SWAP2 POP PUSH2 0x1887 DUP3 PUSH2 0x1848 JUMP JUMPDEST PUSH1 0x20 DUP3 ADD SWAP1 POP SWAP2 SWAP1 POP JUMP JUMPDEST PUSH0 PUSH1 0x20 DUP3 ADD SWAP1 POP DUP2 DUP2 SUB PUSH0 DUP4 ADD MSTORE PUSH2 0x18A9 DUP2 PUSH2 0x1870 JUMP JUMPDEST SWAP1 POP SWAP2 SWAP1 POP JUMP JUMPDEST PUSH32 0x4E487B7100000000000000000000000000000000000000000000000000000000 PUSH0 MSTORE PUSH1 0x32 PUSH1 0x4 MSTORE PUSH1 0x24 PUSH0 REVERT JUMPDEST PUSH32 0x4E6F742073656C6563746564206A75726F720000000000000000000000000000 PUSH0 DUP3 ADD MSTORE POP JUMP JUMPDEST PUSH0 PUSH2 0x1911 PUSH1 0x12 DUP4 PUSH2 0x1838 JUMP JUMPDEST SWAP2 POP PUSH2 0x191C DUP3 PUSH2 0x18DD JUMP JUMPDEST PUSH1 0x20 DUP3 ADD SWAP1 POP SWAP2 SWAP1 POP JUMP JUMPDEST PUSH0 PUSH1 0x20 DUP3 ADD SWAP1 POP DUP2 DUP2 SUB PUSH0 DUP4 ADD MSTORE PUSH2 0x193E DUP2 PUSH2 0x1905 JUMP JUMPDEST SWAP1 POP SWAP2 SWAP1 POP JUMP JUMPDEST PUSH32 0x416C726561647920766F74656400000000000000000000000000000000000000 PUSH0 DUP3 ADD MSTORE POP JUMP JUMPDEST PUSH0 PUSH2 0x1979 PUSH1 0xD DUP4 PUSH2 0x1838 JUMP JUMPDEST SWAP2 POP PUSH2 0x1984 DUP3 PUSH2 0x1945 JUMP JUMPDEST PUSH1 0x20 DUP3 ADD SWAP1 POP SWAP2 SWAP1 POP JUMP JUMPDEST PUSH0 PUSH1 0x20 DUP3 ADD SWAP1 POP DUP2 DUP2 SUB PUSH0 DUP4 ADD MSTORE PUSH2 0x19A6 DUP2 PUSH2 0x196D JUMP JUMPDEST SWAP1 POP SWAP2 SWAP1 POP JUMP JUMPDEST PUSH32 0x4E487B7100000000000000000000000000000000000000000000000000000000 PUSH0 MSTORE PUSH1 0x11 PUSH1 0x4 MSTORE PUSH1 0x24 PUSH0 REVERT JUMPDEST PUSH0 PUSH2 0x19E4 DUP3 PUSH2 0x1621 JUMP JUMPDEST SWAP2 POP PUSH32 0xFFFFFFFFFFFFFFFFFFFFFFFFFFFFFFFFFFFFFFFFFFFFFFFFFFFFFFFFFFFFFFFF DUP3 SUB PUSH2 0x1A16 JUMPI PUSH2 0x1A15 PUSH2 0x19AD JUMP JUMPDEST JUMPDEST PUSH1 0x1 DUP3 ADD SWAP1 POP SWAP2 SWAP1 POP JUMP JUMPDEST PUSH0 PUSH1 0x40 DUP3 ADD SWAP1 POP PUSH2 0x1A34 PUSH0 DUP4 ADD DUP6 PUSH2 0x1752 JUMP JUMPDEST PUSH2 0x1A41 PUSH1 0x20 DUP4 ADD DUP5 PUSH2 0x172A JUMP JUMPDEST SWAP4 SWAP3 POP POP POP JUMP JUMPDEST PUSH0 DUP2 MLOAD SWAP1 POP SWAP2 SWAP1 POP JUMP JUMPDEST PUSH0 DUP2 SWAP1 POP SWAP3 SWAP2 POP POP JUMP JUMPDEST DUP3 DUP2 DUP4 MCOPY PUSH0 DUP4 DUP4 ADD MSTORE POP POP POP JUMP JUMPDEST PUSH0 PUSH2 0x1A74 DUP3 PUSH2 0x1A48 JUMP JUMPDEST PUSH2 0x1A7E DUP2 DUP6 PUSH2 0x1A52 JUMP JUMPDEST SWAP4 POP PUSH2 0x1A8E DUP2 DUP6 PUSH1 0x20 DUP7 ADD PUSH2 0x1A5C JUMP JUMPDEST DUP1 DUP5 ADD SWAP2 POP POP SWAP3 SWAP2 POP POP JUMP JUMPDEST PUSH0 PUSH2 0x1AA5 DUP3 DUP5 PUSH2 0x1A6A JUMP JUMPDEST SWAP2 POP DUP2 SWAP1 POP SWAP3 SWAP2 POP POP JUMP JUMPDEST PUSH32 0x5265736F6C7665206661696C6564000000000000000000000000000000000000 PUSH0 DUP3 ADD MSTORE POP JUMP JUMPDEST PUSH0 PUSH2 0x1AE4 PUSH1 0xE DUP4 PUSH2 0x1838 JUMP JUMPDEST SWAP2 POP PUSH2 0x1AEF DUP3 PUSH2 0x1AB0 JUMP JUMPDEST PUSH1 0x20 DUP3 ADD SWAP1 POP SWAP2 SWAP1 POP JUMP JUMPDEST PUSH0 PUSH1 0x20 DUP3 ADD SWAP1 POP DUP2 DUP2 SUB PUSH0 DUP4 ADD MSTORE PUSH2 0x1B11 DUP2 PUSH2 0x1AD8 JUMP JUMPDEST SWAP1 POP SWAP2 SWAP1 POP JUMP JUMPDEST PUSH32 0x496E73756666696369656E74207374616B650000000000000000000000000000 PUSH0 DUP3 ADD MSTORE POP JUMP JUMPDEST PUSH0 PUSH2 0x1B4C PUSH1 0x12 DUP4 PUSH2 0x1838 JUMP JUMPDEST SWAP2 POP PUSH2 0x1B57 DUP3 PUSH2 0x1B18 JUMP JUMPDEST PUSH1 0x20 DUP3 ADD SWAP1 POP SWAP2 SWAP1 POP JUMP JUMPDEST PUSH0 PUSH1 0x20 DUP3 ADD SWAP1 POP DUP2 DUP2 SUB PUSH0 DUP4 ADD MSTORE PUSH2 0x1B79 DUP2 PUSH2 0x1B40 JUMP JUMPDEST SWAP1 POP SWAP2 SWAP1 POP JUMP JUMPDEST PUSH32 0x416C7265616479206A75726F7200000000000000000000000000000000000000 PUSH0 DUP3 ADD MSTORE POP JUMP JUMPDEST PUSH0 PUSH2 0x1BB4 PUSH1 0xD DUP4 PUSH2 0x1838 JUMP JUMPDEST SWAP2 POP PUSH2 0x1BBF DUP3 PUSH2 0x1B80 JUMP JUMPDEST PUSH1 0x20 DUP3 ADD SWAP1 POP SWAP2 SWAP1 POP JUMP JUMPDEST PUSH0 PUSH1 0x20 DUP3 ADD SWAP1 POP DUP2 DUP2 SUB PUSH0 DUP4 ADD MSTORE PUSH2 0x1BE1 DUP2 PUSH2 0x1BA8 JUMP JUMPDEST SWAP1 POP SWAP2 SWAP1 POP JUMP JUMPDEST PUSH32 0x4F6E6C79205461736B466163746F727900000000000000000000000000000000 PUSH0 DUP3 ADD MSTORE POP JUMP JUMPDEST PUSH0 PUSH2 0x1C1C PUSH1 0x10 DUP4 PUSH2 0x1838 JUMP JUMPDEST SWAP2 POP PUSH2 0x1C27 DUP3 PUSH2 0x1BE8 JUMP JUMPDEST PUSH1 0x20 DUP3 ADD SWAP1 POP SWAP2 SWAP1 POP JUMP JUMPDEST PUSH0 PUSH1 0x20 DUP3 ADD SWAP1 POP DUP2 DUP2 SUB PUSH0 DUP4 ADD MSTORE PUSH2 0x1C49 DUP2 PUSH2 0x1C10 JUMP JUMPDEST SWAP1 POP SWAP2 SWAP1 POP JUMP JUMPDEST PUSH32 0x4469737075746520616C72656164792073746172746564000000000000000000 PUSH0 DUP3 ADD MSTORE POP JUMP JUMPDEST PUSH0 PUSH2 0x1C84 PUSH1 0x17 DUP4 PUSH2 0x1838 JUMP JUMPDEST SWAP2 POP PUSH2 0x1C8F DUP3 PUSH2 0x1C50 JUMP JUMPDEST PUSH1 0x20 DUP3 ADD SWAP1 POP SWAP2 SWAP1 POP JUMP JUMPDEST PUSH0 PUSH1 0x20 DUP3 ADD SWAP1 POP DUP2 DUP2 SUB PUSH0 DUP4 ADD MSTORE PUSH2 0x1CB1 DUP2 PUSH2 0x1C78 JUMP JUMPDEST SWAP1 POP SWAP2 SWAP1 POP JUMP JUMPDEST PUSH32 0x4E6F7420656E6F756768206A75726F7273000000000000000000000000000000 PUSH0 DUP3 ADD MSTORE POP JUMP JUMPDEST PUSH0 PUSH2 0x1CEC PUSH1 0x11 DUP4 PUSH2 0x1838 JUMP JUMPDEST SWAP2 POP PUSH2 0x1CF7 DUP3 PUSH2 0x1CB8 JUMP JUMPDEST PUSH1 0x20 DUP3 ADD SWAP1 POP SWAP2 SWAP1 POP JUMP JUMPDEST PUSH0 PUSH1 0x20 DUP3 ADD SWAP1 POP DUP2 DUP2 SUB PUSH0 DUP4 ADD MSTORE PUSH2 0x1D19 DUP2 PUSH2 0x1CE0 JUMP JUMPDEST SWAP1 POP SWAP2 SWAP1 POP JUMP JUMPDEST PUSH32 0x4E487B7100000000000000000000000000000000000000000000000000000000 PUSH0 MSTORE PUSH1 0x41 PUSH1 0x4 MSTORE PUSH1 0x24 PUSH0 REVERT JUMPDEST PUSH0 DUP2 SWAP1 POP SWAP2 SWAP1 POP JUMP JUMPDEST PUSH2 0x1D67 PUSH2 0x1D62 DUP3 PUSH2 0x1621 JUMP JUMPDEST PUSH2 0x1D4D JUMP JUMPDEST DUP3 MSTORE POP POP JUMP JUMPDEST PUSH0 PUSH2 0x1D78 DUP3 DUP6 PUSH2 0x1D56 JUMP JUMPDEST PUSH1 0x20 DUP3 ADD SWAP2 POP PUSH2 0x1D88 DUP3 DUP5 PUSH2 0x1D56 JUMP JUMPDEST PUSH1 0x20 DUP3 ADD SWAP2 POP DUP2 SWAP1 POP SWAP4 SWAP3 POP POP POP JUMP JUMPDEST PUSH0 PUSH2 0x1DA2 DUP3 PUSH2 0x1621 JUMP JUMPDEST SWAP2 POP PUSH2 0x1DAD DUP4 PUSH2 0x1621 JUMP JUMPDEST SWAP3 POP DUP3 DUP3 MUL PUSH2 0x1DBB DUP2 PUSH2 0x1621 JUMP JUMPDEST SWAP2 POP DUP3 DUP3 DIV DUP5 EQ DUP4 ISZERO OR PUSH2 0x1DD2 JUMPI PUSH2 0x1DD1 PUSH2 0x19AD JUMP JUMPDEST JUMPDEST POP SWAP3 SWAP2 POP POP JUMP JUMPDEST PUSH32 0x4E487B7100000000000000000000000000000000000000000000000000000000 PUSH0 MSTORE PUSH1 0x12 PUSH1 0x4 MSTORE PUSH1 0x24 PUSH0 REVERT JUMPDEST PUSH0 PUSH2 0x1E10 DUP3 PUSH2 0x1621 JUMP JUMPDEST SWAP2 POP PUSH2 0x1E1B DUP4 PUSH2 0x1621 JUMP JUMPDEST SWAP3 POP DUP3 PUSH2 0x1E2B JUMPI PUSH2 0x1E2A PUSH2 0x1DD9 JUMP JUMPDEST JUMPDEST DUP3 DUP3 MOD SWAP1 POP SWAP3 SWAP2 POP POP JUMP JUMPDEST PUSH32 0x4E6F7420656E6F75676820756E69717565206A75726F72730000000000000000 PUSH0 DUP3 ADD MSTORE POP JUMP JUMPDEST PUSH0 PUSH2 0x1E6A PUSH1 0x18 DUP4 PUSH2 0x1838 JUMP JUMPDEST SWAP2 POP PUSH2 0x1E75 DUP3 PUSH2 0x1E36 JUMP JUMPDEST PUSH1 0x20 DUP3 ADD SWAP1 POP SWAP2 SWAP1 POP JUMP JUMPDEST PUSH0 PUSH1 0x20 DUP3 ADD SWAP1 POP DUP2 DUP2 SUB PUSH0 DUP4 ADD MSTORE PUSH2 0x1E97 DUP2 PUSH2 0x1E5E JUMP JUMPDEST SWAP1 POP SWAP2 SWAP1 POP JUMP JUMPDEST PUSH0 DUP2 MLOAD SWAP1 POP SWAP2 SWAP1 POP JUMP JUMPDEST PUSH0 DUP3 DUP3 MSTORE PUSH1 0x20 DUP3 ADD SWAP1 POP SWAP3 SWAP2 POP POP JUMP JUMPDEST PUSH0 DUP2 SWAP1 POP PUSH1 0x20 DUP3 ADD SWAP1 POP SWAP2 SWAP1 POP JUMP JUMPDEST PUSH2 0x1ED0 DUP2 PUSH2 0x1673 JUMP JUMPDEST DUP3 MSTORE POP POP JUMP JUMPDEST PUSH0 PUSH2 0x1EE1 DUP4 DUP4 PUSH2 0x1EC7 JUMP JUMPDEST PUSH1 0x20 DUP4 ADD SWAP1 POP SWAP3 SWAP2 POP POP JUMP JUMPDEST PUSH0 PUSH1 0x20 DUP3 ADD SWAP1 POP SWAP2 SWAP1 POP JUMP JUMPDEST PUSH0 PUSH2 0x1F03 DUP3 PUSH2 0x1E9E JUMP JUMPDEST PUSH2 0x1F0D DUP2 DUP6 PUSH2 0x1EA8 JUMP JUMPDEST SWAP4 POP PUSH2 0x1F18 DUP4 PUSH2 0x1EB8 JUMP JUMPDEST DUP1 PUSH0 JUMPDEST DUP4 DUP2 LT ISZERO PUSH2 0x1F48 JUMPI DUP2 MLOAD PUSH2 0x1F2F DUP9 DUP3 PUSH2 0x1ED6 JUMP JUMPDEST SWAP8 POP PUSH2 0x1F3A DUP4 PUSH2 0x1EED JUMP JUMPDEST SWAP3 POP POP PUSH1 0x1 DUP2 ADD SWAP1 POP PUSH2 0x1F1B JUMP JUMPDEST POP DUP6 SWAP4 POP POP POP POP SWAP3 SWAP2 POP POP JUMP JUMPDEST PUSH0 PUSH1 0x20 DUP3 ADD SWAP1 POP DUP2 DUP2 SUB PUSH0 DUP4 ADD MSTORE PUSH2 0x1F6D DUP2 DUP5 PUSH2 0x1EF9 JUMP JUMPDEST SWAP1 POP SWAP3 SWAP2 POP POP JUMP JUMPDEST PUSH32 0x466163746F727920616C72656164792073657400000000000000000000000000 PUSH0 DUP3 ADD MSTORE POP JUMP JUMPDEST PUSH0 PUSH2 0x1FA9 PUSH1 0x13 DUP4 PUSH2 0x1838 JUMP JUMPDEST SWAP2 POP PUSH2 0x1FB4 DUP3 PUSH2 0x1F75 JUMP JUMPDEST PUSH1 0x20 DUP3 ADD SWAP1 POP SWAP2 SWAP1 POP JUMP JUMPDEST PUSH0 PUSH1 0x20 DUP3 ADD SWAP1 POP DUP2 DUP2 SUB PUSH0 DUP4 ADD MSTORE PUSH2 0x1FD6 DUP2 PUSH2 0x1F9D JUMP JUMPDEST SWAP1 POP SWAP2 SWAP1 POP JUMP JUMPDEST PUSH32 0x496E76616C696420616464726573730000000000000000000000000000000000 PUSH0 DUP3 ADD MSTORE POP JUMP JUMPDEST PUSH0 PUSH2 0x2011 PUSH1 0xF DUP4 PUSH2 0x1838 JUMP JUMPDEST SWAP2 POP PUSH2 0x201C DUP3 PUSH2 0x1FDD JUMP JUMPDEST PUSH1 0x20 DUP3 ADD SWAP1 POP SWAP2 SWAP1 POP JUMP JUMPDEST PUSH0 PUSH1 0x20 DUP3 ADD SWAP1 POP DUP2 DUP2 SUB PUSH0 DUP4 ADD MSTORE PUSH2 0x203E DUP2 PUSH2 0x2005 JUMP JUMPDEST SWAP1 POP SWAP2 SWAP1 POP JUMP INVALID LOG2 PUSH5 0x6970667358 0x22 SLT KECCAK256 SAR PUSH31 0x24DCAF932B118D54A7C6FE94869BD60B52852D06E502EFF78C24EFCB489664 PUSH20 0x6F6C634300081E00330000000000000000000000 "
				},
				"gasEstimates": {
					"creation": {
						"codeDepositCost": "1663000",
						"executionCost": "infinite",
						"totalCost": "infinite"
					},
					"external": {
						"candidateVotes(uint256,address)": "infinite",
						"disputeJurors(uint256,uint256)": "infinite",
						"factorySet()": "2605",
						"handleDispute(uint256)": "infinite",
						"hasVoted(uint256,address)": "3115",
						"jurorList(uint256)": "4989",
						"jurors(address)": "infinite",
						"jurorsPerDispute()": "2469",
						"minStake()": "2515",
						"setFactory(address)": "51295",
						"stake()": "125520",
						"taskFactory()": "2597",
						"unstake()": "infinite",
						"vote(uint256,address)": "infinite",
						"voteCount(uint256)": "infinite",
						"votes(uint256,address)": "infinite"
					}
				},
				"methodIdentifiers": {
					"candidateVotes(uint256,address)": "afa9c5b0",
					"disputeJurors(uint256,uint256)": "2249c562",
					"factorySet()": "e21875e2",
					"handleDispute(uint256)": "4b54a379",
					"hasVoted(uint256,address)": "43859632",
					"jurorList(uint256)": "8e230e6f",
					"jurors(address)": "dca5f6b0",
					"jurorsPerDispute()": "d369506c",
					"minStake()": "375b3c0a",
					"setFactory(address)": "5bb47808",
					"stake()": "3a4b66f1",
					"taskFactory()": "c9bc0c11",
					"unstake()": "2def6620",
					"vote(uint256,address)": "02d947ef",
					"voteCount(uint256)": "4fc8a20d",
					"votes(uint256,address)": "d23254b4"
				}
			},
			"storageLayout": {
				"storage": [
					{
						"astId": 13,
						"contract": "DisputeDAO.sol:DisputeDAO",
						"label": "jurors",
						"offset": 0,
						"slot": "0",
						"type": "t_mapping(t_address,t_struct(Juror)8_storage)"
					},
					{
						"astId": 16,
						"contract": "DisputeDAO.sol:DisputeDAO",
						"label": "jurorList",
						"offset": 0,
						"slot": "1",
						"type": "t_array(t_address)dyn_storage"
					},
					{
						"astId": 19,
						"contract": "DisputeDAO.sol:DisputeDAO",
						"label": "minStake",
						"offset": 0,
						"slot": "2",
						"type": "t_uint256"
					},
					{
						"astId": 22,
						"contract": "DisputeDAO.sol:DisputeDAO",
						"label": "jurorsPerDispute",
						"offset": 0,
						"slot": "3",
						"type": "t_uint256"
					},
					{
						"astId": 24,
						"contract": "DisputeDAO.sol:DisputeDAO",
						"label": "taskFactory",
						"offset": 0,
						"slot": "4",
						"type": "t_address"
					},
					{
						"astId": 27,
						"contract": "DisputeDAO.sol:DisputeDAO",
						"label": "factorySet",
						"offset": 20,
						"slot": "4",
						"type": "t_bool"
					},
					{
						"astId": 32,
						"contract": "DisputeDAO.sol:DisputeDAO",
						"label": "disputeJurors",
						"offset": 0,
						"slot": "5",
						"type": "t_mapping(t_uint256,t_array(t_address)dyn_storage)"
					},
					{
						"astId": 38,
						"contract": "DisputeDAO.sol:DisputeDAO",
						"label": "hasVoted",
						"offset": 0,
						"slot": "6",
						"type": "t_mapping(t_uint256,t_mapping(t_address,t_bool))"
					},
					{
						"astId": 44,
						"contract": "DisputeDAO.sol:DisputeDAO",
						"label": "votes",
						"offset": 0,
						"slot": "7",
						"type": "t_mapping(t_uint256,t_mapping(t_address,t_address))"
					},
					{
						"astId": 48,
						"contract": "DisputeDAO.sol:DisputeDAO",
						"label": "voteCount",
						"offset": 0,
						"slot": "8",
						"type": "t_mapping(t_uint256,t_uint256)"
					},
					{
						"astId": 54,
						"contract": "DisputeDAO.sol:DisputeDAO",
						"label": "candidateVotes",
						"offset": 0,
						"slot": "9",
						"type": "t_mapping(t_uint256,t_mapping(t_address,t_uint256))"
					}
				],
				"types": {
					"t_address": {
						"encoding": "inplace",
						"label": "address",
						"numberOfBytes": "20"
					},
					"t_array(t_address)dyn_storage": {
						"base": "t_address",
						"encoding": "dynamic_array",
						"label": "address[]",
						"numberOfBytes": "32"
					},
					"t_bool": {
						"encoding": "inplace",
						"label": "bool",
						"numberOfBytes": "1"
					},
					"t_mapping(t_address,t_address)": {
						"encoding": "mapping",
						"key": "t_address",
						"label": "mapping(address => address)",
						"numberOfBytes": "32",
						"value": "t_address"
					},
					"t_mapping(t_address,t_bool)": {
						"encoding": "mapping",
						"key": "t_address",
						"label": "mapping(address => bool)",
						"numberOfBytes": "32",
						"value": "t_bool"
					},
					"t_mapping(t_address,t_struct(Juror)8_storage)": {
						"encoding": "mapping",
						"key": "t_address",
						"label": "mapping(address => struct DisputeDAO.Juror)",
						"numberOfBytes": "32",
						"value": "t_struct(Juror)8_storage"
					},
					"t_mapping(t_address,t_uint256)": {
						"encoding": "mapping",
						"key": "t_address",
						"label": "mapping(address => uint256)",
						"numberOfBytes": "32",
						"value": "t_uint256"
					},
					"t_mapping(t_uint256,t_array(t_address)dyn_storage)": {
						"encoding": "mapping",
						"key": "t_uint256",
						"label": "mapping(uint256 => address[])",
						"numberOfBytes": "32",
						"value": "t_array(t_address)dyn_storage"
					},
					"t_mapping(t_uint256,t_mapping(t_address,t_address))": {
						"encoding": "mapping",
						"key": "t_uint256",
						"label": "mapping(uint256 => mapping(address => address))",
						"numberOfBytes": "32",
						"value": "t_mapping(t_address,t_address)"
					},
					"t_mapping(t_uint256,t_mapping(t_address,t_bool))": {
						"encoding": "mapping",
						"key": "t_uint256",
						"label": "mapping(uint256 => mapping(address => bool))",
						"numberOfBytes": "32",
						"value": "t_mapping(t_address,t_bool)"
					},
					"t_mapping(t_uint256,t_mapping(t_address,t_uint256))": {
						"encoding": "mapping",
						"key": "t_uint256",
						"label": "mapping(uint256 => mapping(address => uint256))",
						"numberOfBytes": "32",
						"value": "t_mapping(t_address,t_uint256)"
					},
					"t_mapping(t_uint256,t_uint256)": {
						"encoding": "mapping",
						"key": "t_uint256",
						"label": "mapping(uint256 => uint256)",
						"numberOfBytes": "32",
						"value": "t_uint256"
					},
					"t_struct(Juror)8_storage": {
						"encoding": "inplace",
						"label": "struct DisputeDAO.Juror",
						"members": [
							{
								"astId": 3,
								"contract": "DisputeDAO.sol:DisputeDAO",
								"label": "addr",
								"offset": 0,
								"slot": "0",
								"type": "t_address"
							},
							{
								"astId": 5,
								"contract": "DisputeDAO.sol:DisputeDAO",
								"label": "stake",
								"offset": 0,
								"slot": "1",
								"type": "t_uint256"
							},
							{
								"astId": 7,
								"contract": "DisputeDAO.sol:DisputeDAO",
								"label": "isActive",
								"offset": 0,
								"slot": "2",
								"type": "t_bool"
							}
						],
						"numberOfBytes": "96"
					},
					"t_uint256": {
						"encoding": "inplace",
						"label": "uint256",
						"numberOfBytes": "32"
					}
				}
			},
			"userdoc": {
				"kind": "user",
				"methods": {},
				"version": 1
			}
		}
	}
}