{
	"Escrow.sol": {
		"Escrow": {
			"abi": [
				{
					"inputs": [
						{
							"internalType": "address",
							"name": "_factory",
							"type": "address"
						}
					],
					"stateMutability": "nonpayable",
					"type": "constructor"
				},
				{
					"anonymous": false,
					"inputs": [
						{
							"indexed": true,
							"internalType": "uint256",
							"name": "taskId",
							"type": "uint256"
						},
						{
							"indexed": false,
							"internalType": "uint256",
							"name": "amount",
							"type": "uint256"
						}
					],
					"name": "FundsDeposited",
					"type": "event"
				},
				{
					"anonymous": false,
					"inputs": [
						{
							"indexed": true,
							"internalType": "uint256",
							"name": "taskId",
							"type": "uint256"
						},
						{
							"indexed": false,
							"internalType": "address",
							"name": "recipient",
							"type": "address"
						},
						{
							"indexed": false,
							"internalType": "uint256",
							"name": "amount",
							"type": "uint256"
						}
					],
					"name": "FundsRefunded",
					"type": "event"
				},
				{
					"anonymous": false,
					"inputs": [
						{
							"indexed": true,
							"internalType": "uint256",
							"name": "taskId",
							"type": "uint256"
						},
						{
							"indexed": false,
							"internalType": "address",
							"name": "recipient",
							"type": "address"
						}
					],
					"name": "FundsReleased",
					"type": "event"
				},
				{
					"inputs": [
						{
							"internalType": "uint256",
							"name": "taskId",
							"type": "uint256"
						}
					],
					"name": "depositFunds",
					"outputs": [],
					"stateMutability": "payable",
					"type": "function"
				},
				{
					"inputs": [],
					"name": "factory",
					"outputs": [
						{
							"internalType": "address",
							"name": "",
							"type": "address"
						}
					],
					"stateMutability": "view",
					"type": "function"
				},
				{
					"inputs": [],
					"name": "factorySet",
					"outputs": [
						{
							"internalType": "bool",
							"name": "",
							"type": "bool"
						}
					],
					"stateMutability": "view",
					"type": "function"
				},
				{
					"inputs": [
						{
							"internalType": "uint256",
							"name": "_taskId",
							"type": "uint256"
						},
						{
							"internalType": "address",
							"name": "_creator",
							"type": "address"
						}
					],
					"name": "refundFunds",
					"outputs": [],
					"stateMutability": "nonpayable",
					"type": "function"
				},
				{
					"inputs": [
						{
							"internalType": "uint256",
							"name": "_taskId",
							"type": "uint256"
						},
						{
							"internalType": "address",
							"name": "_winner",
							"type": "address"
						}
					],
					"name": "releaseFunds",
					"outputs": [],
					"stateMutability": "nonpayable",
					"type": "function"
				},
				{
					"inputs": [
						{
							"internalType": "address",
							"name": "_factory",
							"type": "address"
						}
					],
					"name": "setFactory",
					"outputs": [],
					"stateMutability": "nonpayable",
					"type": "function"
				},
				{
					"inputs": [
						{
							"internalType": "uint256",
							"name": "_taskId",
							"type": "uint256"
						},
						{
							"internalType": "address",
							"name": "_bidder",
							"type": "address"
						}
					],
					"name": "slashDeposit",
					"outputs": [],
					"stateMutability": "nonpayable",
					"type": "function"
				},
				{
					"inputs": [
						{
							"internalType": "uint256",
							"name": "",
							"type": "uint256"
						}
					],
					"name": "taskFunds",
					"outputs": [
						{
							"internalType": "uint256",
							"name": "",
							"type": "uint256"
						}
					],
					"stateMutability": "view",
					"type": "function"
				}
			],
			"devdoc": {
				"kind": "dev",
				"methods": {},
				"version": 1
			},
			"evm": {
				"assembly": "    /* \"Escrow.sol\":27:2284  contract Escrow {... */\n  mstore(0x40, 0x80)\n    /* \"Escrow.sol\":197:202  false */\n  0x00\n    /* \"Escrow.sol\":172:202  bool public factorySet = false */\n  0x01\n  exp(0x0100, 0x14)\n  dup2\n  sload\n  dup2\n  0xff\n  mul\n  not\n  and\n  swap1\n  dup4\n  iszero\n  iszero\n  mul\n  or\n  swap1\n  sstore\n  pop\n    /* \"Escrow.sol\":554:676  constructor(address _factory) {... */\n  callvalue\n  dup1\n  iszero\n  tag_1\n  jumpi\n  revert(0x00, 0x00)\ntag_1:\n  pop\n  mload(0x40)\n  sub(codesize, bytecodeSize)\n  dup1\n  bytecodeSize\n  dup4\n  codecopy\n  dup2\n  dup2\n  add\n  0x40\n  mstore\n  dup2\n  add\n  swap1\n  tag_2\n  swap2\n  swap1\n  tag_3\n  jump\t// in\ntag_2:\n    /* \"Escrow.sol\":605:613  _factory */\n  dup1\n    /* \"Escrow.sol\":595:602  factory */\n  0x01\n  0x00\n    /* \"Escrow.sol\":595:613  factory = _factory */\n  0x0100\n  exp\n  dup2\n  sload\n  dup2\n  0xffffffffffffffffffffffffffffffffffffffff\n  mul\n  not\n  and\n  swap1\n  dup4\n  0xffffffffffffffffffffffffffffffffffffffff\n  and\n  mul\n  or\n  swap1\n  sstore\n  pop\n    /* \"Escrow.sol\":647:648  0 */\n  0x00\n    /* \"Escrow.sol\":627:649  _factory != address(0) */\n  0xffffffffffffffffffffffffffffffffffffffff\n  and\n    /* \"Escrow.sol\":627:635  _factory */\n  dup2\n    /* \"Escrow.sol\":627:649  _factory != address(0) */\n  0xffffffffffffffffffffffffffffffffffffffff\n  and\n  eq\n    /* \"Escrow.sol\":624:668  if(_factory != address(0)) factorySet = true */\n  tag_6\n  jumpi\n    /* \"Escrow.sol\":664:668  true */\n  0x01\n    /* \"Escrow.sol\":651:661  factorySet */\n  dup1\n  0x14\n    /* \"Escrow.sol\":651:668  factorySet = true */\n  0x0100\n  exp\n  dup2\n  sload\n  dup2\n  0xff\n  mul\n  not\n  and\n  swap1\n  dup4\n  iszero\n  iszero\n  mul\n  or\n  swap1\n  sstore\n  pop\n    /* \"Escrow.sol\":624:668  if(_factory != address(0)) factorySet = true */\ntag_6:\n    /* \"Escrow.sol\":554:676  constructor(address _factory) {... */\n  pop\n    /* \"Escrow.sol\":27:2284  contract Escrow {... */\n  jump(tag_7)\n    /* \"#utility.yul\":88:205   */\ntag_9:\n    /* \"#utility.yul\":197:198   */\n  0x00\n    /* \"#utility.yul\":194:195   */\n  0x00\n    /* \"#utility.yul\":187:199   */\n  revert\n    /* \"#utility.yul\":334:460   */\ntag_11:\n    /* \"#utility.yul\":371:378   */\n  0x00\n    /* \"#utility.yul\":411:453   */\n  0xffffffffffffffffffffffffffffffffffffffff\n    /* \"#utility.yul\":404:409   */\n  dup3\n    /* \"#utility.yul\":400:454   */\n  and\n    /* \"#utility.yul\":389:454   */\n  swap1\n  pop\n    /* \"#utility.yul\":334:460   */\n  swap2\n  swap1\n  pop\n  jump\t// out\n    /* \"#utility.yul\":466:562   */\ntag_12:\n    /* \"#utility.yul\":503:510   */\n  0x00\n    /* \"#utility.yul\":532:556   */\n  tag_21\n    /* \"#utility.yul\":550:555   */\n  dup3\n    /* \"#utility.yul\":532:556   */\n  tag_11\n  jump\t// in\ntag_21:\n    /* \"#utility.yul\":521:556   */\n  swap1\n  pop\n    /* \"#utility.yul\":466:562   */\n  swap2\n  swap1\n  pop\n  jump\t// out\n    /* \"#utility.yul\":568:690   */\ntag_13:\n    /* \"#utility.yul\":641:665   */\n  tag_23\n    /* \"#utility.yul\":659:664   */\n  dup2\n    /* \"#utility.yul\":641:665   */\n  tag_12\n  jump\t// in\ntag_23:\n    /* \"#utility.yul\":634:639   */\n  dup2\n    /* \"#utility.yul\":631:666   */\n  eq\n    /* \"#utility.yul\":621:684   */\n  tag_24\n  jumpi\n    /* \"#utility.yul\":680:681   */\n  0x00\n    /* \"#utility.yul\":677:678   */\n  0x00\n    /* \"#utility.yul\":670:682   */\n  revert\n    /* \"#utility.yul\":621:684   */\ntag_24:\n    /* \"#utility.yul\":568:690   */\n  pop\n  jump\t// out\n    /* \"#utility.yul\":696:839   */\ntag_14:\n    /* \"#utility.yul\":753:758   */\n  0x00\n    /* \"#utility.yul\":784:790   */\n  dup2\n    /* \"#utility.yul\":778:791   */\n  mload\n    /* \"#utility.yul\":769:791   */\n  swap1\n  pop\n    /* \"#utility.yul\":800:833   */\n  tag_26\n    /* \"#utility.yul\":827:832   */\n  dup2\n    /* \"#utility.yul\":800:833   */\n  tag_13\n  jump\t// in\ntag_26:\n    /* \"#utility.yul\":696:839   */\n  swap3\n  swap2\n  pop\n  pop\n  jump\t// out\n    /* \"#utility.yul\":845:1196   */\ntag_3:\n    /* \"#utility.yul\":915:921   */\n  0x00\n    /* \"#utility.yul\":964:966   */\n  0x20\n    /* \"#utility.yul\":952:961   */\n  dup3\n    /* \"#utility.yul\":943:950   */\n  dup5\n    /* \"#utility.yul\":939:962   */\n  sub\n    /* \"#utility.yul\":935:967   */\n  slt\n    /* \"#utility.yul\":932:1051   */\n  iszero\n  tag_28\n  jumpi\n    /* \"#utility.yul\":970:1049   */\n  tag_29\n  tag_9\n  jump\t// in\ntag_29:\n    /* \"#utility.yul\":932:1051   */\ntag_28:\n    /* \"#utility.yul\":1090:1091   */\n  0x00\n    /* \"#utility.yul\":1115:1179   */\n  tag_30\n    /* \"#utility.yul\":1171:1178   */\n  dup5\n    /* \"#utility.yul\":1162:1168   */\n  dup3\n    /* \"#utility.yul\":1151:1160   */\n  dup6\n    /* \"#utility.yul\":1147:1169   */\n  add\n    /* \"#utility.yul\":1115:1179   */\n  tag_14\n  jump\t// in\ntag_30:\n    /* \"#utility.yul\":1105:1179   */\n  swap2\n  pop\n    /* \"#utility.yul\":1061:1189   */\n  pop\n    /* \"#utility.yul\":845:1196   */\n  swap3\n  swap2\n  pop\n  pop\n  jump\t// out\n    /* \"Escrow.sol\":27:2284  contract Escrow {... */\ntag_7:\n  dataSize(sub_0)\n  dup1\n  dataOffset(sub_0)\n  0x00\n  codecopy\n  0x00\n  return\nstop\n\nsub_0: assembly {\n        /* \"Escrow.sol\":27:2284  contract Escrow {... */\n      mstore(0x40, 0x80)\n      jumpi(tag_1, lt(calldatasize, 0x04))\n      shr(0xe0, calldataload(0x00))\n      dup1\n      0x77969929\n      gt\n      tag_10\n      jumpi\n      dup1\n      0x77969929\n      eq\n      tag_6\n      jumpi\n      dup1\n      0x8833c4c3\n      eq\n      tag_7\n      jumpi\n      dup1\n      0xc45a0155\n      eq\n      tag_8\n      jumpi\n      dup1\n      0xe21875e2\n      eq\n      tag_9\n      jumpi\n      jump(tag_1)\n    tag_10:\n      dup1\n      0x1af23a59\n      eq\n      tag_2\n      jumpi\n      dup1\n      0x3b76594d\n      eq\n      tag_3\n      jumpi\n      dup1\n      0x4283271c\n      eq\n      tag_4\n      jumpi\n      dup1\n      0x5bb47808\n      eq\n      tag_5\n      jumpi\n    tag_1:\n      revert(0x00, 0x00)\n        /* \"Escrow.sol\":1209:1587  function releaseFunds(uint256 _taskId, address _winner) external onlyFactory {... */\n    tag_2:\n      callvalue\n      dup1\n      iszero\n      tag_11\n      jumpi\n      revert(0x00, 0x00)\n    tag_11:\n      pop\n      tag_12\n      0x04\n      dup1\n      calldatasize\n      sub\n      dup2\n      add\n      swap1\n      tag_13\n      swap2\n      swap1\n      tag_14\n      jump\t// in\n    tag_13:\n      tag_15\n      jump\t// in\n    tag_12:\n      stop\n        /* \"Escrow.sol\":954:1169  function depositFunds(uint256 taskId) external payable onlyFactory {... */\n    tag_3:\n      tag_16\n      0x04\n      dup1\n      calldatasize\n      sub\n      dup2\n      add\n      swap1\n      tag_17\n      swap2\n      swap1\n      tag_18\n      jump\t// in\n    tag_17:\n      tag_19\n      jump\t// in\n    tag_16:\n      stop\n        /* \"Escrow.sol\":2135:2281  function slashDeposit(uint256 _taskId, address _bidder) external onlyFactory {... */\n    tag_4:\n      callvalue\n      dup1\n      iszero\n      tag_20\n      jumpi\n      revert(0x00, 0x00)\n    tag_20:\n      pop\n      tag_21\n      0x04\n      dup1\n      calldatasize\n      sub\n      dup2\n      add\n      swap1\n      tag_22\n      swap2\n      swap1\n      tag_14\n      jump\t// in\n    tag_22:\n      tag_23\n      jump\t// in\n    tag_21:\n      stop\n        /* \"Escrow.sol\":684:911  function setFactory(address _factory) external {... */\n    tag_5:\n      callvalue\n      dup1\n      iszero\n      tag_24\n      jumpi\n      revert(0x00, 0x00)\n    tag_24:\n      pop\n      tag_25\n      0x04\n      dup1\n      calldatasize\n      sub\n      dup2\n      add\n      swap1\n      tag_26\n      swap2\n      swap1\n      tag_27\n      jump\t// in\n    tag_26:\n      tag_28\n      jump\t// in\n    tag_25:\n      stop\n        /* \"Escrow.sol\":1675:2065  function refundFunds(uint256 _taskId, address _creator) external onlyFactory {... */\n    tag_6:\n      callvalue\n      dup1\n      iszero\n      tag_29\n      jumpi\n      revert(0x00, 0x00)\n    tag_29:\n      pop\n      tag_30\n      0x04\n      dup1\n      calldatasize\n      sub\n      dup2\n      add\n      swap1\n      tag_31\n      swap2\n      swap1\n      tag_14\n      jump\t// in\n    tag_31:\n      tag_32\n      jump\t// in\n    tag_30:\n      stop\n        /* \"Escrow.sol\":92:136  mapping(uint256 => uint256) public taskFunds */\n    tag_7:\n      callvalue\n      dup1\n      iszero\n      tag_33\n      jumpi\n      revert(0x00, 0x00)\n    tag_33:\n      pop\n      tag_34\n      0x04\n      dup1\n      calldatasize\n      sub\n      dup2\n      add\n      swap1\n      tag_35\n      swap2\n      swap1\n      tag_18\n      jump\t// in\n    tag_35:\n      tag_36\n      jump\t// in\n    tag_34:\n      mload(0x40)\n      tag_37\n      swap2\n      swap1\n      tag_38\n      jump\t// in\n    tag_37:\n      mload(0x40)\n      dup1\n      swap2\n      sub\n      swap1\n      return\n        /* \"Escrow.sol\":143:165  address public factory */\n    tag_8:\n      callvalue\n      dup1\n      iszero\n      tag_39\n      jumpi\n      revert(0x00, 0x00)\n    tag_39:\n      pop\n      tag_40\n      tag_41\n      jump\t// in\n    tag_40:\n      mload(0x40)\n      tag_42\n      swap2\n      swap1\n      tag_43\n      jump\t// in\n    tag_42:\n      mload(0x40)\n      dup1\n      swap2\n      sub\n      swap1\n      return\n        /* \"Escrow.sol\":172:202  bool public factorySet = false */\n    tag_9:\n      callvalue\n      dup1\n      iszero\n      tag_44\n      jumpi\n      revert(0x00, 0x00)\n    tag_44:\n      pop\n      tag_45\n      tag_46\n      jump\t// in\n    tag_45:\n      mload(0x40)\n      tag_47\n      swap2\n      swap1\n      tag_48\n      jump\t// in\n    tag_47:\n      mload(0x40)\n      dup1\n      swap2\n      sub\n      swap1\n      return\n        /* \"Escrow.sol\":1209:1587  function releaseFunds(uint256 _taskId, address _winner) external onlyFactory {... */\n    tag_15:\n        /* \"Escrow.sol\":490:497  factory */\n      0x01\n      0x00\n      swap1\n      sload\n      swap1\n      0x0100\n      exp\n      swap1\n      div\n      0xffffffffffffffffffffffffffffffffffffffff\n      and\n        /* \"Escrow.sol\":476:497  msg.sender == factory */\n      0xffffffffffffffffffffffffffffffffffffffff\n      and\n        /* \"Escrow.sol\":476:486  msg.sender */\n      caller\n        /* \"Escrow.sol\":476:497  msg.sender == factory */\n      0xffffffffffffffffffffffffffffffffffffffff\n      and\n      eq\n        /* \"Escrow.sol\":468:526  require(msg.sender == factory, \"Only factory can operate\") */\n      tag_50\n      jumpi\n      mload(0x40)\n      0x08c379a000000000000000000000000000000000000000000000000000000000\n      dup2\n      mstore\n      0x04\n      add\n      tag_51\n      swap1\n      tag_52\n      jump\t// in\n    tag_51:\n      mload(0x40)\n      dup1\n      swap2\n      sub\n      swap1\n      revert\n    tag_50:\n        /* \"Escrow.sol\":1324:1325  0 */\n      0x00\n        /* \"Escrow.sol\":1305:1326  _winner != address(0) */\n      0xffffffffffffffffffffffffffffffffffffffff\n      and\n        /* \"Escrow.sol\":1305:1312  _winner */\n      dup2\n        /* \"Escrow.sol\":1305:1326  _winner != address(0) */\n      0xffffffffffffffffffffffffffffffffffffffff\n      and\n      sub\n        /* \"Escrow.sol\":1297:1353  require(_winner != address(0), \"Invalid winner address\") */\n      tag_54\n      jumpi\n      mload(0x40)\n      0x08c379a000000000000000000000000000000000000000000000000000000000\n      dup2\n      mstore\n      0x04\n      add\n      tag_55\n      swap1\n      tag_56\n      jump\t// in\n    tag_55:\n      mload(0x40)\n      dup1\n      swap2\n      sub\n      swap1\n      revert\n    tag_54:\n        /* \"Escrow.sol\":1364:1378  uint256 amount */\n      0x00\n        /* \"Escrow.sol\":1381:1390  taskFunds */\n      0x00\n        /* \"Escrow.sol\":1381:1399  taskFunds[_taskId] */\n      0x00\n        /* \"Escrow.sol\":1391:1398  _taskId */\n      dup5\n        /* \"Escrow.sol\":1381:1399  taskFunds[_taskId] */\n      dup2\n      mstore\n      0x20\n      add\n      swap1\n      dup2\n      mstore\n      0x20\n      add\n      0x00\n      keccak256\n      sload\n        /* \"Escrow.sol\":1364:1399  uint256 amount = taskFunds[_taskId] */\n      swap1\n      pop\n        /* \"Escrow.sol\":1427:1428  0 */\n      0x00\n        /* \"Escrow.sol\":1418:1424  amount */\n      dup2\n        /* \"Escrow.sol\":1418:1428  amount > 0 */\n      gt\n        /* \"Escrow.sol\":1410:1451  require(amount > 0, \"No funds available\") */\n      tag_57\n      jumpi\n      mload(0x40)\n      0x08c379a000000000000000000000000000000000000000000000000000000000\n      dup2\n      mstore\n      0x04\n      add\n      tag_58\n      swap1\n      tag_59\n      jump\t// in\n    tag_58:\n      mload(0x40)\n      dup1\n      swap2\n      sub\n      swap1\n      revert\n    tag_57:\n        /* \"Escrow.sol\":1485:1486  0 */\n      0x00\n        /* \"Escrow.sol\":1464:1473  taskFunds */\n      0x00\n        /* \"Escrow.sol\":1464:1482  taskFunds[_taskId] */\n      0x00\n        /* \"Escrow.sol\":1474:1481  _taskId */\n      dup6\n        /* \"Escrow.sol\":1464:1482  taskFunds[_taskId] */\n      dup2\n      mstore\n      0x20\n      add\n      swap1\n      dup2\n      mstore\n      0x20\n      add\n      0x00\n      keccak256\n        /* \"Escrow.sol\":1464:1486  taskFunds[_taskId] = 0 */\n      dup2\n      swap1\n      sstore\n      pop\n        /* \"Escrow.sol\":1505:1512  _winner */\n      dup2\n        /* \"Escrow.sol\":1497:1522  payable(_winner).transfer */\n      0xffffffffffffffffffffffffffffffffffffffff\n      and\n        /* \"Escrow.sol\":1497:1530  payable(_winner).transfer(amount) */\n      0x08fc\n        /* \"Escrow.sol\":1523:1529  amount */\n      dup3\n        /* \"Escrow.sol\":1497:1530  payable(_winner).transfer(amount) */\n      swap1\n      dup2\n      iszero\n      mul\n      swap1\n      mload(0x40)\n      0x00\n      mload(0x40)\n      dup1\n      dup4\n      sub\n      dup2\n      dup6\n      dup9\n      dup9\n      call\n      swap4\n      pop\n      pop\n      pop\n      pop\n      iszero\n      dup1\n      iszero\n      tag_61\n      jumpi\n      returndatacopy(0x00, 0x00, returndatasize)\n      revert(0x00, returndatasize)\n    tag_61:\n      pop\n        /* \"Escrow.sol\":1562:1569  _taskId */\n      dup3\n        /* \"Escrow.sol\":1548:1579  FundsReleased(_taskId, _winner) */\n      0x8f5073d0a7a22ba450e278541077e181af457be74bea91e61f1f99e6bb40748e\n        /* \"Escrow.sol\":1571:1578  _winner */\n      dup4\n        /* \"Escrow.sol\":1548:1579  FundsReleased(_taskId, _winner) */\n      mload(0x40)\n      tag_62\n      swap2\n      swap1\n      tag_43\n      jump\t// in\n    tag_62:\n      mload(0x40)\n      dup1\n      swap2\n      sub\n      swap1\n      log2\n        /* \"Escrow.sol\":1286:1587  {... */\n      pop\n        /* \"Escrow.sol\":1209:1587  function releaseFunds(uint256 _taskId, address _winner) external onlyFactory {... */\n      pop\n      pop\n      jump\t// out\n        /* \"Escrow.sol\":954:1169  function depositFunds(uint256 taskId) external payable onlyFactory {... */\n    tag_19:\n        /* \"Escrow.sol\":490:497  factory */\n      0x01\n      0x00\n      swap1\n      sload\n      swap1\n      0x0100\n      exp\n      swap1\n      div\n      0xffffffffffffffffffffffffffffffffffffffff\n      and\n        /* \"Escrow.sol\":476:497  msg.sender == factory */\n      0xffffffffffffffffffffffffffffffffffffffff\n      and\n        /* \"Escrow.sol\":476:486  msg.sender */\n      caller\n        /* \"Escrow.sol\":476:497  msg.sender == factory */\n      0xffffffffffffffffffffffffffffffffffffffff\n      and\n      eq\n        /* \"Escrow.sol\":468:526  require(msg.sender == factory, \"Only factory can operate\") */\n      tag_64\n      jumpi\n      mload(0x40)\n      0x08c379a000000000000000000000000000000000000000000000000000000000\n      dup2\n      mstore\n      0x04\n      add\n      tag_65\n      swap1\n      tag_52\n      jump\t// in\n    tag_65:\n      mload(0x40)\n      dup1\n      swap2\n      sub\n      swap1\n      revert\n    tag_64:\n        /* \"Escrow.sol\":1052:1053  0 */\n      0x00\n        /* \"Escrow.sol\":1040:1049  msg.value */\n      callvalue\n        /* \"Escrow.sol\":1040:1053  msg.value > 0 */\n      gt\n        /* \"Escrow.sol\":1032:1071  require(msg.value > 0, \"No funds sent\") */\n      tag_67\n      jumpi\n      mload(0x40)\n      0x08c379a000000000000000000000000000000000000000000000000000000000\n      dup2\n      mstore\n      0x04\n      add\n      tag_68\n      swap1\n      tag_69\n      jump\t// in\n    tag_68:\n      mload(0x40)\n      dup1\n      swap2\n      sub\n      swap1\n      revert\n    tag_67:\n        /* \"Escrow.sol\":1103:1112  msg.value */\n      callvalue\n        /* \"Escrow.sol\":1082:1091  taskFunds */\n      0x00\n        /* \"Escrow.sol\":1082:1099  taskFunds[taskId] */\n      0x00\n        /* \"Escrow.sol\":1092:1098  taskId */\n      dup4\n        /* \"Escrow.sol\":1082:1099  taskFunds[taskId] */\n      dup2\n      mstore\n      0x20\n      add\n      swap1\n      dup2\n      mstore\n      0x20\n      add\n      0x00\n      keccak256\n      0x00\n        /* \"Escrow.sol\":1082:1112  taskFunds[taskId] += msg.value */\n      dup3\n      dup3\n      sload\n      tag_70\n      swap2\n      swap1\n      tag_71\n      jump\t// in\n    tag_70:\n      swap3\n      pop\n      pop\n      dup2\n      swap1\n      sstore\n      pop\n        /* \"Escrow.sol\":1143:1149  taskId */\n      dup1\n        /* \"Escrow.sol\":1128:1161  FundsDeposited(taskId, msg.value) */\n      0x26679fa1f3868c950e9362f1106cf73f3318de0280e0411a3c68e4b463eadd4f\n        /* \"Escrow.sol\":1151:1160  msg.value */\n      callvalue\n        /* \"Escrow.sol\":1128:1161  FundsDeposited(taskId, msg.value) */\n      mload(0x40)\n      tag_72\n      swap2\n      swap1\n      tag_38\n      jump\t// in\n    tag_72:\n      mload(0x40)\n      dup1\n      swap2\n      sub\n      swap1\n      log2\n        /* \"Escrow.sol\":954:1169  function depositFunds(uint256 taskId) external payable onlyFactory {... */\n      pop\n      jump\t// out\n        /* \"Escrow.sol\":2135:2281  function slashDeposit(uint256 _taskId, address _bidder) external onlyFactory {... */\n    tag_23:\n        /* \"Escrow.sol\":490:497  factory */\n      0x01\n      0x00\n      swap1\n      sload\n      swap1\n      0x0100\n      exp\n      swap1\n      div\n      0xffffffffffffffffffffffffffffffffffffffff\n      and\n        /* \"Escrow.sol\":476:497  msg.sender == factory */\n      0xffffffffffffffffffffffffffffffffffffffff\n      and\n        /* \"Escrow.sol\":476:486  msg.sender */\n      caller\n        /* \"Escrow.sol\":476:497  msg.sender == factory */\n      0xffffffffffffffffffffffffffffffffffffffff\n      and\n      eq\n        /* \"Escrow.sol\":468:526  require(msg.sender == factory, \"Only factory can operate\") */\n      tag_74\n      jumpi\n      mload(0x40)\n      0x08c379a000000000000000000000000000000000000000000000000000000000\n      dup2\n      mstore\n      0x04\n      add\n      tag_75\n      swap1\n      tag_52\n      jump\t// in\n    tag_75:\n      mload(0x40)\n      dup1\n      swap2\n      sub\n      swap1\n      revert\n    tag_74:\n        /* \"Escrow.sol\":2135:2281  function slashDeposit(uint256 _taskId, address _bidder) external onlyFactory {... */\n      pop\n      pop\n      jump\t// out\n        /* \"Escrow.sol\":684:911  function setFactory(address _factory) external {... */\n    tag_28:\n        /* \"Escrow.sol\":751:761  factorySet */\n      0x01\n      0x14\n      swap1\n      sload\n      swap1\n      0x0100\n      exp\n      swap1\n      div\n      0xff\n      and\n        /* \"Escrow.sol\":750:761  !factorySet */\n      iszero\n        /* \"Escrow.sol\":742:785  require(!factorySet, \"Factory already set\") */\n      tag_78\n      jumpi\n      mload(0x40)\n      0x08c379a000000000000000000000000000000000000000000000000000000000\n      dup2\n      mstore\n      0x04\n      add\n      tag_79\n      swap1\n      tag_80\n      jump\t// in\n    tag_79:\n      mload(0x40)\n      dup1\n      swap2\n      sub\n      swap1\n      revert\n    tag_78:\n        /* \"Escrow.sol\":824:825  0 */\n      0x00\n        /* \"Escrow.sol\":804:826  _factory != address(0) */\n      0xffffffffffffffffffffffffffffffffffffffff\n      and\n        /* \"Escrow.sol\":804:812  _factory */\n      dup2\n        /* \"Escrow.sol\":804:826  _factory != address(0) */\n      0xffffffffffffffffffffffffffffffffffffffff\n      and\n      sub\n        /* \"Escrow.sol\":796:846  require(_factory != address(0), \"Invalid address\") */\n      tag_81\n      jumpi\n      mload(0x40)\n      0x08c379a000000000000000000000000000000000000000000000000000000000\n      dup2\n      mstore\n      0x04\n      add\n      tag_82\n      swap1\n      tag_83\n      jump\t// in\n    tag_82:\n      mload(0x40)\n      dup1\n      swap2\n      sub\n      swap1\n      revert\n    tag_81:\n        /* \"Escrow.sol\":867:875  _factory */\n      dup1\n        /* \"Escrow.sol\":857:864  factory */\n      0x01\n      0x00\n        /* \"Escrow.sol\":857:875  factory = _factory */\n      0x0100\n      exp\n      dup2\n      sload\n      dup2\n      0xffffffffffffffffffffffffffffffffffffffff\n      mul\n      not\n      and\n      swap1\n      dup4\n      0xffffffffffffffffffffffffffffffffffffffff\n      and\n      mul\n      or\n      swap1\n      sstore\n      pop\n        /* \"Escrow.sol\":899:903  true */\n      0x01\n        /* \"Escrow.sol\":886:896  factorySet */\n      dup1\n      0x14\n        /* \"Escrow.sol\":886:903  factorySet = true */\n      0x0100\n      exp\n      dup2\n      sload\n      dup2\n      0xff\n      mul\n      not\n      and\n      swap1\n      dup4\n      iszero\n      iszero\n      mul\n      or\n      swap1\n      sstore\n      pop\n        /* \"Escrow.sol\":684:911  function setFactory(address _factory) external {... */\n      pop\n      jump\t// out\n        /* \"Escrow.sol\":1675:2065  function refundFunds(uint256 _taskId, address _creator) external onlyFactory {... */\n    tag_32:\n        /* \"Escrow.sol\":490:497  factory */\n      0x01\n      0x00\n      swap1\n      sload\n      swap1\n      0x0100\n      exp\n      swap1\n      div\n      0xffffffffffffffffffffffffffffffffffffffff\n      and\n        /* \"Escrow.sol\":476:497  msg.sender == factory */\n      0xffffffffffffffffffffffffffffffffffffffff\n      and\n        /* \"Escrow.sol\":476:486  msg.sender */\n      caller\n        /* \"Escrow.sol\":476:497  msg.sender == factory */\n      0xffffffffffffffffffffffffffffffffffffffff\n      and\n      eq\n        /* \"Escrow.sol\":468:526  require(msg.sender == factory, \"Only factory can operate\") */\n      tag_85\n      jumpi\n      mload(0x40)\n      0x08c379a000000000000000000000000000000000000000000000000000000000\n      dup2\n      mstore\n      0x04\n      add\n      tag_86\n      swap1\n      tag_52\n      jump\t// in\n    tag_86:\n      mload(0x40)\n      dup1\n      swap2\n      sub\n      swap1\n      revert\n    tag_85:\n        /* \"Escrow.sol\":1763:1777  uint256 amount */\n      0x00\n        /* \"Escrow.sol\":1780:1789  taskFunds */\n      0x00\n        /* \"Escrow.sol\":1780:1798  taskFunds[_taskId] */\n      0x00\n        /* \"Escrow.sol\":1790:1797  _taskId */\n      dup5\n        /* \"Escrow.sol\":1780:1798  taskFunds[_taskId] */\n      dup2\n      mstore\n      0x20\n      add\n      swap1\n      dup2\n      mstore\n      0x20\n      add\n      0x00\n      keccak256\n      sload\n        /* \"Escrow.sol\":1763:1798  uint256 amount = taskFunds[_taskId] */\n      swap1\n      pop\n        /* \"Escrow.sol\":1826:1827  0 */\n      0x00\n        /* \"Escrow.sol\":1817:1823  amount */\n      dup2\n        /* \"Escrow.sol\":1817:1827  amount > 0 */\n      gt\n        /* \"Escrow.sol\":1809:1850  require(amount > 0, \"No funds to refund\") */\n      tag_88\n      jumpi\n      mload(0x40)\n      0x08c379a000000000000000000000000000000000000000000000000000000000\n      dup2\n      mstore\n      0x04\n      add\n      tag_89\n      swap1\n      tag_90\n      jump\t// in\n    tag_89:\n      mload(0x40)\n      dup1\n      swap2\n      sub\n      swap1\n      revert\n    tag_88:\n        /* \"Escrow.sol\":1889:1890  0 */\n      0x00\n        /* \"Escrow.sol\":1869:1891  _creator != address(0) */\n      0xffffffffffffffffffffffffffffffffffffffff\n      and\n        /* \"Escrow.sol\":1869:1877  _creator */\n      dup3\n        /* \"Escrow.sol\":1869:1891  _creator != address(0) */\n      0xffffffffffffffffffffffffffffffffffffffff\n      and\n      sub\n        /* \"Escrow.sol\":1861:1919  require(_creator != address(0), \"Invalid creator address\") */\n      tag_91\n      jumpi\n      mload(0x40)\n      0x08c379a000000000000000000000000000000000000000000000000000000000\n      dup2\n      mstore\n      0x04\n      add\n      tag_92\n      swap1\n      tag_93\n      jump\t// in\n    tag_92:\n      mload(0x40)\n      dup1\n      swap2\n      sub\n      swap1\n      revert\n    tag_91:\n        /* \"Escrow.sol\":1953:1954  0 */\n      0x00\n        /* \"Escrow.sol\":1932:1941  taskFunds */\n      0x00\n        /* \"Escrow.sol\":1932:1950  taskFunds[_taskId] */\n      0x00\n        /* \"Escrow.sol\":1942:1949  _taskId */\n      dup6\n        /* \"Escrow.sol\":1932:1950  taskFunds[_taskId] */\n      dup2\n      mstore\n      0x20\n      add\n      swap1\n      dup2\n      mstore\n      0x20\n      add\n      0x00\n      keccak256\n        /* \"Escrow.sol\":1932:1954  taskFunds[_taskId] = 0 */\n      dup2\n      swap1\n      sstore\n      pop\n        /* \"Escrow.sol\":1973:1981  _creator */\n      dup2\n        /* \"Escrow.sol\":1965:1991  payable(_creator).transfer */\n      0xffffffffffffffffffffffffffffffffffffffff\n      and\n        /* \"Escrow.sol\":1965:1999  payable(_creator).transfer(amount) */\n      0x08fc\n        /* \"Escrow.sol\":1992:1998  amount */\n      dup3\n        /* \"Escrow.sol\":1965:1999  payable(_creator).transfer(amount) */\n      swap1\n      dup2\n      iszero\n      mul\n      swap1\n      mload(0x40)\n      0x00\n      mload(0x40)\n      dup1\n      dup4\n      sub\n      dup2\n      dup6\n      dup9\n      dup9\n      call\n      swap4\n      pop\n      pop\n      pop\n      pop\n      iszero\n      dup1\n      iszero\n      tag_95\n      jumpi\n      returndatacopy(0x00, 0x00, returndatasize)\n      revert(0x00, returndatasize)\n    tag_95:\n      pop\n        /* \"Escrow.sol\":2031:2038  _taskId */\n      dup3\n        /* \"Escrow.sol\":2017:2057  FundsRefunded(_taskId, _creator, amount) */\n      0x80b577b4fc190ab86d963549e29f496afd079c5d81a2480d61217d4b5060a28c\n        /* \"Escrow.sol\":2040:2048  _creator */\n      dup4\n        /* \"Escrow.sol\":2050:2056  amount */\n      dup4\n        /* \"Escrow.sol\":2017:2057  FundsRefunded(_taskId, _creator, amount) */\n      mload(0x40)\n      tag_96\n      swap3\n      swap2\n      swap1\n      tag_97\n      jump\t// in\n    tag_96:\n      mload(0x40)\n      dup1\n      swap2\n      sub\n      swap1\n      log2\n        /* \"Escrow.sol\":1752:2065  {... */\n      pop\n        /* \"Escrow.sol\":1675:2065  function refundFunds(uint256 _taskId, address _creator) external onlyFactory {... */\n      pop\n      pop\n      jump\t// out\n        /* \"Escrow.sol\":92:136  mapping(uint256 => uint256) public taskFunds */\n    tag_36:\n      mstore(0x20, 0x00)\n      dup1\n      0x00\n      mstore\n      keccak256(0x00, 0x40)\n      0x00\n      swap2\n      pop\n      swap1\n      pop\n      sload\n      dup2\n      jump\t// out\n        /* \"Escrow.sol\":143:165  address public factory */\n    tag_41:\n      0x01\n      0x00\n      swap1\n      sload\n      swap1\n      0x0100\n      exp\n      swap1\n      div\n      0xffffffffffffffffffffffffffffffffffffffff\n      and\n      dup2\n      jump\t// out\n        /* \"Escrow.sol\":172:202  bool public factorySet = false */\n    tag_46:\n      0x01\n      0x14\n      swap1\n      sload\n      swap1\n      0x0100\n      exp\n      swap1\n      div\n      0xff\n      and\n      dup2\n      jump\t// out\n        /* \"#utility.yul\":88:205   */\n    tag_99:\n        /* \"#utility.yul\":197:198   */\n      0x00\n        /* \"#utility.yul\":194:195   */\n      0x00\n        /* \"#utility.yul\":187:199   */\n      revert\n        /* \"#utility.yul\":334:411   */\n    tag_101:\n        /* \"#utility.yul\":371:378   */\n      0x00\n        /* \"#utility.yul\":400:405   */\n      dup2\n        /* \"#utility.yul\":389:405   */\n      swap1\n      pop\n        /* \"#utility.yul\":334:411   */\n      swap2\n      swap1\n      pop\n      jump\t// out\n        /* \"#utility.yul\":417:539   */\n    tag_102:\n        /* \"#utility.yul\":490:514   */\n      tag_136\n        /* \"#utility.yul\":508:513   */\n      dup2\n        /* \"#utility.yul\":490:514   */\n      tag_101\n      jump\t// in\n    tag_136:\n        /* \"#utility.yul\":483:488   */\n      dup2\n        /* \"#utility.yul\":480:515   */\n      eq\n        /* \"#utility.yul\":470:533   */\n      tag_137\n      jumpi\n        /* \"#utility.yul\":529:530   */\n      0x00\n        /* \"#utility.yul\":526:527   */\n      0x00\n        /* \"#utility.yul\":519:531   */\n      revert\n        /* \"#utility.yul\":470:533   */\n    tag_137:\n        /* \"#utility.yul\":417:539   */\n      pop\n      jump\t// out\n        /* \"#utility.yul\":545:684   */\n    tag_103:\n        /* \"#utility.yul\":591:596   */\n      0x00\n        /* \"#utility.yul\":629:635   */\n      dup2\n        /* \"#utility.yul\":616:636   */\n      calldataload\n        /* \"#utility.yul\":607:636   */\n      swap1\n      pop\n        /* \"#utility.yul\":645:678   */\n      tag_139\n        /* \"#utility.yul\":672:677   */\n      dup2\n        /* \"#utility.yul\":645:678   */\n      tag_102\n      jump\t// in\n    tag_139:\n        /* \"#utility.yul\":545:684   */\n      swap3\n      swap2\n      pop\n      pop\n      jump\t// out\n        /* \"#utility.yul\":690:816   */\n    tag_104:\n        /* \"#utility.yul\":727:734   */\n      0x00\n        /* \"#utility.yul\":767:809   */\n      0xffffffffffffffffffffffffffffffffffffffff\n        /* \"#utility.yul\":760:765   */\n      dup3\n        /* \"#utility.yul\":756:810   */\n      and\n        /* \"#utility.yul\":745:810   */\n      swap1\n      pop\n        /* \"#utility.yul\":690:816   */\n      swap2\n      swap1\n      pop\n      jump\t// out\n        /* \"#utility.yul\":822:918   */\n    tag_105:\n        /* \"#utility.yul\":859:866   */\n      0x00\n        /* \"#utility.yul\":888:912   */\n      tag_142\n        /* \"#utility.yul\":906:911   */\n      dup3\n        /* \"#utility.yul\":888:912   */\n      tag_104\n      jump\t// in\n    tag_142:\n        /* \"#utility.yul\":877:912   */\n      swap1\n      pop\n        /* \"#utility.yul\":822:918   */\n      swap2\n      swap1\n      pop\n      jump\t// out\n        /* \"#utility.yul\":924:1046   */\n    tag_106:\n        /* \"#utility.yul\":997:1021   */\n      tag_144\n        /* \"#utility.yul\":1015:1020   */\n      dup2\n        /* \"#utility.yul\":997:1021   */\n      tag_105\n      jump\t// in\n    tag_144:\n        /* \"#utility.yul\":990:995   */\n      dup2\n        /* \"#utility.yul\":987:1022   */\n      eq\n        /* \"#utility.yul\":977:1040   */\n      tag_145\n      jumpi\n        /* \"#utility.yul\":1036:1037   */\n      0x00\n        /* \"#utility.yul\":1033:1034   */\n      0x00\n        /* \"#utility.yul\":1026:1038   */\n      revert\n        /* \"#utility.yul\":977:1040   */\n    tag_145:\n        /* \"#utility.yul\":924:1046   */\n      pop\n      jump\t// out\n        /* \"#utility.yul\":1052:1191   */\n    tag_107:\n        /* \"#utility.yul\":1098:1103   */\n      0x00\n        /* \"#utility.yul\":1136:1142   */\n      dup2\n        /* \"#utility.yul\":1123:1143   */\n      calldataload\n        /* \"#utility.yul\":1114:1143   */\n      swap1\n      pop\n        /* \"#utility.yul\":1152:1185   */\n      tag_147\n        /* \"#utility.yul\":1179:1184   */\n      dup2\n        /* \"#utility.yul\":1152:1185   */\n      tag_106\n      jump\t// in\n    tag_147:\n        /* \"#utility.yul\":1052:1191   */\n      swap3\n      swap2\n      pop\n      pop\n      jump\t// out\n        /* \"#utility.yul\":1197:1671   */\n    tag_14:\n        /* \"#utility.yul\":1265:1271   */\n      0x00\n        /* \"#utility.yul\":1273:1279   */\n      0x00\n        /* \"#utility.yul\":1322:1324   */\n      0x40\n        /* \"#utility.yul\":1310:1319   */\n      dup4\n        /* \"#utility.yul\":1301:1308   */\n      dup6\n        /* \"#utility.yul\":1297:1320   */\n      sub\n        /* \"#utility.yul\":1293:1325   */\n      slt\n        /* \"#utility.yul\":1290:1409   */\n      iszero\n      tag_149\n      jumpi\n        /* \"#utility.yul\":1328:1407   */\n      tag_150\n      tag_99\n      jump\t// in\n    tag_150:\n        /* \"#utility.yul\":1290:1409   */\n    tag_149:\n        /* \"#utility.yul\":1448:1449   */\n      0x00\n        /* \"#utility.yul\":1473:1526   */\n      tag_151\n        /* \"#utility.yul\":1518:1525   */\n      dup6\n        /* \"#utility.yul\":1509:1515   */\n      dup3\n        /* \"#utility.yul\":1498:1507   */\n      dup7\n        /* \"#utility.yul\":1494:1516   */\n      add\n        /* \"#utility.yul\":1473:1526   */\n      tag_103\n      jump\t// in\n    tag_151:\n        /* \"#utility.yul\":1463:1526   */\n      swap3\n      pop\n        /* \"#utility.yul\":1419:1536   */\n      pop\n        /* \"#utility.yul\":1575:1577   */\n      0x20\n        /* \"#utility.yul\":1601:1654   */\n      tag_152\n        /* \"#utility.yul\":1646:1653   */\n      dup6\n        /* \"#utility.yul\":1637:1643   */\n      dup3\n        /* \"#utility.yul\":1626:1635   */\n      dup7\n        /* \"#utility.yul\":1622:1644   */\n      add\n        /* \"#utility.yul\":1601:1654   */\n      tag_107\n      jump\t// in\n    tag_152:\n        /* \"#utility.yul\":1591:1654   */\n      swap2\n      pop\n        /* \"#utility.yul\":1546:1664   */\n      pop\n        /* \"#utility.yul\":1197:1671   */\n      swap3\n      pop\n      swap3\n      swap1\n      pop\n      jump\t// out\n        /* \"#utility.yul\":1677:2006   */\n    tag_18:\n        /* \"#utility.yul\":1736:1742   */\n      0x00\n        /* \"#utility.yul\":1785:1787   */\n      0x20\n        /* \"#utility.yul\":1773:1782   */\n      dup3\n        /* \"#utility.yul\":1764:1771   */\n      dup5\n        /* \"#utility.yul\":1760:1783   */\n      sub\n        /* \"#utility.yul\":1756:1788   */\n      slt\n        /* \"#utility.yul\":1753:1872   */\n      iszero\n      tag_154\n      jumpi\n        /* \"#utility.yul\":1791:1870   */\n      tag_155\n      tag_99\n      jump\t// in\n    tag_155:\n        /* \"#utility.yul\":1753:1872   */\n    tag_154:\n        /* \"#utility.yul\":1911:1912   */\n      0x00\n        /* \"#utility.yul\":1936:1989   */\n      tag_156\n        /* \"#utility.yul\":1981:1988   */\n      dup5\n        /* \"#utility.yul\":1972:1978   */\n      dup3\n        /* \"#utility.yul\":1961:1970   */\n      dup6\n        /* \"#utility.yul\":1957:1979   */\n      add\n        /* \"#utility.yul\":1936:1989   */\n      tag_103\n      jump\t// in\n    tag_156:\n        /* \"#utility.yul\":1926:1989   */\n      swap2\n      pop\n        /* \"#utility.yul\":1882:1999   */\n      pop\n        /* \"#utility.yul\":1677:2006   */\n      swap3\n      swap2\n      pop\n      pop\n      jump\t// out\n        /* \"#utility.yul\":2012:2341   */\n    tag_27:\n        /* \"#utility.yul\":2071:2077   */\n      0x00\n        /* \"#utility.yul\":2120:2122   */\n      0x20\n        /* \"#utility.yul\":2108:2117   */\n      dup3\n        /* \"#utility.yul\":2099:2106   */\n      dup5\n        /* \"#utility.yul\":2095:2118   */\n      sub\n        /* \"#utility.yul\":2091:2123   */\n      slt\n        /* \"#utility.yul\":2088:2207   */\n      iszero\n      tag_158\n      jumpi\n        /* \"#utility.yul\":2126:2205   */\n      tag_159\n      tag_99\n      jump\t// in\n    tag_159:\n        /* \"#utility.yul\":2088:2207   */\n    tag_158:\n        /* \"#utility.yul\":2246:2247   */\n      0x00\n        /* \"#utility.yul\":2271:2324   */\n      tag_160\n        /* \"#utility.yul\":2316:2323   */\n      dup5\n        /* \"#utility.yul\":2307:2313   */\n      dup3\n        /* \"#utility.yul\":2296:2305   */\n      dup6\n        /* \"#utility.yul\":2292:2314   */\n      add\n        /* \"#utility.yul\":2271:2324   */\n      tag_107\n      jump\t// in\n    tag_160:\n        /* \"#utility.yul\":2261:2324   */\n      swap2\n      pop\n        /* \"#utility.yul\":2217:2334   */\n      pop\n        /* \"#utility.yul\":2012:2341   */\n      swap3\n      swap2\n      pop\n      pop\n      jump\t// out\n        /* \"#utility.yul\":2347:2465   */\n    tag_108:\n        /* \"#utility.yul\":2434:2458   */\n      tag_162\n        /* \"#utility.yul\":2452:2457   */\n      dup2\n        /* \"#utility.yul\":2434:2458   */\n      tag_101\n      jump\t// in\n    tag_162:\n        /* \"#utility.yul\":2429:2432   */\n      dup3\n        /* \"#utility.yul\":2422:2459   */\n      mstore\n        /* \"#utility.yul\":2347:2465   */\n      pop\n      pop\n      jump\t// out\n        /* \"#utility.yul\":2471:2693   */\n    tag_38:\n        /* \"#utility.yul\":2564:2568   */\n      0x00\n        /* \"#utility.yul\":2602:2604   */\n      0x20\n        /* \"#utility.yul\":2591:2600   */\n      dup3\n        /* \"#utility.yul\":2587:2605   */\n      add\n        /* \"#utility.yul\":2579:2605   */\n      swap1\n      pop\n        /* \"#utility.yul\":2615:2686   */\n      tag_164\n        /* \"#utility.yul\":2683:2684   */\n      0x00\n        /* \"#utility.yul\":2672:2681   */\n      dup4\n        /* \"#utility.yul\":2668:2685   */\n      add\n        /* \"#utility.yul\":2659:2665   */\n      dup5\n        /* \"#utility.yul\":2615:2686   */\n      tag_108\n      jump\t// in\n    tag_164:\n        /* \"#utility.yul\":2471:2693   */\n      swap3\n      swap2\n      pop\n      pop\n      jump\t// out\n        /* \"#utility.yul\":2699:2817   */\n    tag_109:\n        /* \"#utility.yul\":2786:2810   */\n      tag_166\n        /* \"#utility.yul\":2804:2809   */\n      dup2\n        /* \"#utility.yul\":2786:2810   */\n      tag_105\n      jump\t// in\n    tag_166:\n        /* \"#utility.yul\":2781:2784   */\n      dup3\n        /* \"#utility.yul\":2774:2811   */\n      mstore\n        /* \"#utility.yul\":2699:2817   */\n      pop\n      pop\n      jump\t// out\n        /* \"#utility.yul\":2823:3045   */\n    tag_43:\n        /* \"#utility.yul\":2916:2920   */\n      0x00\n        /* \"#utility.yul\":2954:2956   */\n      0x20\n        /* \"#utility.yul\":2943:2952   */\n      dup3\n        /* \"#utility.yul\":2939:2957   */\n      add\n        /* \"#utility.yul\":2931:2957   */\n      swap1\n      pop\n        /* \"#utility.yul\":2967:3038   */\n      tag_168\n        /* \"#utility.yul\":3035:3036   */\n      0x00\n        /* \"#utility.yul\":3024:3033   */\n      dup4\n        /* \"#utility.yul\":3020:3037   */\n      add\n        /* \"#utility.yul\":3011:3017   */\n      dup5\n        /* \"#utility.yul\":2967:3038   */\n      tag_109\n      jump\t// in\n    tag_168:\n        /* \"#utility.yul\":2823:3045   */\n      swap3\n      swap2\n      pop\n      pop\n      jump\t// out\n        /* \"#utility.yul\":3051:3141   */\n    tag_110:\n        /* \"#utility.yul\":3085:3092   */\n      0x00\n        /* \"#utility.yul\":3128:3133   */\n      dup2\n        /* \"#utility.yul\":3121:3134   */\n      iszero\n        /* \"#utility.yul\":3114:3135   */\n      iszero\n        /* \"#utility.yul\":3103:3135   */\n      swap1\n      pop\n        /* \"#utility.yul\":3051:3141   */\n      swap2\n      swap1\n      pop\n      jump\t// out\n        /* \"#utility.yul\":3147:3256   */\n    tag_111:\n        /* \"#utility.yul\":3228:3249   */\n      tag_171\n        /* \"#utility.yul\":3243:3248   */\n      dup2\n        /* \"#utility.yul\":3228:3249   */\n      tag_110\n      jump\t// in\n    tag_171:\n        /* \"#utility.yul\":3223:3226   */\n      dup3\n        /* \"#utility.yul\":3216:3250   */\n      mstore\n        /* \"#utility.yul\":3147:3256   */\n      pop\n      pop\n      jump\t// out\n        /* \"#utility.yul\":3262:3472   */\n    tag_48:\n        /* \"#utility.yul\":3349:3353   */\n      0x00\n        /* \"#utility.yul\":3387:3389   */\n      0x20\n        /* \"#utility.yul\":3376:3385   */\n      dup3\n        /* \"#utility.yul\":3372:3390   */\n      add\n        /* \"#utility.yul\":3364:3390   */\n      swap1\n      pop\n        /* \"#utility.yul\":3400:3465   */\n      tag_173\n        /* \"#utility.yul\":3462:3463   */\n      0x00\n        /* \"#utility.yul\":3451:3460   */\n      dup4\n        /* \"#utility.yul\":3447:3464   */\n      add\n        /* \"#utility.yul\":3438:3444   */\n      dup5\n        /* \"#utility.yul\":3400:3465   */\n      tag_111\n      jump\t// in\n    tag_173:\n        /* \"#utility.yul\":3262:3472   */\n      swap3\n      swap2\n      pop\n      pop\n      jump\t// out\n        /* \"#utility.yul\":3478:3647   */\n    tag_112:\n        /* \"#utility.yul\":3562:3573   */\n      0x00\n        /* \"#utility.yul\":3596:3602   */\n      dup3\n        /* \"#utility.yul\":3591:3594   */\n      dup3\n        /* \"#utility.yul\":3584:3603   */\n      mstore\n        /* \"#utility.yul\":3636:3640   */\n      0x20\n        /* \"#utility.yul\":3631:3634   */\n      dup3\n        /* \"#utility.yul\":3627:3641   */\n      add\n        /* \"#utility.yul\":3612:3641   */\n      swap1\n      pop\n        /* \"#utility.yul\":3478:3647   */\n      swap3\n      swap2\n      pop\n      pop\n      jump\t// out\n        /* \"#utility.yul\":3653:3827   */\n    tag_113:\n        /* \"#utility.yul\":3793:3819   */\n      0x4f6e6c7920666163746f72792063616e206f7065726174650000000000000000\n        /* \"#utility.yul\":3789:3790   */\n      0x00\n        /* \"#utility.yul\":3781:3787   */\n      dup3\n        /* \"#utility.yul\":3777:3791   */\n      add\n        /* \"#utility.yul\":3770:3820   */\n      mstore\n        /* \"#utility.yul\":3653:3827   */\n      pop\n      jump\t// out\n        /* \"#utility.yul\":3833:4199   */\n    tag_114:\n        /* \"#utility.yul\":3975:3978   */\n      0x00\n        /* \"#utility.yul\":3996:4063   */\n      tag_177\n        /* \"#utility.yul\":4060:4062   */\n      0x18\n        /* \"#utility.yul\":4055:4058   */\n      dup4\n        /* \"#utility.yul\":3996:4063   */\n      tag_112\n      jump\t// in\n    tag_177:\n        /* \"#utility.yul\":3989:4063   */\n      swap2\n      pop\n        /* \"#utility.yul\":4072:4165   */\n      tag_178\n        /* \"#utility.yul\":4161:4164   */\n      dup3\n        /* \"#utility.yul\":4072:4165   */\n      tag_113\n      jump\t// in\n    tag_178:\n        /* \"#utility.yul\":4190:4192   */\n      0x20\n        /* \"#utility.yul\":4185:4188   */\n      dup3\n        /* \"#utility.yul\":4181:4193   */\n      add\n        /* \"#utility.yul\":4174:4193   */\n      swap1\n      pop\n        /* \"#utility.yul\":3833:4199   */\n      swap2\n      swap1\n      pop\n      jump\t// out\n        /* \"#utility.yul\":4205:4624   */\n    tag_52:\n        /* \"#utility.yul\":4371:4375   */\n      0x00\n        /* \"#utility.yul\":4409:4411   */\n      0x20\n        /* \"#utility.yul\":4398:4407   */\n      dup3\n        /* \"#utility.yul\":4394:4412   */\n      add\n        /* \"#utility.yul\":4386:4412   */\n      swap1\n      pop\n        /* \"#utility.yul\":4458:4467   */\n      dup2\n        /* \"#utility.yul\":4452:4456   */\n      dup2\n        /* \"#utility.yul\":4448:4468   */\n      sub\n        /* \"#utility.yul\":4444:4445   */\n      0x00\n        /* \"#utility.yul\":4433:4442   */\n      dup4\n        /* \"#utility.yul\":4429:4446   */\n      add\n        /* \"#utility.yul\":4422:4469   */\n      mstore\n        /* \"#utility.yul\":4486:4617   */\n      tag_180\n        /* \"#utility.yul\":4612:4616   */\n      dup2\n        /* \"#utility.yul\":4486:4617   */\n      tag_114\n      jump\t// in\n    tag_180:\n        /* \"#utility.yul\":4478:4617   */\n      swap1\n      pop\n        /* \"#utility.yul\":4205:4624   */\n      swap2\n      swap1\n      pop\n      jump\t// out\n        /* \"#utility.yul\":4630:4802   */\n    tag_115:\n        /* \"#utility.yul\":4770:4794   */\n      0x496e76616c69642077696e6e6572206164647265737300000000000000000000\n        /* \"#utility.yul\":4766:4767   */\n      0x00\n        /* \"#utility.yul\":4758:4764   */\n      dup3\n        /* \"#utility.yul\":4754:4768   */\n      add\n        /* \"#utility.yul\":4747:4795   */\n      mstore\n        /* \"#utility.yul\":4630:4802   */\n      pop\n      jump\t// out\n        /* \"#utility.yul\":4808:5174   */\n    tag_116:\n        /* \"#utility.yul\":4950:4953   */\n      0x00\n        /* \"#utility.yul\":4971:5038   */\n      tag_183\n        /* \"#utility.yul\":5035:5037   */\n      0x16\n        /* \"#utility.yul\":5030:5033   */\n      dup4\n        /* \"#utility.yul\":4971:5038   */\n      tag_112\n      jump\t// in\n    tag_183:\n        /* \"#utility.yul\":4964:5038   */\n      swap2\n      pop\n        /* \"#utility.yul\":5047:5140   */\n      tag_184\n        /* \"#utility.yul\":5136:5139   */\n      dup3\n        /* \"#utility.yul\":5047:5140   */\n      tag_115\n      jump\t// in\n    tag_184:\n        /* \"#utility.yul\":5165:5167   */\n      0x20\n        /* \"#utility.yul\":5160:5163   */\n      dup3\n        /* \"#utility.yul\":5156:5168   */\n      add\n        /* \"#utility.yul\":5149:5168   */\n      swap1\n      pop\n        /* \"#utility.yul\":4808:5174   */\n      swap2\n      swap1\n      pop\n      jump\t// out\n        /* \"#utility.yul\":5180:5599   */\n    tag_56:\n        /* \"#utility.yul\":5346:5350   */\n      0x00\n        /* \"#utility.yul\":5384:5386   */\n      0x20\n        /* \"#utility.yul\":5373:5382   */\n      dup3\n        /* \"#utility.yul\":5369:5387   */\n      add\n        /* \"#utility.yul\":5361:5387   */\n      swap1\n      pop\n        /* \"#utility.yul\":5433:5442   */\n      dup2\n        /* \"#utility.yul\":5427:5431   */\n      dup2\n        /* \"#utility.yul\":5423:5443   */\n      sub\n        /* \"#utility.yul\":5419:5420   */\n      0x00\n        /* \"#utility.yul\":5408:5417   */\n      dup4\n        /* \"#utility.yul\":5404:5421   */\n      add\n        /* \"#utility.yul\":5397:5444   */\n      mstore\n        /* \"#utility.yul\":5461:5592   */\n      tag_186\n        /* \"#utility.yul\":5587:5591   */\n      dup2\n        /* \"#utility.yul\":5461:5592   */\n      tag_116\n      jump\t// in\n    tag_186:\n        /* \"#utility.yul\":5453:5592   */\n      swap1\n      pop\n        /* \"#utility.yul\":5180:5599   */\n      swap2\n      swap1\n      pop\n      jump\t// out\n        /* \"#utility.yul\":5605:5773   */\n    tag_117:\n        /* \"#utility.yul\":5745:5765   */\n      0x4e6f2066756e647320617661696c61626c650000000000000000000000000000\n        /* \"#utility.yul\":5741:5742   */\n      0x00\n        /* \"#utility.yul\":5733:5739   */\n      dup3\n        /* \"#utility.yul\":5729:5743   */\n      add\n        /* \"#utility.yul\":5722:5766   */\n      mstore\n        /* \"#utility.yul\":5605:5773   */\n      pop\n      jump\t// out\n        /* \"#utility.yul\":5779:6145   */\n    tag_118:\n        /* \"#utility.yul\":5921:5924   */\n      0x00\n        /* \"#utility.yul\":5942:6009   */\n      tag_189\n        /* \"#utility.yul\":6006:6008   */\n      0x12\n        /* \"#utility.yul\":6001:6004   */\n      dup4\n        /* \"#utility.yul\":5942:6009   */\n      tag_112\n      jump\t// in\n    tag_189:\n        /* \"#utility.yul\":5935:6009   */\n      swap2\n      pop\n        /* \"#utility.yul\":6018:6111   */\n      tag_190\n        /* \"#utility.yul\":6107:6110   */\n      dup3\n        /* \"#utility.yul\":6018:6111   */\n      tag_117\n      jump\t// in\n    tag_190:\n        /* \"#utility.yul\":6136:6138   */\n      0x20\n        /* \"#utility.yul\":6131:6134   */\n      dup3\n        /* \"#utility.yul\":6127:6139   */\n      add\n        /* \"#utility.yul\":6120:6139   */\n      swap1\n      pop\n        /* \"#utility.yul\":5779:6145   */\n      swap2\n      swap1\n      pop\n      jump\t// out\n        /* \"#utility.yul\":6151:6570   */\n    tag_59:\n        /* \"#utility.yul\":6317:6321   */\n      0x00\n        /* \"#utility.yul\":6355:6357   */\n      0x20\n        /* \"#utility.yul\":6344:6353   */\n      dup3\n        /* \"#utility.yul\":6340:6358   */\n      add\n        /* \"#utility.yul\":6332:6358   */\n      swap1\n      pop\n        /* \"#utility.yul\":6404:6413   */\n      dup2\n        /* \"#utility.yul\":6398:6402   */\n      dup2\n        /* \"#utility.yul\":6394:6414   */\n      sub\n        /* \"#utility.yul\":6390:6391   */\n      0x00\n        /* \"#utility.yul\":6379:6388   */\n      dup4\n        /* \"#utility.yul\":6375:6392   */\n      add\n        /* \"#utility.yul\":6368:6415   */\n      mstore\n        /* \"#utility.yul\":6432:6563   */\n      tag_192\n        /* \"#utility.yul\":6558:6562   */\n      dup2\n        /* \"#utility.yul\":6432:6563   */\n      tag_118\n      jump\t// in\n    tag_192:\n        /* \"#utility.yul\":6424:6563   */\n      swap1\n      pop\n        /* \"#utility.yul\":6151:6570   */\n      swap2\n      swap1\n      pop\n      jump\t// out\n        /* \"#utility.yul\":6576:6739   */\n    tag_119:\n        /* \"#utility.yul\":6716:6731   */\n      0x4e6f2066756e64732073656e7400000000000000000000000000000000000000\n        /* \"#utility.yul\":6712:6713   */\n      0x00\n        /* \"#utility.yul\":6704:6710   */\n      dup3\n        /* \"#utility.yul\":6700:6714   */\n      add\n        /* \"#utility.yul\":6693:6732   */\n      mstore\n        /* \"#utility.yul\":6576:6739   */\n      pop\n      jump\t// out\n        /* \"#utility.yul\":6745:7111   */\n    tag_120:\n        /* \"#utility.yul\":6887:6890   */\n      0x00\n        /* \"#utility.yul\":6908:6975   */\n      tag_195\n        /* \"#utility.yul\":6972:6974   */\n      0x0d\n        /* \"#utility.yul\":6967:6970   */\n      dup4\n        /* \"#utility.yul\":6908:6975   */\n      tag_112\n      jump\t// in\n    tag_195:\n        /* \"#utility.yul\":6901:6975   */\n      swap2\n      pop\n        /* \"#utility.yul\":6984:7077   */\n      tag_196\n        /* \"#utility.yul\":7073:7076   */\n      dup3\n        /* \"#utility.yul\":6984:7077   */\n      tag_119\n      jump\t// in\n    tag_196:\n        /* \"#utility.yul\":7102:7104   */\n      0x20\n        /* \"#utility.yul\":7097:7100   */\n      dup3\n        /* \"#utility.yul\":7093:7105   */\n      add\n        /* \"#utility.yul\":7086:7105   */\n      swap1\n      pop\n        /* \"#utility.yul\":6745:7111   */\n      swap2\n      swap1\n      pop\n      jump\t// out\n        /* \"#utility.yul\":7117:7536   */\n    tag_69:\n        /* \"#utility.yul\":7283:7287   */\n      0x00\n        /* \"#utility.yul\":7321:7323   */\n      0x20\n        /* \"#utility.yul\":7310:7319   */\n      dup3\n        /* \"#utility.yul\":7306:7324   */\n      add\n        /* \"#utility.yul\":7298:7324   */\n      swap1\n      pop\n        /* \"#utility.yul\":7370:7379   */\n      dup2\n        /* \"#utility.yul\":7364:7368   */\n      dup2\n        /* \"#utility.yul\":7360:7380   */\n      sub\n        /* \"#utility.yul\":7356:7357   */\n      0x00\n        /* \"#utility.yul\":7345:7354   */\n      dup4\n        /* \"#utility.yul\":7341:7358   */\n      add\n        /* \"#utility.yul\":7334:7381   */\n      mstore\n        /* \"#utility.yul\":7398:7529   */\n      tag_198\n        /* \"#utility.yul\":7524:7528   */\n      dup2\n        /* \"#utility.yul\":7398:7529   */\n      tag_120\n      jump\t// in\n    tag_198:\n        /* \"#utility.yul\":7390:7529   */\n      swap1\n      pop\n        /* \"#utility.yul\":7117:7536   */\n      swap2\n      swap1\n      pop\n      jump\t// out\n        /* \"#utility.yul\":7542:7722   */\n    tag_121:\n        /* \"#utility.yul\":7590:7667   */\n      0x4e487b7100000000000000000000000000000000000000000000000000000000\n        /* \"#utility.yul\":7587:7588   */\n      0x00\n        /* \"#utility.yul\":7580:7668   */\n      mstore\n        /* \"#utility.yul\":7687:7691   */\n      0x11\n        /* \"#utility.yul\":7684:7685   */\n      0x04\n        /* \"#utility.yul\":7677:7692   */\n      mstore\n        /* \"#utility.yul\":7711:7715   */\n      0x24\n        /* \"#utility.yul\":7708:7709   */\n      0x00\n        /* \"#utility.yul\":7701:7716   */\n      revert\n        /* \"#utility.yul\":7728:7919   */\n    tag_71:\n        /* \"#utility.yul\":7768:7771   */\n      0x00\n        /* \"#utility.yul\":7787:7807   */\n      tag_201\n        /* \"#utility.yul\":7805:7806   */\n      dup3\n        /* \"#utility.yul\":7787:7807   */\n      tag_101\n      jump\t// in\n    tag_201:\n        /* \"#utility.yul\":7782:7807   */\n      swap2\n      pop\n        /* \"#utility.yul\":7821:7841   */\n      tag_202\n        /* \"#utility.yul\":7839:7840   */\n      dup4\n        /* \"#utility.yul\":7821:7841   */\n      tag_101\n      jump\t// in\n    tag_202:\n        /* \"#utility.yul\":7816:7841   */\n      swap3\n      pop\n        /* \"#utility.yul\":7864:7865   */\n      dup3\n        /* \"#utility.yul\":7861:7862   */\n      dup3\n        /* \"#utility.yul\":7857:7866   */\n      add\n        /* \"#utility.yul\":7850:7866   */\n      swap1\n      pop\n        /* \"#utility.yul\":7885:7888   */\n      dup1\n        /* \"#utility.yul\":7882:7883   */\n      dup3\n        /* \"#utility.yul\":7879:7889   */\n      gt\n        /* \"#utility.yul\":7876:7912   */\n      iszero\n      tag_203\n      jumpi\n        /* \"#utility.yul\":7892:7910   */\n      tag_204\n      tag_121\n      jump\t// in\n    tag_204:\n        /* \"#utility.yul\":7876:7912   */\n    tag_203:\n        /* \"#utility.yul\":7728:7919   */\n      swap3\n      swap2\n      pop\n      pop\n      jump\t// out\n        /* \"#utility.yul\":7925:8094   */\n    tag_122:\n        /* \"#utility.yul\":8065:8086   */\n      0x466163746f727920616c72656164792073657400000000000000000000000000\n        /* \"#utility.yul\":8061:8062   */\n      0x00\n        /* \"#utility.yul\":8053:8059   */\n      dup3\n        /* \"#utility.yul\":8049:8063   */\n      add\n        /* \"#utility.yul\":8042:8087   */\n      mstore\n        /* \"#utility.yul\":7925:8094   */\n      pop\n      jump\t// out\n        /* \"#utility.yul\":8100:8466   */\n    tag_123:\n        /* \"#utility.yul\":8242:8245   */\n      0x00\n        /* \"#utility.yul\":8263:8330   */\n      tag_207\n        /* \"#utility.yul\":8327:8329   */\n      0x13\n        /* \"#utility.yul\":8322:8325   */\n      dup4\n        /* \"#utility.yul\":8263:8330   */\n      tag_112\n      jump\t// in\n    tag_207:\n        /* \"#utility.yul\":8256:8330   */\n      swap2\n      pop\n        /* \"#utility.yul\":8339:8432   */\n      tag_208\n        /* \"#utility.yul\":8428:8431   */\n      dup3\n        /* \"#utility.yul\":8339:8432   */\n      tag_122\n      jump\t// in\n    tag_208:\n        /* \"#utility.yul\":8457:8459   */\n      0x20\n        /* \"#utility.yul\":8452:8455   */\n      dup3\n        /* \"#utility.yul\":8448:8460   */\n      add\n        /* \"#utility.yul\":8441:8460   */\n      swap1\n      pop\n        /* \"#utility.yul\":8100:8466   */\n      swap2\n      swap1\n      pop\n      jump\t// out\n        /* \"#utility.yul\":8472:8891   */\n    tag_80:\n        /* \"#utility.yul\":8638:8642   */\n      0x00\n        /* \"#utility.yul\":8676:8678   */\n      0x20\n        /* \"#utility.yul\":8665:8674   */\n      dup3\n        /* \"#utility.yul\":8661:8679   */\n      add\n        /* \"#utility.yul\":8653:8679   */\n      swap1\n      pop\n        /* \"#utility.yul\":8725:8734   */\n      dup2\n        /* \"#utility.yul\":8719:8723   */\n      dup2\n        /* \"#utility.yul\":8715:8735   */\n      sub\n        /* \"#utility.yul\":8711:8712   */\n      0x00\n        /* \"#utility.yul\":8700:8709   */\n      dup4\n        /* \"#utility.yul\":8696:8713   */\n      add\n        /* \"#utility.yul\":8689:8736   */\n      mstore\n        /* \"#utility.yul\":8753:8884   */\n      tag_210\n        /* \"#utility.yul\":8879:8883   */\n      dup2\n        /* \"#utility.yul\":8753:8884   */\n      tag_123\n      jump\t// in\n    tag_210:\n        /* \"#utility.yul\":8745:8884   */\n      swap1\n      pop\n        /* \"#utility.yul\":8472:8891   */\n      swap2\n      swap1\n      pop\n      jump\t// out\n        /* \"#utility.yul\":8897:9062   */\n    tag_124:\n        /* \"#utility.yul\":9037:9054   */\n      0x496e76616c696420616464726573730000000000000000000000000000000000\n        /* \"#utility.yul\":9033:9034   */\n      0x00\n        /* \"#utility.yul\":9025:9031   */\n      dup3\n        /* \"#utility.yul\":9021:9035   */\n      add\n        /* \"#utility.yul\":9014:9055   */\n      mstore\n        /* \"#utility.yul\":8897:9062   */\n      pop\n      jump\t// out\n        /* \"#utility.yul\":9068:9434   */\n    tag_125:\n        /* \"#utility.yul\":9210:9213   */\n      0x00\n        /* \"#utility.yul\":9231:9298   */\n      tag_213\n        /* \"#utility.yul\":9295:9297   */\n      0x0f\n        /* \"#utility.yul\":9290:9293   */\n      dup4\n        /* \"#utility.yul\":9231:9298   */\n      tag_112\n      jump\t// in\n    tag_213:\n        /* \"#utility.yul\":9224:9298   */\n      swap2\n      pop\n        /* \"#utility.yul\":9307:9400   */\n      tag_214\n        /* \"#utility.yul\":9396:9399   */\n      dup3\n        /* \"#utility.yul\":9307:9400   */\n      tag_124\n      jump\t// in\n    tag_214:\n        /* \"#utility.yul\":9425:9427   */\n      0x20\n        /* \"#utility.yul\":9420:9423   */\n      dup3\n        /* \"#utility.yul\":9416:9428   */\n      add\n        /* \"#utility.yul\":9409:9428   */\n      swap1\n      pop\n        /* \"#utility.yul\":9068:9434   */\n      swap2\n      swap1\n      pop\n      jump\t// out\n        /* \"#utility.yul\":9440:9859   */\n    tag_83:\n        /* \"#utility.yul\":9606:9610   */\n      0x00\n        /* \"#utility.yul\":9644:9646   */\n      0x20\n        /* \"#utility.yul\":9633:9642   */\n      dup3\n        /* \"#utility.yul\":9629:9647   */\n      add\n        /* \"#utility.yul\":9621:9647   */\n      swap1\n      pop\n        /* \"#utility.yul\":9693:9702   */\n      dup2\n        /* \"#utility.yul\":9687:9691   */\n      dup2\n        /* \"#utility.yul\":9683:9703   */\n      sub\n        /* \"#utility.yul\":9679:9680   */\n      0x00\n        /* \"#utility.yul\":9668:9677   */\n      dup4\n        /* \"#utility.yul\":9664:9681   */\n      add\n        /* \"#utility.yul\":9657:9704   */\n      mstore\n        /* \"#utility.yul\":9721:9852   */\n      tag_216\n        /* \"#utility.yul\":9847:9851   */\n      dup2\n        /* \"#utility.yul\":9721:9852   */\n      tag_125\n      jump\t// in\n    tag_216:\n        /* \"#utility.yul\":9713:9852   */\n      swap1\n      pop\n        /* \"#utility.yul\":9440:9859   */\n      swap2\n      swap1\n      pop\n      jump\t// out\n        /* \"#utility.yul\":9865:10033   */\n    tag_126:\n        /* \"#utility.yul\":10005:10025   */\n      0x4e6f2066756e647320746f20726566756e640000000000000000000000000000\n        /* \"#utility.yul\":10001:10002   */\n      0x00\n        /* \"#utility.yul\":9993:9999   */\n      dup3\n        /* \"#utility.yul\":9989:10003   */\n      add\n        /* \"#utility.yul\":9982:10026   */\n      mstore\n        /* \"#utility.yul\":9865:10033   */\n      pop\n      jump\t// out\n        /* \"#utility.yul\":10039:10405   */\n    tag_127:\n        /* \"#utility.yul\":10181:10184   */\n      0x00\n        /* \"#utility.yul\":10202:10269   */\n      tag_219\n        /* \"#utility.yul\":10266:10268   */\n      0x12\n        /* \"#utility.yul\":10261:10264   */\n      dup4\n        /* \"#utility.yul\":10202:10269   */\n      tag_112\n      jump\t// in\n    tag_219:\n        /* \"#utility.yul\":10195:10269   */\n      swap2\n      pop\n        /* \"#utility.yul\":10278:10371   */\n      tag_220\n        /* \"#utility.yul\":10367:10370   */\n      dup3\n        /* \"#utility.yul\":10278:10371   */\n      tag_126\n      jump\t// in\n    tag_220:\n        /* \"#utility.yul\":10396:10398   */\n      0x20\n        /* \"#utility.yul\":10391:10394   */\n      dup3\n        /* \"#utility.yul\":10387:10399   */\n      add\n        /* \"#utility.yul\":10380:10399   */\n      swap1\n      pop\n        /* \"#utility.yul\":10039:10405   */\n      swap2\n      swap1\n      pop\n      jump\t// out\n        /* \"#utility.yul\":10411:10830   */\n    tag_90:\n        /* \"#utility.yul\":10577:10581   */\n      0x00\n        /* \"#utility.yul\":10615:10617   */\n      0x20\n        /* \"#utility.yul\":10604:10613   */\n      dup3\n        /* \"#utility.yul\":10600:10618   */\n      add\n        /* \"#utility.yul\":10592:10618   */\n      swap1\n      pop\n        /* \"#utility.yul\":10664:10673   */\n      dup2\n        /* \"#utility.yul\":10658:10662   */\n      dup2\n        /* \"#utility.yul\":10654:10674   */\n      sub\n        /* \"#utility.yul\":10650:10651   */\n      0x00\n        /* \"#utility.yul\":10639:10648   */\n      dup4\n        /* \"#utility.yul\":10635:10652   */\n      add\n        /* \"#utility.yul\":10628:10675   */\n      mstore\n        /* \"#utility.yul\":10692:10823   */\n      tag_222\n        /* \"#utility.yul\":10818:10822   */\n      dup2\n        /* \"#utility.yul\":10692:10823   */\n      tag_127\n      jump\t// in\n    tag_222:\n        /* \"#utility.yul\":10684:10823   */\n      swap1\n      pop\n        /* \"#utility.yul\":10411:10830   */\n      swap2\n      swap1\n      pop\n      jump\t// out\n        /* \"#utility.yul\":10836:11009   */\n    tag_128:\n        /* \"#utility.yul\":10976:11001   */\n      0x496e76616c69642063726561746f722061646472657373000000000000000000\n        /* \"#utility.yul\":10972:10973   */\n      0x00\n        /* \"#utility.yul\":10964:10970   */\n      dup3\n        /* \"#utility.yul\":10960:10974   */\n      add\n        /* \"#utility.yul\":10953:11002   */\n      mstore\n        /* \"#utility.yul\":10836:11009   */\n      pop\n      jump\t// out\n        /* \"#utility.yul\":11015:11381   */\n    tag_129:\n        /* \"#utility.yul\":11157:11160   */\n      0x00\n        /* \"#utility.yul\":11178:11245   */\n      tag_225\n        /* \"#utility.yul\":11242:11244   */\n      0x17\n        /* \"#utility.yul\":11237:11240   */\n      dup4\n        /* \"#utility.yul\":11178:11245   */\n      tag_112\n      jump\t// in\n    tag_225:\n        /* \"#utility.yul\":11171:11245   */\n      swap2\n      pop\n        /* \"#utility.yul\":11254:11347   */\n      tag_226\n        /* \"#utility.yul\":11343:11346   */\n      dup3\n        /* \"#utility.yul\":11254:11347   */\n      tag_128\n      jump\t// in\n    tag_226:\n        /* \"#utility.yul\":11372:11374   */\n      0x20\n        /* \"#utility.yul\":11367:11370   */\n      dup3\n        /* \"#utility.yul\":11363:11375   */\n      add\n        /* \"#utility.yul\":11356:11375   */\n      swap1\n      pop\n        /* \"#utility.yul\":11015:11381   */\n      swap2\n      swap1\n      pop\n      jump\t// out\n        /* \"#utility.yul\":11387:11806   */\n    tag_93:\n        /* \"#utility.yul\":11553:11557   */\n      0x00\n        /* \"#utility.yul\":11591:11593   */\n      0x20\n        /* \"#utility.yul\":11580:11589   */\n      dup3\n        /* \"#utility.yul\":11576:11594   */\n      add\n        /* \"#utility.yul\":11568:11594   */\n      swap1\n      pop\n        /* \"#utility.yul\":11640:11649   */\n      dup2\n        /* \"#utility.yul\":11634:11638   */\n      dup2\n        /* \"#utility.yul\":11630:11650   */\n      sub\n        /* \"#utility.yul\":11626:11627   */\n      0x00\n        /* \"#utility.yul\":11615:11624   */\n      dup4\n        /* \"#utility.yul\":11611:11628   */\n      add\n        /* \"#utility.yul\":11604:11651   */\n      mstore\n        /* \"#utility.yul\":11668:11799   */\n      tag_228\n        /* \"#utility.yul\":11794:11798   */\n      dup2\n        /* \"#utility.yul\":11668:11799   */\n      tag_129\n      jump\t// in\n    tag_228:\n        /* \"#utility.yul\":11660:11799   */\n      swap1\n      pop\n        /* \"#utility.yul\":11387:11806   */\n      swap2\n      swap1\n      pop\n      jump\t// out\n        /* \"#utility.yul\":11812:12144   */\n    tag_97:\n        /* \"#utility.yul\":11933:11937   */\n      0x00\n        /* \"#utility.yul\":11971:11973   */\n      0x40\n        /* \"#utility.yul\":11960:11969   */\n      dup3\n        /* \"#utility.yul\":11956:11974   */\n      add\n        /* \"#utility.yul\":11948:11974   */\n      swap1\n      pop\n        /* \"#utility.yul\":11984:12055   */\n      tag_230\n        /* \"#utility.yul\":12052:12053   */\n      0x00\n        /* \"#utility.yul\":12041:12050   */\n      dup4\n        /* \"#utility.yul\":12037:12054   */\n      add\n        /* \"#utility.yul\":12028:12034   */\n      dup6\n        /* \"#utility.yul\":11984:12055   */\n      tag_109\n      jump\t// in\n    tag_230:\n        /* \"#utility.yul\":12065:12137   */\n      tag_231\n        /* \"#utility.yul\":12133:12135   */\n      0x20\n        /* \"#utility.yul\":12122:12131   */\n      dup4\n        /* \"#utility.yul\":12118:12136   */\n      add\n        /* \"#utility.yul\":12109:12115   */\n      dup5\n        /* \"#utility.yul\":12065:12137   */\n      tag_108\n      jump\t// in\n    tag_231:\n        /* \"#utility.yul\":11812:12144   */\n      swap4\n      swap3\n      pop\n      pop\n      pop\n      jump\t// out\n\n    auxdata: 0xa264697066735822122007b0ccc27ed088f5c26df5ee2c2baedb4398b940f55e9e9207e568797b2dac4564736f6c634300081e0033\n}\n",
				"bytecode": {
					"linkReferences": {},
					"object": "60806040525f600160146101000a81548160ff021916908315150217905550348015610029575f5ffd5b50604051610ff4380380610ff4833981810160405281019061004b919061013d565b8060015f6101000a81548173ffffffffffffffffffffffffffffffffffffffff021916908373ffffffffffffffffffffffffffffffffffffffff1602179055505f73ffffffffffffffffffffffffffffffffffffffff168173ffffffffffffffffffffffffffffffffffffffff16146100d95760018060146101000a81548160ff0219169083151502179055505b50610168565b5f5ffd5b5f73ffffffffffffffffffffffffffffffffffffffff82169050919050565b5f61010c826100e3565b9050919050565b61011c81610102565b8114610126575f5ffd5b50565b5f8151905061013781610113565b92915050565b5f60208284031215610152576101516100df565b5b5f61015f84828501610129565b91505092915050565b610e7f806101755f395ff3fe60806040526004361061007a575f3560e01c8063779699291161004d57806377969929146101125780638833c4c31461013a578063c45a015514610176578063e21875e2146101a05761007a565b80631af23a591461007e5780633b76594d146100a65780634283271c146100c25780635bb47808146100ea575b5f5ffd5b348015610089575f5ffd5b506100a4600480360381019061009f919061095b565b6101ca565b005b6100c060048036038101906100bb9190610999565b6103b3565b005b3480156100cd575f5ffd5b506100e860048036038101906100e3919061095b565b6104e5565b005b3480156100f5575f5ffd5b50610110600480360381019061010b91906109c4565b610578565b005b34801561011d575f5ffd5b506101386004803603810190610133919061095b565b610693565b005b348015610145575f5ffd5b50610160600480360381019061015b9190610999565b61087e565b60405161016d91906109fe565b60405180910390f35b348015610181575f5ffd5b5061018a610892565b6040516101979190610a26565b60405180910390f35b3480156101ab575f5ffd5b506101b46108b7565b6040516101c19190610a59565b60405180910390f35b60015f9054906101000a900473ffffffffffffffffffffffffffffffffffffffff1673ffffffffffffffffffffffffffffffffffffffff163373ffffffffffffffffffffffffffffffffffffffff1614610259576040517f08c379a000000000000000000000000000000000000000000000000000000000815260040161025090610acc565b60405180910390fd5b5f73ffffffffffffffffffffffffffffffffffffffff168173ffffffffffffffffffffffffffffffffffffffff16036102c7576040517f08c379a00000000000000000000000000000000000000000000000000000000081526004016102be90610b34565b60405180910390fd5b5f5f5f8481526020019081526020015f205490505f811161031d576040517f08c379a000000000000000000000000000000000000000000000000000000000815260040161031490610b9c565b60405180910390fd5b5f5f5f8581526020019081526020015f20819055508173ffffffffffffffffffffffffffffffffffffffff166108fc8290811502906040515f60405180830381858888f19350505050158015610375573d5f5f3e3d5ffd5b50827f8f5073d0a7a22ba450e278541077e181af457be74bea91e61f1f99e6bb40748e836040516103a69190610a26565b60405180910390a2505050565b60015f9054906101000a900473ffffffffffffffffffffffffffffffffffffffff1673ffffffffffffffffffffffffffffffffffffffff163373ffffffffffffffffffffffffffffffffffffffff1614610442576040517f08c379a000000000000000000000000000000000000000000000000000000000815260040161043990610acc565b60405180910390fd5b5f3411610484576040517f08c379a000000000000000000000000000000000000000000000000000000000815260040161047b90610c04565b60405180910390fd5b345f5f8381526020019081526020015f205f8282546104a39190610c4f565b92505081905550807f26679fa1f3868c950e9362f1106cf73f3318de0280e0411a3c68e4b463eadd4f346040516104da91906109fe565b60405180910390a250565b60015f9054906101000a900473ffffffffffffffffffffffffffffffffffffffff1673ffffffffffffffffffffffffffffffffffffffff163373ffffffffffffffffffffffffffffffffffffffff1614610574576040517f08c379a000000000000000000000000000000000000000000000000000000000815260040161056b90610acc565b60405180910390fd5b5050565b600160149054906101000a900460ff16156105c8576040517f08c379a00000000000000000000000000000000000000000000000000000000081526004016105bf90610ccc565b60405180910390fd5b5f73ffffffffffffffffffffffffffffffffffffffff168173ffffffffffffffffffffffffffffffffffffffff1603610636576040517f08c379a000000000000000000000000000000000000000000000000000000000815260040161062d90610d34565b60405180910390fd5b8060015f6101000a81548173ffffffffffffffffffffffffffffffffffffffff021916908373ffffffffffffffffffffffffffffffffffffffff16021790555060018060146101000a81548160ff02191690831515021790555050565b60015f9054906101000a900473ffffffffffffffffffffffffffffffffffffffff1673ffffffffffffffffffffffffffffffffffffffff163373ffffffffffffffffffffffffffffffffffffffff1614610722576040517f08c379a000000000000000000000000000000000000000000000000000000000815260040161071990610acc565b60405180910390fd5b5f5f5f8481526020019081526020015f205490505f8111610778576040517f08c379a000000000000000000000000000000000000000000000000000000000815260040161076f90610d9c565b60405180910390fd5b5f73ffffffffffffffffffffffffffffffffffffffff168273ffffffffffffffffffffffffffffffffffffffff16036107e6576040517f08c379a00000000000000000000000000000000000000000000000000000000081526004016107dd90610e04565b60405180910390fd5b5f5f5f8581526020019081526020015f20819055508173ffffffffffffffffffffffffffffffffffffffff166108fc8290811502906040515f60405180830381858888f1935050505015801561083e573d5f5f3e3d5ffd5b50827f80b577b4fc190ab86d963549e29f496afd079c5d81a2480d61217d4b5060a28c8383604051610871929190610e22565b60405180910390a2505050565b5f602052805f5260405f205f915090505481565b60015f9054906101000a900473ffffffffffffffffffffffffffffffffffffffff1681565b600160149054906101000a900460ff1681565b5f5ffd5b5f819050919050565b6108e0816108ce565b81146108ea575f5ffd5b50565b5f813590506108fb816108d7565b92915050565b5f73ffffffffffffffffffffffffffffffffffffffff82169050919050565b5f61092a82610901565b9050919050565b61093a81610920565b8114610944575f5ffd5b50565b5f8135905061095581610931565b92915050565b5f5f60408385031215610971576109706108ca565b5b5f61097e858286016108ed565b925050602061098f85828601610947565b9150509250929050565b5f602082840312156109ae576109ad6108ca565b5b5f6109bb848285016108ed565b91505092915050565b5f602082840312156109d9576109d86108ca565b5b5f6109e684828501610947565b91505092915050565b6109f8816108ce565b82525050565b5f602082019050610a115f8301846109ef565b92915050565b610a2081610920565b82525050565b5f602082019050610a395f830184610a17565b92915050565b5f8115159050919050565b610a5381610a3f565b82525050565b5f602082019050610a6c5f830184610a4a565b92915050565b5f82825260208201905092915050565b7f4f6e6c7920666163746f72792063616e206f70657261746500000000000000005f82015250565b5f610ab6601883610a72565b9150610ac182610a82565b602082019050919050565b5f6020820190508181035f830152610ae381610aaa565b9050919050565b7f496e76616c69642077696e6e65722061646472657373000000000000000000005f82015250565b5f610b1e601683610a72565b9150610b2982610aea565b602082019050919050565b5f6020820190508181035f830152610b4b81610b12565b9050919050565b7f4e6f2066756e647320617661696c61626c6500000000000000000000000000005f82015250565b5f610b86601283610a72565b9150610b9182610b52565b602082019050919050565b5f6020820190508181035f830152610bb381610b7a565b9050919050565b7f4e6f2066756e64732073656e74000000000000000000000000000000000000005f82015250565b5f610bee600d83610a72565b9150610bf982610bba565b602082019050919050565b5f6020820190508181035f830152610c1b81610be2565b9050919050565b7f4e487b71000000000000000000000000000000000000000000000000000000005f52601160045260245ffd5b5f610c59826108ce565b9150610c64836108ce565b9250828201905080821115610c7c57610c7b610c22565b5b92915050565b7f466163746f727920616c726561647920736574000000000000000000000000005f82015250565b5f610cb6601383610a72565b9150610cc182610c82565b602082019050919050565b5f6020820190508181035f830152610ce381610caa565b9050919050565b7f496e76616c6964206164647265737300000000000000000000000000000000005f82015250565b5f610d1e600f83610a72565b9150610d2982610cea565b602082019050919050565b5f6020820190508181035f830152610d4b81610d12565b9050919050565b7f4e6f2066756e647320746f20726566756e6400000000000000000000000000005f82015250565b5f610d86601283610a72565b9150610d9182610d52565b602082019050919050565b5f6020820190508181035f830152610db381610d7a565b9050919050565b7f496e76616c69642063726561746f7220616464726573730000000000000000005f82015250565b5f610dee601783610a72565b9150610df982610dba565b602082019050919050565b5f6020820190508181035f830152610e1b81610de2565b9050919050565b5f604082019050610e355f830185610a17565b610e4260208301846109ef565b939250505056fea264697066735822122007b0ccc27ed088f5c26df5ee2c2baedb4398b940f55e9e9207e568797b2dac4564736f6c634300081e0033",
					"opcodes": "PUSH1 0x80 PUSH1 0x40 MSTORE PUSH0 PUSH1 0x1 PUSH1 0x14 PUSH2 0x100 EXP DUP2 SLOAD DUP2 PUSH1 0xFF MUL NOT AND SWAP1 DUP4 ISZERO ISZERO MUL OR SWAP1 SSTORE POP CALLVALUE DUP1 ISZERO PUSH2 0x29 JUMPI PUSH0 PUSH0 REVERT JUMPDEST POP PUSH1 0x40 MLOAD PUSH2 0xFF4 CODESIZE SUB DUP1 PUSH2 0xFF4 DUP4 CODECOPY DUP2 DUP2 ADD PUSH1 0x40 MSTORE DUP2 ADD SWAP1 PUSH2 0x4B SWAP2 SWAP1 PUSH2 0x13D JUMP JUMPDEST DUP1 PUSH1 0x1 PUSH0 PUSH2 0x100 EXP DUP2 SLOAD DUP2 PUSH20 0xFFFFFFFFFFFFFFFFFFFFFFFFFFFFFFFFFFFFFFFF MUL NOT AND SWAP1 DUP4 PUSH20 0xFFFFFFFFFFFFFFFFFFFFFFFFFFFFFFFFFFFFFFFF AND MUL OR SWAP1 SSTORE POP PUSH0 PUSH20 0xFFFFFFFFFFFFFFFFFFFFFFFFFFFFFFFFFFFFFFFF AND DUP2 PUSH20 0xFFFFFFFFFFFFFFFFFFFFFFFFFFFFFFFFFFFFFFFF AND EQ PUSH2 0xD9 JUMPI PUSH1 0x1 DUP1 PUSH1 0x14 PUSH2 0x100 EXP DUP2 SLOAD DUP2 PUSH1 0xFF MUL NOT AND SWAP1 DUP4 ISZERO ISZERO MUL OR SWAP1 SSTORE POP JUMPDEST POP PUSH2 0x168 JUMP JUMPDEST PUSH0 PUSH0 REVERT JUMPDEST PUSH0 PUSH20 0xFFFFFFFFFFFFFFFFFFFFFFFFFFFFFFFFFFFFFFFF DUP3 AND SWAP1 POP SWAP2 SWAP1 POP JUMP JUMPDEST PUSH0 PUSH2 0x10C DUP3 PUSH2 0xE3 JUMP JUMPDEST SWAP1 POP SWAP2 SWAP1 POP JUMP JUMPDEST PUSH2 0x11C DUP2 PUSH2 0x102 JUMP JUMPDEST DUP2 EQ PUSH2 0x126 JUMPI PUSH0 PUSH0 REVERT JUMPDEST POP JUMP JUMPDEST PUSH0 DUP2 MLOAD SWAP1 POP PUSH2 0x137 DUP2 PUSH2 0x113 JUMP JUMPDEST SWAP3 SWAP2 POP POP JUMP JUMPDEST PUSH0 PUSH1 0x20 DUP3 DUP5 SUB SLT ISZERO PUSH2 0x152 JUMPI PUSH2 0x151 PUSH2 0xDF JUMP JUMPDEST JUMPDEST PUSH0 PUSH2 0x15F DUP5 DUP3 DUP6 ADD PUSH2 0x129 JUMP JUMPDEST SWAP2 POP POP SWAP3 SWAP2 POP POP JUMP JUMPDEST PUSH2 0xE7F DUP1 PUSH2 0x175 PUSH0 CODECOPY PUSH0 RETURN INVALID PUSH1 0x80 PUSH1 0x40 MSTORE PUSH1 0x4 CALLDATASIZE LT PUSH2 0x7A JUMPI PUSH0 CALLDATALOAD PUSH1 0xE0 SHR DUP1 PUSH4 0x77969929 GT PUSH2 0x4D JUMPI DUP1 PUSH4 0x77969929 EQ PUSH2 0x112 JUMPI DUP1 PUSH4 0x8833C4C3 EQ PUSH2 0x13A JUMPI DUP1 PUSH4 0xC45A0155 EQ PUSH2 0x176 JUMPI DUP1 PUSH4 0xE21875E2 EQ PUSH2 0x1A0 JUMPI PUSH2 0x7A JUMP JUMPDEST DUP1 PUSH4 0x1AF23A59 EQ PUSH2 0x7E JUMPI DUP1 PUSH4 0x3B76594D EQ PUSH2 0xA6 JUMPI DUP1 PUSH4 0x4283271C EQ PUSH2 0xC2 JUMPI DUP1 PUSH4 0x5BB47808 EQ PUSH2 0xEA JUMPI JUMPDEST PUSH0 PUSH0 REVERT JUMPDEST CALLVALUE DUP1 ISZERO PUSH2 0x89 JUMPI PUSH0 PUSH0 REVERT JUMPDEST POP PUSH2 0xA4 PUSH1 0x4 DUP1 CALLDATASIZE SUB DUP2 ADD SWAP1 PUSH2 0x9F SWAP2 SWAP1 PUSH2 0x95B JUMP JUMPDEST PUSH2 0x1CA JUMP JUMPDEST STOP JUMPDEST PUSH2 0xC0 PUSH1 0x4 DUP1 CALLDATASIZE SUB DUP2 ADD SWAP1 PUSH2 0xBB SWAP2 SWAP1 PUSH2 0x999 JUMP JUMPDEST PUSH2 0x3B3 JUMP JUMPDEST STOP JUMPDEST CALLVALUE DUP1 ISZERO PUSH2 0xCD JUMPI PUSH0 PUSH0 REVERT JUMPDEST POP PUSH2 0xE8 PUSH1 0x4 DUP1 CALLDATASIZE SUB DUP2 ADD SWAP1 PUSH2 0xE3 SWAP2 SWAP1 PUSH2 0x95B JUMP JUMPDEST PUSH2 0x4E5 JUMP JUMPDEST STOP JUMPDEST CALLVALUE DUP1 ISZERO PUSH2 0xF5 JUMPI PUSH0 PUSH0 REVERT JUMPDEST POP PUSH2 0x110 PUSH1 0x4 DUP1 CALLDATASIZE SUB DUP2 ADD SWAP1 PUSH2 0x10B SWAP2 SWAP1 PUSH2 0x9C4 JUMP JUMPDEST PUSH2 0x578 JUMP JUMPDEST STOP JUMPDEST CALLVALUE DUP1 ISZERO PUSH2 0x11D JUMPI PUSH0 PUSH0 REVERT JUMPDEST POP PUSH2 0x138 PUSH1 0x4 DUP1 CALLDATASIZE SUB DUP2 ADD SWAP1 PUSH2 0x133 SWAP2 SWAP1 PUSH2 0x95B JUMP JUMPDEST PUSH2 0x693 JUMP JUMPDEST STOP JUMPDEST CALLVALUE DUP1 ISZERO PUSH2 0x145 JUMPI PUSH0 PUSH0 REVERT JUMPDEST POP PUSH2 0x160 PUSH1 0x4 DUP1 CALLDATASIZE SUB DUP2 ADD SWAP1 PUSH2 0x15B SWAP2 SWAP1 PUSH2 0x999 JUMP JUMPDEST PUSH2 0x87E JUMP JUMPDEST PUSH1 0x40 MLOAD PUSH2 0x16D SWAP2 SWAP1 PUSH2 0x9FE JUMP JUMPDEST PUSH1 0x40 MLOAD DUP1 SWAP2 SUB SWAP1 RETURN JUMPDEST CALLVALUE DUP1 ISZERO PUSH2 0x181 JUMPI PUSH0 PUSH0 REVERT JUMPDEST POP PUSH2 0x18A PUSH2 0x892 JUMP JUMPDEST PUSH1 0x40 MLOAD PUSH2 0x197 SWAP2 SWAP1 PUSH2 0xA26 JUMP JUMPDEST PUSH1 0x40 MLOAD DUP1 SWAP2 SUB SWAP1 RETURN JUMPDEST CALLVALUE DUP1 ISZERO PUSH2 0x1AB JUMPI PUSH0 PUSH0 REVERT JUMPDEST POP PUSH2 0x1B4 PUSH2 0x8B7 JUMP JUMPDEST PUSH1 0x40 MLOAD PUSH2 0x1C1 SWAP2 SWAP1 PUSH2 0xA59 JUMP JUMPDEST PUSH1 0x40 MLOAD DUP1 SWAP2 SUB SWAP1 RETURN JUMPDEST PUSH1 0x1 PUSH0 SWAP1 SLOAD SWAP1 PUSH2 0x100 EXP SWAP1 DIV PUSH20 0xFFFFFFFFFFFFFFFFFFFFFFFFFFFFFFFFFFFFFFFF AND PUSH20 0xFFFFFFFFFFFFFFFFFFFFFFFFFFFFFFFFFFFFFFFF AND CALLER PUSH20 0xFFFFFFFFFFFFFFFFFFFFFFFFFFFFFFFFFFFFFFFF AND EQ PUSH2 0x259 JUMPI PUSH1 0x40 MLOAD PUSH32 0x8C379A000000000000000000000000000000000000000000000000000000000 DUP2 MSTORE PUSH1 0x4 ADD PUSH2 0x250 SWAP1 PUSH2 0xACC JUMP JUMPDEST PUSH1 0x40 MLOAD DUP1 SWAP2 SUB SWAP1 REVERT JUMPDEST PUSH0 PUSH20 0xFFFFFFFFFFFFFFFFFFFFFFFFFFFFFFFFFFFFFFFF AND DUP2 PUSH20 0xFFFFFFFFFFFFFFFFFFFFFFFFFFFFFFFFFFFFFFFF AND SUB PUSH2 0x2C7 JUMPI PUSH1 0x40 MLOAD PUSH32 0x8C379A000000000000000000000000000000000000000000000000000000000 DUP2 MSTORE PUSH1 0x4 ADD PUSH2 0x2BE SWAP1 PUSH2 0xB34 JUMP JUMPDEST PUSH1 0x40 MLOAD DUP1 SWAP2 SUB SWAP1 REVERT JUMPDEST PUSH0 PUSH0 PUSH0 DUP5 DUP2 MSTORE PUSH1 0x20 ADD SWAP1 DUP2 MSTORE PUSH1 0x20 ADD PUSH0 KECCAK256 SLOAD SWAP1 POP PUSH0 DUP2 GT PUSH2 0x31D JUMPI PUSH1 0x40 MLOAD PUSH32 0x8C379A000000000000000000000000000000000000000000000000000000000 DUP2 MSTORE PUSH1 0x4 ADD PUSH2 0x314 SWAP1 PUSH2 0xB9C JUMP JUMPDEST PUSH1 0x40 MLOAD DUP1 SWAP2 SUB SWAP1 REVERT JUMPDEST PUSH0 PUSH0 PUSH0 DUP6 DUP2 MSTORE PUSH1 0x20 ADD SWAP1 DUP2 MSTORE PUSH1 0x20 ADD PUSH0 KECCAK256 DUP2 SWAP1 SSTORE POP DUP2 PUSH20 0xFFFFFFFFFFFFFFFFFFFFFFFFFFFFFFFFFFFFFFFF AND PUSH2 0x8FC DUP3 SWAP1 DUP2 ISZERO MUL SWAP1 PUSH1 0x40 MLOAD PUSH0 PUSH1 0x40 MLOAD DUP1 DUP4 SUB DUP2 DUP6 DUP9 DUP9 CALL SWAP4 POP POP POP POP ISZERO DUP1 ISZERO PUSH2 0x375 JUMPI RETURNDATASIZE PUSH0 PUSH0 RETURNDATACOPY RETURNDATASIZE PUSH0 REVERT JUMPDEST POP DUP3 PUSH32 0x8F5073D0A7A22BA450E278541077E181AF457BE74BEA91E61F1F99E6BB40748E DUP4 PUSH1 0x40 MLOAD PUSH2 0x3A6 SWAP2 SWAP1 PUSH2 0xA26 JUMP JUMPDEST PUSH1 0x40 MLOAD DUP1 SWAP2 SUB SWAP1 LOG2 POP POP POP JUMP JUMPDEST PUSH1 0x1 PUSH0 SWAP1 SLOAD SWAP1 PUSH2 0x100 EXP SWAP1 DIV PUSH20 0xFFFFFFFFFFFFFFFFFFFFFFFFFFFFFFFFFFFFFFFF AND PUSH20 0xFFFFFFFFFFFFFFFFFFFFFFFFFFFFFFFFFFFFFFFF AND CALLER PUSH20 0xFFFFFFFFFFFFFFFFFFFFFFFFFFFFFFFFFFFFFFFF AND EQ PUSH2 0x442 JUMPI PUSH1 0x40 MLOAD PUSH32 0x8C379A000000000000000000000000000000000000000000000000000000000 DUP2 MSTORE PUSH1 0x4 ADD PUSH2 0x439 SWAP1 PUSH2 0xACC JUMP JUMPDEST PUSH1 0x40 MLOAD DUP1 SWAP2 SUB SWAP1 REVERT JUMPDEST PUSH0 CALLVALUE GT PUSH2 0x484 JUMPI PUSH1 0x40 MLOAD PUSH32 0x8C379A000000000000000000000000000000000000000000000000000000000 DUP2 MSTORE PUSH1 0x4 ADD PUSH2 0x47B SWAP1 PUSH2 0xC04 JUMP JUMPDEST PUSH1 0x40 MLOAD DUP1 SWAP2 SUB SWAP1 REVERT JUMPDEST CALLVALUE PUSH0 PUSH0 DUP4 DUP2 MSTORE PUSH1 0x20 ADD SWAP1 DUP2 MSTORE PUSH1 0x20 ADD PUSH0 KECCAK256 PUSH0 DUP3 DUP3 SLOAD PUSH2 0x4A3 SWAP2 SWAP1 PUSH2 0xC4F JUMP JUMPDEST SWAP3 POP POP DUP2 SWAP1 SSTORE POP DUP1 PUSH32 0x26679FA1F3868C950E9362F1106CF73F3318DE0280E0411A3C68E4B463EADD4F CALLVALUE PUSH1 0x40 MLOAD PUSH2 0x4DA SWAP2 SWAP1 PUSH2 0x9FE JUMP JUMPDEST PUSH1 0x40 MLOAD DUP1 SWAP2 SUB SWAP1 LOG2 POP JUMP JUMPDEST PUSH1 0x1 PUSH0 SWAP1 SLOAD SWAP1 PUSH2 0x100 EXP SWAP1 DIV PUSH20 0xFFFFFFFFFFFFFFFFFFFFFFFFFFFFFFFFFFFFFFFF AND PUSH20 0xFFFFFFFFFFFFFFFFFFFFFFFFFFFFFFFFFFFFFFFF AND CALLER PUSH20 0xFFFFFFFFFFFFFFFFFFFFFFFFFFFFFFFFFFFFFFFF AND EQ PUSH2 0x574 JUMPI PUSH1 0x40 MLOAD PUSH32 0x8C379A000000000000000000000000000000000000000000000000000000000 DUP2 MSTORE PUSH1 0x4 ADD PUSH2 0x56B SWAP1 PUSH2 0xACC JUMP JUMPDEST PUSH1 0x40 MLOAD DUP1 SWAP2 SUB SWAP1 REVERT JUMPDEST POP POP JUMP JUMPDEST PUSH1 0x1 PUSH1 0x14 SWAP1 SLOAD SWAP1 PUSH2 0x100 EXP SWAP1 DIV PUSH1 0xFF AND ISZERO PUSH2 0x5C8 JUMPI PUSH1 0x40 MLOAD PUSH32 0x8C379A000000000000000000000000000000000000000000000000000000000 DUP2 MSTORE PUSH1 0x4 ADD PUSH2 0x5BF SWAP1 PUSH2 0xCCC JUMP JUMPDEST PUSH1 0x40 MLOAD DUP1 SWAP2 SUB SWAP1 REVERT JUMPDEST PUSH0 PUSH20 0xFFFFFFFFFFFFFFFFFFFFFFFFFFFFFFFFFFFFFFFF AND DUP2 PUSH20 0xFFFFFFFFFFFFFFFFFFFFFFFFFFFFFFFFFFFFFFFF AND SUB PUSH2 0x636 JUMPI PUSH1 0x40 MLOAD PUSH32 0x8C379A000000000000000000000000000000000000000000000000000000000 DUP2 MSTORE PUSH1 0x4 ADD PUSH2 0x62D SWAP1 PUSH2 0xD34 JUMP JUMPDEST PUSH1 0x40 MLOAD DUP1 SWAP2 SUB SWAP1 REVERT JUMPDEST DUP1 PUSH1 0x1 PUSH0 PUSH2 0x100 EXP DUP2 SLOAD DUP2 PUSH20 0xFFFFFFFFFFFFFFFFFFFFFFFFFFFFFFFFFFFFFFFF MUL NOT AND SWAP1 DUP4 PUSH20 0xFFFFFFFFFFFFFFFFFFFFFFFFFFFFFFFFFFFFFFFF AND MUL OR SWAP1 SSTORE POP PUSH1 0x1 DUP1 PUSH1 0x14 PUSH2 0x100 EXP DUP2 SLOAD DUP2 PUSH1 0xFF MUL NOT AND SWAP1 DUP4 ISZERO ISZERO MUL OR SWAP1 SSTORE POP POP JUMP JUMPDEST PUSH1 0x1 PUSH0 SWAP1 SLOAD SWAP1 PUSH2 0x100 EXP SWAP1 DIV PUSH20 0xFFFFFFFFFFFFFFFFFFFFFFFFFFFFFFFFFFFFFFFF AND PUSH20 0xFFFFFFFFFFFFFFFFFFFFFFFFFFFFFFFFFFFFFFFF AND CALLER PUSH20 0xFFFFFFFFFFFFFFFFFFFFFFFFFFFFFFFFFFFFFFFF AND EQ PUSH2 0x722 JUMPI PUSH1 0x40 MLOAD PUSH32 0x8C379A000000000000000000000000000000000000000000000000000000000 DUP2 MSTORE PUSH1 0x4 ADD PUSH2 0x719 SWAP1 PUSH2 0xACC JUMP JUMPDEST PUSH1 0x40 MLOAD DUP1 SWAP2 SUB SWAP1 REVERT JUMPDEST PUSH0 PUSH0 PUSH0 DUP5 DUP2 MSTORE PUSH1 0x20 ADD SWAP1 DUP2 MSTORE PUSH1 0x20 ADD PUSH0 KECCAK256 SLOAD SWAP1 POP PUSH0 DUP2 GT PUSH2 0x778 JUMPI PUSH1 0x40 MLOAD PUSH32 0x8C379A000000000000000000000000000000000000000000000000000000000 DUP2 MSTORE PUSH1 0x4 ADD PUSH2 0x76F SWAP1 PUSH2 0xD9C JUMP JUMPDEST PUSH1 0x40 MLOAD DUP1 SWAP2 SUB SWAP1 REVERT JUMPDEST PUSH0 PUSH20 0xFFFFFFFFFFFFFFFFFFFFFFFFFFFFFFFFFFFFFFFF AND DUP3 PUSH20 0xFFFFFFFFFFFFFFFFFFFFFFFFFFFFFFFFFFFFFFFF AND SUB PUSH2 0x7E6 JUMPI PUSH1 0x40 MLOAD PUSH32 0x8C379A000000000000000000000000000000000000000000000000000000000 DUP2 MSTORE PUSH1 0x4 ADD PUSH2 0x7DD SWAP1 PUSH2 0xE04 JUMP JUMPDEST PUSH1 0x40 MLOAD DUP1 SWAP2 SUB SWAP1 REVERT JUMPDEST PUSH0 PUSH0 PUSH0 DUP6 DUP2 MSTORE PUSH1 0x20 ADD SWAP1 DUP2 MSTORE PUSH1 0x20 ADD PUSH0 KECCAK256 DUP2 SWAP1 SSTORE POP DUP2 PUSH20 0xFFFFFFFFFFFFFFFFFFFFFFFFFFFFFFFFFFFFFFFF AND PUSH2 0x8FC DUP3 SWAP1 DUP2 ISZERO MUL SWAP1 PUSH1 0x40 MLOAD PUSH0 PUSH1 0x40 MLOAD DUP1 DUP4 SUB DUP2 DUP6 DUP9 DUP9 CALL SWAP4 POP POP POP POP ISZERO DUP1 ISZERO PUSH2 0x83E JUMPI RETURNDATASIZE PUSH0 PUSH0 RETURNDATACOPY RETURNDATASIZE PUSH0 REVERT JUMPDEST POP DUP3 PUSH32 0x80B577B4FC190AB86D963549E29F496AFD079C5D81A2480D61217D4B5060A28C DUP4 DUP4 PUSH1 0x40 MLOAD PUSH2 0x871 SWAP3 SWAP2 SWAP1 PUSH2 0xE22 JUMP JUMPDEST PUSH1 0x40 MLOAD DUP1 SWAP2 SUB SWAP1 LOG2 POP POP POP JUMP JUMPDEST PUSH0 PUSH1 0x20 MSTORE DUP1 PUSH0 MSTORE PUSH1 0x40 PUSH0 KECCAK256 PUSH0 SWAP2 POP SWAP1 POP SLOAD DUP2 JUMP JUMPDEST PUSH1 0x1 PUSH0 SWAP1 SLOAD SWAP1 PUSH2 0x100 EXP SWAP1 DIV PUSH20 0xFFFFFFFFFFFFFFFFFFFFFFFFFFFFFFFFFFFFFFFF AND DUP2 JUMP JUMPDEST PUSH1 0x1 PUSH1 0x14 SWAP1 SLOAD SWAP1 PUSH2 0x100 EXP SWAP1 DIV PUSH1 0xFF AND DUP2 JUMP JUMPDEST PUSH0 PUSH0 REVERT JUMPDEST PUSH0 DUP2 SWAP1 POP SWAP2 SWAP1 POP JUMP JUMPDEST PUSH2 0x8E0 DUP2 PUSH2 0x8CE JUMP JUMPDEST DUP2 EQ PUSH2 0x8EA JUMPI PUSH0 PUSH0 REVERT JUMPDEST POP JUMP JUMPDEST PUSH0 DUP2 CALLDATALOAD SWAP1 POP PUSH2 0x8FB DUP2 PUSH2 0x8D7 JUMP JUMPDEST SWAP3 SWAP2 POP POP JUMP JUMPDEST PUSH0 PUSH20 0xFFFFFFFFFFFFFFFFFFFFFFFFFFFFFFFFFFFFFFFF DUP3 AND SWAP1 POP SWAP2 SWAP1 POP JUMP JUMPDEST PUSH0 PUSH2 0x92A DUP3 PUSH2 0x901 JUMP JUMPDEST SWAP1 POP SWAP2 SWAP1 POP JUMP JUMPDEST PUSH2 0x93A DUP2 PUSH2 0x920 JUMP JUMPDEST DUP2 EQ PUSH2 0x944 JUMPI PUSH0 PUSH0 REVERT JUMPDEST POP JUMP JUMPDEST PUSH0 DUP2 CALLDATALOAD SWAP1 POP PUSH2 0x955 DUP2 PUSH2 0x931 JUMP JUMPDEST SWAP3 SWAP2 POP POP JUMP JUMPDEST PUSH0 PUSH0 PUSH1 0x40 DUP4 DUP6 SUB SLT ISZERO PUSH2 0x971 JUMPI PUSH2 0x970 PUSH2 0x8CA JUMP JUMPDEST JUMPDEST PUSH0 PUSH2 0x97E DUP6 DUP3 DUP7 ADD PUSH2 0x8ED JUMP JUMPDEST SWAP3 POP POP PUSH1 0x20 PUSH2 0x98F DUP6 DUP3 DUP7 ADD PUSH2 0x947 JUMP JUMPDEST SWAP2 POP POP SWAP3 POP SWAP3 SWAP1 POP JUMP JUMPDEST PUSH0 PUSH1 0x20 DUP3 DUP5 SUB SLT ISZERO PUSH2 0x9AE JUMPI PUSH2 0x9AD PUSH2 0x8CA JUMP JUMPDEST JUMPDEST PUSH0 PUSH2 0x9BB DUP5 DUP3 DUP6 ADD PUSH2 0x8ED JUMP JUMPDEST SWAP2 POP POP SWAP3 SWAP2 POP POP JUMP JUMPDEST PUSH0 PUSH1 0x20 DUP3 DUP5 SUB SLT ISZERO PUSH2 0x9D9 JUMPI PUSH2 0x9D8 PUSH2 0x8CA JUMP JUMPDEST JUMPDEST PUSH0 PUSH2 0x9E6 DUP5 DUP3 DUP6 ADD PUSH2 0x947 JUMP JUMPDEST SWAP2 POP POP SWAP3 SWAP2 POP POP JUMP JUMPDEST PUSH2 0x9F8 DUP2 PUSH2 0x8CE JUMP JUMPDEST DUP3 MSTORE POP POP JUMP JUMPDEST PUSH0 PUSH1 0x20 DUP3 ADD SWAP1 POP PUSH2 0xA11 PUSH0 DUP4 ADD DUP5 PUSH2 0x9EF JUMP JUMPDEST SWAP3 SWAP2 POP POP JUMP JUMPDEST PUSH2 0xA20 DUP2 PUSH2 0x920 JUMP JUMPDEST DUP3 MSTORE POP POP JUMP JUMPDEST PUSH0 PUSH1 0x20 DUP3 ADD SWAP1 POP PUSH2 0xA39 PUSH0 DUP4 ADD DUP5 PUSH2 0xA17 JUMP JUMPDEST SWAP3 SWAP2 POP POP JUMP JUMPDEST PUSH0 DUP2 ISZERO ISZERO SWAP1 POP SWAP2 SWAP1 POP JUMP JUMPDEST PUSH2 0xA53 DUP2 PUSH2 0xA3F JUMP JUMPDEST DUP3 MSTORE POP POP JUMP JUMPDEST PUSH0 PUSH1 0x20 DUP3 ADD SWAP1 POP PUSH2 0xA6C PUSH0 DUP4 ADD DUP5 PUSH2 0xA4A JUMP JUMPDEST SWAP3 SWAP2 POP POP JUMP JUMPDEST PUSH0 DUP3 DUP3 MSTORE PUSH1 0x20 DUP3 ADD SWAP1 POP SWAP3 SWAP2 POP POP JUMP JUMPDEST PUSH32 0x4F6E6C7920666163746F72792063616E206F7065726174650000000000000000 PUSH0 DUP3 ADD MSTORE POP JUMP JUMPDEST PUSH0 PUSH2 0xAB6 PUSH1 0x18 DUP4 PUSH2 0xA72 JUMP JUMPDEST SWAP2 POP PUSH2 0xAC1 DUP3 PUSH2 0xA82 JUMP JUMPDEST PUSH1 0x20 DUP3 ADD SWAP1 POP SWAP2 SWAP1 POP JUMP JUMPDEST PUSH0 PUSH1 0x20 DUP3 ADD SWAP1 POP DUP2 DUP2 SUB PUSH0 DUP4 ADD MSTORE PUSH2 0xAE3 DUP2 PUSH2 0xAAA JUMP JUMPDEST SWAP1 POP SWAP2 SWAP1 POP JUMP JUMPDEST PUSH32 0x496E76616C69642077696E6E6572206164647265737300000000000000000000 PUSH0 DUP3 ADD MSTORE POP JUMP JUMPDEST PUSH0 PUSH2 0xB1E PUSH1 0x16 DUP4 PUSH2 0xA72 JUMP JUMPDEST SWAP2 POP PUSH2 0xB29 DUP3 PUSH2 0xAEA JUMP JUMPDEST PUSH1 0x20 DUP3 ADD SWAP1 POP SWAP2 SWAP1 POP JUMP JUMPDEST PUSH0 PUSH1 0x20 DUP3 ADD SWAP1 POP DUP2 DUP2 SUB PUSH0 DUP4 ADD MSTORE PUSH2 0xB4B DUP2 PUSH2 0xB12 JUMP JUMPDEST SWAP1 POP SWAP2 SWAP1 POP JUMP JUMPDEST PUSH32 0x4E6F2066756E647320617661696C61626C650000000000000000000000000000 PUSH0 DUP3 ADD MSTORE POP JUMP JUMPDEST PUSH0 PUSH2 0xB86 PUSH1 0x12 DUP4 PUSH2 0xA72 JUMP JUMPDEST SWAP2 POP PUSH2 0xB91 DUP3 PUSH2 0xB52 JUMP JUMPDEST PUSH1 0x20 DUP3 ADD SWAP1 POP SWAP2 SWAP1 POP JUMP JUMPDEST PUSH0 PUSH1 0x20 DUP3 ADD SWAP1 POP DUP2 DUP2 SUB PUSH0 DUP4 ADD MSTORE PUSH2 0xBB3 DUP2 PUSH2 0xB7A JUMP JUMPDEST SWAP1 POP SWAP2 SWAP1 POP JUMP JUMPDEST PUSH32 0x4E6F2066756E64732073656E7400000000000000000000000000000000000000 PUSH0 DUP3 ADD MSTORE POP JUMP JUMPDEST PUSH0 PUSH2 0xBEE PUSH1 0xD DUP4 PUSH2 0xA72 JUMP JUMPDEST SWAP2 POP PUSH2 0xBF9 DUP3 PUSH2 0xBBA JUMP JUMPDEST PUSH1 0x20 DUP3 ADD SWAP1 POP SWAP2 SWAP1 POP JUMP JUMPDEST PUSH0 PUSH1 0x20 DUP3 ADD SWAP1 POP DUP2 DUP2 SUB PUSH0 DUP4 ADD MSTORE PUSH2 0xC1B DUP2 PUSH2 0xBE2 JUMP JUMPDEST SWAP1 POP SWAP2 SWAP1 POP JUMP JUMPDEST PUSH32 0x4E487B7100000000000000000000000000000000000000000000000000000000 PUSH0 MSTORE PUSH1 0x11 PUSH1 0x4 MSTORE PUSH1 0x24 PUSH0 REVERT JUMPDEST PUSH0 PUSH2 0xC59 DUP3 PUSH2 0x8CE JUMP JUMPDEST SWAP2 POP PUSH2 0xC64 DUP4 PUSH2 0x8CE JUMP JUMPDEST SWAP3 POP DUP3 DUP3 ADD SWAP1 POP DUP1 DUP3 GT ISZERO PUSH2 0xC7C JUMPI PUSH2 0xC7B PUSH2 0xC22 JUMP JUMPDEST JUMPDEST SWAP3 SWAP2 POP POP JUMP JUMPDEST PUSH32 0x466163746F727920616C72656164792073657400000000000000000000000000 PUSH0 DUP3 ADD MSTORE POP JUMP JUMPDEST PUSH0 PUSH2 0xCB6 PUSH1 0x13 DUP4 PUSH2 0xA72 JUMP JUMPDEST SWAP2 POP PUSH2 0xCC1 DUP3 PUSH2 0xC82 JUMP JUMPDEST PUSH1 0x20 DUP3 ADD SWAP1 POP SWAP2 SWAP1 POP JUMP JUMPDEST PUSH0 PUSH1 0x20 DUP3 ADD SWAP1 POP DUP2 DUP2 SUB PUSH0 DUP4 ADD MSTORE PUSH2 0xCE3 DUP2 PUSH2 0xCAA JUMP JUMPDEST SWAP1 POP SWAP2 SWAP1 POP JUMP JUMPDEST PUSH32 0x496E76616C696420616464726573730000000000000000000000000000000000 PUSH0 DUP3 ADD MSTORE POP JUMP JUMPDEST PUSH0 PUSH2 0xD1E PUSH1 0xF DUP4 PUSH2 0xA72 JUMP JUMPDEST SWAP2 POP PUSH2 0xD29 DUP3 PUSH2 0xCEA JUMP JUMPDEST PUSH1 0x20 DUP3 ADD SWAP1 POP SWAP2 SWAP1 POP JUMP JUMPDEST PUSH0 PUSH1 0x20 DUP3 ADD SWAP1 POP DUP2 DUP2 SUB PUSH0 DUP4 ADD MSTORE PUSH2 0xD4B DUP2 PUSH2 0xD12 JUMP JUMPDEST SWAP1 POP SWAP2 SWAP1 POP JUMP JUMPDEST PUSH32 0x4E6F2066756E647320746F20726566756E640000000000000000000000000000 PUSH0 DUP3 ADD MSTORE POP JUMP JUMPDEST PUSH0 PUSH2 0xD86 PUSH1 0x12 DUP4 PUSH2 0xA72 JUMP JUMPDEST SWAP2 POP PUSH2 0xD91 DUP3 PUSH2 0xD52 JUMP JUMPDEST PUSH1 0x20 DUP3 ADD SWAP1 POP SWAP2 SWAP1 POP JUMP JUMPDEST PUSH0 PUSH1 0x20 DUP3 ADD SWAP1 POP DUP2 DUP2 SUB PUSH0 DUP4 ADD MSTORE PUSH2 0xDB3 DUP2 PUSH2 0xD7A JUMP JUMPDEST SWAP1 POP SWAP2 SWAP1 POP JUMP JUMPDEST PUSH32 0x496E76616C69642063726561746F722061646472657373000000000000000000 PUSH0 DUP3 ADD MSTORE POP JUMP JUMPDEST PUSH0 PUSH2 0xDEE PUSH1 0x17 DUP4 PUSH2 0xA72 JUMP JUMPDEST SWAP2 POP PUSH2 0xDF9 DUP3 PUSH2 0xDBA JUMP JUMPDEST PUSH1 0x20 DUP3 ADD SWAP1 POP SWAP2 SWAP1 POP JUMP JUMPDEST PUSH0 PUSH1 0x20 DUP3 ADD SWAP1 POP DUP2 DUP2 SUB PUSH0 DUP4 ADD MSTORE PUSH2 0xE1B DUP2 PUSH2 0xDE2 JUMP JUMPDEST SWAP1 POP SWAP2 SWAP1 POP JUMP JUMPDEST PUSH0 PUSH1 0x40 DUP3 ADD SWAP1 POP PUSH2 0xE35 PUSH0 DUP4 ADD DUP6 PUSH2 0xA17 JUMP JUMPDEST PUSH2 0xE42 PUSH1 0x20 DUP4 ADD DUP5 PUSH2 0x9EF JUMP JUMPDEST SWAP4 SWAP3 POP POP POP JUMP INVALID LOG2 PUSH5 0x6970667358 0x22 SLT KECCAK256 SMOD 0xB0 0xCC 0xC2 PUSH31 0xD088F5C26DF5EE2C2BAEDB4398B940F55E9E9207E568797B2DAC4564736F6C PUSH4 0x4300081E STOP CALLER "
				},
				"gasEstimates": {
					"creation": {
						"codeDepositCost": "742200",
						"executionCost": "infinite",
						"totalCost": "infinite"
					},
					"external": {
						"depositFunds(uint256)": "infinite",
						"factory()": "2552",
						"factorySet()": "2583",
						"refundFunds(uint256,address)": "infinite",
						"releaseFunds(uint256,address)": "infinite",
						"setFactory(address)": "51339",
						"slashDeposit(uint256,address)": "3113",
						"taskFunds(uint256)": "infinite"
					}
				},
				"methodIdentifiers": {
					"depositFunds(uint256)": "3b76594d",
					"factory()": "c45a0155",
					"factorySet()": "e21875e2",
					"refundFunds(uint256,address)": "77969929",
					"releaseFunds(uint256,address)": "1af23a59",
					"setFactory(address)": "5bb47808",
					"slashDeposit(uint256,address)": "4283271c",
					"taskFunds(uint256)": "8833c4c3"
				}
			},
			"storageLayout": {
				"storage": [
					{
						"astId": 5,
						"contract": "Escrow.sol:Escrow",
						"label": "taskFunds",
						"offset": 0,
						"slot": "0",
						"type": "t_mapping(t_uint256,t_uint256)"
					},
					{
						"astId": 7,
						"contract": "Escrow.sol:Escrow",
						"label": "factory",
						"offset": 0,
						"slot": "1",
						"type": "t_address"
					},
					{
						"astId": 10,
						"contract": "Escrow.sol:Escrow",
						"label": "factorySet",
						"offset": 20,
						"slot": "1",
						"type": "t_bool"
					}
				],
				"types": {
					"t_address": {
						"encoding": "inplace",
						"label": "address",
						"numberOfBytes": "20"
					},
					"t_bool": {
						"encoding": "inplace",
						"label": "bool",
						"numberOfBytes": "1"
					},
					"t_mapping(t_uint256,t_uint256)": {
						"encoding": "mapping",
						"key": "t_uint256",
						"label": "mapping(uint256 => uint256)",
						"numberOfBytes": "32",
						"value": "t_uint256"
					},
					"t_uint256": {
						"encoding": "inplace",
						"label": "uint256",
						"numberOfBytes": "32"
					}
				}
			},
			"userdoc": {
				"kind": "user",
				"methods": {},
				"version": 1
			}
		}
	}
}