{
	"BiddingSystem.sol": {
		"BiddingSystem": {
			"abi": [
				{
					"inputs": [
						{
							"internalType": "address",
							"name": "_factory",
							"type": "address"
						}
					],
					"stateMutability": "nonpayable",
					"type": "constructor"
				},
				{
					"anonymous": false,
					"inputs": [
						{
							"indexed": true,
							"internalType": "uint256",
							"name": "taskId",
							"type": "uint256"
						},
						{
							"indexed": true,
							"internalType": "address",
							"name": "bidder",
							"type": "address"
						}
					],
					"name": "NewBid",
					"type": "event"
				},
				{
					"anonymous": false,
					"inputs": [
						{
							"indexed": true,
							"internalType": "uint256",
							"name": "taskId",
							"type": "uint256"
						},
						{
							"indexed": true,
							"internalType": "address",
							"name": "winner",
							"type": "address"
						}
					],
					"name": "WinnerSelected",
					"type": "event"
				},
				{
					"inputs": [],
					"name": "depositAmount",
					"outputs": [
						{
							"internalType": "uint256",
							"name": "",
							"type": "uint256"
						}
					],
					"stateMutability": "view",
					"type": "function"
				},
				{
					"inputs": [],
					"name": "factory",
					"outputs": [
						{
							"internalType": "address",
							"name": "",
							"type": "address"
						}
					],
					"stateMutability": "view",
					"type": "function"
				},
				{
					"inputs": [],
					"name": "factorySet",
					"outputs": [
						{
							"internalType": "bool",
							"name": "",
							"type": "bool"
						}
					],
					"stateMutability": "view",
					"type": "function"
				},
				{
					"inputs": [
						{
							"internalType": "uint256",
							"name": "_taskId",
							"type": "uint256"
						}
					],
					"name": "openBidding",
					"outputs": [],
					"stateMutability": "nonpayable",
					"type": "function"
				},
				{
					"inputs": [
						{
							"internalType": "uint256",
							"name": "_taskId",
							"type": "uint256"
						}
					],
					"name": "placeBid",
					"outputs": [],
					"stateMutability": "payable",
					"type": "function"
				},
				{
					"inputs": [
						{
							"internalType": "uint256",
							"name": "_taskId",
							"type": "uint256"
						},
						{
							"internalType": "uint256",
							"name": "_bidIndex",
							"type": "uint256"
						}
					],
					"name": "qualifyBidder",
					"outputs": [],
					"stateMutability": "nonpayable",
					"type": "function"
				},
				{
					"inputs": [
						{
							"internalType": "uint256",
							"name": "_taskId",
							"type": "uint256"
						},
						{
							"internalType": "uint256",
							"name": "_bidIndex",
							"type": "uint256"
						}
					],
					"name": "selectWinner",
					"outputs": [],
					"stateMutability": "nonpayable",
					"type": "function"
				},
				{
					"inputs": [
						{
							"internalType": "address",
							"name": "_factory",
							"type": "address"
						}
					],
					"name": "setFactory",
					"outputs": [],
					"stateMutability": "nonpayable",
					"type": "function"
				},
				{
					"inputs": [
						{
							"internalType": "uint256",
							"name": "",
							"type": "uint256"
						},
						{
							"internalType": "uint256",
							"name": "",
							"type": "uint256"
						}
					],
					"name": "taskBids",
					"outputs": [
						{
							"internalType": "address",
							"name": "bidder",
							"type": "address"
						},
						{
							"internalType": "uint256",
							"name": "amount",
							"type": "uint256"
						},
						{
							"internalType": "bool",
							"name": "isQualified",
							"type": "bool"
						}
					],
					"stateMutability": "view",
					"type": "function"
				},
				{
					"inputs": [
						{
							"internalType": "uint256",
							"name": "",
							"type": "uint256"
						}
					],
					"name": "winners",
					"outputs": [
						{
							"internalType": "address",
							"name": "",
							"type": "address"
						}
					],
					"stateMutability": "view",
					"type": "function"
				}
			],
			"devdoc": {
				"kind": "dev",
				"methods": {},
				"version": 1
			},
			"evm": {
				"assembly": "    /* \"BiddingSystem.sol\":27:2723  contract BiddingSystem {... */\n  mstore(0x40, 0x80)\n    /* \"BiddingSystem.sol\":563:568  false */\n  0x00\n    /* \"BiddingSystem.sol\":538:568  bool public factorySet = false */\n  0x02\n  exp(0x0100, 0x14)\n  dup2\n  sload\n  dup2\n  0xff\n  mul\n  not\n  and\n  swap1\n  dup4\n  iszero\n  iszero\n  mul\n  or\n  swap1\n  sstore\n  pop\n    /* \"BiddingSystem.sol\":606:615  0.1 ether */\n  0x016345785d8a0000\n    /* \"BiddingSystem.sol\":575:615  uint256 public depositAmount = 0.1 ether */\n  0x03\n  sstore\n    /* \"BiddingSystem.sol\":987:1109  constructor(address _factory) {... */\n  callvalue\n  dup1\n  iszero\n  tag_1\n  jumpi\n  revert(0x00, 0x00)\ntag_1:\n  pop\n  mload(0x40)\n  sub(codesize, bytecodeSize)\n  dup1\n  bytecodeSize\n  dup4\n  codecopy\n  dup2\n  dup2\n  add\n  0x40\n  mstore\n  dup2\n  add\n  swap1\n  tag_2\n  swap2\n  swap1\n  tag_3\n  jump\t// in\ntag_2:\n    /* \"BiddingSystem.sol\":1038:1046  _factory */\n  dup1\n    /* \"BiddingSystem.sol\":1028:1035  factory */\n  0x02\n  0x00\n    /* \"BiddingSystem.sol\":1028:1046  factory = _factory */\n  0x0100\n  exp\n  dup2\n  sload\n  dup2\n  0xffffffffffffffffffffffffffffffffffffffff\n  mul\n  not\n  and\n  swap1\n  dup4\n  0xffffffffffffffffffffffffffffffffffffffff\n  and\n  mul\n  or\n  swap1\n  sstore\n  pop\n    /* \"BiddingSystem.sol\":1080:1081  0 */\n  0x00\n    /* \"BiddingSystem.sol\":1060:1082  _factory != address(0) */\n  0xffffffffffffffffffffffffffffffffffffffff\n  and\n    /* \"BiddingSystem.sol\":1060:1068  _factory */\n  dup2\n    /* \"BiddingSystem.sol\":1060:1082  _factory != address(0) */\n  0xffffffffffffffffffffffffffffffffffffffff\n  and\n  eq\n    /* \"BiddingSystem.sol\":1057:1101  if(_factory != address(0)) factorySet = true */\n  tag_6\n  jumpi\n    /* \"BiddingSystem.sol\":1097:1101  true */\n  0x01\n    /* \"BiddingSystem.sol\":1084:1094  factorySet */\n  0x02\n  0x14\n    /* \"BiddingSystem.sol\":1084:1101  factorySet = true */\n  0x0100\n  exp\n  dup2\n  sload\n  dup2\n  0xff\n  mul\n  not\n  and\n  swap1\n  dup4\n  iszero\n  iszero\n  mul\n  or\n  swap1\n  sstore\n  pop\n    /* \"BiddingSystem.sol\":1057:1101  if(_factory != address(0)) factorySet = true */\ntag_6:\n    /* \"BiddingSystem.sol\":987:1109  constructor(address _factory) {... */\n  pop\n    /* \"BiddingSystem.sol\":27:2723  contract BiddingSystem {... */\n  jump(tag_7)\n    /* \"#utility.yul\":88:205   */\ntag_9:\n    /* \"#utility.yul\":197:198   */\n  0x00\n    /* \"#utility.yul\":194:195   */\n  0x00\n    /* \"#utility.yul\":187:199   */\n  revert\n    /* \"#utility.yul\":334:460   */\ntag_11:\n    /* \"#utility.yul\":371:378   */\n  0x00\n    /* \"#utility.yul\":411:453   */\n  0xffffffffffffffffffffffffffffffffffffffff\n    /* \"#utility.yul\":404:409   */\n  dup3\n    /* \"#utility.yul\":400:454   */\n  and\n    /* \"#utility.yul\":389:454   */\n  swap1\n  pop\n    /* \"#utility.yul\":334:460   */\n  swap2\n  swap1\n  pop\n  jump\t// out\n    /* \"#utility.yul\":466:562   */\ntag_12:\n    /* \"#utility.yul\":503:510   */\n  0x00\n    /* \"#utility.yul\":532:556   */\n  tag_21\n    /* \"#utility.yul\":550:555   */\n  dup3\n    /* \"#utility.yul\":532:556   */\n  tag_11\n  jump\t// in\ntag_21:\n    /* \"#utility.yul\":521:556   */\n  swap1\n  pop\n    /* \"#utility.yul\":466:562   */\n  swap2\n  swap1\n  pop\n  jump\t// out\n    /* \"#utility.yul\":568:690   */\ntag_13:\n    /* \"#utility.yul\":641:665   */\n  tag_23\n    /* \"#utility.yul\":659:664   */\n  dup2\n    /* \"#utility.yul\":641:665   */\n  tag_12\n  jump\t// in\ntag_23:\n    /* \"#utility.yul\":634:639   */\n  dup2\n    /* \"#utility.yul\":631:666   */\n  eq\n    /* \"#utility.yul\":621:684   */\n  tag_24\n  jumpi\n    /* \"#utility.yul\":680:681   */\n  0x00\n    /* \"#utility.yul\":677:678   */\n  0x00\n    /* \"#utility.yul\":670:682   */\n  revert\n    /* \"#utility.yul\":621:684   */\ntag_24:\n    /* \"#utility.yul\":568:690   */\n  pop\n  jump\t// out\n    /* \"#utility.yul\":696:839   */\ntag_14:\n    /* \"#utility.yul\":753:758   */\n  0x00\n    /* \"#utility.yul\":784:790   */\n  dup2\n    /* \"#utility.yul\":778:791   */\n  mload\n    /* \"#utility.yul\":769:791   */\n  swap1\n  pop\n    /* \"#utility.yul\":800:833   */\n  tag_26\n    /* \"#utility.yul\":827:832   */\n  dup2\n    /* \"#utility.yul\":800:833   */\n  tag_13\n  jump\t// in\ntag_26:\n    /* \"#utility.yul\":696:839   */\n  swap3\n  swap2\n  pop\n  pop\n  jump\t// out\n    /* \"#utility.yul\":845:1196   */\ntag_3:\n    /* \"#utility.yul\":915:921   */\n  0x00\n    /* \"#utility.yul\":964:966   */\n  0x20\n    /* \"#utility.yul\":952:961   */\n  dup3\n    /* \"#utility.yul\":943:950   */\n  dup5\n    /* \"#utility.yul\":939:962   */\n  sub\n    /* \"#utility.yul\":935:967   */\n  slt\n    /* \"#utility.yul\":932:1051   */\n  iszero\n  tag_28\n  jumpi\n    /* \"#utility.yul\":970:1049   */\n  tag_29\n  tag_9\n  jump\t// in\ntag_29:\n    /* \"#utility.yul\":932:1051   */\ntag_28:\n    /* \"#utility.yul\":1090:1091   */\n  0x00\n    /* \"#utility.yul\":1115:1179   */\n  tag_30\n    /* \"#utility.yul\":1171:1178   */\n  dup5\n    /* \"#utility.yul\":1162:1168   */\n  dup3\n    /* \"#utility.yul\":1151:1160   */\n  dup6\n    /* \"#utility.yul\":1147:1169   */\n  add\n    /* \"#utility.yul\":1115:1179   */\n  tag_14\n  jump\t// in\ntag_30:\n    /* \"#utility.yul\":1105:1179   */\n  swap2\n  pop\n    /* \"#utility.yul\":1061:1189   */\n  pop\n    /* \"#utility.yul\":845:1196   */\n  swap3\n  swap2\n  pop\n  pop\n  jump\t// out\n    /* \"BiddingSystem.sol\":27:2723  contract BiddingSystem {... */\ntag_7:\n  dataSize(sub_0)\n  dup1\n  dataOffset(sub_0)\n  0x00\n  codecopy\n  0x00\n  return\nstop\n\nsub_0: assembly {\n        /* \"BiddingSystem.sol\":27:2723  contract BiddingSystem {... */\n      mstore(0x40, 0x80)\n      jumpi(tag_1, lt(calldatasize, 0x04))\n      shr(0xe0, calldataload(0x00))\n      dup1\n      0xa2fb1175\n      gt\n      tag_12\n      jumpi\n      dup1\n      0xa2fb1175\n      eq\n      tag_7\n      jumpi\n      dup1\n      0xc45a0155\n      eq\n      tag_8\n      jumpi\n      dup1\n      0xe21875e2\n      eq\n      tag_9\n      jumpi\n      dup1\n      0xe38c8302\n      eq\n      tag_10\n      jumpi\n      dup1\n      0xe6fa0209\n      eq\n      tag_11\n      jumpi\n      jump(tag_1)\n    tag_12:\n      dup1\n      0x419759f5\n      eq\n      tag_2\n      jumpi\n      dup1\n      0x5492b197\n      eq\n      tag_3\n      jumpi\n      dup1\n      0x5bb47808\n      eq\n      tag_4\n      jumpi\n      dup1\n      0x5d4bc827\n      eq\n      tag_5\n      jumpi\n      dup1\n      0x9979ef45\n      eq\n      tag_6\n      jumpi\n    tag_1:\n      revert(0x00, 0x00)\n        /* \"BiddingSystem.sol\":575:615  uint256 public depositAmount = 0.1 ether */\n    tag_2:\n      callvalue\n      dup1\n      iszero\n      tag_13\n      jumpi\n      revert(0x00, 0x00)\n    tag_13:\n      pop\n      tag_14\n      tag_15\n      jump\t// in\n    tag_14:\n      mload(0x40)\n      tag_16\n      swap2\n      swap1\n      tag_17\n      jump\t// in\n    tag_16:\n      mload(0x40)\n      dup1\n      swap2\n      sub\n      swap1\n      return\n        /* \"BiddingSystem.sol\":316:357  mapping(uint256 => Bid[]) public taskBids */\n    tag_3:\n      callvalue\n      dup1\n      iszero\n      tag_18\n      jumpi\n      revert(0x00, 0x00)\n    tag_18:\n      pop\n      tag_19\n      0x04\n      dup1\n      calldatasize\n      sub\n      dup2\n      add\n      swap1\n      tag_20\n      swap2\n      swap1\n      tag_21\n      jump\t// in\n    tag_20:\n      tag_22\n      jump\t// in\n    tag_19:\n      mload(0x40)\n      tag_23\n      swap4\n      swap3\n      swap2\n      swap1\n      tag_24\n      jump\t// in\n    tag_23:\n      mload(0x40)\n      dup1\n      swap2\n      sub\n      swap1\n      return\n        /* \"BiddingSystem.sol\":1117:1344  function setFactory(address _factory) external {... */\n    tag_4:\n      callvalue\n      dup1\n      iszero\n      tag_25\n      jumpi\n      revert(0x00, 0x00)\n    tag_25:\n      pop\n      tag_26\n      0x04\n      dup1\n      calldatasize\n      sub\n      dup2\n      add\n      swap1\n      tag_27\n      swap2\n      swap1\n      tag_28\n      jump\t// in\n    tag_27:\n      tag_29\n      jump\t// in\n    tag_26:\n      stop\n        /* \"BiddingSystem.sol\":2167:2390  function qualifyBidder(uint256 _taskId, uint256 _bidIndex) external onlyFactory {... */\n    tag_5:\n      callvalue\n      dup1\n      iszero\n      tag_30\n      jumpi\n      revert(0x00, 0x00)\n    tag_30:\n      pop\n      tag_31\n      0x04\n      dup1\n      calldatasize\n      sub\n      dup2\n      add\n      swap1\n      tag_32\n      swap2\n      swap1\n      tag_21\n      jump\t// in\n    tag_32:\n      tag_33\n      jump\t// in\n    tag_31:\n      stop\n        /* \"BiddingSystem.sol\":1591:2105  function placeBid(uint256 _taskId) external payable {... */\n    tag_6:\n      tag_34\n      0x04\n      dup1\n      calldatasize\n      sub\n      dup2\n      add\n      swap1\n      tag_35\n      swap2\n      swap1\n      tag_36\n      jump\t// in\n    tag_35:\n      tag_37\n      jump\t// in\n    tag_34:\n      stop\n        /* \"BiddingSystem.sol\":397:439  mapping(uint256 => address) public winners */\n    tag_7:\n      callvalue\n      dup1\n      iszero\n      tag_38\n      jumpi\n      revert(0x00, 0x00)\n    tag_38:\n      pop\n      tag_39\n      0x04\n      dup1\n      calldatasize\n      sub\n      dup2\n      add\n      swap1\n      tag_40\n      swap2\n      swap1\n      tag_36\n      jump\t// in\n    tag_40:\n      tag_41\n      jump\t// in\n    tag_39:\n      mload(0x40)\n      tag_42\n      swap2\n      swap1\n      tag_43\n      jump\t// in\n    tag_42:\n      mload(0x40)\n      dup1\n      swap2\n      sub\n      swap1\n      return\n        /* \"BiddingSystem.sol\":448:470  address public factory */\n    tag_8:\n      callvalue\n      dup1\n      iszero\n      tag_44\n      jumpi\n      revert(0x00, 0x00)\n    tag_44:\n      pop\n      tag_45\n      tag_46\n      jump\t// in\n    tag_45:\n      mload(0x40)\n      tag_47\n      swap2\n      swap1\n      tag_43\n      jump\t// in\n    tag_47:\n      mload(0x40)\n      dup1\n      swap2\n      sub\n      swap1\n      return\n        /* \"BiddingSystem.sol\":538:568  bool public factorySet = false */\n    tag_9:\n      callvalue\n      dup1\n      iszero\n      tag_48\n      jumpi\n      revert(0x00, 0x00)\n    tag_48:\n      pop\n      tag_49\n      tag_50\n      jump\t// in\n    tag_49:\n      mload(0x40)\n      tag_51\n      swap2\n      swap1\n      tag_52\n      jump\t// in\n    tag_51:\n      mload(0x40)\n      dup1\n      swap2\n      sub\n      swap1\n      return\n        /* \"BiddingSystem.sol\":1409:1511  function openBidding(uint256 _taskId) external onlyFactory {... */\n    tag_10:\n      callvalue\n      dup1\n      iszero\n      tag_53\n      jumpi\n      revert(0x00, 0x00)\n    tag_53:\n      pop\n      tag_54\n      0x04\n      dup1\n      calldatasize\n      sub\n      dup2\n      add\n      swap1\n      tag_55\n      swap2\n      swap1\n      tag_36\n      jump\t// in\n    tag_55:\n      tag_56\n      jump\t// in\n    tag_54:\n      stop\n        /* \"BiddingSystem.sol\":2434:2720  function selectWinner(uint256 _taskId, uint256 _bidIndex) external onlyFactory {... */\n    tag_11:\n      callvalue\n      dup1\n      iszero\n      tag_57\n      jumpi\n      revert(0x00, 0x00)\n    tag_57:\n      pop\n      tag_58\n      0x04\n      dup1\n      calldatasize\n      sub\n      dup2\n      add\n      swap1\n      tag_59\n      swap2\n      swap1\n      tag_21\n      jump\t// in\n    tag_59:\n      tag_60\n      jump\t// in\n    tag_58:\n      stop\n        /* \"BiddingSystem.sol\":575:615  uint256 public depositAmount = 0.1 ether */\n    tag_15:\n      sload(0x03)\n      dup2\n      jump\t// out\n        /* \"BiddingSystem.sol\":316:357  mapping(uint256 => Bid[]) public taskBids */\n    tag_22:\n      mstore(0x20, 0x00)\n      dup2\n      0x00\n      mstore\n      keccak256(0x00, 0x40)\n      dup2\n      dup2\n      sload\n      dup2\n      lt\n      tag_61\n      jumpi\n      0x00\n      dup1\n      revert\n    tag_61:\n      swap1\n      0x00\n      mstore\n      keccak256(0x00, 0x20)\n      swap1\n      0x03\n      mul\n      add\n      0x00\n      swap2\n      pop\n      swap2\n      pop\n      pop\n      dup1\n      0x00\n      add\n      0x00\n      swap1\n      sload\n      swap1\n      0x0100\n      exp\n      swap1\n      div\n      0xffffffffffffffffffffffffffffffffffffffff\n      and\n      swap1\n      dup1\n      0x01\n      add\n      sload\n      swap1\n      dup1\n      0x02\n      add\n      0x00\n      swap1\n      sload\n      swap1\n      0x0100\n      exp\n      swap1\n      div\n      0xff\n      and\n      swap1\n      pop\n      dup4\n      jump\t// out\n        /* \"BiddingSystem.sol\":1117:1344  function setFactory(address _factory) external {... */\n    tag_29:\n        /* \"BiddingSystem.sol\":1184:1194  factorySet */\n      0x02\n      0x14\n      swap1\n      sload\n      swap1\n      0x0100\n      exp\n      swap1\n      div\n      0xff\n      and\n        /* \"BiddingSystem.sol\":1183:1194  !factorySet */\n      iszero\n        /* \"BiddingSystem.sol\":1175:1218  require(!factorySet, \"Factory already set\") */\n      tag_64\n      jumpi\n      mload(0x40)\n      0x08c379a000000000000000000000000000000000000000000000000000000000\n      dup2\n      mstore\n      0x04\n      add\n      tag_65\n      swap1\n      tag_66\n      jump\t// in\n    tag_65:\n      mload(0x40)\n      dup1\n      swap2\n      sub\n      swap1\n      revert\n    tag_64:\n        /* \"BiddingSystem.sol\":1257:1258  0 */\n      0x00\n        /* \"BiddingSystem.sol\":1237:1259  _factory != address(0) */\n      0xffffffffffffffffffffffffffffffffffffffff\n      and\n        /* \"BiddingSystem.sol\":1237:1245  _factory */\n      dup2\n        /* \"BiddingSystem.sol\":1237:1259  _factory != address(0) */\n      0xffffffffffffffffffffffffffffffffffffffff\n      and\n      sub\n        /* \"BiddingSystem.sol\":1229:1279  require(_factory != address(0), \"Invalid address\") */\n      tag_67\n      jumpi\n      mload(0x40)\n      0x08c379a000000000000000000000000000000000000000000000000000000000\n      dup2\n      mstore\n      0x04\n      add\n      tag_68\n      swap1\n      tag_69\n      jump\t// in\n    tag_68:\n      mload(0x40)\n      dup1\n      swap2\n      sub\n      swap1\n      revert\n    tag_67:\n        /* \"BiddingSystem.sol\":1300:1308  _factory */\n      dup1\n        /* \"BiddingSystem.sol\":1290:1297  factory */\n      0x02\n      0x00\n        /* \"BiddingSystem.sol\":1290:1308  factory = _factory */\n      0x0100\n      exp\n      dup2\n      sload\n      dup2\n      0xffffffffffffffffffffffffffffffffffffffff\n      mul\n      not\n      and\n      swap1\n      dup4\n      0xffffffffffffffffffffffffffffffffffffffff\n      and\n      mul\n      or\n      swap1\n      sstore\n      pop\n        /* \"BiddingSystem.sol\":1332:1336  true */\n      0x01\n        /* \"BiddingSystem.sol\":1319:1329  factorySet */\n      0x02\n      0x14\n        /* \"BiddingSystem.sol\":1319:1336  factorySet = true */\n      0x0100\n      exp\n      dup2\n      sload\n      dup2\n      0xff\n      mul\n      not\n      and\n      swap1\n      dup4\n      iszero\n      iszero\n      mul\n      or\n      swap1\n      sstore\n      pop\n        /* \"BiddingSystem.sol\":1117:1344  function setFactory(address _factory) external {... */\n      pop\n      jump\t// out\n        /* \"BiddingSystem.sol\":2167:2390  function qualifyBidder(uint256 _taskId, uint256 _bidIndex) external onlyFactory {... */\n    tag_33:\n        /* \"BiddingSystem.sol\":935:942  factory */\n      0x02\n      0x00\n      swap1\n      sload\n      swap1\n      0x0100\n      exp\n      swap1\n      div\n      0xffffffffffffffffffffffffffffffffffffffff\n      and\n        /* \"BiddingSystem.sol\":921:942  msg.sender == factory */\n      0xffffffffffffffffffffffffffffffffffffffff\n      and\n        /* \"BiddingSystem.sol\":921:931  msg.sender */\n      caller\n        /* \"BiddingSystem.sol\":921:942  msg.sender == factory */\n      0xffffffffffffffffffffffffffffffffffffffff\n      and\n      eq\n        /* \"BiddingSystem.sol\":913:959  require(msg.sender == factory, \"Unauthorized\") */\n      tag_71\n      jumpi\n      mload(0x40)\n      0x08c379a000000000000000000000000000000000000000000000000000000000\n      dup2\n      mstore\n      0x04\n      add\n      tag_72\n      swap1\n      tag_73\n      jump\t// in\n    tag_72:\n      mload(0x40)\n      dup1\n      swap2\n      sub\n      swap1\n      revert\n    tag_71:\n        /* \"BiddingSystem.sol\":2278:2286  taskBids */\n      0x00\n        /* \"BiddingSystem.sol\":2278:2295  taskBids[_taskId] */\n      0x00\n        /* \"BiddingSystem.sol\":2287:2294  _taskId */\n      dup4\n        /* \"BiddingSystem.sol\":2278:2295  taskBids[_taskId] */\n      dup2\n      mstore\n      0x20\n      add\n      swap1\n      dup2\n      mstore\n      0x20\n      add\n      0x00\n      keccak256\n        /* \"BiddingSystem.sol\":2278:2302  taskBids[_taskId].length */\n      dup1\n      sload\n      swap1\n      pop\n        /* \"BiddingSystem.sol\":2266:2275  _bidIndex */\n      dup2\n        /* \"BiddingSystem.sol\":2266:2302  _bidIndex < taskBids[_taskId].length */\n      lt\n        /* \"BiddingSystem.sol\":2258:2324  require(_bidIndex < taskBids[_taskId].length, \"Invalid bid index\") */\n      tag_75\n      jumpi\n      mload(0x40)\n      0x08c379a000000000000000000000000000000000000000000000000000000000\n      dup2\n      mstore\n      0x04\n      add\n      tag_76\n      swap1\n      tag_77\n      jump\t// in\n    tag_76:\n      mload(0x40)\n      dup1\n      swap2\n      sub\n      swap1\n      revert\n    tag_75:\n        /* \"BiddingSystem.sol\":2378:2382  true */\n      0x01\n        /* \"BiddingSystem.sol\":2335:2343  taskBids */\n      0x00\n        /* \"BiddingSystem.sol\":2335:2352  taskBids[_taskId] */\n      0x00\n        /* \"BiddingSystem.sol\":2344:2351  _taskId */\n      dup5\n        /* \"BiddingSystem.sol\":2335:2352  taskBids[_taskId] */\n      dup2\n      mstore\n      0x20\n      add\n      swap1\n      dup2\n      mstore\n      0x20\n      add\n      0x00\n      keccak256\n        /* \"BiddingSystem.sol\":2353:2362  _bidIndex */\n      dup3\n        /* \"BiddingSystem.sol\":2335:2363  taskBids[_taskId][_bidIndex] */\n      dup2\n      sload\n      dup2\n      lt\n      tag_78\n      jumpi\n      tag_79\n      tag_80\n      jump\t// in\n    tag_79:\n    tag_78:\n      swap1\n      0x00\n      mstore\n      keccak256(0x00, 0x20)\n      swap1\n      0x03\n      mul\n      add\n        /* \"BiddingSystem.sol\":2335:2375  taskBids[_taskId][_bidIndex].isQualified */\n      0x02\n      add\n      0x00\n        /* \"BiddingSystem.sol\":2335:2382  taskBids[_taskId][_bidIndex].isQualified = true */\n      0x0100\n      exp\n      dup2\n      sload\n      dup2\n      0xff\n      mul\n      not\n      and\n      swap1\n      dup4\n      iszero\n      iszero\n      mul\n      or\n      swap1\n      sstore\n      pop\n        /* \"BiddingSystem.sol\":2167:2390  function qualifyBidder(uint256 _taskId, uint256 _bidIndex) external onlyFactory {... */\n      pop\n      pop\n      jump\t// out\n        /* \"BiddingSystem.sol\":1591:2105  function placeBid(uint256 _taskId) external payable {... */\n    tag_37:\n        /* \"BiddingSystem.sol\":1675:1688  depositAmount */\n      sload(0x03)\n        /* \"BiddingSystem.sol\":1662:1671  msg.value */\n      callvalue\n        /* \"BiddingSystem.sol\":1662:1688  msg.value == depositAmount */\n      eq\n        /* \"BiddingSystem.sol\":1654:1710  require(msg.value == depositAmount, \"Incorrect deposit\") */\n      tag_83\n      jumpi\n      mload(0x40)\n      0x08c379a000000000000000000000000000000000000000000000000000000000\n      dup2\n      mstore\n      0x04\n      add\n      tag_84\n      swap1\n      tag_85\n      jump\t// in\n    tag_84:\n      mload(0x40)\n      dup1\n      swap2\n      sub\n      swap1\n      revert\n    tag_83:\n        /* \"BiddingSystem.sol\":1752:1770  Bid[] storage bids */\n      0x00\n        /* \"BiddingSystem.sol\":1773:1781  taskBids */\n      0x00\n        /* \"BiddingSystem.sol\":1773:1790  taskBids[_taskId] */\n      0x00\n        /* \"BiddingSystem.sol\":1782:1789  _taskId */\n      dup4\n        /* \"BiddingSystem.sol\":1773:1790  taskBids[_taskId] */\n      dup2\n      mstore\n      0x20\n      add\n      swap1\n      dup2\n      mstore\n      0x20\n      add\n      0x00\n      keccak256\n        /* \"BiddingSystem.sol\":1752:1790  Bid[] storage bids = taskBids[_taskId] */\n      swap1\n      pop\n        /* \"BiddingSystem.sol\":1806:1812  uint i */\n      0x00\n        /* \"BiddingSystem.sol\":1815:1816  0 */\n      0x00\n        /* \"BiddingSystem.sol\":1806:1816  uint i = 0 */\n      swap1\n      pop\n        /* \"BiddingSystem.sol\":1801:1919  for (uint i = 0; i < bids.length; i++) {... */\n    tag_86:\n        /* \"BiddingSystem.sol\":1822:1826  bids */\n      dup2\n        /* \"BiddingSystem.sol\":1822:1833  bids.length */\n      dup1\n      sload\n      swap1\n      pop\n        /* \"BiddingSystem.sol\":1818:1819  i */\n      dup2\n        /* \"BiddingSystem.sol\":1818:1833  i < bids.length */\n      lt\n        /* \"BiddingSystem.sol\":1801:1919  for (uint i = 0; i < bids.length; i++) {... */\n      iszero\n      tag_87\n      jumpi\n        /* \"BiddingSystem.sol\":1881:1891  msg.sender */\n      caller\n        /* \"BiddingSystem.sol\":1863:1891  bids[i].bidder != msg.sender */\n      0xffffffffffffffffffffffffffffffffffffffff\n      and\n        /* \"BiddingSystem.sol\":1863:1867  bids */\n      dup3\n        /* \"BiddingSystem.sol\":1868:1869  i */\n      dup3\n        /* \"BiddingSystem.sol\":1863:1870  bids[i] */\n      dup2\n      sload\n      dup2\n      lt\n      tag_89\n      jumpi\n      tag_90\n      tag_80\n      jump\t// in\n    tag_90:\n    tag_89:\n      swap1\n      0x00\n      mstore\n      keccak256(0x00, 0x20)\n      swap1\n      0x03\n      mul\n      add\n        /* \"BiddingSystem.sol\":1863:1877  bids[i].bidder */\n      0x00\n      add\n      0x00\n      swap1\n      sload\n      swap1\n      0x0100\n      exp\n      swap1\n      div\n      0xffffffffffffffffffffffffffffffffffffffff\n      and\n        /* \"BiddingSystem.sol\":1863:1891  bids[i].bidder != msg.sender */\n      0xffffffffffffffffffffffffffffffffffffffff\n      and\n      sub\n        /* \"BiddingSystem.sol\":1855:1907  require(bids[i].bidder != msg.sender, \"Already bid\") */\n      tag_92\n      jumpi\n      mload(0x40)\n      0x08c379a000000000000000000000000000000000000000000000000000000000\n      dup2\n      mstore\n      0x04\n      add\n      tag_93\n      swap1\n      tag_94\n      jump\t// in\n    tag_93:\n      mload(0x40)\n      dup1\n      swap2\n      sub\n      swap1\n      revert\n    tag_92:\n        /* \"BiddingSystem.sol\":1835:1838  i++ */\n      dup1\n      dup1\n      0x01\n      add\n      swap2\n      pop\n      pop\n        /* \"BiddingSystem.sol\":1801:1919  for (uint i = 0; i < bids.length; i++) {... */\n      jump(tag_86)\n    tag_87:\n      pop\n        /* \"BiddingSystem.sol\":1929:1933  bids */\n      dup1\n        /* \"BiddingSystem.sol\":1939:2053  Bid({... */\n      mload(0x40)\n      dup1\n      0x60\n      add\n      0x40\n      mstore\n      dup1\n        /* \"BiddingSystem.sol\":1966:1976  msg.sender */\n      caller\n        /* \"BiddingSystem.sol\":1939:2053  Bid({... */\n      0xffffffffffffffffffffffffffffffffffffffff\n      and\n      dup2\n      mstore\n      0x20\n      add\n        /* \"BiddingSystem.sol\":1999:2008  msg.value */\n      callvalue\n        /* \"BiddingSystem.sol\":1939:2053  Bid({... */\n      dup2\n      mstore\n      0x20\n      add\n        /* \"BiddingSystem.sol\":2036:2041  false */\n      0x00\n        /* \"BiddingSystem.sol\":1939:2053  Bid({... */\n      iszero\n      iszero\n      dup2\n      mstore\n      pop\n        /* \"BiddingSystem.sol\":1929:2054  bids.push(Bid({... */\n      swap1\n      dup1\n      0x01\n      dup2\n      sload\n      add\n      dup1\n      dup3\n      sstore\n      dup1\n      swap2\n      pop\n      pop\n      0x01\n      swap1\n      sub\n      swap1\n      0x00\n      mstore\n      keccak256(0x00, 0x20)\n      swap1\n      0x03\n      mul\n      add\n      0x00\n      swap1\n      swap2\n      swap1\n      swap2\n      swap1\n      swap2\n      pop\n      0x00\n      dup3\n      add\n      mload\n      dup2\n      0x00\n      add\n      exp(0x0100, 0x00)\n      dup2\n      sload\n      dup2\n      0xffffffffffffffffffffffffffffffffffffffff\n      mul\n      not\n      and\n      swap1\n      dup4\n      0xffffffffffffffffffffffffffffffffffffffff\n      and\n      mul\n      or\n      swap1\n      sstore\n      pop\n      0x20\n      dup3\n      add\n      mload\n      dup2\n      0x01\n      add\n      sstore\n      0x40\n      dup3\n      add\n      mload\n      dup2\n      0x02\n      add\n      exp(0x0100, 0x00)\n      dup2\n      sload\n      dup2\n      0xff\n      mul\n      not\n      and\n      swap1\n      dup4\n      iszero\n      iszero\n      mul\n      or\n      swap1\n      sstore\n      pop\n      pop\n      pop\n        /* \"BiddingSystem.sol\":2086:2096  msg.sender */\n      caller\n        /* \"BiddingSystem.sol\":2070:2097  NewBid(_taskId, msg.sender) */\n      0xffffffffffffffffffffffffffffffffffffffff\n      and\n        /* \"BiddingSystem.sol\":2077:2084  _taskId */\n      dup3\n        /* \"BiddingSystem.sol\":2070:2097  NewBid(_taskId, msg.sender) */\n      0x45401769c1d58f70bd6b63e1a66bfc17d712ce0dc4ffb8d2dd0ad7177d56a386\n      mload(0x40)\n      mload(0x40)\n      dup1\n      swap2\n      sub\n      swap1\n      log3\n        /* \"BiddingSystem.sol\":1643:2105  {... */\n      pop\n        /* \"BiddingSystem.sol\":1591:2105  function placeBid(uint256 _taskId) external payable {... */\n      pop\n      jump\t// out\n        /* \"BiddingSystem.sol\":397:439  mapping(uint256 => address) public winners */\n    tag_41:\n      mstore(0x20, 0x01)\n      dup1\n      0x00\n      mstore\n      keccak256(0x00, 0x40)\n      0x00\n      swap2\n      pop\n      sload\n      swap1\n      0x0100\n      exp\n      swap1\n      div\n      0xffffffffffffffffffffffffffffffffffffffff\n      and\n      dup2\n      jump\t// out\n        /* \"BiddingSystem.sol\":448:470  address public factory */\n    tag_46:\n      0x02\n      0x00\n      swap1\n      sload\n      swap1\n      0x0100\n      exp\n      swap1\n      div\n      0xffffffffffffffffffffffffffffffffffffffff\n      and\n      dup2\n      jump\t// out\n        /* \"BiddingSystem.sol\":538:568  bool public factorySet = false */\n    tag_50:\n      0x02\n      0x14\n      swap1\n      sload\n      swap1\n      0x0100\n      exp\n      swap1\n      div\n      0xff\n      and\n      dup2\n      jump\t// out\n        /* \"BiddingSystem.sol\":1409:1511  function openBidding(uint256 _taskId) external onlyFactory {... */\n    tag_56:\n        /* \"BiddingSystem.sol\":935:942  factory */\n      0x02\n      0x00\n      swap1\n      sload\n      swap1\n      0x0100\n      exp\n      swap1\n      div\n      0xffffffffffffffffffffffffffffffffffffffff\n      and\n        /* \"BiddingSystem.sol\":921:942  msg.sender == factory */\n      0xffffffffffffffffffffffffffffffffffffffff\n      and\n        /* \"BiddingSystem.sol\":921:931  msg.sender */\n      caller\n        /* \"BiddingSystem.sol\":921:942  msg.sender == factory */\n      0xffffffffffffffffffffffffffffffffffffffff\n      and\n      eq\n        /* \"BiddingSystem.sol\":913:959  require(msg.sender == factory, \"Unauthorized\") */\n      tag_97\n      jumpi\n      mload(0x40)\n      0x08c379a000000000000000000000000000000000000000000000000000000000\n      dup2\n      mstore\n      0x04\n      add\n      tag_98\n      swap1\n      tag_73\n      jump\t// in\n    tag_98:\n      mload(0x40)\n      dup1\n      swap2\n      sub\n      swap1\n      revert\n    tag_97:\n        /* \"BiddingSystem.sol\":1486:1494  taskBids */\n      0x00\n        /* \"BiddingSystem.sol\":1486:1503  taskBids[_taskId] */\n      0x00\n        /* \"BiddingSystem.sol\":1495:1502  _taskId */\n      dup3\n        /* \"BiddingSystem.sol\":1486:1503  taskBids[_taskId] */\n      dup2\n      mstore\n      0x20\n      add\n      swap1\n      dup2\n      mstore\n      0x20\n      add\n      0x00\n      keccak256\n      0x00\n        /* \"BiddingSystem.sol\":1479:1503  delete taskBids[_taskId] */\n      tag_100\n      swap2\n      swap1\n      tag_101\n      jump\t// in\n    tag_100:\n        /* \"BiddingSystem.sol\":1409:1511  function openBidding(uint256 _taskId) external onlyFactory {... */\n      pop\n      jump\t// out\n        /* \"BiddingSystem.sol\":2434:2720  function selectWinner(uint256 _taskId, uint256 _bidIndex) external onlyFactory {... */\n    tag_60:\n        /* \"BiddingSystem.sol\":935:942  factory */\n      0x02\n      0x00\n      swap1\n      sload\n      swap1\n      0x0100\n      exp\n      swap1\n      div\n      0xffffffffffffffffffffffffffffffffffffffff\n      and\n        /* \"BiddingSystem.sol\":921:942  msg.sender == factory */\n      0xffffffffffffffffffffffffffffffffffffffff\n      and\n        /* \"BiddingSystem.sol\":921:931  msg.sender */\n      caller\n        /* \"BiddingSystem.sol\":921:942  msg.sender == factory */\n      0xffffffffffffffffffffffffffffffffffffffff\n      and\n      eq\n        /* \"BiddingSystem.sol\":913:959  require(msg.sender == factory, \"Unauthorized\") */\n      tag_103\n      jumpi\n      mload(0x40)\n      0x08c379a000000000000000000000000000000000000000000000000000000000\n      dup2\n      mstore\n      0x04\n      add\n      tag_104\n      swap1\n      tag_73\n      jump\t// in\n    tag_104:\n      mload(0x40)\n      dup1\n      swap2\n      sub\n      swap1\n      revert\n    tag_103:\n        /* \"BiddingSystem.sol\":2544:2552  taskBids */\n      0x00\n        /* \"BiddingSystem.sol\":2544:2561  taskBids[_taskId] */\n      0x00\n        /* \"BiddingSystem.sol\":2553:2560  _taskId */\n      dup4\n        /* \"BiddingSystem.sol\":2544:2561  taskBids[_taskId] */\n      dup2\n      mstore\n      0x20\n      add\n      swap1\n      dup2\n      mstore\n      0x20\n      add\n      0x00\n      keccak256\n        /* \"BiddingSystem.sol\":2544:2568  taskBids[_taskId].length */\n      dup1\n      sload\n      swap1\n      pop\n        /* \"BiddingSystem.sol\":2532:2541  _bidIndex */\n      dup2\n        /* \"BiddingSystem.sol\":2532:2568  _bidIndex < taskBids[_taskId].length */\n      lt\n        /* \"BiddingSystem.sol\":2524:2590  require(_bidIndex < taskBids[_taskId].length, \"Invalid bid index\") */\n      tag_106\n      jumpi\n      mload(0x40)\n      0x08c379a000000000000000000000000000000000000000000000000000000000\n      dup2\n      mstore\n      0x04\n      add\n      tag_107\n      swap1\n      tag_77\n      jump\t// in\n    tag_107:\n      mload(0x40)\n      dup1\n      swap2\n      sub\n      swap1\n      revert\n    tag_106:\n        /* \"BiddingSystem.sol\":2620:2628  taskBids */\n      0x00\n        /* \"BiddingSystem.sol\":2620:2637  taskBids[_taskId] */\n      0x00\n        /* \"BiddingSystem.sol\":2629:2636  _taskId */\n      dup4\n        /* \"BiddingSystem.sol\":2620:2637  taskBids[_taskId] */\n      dup2\n      mstore\n      0x20\n      add\n      swap1\n      dup2\n      mstore\n      0x20\n      add\n      0x00\n      keccak256\n        /* \"BiddingSystem.sol\":2638:2647  _bidIndex */\n      dup2\n        /* \"BiddingSystem.sol\":2620:2648  taskBids[_taskId][_bidIndex] */\n      dup2\n      sload\n      dup2\n      lt\n      tag_108\n      jumpi\n      tag_109\n      tag_80\n      jump\t// in\n    tag_109:\n    tag_108:\n      swap1\n      0x00\n      mstore\n      keccak256(0x00, 0x20)\n      swap1\n      0x03\n      mul\n      add\n        /* \"BiddingSystem.sol\":2620:2655  taskBids[_taskId][_bidIndex].bidder */\n      0x00\n      add\n      0x00\n      swap1\n      sload\n      swap1\n      0x0100\n      exp\n      swap1\n      div\n      0xffffffffffffffffffffffffffffffffffffffff\n      and\n        /* \"BiddingSystem.sol\":2601:2608  winners */\n      0x01\n        /* \"BiddingSystem.sol\":2601:2617  winners[_taskId] */\n      0x00\n        /* \"BiddingSystem.sol\":2609:2616  _taskId */\n      dup5\n        /* \"BiddingSystem.sol\":2601:2617  winners[_taskId] */\n      dup2\n      mstore\n      0x20\n      add\n      swap1\n      dup2\n      mstore\n      0x20\n      add\n      0x00\n      keccak256\n      0x00\n        /* \"BiddingSystem.sol\":2601:2655  winners[_taskId] = taskBids[_taskId][_bidIndex].bidder */\n      0x0100\n      exp\n      dup2\n      sload\n      dup2\n      0xffffffffffffffffffffffffffffffffffffffff\n      mul\n      not\n      and\n      swap1\n      dup4\n      0xffffffffffffffffffffffffffffffffffffffff\n      and\n      mul\n      or\n      swap1\n      sstore\n      pop\n        /* \"BiddingSystem.sol\":2695:2702  winners */\n      0x01\n        /* \"BiddingSystem.sol\":2695:2711  winners[_taskId] */\n      0x00\n        /* \"BiddingSystem.sol\":2703:2710  _taskId */\n      dup4\n        /* \"BiddingSystem.sol\":2695:2711  winners[_taskId] */\n      dup2\n      mstore\n      0x20\n      add\n      swap1\n      dup2\n      mstore\n      0x20\n      add\n      0x00\n      keccak256\n      0x00\n      swap1\n      sload\n      swap1\n      0x0100\n      exp\n      swap1\n      div\n      0xffffffffffffffffffffffffffffffffffffffff\n      and\n        /* \"BiddingSystem.sol\":2671:2712  WinnerSelected(_taskId, winners[_taskId]) */\n      0xffffffffffffffffffffffffffffffffffffffff\n      and\n        /* \"BiddingSystem.sol\":2686:2693  _taskId */\n      dup3\n        /* \"BiddingSystem.sol\":2671:2712  WinnerSelected(_taskId, winners[_taskId]) */\n      0x03fb57eb449654e24e1b240d3d06702cf79362a065d5c0323aee642d4702fa4b\n      mload(0x40)\n      mload(0x40)\n      dup1\n      swap2\n      sub\n      swap1\n      log3\n        /* \"BiddingSystem.sol\":2434:2720  function selectWinner(uint256 _taskId, uint256 _bidIndex) external onlyFactory {... */\n      pop\n      pop\n      jump\t// out\n    tag_101:\n      pop\n      dup1\n      sload\n      0x00\n      dup3\n      sstore\n      0x03\n      mul\n      swap1\n      0x00\n      mstore\n      keccak256(0x00, 0x20)\n      swap1\n      dup2\n      add\n      swap1\n      tag_112\n      swap2\n      swap1\n      tag_113\n      jump\t// in\n    tag_112:\n      pop\n      jump\t// out\n    tag_113:\n    tag_114:\n      dup1\n      dup3\n      gt\n      iszero\n      tag_115\n      jumpi\n      0x00\n      0x00\n      dup3\n      add\n      exp(0x0100, 0x00)\n      dup2\n      sload\n      swap1\n      0xffffffffffffffffffffffffffffffffffffffff\n      mul\n      not\n      and\n      swap1\n      sstore\n      0x01\n      dup3\n      add\n      0x00\n      swap1\n      sstore\n      0x02\n      dup3\n      add\n      exp(0x0100, 0x00)\n      dup2\n      sload\n      swap1\n      0xff\n      mul\n      not\n      and\n      swap1\n      sstore\n      pop\n      0x03\n      add\n      jump(tag_114)\n    tag_115:\n      pop\n      swap1\n      jump\t// out\n        /* \"#utility.yul\":7:84   */\n    tag_116:\n        /* \"#utility.yul\":44:51   */\n      0x00\n        /* \"#utility.yul\":73:78   */\n      dup2\n        /* \"#utility.yul\":62:78   */\n      swap1\n      pop\n        /* \"#utility.yul\":7:84   */\n      swap2\n      swap1\n      pop\n      jump\t// out\n        /* \"#utility.yul\":90:208   */\n    tag_117:\n        /* \"#utility.yul\":177:201   */\n      tag_146\n        /* \"#utility.yul\":195:200   */\n      dup2\n        /* \"#utility.yul\":177:201   */\n      tag_116\n      jump\t// in\n    tag_146:\n        /* \"#utility.yul\":172:175   */\n      dup3\n        /* \"#utility.yul\":165:202   */\n      mstore\n        /* \"#utility.yul\":90:208   */\n      pop\n      pop\n      jump\t// out\n        /* \"#utility.yul\":214:436   */\n    tag_17:\n        /* \"#utility.yul\":307:311   */\n      0x00\n        /* \"#utility.yul\":345:347   */\n      0x20\n        /* \"#utility.yul\":334:343   */\n      dup3\n        /* \"#utility.yul\":330:348   */\n      add\n        /* \"#utility.yul\":322:348   */\n      swap1\n      pop\n        /* \"#utility.yul\":358:429   */\n      tag_148\n        /* \"#utility.yul\":426:427   */\n      0x00\n        /* \"#utility.yul\":415:424   */\n      dup4\n        /* \"#utility.yul\":411:428   */\n      add\n        /* \"#utility.yul\":402:408   */\n      dup5\n        /* \"#utility.yul\":358:429   */\n      tag_117\n      jump\t// in\n    tag_148:\n        /* \"#utility.yul\":214:436   */\n      swap3\n      swap2\n      pop\n      pop\n      jump\t// out\n        /* \"#utility.yul\":523:640   */\n    tag_119:\n        /* \"#utility.yul\":632:633   */\n      0x00\n        /* \"#utility.yul\":629:630   */\n      0x00\n        /* \"#utility.yul\":622:634   */\n      revert\n        /* \"#utility.yul\":769:891   */\n    tag_121:\n        /* \"#utility.yul\":842:866   */\n      tag_153\n        /* \"#utility.yul\":860:865   */\n      dup2\n        /* \"#utility.yul\":842:866   */\n      tag_116\n      jump\t// in\n    tag_153:\n        /* \"#utility.yul\":835:840   */\n      dup2\n        /* \"#utility.yul\":832:867   */\n      eq\n        /* \"#utility.yul\":822:885   */\n      tag_154\n      jumpi\n        /* \"#utility.yul\":881:882   */\n      0x00\n        /* \"#utility.yul\":878:879   */\n      0x00\n        /* \"#utility.yul\":871:883   */\n      revert\n        /* \"#utility.yul\":822:885   */\n    tag_154:\n        /* \"#utility.yul\":769:891   */\n      pop\n      jump\t// out\n        /* \"#utility.yul\":897:1036   */\n    tag_122:\n        /* \"#utility.yul\":943:948   */\n      0x00\n        /* \"#utility.yul\":981:987   */\n      dup2\n        /* \"#utility.yul\":968:988   */\n      calldataload\n        /* \"#utility.yul\":959:988   */\n      swap1\n      pop\n        /* \"#utility.yul\":997:1030   */\n      tag_156\n        /* \"#utility.yul\":1024:1029   */\n      dup2\n        /* \"#utility.yul\":997:1030   */\n      tag_121\n      jump\t// in\n    tag_156:\n        /* \"#utility.yul\":897:1036   */\n      swap3\n      swap2\n      pop\n      pop\n      jump\t// out\n        /* \"#utility.yul\":1042:1516   */\n    tag_21:\n        /* \"#utility.yul\":1110:1116   */\n      0x00\n        /* \"#utility.yul\":1118:1124   */\n      0x00\n        /* \"#utility.yul\":1167:1169   */\n      0x40\n        /* \"#utility.yul\":1155:1164   */\n      dup4\n        /* \"#utility.yul\":1146:1153   */\n      dup6\n        /* \"#utility.yul\":1142:1165   */\n      sub\n        /* \"#utility.yul\":1138:1170   */\n      slt\n        /* \"#utility.yul\":1135:1254   */\n      iszero\n      tag_158\n      jumpi\n        /* \"#utility.yul\":1173:1252   */\n      tag_159\n      tag_119\n      jump\t// in\n    tag_159:\n        /* \"#utility.yul\":1135:1254   */\n    tag_158:\n        /* \"#utility.yul\":1293:1294   */\n      0x00\n        /* \"#utility.yul\":1318:1371   */\n      tag_160\n        /* \"#utility.yul\":1363:1370   */\n      dup6\n        /* \"#utility.yul\":1354:1360   */\n      dup3\n        /* \"#utility.yul\":1343:1352   */\n      dup7\n        /* \"#utility.yul\":1339:1361   */\n      add\n        /* \"#utility.yul\":1318:1371   */\n      tag_122\n      jump\t// in\n    tag_160:\n        /* \"#utility.yul\":1308:1371   */\n      swap3\n      pop\n        /* \"#utility.yul\":1264:1381   */\n      pop\n        /* \"#utility.yul\":1420:1422   */\n      0x20\n        /* \"#utility.yul\":1446:1499   */\n      tag_161\n        /* \"#utility.yul\":1491:1498   */\n      dup6\n        /* \"#utility.yul\":1482:1488   */\n      dup3\n        /* \"#utility.yul\":1471:1480   */\n      dup7\n        /* \"#utility.yul\":1467:1489   */\n      add\n        /* \"#utility.yul\":1446:1499   */\n      tag_122\n      jump\t// in\n    tag_161:\n        /* \"#utility.yul\":1436:1499   */\n      swap2\n      pop\n        /* \"#utility.yul\":1391:1509   */\n      pop\n        /* \"#utility.yul\":1042:1516   */\n      swap3\n      pop\n      swap3\n      swap1\n      pop\n      jump\t// out\n        /* \"#utility.yul\":1522:1648   */\n    tag_123:\n        /* \"#utility.yul\":1559:1566   */\n      0x00\n        /* \"#utility.yul\":1599:1641   */\n      0xffffffffffffffffffffffffffffffffffffffff\n        /* \"#utility.yul\":1592:1597   */\n      dup3\n        /* \"#utility.yul\":1588:1642   */\n      and\n        /* \"#utility.yul\":1577:1642   */\n      swap1\n      pop\n        /* \"#utility.yul\":1522:1648   */\n      swap2\n      swap1\n      pop\n      jump\t// out\n        /* \"#utility.yul\":1654:1750   */\n    tag_124:\n        /* \"#utility.yul\":1691:1698   */\n      0x00\n        /* \"#utility.yul\":1720:1744   */\n      tag_164\n        /* \"#utility.yul\":1738:1743   */\n      dup3\n        /* \"#utility.yul\":1720:1744   */\n      tag_123\n      jump\t// in\n    tag_164:\n        /* \"#utility.yul\":1709:1744   */\n      swap1\n      pop\n        /* \"#utility.yul\":1654:1750   */\n      swap2\n      swap1\n      pop\n      jump\t// out\n        /* \"#utility.yul\":1756:1874   */\n    tag_125:\n        /* \"#utility.yul\":1843:1867   */\n      tag_166\n        /* \"#utility.yul\":1861:1866   */\n      dup2\n        /* \"#utility.yul\":1843:1867   */\n      tag_124\n      jump\t// in\n    tag_166:\n        /* \"#utility.yul\":1838:1841   */\n      dup3\n        /* \"#utility.yul\":1831:1868   */\n      mstore\n        /* \"#utility.yul\":1756:1874   */\n      pop\n      pop\n      jump\t// out\n        /* \"#utility.yul\":1880:1970   */\n    tag_126:\n        /* \"#utility.yul\":1914:1921   */\n      0x00\n        /* \"#utility.yul\":1957:1962   */\n      dup2\n        /* \"#utility.yul\":1950:1963   */\n      iszero\n        /* \"#utility.yul\":1943:1964   */\n      iszero\n        /* \"#utility.yul\":1932:1964   */\n      swap1\n      pop\n        /* \"#utility.yul\":1880:1970   */\n      swap2\n      swap1\n      pop\n      jump\t// out\n        /* \"#utility.yul\":1976:2085   */\n    tag_127:\n        /* \"#utility.yul\":2057:2078   */\n      tag_169\n        /* \"#utility.yul\":2072:2077   */\n      dup2\n        /* \"#utility.yul\":2057:2078   */\n      tag_126\n      jump\t// in\n    tag_169:\n        /* \"#utility.yul\":2052:2055   */\n      dup3\n        /* \"#utility.yul\":2045:2079   */\n      mstore\n        /* \"#utility.yul\":1976:2085   */\n      pop\n      pop\n      jump\t// out\n        /* \"#utility.yul\":2091:2521   */\n    tag_24:\n        /* \"#utility.yul\":2234:2238   */\n      0x00\n        /* \"#utility.yul\":2272:2274   */\n      0x60\n        /* \"#utility.yul\":2261:2270   */\n      dup3\n        /* \"#utility.yul\":2257:2275   */\n      add\n        /* \"#utility.yul\":2249:2275   */\n      swap1\n      pop\n        /* \"#utility.yul\":2285:2356   */\n      tag_171\n        /* \"#utility.yul\":2353:2354   */\n      0x00\n        /* \"#utility.yul\":2342:2351   */\n      dup4\n        /* \"#utility.yul\":2338:2355   */\n      add\n        /* \"#utility.yul\":2329:2335   */\n      dup7\n        /* \"#utility.yul\":2285:2356   */\n      tag_125\n      jump\t// in\n    tag_171:\n        /* \"#utility.yul\":2366:2438   */\n      tag_172\n        /* \"#utility.yul\":2434:2436   */\n      0x20\n        /* \"#utility.yul\":2423:2432   */\n      dup4\n        /* \"#utility.yul\":2419:2437   */\n      add\n        /* \"#utility.yul\":2410:2416   */\n      dup6\n        /* \"#utility.yul\":2366:2438   */\n      tag_117\n      jump\t// in\n    tag_172:\n        /* \"#utility.yul\":2448:2514   */\n      tag_173\n        /* \"#utility.yul\":2510:2512   */\n      0x40\n        /* \"#utility.yul\":2499:2508   */\n      dup4\n        /* \"#utility.yul\":2495:2513   */\n      add\n        /* \"#utility.yul\":2486:2492   */\n      dup5\n        /* \"#utility.yul\":2448:2514   */\n      tag_127\n      jump\t// in\n    tag_173:\n        /* \"#utility.yul\":2091:2521   */\n      swap5\n      swap4\n      pop\n      pop\n      pop\n      pop\n      jump\t// out\n        /* \"#utility.yul\":2527:2649   */\n    tag_128:\n        /* \"#utility.yul\":2600:2624   */\n      tag_175\n        /* \"#utility.yul\":2618:2623   */\n      dup2\n        /* \"#utility.yul\":2600:2624   */\n      tag_124\n      jump\t// in\n    tag_175:\n        /* \"#utility.yul\":2593:2598   */\n      dup2\n        /* \"#utility.yul\":2590:2625   */\n      eq\n        /* \"#utility.yul\":2580:2643   */\n      tag_176\n      jumpi\n        /* \"#utility.yul\":2639:2640   */\n      0x00\n        /* \"#utility.yul\":2636:2637   */\n      0x00\n        /* \"#utility.yul\":2629:2641   */\n      revert\n        /* \"#utility.yul\":2580:2643   */\n    tag_176:\n        /* \"#utility.yul\":2527:2649   */\n      pop\n      jump\t// out\n        /* \"#utility.yul\":2655:2794   */\n    tag_129:\n        /* \"#utility.yul\":2701:2706   */\n      0x00\n        /* \"#utility.yul\":2739:2745   */\n      dup2\n        /* \"#utility.yul\":2726:2746   */\n      calldataload\n        /* \"#utility.yul\":2717:2746   */\n      swap1\n      pop\n        /* \"#utility.yul\":2755:2788   */\n      tag_178\n        /* \"#utility.yul\":2782:2787   */\n      dup2\n        /* \"#utility.yul\":2755:2788   */\n      tag_128\n      jump\t// in\n    tag_178:\n        /* \"#utility.yul\":2655:2794   */\n      swap3\n      swap2\n      pop\n      pop\n      jump\t// out\n        /* \"#utility.yul\":2800:3129   */\n    tag_28:\n        /* \"#utility.yul\":2859:2865   */\n      0x00\n        /* \"#utility.yul\":2908:2910   */\n      0x20\n        /* \"#utility.yul\":2896:2905   */\n      dup3\n        /* \"#utility.yul\":2887:2894   */\n      dup5\n        /* \"#utility.yul\":2883:2906   */\n      sub\n        /* \"#utility.yul\":2879:2911   */\n      slt\n        /* \"#utility.yul\":2876:2995   */\n      iszero\n      tag_180\n      jumpi\n        /* \"#utility.yul\":2914:2993   */\n      tag_181\n      tag_119\n      jump\t// in\n    tag_181:\n        /* \"#utility.yul\":2876:2995   */\n    tag_180:\n        /* \"#utility.yul\":3034:3035   */\n      0x00\n        /* \"#utility.yul\":3059:3112   */\n      tag_182\n        /* \"#utility.yul\":3104:3111   */\n      dup5\n        /* \"#utility.yul\":3095:3101   */\n      dup3\n        /* \"#utility.yul\":3084:3093   */\n      dup6\n        /* \"#utility.yul\":3080:3102   */\n      add\n        /* \"#utility.yul\":3059:3112   */\n      tag_129\n      jump\t// in\n    tag_182:\n        /* \"#utility.yul\":3049:3112   */\n      swap2\n      pop\n        /* \"#utility.yul\":3005:3122   */\n      pop\n        /* \"#utility.yul\":2800:3129   */\n      swap3\n      swap2\n      pop\n      pop\n      jump\t// out\n        /* \"#utility.yul\":3135:3464   */\n    tag_36:\n        /* \"#utility.yul\":3194:3200   */\n      0x00\n        /* \"#utility.yul\":3243:3245   */\n      0x20\n        /* \"#utility.yul\":3231:3240   */\n      dup3\n        /* \"#utility.yul\":3222:3229   */\n      dup5\n        /* \"#utility.yul\":3218:3241   */\n      sub\n        /* \"#utility.yul\":3214:3246   */\n      slt\n        /* \"#utility.yul\":3211:3330   */\n      iszero\n      tag_184\n      jumpi\n        /* \"#utility.yul\":3249:3328   */\n      tag_185\n      tag_119\n      jump\t// in\n    tag_185:\n        /* \"#utility.yul\":3211:3330   */\n    tag_184:\n        /* \"#utility.yul\":3369:3370   */\n      0x00\n        /* \"#utility.yul\":3394:3447   */\n      tag_186\n        /* \"#utility.yul\":3439:3446   */\n      dup5\n        /* \"#utility.yul\":3430:3436   */\n      dup3\n        /* \"#utility.yul\":3419:3428   */\n      dup6\n        /* \"#utility.yul\":3415:3437   */\n      add\n        /* \"#utility.yul\":3394:3447   */\n      tag_122\n      jump\t// in\n    tag_186:\n        /* \"#utility.yul\":3384:3447   */\n      swap2\n      pop\n        /* \"#utility.yul\":3340:3457   */\n      pop\n        /* \"#utility.yul\":3135:3464   */\n      swap3\n      swap2\n      pop\n      pop\n      jump\t// out\n        /* \"#utility.yul\":3470:3692   */\n    tag_43:\n        /* \"#utility.yul\":3563:3567   */\n      0x00\n        /* \"#utility.yul\":3601:3603   */\n      0x20\n        /* \"#utility.yul\":3590:3599   */\n      dup3\n        /* \"#utility.yul\":3586:3604   */\n      add\n        /* \"#utility.yul\":3578:3604   */\n      swap1\n      pop\n        /* \"#utility.yul\":3614:3685   */\n      tag_188\n        /* \"#utility.yul\":3682:3683   */\n      0x00\n        /* \"#utility.yul\":3671:3680   */\n      dup4\n        /* \"#utility.yul\":3667:3684   */\n      add\n        /* \"#utility.yul\":3658:3664   */\n      dup5\n        /* \"#utility.yul\":3614:3685   */\n      tag_125\n      jump\t// in\n    tag_188:\n        /* \"#utility.yul\":3470:3692   */\n      swap3\n      swap2\n      pop\n      pop\n      jump\t// out\n        /* \"#utility.yul\":3698:3908   */\n    tag_52:\n        /* \"#utility.yul\":3785:3789   */\n      0x00\n        /* \"#utility.yul\":3823:3825   */\n      0x20\n        /* \"#utility.yul\":3812:3821   */\n      dup3\n        /* \"#utility.yul\":3808:3826   */\n      add\n        /* \"#utility.yul\":3800:3826   */\n      swap1\n      pop\n        /* \"#utility.yul\":3836:3901   */\n      tag_190\n        /* \"#utility.yul\":3898:3899   */\n      0x00\n        /* \"#utility.yul\":3887:3896   */\n      dup4\n        /* \"#utility.yul\":3883:3900   */\n      add\n        /* \"#utility.yul\":3874:3880   */\n      dup5\n        /* \"#utility.yul\":3836:3901   */\n      tag_127\n      jump\t// in\n    tag_190:\n        /* \"#utility.yul\":3698:3908   */\n      swap3\n      swap2\n      pop\n      pop\n      jump\t// out\n        /* \"#utility.yul\":3914:4083   */\n    tag_130:\n        /* \"#utility.yul\":3998:4009   */\n      0x00\n        /* \"#utility.yul\":4032:4038   */\n      dup3\n        /* \"#utility.yul\":4027:4030   */\n      dup3\n        /* \"#utility.yul\":4020:4039   */\n      mstore\n        /* \"#utility.yul\":4072:4076   */\n      0x20\n        /* \"#utility.yul\":4067:4070   */\n      dup3\n        /* \"#utility.yul\":4063:4077   */\n      add\n        /* \"#utility.yul\":4048:4077   */\n      swap1\n      pop\n        /* \"#utility.yul\":3914:4083   */\n      swap3\n      swap2\n      pop\n      pop\n      jump\t// out\n        /* \"#utility.yul\":4089:4258   */\n    tag_131:\n        /* \"#utility.yul\":4229:4250   */\n      0x466163746f727920616c72656164792073657400000000000000000000000000\n        /* \"#utility.yul\":4225:4226   */\n      0x00\n        /* \"#utility.yul\":4217:4223   */\n      dup3\n        /* \"#utility.yul\":4213:4227   */\n      add\n        /* \"#utility.yul\":4206:4251   */\n      mstore\n        /* \"#utility.yul\":4089:4258   */\n      pop\n      jump\t// out\n        /* \"#utility.yul\":4264:4630   */\n    tag_132:\n        /* \"#utility.yul\":4406:4409   */\n      0x00\n        /* \"#utility.yul\":4427:4494   */\n      tag_194\n        /* \"#utility.yul\":4491:4493   */\n      0x13\n        /* \"#utility.yul\":4486:4489   */\n      dup4\n        /* \"#utility.yul\":4427:4494   */\n      tag_130\n      jump\t// in\n    tag_194:\n        /* \"#utility.yul\":4420:4494   */\n      swap2\n      pop\n        /* \"#utility.yul\":4503:4596   */\n      tag_195\n        /* \"#utility.yul\":4592:4595   */\n      dup3\n        /* \"#utility.yul\":4503:4596   */\n      tag_131\n      jump\t// in\n    tag_195:\n        /* \"#utility.yul\":4621:4623   */\n      0x20\n        /* \"#utility.yul\":4616:4619   */\n      dup3\n        /* \"#utility.yul\":4612:4624   */\n      add\n        /* \"#utility.yul\":4605:4624   */\n      swap1\n      pop\n        /* \"#utility.yul\":4264:4630   */\n      swap2\n      swap1\n      pop\n      jump\t// out\n        /* \"#utility.yul\":4636:5055   */\n    tag_66:\n        /* \"#utility.yul\":4802:4806   */\n      0x00\n        /* \"#utility.yul\":4840:4842   */\n      0x20\n        /* \"#utility.yul\":4829:4838   */\n      dup3\n        /* \"#utility.yul\":4825:4843   */\n      add\n        /* \"#utility.yul\":4817:4843   */\n      swap1\n      pop\n        /* \"#utility.yul\":4889:4898   */\n      dup2\n        /* \"#utility.yul\":4883:4887   */\n      dup2\n        /* \"#utility.yul\":4879:4899   */\n      sub\n        /* \"#utility.yul\":4875:4876   */\n      0x00\n        /* \"#utility.yul\":4864:4873   */\n      dup4\n        /* \"#utility.yul\":4860:4877   */\n      add\n        /* \"#utility.yul\":4853:4900   */\n      mstore\n        /* \"#utility.yul\":4917:5048   */\n      tag_197\n        /* \"#utility.yul\":5043:5047   */\n      dup2\n        /* \"#utility.yul\":4917:5048   */\n      tag_132\n      jump\t// in\n    tag_197:\n        /* \"#utility.yul\":4909:5048   */\n      swap1\n      pop\n        /* \"#utility.yul\":4636:5055   */\n      swap2\n      swap1\n      pop\n      jump\t// out\n        /* \"#utility.yul\":5061:5226   */\n    tag_133:\n        /* \"#utility.yul\":5201:5218   */\n      0x496e76616c696420616464726573730000000000000000000000000000000000\n        /* \"#utility.yul\":5197:5198   */\n      0x00\n        /* \"#utility.yul\":5189:5195   */\n      dup3\n        /* \"#utility.yul\":5185:5199   */\n      add\n        /* \"#utility.yul\":5178:5219   */\n      mstore\n        /* \"#utility.yul\":5061:5226   */\n      pop\n      jump\t// out\n        /* \"#utility.yul\":5232:5598   */\n    tag_134:\n        /* \"#utility.yul\":5374:5377   */\n      0x00\n        /* \"#utility.yul\":5395:5462   */\n      tag_200\n        /* \"#utility.yul\":5459:5461   */\n      0x0f\n        /* \"#utility.yul\":5454:5457   */\n      dup4\n        /* \"#utility.yul\":5395:5462   */\n      tag_130\n      jump\t// in\n    tag_200:\n        /* \"#utility.yul\":5388:5462   */\n      swap2\n      pop\n        /* \"#utility.yul\":5471:5564   */\n      tag_201\n        /* \"#utility.yul\":5560:5563   */\n      dup3\n        /* \"#utility.yul\":5471:5564   */\n      tag_133\n      jump\t// in\n    tag_201:\n        /* \"#utility.yul\":5589:5591   */\n      0x20\n        /* \"#utility.yul\":5584:5587   */\n      dup3\n        /* \"#utility.yul\":5580:5592   */\n      add\n        /* \"#utility.yul\":5573:5592   */\n      swap1\n      pop\n        /* \"#utility.yul\":5232:5598   */\n      swap2\n      swap1\n      pop\n      jump\t// out\n        /* \"#utility.yul\":5604:6023   */\n    tag_69:\n        /* \"#utility.yul\":5770:5774   */\n      0x00\n        /* \"#utility.yul\":5808:5810   */\n      0x20\n        /* \"#utility.yul\":5797:5806   */\n      dup3\n        /* \"#utility.yul\":5793:5811   */\n      add\n        /* \"#utility.yul\":5785:5811   */\n      swap1\n      pop\n        /* \"#utility.yul\":5857:5866   */\n      dup2\n        /* \"#utility.yul\":5851:5855   */\n      dup2\n        /* \"#utility.yul\":5847:5867   */\n      sub\n        /* \"#utility.yul\":5843:5844   */\n      0x00\n        /* \"#utility.yul\":5832:5841   */\n      dup4\n        /* \"#utility.yul\":5828:5845   */\n      add\n        /* \"#utility.yul\":5821:5868   */\n      mstore\n        /* \"#utility.yul\":5885:6016   */\n      tag_203\n        /* \"#utility.yul\":6011:6015   */\n      dup2\n        /* \"#utility.yul\":5885:6016   */\n      tag_134\n      jump\t// in\n    tag_203:\n        /* \"#utility.yul\":5877:6016   */\n      swap1\n      pop\n        /* \"#utility.yul\":5604:6023   */\n      swap2\n      swap1\n      pop\n      jump\t// out\n        /* \"#utility.yul\":6029:6191   */\n    tag_135:\n        /* \"#utility.yul\":6169:6183   */\n      0x556e617574686f72697a65640000000000000000000000000000000000000000\n        /* \"#utility.yul\":6165:6166   */\n      0x00\n        /* \"#utility.yul\":6157:6163   */\n      dup3\n        /* \"#utility.yul\":6153:6167   */\n      add\n        /* \"#utility.yul\":6146:6184   */\n      mstore\n        /* \"#utility.yul\":6029:6191   */\n      pop\n      jump\t// out\n        /* \"#utility.yul\":6197:6563   */\n    tag_136:\n        /* \"#utility.yul\":6339:6342   */\n      0x00\n        /* \"#utility.yul\":6360:6427   */\n      tag_206\n        /* \"#utility.yul\":6424:6426   */\n      0x0c\n        /* \"#utility.yul\":6419:6422   */\n      dup4\n        /* \"#utility.yul\":6360:6427   */\n      tag_130\n      jump\t// in\n    tag_206:\n        /* \"#utility.yul\":6353:6427   */\n      swap2\n      pop\n        /* \"#utility.yul\":6436:6529   */\n      tag_207\n        /* \"#utility.yul\":6525:6528   */\n      dup3\n        /* \"#utility.yul\":6436:6529   */\n      tag_135\n      jump\t// in\n    tag_207:\n        /* \"#utility.yul\":6554:6556   */\n      0x20\n        /* \"#utility.yul\":6549:6552   */\n      dup3\n        /* \"#utility.yul\":6545:6557   */\n      add\n        /* \"#utility.yul\":6538:6557   */\n      swap1\n      pop\n        /* \"#utility.yul\":6197:6563   */\n      swap2\n      swap1\n      pop\n      jump\t// out\n        /* \"#utility.yul\":6569:6988   */\n    tag_73:\n        /* \"#utility.yul\":6735:6739   */\n      0x00\n        /* \"#utility.yul\":6773:6775   */\n      0x20\n        /* \"#utility.yul\":6762:6771   */\n      dup3\n        /* \"#utility.yul\":6758:6776   */\n      add\n        /* \"#utility.yul\":6750:6776   */\n      swap1\n      pop\n        /* \"#utility.yul\":6822:6831   */\n      dup2\n        /* \"#utility.yul\":6816:6820   */\n      dup2\n        /* \"#utility.yul\":6812:6832   */\n      sub\n        /* \"#utility.yul\":6808:6809   */\n      0x00\n        /* \"#utility.yul\":6797:6806   */\n      dup4\n        /* \"#utility.yul\":6793:6810   */\n      add\n        /* \"#utility.yul\":6786:6833   */\n      mstore\n        /* \"#utility.yul\":6850:6981   */\n      tag_209\n        /* \"#utility.yul\":6976:6980   */\n      dup2\n        /* \"#utility.yul\":6850:6981   */\n      tag_136\n      jump\t// in\n    tag_209:\n        /* \"#utility.yul\":6842:6981   */\n      swap1\n      pop\n        /* \"#utility.yul\":6569:6988   */\n      swap2\n      swap1\n      pop\n      jump\t// out\n        /* \"#utility.yul\":6994:7161   */\n    tag_137:\n        /* \"#utility.yul\":7134:7153   */\n      0x496e76616c69642062696420696e646578000000000000000000000000000000\n        /* \"#utility.yul\":7130:7131   */\n      0x00\n        /* \"#utility.yul\":7122:7128   */\n      dup3\n        /* \"#utility.yul\":7118:7132   */\n      add\n        /* \"#utility.yul\":7111:7154   */\n      mstore\n        /* \"#utility.yul\":6994:7161   */\n      pop\n      jump\t// out\n        /* \"#utility.yul\":7167:7533   */\n    tag_138:\n        /* \"#utility.yul\":7309:7312   */\n      0x00\n        /* \"#utility.yul\":7330:7397   */\n      tag_212\n        /* \"#utility.yul\":7394:7396   */\n      0x11\n        /* \"#utility.yul\":7389:7392   */\n      dup4\n        /* \"#utility.yul\":7330:7397   */\n      tag_130\n      jump\t// in\n    tag_212:\n        /* \"#utility.yul\":7323:7397   */\n      swap2\n      pop\n        /* \"#utility.yul\":7406:7499   */\n      tag_213\n        /* \"#utility.yul\":7495:7498   */\n      dup3\n        /* \"#utility.yul\":7406:7499   */\n      tag_137\n      jump\t// in\n    tag_213:\n        /* \"#utility.yul\":7524:7526   */\n      0x20\n        /* \"#utility.yul\":7519:7522   */\n      dup3\n        /* \"#utility.yul\":7515:7527   */\n      add\n        /* \"#utility.yul\":7508:7527   */\n      swap1\n      pop\n        /* \"#utility.yul\":7167:7533   */\n      swap2\n      swap1\n      pop\n      jump\t// out\n        /* \"#utility.yul\":7539:7958   */\n    tag_77:\n        /* \"#utility.yul\":7705:7709   */\n      0x00\n        /* \"#utility.yul\":7743:7745   */\n      0x20\n        /* \"#utility.yul\":7732:7741   */\n      dup3\n        /* \"#utility.yul\":7728:7746   */\n      add\n        /* \"#utility.yul\":7720:7746   */\n      swap1\n      pop\n        /* \"#utility.yul\":7792:7801   */\n      dup2\n        /* \"#utility.yul\":7786:7790   */\n      dup2\n        /* \"#utility.yul\":7782:7802   */\n      sub\n        /* \"#utility.yul\":7778:7779   */\n      0x00\n        /* \"#utility.yul\":7767:7776   */\n      dup4\n        /* \"#utility.yul\":7763:7780   */\n      add\n        /* \"#utility.yul\":7756:7803   */\n      mstore\n        /* \"#utility.yul\":7820:7951   */\n      tag_215\n        /* \"#utility.yul\":7946:7950   */\n      dup2\n        /* \"#utility.yul\":7820:7951   */\n      tag_138\n      jump\t// in\n    tag_215:\n        /* \"#utility.yul\":7812:7951   */\n      swap1\n      pop\n        /* \"#utility.yul\":7539:7958   */\n      swap2\n      swap1\n      pop\n      jump\t// out\n        /* \"#utility.yul\":7964:8144   */\n    tag_80:\n        /* \"#utility.yul\":8012:8089   */\n      0x4e487b7100000000000000000000000000000000000000000000000000000000\n        /* \"#utility.yul\":8009:8010   */\n      0x00\n        /* \"#utility.yul\":8002:8090   */\n      mstore\n        /* \"#utility.yul\":8109:8113   */\n      0x32\n        /* \"#utility.yul\":8106:8107   */\n      0x04\n        /* \"#utility.yul\":8099:8114   */\n      mstore\n        /* \"#utility.yul\":8133:8137   */\n      0x24\n        /* \"#utility.yul\":8130:8131   */\n      0x00\n        /* \"#utility.yul\":8123:8138   */\n      revert\n        /* \"#utility.yul\":8150:8317   */\n    tag_139:\n        /* \"#utility.yul\":8290:8309   */\n      0x496e636f7272656374206465706f736974000000000000000000000000000000\n        /* \"#utility.yul\":8286:8287   */\n      0x00\n        /* \"#utility.yul\":8278:8284   */\n      dup3\n        /* \"#utility.yul\":8274:8288   */\n      add\n        /* \"#utility.yul\":8267:8310   */\n      mstore\n        /* \"#utility.yul\":8150:8317   */\n      pop\n      jump\t// out\n        /* \"#utility.yul\":8323:8689   */\n    tag_140:\n        /* \"#utility.yul\":8465:8468   */\n      0x00\n        /* \"#utility.yul\":8486:8553   */\n      tag_219\n        /* \"#utility.yul\":8550:8552   */\n      0x11\n        /* \"#utility.yul\":8545:8548   */\n      dup4\n        /* \"#utility.yul\":8486:8553   */\n      tag_130\n      jump\t// in\n    tag_219:\n        /* \"#utility.yul\":8479:8553   */\n      swap2\n      pop\n        /* \"#utility.yul\":8562:8655   */\n      tag_220\n        /* \"#utility.yul\":8651:8654   */\n      dup3\n        /* \"#utility.yul\":8562:8655   */\n      tag_139\n      jump\t// in\n    tag_220:\n        /* \"#utility.yul\":8680:8682   */\n      0x20\n        /* \"#utility.yul\":8675:8678   */\n      dup3\n        /* \"#utility.yul\":8671:8683   */\n      add\n        /* \"#utility.yul\":8664:8683   */\n      swap1\n      pop\n        /* \"#utility.yul\":8323:8689   */\n      swap2\n      swap1\n      pop\n      jump\t// out\n        /* \"#utility.yul\":8695:9114   */\n    tag_85:\n        /* \"#utility.yul\":8861:8865   */\n      0x00\n        /* \"#utility.yul\":8899:8901   */\n      0x20\n        /* \"#utility.yul\":8888:8897   */\n      dup3\n        /* \"#utility.yul\":8884:8902   */\n      add\n        /* \"#utility.yul\":8876:8902   */\n      swap1\n      pop\n        /* \"#utility.yul\":8948:8957   */\n      dup2\n        /* \"#utility.yul\":8942:8946   */\n      dup2\n        /* \"#utility.yul\":8938:8958   */\n      sub\n        /* \"#utility.yul\":8934:8935   */\n      0x00\n        /* \"#utility.yul\":8923:8932   */\n      dup4\n        /* \"#utility.yul\":8919:8936   */\n      add\n        /* \"#utility.yul\":8912:8959   */\n      mstore\n        /* \"#utility.yul\":8976:9107   */\n      tag_222\n        /* \"#utility.yul\":9102:9106   */\n      dup2\n        /* \"#utility.yul\":8976:9107   */\n      tag_140\n      jump\t// in\n    tag_222:\n        /* \"#utility.yul\":8968:9107   */\n      swap1\n      pop\n        /* \"#utility.yul\":8695:9114   */\n      swap2\n      swap1\n      pop\n      jump\t// out\n        /* \"#utility.yul\":9120:9281   */\n    tag_141:\n        /* \"#utility.yul\":9260:9273   */\n      0x416c726561647920626964000000000000000000000000000000000000000000\n        /* \"#utility.yul\":9256:9257   */\n      0x00\n        /* \"#utility.yul\":9248:9254   */\n      dup3\n        /* \"#utility.yul\":9244:9258   */\n      add\n        /* \"#utility.yul\":9237:9274   */\n      mstore\n        /* \"#utility.yul\":9120:9281   */\n      pop\n      jump\t// out\n        /* \"#utility.yul\":9287:9653   */\n    tag_142:\n        /* \"#utility.yul\":9429:9432   */\n      0x00\n        /* \"#utility.yul\":9450:9517   */\n      tag_225\n        /* \"#utility.yul\":9514:9516   */\n      0x0b\n        /* \"#utility.yul\":9509:9512   */\n      dup4\n        /* \"#utility.yul\":9450:9517   */\n      tag_130\n      jump\t// in\n    tag_225:\n        /* \"#utility.yul\":9443:9517   */\n      swap2\n      pop\n        /* \"#utility.yul\":9526:9619   */\n      tag_226\n        /* \"#utility.yul\":9615:9618   */\n      dup3\n        /* \"#utility.yul\":9526:9619   */\n      tag_141\n      jump\t// in\n    tag_226:\n        /* \"#utility.yul\":9644:9646   */\n      0x20\n        /* \"#utility.yul\":9639:9642   */\n      dup3\n        /* \"#utility.yul\":9635:9647   */\n      add\n        /* \"#utility.yul\":9628:9647   */\n      swap1\n      pop\n        /* \"#utility.yul\":9287:9653   */\n      swap2\n      swap1\n      pop\n      jump\t// out\n        /* \"#utility.yul\":9659:10078   */\n    tag_94:\n        /* \"#utility.yul\":9825:9829   */\n      0x00\n        /* \"#utility.yul\":9863:9865   */\n      0x20\n        /* \"#utility.yul\":9852:9861   */\n      dup3\n        /* \"#utility.yul\":9848:9866   */\n      add\n        /* \"#utility.yul\":9840:9866   */\n      swap1\n      pop\n        /* \"#utility.yul\":9912:9921   */\n      dup2\n        /* \"#utility.yul\":9906:9910   */\n      dup2\n        /* \"#utility.yul\":9902:9922   */\n      sub\n        /* \"#utility.yul\":9898:9899   */\n      0x00\n        /* \"#utility.yul\":9887:9896   */\n      dup4\n        /* \"#utility.yul\":9883:9900   */\n      add\n        /* \"#utility.yul\":9876:9923   */\n      mstore\n        /* \"#utility.yul\":9940:10071   */\n      tag_228\n        /* \"#utility.yul\":10066:10070   */\n      dup2\n        /* \"#utility.yul\":9940:10071   */\n      tag_142\n      jump\t// in\n    tag_228:\n        /* \"#utility.yul\":9932:10071   */\n      swap1\n      pop\n        /* \"#utility.yul\":9659:10078   */\n      swap2\n      swap1\n      pop\n      jump\t// out\n\n    auxdata: 0xa26469706673582212202e41c846fa00cc9786fee35d19fb6b288d141980d5bda484d897bb5437db595264736f6c634300081e0033\n}\n",
				"bytecode": {
					"linkReferences": {},
					"object": "60806040525f600260146101000a81548160ff02191690831515021790555067016345785d8a0000600355348015610035575f5ffd5b506040516111023803806111028339818101604052810190610057919061014a565b8060025f6101000a81548173ffffffffffffffffffffffffffffffffffffffff021916908373ffffffffffffffffffffffffffffffffffffffff1602179055505f73ffffffffffffffffffffffffffffffffffffffff168173ffffffffffffffffffffffffffffffffffffffff16146100e6576001600260146101000a81548160ff0219169083151502179055505b50610175565b5f5ffd5b5f73ffffffffffffffffffffffffffffffffffffffff82169050919050565b5f610119826100f0565b9050919050565b6101298161010f565b8114610133575f5ffd5b50565b5f8151905061014481610120565b92915050565b5f6020828403121561015f5761015e6100ec565b5b5f61016c84828501610136565b91505092915050565b610f80806101825f395ff3fe608060405260043610610090575f3560e01c8063a2fb117511610058578063a2fb117514610168578063c45a0155146101a4578063e21875e2146101ce578063e38c8302146101f8578063e6fa02091461022057610090565b8063419759f5146100945780635492b197146100be5780635bb47808146100fc5780635d4bc827146101245780639979ef451461014c575b5f5ffd5b34801561009f575f5ffd5b506100a8610248565b6040516100b59190610ad8565b60405180910390f35b3480156100c9575f5ffd5b506100e460048036038101906100df9190610b1f565b61024e565b6040516100f393929190610bb6565b60405180910390f35b348015610107575f5ffd5b50610122600480360381019061011d9190610c15565b6102b8565b005b34801561012f575f5ffd5b5061014a60048036038101906101459190610b1f565b6103d4565b005b61016660048036038101906101619190610c40565b610505565b005b348015610173575f5ffd5b5061018e60048036038101906101899190610c40565b61073a565b60405161019b9190610c6b565b60405180910390f35b3480156101af575f5ffd5b506101b861076a565b6040516101c59190610c6b565b60405180910390f35b3480156101d9575f5ffd5b506101e261078f565b6040516101ef9190610c84565b60405180910390f35b348015610203575f5ffd5b5061021e60048036038101906102199190610c40565b6107a2565b005b34801561022b575f5ffd5b5061024660048036038101906102419190610b1f565b61084f565b005b60035481565b5f602052815f5260405f208181548110610266575f80fd5b905f5260205f2090600302015f9150915050805f015f9054906101000a900473ffffffffffffffffffffffffffffffffffffffff1690806001015490806002015f9054906101000a900460ff16905083565b600260149054906101000a900460ff1615610308576040517f08c379a00000000000000000000000000000000000000000000000000000000081526004016102ff90610cf7565b60405180910390fd5b5f73ffffffffffffffffffffffffffffffffffffffff168173ffffffffffffffffffffffffffffffffffffffff1603610376576040517f08c379a000000000000000000000000000000000000000000000000000000000815260040161036d90610d5f565b60405180910390fd5b8060025f6101000a81548173ffffffffffffffffffffffffffffffffffffffff021916908373ffffffffffffffffffffffffffffffffffffffff1602179055506001600260146101000a81548160ff02191690831515021790555050565b60025f9054906101000a900473ffffffffffffffffffffffffffffffffffffffff1673ffffffffffffffffffffffffffffffffffffffff163373ffffffffffffffffffffffffffffffffffffffff1614610463576040517f08c379a000000000000000000000000000000000000000000000000000000000815260040161045a90610dc7565b60405180910390fd5b5f5f8381526020019081526020015f208054905081106104b8576040517f08c379a00000000000000000000000000000000000000000000000000000000081526004016104af90610e2f565b60405180910390fd5b60015f5f8481526020019081526020015f2082815481106104dc576104db610e4d565b5b905f5260205f2090600302016002015f6101000a81548160ff0219169083151502179055505050565b6003543414610549576040517f08c379a000000000000000000000000000000000000000000000000000000000815260040161054090610ec4565b60405180910390fd5b5f5f5f8381526020019081526020015f2090505f5f90505b8180549050811015610628573373ffffffffffffffffffffffffffffffffffffffff1682828154811061059757610596610e4d565b5b905f5260205f2090600302015f015f9054906101000a900473ffffffffffffffffffffffffffffffffffffffff1673ffffffffffffffffffffffffffffffffffffffff160361061b576040517f08c379a000000000000000000000000000000000000000000000000000000000815260040161061290610f2c565b60405180910390fd5b8080600101915050610561565b508060405180606001604052803373ffffffffffffffffffffffffffffffffffffffff1681526020013481526020015f1515815250908060018154018082558091505060019003905f5260205f2090600302015f909190919091505f820151815f015f6101000a81548173ffffffffffffffffffffffffffffffffffffffff021916908373ffffffffffffffffffffffffffffffffffffffff160217905550602082015181600101556040820151816002015f6101000a81548160ff02191690831515021790555050503373ffffffffffffffffffffffffffffffffffffffff16827f45401769c1d58f70bd6b63e1a66bfc17d712ce0dc4ffb8d2dd0ad7177d56a38660405160405180910390a35050565b6001602052805f5260405f205f915054906101000a900473ffffffffffffffffffffffffffffffffffffffff1681565b60025f9054906101000a900473ffffffffffffffffffffffffffffffffffffffff1681565b600260149054906101000a900460ff1681565b60025f9054906101000a900473ffffffffffffffffffffffffffffffffffffffff1673ffffffffffffffffffffffffffffffffffffffff163373ffffffffffffffffffffffffffffffffffffffff1614610831576040517f08c379a000000000000000000000000000000000000000000000000000000000815260040161082890610dc7565b60405180910390fd5b5f5f8281526020019081526020015f205f61084c9190610a49565b50565b60025f9054906101000a900473ffffffffffffffffffffffffffffffffffffffff1673ffffffffffffffffffffffffffffffffffffffff163373ffffffffffffffffffffffffffffffffffffffff16146108de576040517f08c379a00000000000000000000000000000000000000000000000000000000081526004016108d590610dc7565b60405180910390fd5b5f5f8381526020019081526020015f20805490508110610933576040517f08c379a000000000000000000000000000000000000000000000000000000000815260040161092a90610e2f565b60405180910390fd5b5f5f8381526020019081526020015f20818154811061095557610954610e4d565b5b905f5260205f2090600302015f015f9054906101000a900473ffffffffffffffffffffffffffffffffffffffff1660015f8481526020019081526020015f205f6101000a81548173ffffffffffffffffffffffffffffffffffffffff021916908373ffffffffffffffffffffffffffffffffffffffff16021790555060015f8381526020019081526020015f205f9054906101000a900473ffffffffffffffffffffffffffffffffffffffff1673ffffffffffffffffffffffffffffffffffffffff16827f03fb57eb449654e24e1b240d3d06702cf79362a065d5c0323aee642d4702fa4b60405160405180910390a35050565b5080545f8255600302905f5260205f2090810190610a679190610a6a565b50565b5b80821115610abc575f5f82015f6101000a81549073ffffffffffffffffffffffffffffffffffffffff0219169055600182015f9055600282015f6101000a81549060ff021916905550600301610a6b565b5090565b5f819050919050565b610ad281610ac0565b82525050565b5f602082019050610aeb5f830184610ac9565b92915050565b5f5ffd5b610afe81610ac0565b8114610b08575f5ffd5b50565b5f81359050610b1981610af5565b92915050565b5f5f60408385031215610b3557610b34610af1565b5b5f610b4285828601610b0b565b9250506020610b5385828601610b0b565b9150509250929050565b5f73ffffffffffffffffffffffffffffffffffffffff82169050919050565b5f610b8682610b5d565b9050919050565b610b9681610b7c565b82525050565b5f8115159050919050565b610bb081610b9c565b82525050565b5f606082019050610bc95f830186610b8d565b610bd66020830185610ac9565b610be36040830184610ba7565b949350505050565b610bf481610b7c565b8114610bfe575f5ffd5b50565b5f81359050610c0f81610beb565b92915050565b5f60208284031215610c2a57610c29610af1565b5b5f610c3784828501610c01565b91505092915050565b5f60208284031215610c5557610c54610af1565b5b5f610c6284828501610b0b565b91505092915050565b5f602082019050610c7e5f830184610b8d565b92915050565b5f602082019050610c975f830184610ba7565b92915050565b5f82825260208201905092915050565b7f466163746f727920616c726561647920736574000000000000000000000000005f82015250565b5f610ce1601383610c9d565b9150610cec82610cad565b602082019050919050565b5f6020820190508181035f830152610d0e81610cd5565b9050919050565b7f496e76616c6964206164647265737300000000000000000000000000000000005f82015250565b5f610d49600f83610c9d565b9150610d5482610d15565b602082019050919050565b5f6020820190508181035f830152610d7681610d3d565b9050919050565b7f556e617574686f72697a656400000000000000000000000000000000000000005f82015250565b5f610db1600c83610c9d565b9150610dbc82610d7d565b602082019050919050565b5f6020820190508181035f830152610dde81610da5565b9050919050565b7f496e76616c69642062696420696e6465780000000000000000000000000000005f82015250565b5f610e19601183610c9d565b9150610e2482610de5565b602082019050919050565b5f6020820190508181035f830152610e4681610e0d565b9050919050565b7f4e487b71000000000000000000000000000000000000000000000000000000005f52603260045260245ffd5b7f496e636f7272656374206465706f7369740000000000000000000000000000005f82015250565b5f610eae601183610c9d565b9150610eb982610e7a565b602082019050919050565b5f6020820190508181035f830152610edb81610ea2565b9050919050565b7f416c7265616479206269640000000000000000000000000000000000000000005f82015250565b5f610f16600b83610c9d565b9150610f2182610ee2565b602082019050919050565b5f6020820190508181035f830152610f4381610f0a565b905091905056fea26469706673582212202e41c846fa00cc9786fee35d19fb6b288d141980d5bda484d897bb5437db595264736f6c634300081e0033",
					"opcodes": "PUSH1 0x80 PUSH1 0x40 MSTORE PUSH0 PUSH1 0x2 PUSH1 0x14 PUSH2 0x100 EXP DUP2 SLOAD DUP2 PUSH1 0xFF MUL NOT AND SWAP1 DUP4 ISZERO ISZERO MUL OR SWAP1 SSTORE POP PUSH8 0x16345785D8A0000 PUSH1 0x3 SSTORE CALLVALUE DUP1 ISZERO PUSH2 0x35 JUMPI PUSH0 PUSH0 REVERT JUMPDEST POP PUSH1 0x40 MLOAD PUSH2 0x1102 CODESIZE SUB DUP1 PUSH2 0x1102 DUP4 CODECOPY DUP2 DUP2 ADD PUSH1 0x40 MSTORE DUP2 ADD SWAP1 PUSH2 0x57 SWAP2 SWAP1 PUSH2 0x14A JUMP JUMPDEST DUP1 PUSH1 0x2 PUSH0 PUSH2 0x100 EXP DUP2 SLOAD DUP2 PUSH20 0xFFFFFFFFFFFFFFFFFFFFFFFFFFFFFFFFFFFFFFFF MUL NOT AND SWAP1 DUP4 PUSH20 0xFFFFFFFFFFFFFFFFFFFFFFFFFFFFFFFFFFFFFFFF AND MUL OR SWAP1 SSTORE POP PUSH0 PUSH20 0xFFFFFFFFFFFFFFFFFFFFFFFFFFFFFFFFFFFFFFFF AND DUP2 PUSH20 0xFFFFFFFFFFFFFFFFFFFFFFFFFFFFFFFFFFFFFFFF AND EQ PUSH2 0xE6 JUMPI PUSH1 0x1 PUSH1 0x2 PUSH1 0x14 PUSH2 0x100 EXP DUP2 SLOAD DUP2 PUSH1 0xFF MUL NOT AND SWAP1 DUP4 ISZERO ISZERO MUL OR SWAP1 SSTORE POP JUMPDEST POP PUSH2 0x175 JUMP JUMPDEST PUSH0 PUSH0 REVERT JUMPDEST PUSH0 PUSH20 0xFFFFFFFFFFFFFFFFFFFFFFFFFFFFFFFFFFFFFFFF DUP3 AND SWAP1 POP SWAP2 SWAP1 POP JUMP JUMPDEST PUSH0 PUSH2 0x119 DUP3 PUSH2 0xF0 JUMP JUMPDEST SWAP1 POP SWAP2 SWAP1 POP JUMP JUMPDEST PUSH2 0x129 DUP2 PUSH2 0x10F JUMP JUMPDEST DUP2 EQ PUSH2 0x133 JUMPI PUSH0 PUSH0 REVERT JUMPDEST POP JUMP JUMPDEST PUSH0 DUP2 MLOAD SWAP1 POP PUSH2 0x144 DUP2 PUSH2 0x120 JUMP JUMPDEST SWAP3 SWAP2 POP POP JUMP JUMPDEST PUSH0 PUSH1 0x20 DUP3 DUP5 SUB SLT ISZERO PUSH2 0x15F JUMPI PUSH2 0x15E PUSH2 0xEC JUMP JUMPDEST JUMPDEST PUSH0 PUSH2 0x16C DUP5 DUP3 DUP6 ADD PUSH2 0x136 JUMP JUMPDEST SWAP2 POP POP SWAP3 SWAP2 POP POP JUMP JUMPDEST PUSH2 0xF80 DUP1 PUSH2 0x182 PUSH0 CODECOPY PUSH0 RETURN INVALID PUSH1 0x80 PUSH1 0x40 MSTORE PUSH1 0x4 CALLDATASIZE LT PUSH2 0x90 JUMPI PUSH0 CALLDATALOAD PUSH1 0xE0 SHR DUP1 PUSH4 0xA2FB1175 GT PUSH2 0x58 JUMPI DUP1 PUSH4 0xA2FB1175 EQ PUSH2 0x168 JUMPI DUP1 PUSH4 0xC45A0155 EQ PUSH2 0x1A4 JUMPI DUP1 PUSH4 0xE21875E2 EQ PUSH2 0x1CE JUMPI DUP1 PUSH4 0xE38C8302 EQ PUSH2 0x1F8 JUMPI DUP1 PUSH4 0xE6FA0209 EQ PUSH2 0x220 JUMPI PUSH2 0x90 JUMP JUMPDEST DUP1 PUSH4 0x419759F5 EQ PUSH2 0x94 JUMPI DUP1 PUSH4 0x5492B197 EQ PUSH2 0xBE JUMPI DUP1 PUSH4 0x5BB47808 EQ PUSH2 0xFC JUMPI DUP1 PUSH4 0x5D4BC827 EQ PUSH2 0x124 JUMPI DUP1 PUSH4 0x9979EF45 EQ PUSH2 0x14C JUMPI JUMPDEST PUSH0 PUSH0 REVERT JUMPDEST CALLVALUE DUP1 ISZERO PUSH2 0x9F JUMPI PUSH0 PUSH0 REVERT JUMPDEST POP PUSH2 0xA8 PUSH2 0x248 JUMP JUMPDEST PUSH1 0x40 MLOAD PUSH2 0xB5 SWAP2 SWAP1 PUSH2 0xAD8 JUMP JUMPDEST PUSH1 0x40 MLOAD DUP1 SWAP2 SUB SWAP1 RETURN JUMPDEST CALLVALUE DUP1 ISZERO PUSH2 0xC9 JUMPI PUSH0 PUSH0 REVERT JUMPDEST POP PUSH2 0xE4 PUSH1 0x4 DUP1 CALLDATASIZE SUB DUP2 ADD SWAP1 PUSH2 0xDF SWAP2 SWAP1 PUSH2 0xB1F JUMP JUMPDEST PUSH2 0x24E JUMP JUMPDEST PUSH1 0x40 MLOAD PUSH2 0xF3 SWAP4 SWAP3 SWAP2 SWAP1 PUSH2 0xBB6 JUMP JUMPDEST PUSH1 0x40 MLOAD DUP1 SWAP2 SUB SWAP1 RETURN JUMPDEST CALLVALUE DUP1 ISZERO PUSH2 0x107 JUMPI PUSH0 PUSH0 REVERT JUMPDEST POP PUSH2 0x122 PUSH1 0x4 DUP1 CALLDATASIZE SUB DUP2 ADD SWAP1 PUSH2 0x11D SWAP2 SWAP1 PUSH2 0xC15 JUMP JUMPDEST PUSH2 0x2B8 JUMP JUMPDEST STOP JUMPDEST CALLVALUE DUP1 ISZERO PUSH2 0x12F JUMPI PUSH0 PUSH0 REVERT JUMPDEST POP PUSH2 0x14A PUSH1 0x4 DUP1 CALLDATASIZE SUB DUP2 ADD SWAP1 PUSH2 0x145 SWAP2 SWAP1 PUSH2 0xB1F JUMP JUMPDEST PUSH2 0x3D4 JUMP JUMPDEST STOP JUMPDEST PUSH2 0x166 PUSH1 0x4 DUP1 CALLDATASIZE SUB DUP2 ADD SWAP1 PUSH2 0x161 SWAP2 SWAP1 PUSH2 0xC40 JUMP JUMPDEST PUSH2 0x505 JUMP JUMPDEST STOP JUMPDEST CALLVALUE DUP1 ISZERO PUSH2 0x173 JUMPI PUSH0 PUSH0 REVERT JUMPDEST POP PUSH2 0x18E PUSH1 0x4 DUP1 CALLDATASIZE SUB DUP2 ADD SWAP1 PUSH2 0x189 SWAP2 SWAP1 PUSH2 0xC40 JUMP JUMPDEST PUSH2 0x73A JUMP JUMPDEST PUSH1 0x40 MLOAD PUSH2 0x19B SWAP2 SWAP1 PUSH2 0xC6B JUMP JUMPDEST PUSH1 0x40 MLOAD DUP1 SWAP2 SUB SWAP1 RETURN JUMPDEST CALLVALUE DUP1 ISZERO PUSH2 0x1AF JUMPI PUSH0 PUSH0 REVERT JUMPDEST POP PUSH2 0x1B8 PUSH2 0x76A JUMP JUMPDEST PUSH1 0x40 MLOAD PUSH2 0x1C5 SWAP2 SWAP1 PUSH2 0xC6B JUMP JUMPDEST PUSH1 0x40 MLOAD DUP1 SWAP2 SUB SWAP1 RETURN JUMPDEST CALLVALUE DUP1 ISZERO PUSH2 0x1D9 JUMPI PUSH0 PUSH0 REVERT JUMPDEST POP PUSH2 0x1E2 PUSH2 0x78F JUMP JUMPDEST PUSH1 0x40 MLOAD PUSH2 0x1EF SWAP2 SWAP1 PUSH2 0xC84 JUMP JUMPDEST PUSH1 0x40 MLOAD DUP1 SWAP2 SUB SWAP1 RETURN JUMPDEST CALLVALUE DUP1 ISZERO PUSH2 0x203 JUMPI PUSH0 PUSH0 REVERT JUMPDEST POP PUSH2 0x21E PUSH1 0x4 DUP1 CALLDATASIZE SUB DUP2 ADD SWAP1 PUSH2 0x219 SWAP2 SWAP1 PUSH2 0xC40 JUMP JUMPDEST PUSH2 0x7A2 JUMP JUMPDEST STOP JUMPDEST CALLVALUE DUP1 ISZERO PUSH2 0x22B JUMPI PUSH0 PUSH0 REVERT JUMPDEST POP PUSH2 0x246 PUSH1 0x4 DUP1 CALLDATASIZE SUB DUP2 ADD SWAP1 PUSH2 0x241 SWAP2 SWAP1 PUSH2 0xB1F JUMP JUMPDEST PUSH2 0x84F JUMP JUMPDEST STOP JUMPDEST PUSH1 0x3 SLOAD DUP2 JUMP JUMPDEST PUSH0 PUSH1 0x20 MSTORE DUP2 PUSH0 MSTORE PUSH1 0x40 PUSH0 KECCAK256 DUP2 DUP2 SLOAD DUP2 LT PUSH2 0x266 JUMPI PUSH0 DUP1 REVERT JUMPDEST SWAP1 PUSH0 MSTORE PUSH1 0x20 PUSH0 KECCAK256 SWAP1 PUSH1 0x3 MUL ADD PUSH0 SWAP2 POP SWAP2 POP POP DUP1 PUSH0 ADD PUSH0 SWAP1 SLOAD SWAP1 PUSH2 0x100 EXP SWAP1 DIV PUSH20 0xFFFFFFFFFFFFFFFFFFFFFFFFFFFFFFFFFFFFFFFF AND SWAP1 DUP1 PUSH1 0x1 ADD SLOAD SWAP1 DUP1 PUSH1 0x2 ADD PUSH0 SWAP1 SLOAD SWAP1 PUSH2 0x100 EXP SWAP1 DIV PUSH1 0xFF AND SWAP1 POP DUP4 JUMP JUMPDEST PUSH1 0x2 PUSH1 0x14 SWAP1 SLOAD SWAP1 PUSH2 0x100 EXP SWAP1 DIV PUSH1 0xFF AND ISZERO PUSH2 0x308 JUMPI PUSH1 0x40 MLOAD PUSH32 0x8C379A000000000000000000000000000000000000000000000000000000000 DUP2 MSTORE PUSH1 0x4 ADD PUSH2 0x2FF SWAP1 PUSH2 0xCF7 JUMP JUMPDEST PUSH1 0x40 MLOAD DUP1 SWAP2 SUB SWAP1 REVERT JUMPDEST PUSH0 PUSH20 0xFFFFFFFFFFFFFFFFFFFFFFFFFFFFFFFFFFFFFFFF AND DUP2 PUSH20 0xFFFFFFFFFFFFFFFFFFFFFFFFFFFFFFFFFFFFFFFF AND SUB PUSH2 0x376 JUMPI PUSH1 0x40 MLOAD PUSH32 0x8C379A000000000000000000000000000000000000000000000000000000000 DUP2 MSTORE PUSH1 0x4 ADD PUSH2 0x36D SWAP1 PUSH2 0xD5F JUMP JUMPDEST PUSH1 0x40 MLOAD DUP1 SWAP2 SUB SWAP1 REVERT JUMPDEST DUP1 PUSH1 0x2 PUSH0 PUSH2 0x100 EXP DUP2 SLOAD DUP2 PUSH20 0xFFFFFFFFFFFFFFFFFFFFFFFFFFFFFFFFFFFFFFFF MUL NOT AND SWAP1 DUP4 PUSH20 0xFFFFFFFFFFFFFFFFFFFFFFFFFFFFFFFFFFFFFFFF AND MUL OR SWAP1 SSTORE POP PUSH1 0x1 PUSH1 0x2 PUSH1 0x14 PUSH2 0x100 EXP DUP2 SLOAD DUP2 PUSH1 0xFF MUL NOT AND SWAP1 DUP4 ISZERO ISZERO MUL OR SWAP1 SSTORE POP POP JUMP JUMPDEST PUSH1 0x2 PUSH0 SWAP1 SLOAD SWAP1 PUSH2 0x100 EXP SWAP1 DIV PUSH20 0xFFFFFFFFFFFFFFFFFFFFFFFFFFFFFFFFFFFFFFFF AND PUSH20 0xFFFFFFFFFFFFFFFFFFFFFFFFFFFFFFFFFFFFFFFF AND CALLER PUSH20 0xFFFFFFFFFFFFFFFFFFFFFFFFFFFFFFFFFFFFFFFF AND EQ PUSH2 0x463 JUMPI PUSH1 0x40 MLOAD PUSH32 0x8C379A000000000000000000000000000000000000000000000000000000000 DUP2 MSTORE PUSH1 0x4 ADD PUSH2 0x45A SWAP1 PUSH2 0xDC7 JUMP JUMPDEST PUSH1 0x40 MLOAD DUP1 SWAP2 SUB SWAP1 REVERT JUMPDEST PUSH0 PUSH0 DUP4 DUP2 MSTORE PUSH1 0x20 ADD SWAP1 DUP2 MSTORE PUSH1 0x20 ADD PUSH0 KECCAK256 DUP1 SLOAD SWAP1 POP DUP2 LT PUSH2 0x4B8 JUMPI PUSH1 0x40 MLOAD PUSH32 0x8C379A000000000000000000000000000000000000000000000000000000000 DUP2 MSTORE PUSH1 0x4 ADD PUSH2 0x4AF SWAP1 PUSH2 0xE2F JUMP JUMPDEST PUSH1 0x40 MLOAD DUP1 SWAP2 SUB SWAP1 REVERT JUMPDEST PUSH1 0x1 PUSH0 PUSH0 DUP5 DUP2 MSTORE PUSH1 0x20 ADD SWAP1 DUP2 MSTORE PUSH1 0x20 ADD PUSH0 KECCAK256 DUP3 DUP2 SLOAD DUP2 LT PUSH2 0x4DC JUMPI PUSH2 0x4DB PUSH2 0xE4D JUMP JUMPDEST JUMPDEST SWAP1 PUSH0 MSTORE PUSH1 0x20 PUSH0 KECCAK256 SWAP1 PUSH1 0x3 MUL ADD PUSH1 0x2 ADD PUSH0 PUSH2 0x100 EXP DUP2 SLOAD DUP2 PUSH1 0xFF MUL NOT AND SWAP1 DUP4 ISZERO ISZERO MUL OR SWAP1 SSTORE POP POP POP JUMP JUMPDEST PUSH1 0x3 SLOAD CALLVALUE EQ PUSH2 0x549 JUMPI PUSH1 0x40 MLOAD PUSH32 0x8C379A000000000000000000000000000000000000000000000000000000000 DUP2 MSTORE PUSH1 0x4 ADD PUSH2 0x540 SWAP1 PUSH2 0xEC4 JUMP JUMPDEST PUSH1 0x40 MLOAD DUP1 SWAP2 SUB SWAP1 REVERT JUMPDEST PUSH0 PUSH0 PUSH0 DUP4 DUP2 MSTORE PUSH1 0x20 ADD SWAP1 DUP2 MSTORE PUSH1 0x20 ADD PUSH0 KECCAK256 SWAP1 POP PUSH0 PUSH0 SWAP1 POP JUMPDEST DUP2 DUP1 SLOAD SWAP1 POP DUP2 LT ISZERO PUSH2 0x628 JUMPI CALLER PUSH20 0xFFFFFFFFFFFFFFFFFFFFFFFFFFFFFFFFFFFFFFFF AND DUP3 DUP3 DUP2 SLOAD DUP2 LT PUSH2 0x597 JUMPI PUSH2 0x596 PUSH2 0xE4D JUMP JUMPDEST JUMPDEST SWAP1 PUSH0 MSTORE PUSH1 0x20 PUSH0 KECCAK256 SWAP1 PUSH1 0x3 MUL ADD PUSH0 ADD PUSH0 SWAP1 SLOAD SWAP1 PUSH2 0x100 EXP SWAP1 DIV PUSH20 0xFFFFFFFFFFFFFFFFFFFFFFFFFFFFFFFFFFFFFFFF AND PUSH20 0xFFFFFFFFFFFFFFFFFFFFFFFFFFFFFFFFFFFFFFFF AND SUB PUSH2 0x61B JUMPI PUSH1 0x40 MLOAD PUSH32 0x8C379A000000000000000000000000000000000000000000000000000000000 DUP2 MSTORE PUSH1 0x4 ADD PUSH2 0x612 SWAP1 PUSH2 0xF2C JUMP JUMPDEST PUSH1 0x40 MLOAD DUP1 SWAP2 SUB SWAP1 REVERT JUMPDEST DUP1 DUP1 PUSH1 0x1 ADD SWAP2 POP POP PUSH2 0x561 JUMP JUMPDEST POP DUP1 PUSH1 0x40 MLOAD DUP1 PUSH1 0x60 ADD PUSH1 0x40 MSTORE DUP1 CALLER PUSH20 0xFFFFFFFFFFFFFFFFFFFFFFFFFFFFFFFFFFFFFFFF AND DUP2 MSTORE PUSH1 0x20 ADD CALLVALUE DUP2 MSTORE PUSH1 0x20 ADD PUSH0 ISZERO ISZERO DUP2 MSTORE POP SWAP1 DUP1 PUSH1 0x1 DUP2 SLOAD ADD DUP1 DUP3 SSTORE DUP1 SWAP2 POP POP PUSH1 0x1 SWAP1 SUB SWAP1 PUSH0 MSTORE PUSH1 0x20 PUSH0 KECCAK256 SWAP1 PUSH1 0x3 MUL ADD PUSH0 SWAP1 SWAP2 SWAP1 SWAP2 SWAP1 SWAP2 POP PUSH0 DUP3 ADD MLOAD DUP2 PUSH0 ADD PUSH0 PUSH2 0x100 EXP DUP2 SLOAD DUP2 PUSH20 0xFFFFFFFFFFFFFFFFFFFFFFFFFFFFFFFFFFFFFFFF MUL NOT AND SWAP1 DUP4 PUSH20 0xFFFFFFFFFFFFFFFFFFFFFFFFFFFFFFFFFFFFFFFF AND MUL OR SWAP1 SSTORE POP PUSH1 0x20 DUP3 ADD MLOAD DUP2 PUSH1 0x1 ADD SSTORE PUSH1 0x40 DUP3 ADD MLOAD DUP2 PUSH1 0x2 ADD PUSH0 PUSH2 0x100 EXP DUP2 SLOAD DUP2 PUSH1 0xFF MUL NOT AND SWAP1 DUP4 ISZERO ISZERO MUL OR SWAP1 SSTORE POP POP POP CALLER PUSH20 0xFFFFFFFFFFFFFFFFFFFFFFFFFFFFFFFFFFFFFFFF AND DUP3 PUSH32 0x45401769C1D58F70BD6B63E1A66BFC17D712CE0DC4FFB8D2DD0AD7177D56A386 PUSH1 0x40 MLOAD PUSH1 0x40 MLOAD DUP1 SWAP2 SUB SWAP1 LOG3 POP POP JUMP JUMPDEST PUSH1 0x1 PUSH1 0x20 MSTORE DUP1 PUSH0 MSTORE PUSH1 0x40 PUSH0 KECCAK256 PUSH0 SWAP2 POP SLOAD SWAP1 PUSH2 0x100 EXP SWAP1 DIV PUSH20 0xFFFFFFFFFFFFFFFFFFFFFFFFFFFFFFFFFFFFFFFF AND DUP2 JUMP JUMPDEST PUSH1 0x2 PUSH0 SWAP1 SLOAD SWAP1 PUSH2 0x100 EXP SWAP1 DIV PUSH20 0xFFFFFFFFFFFFFFFFFFFFFFFFFFFFFFFFFFFFFFFF AND DUP2 JUMP JUMPDEST PUSH1 0x2 PUSH1 0x14 SWAP1 SLOAD SWAP1 PUSH2 0x100 EXP SWAP1 DIV PUSH1 0xFF AND DUP2 JUMP JUMPDEST PUSH1 0x2 PUSH0 SWAP1 SLOAD SWAP1 PUSH2 0x100 EXP SWAP1 DIV PUSH20 0xFFFFFFFFFFFFFFFFFFFFFFFFFFFFFFFFFFFFFFFF AND PUSH20 0xFFFFFFFFFFFFFFFFFFFFFFFFFFFFFFFFFFFFFFFF AND CALLER PUSH20 0xFFFFFFFFFFFFFFFFFFFFFFFFFFFFFFFFFFFFFFFF AND EQ PUSH2 0x831 JUMPI PUSH1 0x40 MLOAD PUSH32 0x8C379A000000000000000000000000000000000000000000000000000000000 DUP2 MSTORE PUSH1 0x4 ADD PUSH2 0x828 SWAP1 PUSH2 0xDC7 JUMP JUMPDEST PUSH1 0x40 MLOAD DUP1 SWAP2 SUB SWAP1 REVERT JUMPDEST PUSH0 PUSH0 DUP3 DUP2 MSTORE PUSH1 0x20 ADD SWAP1 DUP2 MSTORE PUSH1 0x20 ADD PUSH0 KECCAK256 PUSH0 PUSH2 0x84C SWAP2 SWAP1 PUSH2 0xA49 JUMP JUMPDEST POP JUMP JUMPDEST PUSH1 0x2 PUSH0 SWAP1 SLOAD SWAP1 PUSH2 0x100 EXP SWAP1 DIV PUSH20 0xFFFFFFFFFFFFFFFFFFFFFFFFFFFFFFFFFFFFFFFF AND PUSH20 0xFFFFFFFFFFFFFFFFFFFFFFFFFFFFFFFFFFFFFFFF AND CALLER PUSH20 0xFFFFFFFFFFFFFFFFFFFFFFFFFFFFFFFFFFFFFFFF AND EQ PUSH2 0x8DE JUMPI PUSH1 0x40 MLOAD PUSH32 0x8C379A000000000000000000000000000000000000000000000000000000000 DUP2 MSTORE PUSH1 0x4 ADD PUSH2 0x8D5 SWAP1 PUSH2 0xDC7 JUMP JUMPDEST PUSH1 0x40 MLOAD DUP1 SWAP2 SUB SWAP1 REVERT JUMPDEST PUSH0 PUSH0 DUP4 DUP2 MSTORE PUSH1 0x20 ADD SWAP1 DUP2 MSTORE PUSH1 0x20 ADD PUSH0 KECCAK256 DUP1 SLOAD SWAP1 POP DUP2 LT PUSH2 0x933 JUMPI PUSH1 0x40 MLOAD PUSH32 0x8C379A000000000000000000000000000000000000000000000000000000000 DUP2 MSTORE PUSH1 0x4 ADD PUSH2 0x92A SWAP1 PUSH2 0xE2F JUMP JUMPDEST PUSH1 0x40 MLOAD DUP1 SWAP2 SUB SWAP1 REVERT JUMPDEST PUSH0 PUSH0 DUP4 DUP2 MSTORE PUSH1 0x20 ADD SWAP1 DUP2 MSTORE PUSH1 0x20 ADD PUSH0 KECCAK256 DUP2 DUP2 SLOAD DUP2 LT PUSH2 0x955 JUMPI PUSH2 0x954 PUSH2 0xE4D JUMP JUMPDEST JUMPDEST SWAP1 PUSH0 MSTORE PUSH1 0x20 PUSH0 KECCAK256 SWAP1 PUSH1 0x3 MUL ADD PUSH0 ADD PUSH0 SWAP1 SLOAD SWAP1 PUSH2 0x100 EXP SWAP1 DIV PUSH20 0xFFFFFFFFFFFFFFFFFFFFFFFFFFFFFFFFFFFFFFFF AND PUSH1 0x1 PUSH0 DUP5 DUP2 MSTORE PUSH1 0x20 ADD SWAP1 DUP2 MSTORE PUSH1 0x20 ADD PUSH0 KECCAK256 PUSH0 PUSH2 0x100 EXP DUP2 SLOAD DUP2 PUSH20 0xFFFFFFFFFFFFFFFFFFFFFFFFFFFFFFFFFFFFFFFF MUL NOT AND SWAP1 DUP4 PUSH20 0xFFFFFFFFFFFFFFFFFFFFFFFFFFFFFFFFFFFFFFFF AND MUL OR SWAP1 SSTORE POP PUSH1 0x1 PUSH0 DUP4 DUP2 MSTORE PUSH1 0x20 ADD SWAP1 DUP2 MSTORE PUSH1 0x20 ADD PUSH0 KECCAK256 PUSH0 SWAP1 SLOAD SWAP1 PUSH2 0x100 EXP SWAP1 DIV PUSH20 0xFFFFFFFFFFFFFFFFFFFFFFFFFFFFFFFFFFFFFFFF AND PUSH20 0xFFFFFFFFFFFFFFFFFFFFFFFFFFFFFFFFFFFFFFFF AND DUP3 PUSH32 0x3FB57EB449654E24E1B240D3D06702CF79362A065D5C0323AEE642D4702FA4B PUSH1 0x40 MLOAD PUSH1 0x40 MLOAD DUP1 SWAP2 SUB SWAP1 LOG3 POP POP JUMP JUMPDEST POP DUP1 SLOAD PUSH0 DUP3 SSTORE PUSH1 0x3 MUL SWAP1 PUSH0 MSTORE PUSH1 0x20 PUSH0 KECCAK256 SWAP1 DUP2 ADD SWAP1 PUSH2 0xA67 SWAP2 SWAP1 PUSH2 0xA6A JUMP JUMPDEST POP JUMP JUMPDEST JUMPDEST DUP1 DUP3 GT ISZERO PUSH2 0xABC JUMPI PUSH0 PUSH0 DUP3 ADD PUSH0 PUSH2 0x100 EXP DUP2 SLOAD SWAP1 PUSH20 0xFFFFFFFFFFFFFFFFFFFFFFFFFFFFFFFFFFFFFFFF MUL NOT AND SWAP1 SSTORE PUSH1 0x1 DUP3 ADD PUSH0 SWAP1 SSTORE PUSH1 0x2 DUP3 ADD PUSH0 PUSH2 0x100 EXP DUP2 SLOAD SWAP1 PUSH1 0xFF MUL NOT AND SWAP1 SSTORE POP PUSH1 0x3 ADD PUSH2 0xA6B JUMP JUMPDEST POP SWAP1 JUMP JUMPDEST PUSH0 DUP2 SWAP1 POP SWAP2 SWAP1 POP JUMP JUMPDEST PUSH2 0xAD2 DUP2 PUSH2 0xAC0 JUMP JUMPDEST DUP3 MSTORE POP POP JUMP JUMPDEST PUSH0 PUSH1 0x20 DUP3 ADD SWAP1 POP PUSH2 0xAEB PUSH0 DUP4 ADD DUP5 PUSH2 0xAC9 JUMP JUMPDEST SWAP3 SWAP2 POP POP JUMP JUMPDEST PUSH0 PUSH0 REVERT JUMPDEST PUSH2 0xAFE DUP2 PUSH2 0xAC0 JUMP JUMPDEST DUP2 EQ PUSH2 0xB08 JUMPI PUSH0 PUSH0 REVERT JUMPDEST POP JUMP JUMPDEST PUSH0 DUP2 CALLDATALOAD SWAP1 POP PUSH2 0xB19 DUP2 PUSH2 0xAF5 JUMP JUMPDEST SWAP3 SWAP2 POP POP JUMP JUMPDEST PUSH0 PUSH0 PUSH1 0x40 DUP4 DUP6 SUB SLT ISZERO PUSH2 0xB35 JUMPI PUSH2 0xB34 PUSH2 0xAF1 JUMP JUMPDEST JUMPDEST PUSH0 PUSH2 0xB42 DUP6 DUP3 DUP7 ADD PUSH2 0xB0B JUMP JUMPDEST SWAP3 POP POP PUSH1 0x20 PUSH2 0xB53 DUP6 DUP3 DUP7 ADD PUSH2 0xB0B JUMP JUMPDEST SWAP2 POP POP SWAP3 POP SWAP3 SWAP1 POP JUMP JUMPDEST PUSH0 PUSH20 0xFFFFFFFFFFFFFFFFFFFFFFFFFFFFFFFFFFFFFFFF DUP3 AND SWAP1 POP SWAP2 SWAP1 POP JUMP JUMPDEST PUSH0 PUSH2 0xB86 DUP3 PUSH2 0xB5D JUMP JUMPDEST SWAP1 POP SWAP2 SWAP1 POP JUMP JUMPDEST PUSH2 0xB96 DUP2 PUSH2 0xB7C JUMP JUMPDEST DUP3 MSTORE POP POP JUMP JUMPDEST PUSH0 DUP2 ISZERO ISZERO SWAP1 POP SWAP2 SWAP1 POP JUMP JUMPDEST PUSH2 0xBB0 DUP2 PUSH2 0xB9C JUMP JUMPDEST DUP3 MSTORE POP POP JUMP JUMPDEST PUSH0 PUSH1 0x60 DUP3 ADD SWAP1 POP PUSH2 0xBC9 PUSH0 DUP4 ADD DUP7 PUSH2 0xB8D JUMP JUMPDEST PUSH2 0xBD6 PUSH1 0x20 DUP4 ADD DUP6 PUSH2 0xAC9 JUMP JUMPDEST PUSH2 0xBE3 PUSH1 0x40 DUP4 ADD DUP5 PUSH2 0xBA7 JUMP JUMPDEST SWAP5 SWAP4 POP POP POP POP JUMP JUMPDEST PUSH2 0xBF4 DUP2 PUSH2 0xB7C JUMP JUMPDEST DUP2 EQ PUSH2 0xBFE JUMPI PUSH0 PUSH0 REVERT JUMPDEST POP JUMP JUMPDEST PUSH0 DUP2 CALLDATALOAD SWAP1 POP PUSH2 0xC0F DUP2 PUSH2 0xBEB JUMP JUMPDEST SWAP3 SWAP2 POP POP JUMP JUMPDEST PUSH0 PUSH1 0x20 DUP3 DUP5 SUB SLT ISZERO PUSH2 0xC2A JUMPI PUSH2 0xC29 PUSH2 0xAF1 JUMP JUMPDEST JUMPDEST PUSH0 PUSH2 0xC37 DUP5 DUP3 DUP6 ADD PUSH2 0xC01 JUMP JUMPDEST SWAP2 POP POP SWAP3 SWAP2 POP POP JUMP JUMPDEST PUSH0 PUSH1 0x20 DUP3 DUP5 SUB SLT ISZERO PUSH2 0xC55 JUMPI PUSH2 0xC54 PUSH2 0xAF1 JUMP JUMPDEST JUMPDEST PUSH0 PUSH2 0xC62 DUP5 DUP3 DUP6 ADD PUSH2 0xB0B JUMP JUMPDEST SWAP2 POP POP SWAP3 SWAP2 POP POP JUMP JUMPDEST PUSH0 PUSH1 0x20 DUP3 ADD SWAP1 POP PUSH2 0xC7E PUSH0 DUP4 ADD DUP5 PUSH2 0xB8D JUMP JUMPDEST SWAP3 SWAP2 POP POP JUMP JUMPDEST PUSH0 PUSH1 0x20 DUP3 ADD SWAP1 POP PUSH2 0xC97 PUSH0 DUP4 ADD DUP5 PUSH2 0xBA7 JUMP JUMPDEST SWAP3 SWAP2 POP POP JUMP JUMPDEST PUSH0 DUP3 DUP3 MSTORE PUSH1 0x20 DUP3 ADD SWAP1 POP SWAP3 SWAP2 POP POP JUMP JUMPDEST PUSH32 0x466163746F727920616C72656164792073657400000000000000000000000000 PUSH0 DUP3 ADD MSTORE POP JUMP JUMPDEST PUSH0 PUSH2 0xCE1 PUSH1 0x13 DUP4 PUSH2 0xC9D JUMP JUMPDEST SWAP2 POP PUSH2 0xCEC DUP3 PUSH2 0xCAD JUMP JUMPDEST PUSH1 0x20 DUP3 ADD SWAP1 POP SWAP2 SWAP1 POP JUMP JUMPDEST PUSH0 PUSH1 0x20 DUP3 ADD SWAP1 POP DUP2 DUP2 SUB PUSH0 DUP4 ADD MSTORE PUSH2 0xD0E DUP2 PUSH2 0xCD5 JUMP JUMPDEST SWAP1 POP SWAP2 SWAP1 POP JUMP JUMPDEST PUSH32 0x496E76616C696420616464726573730000000000000000000000000000000000 PUSH0 DUP3 ADD MSTORE POP JUMP JUMPDEST PUSH0 PUSH2 0xD49 PUSH1 0xF DUP4 PUSH2 0xC9D JUMP JUMPDEST SWAP2 POP PUSH2 0xD54 DUP3 PUSH2 0xD15 JUMP JUMPDEST PUSH1 0x20 DUP3 ADD SWAP1 POP SWAP2 SWAP1 POP JUMP JUMPDEST PUSH0 PUSH1 0x20 DUP3 ADD SWAP1 POP DUP2 DUP2 SUB PUSH0 DUP4 ADD MSTORE PUSH2 0xD76 DUP2 PUSH2 0xD3D JUMP JUMPDEST SWAP1 POP SWAP2 SWAP1 POP JUMP JUMPDEST PUSH32 0x556E617574686F72697A65640000000000000000000000000000000000000000 PUSH0 DUP3 ADD MSTORE POP JUMP JUMPDEST PUSH0 PUSH2 0xDB1 PUSH1 0xC DUP4 PUSH2 0xC9D JUMP JUMPDEST SWAP2 POP PUSH2 0xDBC DUP3 PUSH2 0xD7D JUMP JUMPDEST PUSH1 0x20 DUP3 ADD SWAP1 POP SWAP2 SWAP1 POP JUMP JUMPDEST PUSH0 PUSH1 0x20 DUP3 ADD SWAP1 POP DUP2 DUP2 SUB PUSH0 DUP4 ADD MSTORE PUSH2 0xDDE DUP2 PUSH2 0xDA5 JUMP JUMPDEST SWAP1 POP SWAP2 SWAP1 POP JUMP JUMPDEST PUSH32 0x496E76616C69642062696420696E646578000000000000000000000000000000 PUSH0 DUP3 ADD MSTORE POP JUMP JUMPDEST PUSH0 PUSH2 0xE19 PUSH1 0x11 DUP4 PUSH2 0xC9D JUMP JUMPDEST SWAP2 POP PUSH2 0xE24 DUP3 PUSH2 0xDE5 JUMP JUMPDEST PUSH1 0x20 DUP3 ADD SWAP1 POP SWAP2 SWAP1 POP JUMP JUMPDEST PUSH0 PUSH1 0x20 DUP3 ADD SWAP1 POP DUP2 DUP2 SUB PUSH0 DUP4 ADD MSTORE PUSH2 0xE46 DUP2 PUSH2 0xE0D JUMP JUMPDEST SWAP1 POP SWAP2 SWAP1 POP JUMP JUMPDEST PUSH32 0x4E487B7100000000000000000000000000000000000000000000000000000000 PUSH0 MSTORE PUSH1 0x32 PUSH1 0x4 MSTORE PUSH1 0x24 PUSH0 REVERT JUMPDEST PUSH32 0x496E636F7272656374206465706F736974000000000000000000000000000000 PUSH0 DUP3 ADD MSTORE POP JUMP JUMPDEST PUSH0 PUSH2 0xEAE PUSH1 0x11 DUP4 PUSH2 0xC9D JUMP JUMPDEST SWAP2 POP PUSH2 0xEB9 DUP3 PUSH2 0xE7A JUMP JUMPDEST PUSH1 0x20 DUP3 ADD SWAP1 POP SWAP2 SWAP1 POP JUMP JUMPDEST PUSH0 PUSH1 0x20 DUP3 ADD SWAP1 POP DUP2 DUP2 SUB PUSH0 DUP4 ADD MSTORE PUSH2 0xEDB DUP2 PUSH2 0xEA2 JUMP JUMPDEST SWAP1 POP SWAP2 SWAP1 POP JUMP JUMPDEST PUSH32 0x416C726561647920626964000000000000000000000000000000000000000000 PUSH0 DUP3 ADD MSTORE POP JUMP JUMPDEST PUSH0 PUSH2 0xF16 PUSH1 0xB DUP4 PUSH2 0xC9D JUMP JUMPDEST SWAP2 POP PUSH2 0xF21 DUP3 PUSH2 0xEE2 JUMP JUMPDEST PUSH1 0x20 DUP3 ADD SWAP1 POP SWAP2 SWAP1 POP JUMP JUMPDEST PUSH0 PUSH1 0x20 DUP3 ADD SWAP1 POP DUP2 DUP2 SUB PUSH0 DUP4 ADD MSTORE PUSH2 0xF43 DUP2 PUSH2 0xF0A JUMP JUMPDEST SWAP1 POP SWAP2 SWAP1 POP JUMP INVALID LOG2 PUSH5 0x6970667358 0x22 SLT KECCAK256 0x2E COINBASE 0xC8 CHAINID STATICCALL STOP 0xCC SWAP8 DUP7 INVALID CALLF 0x5D19 EXTSTATICCALL PUSH12 0x288D141980D5BDA484D897BB SLOAD CALLDATACOPY 0xDB MSIZE MSTORE PUSH5 0x736F6C6343 STOP ADDMOD 0x1E STOP CALLER "
				},
				"gasEstimates": {
					"creation": {
						"codeDepositCost": "793600",
						"executionCost": "infinite",
						"totalCost": "infinite"
					},
					"external": {
						"depositAmount()": "2426",
						"factory()": "2530",
						"factorySet()": "2561",
						"openBidding(uint256)": "infinite",
						"placeBid(uint256)": "infinite",
						"qualifyBidder(uint256,uint256)": "infinite",
						"selectWinner(uint256,uint256)": "infinite",
						"setFactory(address)": "51317",
						"taskBids(uint256,uint256)": "infinite",
						"winners(uint256)": "2827"
					}
				},
				"methodIdentifiers": {
					"depositAmount()": "419759f5",
					"factory()": "c45a0155",
					"factorySet()": "e21875e2",
					"openBidding(uint256)": "e38c8302",
					"placeBid(uint256)": "9979ef45",
					"qualifyBidder(uint256,uint256)": "5d4bc827",
					"selectWinner(uint256,uint256)": "e6fa0209",
					"setFactory(address)": "5bb47808",
					"taskBids(uint256,uint256)": "5492b197",
					"winners(uint256)": "a2fb1175"
				}
			},
			"storageLayout": {
				"storage": [
					{
						"astId": 14,
						"contract": "BiddingSystem.sol:BiddingSystem",
						"label": "taskBids",
						"offset": 0,
						"slot": "0",
						"type": "t_mapping(t_uint256,t_array(t_struct(Bid)8_storage)dyn_storage)"
					},
					{
						"astId": 18,
						"contract": "BiddingSystem.sol:BiddingSystem",
						"label": "winners",
						"offset": 0,
						"slot": "1",
						"type": "t_mapping(t_uint256,t_address)"
					},
					{
						"astId": 20,
						"contract": "BiddingSystem.sol:BiddingSystem",
						"label": "factory",
						"offset": 0,
						"slot": "2",
						"type": "t_address"
					},
					{
						"astId": 23,
						"contract": "BiddingSystem.sol:BiddingSystem",
						"label": "factorySet",
						"offset": 20,
						"slot": "2",
						"type": "t_bool"
					},
					{
						"astId": 26,
						"contract": "BiddingSystem.sol:BiddingSystem",
						"label": "depositAmount",
						"offset": 0,
						"slot": "3",
						"type": "t_uint256"
					}
				],
				"types": {
					"t_address": {
						"encoding": "inplace",
						"label": "address",
						"numberOfBytes": "20"
					},
					"t_array(t_struct(Bid)8_storage)dyn_storage": {
						"base": "t_struct(Bid)8_storage",
						"encoding": "dynamic_array",
						"label": "struct BiddingSystem.Bid[]",
						"numberOfBytes": "32"
					},
					"t_bool": {
						"encoding": "inplace",
						"label": "bool",
						"numberOfBytes": "1"
					},
					"t_mapping(t_uint256,t_address)": {
						"encoding": "mapping",
						"key": "t_uint256",
						"label": "mapping(uint256 => address)",
						"numberOfBytes": "32",
						"value": "t_address"
					},
					"t_mapping(t_uint256,t_array(t_struct(Bid)8_storage)dyn_storage)": {
						"encoding": "mapping",
						"key": "t_uint256",
						"label": "mapping(uint256 => struct BiddingSystem.Bid[])",
						"numberOfBytes": "32",
						"value": "t_array(t_struct(Bid)8_storage)dyn_storage"
					},
					"t_struct(Bid)8_storage": {
						"encoding": "inplace",
						"label": "struct BiddingSystem.Bid",
						"members": [
							{
								"astId": 3,
								"contract": "BiddingSystem.sol:BiddingSystem",
								"label": "bidder",
								"offset": 0,
								"slot": "0",
								"type": "t_address"
							},
							{
								"astId": 5,
								"contract": "BiddingSystem.sol:BiddingSystem",
								"label": "amount",
								"offset": 0,
								"slot": "1",
								"type": "t_uint256"
							},
							{
								"astId": 7,
								"contract": "BiddingSystem.sol:BiddingSystem",
								"label": "isQualified",
								"offset": 0,
								"slot": "2",
								"type": "t_bool"
							}
						],
						"numberOfBytes": "96"
					},
					"t_uint256": {
						"encoding": "inplace",
						"label": "uint256",
						"numberOfBytes": "32"
					}
				}
			},
			"userdoc": {
				"kind": "user",
				"methods": {},
				"version": 1
			}
		}
	}
}