{
	"contracts/contracts/Escrow.sol": {
		"Escrow": {
			"abi": [
				{
					"inputs": [
						{
							"internalType": "address",
							"name": "_factory",
							"type": "address"
						}
					],
					"stateMutability": "nonpayable",
					"type": "constructor"
				},
				{
					"anonymous": false,
					"inputs": [
						{
							"indexed": true,
							"internalType": "uint256",
							"name": "taskId",
							"type": "uint256"
						},
						{
							"indexed": false,
							"internalType": "uint256",
							"name": "amount",
							"type": "uint256"
						}
					],
					"name": "FundsDeposited",
					"type": "event"
				},
				{
					"anonymous": false,
					"inputs": [
						{
							"indexed": true,
							"internalType": "uint256",
							"name": "taskId",
							"type": "uint256"
						},
						{
							"indexed": false,
							"internalType": "address",
							"name": "recipient",
							"type": "address"
						},
						{
							"indexed": false,
							"internalType": "uint256",
							"name": "amount",
							"type": "uint256"
						}
					],
					"name": "FundsRefunded",
					"type": "event"
				},
				{
					"anonymous": false,
					"inputs": [
						{
							"indexed": true,
							"internalType": "uint256",
							"name": "taskId",
							"type": "uint256"
						},
						{
							"indexed": false,
							"internalType": "address",
							"name": "recipient",
							"type": "address"
						}
					],
					"name": "FundsReleased",
					"type": "event"
				},
				{
					"anonymous": false,
					"inputs": [
						{
							"indexed": true,
							"internalType": "uint256",
							"name": "taskId",
							"type": "uint256"
						},
						{
							"indexed": false,
							"internalType": "address",
							"name": "juror",
							"type": "address"
						},
						{
							"indexed": false,
							"internalType": "uint256",
							"name": "amount",
							"type": "uint256"
						}
					],
					"name": "JurorRewarded",
					"type": "event"
				},
				{
					"anonymous": false,
					"inputs": [
						{
							"indexed": true,
							"internalType": "uint256",
							"name": "taskId",
							"type": "uint256"
						},
						{
							"indexed": false,
							"internalType": "uint256",
							"name": "amount",
							"type": "uint256"
						}
					],
					"name": "PoolAdded",
					"type": "event"
				},
				{
					"inputs": [
						{
							"internalType": "uint256",
							"name": "_taskId",
							"type": "uint256"
						},
						{
							"internalType": "uint256",
							"name": "amount",
							"type": "uint256"
						}
					],
					"name": "addToPool",
					"outputs": [],
					"stateMutability": "nonpayable",
					"type": "function"
				},
				{
					"inputs": [
						{
							"internalType": "uint256",
							"name": "taskId",
							"type": "uint256"
						}
					],
					"name": "depositFunds",
					"outputs": [],
					"stateMutability": "payable",
					"type": "function"
				},
				{
					"inputs": [],
					"name": "factory",
					"outputs": [
						{
							"internalType": "address",
							"name": "",
							"type": "address"
						}
					],
					"stateMutability": "view",
					"type": "function"
				},
				{
					"inputs": [],
					"name": "factorySet",
					"outputs": [
						{
							"internalType": "bool",
							"name": "",
							"type": "bool"
						}
					],
					"stateMutability": "view",
					"type": "function"
				},
				{
					"inputs": [],
					"name": "platformPool",
					"outputs": [
						{
							"internalType": "uint256",
							"name": "",
							"type": "uint256"
						}
					],
					"stateMutability": "view",
					"type": "function"
				},
				{
					"inputs": [
						{
							"internalType": "uint256",
							"name": "_taskId",
							"type": "uint256"
						},
						{
							"internalType": "address",
							"name": "_creator",
							"type": "address"
						}
					],
					"name": "refundFunds",
					"outputs": [],
					"stateMutability": "nonpayable",
					"type": "function"
				},
				{
					"inputs": [
						{
							"internalType": "uint256",
							"name": "_taskId",
							"type": "uint256"
						},
						{
							"internalType": "address",
							"name": "_winner",
							"type": "address"
						}
					],
					"name": "releaseFunds",
					"outputs": [],
					"stateMutability": "nonpayable",
					"type": "function"
				},
				{
					"inputs": [
						{
							"internalType": "uint256",
							"name": "_taskId",
							"type": "uint256"
						},
						{
							"internalType": "address",
							"name": "juror",
							"type": "address"
						},
						{
							"internalType": "uint256",
							"name": "amount",
							"type": "uint256"
						}
					],
					"name": "rewardJuror",
					"outputs": [],
					"stateMutability": "nonpayable",
					"type": "function"
				},
				{
					"inputs": [
						{
							"internalType": "address",
							"name": "_factory",
							"type": "address"
						}
					],
					"name": "setFactory",
					"outputs": [],
					"stateMutability": "nonpayable",
					"type": "function"
				},
				{
					"inputs": [
						{
							"internalType": "uint256",
							"name": "_taskId",
							"type": "uint256"
						},
						{
							"internalType": "address",
							"name": "_bidder",
							"type": "address"
						}
					],
					"name": "slashDeposit",
					"outputs": [],
					"stateMutability": "nonpayable",
					"type": "function"
				},
				{
					"inputs": [
						{
							"internalType": "uint256",
							"name": "",
							"type": "uint256"
						}
					],
					"name": "taskFunds",
					"outputs": [
						{
							"internalType": "uint256",
							"name": "",
							"type": "uint256"
						}
					],
					"stateMutability": "view",
					"type": "function"
				}
			],
			"devdoc": {
				"kind": "dev",
				"methods": {},
				"version": 1
			},
			"evm": {
				"assembly": "    /* \"contracts/contracts/Escrow.sol\":144:3427  contract Escrow {... */\n  mstore(0x40, 0x80)\n    /* \"contracts/contracts/Escrow.sol\":316:321  false */\n  0x00\n    /* \"contracts/contracts/Escrow.sol\":291:321  bool public factorySet = false */\n  0x01\n  exp(0x0100, 0x14)\n  dup2\n  sload\n  dup2\n  0xff\n  mul\n  not\n  and\n  swap1\n  dup4\n  iszero\n  iszero\n  mul\n  or\n  swap1\n  sstore\n  pop\n    /* \"contracts/contracts/Escrow.sol\":935:1057  constructor(address _factory) {... */\n  callvalue\n  dup1\n  iszero\n  tag_1\n  jumpi\n  revert(0x00, 0x00)\ntag_1:\n  pop\n  mload(0x40)\n  sub(codesize, bytecodeSize)\n  dup1\n  bytecodeSize\n  dup4\n  codecopy\n  dup2\n  dup2\n  add\n  0x40\n  mstore\n  dup2\n  add\n  swap1\n  tag_2\n  swap2\n  swap1\n  tag_3\n  jump\t// in\ntag_2:\n    /* \"contracts/contracts/Escrow.sol\":986:994  _factory */\n  dup1\n    /* \"contracts/contracts/Escrow.sol\":976:983  factory */\n  0x01\n  0x00\n    /* \"contracts/contracts/Escrow.sol\":976:994  factory = _factory */\n  0x0100\n  exp\n  dup2\n  sload\n  dup2\n  0xffffffffffffffffffffffffffffffffffffffff\n  mul\n  not\n  and\n  swap1\n  dup4\n  0xffffffffffffffffffffffffffffffffffffffff\n  and\n  mul\n  or\n  swap1\n  sstore\n  pop\n    /* \"contracts/contracts/Escrow.sol\":1028:1029  0 */\n  0x00\n    /* \"contracts/contracts/Escrow.sol\":1008:1030  _factory != address(0) */\n  0xffffffffffffffffffffffffffffffffffffffff\n  and\n    /* \"contracts/contracts/Escrow.sol\":1008:1016  _factory */\n  dup2\n    /* \"contracts/contracts/Escrow.sol\":1008:1030  _factory != address(0) */\n  0xffffffffffffffffffffffffffffffffffffffff\n  and\n  eq\n    /* \"contracts/contracts/Escrow.sol\":1005:1049  if(_factory != address(0)) factorySet = true */\n  tag_6\n  jumpi\n    /* \"contracts/contracts/Escrow.sol\":1045:1049  true */\n  0x01\n    /* \"contracts/contracts/Escrow.sol\":1032:1042  factorySet */\n  dup1\n  0x14\n    /* \"contracts/contracts/Escrow.sol\":1032:1049  factorySet = true */\n  0x0100\n  exp\n  dup2\n  sload\n  dup2\n  0xff\n  mul\n  not\n  and\n  swap1\n  dup4\n  iszero\n  iszero\n  mul\n  or\n  swap1\n  sstore\n  pop\n    /* \"contracts/contracts/Escrow.sol\":1005:1049  if(_factory != address(0)) factorySet = true */\ntag_6:\n    /* \"contracts/contracts/Escrow.sol\":935:1057  constructor(address _factory) {... */\n  pop\n    /* \"contracts/contracts/Escrow.sol\":144:3427  contract Escrow {... */\n  jump(tag_7)\n    /* \"#utility.yul\":88:205   */\ntag_9:\n    /* \"#utility.yul\":197:198   */\n  0x00\n    /* \"#utility.yul\":194:195   */\n  0x00\n    /* \"#utility.yul\":187:199   */\n  revert\n    /* \"#utility.yul\":334:460   */\ntag_11:\n    /* \"#utility.yul\":371:378   */\n  0x00\n    /* \"#utility.yul\":411:453   */\n  0xffffffffffffffffffffffffffffffffffffffff\n    /* \"#utility.yul\":404:409   */\n  dup3\n    /* \"#utility.yul\":400:454   */\n  and\n    /* \"#utility.yul\":389:454   */\n  swap1\n  pop\n    /* \"#utility.yul\":334:460   */\n  swap2\n  swap1\n  pop\n  jump\t// out\n    /* \"#utility.yul\":466:562   */\ntag_12:\n    /* \"#utility.yul\":503:510   */\n  0x00\n    /* \"#utility.yul\":532:556   */\n  tag_21\n    /* \"#utility.yul\":550:555   */\n  dup3\n    /* \"#utility.yul\":532:556   */\n  tag_11\n  jump\t// in\ntag_21:\n    /* \"#utility.yul\":521:556   */\n  swap1\n  pop\n    /* \"#utility.yul\":466:562   */\n  swap2\n  swap1\n  pop\n  jump\t// out\n    /* \"#utility.yul\":568:690   */\ntag_13:\n    /* \"#utility.yul\":641:665   */\n  tag_23\n    /* \"#utility.yul\":659:664   */\n  dup2\n    /* \"#utility.yul\":641:665   */\n  tag_12\n  jump\t// in\ntag_23:\n    /* \"#utility.yul\":634:639   */\n  dup2\n    /* \"#utility.yul\":631:666   */\n  eq\n    /* \"#utility.yul\":621:684   */\n  tag_24\n  jumpi\n    /* \"#utility.yul\":680:681   */\n  0x00\n    /* \"#utility.yul\":677:678   */\n  0x00\n    /* \"#utility.yul\":670:682   */\n  revert\n    /* \"#utility.yul\":621:684   */\ntag_24:\n    /* \"#utility.yul\":568:690   */\n  pop\n  jump\t// out\n    /* \"#utility.yul\":696:839   */\ntag_14:\n    /* \"#utility.yul\":753:758   */\n  0x00\n    /* \"#utility.yul\":784:790   */\n  dup2\n    /* \"#utility.yul\":778:791   */\n  mload\n    /* \"#utility.yul\":769:791   */\n  swap1\n  pop\n    /* \"#utility.yul\":800:833   */\n  tag_26\n    /* \"#utility.yul\":827:832   */\n  dup2\n    /* \"#utility.yul\":800:833   */\n  tag_13\n  jump\t// in\ntag_26:\n    /* \"#utility.yul\":696:839   */\n  swap3\n  swap2\n  pop\n  pop\n  jump\t// out\n    /* \"#utility.yul\":845:1196   */\ntag_3:\n    /* \"#utility.yul\":915:921   */\n  0x00\n    /* \"#utility.yul\":964:966   */\n  0x20\n    /* \"#utility.yul\":952:961   */\n  dup3\n    /* \"#utility.yul\":943:950   */\n  dup5\n    /* \"#utility.yul\":939:962   */\n  sub\n    /* \"#utility.yul\":935:967   */\n  slt\n    /* \"#utility.yul\":932:1051   */\n  iszero\n  tag_28\n  jumpi\n    /* \"#utility.yul\":970:1049   */\n  tag_29\n  tag_9\n  jump\t// in\ntag_29:\n    /* \"#utility.yul\":932:1051   */\ntag_28:\n    /* \"#utility.yul\":1090:1091   */\n  0x00\n    /* \"#utility.yul\":1115:1179   */\n  tag_30\n    /* \"#utility.yul\":1171:1178   */\n  dup5\n    /* \"#utility.yul\":1162:1168   */\n  dup3\n    /* \"#utility.yul\":1151:1160   */\n  dup6\n    /* \"#utility.yul\":1147:1169   */\n  add\n    /* \"#utility.yul\":1115:1179   */\n  tag_14\n  jump\t// in\ntag_30:\n    /* \"#utility.yul\":1105:1179   */\n  swap2\n  pop\n    /* \"#utility.yul\":1061:1189   */\n  pop\n    /* \"#utility.yul\":845:1196   */\n  swap3\n  swap2\n  pop\n  pop\n  jump\t// out\n    /* \"contracts/contracts/Escrow.sol\":144:3427  contract Escrow {... */\ntag_7:\n  dataSize(sub_0)\n  dup1\n  dataOffset(sub_0)\n  0x00\n  codecopy\n  0x00\n  return\nstop\n\nsub_0: assembly {\n        /* \"contracts/contracts/Escrow.sol\":144:3427  contract Escrow {... */\n      mstore(0x40, 0x80)\n      jumpi(tag_1, lt(calldatasize, 0x04))\n      shr(0xe0, calldataload(0x00))\n      dup1\n      0x5bb47808\n      gt\n      tag_13\n      jumpi\n      dup1\n      0x5bb47808\n      eq\n      tag_7\n      jumpi\n      dup1\n      0x7364fae8\n      eq\n      tag_8\n      jumpi\n      dup1\n      0x77969929\n      eq\n      tag_9\n      jumpi\n      dup1\n      0x8833c4c3\n      eq\n      tag_10\n      jumpi\n      dup1\n      0xc45a0155\n      eq\n      tag_11\n      jumpi\n      dup1\n      0xe21875e2\n      eq\n      tag_12\n      jumpi\n      jump(tag_1)\n    tag_13:\n      dup1\n      0x1af23a59\n      eq\n      tag_2\n      jumpi\n      dup1\n      0x33518806\n      eq\n      tag_3\n      jumpi\n      dup1\n      0x3b76594d\n      eq\n      tag_4\n      jumpi\n      dup1\n      0x4283271c\n      eq\n      tag_5\n      jumpi\n      dup1\n      0x564fe31e\n      eq\n      tag_6\n      jumpi\n    tag_1:\n      revert(0x00, 0x00)\n        /* \"contracts/contracts/Escrow.sol\":1590:1968  function releaseFunds(uint256 _taskId, address _winner) external onlyFactory {... */\n    tag_2:\n      callvalue\n      dup1\n      iszero\n      tag_14\n      jumpi\n      revert(0x00, 0x00)\n    tag_14:\n      pop\n      tag_15\n      0x04\n      dup1\n      calldatasize\n      sub\n      dup2\n      add\n      swap1\n      tag_16\n      swap2\n      swap1\n      tag_17\n      jump\t// in\n    tag_16:\n      tag_18\n      jump\t// in\n    tag_15:\n      stop\n        /* \"contracts/contracts/Escrow.sol\":358:385  uint256 public platformPool */\n    tag_3:\n      callvalue\n      dup1\n      iszero\n      tag_19\n      jumpi\n      revert(0x00, 0x00)\n    tag_19:\n      pop\n      tag_20\n      tag_21\n      jump\t// in\n    tag_20:\n      mload(0x40)\n      tag_22\n      swap2\n      swap1\n      tag_23\n      jump\t// in\n    tag_22:\n      mload(0x40)\n      dup1\n      swap2\n      sub\n      swap1\n      return\n        /* \"contracts/contracts/Escrow.sol\":1335:1550  function depositFunds(uint256 taskId) external payable onlyFactory {... */\n    tag_4:\n      tag_24\n      0x04\n      dup1\n      calldatasize\n      sub\n      dup2\n      add\n      swap1\n      tag_25\n      swap2\n      swap1\n      tag_26\n      jump\t// in\n    tag_25:\n      tag_27\n      jump\t// in\n    tag_24:\n      stop\n        /* \"contracts/contracts/Escrow.sol\":2839:2985  function slashDeposit(uint256 _taskId, address _bidder) external onlyFactory {... */\n    tag_5:\n      callvalue\n      dup1\n      iszero\n      tag_28\n      jumpi\n      revert(0x00, 0x00)\n    tag_28:\n      pop\n      tag_29\n      0x04\n      dup1\n      calldatasize\n      sub\n      dup2\n      add\n      swap1\n      tag_30\n      swap2\n      swap1\n      tag_17\n      jump\t// in\n    tag_30:\n      tag_31\n      jump\t// in\n    tag_29:\n      stop\n        /* \"contracts/contracts/Escrow.sol\":3053:3424  function rewardJuror(uint256 _taskId, address juror, uint256 amount) external onlyFactory {... */\n    tag_6:\n      callvalue\n      dup1\n      iszero\n      tag_32\n      jumpi\n      revert(0x00, 0x00)\n    tag_32:\n      pop\n      tag_33\n      0x04\n      dup1\n      calldatasize\n      sub\n      dup2\n      add\n      swap1\n      tag_34\n      swap2\n      swap1\n      tag_35\n      jump\t// in\n    tag_34:\n      tag_36\n      jump\t// in\n    tag_33:\n      stop\n        /* \"contracts/contracts/Escrow.sol\":1065:1292  function setFactory(address _factory) external {... */\n    tag_7:\n      callvalue\n      dup1\n      iszero\n      tag_37\n      jumpi\n      revert(0x00, 0x00)\n    tag_37:\n      pop\n      tag_38\n      0x04\n      dup1\n      calldatasize\n      sub\n      dup2\n      add\n      swap1\n      tag_39\n      swap2\n      swap1\n      tag_40\n      jump\t// in\n    tag_39:\n      tag_41\n      jump\t// in\n    tag_38:\n      stop\n        /* \"contracts/contracts/Escrow.sol\":2499:2769  function addToPool(uint256 _taskId, uint256 amount) external onlyFactory {... */\n    tag_8:\n      callvalue\n      dup1\n      iszero\n      tag_42\n      jumpi\n      revert(0x00, 0x00)\n    tag_42:\n      pop\n      tag_43\n      0x04\n      dup1\n      calldatasize\n      sub\n      dup2\n      add\n      swap1\n      tag_44\n      swap2\n      swap1\n      tag_45\n      jump\t// in\n    tag_44:\n      tag_46\n      jump\t// in\n    tag_43:\n      stop\n        /* \"contracts/contracts/Escrow.sol\":2056:2446  function refundFunds(uint256 _taskId, address _creator) external onlyFactory {... */\n    tag_9:\n      callvalue\n      dup1\n      iszero\n      tag_47\n      jumpi\n      revert(0x00, 0x00)\n    tag_47:\n      pop\n      tag_48\n      0x04\n      dup1\n      calldatasize\n      sub\n      dup2\n      add\n      swap1\n      tag_49\n      swap2\n      swap1\n      tag_17\n      jump\t// in\n    tag_49:\n      tag_50\n      jump\t// in\n    tag_48:\n      stop\n        /* \"contracts/contracts/Escrow.sol\":211:255  mapping(uint256 => uint256) public taskFunds */\n    tag_10:\n      callvalue\n      dup1\n      iszero\n      tag_51\n      jumpi\n      revert(0x00, 0x00)\n    tag_51:\n      pop\n      tag_52\n      0x04\n      dup1\n      calldatasize\n      sub\n      dup2\n      add\n      swap1\n      tag_53\n      swap2\n      swap1\n      tag_26\n      jump\t// in\n    tag_53:\n      tag_54\n      jump\t// in\n    tag_52:\n      mload(0x40)\n      tag_55\n      swap2\n      swap1\n      tag_23\n      jump\t// in\n    tag_55:\n      mload(0x40)\n      dup1\n      swap2\n      sub\n      swap1\n      return\n        /* \"contracts/contracts/Escrow.sol\":262:284  address public factory */\n    tag_11:\n      callvalue\n      dup1\n      iszero\n      tag_56\n      jumpi\n      revert(0x00, 0x00)\n    tag_56:\n      pop\n      tag_57\n      tag_58\n      jump\t// in\n    tag_57:\n      mload(0x40)\n      tag_59\n      swap2\n      swap1\n      tag_60\n      jump\t// in\n    tag_59:\n      mload(0x40)\n      dup1\n      swap2\n      sub\n      swap1\n      return\n        /* \"contracts/contracts/Escrow.sol\":291:321  bool public factorySet = false */\n    tag_12:\n      callvalue\n      dup1\n      iszero\n      tag_61\n      jumpi\n      revert(0x00, 0x00)\n    tag_61:\n      pop\n      tag_62\n      tag_63\n      jump\t// in\n    tag_62:\n      mload(0x40)\n      tag_64\n      swap2\n      swap1\n      tag_65\n      jump\t// in\n    tag_64:\n      mload(0x40)\n      dup1\n      swap2\n      sub\n      swap1\n      return\n        /* \"contracts/contracts/Escrow.sol\":1590:1968  function releaseFunds(uint256 _taskId, address _winner) external onlyFactory {... */\n    tag_18:\n        /* \"contracts/contracts/Escrow.sol\":871:878  factory */\n      0x01\n      0x00\n      swap1\n      sload\n      swap1\n      0x0100\n      exp\n      swap1\n      div\n      0xffffffffffffffffffffffffffffffffffffffff\n      and\n        /* \"contracts/contracts/Escrow.sol\":857:878  msg.sender == factory */\n      0xffffffffffffffffffffffffffffffffffffffff\n      and\n        /* \"contracts/contracts/Escrow.sol\":857:867  msg.sender */\n      caller\n        /* \"contracts/contracts/Escrow.sol\":857:878  msg.sender == factory */\n      0xffffffffffffffffffffffffffffffffffffffff\n      and\n      eq\n        /* \"contracts/contracts/Escrow.sol\":849:907  require(msg.sender == factory, \"Only factory can operate\") */\n      tag_67\n      jumpi\n      mload(0x40)\n      0x08c379a000000000000000000000000000000000000000000000000000000000\n      dup2\n      mstore\n      0x04\n      add\n      tag_68\n      swap1\n      tag_69\n      jump\t// in\n    tag_68:\n      mload(0x40)\n      dup1\n      swap2\n      sub\n      swap1\n      revert\n    tag_67:\n        /* \"contracts/contracts/Escrow.sol\":1705:1706  0 */\n      0x00\n        /* \"contracts/contracts/Escrow.sol\":1686:1707  _winner != address(0) */\n      0xffffffffffffffffffffffffffffffffffffffff\n      and\n        /* \"contracts/contracts/Escrow.sol\":1686:1693  _winner */\n      dup2\n        /* \"contracts/contracts/Escrow.sol\":1686:1707  _winner != address(0) */\n      0xffffffffffffffffffffffffffffffffffffffff\n      and\n      sub\n        /* \"contracts/contracts/Escrow.sol\":1678:1734  require(_winner != address(0), \"Invalid winner address\") */\n      tag_71\n      jumpi\n      mload(0x40)\n      0x08c379a000000000000000000000000000000000000000000000000000000000\n      dup2\n      mstore\n      0x04\n      add\n      tag_72\n      swap1\n      tag_73\n      jump\t// in\n    tag_72:\n      mload(0x40)\n      dup1\n      swap2\n      sub\n      swap1\n      revert\n    tag_71:\n        /* \"contracts/contracts/Escrow.sol\":1745:1759  uint256 amount */\n      0x00\n        /* \"contracts/contracts/Escrow.sol\":1762:1771  taskFunds */\n      0x00\n        /* \"contracts/contracts/Escrow.sol\":1762:1780  taskFunds[_taskId] */\n      0x00\n        /* \"contracts/contracts/Escrow.sol\":1772:1779  _taskId */\n      dup5\n        /* \"contracts/contracts/Escrow.sol\":1762:1780  taskFunds[_taskId] */\n      dup2\n      mstore\n      0x20\n      add\n      swap1\n      dup2\n      mstore\n      0x20\n      add\n      0x00\n      keccak256\n      sload\n        /* \"contracts/contracts/Escrow.sol\":1745:1780  uint256 amount = taskFunds[_taskId] */\n      swap1\n      pop\n        /* \"contracts/contracts/Escrow.sol\":1808:1809  0 */\n      0x00\n        /* \"contracts/contracts/Escrow.sol\":1799:1805  amount */\n      dup2\n        /* \"contracts/contracts/Escrow.sol\":1799:1809  amount > 0 */\n      gt\n        /* \"contracts/contracts/Escrow.sol\":1791:1832  require(amount > 0, \"No funds available\") */\n      tag_74\n      jumpi\n      mload(0x40)\n      0x08c379a000000000000000000000000000000000000000000000000000000000\n      dup2\n      mstore\n      0x04\n      add\n      tag_75\n      swap1\n      tag_76\n      jump\t// in\n    tag_75:\n      mload(0x40)\n      dup1\n      swap2\n      sub\n      swap1\n      revert\n    tag_74:\n        /* \"contracts/contracts/Escrow.sol\":1866:1867  0 */\n      0x00\n        /* \"contracts/contracts/Escrow.sol\":1845:1854  taskFunds */\n      0x00\n        /* \"contracts/contracts/Escrow.sol\":1845:1863  taskFunds[_taskId] */\n      0x00\n        /* \"contracts/contracts/Escrow.sol\":1855:1862  _taskId */\n      dup6\n        /* \"contracts/contracts/Escrow.sol\":1845:1863  taskFunds[_taskId] */\n      dup2\n      mstore\n      0x20\n      add\n      swap1\n      dup2\n      mstore\n      0x20\n      add\n      0x00\n      keccak256\n        /* \"contracts/contracts/Escrow.sol\":1845:1867  taskFunds[_taskId] = 0 */\n      dup2\n      swap1\n      sstore\n      pop\n        /* \"contracts/contracts/Escrow.sol\":1886:1893  _winner */\n      dup2\n        /* \"contracts/contracts/Escrow.sol\":1878:1903  payable(_winner).transfer */\n      0xffffffffffffffffffffffffffffffffffffffff\n      and\n        /* \"contracts/contracts/Escrow.sol\":1878:1911  payable(_winner).transfer(amount) */\n      0x08fc\n        /* \"contracts/contracts/Escrow.sol\":1904:1910  amount */\n      dup3\n        /* \"contracts/contracts/Escrow.sol\":1878:1911  payable(_winner).transfer(amount) */\n      swap1\n      dup2\n      iszero\n      mul\n      swap1\n      mload(0x40)\n      0x00\n      mload(0x40)\n      dup1\n      dup4\n      sub\n      dup2\n      dup6\n      dup9\n      dup9\n      call\n      swap4\n      pop\n      pop\n      pop\n      pop\n      iszero\n      dup1\n      iszero\n      tag_78\n      jumpi\n      returndatacopy(0x00, 0x00, returndatasize)\n      revert(0x00, returndatasize)\n    tag_78:\n      pop\n        /* \"contracts/contracts/Escrow.sol\":1943:1950  _taskId */\n      dup3\n        /* \"contracts/contracts/Escrow.sol\":1929:1960  FundsReleased(_taskId, _winner) */\n      0x8f5073d0a7a22ba450e278541077e181af457be74bea91e61f1f99e6bb40748e\n        /* \"contracts/contracts/Escrow.sol\":1952:1959  _winner */\n      dup4\n        /* \"contracts/contracts/Escrow.sol\":1929:1960  FundsReleased(_taskId, _winner) */\n      mload(0x40)\n      tag_79\n      swap2\n      swap1\n      tag_60\n      jump\t// in\n    tag_79:\n      mload(0x40)\n      dup1\n      swap2\n      sub\n      swap1\n      log2\n        /* \"contracts/contracts/Escrow.sol\":1667:1968  {... */\n      pop\n        /* \"contracts/contracts/Escrow.sol\":1590:1968  function releaseFunds(uint256 _taskId, address _winner) external onlyFactory {... */\n      pop\n      pop\n      jump\t// out\n        /* \"contracts/contracts/Escrow.sol\":358:385  uint256 public platformPool */\n    tag_21:\n      sload(0x02)\n      dup2\n      jump\t// out\n        /* \"contracts/contracts/Escrow.sol\":1335:1550  function depositFunds(uint256 taskId) external payable onlyFactory {... */\n    tag_27:\n        /* \"contracts/contracts/Escrow.sol\":871:878  factory */\n      0x01\n      0x00\n      swap1\n      sload\n      swap1\n      0x0100\n      exp\n      swap1\n      div\n      0xffffffffffffffffffffffffffffffffffffffff\n      and\n        /* \"contracts/contracts/Escrow.sol\":857:878  msg.sender == factory */\n      0xffffffffffffffffffffffffffffffffffffffff\n      and\n        /* \"contracts/contracts/Escrow.sol\":857:867  msg.sender */\n      caller\n        /* \"contracts/contracts/Escrow.sol\":857:878  msg.sender == factory */\n      0xffffffffffffffffffffffffffffffffffffffff\n      and\n      eq\n        /* \"contracts/contracts/Escrow.sol\":849:907  require(msg.sender == factory, \"Only factory can operate\") */\n      tag_81\n      jumpi\n      mload(0x40)\n      0x08c379a000000000000000000000000000000000000000000000000000000000\n      dup2\n      mstore\n      0x04\n      add\n      tag_82\n      swap1\n      tag_69\n      jump\t// in\n    tag_82:\n      mload(0x40)\n      dup1\n      swap2\n      sub\n      swap1\n      revert\n    tag_81:\n        /* \"contracts/contracts/Escrow.sol\":1433:1434  0 */\n      0x00\n        /* \"contracts/contracts/Escrow.sol\":1421:1430  msg.value */\n      callvalue\n        /* \"contracts/contracts/Escrow.sol\":1421:1434  msg.value > 0 */\n      gt\n        /* \"contracts/contracts/Escrow.sol\":1413:1452  require(msg.value > 0, \"No funds sent\") */\n      tag_84\n      jumpi\n      mload(0x40)\n      0x08c379a000000000000000000000000000000000000000000000000000000000\n      dup2\n      mstore\n      0x04\n      add\n      tag_85\n      swap1\n      tag_86\n      jump\t// in\n    tag_85:\n      mload(0x40)\n      dup1\n      swap2\n      sub\n      swap1\n      revert\n    tag_84:\n        /* \"contracts/contracts/Escrow.sol\":1484:1493  msg.value */\n      callvalue\n        /* \"contracts/contracts/Escrow.sol\":1463:1472  taskFunds */\n      0x00\n        /* \"contracts/contracts/Escrow.sol\":1463:1480  taskFunds[taskId] */\n      0x00\n        /* \"contracts/contracts/Escrow.sol\":1473:1479  taskId */\n      dup4\n        /* \"contracts/contracts/Escrow.sol\":1463:1480  taskFunds[taskId] */\n      dup2\n      mstore\n      0x20\n      add\n      swap1\n      dup2\n      mstore\n      0x20\n      add\n      0x00\n      keccak256\n      0x00\n        /* \"contracts/contracts/Escrow.sol\":1463:1493  taskFunds[taskId] += msg.value */\n      dup3\n      dup3\n      sload\n      tag_87\n      swap2\n      swap1\n      tag_88\n      jump\t// in\n    tag_87:\n      swap3\n      pop\n      pop\n      dup2\n      swap1\n      sstore\n      pop\n        /* \"contracts/contracts/Escrow.sol\":1524:1530  taskId */\n      dup1\n        /* \"contracts/contracts/Escrow.sol\":1509:1542  FundsDeposited(taskId, msg.value) */\n      0x26679fa1f3868c950e9362f1106cf73f3318de0280e0411a3c68e4b463eadd4f\n        /* \"contracts/contracts/Escrow.sol\":1532:1541  msg.value */\n      callvalue\n        /* \"contracts/contracts/Escrow.sol\":1509:1542  FundsDeposited(taskId, msg.value) */\n      mload(0x40)\n      tag_89\n      swap2\n      swap1\n      tag_23\n      jump\t// in\n    tag_89:\n      mload(0x40)\n      dup1\n      swap2\n      sub\n      swap1\n      log2\n        /* \"contracts/contracts/Escrow.sol\":1335:1550  function depositFunds(uint256 taskId) external payable onlyFactory {... */\n      pop\n      jump\t// out\n        /* \"contracts/contracts/Escrow.sol\":2839:2985  function slashDeposit(uint256 _taskId, address _bidder) external onlyFactory {... */\n    tag_31:\n        /* \"contracts/contracts/Escrow.sol\":871:878  factory */\n      0x01\n      0x00\n      swap1\n      sload\n      swap1\n      0x0100\n      exp\n      swap1\n      div\n      0xffffffffffffffffffffffffffffffffffffffff\n      and\n        /* \"contracts/contracts/Escrow.sol\":857:878  msg.sender == factory */\n      0xffffffffffffffffffffffffffffffffffffffff\n      and\n        /* \"contracts/contracts/Escrow.sol\":857:867  msg.sender */\n      caller\n        /* \"contracts/contracts/Escrow.sol\":857:878  msg.sender == factory */\n      0xffffffffffffffffffffffffffffffffffffffff\n      and\n      eq\n        /* \"contracts/contracts/Escrow.sol\":849:907  require(msg.sender == factory, \"Only factory can operate\") */\n      tag_91\n      jumpi\n      mload(0x40)\n      0x08c379a000000000000000000000000000000000000000000000000000000000\n      dup2\n      mstore\n      0x04\n      add\n      tag_92\n      swap1\n      tag_69\n      jump\t// in\n    tag_92:\n      mload(0x40)\n      dup1\n      swap2\n      sub\n      swap1\n      revert\n    tag_91:\n        /* \"contracts/contracts/Escrow.sol\":2839:2985  function slashDeposit(uint256 _taskId, address _bidder) external onlyFactory {... */\n      pop\n      pop\n      jump\t// out\n        /* \"contracts/contracts/Escrow.sol\":3053:3424  function rewardJuror(uint256 _taskId, address juror, uint256 amount) external onlyFactory {... */\n    tag_36:\n        /* \"contracts/contracts/Escrow.sol\":871:878  factory */\n      0x01\n      0x00\n      swap1\n      sload\n      swap1\n      0x0100\n      exp\n      swap1\n      div\n      0xffffffffffffffffffffffffffffffffffffffff\n      and\n        /* \"contracts/contracts/Escrow.sol\":857:878  msg.sender == factory */\n      0xffffffffffffffffffffffffffffffffffffffff\n      and\n        /* \"contracts/contracts/Escrow.sol\":857:867  msg.sender */\n      caller\n        /* \"contracts/contracts/Escrow.sol\":857:878  msg.sender == factory */\n      0xffffffffffffffffffffffffffffffffffffffff\n      and\n      eq\n        /* \"contracts/contracts/Escrow.sol\":849:907  require(msg.sender == factory, \"Only factory can operate\") */\n      tag_95\n      jumpi\n      mload(0x40)\n      0x08c379a000000000000000000000000000000000000000000000000000000000\n      dup2\n      mstore\n      0x04\n      add\n      tag_96\n      swap1\n      tag_69\n      jump\t// in\n    tag_96:\n      mload(0x40)\n      dup1\n      swap2\n      sub\n      swap1\n      revert\n    tag_95:\n        /* \"contracts/contracts/Escrow.sol\":3184:3190  amount */\n      dup1\n        /* \"contracts/contracts/Escrow.sol\":3162:3171  taskFunds */\n      0x00\n        /* \"contracts/contracts/Escrow.sol\":3162:3180  taskFunds[_taskId] */\n      0x00\n        /* \"contracts/contracts/Escrow.sol\":3172:3179  _taskId */\n      dup6\n        /* \"contracts/contracts/Escrow.sol\":3162:3180  taskFunds[_taskId] */\n      dup2\n      mstore\n      0x20\n      add\n      swap1\n      dup2\n      mstore\n      0x20\n      add\n      0x00\n      keccak256\n      sload\n        /* \"contracts/contracts/Escrow.sol\":3162:3190  taskFunds[_taskId] >= amount */\n      lt\n      iszero\n        /* \"contracts/contracts/Escrow.sol\":3154:3218  require(taskFunds[_taskId] >= amount, \"Insufficient task funds\") */\n      tag_98\n      jumpi\n      mload(0x40)\n      0x08c379a000000000000000000000000000000000000000000000000000000000\n      dup2\n      mstore\n      0x04\n      add\n      tag_99\n      swap1\n      tag_100\n      jump\t// in\n    tag_99:\n      mload(0x40)\n      dup1\n      swap2\n      sub\n      swap1\n      revert\n    tag_98:\n        /* \"contracts/contracts/Escrow.sol\":3254:3255  0 */\n      0x00\n        /* \"contracts/contracts/Escrow.sol\":3237:3256  juror != address(0) */\n      0xffffffffffffffffffffffffffffffffffffffff\n      and\n        /* \"contracts/contracts/Escrow.sol\":3237:3242  juror */\n      dup3\n        /* \"contracts/contracts/Escrow.sol\":3237:3256  juror != address(0) */\n      0xffffffffffffffffffffffffffffffffffffffff\n      and\n      sub\n        /* \"contracts/contracts/Escrow.sol\":3229:3282  require(juror != address(0), \"Invalid juror address\") */\n      tag_101\n      jumpi\n      mload(0x40)\n      0x08c379a000000000000000000000000000000000000000000000000000000000\n      dup2\n      mstore\n      0x04\n      add\n      tag_102\n      swap1\n      tag_103\n      jump\t// in\n    tag_102:\n      mload(0x40)\n      dup1\n      swap2\n      sub\n      swap1\n      revert\n    tag_101:\n        /* \"contracts/contracts/Escrow.sol\":3315:3321  amount */\n      dup1\n        /* \"contracts/contracts/Escrow.sol\":3293:3302  taskFunds */\n      0x00\n        /* \"contracts/contracts/Escrow.sol\":3293:3311  taskFunds[_taskId] */\n      0x00\n        /* \"contracts/contracts/Escrow.sol\":3303:3310  _taskId */\n      dup6\n        /* \"contracts/contracts/Escrow.sol\":3293:3311  taskFunds[_taskId] */\n      dup2\n      mstore\n      0x20\n      add\n      swap1\n      dup2\n      mstore\n      0x20\n      add\n      0x00\n      keccak256\n      0x00\n        /* \"contracts/contracts/Escrow.sol\":3293:3321  taskFunds[_taskId] -= amount */\n      dup3\n      dup3\n      sload\n      tag_104\n      swap2\n      swap1\n      tag_105\n      jump\t// in\n    tag_104:\n      swap3\n      pop\n      pop\n      dup2\n      swap1\n      sstore\n      pop\n        /* \"contracts/contracts/Escrow.sol\":3340:3345  juror */\n      dup2\n        /* \"contracts/contracts/Escrow.sol\":3332:3355  payable(juror).transfer */\n      0xffffffffffffffffffffffffffffffffffffffff\n      and\n        /* \"contracts/contracts/Escrow.sol\":3332:3363  payable(juror).transfer(amount) */\n      0x08fc\n        /* \"contracts/contracts/Escrow.sol\":3356:3362  amount */\n      dup3\n        /* \"contracts/contracts/Escrow.sol\":3332:3363  payable(juror).transfer(amount) */\n      swap1\n      dup2\n      iszero\n      mul\n      swap1\n      mload(0x40)\n      0x00\n      mload(0x40)\n      dup1\n      dup4\n      sub\n      dup2\n      dup6\n      dup9\n      dup9\n      call\n      swap4\n      pop\n      pop\n      pop\n      pop\n      iszero\n      dup1\n      iszero\n      tag_107\n      jumpi\n      returndatacopy(0x00, 0x00, returndatasize)\n      revert(0x00, returndatasize)\n    tag_107:\n      pop\n        /* \"contracts/contracts/Escrow.sol\":3393:3400  _taskId */\n      dup3\n        /* \"contracts/contracts/Escrow.sol\":3379:3416  JurorRewarded(_taskId, juror, amount) */\n      0x38fef0e2638c7bfd9820a74741bd8d5b75996df52983ee3195e0e6db53b4fec4\n        /* \"contracts/contracts/Escrow.sol\":3402:3407  juror */\n      dup4\n        /* \"contracts/contracts/Escrow.sol\":3409:3415  amount */\n      dup4\n        /* \"contracts/contracts/Escrow.sol\":3379:3416  JurorRewarded(_taskId, juror, amount) */\n      mload(0x40)\n      tag_108\n      swap3\n      swap2\n      swap1\n      tag_109\n      jump\t// in\n    tag_108:\n      mload(0x40)\n      dup1\n      swap2\n      sub\n      swap1\n      log2\n        /* \"contracts/contracts/Escrow.sol\":3053:3424  function rewardJuror(uint256 _taskId, address juror, uint256 amount) external onlyFactory {... */\n      pop\n      pop\n      pop\n      jump\t// out\n        /* \"contracts/contracts/Escrow.sol\":1065:1292  function setFactory(address _factory) external {... */\n    tag_41:\n        /* \"contracts/contracts/Escrow.sol\":1132:1142  factorySet */\n      0x01\n      0x14\n      swap1\n      sload\n      swap1\n      0x0100\n      exp\n      swap1\n      div\n      0xff\n      and\n        /* \"contracts/contracts/Escrow.sol\":1131:1142  !factorySet */\n      iszero\n        /* \"contracts/contracts/Escrow.sol\":1123:1166  require(!factorySet, \"Factory already set\") */\n      tag_111\n      jumpi\n      mload(0x40)\n      0x08c379a000000000000000000000000000000000000000000000000000000000\n      dup2\n      mstore\n      0x04\n      add\n      tag_112\n      swap1\n      tag_113\n      jump\t// in\n    tag_112:\n      mload(0x40)\n      dup1\n      swap2\n      sub\n      swap1\n      revert\n    tag_111:\n        /* \"contracts/contracts/Escrow.sol\":1205:1206  0 */\n      0x00\n        /* \"contracts/contracts/Escrow.sol\":1185:1207  _factory != address(0) */\n      0xffffffffffffffffffffffffffffffffffffffff\n      and\n        /* \"contracts/contracts/Escrow.sol\":1185:1193  _factory */\n      dup2\n        /* \"contracts/contracts/Escrow.sol\":1185:1207  _factory != address(0) */\n      0xffffffffffffffffffffffffffffffffffffffff\n      and\n      sub\n        /* \"contracts/contracts/Escrow.sol\":1177:1227  require(_factory != address(0), \"Invalid address\") */\n      tag_114\n      jumpi\n      mload(0x40)\n      0x08c379a000000000000000000000000000000000000000000000000000000000\n      dup2\n      mstore\n      0x04\n      add\n      tag_115\n      swap1\n      tag_116\n      jump\t// in\n    tag_115:\n      mload(0x40)\n      dup1\n      swap2\n      sub\n      swap1\n      revert\n    tag_114:\n        /* \"contracts/contracts/Escrow.sol\":1248:1256  _factory */\n      dup1\n        /* \"contracts/contracts/Escrow.sol\":1238:1245  factory */\n      0x01\n      0x00\n        /* \"contracts/contracts/Escrow.sol\":1238:1256  factory = _factory */\n      0x0100\n      exp\n      dup2\n      sload\n      dup2\n      0xffffffffffffffffffffffffffffffffffffffff\n      mul\n      not\n      and\n      swap1\n      dup4\n      0xffffffffffffffffffffffffffffffffffffffff\n      and\n      mul\n      or\n      swap1\n      sstore\n      pop\n        /* \"contracts/contracts/Escrow.sol\":1280:1284  true */\n      0x01\n        /* \"contracts/contracts/Escrow.sol\":1267:1277  factorySet */\n      dup1\n      0x14\n        /* \"contracts/contracts/Escrow.sol\":1267:1284  factorySet = true */\n      0x0100\n      exp\n      dup2\n      sload\n      dup2\n      0xff\n      mul\n      not\n      and\n      swap1\n      dup4\n      iszero\n      iszero\n      mul\n      or\n      swap1\n      sstore\n      pop\n        /* \"contracts/contracts/Escrow.sol\":1065:1292  function setFactory(address _factory) external {... */\n      pop\n      jump\t// out\n        /* \"contracts/contracts/Escrow.sol\":2499:2769  function addToPool(uint256 _taskId, uint256 amount) external onlyFactory {... */\n    tag_46:\n        /* \"contracts/contracts/Escrow.sol\":871:878  factory */\n      0x01\n      0x00\n      swap1\n      sload\n      swap1\n      0x0100\n      exp\n      swap1\n      div\n      0xffffffffffffffffffffffffffffffffffffffff\n      and\n        /* \"contracts/contracts/Escrow.sol\":857:878  msg.sender == factory */\n      0xffffffffffffffffffffffffffffffffffffffff\n      and\n        /* \"contracts/contracts/Escrow.sol\":857:867  msg.sender */\n      caller\n        /* \"contracts/contracts/Escrow.sol\":857:878  msg.sender == factory */\n      0xffffffffffffffffffffffffffffffffffffffff\n      and\n      eq\n        /* \"contracts/contracts/Escrow.sol\":849:907  require(msg.sender == factory, \"Only factory can operate\") */\n      tag_118\n      jumpi\n      mload(0x40)\n      0x08c379a000000000000000000000000000000000000000000000000000000000\n      dup2\n      mstore\n      0x04\n      add\n      tag_119\n      swap1\n      tag_69\n      jump\t// in\n    tag_119:\n      mload(0x40)\n      dup1\n      swap2\n      sub\n      swap1\n      revert\n    tag_118:\n        /* \"contracts/contracts/Escrow.sol\":2613:2619  amount */\n      dup1\n        /* \"contracts/contracts/Escrow.sol\":2591:2600  taskFunds */\n      0x00\n        /* \"contracts/contracts/Escrow.sol\":2591:2609  taskFunds[_taskId] */\n      0x00\n        /* \"contracts/contracts/Escrow.sol\":2601:2608  _taskId */\n      dup5\n        /* \"contracts/contracts/Escrow.sol\":2591:2609  taskFunds[_taskId] */\n      dup2\n      mstore\n      0x20\n      add\n      swap1\n      dup2\n      mstore\n      0x20\n      add\n      0x00\n      keccak256\n      sload\n        /* \"contracts/contracts/Escrow.sol\":2591:2619  taskFunds[_taskId] >= amount */\n      lt\n      iszero\n        /* \"contracts/contracts/Escrow.sol\":2583:2647  require(taskFunds[_taskId] >= amount, \"Insufficient task funds\") */\n      tag_121\n      jumpi\n      mload(0x40)\n      0x08c379a000000000000000000000000000000000000000000000000000000000\n      dup2\n      mstore\n      0x04\n      add\n      tag_122\n      swap1\n      tag_100\n      jump\t// in\n    tag_122:\n      mload(0x40)\n      dup1\n      swap2\n      sub\n      swap1\n      revert\n    tag_121:\n        /* \"contracts/contracts/Escrow.sol\":2680:2686  amount */\n      dup1\n        /* \"contracts/contracts/Escrow.sol\":2658:2667  taskFunds */\n      0x00\n        /* \"contracts/contracts/Escrow.sol\":2658:2676  taskFunds[_taskId] */\n      0x00\n        /* \"contracts/contracts/Escrow.sol\":2668:2675  _taskId */\n      dup5\n        /* \"contracts/contracts/Escrow.sol\":2658:2676  taskFunds[_taskId] */\n      dup2\n      mstore\n      0x20\n      add\n      swap1\n      dup2\n      mstore\n      0x20\n      add\n      0x00\n      keccak256\n      0x00\n        /* \"contracts/contracts/Escrow.sol\":2658:2686  taskFunds[_taskId] -= amount */\n      dup3\n      dup3\n      sload\n      tag_123\n      swap2\n      swap1\n      tag_105\n      jump\t// in\n    tag_123:\n      swap3\n      pop\n      pop\n      dup2\n      swap1\n      sstore\n      pop\n        /* \"contracts/contracts/Escrow.sol\":2713:2719  amount */\n      dup1\n        /* \"contracts/contracts/Escrow.sol\":2697:2709  platformPool */\n      0x02\n      0x00\n        /* \"contracts/contracts/Escrow.sol\":2697:2719  platformPool += amount */\n      dup3\n      dup3\n      sload\n      tag_124\n      swap2\n      swap1\n      tag_88\n      jump\t// in\n    tag_124:\n      swap3\n      pop\n      pop\n      dup2\n      swap1\n      sstore\n      pop\n        /* \"contracts/contracts/Escrow.sol\":2745:2752  _taskId */\n      dup2\n        /* \"contracts/contracts/Escrow.sol\":2735:2761  PoolAdded(_taskId, amount) */\n      0x901eb85ad066ced1d2fb2ae0a5a9e7a4e08a8183e432d4f3586c921023641aa9\n        /* \"contracts/contracts/Escrow.sol\":2754:2760  amount */\n      dup3\n        /* \"contracts/contracts/Escrow.sol\":2735:2761  PoolAdded(_taskId, amount) */\n      mload(0x40)\n      tag_125\n      swap2\n      swap1\n      tag_23\n      jump\t// in\n    tag_125:\n      mload(0x40)\n      dup1\n      swap2\n      sub\n      swap1\n      log2\n        /* \"contracts/contracts/Escrow.sol\":2499:2769  function addToPool(uint256 _taskId, uint256 amount) external onlyFactory {... */\n      pop\n      pop\n      jump\t// out\n        /* \"contracts/contracts/Escrow.sol\":2056:2446  function refundFunds(uint256 _taskId, address _creator) external onlyFactory {... */\n    tag_50:\n        /* \"contracts/contracts/Escrow.sol\":871:878  factory */\n      0x01\n      0x00\n      swap1\n      sload\n      swap1\n      0x0100\n      exp\n      swap1\n      div\n      0xffffffffffffffffffffffffffffffffffffffff\n      and\n        /* \"contracts/contracts/Escrow.sol\":857:878  msg.sender == factory */\n      0xffffffffffffffffffffffffffffffffffffffff\n      and\n        /* \"contracts/contracts/Escrow.sol\":857:867  msg.sender */\n      caller\n        /* \"contracts/contracts/Escrow.sol\":857:878  msg.sender == factory */\n      0xffffffffffffffffffffffffffffffffffffffff\n      and\n      eq\n        /* \"contracts/contracts/Escrow.sol\":849:907  require(msg.sender == factory, \"Only factory can operate\") */\n      tag_127\n      jumpi\n      mload(0x40)\n      0x08c379a000000000000000000000000000000000000000000000000000000000\n      dup2\n      mstore\n      0x04\n      add\n      tag_128\n      swap1\n      tag_69\n      jump\t// in\n    tag_128:\n      mload(0x40)\n      dup1\n      swap2\n      sub\n      swap1\n      revert\n    tag_127:\n        /* \"contracts/contracts/Escrow.sol\":2144:2158  uint256 amount */\n      0x00\n        /* \"contracts/contracts/Escrow.sol\":2161:2170  taskFunds */\n      0x00\n        /* \"contracts/contracts/Escrow.sol\":2161:2179  taskFunds[_taskId] */\n      0x00\n        /* \"contracts/contracts/Escrow.sol\":2171:2178  _taskId */\n      dup5\n        /* \"contracts/contracts/Escrow.sol\":2161:2179  taskFunds[_taskId] */\n      dup2\n      mstore\n      0x20\n      add\n      swap1\n      dup2\n      mstore\n      0x20\n      add\n      0x00\n      keccak256\n      sload\n        /* \"contracts/contracts/Escrow.sol\":2144:2179  uint256 amount = taskFunds[_taskId] */\n      swap1\n      pop\n        /* \"contracts/contracts/Escrow.sol\":2207:2208  0 */\n      0x00\n        /* \"contracts/contracts/Escrow.sol\":2198:2204  amount */\n      dup2\n        /* \"contracts/contracts/Escrow.sol\":2198:2208  amount > 0 */\n      gt\n        /* \"contracts/contracts/Escrow.sol\":2190:2231  require(amount > 0, \"No funds to refund\") */\n      tag_130\n      jumpi\n      mload(0x40)\n      0x08c379a000000000000000000000000000000000000000000000000000000000\n      dup2\n      mstore\n      0x04\n      add\n      tag_131\n      swap1\n      tag_132\n      jump\t// in\n    tag_131:\n      mload(0x40)\n      dup1\n      swap2\n      sub\n      swap1\n      revert\n    tag_130:\n        /* \"contracts/contracts/Escrow.sol\":2270:2271  0 */\n      0x00\n        /* \"contracts/contracts/Escrow.sol\":2250:2272  _creator != address(0) */\n      0xffffffffffffffffffffffffffffffffffffffff\n      and\n        /* \"contracts/contracts/Escrow.sol\":2250:2258  _creator */\n      dup3\n        /* \"contracts/contracts/Escrow.sol\":2250:2272  _creator != address(0) */\n      0xffffffffffffffffffffffffffffffffffffffff\n      and\n      sub\n        /* \"contracts/contracts/Escrow.sol\":2242:2300  require(_creator != address(0), \"Invalid creator address\") */\n      tag_133\n      jumpi\n      mload(0x40)\n      0x08c379a000000000000000000000000000000000000000000000000000000000\n      dup2\n      mstore\n      0x04\n      add\n      tag_134\n      swap1\n      tag_135\n      jump\t// in\n    tag_134:\n      mload(0x40)\n      dup1\n      swap2\n      sub\n      swap1\n      revert\n    tag_133:\n        /* \"contracts/contracts/Escrow.sol\":2334:2335  0 */\n      0x00\n        /* \"contracts/contracts/Escrow.sol\":2313:2322  taskFunds */\n      0x00\n        /* \"contracts/contracts/Escrow.sol\":2313:2331  taskFunds[_taskId] */\n      0x00\n        /* \"contracts/contracts/Escrow.sol\":2323:2330  _taskId */\n      dup6\n        /* \"contracts/contracts/Escrow.sol\":2313:2331  taskFunds[_taskId] */\n      dup2\n      mstore\n      0x20\n      add\n      swap1\n      dup2\n      mstore\n      0x20\n      add\n      0x00\n      keccak256\n        /* \"contracts/contracts/Escrow.sol\":2313:2335  taskFunds[_taskId] = 0 */\n      dup2\n      swap1\n      sstore\n      pop\n        /* \"contracts/contracts/Escrow.sol\":2354:2362  _creator */\n      dup2\n        /* \"contracts/contracts/Escrow.sol\":2346:2372  payable(_creator).transfer */\n      0xffffffffffffffffffffffffffffffffffffffff\n      and\n        /* \"contracts/contracts/Escrow.sol\":2346:2380  payable(_creator).transfer(amount) */\n      0x08fc\n        /* \"contracts/contracts/Escrow.sol\":2373:2379  amount */\n      dup3\n        /* \"contracts/contracts/Escrow.sol\":2346:2380  payable(_creator).transfer(amount) */\n      swap1\n      dup2\n      iszero\n      mul\n      swap1\n      mload(0x40)\n      0x00\n      mload(0x40)\n      dup1\n      dup4\n      sub\n      dup2\n      dup6\n      dup9\n      dup9\n      call\n      swap4\n      pop\n      pop\n      pop\n      pop\n      iszero\n      dup1\n      iszero\n      tag_137\n      jumpi\n      returndatacopy(0x00, 0x00, returndatasize)\n      revert(0x00, returndatasize)\n    tag_137:\n      pop\n        /* \"contracts/contracts/Escrow.sol\":2412:2419  _taskId */\n      dup3\n        /* \"contracts/contracts/Escrow.sol\":2398:2438  FundsRefunded(_taskId, _creator, amount) */\n      0x80b577b4fc190ab86d963549e29f496afd079c5d81a2480d61217d4b5060a28c\n        /* \"contracts/contracts/Escrow.sol\":2421:2429  _creator */\n      dup4\n        /* \"contracts/contracts/Escrow.sol\":2431:2437  amount */\n      dup4\n        /* \"contracts/contracts/Escrow.sol\":2398:2438  FundsRefunded(_taskId, _creator, amount) */\n      mload(0x40)\n      tag_138\n      swap3\n      swap2\n      swap1\n      tag_109\n      jump\t// in\n    tag_138:\n      mload(0x40)\n      dup1\n      swap2\n      sub\n      swap1\n      log2\n        /* \"contracts/contracts/Escrow.sol\":2133:2446  {... */\n      pop\n        /* \"contracts/contracts/Escrow.sol\":2056:2446  function refundFunds(uint256 _taskId, address _creator) external onlyFactory {... */\n      pop\n      pop\n      jump\t// out\n        /* \"contracts/contracts/Escrow.sol\":211:255  mapping(uint256 => uint256) public taskFunds */\n    tag_54:\n      mstore(0x20, 0x00)\n      dup1\n      0x00\n      mstore\n      keccak256(0x00, 0x40)\n      0x00\n      swap2\n      pop\n      swap1\n      pop\n      sload\n      dup2\n      jump\t// out\n        /* \"contracts/contracts/Escrow.sol\":262:284  address public factory */\n    tag_58:\n      0x01\n      0x00\n      swap1\n      sload\n      swap1\n      0x0100\n      exp\n      swap1\n      div\n      0xffffffffffffffffffffffffffffffffffffffff\n      and\n      dup2\n      jump\t// out\n        /* \"contracts/contracts/Escrow.sol\":291:321  bool public factorySet = false */\n    tag_63:\n      0x01\n      0x14\n      swap1\n      sload\n      swap1\n      0x0100\n      exp\n      swap1\n      div\n      0xff\n      and\n      dup2\n      jump\t// out\n        /* \"#utility.yul\":88:205   */\n    tag_140:\n        /* \"#utility.yul\":197:198   */\n      0x00\n        /* \"#utility.yul\":194:195   */\n      0x00\n        /* \"#utility.yul\":187:199   */\n      revert\n        /* \"#utility.yul\":334:411   */\n    tag_142:\n        /* \"#utility.yul\":371:378   */\n      0x00\n        /* \"#utility.yul\":400:405   */\n      dup2\n        /* \"#utility.yul\":389:405   */\n      swap1\n      pop\n        /* \"#utility.yul\":334:411   */\n      swap2\n      swap1\n      pop\n      jump\t// out\n        /* \"#utility.yul\":417:539   */\n    tag_143:\n        /* \"#utility.yul\":490:514   */\n      tag_181\n        /* \"#utility.yul\":508:513   */\n      dup2\n        /* \"#utility.yul\":490:514   */\n      tag_142\n      jump\t// in\n    tag_181:\n        /* \"#utility.yul\":483:488   */\n      dup2\n        /* \"#utility.yul\":480:515   */\n      eq\n        /* \"#utility.yul\":470:533   */\n      tag_182\n      jumpi\n        /* \"#utility.yul\":529:530   */\n      0x00\n        /* \"#utility.yul\":526:527   */\n      0x00\n        /* \"#utility.yul\":519:531   */\n      revert\n        /* \"#utility.yul\":470:533   */\n    tag_182:\n        /* \"#utility.yul\":417:539   */\n      pop\n      jump\t// out\n        /* \"#utility.yul\":545:684   */\n    tag_144:\n        /* \"#utility.yul\":591:596   */\n      0x00\n        /* \"#utility.yul\":629:635   */\n      dup2\n        /* \"#utility.yul\":616:636   */\n      calldataload\n        /* \"#utility.yul\":607:636   */\n      swap1\n      pop\n        /* \"#utility.yul\":645:678   */\n      tag_184\n        /* \"#utility.yul\":672:677   */\n      dup2\n        /* \"#utility.yul\":645:678   */\n      tag_143\n      jump\t// in\n    tag_184:\n        /* \"#utility.yul\":545:684   */\n      swap3\n      swap2\n      pop\n      pop\n      jump\t// out\n        /* \"#utility.yul\":690:816   */\n    tag_145:\n        /* \"#utility.yul\":727:734   */\n      0x00\n        /* \"#utility.yul\":767:809   */\n      0xffffffffffffffffffffffffffffffffffffffff\n        /* \"#utility.yul\":760:765   */\n      dup3\n        /* \"#utility.yul\":756:810   */\n      and\n        /* \"#utility.yul\":745:810   */\n      swap1\n      pop\n        /* \"#utility.yul\":690:816   */\n      swap2\n      swap1\n      pop\n      jump\t// out\n        /* \"#utility.yul\":822:918   */\n    tag_146:\n        /* \"#utility.yul\":859:866   */\n      0x00\n        /* \"#utility.yul\":888:912   */\n      tag_187\n        /* \"#utility.yul\":906:911   */\n      dup3\n        /* \"#utility.yul\":888:912   */\n      tag_145\n      jump\t// in\n    tag_187:\n        /* \"#utility.yul\":877:912   */\n      swap1\n      pop\n        /* \"#utility.yul\":822:918   */\n      swap2\n      swap1\n      pop\n      jump\t// out\n        /* \"#utility.yul\":924:1046   */\n    tag_147:\n        /* \"#utility.yul\":997:1021   */\n      tag_189\n        /* \"#utility.yul\":1015:1020   */\n      dup2\n        /* \"#utility.yul\":997:1021   */\n      tag_146\n      jump\t// in\n    tag_189:\n        /* \"#utility.yul\":990:995   */\n      dup2\n        /* \"#utility.yul\":987:1022   */\n      eq\n        /* \"#utility.yul\":977:1040   */\n      tag_190\n      jumpi\n        /* \"#utility.yul\":1036:1037   */\n      0x00\n        /* \"#utility.yul\":1033:1034   */\n      0x00\n        /* \"#utility.yul\":1026:1038   */\n      revert\n        /* \"#utility.yul\":977:1040   */\n    tag_190:\n        /* \"#utility.yul\":924:1046   */\n      pop\n      jump\t// out\n        /* \"#utility.yul\":1052:1191   */\n    tag_148:\n        /* \"#utility.yul\":1098:1103   */\n      0x00\n        /* \"#utility.yul\":1136:1142   */\n      dup2\n        /* \"#utility.yul\":1123:1143   */\n      calldataload\n        /* \"#utility.yul\":1114:1143   */\n      swap1\n      pop\n        /* \"#utility.yul\":1152:1185   */\n      tag_192\n        /* \"#utility.yul\":1179:1184   */\n      dup2\n        /* \"#utility.yul\":1152:1185   */\n      tag_147\n      jump\t// in\n    tag_192:\n        /* \"#utility.yul\":1052:1191   */\n      swap3\n      swap2\n      pop\n      pop\n      jump\t// out\n        /* \"#utility.yul\":1197:1671   */\n    tag_17:\n        /* \"#utility.yul\":1265:1271   */\n      0x00\n        /* \"#utility.yul\":1273:1279   */\n      0x00\n        /* \"#utility.yul\":1322:1324   */\n      0x40\n        /* \"#utility.yul\":1310:1319   */\n      dup4\n        /* \"#utility.yul\":1301:1308   */\n      dup6\n        /* \"#utility.yul\":1297:1320   */\n      sub\n        /* \"#utility.yul\":1293:1325   */\n      slt\n        /* \"#utility.yul\":1290:1409   */\n      iszero\n      tag_194\n      jumpi\n        /* \"#utility.yul\":1328:1407   */\n      tag_195\n      tag_140\n      jump\t// in\n    tag_195:\n        /* \"#utility.yul\":1290:1409   */\n    tag_194:\n        /* \"#utility.yul\":1448:1449   */\n      0x00\n        /* \"#utility.yul\":1473:1526   */\n      tag_196\n        /* \"#utility.yul\":1518:1525   */\n      dup6\n        /* \"#utility.yul\":1509:1515   */\n      dup3\n        /* \"#utility.yul\":1498:1507   */\n      dup7\n        /* \"#utility.yul\":1494:1516   */\n      add\n        /* \"#utility.yul\":1473:1526   */\n      tag_144\n      jump\t// in\n    tag_196:\n        /* \"#utility.yul\":1463:1526   */\n      swap3\n      pop\n        /* \"#utility.yul\":1419:1536   */\n      pop\n        /* \"#utility.yul\":1575:1577   */\n      0x20\n        /* \"#utility.yul\":1601:1654   */\n      tag_197\n        /* \"#utility.yul\":1646:1653   */\n      dup6\n        /* \"#utility.yul\":1637:1643   */\n      dup3\n        /* \"#utility.yul\":1626:1635   */\n      dup7\n        /* \"#utility.yul\":1622:1644   */\n      add\n        /* \"#utility.yul\":1601:1654   */\n      tag_148\n      jump\t// in\n    tag_197:\n        /* \"#utility.yul\":1591:1654   */\n      swap2\n      pop\n        /* \"#utility.yul\":1546:1664   */\n      pop\n        /* \"#utility.yul\":1197:1671   */\n      swap3\n      pop\n      swap3\n      swap1\n      pop\n      jump\t// out\n        /* \"#utility.yul\":1677:1795   */\n    tag_149:\n        /* \"#utility.yul\":1764:1788   */\n      tag_199\n        /* \"#utility.yul\":1782:1787   */\n      dup2\n        /* \"#utility.yul\":1764:1788   */\n      tag_142\n      jump\t// in\n    tag_199:\n        /* \"#utility.yul\":1759:1762   */\n      dup3\n        /* \"#utility.yul\":1752:1789   */\n      mstore\n        /* \"#utility.yul\":1677:1795   */\n      pop\n      pop\n      jump\t// out\n        /* \"#utility.yul\":1801:2023   */\n    tag_23:\n        /* \"#utility.yul\":1894:1898   */\n      0x00\n        /* \"#utility.yul\":1932:1934   */\n      0x20\n        /* \"#utility.yul\":1921:1930   */\n      dup3\n        /* \"#utility.yul\":1917:1935   */\n      add\n        /* \"#utility.yul\":1909:1935   */\n      swap1\n      pop\n        /* \"#utility.yul\":1945:2016   */\n      tag_201\n        /* \"#utility.yul\":2013:2014   */\n      0x00\n        /* \"#utility.yul\":2002:2011   */\n      dup4\n        /* \"#utility.yul\":1998:2015   */\n      add\n        /* \"#utility.yul\":1989:1995   */\n      dup5\n        /* \"#utility.yul\":1945:2016   */\n      tag_149\n      jump\t// in\n    tag_201:\n        /* \"#utility.yul\":1801:2023   */\n      swap3\n      swap2\n      pop\n      pop\n      jump\t// out\n        /* \"#utility.yul\":2029:2358   */\n    tag_26:\n        /* \"#utility.yul\":2088:2094   */\n      0x00\n        /* \"#utility.yul\":2137:2139   */\n      0x20\n        /* \"#utility.yul\":2125:2134   */\n      dup3\n        /* \"#utility.yul\":2116:2123   */\n      dup5\n        /* \"#utility.yul\":2112:2135   */\n      sub\n        /* \"#utility.yul\":2108:2140   */\n      slt\n        /* \"#utility.yul\":2105:2224   */\n      iszero\n      tag_203\n      jumpi\n        /* \"#utility.yul\":2143:2222   */\n      tag_204\n      tag_140\n      jump\t// in\n    tag_204:\n        /* \"#utility.yul\":2105:2224   */\n    tag_203:\n        /* \"#utility.yul\":2263:2264   */\n      0x00\n        /* \"#utility.yul\":2288:2341   */\n      tag_205\n        /* \"#utility.yul\":2333:2340   */\n      dup5\n        /* \"#utility.yul\":2324:2330   */\n      dup3\n        /* \"#utility.yul\":2313:2322   */\n      dup6\n        /* \"#utility.yul\":2309:2331   */\n      add\n        /* \"#utility.yul\":2288:2341   */\n      tag_144\n      jump\t// in\n    tag_205:\n        /* \"#utility.yul\":2278:2341   */\n      swap2\n      pop\n        /* \"#utility.yul\":2234:2351   */\n      pop\n        /* \"#utility.yul\":2029:2358   */\n      swap3\n      swap2\n      pop\n      pop\n      jump\t// out\n        /* \"#utility.yul\":2364:2983   */\n    tag_35:\n        /* \"#utility.yul\":2441:2447   */\n      0x00\n        /* \"#utility.yul\":2449:2455   */\n      0x00\n        /* \"#utility.yul\":2457:2463   */\n      0x00\n        /* \"#utility.yul\":2506:2508   */\n      0x60\n        /* \"#utility.yul\":2494:2503   */\n      dup5\n        /* \"#utility.yul\":2485:2492   */\n      dup7\n        /* \"#utility.yul\":2481:2504   */\n      sub\n        /* \"#utility.yul\":2477:2509   */\n      slt\n        /* \"#utility.yul\":2474:2593   */\n      iszero\n      tag_207\n      jumpi\n        /* \"#utility.yul\":2512:2591   */\n      tag_208\n      tag_140\n      jump\t// in\n    tag_208:\n        /* \"#utility.yul\":2474:2593   */\n    tag_207:\n        /* \"#utility.yul\":2632:2633   */\n      0x00\n        /* \"#utility.yul\":2657:2710   */\n      tag_209\n        /* \"#utility.yul\":2702:2709   */\n      dup7\n        /* \"#utility.yul\":2693:2699   */\n      dup3\n        /* \"#utility.yul\":2682:2691   */\n      dup8\n        /* \"#utility.yul\":2678:2700   */\n      add\n        /* \"#utility.yul\":2657:2710   */\n      tag_144\n      jump\t// in\n    tag_209:\n        /* \"#utility.yul\":2647:2710   */\n      swap4\n      pop\n        /* \"#utility.yul\":2603:2720   */\n      pop\n        /* \"#utility.yul\":2759:2761   */\n      0x20\n        /* \"#utility.yul\":2785:2838   */\n      tag_210\n        /* \"#utility.yul\":2830:2837   */\n      dup7\n        /* \"#utility.yul\":2821:2827   */\n      dup3\n        /* \"#utility.yul\":2810:2819   */\n      dup8\n        /* \"#utility.yul\":2806:2828   */\n      add\n        /* \"#utility.yul\":2785:2838   */\n      tag_148\n      jump\t// in\n    tag_210:\n        /* \"#utility.yul\":2775:2838   */\n      swap3\n      pop\n        /* \"#utility.yul\":2730:2848   */\n      pop\n        /* \"#utility.yul\":2887:2889   */\n      0x40\n        /* \"#utility.yul\":2913:2966   */\n      tag_211\n        /* \"#utility.yul\":2958:2965   */\n      dup7\n        /* \"#utility.yul\":2949:2955   */\n      dup3\n        /* \"#utility.yul\":2938:2947   */\n      dup8\n        /* \"#utility.yul\":2934:2956   */\n      add\n        /* \"#utility.yul\":2913:2966   */\n      tag_144\n      jump\t// in\n    tag_211:\n        /* \"#utility.yul\":2903:2966   */\n      swap2\n      pop\n        /* \"#utility.yul\":2858:2976   */\n      pop\n        /* \"#utility.yul\":2364:2983   */\n      swap3\n      pop\n      swap3\n      pop\n      swap3\n      jump\t// out\n        /* \"#utility.yul\":2989:3318   */\n    tag_40:\n        /* \"#utility.yul\":3048:3054   */\n      0x00\n        /* \"#utility.yul\":3097:3099   */\n      0x20\n        /* \"#utility.yul\":3085:3094   */\n      dup3\n        /* \"#utility.yul\":3076:3083   */\n      dup5\n        /* \"#utility.yul\":3072:3095   */\n      sub\n        /* \"#utility.yul\":3068:3100   */\n      slt\n        /* \"#utility.yul\":3065:3184   */\n      iszero\n      tag_213\n      jumpi\n        /* \"#utility.yul\":3103:3182   */\n      tag_214\n      tag_140\n      jump\t// in\n    tag_214:\n        /* \"#utility.yul\":3065:3184   */\n    tag_213:\n        /* \"#utility.yul\":3223:3224   */\n      0x00\n        /* \"#utility.yul\":3248:3301   */\n      tag_215\n        /* \"#utility.yul\":3293:3300   */\n      dup5\n        /* \"#utility.yul\":3284:3290   */\n      dup3\n        /* \"#utility.yul\":3273:3282   */\n      dup6\n        /* \"#utility.yul\":3269:3291   */\n      add\n        /* \"#utility.yul\":3248:3301   */\n      tag_148\n      jump\t// in\n    tag_215:\n        /* \"#utility.yul\":3238:3301   */\n      swap2\n      pop\n        /* \"#utility.yul\":3194:3311   */\n      pop\n        /* \"#utility.yul\":2989:3318   */\n      swap3\n      swap2\n      pop\n      pop\n      jump\t// out\n        /* \"#utility.yul\":3324:3798   */\n    tag_45:\n        /* \"#utility.yul\":3392:3398   */\n      0x00\n        /* \"#utility.yul\":3400:3406   */\n      0x00\n        /* \"#utility.yul\":3449:3451   */\n      0x40\n        /* \"#utility.yul\":3437:3446   */\n      dup4\n        /* \"#utility.yul\":3428:3435   */\n      dup6\n        /* \"#utility.yul\":3424:3447   */\n      sub\n        /* \"#utility.yul\":3420:3452   */\n      slt\n        /* \"#utility.yul\":3417:3536   */\n      iszero\n      tag_217\n      jumpi\n        /* \"#utility.yul\":3455:3534   */\n      tag_218\n      tag_140\n      jump\t// in\n    tag_218:\n        /* \"#utility.yul\":3417:3536   */\n    tag_217:\n        /* \"#utility.yul\":3575:3576   */\n      0x00\n        /* \"#utility.yul\":3600:3653   */\n      tag_219\n        /* \"#utility.yul\":3645:3652   */\n      dup6\n        /* \"#utility.yul\":3636:3642   */\n      dup3\n        /* \"#utility.yul\":3625:3634   */\n      dup7\n        /* \"#utility.yul\":3621:3643   */\n      add\n        /* \"#utility.yul\":3600:3653   */\n      tag_144\n      jump\t// in\n    tag_219:\n        /* \"#utility.yul\":3590:3653   */\n      swap3\n      pop\n        /* \"#utility.yul\":3546:3663   */\n      pop\n        /* \"#utility.yul\":3702:3704   */\n      0x20\n        /* \"#utility.yul\":3728:3781   */\n      tag_220\n        /* \"#utility.yul\":3773:3780   */\n      dup6\n        /* \"#utility.yul\":3764:3770   */\n      dup3\n        /* \"#utility.yul\":3753:3762   */\n      dup7\n        /* \"#utility.yul\":3749:3771   */\n      add\n        /* \"#utility.yul\":3728:3781   */\n      tag_144\n      jump\t// in\n    tag_220:\n        /* \"#utility.yul\":3718:3781   */\n      swap2\n      pop\n        /* \"#utility.yul\":3673:3791   */\n      pop\n        /* \"#utility.yul\":3324:3798   */\n      swap3\n      pop\n      swap3\n      swap1\n      pop\n      jump\t// out\n        /* \"#utility.yul\":3804:3922   */\n    tag_150:\n        /* \"#utility.yul\":3891:3915   */\n      tag_222\n        /* \"#utility.yul\":3909:3914   */\n      dup2\n        /* \"#utility.yul\":3891:3915   */\n      tag_146\n      jump\t// in\n    tag_222:\n        /* \"#utility.yul\":3886:3889   */\n      dup3\n        /* \"#utility.yul\":3879:3916   */\n      mstore\n        /* \"#utility.yul\":3804:3922   */\n      pop\n      pop\n      jump\t// out\n        /* \"#utility.yul\":3928:4150   */\n    tag_60:\n        /* \"#utility.yul\":4021:4025   */\n      0x00\n        /* \"#utility.yul\":4059:4061   */\n      0x20\n        /* \"#utility.yul\":4048:4057   */\n      dup3\n        /* \"#utility.yul\":4044:4062   */\n      add\n        /* \"#utility.yul\":4036:4062   */\n      swap1\n      pop\n        /* \"#utility.yul\":4072:4143   */\n      tag_224\n        /* \"#utility.yul\":4140:4141   */\n      0x00\n        /* \"#utility.yul\":4129:4138   */\n      dup4\n        /* \"#utility.yul\":4125:4142   */\n      add\n        /* \"#utility.yul\":4116:4122   */\n      dup5\n        /* \"#utility.yul\":4072:4143   */\n      tag_150\n      jump\t// in\n    tag_224:\n        /* \"#utility.yul\":3928:4150   */\n      swap3\n      swap2\n      pop\n      pop\n      jump\t// out\n        /* \"#utility.yul\":4156:4246   */\n    tag_151:\n        /* \"#utility.yul\":4190:4197   */\n      0x00\n        /* \"#utility.yul\":4233:4238   */\n      dup2\n        /* \"#utility.yul\":4226:4239   */\n      iszero\n        /* \"#utility.yul\":4219:4240   */\n      iszero\n        /* \"#utility.yul\":4208:4240   */\n      swap1\n      pop\n        /* \"#utility.yul\":4156:4246   */\n      swap2\n      swap1\n      pop\n      jump\t// out\n        /* \"#utility.yul\":4252:4361   */\n    tag_152:\n        /* \"#utility.yul\":4333:4354   */\n      tag_227\n        /* \"#utility.yul\":4348:4353   */\n      dup2\n        /* \"#utility.yul\":4333:4354   */\n      tag_151\n      jump\t// in\n    tag_227:\n        /* \"#utility.yul\":4328:4331   */\n      dup3\n        /* \"#utility.yul\":4321:4355   */\n      mstore\n        /* \"#utility.yul\":4252:4361   */\n      pop\n      pop\n      jump\t// out\n        /* \"#utility.yul\":4367:4577   */\n    tag_65:\n        /* \"#utility.yul\":4454:4458   */\n      0x00\n        /* \"#utility.yul\":4492:4494   */\n      0x20\n        /* \"#utility.yul\":4481:4490   */\n      dup3\n        /* \"#utility.yul\":4477:4495   */\n      add\n        /* \"#utility.yul\":4469:4495   */\n      swap1\n      pop\n        /* \"#utility.yul\":4505:4570   */\n      tag_229\n        /* \"#utility.yul\":4567:4568   */\n      0x00\n        /* \"#utility.yul\":4556:4565   */\n      dup4\n        /* \"#utility.yul\":4552:4569   */\n      add\n        /* \"#utility.yul\":4543:4549   */\n      dup5\n        /* \"#utility.yul\":4505:4570   */\n      tag_152\n      jump\t// in\n    tag_229:\n        /* \"#utility.yul\":4367:4577   */\n      swap3\n      swap2\n      pop\n      pop\n      jump\t// out\n        /* \"#utility.yul\":4583:4752   */\n    tag_153:\n        /* \"#utility.yul\":4667:4678   */\n      0x00\n        /* \"#utility.yul\":4701:4707   */\n      dup3\n        /* \"#utility.yul\":4696:4699   */\n      dup3\n        /* \"#utility.yul\":4689:4708   */\n      mstore\n        /* \"#utility.yul\":4741:4745   */\n      0x20\n        /* \"#utility.yul\":4736:4739   */\n      dup3\n        /* \"#utility.yul\":4732:4746   */\n      add\n        /* \"#utility.yul\":4717:4746   */\n      swap1\n      pop\n        /* \"#utility.yul\":4583:4752   */\n      swap3\n      swap2\n      pop\n      pop\n      jump\t// out\n        /* \"#utility.yul\":4758:4932   */\n    tag_154:\n        /* \"#utility.yul\":4898:4924   */\n      0x4f6e6c7920666163746f72792063616e206f7065726174650000000000000000\n        /* \"#utility.yul\":4894:4895   */\n      0x00\n        /* \"#utility.yul\":4886:4892   */\n      dup3\n        /* \"#utility.yul\":4882:4896   */\n      add\n        /* \"#utility.yul\":4875:4925   */\n      mstore\n        /* \"#utility.yul\":4758:4932   */\n      pop\n      jump\t// out\n        /* \"#utility.yul\":4938:5304   */\n    tag_155:\n        /* \"#utility.yul\":5080:5083   */\n      0x00\n        /* \"#utility.yul\":5101:5168   */\n      tag_233\n        /* \"#utility.yul\":5165:5167   */\n      0x18\n        /* \"#utility.yul\":5160:5163   */\n      dup4\n        /* \"#utility.yul\":5101:5168   */\n      tag_153\n      jump\t// in\n    tag_233:\n        /* \"#utility.yul\":5094:5168   */\n      swap2\n      pop\n        /* \"#utility.yul\":5177:5270   */\n      tag_234\n        /* \"#utility.yul\":5266:5269   */\n      dup3\n        /* \"#utility.yul\":5177:5270   */\n      tag_154\n      jump\t// in\n    tag_234:\n        /* \"#utility.yul\":5295:5297   */\n      0x20\n        /* \"#utility.yul\":5290:5293   */\n      dup3\n        /* \"#utility.yul\":5286:5298   */\n      add\n        /* \"#utility.yul\":5279:5298   */\n      swap1\n      pop\n        /* \"#utility.yul\":4938:5304   */\n      swap2\n      swap1\n      pop\n      jump\t// out\n        /* \"#utility.yul\":5310:5729   */\n    tag_69:\n        /* \"#utility.yul\":5476:5480   */\n      0x00\n        /* \"#utility.yul\":5514:5516   */\n      0x20\n        /* \"#utility.yul\":5503:5512   */\n      dup3\n        /* \"#utility.yul\":5499:5517   */\n      add\n        /* \"#utility.yul\":5491:5517   */\n      swap1\n      pop\n        /* \"#utility.yul\":5563:5572   */\n      dup2\n        /* \"#utility.yul\":5557:5561   */\n      dup2\n        /* \"#utility.yul\":5553:5573   */\n      sub\n        /* \"#utility.yul\":5549:5550   */\n      0x00\n        /* \"#utility.yul\":5538:5547   */\n      dup4\n        /* \"#utility.yul\":5534:5551   */\n      add\n        /* \"#utility.yul\":5527:5574   */\n      mstore\n        /* \"#utility.yul\":5591:5722   */\n      tag_236\n        /* \"#utility.yul\":5717:5721   */\n      dup2\n        /* \"#utility.yul\":5591:5722   */\n      tag_155\n      jump\t// in\n    tag_236:\n        /* \"#utility.yul\":5583:5722   */\n      swap1\n      pop\n        /* \"#utility.yul\":5310:5729   */\n      swap2\n      swap1\n      pop\n      jump\t// out\n        /* \"#utility.yul\":5735:5907   */\n    tag_156:\n        /* \"#utility.yul\":5875:5899   */\n      0x496e76616c69642077696e6e6572206164647265737300000000000000000000\n        /* \"#utility.yul\":5871:5872   */\n      0x00\n        /* \"#utility.yul\":5863:5869   */\n      dup3\n        /* \"#utility.yul\":5859:5873   */\n      add\n        /* \"#utility.yul\":5852:5900   */\n      mstore\n        /* \"#utility.yul\":5735:5907   */\n      pop\n      jump\t// out\n        /* \"#utility.yul\":5913:6279   */\n    tag_157:\n        /* \"#utility.yul\":6055:6058   */\n      0x00\n        /* \"#utility.yul\":6076:6143   */\n      tag_239\n        /* \"#utility.yul\":6140:6142   */\n      0x16\n        /* \"#utility.yul\":6135:6138   */\n      dup4\n        /* \"#utility.yul\":6076:6143   */\n      tag_153\n      jump\t// in\n    tag_239:\n        /* \"#utility.yul\":6069:6143   */\n      swap2\n      pop\n        /* \"#utility.yul\":6152:6245   */\n      tag_240\n        /* \"#utility.yul\":6241:6244   */\n      dup3\n        /* \"#utility.yul\":6152:6245   */\n      tag_156\n      jump\t// in\n    tag_240:\n        /* \"#utility.yul\":6270:6272   */\n      0x20\n        /* \"#utility.yul\":6265:6268   */\n      dup3\n        /* \"#utility.yul\":6261:6273   */\n      add\n        /* \"#utility.yul\":6254:6273   */\n      swap1\n      pop\n        /* \"#utility.yul\":5913:6279   */\n      swap2\n      swap1\n      pop\n      jump\t// out\n        /* \"#utility.yul\":6285:6704   */\n    tag_73:\n        /* \"#utility.yul\":6451:6455   */\n      0x00\n        /* \"#utility.yul\":6489:6491   */\n      0x20\n        /* \"#utility.yul\":6478:6487   */\n      dup3\n        /* \"#utility.yul\":6474:6492   */\n      add\n        /* \"#utility.yul\":6466:6492   */\n      swap1\n      pop\n        /* \"#utility.yul\":6538:6547   */\n      dup2\n        /* \"#utility.yul\":6532:6536   */\n      dup2\n        /* \"#utility.yul\":6528:6548   */\n      sub\n        /* \"#utility.yul\":6524:6525   */\n      0x00\n        /* \"#utility.yul\":6513:6522   */\n      dup4\n        /* \"#utility.yul\":6509:6526   */\n      add\n        /* \"#utility.yul\":6502:6549   */\n      mstore\n        /* \"#utility.yul\":6566:6697   */\n      tag_242\n        /* \"#utility.yul\":6692:6696   */\n      dup2\n        /* \"#utility.yul\":6566:6697   */\n      tag_157\n      jump\t// in\n    tag_242:\n        /* \"#utility.yul\":6558:6697   */\n      swap1\n      pop\n        /* \"#utility.yul\":6285:6704   */\n      swap2\n      swap1\n      pop\n      jump\t// out\n        /* \"#utility.yul\":6710:6878   */\n    tag_158:\n        /* \"#utility.yul\":6850:6870   */\n      0x4e6f2066756e647320617661696c61626c650000000000000000000000000000\n        /* \"#utility.yul\":6846:6847   */\n      0x00\n        /* \"#utility.yul\":6838:6844   */\n      dup3\n        /* \"#utility.yul\":6834:6848   */\n      add\n        /* \"#utility.yul\":6827:6871   */\n      mstore\n        /* \"#utility.yul\":6710:6878   */\n      pop\n      jump\t// out\n        /* \"#utility.yul\":6884:7250   */\n    tag_159:\n        /* \"#utility.yul\":7026:7029   */\n      0x00\n        /* \"#utility.yul\":7047:7114   */\n      tag_245\n        /* \"#utility.yul\":7111:7113   */\n      0x12\n        /* \"#utility.yul\":7106:7109   */\n      dup4\n        /* \"#utility.yul\":7047:7114   */\n      tag_153\n      jump\t// in\n    tag_245:\n        /* \"#utility.yul\":7040:7114   */\n      swap2\n      pop\n        /* \"#utility.yul\":7123:7216   */\n      tag_246\n        /* \"#utility.yul\":7212:7215   */\n      dup3\n        /* \"#utility.yul\":7123:7216   */\n      tag_158\n      jump\t// in\n    tag_246:\n        /* \"#utility.yul\":7241:7243   */\n      0x20\n        /* \"#utility.yul\":7236:7239   */\n      dup3\n        /* \"#utility.yul\":7232:7244   */\n      add\n        /* \"#utility.yul\":7225:7244   */\n      swap1\n      pop\n        /* \"#utility.yul\":6884:7250   */\n      swap2\n      swap1\n      pop\n      jump\t// out\n        /* \"#utility.yul\":7256:7675   */\n    tag_76:\n        /* \"#utility.yul\":7422:7426   */\n      0x00\n        /* \"#utility.yul\":7460:7462   */\n      0x20\n        /* \"#utility.yul\":7449:7458   */\n      dup3\n        /* \"#utility.yul\":7445:7463   */\n      add\n        /* \"#utility.yul\":7437:7463   */\n      swap1\n      pop\n        /* \"#utility.yul\":7509:7518   */\n      dup2\n        /* \"#utility.yul\":7503:7507   */\n      dup2\n        /* \"#utility.yul\":7499:7519   */\n      sub\n        /* \"#utility.yul\":7495:7496   */\n      0x00\n        /* \"#utility.yul\":7484:7493   */\n      dup4\n        /* \"#utility.yul\":7480:7497   */\n      add\n        /* \"#utility.yul\":7473:7520   */\n      mstore\n        /* \"#utility.yul\":7537:7668   */\n      tag_248\n        /* \"#utility.yul\":7663:7667   */\n      dup2\n        /* \"#utility.yul\":7537:7668   */\n      tag_159\n      jump\t// in\n    tag_248:\n        /* \"#utility.yul\":7529:7668   */\n      swap1\n      pop\n        /* \"#utility.yul\":7256:7675   */\n      swap2\n      swap1\n      pop\n      jump\t// out\n        /* \"#utility.yul\":7681:7844   */\n    tag_160:\n        /* \"#utility.yul\":7821:7836   */\n      0x4e6f2066756e64732073656e7400000000000000000000000000000000000000\n        /* \"#utility.yul\":7817:7818   */\n      0x00\n        /* \"#utility.yul\":7809:7815   */\n      dup3\n        /* \"#utility.yul\":7805:7819   */\n      add\n        /* \"#utility.yul\":7798:7837   */\n      mstore\n        /* \"#utility.yul\":7681:7844   */\n      pop\n      jump\t// out\n        /* \"#utility.yul\":7850:8216   */\n    tag_161:\n        /* \"#utility.yul\":7992:7995   */\n      0x00\n        /* \"#utility.yul\":8013:8080   */\n      tag_251\n        /* \"#utility.yul\":8077:8079   */\n      0x0d\n        /* \"#utility.yul\":8072:8075   */\n      dup4\n        /* \"#utility.yul\":8013:8080   */\n      tag_153\n      jump\t// in\n    tag_251:\n        /* \"#utility.yul\":8006:8080   */\n      swap2\n      pop\n        /* \"#utility.yul\":8089:8182   */\n      tag_252\n        /* \"#utility.yul\":8178:8181   */\n      dup3\n        /* \"#utility.yul\":8089:8182   */\n      tag_160\n      jump\t// in\n    tag_252:\n        /* \"#utility.yul\":8207:8209   */\n      0x20\n        /* \"#utility.yul\":8202:8205   */\n      dup3\n        /* \"#utility.yul\":8198:8210   */\n      add\n        /* \"#utility.yul\":8191:8210   */\n      swap1\n      pop\n        /* \"#utility.yul\":7850:8216   */\n      swap2\n      swap1\n      pop\n      jump\t// out\n        /* \"#utility.yul\":8222:8641   */\n    tag_86:\n        /* \"#utility.yul\":8388:8392   */\n      0x00\n        /* \"#utility.yul\":8426:8428   */\n      0x20\n        /* \"#utility.yul\":8415:8424   */\n      dup3\n        /* \"#utility.yul\":8411:8429   */\n      add\n        /* \"#utility.yul\":8403:8429   */\n      swap1\n      pop\n        /* \"#utility.yul\":8475:8484   */\n      dup2\n        /* \"#utility.yul\":8469:8473   */\n      dup2\n        /* \"#utility.yul\":8465:8485   */\n      sub\n        /* \"#utility.yul\":8461:8462   */\n      0x00\n        /* \"#utility.yul\":8450:8459   */\n      dup4\n        /* \"#utility.yul\":8446:8463   */\n      add\n        /* \"#utility.yul\":8439:8486   */\n      mstore\n        /* \"#utility.yul\":8503:8634   */\n      tag_254\n        /* \"#utility.yul\":8629:8633   */\n      dup2\n        /* \"#utility.yul\":8503:8634   */\n      tag_161\n      jump\t// in\n    tag_254:\n        /* \"#utility.yul\":8495:8634   */\n      swap1\n      pop\n        /* \"#utility.yul\":8222:8641   */\n      swap2\n      swap1\n      pop\n      jump\t// out\n        /* \"#utility.yul\":8647:8827   */\n    tag_162:\n        /* \"#utility.yul\":8695:8772   */\n      0x4e487b7100000000000000000000000000000000000000000000000000000000\n        /* \"#utility.yul\":8692:8693   */\n      0x00\n        /* \"#utility.yul\":8685:8773   */\n      mstore\n        /* \"#utility.yul\":8792:8796   */\n      0x11\n        /* \"#utility.yul\":8789:8790   */\n      0x04\n        /* \"#utility.yul\":8782:8797   */\n      mstore\n        /* \"#utility.yul\":8816:8820   */\n      0x24\n        /* \"#utility.yul\":8813:8814   */\n      0x00\n        /* \"#utility.yul\":8806:8821   */\n      revert\n        /* \"#utility.yul\":8833:9024   */\n    tag_88:\n        /* \"#utility.yul\":8873:8876   */\n      0x00\n        /* \"#utility.yul\":8892:8912   */\n      tag_257\n        /* \"#utility.yul\":8910:8911   */\n      dup3\n        /* \"#utility.yul\":8892:8912   */\n      tag_142\n      jump\t// in\n    tag_257:\n        /* \"#utility.yul\":8887:8912   */\n      swap2\n      pop\n        /* \"#utility.yul\":8926:8946   */\n      tag_258\n        /* \"#utility.yul\":8944:8945   */\n      dup4\n        /* \"#utility.yul\":8926:8946   */\n      tag_142\n      jump\t// in\n    tag_258:\n        /* \"#utility.yul\":8921:8946   */\n      swap3\n      pop\n        /* \"#utility.yul\":8969:8970   */\n      dup3\n        /* \"#utility.yul\":8966:8967   */\n      dup3\n        /* \"#utility.yul\":8962:8971   */\n      add\n        /* \"#utility.yul\":8955:8971   */\n      swap1\n      pop\n        /* \"#utility.yul\":8990:8993   */\n      dup1\n        /* \"#utility.yul\":8987:8988   */\n      dup3\n        /* \"#utility.yul\":8984:8994   */\n      gt\n        /* \"#utility.yul\":8981:9017   */\n      iszero\n      tag_259\n      jumpi\n        /* \"#utility.yul\":8997:9015   */\n      tag_260\n      tag_162\n      jump\t// in\n    tag_260:\n        /* \"#utility.yul\":8981:9017   */\n    tag_259:\n        /* \"#utility.yul\":8833:9024   */\n      swap3\n      swap2\n      pop\n      pop\n      jump\t// out\n        /* \"#utility.yul\":9030:9203   */\n    tag_163:\n        /* \"#utility.yul\":9170:9195   */\n      0x496e73756666696369656e74207461736b2066756e6473000000000000000000\n        /* \"#utility.yul\":9166:9167   */\n      0x00\n        /* \"#utility.yul\":9158:9164   */\n      dup3\n        /* \"#utility.yul\":9154:9168   */\n      add\n        /* \"#utility.yul\":9147:9196   */\n      mstore\n        /* \"#utility.yul\":9030:9203   */\n      pop\n      jump\t// out\n        /* \"#utility.yul\":9209:9575   */\n    tag_164:\n        /* \"#utility.yul\":9351:9354   */\n      0x00\n        /* \"#utility.yul\":9372:9439   */\n      tag_263\n        /* \"#utility.yul\":9436:9438   */\n      0x17\n        /* \"#utility.yul\":9431:9434   */\n      dup4\n        /* \"#utility.yul\":9372:9439   */\n      tag_153\n      jump\t// in\n    tag_263:\n        /* \"#utility.yul\":9365:9439   */\n      swap2\n      pop\n        /* \"#utility.yul\":9448:9541   */\n      tag_264\n        /* \"#utility.yul\":9537:9540   */\n      dup3\n        /* \"#utility.yul\":9448:9541   */\n      tag_163\n      jump\t// in\n    tag_264:\n        /* \"#utility.yul\":9566:9568   */\n      0x20\n        /* \"#utility.yul\":9561:9564   */\n      dup3\n        /* \"#utility.yul\":9557:9569   */\n      add\n        /* \"#utility.yul\":9550:9569   */\n      swap1\n      pop\n        /* \"#utility.yul\":9209:9575   */\n      swap2\n      swap1\n      pop\n      jump\t// out\n        /* \"#utility.yul\":9581:10000   */\n    tag_100:\n        /* \"#utility.yul\":9747:9751   */\n      0x00\n        /* \"#utility.yul\":9785:9787   */\n      0x20\n        /* \"#utility.yul\":9774:9783   */\n      dup3\n        /* \"#utility.yul\":9770:9788   */\n      add\n        /* \"#utility.yul\":9762:9788   */\n      swap1\n      pop\n        /* \"#utility.yul\":9834:9843   */\n      dup2\n        /* \"#utility.yul\":9828:9832   */\n      dup2\n        /* \"#utility.yul\":9824:9844   */\n      sub\n        /* \"#utility.yul\":9820:9821   */\n      0x00\n        /* \"#utility.yul\":9809:9818   */\n      dup4\n        /* \"#utility.yul\":9805:9822   */\n      add\n        /* \"#utility.yul\":9798:9845   */\n      mstore\n        /* \"#utility.yul\":9862:9993   */\n      tag_266\n        /* \"#utility.yul\":9988:9992   */\n      dup2\n        /* \"#utility.yul\":9862:9993   */\n      tag_164\n      jump\t// in\n    tag_266:\n        /* \"#utility.yul\":9854:9993   */\n      swap1\n      pop\n        /* \"#utility.yul\":9581:10000   */\n      swap2\n      swap1\n      pop\n      jump\t// out\n        /* \"#utility.yul\":10006:10177   */\n    tag_165:\n        /* \"#utility.yul\":10146:10169   */\n      0x496e76616c6964206a75726f7220616464726573730000000000000000000000\n        /* \"#utility.yul\":10142:10143   */\n      0x00\n        /* \"#utility.yul\":10134:10140   */\n      dup3\n        /* \"#utility.yul\":10130:10144   */\n      add\n        /* \"#utility.yul\":10123:10170   */\n      mstore\n        /* \"#utility.yul\":10006:10177   */\n      pop\n      jump\t// out\n        /* \"#utility.yul\":10183:10549   */\n    tag_166:\n        /* \"#utility.yul\":10325:10328   */\n      0x00\n        /* \"#utility.yul\":10346:10413   */\n      tag_269\n        /* \"#utility.yul\":10410:10412   */\n      0x15\n        /* \"#utility.yul\":10405:10408   */\n      dup4\n        /* \"#utility.yul\":10346:10413   */\n      tag_153\n      jump\t// in\n    tag_269:\n        /* \"#utility.yul\":10339:10413   */\n      swap2\n      pop\n        /* \"#utility.yul\":10422:10515   */\n      tag_270\n        /* \"#utility.yul\":10511:10514   */\n      dup3\n        /* \"#utility.yul\":10422:10515   */\n      tag_165\n      jump\t// in\n    tag_270:\n        /* \"#utility.yul\":10540:10542   */\n      0x20\n        /* \"#utility.yul\":10535:10538   */\n      dup3\n        /* \"#utility.yul\":10531:10543   */\n      add\n        /* \"#utility.yul\":10524:10543   */\n      swap1\n      pop\n        /* \"#utility.yul\":10183:10549   */\n      swap2\n      swap1\n      pop\n      jump\t// out\n        /* \"#utility.yul\":10555:10974   */\n    tag_103:\n        /* \"#utility.yul\":10721:10725   */\n      0x00\n        /* \"#utility.yul\":10759:10761   */\n      0x20\n        /* \"#utility.yul\":10748:10757   */\n      dup3\n        /* \"#utility.yul\":10744:10762   */\n      add\n        /* \"#utility.yul\":10736:10762   */\n      swap1\n      pop\n        /* \"#utility.yul\":10808:10817   */\n      dup2\n        /* \"#utility.yul\":10802:10806   */\n      dup2\n        /* \"#utility.yul\":10798:10818   */\n      sub\n        /* \"#utility.yul\":10794:10795   */\n      0x00\n        /* \"#utility.yul\":10783:10792   */\n      dup4\n        /* \"#utility.yul\":10779:10796   */\n      add\n        /* \"#utility.yul\":10772:10819   */\n      mstore\n        /* \"#utility.yul\":10836:10967   */\n      tag_272\n        /* \"#utility.yul\":10962:10966   */\n      dup2\n        /* \"#utility.yul\":10836:10967   */\n      tag_166\n      jump\t// in\n    tag_272:\n        /* \"#utility.yul\":10828:10967   */\n      swap1\n      pop\n        /* \"#utility.yul\":10555:10974   */\n      swap2\n      swap1\n      pop\n      jump\t// out\n        /* \"#utility.yul\":10980:11174   */\n    tag_105:\n        /* \"#utility.yul\":11020:11024   */\n      0x00\n        /* \"#utility.yul\":11040:11060   */\n      tag_274\n        /* \"#utility.yul\":11058:11059   */\n      dup3\n        /* \"#utility.yul\":11040:11060   */\n      tag_142\n      jump\t// in\n    tag_274:\n        /* \"#utility.yul\":11035:11060   */\n      swap2\n      pop\n        /* \"#utility.yul\":11074:11094   */\n      tag_275\n        /* \"#utility.yul\":11092:11093   */\n      dup4\n        /* \"#utility.yul\":11074:11094   */\n      tag_142\n      jump\t// in\n    tag_275:\n        /* \"#utility.yul\":11069:11094   */\n      swap3\n      pop\n        /* \"#utility.yul\":11118:11119   */\n      dup3\n        /* \"#utility.yul\":11115:11116   */\n      dup3\n        /* \"#utility.yul\":11111:11120   */\n      sub\n        /* \"#utility.yul\":11103:11120   */\n      swap1\n      pop\n        /* \"#utility.yul\":11142:11143   */\n      dup2\n        /* \"#utility.yul\":11136:11140   */\n      dup2\n        /* \"#utility.yul\":11133:11144   */\n      gt\n        /* \"#utility.yul\":11130:11167   */\n      iszero\n      tag_276\n      jumpi\n        /* \"#utility.yul\":11147:11165   */\n      tag_277\n      tag_162\n      jump\t// in\n    tag_277:\n        /* \"#utility.yul\":11130:11167   */\n    tag_276:\n        /* \"#utility.yul\":10980:11174   */\n      swap3\n      swap2\n      pop\n      pop\n      jump\t// out\n        /* \"#utility.yul\":11180:11512   */\n    tag_109:\n        /* \"#utility.yul\":11301:11305   */\n      0x00\n        /* \"#utility.yul\":11339:11341   */\n      0x40\n        /* \"#utility.yul\":11328:11337   */\n      dup3\n        /* \"#utility.yul\":11324:11342   */\n      add\n        /* \"#utility.yul\":11316:11342   */\n      swap1\n      pop\n        /* \"#utility.yul\":11352:11423   */\n      tag_279\n        /* \"#utility.yul\":11420:11421   */\n      0x00\n        /* \"#utility.yul\":11409:11418   */\n      dup4\n        /* \"#utility.yul\":11405:11422   */\n      add\n        /* \"#utility.yul\":11396:11402   */\n      dup6\n        /* \"#utility.yul\":11352:11423   */\n      tag_150\n      jump\t// in\n    tag_279:\n        /* \"#utility.yul\":11433:11505   */\n      tag_280\n        /* \"#utility.yul\":11501:11503   */\n      0x20\n        /* \"#utility.yul\":11490:11499   */\n      dup4\n        /* \"#utility.yul\":11486:11504   */\n      add\n        /* \"#utility.yul\":11477:11483   */\n      dup5\n        /* \"#utility.yul\":11433:11505   */\n      tag_149\n      jump\t// in\n    tag_280:\n        /* \"#utility.yul\":11180:11512   */\n      swap4\n      swap3\n      pop\n      pop\n      pop\n      jump\t// out\n        /* \"#utility.yul\":11518:11687   */\n    tag_167:\n        /* \"#utility.yul\":11658:11679   */\n      0x466163746f727920616c72656164792073657400000000000000000000000000\n        /* \"#utility.yul\":11654:11655   */\n      0x00\n        /* \"#utility.yul\":11646:11652   */\n      dup3\n        /* \"#utility.yul\":11642:11656   */\n      add\n        /* \"#utility.yul\":11635:11680   */\n      mstore\n        /* \"#utility.yul\":11518:11687   */\n      pop\n      jump\t// out\n        /* \"#utility.yul\":11693:12059   */\n    tag_168:\n        /* \"#utility.yul\":11835:11838   */\n      0x00\n        /* \"#utility.yul\":11856:11923   */\n      tag_283\n        /* \"#utility.yul\":11920:11922   */\n      0x13\n        /* \"#utility.yul\":11915:11918   */\n      dup4\n        /* \"#utility.yul\":11856:11923   */\n      tag_153\n      jump\t// in\n    tag_283:\n        /* \"#utility.yul\":11849:11923   */\n      swap2\n      pop\n        /* \"#utility.yul\":11932:12025   */\n      tag_284\n        /* \"#utility.yul\":12021:12024   */\n      dup3\n        /* \"#utility.yul\":11932:12025   */\n      tag_167\n      jump\t// in\n    tag_284:\n        /* \"#utility.yul\":12050:12052   */\n      0x20\n        /* \"#utility.yul\":12045:12048   */\n      dup3\n        /* \"#utility.yul\":12041:12053   */\n      add\n        /* \"#utility.yul\":12034:12053   */\n      swap1\n      pop\n        /* \"#utility.yul\":11693:12059   */\n      swap2\n      swap1\n      pop\n      jump\t// out\n        /* \"#utility.yul\":12065:12484   */\n    tag_113:\n        /* \"#utility.yul\":12231:12235   */\n      0x00\n        /* \"#utility.yul\":12269:12271   */\n      0x20\n        /* \"#utility.yul\":12258:12267   */\n      dup3\n        /* \"#utility.yul\":12254:12272   */\n      add\n        /* \"#utility.yul\":12246:12272   */\n      swap1\n      pop\n        /* \"#utility.yul\":12318:12327   */\n      dup2\n        /* \"#utility.yul\":12312:12316   */\n      dup2\n        /* \"#utility.yul\":12308:12328   */\n      sub\n        /* \"#utility.yul\":12304:12305   */\n      0x00\n        /* \"#utility.yul\":12293:12302   */\n      dup4\n        /* \"#utility.yul\":12289:12306   */\n      add\n        /* \"#utility.yul\":12282:12329   */\n      mstore\n        /* \"#utility.yul\":12346:12477   */\n      tag_286\n        /* \"#utility.yul\":12472:12476   */\n      dup2\n        /* \"#utility.yul\":12346:12477   */\n      tag_168\n      jump\t// in\n    tag_286:\n        /* \"#utility.yul\":12338:12477   */\n      swap1\n      pop\n        /* \"#utility.yul\":12065:12484   */\n      swap2\n      swap1\n      pop\n      jump\t// out\n        /* \"#utility.yul\":12490:12655   */\n    tag_169:\n        /* \"#utility.yul\":12630:12647   */\n      0x496e76616c696420616464726573730000000000000000000000000000000000\n        /* \"#utility.yul\":12626:12627   */\n      0x00\n        /* \"#utility.yul\":12618:12624   */\n      dup3\n        /* \"#utility.yul\":12614:12628   */\n      add\n        /* \"#utility.yul\":12607:12648   */\n      mstore\n        /* \"#utility.yul\":12490:12655   */\n      pop\n      jump\t// out\n        /* \"#utility.yul\":12661:13027   */\n    tag_170:\n        /* \"#utility.yul\":12803:12806   */\n      0x00\n        /* \"#utility.yul\":12824:12891   */\n      tag_289\n        /* \"#utility.yul\":12888:12890   */\n      0x0f\n        /* \"#utility.yul\":12883:12886   */\n      dup4\n        /* \"#utility.yul\":12824:12891   */\n      tag_153\n      jump\t// in\n    tag_289:\n        /* \"#utility.yul\":12817:12891   */\n      swap2\n      pop\n        /* \"#utility.yul\":12900:12993   */\n      tag_290\n        /* \"#utility.yul\":12989:12992   */\n      dup3\n        /* \"#utility.yul\":12900:12993   */\n      tag_169\n      jump\t// in\n    tag_290:\n        /* \"#utility.yul\":13018:13020   */\n      0x20\n        /* \"#utility.yul\":13013:13016   */\n      dup3\n        /* \"#utility.yul\":13009:13021   */\n      add\n        /* \"#utility.yul\":13002:13021   */\n      swap1\n      pop\n        /* \"#utility.yul\":12661:13027   */\n      swap2\n      swap1\n      pop\n      jump\t// out\n        /* \"#utility.yul\":13033:13452   */\n    tag_116:\n        /* \"#utility.yul\":13199:13203   */\n      0x00\n        /* \"#utility.yul\":13237:13239   */\n      0x20\n        /* \"#utility.yul\":13226:13235   */\n      dup3\n        /* \"#utility.yul\":13222:13240   */\n      add\n        /* \"#utility.yul\":13214:13240   */\n      swap1\n      pop\n        /* \"#utility.yul\":13286:13295   */\n      dup2\n        /* \"#utility.yul\":13280:13284   */\n      dup2\n        /* \"#utility.yul\":13276:13296   */\n      sub\n        /* \"#utility.yul\":13272:13273   */\n      0x00\n        /* \"#utility.yul\":13261:13270   */\n      dup4\n        /* \"#utility.yul\":13257:13274   */\n      add\n        /* \"#utility.yul\":13250:13297   */\n      mstore\n        /* \"#utility.yul\":13314:13445   */\n      tag_292\n        /* \"#utility.yul\":13440:13444   */\n      dup2\n        /* \"#utility.yul\":13314:13445   */\n      tag_170\n      jump\t// in\n    tag_292:\n        /* \"#utility.yul\":13306:13445   */\n      swap1\n      pop\n        /* \"#utility.yul\":13033:13452   */\n      swap2\n      swap1\n      pop\n      jump\t// out\n        /* \"#utility.yul\":13458:13626   */\n    tag_171:\n        /* \"#utility.yul\":13598:13618   */\n      0x4e6f2066756e647320746f20726566756e640000000000000000000000000000\n        /* \"#utility.yul\":13594:13595   */\n      0x00\n        /* \"#utility.yul\":13586:13592   */\n      dup3\n        /* \"#utility.yul\":13582:13596   */\n      add\n        /* \"#utility.yul\":13575:13619   */\n      mstore\n        /* \"#utility.yul\":13458:13626   */\n      pop\n      jump\t// out\n        /* \"#utility.yul\":13632:13998   */\n    tag_172:\n        /* \"#utility.yul\":13774:13777   */\n      0x00\n        /* \"#utility.yul\":13795:13862   */\n      tag_295\n        /* \"#utility.yul\":13859:13861   */\n      0x12\n        /* \"#utility.yul\":13854:13857   */\n      dup4\n        /* \"#utility.yul\":13795:13862   */\n      tag_153\n      jump\t// in\n    tag_295:\n        /* \"#utility.yul\":13788:13862   */\n      swap2\n      pop\n        /* \"#utility.yul\":13871:13964   */\n      tag_296\n        /* \"#utility.yul\":13960:13963   */\n      dup3\n        /* \"#utility.yul\":13871:13964   */\n      tag_171\n      jump\t// in\n    tag_296:\n        /* \"#utility.yul\":13989:13991   */\n      0x20\n        /* \"#utility.yul\":13984:13987   */\n      dup3\n        /* \"#utility.yul\":13980:13992   */\n      add\n        /* \"#utility.yul\":13973:13992   */\n      swap1\n      pop\n        /* \"#utility.yul\":13632:13998   */\n      swap2\n      swap1\n      pop\n      jump\t// out\n        /* \"#utility.yul\":14004:14423   */\n    tag_132:\n        /* \"#utility.yul\":14170:14174   */\n      0x00\n        /* \"#utility.yul\":14208:14210   */\n      0x20\n        /* \"#utility.yul\":14197:14206   */\n      dup3\n        /* \"#utility.yul\":14193:14211   */\n      add\n        /* \"#utility.yul\":14185:14211   */\n      swap1\n      pop\n        /* \"#utility.yul\":14257:14266   */\n      dup2\n        /* \"#utility.yul\":14251:14255   */\n      dup2\n        /* \"#utility.yul\":14247:14267   */\n      sub\n        /* \"#utility.yul\":14243:14244   */\n      0x00\n        /* \"#utility.yul\":14232:14241   */\n      dup4\n        /* \"#utility.yul\":14228:14245   */\n      add\n        /* \"#utility.yul\":14221:14268   */\n      mstore\n        /* \"#utility.yul\":14285:14416   */\n      tag_298\n        /* \"#utility.yul\":14411:14415   */\n      dup2\n        /* \"#utility.yul\":14285:14416   */\n      tag_172\n      jump\t// in\n    tag_298:\n        /* \"#utility.yul\":14277:14416   */\n      swap1\n      pop\n        /* \"#utility.yul\":14004:14423   */\n      swap2\n      swap1\n      pop\n      jump\t// out\n        /* \"#utility.yul\":14429:14602   */\n    tag_173:\n        /* \"#utility.yul\":14569:14594   */\n      0x496e76616c69642063726561746f722061646472657373000000000000000000\n        /* \"#utility.yul\":14565:14566   */\n      0x00\n        /* \"#utility.yul\":14557:14563   */\n      dup3\n        /* \"#utility.yul\":14553:14567   */\n      add\n        /* \"#utility.yul\":14546:14595   */\n      mstore\n        /* \"#utility.yul\":14429:14602   */\n      pop\n      jump\t// out\n        /* \"#utility.yul\":14608:14974   */\n    tag_174:\n        /* \"#utility.yul\":14750:14753   */\n      0x00\n        /* \"#utility.yul\":14771:14838   */\n      tag_301\n        /* \"#utility.yul\":14835:14837   */\n      0x17\n        /* \"#utility.yul\":14830:14833   */\n      dup4\n        /* \"#utility.yul\":14771:14838   */\n      tag_153\n      jump\t// in\n    tag_301:\n        /* \"#utility.yul\":14764:14838   */\n      swap2\n      pop\n        /* \"#utility.yul\":14847:14940   */\n      tag_302\n        /* \"#utility.yul\":14936:14939   */\n      dup3\n        /* \"#utility.yul\":14847:14940   */\n      tag_173\n      jump\t// in\n    tag_302:\n        /* \"#utility.yul\":14965:14967   */\n      0x20\n        /* \"#utility.yul\":14960:14963   */\n      dup3\n        /* \"#utility.yul\":14956:14968   */\n      add\n        /* \"#utility.yul\":14949:14968   */\n      swap1\n      pop\n        /* \"#utility.yul\":14608:14974   */\n      swap2\n      swap1\n      pop\n      jump\t// out\n        /* \"#utility.yul\":14980:15399   */\n    tag_135:\n        /* \"#utility.yul\":15146:15150   */\n      0x00\n        /* \"#utility.yul\":15184:15186   */\n      0x20\n        /* \"#utility.yul\":15173:15182   */\n      dup3\n        /* \"#utility.yul\":15169:15187   */\n      add\n        /* \"#utility.yul\":15161:15187   */\n      swap1\n      pop\n        /* \"#utility.yul\":15233:15242   */\n      dup2\n        /* \"#utility.yul\":15227:15231   */\n      dup2\n        /* \"#utility.yul\":15223:15243   */\n      sub\n        /* \"#utility.yul\":15219:15220   */\n      0x00\n        /* \"#utility.yul\":15208:15217   */\n      dup4\n        /* \"#utility.yul\":15204:15221   */\n      add\n        /* \"#utility.yul\":15197:15244   */\n      mstore\n        /* \"#utility.yul\":15261:15392   */\n      tag_304\n        /* \"#utility.yul\":15387:15391   */\n      dup2\n        /* \"#utility.yul\":15261:15392   */\n      tag_174\n      jump\t// in\n    tag_304:\n        /* \"#utility.yul\":15253:15392   */\n      swap1\n      pop\n        /* \"#utility.yul\":14980:15399   */\n      swap2\n      swap1\n      pop\n      jump\t// out\n\n    auxdata: 0xa2646970667358221220319e0c183734f53b9278bbeeca813765f8ff75ba732a14a576491f9a6a370acb64736f6c634300081e0033\n}\n",
				"bytecode": {
					"linkReferences": {},
					"object": "60806040525f600160146101000a81548160ff021916908315150217905550348015610029575f5ffd5b5060405161157b38038061157b833981810160405281019061004b919061013d565b8060015f6101000a81548173ffffffffffffffffffffffffffffffffffffffff021916908373ffffffffffffffffffffffffffffffffffffffff1602179055505f73ffffffffffffffffffffffffffffffffffffffff168173ffffffffffffffffffffffffffffffffffffffff16146100d95760018060146101000a81548160ff0219169083151502179055505b50610168565b5f5ffd5b5f73ffffffffffffffffffffffffffffffffffffffff82169050919050565b5f61010c826100e3565b9050919050565b61011c81610102565b8114610126575f5ffd5b50565b5f8151905061013781610113565b92915050565b5f60208284031215610152576101516100df565b5b5f61015f84828501610129565b91505092915050565b611406806101755f395ff3fe60806040526004361061009b575f3560e01c80635bb47808116100635780635bb478081461015d5780637364fae81461018557806377969929146101ad5780638833c4c3146101d5578063c45a015514610211578063e21875e21461023b5761009b565b80631af23a591461009f57806333518806146100c75780633b76594d146100f15780634283271c1461010d578063564fe31e14610135575b5f5ffd5b3480156100aa575f5ffd5b506100c560048036038101906100c09190610d51565b610265565b005b3480156100d2575f5ffd5b506100db61044e565b6040516100e89190610d9e565b60405180910390f35b61010b60048036038101906101069190610db7565b610454565b005b348015610118575f5ffd5b50610133600480360381019061012e9190610d51565b610586565b005b348015610140575f5ffd5b5061015b60048036038101906101569190610de2565b610619565b005b348015610168575f5ffd5b50610183600480360381019061017e9190610e32565b610812565b005b348015610190575f5ffd5b506101ab60048036038101906101a69190610e5d565b61092d565b005b3480156101b8575f5ffd5b506101d360048036038101906101ce9190610d51565b610a89565b005b3480156101e0575f5ffd5b506101fb60048036038101906101f69190610db7565b610c74565b6040516102089190610d9e565b60405180910390f35b34801561021c575f5ffd5b50610225610c88565b6040516102329190610eaa565b60405180910390f35b348015610246575f5ffd5b5061024f610cad565b60405161025c9190610edd565b60405180910390f35b60015f9054906101000a900473ffffffffffffffffffffffffffffffffffffffff1673ffffffffffffffffffffffffffffffffffffffff163373ffffffffffffffffffffffffffffffffffffffff16146102f4576040517f08c379a00000000000000000000000000000000000000000000000000000000081526004016102eb90610f50565b60405180910390fd5b5f73ffffffffffffffffffffffffffffffffffffffff168173ffffffffffffffffffffffffffffffffffffffff1603610362576040517f08c379a000000000000000000000000000000000000000000000000000000000815260040161035990610fb8565b60405180910390fd5b5f5f5f8481526020019081526020015f205490505f81116103b8576040517f08c379a00000000000000000000000000000000000000000000000000000000081526004016103af90611020565b60405180910390fd5b5f5f5f8581526020019081526020015f20819055508173ffffffffffffffffffffffffffffffffffffffff166108fc8290811502906040515f60405180830381858888f19350505050158015610410573d5f5f3e3d5ffd5b50827f8f5073d0a7a22ba450e278541077e181af457be74bea91e61f1f99e6bb40748e836040516104419190610eaa565b60405180910390a2505050565b60025481565b60015f9054906101000a900473ffffffffffffffffffffffffffffffffffffffff1673ffffffffffffffffffffffffffffffffffffffff163373ffffffffffffffffffffffffffffffffffffffff16146104e3576040517f08c379a00000000000000000000000000000000000000000000000000000000081526004016104da90610f50565b60405180910390fd5b5f3411610525576040517f08c379a000000000000000000000000000000000000000000000000000000000815260040161051c90611088565b60405180910390fd5b345f5f8381526020019081526020015f205f82825461054491906110d3565b92505081905550807f26679fa1f3868c950e9362f1106cf73f3318de0280e0411a3c68e4b463eadd4f3460405161057b9190610d9e565b60405180910390a250565b60015f9054906101000a900473ffffffffffffffffffffffffffffffffffffffff1673ffffffffffffffffffffffffffffffffffffffff163373ffffffffffffffffffffffffffffffffffffffff1614610615576040517f08c379a000000000000000000000000000000000000000000000000000000000815260040161060c90610f50565b60405180910390fd5b5050565b60015f9054906101000a900473ffffffffffffffffffffffffffffffffffffffff1673ffffffffffffffffffffffffffffffffffffffff163373ffffffffffffffffffffffffffffffffffffffff16146106a8576040517f08c379a000000000000000000000000000000000000000000000000000000000815260040161069f90610f50565b60405180910390fd5b805f5f8581526020019081526020015f205410156106fb576040517f08c379a00000000000000000000000000000000000000000000000000000000081526004016106f290611150565b60405180910390fd5b5f73ffffffffffffffffffffffffffffffffffffffff168273ffffffffffffffffffffffffffffffffffffffff1603610769576040517f08c379a0000000000000000000000000000000000000000000000000000000008152600401610760906111b8565b60405180910390fd5b805f5f8581526020019081526020015f205f82825461078891906111d6565b925050819055508173ffffffffffffffffffffffffffffffffffffffff166108fc8290811502906040515f60405180830381858888f193505050501580156107d2573d5f5f3e3d5ffd5b50827f38fef0e2638c7bfd9820a74741bd8d5b75996df52983ee3195e0e6db53b4fec48383604051610805929190611209565b60405180910390a2505050565b600160149054906101000a900460ff1615610862576040517f08c379a00000000000000000000000000000000000000000000000000000000081526004016108599061127a565b60405180910390fd5b5f73ffffffffffffffffffffffffffffffffffffffff168173ffffffffffffffffffffffffffffffffffffffff16036108d0576040517f08c379a00000000000000000000000000000000000000000000000000000000081526004016108c7906112e2565b60405180910390fd5b8060015f6101000a81548173ffffffffffffffffffffffffffffffffffffffff021916908373ffffffffffffffffffffffffffffffffffffffff16021790555060018060146101000a81548160ff02191690831515021790555050565b60015f9054906101000a900473ffffffffffffffffffffffffffffffffffffffff1673ffffffffffffffffffffffffffffffffffffffff163373ffffffffffffffffffffffffffffffffffffffff16146109bc576040517f08c379a00000000000000000000000000000000000000000000000000000000081526004016109b390610f50565b60405180910390fd5b805f5f8481526020019081526020015f20541015610a0f576040517f08c379a0000000000000000000000000000000000000000000000000000000008152600401610a0690611150565b60405180910390fd5b805f5f8481526020019081526020015f205f828254610a2e91906111d6565b925050819055508060025f828254610a4691906110d3565b92505081905550817f901eb85ad066ced1d2fb2ae0a5a9e7a4e08a8183e432d4f3586c921023641aa982604051610a7d9190610d9e565b60405180910390a25050565b60015f9054906101000a900473ffffffffffffffffffffffffffffffffffffffff1673ffffffffffffffffffffffffffffffffffffffff163373ffffffffffffffffffffffffffffffffffffffff1614610b18576040517f08c379a0000000000000000000000000000000000000000000000000000000008152600401610b0f90610f50565b60405180910390fd5b5f5f5f8481526020019081526020015f205490505f8111610b6e576040517f08c379a0000000000000000000000000000000000000000000000000000000008152600401610b659061134a565b60405180910390fd5b5f73ffffffffffffffffffffffffffffffffffffffff168273ffffffffffffffffffffffffffffffffffffffff1603610bdc576040517f08c379a0000000000000000000000000000000000000000000000000000000008152600401610bd3906113b2565b60405180910390fd5b5f5f5f8581526020019081526020015f20819055508173ffffffffffffffffffffffffffffffffffffffff166108fc8290811502906040515f60405180830381858888f19350505050158015610c34573d5f5f3e3d5ffd5b50827f80b577b4fc190ab86d963549e29f496afd079c5d81a2480d61217d4b5060a28c8383604051610c67929190611209565b60405180910390a2505050565b5f602052805f5260405f205f915090505481565b60015f9054906101000a900473ffffffffffffffffffffffffffffffffffffffff1681565b600160149054906101000a900460ff1681565b5f5ffd5b5f819050919050565b610cd681610cc4565b8114610ce0575f5ffd5b50565b5f81359050610cf181610ccd565b92915050565b5f73ffffffffffffffffffffffffffffffffffffffff82169050919050565b5f610d2082610cf7565b9050919050565b610d3081610d16565b8114610d3a575f5ffd5b50565b5f81359050610d4b81610d27565b92915050565b5f5f60408385031215610d6757610d66610cc0565b5b5f610d7485828601610ce3565b9250506020610d8585828601610d3d565b9150509250929050565b610d9881610cc4565b82525050565b5f602082019050610db15f830184610d8f565b92915050565b5f60208284031215610dcc57610dcb610cc0565b5b5f610dd984828501610ce3565b91505092915050565b5f5f5f60608486031215610df957610df8610cc0565b5b5f610e0686828701610ce3565b9350506020610e1786828701610d3d565b9250506040610e2886828701610ce3565b9150509250925092565b5f60208284031215610e4757610e46610cc0565b5b5f610e5484828501610d3d565b91505092915050565b5f5f60408385031215610e7357610e72610cc0565b5b5f610e8085828601610ce3565b9250506020610e9185828601610ce3565b9150509250929050565b610ea481610d16565b82525050565b5f602082019050610ebd5f830184610e9b565b92915050565b5f8115159050919050565b610ed781610ec3565b82525050565b5f602082019050610ef05f830184610ece565b92915050565b5f82825260208201905092915050565b7f4f6e6c7920666163746f72792063616e206f70657261746500000000000000005f82015250565b5f610f3a601883610ef6565b9150610f4582610f06565b602082019050919050565b5f6020820190508181035f830152610f6781610f2e565b9050919050565b7f496e76616c69642077696e6e65722061646472657373000000000000000000005f82015250565b5f610fa2601683610ef6565b9150610fad82610f6e565b602082019050919050565b5f6020820190508181035f830152610fcf81610f96565b9050919050565b7f4e6f2066756e647320617661696c61626c6500000000000000000000000000005f82015250565b5f61100a601283610ef6565b915061101582610fd6565b602082019050919050565b5f6020820190508181035f83015261103781610ffe565b9050919050565b7f4e6f2066756e64732073656e74000000000000000000000000000000000000005f82015250565b5f611072600d83610ef6565b915061107d8261103e565b602082019050919050565b5f6020820190508181035f83015261109f81611066565b9050919050565b7f4e487b71000000000000000000000000000000000000000000000000000000005f52601160045260245ffd5b5f6110dd82610cc4565b91506110e883610cc4565b9250828201905080821115611100576110ff6110a6565b5b92915050565b7f496e73756666696369656e74207461736b2066756e64730000000000000000005f82015250565b5f61113a601783610ef6565b915061114582611106565b602082019050919050565b5f6020820190508181035f8301526111678161112e565b9050919050565b7f496e76616c6964206a75726f72206164647265737300000000000000000000005f82015250565b5f6111a2601583610ef6565b91506111ad8261116e565b602082019050919050565b5f6020820190508181035f8301526111cf81611196565b9050919050565b5f6111e082610cc4565b91506111eb83610cc4565b9250828203905081811115611203576112026110a6565b5b92915050565b5f60408201905061121c5f830185610e9b565b6112296020830184610d8f565b9392505050565b7f466163746f727920616c726561647920736574000000000000000000000000005f82015250565b5f611264601383610ef6565b915061126f82611230565b602082019050919050565b5f6020820190508181035f83015261129181611258565b9050919050565b7f496e76616c6964206164647265737300000000000000000000000000000000005f82015250565b5f6112cc600f83610ef6565b91506112d782611298565b602082019050919050565b5f6020820190508181035f8301526112f9816112c0565b9050919050565b7f4e6f2066756e647320746f20726566756e6400000000000000000000000000005f82015250565b5f611334601283610ef6565b915061133f82611300565b602082019050919050565b5f6020820190508181035f83015261136181611328565b9050919050565b7f496e76616c69642063726561746f7220616464726573730000000000000000005f82015250565b5f61139c601783610ef6565b91506113a782611368565b602082019050919050565b5f6020820190508181035f8301526113c981611390565b905091905056fea2646970667358221220319e0c183734f53b9278bbeeca813765f8ff75ba732a14a576491f9a6a370acb64736f6c634300081e0033",
					"opcodes": "PUSH1 0x80 PUSH1 0x40 MSTORE PUSH0 PUSH1 0x1 PUSH1 0x14 PUSH2 0x100 EXP DUP2 SLOAD DUP2 PUSH1 0xFF MUL NOT AND SWAP1 DUP4 ISZERO ISZERO MUL OR SWAP1 SSTORE POP CALLVALUE DUP1 ISZERO PUSH2 0x29 JUMPI PUSH0 PUSH0 REVERT JUMPDEST POP PUSH1 0x40 MLOAD PUSH2 0x157B CODESIZE SUB DUP1 PUSH2 0x157B DUP4 CODECOPY DUP2 DUP2 ADD PUSH1 0x40 MSTORE DUP2 ADD SWAP1 PUSH2 0x4B SWAP2 SWAP1 PUSH2 0x13D JUMP JUMPDEST DUP1 PUSH1 0x1 PUSH0 PUSH2 0x100 EXP DUP2 SLOAD DUP2 PUSH20 0xFFFFFFFFFFFFFFFFFFFFFFFFFFFFFFFFFFFFFFFF MUL NOT AND SWAP1 DUP4 PUSH20 0xFFFFFFFFFFFFFFFFFFFFFFFFFFFFFFFFFFFFFFFF AND MUL OR SWAP1 SSTORE POP PUSH0 PUSH20 0xFFFFFFFFFFFFFFFFFFFFFFFFFFFFFFFFFFFFFFFF AND DUP2 PUSH20 0xFFFFFFFFFFFFFFFFFFFFFFFFFFFFFFFFFFFFFFFF AND EQ PUSH2 0xD9 JUMPI PUSH1 0x1 DUP1 PUSH1 0x14 PUSH2 0x100 EXP DUP2 SLOAD DUP2 PUSH1 0xFF MUL NOT AND SWAP1 DUP4 ISZERO ISZERO MUL OR SWAP1 SSTORE POP JUMPDEST POP PUSH2 0x168 JUMP JUMPDEST PUSH0 PUSH0 REVERT JUMPDEST PUSH0 PUSH20 0xFFFFFFFFFFFFFFFFFFFFFFFFFFFFFFFFFFFFFFFF DUP3 AND SWAP1 POP SWAP2 SWAP1 POP JUMP JUMPDEST PUSH0 PUSH2 0x10C DUP3 PUSH2 0xE3 JUMP JUMPDEST SWAP1 POP SWAP2 SWAP1 POP JUMP JUMPDEST PUSH2 0x11C DUP2 PUSH2 0x102 JUMP JUMPDEST DUP2 EQ PUSH2 0x126 JUMPI PUSH0 PUSH0 REVERT JUMPDEST POP JUMP JUMPDEST PUSH0 DUP2 MLOAD SWAP1 POP PUSH2 0x137 DUP2 PUSH2 0x113 JUMP JUMPDEST SWAP3 SWAP2 POP POP JUMP JUMPDEST PUSH0 PUSH1 0x20 DUP3 DUP5 SUB SLT ISZERO PUSH2 0x152 JUMPI PUSH2 0x151 PUSH2 0xDF JUMP JUMPDEST JUMPDEST PUSH0 PUSH2 0x15F DUP5 DUP3 DUP6 ADD PUSH2 0x129 JUMP JUMPDEST SWAP2 POP POP SWAP3 SWAP2 POP POP JUMP JUMPDEST PUSH2 0x1406 DUP1 PUSH2 0x175 PUSH0 CODECOPY PUSH0 RETURN INVALID PUSH1 0x80 PUSH1 0x40 MSTORE PUSH1 0x4 CALLDATASIZE LT PUSH2 0x9B JUMPI PUSH0 CALLDATALOAD PUSH1 0xE0 SHR DUP1 PUSH4 0x5BB47808 GT PUSH2 0x63 JUMPI DUP1 PUSH4 0x5BB47808 EQ PUSH2 0x15D JUMPI DUP1 PUSH4 0x7364FAE8 EQ PUSH2 0x185 JUMPI DUP1 PUSH4 0x77969929 EQ PUSH2 0x1AD JUMPI DUP1 PUSH4 0x8833C4C3 EQ PUSH2 0x1D5 JUMPI DUP1 PUSH4 0xC45A0155 EQ PUSH2 0x211 JUMPI DUP1 PUSH4 0xE21875E2 EQ PUSH2 0x23B JUMPI PUSH2 0x9B JUMP JUMPDEST DUP1 PUSH4 0x1AF23A59 EQ PUSH2 0x9F JUMPI DUP1 PUSH4 0x33518806 EQ PUSH2 0xC7 JUMPI DUP1 PUSH4 0x3B76594D EQ PUSH2 0xF1 JUMPI DUP1 PUSH4 0x4283271C EQ PUSH2 0x10D JUMPI DUP1 PUSH4 0x564FE31E EQ PUSH2 0x135 JUMPI JUMPDEST PUSH0 PUSH0 REVERT JUMPDEST CALLVALUE DUP1 ISZERO PUSH2 0xAA JUMPI PUSH0 PUSH0 REVERT JUMPDEST POP PUSH2 0xC5 PUSH1 0x4 DUP1 CALLDATASIZE SUB DUP2 ADD SWAP1 PUSH2 0xC0 SWAP2 SWAP1 PUSH2 0xD51 JUMP JUMPDEST PUSH2 0x265 JUMP JUMPDEST STOP JUMPDEST CALLVALUE DUP1 ISZERO PUSH2 0xD2 JUMPI PUSH0 PUSH0 REVERT JUMPDEST POP PUSH2 0xDB PUSH2 0x44E JUMP JUMPDEST PUSH1 0x40 MLOAD PUSH2 0xE8 SWAP2 SWAP1 PUSH2 0xD9E JUMP JUMPDEST PUSH1 0x40 MLOAD DUP1 SWAP2 SUB SWAP1 RETURN JUMPDEST PUSH2 0x10B PUSH1 0x4 DUP1 CALLDATASIZE SUB DUP2 ADD SWAP1 PUSH2 0x106 SWAP2 SWAP1 PUSH2 0xDB7 JUMP JUMPDEST PUSH2 0x454 JUMP JUMPDEST STOP JUMPDEST CALLVALUE DUP1 ISZERO PUSH2 0x118 JUMPI PUSH0 PUSH0 REVERT JUMPDEST POP PUSH2 0x133 PUSH1 0x4 DUP1 CALLDATASIZE SUB DUP2 ADD SWAP1 PUSH2 0x12E SWAP2 SWAP1 PUSH2 0xD51 JUMP JUMPDEST PUSH2 0x586 JUMP JUMPDEST STOP JUMPDEST CALLVALUE DUP1 ISZERO PUSH2 0x140 JUMPI PUSH0 PUSH0 REVERT JUMPDEST POP PUSH2 0x15B PUSH1 0x4 DUP1 CALLDATASIZE SUB DUP2 ADD SWAP1 PUSH2 0x156 SWAP2 SWAP1 PUSH2 0xDE2 JUMP JUMPDEST PUSH2 0x619 JUMP JUMPDEST STOP JUMPDEST CALLVALUE DUP1 ISZERO PUSH2 0x168 JUMPI PUSH0 PUSH0 REVERT JUMPDEST POP PUSH2 0x183 PUSH1 0x4 DUP1 CALLDATASIZE SUB DUP2 ADD SWAP1 PUSH2 0x17E SWAP2 SWAP1 PUSH2 0xE32 JUMP JUMPDEST PUSH2 0x812 JUMP JUMPDEST STOP JUMPDEST CALLVALUE DUP1 ISZERO PUSH2 0x190 JUMPI PUSH0 PUSH0 REVERT JUMPDEST POP PUSH2 0x1AB PUSH1 0x4 DUP1 CALLDATASIZE SUB DUP2 ADD SWAP1 PUSH2 0x1A6 SWAP2 SWAP1 PUSH2 0xE5D JUMP JUMPDEST PUSH2 0x92D JUMP JUMPDEST STOP JUMPDEST CALLVALUE DUP1 ISZERO PUSH2 0x1B8 JUMPI PUSH0 PUSH0 REVERT JUMPDEST POP PUSH2 0x1D3 PUSH1 0x4 DUP1 CALLDATASIZE SUB DUP2 ADD SWAP1 PUSH2 0x1CE SWAP2 SWAP1 PUSH2 0xD51 JUMP JUMPDEST PUSH2 0xA89 JUMP JUMPDEST STOP JUMPDEST CALLVALUE DUP1 ISZERO PUSH2 0x1E0 JUMPI PUSH0 PUSH0 REVERT JUMPDEST POP PUSH2 0x1FB PUSH1 0x4 DUP1 CALLDATASIZE SUB DUP2 ADD SWAP1 PUSH2 0x1F6 SWAP2 SWAP1 PUSH2 0xDB7 JUMP JUMPDEST PUSH2 0xC74 JUMP JUMPDEST PUSH1 0x40 MLOAD PUSH2 0x208 SWAP2 SWAP1 PUSH2 0xD9E JUMP JUMPDEST PUSH1 0x40 MLOAD DUP1 SWAP2 SUB SWAP1 RETURN JUMPDEST CALLVALUE DUP1 ISZERO PUSH2 0x21C JUMPI PUSH0 PUSH0 REVERT JUMPDEST POP PUSH2 0x225 PUSH2 0xC88 JUMP JUMPDEST PUSH1 0x40 MLOAD PUSH2 0x232 SWAP2 SWAP1 PUSH2 0xEAA JUMP JUMPDEST PUSH1 0x40 MLOAD DUP1 SWAP2 SUB SWAP1 RETURN JUMPDEST CALLVALUE DUP1 ISZERO PUSH2 0x246 JUMPI PUSH0 PUSH0 REVERT JUMPDEST POP PUSH2 0x24F PUSH2 0xCAD JUMP JUMPDEST PUSH1 0x40 MLOAD PUSH2 0x25C SWAP2 SWAP1 PUSH2 0xEDD JUMP JUMPDEST PUSH1 0x40 MLOAD DUP1 SWAP2 SUB SWAP1 RETURN JUMPDEST PUSH1 0x1 PUSH0 SWAP1 SLOAD SWAP1 PUSH2 0x100 EXP SWAP1 DIV PUSH20 0xFFFFFFFFFFFFFFFFFFFFFFFFFFFFFFFFFFFFFFFF AND PUSH20 0xFFFFFFFFFFFFFFFFFFFFFFFFFFFFFFFFFFFFFFFF AND CALLER PUSH20 0xFFFFFFFFFFFFFFFFFFFFFFFFFFFFFFFFFFFFFFFF AND EQ PUSH2 0x2F4 JUMPI PUSH1 0x40 MLOAD PUSH32 0x8C379A000000000000000000000000000000000000000000000000000000000 DUP2 MSTORE PUSH1 0x4 ADD PUSH2 0x2EB SWAP1 PUSH2 0xF50 JUMP JUMPDEST PUSH1 0x40 MLOAD DUP1 SWAP2 SUB SWAP1 REVERT JUMPDEST PUSH0 PUSH20 0xFFFFFFFFFFFFFFFFFFFFFFFFFFFFFFFFFFFFFFFF AND DUP2 PUSH20 0xFFFFFFFFFFFFFFFFFFFFFFFFFFFFFFFFFFFFFFFF AND SUB PUSH2 0x362 JUMPI PUSH1 0x40 MLOAD PUSH32 0x8C379A000000000000000000000000000000000000000000000000000000000 DUP2 MSTORE PUSH1 0x4 ADD PUSH2 0x359 SWAP1 PUSH2 0xFB8 JUMP JUMPDEST PUSH1 0x40 MLOAD DUP1 SWAP2 SUB SWAP1 REVERT JUMPDEST PUSH0 PUSH0 PUSH0 DUP5 DUP2 MSTORE PUSH1 0x20 ADD SWAP1 DUP2 MSTORE PUSH1 0x20 ADD PUSH0 KECCAK256 SLOAD SWAP1 POP PUSH0 DUP2 GT PUSH2 0x3B8 JUMPI PUSH1 0x40 MLOAD PUSH32 0x8C379A000000000000000000000000000000000000000000000000000000000 DUP2 MSTORE PUSH1 0x4 ADD PUSH2 0x3AF SWAP1 PUSH2 0x1020 JUMP JUMPDEST PUSH1 0x40 MLOAD DUP1 SWAP2 SUB SWAP1 REVERT JUMPDEST PUSH0 PUSH0 PUSH0 DUP6 DUP2 MSTORE PUSH1 0x20 ADD SWAP1 DUP2 MSTORE PUSH1 0x20 ADD PUSH0 KECCAK256 DUP2 SWAP1 SSTORE POP DUP2 PUSH20 0xFFFFFFFFFFFFFFFFFFFFFFFFFFFFFFFFFFFFFFFF AND PUSH2 0x8FC DUP3 SWAP1 DUP2 ISZERO MUL SWAP1 PUSH1 0x40 MLOAD PUSH0 PUSH1 0x40 MLOAD DUP1 DUP4 SUB DUP2 DUP6 DUP9 DUP9 CALL SWAP4 POP POP POP POP ISZERO DUP1 ISZERO PUSH2 0x410 JUMPI RETURNDATASIZE PUSH0 PUSH0 RETURNDATACOPY RETURNDATASIZE PUSH0 REVERT JUMPDEST POP DUP3 PUSH32 0x8F5073D0A7A22BA450E278541077E181AF457BE74BEA91E61F1F99E6BB40748E DUP4 PUSH1 0x40 MLOAD PUSH2 0x441 SWAP2 SWAP1 PUSH2 0xEAA JUMP JUMPDEST PUSH1 0x40 MLOAD DUP1 SWAP2 SUB SWAP1 LOG2 POP POP POP JUMP JUMPDEST PUSH1 0x2 SLOAD DUP2 JUMP JUMPDEST PUSH1 0x1 PUSH0 SWAP1 SLOAD SWAP1 PUSH2 0x100 EXP SWAP1 DIV PUSH20 0xFFFFFFFFFFFFFFFFFFFFFFFFFFFFFFFFFFFFFFFF AND PUSH20 0xFFFFFFFFFFFFFFFFFFFFFFFFFFFFFFFFFFFFFFFF AND CALLER PUSH20 0xFFFFFFFFFFFFFFFFFFFFFFFFFFFFFFFFFFFFFFFF AND EQ PUSH2 0x4E3 JUMPI PUSH1 0x40 MLOAD PUSH32 0x8C379A000000000000000000000000000000000000000000000000000000000 DUP2 MSTORE PUSH1 0x4 ADD PUSH2 0x4DA SWAP1 PUSH2 0xF50 JUMP JUMPDEST PUSH1 0x40 MLOAD DUP1 SWAP2 SUB SWAP1 REVERT JUMPDEST PUSH0 CALLVALUE GT PUSH2 0x525 JUMPI PUSH1 0x40 MLOAD PUSH32 0x8C379A000000000000000000000000000000000000000000000000000000000 DUP2 MSTORE PUSH1 0x4 ADD PUSH2 0x51C SWAP1 PUSH2 0x1088 JUMP JUMPDEST PUSH1 0x40 MLOAD DUP1 SWAP2 SUB SWAP1 REVERT JUMPDEST CALLVALUE PUSH0 PUSH0 DUP4 DUP2 MSTORE PUSH1 0x20 ADD SWAP1 DUP2 MSTORE PUSH1 0x20 ADD PUSH0 KECCAK256 PUSH0 DUP3 DUP3 SLOAD PUSH2 0x544 SWAP2 SWAP1 PUSH2 0x10D3 JUMP JUMPDEST SWAP3 POP POP DUP2 SWAP1 SSTORE POP DUP1 PUSH32 0x26679FA1F3868C950E9362F1106CF73F3318DE0280E0411A3C68E4B463EADD4F CALLVALUE PUSH1 0x40 MLOAD PUSH2 0x57B SWAP2 SWAP1 PUSH2 0xD9E JUMP JUMPDEST PUSH1 0x40 MLOAD DUP1 SWAP2 SUB SWAP1 LOG2 POP JUMP JUMPDEST PUSH1 0x1 PUSH0 SWAP1 SLOAD SWAP1 PUSH2 0x100 EXP SWAP1 DIV PUSH20 0xFFFFFFFFFFFFFFFFFFFFFFFFFFFFFFFFFFFFFFFF AND PUSH20 0xFFFFFFFFFFFFFFFFFFFFFFFFFFFFFFFFFFFFFFFF AND CALLER PUSH20 0xFFFFFFFFFFFFFFFFFFFFFFFFFFFFFFFFFFFFFFFF AND EQ PUSH2 0x615 JUMPI PUSH1 0x40 MLOAD PUSH32 0x8C379A000000000000000000000000000000000000000000000000000000000 DUP2 MSTORE PUSH1 0x4 ADD PUSH2 0x60C SWAP1 PUSH2 0xF50 JUMP JUMPDEST PUSH1 0x40 MLOAD DUP1 SWAP2 SUB SWAP1 REVERT JUMPDEST POP POP JUMP JUMPDEST PUSH1 0x1 PUSH0 SWAP1 SLOAD SWAP1 PUSH2 0x100 EXP SWAP1 DIV PUSH20 0xFFFFFFFFFFFFFFFFFFFFFFFFFFFFFFFFFFFFFFFF AND PUSH20 0xFFFFFFFFFFFFFFFFFFFFFFFFFFFFFFFFFFFFFFFF AND CALLER PUSH20 0xFFFFFFFFFFFFFFFFFFFFFFFFFFFFFFFFFFFFFFFF AND EQ PUSH2 0x6A8 JUMPI PUSH1 0x40 MLOAD PUSH32 0x8C379A000000000000000000000000000000000000000000000000000000000 DUP2 MSTORE PUSH1 0x4 ADD PUSH2 0x69F SWAP1 PUSH2 0xF50 JUMP JUMPDEST PUSH1 0x40 MLOAD DUP1 SWAP2 SUB SWAP1 REVERT JUMPDEST DUP1 PUSH0 PUSH0 DUP6 DUP2 MSTORE PUSH1 0x20 ADD SWAP1 DUP2 MSTORE PUSH1 0x20 ADD PUSH0 KECCAK256 SLOAD LT ISZERO PUSH2 0x6FB JUMPI PUSH1 0x40 MLOAD PUSH32 0x8C379A000000000000000000000000000000000000000000000000000000000 DUP2 MSTORE PUSH1 0x4 ADD PUSH2 0x6F2 SWAP1 PUSH2 0x1150 JUMP JUMPDEST PUSH1 0x40 MLOAD DUP1 SWAP2 SUB SWAP1 REVERT JUMPDEST PUSH0 PUSH20 0xFFFFFFFFFFFFFFFFFFFFFFFFFFFFFFFFFFFFFFFF AND DUP3 PUSH20 0xFFFFFFFFFFFFFFFFFFFFFFFFFFFFFFFFFFFFFFFF AND SUB PUSH2 0x769 JUMPI PUSH1 0x40 MLOAD PUSH32 0x8C379A000000000000000000000000000000000000000000000000000000000 DUP2 MSTORE PUSH1 0x4 ADD PUSH2 0x760 SWAP1 PUSH2 0x11B8 JUMP JUMPDEST PUSH1 0x40 MLOAD DUP1 SWAP2 SUB SWAP1 REVERT JUMPDEST DUP1 PUSH0 PUSH0 DUP6 DUP2 MSTORE PUSH1 0x20 ADD SWAP1 DUP2 MSTORE PUSH1 0x20 ADD PUSH0 KECCAK256 PUSH0 DUP3 DUP3 SLOAD PUSH2 0x788 SWAP2 SWAP1 PUSH2 0x11D6 JUMP JUMPDEST SWAP3 POP POP DUP2 SWAP1 SSTORE POP DUP2 PUSH20 0xFFFFFFFFFFFFFFFFFFFFFFFFFFFFFFFFFFFFFFFF AND PUSH2 0x8FC DUP3 SWAP1 DUP2 ISZERO MUL SWAP1 PUSH1 0x40 MLOAD PUSH0 PUSH1 0x40 MLOAD DUP1 DUP4 SUB DUP2 DUP6 DUP9 DUP9 CALL SWAP4 POP POP POP POP ISZERO DUP1 ISZERO PUSH2 0x7D2 JUMPI RETURNDATASIZE PUSH0 PUSH0 RETURNDATACOPY RETURNDATASIZE PUSH0 REVERT JUMPDEST POP DUP3 PUSH32 0x38FEF0E2638C7BFD9820A74741BD8D5B75996DF52983EE3195E0E6DB53B4FEC4 DUP4 DUP4 PUSH1 0x40 MLOAD PUSH2 0x805 SWAP3 SWAP2 SWAP1 PUSH2 0x1209 JUMP JUMPDEST PUSH1 0x40 MLOAD DUP1 SWAP2 SUB SWAP1 LOG2 POP POP POP JUMP JUMPDEST PUSH1 0x1 PUSH1 0x14 SWAP1 SLOAD SWAP1 PUSH2 0x100 EXP SWAP1 DIV PUSH1 0xFF AND ISZERO PUSH2 0x862 JUMPI PUSH1 0x40 MLOAD PUSH32 0x8C379A000000000000000000000000000000000000000000000000000000000 DUP2 MSTORE PUSH1 0x4 ADD PUSH2 0x859 SWAP1 PUSH2 0x127A JUMP JUMPDEST PUSH1 0x40 MLOAD DUP1 SWAP2 SUB SWAP1 REVERT JUMPDEST PUSH0 PUSH20 0xFFFFFFFFFFFFFFFFFFFFFFFFFFFFFFFFFFFFFFFF AND DUP2 PUSH20 0xFFFFFFFFFFFFFFFFFFFFFFFFFFFFFFFFFFFFFFFF AND SUB PUSH2 0x8D0 JUMPI PUSH1 0x40 MLOAD PUSH32 0x8C379A000000000000000000000000000000000000000000000000000000000 DUP2 MSTORE PUSH1 0x4 ADD PUSH2 0x8C7 SWAP1 PUSH2 0x12E2 JUMP JUMPDEST PUSH1 0x40 MLOAD DUP1 SWAP2 SUB SWAP1 REVERT JUMPDEST DUP1 PUSH1 0x1 PUSH0 PUSH2 0x100 EXP DUP2 SLOAD DUP2 PUSH20 0xFFFFFFFFFFFFFFFFFFFFFFFFFFFFFFFFFFFFFFFF MUL NOT AND SWAP1 DUP4 PUSH20 0xFFFFFFFFFFFFFFFFFFFFFFFFFFFFFFFFFFFFFFFF AND MUL OR SWAP1 SSTORE POP PUSH1 0x1 DUP1 PUSH1 0x14 PUSH2 0x100 EXP DUP2 SLOAD DUP2 PUSH1 0xFF MUL NOT AND SWAP1 DUP4 ISZERO ISZERO MUL OR SWAP1 SSTORE POP POP JUMP JUMPDEST PUSH1 0x1 PUSH0 SWAP1 SLOAD SWAP1 PUSH2 0x100 EXP SWAP1 DIV PUSH20 0xFFFFFFFFFFFFFFFFFFFFFFFFFFFFFFFFFFFFFFFF AND PUSH20 0xFFFFFFFFFFFFFFFFFFFFFFFFFFFFFFFFFFFFFFFF AND CALLER PUSH20 0xFFFFFFFFFFFFFFFFFFFFFFFFFFFFFFFFFFFFFFFF AND EQ PUSH2 0x9BC JUMPI PUSH1 0x40 MLOAD PUSH32 0x8C379A000000000000000000000000000000000000000000000000000000000 DUP2 MSTORE PUSH1 0x4 ADD PUSH2 0x9B3 SWAP1 PUSH2 0xF50 JUMP JUMPDEST PUSH1 0x40 MLOAD DUP1 SWAP2 SUB SWAP1 REVERT JUMPDEST DUP1 PUSH0 PUSH0 DUP5 DUP2 MSTORE PUSH1 0x20 ADD SWAP1 DUP2 MSTORE PUSH1 0x20 ADD PUSH0 KECCAK256 SLOAD LT ISZERO PUSH2 0xA0F JUMPI PUSH1 0x40 MLOAD PUSH32 0x8C379A000000000000000000000000000000000000000000000000000000000 DUP2 MSTORE PUSH1 0x4 ADD PUSH2 0xA06 SWAP1 PUSH2 0x1150 JUMP JUMPDEST PUSH1 0x40 MLOAD DUP1 SWAP2 SUB SWAP1 REVERT JUMPDEST DUP1 PUSH0 PUSH0 DUP5 DUP2 MSTORE PUSH1 0x20 ADD SWAP1 DUP2 MSTORE PUSH1 0x20 ADD PUSH0 KECCAK256 PUSH0 DUP3 DUP3 SLOAD PUSH2 0xA2E SWAP2 SWAP1 PUSH2 0x11D6 JUMP JUMPDEST SWAP3 POP POP DUP2 SWAP1 SSTORE POP DUP1 PUSH1 0x2 PUSH0 DUP3 DUP3 SLOAD PUSH2 0xA46 SWAP2 SWAP1 PUSH2 0x10D3 JUMP JUMPDEST SWAP3 POP POP DUP2 SWAP1 SSTORE POP DUP2 PUSH32 0x901EB85AD066CED1D2FB2AE0A5A9E7A4E08A8183E432D4F3586C921023641AA9 DUP3 PUSH1 0x40 MLOAD PUSH2 0xA7D SWAP2 SWAP1 PUSH2 0xD9E JUMP JUMPDEST PUSH1 0x40 MLOAD DUP1 SWAP2 SUB SWAP1 LOG2 POP POP JUMP JUMPDEST PUSH1 0x1 PUSH0 SWAP1 SLOAD SWAP1 PUSH2 0x100 EXP SWAP1 DIV PUSH20 0xFFFFFFFFFFFFFFFFFFFFFFFFFFFFFFFFFFFFFFFF AND PUSH20 0xFFFFFFFFFFFFFFFFFFFFFFFFFFFFFFFFFFFFFFFF AND CALLER PUSH20 0xFFFFFFFFFFFFFFFFFFFFFFFFFFFFFFFFFFFFFFFF AND EQ PUSH2 0xB18 JUMPI PUSH1 0x40 MLOAD PUSH32 0x8C379A000000000000000000000000000000000000000000000000000000000 DUP2 MSTORE PUSH1 0x4 ADD PUSH2 0xB0F SWAP1 PUSH2 0xF50 JUMP JUMPDEST PUSH1 0x40 MLOAD DUP1 SWAP2 SUB SWAP1 REVERT JUMPDEST PUSH0 PUSH0 PUSH0 DUP5 DUP2 MSTORE PUSH1 0x20 ADD SWAP1 DUP2 MSTORE PUSH1 0x20 ADD PUSH0 KECCAK256 SLOAD SWAP1 POP PUSH0 DUP2 GT PUSH2 0xB6E JUMPI PUSH1 0x40 MLOAD PUSH32 0x8C379A000000000000000000000000000000000000000000000000000000000 DUP2 MSTORE PUSH1 0x4 ADD PUSH2 0xB65 SWAP1 PUSH2 0x134A JUMP JUMPDEST PUSH1 0x40 MLOAD DUP1 SWAP2 SUB SWAP1 REVERT JUMPDEST PUSH0 PUSH20 0xFFFFFFFFFFFFFFFFFFFFFFFFFFFFFFFFFFFFFFFF AND DUP3 PUSH20 0xFFFFFFFFFFFFFFFFFFFFFFFFFFFFFFFFFFFFFFFF AND SUB PUSH2 0xBDC JUMPI PUSH1 0x40 MLOAD PUSH32 0x8C379A000000000000000000000000000000000000000000000000000000000 DUP2 MSTORE PUSH1 0x4 ADD PUSH2 0xBD3 SWAP1 PUSH2 0x13B2 JUMP JUMPDEST PUSH1 0x40 MLOAD DUP1 SWAP2 SUB SWAP1 REVERT JUMPDEST PUSH0 PUSH0 PUSH0 DUP6 DUP2 MSTORE PUSH1 0x20 ADD SWAP1 DUP2 MSTORE PUSH1 0x20 ADD PUSH0 KECCAK256 DUP2 SWAP1 SSTORE POP DUP2 PUSH20 0xFFFFFFFFFFFFFFFFFFFFFFFFFFFFFFFFFFFFFFFF AND PUSH2 0x8FC DUP3 SWAP1 DUP2 ISZERO MUL SWAP1 PUSH1 0x40 MLOAD PUSH0 PUSH1 0x40 MLOAD DUP1 DUP4 SUB DUP2 DUP6 DUP9 DUP9 CALL SWAP4 POP POP POP POP ISZERO DUP1 ISZERO PUSH2 0xC34 JUMPI RETURNDATASIZE PUSH0 PUSH0 RETURNDATACOPY RETURNDATASIZE PUSH0 REVERT JUMPDEST POP DUP3 PUSH32 0x80B577B4FC190AB86D963549E29F496AFD079C5D81A2480D61217D4B5060A28C DUP4 DUP4 PUSH1 0x40 MLOAD PUSH2 0xC67 SWAP3 SWAP2 SWAP1 PUSH2 0x1209 JUMP JUMPDEST PUSH1 0x40 MLOAD DUP1 SWAP2 SUB SWAP1 LOG2 POP POP POP JUMP JUMPDEST PUSH0 PUSH1 0x20 MSTORE DUP1 PUSH0 MSTORE PUSH1 0x40 PUSH0 KECCAK256 PUSH0 SWAP2 POP SWAP1 POP SLOAD DUP2 JUMP JUMPDEST PUSH1 0x1 PUSH0 SWAP1 SLOAD SWAP1 PUSH2 0x100 EXP SWAP1 DIV PUSH20 0xFFFFFFFFFFFFFFFFFFFFFFFFFFFFFFFFFFFFFFFF AND DUP2 JUMP JUMPDEST PUSH1 0x1 PUSH1 0x14 SWAP1 SLOAD SWAP1 PUSH2 0x100 EXP SWAP1 DIV PUSH1 0xFF AND DUP2 JUMP JUMPDEST PUSH0 PUSH0 REVERT JUMPDEST PUSH0 DUP2 SWAP1 POP SWAP2 SWAP1 POP JUMP JUMPDEST PUSH2 0xCD6 DUP2 PUSH2 0xCC4 JUMP JUMPDEST DUP2 EQ PUSH2 0xCE0 JUMPI PUSH0 PUSH0 REVERT JUMPDEST POP JUMP JUMPDEST PUSH0 DUP2 CALLDATALOAD SWAP1 POP PUSH2 0xCF1 DUP2 PUSH2 0xCCD JUMP JUMPDEST SWAP3 SWAP2 POP POP JUMP JUMPDEST PUSH0 PUSH20 0xFFFFFFFFFFFFFFFFFFFFFFFFFFFFFFFFFFFFFFFF DUP3 AND SWAP1 POP SWAP2 SWAP1 POP JUMP JUMPDEST PUSH0 PUSH2 0xD20 DUP3 PUSH2 0xCF7 JUMP JUMPDEST SWAP1 POP SWAP2 SWAP1 POP JUMP JUMPDEST PUSH2 0xD30 DUP2 PUSH2 0xD16 JUMP JUMPDEST DUP2 EQ PUSH2 0xD3A JUMPI PUSH0 PUSH0 REVERT JUMPDEST POP JUMP JUMPDEST PUSH0 DUP2 CALLDATALOAD SWAP1 POP PUSH2 0xD4B DUP2 PUSH2 0xD27 JUMP JUMPDEST SWAP3 SWAP2 POP POP JUMP JUMPDEST PUSH0 PUSH0 PUSH1 0x40 DUP4 DUP6 SUB SLT ISZERO PUSH2 0xD67 JUMPI PUSH2 0xD66 PUSH2 0xCC0 JUMP JUMPDEST JUMPDEST PUSH0 PUSH2 0xD74 DUP6 DUP3 DUP7 ADD PUSH2 0xCE3 JUMP JUMPDEST SWAP3 POP POP PUSH1 0x20 PUSH2 0xD85 DUP6 DUP3 DUP7 ADD PUSH2 0xD3D JUMP JUMPDEST SWAP2 POP POP SWAP3 POP SWAP3 SWAP1 POP JUMP JUMPDEST PUSH2 0xD98 DUP2 PUSH2 0xCC4 JUMP JUMPDEST DUP3 MSTORE POP POP JUMP JUMPDEST PUSH0 PUSH1 0x20 DUP3 ADD SWAP1 POP PUSH2 0xDB1 PUSH0 DUP4 ADD DUP5 PUSH2 0xD8F JUMP JUMPDEST SWAP3 SWAP2 POP POP JUMP JUMPDEST PUSH0 PUSH1 0x20 DUP3 DUP5 SUB SLT ISZERO PUSH2 0xDCC JUMPI PUSH2 0xDCB PUSH2 0xCC0 JUMP JUMPDEST JUMPDEST PUSH0 PUSH2 0xDD9 DUP5 DUP3 DUP6 ADD PUSH2 0xCE3 JUMP JUMPDEST SWAP2 POP POP SWAP3 SWAP2 POP POP JUMP JUMPDEST PUSH0 PUSH0 PUSH0 PUSH1 0x60 DUP5 DUP7 SUB SLT ISZERO PUSH2 0xDF9 JUMPI PUSH2 0xDF8 PUSH2 0xCC0 JUMP JUMPDEST JUMPDEST PUSH0 PUSH2 0xE06 DUP7 DUP3 DUP8 ADD PUSH2 0xCE3 JUMP JUMPDEST SWAP4 POP POP PUSH1 0x20 PUSH2 0xE17 DUP7 DUP3 DUP8 ADD PUSH2 0xD3D JUMP JUMPDEST SWAP3 POP POP PUSH1 0x40 PUSH2 0xE28 DUP7 DUP3 DUP8 ADD PUSH2 0xCE3 JUMP JUMPDEST SWAP2 POP POP SWAP3 POP SWAP3 POP SWAP3 JUMP JUMPDEST PUSH0 PUSH1 0x20 DUP3 DUP5 SUB SLT ISZERO PUSH2 0xE47 JUMPI PUSH2 0xE46 PUSH2 0xCC0 JUMP JUMPDEST JUMPDEST PUSH0 PUSH2 0xE54 DUP5 DUP3 DUP6 ADD PUSH2 0xD3D JUMP JUMPDEST SWAP2 POP POP SWAP3 SWAP2 POP POP JUMP JUMPDEST PUSH0 PUSH0 PUSH1 0x40 DUP4 DUP6 SUB SLT ISZERO PUSH2 0xE73 JUMPI PUSH2 0xE72 PUSH2 0xCC0 JUMP JUMPDEST JUMPDEST PUSH0 PUSH2 0xE80 DUP6 DUP3 DUP7 ADD PUSH2 0xCE3 JUMP JUMPDEST SWAP3 POP POP PUSH1 0x20 PUSH2 0xE91 DUP6 DUP3 DUP7 ADD PUSH2 0xCE3 JUMP JUMPDEST SWAP2 POP POP SWAP3 POP SWAP3 SWAP1 POP JUMP JUMPDEST PUSH2 0xEA4 DUP2 PUSH2 0xD16 JUMP JUMPDEST DUP3 MSTORE POP POP JUMP JUMPDEST PUSH0 PUSH1 0x20 DUP3 ADD SWAP1 POP PUSH2 0xEBD PUSH0 DUP4 ADD DUP5 PUSH2 0xE9B JUMP JUMPDEST SWAP3 SWAP2 POP POP JUMP JUMPDEST PUSH0 DUP2 ISZERO ISZERO SWAP1 POP SWAP2 SWAP1 POP JUMP JUMPDEST PUSH2 0xED7 DUP2 PUSH2 0xEC3 JUMP JUMPDEST DUP3 MSTORE POP POP JUMP JUMPDEST PUSH0 PUSH1 0x20 DUP3 ADD SWAP1 POP PUSH2 0xEF0 PUSH0 DUP4 ADD DUP5 PUSH2 0xECE JUMP JUMPDEST SWAP3 SWAP2 POP POP JUMP JUMPDEST PUSH0 DUP3 DUP3 MSTORE PUSH1 0x20 DUP3 ADD SWAP1 POP SWAP3 SWAP2 POP POP JUMP JUMPDEST PUSH32 0x4F6E6C7920666163746F72792063616E206F7065726174650000000000000000 PUSH0 DUP3 ADD MSTORE POP JUMP JUMPDEST PUSH0 PUSH2 0xF3A PUSH1 0x18 DUP4 PUSH2 0xEF6 JUMP JUMPDEST SWAP2 POP PUSH2 0xF45 DUP3 PUSH2 0xF06 JUMP JUMPDEST PUSH1 0x20 DUP3 ADD SWAP1 POP SWAP2 SWAP1 POP JUMP JUMPDEST PUSH0 PUSH1 0x20 DUP3 ADD SWAP1 POP DUP2 DUP2 SUB PUSH0 DUP4 ADD MSTORE PUSH2 0xF67 DUP2 PUSH2 0xF2E JUMP JUMPDEST SWAP1 POP SWAP2 SWAP1 POP JUMP JUMPDEST PUSH32 0x496E76616C69642077696E6E6572206164647265737300000000000000000000 PUSH0 DUP3 ADD MSTORE POP JUMP JUMPDEST PUSH0 PUSH2 0xFA2 PUSH1 0x16 DUP4 PUSH2 0xEF6 JUMP JUMPDEST SWAP2 POP PUSH2 0xFAD DUP3 PUSH2 0xF6E JUMP JUMPDEST PUSH1 0x20 DUP3 ADD SWAP1 POP SWAP2 SWAP1 POP JUMP JUMPDEST PUSH0 PUSH1 0x20 DUP3 ADD SWAP1 POP DUP2 DUP2 SUB PUSH0 DUP4 ADD MSTORE PUSH2 0xFCF DUP2 PUSH2 0xF96 JUMP JUMPDEST SWAP1 POP SWAP2 SWAP1 POP JUMP JUMPDEST PUSH32 0x4E6F2066756E647320617661696C61626C650000000000000000000000000000 PUSH0 DUP3 ADD MSTORE POP JUMP JUMPDEST PUSH0 PUSH2 0x100A PUSH1 0x12 DUP4 PUSH2 0xEF6 JUMP JUMPDEST SWAP2 POP PUSH2 0x1015 DUP3 PUSH2 0xFD6 JUMP JUMPDEST PUSH1 0x20 DUP3 ADD SWAP1 POP SWAP2 SWAP1 POP JUMP JUMPDEST PUSH0 PUSH1 0x20 DUP3 ADD SWAP1 POP DUP2 DUP2 SUB PUSH0 DUP4 ADD MSTORE PUSH2 0x1037 DUP2 PUSH2 0xFFE JUMP JUMPDEST SWAP1 POP SWAP2 SWAP1 POP JUMP JUMPDEST PUSH32 0x4E6F2066756E64732073656E7400000000000000000000000000000000000000 PUSH0 DUP3 ADD MSTORE POP JUMP JUMPDEST PUSH0 PUSH2 0x1072 PUSH1 0xD DUP4 PUSH2 0xEF6 JUMP JUMPDEST SWAP2 POP PUSH2 0x107D DUP3 PUSH2 0x103E JUMP JUMPDEST PUSH1 0x20 DUP3 ADD SWAP1 POP SWAP2 SWAP1 POP JUMP JUMPDEST PUSH0 PUSH1 0x20 DUP3 ADD SWAP1 POP DUP2 DUP2 SUB PUSH0 DUP4 ADD MSTORE PUSH2 0x109F DUP2 PUSH2 0x1066 JUMP JUMPDEST SWAP1 POP SWAP2 SWAP1 POP JUMP JUMPDEST PUSH32 0x4E487B7100000000000000000000000000000000000000000000000000000000 PUSH0 MSTORE PUSH1 0x11 PUSH1 0x4 MSTORE PUSH1 0x24 PUSH0 REVERT JUMPDEST PUSH0 PUSH2 0x10DD DUP3 PUSH2 0xCC4 JUMP JUMPDEST SWAP2 POP PUSH2 0x10E8 DUP4 PUSH2 0xCC4 JUMP JUMPDEST SWAP3 POP DUP3 DUP3 ADD SWAP1 POP DUP1 DUP3 GT ISZERO PUSH2 0x1100 JUMPI PUSH2 0x10FF PUSH2 0x10A6 JUMP JUMPDEST JUMPDEST SWAP3 SWAP2 POP POP JUMP JUMPDEST PUSH32 0x496E73756666696369656E74207461736B2066756E6473000000000000000000 PUSH0 DUP3 ADD MSTORE POP JUMP JUMPDEST PUSH0 PUSH2 0x113A PUSH1 0x17 DUP4 PUSH2 0xEF6 JUMP JUMPDEST SWAP2 POP PUSH2 0x1145 DUP3 PUSH2 0x1106 JUMP JUMPDEST PUSH1 0x20 DUP3 ADD SWAP1 POP SWAP2 SWAP1 POP JUMP JUMPDEST PUSH0 PUSH1 0x20 DUP3 ADD SWAP1 POP DUP2 DUP2 SUB PUSH0 DUP4 ADD MSTORE PUSH2 0x1167 DUP2 PUSH2 0x112E JUMP JUMPDEST SWAP1 POP SWAP2 SWAP1 POP JUMP JUMPDEST PUSH32 0x496E76616C6964206A75726F7220616464726573730000000000000000000000 PUSH0 DUP3 ADD MSTORE POP JUMP JUMPDEST PUSH0 PUSH2 0x11A2 PUSH1 0x15 DUP4 PUSH2 0xEF6 JUMP JUMPDEST SWAP2 POP PUSH2 0x11AD DUP3 PUSH2 0x116E JUMP JUMPDEST PUSH1 0x20 DUP3 ADD SWAP1 POP SWAP2 SWAP1 POP JUMP JUMPDEST PUSH0 PUSH1 0x20 DUP3 ADD SWAP1 POP DUP2 DUP2 SUB PUSH0 DUP4 ADD MSTORE PUSH2 0x11CF DUP2 PUSH2 0x1196 JUMP JUMPDEST SWAP1 POP SWAP2 SWAP1 POP JUMP JUMPDEST PUSH0 PUSH2 0x11E0 DUP3 PUSH2 0xCC4 JUMP JUMPDEST SWAP2 POP PUSH2 0x11EB DUP4 PUSH2 0xCC4 JUMP JUMPDEST SWAP3 POP DUP3 DUP3 SUB SWAP1 POP DUP2 DUP2 GT ISZERO PUSH2 0x1203 JUMPI PUSH2 0x1202 PUSH2 0x10A6 JUMP JUMPDEST JUMPDEST SWAP3 SWAP2 POP POP JUMP JUMPDEST PUSH0 PUSH1 0x40 DUP3 ADD SWAP1 POP PUSH2 0x121C PUSH0 DUP4 ADD DUP6 PUSH2 0xE9B JUMP JUMPDEST PUSH2 0x1229 PUSH1 0x20 DUP4 ADD DUP5 PUSH2 0xD8F JUMP JUMPDEST SWAP4 SWAP3 POP POP POP JUMP JUMPDEST PUSH32 0x466163746F727920616C72656164792073657400000000000000000000000000 PUSH0 DUP3 ADD MSTORE POP JUMP JUMPDEST PUSH0 PUSH2 0x1264 PUSH1 0x13 DUP4 PUSH2 0xEF6 JUMP JUMPDEST SWAP2 POP PUSH2 0x126F DUP3 PUSH2 0x1230 JUMP JUMPDEST PUSH1 0x20 DUP3 ADD SWAP1 POP SWAP2 SWAP1 POP JUMP JUMPDEST PUSH0 PUSH1 0x20 DUP3 ADD SWAP1 POP DUP2 DUP2 SUB PUSH0 DUP4 ADD MSTORE PUSH2 0x1291 DUP2 PUSH2 0x1258 JUMP JUMPDEST SWAP1 POP SWAP2 SWAP1 POP JUMP JUMPDEST PUSH32 0x496E76616C696420616464726573730000000000000000000000000000000000 PUSH0 DUP3 ADD MSTORE POP JUMP JUMPDEST PUSH0 PUSH2 0x12CC PUSH1 0xF DUP4 PUSH2 0xEF6 JUMP JUMPDEST SWAP2 POP PUSH2 0x12D7 DUP3 PUSH2 0x1298 JUMP JUMPDEST PUSH1 0x20 DUP3 ADD SWAP1 POP SWAP2 SWAP1 POP JUMP JUMPDEST PUSH0 PUSH1 0x20 DUP3 ADD SWAP1 POP DUP2 DUP2 SUB PUSH0 DUP4 ADD MSTORE PUSH2 0x12F9 DUP2 PUSH2 0x12C0 JUMP JUMPDEST SWAP1 POP SWAP2 SWAP1 POP JUMP JUMPDEST PUSH32 0x4E6F2066756E647320746F20726566756E640000000000000000000000000000 PUSH0 DUP3 ADD MSTORE POP JUMP JUMPDEST PUSH0 PUSH2 0x1334 PUSH1 0x12 DUP4 PUSH2 0xEF6 JUMP JUMPDEST SWAP2 POP PUSH2 0x133F DUP3 PUSH2 0x1300 JUMP JUMPDEST PUSH1 0x20 DUP3 ADD SWAP1 POP SWAP2 SWAP1 POP JUMP JUMPDEST PUSH0 PUSH1 0x20 DUP3 ADD SWAP1 POP DUP2 DUP2 SUB PUSH0 DUP4 ADD MSTORE PUSH2 0x1361 DUP2 PUSH2 0x1328 JUMP JUMPDEST SWAP1 POP SWAP2 SWAP1 POP JUMP JUMPDEST PUSH32 0x496E76616C69642063726561746F722061646472657373000000000000000000 PUSH0 DUP3 ADD MSTORE POP JUMP JUMPDEST PUSH0 PUSH2 0x139C PUSH1 0x17 DUP4 PUSH2 0xEF6 JUMP JUMPDEST SWAP2 POP PUSH2 0x13A7 DUP3 PUSH2 0x1368 JUMP JUMPDEST PUSH1 0x20 DUP3 ADD SWAP1 POP SWAP2 SWAP1 POP JUMP JUMPDEST PUSH0 PUSH1 0x20 DUP3 ADD SWAP1 POP DUP2 DUP2 SUB PUSH0 DUP4 ADD MSTORE PUSH2 0x13C9 DUP2 PUSH2 0x1390 JUMP JUMPDEST SWAP1 POP SWAP2 SWAP1 POP JUMP INVALID LOG2 PUSH5 0x6970667358 0x22 SLT KECCAK256 BALANCE SWAP15 0xC XOR CALLDATACOPY CALLVALUE CREATE2 EXTCODESIZE SWAP3 PUSH25 0xBBEECA813765F8FF75BA732A14A576491F9A6A370ACB64736F PUSH13 0x634300081E0033000000000000 "
				},
				"gasEstimates": {
					"creation": {
						"codeDepositCost": "1025200",
						"executionCost": "infinite",
						"totalCost": "infinite"
					},
					"external": {
						"addToPool(uint256,uint256)": "infinite",
						"depositFunds(uint256)": "infinite",
						"factory()": "2596",
						"factorySet()": "2627",
						"platformPool()": "2448",
						"refundFunds(uint256,address)": "infinite",
						"releaseFunds(uint256,address)": "infinite",
						"rewardJuror(uint256,address,uint256)": "infinite",
						"setFactory(address)": "51272",
						"slashDeposit(uint256,address)": "3135",
						"taskFunds(uint256)": "infinite"
					}
				},
				"methodIdentifiers": {
					"addToPool(uint256,uint256)": "7364fae8",
					"depositFunds(uint256)": "3b76594d",
					"factory()": "c45a0155",
					"factorySet()": "e21875e2",
					"platformPool()": "33518806",
					"refundFunds(uint256,address)": "77969929",
					"releaseFunds(uint256,address)": "1af23a59",
					"rewardJuror(uint256,address,uint256)": "564fe31e",
					"setFactory(address)": "5bb47808",
					"slashDeposit(uint256,address)": "4283271c",
					"taskFunds(uint256)": "8833c4c3"
				}
			},
			"storageLayout": {
				"storage": [
					{
						"astId": 5,
						"contract": "contracts/contracts/Escrow.sol:Escrow",
						"label": "taskFunds",
						"offset": 0,
						"slot": "0",
						"type": "t_mapping(t_uint256,t_uint256)"
					},
					{
						"astId": 7,
						"contract": "contracts/contracts/Escrow.sol:Escrow",
						"label": "factory",
						"offset": 0,
						"slot": "1",
						"type": "t_address"
					},
					{
						"astId": 10,
						"contract": "contracts/contracts/Escrow.sol:Escrow",
						"label": "factorySet",
						"offset": 20,
						"slot": "1",
						"type": "t_bool"
					},
					{
						"astId": 12,
						"contract": "contracts/contracts/Escrow.sol:Escrow",
						"label": "platformPool",
						"offset": 0,
						"slot": "2",
						"type": "t_uint256"
					}
				],
				"types": {
					"t_address": {
						"encoding": "inplace",
						"label": "address",
						"numberOfBytes": "20"
					},
					"t_bool": {
						"encoding": "inplace",
						"label": "bool",
						"numberOfBytes": "1"
					},
					"t_mapping(t_uint256,t_uint256)": {
						"encoding": "mapping",
						"key": "t_uint256",
						"label": "mapping(uint256 => uint256)",
						"numberOfBytes": "32",
						"value": "t_uint256"
					},
					"t_uint256": {
						"encoding": "inplace",
						"label": "uint256",
						"numberOfBytes": "32"
					}
				}
			},
			"userdoc": {
				"kind": "user",
				"methods": {},
				"version": 1
			}
		}
	}
}