{
	"contracts/DisputeDAO.sol": {
		"DisputeDAO": {
			"abi": [
				{
					"inputs": [
						{
							"internalType": "address",
							"name": "_taskFactory",
							"type": "address"
						}
					],
					"stateMutability": "nonpayable",
					"type": "constructor"
				},
				{
					"anonymous": false,
					"inputs": [
						{
							"indexed": true,
							"internalType": "uint256",
							"name": "disputeId",
							"type": "uint256"
						},
						{
							"indexed": false,
							"internalType": "address",
							"name": "winner",
							"type": "address"
						}
					],
					"name": "DisputeResolved",
					"type": "event"
				},
				{
					"anonymous": false,
					"inputs": [
						{
							"indexed": true,
							"internalType": "uint256",
							"name": "disputeId",
							"type": "uint256"
						},
						{
							"indexed": false,
							"internalType": "address[]",
							"name": "jurors",
							"type": "address[]"
						}
					],
					"name": "DisputeStarted",
					"type": "event"
				},
				{
					"anonymous": false,
					"inputs": [
						{
							"indexed": true,
							"internalType": "address",
							"name": "juror",
							"type": "address"
						},
						{
							"indexed": false,
							"internalType": "uint256",
							"name": "amount",
							"type": "uint256"
						}
					],
					"name": "JurorStaked",
					"type": "event"
				},
				{
					"anonymous": false,
					"inputs": [
						{
							"indexed": true,
							"internalType": "address",
							"name": "juror",
							"type": "address"
						},
						{
							"indexed": false,
							"internalType": "uint256",
							"name": "amount",
							"type": "uint256"
						}
					],
					"name": "JurorUnstaked",
					"type": "event"
				},
				{
					"anonymous": false,
					"inputs": [
						{
							"indexed": true,
							"internalType": "uint256",
							"name": "disputeId",
							"type": "uint256"
						},
						{
							"indexed": true,
							"internalType": "address",
							"name": "juror",
							"type": "address"
						},
						{
							"indexed": false,
							"internalType": "address",
							"name": "winner",
							"type": "address"
						}
					],
					"name": "Voted",
					"type": "event"
				},
				{
					"inputs": [
						{
							"internalType": "uint256",
							"name": "",
							"type": "uint256"
						},
						{
							"internalType": "address",
							"name": "",
							"type": "address"
						}
					],
					"name": "candidateVotes",
					"outputs": [
						{
							"internalType": "uint256",
							"name": "",
							"type": "uint256"
						}
					],
					"stateMutability": "view",
					"type": "function"
				},
				{
					"inputs": [
						{
							"internalType": "uint256",
							"name": "",
							"type": "uint256"
						},
						{
							"internalType": "uint256",
							"name": "",
							"type": "uint256"
						}
					],
					"name": "disputeJurors",
					"outputs": [
						{
							"internalType": "address",
							"name": "",
							"type": "address"
						}
					],
					"stateMutability": "view",
					"type": "function"
				},
				{
					"inputs": [],
					"name": "factorySet",
					"outputs": [
						{
							"internalType": "bool",
							"name": "",
							"type": "bool"
						}
					],
					"stateMutability": "view",
					"type": "function"
				},
				{
					"inputs": [],
					"name": "getActiveJurors",
					"outputs": [
						{
							"internalType": "address[]",
							"name": "",
							"type": "address[]"
						}
					],
					"stateMutability": "view",
					"type": "function"
				},
				{
					"inputs": [
						{
							"internalType": "uint256",
							"name": "disputeId",
							"type": "uint256"
						}
					],
					"name": "getDisputeJurors",
					"outputs": [
						{
							"internalType": "address[]",
							"name": "",
							"type": "address[]"
						}
					],
					"stateMutability": "view",
					"type": "function"
				},
				{
					"inputs": [
						{
							"internalType": "address",
							"name": "_jurorAddr",
							"type": "address"
						}
					],
					"name": "getJurorInfo",
					"outputs": [
						{
							"internalType": "uint256",
							"name": "stakeAmount",
							"type": "uint256"
						},
						{
							"internalType": "bool",
							"name": "isActive",
							"type": "bool"
						},
						{
							"internalType": "uint256",
							"name": "lastDisputeId",
							"type": "uint256"
						}
					],
					"stateMutability": "view",
					"type": "function"
				},
				{
					"inputs": [
						{
							"internalType": "uint256",
							"name": "disputeId",
							"type": "uint256"
						}
					],
					"name": "handleDispute",
					"outputs": [],
					"stateMutability": "nonpayable",
					"type": "function"
				},
				{
					"inputs": [
						{
							"internalType": "uint256",
							"name": "",
							"type": "uint256"
						},
						{
							"internalType": "address",
							"name": "",
							"type": "address"
						}
					],
					"name": "hasVoted",
					"outputs": [
						{
							"internalType": "bool",
							"name": "",
							"type": "bool"
						}
					],
					"stateMutability": "view",
					"type": "function"
				},
				{
					"inputs": [],
					"name": "jurorCooldown",
					"outputs": [
						{
							"internalType": "uint256",
							"name": "",
							"type": "uint256"
						}
					],
					"stateMutability": "view",
					"type": "function"
				},
				{
					"inputs": [
						{
							"internalType": "uint256",
							"name": "",
							"type": "uint256"
						}
					],
					"name": "jurorList",
					"outputs": [
						{
							"internalType": "address",
							"name": "",
							"type": "address"
						}
					],
					"stateMutability": "view",
					"type": "function"
				},
				{
					"inputs": [
						{
							"internalType": "address",
							"name": "",
							"type": "address"
						}
					],
					"name": "jurors",
					"outputs": [
						{
							"internalType": "address",
							"name": "addr",
							"type": "address"
						},
						{
							"internalType": "uint256",
							"name": "stakeAmount",
							"type": "uint256"
						},
						{
							"internalType": "bool",
							"name": "isActive",
							"type": "bool"
						},
						{
							"internalType": "uint256",
							"name": "lastDisputeId",
							"type": "uint256"
						}
					],
					"stateMutability": "view",
					"type": "function"
				},
				{
					"inputs": [],
					"name": "jurorsPerDispute",
					"outputs": [
						{
							"internalType": "uint256",
							"name": "",
							"type": "uint256"
						}
					],
					"stateMutability": "view",
					"type": "function"
				},
				{
					"inputs": [],
					"name": "minStake",
					"outputs": [
						{
							"internalType": "uint256",
							"name": "",
							"type": "uint256"
						}
					],
					"stateMutability": "view",
					"type": "function"
				},
				{
					"inputs": [
						{
							"internalType": "address",
							"name": "_factory",
							"type": "address"
						}
					],
					"name": "setFactory",
					"outputs": [],
					"stateMutability": "nonpayable",
					"type": "function"
				},
				{
					"inputs": [],
					"name": "stake",
					"outputs": [],
					"stateMutability": "payable",
					"type": "function"
				},
				{
					"inputs": [],
					"name": "taskFactory",
					"outputs": [
						{
							"internalType": "address",
							"name": "",
							"type": "address"
						}
					],
					"stateMutability": "view",
					"type": "function"
				},
				{
					"inputs": [],
					"name": "unstake",
					"outputs": [],
					"stateMutability": "nonpayable",
					"type": "function"
				},
				{
					"inputs": [
						{
							"internalType": "uint256",
							"name": "disputeId",
							"type": "uint256"
						},
						{
							"internalType": "address",
							"name": "winner",
							"type": "address"
						}
					],
					"name": "vote",
					"outputs": [],
					"stateMutability": "nonpayable",
					"type": "function"
				},
				{
					"inputs": [
						{
							"internalType": "uint256",
							"name": "",
							"type": "uint256"
						}
					],
					"name": "voteCount",
					"outputs": [
						{
							"internalType": "uint256",
							"name": "",
							"type": "uint256"
						}
					],
					"stateMutability": "view",
					"type": "function"
				},
				{
					"inputs": [
						{
							"internalType": "uint256",
							"name": "",
							"type": "uint256"
						},
						{
							"internalType": "address",
							"name": "",
							"type": "address"
						}
					],
					"name": "votes",
					"outputs": [
						{
							"internalType": "address",
							"name": "",
							"type": "address"
						}
					],
					"stateMutability": "view",
					"type": "function"
				}
			],
			"devdoc": {
				"kind": "dev",
				"methods": {},
				"version": 1
			},
			"evm": {
				"assembly": "    /* \"contracts/DisputeDAO.sol\":61:8326  contract DisputeDAO {... */\n  mstore(0x40, 0x80)\n    /* \"contracts/DisputeDAO.sol\":439:448  0.1 ether */\n  0x016345785d8a0000\n    /* \"contracts/DisputeDAO.sol\":413:448  uint256 public minStake = 0.1 ether */\n  0x02\n  sstore\n    /* \"contracts/DisputeDAO.sol\":534:535  3 */\n  0x03\n    /* \"contracts/DisputeDAO.sol\":500:535  uint256 public jurorsPerDispute = 3 */\n  dup1\n  dup1\n  sstore\n    /* \"contracts/DisputeDAO.sol\":575:605  bool public factorySet = false */\n  0x04\n  dup1\n  sload\n  not(shl(0xa0, 0xff))\n  and\n  swap1\n  sstore\n    /* \"contracts/DisputeDAO.sol\":612:644  uint256 public jurorCooldown = 3 */\n  0x05\n  sstore\n    /* \"contracts/DisputeDAO.sol\":1590:1728  constructor(address _taskFactory) {... */\n  callvalue\n  dup1\n  iszero\n  tag_1\n  jumpi\n  revert(0x00, 0x00)\ntag_1:\n  pop\n  mload(0x40)\n  sub(codesize, bytecodeSize)\n  dup1\n  bytecodeSize\n  dup4\n  codecopy\n  dup2\n  add\n  0x40\n  dup2\n  swap1\n  mstore\n  tag_2\n  swap2\n  tag_3\n  jump\t// in\ntag_2:\n    /* \"contracts/DisputeDAO.sol\":1635:1646  taskFactory */\n  0x04\n    /* \"contracts/DisputeDAO.sol\":1635:1661  taskFactory = _taskFactory */\n  dup1\n  sload\n  not(sub(shl(0xa0, 0x01), 0x01))\n  and\n  sub(shl(0xa0, 0x01), 0x01)\n  dup4\n  and\n  swap1\n  dup2\n  or\n  swap1\n  swap2\n  sstore\n    /* \"contracts/DisputeDAO.sol\":1675:1701  _taskFactory != address(0) */\n  iszero\n    /* \"contracts/DisputeDAO.sol\":1672:1720  if(_taskFactory != address(0)) factorySet = true */\n  tag_6\n  jumpi\n    /* \"contracts/DisputeDAO.sol\":1703:1713  factorySet */\n  0x04\n    /* \"contracts/DisputeDAO.sol\":1703:1720  factorySet = true */\n  dup1\n  sload\n  not(shl(0xa0, 0xff))\n  and\n  shl(0xa0, 0x01)\n  or\n  swap1\n  sstore\n    /* \"contracts/DisputeDAO.sol\":1672:1720  if(_taskFactory != address(0)) factorySet = true */\ntag_6:\n    /* \"contracts/DisputeDAO.sol\":1590:1728  constructor(address _taskFactory) {... */\n  pop\n    /* \"contracts/DisputeDAO.sol\":61:8326  contract DisputeDAO {... */\n  jump(tag_8)\n    /* \"#utility.yul\":14:304   */\ntag_3:\n    /* \"#utility.yul\":84:90   */\n  0x00\n    /* \"#utility.yul\":137:139   */\n  0x20\n    /* \"#utility.yul\":125:134   */\n  dup3\n    /* \"#utility.yul\":116:123   */\n  dup5\n    /* \"#utility.yul\":112:135   */\n  sub\n    /* \"#utility.yul\":108:140   */\n  slt\n    /* \"#utility.yul\":105:157   */\n  iszero\n  tag_10\n  jumpi\n    /* \"#utility.yul\":153:154   */\n  0x00\n    /* \"#utility.yul\":150:151   */\n  0x00\n    /* \"#utility.yul\":143:155   */\n  revert\n    /* \"#utility.yul\":105:157   */\ntag_10:\n    /* \"#utility.yul\":179:195   */\n  dup2\n  mload\n  sub(shl(0xa0, 0x01), 0x01)\n    /* \"#utility.yul\":224:255   */\n  dup2\n  and\n    /* \"#utility.yul\":214:256   */\n  dup2\n  eq\n    /* \"#utility.yul\":204:274   */\n  tag_11\n  jumpi\n    /* \"#utility.yul\":270:271   */\n  0x00\n    /* \"#utility.yul\":267:268   */\n  0x00\n    /* \"#utility.yul\":260:272   */\n  revert\n    /* \"#utility.yul\":204:274   */\ntag_11:\n    /* \"#utility.yul\":293:298   */\n  swap4\n    /* \"#utility.yul\":14:304   */\n  swap3\n  pop\n  pop\n  pop\n  jump\t// out\ntag_8:\n    /* \"contracts/DisputeDAO.sol\":61:8326  contract DisputeDAO {... */\n  dataSize(sub_0)\n  dup1\n  dataOffset(sub_0)\n  0x00\n  codecopy\n  0x00\n  return\nstop\n\nsub_0: assembly {\n        /* \"contracts/DisputeDAO.sol\":61:8326  contract DisputeDAO {... */\n      mstore(0x40, 0x80)\n      jumpi(tag_1, lt(calldatasize, 0x04))\n      shr(0xe0, calldataload(0x00))\n      dup1\n      0x5bb47808\n      gt\n      tag_22\n      jumpi\n      dup1\n      0xd23254b4\n      gt\n      tag_23\n      jumpi\n      dup1\n      0xd23254b4\n      eq\n      tag_17\n      jumpi\n      dup1\n      0xd369506c\n      eq\n      tag_18\n      jumpi\n      dup1\n      0xdca5f6b0\n      eq\n      tag_19\n      jumpi\n      dup1\n      0xe21875e2\n      eq\n      tag_20\n      jumpi\n      dup1\n      0xeff2c3ec\n      eq\n      tag_21\n      jumpi\n      revert(0x00, 0x00)\n    tag_23:\n      dup1\n      0x5bb47808\n      eq\n      tag_12\n      jumpi\n      dup1\n      0x6058e685\n      eq\n      tag_13\n      jumpi\n      dup1\n      0x8e230e6f\n      eq\n      tag_14\n      jumpi\n      dup1\n      0xafa9c5b0\n      eq\n      tag_15\n      jumpi\n      dup1\n      0xc9bc0c11\n      eq\n      tag_16\n      jumpi\n      revert(0x00, 0x00)\n    tag_22:\n      dup1\n      0x43859632\n      gt\n      tag_24\n      jumpi\n      dup1\n      0x43859632\n      eq\n      tag_7\n      jumpi\n      dup1\n      0x47e2a6e6\n      eq\n      tag_8\n      jumpi\n      dup1\n      0x4b54a379\n      eq\n      tag_9\n      jumpi\n      dup1\n      0x4dc35f7a\n      eq\n      tag_10\n      jumpi\n      dup1\n      0x4fc8a20d\n      eq\n      tag_11\n      jumpi\n      revert(0x00, 0x00)\n    tag_24:\n      dup1\n      0x02d947ef\n      eq\n      tag_2\n      jumpi\n      dup1\n      0x2249c562\n      eq\n      tag_3\n      jumpi\n      dup1\n      0x2def6620\n      eq\n      tag_4\n      jumpi\n      dup1\n      0x375b3c0a\n      eq\n      tag_5\n      jumpi\n      dup1\n      0x3a4b66f1\n      eq\n      tag_6\n      jumpi\n    tag_1:\n      revert(0x00, 0x00)\n        /* \"contracts/DisputeDAO.sol\":5640:7277  function vote(uint256 disputeId, address winner) external {... */\n    tag_2:\n      callvalue\n      dup1\n      iszero\n      tag_25\n      jumpi\n      revert(0x00, 0x00)\n    tag_25:\n      pop\n      tag_26\n      tag_27\n      calldatasize\n      0x04\n      tag_28\n      jump\t// in\n    tag_27:\n      tag_29\n      jump\t// in\n    tag_26:\n      stop\n        /* \"contracts/DisputeDAO.sol\":717:767  mapping(uint256 => address[]) public disputeJurors */\n    tag_3:\n      callvalue\n      dup1\n      iszero\n      tag_30\n      jumpi\n      revert(0x00, 0x00)\n    tag_30:\n      pop\n      tag_31\n      tag_32\n      calldatasize\n      0x04\n      tag_33\n      jump\t// in\n    tag_32:\n      tag_34\n      jump\t// in\n    tag_31:\n      mload(0x40)\n      sub(shl(0xa0, 0x01), 0x01)\n        /* \"#utility.yul\":1012:1044   */\n      swap1\n      swap2\n      and\n        /* \"#utility.yul\":994:1045   */\n      dup2\n      mstore\n        /* \"#utility.yul\":982:984   */\n      0x20\n        /* \"#utility.yul\":967:985   */\n      add\n        /* \"contracts/DisputeDAO.sol\":717:767  mapping(uint256 => address[]) public disputeJurors */\n    tag_35:\n      mload(0x40)\n      dup1\n      swap2\n      sub\n      swap1\n      return\n        /* \"contracts/DisputeDAO.sol\":2433:2775  function unstake() external {... */\n    tag_4:\n      callvalue\n      dup1\n      iszero\n      tag_37\n      jumpi\n      revert(0x00, 0x00)\n    tag_37:\n      pop\n      tag_26\n      tag_39\n      jump\t// in\n        /* \"contracts/DisputeDAO.sol\":413:448  uint256 public minStake = 0.1 ether */\n    tag_5:\n      callvalue\n      dup1\n      iszero\n      tag_40\n      jumpi\n      revert(0x00, 0x00)\n    tag_40:\n      pop\n      tag_41\n      sload(0x02)\n      dup2\n      jump\n    tag_41:\n      mload(0x40)\n        /* \"#utility.yul\":1202:1227   */\n      swap1\n      dup2\n      mstore\n        /* \"#utility.yul\":1190:1192   */\n      0x20\n        /* \"#utility.yul\":1175:1193   */\n      add\n        /* \"contracts/DisputeDAO.sol\":413:448  uint256 public minStake = 0.1 ether */\n      tag_35\n        /* \"#utility.yul\":1056:1233   */\n      jump\n        /* \"contracts/DisputeDAO.sol\":2011:2383  function stake() external payable {... */\n    tag_6:\n      tag_26\n      tag_46\n      jump\t// in\n        /* \"contracts/DisputeDAO.sol\":774:834  mapping(uint256 => mapping(address => bool)) public hasVoted */\n    tag_7:\n      callvalue\n      dup1\n      iszero\n      tag_47\n      jumpi\n      revert(0x00, 0x00)\n    tag_47:\n      pop\n      tag_48\n      tag_49\n      calldatasize\n      0x04\n      tag_28\n      jump\t// in\n    tag_49:\n      0x07\n      0x20\n      swap1\n      dup2\n      mstore\n      0x00\n      swap3\n      dup4\n      mstore\n      0x40\n      dup1\n      dup5\n      keccak256\n      swap1\n      swap2\n      mstore\n      swap1\n      dup3\n      mstore\n      swap1\n      keccak256\n      sload\n      0xff\n      and\n      dup2\n      jump\n    tag_48:\n      mload(0x40)\n        /* \"#utility.yul\":1403:1417   */\n      swap1\n      iszero\n        /* \"#utility.yul\":1396:1418   */\n      iszero\n        /* \"#utility.yul\":1378:1419   */\n      dup2\n      mstore\n        /* \"#utility.yul\":1366:1368   */\n      0x20\n        /* \"#utility.yul\":1351:1369   */\n      add\n        /* \"contracts/DisputeDAO.sol\":774:834  mapping(uint256 => mapping(address => bool)) public hasVoted */\n      tag_35\n        /* \"#utility.yul\":1238:1425   */\n      jump\n        /* \"contracts/DisputeDAO.sol\":7330:7466  function getDisputeJurors(uint256 disputeId) external view returns (address[] memory) {... */\n    tag_8:\n      callvalue\n      dup1\n      iszero\n      tag_53\n      jumpi\n      revert(0x00, 0x00)\n    tag_53:\n      pop\n      tag_54\n      tag_55\n      calldatasize\n      0x04\n      tag_56\n      jump\t// in\n    tag_55:\n      tag_57\n      jump\t// in\n    tag_54:\n      mload(0x40)\n      tag_35\n      swap2\n      swap1\n      tag_59\n      jump\t// in\n        /* \"contracts/DisputeDAO.sol\":2888:5593  function handleDispute(uint256 disputeId) external onlyTaskFactory {... */\n    tag_9:\n      callvalue\n      dup1\n      iszero\n      tag_60\n      jumpi\n      revert(0x00, 0x00)\n    tag_60:\n      pop\n      tag_26\n      tag_62\n      calldatasize\n      0x04\n      tag_56\n      jump\t// in\n    tag_62:\n      tag_63\n      jump\t// in\n        /* \"contracts/DisputeDAO.sol\":612:644  uint256 public jurorCooldown = 3 */\n    tag_10:\n      callvalue\n      dup1\n      iszero\n      tag_64\n      jumpi\n      revert(0x00, 0x00)\n    tag_64:\n      pop\n      tag_41\n      sload(0x05)\n      dup2\n      jump\n        /* \"contracts/DisputeDAO.sol\":940:984  mapping(uint256 => uint256) public voteCount */\n    tag_11:\n      callvalue\n      dup1\n      iszero\n      tag_68\n      jumpi\n      revert(0x00, 0x00)\n    tag_68:\n      pop\n      tag_41\n      tag_70\n      calldatasize\n      0x04\n      tag_56\n      jump\t// in\n    tag_70:\n      mstore(0x20, 0x09)\n      0x00\n      swap1\n      dup2\n      mstore\n      0x40\n      swap1\n      keccak256\n      sload\n      dup2\n      jump\n        /* \"contracts/DisputeDAO.sol\":1736:1967  function setFactory(address _factory) external {... */\n    tag_12:\n      callvalue\n      dup1\n      iszero\n      tag_73\n      jumpi\n      revert(0x00, 0x00)\n    tag_73:\n      pop\n      tag_26\n      tag_75\n      calldatasize\n      0x04\n      tag_76\n      jump\t// in\n    tag_75:\n      tag_77\n      jump\t// in\n        /* \"contracts/DisputeDAO.sol\":7805:8323  function getActiveJurors() external view returns (address[] memory) {... */\n    tag_13:\n      callvalue\n      dup1\n      iszero\n      tag_78\n      jumpi\n      revert(0x00, 0x00)\n    tag_78:\n      pop\n      tag_54\n      tag_80\n      jump\t// in\n        /* \"contracts/DisputeDAO.sol\":322:348  address[] public jurorList */\n    tag_14:\n      callvalue\n      dup1\n      iszero\n      tag_82\n      jumpi\n      revert(0x00, 0x00)\n    tag_82:\n      pop\n      tag_31\n      tag_84\n      calldatasize\n      0x04\n      tag_56\n      jump\t// in\n    tag_84:\n      tag_85\n      jump\t// in\n        /* \"contracts/DisputeDAO.sol\":1036:1105  mapping(uint256 => mapping(address => uint256)) public candidateVotes */\n    tag_15:\n      callvalue\n      dup1\n      iszero\n      tag_87\n      jumpi\n      revert(0x00, 0x00)\n    tag_87:\n      pop\n      tag_41\n      tag_89\n      calldatasize\n      0x04\n      tag_28\n      jump\t// in\n    tag_89:\n      0x0a\n      0x20\n      swap1\n      dup2\n      mstore\n      0x00\n      swap3\n      dup4\n      mstore\n      0x40\n      dup1\n      dup5\n      keccak256\n      swap1\n      swap2\n      mstore\n      swap1\n      dup3\n      mstore\n      swap1\n      keccak256\n      sload\n      dup2\n      jump\n        /* \"contracts/DisputeDAO.sol\":542:568  address public taskFactory */\n    tag_16:\n      callvalue\n      dup1\n      iszero\n      tag_92\n      jumpi\n      revert(0x00, 0x00)\n    tag_92:\n      pop\n      sload(0x04)\n      tag_31\n      swap1\n      sub(shl(0xa0, 0x01), 0x01)\n      and\n      dup2\n      jump\n        /* \"contracts/DisputeDAO.sol\":841:901  mapping(uint256 => mapping(address => address)) public votes */\n    tag_17:\n      callvalue\n      dup1\n      iszero\n      tag_96\n      jumpi\n      revert(0x00, 0x00)\n    tag_96:\n      pop\n      tag_31\n      tag_98\n      calldatasize\n      0x04\n      tag_28\n      jump\t// in\n    tag_98:\n      0x08\n      0x20\n      swap1\n      dup2\n      mstore\n      0x00\n      swap3\n      dup4\n      mstore\n      0x40\n      dup1\n      dup5\n      keccak256\n      swap1\n      swap2\n      mstore\n      swap1\n      dup3\n      mstore\n      swap1\n      keccak256\n      sload\n      sub(shl(0xa0, 0x01), 0x01)\n      and\n      dup2\n      jump\n        /* \"contracts/DisputeDAO.sol\":500:535  uint256 public jurorsPerDispute = 3 */\n    tag_18:\n      callvalue\n      dup1\n      iszero\n      tag_101\n      jumpi\n      revert(0x00, 0x00)\n    tag_101:\n      pop\n      tag_41\n      sload(0x03)\n      dup2\n      jump\n        /* \"contracts/DisputeDAO.sol\":276:315  mapping(address => Juror) public jurors */\n    tag_19:\n      callvalue\n      dup1\n      iszero\n      tag_105\n      jumpi\n      revert(0x00, 0x00)\n    tag_105:\n      pop\n      tag_106\n      tag_107\n      calldatasize\n      0x04\n      tag_76\n      jump\t// in\n    tag_107:\n      0x00\n      0x20\n      dup2\n      swap1\n      mstore\n      swap1\n      dup2\n      mstore\n      0x40\n      swap1\n      keccak256\n      dup1\n      sload\n      0x01\n      dup3\n      add\n      sload\n      0x02\n      dup4\n      add\n      sload\n      0x03\n      swap1\n      swap4\n      add\n      sload\n      sub(shl(0xa0, 0x01), 0x01)\n      swap1\n      swap3\n      and\n      swap3\n      swap1\n      swap2\n      0xff\n      swap1\n      swap2\n      and\n      swap1\n      dup5\n      jump\n    tag_106:\n      0x40\n      dup1\n      mload\n      sub(shl(0xa0, 0x01), 0x01)\n        /* \"#utility.yul\":2737:2769   */\n      swap1\n      swap6\n      and\n        /* \"#utility.yul\":2719:2770   */\n      dup6\n      mstore\n        /* \"#utility.yul\":2801:2803   */\n      0x20\n        /* \"#utility.yul\":2786:2804   */\n      dup6\n      add\n        /* \"#utility.yul\":2779:2813   */\n      swap4\n      swap1\n      swap4\n      mstore\n        /* \"#utility.yul\":2856:2870   */\n      swap1\n      iszero\n        /* \"#utility.yul\":2849:2871   */\n      iszero\n        /* \"#utility.yul\":2829:2847   */\n      swap2\n      dup4\n      add\n        /* \"#utility.yul\":2822:2872   */\n      swap2\n      swap1\n      swap2\n      mstore\n        /* \"#utility.yul\":2903:2905   */\n      0x60\n        /* \"#utility.yul\":2888:2906   */\n      dup3\n      add\n        /* \"#utility.yul\":2881:2915   */\n      mstore\n        /* \"#utility.yul\":2706:2709   */\n      0x80\n        /* \"#utility.yul\":2691:2710   */\n      add\n        /* \"contracts/DisputeDAO.sol\":276:315  mapping(address => Juror) public jurors */\n      tag_35\n        /* \"#utility.yul\":2494:2921   */\n      jump\n        /* \"contracts/DisputeDAO.sol\":575:605  bool public factorySet = false */\n    tag_20:\n      callvalue\n      dup1\n      iszero\n      tag_111\n      jumpi\n      revert(0x00, 0x00)\n    tag_111:\n      pop\n      sload(0x04)\n      tag_48\n      swap1\n      shl(0xa0, 0x01)\n      swap1\n      div\n      0xff\n      and\n      dup2\n      jump\n        /* \"contracts/DisputeDAO.sol\":7504:7761  function getJurorInfo(address _jurorAddr) external view returns (uint256 stakeAmount, bool isActive, uint256 lastDisputeId) {... */\n    tag_21:\n      callvalue\n      dup1\n      iszero\n      tag_115\n      jumpi\n      revert(0x00, 0x00)\n    tag_115:\n      pop\n      tag_116\n      tag_117\n      calldatasize\n      0x04\n      tag_76\n      jump\t// in\n    tag_117:\n      sub(shl(0xa0, 0x01), 0x01)\n        /* \"contracts/DisputeDAO.sol\":7661:7679  jurors[_jurorAddr] */\n      and\n        /* \"contracts/DisputeDAO.sol\":7569:7588  uint256 stakeAmount */\n      0x00\n        /* \"contracts/DisputeDAO.sol\":7661:7679  jurors[_jurorAddr] */\n      swap1\n      dup2\n      mstore\n      0x20\n      dup2\n      swap1\n      mstore\n      0x40\n      swap1\n      keccak256\n        /* \"contracts/DisputeDAO.sol\":7698:7715  juror.stakeAmount */\n      0x01\n      dup2\n      add\n      sload\n        /* \"contracts/DisputeDAO.sol\":7717:7731  juror.isActive */\n      0x02\n      dup3\n      add\n      sload\n        /* \"contracts/DisputeDAO.sol\":7733:7752  juror.lastDisputeId */\n      0x03\n      swap1\n      swap3\n      add\n      sload\n        /* \"contracts/DisputeDAO.sol\":7698:7715  juror.stakeAmount */\n      swap1\n      swap3\n        /* \"contracts/DisputeDAO.sol\":7717:7731  juror.isActive */\n      0xff\n      swap1\n      swap3\n      and\n      swap2\n        /* \"contracts/DisputeDAO.sol\":7504:7761  function getJurorInfo(address _jurorAddr) external view returns (uint256 stakeAmount, bool isActive, uint256 lastDisputeId) {... */\n      jump\n    tag_116:\n      0x40\n      dup1\n      mload\n        /* \"#utility.yul\":3122:3147   */\n      swap4\n      dup5\n      mstore\n        /* \"#utility.yul\":3190:3204   */\n      swap2\n      iszero\n        /* \"#utility.yul\":3183:3205   */\n      iszero\n        /* \"#utility.yul\":3178:3180   */\n      0x20\n        /* \"#utility.yul\":3163:3181   */\n      dup5\n      add\n        /* \"#utility.yul\":3156:3206   */\n      mstore\n        /* \"#utility.yul\":3222:3240   */\n      swap1\n      dup3\n      add\n        /* \"#utility.yul\":3215:3249   */\n      mstore\n        /* \"#utility.yul\":3110:3112   */\n      0x60\n        /* \"#utility.yul\":3095:3113   */\n      add\n        /* \"contracts/DisputeDAO.sol\":7504:7761  function getJurorInfo(address _jurorAddr) external view returns (uint256 stakeAmount, bool isActive, uint256 lastDisputeId) {... */\n      tag_35\n        /* \"#utility.yul\":2926:3255   */\n      jump\n        /* \"contracts/DisputeDAO.sol\":5640:7277  function vote(uint256 disputeId, address winner) external {... */\n    tag_29:\n        /* \"contracts/DisputeDAO.sol\":5724:5734  msg.sender */\n      caller\n        /* \"contracts/DisputeDAO.sol\":5717:5723  jurors */\n      0x00\n        /* \"contracts/DisputeDAO.sol\":5717:5735  jurors[msg.sender] */\n      swap1\n      dup2\n      mstore\n      0x20\n      dup2\n      swap1\n      mstore\n      0x40\n      swap1\n      keccak256\n        /* \"contracts/DisputeDAO.sol\":5717:5744  jurors[msg.sender].isActive */\n      0x02\n      add\n      sload\n      0xff\n      and\n        /* \"contracts/DisputeDAO.sol\":5709:5760  require(jurors[msg.sender].isActive, \"Not a juror\") */\n      tag_122\n      jumpi\n      mload(0x40)\n      shl(0xe5, 0x461bcd)\n      dup2\n      mstore\n        /* \"#utility.yul\":3462:3464   */\n      0x20\n        /* \"contracts/DisputeDAO.sol\":5709:5760  require(jurors[msg.sender].isActive, \"Not a juror\") */\n      0x04\n      dup3\n      add\n        /* \"#utility.yul\":3444:3465   */\n      mstore\n        /* \"#utility.yul\":3501:3503   */\n      0x0b\n        /* \"#utility.yul\":3481:3499   */\n      0x24\n      dup3\n      add\n        /* \"#utility.yul\":3474:3504   */\n      mstore\n      shl(0xa9, 0x2737ba103090353ab937b9)\n        /* \"#utility.yul\":3520:3538   */\n      0x44\n      dup3\n      add\n        /* \"#utility.yul\":3513:3554   */\n      mstore\n        /* \"#utility.yul\":3571:3589   */\n      0x64\n      add\n        /* \"contracts/DisputeDAO.sol\":5709:5760  require(jurors[msg.sender].isActive, \"Not a juror\") */\n    tag_123:\n      mload(0x40)\n      dup1\n      swap2\n      sub\n      swap1\n      revert\n    tag_122:\n        /* \"contracts/DisputeDAO.sol\":5817:5829  bool isJuror */\n      0x00\n      dup1\n        /* \"contracts/DisputeDAO.sol\":5848:6053  for (uint i = 0; i < disputeJurors[disputeId].length; i++) {... */\n    tag_125:\n        /* \"contracts/DisputeDAO.sol\":5869:5893  disputeJurors[disputeId] */\n      0x00\n      dup5\n      dup2\n      mstore\n        /* \"contracts/DisputeDAO.sol\":5869:5882  disputeJurors */\n      0x06\n        /* \"contracts/DisputeDAO.sol\":5869:5893  disputeJurors[disputeId] */\n      0x20\n      mstore\n      0x40\n      swap1\n      keccak256\n        /* \"contracts/DisputeDAO.sol\":5869:5900  disputeJurors[disputeId].length */\n      sload\n        /* \"contracts/DisputeDAO.sol\":5865:5900  i < disputeJurors[disputeId].length */\n      dup2\n      lt\n        /* \"contracts/DisputeDAO.sol\":5848:6053  for (uint i = 0; i < disputeJurors[disputeId].length; i++) {... */\n      iszero\n      tag_126\n      jumpi\n        /* \"contracts/DisputeDAO.sol\":5926:5950  disputeJurors[disputeId] */\n      0x00\n      dup5\n      dup2\n      mstore\n        /* \"contracts/DisputeDAO.sol\":5926:5939  disputeJurors */\n      0x06\n        /* \"contracts/DisputeDAO.sol\":5926:5950  disputeJurors[disputeId] */\n      0x20\n      mstore\n      0x40\n      swap1\n      keccak256\n        /* \"contracts/DisputeDAO.sol\":5926:5953  disputeJurors[disputeId][i] */\n      dup1\n      sload\n        /* \"contracts/DisputeDAO.sol\":5957:5967  msg.sender */\n      caller\n      swap2\n        /* \"contracts/DisputeDAO.sol\":5926:5950  disputeJurors[disputeId] */\n      swap1\n        /* \"contracts/DisputeDAO.sol\":5951:5952  i */\n      dup4\n      swap1\n        /* \"contracts/DisputeDAO.sol\":5926:5953  disputeJurors[disputeId][i] */\n      dup2\n      lt\n      tag_129\n      jumpi\n      tag_129\n      tag_130\n      jump\t// in\n    tag_129:\n      0x00\n      swap2\n      dup3\n      mstore\n      0x20\n      swap1\n      swap2\n      keccak256\n      add\n      sload\n      sub(shl(0xa0, 0x01), 0x01)\n      and\n        /* \"contracts/DisputeDAO.sol\":5926:5967  disputeJurors[disputeId][i] == msg.sender */\n      sub\n        /* \"contracts/DisputeDAO.sol\":5922:6042  if (disputeJurors[disputeId][i] == msg.sender) {... */\n      tag_132\n      jumpi\n        /* \"contracts/DisputeDAO.sol\":5998:6002  true */\n      0x01\n        /* \"contracts/DisputeDAO.sol\":5988:6002  isJuror = true */\n      swap2\n      pop\n        /* \"contracts/DisputeDAO.sol\":6021:6026  break */\n      jump(tag_126)\n        /* \"contracts/DisputeDAO.sol\":5922:6042  if (disputeJurors[disputeId][i] == msg.sender) {... */\n    tag_132:\n        /* \"contracts/DisputeDAO.sol\":5902:5905  i++ */\n      0x01\n      add\n        /* \"contracts/DisputeDAO.sol\":5848:6053  for (uint i = 0; i < disputeJurors[disputeId].length; i++) {... */\n      jump(tag_125)\n    tag_126:\n      pop\n        /* \"contracts/DisputeDAO.sol\":6071:6078  isJuror */\n      dup1\n        /* \"contracts/DisputeDAO.sol\":6063:6101  require(isJuror, \"Not selected juror\") */\n      tag_133\n      jumpi\n      mload(0x40)\n      shl(0xe5, 0x461bcd)\n      dup2\n      mstore\n        /* \"#utility.yul\":3934:3936   */\n      0x20\n        /* \"contracts/DisputeDAO.sol\":6063:6101  require(isJuror, \"Not selected juror\") */\n      0x04\n      dup3\n      add\n        /* \"#utility.yul\":3916:3937   */\n      mstore\n        /* \"#utility.yul\":3973:3975   */\n      0x12\n        /* \"#utility.yul\":3953:3971   */\n      0x24\n      dup3\n      add\n        /* \"#utility.yul\":3946:3976   */\n      mstore\n      shl(0x71, 0x2737ba1039b2b632b1ba32b210353ab937b9)\n        /* \"#utility.yul\":3992:4010   */\n      0x44\n      dup3\n      add\n        /* \"#utility.yul\":3985:4033   */\n      mstore\n        /* \"#utility.yul\":4050:4068   */\n      0x64\n      add\n        /* \"contracts/DisputeDAO.sol\":6063:6101  require(isJuror, \"Not selected juror\") */\n      tag_123\n        /* \"#utility.yul\":3732:4074   */\n      jump\n        /* \"contracts/DisputeDAO.sol\":6063:6101  require(isJuror, \"Not selected juror\") */\n    tag_133:\n        /* \"contracts/DisputeDAO.sol\":6121:6140  hasVoted[disputeId] */\n      0x00\n      dup4\n      dup2\n      mstore\n        /* \"contracts/DisputeDAO.sol\":6121:6129  hasVoted */\n      0x07\n        /* \"contracts/DisputeDAO.sol\":6121:6140  hasVoted[disputeId] */\n      0x20\n      swap1\n      dup2\n      mstore\n      0x40\n      dup1\n      dup4\n      keccak256\n        /* \"contracts/DisputeDAO.sol\":6141:6151  msg.sender */\n      caller\n        /* \"contracts/DisputeDAO.sol\":6121:6152  hasVoted[disputeId][msg.sender] */\n      dup5\n      mstore\n      swap1\n      swap2\n      mstore\n      swap1\n      keccak256\n      sload\n      0xff\n      and\n        /* \"contracts/DisputeDAO.sol\":6120:6152  !hasVoted[disputeId][msg.sender] */\n      iszero\n        /* \"contracts/DisputeDAO.sol\":6112:6170  require(!hasVoted[disputeId][msg.sender], \"Already voted\") */\n      tag_136\n      jumpi\n      mload(0x40)\n      shl(0xe5, 0x461bcd)\n      dup2\n      mstore\n        /* \"#utility.yul\":4281:4283   */\n      0x20\n        /* \"contracts/DisputeDAO.sol\":6112:6170  require(!hasVoted[disputeId][msg.sender], \"Already voted\") */\n      0x04\n      dup3\n      add\n        /* \"#utility.yul\":4263:4284   */\n      mstore\n        /* \"#utility.yul\":4320:4322   */\n      0x0d\n        /* \"#utility.yul\":4300:4318   */\n      0x24\n      dup3\n      add\n        /* \"#utility.yul\":4293:4323   */\n      mstore\n      shl(0x9a, 0x105b1c9958591e481d9bdd1959)\n        /* \"#utility.yul\":4339:4357   */\n      0x44\n      dup3\n      add\n        /* \"#utility.yul\":4332:4375   */\n      mstore\n        /* \"#utility.yul\":4392:4410   */\n      0x64\n      add\n        /* \"contracts/DisputeDAO.sol\":6112:6170  require(!hasVoted[disputeId][msg.sender], \"Already voted\") */\n      tag_123\n        /* \"#utility.yul\":4079:4416   */\n      jump\n        /* \"contracts/DisputeDAO.sol\":6112:6170  require(!hasVoted[disputeId][msg.sender], \"Already voted\") */\n    tag_136:\n        /* \"contracts/DisputeDAO.sol\":6181:6200  hasVoted[disputeId] */\n      0x00\n      dup4\n      dup2\n      mstore\n        /* \"contracts/DisputeDAO.sol\":6181:6189  hasVoted */\n      0x07\n        /* \"contracts/DisputeDAO.sol\":6181:6200  hasVoted[disputeId] */\n      0x20\n      swap1\n      dup2\n      mstore\n      0x40\n      dup1\n      dup4\n      keccak256\n        /* \"contracts/DisputeDAO.sol\":6201:6211  msg.sender */\n      caller\n        /* \"contracts/DisputeDAO.sol\":6181:6212  hasVoted[disputeId][msg.sender] */\n      dup1\n      dup6\n      mstore\n      swap1\n      dup4\n      mstore\n      dup2\n      dup5\n      keccak256\n        /* \"contracts/DisputeDAO.sol\":6181:6219  hasVoted[disputeId][msg.sender] = true */\n      dup1\n      sload\n      not(0xff)\n      and\n        /* \"contracts/DisputeDAO.sol\":6215:6219  true */\n      0x01\n        /* \"contracts/DisputeDAO.sol\":6181:6219  hasVoted[disputeId][msg.sender] = true */\n      or\n      swap1\n      sstore\n        /* \"contracts/DisputeDAO.sol\":6230:6246  votes[disputeId] */\n      dup7\n      dup5\n      mstore\n        /* \"contracts/DisputeDAO.sol\":6230:6235  votes */\n      0x08\n        /* \"contracts/DisputeDAO.sol\":6230:6246  votes[disputeId] */\n      dup4\n      mstore\n      dup2\n      dup5\n      keccak256\n        /* \"contracts/DisputeDAO.sol\":6230:6258  votes[disputeId][msg.sender] */\n      swap1\n      dup5\n      mstore\n      dup3\n      mstore\n      dup1\n      dup4\n      keccak256\n        /* \"contracts/DisputeDAO.sol\":6230:6267  votes[disputeId][msg.sender] = winner */\n      dup1\n      sload\n      sub(shl(0xa0, 0x01), 0x01)\n      dup8\n      and\n      not(sub(shl(0xa0, 0x01), 0x01))\n      swap1\n      swap2\n      and\n      dup2\n      or\n      swap1\n      swap2\n      sstore\n        /* \"contracts/DisputeDAO.sol\":6278:6303  candidateVotes[disputeId] */\n      dup7\n      dup5\n      mstore\n        /* \"contracts/DisputeDAO.sol\":6278:6292  candidateVotes */\n      0x0a\n        /* \"contracts/DisputeDAO.sol\":6278:6303  candidateVotes[disputeId] */\n      dup4\n      mstore\n      dup2\n      dup5\n      keccak256\n        /* \"contracts/DisputeDAO.sol\":6278:6311  candidateVotes[disputeId][winner] */\n      swap1\n      dup5\n      mstore\n      swap1\n      swap2\n      mstore\n      dup2\n      keccak256\n        /* \"contracts/DisputeDAO.sol\":6278:6313  candidateVotes[disputeId][winner]++ */\n      dup1\n      sload\n      swap2\n      tag_139\n      dup4\n      tag_140\n      jump\t// in\n    tag_139:\n      swap1\n      swap2\n      sstore\n      pop\n      pop\n        /* \"contracts/DisputeDAO.sol\":6324:6344  voteCount[disputeId] */\n      0x00\n      dup4\n      dup2\n      mstore\n        /* \"contracts/DisputeDAO.sol\":6324:6333  voteCount */\n      0x09\n        /* \"contracts/DisputeDAO.sol\":6324:6344  voteCount[disputeId] */\n      0x20\n      mstore\n      0x40\n      dup2\n      keccak256\n        /* \"contracts/DisputeDAO.sol\":6324:6346  voteCount[disputeId]++ */\n      dup1\n      sload\n      swap2\n      tag_141\n      dup4\n      tag_140\n      jump\t// in\n    tag_141:\n      swap1\n      swap2\n      sstore\n      pop\n      pop\n        /* \"contracts/DisputeDAO.sol\":6362:6398  Voted(disputeId, msg.sender, winner) */\n      mload(0x40)\n      sub(shl(0xa0, 0x01), 0x01)\n        /* \"#utility.yul\":1012:1044   */\n      dup4\n      and\n        /* \"#utility.yul\":994:1045   */\n      dup2\n      mstore\n        /* \"contracts/DisputeDAO.sol\":6379:6389  msg.sender */\n      caller\n      swap1\n        /* \"contracts/DisputeDAO.sol\":6368:6377  disputeId */\n      dup5\n      swap1\n        /* \"contracts/DisputeDAO.sol\":6362:6398  Voted(disputeId, msg.sender, winner) */\n      0xf6c8f1f54b2f54fb963820203fdef5b9aefb56ae2c4dd8b6133e151791a07f36\n      swap1\n        /* \"#utility.yul\":982:984   */\n      0x20\n        /* \"#utility.yul\":967:985   */\n      add\n        /* \"contracts/DisputeDAO.sol\":6362:6398  Voted(disputeId, msg.sender, winner) */\n      mload(0x40)\n      dup1\n      swap2\n      sub\n      swap1\n      log3\n        /* \"contracts/DisputeDAO.sol\":6477:6493  jurorsPerDispute */\n      sload(0x03)\n        /* \"contracts/DisputeDAO.sol\":6453:6473  voteCount[disputeId] */\n      0x00\n      dup5\n      dup2\n      mstore\n        /* \"contracts/DisputeDAO.sol\":6453:6462  voteCount */\n      0x09\n        /* \"contracts/DisputeDAO.sol\":6453:6473  voteCount[disputeId] */\n      0x20\n      mstore\n      0x40\n      swap1\n      keccak256\n      sload\n        /* \"contracts/DisputeDAO.sol\":6453:6493  voteCount[disputeId] == jurorsPerDispute */\n      sub\n        /* \"contracts/DisputeDAO.sol\":6449:7270  if (voteCount[disputeId] == jurorsPerDispute) {... */\n      tag_143\n      jumpi\n        /* \"contracts/DisputeDAO.sol\":6532:6538  winner */\n      dup2\n        /* \"contracts/DisputeDAO.sol\":6510:6529  address finalWinner */\n      0x00\n      dup1\n        /* \"contracts/DisputeDAO.sol\":6588:6951  for (uint i = 0; i < disputeJurors[disputeId].length; i++) {... */\n    tag_144:\n        /* \"contracts/DisputeDAO.sol\":6609:6633  disputeJurors[disputeId] */\n      0x00\n      dup7\n      dup2\n      mstore\n        /* \"contracts/DisputeDAO.sol\":6609:6622  disputeJurors */\n      0x06\n        /* \"contracts/DisputeDAO.sol\":6609:6633  disputeJurors[disputeId] */\n      0x20\n      mstore\n      0x40\n      swap1\n      keccak256\n        /* \"contracts/DisputeDAO.sol\":6609:6640  disputeJurors[disputeId].length */\n      sload\n        /* \"contracts/DisputeDAO.sol\":6605:6640  i < disputeJurors[disputeId].length */\n      dup2\n      lt\n        /* \"contracts/DisputeDAO.sol\":6588:6951  for (uint i = 0; i < disputeJurors[disputeId].length; i++) {... */\n      iszero\n      tag_145\n      jumpi\n        /* \"contracts/DisputeDAO.sol\":6666:6683  address candidate */\n      0x00\n        /* \"contracts/DisputeDAO.sol\":6686:6702  votes[disputeId] */\n      dup7\n      dup2\n      mstore\n        /* \"contracts/DisputeDAO.sol\":6686:6691  votes */\n      0x08\n        /* \"contracts/DisputeDAO.sol\":6686:6702  votes[disputeId] */\n      0x20\n      swap1\n      dup2\n      mstore\n      0x40\n      dup1\n      dup4\n      keccak256\n        /* \"contracts/DisputeDAO.sol\":6703:6716  disputeJurors */\n      0x06\n        /* \"contracts/DisputeDAO.sol\":6703:6727  disputeJurors[disputeId] */\n      swap1\n      swap3\n      mstore\n      dup3\n      keccak256\n        /* \"contracts/DisputeDAO.sol\":6703:6730  disputeJurors[disputeId][i] */\n      dup1\n      sload\n        /* \"contracts/DisputeDAO.sol\":6666:6683  address candidate */\n      dup4\n      swap2\n        /* \"contracts/DisputeDAO.sol\":6703:6727  disputeJurors[disputeId] */\n      swap1\n        /* \"contracts/DisputeDAO.sol\":6728:6729  i */\n      dup6\n      swap1\n        /* \"contracts/DisputeDAO.sol\":6703:6730  disputeJurors[disputeId][i] */\n      dup2\n      lt\n      tag_148\n      jumpi\n      tag_148\n      tag_130\n      jump\t// in\n    tag_148:\n      0x00\n      swap2\n      dup3\n      mstore\n      0x20\n      dup1\n      dup4\n      keccak256\n      swap1\n      swap2\n      add\n      sload\n      sub(shl(0xa0, 0x01), 0x01)\n      swap1\n      dup2\n      and\n        /* \"contracts/DisputeDAO.sol\":6686:6731  votes[disputeId][disputeJurors[disputeId][i]] */\n      dup5\n      mstore\n      dup4\n      dup3\n      add\n      swap5\n      swap1\n      swap5\n      mstore\n      0x40\n      swap3\n      dup4\n      add\n      dup3\n      keccak256\n      sload\n        /* \"contracts/DisputeDAO.sol\":6762:6787  candidateVotes[disputeId] */\n      dup12\n      dup4\n      mstore\n        /* \"contracts/DisputeDAO.sol\":6762:6776  candidateVotes */\n      0x0a\n        /* \"contracts/DisputeDAO.sol\":6762:6787  candidateVotes[disputeId] */\n      dup3\n      mstore\n      dup4\n      dup4\n      keccak256\n        /* \"contracts/DisputeDAO.sol\":6686:6731  votes[disputeId][disputeJurors[disputeId][i]] */\n      swap5\n      and\n        /* \"contracts/DisputeDAO.sol\":6762:6798  candidateVotes[disputeId][candidate] */\n      dup1\n      dup4\n      mstore\n      swap4\n      swap1\n      mstore\n      keccak256\n      sload\n        /* \"contracts/DisputeDAO.sol\":6686:6731  votes[disputeId][disputeJurors[disputeId][i]] */\n      swap1\n      swap2\n      pop\n        /* \"contracts/DisputeDAO.sol\":6821:6833  v > maxVotes */\n      dup4\n      dup2\n      gt\n        /* \"contracts/DisputeDAO.sol\":6817:6936  if (v > maxVotes) {... */\n      iszero\n      tag_150\n      jumpi\n        /* \"contracts/DisputeDAO.sol\":6869:6870  v */\n      dup1\n        /* \"contracts/DisputeDAO.sol\":6858:6870  maxVotes = v */\n      swap4\n      pop\n        /* \"contracts/DisputeDAO.sol\":6907:6916  candidate */\n      dup2\n        /* \"contracts/DisputeDAO.sol\":6893:6916  finalWinner = candidate */\n      swap5\n      pop\n        /* \"contracts/DisputeDAO.sol\":6817:6936  if (v > maxVotes) {... */\n    tag_150:\n      pop\n      pop\n        /* \"contracts/DisputeDAO.sol\":6642:6645  i++ */\n      0x01\n      add\n        /* \"contracts/DisputeDAO.sol\":6588:6951  for (uint i = 0; i < disputeJurors[disputeId].length; i++) {... */\n      jump(tag_144)\n    tag_145:\n      pop\n        /* \"contracts/DisputeDAO.sol\":7018:7029  taskFactory */\n      sload(0x04)\n        /* \"contracts/DisputeDAO.sol\":7053:7135  abi.encodeWithSignature(\"resolveDispute(uint256,address)\", disputeId, finalWinner) */\n      mload(0x40)\n      0x24\n      dup2\n      add\n        /* \"#utility.yul\":4867:4892   */\n      dup8\n      swap1\n      mstore\n      sub(shl(0xa0, 0x01), 0x01)\n        /* \"#utility.yul\":4928:4960   */\n      dup5\n      dup2\n      and\n        /* \"#utility.yul\":4908:4926   */\n      0x44\n      dup4\n      add\n        /* \"#utility.yul\":4901:4961   */\n      mstore\n        /* \"contracts/DisputeDAO.sol\":7000:7012  bool success */\n      0x00\n      swap3\n        /* \"contracts/DisputeDAO.sol\":7018:7029  taskFactory */\n      and\n      swap1\n        /* \"#utility.yul\":4840:4858   */\n      0x64\n      add\n        /* \"contracts/DisputeDAO.sol\":7053:7135  abi.encodeWithSignature(\"resolveDispute(uint256,address)\", disputeId, finalWinner) */\n      0x40\n      dup1\n      mload\n      not(0x1f)\n      dup2\n      dup5\n      sub\n      add\n      dup2\n      mstore\n      swap2\n      dup2\n      mstore\n      0x20\n      dup3\n      add\n      dup1\n      mload\n      sub(shl(0xe0, 0x01), 0x01)\n      and\n      shl(0xe0, 0x0e33599d)\n      or\n      swap1\n      mstore\n        /* \"contracts/DisputeDAO.sol\":7018:7150  taskFactory.call(... */\n      mload\n      tag_153\n      swap2\n        /* \"contracts/DisputeDAO.sol\":7053:7135  abi.encodeWithSignature(\"resolveDispute(uint256,address)\", disputeId, finalWinner) */\n      swap1\n        /* \"contracts/DisputeDAO.sol\":7018:7150  taskFactory.call(... */\n      tag_154\n      jump\t// in\n    tag_153:\n      0x00\n      mload(0x40)\n      dup1\n      dup4\n      sub\n      dup2\n      0x00\n      dup7\n      gas\n      call\n      swap2\n      pop\n      pop\n      returndatasize\n      dup1\n      0x00\n      dup2\n      eq\n      tag_157\n      jumpi\n      mload(0x40)\n      swap2\n      pop\n      and(add(returndatasize, 0x3f), not(0x1f))\n      dup3\n      add\n      0x40\n      mstore\n      returndatasize\n      dup3\n      mstore\n      returndatasize\n      0x00\n      0x20\n      dup5\n      add\n      returndatacopy\n      jump(tag_156)\n    tag_157:\n      0x60\n      swap2\n      pop\n    tag_156:\n      pop\n        /* \"contracts/DisputeDAO.sol\":6999:7150  (bool success, ) = taskFactory.call(... */\n      pop\n      swap1\n      pop\n        /* \"contracts/DisputeDAO.sol\":7173:7180  success */\n      dup1\n        /* \"contracts/DisputeDAO.sol\":7165:7199  require(success, \"Resolve failed\") */\n      tag_158\n      jumpi\n      mload(0x40)\n      shl(0xe5, 0x461bcd)\n      dup2\n      mstore\n        /* \"#utility.yul\":5480:5482   */\n      0x20\n        /* \"contracts/DisputeDAO.sol\":7165:7199  require(success, \"Resolve failed\") */\n      0x04\n      dup3\n      add\n        /* \"#utility.yul\":5462:5483   */\n      mstore\n        /* \"#utility.yul\":5519:5521   */\n      0x0e\n        /* \"#utility.yul\":5499:5517   */\n      0x24\n      dup3\n      add\n        /* \"#utility.yul\":5492:5522   */\n      mstore\n      shl(0x92, 0x14995cdbdb1d994819985a5b1959)\n        /* \"#utility.yul\":5538:5556   */\n      0x44\n      dup3\n      add\n        /* \"#utility.yul\":5531:5575   */\n      mstore\n        /* \"#utility.yul\":5592:5610   */\n      0x64\n      add\n        /* \"contracts/DisputeDAO.sol\":7165:7199  require(success, \"Resolve failed\") */\n      tag_123\n        /* \"#utility.yul\":5278:5616   */\n      jump\n        /* \"contracts/DisputeDAO.sol\":7165:7199  require(success, \"Resolve failed\") */\n    tag_158:\n        /* \"contracts/DisputeDAO.sol\":7219:7258  DisputeResolved(disputeId, finalWinner) */\n      mload(0x40)\n      sub(shl(0xa0, 0x01), 0x01)\n        /* \"#utility.yul\":1012:1044   */\n      dup5\n      and\n        /* \"#utility.yul\":994:1045   */\n      dup2\n      mstore\n        /* \"contracts/DisputeDAO.sol\":7235:7244  disputeId */\n      dup7\n      swap1\n        /* \"contracts/DisputeDAO.sol\":7219:7258  DisputeResolved(disputeId, finalWinner) */\n      0xf77ceb5e091d2da041bc760667f9d5fe7a756949eaf29250ad0e60ca6f4c27d9\n      swap1\n        /* \"#utility.yul\":982:984   */\n      0x20\n        /* \"#utility.yul\":967:985   */\n      add\n        /* \"contracts/DisputeDAO.sol\":7219:7258  DisputeResolved(disputeId, finalWinner) */\n      mload(0x40)\n      dup1\n      swap2\n      sub\n      swap1\n      log2\n        /* \"contracts/DisputeDAO.sol\":6495:7270  {... */\n      pop\n      pop\n      pop\n        /* \"contracts/DisputeDAO.sol\":6449:7270  if (voteCount[disputeId] == jurorsPerDispute) {... */\n    tag_143:\n        /* \"contracts/DisputeDAO.sol\":5698:7277  {... */\n      pop\n        /* \"contracts/DisputeDAO.sol\":5640:7277  function vote(uint256 disputeId, address winner) external {... */\n      pop\n      pop\n      jump\t// out\n        /* \"contracts/DisputeDAO.sol\":717:767  mapping(uint256 => address[]) public disputeJurors */\n    tag_34:\n      mstore(0x20, 0x06)\n      dup2\n      0x00\n      mstore\n      keccak256(0x00, 0x40)\n      dup2\n      dup2\n      sload\n      dup2\n      lt\n      tag_162\n      jumpi\n      0x00\n      dup1\n      revert\n    tag_162:\n      0x00\n      swap2\n      dup3\n      mstore\n      0x20\n      swap1\n      swap2\n      keccak256\n      add\n      sload\n      sub(shl(0xa0, 0x01), 0x01)\n      and\n      swap2\n      pop\n      dup3\n      swap1\n      pop\n      jump\t// out\n        /* \"contracts/DisputeDAO.sol\":2433:2775  function unstake() external {... */\n    tag_39:\n        /* \"contracts/DisputeDAO.sol\":2501:2511  msg.sender */\n      caller\n        /* \"contracts/DisputeDAO.sol\":2472:2491  Juror storage juror */\n      0x00\n        /* \"contracts/DisputeDAO.sol\":2494:2512  jurors[msg.sender] */\n      swap1\n      dup2\n      mstore\n      0x20\n      dup2\n      swap1\n      mstore\n      0x40\n      swap1\n      keccak256\n        /* \"contracts/DisputeDAO.sol\":2531:2545  juror.isActive */\n      0x02\n      dup2\n      add\n      sload\n      0xff\n      and\n        /* \"contracts/DisputeDAO.sol\":2523:2561  require(juror.isActive, \"Not a juror\") */\n      tag_165\n      jumpi\n      mload(0x40)\n      shl(0xe5, 0x461bcd)\n      dup2\n      mstore\n        /* \"#utility.yul\":3462:3464   */\n      0x20\n        /* \"contracts/DisputeDAO.sol\":2523:2561  require(juror.isActive, \"Not a juror\") */\n      0x04\n      dup3\n      add\n        /* \"#utility.yul\":3444:3465   */\n      mstore\n        /* \"#utility.yul\":3501:3503   */\n      0x0b\n        /* \"#utility.yul\":3481:3499   */\n      0x24\n      dup3\n      add\n        /* \"#utility.yul\":3474:3504   */\n      mstore\n      shl(0xa9, 0x2737ba103090353ab937b9)\n        /* \"#utility.yul\":3520:3538   */\n      0x44\n      dup3\n      add\n        /* \"#utility.yul\":3513:3554   */\n      mstore\n        /* \"#utility.yul\":3571:3589   */\n      0x64\n      add\n        /* \"contracts/DisputeDAO.sol\":2523:2561  require(juror.isActive, \"Not a juror\") */\n      tag_123\n        /* \"#utility.yul\":3260:3595   */\n      jump\n        /* \"contracts/DisputeDAO.sol\":2523:2561  require(juror.isActive, \"Not a juror\") */\n    tag_165:\n        /* \"contracts/DisputeDAO.sol\":2589:2606  juror.stakeAmount */\n      0x01\n      dup2\n      add\n      dup1\n      sload\n        /* \"contracts/DisputeDAO.sol\":2617:2631  juror.isActive */\n      0x02\n      dup4\n      add\n        /* \"contracts/DisputeDAO.sol\":2617:2639  juror.isActive = false */\n      dup1\n      sload\n      not(0xff)\n      and\n      swap1\n      sstore\n        /* \"contracts/DisputeDAO.sol\":2572:2586  uint256 amount */\n      0x00\n        /* \"contracts/DisputeDAO.sol\":2650:2671  juror.stakeAmount = 0 */\n      swap2\n      dup3\n      swap1\n      sstore\n        /* \"contracts/DisputeDAO.sol\":2682:2718  payable(msg.sender).transfer(amount) */\n      mload(0x40)\n        /* \"contracts/DisputeDAO.sol\":2589:2606  juror.stakeAmount */\n      swap1\n      swap2\n        /* \"contracts/DisputeDAO.sol\":2690:2700  msg.sender */\n      caller\n      swap2\n        /* \"contracts/DisputeDAO.sol\":2682:2718  payable(msg.sender).transfer(amount) */\n      dup4\n      iszero\n      0x08fc\n      mul\n      swap2\n        /* \"contracts/DisputeDAO.sol\":2589:2606  juror.stakeAmount */\n      dup5\n      swap2\n        /* \"contracts/DisputeDAO.sol\":2682:2718  payable(msg.sender).transfer(amount) */\n      swap1\n      dup2\n        /* \"contracts/DisputeDAO.sol\":2572:2586  uint256 amount */\n      dup2\n        /* \"contracts/DisputeDAO.sol\":2682:2718  payable(msg.sender).transfer(amount) */\n      dup2\n        /* \"contracts/DisputeDAO.sol\":2589:2606  juror.stakeAmount */\n      dup6\n        /* \"contracts/DisputeDAO.sol\":2690:2700  msg.sender */\n      dup9\n        /* \"contracts/DisputeDAO.sol\":2682:2718  payable(msg.sender).transfer(amount) */\n      dup9\n      call\n      swap4\n      pop\n      pop\n      pop\n      pop\n      iszero\n      dup1\n      iszero\n      tag_168\n      jumpi\n      returndatacopy(0x00, 0x00, returndatasize)\n      revert(0x00, returndatasize)\n    tag_168:\n      pop\n        /* \"contracts/DisputeDAO.sol\":2734:2767  JurorUnstaked(msg.sender, amount) */\n      mload(0x40)\n        /* \"#utility.yul\":1202:1227   */\n      dup2\n      dup2\n      mstore\n        /* \"contracts/DisputeDAO.sol\":2748:2758  msg.sender */\n      caller\n      swap1\n        /* \"contracts/DisputeDAO.sol\":2734:2767  JurorUnstaked(msg.sender, amount) */\n      0x610a1d949cc1ca7d4391b2530deda84f33b5f02dbd462643f21cd8a1b3cd573f\n      swap1\n        /* \"#utility.yul\":1190:1192   */\n      0x20\n        /* \"#utility.yul\":1175:1193   */\n      add\n        /* \"contracts/DisputeDAO.sol\":2734:2767  JurorUnstaked(msg.sender, amount) */\n      mload(0x40)\n      dup1\n      swap2\n      sub\n      swap1\n      log2\n        /* \"contracts/DisputeDAO.sol\":2461:2775  {... */\n      pop\n      pop\n        /* \"contracts/DisputeDAO.sol\":2433:2775  function unstake() external {... */\n      jump\t// out\n        /* \"contracts/DisputeDAO.sol\":2011:2383  function stake() external payable {... */\n    tag_46:\n        /* \"contracts/DisputeDAO.sol\":2077:2085  minStake */\n      sload(0x02)\n        /* \"contracts/DisputeDAO.sol\":2064:2073  msg.value */\n      callvalue\n        /* \"contracts/DisputeDAO.sol\":2064:2085  msg.value >= minStake */\n      lt\n      iszero\n        /* \"contracts/DisputeDAO.sol\":2056:2108  require(msg.value >= minStake, \"Insufficient stake\") */\n      tag_171\n      jumpi\n      mload(0x40)\n      shl(0xe5, 0x461bcd)\n      dup2\n      mstore\n        /* \"#utility.yul\":5823:5825   */\n      0x20\n        /* \"contracts/DisputeDAO.sol\":2056:2108  require(msg.value >= minStake, \"Insufficient stake\") */\n      0x04\n      dup3\n      add\n        /* \"#utility.yul\":5805:5826   */\n      mstore\n        /* \"#utility.yul\":5862:5864   */\n      0x12\n        /* \"#utility.yul\":5842:5860   */\n      0x24\n      dup3\n      add\n        /* \"#utility.yul\":5835:5865   */\n      mstore\n      shl(0x70, 0x496e73756666696369656e74207374616b65)\n        /* \"#utility.yul\":5881:5899   */\n      0x44\n      dup3\n      add\n        /* \"#utility.yul\":5874:5922   */\n      mstore\n        /* \"#utility.yul\":5939:5957   */\n      0x64\n      add\n        /* \"contracts/DisputeDAO.sol\":2056:2108  require(msg.value >= minStake, \"Insufficient stake\") */\n      tag_123\n        /* \"#utility.yul\":5621:5963   */\n      jump\n        /* \"contracts/DisputeDAO.sol\":2056:2108  require(msg.value >= minStake, \"Insufficient stake\") */\n    tag_171:\n        /* \"contracts/DisputeDAO.sol\":2135:2145  msg.sender */\n      caller\n        /* \"contracts/DisputeDAO.sol\":2128:2134  jurors */\n      0x00\n        /* \"contracts/DisputeDAO.sol\":2128:2146  jurors[msg.sender] */\n      swap1\n      dup2\n      mstore\n      0x20\n      dup2\n      swap1\n      mstore\n      0x40\n      swap1\n      keccak256\n        /* \"contracts/DisputeDAO.sol\":2128:2155  jurors[msg.sender].isActive */\n      0x02\n      add\n      sload\n      0xff\n      and\n        /* \"contracts/DisputeDAO.sol\":2127:2155  !jurors[msg.sender].isActive */\n      iszero\n        /* \"contracts/DisputeDAO.sol\":2119:2173  require(!jurors[msg.sender].isActive, \"Already juror\") */\n      tag_174\n      jumpi\n      mload(0x40)\n      shl(0xe5, 0x461bcd)\n      dup2\n      mstore\n        /* \"#utility.yul\":6170:6172   */\n      0x20\n        /* \"contracts/DisputeDAO.sol\":2119:2173  require(!jurors[msg.sender].isActive, \"Already juror\") */\n      0x04\n      dup3\n      add\n        /* \"#utility.yul\":6152:6173   */\n      mstore\n        /* \"#utility.yul\":6209:6211   */\n      0x0d\n        /* \"#utility.yul\":6189:6207   */\n      0x24\n      dup3\n      add\n        /* \"#utility.yul\":6182:6212   */\n      mstore\n      shl(0x99, 0x20b63932b0b23c90353ab937b9)\n        /* \"#utility.yul\":6228:6246   */\n      0x44\n      dup3\n      add\n        /* \"#utility.yul\":6221:6264   */\n      mstore\n        /* \"#utility.yul\":6281:6299   */\n      0x64\n      add\n        /* \"contracts/DisputeDAO.sol\":2119:2173  require(!jurors[msg.sender].isActive, \"Already juror\") */\n      tag_123\n        /* \"#utility.yul\":5968:6305   */\n      jump\n        /* \"contracts/DisputeDAO.sol\":2119:2173  require(!jurors[msg.sender].isActive, \"Already juror\") */\n    tag_174:\n        /* \"contracts/DisputeDAO.sol\":2205:2288  Juror({addr: msg.sender, stakeAmount: msg.value, isActive: true, lastDisputeId: 0}) */\n      0x40\n      dup1\n      mload\n      0x80\n      dup2\n      add\n      dup3\n      mstore\n        /* \"contracts/DisputeDAO.sol\":2218:2228  msg.sender */\n      caller\n        /* \"contracts/DisputeDAO.sol\":2205:2288  Juror({addr: msg.sender, stakeAmount: msg.value, isActive: true, lastDisputeId: 0}) */\n      dup1\n      dup3\n      mstore\n        /* \"contracts/DisputeDAO.sol\":2243:2252  msg.value */\n      callvalue\n        /* \"contracts/DisputeDAO.sol\":2205:2288  Juror({addr: msg.sender, stakeAmount: msg.value, isActive: true, lastDisputeId: 0}) */\n      0x20\n      dup1\n      dup5\n      add\n      dup3\n      dup2\n      mstore\n        /* \"contracts/DisputeDAO.sol\":2264:2268  true */\n      0x01\n        /* \"contracts/DisputeDAO.sol\":2205:2288  Juror({addr: msg.sender, stakeAmount: msg.value, isActive: true, lastDisputeId: 0}) */\n      dup6\n      dup8\n      add\n      dup2\n      dup2\n      mstore\n      0x00\n      0x60\n      dup9\n      add\n      dup2\n      dup2\n      mstore\n        /* \"contracts/DisputeDAO.sol\":2184:2202  jurors[msg.sender] */\n      dup8\n      dup3\n      mstore\n      dup2\n      dup7\n      mstore\n      dup10\n      dup3\n      keccak256\n        /* \"contracts/DisputeDAO.sol\":2184:2288  jurors[msg.sender] = Juror({addr: msg.sender, stakeAmount: msg.value, isActive: true, lastDisputeId: 0}) */\n      swap9\n      mload\n      dup10\n      sload\n      sub(shl(0xa0, 0x01), 0x01)\n      swap1\n      swap2\n      and\n      not(sub(shl(0xa0, 0x01), 0x01))\n      swap2\n      dup3\n      and\n      or\n      dup11\n      sstore\n      swap5\n      mload\n      dup10\n      dup6\n      add\n      sstore\n      swap2\n      mload\n      0x02\n      dup10\n      add\n      dup1\n      sload\n      swap2\n      iszero\n      iszero\n      not(0xff)\n      swap1\n      swap3\n      and\n      swap2\n      swap1\n      swap2\n      or\n      swap1\n      sstore\n      swap1\n      mload\n      0x03\n      swap1\n      swap8\n      add\n      swap7\n      swap1\n      swap7\n      sstore\n        /* \"contracts/DisputeDAO.sol\":2299:2325  jurorList.push(msg.sender) */\n      dup1\n      sload\n      dup1\n      dup3\n      add\n      dup3\n      sstore\n      swap6\n      mstore\n      0xb10e2d527612073b26eecdfd717e6a320cf44b4afac2b0732d9fcbe2b7fa0cf6\n      swap1\n      swap5\n      add\n      dup1\n      sload\n      swap1\n      swap5\n      and\n      dup4\n      or\n      swap1\n      swap4\n      sstore\n        /* \"contracts/DisputeDAO.sol\":2341:2375  JurorStaked(msg.sender, msg.value) */\n      swap3\n      mload\n        /* \"#utility.yul\":1202:1227   */\n      swap3\n      dup4\n      mstore\n        /* \"contracts/DisputeDAO.sol\":2218:2228  msg.sender */\n      swap2\n        /* \"contracts/DisputeDAO.sol\":2341:2375  JurorStaked(msg.sender, msg.value) */\n      0xc9626d754b3720da351a26831dc4d1481cb9f2dd7ec9ba5356f710bcf4354b59\n      swap2\n        /* \"#utility.yul\":1175:1193   */\n      add\n        /* \"contracts/DisputeDAO.sol\":2341:2375  JurorStaked(msg.sender, msg.value) */\n      mload(0x40)\n      dup1\n      swap2\n      sub\n      swap1\n      log2\n        /* \"contracts/DisputeDAO.sol\":2011:2383  function stake() external payable {... */\n      jump\t// out\n        /* \"contracts/DisputeDAO.sol\":7330:7466  function getDisputeJurors(uint256 disputeId) external view returns (address[] memory) {... */\n    tag_57:\n        /* \"contracts/DisputeDAO.sol\":7434:7458  disputeJurors[disputeId] */\n      0x00\n      dup2\n      dup2\n      mstore\n        /* \"contracts/DisputeDAO.sol\":7434:7447  disputeJurors */\n      0x06\n        /* \"contracts/DisputeDAO.sol\":7434:7458  disputeJurors[disputeId] */\n      0x20\n      swap1\n      dup2\n      mstore\n      0x40\n      swap2\n      dup3\n      swap1\n      keccak256\n        /* \"contracts/DisputeDAO.sol\":7427:7458  return disputeJurors[disputeId] */\n      dup1\n      sload\n      dup4\n      mload\n      dup2\n      dup5\n      mul\n      dup2\n      add\n      dup5\n      add\n      swap1\n      swap5\n      mstore\n      dup1\n      dup5\n      mstore\n        /* \"contracts/DisputeDAO.sol\":7398:7414  address[] memory */\n      0x60\n      swap4\n        /* \"contracts/DisputeDAO.sol\":7427:7458  return disputeJurors[disputeId] */\n      swap3\n      dup4\n      add\n        /* \"contracts/DisputeDAO.sol\":7434:7458  disputeJurors[disputeId] */\n      dup3\n        /* \"contracts/DisputeDAO.sol\":7427:7458  return disputeJurors[disputeId] */\n      dup3\n      dup1\n      iszero\n      tag_180\n      jumpi\n      0x20\n      mul\n      dup3\n      add\n      swap2\n      swap1\n      0x00\n      mstore\n      keccak256(0x00, 0x20)\n      swap1\n    tag_181:\n      dup2\n      sload\n      sub(shl(0xa0, 0x01), 0x01)\n      and\n      dup2\n      mstore\n      0x01\n      swap1\n      swap2\n      add\n      swap1\n      0x20\n      add\n      dup1\n      dup4\n      gt\n      tag_181\n      jumpi\n    tag_180:\n      pop\n      pop\n      pop\n      pop\n      pop\n      swap1\n      pop\n        /* \"contracts/DisputeDAO.sol\":7330:7466  function getDisputeJurors(uint256 disputeId) external view returns (address[] memory) {... */\n      swap2\n      swap1\n      pop\n      jump\t// out\n        /* \"contracts/DisputeDAO.sol\":2888:5593  function handleDispute(uint256 disputeId) external onlyTaskFactory {... */\n    tag_63:\n        /* \"contracts/DisputeDAO.sol\":1531:1542  taskFactory */\n      and(sub(shl(0xa0, 0x01), 0x01), sload(0x04))\n        /* \"contracts/DisputeDAO.sol\":1517:1527  msg.sender */\n      caller\n        /* \"contracts/DisputeDAO.sol\":1517:1542  msg.sender == taskFactory */\n      eq\n        /* \"contracts/DisputeDAO.sol\":1509:1563  require(msg.sender == taskFactory, \"Only TaskFactory\") */\n      tag_183\n      jumpi\n      mload(0x40)\n      shl(0xe5, 0x461bcd)\n      dup2\n      mstore\n        /* \"#utility.yul\":6512:6514   */\n      0x20\n        /* \"contracts/DisputeDAO.sol\":1509:1563  require(msg.sender == taskFactory, \"Only TaskFactory\") */\n      0x04\n      dup3\n      add\n        /* \"#utility.yul\":6494:6515   */\n      mstore\n        /* \"#utility.yul\":6551:6553   */\n      0x10\n        /* \"#utility.yul\":6531:6549   */\n      0x24\n      dup3\n      add\n        /* \"#utility.yul\":6524:6554   */\n      mstore\n      shl(0x80, 0x4f6e6c79205461736b466163746f7279)\n        /* \"#utility.yul\":6570:6588   */\n      0x44\n      dup3\n      add\n        /* \"#utility.yul\":6563:6609   */\n      mstore\n        /* \"#utility.yul\":6626:6644   */\n      0x64\n      add\n        /* \"contracts/DisputeDAO.sol\":1509:1563  require(msg.sender == taskFactory, \"Only TaskFactory\") */\n      tag_123\n        /* \"#utility.yul\":6310:6650   */\n      jump\n        /* \"contracts/DisputeDAO.sol\":1509:1563  require(msg.sender == taskFactory, \"Only TaskFactory\") */\n    tag_183:\n        /* \"contracts/DisputeDAO.sol\":2974:2998  disputeJurors[disputeId] */\n      0x00\n      dup2\n      dup2\n      mstore\n        /* \"contracts/DisputeDAO.sol\":2974:2987  disputeJurors */\n      0x06\n        /* \"contracts/DisputeDAO.sol\":2974:2998  disputeJurors[disputeId] */\n      0x20\n      mstore\n      0x40\n      swap1\n      keccak256\n        /* \"contracts/DisputeDAO.sol\":2974:3005  disputeJurors[disputeId].length */\n      sload\n        /* \"contracts/DisputeDAO.sol\":2974:3010  disputeJurors[disputeId].length == 0 */\n      iszero\n        /* \"contracts/DisputeDAO.sol\":2966:3038  require(disputeJurors[disputeId].length == 0, \"Dispute already started\") */\n      tag_187\n      jumpi\n      mload(0x40)\n      shl(0xe5, 0x461bcd)\n      dup2\n      mstore\n        /* \"#utility.yul\":6857:6859   */\n      0x20\n        /* \"contracts/DisputeDAO.sol\":2966:3038  require(disputeJurors[disputeId].length == 0, \"Dispute already started\") */\n      0x04\n      dup3\n      add\n        /* \"#utility.yul\":6839:6860   */\n      mstore\n        /* \"#utility.yul\":6896:6898   */\n      0x17\n        /* \"#utility.yul\":6876:6894   */\n      0x24\n      dup3\n      add\n        /* \"#utility.yul\":6869:6899   */\n      mstore\n        /* \"#utility.yul\":6935:6960   */\n      0x4469737075746520616c72656164792073746172746564000000000000000000\n        /* \"#utility.yul\":6915:6933   */\n      0x44\n      dup3\n      add\n        /* \"#utility.yul\":6908:6961   */\n      mstore\n        /* \"#utility.yul\":6978:6996   */\n      0x64\n      add\n        /* \"contracts/DisputeDAO.sol\":2966:3038  require(disputeJurors[disputeId].length == 0, \"Dispute already started\") */\n      tag_123\n        /* \"#utility.yul\":6655:7002   */\n      jump\n        /* \"contracts/DisputeDAO.sol\":2966:3038  require(disputeJurors[disputeId].length == 0, \"Dispute already started\") */\n    tag_187:\n        /* \"contracts/DisputeDAO.sol\":3077:3093  jurorsPerDispute */\n      sload(0x03)\n        /* \"contracts/DisputeDAO.sol\":3057:3066  jurorList */\n      0x01\n        /* \"contracts/DisputeDAO.sol\":3057:3073  jurorList.length */\n      sload\n        /* \"contracts/DisputeDAO.sol\":3057:3093  jurorList.length >= jurorsPerDispute */\n      lt\n      iszero\n        /* \"contracts/DisputeDAO.sol\":3049:3115  require(jurorList.length >= jurorsPerDispute, \"Not enough jurors\") */\n      tag_190\n      jumpi\n      mload(0x40)\n      shl(0xe5, 0x461bcd)\n      dup2\n      mstore\n        /* \"#utility.yul\":7209:7211   */\n      0x20\n        /* \"contracts/DisputeDAO.sol\":3049:3115  require(jurorList.length >= jurorsPerDispute, \"Not enough jurors\") */\n      0x04\n      dup3\n      add\n        /* \"#utility.yul\":7191:7212   */\n      mstore\n        /* \"#utility.yul\":7248:7250   */\n      0x11\n        /* \"#utility.yul\":7228:7246   */\n      0x24\n      dup3\n      add\n        /* \"#utility.yul\":7221:7251   */\n      mstore\n      shl(0x78, 0x4e6f7420656e6f756768206a75726f7273)\n        /* \"#utility.yul\":7267:7285   */\n      0x44\n      dup3\n      add\n        /* \"#utility.yul\":7260:7307   */\n      mstore\n        /* \"#utility.yul\":7324:7342   */\n      0x64\n      add\n        /* \"contracts/DisputeDAO.sol\":3049:3115  require(jurorList.length >= jurorsPerDispute, \"Not enough jurors\") */\n      tag_123\n        /* \"#utility.yul\":7007:7348   */\n      jump\n        /* \"contracts/DisputeDAO.sol\":3049:3115  require(jurorList.length >= jurorsPerDispute, \"Not enough jurors\") */\n    tag_190:\n        /* \"contracts/DisputeDAO.sol\":3170:3179  jurorList */\n      0x01\n        /* \"contracts/DisputeDAO.sol\":3170:3186  jurorList.length */\n      sload\n        /* \"contracts/DisputeDAO.sol\":3126:3153  address[] memory candidates */\n      0x00\n      swap1\n        /* \"contracts/DisputeDAO.sol\":3156:3187  new address[](jurorList.length) */\n      0xffffffffffffffff\n      dup2\n      gt\n      iszero\n      tag_194\n      jumpi\n      tag_194\n      tag_195\n      jump\t// in\n    tag_194:\n      mload(0x40)\n      swap1\n      dup1\n      dup3\n      mstore\n      dup1\n      0x20\n      mul\n      0x20\n      add\n      dup3\n      add\n      0x40\n      mstore\n      dup1\n      iszero\n      tag_196\n      jumpi\n      dup2\n      0x20\n      add\n      0x20\n      dup3\n      mul\n      dup1\n      calldatasize\n      dup4\n      calldatacopy\n      add\n      swap1\n      pop\n    tag_196:\n      pop\n        /* \"contracts/DisputeDAO.sol\":3126:3187  address[] memory candidates = new address[](jurorList.length) */\n      swap1\n      pop\n        /* \"contracts/DisputeDAO.sol\":3198:3220  uint256 candidateCount */\n      0x00\n      dup1\n        /* \"contracts/DisputeDAO.sol\":3281:3607  for (uint256 jurorIndex = 0; jurorIndex < jurorList.length; jurorIndex++) {... */\n    tag_197:\n        /* \"contracts/DisputeDAO.sol\":3323:3332  jurorList */\n      0x01\n        /* \"contracts/DisputeDAO.sol\":3323:3339  jurorList.length */\n      sload\n        /* \"contracts/DisputeDAO.sol\":3310:3339  jurorIndex < jurorList.length */\n      dup2\n      lt\n        /* \"contracts/DisputeDAO.sol\":3281:3607  for (uint256 jurorIndex = 0; jurorIndex < jurorList.length; jurorIndex++) {... */\n      iszero\n      tag_198\n      jumpi\n        /* \"contracts/DisputeDAO.sol\":3370:3387  address jurorAddr */\n      0x00\n        /* \"contracts/DisputeDAO.sol\":3390:3399  jurorList */\n      0x01\n        /* \"contracts/DisputeDAO.sol\":3400:3410  jurorIndex */\n      dup3\n        /* \"contracts/DisputeDAO.sol\":3390:3411  jurorList[jurorIndex] */\n      dup2\n      sload\n      dup2\n      lt\n      tag_201\n      jumpi\n      tag_201\n      tag_130\n      jump\t// in\n    tag_201:\n      0x00\n      swap2\n      dup3\n      mstore\n      0x20\n      dup1\n      dup4\n      keccak256\n      swap1\n      swap2\n      add\n      sload\n      sub(shl(0xa0, 0x01), 0x01)\n      and\n        /* \"contracts/DisputeDAO.sol\":3430:3447  jurors[jurorAddr] */\n      dup1\n      dup4\n      mstore\n      swap1\n      dup3\n      swap1\n      mstore\n      0x40\n      swap1\n      swap2\n      keccak256\n        /* \"contracts/DisputeDAO.sol\":3430:3456  jurors[jurorAddr].isActive */\n      0x02\n      add\n      sload\n        /* \"contracts/DisputeDAO.sol\":3390:3411  jurorList[jurorIndex] */\n      swap1\n      swap2\n      pop\n        /* \"contracts/DisputeDAO.sol\":3430:3456  jurors[jurorAddr].isActive */\n      0xff\n      and\n        /* \"contracts/DisputeDAO.sol\":3430:3519  jurors[jurorAddr].isActive && disputeId > jurors[jurorAddr].lastDisputeId + jurorCooldown */\n      dup1\n      iszero\n      tag_203\n      jumpi\n      pop\n        /* \"contracts/DisputeDAO.sol\":3506:3519  jurorCooldown */\n      sload(0x05)\n      sub(shl(0xa0, 0x01), 0x01)\n        /* \"contracts/DisputeDAO.sol\":3472:3489  jurors[jurorAddr] */\n      dup3\n      and\n        /* \"contracts/DisputeDAO.sol\":3472:3478  jurors */\n      0x00\n        /* \"contracts/DisputeDAO.sol\":3472:3489  jurors[jurorAddr] */\n      swap1\n      dup2\n      mstore\n      0x20\n      dup2\n      swap1\n      mstore\n      0x40\n      swap1\n      keccak256\n        /* \"contracts/DisputeDAO.sol\":3472:3503  jurors[jurorAddr].lastDisputeId */\n      0x03\n      add\n      sload\n        /* \"contracts/DisputeDAO.sol\":3472:3519  jurors[jurorAddr].lastDisputeId + jurorCooldown */\n      tag_204\n      swap2\n        /* \"contracts/DisputeDAO.sol\":3506:3519  jurorCooldown */\n      swap1\n        /* \"contracts/DisputeDAO.sol\":3472:3519  jurors[jurorAddr].lastDisputeId + jurorCooldown */\n      tag_205\n      jump\t// in\n    tag_204:\n        /* \"contracts/DisputeDAO.sol\":3460:3469  disputeId */\n      dup6\n        /* \"contracts/DisputeDAO.sol\":3460:3519  disputeId > jurors[jurorAddr].lastDisputeId + jurorCooldown */\n      gt\n        /* \"contracts/DisputeDAO.sol\":3430:3519  jurors[jurorAddr].isActive && disputeId > jurors[jurorAddr].lastDisputeId + jurorCooldown */\n    tag_203:\n        /* \"contracts/DisputeDAO.sol\":3426:3596  if (jurors[jurorAddr].isActive && disputeId > jurors[jurorAddr].lastDisputeId + jurorCooldown) {... */\n      iszero\n      tag_206\n      jumpi\n        /* \"contracts/DisputeDAO.sol\":3571:3580  jurorAddr */\n      dup1\n        /* \"contracts/DisputeDAO.sol\":3540:3550  candidates */\n      dup5\n        /* \"contracts/DisputeDAO.sol\":3551:3567  candidateCount++ */\n      dup5\n      tag_207\n      dup2\n      tag_140\n      jump\t// in\n    tag_207:\n      swap6\n      pop\n        /* \"contracts/DisputeDAO.sol\":3540:3568  candidates[candidateCount++] */\n      dup2\n      mload\n      dup2\n      lt\n      tag_209\n      jumpi\n      tag_209\n      tag_130\n      jump\t// in\n    tag_209:\n      0x20\n      mul\n      0x20\n      add\n      add\n        /* \"contracts/DisputeDAO.sol\":3540:3580  candidates[candidateCount++] = jurorAddr */\n      swap1\n      sub(shl(0xa0, 0x01), 0x01)\n      and\n      swap1\n      dup2\n      sub(shl(0xa0, 0x01), 0x01)\n      and\n      dup2\n      mstore\n      pop\n      pop\n        /* \"contracts/DisputeDAO.sol\":3426:3596  if (jurors[jurorAddr].isActive && disputeId > jurors[jurorAddr].lastDisputeId + jurorCooldown) {... */\n    tag_206:\n      pop\n        /* \"contracts/DisputeDAO.sol\":3341:3353  jurorIndex++ */\n      0x01\n      add\n        /* \"contracts/DisputeDAO.sol\":3281:3607  for (uint256 jurorIndex = 0; jurorIndex < jurorList.length; jurorIndex++) {... */\n      jump(tag_197)\n    tag_198:\n      pop\n        /* \"contracts/DisputeDAO.sol\":3645:3670  address[] memory selected */\n      0x00\n        /* \"contracts/DisputeDAO.sol\":3687:3703  jurorsPerDispute */\n      sload(0x03)\n        /* \"contracts/DisputeDAO.sol\":3673:3704  new address[](jurorsPerDispute) */\n      0xffffffffffffffff\n      dup2\n      gt\n      iszero\n      tag_211\n      jumpi\n      tag_211\n      tag_195\n      jump\t// in\n    tag_211:\n      mload(0x40)\n      swap1\n      dup1\n      dup3\n      mstore\n      dup1\n      0x20\n      mul\n      0x20\n      add\n      dup3\n      add\n      0x40\n      mstore\n      dup1\n      iszero\n      tag_212\n      jumpi\n      dup2\n      0x20\n      add\n      0x20\n      dup3\n      mul\n      dup1\n      calldatasize\n      dup4\n      calldatacopy\n      add\n      swap1\n      pop\n    tag_212:\n      pop\n        /* \"contracts/DisputeDAO.sol\":3776:3820  abi.encodePacked(block.timestamp, disputeId) */\n      0x40\n      dup1\n      mload\n        /* \"contracts/DisputeDAO.sol\":3793:3808  block.timestamp */\n      timestamp\n        /* \"contracts/DisputeDAO.sol\":3776:3820  abi.encodePacked(block.timestamp, disputeId) */\n      0x20\n      dup1\n      dup4\n      add\n        /* \"#utility.yul\":7772:7791   */\n      swap2\n      swap1\n      swap2\n      mstore\n        /* \"#utility.yul\":7807:7819   */\n      dup2\n      dup4\n      add\n        /* \"#utility.yul\":7800:7828   */\n      dup9\n      swap1\n      mstore\n        /* \"contracts/DisputeDAO.sol\":3776:3820  abi.encodePacked(block.timestamp, disputeId) */\n      dup3\n      mload\n      dup1\n      dup4\n      sub\n      dup5\n      add\n      dup2\n      mstore\n        /* \"#utility.yul\":7844:7856   */\n      0x60\n      swap1\n      swap3\n      add\n        /* \"contracts/DisputeDAO.sol\":3776:3820  abi.encodePacked(block.timestamp, disputeId) */\n      swap1\n      swap3\n      mstore\n        /* \"contracts/DisputeDAO.sol\":3766:3821  keccak256(abi.encodePacked(block.timestamp, disputeId)) */\n      dup1\n      mload\n      swap2\n      add\n      keccak256\n        /* \"contracts/DisputeDAO.sol\":3645:3704  address[] memory selected = new address[](jurorsPerDispute) */\n      swap1\n      swap2\n      pop\n      0x00\n      swap1\n      dup2\n        /* \"contracts/DisputeDAO.sol\":3857:4426  while (count < jurorsPerDispute && i < candidateCount * 2) {... */\n    tag_215:\n        /* \"contracts/DisputeDAO.sol\":3872:3888  jurorsPerDispute */\n      sload(0x03)\n        /* \"contracts/DisputeDAO.sol\":3864:3869  count */\n      dup4\n        /* \"contracts/DisputeDAO.sol\":3864:3888  count < jurorsPerDispute */\n      lt\n        /* \"contracts/DisputeDAO.sol\":3864:3914  count < jurorsPerDispute && i < candidateCount * 2 */\n      dup1\n      iszero\n      tag_217\n      jumpi\n      pop\n        /* \"contracts/DisputeDAO.sol\":3896:3914  candidateCount * 2 */\n      tag_218\n        /* \"contracts/DisputeDAO.sol\":3896:3910  candidateCount */\n      dup6\n        /* \"contracts/DisputeDAO.sol\":3913:3914  2 */\n      0x02\n        /* \"contracts/DisputeDAO.sol\":3896:3914  candidateCount * 2 */\n      tag_219\n      jump\t// in\n    tag_218:\n        /* \"contracts/DisputeDAO.sol\":3892:3893  i */\n      dup2\n        /* \"contracts/DisputeDAO.sol\":3892:3914  i < candidateCount * 2 */\n      lt\n        /* \"contracts/DisputeDAO.sol\":3864:3914  count < jurorsPerDispute && i < candidateCount * 2 */\n    tag_217:\n        /* \"contracts/DisputeDAO.sol\":3857:4426  while (count < jurorsPerDispute && i < candidateCount * 2) {... */\n      iszero\n      tag_216\n      jumpi\n        /* \"contracts/DisputeDAO.sol\":3931:3948  address candidate */\n      0x00\n        /* \"contracts/DisputeDAO.sol\":3951:3961  candidates */\n      dup7\n        /* \"contracts/DisputeDAO.sol\":4010:4024  candidateCount */\n      dup7\n        /* \"contracts/DisputeDAO.sol\":3997:4001  seed */\n      dup5\n        /* \"contracts/DisputeDAO.sol\":4003:4004  i */\n      dup5\n        /* \"contracts/DisputeDAO.sol\":3980:4005  abi.encodePacked(seed, i) */\n      add(0x20, mload(0x40))\n      tag_220\n      swap3\n      swap2\n      swap1\n        /* \"#utility.yul\":7772:7791   */\n      swap2\n      dup3\n      mstore\n        /* \"#utility.yul\":7816:7818   */\n      0x20\n        /* \"#utility.yul\":7807:7819   */\n      dup3\n      add\n        /* \"#utility.yul\":7800:7828   */\n      mstore\n        /* \"#utility.yul\":7853:7855   */\n      0x40\n        /* \"#utility.yul\":7844:7856   */\n      add\n      swap1\n        /* \"#utility.yul\":7615:7862   */\n      jump\n        /* \"contracts/DisputeDAO.sol\":3980:4005  abi.encodePacked(seed, i) */\n    tag_220:\n      mload(0x40)\n      0x20\n      dup2\n      dup4\n      sub\n      sub\n      dup2\n      mstore\n      swap1\n      0x40\n      mstore\n        /* \"contracts/DisputeDAO.sol\":3970:4006  keccak256(abi.encodePacked(seed, i)) */\n      dup1\n      mload\n      swap1\n      0x20\n      add\n      keccak256\n        /* \"contracts/DisputeDAO.sol\":3962:4007  uint256(keccak256(abi.encodePacked(seed, i))) */\n      0x00\n      shr\n        /* \"contracts/DisputeDAO.sol\":3962:4024  uint256(keccak256(abi.encodePacked(seed, i))) % candidateCount */\n      tag_221\n      swap2\n      swap1\n      tag_222\n      jump\t// in\n    tag_221:\n        /* \"contracts/DisputeDAO.sol\":3951:4025  candidates[uint256(keccak256(abi.encodePacked(seed, i))) % candidateCount] */\n      dup2\n      mload\n      dup2\n      lt\n      tag_224\n      jumpi\n      tag_224\n      tag_130\n      jump\t// in\n    tag_224:\n      0x20\n      swap1\n      dup2\n      mul\n      swap2\n      swap1\n      swap2\n      add\n      add\n      mload\n      swap1\n      pop\n        /* \"contracts/DisputeDAO.sol\":4040:4060  bool alreadySelected */\n      0x00\n      dup1\n        /* \"contracts/DisputeDAO.sol\":4083:4273  for (uint j = 0; j < count; j++) {... */\n    tag_225:\n        /* \"contracts/DisputeDAO.sol\":4104:4109  count */\n      dup6\n        /* \"contracts/DisputeDAO.sol\":4100:4101  j */\n      dup2\n        /* \"contracts/DisputeDAO.sol\":4100:4109  j < count */\n      lt\n        /* \"contracts/DisputeDAO.sol\":4083:4273  for (uint j = 0; j < count; j++) {... */\n      iszero\n      tag_226\n      jumpi\n        /* \"contracts/DisputeDAO.sol\":4154:4163  candidate */\n      dup3\n      sub(shl(0xa0, 0x01), 0x01)\n        /* \"contracts/DisputeDAO.sol\":4139:4163  selected[j] == candidate */\n      and\n        /* \"contracts/DisputeDAO.sol\":4139:4147  selected */\n      dup8\n        /* \"contracts/DisputeDAO.sol\":4148:4149  j */\n      dup3\n        /* \"contracts/DisputeDAO.sol\":4139:4150  selected[j] */\n      dup2\n      mload\n      dup2\n      lt\n      tag_229\n      jumpi\n      tag_229\n      tag_130\n      jump\t// in\n    tag_229:\n      0x20\n      mul\n      0x20\n      add\n      add\n      mload\n      sub(shl(0xa0, 0x01), 0x01)\n        /* \"contracts/DisputeDAO.sol\":4139:4163  selected[j] == candidate */\n      and\n      sub\n        /* \"contracts/DisputeDAO.sol\":4135:4258  if (selected[j] == candidate) {... */\n      tag_230\n      jumpi\n        /* \"contracts/DisputeDAO.sol\":4206:4210  true */\n      0x01\n        /* \"contracts/DisputeDAO.sol\":4188:4210  alreadySelected = true */\n      swap2\n      pop\n        /* \"contracts/DisputeDAO.sol\":4233:4238  break */\n      jump(tag_226)\n        /* \"contracts/DisputeDAO.sol\":4135:4258  if (selected[j] == candidate) {... */\n    tag_230:\n        /* \"contracts/DisputeDAO.sol\":4111:4114  j++ */\n      0x01\n      add\n        /* \"contracts/DisputeDAO.sol\":4083:4273  for (uint j = 0; j < count; j++) {... */\n      jump(tag_225)\n    tag_226:\n      pop\n        /* \"contracts/DisputeDAO.sol\":4292:4307  alreadySelected */\n      dup1\n        /* \"contracts/DisputeDAO.sol\":4287:4397  if (!alreadySelected) {... */\n      tag_231\n      jumpi\n        /* \"contracts/DisputeDAO.sol\":4346:4355  candidate */\n      dup2\n        /* \"contracts/DisputeDAO.sol\":4328:4336  selected */\n      dup7\n        /* \"contracts/DisputeDAO.sol\":4337:4342  count */\n      dup7\n        /* \"contracts/DisputeDAO.sol\":4328:4343  selected[count] */\n      dup2\n      mload\n      dup2\n      lt\n      tag_233\n      jumpi\n      tag_233\n      tag_130\n      jump\t// in\n    tag_233:\n      sub(shl(0xa0, 0x01), 0x01)\n        /* \"contracts/DisputeDAO.sol\":4328:4355  selected[count] = candidate */\n      swap1\n      swap3\n      and\n        /* \"contracts/DisputeDAO.sol\":4328:4343  selected[count] */\n      0x20\n      swap3\n      dup4\n      mul\n      swap2\n      swap1\n      swap2\n      add\n      swap1\n      swap2\n      add\n        /* \"contracts/DisputeDAO.sol\":4328:4355  selected[count] = candidate */\n      mstore\n        /* \"contracts/DisputeDAO.sol\":4374:4381  count++ */\n      dup5\n      tag_234\n      dup2\n      tag_140\n      jump\t// in\n    tag_234:\n      swap6\n      pop\n      pop\n        /* \"contracts/DisputeDAO.sol\":4287:4397  if (!alreadySelected) {... */\n    tag_231:\n        /* \"contracts/DisputeDAO.sol\":4411:4414  i++ */\n      dup3\n      tag_235\n      dup2\n      tag_140\n      jump\t// in\n    tag_235:\n      swap4\n      pop\n      pop\n        /* \"contracts/DisputeDAO.sol\":3916:4426  {... */\n      pop\n      pop\n        /* \"contracts/DisputeDAO.sol\":3857:4426  while (count < jurorsPerDispute && i < candidateCount * 2) {... */\n      jump(tag_215)\n    tag_216:\n        /* \"contracts/DisputeDAO.sol\":4530:4546  jurorsPerDispute */\n      sload(0x03)\n        /* \"contracts/DisputeDAO.sol\":4522:4527  count */\n      dup4\n        /* \"contracts/DisputeDAO.sol\":4522:4546  count < jurorsPerDispute */\n      lt\n        /* \"contracts/DisputeDAO.sol\":4518:5242  if (count < jurorsPerDispute) {... */\n      iszero\n      tag_236\n      jumpi\n        /* \"contracts/DisputeDAO.sol\":4568:4574  uint k */\n      0x00\n        /* \"contracts/DisputeDAO.sol\":4563:5231  for (uint k = 0; k < jurorList.length && count < jurorsPerDispute; k++) {... */\n    tag_237:\n        /* \"contracts/DisputeDAO.sol\":4584:4593  jurorList */\n      0x01\n        /* \"contracts/DisputeDAO.sol\":4584:4600  jurorList.length */\n      sload\n        /* \"contracts/DisputeDAO.sol\":4580:4600  k < jurorList.length */\n      dup2\n      lt\n        /* \"contracts/DisputeDAO.sol\":4580:4628  k < jurorList.length && count < jurorsPerDispute */\n      dup1\n      iszero\n      tag_240\n      jumpi\n      pop\n        /* \"contracts/DisputeDAO.sol\":4612:4628  jurorsPerDispute */\n      sload(0x03)\n        /* \"contracts/DisputeDAO.sol\":4604:4609  count */\n      dup5\n        /* \"contracts/DisputeDAO.sol\":4604:4628  count < jurorsPerDispute */\n      lt\n        /* \"contracts/DisputeDAO.sol\":4580:4628  k < jurorList.length && count < jurorsPerDispute */\n    tag_240:\n        /* \"contracts/DisputeDAO.sol\":4563:5231  for (uint k = 0; k < jurorList.length && count < jurorsPerDispute; k++) {... */\n      iszero\n      tag_238\n      jumpi\n        /* \"contracts/DisputeDAO.sol\":4654:4671  address jurorAddr */\n      0x00\n        /* \"contracts/DisputeDAO.sol\":4674:4683  jurorList */\n      0x01\n        /* \"contracts/DisputeDAO.sol\":4684:4685  k */\n      dup3\n        /* \"contracts/DisputeDAO.sol\":4674:4686  jurorList[k] */\n      dup2\n      sload\n      dup2\n      lt\n      tag_242\n      jumpi\n      tag_242\n      tag_130\n      jump\t// in\n    tag_242:\n      0x00\n      swap2\n      dup3\n      mstore\n      0x20\n      dup1\n      dup4\n      keccak256\n      swap1\n      swap2\n      add\n      sload\n      sub(shl(0xa0, 0x01), 0x01)\n      and\n        /* \"contracts/DisputeDAO.sol\":4709:4726  jurors[jurorAddr] */\n      dup1\n      dup4\n      mstore\n      swap1\n      dup3\n      swap1\n      mstore\n      0x40\n      swap1\n      swap2\n      keccak256\n        /* \"contracts/DisputeDAO.sol\":4709:4735  jurors[jurorAddr].isActive */\n      0x02\n      add\n      sload\n        /* \"contracts/DisputeDAO.sol\":4674:4686  jurorList[k] */\n      swap1\n      swap2\n      pop\n        /* \"contracts/DisputeDAO.sol\":4709:4735  jurors[jurorAddr].isActive */\n      0xff\n      and\n        /* \"contracts/DisputeDAO.sol\":4705:5216  if (jurors[jurorAddr].isActive) {... */\n      iszero\n      tag_244\n      jumpi\n        /* \"contracts/DisputeDAO.sol\":4760:4780  bool alreadySelected */\n      0x00\n      dup1\n        /* \"contracts/DisputeDAO.sol\":4811:5041  for (uint j = 0; j < count; j++) {... */\n    tag_245:\n        /* \"contracts/DisputeDAO.sol\":4832:4837  count */\n      dup7\n        /* \"contracts/DisputeDAO.sol\":4828:4829  j */\n      dup2\n        /* \"contracts/DisputeDAO.sol\":4828:4837  j < count */\n      lt\n        /* \"contracts/DisputeDAO.sol\":4811:5041  for (uint j = 0; j < count; j++) {... */\n      iszero\n      tag_246\n      jumpi\n        /* \"contracts/DisputeDAO.sol\":4890:4899  jurorAddr */\n      dup3\n      sub(shl(0xa0, 0x01), 0x01)\n        /* \"contracts/DisputeDAO.sol\":4875:4899  selected[j] == jurorAddr */\n      and\n        /* \"contracts/DisputeDAO.sol\":4875:4883  selected */\n      dup9\n        /* \"contracts/DisputeDAO.sol\":4884:4885  j */\n      dup3\n        /* \"contracts/DisputeDAO.sol\":4875:4886  selected[j] */\n      dup2\n      mload\n      dup2\n      lt\n      tag_249\n      jumpi\n      tag_249\n      tag_130\n      jump\t// in\n    tag_249:\n      0x20\n      mul\n      0x20\n      add\n      add\n      mload\n      sub(shl(0xa0, 0x01), 0x01)\n        /* \"contracts/DisputeDAO.sol\":4875:4899  selected[j] == jurorAddr */\n      and\n      sub\n        /* \"contracts/DisputeDAO.sol\":4871:5018  if (selected[j] == jurorAddr) {... */\n      tag_250\n      jumpi\n        /* \"contracts/DisputeDAO.sol\":4950:4954  true */\n      0x01\n        /* \"contracts/DisputeDAO.sol\":4932:4954  alreadySelected = true */\n      swap2\n      pop\n        /* \"contracts/DisputeDAO.sol\":4985:4990  break */\n      jump(tag_246)\n        /* \"contracts/DisputeDAO.sol\":4871:5018  if (selected[j] == jurorAddr) {... */\n    tag_250:\n        /* \"contracts/DisputeDAO.sol\":4839:4842  j++ */\n      0x01\n      add\n        /* \"contracts/DisputeDAO.sol\":4811:5041  for (uint j = 0; j < count; j++) {... */\n      jump(tag_245)\n    tag_246:\n      pop\n        /* \"contracts/DisputeDAO.sol\":5068:5083  alreadySelected */\n      dup1\n        /* \"contracts/DisputeDAO.sol\":5063:5197  if (!alreadySelected) {... */\n      tag_251\n      jumpi\n        /* \"contracts/DisputeDAO.sol\":5130:5139  jurorAddr */\n      dup2\n        /* \"contracts/DisputeDAO.sol\":5112:5120  selected */\n      dup8\n        /* \"contracts/DisputeDAO.sol\":5121:5126  count */\n      dup8\n        /* \"contracts/DisputeDAO.sol\":5112:5127  selected[count] */\n      dup2\n      mload\n      dup2\n      lt\n      tag_253\n      jumpi\n      tag_253\n      tag_130\n      jump\t// in\n    tag_253:\n      sub(shl(0xa0, 0x01), 0x01)\n        /* \"contracts/DisputeDAO.sol\":5112:5139  selected[count] = jurorAddr */\n      swap1\n      swap3\n      and\n        /* \"contracts/DisputeDAO.sol\":5112:5127  selected[count] */\n      0x20\n      swap3\n      dup4\n      mul\n      swap2\n      swap1\n      swap2\n      add\n      swap1\n      swap2\n      add\n        /* \"contracts/DisputeDAO.sol\":5112:5139  selected[count] = jurorAddr */\n      mstore\n        /* \"contracts/DisputeDAO.sol\":5166:5173  count++ */\n      dup6\n      tag_254\n      dup2\n      tag_140\n      jump\t// in\n    tag_254:\n      swap7\n      pop\n      pop\n        /* \"contracts/DisputeDAO.sol\":5063:5197  if (!alreadySelected) {... */\n    tag_251:\n        /* \"contracts/DisputeDAO.sol\":4737:5216  {... */\n      pop\n        /* \"contracts/DisputeDAO.sol\":4705:5216  if (jurors[jurorAddr].isActive) {... */\n    tag_244:\n      pop\n        /* \"contracts/DisputeDAO.sol\":4630:4633  k++ */\n      dup1\n      tag_255\n      dup2\n      tag_140\n      jump\t// in\n    tag_255:\n      swap2\n      pop\n      pop\n        /* \"contracts/DisputeDAO.sol\":4563:5231  for (uint k = 0; k < jurorList.length && count < jurorsPerDispute; k++) {... */\n      jump(tag_237)\n    tag_238:\n      pop\n        /* \"contracts/DisputeDAO.sol\":4518:5242  if (count < jurorsPerDispute) {... */\n    tag_236:\n        /* \"contracts/DisputeDAO.sol\":5269:5285  jurorsPerDispute */\n      sload(0x03)\n        /* \"contracts/DisputeDAO.sol\":5260:5265  count */\n      dup4\n        /* \"contracts/DisputeDAO.sol\":5260:5285  count == jurorsPerDispute */\n      eq\n        /* \"contracts/DisputeDAO.sol\":5252:5314  require(count == jurorsPerDispute, \"Not enough unique jurors\") */\n      tag_256\n      jumpi\n      mload(0x40)\n      shl(0xe5, 0x461bcd)\n      dup2\n      mstore\n        /* \"#utility.yul\":8456:8458   */\n      0x20\n        /* \"contracts/DisputeDAO.sol\":5252:5314  require(count == jurorsPerDispute, \"Not enough unique jurors\") */\n      0x04\n      dup3\n      add\n        /* \"#utility.yul\":8438:8459   */\n      mstore\n        /* \"#utility.yul\":8495:8497   */\n      0x18\n        /* \"#utility.yul\":8475:8493   */\n      0x24\n      dup3\n      add\n        /* \"#utility.yul\":8468:8498   */\n      mstore\n        /* \"#utility.yul\":8534:8560   */\n      0x4e6f7420656e6f75676820756e69717565206a75726f72730000000000000000\n        /* \"#utility.yul\":8514:8532   */\n      0x44\n      dup3\n      add\n        /* \"#utility.yul\":8507:8561   */\n      mstore\n        /* \"#utility.yul\":8578:8596   */\n      0x64\n      add\n        /* \"contracts/DisputeDAO.sol\":5252:5314  require(count == jurorsPerDispute, \"Not enough unique jurors\") */\n      tag_123\n        /* \"#utility.yul\":8254:8602   */\n      jump\n        /* \"contracts/DisputeDAO.sol\":5252:5314  require(count == jurorsPerDispute, \"Not enough unique jurors\") */\n    tag_256:\n        /* \"contracts/DisputeDAO.sol\":5325:5349  disputeJurors[disputeId] */\n      0x00\n      dup8\n      dup2\n      mstore\n        /* \"contracts/DisputeDAO.sol\":5325:5338  disputeJurors */\n      0x06\n        /* \"contracts/DisputeDAO.sol\":5325:5349  disputeJurors[disputeId] */\n      0x20\n      swap1\n      dup2\n      mstore\n      0x40\n      swap1\n      swap2\n      keccak256\n        /* \"contracts/DisputeDAO.sol\":5325:5360  disputeJurors[disputeId] = selected */\n      dup6\n      mload\n      tag_259\n      swap3\n      dup8\n      add\n      swap1\n      tag_260\n      jump\t// in\n    tag_259:\n      pop\n        /* \"contracts/DisputeDAO.sol\":5425:5431  uint j */\n      0x00\n        /* \"contracts/DisputeDAO.sol\":5420:5535  for (uint j = 0; j < selected.length; j++) {... */\n    tag_261:\n        /* \"contracts/DisputeDAO.sol\":5441:5449  selected */\n      dup5\n        /* \"contracts/DisputeDAO.sol\":5441:5456  selected.length */\n      mload\n        /* \"contracts/DisputeDAO.sol\":5437:5438  j */\n      dup2\n        /* \"contracts/DisputeDAO.sol\":5437:5456  j < selected.length */\n      lt\n        /* \"contracts/DisputeDAO.sol\":5420:5535  for (uint j = 0; j < selected.length; j++) {... */\n      iszero\n      tag_262\n      jumpi\n        /* \"contracts/DisputeDAO.sol\":5514:5523  disputeId */\n      dup8\n        /* \"contracts/DisputeDAO.sol\":5478:5484  jurors */\n      0x00\n        /* \"contracts/DisputeDAO.sol\":5478:5497  jurors[selected[j]] */\n      0x00\n        /* \"contracts/DisputeDAO.sol\":5485:5493  selected */\n      dup8\n        /* \"contracts/DisputeDAO.sol\":5494:5495  j */\n      dup5\n        /* \"contracts/DisputeDAO.sol\":5485:5496  selected[j] */\n      dup2\n      mload\n      dup2\n      lt\n      tag_265\n      jumpi\n      tag_265\n      tag_130\n      jump\t// in\n    tag_265:\n      0x20\n      swap1\n      dup2\n      mul\n      swap2\n      swap1\n      swap2\n      add\n      dup2\n      add\n      mload\n      sub(shl(0xa0, 0x01), 0x01)\n        /* \"contracts/DisputeDAO.sol\":5478:5497  jurors[selected[j]] */\n      and\n      dup3\n      mstore\n      dup2\n      add\n      swap2\n      swap1\n      swap2\n      mstore\n      0x40\n      add\n      0x00\n      keccak256\n        /* \"contracts/DisputeDAO.sol\":5478:5511  jurors[selected[j]].lastDisputeId */\n      0x03\n      add\n        /* \"contracts/DisputeDAO.sol\":5478:5523  jurors[selected[j]].lastDisputeId = disputeId */\n      sstore\n        /* \"contracts/DisputeDAO.sol\":5458:5461  j++ */\n      0x01\n      add\n        /* \"contracts/DisputeDAO.sol\":5420:5535  for (uint j = 0; j < selected.length; j++) {... */\n      jump(tag_261)\n    tag_262:\n      pop\n        /* \"contracts/DisputeDAO.sol\":5565:5574  disputeId */\n      dup7\n        /* \"contracts/DisputeDAO.sol\":5550:5585  DisputeStarted(disputeId, selected) */\n      0x5623bb8130ac6988ab91c966d08c23b84de074a147bb0a3677a9e322b0a5145b\n        /* \"contracts/DisputeDAO.sol\":5576:5584  selected */\n      dup6\n        /* \"contracts/DisputeDAO.sol\":5550:5585  DisputeStarted(disputeId, selected) */\n      mload(0x40)\n      tag_266\n      swap2\n      swap1\n      tag_59\n      jump\t// in\n    tag_266:\n      mload(0x40)\n      dup1\n      swap2\n      sub\n      swap1\n      log2\n        /* \"contracts/DisputeDAO.sol\":2955:5593  {... */\n      pop\n      pop\n      pop\n      pop\n      pop\n      pop\n        /* \"contracts/DisputeDAO.sol\":2888:5593  function handleDispute(uint256 disputeId) external onlyTaskFactory {... */\n      pop\n      jump\t// out\n        /* \"contracts/DisputeDAO.sol\":1736:1967  function setFactory(address _factory) external {... */\n    tag_77:\n        /* \"contracts/DisputeDAO.sol\":1803:1813  factorySet */\n      sload(0x04)\n      shl(0xa0, 0x01)\n      swap1\n      div\n      0xff\n      and\n        /* \"contracts/DisputeDAO.sol\":1802:1813  !factorySet */\n      iszero\n        /* \"contracts/DisputeDAO.sol\":1794:1837  require(!factorySet, \"Factory already set\") */\n      tag_268\n      jumpi\n      mload(0x40)\n      shl(0xe5, 0x461bcd)\n      dup2\n      mstore\n        /* \"#utility.yul\":8809:8811   */\n      0x20\n        /* \"contracts/DisputeDAO.sol\":1794:1837  require(!factorySet, \"Factory already set\") */\n      0x04\n      dup3\n      add\n        /* \"#utility.yul\":8791:8812   */\n      mstore\n        /* \"#utility.yul\":8848:8850   */\n      0x13\n        /* \"#utility.yul\":8828:8846   */\n      0x24\n      dup3\n      add\n        /* \"#utility.yul\":8821:8851   */\n      mstore\n      shl(0x6a, 0x119858dd1bdc9e48185b1c9958591e481cd95d)\n        /* \"#utility.yul\":8867:8885   */\n      0x44\n      dup3\n      add\n        /* \"#utility.yul\":8860:8909   */\n      mstore\n        /* \"#utility.yul\":8926:8944   */\n      0x64\n      add\n        /* \"contracts/DisputeDAO.sol\":1794:1837  require(!factorySet, \"Factory already set\") */\n      tag_123\n        /* \"#utility.yul\":8607:8950   */\n      jump\n        /* \"contracts/DisputeDAO.sol\":1794:1837  require(!factorySet, \"Factory already set\") */\n    tag_268:\n      sub(shl(0xa0, 0x01), 0x01)\n        /* \"contracts/DisputeDAO.sol\":1856:1878  _factory != address(0) */\n      dup2\n      and\n        /* \"contracts/DisputeDAO.sol\":1848:1898  require(_factory != address(0), \"Invalid address\") */\n      tag_271\n      jumpi\n      mload(0x40)\n      shl(0xe5, 0x461bcd)\n      dup2\n      mstore\n        /* \"#utility.yul\":9157:9159   */\n      0x20\n        /* \"contracts/DisputeDAO.sol\":1848:1898  require(_factory != address(0), \"Invalid address\") */\n      0x04\n      dup3\n      add\n        /* \"#utility.yul\":9139:9160   */\n      mstore\n        /* \"#utility.yul\":9196:9198   */\n      0x0f\n        /* \"#utility.yul\":9176:9194   */\n      0x24\n      dup3\n      add\n        /* \"#utility.yul\":9169:9199   */\n      mstore\n      shl(0x88, 0x496e76616c69642061646472657373)\n        /* \"#utility.yul\":9215:9233   */\n      0x44\n      dup3\n      add\n        /* \"#utility.yul\":9208:9253   */\n      mstore\n        /* \"#utility.yul\":9270:9288   */\n      0x64\n      add\n        /* \"contracts/DisputeDAO.sol\":1848:1898  require(_factory != address(0), \"Invalid address\") */\n      tag_123\n        /* \"#utility.yul\":8955:9294   */\n      jump\n        /* \"contracts/DisputeDAO.sol\":1848:1898  require(_factory != address(0), \"Invalid address\") */\n    tag_271:\n        /* \"contracts/DisputeDAO.sol\":1909:1920  taskFactory */\n      0x04\n        /* \"contracts/DisputeDAO.sol\":1909:1931  taskFactory = _factory */\n      dup1\n      sload\n      not(sub(shl(0xa8, 0x01), 0x01))\n        /* \"contracts/DisputeDAO.sol\":1942:1959  factorySet = true */\n      and\n      sub(shl(0xa0, 0x01), 0x01)\n        /* \"contracts/DisputeDAO.sol\":1909:1931  taskFactory = _factory */\n      swap1\n      swap3\n      and\n        /* \"contracts/DisputeDAO.sol\":1942:1959  factorySet = true */\n      swap2\n      swap1\n      swap2\n      or\n      shl(0xa0, 0x01)\n      or\n      swap1\n      sstore\n        /* \"contracts/DisputeDAO.sol\":1736:1967  function setFactory(address _factory) external {... */\n      jump\t// out\n        /* \"contracts/DisputeDAO.sol\":7805:8323  function getActiveJurors() external view returns (address[] memory) {... */\n    tag_80:\n        /* \"contracts/DisputeDAO.sol\":7855:7871  address[] memory */\n      0x60\n        /* \"contracts/DisputeDAO.sol\":7884:7897  uint256 count */\n      0x00\n      dup1\n        /* \"contracts/DisputeDAO.sol\":7912:8028  for (uint256 i = 0; i < jurorList.length; i++) {... */\n    tag_275:\n        /* \"contracts/DisputeDAO.sol\":7936:7945  jurorList */\n      0x01\n        /* \"contracts/DisputeDAO.sol\":7936:7952  jurorList.length */\n      sload\n        /* \"contracts/DisputeDAO.sol\":7932:7952  i < jurorList.length */\n      dup2\n      lt\n        /* \"contracts/DisputeDAO.sol\":7912:8028  for (uint256 i = 0; i < jurorList.length; i++) {... */\n      iszero\n      tag_276\n      jumpi\n        /* \"contracts/DisputeDAO.sol\":7978:7984  jurors */\n      0x00\n        /* \"contracts/DisputeDAO.sol\":7978:7998  jurors[jurorList[i]] */\n      0x00\n        /* \"contracts/DisputeDAO.sol\":7985:7994  jurorList */\n      0x01\n        /* \"contracts/DisputeDAO.sol\":7995:7996  i */\n      dup4\n        /* \"contracts/DisputeDAO.sol\":7985:7997  jurorList[i] */\n      dup2\n      sload\n      dup2\n      lt\n      tag_279\n      jumpi\n      tag_279\n      tag_130\n      jump\t// in\n    tag_279:\n      0x00\n      swap2\n      dup3\n      mstore\n      0x20\n      dup1\n      dup4\n      keccak256\n      swap1\n      swap2\n      add\n      sload\n      sub(shl(0xa0, 0x01), 0x01)\n      and\n        /* \"contracts/DisputeDAO.sol\":7978:7998  jurors[jurorList[i]] */\n      dup4\n      mstore\n      dup3\n      add\n      swap3\n      swap1\n      swap3\n      mstore\n      0x40\n      add\n      swap1\n      keccak256\n        /* \"contracts/DisputeDAO.sol\":7978:8007  jurors[jurorList[i]].isActive */\n      0x02\n      add\n      sload\n      0xff\n      and\n        /* \"contracts/DisputeDAO.sol\":7974:8016  if (jurors[jurorList[i]].isActive) count++ */\n      iszero\n      tag_281\n      jumpi\n        /* \"contracts/DisputeDAO.sol\":8009:8016  count++ */\n      dup2\n      tag_282\n      dup2\n      tag_140\n      jump\t// in\n    tag_282:\n      swap3\n      pop\n      pop\n        /* \"contracts/DisputeDAO.sol\":7974:8016  if (jurors[jurorList[i]].isActive) count++ */\n    tag_281:\n        /* \"contracts/DisputeDAO.sol\":7954:7957  i++ */\n      0x01\n      add\n        /* \"contracts/DisputeDAO.sol\":7912:8028  for (uint256 i = 0; i < jurorList.length; i++) {... */\n      jump(tag_275)\n    tag_276:\n      pop\n        /* \"contracts/DisputeDAO.sol\":8038:8062  address[] memory actives */\n      0x00\n        /* \"contracts/DisputeDAO.sol\":8079:8084  count */\n      dup2\n        /* \"contracts/DisputeDAO.sol\":8065:8085  new address[](count) */\n      0xffffffffffffffff\n      dup2\n      gt\n      iszero\n      tag_284\n      jumpi\n      tag_284\n      tag_195\n      jump\t// in\n    tag_284:\n      mload(0x40)\n      swap1\n      dup1\n      dup3\n      mstore\n      dup1\n      0x20\n      mul\n      0x20\n      add\n      dup3\n      add\n      0x40\n      mstore\n      dup1\n      iszero\n      tag_285\n      jumpi\n      dup2\n      0x20\n      add\n      0x20\n      dup3\n      mul\n      dup1\n      calldatasize\n      dup4\n      calldatacopy\n      add\n      swap1\n      pop\n    tag_285:\n      pop\n        /* \"contracts/DisputeDAO.sol\":8038:8085  address[] memory actives = new address[](count) */\n      swap1\n      pop\n        /* \"contracts/DisputeDAO.sol\":8096:8107  uint256 idx */\n      0x00\n      dup1\n        /* \"contracts/DisputeDAO.sol\":8122:8291  for (uint i = 0; i < jurorList.length; i++) {... */\n    tag_286:\n        /* \"contracts/DisputeDAO.sol\":8143:8152  jurorList */\n      0x01\n        /* \"contracts/DisputeDAO.sol\":8143:8159  jurorList.length */\n      sload\n        /* \"contracts/DisputeDAO.sol\":8139:8159  i < jurorList.length */\n      dup2\n      lt\n        /* \"contracts/DisputeDAO.sol\":8122:8291  for (uint i = 0; i < jurorList.length; i++) {... */\n      iszero\n      tag_287\n      jumpi\n        /* \"contracts/DisputeDAO.sol\":8185:8191  jurors */\n      0x00\n        /* \"contracts/DisputeDAO.sol\":8185:8205  jurors[jurorList[i]] */\n      0x00\n        /* \"contracts/DisputeDAO.sol\":8192:8201  jurorList */\n      0x01\n        /* \"contracts/DisputeDAO.sol\":8202:8203  i */\n      dup4\n        /* \"contracts/DisputeDAO.sol\":8192:8204  jurorList[i] */\n      dup2\n      sload\n      dup2\n      lt\n      tag_290\n      jumpi\n      tag_290\n      tag_130\n      jump\t// in\n    tag_290:\n      0x00\n      swap2\n      dup3\n      mstore\n      0x20\n      dup1\n      dup4\n      keccak256\n      swap1\n      swap2\n      add\n      sload\n      sub(shl(0xa0, 0x01), 0x01)\n      and\n        /* \"contracts/DisputeDAO.sol\":8185:8205  jurors[jurorList[i]] */\n      dup4\n      mstore\n      dup3\n      add\n      swap3\n      swap1\n      swap3\n      mstore\n      0x40\n      add\n      swap1\n      keccak256\n        /* \"contracts/DisputeDAO.sol\":8185:8214  jurors[jurorList[i]].isActive */\n      0x02\n      add\n      sload\n      0xff\n      and\n        /* \"contracts/DisputeDAO.sol\":8181:8280  if (jurors[jurorList[i]].isActive) {... */\n      iszero\n      tag_292\n      jumpi\n        /* \"contracts/DisputeDAO.sol\":8252:8261  jurorList */\n      0x01\n        /* \"contracts/DisputeDAO.sol\":8262:8263  i */\n      dup2\n        /* \"contracts/DisputeDAO.sol\":8252:8264  jurorList[i] */\n      dup2\n      sload\n      dup2\n      lt\n      tag_294\n      jumpi\n      tag_294\n      tag_130\n      jump\t// in\n    tag_294:\n      0x00\n      swap2\n      dup3\n      mstore\n      0x20\n      swap1\n      swap2\n      keccak256\n      add\n      sload\n      sub(shl(0xa0, 0x01), 0x01)\n      and\n        /* \"contracts/DisputeDAO.sol\":8235:8242  actives */\n      dup4\n        /* \"contracts/DisputeDAO.sol\":8243:8248  idx++ */\n      dup4\n      tag_296\n      dup2\n      tag_140\n      jump\t// in\n    tag_296:\n      swap5\n      pop\n        /* \"contracts/DisputeDAO.sol\":8235:8249  actives[idx++] */\n      dup2\n      mload\n      dup2\n      lt\n      tag_298\n      jumpi\n      tag_298\n      tag_130\n      jump\t// in\n    tag_298:\n      0x20\n      mul\n      0x20\n      add\n      add\n        /* \"contracts/DisputeDAO.sol\":8235:8264  actives[idx++] = jurorList[i] */\n      swap1\n      sub(shl(0xa0, 0x01), 0x01)\n      and\n      swap1\n      dup2\n      sub(shl(0xa0, 0x01), 0x01)\n      and\n      dup2\n      mstore\n      pop\n      pop\n        /* \"contracts/DisputeDAO.sol\":8181:8280  if (jurors[jurorList[i]].isActive) {... */\n    tag_292:\n        /* \"contracts/DisputeDAO.sol\":8161:8164  i++ */\n      0x01\n      add\n        /* \"contracts/DisputeDAO.sol\":8122:8291  for (uint i = 0; i < jurorList.length; i++) {... */\n      jump(tag_286)\n    tag_287:\n      pop\n        /* \"contracts/DisputeDAO.sol\":8308:8315  actives */\n      swap1\n      swap4\n        /* \"contracts/DisputeDAO.sol\":7805:8323  function getActiveJurors() external view returns (address[] memory) {... */\n      swap3\n      pop\n      pop\n      pop\n      jump\t// out\n        /* \"contracts/DisputeDAO.sol\":322:348  address[] public jurorList */\n    tag_85:\n      0x01\n      dup2\n      dup2\n      sload\n      dup2\n      lt\n      tag_299\n      jumpi\n      0x00\n      dup1\n      revert\n    tag_299:\n      0x00\n      swap2\n      dup3\n      mstore\n      0x20\n      swap1\n      swap2\n      keccak256\n      add\n      sload\n      sub(shl(0xa0, 0x01), 0x01)\n      and\n      swap1\n      pop\n      dup2\n      jump\t// out\n    tag_260:\n      dup3\n      dup1\n      sload\n      dup3\n      dup3\n      sstore\n      swap1\n      0x00\n      mstore\n      keccak256(0x00, 0x20)\n      swap1\n      dup2\n      add\n      swap3\n      dup3\n      iszero\n      tag_304\n      jumpi\n      swap2\n      0x20\n      mul\n      dup3\n      add\n    tag_303:\n      dup3\n      dup2\n      gt\n      iszero\n      tag_304\n      jumpi\n      dup3\n      mload\n      dup3\n      sload\n      not(sub(shl(0xa0, 0x01), 0x01))\n      and\n      sub(shl(0xa0, 0x01), 0x01)\n      swap1\n      swap2\n      and\n      or\n      dup3\n      sstore\n      0x20\n      swap1\n      swap3\n      add\n      swap2\n      0x01\n      swap1\n      swap2\n      add\n      swap1\n      jump(tag_303)\n    tag_304:\n      pop\n      tag_305\n      swap3\n      swap2\n      pop\n      tag_306\n      jump\t// in\n    tag_305:\n      pop\n      swap1\n      jump\t// out\n    tag_306:\n    tag_307:\n      dup1\n      dup3\n      gt\n      iszero\n      tag_305\n      jumpi\n      0x00\n      dup2\n      sstore\n      0x01\n      add\n      jump(tag_307)\n        /* \"#utility.yul\":14:187   */\n    tag_309:\n        /* \"#utility.yul\":82:102   */\n      dup1\n      calldataload\n      sub(shl(0xa0, 0x01), 0x01)\n        /* \"#utility.yul\":131:162   */\n      dup2\n      and\n        /* \"#utility.yul\":121:163   */\n      dup2\n      eq\n        /* \"#utility.yul\":111:181   */\n      tag_313\n      jumpi\n        /* \"#utility.yul\":177:178   */\n      0x00\n        /* \"#utility.yul\":174:175   */\n      0x00\n        /* \"#utility.yul\":167:179   */\n      revert\n        /* \"#utility.yul\":111:181   */\n    tag_313:\n        /* \"#utility.yul\":14:187   */\n      swap2\n      swap1\n      pop\n      jump\t// out\n        /* \"#utility.yul\":192:492   */\n    tag_28:\n        /* \"#utility.yul\":260:266   */\n      0x00\n        /* \"#utility.yul\":268:274   */\n      0x00\n        /* \"#utility.yul\":321:323   */\n      0x40\n        /* \"#utility.yul\":309:318   */\n      dup4\n        /* \"#utility.yul\":300:307   */\n      dup6\n        /* \"#utility.yul\":296:319   */\n      sub\n        /* \"#utility.yul\":292:324   */\n      slt\n        /* \"#utility.yul\":289:341   */\n      iszero\n      tag_315\n      jumpi\n        /* \"#utility.yul\":337:338   */\n      0x00\n        /* \"#utility.yul\":334:335   */\n      0x00\n        /* \"#utility.yul\":327:339   */\n      revert\n        /* \"#utility.yul\":289:341   */\n    tag_315:\n        /* \"#utility.yul\":382:405   */\n      dup3\n      calldataload\n      swap2\n      pop\n        /* \"#utility.yul\":448:486   */\n      tag_316\n        /* \"#utility.yul\":482:484   */\n      0x20\n        /* \"#utility.yul\":467:485   */\n      dup5\n      add\n        /* \"#utility.yul\":448:486   */\n      tag_309\n      jump\t// in\n    tag_316:\n        /* \"#utility.yul\":438:486   */\n      swap1\n      pop\n        /* \"#utility.yul\":192:492   */\n      swap3\n      pop\n      swap3\n      swap1\n      pop\n      jump\t// out\n        /* \"#utility.yul\":497:843   */\n    tag_33:\n        /* \"#utility.yul\":565:571   */\n      0x00\n        /* \"#utility.yul\":573:579   */\n      0x00\n        /* \"#utility.yul\":626:628   */\n      0x40\n        /* \"#utility.yul\":614:623   */\n      dup4\n        /* \"#utility.yul\":605:612   */\n      dup6\n        /* \"#utility.yul\":601:624   */\n      sub\n        /* \"#utility.yul\":597:629   */\n      slt\n        /* \"#utility.yul\":594:646   */\n      iszero\n      tag_318\n      jumpi\n        /* \"#utility.yul\":642:643   */\n      0x00\n        /* \"#utility.yul\":639:640   */\n      0x00\n        /* \"#utility.yul\":632:644   */\n      revert\n        /* \"#utility.yul\":594:646   */\n    tag_318:\n      pop\n      pop\n        /* \"#utility.yul\":687:710   */\n      dup1\n      calldataload\n      swap3\n        /* \"#utility.yul\":807:809   */\n      0x20\n        /* \"#utility.yul\":792:810   */\n      swap1\n      swap2\n      add\n        /* \"#utility.yul\":779:811   */\n      calldataload\n      swap2\n      pop\n        /* \"#utility.yul\":497:843   */\n      jump\t// out\n        /* \"#utility.yul\":1430:1656   */\n    tag_56:\n        /* \"#utility.yul\":1489:1495   */\n      0x00\n        /* \"#utility.yul\":1542:1544   */\n      0x20\n        /* \"#utility.yul\":1530:1539   */\n      dup3\n        /* \"#utility.yul\":1521:1528   */\n      dup5\n        /* \"#utility.yul\":1517:1540   */\n      sub\n        /* \"#utility.yul\":1513:1545   */\n      slt\n        /* \"#utility.yul\":1510:1562   */\n      iszero\n      tag_323\n      jumpi\n        /* \"#utility.yul\":1558:1559   */\n      0x00\n        /* \"#utility.yul\":1555:1556   */\n      0x00\n        /* \"#utility.yul\":1548:1560   */\n      revert\n        /* \"#utility.yul\":1510:1562   */\n    tag_323:\n      pop\n        /* \"#utility.yul\":1603:1626   */\n      calldataload\n      swap2\n        /* \"#utility.yul\":1430:1656   */\n      swap1\n      pop\n      jump\t// out\n        /* \"#utility.yul\":1661:2298   */\n    tag_59:\n        /* \"#utility.yul\":1851:1853   */\n      0x20\n        /* \"#utility.yul\":1863:1884   */\n      dup1\n      dup3\n      mstore\n        /* \"#utility.yul\":1933:1946   */\n      dup3\n      mload\n        /* \"#utility.yul\":1836:1854   */\n      dup3\n      dup3\n      add\n        /* \"#utility.yul\":1955:1977   */\n      dup2\n      swap1\n      mstore\n        /* \"#utility.yul\":1803:1807   */\n      0x00\n      swap2\n        /* \"#utility.yul\":2034:2049   */\n      dup5\n      add\n      swap1\n        /* \"#utility.yul\":2008:2010   */\n      0x40\n        /* \"#utility.yul\":1993:2011   */\n      dup5\n      add\n      swap1\n        /* \"#utility.yul\":1803:1807   */\n      dup4\n        /* \"#utility.yul\":2077:2272   */\n    tag_325:\n        /* \"#utility.yul\":2091:2097   */\n      dup2\n        /* \"#utility.yul\":2088:2089   */\n      dup2\n        /* \"#utility.yul\":2085:2098   */\n      lt\n        /* \"#utility.yul\":2077:2272   */\n      iszero\n      tag_327\n      jumpi\n        /* \"#utility.yul\":2156:2169   */\n      dup4\n      mload\n      sub(shl(0xa0, 0x01), 0x01)\n        /* \"#utility.yul\":2152:2191   */\n      and\n        /* \"#utility.yul\":2140:2192   */\n      dup4\n      mstore\n        /* \"#utility.yul\":2221:2223   */\n      0x20\n        /* \"#utility.yul\":2247:2262   */\n      swap4\n      dup5\n      add\n      swap4\n        /* \"#utility.yul\":2212:2224   */\n      swap1\n      swap3\n      add\n      swap2\n        /* \"#utility.yul\":2188:2189   */\n      0x01\n        /* \"#utility.yul\":2106:2115   */\n      add\n        /* \"#utility.yul\":2077:2272   */\n      jump(tag_325)\n    tag_327:\n      pop\n        /* \"#utility.yul\":2289:2292   */\n      swap1\n      swap6\n        /* \"#utility.yul\":1661:2298   */\n      swap5\n      pop\n      pop\n      pop\n      pop\n      pop\n      jump\t// out\n        /* \"#utility.yul\":2303:2489   */\n    tag_76:\n        /* \"#utility.yul\":2362:2368   */\n      0x00\n        /* \"#utility.yul\":2415:2417   */\n      0x20\n        /* \"#utility.yul\":2403:2412   */\n      dup3\n        /* \"#utility.yul\":2394:2401   */\n      dup5\n        /* \"#utility.yul\":2390:2413   */\n      sub\n        /* \"#utility.yul\":2386:2418   */\n      slt\n        /* \"#utility.yul\":2383:2435   */\n      iszero\n      tag_329\n      jumpi\n        /* \"#utility.yul\":2431:2432   */\n      0x00\n        /* \"#utility.yul\":2428:2429   */\n      0x00\n        /* \"#utility.yul\":2421:2433   */\n      revert\n        /* \"#utility.yul\":2383:2435   */\n    tag_329:\n        /* \"#utility.yul\":2454:2483   */\n      tag_330\n        /* \"#utility.yul\":2473:2482   */\n      dup3\n        /* \"#utility.yul\":2454:2483   */\n      tag_309\n      jump\t// in\n    tag_330:\n        /* \"#utility.yul\":2444:2483   */\n      swap4\n        /* \"#utility.yul\":2303:2489   */\n      swap3\n      pop\n      pop\n      pop\n      jump\t// out\n        /* \"#utility.yul\":3600:3727   */\n    tag_130:\n        /* \"#utility.yul\":3661:3671   */\n      0x4e487b71\n        /* \"#utility.yul\":3656:3659   */\n      0xe0\n        /* \"#utility.yul\":3652:3672   */\n      shl\n        /* \"#utility.yul\":3649:3650   */\n      0x00\n        /* \"#utility.yul\":3642:3673   */\n      mstore\n        /* \"#utility.yul\":3692:3696   */\n      0x32\n        /* \"#utility.yul\":3689:3690   */\n      0x04\n        /* \"#utility.yul\":3682:3697   */\n      mstore\n        /* \"#utility.yul\":3716:3720   */\n      0x24\n        /* \"#utility.yul\":3713:3714   */\n      0x00\n        /* \"#utility.yul\":3706:3721   */\n      revert\n        /* \"#utility.yul\":4421:4548   */\n    tag_310:\n        /* \"#utility.yul\":4482:4492   */\n      0x4e487b71\n        /* \"#utility.yul\":4477:4480   */\n      0xe0\n        /* \"#utility.yul\":4473:4493   */\n      shl\n        /* \"#utility.yul\":4470:4471   */\n      0x00\n        /* \"#utility.yul\":4463:4494   */\n      mstore\n        /* \"#utility.yul\":4513:4517   */\n      0x11\n        /* \"#utility.yul\":4510:4511   */\n      0x04\n        /* \"#utility.yul\":4503:4518   */\n      mstore\n        /* \"#utility.yul\":4537:4541   */\n      0x24\n        /* \"#utility.yul\":4534:4535   */\n      0x00\n        /* \"#utility.yul\":4527:4542   */\n      revert\n        /* \"#utility.yul\":4553:4688   */\n    tag_140:\n        /* \"#utility.yul\":4592:4595   */\n      0x00\n        /* \"#utility.yul\":4613:4630   */\n      0x01\n      dup3\n      add\n        /* \"#utility.yul\":4610:4653   */\n      tag_340\n      jumpi\n        /* \"#utility.yul\":4633:4651   */\n      tag_340\n      tag_310\n      jump\t// in\n    tag_340:\n      pop\n        /* \"#utility.yul\":4680:4681   */\n      0x01\n        /* \"#utility.yul\":4669:4682   */\n      add\n      swap1\n        /* \"#utility.yul\":4553:4688   */\n      jump\t// out\n        /* \"#utility.yul\":4972:5273   */\n    tag_154:\n        /* \"#utility.yul\":5101:5104   */\n      0x00\n        /* \"#utility.yul\":5139:5145   */\n      dup3\n        /* \"#utility.yul\":5133:5146   */\n      mload\n        /* \"#utility.yul\":5185:5191   */\n      dup1\n        /* \"#utility.yul\":5178:5182   */\n      0x20\n        /* \"#utility.yul\":5170:5176   */\n      dup6\n        /* \"#utility.yul\":5166:5183   */\n      add\n        /* \"#utility.yul\":5161:5164   */\n      dup5\n        /* \"#utility.yul\":5155:5192   */\n      mcopy\n        /* \"#utility.yul\":5247:5248   */\n      0x00\n        /* \"#utility.yul\":5211:5227   */\n      swap3\n      add\n        /* \"#utility.yul\":5236:5249   */\n      swap2\n      dup3\n      mstore\n      pop\n        /* \"#utility.yul\":5211:5227   */\n      swap2\n        /* \"#utility.yul\":4972:5273   */\n      swap1\n      pop\n      jump\t// out\n        /* \"#utility.yul\":7353:7480   */\n    tag_195:\n        /* \"#utility.yul\":7414:7424   */\n      0x4e487b71\n        /* \"#utility.yul\":7409:7412   */\n      0xe0\n        /* \"#utility.yul\":7405:7425   */\n      shl\n        /* \"#utility.yul\":7402:7403   */\n      0x00\n        /* \"#utility.yul\":7395:7426   */\n      mstore\n        /* \"#utility.yul\":7445:7449   */\n      0x41\n        /* \"#utility.yul\":7442:7443   */\n      0x04\n        /* \"#utility.yul\":7435:7450   */\n      mstore\n        /* \"#utility.yul\":7469:7473   */\n      0x24\n        /* \"#utility.yul\":7466:7467   */\n      0x00\n        /* \"#utility.yul\":7459:7474   */\n      revert\n        /* \"#utility.yul\":7485:7610   */\n    tag_205:\n        /* \"#utility.yul\":7550:7559   */\n      dup1\n      dup3\n      add\n        /* \"#utility.yul\":7571:7581   */\n      dup1\n      dup3\n      gt\n        /* \"#utility.yul\":7568:7604   */\n      iszero\n      tag_352\n      jumpi\n        /* \"#utility.yul\":7584:7602   */\n      tag_352\n      tag_310\n      jump\t// in\n    tag_352:\n        /* \"#utility.yul\":7485:7610   */\n      swap3\n      swap2\n      pop\n      pop\n      jump\t// out\n        /* \"#utility.yul\":7867:8035   */\n    tag_219:\n        /* \"#utility.yul\":7940:7949   */\n      dup1\n      dup3\n      mul\n        /* \"#utility.yul\":7971:7980   */\n      dup2\n      iszero\n        /* \"#utility.yul\":7988:8003   */\n      dup3\n      dup3\n      div\n        /* \"#utility.yul\":7982:8004   */\n      dup5\n      eq\n        /* \"#utility.yul\":7968:8005   */\n      or\n        /* \"#utility.yul\":7958:8029   */\n      tag_352\n      jumpi\n        /* \"#utility.yul\":8009:8027   */\n      tag_352\n      tag_310\n      jump\t// in\n        /* \"#utility.yul\":8040:8249   */\n    tag_222:\n        /* \"#utility.yul\":8072:8073   */\n      0x00\n        /* \"#utility.yul\":8098:8099   */\n      dup3\n        /* \"#utility.yul\":8088:8220   */\n      tag_358\n      jumpi\n        /* \"#utility.yul\":8142:8152   */\n      0x4e487b71\n        /* \"#utility.yul\":8137:8140   */\n      0xe0\n        /* \"#utility.yul\":8133:8153   */\n      shl\n        /* \"#utility.yul\":8130:8131   */\n      0x00\n        /* \"#utility.yul\":8123:8154   */\n      mstore\n        /* \"#utility.yul\":8177:8181   */\n      0x12\n        /* \"#utility.yul\":8174:8175   */\n      0x04\n        /* \"#utility.yul\":8167:8182   */\n      mstore\n        /* \"#utility.yul\":8205:8209   */\n      0x24\n        /* \"#utility.yul\":8202:8203   */\n      0x00\n        /* \"#utility.yul\":8195:8210   */\n      revert\n        /* \"#utility.yul\":8088:8220   */\n    tag_358:\n      pop\n        /* \"#utility.yul\":8234:8243   */\n      mod\n      swap1\n        /* \"#utility.yul\":8040:8249   */\n      jump\t// out\n\n    auxdata: 0xa2646970667358221220f65d3a8d1302ba39acd49af2d49176732df98196e0efc6bf86fe3d425d7c38e264736f6c634300081e0033\n}\n",
				"bytecode": {
					"linkReferences": {},
					"object": "608060405267016345785d8a000060025560038080556004805460ff60a01b19169055600555348015602f575f5ffd5b50604051611681380380611681833981016040819052604c916087565b600480546001600160a01b0319166001600160a01b038316908117909155156082576004805460ff60a01b1916600160a01b1790555b5060b2565b5f602082840312156096575f5ffd5b81516001600160a01b038116811460ab575f5ffd5b9392505050565b6115c2806100bf5f395ff3fe60806040526004361061011b575f3560e01c80635bb478081161009d578063d23254b411610062578063d23254b414610336578063d369506c14610375578063dca5f6b01461038a578063e21875e21461040a578063eff2c3ec1461042a575f5ffd5b80635bb478081461028f5780636058e685146102ae5780638e230e6f146102c2578063afa9c5b0146102e1578063c9bc0c1114610317575f5ffd5b806343859632116100e357806343859632146101bb57806347e2a6e6146102045780634b54a379146102305780634dc35f7a1461024f5780634fc8a20d14610264575f5ffd5b806302d947ef1461011f5780632249c562146101405780632def66201461017c578063375b3c0a146101905780633a4b66f1146101b3575b5f5ffd5b34801561012a575f5ffd5b5061013e610139366004611407565b61048f565b005b34801561014b575f5ffd5b5061015f61015a366004611431565b61088d565b6040516001600160a01b0390911681526020015b60405180910390f35b348015610187575f5ffd5b5061013e6108c1565b34801561019b575f5ffd5b506101a560025481565b604051908152602001610173565b61013e61098e565b3480156101c6575f5ffd5b506101f46101d5366004611407565b600760209081525f928352604080842090915290825290205460ff1681565b6040519015158152602001610173565b34801561020f575f5ffd5b5061022361021e366004611451565b610b07565b6040516101739190611468565b34801561023b575f5ffd5b5061013e61024a366004611451565b610b70565b34801561025a575f5ffd5b506101a560055481565b34801561026f575f5ffd5b506101a561027e366004611451565b60096020525f908152604090205481565b34801561029a575f5ffd5b5061013e6102a93660046114b3565b611117565b3480156102b9575f5ffd5b506102236111d6565b3480156102cd575f5ffd5b5061015f6102dc366004611451565b61134d565b3480156102ec575f5ffd5b506101a56102fb366004611407565b600a60209081525f928352604080842090915290825290205481565b348015610322575f5ffd5b5060045461015f906001600160a01b031681565b348015610341575f5ffd5b5061015f610350366004611407565b600860209081525f92835260408084209091529082529020546001600160a01b031681565b348015610380575f5ffd5b506101a560035481565b348015610395575f5ffd5b506103da6103a43660046114b3565b5f6020819052908152604090208054600182015460028301546003909301546001600160a01b0390921692909160ff9091169084565b604080516001600160a01b0390951685526020850193909352901515918301919091526060820152608001610173565b348015610415575f5ffd5b506004546101f490600160a01b900460ff1681565b348015610435575f5ffd5b506104746104443660046114b3565b6001600160a01b03165f90815260208190526040902060018101546002820154600390920154909260ff90921691565b60408051938452911515602084015290820152606001610173565b335f9081526020819052604090206002015460ff166104e35760405162461bcd60e51b815260206004820152600b60248201526a2737ba103090353ab937b960a91b60448201526064015b60405180910390fd5b5f805b5f84815260066020526040902054811015610547575f84815260066020526040902080543391908390811061051d5761051d6114d3565b5f918252602090912001546001600160a01b03160361053f5760019150610547565b6001016104e6565b508061058a5760405162461bcd60e51b81526020600482015260126024820152712737ba1039b2b632b1ba32b210353ab937b960711b60448201526064016104da565b5f83815260076020908152604080832033845290915290205460ff16156105e35760405162461bcd60e51b815260206004820152600d60248201526c105b1c9958591e481d9bdd1959609a1b60448201526064016104da565b5f83815260076020908152604080832033808552908352818420805460ff1916600117905586845260088352818420908452825280832080546001600160a01b0387166001600160a01b03199091168117909155868452600a83528184209084529091528120805491610655836114fb565b90915550505f838152600960205260408120805491610673836114fb565b90915550506040516001600160a01b0383168152339084907ff6c8f1f54b2f54fb963820203fdef5b9aefb56ae2c4dd8b6133e151791a07f369060200160405180910390a36003545f848152600960205260409020540361088857815f805b5f8681526006602052604090205481101561076c575f86815260086020908152604080832060069092528220805483919085908110610713576107136114d3565b5f9182526020808320909101546001600160a01b0390811684528382019490945260409283018220548b8352600a82528383209416808352939052205490915083811115610762578093508194505b50506001016106d2565b50600454604051602481018790526001600160a01b0384811660448301525f92169060640160408051601f198184030181529181526020820180516001600160e01b0316630e33599d60e01b179052516107c69190611513565b5f604051808303815f865af19150503d805f81146107ff576040519150601f19603f3d011682016040523d82523d5f602084013e610804565b606091505b50509050806108465760405162461bcd60e51b815260206004820152600e60248201526d14995cdbdb1d994819985a5b195960921b60448201526064016104da565b6040516001600160a01b038416815286907ff77ceb5e091d2da041bc760667f9d5fe7a756949eaf29250ad0e60ca6f4c27d99060200160405180910390a25050505b505050565b6006602052815f5260405f2081815481106108a6575f80fd5b5f918252602090912001546001600160a01b03169150829050565b335f908152602081905260409020600281015460ff166109115760405162461bcd60e51b815260206004820152600b60248201526a2737ba103090353ab937b960a91b60448201526064016104da565b60018101805460028301805460ff191690555f918290556040519091339183156108fc0291849190818181858888f19350505050158015610954573d5f5f3e3d5ffd5b5060405181815233907f610a1d949cc1ca7d4391b2530deda84f33b5f02dbd462643f21cd8a1b3cd573f9060200160405180910390a25050565b6002543410156109d55760405162461bcd60e51b8152602060048201526012602482015271496e73756666696369656e74207374616b6560701b60448201526064016104da565b335f9081526020819052604090206002015460ff1615610a275760405162461bcd60e51b815260206004820152600d60248201526c20b63932b0b23c90353ab937b960991b60448201526064016104da565b604080516080810182523380825234602080840182815260018587018181525f60608801818152878252818652898220985189546001600160a01b039091166001600160a01b0319918216178a55945189850155915160028901805491151560ff1990921691909117905590516003909701969096558054808201825595527fb10e2d527612073b26eecdfd717e6a320cf44b4afac2b0732d9fcbe2b7fa0cf6909401805490941683179093559251928352917fc9626d754b3720da351a26831dc4d1481cb9f2dd7ec9ba5356f710bcf4354b59910160405180910390a2565b5f81815260066020908152604091829020805483518184028101840190945280845260609392830182828015610b6457602002820191905f5260205f20905b81546001600160a01b03168152600190910190602001808311610b46575b50505050509050919050565b6004546001600160a01b03163314610bbd5760405162461bcd60e51b815260206004820152601060248201526f4f6e6c79205461736b466163746f727960801b60448201526064016104da565b5f8181526006602052604090205415610c185760405162461bcd60e51b815260206004820152601760248201527f4469737075746520616c7265616479207374617274656400000000000000000060448201526064016104da565b6003546001541015610c605760405162461bcd60e51b81526020600482015260116024820152704e6f7420656e6f756768206a75726f727360781b60448201526064016104da565b6001545f9067ffffffffffffffff811115610c7d57610c7d611529565b604051908082528060200260200182016040528015610ca6578160200160208202803683370190505b5090505f805b600154811015610d75575f60018281548110610cca57610cca6114d3565b5f9182526020808320909101546001600160a01b03168083529082905260409091206002015490915060ff168015610d2857506005546001600160a01b0382165f90815260208190526040902060030154610d25919061153d565b85115b15610d6c57808484610d39816114fb565b955081518110610d4b57610d4b6114d3565b60200260200101906001600160a01b031690816001600160a01b0316815250505b50600101610cac565b505f60035467ffffffffffffffff811115610d9257610d92611529565b604051908082528060200260200182016040528015610dbb578160200160208202803683370190505b506040805142602080830191909152818301889052825180830384018152606090920190925280519101209091505f90815b60035483108015610e075750610e04856002611556565b81105b15610f0b575f86868484604051602001610e2b929190918252602082015260400190565b604051602081830303815290604052805190602001205f1c610e4d919061156d565b81518110610e5d57610e5d6114d3565b602090810291909101015190505f805b85811015610eb857826001600160a01b0316878281518110610e9157610e916114d3565b60200260200101516001600160a01b031603610eb05760019150610eb8565b600101610e6d565b5080610ef75781868681518110610ed157610ed16114d3565b6001600160a01b039092166020928302919091019091015284610ef3816114fb565b9550505b82610f01816114fb565b9350505050610ded565b600354831015611017575f5b60015481108015610f29575060035484105b15611015575f60018281548110610f4257610f426114d3565b5f9182526020808320909101546001600160a01b03168083529082905260409091206002015490915060ff1615611002575f805b86811015610fc157826001600160a01b0316888281518110610f9a57610f9a6114d3565b60200260200101516001600160a01b031603610fb95760019150610fc1565b600101610f76565b50806110005781878781518110610fda57610fda6114d3565b6001600160a01b039092166020928302919091019091015285610ffc816114fb565b9650505b505b508061100d816114fb565b915050610f17565b505b60035483146110685760405162461bcd60e51b815260206004820152601860248201527f4e6f7420656e6f75676820756e69717565206a75726f7273000000000000000060448201526064016104da565b5f878152600660209081526040909120855161108692870190611375565b505f5b84518110156110d557875f5f8784815181106110a7576110a76114d3565b6020908102919091018101516001600160a01b031682528101919091526040015f2060030155600101611089565b50867f5623bb8130ac6988ab91c966d08c23b84de074a147bb0a3677a9e322b0a5145b856040516111069190611468565b60405180910390a250505050505050565b600454600160a01b900460ff16156111675760405162461bcd60e51b8152602060048201526013602482015272119858dd1bdc9e48185b1c9958591e481cd95d606a1b60448201526064016104da565b6001600160a01b0381166111af5760405162461bcd60e51b815260206004820152600f60248201526e496e76616c6964206164647265737360881b60448201526064016104da565b600480546001600160a81b0319166001600160a01b0390921691909117600160a01b179055565b60605f805b60015481101561123f575f5f600183815481106111fa576111fa6114d3565b5f9182526020808320909101546001600160a01b0316835282019290925260400190206002015460ff16156112375781611233816114fb565b9250505b6001016111db565b505f8167ffffffffffffffff81111561125a5761125a611529565b604051908082528060200260200182016040528015611283578160200160208202803683370190505b5090505f805b600154811015611344575f5f600183815481106112a8576112a86114d3565b5f9182526020808320909101546001600160a01b0316835282019290925260400190206002015460ff161561133c57600181815481106112ea576112ea6114d3565b5f918252602090912001546001600160a01b03168383611309816114fb565b94508151811061131b5761131b6114d3565b60200260200101906001600160a01b031690816001600160a01b0316815250505b600101611289565b50909392505050565b6001818154811061135c575f80fd5b5f918252602090912001546001600160a01b0316905081565b828054828255905f5260205f209081019282156113c8579160200282015b828111156113c857825182546001600160a01b0319166001600160a01b03909116178255602090920191600190910190611393565b506113d49291506113d8565b5090565b5b808211156113d4575f81556001016113d9565b80356001600160a01b0381168114611402575f5ffd5b919050565b5f5f60408385031215611418575f5ffd5b82359150611428602084016113ec565b90509250929050565b5f5f60408385031215611442575f5ffd5b50508035926020909101359150565b5f60208284031215611461575f5ffd5b5035919050565b602080825282518282018190525f918401906040840190835b818110156114a85783516001600160a01b0316835260209384019390920191600101611481565b509095945050505050565b5f602082840312156114c3575f5ffd5b6114cc826113ec565b9392505050565b634e487b7160e01b5f52603260045260245ffd5b634e487b7160e01b5f52601160045260245ffd5b5f6001820161150c5761150c6114e7565b5060010190565b5f82518060208501845e5f920191825250919050565b634e487b7160e01b5f52604160045260245ffd5b80820180821115611550576115506114e7565b92915050565b8082028115828204841417611550576115506114e7565b5f8261158757634e487b7160e01b5f52601260045260245ffd5b50069056fea2646970667358221220f65d3a8d1302ba39acd49af2d49176732df98196e0efc6bf86fe3d425d7c38e264736f6c634300081e0033",
					"opcodes": "PUSH1 0x80 PUSH1 0x40 MSTORE PUSH8 0x16345785D8A0000 PUSH1 0x2 SSTORE PUSH1 0x3 DUP1 DUP1 SSTORE PUSH1 0x4 DUP1 SLOAD PUSH1 0xFF PUSH1 0xA0 SHL NOT AND SWAP1 SSTORE PUSH1 0x5 SSTORE CALLVALUE DUP1 ISZERO PUSH1 0x2F JUMPI PUSH0 PUSH0 REVERT JUMPDEST POP PUSH1 0x40 MLOAD PUSH2 0x1681 CODESIZE SUB DUP1 PUSH2 0x1681 DUP4 CODECOPY DUP2 ADD PUSH1 0x40 DUP2 SWAP1 MSTORE PUSH1 0x4C SWAP2 PUSH1 0x87 JUMP JUMPDEST PUSH1 0x4 DUP1 SLOAD PUSH1 0x1 PUSH1 0x1 PUSH1 0xA0 SHL SUB NOT AND PUSH1 0x1 PUSH1 0x1 PUSH1 0xA0 SHL SUB DUP4 AND SWAP1 DUP2 OR SWAP1 SWAP2 SSTORE ISZERO PUSH1 0x82 JUMPI PUSH1 0x4 DUP1 SLOAD PUSH1 0xFF PUSH1 0xA0 SHL NOT AND PUSH1 0x1 PUSH1 0xA0 SHL OR SWAP1 SSTORE JUMPDEST POP PUSH1 0xB2 JUMP JUMPDEST PUSH0 PUSH1 0x20 DUP3 DUP5 SUB SLT ISZERO PUSH1 0x96 JUMPI PUSH0 PUSH0 REVERT JUMPDEST DUP2 MLOAD PUSH1 0x1 PUSH1 0x1 PUSH1 0xA0 SHL SUB DUP2 AND DUP2 EQ PUSH1 0xAB JUMPI PUSH0 PUSH0 REVERT JUMPDEST SWAP4 SWAP3 POP POP POP JUMP JUMPDEST PUSH2 0x15C2 DUP1 PUSH2 0xBF PUSH0 CODECOPY PUSH0 RETURN INVALID PUSH1 0x80 PUSH1 0x40 MSTORE PUSH1 0x4 CALLDATASIZE LT PUSH2 0x11B JUMPI PUSH0 CALLDATALOAD PUSH1 0xE0 SHR DUP1 PUSH4 0x5BB47808 GT PUSH2 0x9D JUMPI DUP1 PUSH4 0xD23254B4 GT PUSH2 0x62 JUMPI DUP1 PUSH4 0xD23254B4 EQ PUSH2 0x336 JUMPI DUP1 PUSH4 0xD369506C EQ PUSH2 0x375 JUMPI DUP1 PUSH4 0xDCA5F6B0 EQ PUSH2 0x38A JUMPI DUP1 PUSH4 0xE21875E2 EQ PUSH2 0x40A JUMPI DUP1 PUSH4 0xEFF2C3EC EQ PUSH2 0x42A JUMPI PUSH0 PUSH0 REVERT JUMPDEST DUP1 PUSH4 0x5BB47808 EQ PUSH2 0x28F JUMPI DUP1 PUSH4 0x6058E685 EQ PUSH2 0x2AE JUMPI DUP1 PUSH4 0x8E230E6F EQ PUSH2 0x2C2 JUMPI DUP1 PUSH4 0xAFA9C5B0 EQ PUSH2 0x2E1 JUMPI DUP1 PUSH4 0xC9BC0C11 EQ PUSH2 0x317 JUMPI PUSH0 PUSH0 REVERT JUMPDEST DUP1 PUSH4 0x43859632 GT PUSH2 0xE3 JUMPI DUP1 PUSH4 0x43859632 EQ PUSH2 0x1BB JUMPI DUP1 PUSH4 0x47E2A6E6 EQ PUSH2 0x204 JUMPI DUP1 PUSH4 0x4B54A379 EQ PUSH2 0x230 JUMPI DUP1 PUSH4 0x4DC35F7A EQ PUSH2 0x24F JUMPI DUP1 PUSH4 0x4FC8A20D EQ PUSH2 0x264 JUMPI PUSH0 PUSH0 REVERT JUMPDEST DUP1 PUSH4 0x2D947EF EQ PUSH2 0x11F JUMPI DUP1 PUSH4 0x2249C562 EQ PUSH2 0x140 JUMPI DUP1 PUSH4 0x2DEF6620 EQ PUSH2 0x17C JUMPI DUP1 PUSH4 0x375B3C0A EQ PUSH2 0x190 JUMPI DUP1 PUSH4 0x3A4B66F1 EQ PUSH2 0x1B3 JUMPI JUMPDEST PUSH0 PUSH0 REVERT JUMPDEST CALLVALUE DUP1 ISZERO PUSH2 0x12A JUMPI PUSH0 PUSH0 REVERT JUMPDEST POP PUSH2 0x13E PUSH2 0x139 CALLDATASIZE PUSH1 0x4 PUSH2 0x1407 JUMP JUMPDEST PUSH2 0x48F JUMP JUMPDEST STOP JUMPDEST CALLVALUE DUP1 ISZERO PUSH2 0x14B JUMPI PUSH0 PUSH0 REVERT JUMPDEST POP PUSH2 0x15F PUSH2 0x15A CALLDATASIZE PUSH1 0x4 PUSH2 0x1431 JUMP JUMPDEST PUSH2 0x88D JUMP JUMPDEST PUSH1 0x40 MLOAD PUSH1 0x1 PUSH1 0x1 PUSH1 0xA0 SHL SUB SWAP1 SWAP2 AND DUP2 MSTORE PUSH1 0x20 ADD JUMPDEST PUSH1 0x40 MLOAD DUP1 SWAP2 SUB SWAP1 RETURN JUMPDEST CALLVALUE DUP1 ISZERO PUSH2 0x187 JUMPI PUSH0 PUSH0 REVERT JUMPDEST POP PUSH2 0x13E PUSH2 0x8C1 JUMP JUMPDEST CALLVALUE DUP1 ISZERO PUSH2 0x19B JUMPI PUSH0 PUSH0 REVERT JUMPDEST POP PUSH2 0x1A5 PUSH1 0x2 SLOAD DUP2 JUMP JUMPDEST PUSH1 0x40 MLOAD SWAP1 DUP2 MSTORE PUSH1 0x20 ADD PUSH2 0x173 JUMP JUMPDEST PUSH2 0x13E PUSH2 0x98E JUMP JUMPDEST CALLVALUE DUP1 ISZERO PUSH2 0x1C6 JUMPI PUSH0 PUSH0 REVERT JUMPDEST POP PUSH2 0x1F4 PUSH2 0x1D5 CALLDATASIZE PUSH1 0x4 PUSH2 0x1407 JUMP JUMPDEST PUSH1 0x7 PUSH1 0x20 SWAP1 DUP2 MSTORE PUSH0 SWAP3 DUP4 MSTORE PUSH1 0x40 DUP1 DUP5 KECCAK256 SWAP1 SWAP2 MSTORE SWAP1 DUP3 MSTORE SWAP1 KECCAK256 SLOAD PUSH1 0xFF AND DUP2 JUMP JUMPDEST PUSH1 0x40 MLOAD SWAP1 ISZERO ISZERO DUP2 MSTORE PUSH1 0x20 ADD PUSH2 0x173 JUMP JUMPDEST CALLVALUE DUP1 ISZERO PUSH2 0x20F JUMPI PUSH0 PUSH0 REVERT JUMPDEST POP PUSH2 0x223 PUSH2 0x21E CALLDATASIZE PUSH1 0x4 PUSH2 0x1451 JUMP JUMPDEST PUSH2 0xB07 JUMP JUMPDEST PUSH1 0x40 MLOAD PUSH2 0x173 SWAP2 SWAP1 PUSH2 0x1468 JUMP JUMPDEST CALLVALUE DUP1 ISZERO PUSH2 0x23B JUMPI PUSH0 PUSH0 REVERT JUMPDEST POP PUSH2 0x13E PUSH2 0x24A CALLDATASIZE PUSH1 0x4 PUSH2 0x1451 JUMP JUMPDEST PUSH2 0xB70 JUMP JUMPDEST CALLVALUE DUP1 ISZERO PUSH2 0x25A JUMPI PUSH0 PUSH0 REVERT JUMPDEST POP PUSH2 0x1A5 PUSH1 0x5 SLOAD DUP2 JUMP JUMPDEST CALLVALUE DUP1 ISZERO PUSH2 0x26F JUMPI PUSH0 PUSH0 REVERT JUMPDEST POP PUSH2 0x1A5 PUSH2 0x27E CALLDATASIZE PUSH1 0x4 PUSH2 0x1451 JUMP JUMPDEST PUSH1 0x9 PUSH1 0x20 MSTORE PUSH0 SWAP1 DUP2 MSTORE PUSH1 0x40 SWAP1 KECCAK256 SLOAD DUP2 JUMP JUMPDEST CALLVALUE DUP1 ISZERO PUSH2 0x29A JUMPI PUSH0 PUSH0 REVERT JUMPDEST POP PUSH2 0x13E PUSH2 0x2A9 CALLDATASIZE PUSH1 0x4 PUSH2 0x14B3 JUMP JUMPDEST PUSH2 0x1117 JUMP JUMPDEST CALLVALUE DUP1 ISZERO PUSH2 0x2B9 JUMPI PUSH0 PUSH0 REVERT JUMPDEST POP PUSH2 0x223 PUSH2 0x11D6 JUMP JUMPDEST CALLVALUE DUP1 ISZERO PUSH2 0x2CD JUMPI PUSH0 PUSH0 REVERT JUMPDEST POP PUSH2 0x15F PUSH2 0x2DC CALLDATASIZE PUSH1 0x4 PUSH2 0x1451 JUMP JUMPDEST PUSH2 0x134D JUMP JUMPDEST CALLVALUE DUP1 ISZERO PUSH2 0x2EC JUMPI PUSH0 PUSH0 REVERT JUMPDEST POP PUSH2 0x1A5 PUSH2 0x2FB CALLDATASIZE PUSH1 0x4 PUSH2 0x1407 JUMP JUMPDEST PUSH1 0xA PUSH1 0x20 SWAP1 DUP2 MSTORE PUSH0 SWAP3 DUP4 MSTORE PUSH1 0x40 DUP1 DUP5 KECCAK256 SWAP1 SWAP2 MSTORE SWAP1 DUP3 MSTORE SWAP1 KECCAK256 SLOAD DUP2 JUMP JUMPDEST CALLVALUE DUP1 ISZERO PUSH2 0x322 JUMPI PUSH0 PUSH0 REVERT JUMPDEST POP PUSH1 0x4 SLOAD PUSH2 0x15F SWAP1 PUSH1 0x1 PUSH1 0x1 PUSH1 0xA0 SHL SUB AND DUP2 JUMP JUMPDEST CALLVALUE DUP1 ISZERO PUSH2 0x341 JUMPI PUSH0 PUSH0 REVERT JUMPDEST POP PUSH2 0x15F PUSH2 0x350 CALLDATASIZE PUSH1 0x4 PUSH2 0x1407 JUMP JUMPDEST PUSH1 0x8 PUSH1 0x20 SWAP1 DUP2 MSTORE PUSH0 SWAP3 DUP4 MSTORE PUSH1 0x40 DUP1 DUP5 KECCAK256 SWAP1 SWAP2 MSTORE SWAP1 DUP3 MSTORE SWAP1 KECCAK256 SLOAD PUSH1 0x1 PUSH1 0x1 PUSH1 0xA0 SHL SUB AND DUP2 JUMP JUMPDEST CALLVALUE DUP1 ISZERO PUSH2 0x380 JUMPI PUSH0 PUSH0 REVERT JUMPDEST POP PUSH2 0x1A5 PUSH1 0x3 SLOAD DUP2 JUMP JUMPDEST CALLVALUE DUP1 ISZERO PUSH2 0x395 JUMPI PUSH0 PUSH0 REVERT JUMPDEST POP PUSH2 0x3DA PUSH2 0x3A4 CALLDATASIZE PUSH1 0x4 PUSH2 0x14B3 JUMP JUMPDEST PUSH0 PUSH1 0x20 DUP2 SWAP1 MSTORE SWAP1 DUP2 MSTORE PUSH1 0x40 SWAP1 KECCAK256 DUP1 SLOAD PUSH1 0x1 DUP3 ADD SLOAD PUSH1 0x2 DUP4 ADD SLOAD PUSH1 0x3 SWAP1 SWAP4 ADD SLOAD PUSH1 0x1 PUSH1 0x1 PUSH1 0xA0 SHL SUB SWAP1 SWAP3 AND SWAP3 SWAP1 SWAP2 PUSH1 0xFF SWAP1 SWAP2 AND SWAP1 DUP5 JUMP JUMPDEST PUSH1 0x40 DUP1 MLOAD PUSH1 0x1 PUSH1 0x1 PUSH1 0xA0 SHL SUB SWAP1 SWAP6 AND DUP6 MSTORE PUSH1 0x20 DUP6 ADD SWAP4 SWAP1 SWAP4 MSTORE SWAP1 ISZERO ISZERO SWAP2 DUP4 ADD SWAP2 SWAP1 SWAP2 MSTORE PUSH1 0x60 DUP3 ADD MSTORE PUSH1 0x80 ADD PUSH2 0x173 JUMP JUMPDEST CALLVALUE DUP1 ISZERO PUSH2 0x415 JUMPI PUSH0 PUSH0 REVERT JUMPDEST POP PUSH1 0x4 SLOAD PUSH2 0x1F4 SWAP1 PUSH1 0x1 PUSH1 0xA0 SHL SWAP1 DIV PUSH1 0xFF AND DUP2 JUMP JUMPDEST CALLVALUE DUP1 ISZERO PUSH2 0x435 JUMPI PUSH0 PUSH0 REVERT JUMPDEST POP PUSH2 0x474 PUSH2 0x444 CALLDATASIZE PUSH1 0x4 PUSH2 0x14B3 JUMP JUMPDEST PUSH1 0x1 PUSH1 0x1 PUSH1 0xA0 SHL SUB AND PUSH0 SWAP1 DUP2 MSTORE PUSH1 0x20 DUP2 SWAP1 MSTORE PUSH1 0x40 SWAP1 KECCAK256 PUSH1 0x1 DUP2 ADD SLOAD PUSH1 0x2 DUP3 ADD SLOAD PUSH1 0x3 SWAP1 SWAP3 ADD SLOAD SWAP1 SWAP3 PUSH1 0xFF SWAP1 SWAP3 AND SWAP2 JUMP JUMPDEST PUSH1 0x40 DUP1 MLOAD SWAP4 DUP5 MSTORE SWAP2 ISZERO ISZERO PUSH1 0x20 DUP5 ADD MSTORE SWAP1 DUP3 ADD MSTORE PUSH1 0x60 ADD PUSH2 0x173 JUMP JUMPDEST CALLER PUSH0 SWAP1 DUP2 MSTORE PUSH1 0x20 DUP2 SWAP1 MSTORE PUSH1 0x40 SWAP1 KECCAK256 PUSH1 0x2 ADD SLOAD PUSH1 0xFF AND PUSH2 0x4E3 JUMPI PUSH1 0x40 MLOAD PUSH3 0x461BCD PUSH1 0xE5 SHL DUP2 MSTORE PUSH1 0x20 PUSH1 0x4 DUP3 ADD MSTORE PUSH1 0xB PUSH1 0x24 DUP3 ADD MSTORE PUSH11 0x2737BA103090353AB937B9 PUSH1 0xA9 SHL PUSH1 0x44 DUP3 ADD MSTORE PUSH1 0x64 ADD JUMPDEST PUSH1 0x40 MLOAD DUP1 SWAP2 SUB SWAP1 REVERT JUMPDEST PUSH0 DUP1 JUMPDEST PUSH0 DUP5 DUP2 MSTORE PUSH1 0x6 PUSH1 0x20 MSTORE PUSH1 0x40 SWAP1 KECCAK256 SLOAD DUP2 LT ISZERO PUSH2 0x547 JUMPI PUSH0 DUP5 DUP2 MSTORE PUSH1 0x6 PUSH1 0x20 MSTORE PUSH1 0x40 SWAP1 KECCAK256 DUP1 SLOAD CALLER SWAP2 SWAP1 DUP4 SWAP1 DUP2 LT PUSH2 0x51D JUMPI PUSH2 0x51D PUSH2 0x14D3 JUMP JUMPDEST PUSH0 SWAP2 DUP3 MSTORE PUSH1 0x20 SWAP1 SWAP2 KECCAK256 ADD SLOAD PUSH1 0x1 PUSH1 0x1 PUSH1 0xA0 SHL SUB AND SUB PUSH2 0x53F JUMPI PUSH1 0x1 SWAP2 POP PUSH2 0x547 JUMP JUMPDEST PUSH1 0x1 ADD PUSH2 0x4E6 JUMP JUMPDEST POP DUP1 PUSH2 0x58A JUMPI PUSH1 0x40 MLOAD PUSH3 0x461BCD PUSH1 0xE5 SHL DUP2 MSTORE PUSH1 0x20 PUSH1 0x4 DUP3 ADD MSTORE PUSH1 0x12 PUSH1 0x24 DUP3 ADD MSTORE PUSH18 0x2737BA1039B2B632B1BA32B210353AB937B9 PUSH1 0x71 SHL PUSH1 0x44 DUP3 ADD MSTORE PUSH1 0x64 ADD PUSH2 0x4DA JUMP JUMPDEST PUSH0 DUP4 DUP2 MSTORE PUSH1 0x7 PUSH1 0x20 SWAP1 DUP2 MSTORE PUSH1 0x40 DUP1 DUP4 KECCAK256 CALLER DUP5 MSTORE SWAP1 SWAP2 MSTORE SWAP1 KECCAK256 SLOAD PUSH1 0xFF AND ISZERO PUSH2 0x5E3 JUMPI PUSH1 0x40 MLOAD PUSH3 0x461BCD PUSH1 0xE5 SHL DUP2 MSTORE PUSH1 0x20 PUSH1 0x4 DUP3 ADD MSTORE PUSH1 0xD PUSH1 0x24 DUP3 ADD MSTORE PUSH13 0x105B1C9958591E481D9BDD1959 PUSH1 0x9A SHL PUSH1 0x44 DUP3 ADD MSTORE PUSH1 0x64 ADD PUSH2 0x4DA JUMP JUMPDEST PUSH0 DUP4 DUP2 MSTORE PUSH1 0x7 PUSH1 0x20 SWAP1 DUP2 MSTORE PUSH1 0x40 DUP1 DUP4 KECCAK256 CALLER DUP1 DUP6 MSTORE SWAP1 DUP4 MSTORE DUP2 DUP5 KECCAK256 DUP1 SLOAD PUSH1 0xFF NOT AND PUSH1 0x1 OR SWAP1 SSTORE DUP7 DUP5 MSTORE PUSH1 0x8 DUP4 MSTORE DUP2 DUP5 KECCAK256 SWAP1 DUP5 MSTORE DUP3 MSTORE DUP1 DUP4 KECCAK256 DUP1 SLOAD PUSH1 0x1 PUSH1 0x1 PUSH1 0xA0 SHL SUB DUP8 AND PUSH1 0x1 PUSH1 0x1 PUSH1 0xA0 SHL SUB NOT SWAP1 SWAP2 AND DUP2 OR SWAP1 SWAP2 SSTORE DUP7 DUP5 MSTORE PUSH1 0xA DUP4 MSTORE DUP2 DUP5 KECCAK256 SWAP1 DUP5 MSTORE SWAP1 SWAP2 MSTORE DUP2 KECCAK256 DUP1 SLOAD SWAP2 PUSH2 0x655 DUP4 PUSH2 0x14FB JUMP JUMPDEST SWAP1 SWAP2 SSTORE POP POP PUSH0 DUP4 DUP2 MSTORE PUSH1 0x9 PUSH1 0x20 MSTORE PUSH1 0x40 DUP2 KECCAK256 DUP1 SLOAD SWAP2 PUSH2 0x673 DUP4 PUSH2 0x14FB JUMP JUMPDEST SWAP1 SWAP2 SSTORE POP POP PUSH1 0x40 MLOAD PUSH1 0x1 PUSH1 0x1 PUSH1 0xA0 SHL SUB DUP4 AND DUP2 MSTORE CALLER SWAP1 DUP5 SWAP1 PUSH32 0xF6C8F1F54B2F54FB963820203FDEF5B9AEFB56AE2C4DD8B6133E151791A07F36 SWAP1 PUSH1 0x20 ADD PUSH1 0x40 MLOAD DUP1 SWAP2 SUB SWAP1 LOG3 PUSH1 0x3 SLOAD PUSH0 DUP5 DUP2 MSTORE PUSH1 0x9 PUSH1 0x20 MSTORE PUSH1 0x40 SWAP1 KECCAK256 SLOAD SUB PUSH2 0x888 JUMPI DUP2 PUSH0 DUP1 JUMPDEST PUSH0 DUP7 DUP2 MSTORE PUSH1 0x6 PUSH1 0x20 MSTORE PUSH1 0x40 SWAP1 KECCAK256 SLOAD DUP2 LT ISZERO PUSH2 0x76C JUMPI PUSH0 DUP7 DUP2 MSTORE PUSH1 0x8 PUSH1 0x20 SWAP1 DUP2 MSTORE PUSH1 0x40 DUP1 DUP4 KECCAK256 PUSH1 0x6 SWAP1 SWAP3 MSTORE DUP3 KECCAK256 DUP1 SLOAD DUP4 SWAP2 SWAP1 DUP6 SWAP1 DUP2 LT PUSH2 0x713 JUMPI PUSH2 0x713 PUSH2 0x14D3 JUMP JUMPDEST PUSH0 SWAP2 DUP3 MSTORE PUSH1 0x20 DUP1 DUP4 KECCAK256 SWAP1 SWAP2 ADD SLOAD PUSH1 0x1 PUSH1 0x1 PUSH1 0xA0 SHL SUB SWAP1 DUP2 AND DUP5 MSTORE DUP4 DUP3 ADD SWAP5 SWAP1 SWAP5 MSTORE PUSH1 0x40 SWAP3 DUP4 ADD DUP3 KECCAK256 SLOAD DUP12 DUP4 MSTORE PUSH1 0xA DUP3 MSTORE DUP4 DUP4 KECCAK256 SWAP5 AND DUP1 DUP4 MSTORE SWAP4 SWAP1 MSTORE KECCAK256 SLOAD SWAP1 SWAP2 POP DUP4 DUP2 GT ISZERO PUSH2 0x762 JUMPI DUP1 SWAP4 POP DUP2 SWAP5 POP JUMPDEST POP POP PUSH1 0x1 ADD PUSH2 0x6D2 JUMP JUMPDEST POP PUSH1 0x4 SLOAD PUSH1 0x40 MLOAD PUSH1 0x24 DUP2 ADD DUP8 SWAP1 MSTORE PUSH1 0x1 PUSH1 0x1 PUSH1 0xA0 SHL SUB DUP5 DUP2 AND PUSH1 0x44 DUP4 ADD MSTORE PUSH0 SWAP3 AND SWAP1 PUSH1 0x64 ADD PUSH1 0x40 DUP1 MLOAD PUSH1 0x1F NOT DUP2 DUP5 SUB ADD DUP2 MSTORE SWAP2 DUP2 MSTORE PUSH1 0x20 DUP3 ADD DUP1 MLOAD PUSH1 0x1 PUSH1 0x1 PUSH1 0xE0 SHL SUB AND PUSH4 0xE33599D PUSH1 0xE0 SHL OR SWAP1 MSTORE MLOAD PUSH2 0x7C6 SWAP2 SWAP1 PUSH2 0x1513 JUMP JUMPDEST PUSH0 PUSH1 0x40 MLOAD DUP1 DUP4 SUB DUP2 PUSH0 DUP7 GAS CALL SWAP2 POP POP RETURNDATASIZE DUP1 PUSH0 DUP2 EQ PUSH2 0x7FF JUMPI PUSH1 0x40 MLOAD SWAP2 POP PUSH1 0x1F NOT PUSH1 0x3F RETURNDATASIZE ADD AND DUP3 ADD PUSH1 0x40 MSTORE RETURNDATASIZE DUP3 MSTORE RETURNDATASIZE PUSH0 PUSH1 0x20 DUP5 ADD RETURNDATACOPY PUSH2 0x804 JUMP JUMPDEST PUSH1 0x60 SWAP2 POP JUMPDEST POP POP SWAP1 POP DUP1 PUSH2 0x846 JUMPI PUSH1 0x40 MLOAD PUSH3 0x461BCD PUSH1 0xE5 SHL DUP2 MSTORE PUSH1 0x20 PUSH1 0x4 DUP3 ADD MSTORE PUSH1 0xE PUSH1 0x24 DUP3 ADD MSTORE PUSH14 0x14995CDBDB1D994819985A5B1959 PUSH1 0x92 SHL PUSH1 0x44 DUP3 ADD MSTORE PUSH1 0x64 ADD PUSH2 0x4DA JUMP JUMPDEST PUSH1 0x40 MLOAD PUSH1 0x1 PUSH1 0x1 PUSH1 0xA0 SHL SUB DUP5 AND DUP2 MSTORE DUP7 SWAP1 PUSH32 0xF77CEB5E091D2DA041BC760667F9D5FE7A756949EAF29250AD0E60CA6F4C27D9 SWAP1 PUSH1 0x20 ADD PUSH1 0x40 MLOAD DUP1 SWAP2 SUB SWAP1 LOG2 POP POP POP JUMPDEST POP POP POP JUMP JUMPDEST PUSH1 0x6 PUSH1 0x20 MSTORE DUP2 PUSH0 MSTORE PUSH1 0x40 PUSH0 KECCAK256 DUP2 DUP2 SLOAD DUP2 LT PUSH2 0x8A6 JUMPI PUSH0 DUP1 REVERT JUMPDEST PUSH0 SWAP2 DUP3 MSTORE PUSH1 0x20 SWAP1 SWAP2 KECCAK256 ADD SLOAD PUSH1 0x1 PUSH1 0x1 PUSH1 0xA0 SHL SUB AND SWAP2 POP DUP3 SWAP1 POP JUMP JUMPDEST CALLER PUSH0 SWAP1 DUP2 MSTORE PUSH1 0x20 DUP2 SWAP1 MSTORE PUSH1 0x40 SWAP1 KECCAK256 PUSH1 0x2 DUP2 ADD SLOAD PUSH1 0xFF AND PUSH2 0x911 JUMPI PUSH1 0x40 MLOAD PUSH3 0x461BCD PUSH1 0xE5 SHL DUP2 MSTORE PUSH1 0x20 PUSH1 0x4 DUP3 ADD MSTORE PUSH1 0xB PUSH1 0x24 DUP3 ADD MSTORE PUSH11 0x2737BA103090353AB937B9 PUSH1 0xA9 SHL PUSH1 0x44 DUP3 ADD MSTORE PUSH1 0x64 ADD PUSH2 0x4DA JUMP JUMPDEST PUSH1 0x1 DUP2 ADD DUP1 SLOAD PUSH1 0x2 DUP4 ADD DUP1 SLOAD PUSH1 0xFF NOT AND SWAP1 SSTORE PUSH0 SWAP2 DUP3 SWAP1 SSTORE PUSH1 0x40 MLOAD SWAP1 SWAP2 CALLER SWAP2 DUP4 ISZERO PUSH2 0x8FC MUL SWAP2 DUP5 SWAP2 SWAP1 DUP2 DUP2 DUP2 DUP6 DUP9 DUP9 CALL SWAP4 POP POP POP POP ISZERO DUP1 ISZERO PUSH2 0x954 JUMPI RETURNDATASIZE PUSH0 PUSH0 RETURNDATACOPY RETURNDATASIZE PUSH0 REVERT JUMPDEST POP PUSH1 0x40 MLOAD DUP2 DUP2 MSTORE CALLER SWAP1 PUSH32 0x610A1D949CC1CA7D4391B2530DEDA84F33B5F02DBD462643F21CD8A1B3CD573F SWAP1 PUSH1 0x20 ADD PUSH1 0x40 MLOAD DUP1 SWAP2 SUB SWAP1 LOG2 POP POP JUMP JUMPDEST PUSH1 0x2 SLOAD CALLVALUE LT ISZERO PUSH2 0x9D5 JUMPI PUSH1 0x40 MLOAD PUSH3 0x461BCD PUSH1 0xE5 SHL DUP2 MSTORE PUSH1 0x20 PUSH1 0x4 DUP3 ADD MSTORE PUSH1 0x12 PUSH1 0x24 DUP3 ADD MSTORE PUSH18 0x496E73756666696369656E74207374616B65 PUSH1 0x70 SHL PUSH1 0x44 DUP3 ADD MSTORE PUSH1 0x64 ADD PUSH2 0x4DA JUMP JUMPDEST CALLER PUSH0 SWAP1 DUP2 MSTORE PUSH1 0x20 DUP2 SWAP1 MSTORE PUSH1 0x40 SWAP1 KECCAK256 PUSH1 0x2 ADD SLOAD PUSH1 0xFF AND ISZERO PUSH2 0xA27 JUMPI PUSH1 0x40 MLOAD PUSH3 0x461BCD PUSH1 0xE5 SHL DUP2 MSTORE PUSH1 0x20 PUSH1 0x4 DUP3 ADD MSTORE PUSH1 0xD PUSH1 0x24 DUP3 ADD MSTORE PUSH13 0x20B63932B0B23C90353AB937B9 PUSH1 0x99 SHL PUSH1 0x44 DUP3 ADD MSTORE PUSH1 0x64 ADD PUSH2 0x4DA JUMP JUMPDEST PUSH1 0x40 DUP1 MLOAD PUSH1 0x80 DUP2 ADD DUP3 MSTORE CALLER DUP1 DUP3 MSTORE CALLVALUE PUSH1 0x20 DUP1 DUP5 ADD DUP3 DUP2 MSTORE PUSH1 0x1 DUP6 DUP8 ADD DUP2 DUP2 MSTORE PUSH0 PUSH1 0x60 DUP9 ADD DUP2 DUP2 MSTORE DUP8 DUP3 MSTORE DUP2 DUP7 MSTORE DUP10 DUP3 KECCAK256 SWAP9 MLOAD DUP10 SLOAD PUSH1 0x1 PUSH1 0x1 PUSH1 0xA0 SHL SUB SWAP1 SWAP2 AND PUSH1 0x1 PUSH1 0x1 PUSH1 0xA0 SHL SUB NOT SWAP2 DUP3 AND OR DUP11 SSTORE SWAP5 MLOAD DUP10 DUP6 ADD SSTORE SWAP2 MLOAD PUSH1 0x2 DUP10 ADD DUP1 SLOAD SWAP2 ISZERO ISZERO PUSH1 0xFF NOT SWAP1 SWAP3 AND SWAP2 SWAP1 SWAP2 OR SWAP1 SSTORE SWAP1 MLOAD PUSH1 0x3 SWAP1 SWAP8 ADD SWAP7 SWAP1 SWAP7 SSTORE DUP1 SLOAD DUP1 DUP3 ADD DUP3 SSTORE SWAP6 MSTORE PUSH32 0xB10E2D527612073B26EECDFD717E6A320CF44B4AFAC2B0732D9FCBE2B7FA0CF6 SWAP1 SWAP5 ADD DUP1 SLOAD SWAP1 SWAP5 AND DUP4 OR SWAP1 SWAP4 SSTORE SWAP3 MLOAD SWAP3 DUP4 MSTORE SWAP2 PUSH32 0xC9626D754B3720DA351A26831DC4D1481CB9F2DD7EC9BA5356F710BCF4354B59 SWAP2 ADD PUSH1 0x40 MLOAD DUP1 SWAP2 SUB SWAP1 LOG2 JUMP JUMPDEST PUSH0 DUP2 DUP2 MSTORE PUSH1 0x6 PUSH1 0x20 SWAP1 DUP2 MSTORE PUSH1 0x40 SWAP2 DUP3 SWAP1 KECCAK256 DUP1 SLOAD DUP4 MLOAD DUP2 DUP5 MUL DUP2 ADD DUP5 ADD SWAP1 SWAP5 MSTORE DUP1 DUP5 MSTORE PUSH1 0x60 SWAP4 SWAP3 DUP4 ADD DUP3 DUP3 DUP1 ISZERO PUSH2 0xB64 JUMPI PUSH1 0x20 MUL DUP3 ADD SWAP2 SWAP1 PUSH0 MSTORE PUSH1 0x20 PUSH0 KECCAK256 SWAP1 JUMPDEST DUP2 SLOAD PUSH1 0x1 PUSH1 0x1 PUSH1 0xA0 SHL SUB AND DUP2 MSTORE PUSH1 0x1 SWAP1 SWAP2 ADD SWAP1 PUSH1 0x20 ADD DUP1 DUP4 GT PUSH2 0xB46 JUMPI JUMPDEST POP POP POP POP POP SWAP1 POP SWAP2 SWAP1 POP JUMP JUMPDEST PUSH1 0x4 SLOAD PUSH1 0x1 PUSH1 0x1 PUSH1 0xA0 SHL SUB AND CALLER EQ PUSH2 0xBBD JUMPI PUSH1 0x40 MLOAD PUSH3 0x461BCD PUSH1 0xE5 SHL DUP2 MSTORE PUSH1 0x20 PUSH1 0x4 DUP3 ADD MSTORE PUSH1 0x10 PUSH1 0x24 DUP3 ADD MSTORE PUSH16 0x4F6E6C79205461736B466163746F7279 PUSH1 0x80 SHL PUSH1 0x44 DUP3 ADD MSTORE PUSH1 0x64 ADD PUSH2 0x4DA JUMP JUMPDEST PUSH0 DUP2 DUP2 MSTORE PUSH1 0x6 PUSH1 0x20 MSTORE PUSH1 0x40 SWAP1 KECCAK256 SLOAD ISZERO PUSH2 0xC18 JUMPI PUSH1 0x40 MLOAD PUSH3 0x461BCD PUSH1 0xE5 SHL DUP2 MSTORE PUSH1 0x20 PUSH1 0x4 DUP3 ADD MSTORE PUSH1 0x17 PUSH1 0x24 DUP3 ADD MSTORE PUSH32 0x4469737075746520616C72656164792073746172746564000000000000000000 PUSH1 0x44 DUP3 ADD MSTORE PUSH1 0x64 ADD PUSH2 0x4DA JUMP JUMPDEST PUSH1 0x3 SLOAD PUSH1 0x1 SLOAD LT ISZERO PUSH2 0xC60 JUMPI PUSH1 0x40 MLOAD PUSH3 0x461BCD PUSH1 0xE5 SHL DUP2 MSTORE PUSH1 0x20 PUSH1 0x4 DUP3 ADD MSTORE PUSH1 0x11 PUSH1 0x24 DUP3 ADD MSTORE PUSH17 0x4E6F7420656E6F756768206A75726F7273 PUSH1 0x78 SHL PUSH1 0x44 DUP3 ADD MSTORE PUSH1 0x64 ADD PUSH2 0x4DA JUMP JUMPDEST PUSH1 0x1 SLOAD PUSH0 SWAP1 PUSH8 0xFFFFFFFFFFFFFFFF DUP2 GT ISZERO PUSH2 0xC7D JUMPI PUSH2 0xC7D PUSH2 0x1529 JUMP JUMPDEST PUSH1 0x40 MLOAD SWAP1 DUP1 DUP3 MSTORE DUP1 PUSH1 0x20 MUL PUSH1 0x20 ADD DUP3 ADD PUSH1 0x40 MSTORE DUP1 ISZERO PUSH2 0xCA6 JUMPI DUP2 PUSH1 0x20 ADD PUSH1 0x20 DUP3 MUL DUP1 CALLDATASIZE DUP4 CALLDATACOPY ADD SWAP1 POP JUMPDEST POP SWAP1 POP PUSH0 DUP1 JUMPDEST PUSH1 0x1 SLOAD DUP2 LT ISZERO PUSH2 0xD75 JUMPI PUSH0 PUSH1 0x1 DUP3 DUP2 SLOAD DUP2 LT PUSH2 0xCCA JUMPI PUSH2 0xCCA PUSH2 0x14D3 JUMP JUMPDEST PUSH0 SWAP2 DUP3 MSTORE PUSH1 0x20 DUP1 DUP4 KECCAK256 SWAP1 SWAP2 ADD SLOAD PUSH1 0x1 PUSH1 0x1 PUSH1 0xA0 SHL SUB AND DUP1 DUP4 MSTORE SWAP1 DUP3 SWAP1 MSTORE PUSH1 0x40 SWAP1 SWAP2 KECCAK256 PUSH1 0x2 ADD SLOAD SWAP1 SWAP2 POP PUSH1 0xFF AND DUP1 ISZERO PUSH2 0xD28 JUMPI POP PUSH1 0x5 SLOAD PUSH1 0x1 PUSH1 0x1 PUSH1 0xA0 SHL SUB DUP3 AND PUSH0 SWAP1 DUP2 MSTORE PUSH1 0x20 DUP2 SWAP1 MSTORE PUSH1 0x40 SWAP1 KECCAK256 PUSH1 0x3 ADD SLOAD PUSH2 0xD25 SWAP2 SWAP1 PUSH2 0x153D JUMP JUMPDEST DUP6 GT JUMPDEST ISZERO PUSH2 0xD6C JUMPI DUP1 DUP5 DUP5 PUSH2 0xD39 DUP2 PUSH2 0x14FB JUMP JUMPDEST SWAP6 POP DUP2 MLOAD DUP2 LT PUSH2 0xD4B JUMPI PUSH2 0xD4B PUSH2 0x14D3 JUMP JUMPDEST PUSH1 0x20 MUL PUSH1 0x20 ADD ADD SWAP1 PUSH1 0x1 PUSH1 0x1 PUSH1 0xA0 SHL SUB AND SWAP1 DUP2 PUSH1 0x1 PUSH1 0x1 PUSH1 0xA0 SHL SUB AND DUP2 MSTORE POP POP JUMPDEST POP PUSH1 0x1 ADD PUSH2 0xCAC JUMP JUMPDEST POP PUSH0 PUSH1 0x3 SLOAD PUSH8 0xFFFFFFFFFFFFFFFF DUP2 GT ISZERO PUSH2 0xD92 JUMPI PUSH2 0xD92 PUSH2 0x1529 JUMP JUMPDEST PUSH1 0x40 MLOAD SWAP1 DUP1 DUP3 MSTORE DUP1 PUSH1 0x20 MUL PUSH1 0x20 ADD DUP3 ADD PUSH1 0x40 MSTORE DUP1 ISZERO PUSH2 0xDBB JUMPI DUP2 PUSH1 0x20 ADD PUSH1 0x20 DUP3 MUL DUP1 CALLDATASIZE DUP4 CALLDATACOPY ADD SWAP1 POP JUMPDEST POP PUSH1 0x40 DUP1 MLOAD TIMESTAMP PUSH1 0x20 DUP1 DUP4 ADD SWAP2 SWAP1 SWAP2 MSTORE DUP2 DUP4 ADD DUP9 SWAP1 MSTORE DUP3 MLOAD DUP1 DUP4 SUB DUP5 ADD DUP2 MSTORE PUSH1 0x60 SWAP1 SWAP3 ADD SWAP1 SWAP3 MSTORE DUP1 MLOAD SWAP2 ADD KECCAK256 SWAP1 SWAP2 POP PUSH0 SWAP1 DUP2 JUMPDEST PUSH1 0x3 SLOAD DUP4 LT DUP1 ISZERO PUSH2 0xE07 JUMPI POP PUSH2 0xE04 DUP6 PUSH1 0x2 PUSH2 0x1556 JUMP JUMPDEST DUP2 LT JUMPDEST ISZERO PUSH2 0xF0B JUMPI PUSH0 DUP7 DUP7 DUP5 DUP5 PUSH1 0x40 MLOAD PUSH1 0x20 ADD PUSH2 0xE2B SWAP3 SWAP2 SWAP1 SWAP2 DUP3 MSTORE PUSH1 0x20 DUP3 ADD MSTORE PUSH1 0x40 ADD SWAP1 JUMP JUMPDEST PUSH1 0x40 MLOAD PUSH1 0x20 DUP2 DUP4 SUB SUB DUP2 MSTORE SWAP1 PUSH1 0x40 MSTORE DUP1 MLOAD SWAP1 PUSH1 0x20 ADD KECCAK256 PUSH0 SHR PUSH2 0xE4D SWAP2 SWAP1 PUSH2 0x156D JUMP JUMPDEST DUP2 MLOAD DUP2 LT PUSH2 0xE5D JUMPI PUSH2 0xE5D PUSH2 0x14D3 JUMP JUMPDEST PUSH1 0x20 SWAP1 DUP2 MUL SWAP2 SWAP1 SWAP2 ADD ADD MLOAD SWAP1 POP PUSH0 DUP1 JUMPDEST DUP6 DUP2 LT ISZERO PUSH2 0xEB8 JUMPI DUP3 PUSH1 0x1 PUSH1 0x1 PUSH1 0xA0 SHL SUB AND DUP8 DUP3 DUP2 MLOAD DUP2 LT PUSH2 0xE91 JUMPI PUSH2 0xE91 PUSH2 0x14D3 JUMP JUMPDEST PUSH1 0x20 MUL PUSH1 0x20 ADD ADD MLOAD PUSH1 0x1 PUSH1 0x1 PUSH1 0xA0 SHL SUB AND SUB PUSH2 0xEB0 JUMPI PUSH1 0x1 SWAP2 POP PUSH2 0xEB8 JUMP JUMPDEST PUSH1 0x1 ADD PUSH2 0xE6D JUMP JUMPDEST POP DUP1 PUSH2 0xEF7 JUMPI DUP2 DUP7 DUP7 DUP2 MLOAD DUP2 LT PUSH2 0xED1 JUMPI PUSH2 0xED1 PUSH2 0x14D3 JUMP JUMPDEST PUSH1 0x1 PUSH1 0x1 PUSH1 0xA0 SHL SUB SWAP1 SWAP3 AND PUSH1 0x20 SWAP3 DUP4 MUL SWAP2 SWAP1 SWAP2 ADD SWAP1 SWAP2 ADD MSTORE DUP5 PUSH2 0xEF3 DUP2 PUSH2 0x14FB JUMP JUMPDEST SWAP6 POP POP JUMPDEST DUP3 PUSH2 0xF01 DUP2 PUSH2 0x14FB JUMP JUMPDEST SWAP4 POP POP POP POP PUSH2 0xDED JUMP JUMPDEST PUSH1 0x3 SLOAD DUP4 LT ISZERO PUSH2 0x1017 JUMPI PUSH0 JUMPDEST PUSH1 0x1 SLOAD DUP2 LT DUP1 ISZERO PUSH2 0xF29 JUMPI POP PUSH1 0x3 SLOAD DUP5 LT JUMPDEST ISZERO PUSH2 0x1015 JUMPI PUSH0 PUSH1 0x1 DUP3 DUP2 SLOAD DUP2 LT PUSH2 0xF42 JUMPI PUSH2 0xF42 PUSH2 0x14D3 JUMP JUMPDEST PUSH0 SWAP2 DUP3 MSTORE PUSH1 0x20 DUP1 DUP4 KECCAK256 SWAP1 SWAP2 ADD SLOAD PUSH1 0x1 PUSH1 0x1 PUSH1 0xA0 SHL SUB AND DUP1 DUP4 MSTORE SWAP1 DUP3 SWAP1 MSTORE PUSH1 0x40 SWAP1 SWAP2 KECCAK256 PUSH1 0x2 ADD SLOAD SWAP1 SWAP2 POP PUSH1 0xFF AND ISZERO PUSH2 0x1002 JUMPI PUSH0 DUP1 JUMPDEST DUP7 DUP2 LT ISZERO PUSH2 0xFC1 JUMPI DUP3 PUSH1 0x1 PUSH1 0x1 PUSH1 0xA0 SHL SUB AND DUP9 DUP3 DUP2 MLOAD DUP2 LT PUSH2 0xF9A JUMPI PUSH2 0xF9A PUSH2 0x14D3 JUMP JUMPDEST PUSH1 0x20 MUL PUSH1 0x20 ADD ADD MLOAD PUSH1 0x1 PUSH1 0x1 PUSH1 0xA0 SHL SUB AND SUB PUSH2 0xFB9 JUMPI PUSH1 0x1 SWAP2 POP PUSH2 0xFC1 JUMP JUMPDEST PUSH1 0x1 ADD PUSH2 0xF76 JUMP JUMPDEST POP DUP1 PUSH2 0x1000 JUMPI DUP2 DUP8 DUP8 DUP2 MLOAD DUP2 LT PUSH2 0xFDA JUMPI PUSH2 0xFDA PUSH2 0x14D3 JUMP JUMPDEST PUSH1 0x1 PUSH1 0x1 PUSH1 0xA0 SHL SUB SWAP1 SWAP3 AND PUSH1 0x20 SWAP3 DUP4 MUL SWAP2 SWAP1 SWAP2 ADD SWAP1 SWAP2 ADD MSTORE DUP6 PUSH2 0xFFC DUP2 PUSH2 0x14FB JUMP JUMPDEST SWAP7 POP POP JUMPDEST POP JUMPDEST POP DUP1 PUSH2 0x100D DUP2 PUSH2 0x14FB JUMP JUMPDEST SWAP2 POP POP PUSH2 0xF17 JUMP JUMPDEST POP JUMPDEST PUSH1 0x3 SLOAD DUP4 EQ PUSH2 0x1068 JUMPI PUSH1 0x40 MLOAD PUSH3 0x461BCD PUSH1 0xE5 SHL DUP2 MSTORE PUSH1 0x20 PUSH1 0x4 DUP3 ADD MSTORE PUSH1 0x18 PUSH1 0x24 DUP3 ADD MSTORE PUSH32 0x4E6F7420656E6F75676820756E69717565206A75726F72730000000000000000 PUSH1 0x44 DUP3 ADD MSTORE PUSH1 0x64 ADD PUSH2 0x4DA JUMP JUMPDEST PUSH0 DUP8 DUP2 MSTORE PUSH1 0x6 PUSH1 0x20 SWAP1 DUP2 MSTORE PUSH1 0x40 SWAP1 SWAP2 KECCAK256 DUP6 MLOAD PUSH2 0x1086 SWAP3 DUP8 ADD SWAP1 PUSH2 0x1375 JUMP JUMPDEST POP PUSH0 JUMPDEST DUP5 MLOAD DUP2 LT ISZERO PUSH2 0x10D5 JUMPI DUP8 PUSH0 PUSH0 DUP8 DUP5 DUP2 MLOAD DUP2 LT PUSH2 0x10A7 JUMPI PUSH2 0x10A7 PUSH2 0x14D3 JUMP JUMPDEST PUSH1 0x20 SWAP1 DUP2 MUL SWAP2 SWAP1 SWAP2 ADD DUP2 ADD MLOAD PUSH1 0x1 PUSH1 0x1 PUSH1 0xA0 SHL SUB AND DUP3 MSTORE DUP2 ADD SWAP2 SWAP1 SWAP2 MSTORE PUSH1 0x40 ADD PUSH0 KECCAK256 PUSH1 0x3 ADD SSTORE PUSH1 0x1 ADD PUSH2 0x1089 JUMP JUMPDEST POP DUP7 PUSH32 0x5623BB8130AC6988AB91C966D08C23B84DE074A147BB0A3677A9E322B0A5145B DUP6 PUSH1 0x40 MLOAD PUSH2 0x1106 SWAP2 SWAP1 PUSH2 0x1468 JUMP JUMPDEST PUSH1 0x40 MLOAD DUP1 SWAP2 SUB SWAP1 LOG2 POP POP POP POP POP POP POP JUMP JUMPDEST PUSH1 0x4 SLOAD PUSH1 0x1 PUSH1 0xA0 SHL SWAP1 DIV PUSH1 0xFF AND ISZERO PUSH2 0x1167 JUMPI PUSH1 0x40 MLOAD PUSH3 0x461BCD PUSH1 0xE5 SHL DUP2 MSTORE PUSH1 0x20 PUSH1 0x4 DUP3 ADD MSTORE PUSH1 0x13 PUSH1 0x24 DUP3 ADD MSTORE PUSH19 0x119858DD1BDC9E48185B1C9958591E481CD95D PUSH1 0x6A SHL PUSH1 0x44 DUP3 ADD MSTORE PUSH1 0x64 ADD PUSH2 0x4DA JUMP JUMPDEST PUSH1 0x1 PUSH1 0x1 PUSH1 0xA0 SHL SUB DUP2 AND PUSH2 0x11AF JUMPI PUSH1 0x40 MLOAD PUSH3 0x461BCD PUSH1 0xE5 SHL DUP2 MSTORE PUSH1 0x20 PUSH1 0x4 DUP3 ADD MSTORE PUSH1 0xF PUSH1 0x24 DUP3 ADD MSTORE PUSH15 0x496E76616C69642061646472657373 PUSH1 0x88 SHL PUSH1 0x44 DUP3 ADD MSTORE PUSH1 0x64 ADD PUSH2 0x4DA JUMP JUMPDEST PUSH1 0x4 DUP1 SLOAD PUSH1 0x1 PUSH1 0x1 PUSH1 0xA8 SHL SUB NOT AND PUSH1 0x1 PUSH1 0x1 PUSH1 0xA0 SHL SUB SWAP1 SWAP3 AND SWAP2 SWAP1 SWAP2 OR PUSH1 0x1 PUSH1 0xA0 SHL OR SWAP1 SSTORE JUMP JUMPDEST PUSH1 0x60 PUSH0 DUP1 JUMPDEST PUSH1 0x1 SLOAD DUP2 LT ISZERO PUSH2 0x123F JUMPI PUSH0 PUSH0 PUSH1 0x1 DUP4 DUP2 SLOAD DUP2 LT PUSH2 0x11FA JUMPI PUSH2 0x11FA PUSH2 0x14D3 JUMP JUMPDEST PUSH0 SWAP2 DUP3 MSTORE PUSH1 0x20 DUP1 DUP4 KECCAK256 SWAP1 SWAP2 ADD SLOAD PUSH1 0x1 PUSH1 0x1 PUSH1 0xA0 SHL SUB AND DUP4 MSTORE DUP3 ADD SWAP3 SWAP1 SWAP3 MSTORE PUSH1 0x40 ADD SWAP1 KECCAK256 PUSH1 0x2 ADD SLOAD PUSH1 0xFF AND ISZERO PUSH2 0x1237 JUMPI DUP2 PUSH2 0x1233 DUP2 PUSH2 0x14FB JUMP JUMPDEST SWAP3 POP POP JUMPDEST PUSH1 0x1 ADD PUSH2 0x11DB JUMP JUMPDEST POP PUSH0 DUP2 PUSH8 0xFFFFFFFFFFFFFFFF DUP2 GT ISZERO PUSH2 0x125A JUMPI PUSH2 0x125A PUSH2 0x1529 JUMP JUMPDEST PUSH1 0x40 MLOAD SWAP1 DUP1 DUP3 MSTORE DUP1 PUSH1 0x20 MUL PUSH1 0x20 ADD DUP3 ADD PUSH1 0x40 MSTORE DUP1 ISZERO PUSH2 0x1283 JUMPI DUP2 PUSH1 0x20 ADD PUSH1 0x20 DUP3 MUL DUP1 CALLDATASIZE DUP4 CALLDATACOPY ADD SWAP1 POP JUMPDEST POP SWAP1 POP PUSH0 DUP1 JUMPDEST PUSH1 0x1 SLOAD DUP2 LT ISZERO PUSH2 0x1344 JUMPI PUSH0 PUSH0 PUSH1 0x1 DUP4 DUP2 SLOAD DUP2 LT PUSH2 0x12A8 JUMPI PUSH2 0x12A8 PUSH2 0x14D3 JUMP JUMPDEST PUSH0 SWAP2 DUP3 MSTORE PUSH1 0x20 DUP1 DUP4 KECCAK256 SWAP1 SWAP2 ADD SLOAD PUSH1 0x1 PUSH1 0x1 PUSH1 0xA0 SHL SUB AND DUP4 MSTORE DUP3 ADD SWAP3 SWAP1 SWAP3 MSTORE PUSH1 0x40 ADD SWAP1 KECCAK256 PUSH1 0x2 ADD SLOAD PUSH1 0xFF AND ISZERO PUSH2 0x133C JUMPI PUSH1 0x1 DUP2 DUP2 SLOAD DUP2 LT PUSH2 0x12EA JUMPI PUSH2 0x12EA PUSH2 0x14D3 JUMP JUMPDEST PUSH0 SWAP2 DUP3 MSTORE PUSH1 0x20 SWAP1 SWAP2 KECCAK256 ADD SLOAD PUSH1 0x1 PUSH1 0x1 PUSH1 0xA0 SHL SUB AND DUP4 DUP4 PUSH2 0x1309 DUP2 PUSH2 0x14FB JUMP JUMPDEST SWAP5 POP DUP2 MLOAD DUP2 LT PUSH2 0x131B JUMPI PUSH2 0x131B PUSH2 0x14D3 JUMP JUMPDEST PUSH1 0x20 MUL PUSH1 0x20 ADD ADD SWAP1 PUSH1 0x1 PUSH1 0x1 PUSH1 0xA0 SHL SUB AND SWAP1 DUP2 PUSH1 0x1 PUSH1 0x1 PUSH1 0xA0 SHL SUB AND DUP2 MSTORE POP POP JUMPDEST PUSH1 0x1 ADD PUSH2 0x1289 JUMP JUMPDEST POP SWAP1 SWAP4 SWAP3 POP POP POP JUMP JUMPDEST PUSH1 0x1 DUP2 DUP2 SLOAD DUP2 LT PUSH2 0x135C JUMPI PUSH0 DUP1 REVERT JUMPDEST PUSH0 SWAP2 DUP3 MSTORE PUSH1 0x20 SWAP1 SWAP2 KECCAK256 ADD SLOAD PUSH1 0x1 PUSH1 0x1 PUSH1 0xA0 SHL SUB AND SWAP1 POP DUP2 JUMP JUMPDEST DUP3 DUP1 SLOAD DUP3 DUP3 SSTORE SWAP1 PUSH0 MSTORE PUSH1 0x20 PUSH0 KECCAK256 SWAP1 DUP2 ADD SWAP3 DUP3 ISZERO PUSH2 0x13C8 JUMPI SWAP2 PUSH1 0x20 MUL DUP3 ADD JUMPDEST DUP3 DUP2 GT ISZERO PUSH2 0x13C8 JUMPI DUP3 MLOAD DUP3 SLOAD PUSH1 0x1 PUSH1 0x1 PUSH1 0xA0 SHL SUB NOT AND PUSH1 0x1 PUSH1 0x1 PUSH1 0xA0 SHL SUB SWAP1 SWAP2 AND OR DUP3 SSTORE PUSH1 0x20 SWAP1 SWAP3 ADD SWAP2 PUSH1 0x1 SWAP1 SWAP2 ADD SWAP1 PUSH2 0x1393 JUMP JUMPDEST POP PUSH2 0x13D4 SWAP3 SWAP2 POP PUSH2 0x13D8 JUMP JUMPDEST POP SWAP1 JUMP JUMPDEST JUMPDEST DUP1 DUP3 GT ISZERO PUSH2 0x13D4 JUMPI PUSH0 DUP2 SSTORE PUSH1 0x1 ADD PUSH2 0x13D9 JUMP JUMPDEST DUP1 CALLDATALOAD PUSH1 0x1 PUSH1 0x1 PUSH1 0xA0 SHL SUB DUP2 AND DUP2 EQ PUSH2 0x1402 JUMPI PUSH0 PUSH0 REVERT JUMPDEST SWAP2 SWAP1 POP JUMP JUMPDEST PUSH0 PUSH0 PUSH1 0x40 DUP4 DUP6 SUB SLT ISZERO PUSH2 0x1418 JUMPI PUSH0 PUSH0 REVERT JUMPDEST DUP3 CALLDATALOAD SWAP2 POP PUSH2 0x1428 PUSH1 0x20 DUP5 ADD PUSH2 0x13EC JUMP JUMPDEST SWAP1 POP SWAP3 POP SWAP3 SWAP1 POP JUMP JUMPDEST PUSH0 PUSH0 PUSH1 0x40 DUP4 DUP6 SUB SLT ISZERO PUSH2 0x1442 JUMPI PUSH0 PUSH0 REVERT JUMPDEST POP POP DUP1 CALLDATALOAD SWAP3 PUSH1 0x20 SWAP1 SWAP2 ADD CALLDATALOAD SWAP2 POP JUMP JUMPDEST PUSH0 PUSH1 0x20 DUP3 DUP5 SUB SLT ISZERO PUSH2 0x1461 JUMPI PUSH0 PUSH0 REVERT JUMPDEST POP CALLDATALOAD SWAP2 SWAP1 POP JUMP JUMPDEST PUSH1 0x20 DUP1 DUP3 MSTORE DUP3 MLOAD DUP3 DUP3 ADD DUP2 SWAP1 MSTORE PUSH0 SWAP2 DUP5 ADD SWAP1 PUSH1 0x40 DUP5 ADD SWAP1 DUP4 JUMPDEST DUP2 DUP2 LT ISZERO PUSH2 0x14A8 JUMPI DUP4 MLOAD PUSH1 0x1 PUSH1 0x1 PUSH1 0xA0 SHL SUB AND DUP4 MSTORE PUSH1 0x20 SWAP4 DUP5 ADD SWAP4 SWAP1 SWAP3 ADD SWAP2 PUSH1 0x1 ADD PUSH2 0x1481 JUMP JUMPDEST POP SWAP1 SWAP6 SWAP5 POP POP POP POP POP JUMP JUMPDEST PUSH0 PUSH1 0x20 DUP3 DUP5 SUB SLT ISZERO PUSH2 0x14C3 JUMPI PUSH0 PUSH0 REVERT JUMPDEST PUSH2 0x14CC DUP3 PUSH2 0x13EC JUMP JUMPDEST SWAP4 SWAP3 POP POP POP JUMP JUMPDEST PUSH4 0x4E487B71 PUSH1 0xE0 SHL PUSH0 MSTORE PUSH1 0x32 PUSH1 0x4 MSTORE PUSH1 0x24 PUSH0 REVERT JUMPDEST PUSH4 0x4E487B71 PUSH1 0xE0 SHL PUSH0 MSTORE PUSH1 0x11 PUSH1 0x4 MSTORE PUSH1 0x24 PUSH0 REVERT JUMPDEST PUSH0 PUSH1 0x1 DUP3 ADD PUSH2 0x150C JUMPI PUSH2 0x150C PUSH2 0x14E7 JUMP JUMPDEST POP PUSH1 0x1 ADD SWAP1 JUMP JUMPDEST PUSH0 DUP3 MLOAD DUP1 PUSH1 0x20 DUP6 ADD DUP5 MCOPY PUSH0 SWAP3 ADD SWAP2 DUP3 MSTORE POP SWAP2 SWAP1 POP JUMP JUMPDEST PUSH4 0x4E487B71 PUSH1 0xE0 SHL PUSH0 MSTORE PUSH1 0x41 PUSH1 0x4 MSTORE PUSH1 0x24 PUSH0 REVERT JUMPDEST DUP1 DUP3 ADD DUP1 DUP3 GT ISZERO PUSH2 0x1550 JUMPI PUSH2 0x1550 PUSH2 0x14E7 JUMP JUMPDEST SWAP3 SWAP2 POP POP JUMP JUMPDEST DUP1 DUP3 MUL DUP2 ISZERO DUP3 DUP3 DIV DUP5 EQ OR PUSH2 0x1550 JUMPI PUSH2 0x1550 PUSH2 0x14E7 JUMP JUMPDEST PUSH0 DUP3 PUSH2 0x1587 JUMPI PUSH4 0x4E487B71 PUSH1 0xE0 SHL PUSH0 MSTORE PUSH1 0x12 PUSH1 0x4 MSTORE PUSH1 0x24 PUSH0 REVERT JUMPDEST POP MOD SWAP1 JUMP INVALID LOG2 PUSH5 0x6970667358 0x22 SLT KECCAK256 0xF6 TSTORE GASPRICE DUP14 SGT MUL 0xBA CODECOPY 0xAC 0xD4 SWAP11 CALLCODE 0xD4 SWAP2 PUSH23 0x732DF98196E0EFC6BF86FE3D425D7C38E264736F6C6343 STOP ADDMOD 0x1E STOP CALLER "
				},
				"gasEstimates": {
					"creation": {
						"codeDepositCost": "1114000",
						"executionCost": "infinite",
						"totalCost": "infinite"
					},
					"external": {
						"candidateVotes(uint256,address)": "2702",
						"disputeJurors(uint256,uint256)": "4734",
						"factorySet()": "2414",
						"getActiveJurors()": "infinite",
						"getDisputeJurors(uint256)": "infinite",
						"getJurorInfo(address)": "6937",
						"handleDispute(uint256)": "infinite",
						"hasVoted(uint256,address)": "2648",
						"jurorCooldown()": "2383",
						"jurorList(uint256)": "4667",
						"jurors(address)": "9062",
						"jurorsPerDispute()": "2338",
						"minStake()": "2384",
						"setFactory(address)": "26779",
						"stake()": "130289",
						"taskFactory()": "2436",
						"unstake()": "infinite",
						"vote(uint256,address)": "infinite",
						"voteCount(uint256)": "2546",
						"votes(uint256,address)": "2663"
					}
				},
				"methodIdentifiers": {
					"candidateVotes(uint256,address)": "afa9c5b0",
					"disputeJurors(uint256,uint256)": "2249c562",
					"factorySet()": "e21875e2",
					"getActiveJurors()": "6058e685",
					"getDisputeJurors(uint256)": "47e2a6e6",
					"getJurorInfo(address)": "eff2c3ec",
					"handleDispute(uint256)": "4b54a379",
					"hasVoted(uint256,address)": "43859632",
					"jurorCooldown()": "4dc35f7a",
					"jurorList(uint256)": "8e230e6f",
					"jurors(address)": "dca5f6b0",
					"jurorsPerDispute()": "d369506c",
					"minStake()": "375b3c0a",
					"setFactory(address)": "5bb47808",
					"stake()": "3a4b66f1",
					"taskFactory()": "c9bc0c11",
					"unstake()": "2def6620",
					"vote(uint256,address)": "02d947ef",
					"voteCount(uint256)": "4fc8a20d",
					"votes(uint256,address)": "d23254b4"
				}
			},
			"storageLayout": {
				"storage": [
					{
						"astId": 15,
						"contract": "contracts/DisputeDAO.sol:DisputeDAO",
						"label": "jurors",
						"offset": 0,
						"slot": "0",
						"type": "t_mapping(t_address,t_struct(Juror)10_storage)"
					},
					{
						"astId": 18,
						"contract": "contracts/DisputeDAO.sol:DisputeDAO",
						"label": "jurorList",
						"offset": 0,
						"slot": "1",
						"type": "t_array(t_address)dyn_storage"
					},
					{
						"astId": 21,
						"contract": "contracts/DisputeDAO.sol:DisputeDAO",
						"label": "minStake",
						"offset": 0,
						"slot": "2",
						"type": "t_uint256"
					},
					{
						"astId": 24,
						"contract": "contracts/DisputeDAO.sol:DisputeDAO",
						"label": "jurorsPerDispute",
						"offset": 0,
						"slot": "3",
						"type": "t_uint256"
					},
					{
						"astId": 26,
						"contract": "contracts/DisputeDAO.sol:DisputeDAO",
						"label": "taskFactory",
						"offset": 0,
						"slot": "4",
						"type": "t_address"
					},
					{
						"astId": 29,
						"contract": "contracts/DisputeDAO.sol:DisputeDAO",
						"label": "factorySet",
						"offset": 20,
						"slot": "4",
						"type": "t_bool"
					},
					{
						"astId": 32,
						"contract": "contracts/DisputeDAO.sol:DisputeDAO",
						"label": "jurorCooldown",
						"offset": 0,
						"slot": "5",
						"type": "t_uint256"
					},
					{
						"astId": 37,
						"contract": "contracts/DisputeDAO.sol:DisputeDAO",
						"label": "disputeJurors",
						"offset": 0,
						"slot": "6",
						"type": "t_mapping(t_uint256,t_array(t_address)dyn_storage)"
					},
					{
						"astId": 43,
						"contract": "contracts/DisputeDAO.sol:DisputeDAO",
						"label": "hasVoted",
						"offset": 0,
						"slot": "7",
						"type": "t_mapping(t_uint256,t_mapping(t_address,t_bool))"
					},
					{
						"astId": 49,
						"contract": "contracts/DisputeDAO.sol:DisputeDAO",
						"label": "votes",
						"offset": 0,
						"slot": "8",
						"type": "t_mapping(t_uint256,t_mapping(t_address,t_address))"
					},
					{
						"astId": 53,
						"contract": "contracts/DisputeDAO.sol:DisputeDAO",
						"label": "voteCount",
						"offset": 0,
						"slot": "9",
						"type": "t_mapping(t_uint256,t_uint256)"
					},
					{
						"astId": 59,
						"contract": "contracts/DisputeDAO.sol:DisputeDAO",
						"label": "candidateVotes",
						"offset": 0,
						"slot": "10",
						"type": "t_mapping(t_uint256,t_mapping(t_address,t_uint256))"
					}
				],
				"types": {
					"t_address": {
						"encoding": "inplace",
						"label": "address",
						"numberOfBytes": "20"
					},
					"t_array(t_address)dyn_storage": {
						"base": "t_address",
						"encoding": "dynamic_array",
						"label": "address[]",
						"numberOfBytes": "32"
					},
					"t_bool": {
						"encoding": "inplace",
						"label": "bool",
						"numberOfBytes": "1"
					},
					"t_mapping(t_address,t_address)": {
						"encoding": "mapping",
						"key": "t_address",
						"label": "mapping(address => address)",
						"numberOfBytes": "32",
						"value": "t_address"
					},
					"t_mapping(t_address,t_bool)": {
						"encoding": "mapping",
						"key": "t_address",
						"label": "mapping(address => bool)",
						"numberOfBytes": "32",
						"value": "t_bool"
					},
					"t_mapping(t_address,t_struct(Juror)10_storage)": {
						"encoding": "mapping",
						"key": "t_address",
						"label": "mapping(address => struct DisputeDAO.Juror)",
						"numberOfBytes": "32",
						"value": "t_struct(Juror)10_storage"
					},
					"t_mapping(t_address,t_uint256)": {
						"encoding": "mapping",
						"key": "t_address",
						"label": "mapping(address => uint256)",
						"numberOfBytes": "32",
						"value": "t_uint256"
					},
					"t_mapping(t_uint256,t_array(t_address)dyn_storage)": {
						"encoding": "mapping",
						"key": "t_uint256",
						"label": "mapping(uint256 => address[])",
						"numberOfBytes": "32",
						"value": "t_array(t_address)dyn_storage"
					},
					"t_mapping(t_uint256,t_mapping(t_address,t_address))": {
						"encoding": "mapping",
						"key": "t_uint256",
						"label": "mapping(uint256 => mapping(address => address))",
						"numberOfBytes": "32",
						"value": "t_mapping(t_address,t_address)"
					},
					"t_mapping(t_uint256,t_mapping(t_address,t_bool))": {
						"encoding": "mapping",
						"key": "t_uint256",
						"label": "mapping(uint256 => mapping(address => bool))",
						"numberOfBytes": "32",
						"value": "t_mapping(t_address,t_bool)"
					},
					"t_mapping(t_uint256,t_mapping(t_address,t_uint256))": {
						"encoding": "mapping",
						"key": "t_uint256",
						"label": "mapping(uint256 => mapping(address => uint256))",
						"numberOfBytes": "32",
						"value": "t_mapping(t_address,t_uint256)"
					},
					"t_mapping(t_uint256,t_uint256)": {
						"encoding": "mapping",
						"key": "t_uint256",
						"label": "mapping(uint256 => uint256)",
						"numberOfBytes": "32",
						"value": "t_uint256"
					},
					"t_struct(Juror)10_storage": {
						"encoding": "inplace",
						"label": "struct DisputeDAO.Juror",
						"members": [
							{
								"astId": 3,
								"contract": "contracts/DisputeDAO.sol:DisputeDAO",
								"label": "addr",
								"offset": 0,
								"slot": "0",
								"type": "t_address"
							},
							{
								"astId": 5,
								"contract": "contracts/DisputeDAO.sol:DisputeDAO",
								"label": "stakeAmount",
								"offset": 0,
								"slot": "1",
								"type": "t_uint256"
							},
							{
								"astId": 7,
								"contract": "contracts/DisputeDAO.sol:DisputeDAO",
								"label": "isActive",
								"offset": 0,
								"slot": "2",
								"type": "t_bool"
							},
							{
								"astId": 9,
								"contract": "contracts/DisputeDAO.sol:DisputeDAO",
								"label": "lastDisputeId",
								"offset": 0,
								"slot": "3",
								"type": "t_uint256"
							}
						],
						"numberOfBytes": "128"
					},
					"t_uint256": {
						"encoding": "inplace",
						"label": "uint256",
						"numberOfBytes": "32"
					}
				}
			},
			"userdoc": {
				"kind": "user",
				"methods": {},
				"version": 1
			}
		}
	}
}