{
	"TaskFactory.sol": {
		"TaskFactory": {
			"abi": [
				{
					"inputs": [
						{
							"internalType": "address",
							"name": "_biddingSystemAddr",
							"type": "address"
						},
						{
							"internalType": "address",
							"name": "_escrowAddr",
							"type": "address"
						},
						{
							"internalType": "address",
							"name": "_disputeDAOAddr",
							"type": "address"
						}
					],
					"stateMutability": "payable",
					"type": "constructor"
				},
				{
					"anonymous": false,
					"inputs": [
						{
							"indexed": true,
							"internalType": "uint256",
							"name": "taskId",
							"type": "uint256"
						},
						{
							"indexed": true,
							"internalType": "address",
							"name": "creator",
							"type": "address"
						},
						{
							"indexed": false,
							"internalType": "uint256",
							"name": "reward",
							"type": "uint256"
						},
						{
							"indexed": false,
							"internalType": "string",
							"name": "ipfsHash",
							"type": "string"
						}
					],
					"name": "TaskCreated",
					"type": "event"
				},
				{
					"anonymous": false,
					"inputs": [
						{
							"indexed": true,
							"internalType": "uint256",
							"name": "taskId",
							"type": "uint256"
						}
					],
					"name": "TaskRemoved",
					"type": "event"
				},
				{
					"anonymous": false,
					"inputs": [
						{
							"indexed": true,
							"internalType": "uint256",
							"name": "taskId",
							"type": "uint256"
						},
						{
							"indexed": false,
							"internalType": "enum TaskFactory.TaskStatus",
							"name": "status",
							"type": "uint8"
						},
						{
							"indexed": false,
							"internalType": "address",
							"name": "winner",
							"type": "address"
						}
					],
					"name": "TaskUpdated",
					"type": "event"
				},
				{
					"inputs": [],
					"name": "_value",
					"outputs": [
						{
							"internalType": "uint256",
							"name": "",
							"type": "uint256"
						}
					],
					"stateMutability": "view",
					"type": "function"
				},
				{
					"inputs": [],
					"name": "biddingSystem",
					"outputs": [
						{
							"internalType": "address",
							"name": "",
							"type": "address"
						}
					],
					"stateMutability": "view",
					"type": "function"
				},
				{
					"inputs": [
						{
							"internalType": "uint256",
							"name": "_taskId",
							"type": "uint256"
						}
					],
					"name": "cancelTask",
					"outputs": [],
					"stateMutability": "nonpayable",
					"type": "function"
				},
				{
					"inputs": [
						{
							"internalType": "uint256",
							"name": "_taskId",
							"type": "uint256"
						}
					],
					"name": "completeTask",
					"outputs": [],
					"stateMutability": "nonpayable",
					"type": "function"
				},
				{
					"inputs": [
						{
							"internalType": "string",
							"name": "_taskTitle",
							"type": "string"
						},
						{
							"internalType": "string",
							"name": "_ipfsHash",
							"type": "string"
						},
						{
							"internalType": "uint256",
							"name": "_reward",
							"type": "uint256"
						},
						{
							"internalType": "uint256",
							"name": "_deadline",
							"type": "uint256"
						}
					],
					"name": "createTask",
					"outputs": [],
					"stateMutability": "payable",
					"type": "function"
				},
				{
					"inputs": [],
					"name": "disputeDAO",
					"outputs": [
						{
							"internalType": "address",
							"name": "",
							"type": "address"
						}
					],
					"stateMutability": "view",
					"type": "function"
				},
				{
					"inputs": [
						{
							"internalType": "uint256",
							"name": "_taskId",
							"type": "uint256"
						}
					],
					"name": "disputeTask",
					"outputs": [],
					"stateMutability": "nonpayable",
					"type": "function"
				},
				{
					"inputs": [],
					"name": "escrow",
					"outputs": [
						{
							"internalType": "address",
							"name": "",
							"type": "address"
						}
					],
					"stateMutability": "view",
					"type": "function"
				},
				{
					"inputs": [
						{
							"internalType": "uint256",
							"name": "_taskId",
							"type": "uint256"
						}
					],
					"name": "participateInTask",
					"outputs": [],
					"stateMutability": "nonpayable",
					"type": "function"
				},
				{
					"inputs": [
						{
							"internalType": "uint256",
							"name": "_taskId",
							"type": "uint256"
						}
					],
					"name": "removeExpiredTask",
					"outputs": [],
					"stateMutability": "nonpayable",
					"type": "function"
				},
				{
					"inputs": [
						{
							"internalType": "uint256",
							"name": "_taskId",
							"type": "uint256"
						},
						{
							"internalType": "address",
							"name": "_winner",
							"type": "address"
						}
					],
					"name": "resolveDispute",
					"outputs": [],
					"stateMutability": "nonpayable",
					"type": "function"
				},
				{
					"inputs": [
						{
							"internalType": "uint256",
							"name": "_taskId",
							"type": "uint256"
						},
						{
							"internalType": "address",
							"name": "_winner",
							"type": "address"
						}
					],
					"name": "selectWinner",
					"outputs": [],
					"stateMutability": "nonpayable",
					"type": "function"
				},
				{
					"inputs": [
						{
							"internalType": "uint256",
							"name": "_taskId",
							"type": "uint256"
						}
					],
					"name": "startBidding",
					"outputs": [],
					"stateMutability": "nonpayable",
					"type": "function"
				},
				{
					"inputs": [],
					"name": "taskCount",
					"outputs": [
						{
							"internalType": "uint256",
							"name": "",
							"type": "uint256"
						}
					],
					"stateMutability": "view",
					"type": "function"
				},
				{
					"inputs": [
						{
							"internalType": "uint256",
							"name": "",
							"type": "uint256"
						}
					],
					"name": "tasks",
					"outputs": [
						{
							"internalType": "uint256",
							"name": "id",
							"type": "uint256"
						},
						{
							"internalType": "string",
							"name": "title",
							"type": "string"
						},
						{
							"internalType": "string",
							"name": "ipfsHash",
							"type": "string"
						},
						{
							"internalType": "address",
							"name": "creator",
							"type": "address"
						},
						{
							"internalType": "uint256",
							"name": "reward",
							"type": "uint256"
						},
						{
							"internalType": "enum TaskFactory.TaskStatus",
							"name": "status",
							"type": "uint8"
						},
						{
							"internalType": "address",
							"name": "winner",
							"type": "address"
						},
						{
							"internalType": "uint256",
							"name": "deadline",
							"type": "uint256"
						}
					],
					"stateMutability": "view",
					"type": "function"
				}
			],
			"devdoc": {
				"kind": "dev",
				"methods": {},
				"version": 1
			},
			"evm": {
				"assembly": "    /* \"TaskFactory.sol\":60:7706  contract TaskFactory {... */\n  mstore(0x40, 0x80)\n    /* \"TaskFactory.sol\":1422:1691  constructor(address _biddingSystemAddr, address _escrowAddr, address _disputeDAOAddr) payable{... */\n  mload(0x40)\n  sub(codesize, bytecodeSize)\n  dup1\n  bytecodeSize\n  dup4\n  codecopy\n  dup2\n  dup2\n  add\n  0x40\n  mstore\n  dup2\n  add\n  swap1\n  tag_1\n  swap2\n  swap1\n  tag_2\n  jump\t// in\ntag_1:\n    /* \"TaskFactory.sol\":1542:1560  _biddingSystemAddr */\n  dup3\n    /* \"TaskFactory.sol\":1526:1539  biddingSystem */\n  0x03\n  0x00\n    /* \"TaskFactory.sol\":1526:1560  biddingSystem = _biddingSystemAddr */\n  0x0100\n  exp\n  dup2\n  sload\n  dup2\n  0xffffffffffffffffffffffffffffffffffffffff\n  mul\n  not\n  and\n  swap1\n  dup4\n  0xffffffffffffffffffffffffffffffffffffffff\n  and\n  mul\n  or\n  swap1\n  sstore\n  pop\n    /* \"TaskFactory.sol\":1580:1591  _escrowAddr */\n  dup2\n    /* \"TaskFactory.sol\":1571:1577  escrow */\n  0x04\n  0x00\n    /* \"TaskFactory.sol\":1571:1591  escrow = _escrowAddr */\n  0x0100\n  exp\n  dup2\n  sload\n  dup2\n  0xffffffffffffffffffffffffffffffffffffffff\n  mul\n  not\n  and\n  swap1\n  dup4\n  0xffffffffffffffffffffffffffffffffffffffff\n  and\n  mul\n  or\n  swap1\n  sstore\n  pop\n    /* \"TaskFactory.sol\":1615:1630  _disputeDAOAddr */\n  dup1\n    /* \"TaskFactory.sol\":1602:1612  disputeDAO */\n  0x05\n  0x00\n    /* \"TaskFactory.sol\":1602:1630  disputeDAO = _disputeDAOAddr */\n  0x0100\n  exp\n  dup2\n  sload\n  dup2\n  0xffffffffffffffffffffffffffffffffffffffff\n  mul\n  not\n  and\n  swap1\n  dup4\n  0xffffffffffffffffffffffffffffffffffffffff\n  and\n  mul\n  or\n  swap1\n  sstore\n  pop\n    /* \"TaskFactory.sol\":1653:1654  0 */\n  0x00\n    /* \"TaskFactory.sol\":1641:1650  taskCount */\n  0x01\n    /* \"TaskFactory.sol\":1641:1654  taskCount = 0 */\n  dup2\n  swap1\n  sstore\n  pop\n    /* \"TaskFactory.sol\":1674:1683  msg.value */\n  callvalue\n    /* \"TaskFactory.sol\":1665:1671  _value */\n  0x02\n    /* \"TaskFactory.sol\":1665:1683  _value = msg.value */\n  dup2\n  swap1\n  sstore\n  pop\n    /* \"TaskFactory.sol\":1422:1691  constructor(address _biddingSystemAddr, address _escrowAddr, address _disputeDAOAddr) payable{... */\n  pop\n  pop\n  pop\n    /* \"TaskFactory.sol\":60:7706  contract TaskFactory {... */\n  jump(tag_5)\n    /* \"#utility.yul\":88:205   */\ntag_7:\n    /* \"#utility.yul\":197:198   */\n  0x00\n    /* \"#utility.yul\":194:195   */\n  0x00\n    /* \"#utility.yul\":187:199   */\n  revert\n    /* \"#utility.yul\":334:460   */\ntag_9:\n    /* \"#utility.yul\":371:378   */\n  0x00\n    /* \"#utility.yul\":411:453   */\n  0xffffffffffffffffffffffffffffffffffffffff\n    /* \"#utility.yul\":404:409   */\n  dup3\n    /* \"#utility.yul\":400:454   */\n  and\n    /* \"#utility.yul\":389:454   */\n  swap1\n  pop\n    /* \"#utility.yul\":334:460   */\n  swap2\n  swap1\n  pop\n  jump\t// out\n    /* \"#utility.yul\":466:562   */\ntag_10:\n    /* \"#utility.yul\":503:510   */\n  0x00\n    /* \"#utility.yul\":532:556   */\n  tag_19\n    /* \"#utility.yul\":550:555   */\n  dup3\n    /* \"#utility.yul\":532:556   */\n  tag_9\n  jump\t// in\ntag_19:\n    /* \"#utility.yul\":521:556   */\n  swap1\n  pop\n    /* \"#utility.yul\":466:562   */\n  swap2\n  swap1\n  pop\n  jump\t// out\n    /* \"#utility.yul\":568:690   */\ntag_11:\n    /* \"#utility.yul\":641:665   */\n  tag_21\n    /* \"#utility.yul\":659:664   */\n  dup2\n    /* \"#utility.yul\":641:665   */\n  tag_10\n  jump\t// in\ntag_21:\n    /* \"#utility.yul\":634:639   */\n  dup2\n    /* \"#utility.yul\":631:666   */\n  eq\n    /* \"#utility.yul\":621:684   */\n  tag_22\n  jumpi\n    /* \"#utility.yul\":680:681   */\n  0x00\n    /* \"#utility.yul\":677:678   */\n  0x00\n    /* \"#utility.yul\":670:682   */\n  revert\n    /* \"#utility.yul\":621:684   */\ntag_22:\n    /* \"#utility.yul\":568:690   */\n  pop\n  jump\t// out\n    /* \"#utility.yul\":696:839   */\ntag_12:\n    /* \"#utility.yul\":753:758   */\n  0x00\n    /* \"#utility.yul\":784:790   */\n  dup2\n    /* \"#utility.yul\":778:791   */\n  mload\n    /* \"#utility.yul\":769:791   */\n  swap1\n  pop\n    /* \"#utility.yul\":800:833   */\n  tag_24\n    /* \"#utility.yul\":827:832   */\n  dup2\n    /* \"#utility.yul\":800:833   */\n  tag_11\n  jump\t// in\ntag_24:\n    /* \"#utility.yul\":696:839   */\n  swap3\n  swap2\n  pop\n  pop\n  jump\t// out\n    /* \"#utility.yul\":845:1508   */\ntag_2:\n    /* \"#utility.yul\":933:939   */\n  0x00\n    /* \"#utility.yul\":941:947   */\n  0x00\n    /* \"#utility.yul\":949:955   */\n  0x00\n    /* \"#utility.yul\":998:1000   */\n  0x60\n    /* \"#utility.yul\":986:995   */\n  dup5\n    /* \"#utility.yul\":977:984   */\n  dup7\n    /* \"#utility.yul\":973:996   */\n  sub\n    /* \"#utility.yul\":969:1001   */\n  slt\n    /* \"#utility.yul\":966:1085   */\n  iszero\n  tag_26\n  jumpi\n    /* \"#utility.yul\":1004:1083   */\n  tag_27\n  tag_7\n  jump\t// in\ntag_27:\n    /* \"#utility.yul\":966:1085   */\ntag_26:\n    /* \"#utility.yul\":1124:1125   */\n  0x00\n    /* \"#utility.yul\":1149:1213   */\n  tag_28\n    /* \"#utility.yul\":1205:1212   */\n  dup7\n    /* \"#utility.yul\":1196:1202   */\n  dup3\n    /* \"#utility.yul\":1185:1194   */\n  dup8\n    /* \"#utility.yul\":1181:1203   */\n  add\n    /* \"#utility.yul\":1149:1213   */\n  tag_12\n  jump\t// in\ntag_28:\n    /* \"#utility.yul\":1139:1213   */\n  swap4\n  pop\n    /* \"#utility.yul\":1095:1223   */\n  pop\n    /* \"#utility.yul\":1262:1264   */\n  0x20\n    /* \"#utility.yul\":1288:1352   */\n  tag_29\n    /* \"#utility.yul\":1344:1351   */\n  dup7\n    /* \"#utility.yul\":1335:1341   */\n  dup3\n    /* \"#utility.yul\":1324:1333   */\n  dup8\n    /* \"#utility.yul\":1320:1342   */\n  add\n    /* \"#utility.yul\":1288:1352   */\n  tag_12\n  jump\t// in\ntag_29:\n    /* \"#utility.yul\":1278:1352   */\n  swap3\n  pop\n    /* \"#utility.yul\":1233:1362   */\n  pop\n    /* \"#utility.yul\":1401:1403   */\n  0x40\n    /* \"#utility.yul\":1427:1491   */\n  tag_30\n    /* \"#utility.yul\":1483:1490   */\n  dup7\n    /* \"#utility.yul\":1474:1480   */\n  dup3\n    /* \"#utility.yul\":1463:1472   */\n  dup8\n    /* \"#utility.yul\":1459:1481   */\n  add\n    /* \"#utility.yul\":1427:1491   */\n  tag_12\n  jump\t// in\ntag_30:\n    /* \"#utility.yul\":1417:1491   */\n  swap2\n  pop\n    /* \"#utility.yul\":1372:1501   */\n  pop\n    /* \"#utility.yul\":845:1508   */\n  swap3\n  pop\n  swap3\n  pop\n  swap3\n  jump\t// out\n    /* \"TaskFactory.sol\":60:7706  contract TaskFactory {... */\ntag_5:\n  dataSize(sub_0)\n  dup1\n  dataOffset(sub_0)\n  0x00\n  codecopy\n  0x00\n  return\nstop\n\nsub_0: assembly {\n        /* \"TaskFactory.sol\":60:7706  contract TaskFactory {... */\n      mstore(0x40, 0x80)\n      jumpi(tag_1, lt(calldatasize, 0x04))\n      shr(0xe0, calldataload(0x00))\n      dup1\n      0xa4a268aa\n      gt\n      tag_17\n      jumpi\n      dup1\n      0xe1e29558\n      gt\n      tag_18\n      jumpi\n      dup1\n      0xe1e29558\n      eq\n      tag_13\n      jumpi\n      dup1\n      0xe2fdcc17\n      eq\n      tag_14\n      jumpi\n      dup1\n      0xe5033376\n      eq\n      tag_15\n      jumpi\n      dup1\n      0xf1c2d0d9\n      eq\n      tag_16\n      jumpi\n      jump(tag_1)\n    tag_18:\n      dup1\n      0xa4a268aa\n      eq\n      tag_9\n      jumpi\n      dup1\n      0xab4de606\n      eq\n      tag_10\n      jumpi\n      dup1\n      0xb6cb58a5\n      eq\n      tag_11\n      jumpi\n      dup1\n      0xb895c74a\n      eq\n      tag_12\n      jumpi\n      jump(tag_1)\n    tag_17:\n      dup1\n      0x8d977672\n      gt\n      tag_19\n      jumpi\n      dup1\n      0x8d977672\n      eq\n      tag_5\n      jumpi\n      dup1\n      0x90ca80df\n      eq\n      tag_6\n      jumpi\n      dup1\n      0x97d9c23e\n      eq\n      tag_7\n      jumpi\n      dup1\n      0xa09e9c1d\n      eq\n      tag_8\n      jumpi\n      jump(tag_1)\n    tag_19:\n      dup1\n      0x0e33599d\n      eq\n      tag_2\n      jumpi\n      dup1\n      0x29e5fb09\n      eq\n      tag_3\n      jumpi\n      dup1\n      0x7eec20a8\n      eq\n      tag_4\n      jumpi\n    tag_1:\n      revert(0x00, 0x00)\n        /* \"TaskFactory.sol\":6062:6622  function resolveDispute(uint256 _taskId, address _winner) external taskExists(_taskId) {... */\n    tag_2:\n      callvalue\n      dup1\n      iszero\n      tag_20\n      jumpi\n      revert(0x00, 0x00)\n    tag_20:\n      pop\n      tag_21\n      0x04\n      dup1\n      calldatasize\n      sub\n      dup2\n      add\n      swap1\n      tag_22\n      swap2\n      swap1\n      tag_23\n      jump\t// in\n    tag_22:\n      tag_24\n      jump\t// in\n    tag_21:\n      stop\n        /* \"TaskFactory.sol\":3607:4025  function participateInTask(uint256 _taskId) external taskExists(_taskId) {... */\n    tag_3:\n      callvalue\n      dup1\n      iszero\n      tag_25\n      jumpi\n      revert(0x00, 0x00)\n    tag_25:\n      pop\n      tag_26\n      0x04\n      dup1\n      calldatasize\n      sub\n      dup2\n      add\n      swap1\n      tag_27\n      swap2\n      swap1\n      tag_28\n      jump\t// in\n    tag_27:\n      tag_29\n      jump\t// in\n    tag_26:\n      stop\n        /* \"TaskFactory.sol\":6651:7155  function cancelTask(uint256 _taskId) external taskExists(_taskId) onlyTaskCreator(_taskId) {... */\n    tag_4:\n      callvalue\n      dup1\n      iszero\n      tag_30\n      jumpi\n      revert(0x00, 0x00)\n    tag_30:\n      pop\n      tag_31\n      0x04\n      dup1\n      calldatasize\n      sub\n      dup2\n      add\n      swap1\n      tag_32\n      swap2\n      swap1\n      tag_28\n      jump\t// in\n    tag_32:\n      tag_33\n      jump\t// in\n    tag_31:\n      stop\n        /* \"TaskFactory.sol\":627:664  mapping(uint256 => Task) public tasks */\n    tag_5:\n      callvalue\n      dup1\n      iszero\n      tag_34\n      jumpi\n      revert(0x00, 0x00)\n    tag_34:\n      pop\n      tag_35\n      0x04\n      dup1\n      calldatasize\n      sub\n      dup2\n      add\n      swap1\n      tag_36\n      swap2\n      swap1\n      tag_28\n      jump\t// in\n    tag_36:\n      tag_37\n      jump\t// in\n    tag_35:\n      mload(0x40)\n      tag_38\n      swap9\n      swap8\n      swap7\n      swap6\n      swap5\n      swap4\n      swap3\n      swap2\n      swap1\n      tag_39\n      jump\t// in\n    tag_38:\n      mload(0x40)\n      dup1\n      swap2\n      sub\n      swap1\n      return\n        /* \"TaskFactory.sol\":732:760  address public biddingSystem */\n    tag_6:\n      callvalue\n      dup1\n      iszero\n      tag_40\n      jumpi\n      revert(0x00, 0x00)\n    tag_40:\n      pop\n      tag_41\n      tag_42\n      jump\t// in\n    tag_41:\n      mload(0x40)\n      tag_43\n      swap2\n      swap1\n      tag_44\n      jump\t// in\n    tag_43:\n      mload(0x40)\n      dup1\n      swap2\n      sub\n      swap1\n      return\n        /* \"TaskFactory.sol\":5399:6020  function disputeTask(uint256 _taskId) external taskExists(_taskId) {... */\n    tag_7:\n      callvalue\n      dup1\n      iszero\n      tag_45\n      jumpi\n      revert(0x00, 0x00)\n    tag_45:\n      pop\n      tag_46\n      0x04\n      dup1\n      calldatasize\n      sub\n      dup2\n      add\n      swap1\n      tag_47\n      swap2\n      swap1\n      tag_28\n      jump\t// in\n    tag_47:\n      tag_48\n      jump\t// in\n    tag_46:\n      stop\n        /* \"TaskFactory.sol\":3080:3578  function startBidding(uint256 _taskId) external taskExists(_taskId) onlyTaskCreator(_taskId) {... */\n    tag_8:\n      callvalue\n      dup1\n      iszero\n      tag_49\n      jumpi\n      revert(0x00, 0x00)\n    tag_49:\n      pop\n      tag_50\n      0x04\n      dup1\n      calldatasize\n      sub\n      dup2\n      add\n      swap1\n      tag_51\n      swap2\n      swap1\n      tag_28\n      jump\t// in\n    tag_51:\n      tag_52\n      jump\t// in\n    tag_50:\n      stop\n        /* \"TaskFactory.sol\":1766:2973  function createTask(... */\n    tag_9:\n      tag_53\n      0x04\n      dup1\n      calldatasize\n      sub\n      dup2\n      add\n      swap1\n      tag_54\n      swap2\n      swap1\n      tag_55\n      jump\t// in\n    tag_54:\n      tag_56\n      jump\t// in\n    tag_53:\n      stop\n        /* \"TaskFactory.sol\":4057:4734  function selectWinner(uint256 _taskId, address _winner) external taskExists(_taskId) onlyTaskCreator(_taskId) {... */\n    tag_10:\n      callvalue\n      dup1\n      iszero\n      tag_57\n      jumpi\n      revert(0x00, 0x00)\n    tag_57:\n      pop\n      tag_58\n      0x04\n      dup1\n      calldatasize\n      sub\n      dup2\n      add\n      swap1\n      tag_59\n      swap2\n      swap1\n      tag_23\n      jump\t// in\n    tag_59:\n      tag_60\n      jump\t// in\n    tag_58:\n      stop\n        /* \"TaskFactory.sol\":671:695  uint256 public taskCount */\n    tag_11:\n      callvalue\n      dup1\n      iszero\n      tag_61\n      jumpi\n      revert(0x00, 0x00)\n    tag_61:\n      pop\n      tag_62\n      tag_63\n      jump\t// in\n    tag_62:\n      mload(0x40)\n      tag_64\n      swap2\n      swap1\n      tag_65\n      jump\t// in\n    tag_64:\n      mload(0x40)\n      dup1\n      swap2\n      sub\n      swap1\n      return\n        /* \"TaskFactory.sol\":702:723  uint256 public _value */\n    tag_12:\n      callvalue\n      dup1\n      iszero\n      tag_66\n      jumpi\n      revert(0x00, 0x00)\n    tag_66:\n      pop\n      tag_67\n      tag_68\n      jump\t// in\n    tag_67:\n      mload(0x40)\n      tag_69\n      swap2\n      swap1\n      tag_65\n      jump\t// in\n    tag_69:\n      mload(0x40)\n      dup1\n      swap2\n      sub\n      swap1\n      return\n        /* \"TaskFactory.sol\":4763:5370  function completeTask(uint256 _taskId) external taskExists(_taskId) {... */\n    tag_13:\n      callvalue\n      dup1\n      iszero\n      tag_70\n      jumpi\n      revert(0x00, 0x00)\n    tag_70:\n      pop\n      tag_71\n      0x04\n      dup1\n      calldatasize\n      sub\n      dup2\n      add\n      swap1\n      tag_72\n      swap2\n      swap1\n      tag_28\n      jump\t// in\n    tag_72:\n      tag_73\n      jump\t// in\n    tag_71:\n      stop\n        /* \"TaskFactory.sol\":767:788  address public escrow */\n    tag_14:\n      callvalue\n      dup1\n      iszero\n      tag_74\n      jumpi\n      revert(0x00, 0x00)\n    tag_74:\n      pop\n      tag_75\n      tag_76\n      jump\t// in\n    tag_75:\n      mload(0x40)\n      tag_77\n      swap2\n      swap1\n      tag_44\n      jump\t// in\n    tag_77:\n      mload(0x40)\n      dup1\n      swap2\n      sub\n      swap1\n      return\n        /* \"TaskFactory.sol\":7190:7703  function removeExpiredTask(uint256 _taskId) external taskExists(_taskId) {... */\n    tag_15:\n      callvalue\n      dup1\n      iszero\n      tag_78\n      jumpi\n      revert(0x00, 0x00)\n    tag_78:\n      pop\n      tag_79\n      0x04\n      dup1\n      calldatasize\n      sub\n      dup2\n      add\n      swap1\n      tag_80\n      swap2\n      swap1\n      tag_28\n      jump\t// in\n    tag_80:\n      tag_81\n      jump\t// in\n    tag_79:\n      stop\n        /* \"TaskFactory.sol\":795:820  address public disputeDAO */\n    tag_16:\n      callvalue\n      dup1\n      iszero\n      tag_82\n      jumpi\n      revert(0x00, 0x00)\n    tag_82:\n      pop\n      tag_83\n      tag_84\n      jump\t// in\n    tag_83:\n      mload(0x40)\n      tag_85\n      swap2\n      swap1\n      tag_44\n      jump\t// in\n    tag_85:\n      mload(0x40)\n      dup1\n      swap2\n      sub\n      swap1\n      return\n        /* \"TaskFactory.sol\":6062:6622  function resolveDispute(uint256 _taskId, address _winner) external taskExists(_taskId) {... */\n    tag_24:\n        /* \"TaskFactory.sol\":6140:6147  _taskId */\n      dup2\n        /* \"TaskFactory.sol\":1363:1370  _taskId */\n      dup1\n        /* \"TaskFactory.sol\":1342:1347  tasks */\n      0x00\n        /* \"TaskFactory.sol\":1342:1356  tasks[_taskId] */\n      0x00\n        /* \"TaskFactory.sol\":1348:1355  _taskId */\n      dup4\n        /* \"TaskFactory.sol\":1342:1356  tasks[_taskId] */\n      dup2\n      mstore\n      0x20\n      add\n      swap1\n      dup2\n      mstore\n      0x20\n      add\n      0x00\n      keccak256\n        /* \"TaskFactory.sol\":1342:1359  tasks[_taskId].id */\n      0x00\n      add\n      sload\n        /* \"TaskFactory.sol\":1342:1370  tasks[_taskId].id == _taskId */\n      eq\n        /* \"TaskFactory.sol\":1334:1394  require(tasks[_taskId].id == _taskId, \"Task does not exist\") */\n      tag_87\n      jumpi\n      mload(0x40)\n      0x08c379a000000000000000000000000000000000000000000000000000000000\n      dup2\n      mstore\n      0x04\n      add\n      tag_88\n      swap1\n      tag_89\n      jump\t// in\n    tag_88:\n      mload(0x40)\n      dup1\n      swap2\n      sub\n      swap1\n      revert\n    tag_87:\n        /* \"TaskFactory.sol\":6182:6192  disputeDAO */\n      0x05\n      0x00\n      swap1\n      sload\n      swap1\n      0x0100\n      exp\n      swap1\n      div\n      0xffffffffffffffffffffffffffffffffffffffff\n      and\n        /* \"TaskFactory.sol\":6168:6192  msg.sender == disputeDAO */\n      0xffffffffffffffffffffffffffffffffffffffff\n      and\n        /* \"TaskFactory.sol\":6168:6178  msg.sender */\n      caller\n        /* \"TaskFactory.sol\":6168:6192  msg.sender == disputeDAO */\n      0xffffffffffffffffffffffffffffffffffffffff\n      and\n      eq\n        /* \"TaskFactory.sol\":6160:6233  require(msg.sender == disputeDAO, \"Only DisputeDAO can resolve disputes\") */\n      tag_91\n      jumpi\n      mload(0x40)\n      0x08c379a000000000000000000000000000000000000000000000000000000000\n      dup2\n      mstore\n      0x04\n      add\n      tag_92\n      swap1\n      tag_93\n      jump\t// in\n    tag_92:\n      mload(0x40)\n      dup1\n      swap2\n      sub\n      swap1\n      revert\n    tag_91:\n        /* \"TaskFactory.sol\":6244:6261  Task storage task */\n      0x00\n        /* \"TaskFactory.sol\":6264:6269  tasks */\n      0x00\n        /* \"TaskFactory.sol\":6264:6278  tasks[_taskId] */\n      0x00\n        /* \"TaskFactory.sol\":6270:6277  _taskId */\n      dup6\n        /* \"TaskFactory.sol\":6264:6278  tasks[_taskId] */\n      dup2\n      mstore\n      0x20\n      add\n      swap1\n      dup2\n      mstore\n      0x20\n      add\n      0x00\n      keccak256\n        /* \"TaskFactory.sol\":6244:6278  Task storage task = tasks[_taskId] */\n      swap1\n      pop\n        /* \"TaskFactory.sol\":6303:6310  _winner */\n      dup3\n        /* \"TaskFactory.sol\":6289:6293  task */\n      dup2\n        /* \"TaskFactory.sol\":6289:6300  task.winner */\n      0x05\n      add\n      0x01\n        /* \"TaskFactory.sol\":6289:6310  task.winner = _winner */\n      0x0100\n      exp\n      dup2\n      sload\n      dup2\n      0xffffffffffffffffffffffffffffffffffffffff\n      mul\n      not\n      and\n      swap1\n      dup4\n      0xffffffffffffffffffffffffffffffffffffffff\n      and\n      mul\n      or\n      swap1\n      sstore\n      pop\n        /* \"TaskFactory.sol\":6335:6355  TaskStatus.Completed */\n      0x03\n        /* \"TaskFactory.sol\":6321:6325  task */\n      dup2\n        /* \"TaskFactory.sol\":6321:6332  task.status */\n      0x05\n      add\n      0x00\n        /* \"TaskFactory.sol\":6321:6355  task.status = TaskStatus.Completed */\n      0x0100\n      exp\n      dup2\n      sload\n      dup2\n      0xff\n      mul\n      not\n      and\n      swap1\n      dup4\n      0x04\n      dup2\n      gt\n      iszero\n      tag_94\n      jumpi\n      tag_95\n      tag_96\n      jump\t// in\n    tag_95:\n    tag_94:\n      mul\n      or\n      swap1\n      sstore\n      pop\n        /* \"TaskFactory.sol\":6367:6379  bool success */\n      0x00\n        /* \"TaskFactory.sol\":6384:6390  escrow */\n      0x04\n      0x00\n      swap1\n      sload\n      swap1\n      0x0100\n      exp\n      swap1\n      div\n      0xffffffffffffffffffffffffffffffffffffffff\n      and\n        /* \"TaskFactory.sol\":6384:6395  escrow.call */\n      0xffffffffffffffffffffffffffffffffffffffff\n      and\n        /* \"TaskFactory.sol\":6467:6474  _taskId */\n      dup6\n        /* \"TaskFactory.sol\":6476:6483  _winner */\n      dup6\n        /* \"TaskFactory.sol\":6410:6484  abi.encodeWithSignature(\"releaseFunds(uint256,address)\", _taskId, _winner) */\n      add(0x24, mload(0x40))\n      tag_97\n      swap3\n      swap2\n      swap1\n      tag_98\n      jump\t// in\n    tag_97:\n      mload(0x40)\n      0x20\n      dup2\n      dup4\n      sub\n      sub\n      dup2\n      mstore\n      swap1\n      0x40\n      mstore\n      and(not(0xffffffffffffffffffffffffffffffffffffffffffffffffffffffff), 0x1af23a5900000000000000000000000000000000000000000000000000000000)\n      0x20\n      dup3\n      add\n      dup1\n      mload\n      0xffffffffffffffffffffffffffffffffffffffffffffffffffffffff\n      dup4\n      dup2\n      dup4\n      and\n      or\n      dup4\n      mstore\n      pop\n      pop\n      pop\n      pop\n        /* \"TaskFactory.sol\":6384:6495  escrow.call(... */\n      mload(0x40)\n      tag_99\n      swap2\n      swap1\n      tag_100\n      jump\t// in\n    tag_99:\n      0x00\n      mload(0x40)\n      dup1\n      dup4\n      sub\n      dup2\n      0x00\n      dup7\n      gas\n      call\n      swap2\n      pop\n      pop\n      returndatasize\n      dup1\n      0x00\n      dup2\n      eq\n      tag_103\n      jumpi\n      mload(0x40)\n      swap2\n      pop\n      and(add(returndatasize, 0x3f), not(0x1f))\n      dup3\n      add\n      0x40\n      mstore\n      returndatasize\n      dup3\n      mstore\n      returndatasize\n      0x00\n      0x20\n      dup5\n      add\n      returndatacopy\n      jump(tag_102)\n    tag_103:\n      0x60\n      swap2\n      pop\n    tag_102:\n      pop\n        /* \"TaskFactory.sol\":6366:6495  (bool success,) = escrow.call(... */\n      pop\n      swap1\n      pop\n        /* \"TaskFactory.sol\":6514:6521  success */\n      dup1\n        /* \"TaskFactory.sol\":6506:6547  require(success, \"Escrow release failed\") */\n      tag_104\n      jumpi\n      mload(0x40)\n      0x08c379a000000000000000000000000000000000000000000000000000000000\n      dup2\n      mstore\n      0x04\n      add\n      tag_105\n      swap1\n      tag_106\n      jump\t// in\n    tag_105:\n      mload(0x40)\n      dup1\n      swap2\n      sub\n      swap1\n      revert\n    tag_104:\n        /* \"TaskFactory.sol\":6575:6582  _taskId */\n      dup5\n        /* \"TaskFactory.sol\":6563:6614  TaskUpdated(_taskId, TaskStatus.Completed, _winner) */\n      0x4c15bbf33194d9c3d8bcb678f11efd3112f20ba2837209f1d04e622b9c50b68e\n        /* \"TaskFactory.sol\":6584:6604  TaskStatus.Completed */\n      0x03\n        /* \"TaskFactory.sol\":6606:6613  _winner */\n      dup7\n        /* \"TaskFactory.sol\":6563:6614  TaskUpdated(_taskId, TaskStatus.Completed, _winner) */\n      mload(0x40)\n      tag_107\n      swap3\n      swap2\n      swap1\n      tag_108\n      jump\t// in\n    tag_107:\n      mload(0x40)\n      dup1\n      swap2\n      sub\n      swap1\n      log2\n        /* \"TaskFactory.sol\":6149:6622  {... */\n      pop\n      pop\n        /* \"TaskFactory.sol\":6062:6622  function resolveDispute(uint256 _taskId, address _winner) external taskExists(_taskId) {... */\n      pop\n      pop\n      pop\n      jump\t// out\n        /* \"TaskFactory.sol\":3607:4025  function participateInTask(uint256 _taskId) external taskExists(_taskId) {... */\n    tag_29:\n        /* \"TaskFactory.sol\":3671:3678  _taskId */\n      dup1\n        /* \"TaskFactory.sol\":1363:1370  _taskId */\n      dup1\n        /* \"TaskFactory.sol\":1342:1347  tasks */\n      0x00\n        /* \"TaskFactory.sol\":1342:1356  tasks[_taskId] */\n      0x00\n        /* \"TaskFactory.sol\":1348:1355  _taskId */\n      dup4\n        /* \"TaskFactory.sol\":1342:1356  tasks[_taskId] */\n      dup2\n      mstore\n      0x20\n      add\n      swap1\n      dup2\n      mstore\n      0x20\n      add\n      0x00\n      keccak256\n        /* \"TaskFactory.sol\":1342:1359  tasks[_taskId].id */\n      0x00\n      add\n      sload\n        /* \"TaskFactory.sol\":1342:1370  tasks[_taskId].id == _taskId */\n      eq\n        /* \"TaskFactory.sol\":1334:1394  require(tasks[_taskId].id == _taskId, \"Task does not exist\") */\n      tag_110\n      jumpi\n      mload(0x40)\n      0x08c379a000000000000000000000000000000000000000000000000000000000\n      dup2\n      mstore\n      0x04\n      add\n      tag_111\n      swap1\n      tag_89\n      jump\t// in\n    tag_111:\n      mload(0x40)\n      dup1\n      swap2\n      sub\n      swap1\n      revert\n    tag_110:\n        /* \"TaskFactory.sol\":3691:3708  Task storage task */\n      0x00\n        /* \"TaskFactory.sol\":3711:3716  tasks */\n      0x00\n        /* \"TaskFactory.sol\":3711:3725  tasks[_taskId] */\n      0x00\n        /* \"TaskFactory.sol\":3717:3724  _taskId */\n      dup5\n        /* \"TaskFactory.sol\":3711:3725  tasks[_taskId] */\n      dup2\n      mstore\n      0x20\n      add\n      swap1\n      dup2\n      mstore\n      0x20\n      add\n      0x00\n      keccak256\n        /* \"TaskFactory.sol\":3691:3725  Task storage task = tasks[_taskId] */\n      swap1\n      pop\n        /* \"TaskFactory.sol\":3759:3777  TaskStatus.Bidding */\n      0x01\n        /* \"TaskFactory.sol\":3744:3777  task.status == TaskStatus.Bidding */\n      0x04\n      dup2\n      gt\n      iszero\n      tag_113\n      jumpi\n      tag_114\n      tag_96\n      jump\t// in\n    tag_114:\n    tag_113:\n        /* \"TaskFactory.sol\":3744:3748  task */\n      dup2\n        /* \"TaskFactory.sol\":3744:3755  task.status */\n      0x05\n      add\n      0x00\n      swap1\n      sload\n      swap1\n      0x0100\n      exp\n      swap1\n      div\n      0xff\n      and\n        /* \"TaskFactory.sol\":3744:3777  task.status == TaskStatus.Bidding */\n      0x04\n      dup2\n      gt\n      iszero\n      tag_115\n      jumpi\n      tag_116\n      tag_96\n      jump\t// in\n    tag_116:\n    tag_115:\n      eq\n        /* \"TaskFactory.sol\":3736:3816  require(task.status == TaskStatus.Bidding, \"Task is not open for participation\") */\n      tag_117\n      jumpi\n      mload(0x40)\n      0x08c379a000000000000000000000000000000000000000000000000000000000\n      dup2\n      mstore\n      0x04\n      add\n      tag_118\n      swap1\n      tag_119\n      jump\t// in\n    tag_118:\n      mload(0x40)\n      dup1\n      swap2\n      sub\n      swap1\n      revert\n    tag_117:\n        /* \"TaskFactory.sol\":3832:3838  uint i */\n      0x00\n        /* \"TaskFactory.sol\":3841:3842  0 */\n      0x00\n        /* \"TaskFactory.sol\":3832:3842  uint i = 0 */\n      swap1\n      pop\n        /* \"TaskFactory.sol\":3827:3973  for (uint i = 0; i < task.participants.length; i++) {... */\n    tag_120:\n        /* \"TaskFactory.sol\":3848:3852  task */\n      dup2\n        /* \"TaskFactory.sol\":3848:3865  task.participants */\n      0x07\n      add\n        /* \"TaskFactory.sol\":3848:3872  task.participants.length */\n      dup1\n      sload\n      swap1\n      pop\n        /* \"TaskFactory.sol\":3844:3845  i */\n      dup2\n        /* \"TaskFactory.sol\":3844:3872  i < task.participants.length */\n      lt\n        /* \"TaskFactory.sol\":3827:3973  for (uint i = 0; i < task.participants.length; i++) {... */\n      iszero\n      tag_121\n      jumpi\n        /* \"TaskFactory.sol\":3926:3936  msg.sender */\n      caller\n        /* \"TaskFactory.sol\":3902:3936  task.participants[i] != msg.sender */\n      0xffffffffffffffffffffffffffffffffffffffff\n      and\n        /* \"TaskFactory.sol\":3902:3906  task */\n      dup3\n        /* \"TaskFactory.sol\":3902:3919  task.participants */\n      0x07\n      add\n        /* \"TaskFactory.sol\":3920:3921  i */\n      dup3\n        /* \"TaskFactory.sol\":3902:3922  task.participants[i] */\n      dup2\n      sload\n      dup2\n      lt\n      tag_123\n      jumpi\n      tag_124\n      tag_125\n      jump\t// in\n    tag_124:\n    tag_123:\n      swap1\n      0x00\n      mstore\n      keccak256(0x00, 0x20)\n      add\n      0x00\n      swap1\n      sload\n      swap1\n      0x0100\n      exp\n      swap1\n      div\n      0xffffffffffffffffffffffffffffffffffffffff\n      and\n        /* \"TaskFactory.sol\":3902:3936  task.participants[i] != msg.sender */\n      0xffffffffffffffffffffffffffffffffffffffff\n      and\n      sub\n        /* \"TaskFactory.sol\":3894:3961  require(task.participants[i] != msg.sender, \"Already participated\") */\n      tag_127\n      jumpi\n      mload(0x40)\n      0x08c379a000000000000000000000000000000000000000000000000000000000\n      dup2\n      mstore\n      0x04\n      add\n      tag_128\n      swap1\n      tag_129\n      jump\t// in\n    tag_128:\n      mload(0x40)\n      dup1\n      swap2\n      sub\n      swap1\n      revert\n    tag_127:\n        /* \"TaskFactory.sol\":3874:3877  i++ */\n      dup1\n      dup1\n      0x01\n      add\n      swap2\n      pop\n      pop\n        /* \"TaskFactory.sol\":3827:3973  for (uint i = 0; i < task.participants.length; i++) {... */\n      jump(tag_120)\n    tag_121:\n      pop\n        /* \"TaskFactory.sol\":3983:3987  task */\n      dup1\n        /* \"TaskFactory.sol\":3983:4000  task.participants */\n      0x07\n      add\n        /* \"TaskFactory.sol\":4006:4016  msg.sender */\n      caller\n        /* \"TaskFactory.sol\":3983:4017  task.participants.push(msg.sender) */\n      swap1\n      dup1\n      0x01\n      dup2\n      sload\n      add\n      dup1\n      dup3\n      sstore\n      dup1\n      swap2\n      pop\n      pop\n      0x01\n      swap1\n      sub\n      swap1\n      0x00\n      mstore\n      keccak256(0x00, 0x20)\n      add\n      0x00\n      swap1\n      swap2\n      swap1\n      swap2\n      swap1\n      swap2\n      0x0100\n      exp\n      dup2\n      sload\n      dup2\n      0xffffffffffffffffffffffffffffffffffffffff\n      mul\n      not\n      and\n      swap1\n      dup4\n      0xffffffffffffffffffffffffffffffffffffffff\n      and\n      mul\n      or\n      swap1\n      sstore\n      pop\n        /* \"TaskFactory.sol\":3680:4025  {... */\n      pop\n        /* \"TaskFactory.sol\":3607:4025  function participateInTask(uint256 _taskId) external taskExists(_taskId) {... */\n      pop\n      pop\n      jump\t// out\n        /* \"TaskFactory.sol\":6651:7155  function cancelTask(uint256 _taskId) external taskExists(_taskId) onlyTaskCreator(_taskId) {... */\n    tag_33:\n        /* \"TaskFactory.sol\":6708:6715  _taskId */\n      dup1\n        /* \"TaskFactory.sol\":1363:1370  _taskId */\n      dup1\n        /* \"TaskFactory.sol\":1342:1347  tasks */\n      0x00\n        /* \"TaskFactory.sol\":1342:1356  tasks[_taskId] */\n      0x00\n        /* \"TaskFactory.sol\":1348:1355  _taskId */\n      dup4\n        /* \"TaskFactory.sol\":1342:1356  tasks[_taskId] */\n      dup2\n      mstore\n      0x20\n      add\n      swap1\n      dup2\n      mstore\n      0x20\n      add\n      0x00\n      keccak256\n        /* \"TaskFactory.sol\":1342:1359  tasks[_taskId].id */\n      0x00\n      add\n      sload\n        /* \"TaskFactory.sol\":1342:1370  tasks[_taskId].id == _taskId */\n      eq\n        /* \"TaskFactory.sol\":1334:1394  require(tasks[_taskId].id == _taskId, \"Task does not exist\") */\n      tag_132\n      jumpi\n      mload(0x40)\n      0x08c379a000000000000000000000000000000000000000000000000000000000\n      dup2\n      mstore\n      0x04\n      add\n      tag_133\n      swap1\n      tag_89\n      jump\t// in\n    tag_133:\n      mload(0x40)\n      dup1\n      swap2\n      sub\n      swap1\n      revert\n    tag_132:\n        /* \"TaskFactory.sol\":6733:6740  _taskId */\n      dup2\n        /* \"TaskFactory.sol\":1219:1229  msg.sender */\n      caller\n        /* \"TaskFactory.sol\":1193:1229  tasks[_taskId].creator == msg.sender */\n      0xffffffffffffffffffffffffffffffffffffffff\n      and\n        /* \"TaskFactory.sol\":1193:1198  tasks */\n      0x00\n        /* \"TaskFactory.sol\":1193:1207  tasks[_taskId] */\n      0x00\n        /* \"TaskFactory.sol\":1199:1206  _taskId */\n      dup4\n        /* \"TaskFactory.sol\":1193:1207  tasks[_taskId] */\n      dup2\n      mstore\n      0x20\n      add\n      swap1\n      dup2\n      mstore\n      0x20\n      add\n      0x00\n      keccak256\n        /* \"TaskFactory.sol\":1193:1215  tasks[_taskId].creator */\n      0x03\n      add\n      0x00\n      swap1\n      sload\n      swap1\n      0x0100\n      exp\n      swap1\n      div\n      0xffffffffffffffffffffffffffffffffffffffff\n      and\n        /* \"TaskFactory.sol\":1193:1229  tasks[_taskId].creator == msg.sender */\n      0xffffffffffffffffffffffffffffffffffffffff\n      and\n      eq\n        /* \"TaskFactory.sol\":1185:1258  require(tasks[_taskId].creator == msg.sender, \"Only creator can operate\") */\n      tag_135\n      jumpi\n      mload(0x40)\n      0x08c379a000000000000000000000000000000000000000000000000000000000\n      dup2\n      mstore\n      0x04\n      add\n      tag_136\n      swap1\n      tag_137\n      jump\t// in\n    tag_136:\n      mload(0x40)\n      dup1\n      swap2\n      sub\n      swap1\n      revert\n    tag_135:\n        /* \"TaskFactory.sol\":6753:6770  Task storage task */\n      0x00\n        /* \"TaskFactory.sol\":6773:6778  tasks */\n      0x00\n        /* \"TaskFactory.sol\":6773:6787  tasks[_taskId] */\n      0x00\n        /* \"TaskFactory.sol\":6779:6786  _taskId */\n      dup6\n        /* \"TaskFactory.sol\":6773:6787  tasks[_taskId] */\n      dup2\n      mstore\n      0x20\n      add\n      swap1\n      dup2\n      mstore\n      0x20\n      add\n      0x00\n      keccak256\n        /* \"TaskFactory.sol\":6753:6787  Task storage task = tasks[_taskId] */\n      swap1\n      pop\n        /* \"TaskFactory.sol\":6821:6839  TaskStatus.Created */\n      0x00\n        /* \"TaskFactory.sol\":6806:6839  task.status == TaskStatus.Created */\n      0x04\n      dup2\n      gt\n      iszero\n      tag_139\n      jumpi\n      tag_140\n      tag_96\n      jump\t// in\n    tag_140:\n    tag_139:\n        /* \"TaskFactory.sol\":6806:6810  task */\n      dup2\n        /* \"TaskFactory.sol\":6806:6817  task.status */\n      0x05\n      add\n      0x00\n      swap1\n      sload\n      swap1\n      0x0100\n      exp\n      swap1\n      div\n      0xff\n      and\n        /* \"TaskFactory.sol\":6806:6839  task.status == TaskStatus.Created */\n      0x04\n      dup2\n      gt\n      iszero\n      tag_141\n      jumpi\n      tag_142\n      tag_96\n      jump\t// in\n    tag_142:\n    tag_141:\n      eq\n        /* \"TaskFactory.sol\":6806:6876  task.status == TaskStatus.Created || task.status == TaskStatus.Bidding */\n      dup1\n      tag_143\n      jumpi\n      pop\n        /* \"TaskFactory.sol\":6858:6876  TaskStatus.Bidding */\n      0x01\n        /* \"TaskFactory.sol\":6843:6876  task.status == TaskStatus.Bidding */\n      0x04\n      dup2\n      gt\n      iszero\n      tag_144\n      jumpi\n      tag_145\n      tag_96\n      jump\t// in\n    tag_145:\n    tag_144:\n        /* \"TaskFactory.sol\":6843:6847  task */\n      dup2\n        /* \"TaskFactory.sol\":6843:6854  task.status */\n      0x05\n      add\n      0x00\n      swap1\n      sload\n      swap1\n      0x0100\n      exp\n      swap1\n      div\n      0xff\n      and\n        /* \"TaskFactory.sol\":6843:6876  task.status == TaskStatus.Bidding */\n      0x04\n      dup2\n      gt\n      iszero\n      tag_146\n      jumpi\n      tag_147\n      tag_96\n      jump\t// in\n    tag_147:\n    tag_146:\n      eq\n        /* \"TaskFactory.sol\":6806:6876  task.status == TaskStatus.Created || task.status == TaskStatus.Bidding */\n    tag_143:\n        /* \"TaskFactory.sol\":6798:6905  require(task.status == TaskStatus.Created || task.status == TaskStatus.Bidding, \"Task cannot be cancelled\") */\n      tag_148\n      jumpi\n      mload(0x40)\n      0x08c379a000000000000000000000000000000000000000000000000000000000\n      dup2\n      mstore\n      0x04\n      add\n      tag_149\n      swap1\n      tag_150\n      jump\t// in\n    tag_149:\n      mload(0x40)\n      dup1\n      swap2\n      sub\n      swap1\n      revert\n    tag_148:\n        /* \"TaskFactory.sol\":6917:6929  bool success */\n      0x00\n        /* \"TaskFactory.sol\":6935:6941  escrow */\n      0x04\n      0x00\n      swap1\n      sload\n      swap1\n      0x0100\n      exp\n      swap1\n      div\n      0xffffffffffffffffffffffffffffffffffffffff\n      and\n        /* \"TaskFactory.sol\":6935:6946  escrow.call */\n      0xffffffffffffffffffffffffffffffffffffffff\n      and\n        /* \"TaskFactory.sol\":7009:7016  _taskId */\n      dup6\n        /* \"TaskFactory.sol\":6961:7017  abi.encodeWithSignature(\"refundFunds(uint256)\", _taskId) */\n      add(0x24, mload(0x40))\n      tag_151\n      swap2\n      swap1\n      tag_65\n      jump\t// in\n    tag_151:\n      mload(0x40)\n      0x20\n      dup2\n      dup4\n      sub\n      sub\n      dup2\n      mstore\n      swap1\n      0x40\n      mstore\n      and(not(0xffffffffffffffffffffffffffffffffffffffffffffffffffffffff), 0x15f1bbfe00000000000000000000000000000000000000000000000000000000)\n      0x20\n      dup3\n      add\n      dup1\n      mload\n      0xffffffffffffffffffffffffffffffffffffffffffffffffffffffff\n      dup4\n      dup2\n      dup4\n      and\n      or\n      dup4\n      mstore\n      pop\n      pop\n      pop\n      pop\n        /* \"TaskFactory.sol\":6935:7028  escrow.call(... */\n      mload(0x40)\n      tag_152\n      swap2\n      swap1\n      tag_100\n      jump\t// in\n    tag_152:\n      0x00\n      mload(0x40)\n      dup1\n      dup4\n      sub\n      dup2\n      0x00\n      dup7\n      gas\n      call\n      swap2\n      pop\n      pop\n      returndatasize\n      dup1\n      0x00\n      dup2\n      eq\n      tag_155\n      jumpi\n      mload(0x40)\n      swap2\n      pop\n      and(add(returndatasize, 0x3f), not(0x1f))\n      dup3\n      add\n      0x40\n      mstore\n      returndatasize\n      dup3\n      mstore\n      returndatasize\n      0x00\n      0x20\n      dup5\n      add\n      returndatacopy\n      jump(tag_154)\n    tag_155:\n      0x60\n      swap2\n      pop\n    tag_154:\n      pop\n        /* \"TaskFactory.sol\":6916:7028  (bool success, ) = escrow.call(... */\n      pop\n      swap1\n      pop\n        /* \"TaskFactory.sol\":7047:7054  success */\n      dup1\n        /* \"TaskFactory.sol\":7039:7079  require(success, \"Escrow refund failed\") */\n      tag_156\n      jumpi\n      mload(0x40)\n      0x08c379a000000000000000000000000000000000000000000000000000000000\n      dup2\n      mstore\n      0x04\n      add\n      tag_157\n      swap1\n      tag_158\n      jump\t// in\n    tag_157:\n      mload(0x40)\n      dup1\n      swap2\n      sub\n      swap1\n      revert\n    tag_156:\n        /* \"TaskFactory.sol\":7097:7102  tasks */\n      0x00\n        /* \"TaskFactory.sol\":7097:7111  tasks[_taskId] */\n      0x00\n        /* \"TaskFactory.sol\":7103:7110  _taskId */\n      dup7\n        /* \"TaskFactory.sol\":7097:7111  tasks[_taskId] */\n      dup2\n      mstore\n      0x20\n      add\n      swap1\n      dup2\n      mstore\n      0x20\n      add\n      0x00\n      keccak256\n      0x00\n        /* \"TaskFactory.sol\":7090:7111  delete tasks[_taskId] */\n      0x00\n      dup3\n      add\n      0x00\n      swap1\n      sstore\n      0x01\n      dup3\n      add\n      0x00\n      tag_159\n      swap2\n      swap1\n      tag_160\n      jump\t// in\n    tag_159:\n      0x02\n      dup3\n      add\n      0x00\n      tag_161\n      swap2\n      swap1\n      tag_160\n      jump\t// in\n    tag_161:\n      0x03\n      dup3\n      add\n      exp(0x0100, 0x00)\n      dup2\n      sload\n      swap1\n      0xffffffffffffffffffffffffffffffffffffffff\n      mul\n      not\n      and\n      swap1\n      sstore\n      0x04\n      dup3\n      add\n      0x00\n      swap1\n      sstore\n      0x05\n      dup3\n      add\n      exp(0x0100, 0x00)\n      dup2\n      sload\n      swap1\n      0xff\n      mul\n      not\n      and\n      swap1\n      sstore\n      0x05\n      dup3\n      add\n      exp(0x0100, 0x01)\n      dup2\n      sload\n      swap1\n      0xffffffffffffffffffffffffffffffffffffffff\n      mul\n      not\n      and\n      swap1\n      sstore\n      0x06\n      dup3\n      add\n      0x00\n      swap1\n      sstore\n      0x07\n      dup3\n      add\n      0x00\n      tag_162\n      swap2\n      swap1\n      tag_163\n      jump\t// in\n    tag_162:\n      pop\n      pop\n        /* \"TaskFactory.sol\":7139:7146  _taskId */\n      dup5\n        /* \"TaskFactory.sol\":7127:7147  TaskRemoved(_taskId) */\n      0x36a2f40cfe61ace5baf26a6e4f86ffa75c62392fde263d354d42e0e718fa4bd1\n      mload(0x40)\n      mload(0x40)\n      dup1\n      swap2\n      sub\n      swap1\n      log2\n        /* \"TaskFactory.sol\":6742:7155  {... */\n      pop\n      pop\n        /* \"TaskFactory.sol\":1405:1406  _ */\n      pop\n        /* \"TaskFactory.sol\":6651:7155  function cancelTask(uint256 _taskId) external taskExists(_taskId) onlyTaskCreator(_taskId) {... */\n      pop\n      pop\n      jump\t// out\n        /* \"TaskFactory.sol\":627:664  mapping(uint256 => Task) public tasks */\n    tag_37:\n      mstore(0x20, 0x00)\n      dup1\n      0x00\n      mstore\n      keccak256(0x00, 0x40)\n      0x00\n      swap2\n      pop\n      swap1\n      pop\n      dup1\n      0x00\n      add\n      sload\n      swap1\n      dup1\n      0x01\n      add\n      dup1\n      sload\n      tag_164\n      swap1\n      tag_165\n      jump\t// in\n    tag_164:\n      dup1\n      0x1f\n      add\n      0x20\n      dup1\n      swap2\n      div\n      mul\n      0x20\n      add\n      mload(0x40)\n      swap1\n      dup2\n      add\n      0x40\n      mstore\n      dup1\n      swap3\n      swap2\n      swap1\n      dup2\n      dup2\n      mstore\n      0x20\n      add\n      dup3\n      dup1\n      sload\n      tag_166\n      swap1\n      tag_165\n      jump\t// in\n    tag_166:\n      dup1\n      iszero\n      tag_167\n      jumpi\n      dup1\n      0x1f\n      lt\n      tag_168\n      jumpi\n      0x0100\n      dup1\n      dup4\n      sload\n      div\n      mul\n      dup4\n      mstore\n      swap2\n      0x20\n      add\n      swap2\n      jump(tag_167)\n    tag_168:\n      dup3\n      add\n      swap2\n      swap1\n      0x00\n      mstore\n      keccak256(0x00, 0x20)\n      swap1\n    tag_169:\n      dup2\n      sload\n      dup2\n      mstore\n      swap1\n      0x01\n      add\n      swap1\n      0x20\n      add\n      dup1\n      dup4\n      gt\n      tag_169\n      jumpi\n      dup3\n      swap1\n      sub\n      0x1f\n      and\n      dup3\n      add\n      swap2\n    tag_167:\n      pop\n      pop\n      pop\n      pop\n      pop\n      swap1\n      dup1\n      0x02\n      add\n      dup1\n      sload\n      tag_170\n      swap1\n      tag_165\n      jump\t// in\n    tag_170:\n      dup1\n      0x1f\n      add\n      0x20\n      dup1\n      swap2\n      div\n      mul\n      0x20\n      add\n      mload(0x40)\n      swap1\n      dup2\n      add\n      0x40\n      mstore\n      dup1\n      swap3\n      swap2\n      swap1\n      dup2\n      dup2\n      mstore\n      0x20\n      add\n      dup3\n      dup1\n      sload\n      tag_171\n      swap1\n      tag_165\n      jump\t// in\n    tag_171:\n      dup1\n      iszero\n      tag_172\n      jumpi\n      dup1\n      0x1f\n      lt\n      tag_173\n      jumpi\n      0x0100\n      dup1\n      dup4\n      sload\n      div\n      mul\n      dup4\n      mstore\n      swap2\n      0x20\n      add\n      swap2\n      jump(tag_172)\n    tag_173:\n      dup3\n      add\n      swap2\n      swap1\n      0x00\n      mstore\n      keccak256(0x00, 0x20)\n      swap1\n    tag_174:\n      dup2\n      sload\n      dup2\n      mstore\n      swap1\n      0x01\n      add\n      swap1\n      0x20\n      add\n      dup1\n      dup4\n      gt\n      tag_174\n      jumpi\n      dup3\n      swap1\n      sub\n      0x1f\n      and\n      dup3\n      add\n      swap2\n    tag_172:\n      pop\n      pop\n      pop\n      pop\n      pop\n      swap1\n      dup1\n      0x03\n      add\n      0x00\n      swap1\n      sload\n      swap1\n      0x0100\n      exp\n      swap1\n      div\n      0xffffffffffffffffffffffffffffffffffffffff\n      and\n      swap1\n      dup1\n      0x04\n      add\n      sload\n      swap1\n      dup1\n      0x05\n      add\n      0x00\n      swap1\n      sload\n      swap1\n      0x0100\n      exp\n      swap1\n      div\n      0xff\n      and\n      swap1\n      dup1\n      0x05\n      add\n      0x01\n      swap1\n      sload\n      swap1\n      0x0100\n      exp\n      swap1\n      div\n      0xffffffffffffffffffffffffffffffffffffffff\n      and\n      swap1\n      dup1\n      0x06\n      add\n      sload\n      swap1\n      pop\n      dup9\n      jump\t// out\n        /* \"TaskFactory.sol\":732:760  address public biddingSystem */\n    tag_42:\n      0x03\n      0x00\n      swap1\n      sload\n      swap1\n      0x0100\n      exp\n      swap1\n      div\n      0xffffffffffffffffffffffffffffffffffffffff\n      and\n      dup2\n      jump\t// out\n        /* \"TaskFactory.sol\":5399:6020  function disputeTask(uint256 _taskId) external taskExists(_taskId) {... */\n    tag_48:\n        /* \"TaskFactory.sol\":5457:5464  _taskId */\n      dup1\n        /* \"TaskFactory.sol\":1363:1370  _taskId */\n      dup1\n        /* \"TaskFactory.sol\":1342:1347  tasks */\n      0x00\n        /* \"TaskFactory.sol\":1342:1356  tasks[_taskId] */\n      0x00\n        /* \"TaskFactory.sol\":1348:1355  _taskId */\n      dup4\n        /* \"TaskFactory.sol\":1342:1356  tasks[_taskId] */\n      dup2\n      mstore\n      0x20\n      add\n      swap1\n      dup2\n      mstore\n      0x20\n      add\n      0x00\n      keccak256\n        /* \"TaskFactory.sol\":1342:1359  tasks[_taskId].id */\n      0x00\n      add\n      sload\n        /* \"TaskFactory.sol\":1342:1370  tasks[_taskId].id == _taskId */\n      eq\n        /* \"TaskFactory.sol\":1334:1394  require(tasks[_taskId].id == _taskId, \"Task does not exist\") */\n      tag_176\n      jumpi\n      mload(0x40)\n      0x08c379a000000000000000000000000000000000000000000000000000000000\n      dup2\n      mstore\n      0x04\n      add\n      tag_177\n      swap1\n      tag_89\n      jump\t// in\n    tag_177:\n      mload(0x40)\n      dup1\n      swap2\n      sub\n      swap1\n      revert\n    tag_176:\n        /* \"TaskFactory.sol\":5477:5494  Task storage task */\n      0x00\n        /* \"TaskFactory.sol\":5497:5502  tasks */\n      0x00\n        /* \"TaskFactory.sol\":5497:5511  tasks[_taskId] */\n      0x00\n        /* \"TaskFactory.sol\":5503:5510  _taskId */\n      dup5\n        /* \"TaskFactory.sol\":5497:5511  tasks[_taskId] */\n      dup2\n      mstore\n      0x20\n      add\n      swap1\n      dup2\n      mstore\n      0x20\n      add\n      0x00\n      keccak256\n        /* \"TaskFactory.sol\":5477:5511  Task storage task = tasks[_taskId] */\n      swap1\n      pop\n        /* \"TaskFactory.sol\":5544:5548  task */\n      dup1\n        /* \"TaskFactory.sol\":5544:5555  task.winner */\n      0x05\n      add\n      0x01\n      swap1\n      sload\n      swap1\n      0x0100\n      exp\n      swap1\n      div\n      0xffffffffffffffffffffffffffffffffffffffff\n      and\n        /* \"TaskFactory.sol\":5530:5555  msg.sender == task.winner */\n      0xffffffffffffffffffffffffffffffffffffffff\n      and\n        /* \"TaskFactory.sol\":5530:5540  msg.sender */\n      caller\n        /* \"TaskFactory.sol\":5530:5555  msg.sender == task.winner */\n      0xffffffffffffffffffffffffffffffffffffffff\n      and\n      eq\n        /* \"TaskFactory.sol\":5530:5585  msg.sender == task.winner || msg.sender == task.creator */\n      dup1\n      tag_179\n      jumpi\n      pop\n        /* \"TaskFactory.sol\":5573:5577  task */\n      dup1\n        /* \"TaskFactory.sol\":5573:5585  task.creator */\n      0x03\n      add\n      0x00\n      swap1\n      sload\n      swap1\n      0x0100\n      exp\n      swap1\n      div\n      0xffffffffffffffffffffffffffffffffffffffff\n      and\n        /* \"TaskFactory.sol\":5559:5585  msg.sender == task.creator */\n      0xffffffffffffffffffffffffffffffffffffffff\n      and\n        /* \"TaskFactory.sol\":5559:5569  msg.sender */\n      caller\n        /* \"TaskFactory.sol\":5559:5585  msg.sender == task.creator */\n      0xffffffffffffffffffffffffffffffffffffffff\n      and\n      eq\n        /* \"TaskFactory.sol\":5530:5585  msg.sender == task.winner || msg.sender == task.creator */\n    tag_179:\n        /* \"TaskFactory.sol\":5522:5624  require(msg.sender == task.winner || msg.sender == task.creator, \"Only winner or creator can dispute\") */\n      tag_180\n      jumpi\n      mload(0x40)\n      0x08c379a000000000000000000000000000000000000000000000000000000000\n      dup2\n      mstore\n      0x04\n      add\n      tag_181\n      swap1\n      tag_182\n      jump\t// in\n    tag_181:\n      mload(0x40)\n      dup1\n      swap2\n      sub\n      swap1\n      revert\n    tag_180:\n        /* \"TaskFactory.sol\":5658:5679  TaskStatus.InProgress */\n      0x02\n        /* \"TaskFactory.sol\":5643:5679  task.status == TaskStatus.InProgress */\n      0x04\n      dup2\n      gt\n      iszero\n      tag_183\n      jumpi\n      tag_184\n      tag_96\n      jump\t// in\n    tag_184:\n    tag_183:\n        /* \"TaskFactory.sol\":5643:5647  task */\n      dup2\n        /* \"TaskFactory.sol\":5643:5654  task.status */\n      0x05\n      add\n      0x00\n      swap1\n      sload\n      swap1\n      0x0100\n      exp\n      swap1\n      div\n      0xff\n      and\n        /* \"TaskFactory.sol\":5643:5679  task.status == TaskStatus.InProgress */\n      0x04\n      dup2\n      gt\n      iszero\n      tag_185\n      jumpi\n      tag_186\n      tag_96\n      jump\t// in\n    tag_186:\n    tag_185:\n      eq\n        /* \"TaskFactory.sol\":5635:5716  require(task.status == TaskStatus.InProgress, \"Task is not in InProgress status\") */\n      tag_187\n      jumpi\n      mload(0x40)\n      0x08c379a000000000000000000000000000000000000000000000000000000000\n      dup2\n      mstore\n      0x04\n      add\n      tag_188\n      swap1\n      tag_189\n      jump\t// in\n    tag_188:\n      mload(0x40)\n      dup1\n      swap2\n      sub\n      swap1\n      revert\n    tag_187:\n        /* \"TaskFactory.sol\":5741:5760  TaskStatus.Disputed */\n      0x04\n        /* \"TaskFactory.sol\":5727:5731  task */\n      dup2\n        /* \"TaskFactory.sol\":5727:5738  task.status */\n      0x05\n      add\n      0x00\n        /* \"TaskFactory.sol\":5727:5760  task.status = TaskStatus.Disputed */\n      0x0100\n      exp\n      dup2\n      sload\n      dup2\n      0xff\n      mul\n      not\n      and\n      swap1\n      dup4\n      0x04\n      dup2\n      gt\n      iszero\n      tag_190\n      jumpi\n      tag_191\n      tag_96\n      jump\t// in\n    tag_191:\n    tag_190:\n      mul\n      or\n      swap1\n      sstore\n      pop\n        /* \"TaskFactory.sol\":5772:5784  bool success */\n      0x00\n        /* \"TaskFactory.sol\":5790:5800  disputeDAO */\n      0x05\n      0x00\n      swap1\n      sload\n      swap1\n      0x0100\n      exp\n      swap1\n      div\n      0xffffffffffffffffffffffffffffffffffffffff\n      and\n        /* \"TaskFactory.sol\":5790:5805  disputeDAO.call */\n      0xffffffffffffffffffffffffffffffffffffffff\n      and\n        /* \"TaskFactory.sol\":5870:5877  _taskId */\n      dup5\n        /* \"TaskFactory.sol\":5820:5878  abi.encodeWithSignature(\"handleDispute(uint256)\", _taskId) */\n      add(0x24, mload(0x40))\n      tag_192\n      swap2\n      swap1\n      tag_65\n      jump\t// in\n    tag_192:\n      mload(0x40)\n      0x20\n      dup2\n      dup4\n      sub\n      sub\n      dup2\n      mstore\n      swap1\n      0x40\n      mstore\n      and(not(0xffffffffffffffffffffffffffffffffffffffffffffffffffffffff), 0x4b54a37900000000000000000000000000000000000000000000000000000000)\n      0x20\n      dup3\n      add\n      dup1\n      mload\n      0xffffffffffffffffffffffffffffffffffffffffffffffffffffffff\n      dup4\n      dup2\n      dup4\n      and\n      or\n      dup4\n      mstore\n      pop\n      pop\n      pop\n      pop\n        /* \"TaskFactory.sol\":5790:5889  disputeDAO.call(... */\n      mload(0x40)\n      tag_193\n      swap2\n      swap1\n      tag_100\n      jump\t// in\n    tag_193:\n      0x00\n      mload(0x40)\n      dup1\n      dup4\n      sub\n      dup2\n      0x00\n      dup7\n      gas\n      call\n      swap2\n      pop\n      pop\n      returndatasize\n      dup1\n      0x00\n      dup2\n      eq\n      tag_196\n      jumpi\n      mload(0x40)\n      swap2\n      pop\n      and(add(returndatasize, 0x3f), not(0x1f))\n      dup3\n      add\n      0x40\n      mstore\n      returndatasize\n      dup3\n      mstore\n      returndatasize\n      0x00\n      0x20\n      dup5\n      add\n      returndatacopy\n      jump(tag_195)\n    tag_196:\n      0x60\n      swap2\n      pop\n    tag_195:\n      pop\n        /* \"TaskFactory.sol\":5771:5889  (bool success, ) = disputeDAO.call(... */\n      pop\n      swap1\n      pop\n        /* \"TaskFactory.sol\":5908:5915  success */\n      dup1\n        /* \"TaskFactory.sol\":5900:5943  require(success, \"Dispute handling failed\") */\n      tag_197\n      jumpi\n      mload(0x40)\n      0x08c379a000000000000000000000000000000000000000000000000000000000\n      dup2\n      mstore\n      0x04\n      add\n      tag_198\n      swap1\n      tag_199\n      jump\t// in\n    tag_198:\n      mload(0x40)\n      dup1\n      swap2\n      sub\n      swap1\n      revert\n    tag_197:\n        /* \"TaskFactory.sol\":5971:5978  _taskId */\n      dup4\n        /* \"TaskFactory.sol\":5959:6012  TaskUpdated(_taskId, TaskStatus.Disputed, address(0)) */\n      0x4c15bbf33194d9c3d8bcb678f11efd3112f20ba2837209f1d04e622b9c50b68e\n        /* \"TaskFactory.sol\":5980:5999  TaskStatus.Disputed */\n      0x04\n        /* \"TaskFactory.sol\":6009:6010  0 */\n      0x00\n        /* \"TaskFactory.sol\":5959:6012  TaskUpdated(_taskId, TaskStatus.Disputed, address(0)) */\n      mload(0x40)\n      tag_200\n      swap3\n      swap2\n      swap1\n      tag_108\n      jump\t// in\n    tag_200:\n      mload(0x40)\n      dup1\n      swap2\n      sub\n      swap1\n      log2\n        /* \"TaskFactory.sol\":5466:6020  {... */\n      pop\n      pop\n        /* \"TaskFactory.sol\":5399:6020  function disputeTask(uint256 _taskId) external taskExists(_taskId) {... */\n      pop\n      pop\n      jump\t// out\n        /* \"TaskFactory.sol\":3080:3578  function startBidding(uint256 _taskId) external taskExists(_taskId) onlyTaskCreator(_taskId) {... */\n    tag_52:\n        /* \"TaskFactory.sol\":3139:3146  _taskId */\n      dup1\n        /* \"TaskFactory.sol\":1363:1370  _taskId */\n      dup1\n        /* \"TaskFactory.sol\":1342:1347  tasks */\n      0x00\n        /* \"TaskFactory.sol\":1342:1356  tasks[_taskId] */\n      0x00\n        /* \"TaskFactory.sol\":1348:1355  _taskId */\n      dup4\n        /* \"TaskFactory.sol\":1342:1356  tasks[_taskId] */\n      dup2\n      mstore\n      0x20\n      add\n      swap1\n      dup2\n      mstore\n      0x20\n      add\n      0x00\n      keccak256\n        /* \"TaskFactory.sol\":1342:1359  tasks[_taskId].id */\n      0x00\n      add\n      sload\n        /* \"TaskFactory.sol\":1342:1370  tasks[_taskId].id == _taskId */\n      eq\n        /* \"TaskFactory.sol\":1334:1394  require(tasks[_taskId].id == _taskId, \"Task does not exist\") */\n      tag_202\n      jumpi\n      mload(0x40)\n      0x08c379a000000000000000000000000000000000000000000000000000000000\n      dup2\n      mstore\n      0x04\n      add\n      tag_203\n      swap1\n      tag_89\n      jump\t// in\n    tag_203:\n      mload(0x40)\n      dup1\n      swap2\n      sub\n      swap1\n      revert\n    tag_202:\n        /* \"TaskFactory.sol\":3164:3171  _taskId */\n      dup2\n        /* \"TaskFactory.sol\":1219:1229  msg.sender */\n      caller\n        /* \"TaskFactory.sol\":1193:1229  tasks[_taskId].creator == msg.sender */\n      0xffffffffffffffffffffffffffffffffffffffff\n      and\n        /* \"TaskFactory.sol\":1193:1198  tasks */\n      0x00\n        /* \"TaskFactory.sol\":1193:1207  tasks[_taskId] */\n      0x00\n        /* \"TaskFactory.sol\":1199:1206  _taskId */\n      dup4\n        /* \"TaskFactory.sol\":1193:1207  tasks[_taskId] */\n      dup2\n      mstore\n      0x20\n      add\n      swap1\n      dup2\n      mstore\n      0x20\n      add\n      0x00\n      keccak256\n        /* \"TaskFactory.sol\":1193:1215  tasks[_taskId].creator */\n      0x03\n      add\n      0x00\n      swap1\n      sload\n      swap1\n      0x0100\n      exp\n      swap1\n      div\n      0xffffffffffffffffffffffffffffffffffffffff\n      and\n        /* \"TaskFactory.sol\":1193:1229  tasks[_taskId].creator == msg.sender */\n      0xffffffffffffffffffffffffffffffffffffffff\n      and\n      eq\n        /* \"TaskFactory.sol\":1185:1258  require(tasks[_taskId].creator == msg.sender, \"Only creator can operate\") */\n      tag_205\n      jumpi\n      mload(0x40)\n      0x08c379a000000000000000000000000000000000000000000000000000000000\n      dup2\n      mstore\n      0x04\n      add\n      tag_206\n      swap1\n      tag_137\n      jump\t// in\n    tag_206:\n      mload(0x40)\n      dup1\n      swap2\n      sub\n      swap1\n      revert\n    tag_205:\n        /* \"TaskFactory.sol\":3217:3235  TaskStatus.Created */\n      0x00\n        /* \"TaskFactory.sol\":3192:3235  tasks[_taskId].status == TaskStatus.Created */\n      0x04\n      dup2\n      gt\n      iszero\n      tag_208\n      jumpi\n      tag_209\n      tag_96\n      jump\t// in\n    tag_209:\n    tag_208:\n        /* \"TaskFactory.sol\":3192:3197  tasks */\n      0x00\n        /* \"TaskFactory.sol\":3192:3206  tasks[_taskId] */\n      0x00\n        /* \"TaskFactory.sol\":3198:3205  _taskId */\n      dup6\n        /* \"TaskFactory.sol\":3192:3206  tasks[_taskId] */\n      dup2\n      mstore\n      0x20\n      add\n      swap1\n      dup2\n      mstore\n      0x20\n      add\n      0x00\n      keccak256\n        /* \"TaskFactory.sol\":3192:3213  tasks[_taskId].status */\n      0x05\n      add\n      0x00\n      swap1\n      sload\n      swap1\n      0x0100\n      exp\n      swap1\n      div\n      0xff\n      and\n        /* \"TaskFactory.sol\":3192:3235  tasks[_taskId].status == TaskStatus.Created */\n      0x04\n      dup2\n      gt\n      iszero\n      tag_210\n      jumpi\n      tag_211\n      tag_96\n      jump\t// in\n    tag_211:\n    tag_210:\n      eq\n        /* \"TaskFactory.sol\":3184:3269  require(tasks[_taskId].status == TaskStatus.Created, \"Task is not in Created status\") */\n      tag_212\n      jumpi\n      mload(0x40)\n      0x08c379a000000000000000000000000000000000000000000000000000000000\n      dup2\n      mstore\n      0x04\n      add\n      tag_213\n      swap1\n      tag_214\n      jump\t// in\n    tag_213:\n      mload(0x40)\n      dup1\n      swap2\n      sub\n      swap1\n      revert\n    tag_212:\n        /* \"TaskFactory.sol\":3304:3322  TaskStatus.Bidding */\n      0x01\n        /* \"TaskFactory.sol\":3280:3285  tasks */\n      0x00\n        /* \"TaskFactory.sol\":3280:3294  tasks[_taskId] */\n      0x00\n        /* \"TaskFactory.sol\":3286:3293  _taskId */\n      dup6\n        /* \"TaskFactory.sol\":3280:3294  tasks[_taskId] */\n      dup2\n      mstore\n      0x20\n      add\n      swap1\n      dup2\n      mstore\n      0x20\n      add\n      0x00\n      keccak256\n        /* \"TaskFactory.sol\":3280:3301  tasks[_taskId].status */\n      0x05\n      add\n      0x00\n        /* \"TaskFactory.sol\":3280:3322  tasks[_taskId].status = TaskStatus.Bidding */\n      0x0100\n      exp\n      dup2\n      sload\n      dup2\n      0xff\n      mul\n      not\n      and\n      swap1\n      dup4\n      0x04\n      dup2\n      gt\n      iszero\n      tag_215\n      jumpi\n      tag_216\n      tag_96\n      jump\t// in\n    tag_216:\n    tag_215:\n      mul\n      or\n      swap1\n      sstore\n      pop\n        /* \"TaskFactory.sol\":3334:3346  bool success */\n      0x00\n        /* \"TaskFactory.sol\":3352:3365  biddingSystem */\n      0x03\n      0x00\n      swap1\n      sload\n      swap1\n      0x0100\n      exp\n      swap1\n      div\n      0xffffffffffffffffffffffffffffffffffffffff\n      and\n        /* \"TaskFactory.sol\":3352:3370  biddingSystem.call */\n      0xffffffffffffffffffffffffffffffffffffffff\n      and\n        /* \"TaskFactory.sol\":3433:3440  _taskId */\n      dup5\n        /* \"TaskFactory.sol\":3385:3441  abi.encodeWithSignature(\"openBidding(uint256)\", _taskId) */\n      add(0x24, mload(0x40))\n      tag_217\n      swap2\n      swap1\n      tag_65\n      jump\t// in\n    tag_217:\n      mload(0x40)\n      0x20\n      dup2\n      dup4\n      sub\n      sub\n      dup2\n      mstore\n      swap1\n      0x40\n      mstore\n      and(not(0xffffffffffffffffffffffffffffffffffffffffffffffffffffffff), 0xe38c830200000000000000000000000000000000000000000000000000000000)\n      0x20\n      dup3\n      add\n      dup1\n      mload\n      0xffffffffffffffffffffffffffffffffffffffffffffffffffffffff\n      dup4\n      dup2\n      dup4\n      and\n      or\n      dup4\n      mstore\n      pop\n      pop\n      pop\n      pop\n        /* \"TaskFactory.sol\":3352:3452  biddingSystem.call(... */\n      mload(0x40)\n      tag_218\n      swap2\n      swap1\n      tag_100\n      jump\t// in\n    tag_218:\n      0x00\n      mload(0x40)\n      dup1\n      dup4\n      sub\n      dup2\n      0x00\n      dup7\n      gas\n      call\n      swap2\n      pop\n      pop\n      returndatasize\n      dup1\n      0x00\n      dup2\n      eq\n      tag_221\n      jumpi\n      mload(0x40)\n      swap2\n      pop\n      and(add(returndatasize, 0x3f), not(0x1f))\n      dup3\n      add\n      0x40\n      mstore\n      returndatasize\n      dup3\n      mstore\n      returndatasize\n      0x00\n      0x20\n      dup5\n      add\n      returndatacopy\n      jump(tag_220)\n    tag_221:\n      0x60\n      swap2\n      pop\n    tag_220:\n      pop\n        /* \"TaskFactory.sol\":3333:3452  (bool success, ) = biddingSystem.call(... */\n      pop\n      swap1\n      pop\n        /* \"TaskFactory.sol\":3471:3478  success */\n      dup1\n        /* \"TaskFactory.sol\":3463:3502  require(success, \"Bidding open failed\") */\n      tag_222\n      jumpi\n      mload(0x40)\n      0x08c379a000000000000000000000000000000000000000000000000000000000\n      dup2\n      mstore\n      0x04\n      add\n      tag_223\n      swap1\n      tag_224\n      jump\t// in\n    tag_223:\n      mload(0x40)\n      dup1\n      swap2\n      sub\n      swap1\n      revert\n    tag_222:\n        /* \"TaskFactory.sol\":3530:3537  _taskId */\n      dup4\n        /* \"TaskFactory.sol\":3518:3570  TaskUpdated(_taskId, TaskStatus.Bidding, address(0)) */\n      0x4c15bbf33194d9c3d8bcb678f11efd3112f20ba2837209f1d04e622b9c50b68e\n        /* \"TaskFactory.sol\":3539:3557  TaskStatus.Bidding */\n      0x01\n        /* \"TaskFactory.sol\":3567:3568  0 */\n      0x00\n        /* \"TaskFactory.sol\":3518:3570  TaskUpdated(_taskId, TaskStatus.Bidding, address(0)) */\n      mload(0x40)\n      tag_225\n      swap3\n      swap2\n      swap1\n      tag_108\n      jump\t// in\n    tag_225:\n      mload(0x40)\n      dup1\n      swap2\n      sub\n      swap1\n      log2\n        /* \"TaskFactory.sol\":3173:3578  {... */\n      pop\n        /* \"TaskFactory.sol\":1405:1406  _ */\n      pop\n        /* \"TaskFactory.sol\":3080:3578  function startBidding(uint256 _taskId) external taskExists(_taskId) onlyTaskCreator(_taskId) {... */\n      pop\n      pop\n      jump\t// out\n        /* \"TaskFactory.sol\":1766:2973  function createTask(... */\n    tag_56:\n        /* \"TaskFactory.sol\":1962:1969  _reward */\n      dup2\n        /* \"TaskFactory.sol\":1952:1958  _value */\n      sload(0x02)\n        /* \"TaskFactory.sol\":1952:1969  _value == _reward */\n      eq\n        /* \"TaskFactory.sol\":1944:2012  require(_value == _reward, \"Reward must be equal to the sent value\") */\n      tag_227\n      jumpi\n      mload(0x40)\n      0x08c379a000000000000000000000000000000000000000000000000000000000\n      dup2\n      mstore\n      0x04\n      add\n      tag_228\n      swap1\n      tag_229\n      jump\t// in\n    tag_228:\n      mload(0x40)\n      dup1\n      swap2\n      sub\n      swap1\n      revert\n    tag_227:\n        /* \"TaskFactory.sol\":2041:2042  0 */\n      0x00\n        /* \"TaskFactory.sol\":2031:2038  _reward */\n      dup3\n        /* \"TaskFactory.sol\":2031:2042  _reward > 0 */\n      gt\n        /* \"TaskFactory.sol\":2023:2079  require(_reward > 0, \"Reward must be greater than zero\") */\n      tag_230\n      jumpi\n      mload(0x40)\n      0x08c379a000000000000000000000000000000000000000000000000000000000\n      dup2\n      mstore\n      0x04\n      add\n      tag_231\n      swap1\n      tag_232\n      jump\t// in\n    tag_231:\n      mload(0x40)\n      dup1\n      swap2\n      sub\n      swap1\n      revert\n    tag_230:\n        /* \"TaskFactory.sol\":2125:2126  0 */\n      0x00\n        /* \"TaskFactory.sol\":2104:2114  _taskTitle */\n      dup5\n        /* \"TaskFactory.sol\":2098:2122  bytes(_taskTitle).length */\n      mload\n        /* \"TaskFactory.sol\":2098:2126  bytes(_taskTitle).length > 0 */\n      gt\n        /* \"TaskFactory.sol\":2090:2157  require(bytes(_taskTitle).length > 0, \"Task title cannot be empty\") */\n      tag_233\n      jumpi\n      mload(0x40)\n      0x08c379a000000000000000000000000000000000000000000000000000000000\n      dup2\n      mstore\n      0x04\n      add\n      tag_234\n      swap1\n      tag_235\n      jump\t// in\n    tag_234:\n      mload(0x40)\n      dup1\n      swap2\n      sub\n      swap1\n      revert\n    tag_233:\n        /* \"TaskFactory.sol\":2202:2203  0 */\n      0x00\n        /* \"TaskFactory.sol\":2182:2191  _ipfsHash */\n      dup4\n        /* \"TaskFactory.sol\":2176:2199  bytes(_ipfsHash).length */\n      mload\n        /* \"TaskFactory.sol\":2176:2203  bytes(_ipfsHash).length > 0 */\n      gt\n        /* \"TaskFactory.sol\":2168:2233  require(bytes(_ipfsHash).length > 0, \"IPFS hash cannot be empty\") */\n      tag_236\n      jumpi\n      mload(0x40)\n      0x08c379a000000000000000000000000000000000000000000000000000000000\n      dup2\n      mstore\n      0x04\n      add\n      tag_237\n      swap1\n      tag_238\n      jump\t// in\n    tag_237:\n      mload(0x40)\n      dup1\n      swap2\n      sub\n      swap1\n      revert\n    tag_236:\n        /* \"TaskFactory.sol\":2264:2279  block.timestamp */\n      timestamp\n        /* \"TaskFactory.sol\":2252:2261  _deadline */\n      dup2\n        /* \"TaskFactory.sol\":2252:2279  _deadline > block.timestamp */\n      gt\n        /* \"TaskFactory.sol\":2244:2314  require(_deadline > block.timestamp, \"Deadline must be in the future\") */\n      tag_239\n      jumpi\n      mload(0x40)\n      0x08c379a000000000000000000000000000000000000000000000000000000000\n      dup2\n      mstore\n      0x04\n      add\n      tag_240\n      swap1\n      tag_241\n      jump\t// in\n    tag_240:\n      mload(0x40)\n      dup1\n      swap2\n      sub\n      swap1\n      revert\n    tag_239:\n        /* \"TaskFactory.sol\":2325:2339  uint256 taskId */\n      0x00\n        /* \"TaskFactory.sol\":2342:2351  taskCount */\n      0x01\n      0x00\n        /* \"TaskFactory.sol\":2342:2353  taskCount++ */\n      dup2\n      sload\n      dup1\n      swap3\n      swap2\n      swap1\n      tag_242\n      swap1\n      tag_243\n      jump\t// in\n    tag_242:\n      swap2\n      swap1\n      pop\n      sstore\n        /* \"TaskFactory.sol\":2325:2353  uint256 taskId = taskCount++ */\n      swap1\n      pop\n        /* \"TaskFactory.sol\":2380:2705  Task({... */\n      mload(0x40)\n      dup1\n      0x0120\n      add\n      0x40\n      mstore\n      dup1\n        /* \"TaskFactory.sol\":2404:2410  taskId */\n      dup3\n        /* \"TaskFactory.sol\":2380:2705  Task({... */\n      dup2\n      mstore\n      0x20\n      add\n        /* \"TaskFactory.sol\":2432:2442  _taskTitle */\n      dup7\n        /* \"TaskFactory.sol\":2380:2705  Task({... */\n      dup2\n      mstore\n      0x20\n      add\n        /* \"TaskFactory.sol\":2467:2476  _ipfsHash */\n      dup6\n        /* \"TaskFactory.sol\":2380:2705  Task({... */\n      dup2\n      mstore\n      0x20\n      add\n        /* \"TaskFactory.sol\":2500:2510  msg.sender */\n      caller\n        /* \"TaskFactory.sol\":2380:2705  Task({... */\n      0xffffffffffffffffffffffffffffffffffffffff\n      and\n      dup2\n      mstore\n      0x20\n      add\n        /* \"TaskFactory.sol\":2533:2540  _reward */\n      dup5\n        /* \"TaskFactory.sol\":2380:2705  Task({... */\n      dup2\n      mstore\n      0x20\n      add\n        /* \"TaskFactory.sol\":2563:2581  TaskStatus.Created */\n      0x00\n        /* \"TaskFactory.sol\":2380:2705  Task({... */\n      0x04\n      dup2\n      gt\n      iszero\n      tag_244\n      jumpi\n      tag_245\n      tag_96\n      jump\t// in\n    tag_245:\n    tag_244:\n      dup2\n      mstore\n      0x20\n      add\n        /* \"TaskFactory.sol\":2612:2613  0 */\n      0x00\n        /* \"TaskFactory.sol\":2380:2705  Task({... */\n      0xffffffffffffffffffffffffffffffffffffffff\n      and\n      dup2\n      mstore\n      0x20\n      add\n        /* \"TaskFactory.sol\":2639:2648  _deadline */\n      dup4\n        /* \"TaskFactory.sol\":2380:2705  Task({... */\n      dup2\n      mstore\n      0x20\n      add\n        /* \"TaskFactory.sol\":2691:2692  0 */\n      0x00\n        /* \"TaskFactory.sol\":2677:2693  new address[](0) */\n      0xffffffffffffffff\n      dup2\n      gt\n      iszero\n      tag_246\n      jumpi\n      tag_247\n      tag_248\n      jump\t// in\n    tag_247:\n    tag_246:\n      mload(0x40)\n      swap1\n      dup1\n      dup3\n      mstore\n      dup1\n      0x20\n      mul\n      0x20\n      add\n      dup3\n      add\n      0x40\n      mstore\n      dup1\n      iszero\n      tag_249\n      jumpi\n      dup2\n      0x20\n      add\n      0x20\n      dup3\n      mul\n      dup1\n      calldatasize\n      dup4\n      calldatacopy\n      dup1\n      dup3\n      add\n      swap2\n      pop\n      pop\n      swap1\n      pop\n    tag_249:\n      pop\n        /* \"TaskFactory.sol\":2380:2705  Task({... */\n      dup2\n      mstore\n      pop\n        /* \"TaskFactory.sol\":2364:2369  tasks */\n      0x00\n        /* \"TaskFactory.sol\":2364:2377  tasks[taskId] */\n      0x00\n        /* \"TaskFactory.sol\":2370:2376  taskId */\n      dup4\n        /* \"TaskFactory.sol\":2364:2377  tasks[taskId] */\n      dup2\n      mstore\n      0x20\n      add\n      swap1\n      dup2\n      mstore\n      0x20\n      add\n      0x00\n      keccak256\n        /* \"TaskFactory.sol\":2364:2705  tasks[taskId] = Task({... */\n      0x00\n      dup3\n      add\n      mload\n      dup2\n      0x00\n      add\n      sstore\n      0x20\n      dup3\n      add\n      mload\n      dup2\n      0x01\n      add\n      swap1\n      dup2\n      tag_250\n      swap2\n      swap1\n      tag_251\n      jump\t// in\n    tag_250:\n      pop\n      0x40\n      dup3\n      add\n      mload\n      dup2\n      0x02\n      add\n      swap1\n      dup2\n      tag_252\n      swap2\n      swap1\n      tag_251\n      jump\t// in\n    tag_252:\n      pop\n      0x60\n      dup3\n      add\n      mload\n      dup2\n      0x03\n      add\n      exp(0x0100, 0x00)\n      dup2\n      sload\n      dup2\n      0xffffffffffffffffffffffffffffffffffffffff\n      mul\n      not\n      and\n      swap1\n      dup4\n      0xffffffffffffffffffffffffffffffffffffffff\n      and\n      mul\n      or\n      swap1\n      sstore\n      pop\n      0x80\n      dup3\n      add\n      mload\n      dup2\n      0x04\n      add\n      sstore\n      0xa0\n      dup3\n      add\n      mload\n      dup2\n      0x05\n      add\n      exp(0x0100, 0x00)\n      dup2\n      sload\n      dup2\n      0xff\n      mul\n      not\n      and\n      swap1\n      dup4\n      0x04\n      dup2\n      gt\n      iszero\n      tag_253\n      jumpi\n      tag_254\n      tag_96\n      jump\t// in\n    tag_254:\n    tag_253:\n      mul\n      or\n      swap1\n      sstore\n      pop\n      0xc0\n      dup3\n      add\n      mload\n      dup2\n      0x05\n      add\n      exp(0x0100, 0x01)\n      dup2\n      sload\n      dup2\n      0xffffffffffffffffffffffffffffffffffffffff\n      mul\n      not\n      and\n      swap1\n      dup4\n      0xffffffffffffffffffffffffffffffffffffffff\n      and\n      mul\n      or\n      swap1\n      sstore\n      pop\n      0xe0\n      dup3\n      add\n      mload\n      dup2\n      0x06\n      add\n      sstore\n      0x0100\n      dup3\n      add\n      mload\n      dup2\n      0x07\n      add\n      swap1\n      dup1\n      mload\n      swap1\n      0x20\n      add\n      swap1\n      tag_255\n      swap3\n      swap2\n      swap1\n      tag_256\n      jump\t// in\n    tag_255:\n      pop\n      swap1\n      pop\n      pop\n        /* \"TaskFactory.sol\":2717:2729  bool success */\n      0x00\n        /* \"TaskFactory.sol\":2735:2741  escrow */\n      0x04\n      0x00\n      swap1\n      sload\n      swap1\n      0x0100\n      exp\n      swap1\n      div\n      0xffffffffffffffffffffffffffffffffffffffff\n      and\n        /* \"TaskFactory.sol\":2735:2746  escrow.call */\n      0xffffffffffffffffffffffffffffffffffffffff\n      and\n        /* \"TaskFactory.sol\":2754:2763  msg.value */\n      callvalue\n        /* \"TaskFactory.sol\":2828:2834  taskId */\n      dup4\n        /* \"TaskFactory.sol\":2779:2835  abi.encodeWithSignature(\"depositFunds(uint256)\", taskId) */\n      add(0x24, mload(0x40))\n      tag_257\n      swap2\n      swap1\n      tag_65\n      jump\t// in\n    tag_257:\n      mload(0x40)\n      0x20\n      dup2\n      dup4\n      sub\n      sub\n      dup2\n      mstore\n      swap1\n      0x40\n      mstore\n      and(not(0xffffffffffffffffffffffffffffffffffffffffffffffffffffffff), 0x3b76594d00000000000000000000000000000000000000000000000000000000)\n      0x20\n      dup3\n      add\n      dup1\n      mload\n      0xffffffffffffffffffffffffffffffffffffffffffffffffffffffff\n      dup4\n      dup2\n      dup4\n      and\n      or\n      dup4\n      mstore\n      pop\n      pop\n      pop\n      pop\n        /* \"TaskFactory.sol\":2735:2846  escrow.call{value: msg.value}(... */\n      mload(0x40)\n      tag_258\n      swap2\n      swap1\n      tag_100\n      jump\t// in\n    tag_258:\n      0x00\n      mload(0x40)\n      dup1\n      dup4\n      sub\n      dup2\n      dup6\n      dup8\n      gas\n      call\n      swap3\n      pop\n      pop\n      pop\n      returndatasize\n      dup1\n      0x00\n      dup2\n      eq\n      tag_261\n      jumpi\n      mload(0x40)\n      swap2\n      pop\n      and(add(returndatasize, 0x3f), not(0x1f))\n      dup3\n      add\n      0x40\n      mstore\n      returndatasize\n      dup3\n      mstore\n      returndatasize\n      0x00\n      0x20\n      dup5\n      add\n      returndatacopy\n      jump(tag_260)\n    tag_261:\n      0x60\n      swap2\n      pop\n    tag_260:\n      pop\n        /* \"TaskFactory.sol\":2716:2846  (bool success, ) = escrow.call{value: msg.value}(... */\n      pop\n      swap1\n      pop\n        /* \"TaskFactory.sol\":2865:2872  success */\n      dup1\n        /* \"TaskFactory.sol\":2857:2898  require(success, \"Escrow deposit failed\") */\n      tag_262\n      jumpi\n      mload(0x40)\n      0x08c379a000000000000000000000000000000000000000000000000000000000\n      dup2\n      mstore\n      0x04\n      add\n      tag_263\n      swap1\n      tag_264\n      jump\t// in\n    tag_263:\n      mload(0x40)\n      dup1\n      swap2\n      sub\n      swap1\n      revert\n    tag_262:\n        /* \"TaskFactory.sol\":2934:2944  msg.sender */\n      caller\n        /* \"TaskFactory.sol\":2914:2965  TaskCreated(taskId, msg.sender, _reward, _ipfsHash) */\n      0xffffffffffffffffffffffffffffffffffffffff\n      and\n        /* \"TaskFactory.sol\":2926:2932  taskId */\n      dup3\n        /* \"TaskFactory.sol\":2914:2965  TaskCreated(taskId, msg.sender, _reward, _ipfsHash) */\n      0xedce45cc3fc2bea98c94b72104f4a750dcc91bd183a01870ed4f93a365eba5b9\n        /* \"TaskFactory.sol\":2946:2953  _reward */\n      dup7\n        /* \"TaskFactory.sol\":2955:2964  _ipfsHash */\n      dup9\n        /* \"TaskFactory.sol\":2914:2965  TaskCreated(taskId, msg.sender, _reward, _ipfsHash) */\n      mload(0x40)\n      tag_265\n      swap3\n      swap2\n      swap1\n      tag_266\n      jump\t// in\n    tag_265:\n      mload(0x40)\n      dup1\n      swap2\n      sub\n      swap1\n      log3\n        /* \"TaskFactory.sol\":1933:2973  {... */\n      pop\n      pop\n        /* \"TaskFactory.sol\":1766:2973  function createTask(... */\n      pop\n      pop\n      pop\n      pop\n      jump\t// out\n        /* \"TaskFactory.sol\":4057:4734  function selectWinner(uint256 _taskId, address _winner) external taskExists(_taskId) onlyTaskCreator(_taskId) {... */\n    tag_60:\n        /* \"TaskFactory.sol\":4133:4140  _taskId */\n      dup2\n        /* \"TaskFactory.sol\":1363:1370  _taskId */\n      dup1\n        /* \"TaskFactory.sol\":1342:1347  tasks */\n      0x00\n        /* \"TaskFactory.sol\":1342:1356  tasks[_taskId] */\n      0x00\n        /* \"TaskFactory.sol\":1348:1355  _taskId */\n      dup4\n        /* \"TaskFactory.sol\":1342:1356  tasks[_taskId] */\n      dup2\n      mstore\n      0x20\n      add\n      swap1\n      dup2\n      mstore\n      0x20\n      add\n      0x00\n      keccak256\n        /* \"TaskFactory.sol\":1342:1359  tasks[_taskId].id */\n      0x00\n      add\n      sload\n        /* \"TaskFactory.sol\":1342:1370  tasks[_taskId].id == _taskId */\n      eq\n        /* \"TaskFactory.sol\":1334:1394  require(tasks[_taskId].id == _taskId, \"Task does not exist\") */\n      tag_268\n      jumpi\n      mload(0x40)\n      0x08c379a000000000000000000000000000000000000000000000000000000000\n      dup2\n      mstore\n      0x04\n      add\n      tag_269\n      swap1\n      tag_89\n      jump\t// in\n    tag_269:\n      mload(0x40)\n      dup1\n      swap2\n      sub\n      swap1\n      revert\n    tag_268:\n        /* \"TaskFactory.sol\":4158:4165  _taskId */\n      dup3\n        /* \"TaskFactory.sol\":1219:1229  msg.sender */\n      caller\n        /* \"TaskFactory.sol\":1193:1229  tasks[_taskId].creator == msg.sender */\n      0xffffffffffffffffffffffffffffffffffffffff\n      and\n        /* \"TaskFactory.sol\":1193:1198  tasks */\n      0x00\n        /* \"TaskFactory.sol\":1193:1207  tasks[_taskId] */\n      0x00\n        /* \"TaskFactory.sol\":1199:1206  _taskId */\n      dup4\n        /* \"TaskFactory.sol\":1193:1207  tasks[_taskId] */\n      dup2\n      mstore\n      0x20\n      add\n      swap1\n      dup2\n      mstore\n      0x20\n      add\n      0x00\n      keccak256\n        /* \"TaskFactory.sol\":1193:1215  tasks[_taskId].creator */\n      0x03\n      add\n      0x00\n      swap1\n      sload\n      swap1\n      0x0100\n      exp\n      swap1\n      div\n      0xffffffffffffffffffffffffffffffffffffffff\n      and\n        /* \"TaskFactory.sol\":1193:1229  tasks[_taskId].creator == msg.sender */\n      0xffffffffffffffffffffffffffffffffffffffff\n      and\n      eq\n        /* \"TaskFactory.sol\":1185:1258  require(tasks[_taskId].creator == msg.sender, \"Only creator can operate\") */\n      tag_271\n      jumpi\n      mload(0x40)\n      0x08c379a000000000000000000000000000000000000000000000000000000000\n      dup2\n      mstore\n      0x04\n      add\n      tag_272\n      swap1\n      tag_137\n      jump\t// in\n    tag_272:\n      mload(0x40)\n      dup1\n      swap2\n      sub\n      swap1\n      revert\n    tag_271:\n        /* \"TaskFactory.sol\":4178:4195  Task storage task */\n      0x00\n        /* \"TaskFactory.sol\":4198:4203  tasks */\n      0x00\n        /* \"TaskFactory.sol\":4198:4212  tasks[_taskId] */\n      0x00\n        /* \"TaskFactory.sol\":4204:4211  _taskId */\n      dup7\n        /* \"TaskFactory.sol\":4198:4212  tasks[_taskId] */\n      dup2\n      mstore\n      0x20\n      add\n      swap1\n      dup2\n      mstore\n      0x20\n      add\n      0x00\n      keccak256\n        /* \"TaskFactory.sol\":4178:4212  Task storage task = tasks[_taskId] */\n      swap1\n      pop\n        /* \"TaskFactory.sol\":4246:4264  TaskStatus.Bidding */\n      0x01\n        /* \"TaskFactory.sol\":4231:4264  task.status == TaskStatus.Bidding */\n      0x04\n      dup2\n      gt\n      iszero\n      tag_274\n      jumpi\n      tag_275\n      tag_96\n      jump\t// in\n    tag_275:\n    tag_274:\n        /* \"TaskFactory.sol\":4231:4235  task */\n      dup2\n        /* \"TaskFactory.sol\":4231:4242  task.status */\n      0x05\n      add\n      0x00\n      swap1\n      sload\n      swap1\n      0x0100\n      exp\n      swap1\n      div\n      0xff\n      and\n        /* \"TaskFactory.sol\":4231:4264  task.status == TaskStatus.Bidding */\n      0x04\n      dup2\n      gt\n      iszero\n      tag_276\n      jumpi\n      tag_277\n      tag_96\n      jump\t// in\n    tag_277:\n    tag_276:\n      eq\n        /* \"TaskFactory.sol\":4223:4298  require(task.status == TaskStatus.Bidding, \"Task is not in Bidding status\") */\n      tag_278\n      jumpi\n      mload(0x40)\n      0x08c379a000000000000000000000000000000000000000000000000000000000\n      dup2\n      mstore\n      0x04\n      add\n      tag_279\n      swap1\n      tag_280\n      jump\t// in\n    tag_279:\n      mload(0x40)\n      dup1\n      swap2\n      sub\n      swap1\n      revert\n    tag_278:\n        /* \"TaskFactory.sol\":4309:4319  bool found */\n      0x00\n        /* \"TaskFactory.sol\":4322:4327  false */\n      0x00\n        /* \"TaskFactory.sol\":4309:4327  bool found = false */\n      swap1\n      pop\n        /* \"TaskFactory.sol\":4343:4349  uint i */\n      0x00\n        /* \"TaskFactory.sol\":4352:4353  0 */\n      0x00\n        /* \"TaskFactory.sol\":4343:4353  uint i = 0 */\n      swap1\n      pop\n        /* \"TaskFactory.sol\":4338:4524  for (uint i = 0; i < task.participants.length; i++) {... */\n    tag_281:\n        /* \"TaskFactory.sol\":4359:4363  task */\n      dup3\n        /* \"TaskFactory.sol\":4359:4376  task.participants */\n      0x07\n      add\n        /* \"TaskFactory.sol\":4359:4383  task.participants.length */\n      dup1\n      sload\n      swap1\n      pop\n        /* \"TaskFactory.sol\":4355:4356  i */\n      dup2\n        /* \"TaskFactory.sol\":4355:4383  i < task.participants.length */\n      lt\n        /* \"TaskFactory.sol\":4338:4524  for (uint i = 0; i < task.participants.length; i++) {... */\n      iszero\n      tag_282\n      jumpi\n        /* \"TaskFactory.sol\":4433:4440  _winner */\n      dup6\n        /* \"TaskFactory.sol\":4409:4440  task.participants[i] == _winner */\n      0xffffffffffffffffffffffffffffffffffffffff\n      and\n        /* \"TaskFactory.sol\":4409:4413  task */\n      dup4\n        /* \"TaskFactory.sol\":4409:4426  task.participants */\n      0x07\n      add\n        /* \"TaskFactory.sol\":4427:4428  i */\n      dup3\n        /* \"TaskFactory.sol\":4409:4429  task.participants[i] */\n      dup2\n      sload\n      dup2\n      lt\n      tag_284\n      jumpi\n      tag_285\n      tag_125\n      jump\t// in\n    tag_285:\n    tag_284:\n      swap1\n      0x00\n      mstore\n      keccak256(0x00, 0x20)\n      add\n      0x00\n      swap1\n      sload\n      swap1\n      0x0100\n      exp\n      swap1\n      div\n      0xffffffffffffffffffffffffffffffffffffffff\n      and\n        /* \"TaskFactory.sol\":4409:4440  task.participants[i] == _winner */\n      0xffffffffffffffffffffffffffffffffffffffff\n      and\n      sub\n        /* \"TaskFactory.sol\":4405:4513  if (task.participants[i] == _winner) {... */\n      tag_287\n      jumpi\n        /* \"TaskFactory.sol\":4469:4473  true */\n      0x01\n        /* \"TaskFactory.sol\":4461:4473  found = true */\n      swap2\n      pop\n        /* \"TaskFactory.sol\":4492:4497  break */\n      jump(tag_282)\n        /* \"TaskFactory.sol\":4405:4513  if (task.participants[i] == _winner) {... */\n    tag_287:\n        /* \"TaskFactory.sol\":4385:4388  i++ */\n      dup1\n      dup1\n      0x01\n      add\n      swap2\n      pop\n      pop\n        /* \"TaskFactory.sol\":4338:4524  for (uint i = 0; i < task.participants.length; i++) {... */\n      jump(tag_281)\n    tag_282:\n      pop\n        /* \"TaskFactory.sol\":4542:4547  found */\n      dup1\n        /* \"TaskFactory.sol\":4534:4580  require(found, \"Winner must be a participant\") */\n      tag_288\n      jumpi\n      mload(0x40)\n      0x08c379a000000000000000000000000000000000000000000000000000000000\n      dup2\n      mstore\n      0x04\n      add\n      tag_289\n      swap1\n      tag_290\n      jump\t// in\n    tag_289:\n      mload(0x40)\n      dup1\n      swap2\n      sub\n      swap1\n      revert\n    tag_288:\n        /* \"TaskFactory.sol\":4605:4612  _winner */\n      dup5\n        /* \"TaskFactory.sol\":4591:4595  task */\n      dup3\n        /* \"TaskFactory.sol\":4591:4602  task.winner */\n      0x05\n      add\n      0x01\n        /* \"TaskFactory.sol\":4591:4612  task.winner = _winner */\n      0x0100\n      exp\n      dup2\n      sload\n      dup2\n      0xffffffffffffffffffffffffffffffffffffffff\n      mul\n      not\n      and\n      swap1\n      dup4\n      0xffffffffffffffffffffffffffffffffffffffff\n      and\n      mul\n      or\n      swap1\n      sstore\n      pop\n        /* \"TaskFactory.sol\":4637:4658  TaskStatus.InProgress */\n      0x02\n        /* \"TaskFactory.sol\":4623:4627  task */\n      dup3\n        /* \"TaskFactory.sol\":4623:4634  task.status */\n      0x05\n      add\n      0x00\n        /* \"TaskFactory.sol\":4623:4658  task.status = TaskStatus.InProgress */\n      0x0100\n      exp\n      dup2\n      sload\n      dup2\n      0xff\n      mul\n      not\n      and\n      swap1\n      dup4\n      0x04\n      dup2\n      gt\n      iszero\n      tag_291\n      jumpi\n      tag_292\n      tag_96\n      jump\t// in\n    tag_292:\n    tag_291:\n      mul\n      or\n      swap1\n      sstore\n      pop\n        /* \"TaskFactory.sol\":4686:4693  _taskId */\n      dup6\n        /* \"TaskFactory.sol\":4674:4726  TaskUpdated(_taskId, TaskStatus.InProgress, _winner) */\n      0x4c15bbf33194d9c3d8bcb678f11efd3112f20ba2837209f1d04e622b9c50b68e\n        /* \"TaskFactory.sol\":4695:4716  TaskStatus.InProgress */\n      0x02\n        /* \"TaskFactory.sol\":4718:4725  _winner */\n      dup8\n        /* \"TaskFactory.sol\":4674:4726  TaskUpdated(_taskId, TaskStatus.InProgress, _winner) */\n      mload(0x40)\n      tag_293\n      swap3\n      swap2\n      swap1\n      tag_108\n      jump\t// in\n    tag_293:\n      mload(0x40)\n      dup1\n      swap2\n      sub\n      swap1\n      log2\n        /* \"TaskFactory.sol\":4167:4734  {... */\n      pop\n      pop\n        /* \"TaskFactory.sol\":1405:1406  _ */\n      pop\n        /* \"TaskFactory.sol\":4057:4734  function selectWinner(uint256 _taskId, address _winner) external taskExists(_taskId) onlyTaskCreator(_taskId) {... */\n      pop\n      pop\n      pop\n      jump\t// out\n        /* \"TaskFactory.sol\":671:695  uint256 public taskCount */\n    tag_63:\n      sload(0x01)\n      dup2\n      jump\t// out\n        /* \"TaskFactory.sol\":702:723  uint256 public _value */\n    tag_68:\n      sload(0x02)\n      dup2\n      jump\t// out\n        /* \"TaskFactory.sol\":4763:5370  function completeTask(uint256 _taskId) external taskExists(_taskId) {... */\n    tag_73:\n        /* \"TaskFactory.sol\":4822:4829  _taskId */\n      dup1\n        /* \"TaskFactory.sol\":1363:1370  _taskId */\n      dup1\n        /* \"TaskFactory.sol\":1342:1347  tasks */\n      0x00\n        /* \"TaskFactory.sol\":1342:1356  tasks[_taskId] */\n      0x00\n        /* \"TaskFactory.sol\":1348:1355  _taskId */\n      dup4\n        /* \"TaskFactory.sol\":1342:1356  tasks[_taskId] */\n      dup2\n      mstore\n      0x20\n      add\n      swap1\n      dup2\n      mstore\n      0x20\n      add\n      0x00\n      keccak256\n        /* \"TaskFactory.sol\":1342:1359  tasks[_taskId].id */\n      0x00\n      add\n      sload\n        /* \"TaskFactory.sol\":1342:1370  tasks[_taskId].id == _taskId */\n      eq\n        /* \"TaskFactory.sol\":1334:1394  require(tasks[_taskId].id == _taskId, \"Task does not exist\") */\n      tag_295\n      jumpi\n      mload(0x40)\n      0x08c379a000000000000000000000000000000000000000000000000000000000\n      dup2\n      mstore\n      0x04\n      add\n      tag_296\n      swap1\n      tag_89\n      jump\t// in\n    tag_296:\n      mload(0x40)\n      dup1\n      swap2\n      sub\n      swap1\n      revert\n    tag_295:\n        /* \"TaskFactory.sol\":4842:4859  Task storage task */\n      0x00\n        /* \"TaskFactory.sol\":4862:4867  tasks */\n      0x00\n        /* \"TaskFactory.sol\":4862:4876  tasks[_taskId] */\n      0x00\n        /* \"TaskFactory.sol\":4868:4875  _taskId */\n      dup5\n        /* \"TaskFactory.sol\":4862:4876  tasks[_taskId] */\n      dup2\n      mstore\n      0x20\n      add\n      swap1\n      dup2\n      mstore\n      0x20\n      add\n      0x00\n      keccak256\n        /* \"TaskFactory.sol\":4842:4876  Task storage task = tasks[_taskId] */\n      swap1\n      pop\n        /* \"TaskFactory.sol\":4909:4913  task */\n      dup1\n        /* \"TaskFactory.sol\":4909:4920  task.winner */\n      0x05\n      add\n      0x01\n      swap1\n      sload\n      swap1\n      0x0100\n      exp\n      swap1\n      div\n      0xffffffffffffffffffffffffffffffffffffffff\n      and\n        /* \"TaskFactory.sol\":4895:4920  msg.sender == task.winner */\n      0xffffffffffffffffffffffffffffffffffffffff\n      and\n        /* \"TaskFactory.sol\":4895:4905  msg.sender */\n      caller\n        /* \"TaskFactory.sol\":4895:4920  msg.sender == task.winner */\n      0xffffffffffffffffffffffffffffffffffffffff\n      and\n      eq\n        /* \"TaskFactory.sol\":4887:4958  require(msg.sender == task.winner, \"Only winner can complete the task\") */\n      tag_298\n      jumpi\n      mload(0x40)\n      0x08c379a000000000000000000000000000000000000000000000000000000000\n      dup2\n      mstore\n      0x04\n      add\n      tag_299\n      swap1\n      tag_300\n      jump\t// in\n    tag_299:\n      mload(0x40)\n      dup1\n      swap2\n      sub\n      swap1\n      revert\n    tag_298:\n        /* \"TaskFactory.sol\":4992:5013  TaskStatus.InProgress */\n      0x02\n        /* \"TaskFactory.sol\":4977:5013  task.status == TaskStatus.InProgress */\n      0x04\n      dup2\n      gt\n      iszero\n      tag_301\n      jumpi\n      tag_302\n      tag_96\n      jump\t// in\n    tag_302:\n    tag_301:\n        /* \"TaskFactory.sol\":4977:4981  task */\n      dup2\n        /* \"TaskFactory.sol\":4977:4988  task.status */\n      0x05\n      add\n      0x00\n      swap1\n      sload\n      swap1\n      0x0100\n      exp\n      swap1\n      div\n      0xff\n      and\n        /* \"TaskFactory.sol\":4977:5013  task.status == TaskStatus.InProgress */\n      0x04\n      dup2\n      gt\n      iszero\n      tag_303\n      jumpi\n      tag_304\n      tag_96\n      jump\t// in\n    tag_304:\n    tag_303:\n      eq\n        /* \"TaskFactory.sol\":4969:5050  require(task.status == TaskStatus.InProgress, \"Task is not in InProgress status\") */\n      tag_305\n      jumpi\n      mload(0x40)\n      0x08c379a000000000000000000000000000000000000000000000000000000000\n      dup2\n      mstore\n      0x04\n      add\n      tag_306\n      swap1\n      tag_189\n      jump\t// in\n    tag_306:\n      mload(0x40)\n      dup1\n      swap2\n      sub\n      swap1\n      revert\n    tag_305:\n        /* \"TaskFactory.sol\":5075:5095  TaskStatus.Completed */\n      0x03\n        /* \"TaskFactory.sol\":5061:5065  task */\n      dup2\n        /* \"TaskFactory.sol\":5061:5072  task.status */\n      0x05\n      add\n      0x00\n        /* \"TaskFactory.sol\":5061:5095  task.status = TaskStatus.Completed */\n      0x0100\n      exp\n      dup2\n      sload\n      dup2\n      0xff\n      mul\n      not\n      and\n      swap1\n      dup4\n      0x04\n      dup2\n      gt\n      iszero\n      tag_307\n      jumpi\n      tag_308\n      tag_96\n      jump\t// in\n    tag_308:\n    tag_307:\n      mul\n      or\n      swap1\n      sstore\n      pop\n        /* \"TaskFactory.sol\":5107:5119  bool success */\n      0x00\n        /* \"TaskFactory.sol\":5124:5130  escrow */\n      0x04\n      0x00\n      swap1\n      sload\n      swap1\n      0x0100\n      exp\n      swap1\n      div\n      0xffffffffffffffffffffffffffffffffffffffff\n      and\n        /* \"TaskFactory.sol\":5124:5135  escrow.call */\n      0xffffffffffffffffffffffffffffffffffffffff\n      and\n        /* \"TaskFactory.sol\":5207:5214  _taskId */\n      dup5\n        /* \"TaskFactory.sol\":5216:5220  task */\n      dup4\n        /* \"TaskFactory.sol\":5216:5227  task.winner */\n      0x05\n      add\n      0x01\n      swap1\n      sload\n      swap1\n      0x0100\n      exp\n      swap1\n      div\n      0xffffffffffffffffffffffffffffffffffffffff\n      and\n        /* \"TaskFactory.sol\":5150:5228  abi.encodeWithSignature(\"releaseFunds(uint256,address)\", _taskId, task.winner) */\n      add(0x24, mload(0x40))\n      tag_309\n      swap3\n      swap2\n      swap1\n      tag_98\n      jump\t// in\n    tag_309:\n      mload(0x40)\n      0x20\n      dup2\n      dup4\n      sub\n      sub\n      dup2\n      mstore\n      swap1\n      0x40\n      mstore\n      and(not(0xffffffffffffffffffffffffffffffffffffffffffffffffffffffff), 0x1af23a5900000000000000000000000000000000000000000000000000000000)\n      0x20\n      dup3\n      add\n      dup1\n      mload\n      0xffffffffffffffffffffffffffffffffffffffffffffffffffffffff\n      dup4\n      dup2\n      dup4\n      and\n      or\n      dup4\n      mstore\n      pop\n      pop\n      pop\n      pop\n        /* \"TaskFactory.sol\":5124:5239  escrow.call(... */\n      mload(0x40)\n      tag_310\n      swap2\n      swap1\n      tag_100\n      jump\t// in\n    tag_310:\n      0x00\n      mload(0x40)\n      dup1\n      dup4\n      sub\n      dup2\n      0x00\n      dup7\n      gas\n      call\n      swap2\n      pop\n      pop\n      returndatasize\n      dup1\n      0x00\n      dup2\n      eq\n      tag_313\n      jumpi\n      mload(0x40)\n      swap2\n      pop\n      and(add(returndatasize, 0x3f), not(0x1f))\n      dup3\n      add\n      0x40\n      mstore\n      returndatasize\n      dup3\n      mstore\n      returndatasize\n      0x00\n      0x20\n      dup5\n      add\n      returndatacopy\n      jump(tag_312)\n    tag_313:\n      0x60\n      swap2\n      pop\n    tag_312:\n      pop\n        /* \"TaskFactory.sol\":5106:5239  (bool success,) = escrow.call(... */\n      pop\n      swap1\n      pop\n        /* \"TaskFactory.sol\":5258:5265  success */\n      dup1\n        /* \"TaskFactory.sol\":5250:5291  require(success, \"Escrow release failed\") */\n      tag_314\n      jumpi\n      mload(0x40)\n      0x08c379a000000000000000000000000000000000000000000000000000000000\n      dup2\n      mstore\n      0x04\n      add\n      tag_315\n      swap1\n      tag_106\n      jump\t// in\n    tag_315:\n      mload(0x40)\n      dup1\n      swap2\n      sub\n      swap1\n      revert\n    tag_314:\n        /* \"TaskFactory.sol\":5319:5326  _taskId */\n      dup4\n        /* \"TaskFactory.sol\":5307:5362  TaskUpdated(_taskId, TaskStatus.Completed, task.winner) */\n      0x4c15bbf33194d9c3d8bcb678f11efd3112f20ba2837209f1d04e622b9c50b68e\n        /* \"TaskFactory.sol\":5328:5348  TaskStatus.Completed */\n      0x03\n        /* \"TaskFactory.sol\":5350:5354  task */\n      dup5\n        /* \"TaskFactory.sol\":5350:5361  task.winner */\n      0x05\n      add\n      0x01\n      swap1\n      sload\n      swap1\n      0x0100\n      exp\n      swap1\n      div\n      0xffffffffffffffffffffffffffffffffffffffff\n      and\n        /* \"TaskFactory.sol\":5307:5362  TaskUpdated(_taskId, TaskStatus.Completed, task.winner) */\n      mload(0x40)\n      tag_316\n      swap3\n      swap2\n      swap1\n      tag_108\n      jump\t// in\n    tag_316:\n      mload(0x40)\n      dup1\n      swap2\n      sub\n      swap1\n      log2\n        /* \"TaskFactory.sol\":4831:5370  {... */\n      pop\n      pop\n        /* \"TaskFactory.sol\":4763:5370  function completeTask(uint256 _taskId) external taskExists(_taskId) {... */\n      pop\n      pop\n      jump\t// out\n        /* \"TaskFactory.sol\":767:788  address public escrow */\n    tag_76:\n      0x04\n      0x00\n      swap1\n      sload\n      swap1\n      0x0100\n      exp\n      swap1\n      div\n      0xffffffffffffffffffffffffffffffffffffffff\n      and\n      dup2\n      jump\t// out\n        /* \"TaskFactory.sol\":7190:7703  function removeExpiredTask(uint256 _taskId) external taskExists(_taskId) {... */\n    tag_81:\n        /* \"TaskFactory.sol\":7254:7261  _taskId */\n      dup1\n        /* \"TaskFactory.sol\":1363:1370  _taskId */\n      dup1\n        /* \"TaskFactory.sol\":1342:1347  tasks */\n      0x00\n        /* \"TaskFactory.sol\":1342:1356  tasks[_taskId] */\n      0x00\n        /* \"TaskFactory.sol\":1348:1355  _taskId */\n      dup4\n        /* \"TaskFactory.sol\":1342:1356  tasks[_taskId] */\n      dup2\n      mstore\n      0x20\n      add\n      swap1\n      dup2\n      mstore\n      0x20\n      add\n      0x00\n      keccak256\n        /* \"TaskFactory.sol\":1342:1359  tasks[_taskId].id */\n      0x00\n      add\n      sload\n        /* \"TaskFactory.sol\":1342:1370  tasks[_taskId].id == _taskId */\n      eq\n        /* \"TaskFactory.sol\":1334:1394  require(tasks[_taskId].id == _taskId, \"Task does not exist\") */\n      tag_318\n      jumpi\n      mload(0x40)\n      0x08c379a000000000000000000000000000000000000000000000000000000000\n      dup2\n      mstore\n      0x04\n      add\n      tag_319\n      swap1\n      tag_89\n      jump\t// in\n    tag_319:\n      mload(0x40)\n      dup1\n      swap2\n      sub\n      swap1\n      revert\n    tag_318:\n        /* \"TaskFactory.sol\":7274:7291  Task storage task */\n      0x00\n        /* \"TaskFactory.sol\":7294:7299  tasks */\n      0x00\n        /* \"TaskFactory.sol\":7294:7308  tasks[_taskId] */\n      0x00\n        /* \"TaskFactory.sol\":7300:7307  _taskId */\n      dup5\n        /* \"TaskFactory.sol\":7294:7308  tasks[_taskId] */\n      dup2\n      mstore\n      0x20\n      add\n      swap1\n      dup2\n      mstore\n      0x20\n      add\n      0x00\n      keccak256\n        /* \"TaskFactory.sol\":7274:7308  Task storage task = tasks[_taskId] */\n      swap1\n      pop\n        /* \"TaskFactory.sol\":7350:7351  0 */\n      0x00\n        /* \"TaskFactory.sol\":7327:7352  task.winner == address(0) */\n      0xffffffffffffffffffffffffffffffffffffffff\n      and\n        /* \"TaskFactory.sol\":7327:7331  task */\n      dup2\n        /* \"TaskFactory.sol\":7327:7338  task.winner */\n      0x05\n      add\n      0x01\n      swap1\n      sload\n      swap1\n      0x0100\n      exp\n      swap1\n      div\n      0xffffffffffffffffffffffffffffffffffffffff\n      and\n        /* \"TaskFactory.sol\":7327:7352  task.winner == address(0) */\n      0xffffffffffffffffffffffffffffffffffffffff\n      and\n      eq\n        /* \"TaskFactory.sol\":7319:7382  require(task.winner == address(0), \"Task already has a winner\") */\n      tag_321\n      jumpi\n      mload(0x40)\n      0x08c379a000000000000000000000000000000000000000000000000000000000\n      dup2\n      mstore\n      0x04\n      add\n      tag_322\n      swap1\n      tag_323\n      jump\t// in\n    tag_322:\n      mload(0x40)\n      dup1\n      swap2\n      sub\n      swap1\n      revert\n    tag_321:\n        /* \"TaskFactory.sol\":7419:7423  task */\n      dup1\n        /* \"TaskFactory.sol\":7419:7432  task.deadline */\n      0x06\n      add\n      sload\n        /* \"TaskFactory.sol\":7401:7416  block.timestamp */\n      timestamp\n        /* \"TaskFactory.sol\":7401:7432  block.timestamp > task.deadline */\n      gt\n        /* \"TaskFactory.sol\":7393:7453  require(block.timestamp > task.deadline, \"Task not expired\") */\n      tag_324\n      jumpi\n      mload(0x40)\n      0x08c379a000000000000000000000000000000000000000000000000000000000\n      dup2\n      mstore\n      0x04\n      add\n      tag_325\n      swap1\n      tag_326\n      jump\t// in\n    tag_325:\n      mload(0x40)\n      dup1\n      swap2\n      sub\n      swap1\n      revert\n    tag_324:\n        /* \"TaskFactory.sol\":7465:7477  bool success */\n      0x00\n        /* \"TaskFactory.sol\":7483:7489  escrow */\n      0x04\n      0x00\n      swap1\n      sload\n      swap1\n      0x0100\n      exp\n      swap1\n      div\n      0xffffffffffffffffffffffffffffffffffffffff\n      and\n        /* \"TaskFactory.sol\":7483:7494  escrow.call */\n      0xffffffffffffffffffffffffffffffffffffffff\n      and\n        /* \"TaskFactory.sol\":7557:7564  _taskId */\n      dup5\n        /* \"TaskFactory.sol\":7509:7565  abi.encodeWithSignature(\"refundFunds(uint256)\", _taskId) */\n      add(0x24, mload(0x40))\n      tag_327\n      swap2\n      swap1\n      tag_65\n      jump\t// in\n    tag_327:\n      mload(0x40)\n      0x20\n      dup2\n      dup4\n      sub\n      sub\n      dup2\n      mstore\n      swap1\n      0x40\n      mstore\n      and(not(0xffffffffffffffffffffffffffffffffffffffffffffffffffffffff), 0x15f1bbfe00000000000000000000000000000000000000000000000000000000)\n      0x20\n      dup3\n      add\n      dup1\n      mload\n      0xffffffffffffffffffffffffffffffffffffffffffffffffffffffff\n      dup4\n      dup2\n      dup4\n      and\n      or\n      dup4\n      mstore\n      pop\n      pop\n      pop\n      pop\n        /* \"TaskFactory.sol\":7483:7576  escrow.call(... */\n      mload(0x40)\n      tag_328\n      swap2\n      swap1\n      tag_100\n      jump\t// in\n    tag_328:\n      0x00\n      mload(0x40)\n      dup1\n      dup4\n      sub\n      dup2\n      0x00\n      dup7\n      gas\n      call\n      swap2\n      pop\n      pop\n      returndatasize\n      dup1\n      0x00\n      dup2\n      eq\n      tag_331\n      jumpi\n      mload(0x40)\n      swap2\n      pop\n      and(add(returndatasize, 0x3f), not(0x1f))\n      dup3\n      add\n      0x40\n      mstore\n      returndatasize\n      dup3\n      mstore\n      returndatasize\n      0x00\n      0x20\n      dup5\n      add\n      returndatacopy\n      jump(tag_330)\n    tag_331:\n      0x60\n      swap2\n      pop\n    tag_330:\n      pop\n        /* \"TaskFactory.sol\":7464:7576  (bool success, ) = escrow.call(... */\n      pop\n      swap1\n      pop\n        /* \"TaskFactory.sol\":7595:7602  success */\n      dup1\n        /* \"TaskFactory.sol\":7587:7627  require(success, \"Escrow refund failed\") */\n      tag_332\n      jumpi\n      mload(0x40)\n      0x08c379a000000000000000000000000000000000000000000000000000000000\n      dup2\n      mstore\n      0x04\n      add\n      tag_333\n      swap1\n      tag_158\n      jump\t// in\n    tag_333:\n      mload(0x40)\n      dup1\n      swap2\n      sub\n      swap1\n      revert\n    tag_332:\n        /* \"TaskFactory.sol\":7645:7650  tasks */\n      0x00\n        /* \"TaskFactory.sol\":7645:7659  tasks[_taskId] */\n      0x00\n        /* \"TaskFactory.sol\":7651:7658  _taskId */\n      dup6\n        /* \"TaskFactory.sol\":7645:7659  tasks[_taskId] */\n      dup2\n      mstore\n      0x20\n      add\n      swap1\n      dup2\n      mstore\n      0x20\n      add\n      0x00\n      keccak256\n      0x00\n        /* \"TaskFactory.sol\":7638:7659  delete tasks[_taskId] */\n      0x00\n      dup3\n      add\n      0x00\n      swap1\n      sstore\n      0x01\n      dup3\n      add\n      0x00\n      tag_334\n      swap2\n      swap1\n      tag_160\n      jump\t// in\n    tag_334:\n      0x02\n      dup3\n      add\n      0x00\n      tag_335\n      swap2\n      swap1\n      tag_160\n      jump\t// in\n    tag_335:\n      0x03\n      dup3\n      add\n      exp(0x0100, 0x00)\n      dup2\n      sload\n      swap1\n      0xffffffffffffffffffffffffffffffffffffffff\n      mul\n      not\n      and\n      swap1\n      sstore\n      0x04\n      dup3\n      add\n      0x00\n      swap1\n      sstore\n      0x05\n      dup3\n      add\n      exp(0x0100, 0x00)\n      dup2\n      sload\n      swap1\n      0xff\n      mul\n      not\n      and\n      swap1\n      sstore\n      0x05\n      dup3\n      add\n      exp(0x0100, 0x01)\n      dup2\n      sload\n      swap1\n      0xffffffffffffffffffffffffffffffffffffffff\n      mul\n      not\n      and\n      swap1\n      sstore\n      0x06\n      dup3\n      add\n      0x00\n      swap1\n      sstore\n      0x07\n      dup3\n      add\n      0x00\n      tag_336\n      swap2\n      swap1\n      tag_163\n      jump\t// in\n    tag_336:\n      pop\n      pop\n        /* \"TaskFactory.sol\":7687:7694  _taskId */\n      dup4\n        /* \"TaskFactory.sol\":7675:7695  TaskRemoved(_taskId) */\n      0x36a2f40cfe61ace5baf26a6e4f86ffa75c62392fde263d354d42e0e718fa4bd1\n      mload(0x40)\n      mload(0x40)\n      dup1\n      swap2\n      sub\n      swap1\n      log2\n        /* \"TaskFactory.sol\":7263:7703  {... */\n      pop\n      pop\n        /* \"TaskFactory.sol\":7190:7703  function removeExpiredTask(uint256 _taskId) external taskExists(_taskId) {... */\n      pop\n      pop\n      jump\t// out\n        /* \"TaskFactory.sol\":795:820  address public disputeDAO */\n    tag_84:\n      0x05\n      0x00\n      swap1\n      sload\n      swap1\n      0x0100\n      exp\n      swap1\n      div\n      0xffffffffffffffffffffffffffffffffffffffff\n      and\n      dup2\n      jump\t// out\n    tag_160:\n      pop\n      dup1\n      sload\n      tag_337\n      swap1\n      tag_165\n      jump\t// in\n    tag_337:\n      0x00\n      dup3\n      sstore\n      dup1\n      0x1f\n      lt\n      tag_339\n      jumpi\n      pop\n      jump(tag_338)\n    tag_339:\n      0x1f\n      add\n      0x20\n      swap1\n      div\n      swap1\n      0x00\n      mstore\n      keccak256(0x00, 0x20)\n      swap1\n      dup2\n      add\n      swap1\n      tag_340\n      swap2\n      swap1\n      tag_341\n      jump\t// in\n    tag_340:\n    tag_338:\n      pop\n      jump\t// out\n    tag_163:\n      pop\n      dup1\n      sload\n      0x00\n      dup3\n      sstore\n      swap1\n      0x00\n      mstore\n      keccak256(0x00, 0x20)\n      swap1\n      dup2\n      add\n      swap1\n      tag_343\n      swap2\n      swap1\n      tag_341\n      jump\t// in\n    tag_343:\n      pop\n      jump\t// out\n    tag_256:\n      dup3\n      dup1\n      sload\n      dup3\n      dup3\n      sstore\n      swap1\n      0x00\n      mstore\n      keccak256(0x00, 0x20)\n      swap1\n      dup2\n      add\n      swap3\n      dup3\n      iszero\n      tag_344\n      jumpi\n      swap2\n      0x20\n      mul\n      dup3\n      add\n    tag_345:\n      dup3\n      dup2\n      gt\n      iszero\n      tag_346\n      jumpi\n      dup3\n      mload\n      dup3\n      exp(0x0100, 0x00)\n      dup2\n      sload\n      dup2\n      0xffffffffffffffffffffffffffffffffffffffff\n      mul\n      not\n      and\n      swap1\n      dup4\n      0xffffffffffffffffffffffffffffffffffffffff\n      and\n      mul\n      or\n      swap1\n      sstore\n      pop\n      swap2\n      0x20\n      add\n      swap2\n      swap1\n      0x01\n      add\n      swap1\n      jump(tag_345)\n    tag_346:\n    tag_344:\n      pop\n      swap1\n      pop\n      tag_347\n      swap2\n      swap1\n      tag_341\n      jump\t// in\n    tag_347:\n      pop\n      swap1\n      jump\t// out\n    tag_341:\n    tag_348:\n      dup1\n      dup3\n      gt\n      iszero\n      tag_349\n      jumpi\n      0x00\n      dup2\n      0x00\n      swap1\n      sstore\n      pop\n      0x01\n      add\n      jump(tag_348)\n    tag_349:\n      pop\n      swap1\n      jump\t// out\n        /* \"#utility.yul\":7:82   */\n    tag_350:\n        /* \"#utility.yul\":40:46   */\n      0x00\n        /* \"#utility.yul\":73:75   */\n      0x40\n        /* \"#utility.yul\":67:76   */\n      mload\n        /* \"#utility.yul\":57:76   */\n      swap1\n      pop\n        /* \"#utility.yul\":7:82   */\n      swap1\n      jump\t// out\n        /* \"#utility.yul\":88:205   */\n    tag_351:\n        /* \"#utility.yul\":197:198   */\n      0x00\n        /* \"#utility.yul\":194:195   */\n      0x00\n        /* \"#utility.yul\":187:199   */\n      revert\n        /* \"#utility.yul\":211:328   */\n    tag_352:\n        /* \"#utility.yul\":320:321   */\n      0x00\n        /* \"#utility.yul\":317:318   */\n      0x00\n        /* \"#utility.yul\":310:322   */\n      revert\n        /* \"#utility.yul\":334:411   */\n    tag_353:\n        /* \"#utility.yul\":371:378   */\n      0x00\n        /* \"#utility.yul\":400:405   */\n      dup2\n        /* \"#utility.yul\":389:405   */\n      swap1\n      pop\n        /* \"#utility.yul\":334:411   */\n      swap2\n      swap1\n      pop\n      jump\t// out\n        /* \"#utility.yul\":417:539   */\n    tag_354:\n        /* \"#utility.yul\":490:514   */\n      tag_453\n        /* \"#utility.yul\":508:513   */\n      dup2\n        /* \"#utility.yul\":490:514   */\n      tag_353\n      jump\t// in\n    tag_453:\n        /* \"#utility.yul\":483:488   */\n      dup2\n        /* \"#utility.yul\":480:515   */\n      eq\n        /* \"#utility.yul\":470:533   */\n      tag_454\n      jumpi\n        /* \"#utility.yul\":529:530   */\n      0x00\n        /* \"#utility.yul\":526:527   */\n      0x00\n        /* \"#utility.yul\":519:531   */\n      revert\n        /* \"#utility.yul\":470:533   */\n    tag_454:\n        /* \"#utility.yul\":417:539   */\n      pop\n      jump\t// out\n        /* \"#utility.yul\":545:684   */\n    tag_355:\n        /* \"#utility.yul\":591:596   */\n      0x00\n        /* \"#utility.yul\":629:635   */\n      dup2\n        /* \"#utility.yul\":616:636   */\n      calldataload\n        /* \"#utility.yul\":607:636   */\n      swap1\n      pop\n        /* \"#utility.yul\":645:678   */\n      tag_456\n        /* \"#utility.yul\":672:677   */\n      dup2\n        /* \"#utility.yul\":645:678   */\n      tag_354\n      jump\t// in\n    tag_456:\n        /* \"#utility.yul\":545:684   */\n      swap3\n      swap2\n      pop\n      pop\n      jump\t// out\n        /* \"#utility.yul\":690:816   */\n    tag_356:\n        /* \"#utility.yul\":727:734   */\n      0x00\n        /* \"#utility.yul\":767:809   */\n      0xffffffffffffffffffffffffffffffffffffffff\n        /* \"#utility.yul\":760:765   */\n      dup3\n        /* \"#utility.yul\":756:810   */\n      and\n        /* \"#utility.yul\":745:810   */\n      swap1\n      pop\n        /* \"#utility.yul\":690:816   */\n      swap2\n      swap1\n      pop\n      jump\t// out\n        /* \"#utility.yul\":822:918   */\n    tag_357:\n        /* \"#utility.yul\":859:866   */\n      0x00\n        /* \"#utility.yul\":888:912   */\n      tag_459\n        /* \"#utility.yul\":906:911   */\n      dup3\n        /* \"#utility.yul\":888:912   */\n      tag_356\n      jump\t// in\n    tag_459:\n        /* \"#utility.yul\":877:912   */\n      swap1\n      pop\n        /* \"#utility.yul\":822:918   */\n      swap2\n      swap1\n      pop\n      jump\t// out\n        /* \"#utility.yul\":924:1046   */\n    tag_358:\n        /* \"#utility.yul\":997:1021   */\n      tag_461\n        /* \"#utility.yul\":1015:1020   */\n      dup2\n        /* \"#utility.yul\":997:1021   */\n      tag_357\n      jump\t// in\n    tag_461:\n        /* \"#utility.yul\":990:995   */\n      dup2\n        /* \"#utility.yul\":987:1022   */\n      eq\n        /* \"#utility.yul\":977:1040   */\n      tag_462\n      jumpi\n        /* \"#utility.yul\":1036:1037   */\n      0x00\n        /* \"#utility.yul\":1033:1034   */\n      0x00\n        /* \"#utility.yul\":1026:1038   */\n      revert\n        /* \"#utility.yul\":977:1040   */\n    tag_462:\n        /* \"#utility.yul\":924:1046   */\n      pop\n      jump\t// out\n        /* \"#utility.yul\":1052:1191   */\n    tag_359:\n        /* \"#utility.yul\":1098:1103   */\n      0x00\n        /* \"#utility.yul\":1136:1142   */\n      dup2\n        /* \"#utility.yul\":1123:1143   */\n      calldataload\n        /* \"#utility.yul\":1114:1143   */\n      swap1\n      pop\n        /* \"#utility.yul\":1152:1185   */\n      tag_464\n        /* \"#utility.yul\":1179:1184   */\n      dup2\n        /* \"#utility.yul\":1152:1185   */\n      tag_358\n      jump\t// in\n    tag_464:\n        /* \"#utility.yul\":1052:1191   */\n      swap3\n      swap2\n      pop\n      pop\n      jump\t// out\n        /* \"#utility.yul\":1197:1671   */\n    tag_23:\n        /* \"#utility.yul\":1265:1271   */\n      0x00\n        /* \"#utility.yul\":1273:1279   */\n      0x00\n        /* \"#utility.yul\":1322:1324   */\n      0x40\n        /* \"#utility.yul\":1310:1319   */\n      dup4\n        /* \"#utility.yul\":1301:1308   */\n      dup6\n        /* \"#utility.yul\":1297:1320   */\n      sub\n        /* \"#utility.yul\":1293:1325   */\n      slt\n        /* \"#utility.yul\":1290:1409   */\n      iszero\n      tag_466\n      jumpi\n        /* \"#utility.yul\":1328:1407   */\n      tag_467\n      tag_351\n      jump\t// in\n    tag_467:\n        /* \"#utility.yul\":1290:1409   */\n    tag_466:\n        /* \"#utility.yul\":1448:1449   */\n      0x00\n        /* \"#utility.yul\":1473:1526   */\n      tag_468\n        /* \"#utility.yul\":1518:1525   */\n      dup6\n        /* \"#utility.yul\":1509:1515   */\n      dup3\n        /* \"#utility.yul\":1498:1507   */\n      dup7\n        /* \"#utility.yul\":1494:1516   */\n      add\n        /* \"#utility.yul\":1473:1526   */\n      tag_355\n      jump\t// in\n    tag_468:\n        /* \"#utility.yul\":1463:1526   */\n      swap3\n      pop\n        /* \"#utility.yul\":1419:1536   */\n      pop\n        /* \"#utility.yul\":1575:1577   */\n      0x20\n        /* \"#utility.yul\":1601:1654   */\n      tag_469\n        /* \"#utility.yul\":1646:1653   */\n      dup6\n        /* \"#utility.yul\":1637:1643   */\n      dup3\n        /* \"#utility.yul\":1626:1635   */\n      dup7\n        /* \"#utility.yul\":1622:1644   */\n      add\n        /* \"#utility.yul\":1601:1654   */\n      tag_359\n      jump\t// in\n    tag_469:\n        /* \"#utility.yul\":1591:1654   */\n      swap2\n      pop\n        /* \"#utility.yul\":1546:1664   */\n      pop\n        /* \"#utility.yul\":1197:1671   */\n      swap3\n      pop\n      swap3\n      swap1\n      pop\n      jump\t// out\n        /* \"#utility.yul\":1677:2006   */\n    tag_28:\n        /* \"#utility.yul\":1736:1742   */\n      0x00\n        /* \"#utility.yul\":1785:1787   */\n      0x20\n        /* \"#utility.yul\":1773:1782   */\n      dup3\n        /* \"#utility.yul\":1764:1771   */\n      dup5\n        /* \"#utility.yul\":1760:1783   */\n      sub\n        /* \"#utility.yul\":1756:1788   */\n      slt\n        /* \"#utility.yul\":1753:1872   */\n      iszero\n      tag_471\n      jumpi\n        /* \"#utility.yul\":1791:1870   */\n      tag_472\n      tag_351\n      jump\t// in\n    tag_472:\n        /* \"#utility.yul\":1753:1872   */\n    tag_471:\n        /* \"#utility.yul\":1911:1912   */\n      0x00\n        /* \"#utility.yul\":1936:1989   */\n      tag_473\n        /* \"#utility.yul\":1981:1988   */\n      dup5\n        /* \"#utility.yul\":1972:1978   */\n      dup3\n        /* \"#utility.yul\":1961:1970   */\n      dup6\n        /* \"#utility.yul\":1957:1979   */\n      add\n        /* \"#utility.yul\":1936:1989   */\n      tag_355\n      jump\t// in\n    tag_473:\n        /* \"#utility.yul\":1926:1989   */\n      swap2\n      pop\n        /* \"#utility.yul\":1882:1999   */\n      pop\n        /* \"#utility.yul\":1677:2006   */\n      swap3\n      swap2\n      pop\n      pop\n      jump\t// out\n        /* \"#utility.yul\":2012:2130   */\n    tag_360:\n        /* \"#utility.yul\":2099:2123   */\n      tag_475\n        /* \"#utility.yul\":2117:2122   */\n      dup2\n        /* \"#utility.yul\":2099:2123   */\n      tag_353\n      jump\t// in\n    tag_475:\n        /* \"#utility.yul\":2094:2097   */\n      dup3\n        /* \"#utility.yul\":2087:2124   */\n      mstore\n        /* \"#utility.yul\":2012:2130   */\n      pop\n      pop\n      jump\t// out\n        /* \"#utility.yul\":2136:2235   */\n    tag_361:\n        /* \"#utility.yul\":2188:2194   */\n      0x00\n        /* \"#utility.yul\":2222:2227   */\n      dup2\n        /* \"#utility.yul\":2216:2228   */\n      mload\n        /* \"#utility.yul\":2206:2228   */\n      swap1\n      pop\n        /* \"#utility.yul\":2136:2235   */\n      swap2\n      swap1\n      pop\n      jump\t// out\n        /* \"#utility.yul\":2241:2410   */\n    tag_362:\n        /* \"#utility.yul\":2325:2336   */\n      0x00\n        /* \"#utility.yul\":2359:2365   */\n      dup3\n        /* \"#utility.yul\":2354:2357   */\n      dup3\n        /* \"#utility.yul\":2347:2366   */\n      mstore\n        /* \"#utility.yul\":2399:2403   */\n      0x20\n        /* \"#utility.yul\":2394:2397   */\n      dup3\n        /* \"#utility.yul\":2390:2404   */\n      add\n        /* \"#utility.yul\":2375:2404   */\n      swap1\n      pop\n        /* \"#utility.yul\":2241:2410   */\n      swap3\n      swap2\n      pop\n      pop\n      jump\t// out\n        /* \"#utility.yul\":2416:2555   */\n    tag_363:\n        /* \"#utility.yul\":2505:2511   */\n      dup3\n        /* \"#utility.yul\":2500:2503   */\n      dup2\n        /* \"#utility.yul\":2495:2498   */\n      dup4\n        /* \"#utility.yul\":2489:2512   */\n      mcopy\n        /* \"#utility.yul\":2546:2547   */\n      0x00\n        /* \"#utility.yul\":2537:2543   */\n      dup4\n        /* \"#utility.yul\":2532:2535   */\n      dup4\n        /* \"#utility.yul\":2528:2544   */\n      add\n        /* \"#utility.yul\":2521:2548   */\n      mstore\n        /* \"#utility.yul\":2416:2555   */\n      pop\n      pop\n      pop\n      jump\t// out\n        /* \"#utility.yul\":2561:2663   */\n    tag_364:\n        /* \"#utility.yul\":2602:2608   */\n      0x00\n        /* \"#utility.yul\":2653:2655   */\n      0x1f\n        /* \"#utility.yul\":2649:2656   */\n      not\n        /* \"#utility.yul\":2644:2646   */\n      0x1f\n        /* \"#utility.yul\":2637:2642   */\n      dup4\n        /* \"#utility.yul\":2633:2647   */\n      add\n        /* \"#utility.yul\":2629:2657   */\n      and\n        /* \"#utility.yul\":2619:2657   */\n      swap1\n      pop\n        /* \"#utility.yul\":2561:2663   */\n      swap2\n      swap1\n      pop\n      jump\t// out\n        /* \"#utility.yul\":2669:3046   */\n    tag_365:\n        /* \"#utility.yul\":2757:2760   */\n      0x00\n        /* \"#utility.yul\":2785:2824   */\n      tag_481\n        /* \"#utility.yul\":2818:2823   */\n      dup3\n        /* \"#utility.yul\":2785:2824   */\n      tag_361\n      jump\t// in\n    tag_481:\n        /* \"#utility.yul\":2840:2911   */\n      tag_482\n        /* \"#utility.yul\":2904:2910   */\n      dup2\n        /* \"#utility.yul\":2899:2902   */\n      dup6\n        /* \"#utility.yul\":2840:2911   */\n      tag_362\n      jump\t// in\n    tag_482:\n        /* \"#utility.yul\":2833:2911   */\n      swap4\n      pop\n        /* \"#utility.yul\":2920:2985   */\n      tag_483\n        /* \"#utility.yul\":2978:2984   */\n      dup2\n        /* \"#utility.yul\":2973:2976   */\n      dup6\n        /* \"#utility.yul\":2966:2970   */\n      0x20\n        /* \"#utility.yul\":2959:2964   */\n      dup7\n        /* \"#utility.yul\":2955:2971   */\n      add\n        /* \"#utility.yul\":2920:2985   */\n      tag_363\n      jump\t// in\n    tag_483:\n        /* \"#utility.yul\":3010:3039   */\n      tag_484\n        /* \"#utility.yul\":3032:3038   */\n      dup2\n        /* \"#utility.yul\":3010:3039   */\n      tag_364\n      jump\t// in\n    tag_484:\n        /* \"#utility.yul\":3005:3008   */\n      dup5\n        /* \"#utility.yul\":3001:3040   */\n      add\n        /* \"#utility.yul\":2994:3040   */\n      swap2\n      pop\n        /* \"#utility.yul\":2761:3046   */\n      pop\n        /* \"#utility.yul\":2669:3046   */\n      swap3\n      swap2\n      pop\n      pop\n      jump\t// out\n        /* \"#utility.yul\":3052:3170   */\n    tag_366:\n        /* \"#utility.yul\":3139:3163   */\n      tag_486\n        /* \"#utility.yul\":3157:3162   */\n      dup2\n        /* \"#utility.yul\":3139:3163   */\n      tag_357\n      jump\t// in\n    tag_486:\n        /* \"#utility.yul\":3134:3137   */\n      dup3\n        /* \"#utility.yul\":3127:3164   */\n      mstore\n        /* \"#utility.yul\":3052:3170   */\n      pop\n      pop\n      jump\t// out\n        /* \"#utility.yul\":3176:3356   */\n    tag_96:\n        /* \"#utility.yul\":3224:3301   */\n      0x4e487b7100000000000000000000000000000000000000000000000000000000\n        /* \"#utility.yul\":3221:3222   */\n      0x00\n        /* \"#utility.yul\":3214:3302   */\n      mstore\n        /* \"#utility.yul\":3321:3325   */\n      0x21\n        /* \"#utility.yul\":3318:3319   */\n      0x04\n        /* \"#utility.yul\":3311:3326   */\n      mstore\n        /* \"#utility.yul\":3345:3349   */\n      0x24\n        /* \"#utility.yul\":3342:3343   */\n      0x00\n        /* \"#utility.yul\":3335:3350   */\n      revert\n        /* \"#utility.yul\":3362:3479   */\n    tag_367:\n        /* \"#utility.yul\":3447:3448   */\n      0x05\n        /* \"#utility.yul\":3440:3445   */\n      dup2\n        /* \"#utility.yul\":3437:3449   */\n      lt\n        /* \"#utility.yul\":3427:3473   */\n      tag_489\n      jumpi\n        /* \"#utility.yul\":3453:3471   */\n      tag_490\n      tag_96\n      jump\t// in\n    tag_490:\n        /* \"#utility.yul\":3427:3473   */\n    tag_489:\n        /* \"#utility.yul\":3362:3479   */\n      pop\n      jump\t// out\n        /* \"#utility.yul\":3485:3620   */\n    tag_368:\n        /* \"#utility.yul\":3534:3541   */\n      0x00\n        /* \"#utility.yul\":3563:3568   */\n      dup2\n        /* \"#utility.yul\":3552:3568   */\n      swap1\n      pop\n        /* \"#utility.yul\":3569:3614   */\n      tag_492\n        /* \"#utility.yul\":3608:3613   */\n      dup3\n        /* \"#utility.yul\":3569:3614   */\n      tag_367\n      jump\t// in\n    tag_492:\n        /* \"#utility.yul\":3485:3620   */\n      swap2\n      swap1\n      pop\n      jump\t// out\n        /* \"#utility.yul\":3626:3761   */\n    tag_369:\n        /* \"#utility.yul\":3686:3695   */\n      0x00\n        /* \"#utility.yul\":3719:3755   */\n      tag_494\n        /* \"#utility.yul\":3749:3754   */\n      dup3\n        /* \"#utility.yul\":3719:3755   */\n      tag_368\n      jump\t// in\n    tag_494:\n        /* \"#utility.yul\":3706:3755   */\n      swap1\n      pop\n        /* \"#utility.yul\":3626:3761   */\n      swap2\n      swap1\n      pop\n      jump\t// out\n        /* \"#utility.yul\":3767:3918   */\n    tag_370:\n        /* \"#utility.yul\":3864:3911   */\n      tag_496\n        /* \"#utility.yul\":3905:3910   */\n      dup2\n        /* \"#utility.yul\":3864:3911   */\n      tag_369\n      jump\t// in\n    tag_496:\n        /* \"#utility.yul\":3859:3862   */\n      dup3\n        /* \"#utility.yul\":3852:3912   */\n      mstore\n        /* \"#utility.yul\":3767:3918   */\n      pop\n      pop\n      jump\t// out\n        /* \"#utility.yul\":3924:5123   */\n    tag_39:\n        /* \"#utility.yul\":4263:4267   */\n      0x00\n        /* \"#utility.yul\":4301:4304   */\n      0x0100\n        /* \"#utility.yul\":4290:4299   */\n      dup3\n        /* \"#utility.yul\":4286:4305   */\n      add\n        /* \"#utility.yul\":4278:4305   */\n      swap1\n      pop\n        /* \"#utility.yul\":4315:4386   */\n      tag_498\n        /* \"#utility.yul\":4383:4384   */\n      0x00\n        /* \"#utility.yul\":4372:4381   */\n      dup4\n        /* \"#utility.yul\":4368:4385   */\n      add\n        /* \"#utility.yul\":4359:4365   */\n      dup12\n        /* \"#utility.yul\":4315:4386   */\n      tag_360\n      jump\t// in\n    tag_498:\n        /* \"#utility.yul\":4433:4442   */\n      dup2\n        /* \"#utility.yul\":4427:4431   */\n      dup2\n        /* \"#utility.yul\":4423:4443   */\n      sub\n        /* \"#utility.yul\":4418:4420   */\n      0x20\n        /* \"#utility.yul\":4407:4416   */\n      dup4\n        /* \"#utility.yul\":4403:4421   */\n      add\n        /* \"#utility.yul\":4396:4444   */\n      mstore\n        /* \"#utility.yul\":4461:4539   */\n      tag_499\n        /* \"#utility.yul\":4534:4538   */\n      dup2\n        /* \"#utility.yul\":4525:4531   */\n      dup11\n        /* \"#utility.yul\":4461:4539   */\n      tag_365\n      jump\t// in\n    tag_499:\n        /* \"#utility.yul\":4453:4539   */\n      swap1\n      pop\n        /* \"#utility.yul\":4586:4595   */\n      dup2\n        /* \"#utility.yul\":4580:4584   */\n      dup2\n        /* \"#utility.yul\":4576:4596   */\n      sub\n        /* \"#utility.yul\":4571:4573   */\n      0x40\n        /* \"#utility.yul\":4560:4569   */\n      dup4\n        /* \"#utility.yul\":4556:4574   */\n      add\n        /* \"#utility.yul\":4549:4597   */\n      mstore\n        /* \"#utility.yul\":4614:4692   */\n      tag_500\n        /* \"#utility.yul\":4687:4691   */\n      dup2\n        /* \"#utility.yul\":4678:4684   */\n      dup10\n        /* \"#utility.yul\":4614:4692   */\n      tag_365\n      jump\t// in\n    tag_500:\n        /* \"#utility.yul\":4606:4692   */\n      swap1\n      pop\n        /* \"#utility.yul\":4702:4774   */\n      tag_501\n        /* \"#utility.yul\":4770:4772   */\n      0x60\n        /* \"#utility.yul\":4759:4768   */\n      dup4\n        /* \"#utility.yul\":4755:4773   */\n      add\n        /* \"#utility.yul\":4746:4752   */\n      dup9\n        /* \"#utility.yul\":4702:4774   */\n      tag_366\n      jump\t// in\n    tag_501:\n        /* \"#utility.yul\":4784:4857   */\n      tag_502\n        /* \"#utility.yul\":4852:4855   */\n      0x80\n        /* \"#utility.yul\":4841:4850   */\n      dup4\n        /* \"#utility.yul\":4837:4856   */\n      add\n        /* \"#utility.yul\":4828:4834   */\n      dup8\n        /* \"#utility.yul\":4784:4857   */\n      tag_360\n      jump\t// in\n    tag_502:\n        /* \"#utility.yul\":4867:4950   */\n      tag_503\n        /* \"#utility.yul\":4945:4948   */\n      0xa0\n        /* \"#utility.yul\":4934:4943   */\n      dup4\n        /* \"#utility.yul\":4930:4949   */\n      add\n        /* \"#utility.yul\":4921:4927   */\n      dup7\n        /* \"#utility.yul\":4867:4950   */\n      tag_370\n      jump\t// in\n    tag_503:\n        /* \"#utility.yul\":4960:5033   */\n      tag_504\n        /* \"#utility.yul\":5028:5031   */\n      0xc0\n        /* \"#utility.yul\":5017:5026   */\n      dup4\n        /* \"#utility.yul\":5013:5032   */\n      add\n        /* \"#utility.yul\":5004:5010   */\n      dup6\n        /* \"#utility.yul\":4960:5033   */\n      tag_366\n      jump\t// in\n    tag_504:\n        /* \"#utility.yul\":5043:5116   */\n      tag_505\n        /* \"#utility.yul\":5111:5114   */\n      0xe0\n        /* \"#utility.yul\":5100:5109   */\n      dup4\n        /* \"#utility.yul\":5096:5115   */\n      add\n        /* \"#utility.yul\":5087:5093   */\n      dup5\n        /* \"#utility.yul\":5043:5116   */\n      tag_360\n      jump\t// in\n    tag_505:\n        /* \"#utility.yul\":3924:5123   */\n      swap10\n      swap9\n      pop\n      pop\n      pop\n      pop\n      pop\n      pop\n      pop\n      pop\n      pop\n      jump\t// out\n        /* \"#utility.yul\":5129:5351   */\n    tag_44:\n        /* \"#utility.yul\":5222:5226   */\n      0x00\n        /* \"#utility.yul\":5260:5262   */\n      0x20\n        /* \"#utility.yul\":5249:5258   */\n      dup3\n        /* \"#utility.yul\":5245:5263   */\n      add\n        /* \"#utility.yul\":5237:5263   */\n      swap1\n      pop\n        /* \"#utility.yul\":5273:5344   */\n      tag_507\n        /* \"#utility.yul\":5341:5342   */\n      0x00\n        /* \"#utility.yul\":5330:5339   */\n      dup4\n        /* \"#utility.yul\":5326:5343   */\n      add\n        /* \"#utility.yul\":5317:5323   */\n      dup5\n        /* \"#utility.yul\":5273:5344   */\n      tag_366\n      jump\t// in\n    tag_507:\n        /* \"#utility.yul\":5129:5351   */\n      swap3\n      swap2\n      pop\n      pop\n      jump\t// out\n        /* \"#utility.yul\":5357:5474   */\n    tag_371:\n        /* \"#utility.yul\":5466:5467   */\n      0x00\n        /* \"#utility.yul\":5463:5464   */\n      0x00\n        /* \"#utility.yul\":5456:5468   */\n      revert\n        /* \"#utility.yul\":5480:5597   */\n    tag_372:\n        /* \"#utility.yul\":5589:5590   */\n      0x00\n        /* \"#utility.yul\":5586:5587   */\n      0x00\n        /* \"#utility.yul\":5579:5591   */\n      revert\n        /* \"#utility.yul\":5603:5783   */\n    tag_248:\n        /* \"#utility.yul\":5651:5728   */\n      0x4e487b7100000000000000000000000000000000000000000000000000000000\n        /* \"#utility.yul\":5648:5649   */\n      0x00\n        /* \"#utility.yul\":5641:5729   */\n      mstore\n        /* \"#utility.yul\":5748:5752   */\n      0x41\n        /* \"#utility.yul\":5745:5746   */\n      0x04\n        /* \"#utility.yul\":5738:5753   */\n      mstore\n        /* \"#utility.yul\":5772:5776   */\n      0x24\n        /* \"#utility.yul\":5769:5770   */\n      0x00\n        /* \"#utility.yul\":5762:5777   */\n      revert\n        /* \"#utility.yul\":5789:6070   */\n    tag_373:\n        /* \"#utility.yul\":5872:5899   */\n      tag_512\n        /* \"#utility.yul\":5894:5898   */\n      dup3\n        /* \"#utility.yul\":5872:5899   */\n      tag_364\n      jump\t// in\n    tag_512:\n        /* \"#utility.yul\":5864:5870   */\n      dup2\n        /* \"#utility.yul\":5860:5900   */\n      add\n        /* \"#utility.yul\":6002:6008   */\n      dup2\n        /* \"#utility.yul\":5990:6000   */\n      dup2\n        /* \"#utility.yul\":5987:6009   */\n      lt\n        /* \"#utility.yul\":5966:5984   */\n      0xffffffffffffffff\n        /* \"#utility.yul\":5954:5964   */\n      dup3\n        /* \"#utility.yul\":5951:5985   */\n      gt\n        /* \"#utility.yul\":5948:6010   */\n      or\n        /* \"#utility.yul\":5945:6033   */\n      iszero\n      tag_513\n      jumpi\n        /* \"#utility.yul\":6013:6031   */\n      tag_514\n      tag_248\n      jump\t// in\n    tag_514:\n        /* \"#utility.yul\":5945:6033   */\n    tag_513:\n        /* \"#utility.yul\":6053:6063   */\n      dup1\n        /* \"#utility.yul\":6049:6051   */\n      0x40\n        /* \"#utility.yul\":6042:6064   */\n      mstore\n        /* \"#utility.yul\":5832:6070   */\n      pop\n        /* \"#utility.yul\":5789:6070   */\n      pop\n      pop\n      jump\t// out\n        /* \"#utility.yul\":6076:6205   */\n    tag_374:\n        /* \"#utility.yul\":6110:6116   */\n      0x00\n        /* \"#utility.yul\":6137:6157   */\n      tag_516\n      tag_350\n      jump\t// in\n    tag_516:\n        /* \"#utility.yul\":6127:6157   */\n      swap1\n      pop\n        /* \"#utility.yul\":6166:6199   */\n      tag_517\n        /* \"#utility.yul\":6194:6198   */\n      dup3\n        /* \"#utility.yul\":6186:6192   */\n      dup3\n        /* \"#utility.yul\":6166:6199   */\n      tag_373\n      jump\t// in\n    tag_517:\n        /* \"#utility.yul\":6076:6205   */\n      swap2\n      swap1\n      pop\n      jump\t// out\n        /* \"#utility.yul\":6211:6519   */\n    tag_375:\n        /* \"#utility.yul\":6273:6277   */\n      0x00\n        /* \"#utility.yul\":6363:6381   */\n      0xffffffffffffffff\n        /* \"#utility.yul\":6355:6361   */\n      dup3\n        /* \"#utility.yul\":6352:6382   */\n      gt\n        /* \"#utility.yul\":6349:6405   */\n      iszero\n      tag_519\n      jumpi\n        /* \"#utility.yul\":6385:6403   */\n      tag_520\n      tag_248\n      jump\t// in\n    tag_520:\n        /* \"#utility.yul\":6349:6405   */\n    tag_519:\n        /* \"#utility.yul\":6423:6452   */\n      tag_521\n        /* \"#utility.yul\":6445:6451   */\n      dup3\n        /* \"#utility.yul\":6423:6452   */\n      tag_364\n      jump\t// in\n    tag_521:\n        /* \"#utility.yul\":6415:6452   */\n      swap1\n      pop\n        /* \"#utility.yul\":6507:6511   */\n      0x20\n        /* \"#utility.yul\":6501:6505   */\n      dup2\n        /* \"#utility.yul\":6497:6512   */\n      add\n        /* \"#utility.yul\":6489:6512   */\n      swap1\n      pop\n        /* \"#utility.yul\":6211:6519   */\n      swap2\n      swap1\n      pop\n      jump\t// out\n        /* \"#utility.yul\":6525:6673   */\n    tag_376:\n        /* \"#utility.yul\":6623:6629   */\n      dup3\n        /* \"#utility.yul\":6618:6621   */\n      dup2\n        /* \"#utility.yul\":6613:6616   */\n      dup4\n        /* \"#utility.yul\":6600:6630   */\n      calldatacopy\n        /* \"#utility.yul\":6664:6665   */\n      0x00\n        /* \"#utility.yul\":6655:6661   */\n      dup4\n        /* \"#utility.yul\":6650:6653   */\n      dup4\n        /* \"#utility.yul\":6646:6662   */\n      add\n        /* \"#utility.yul\":6639:6666   */\n      mstore\n        /* \"#utility.yul\":6525:6673   */\n      pop\n      pop\n      pop\n      jump\t// out\n        /* \"#utility.yul\":6679:7104   */\n    tag_377:\n        /* \"#utility.yul\":6757:6762   */\n      0x00\n        /* \"#utility.yul\":6782:6848   */\n      tag_524\n        /* \"#utility.yul\":6798:6847   */\n      tag_525\n        /* \"#utility.yul\":6840:6846   */\n      dup5\n        /* \"#utility.yul\":6798:6847   */\n      tag_375\n      jump\t// in\n    tag_525:\n        /* \"#utility.yul\":6782:6848   */\n      tag_374\n      jump\t// in\n    tag_524:\n        /* \"#utility.yul\":6773:6848   */\n      swap1\n      pop\n        /* \"#utility.yul\":6871:6877   */\n      dup3\n        /* \"#utility.yul\":6864:6869   */\n      dup2\n        /* \"#utility.yul\":6857:6878   */\n      mstore\n        /* \"#utility.yul\":6909:6913   */\n      0x20\n        /* \"#utility.yul\":6902:6907   */\n      dup2\n        /* \"#utility.yul\":6898:6914   */\n      add\n        /* \"#utility.yul\":6947:6950   */\n      dup5\n        /* \"#utility.yul\":6938:6944   */\n      dup5\n        /* \"#utility.yul\":6933:6936   */\n      dup5\n        /* \"#utility.yul\":6929:6945   */\n      add\n        /* \"#utility.yul\":6926:6951   */\n      gt\n        /* \"#utility.yul\":6923:7035   */\n      iszero\n      tag_526\n      jumpi\n        /* \"#utility.yul\":6954:7033   */\n      tag_527\n      tag_372\n      jump\t// in\n    tag_527:\n        /* \"#utility.yul\":6923:7035   */\n    tag_526:\n        /* \"#utility.yul\":7044:7098   */\n      tag_528\n        /* \"#utility.yul\":7091:7097   */\n      dup5\n        /* \"#utility.yul\":7086:7089   */\n      dup3\n        /* \"#utility.yul\":7081:7084   */\n      dup6\n        /* \"#utility.yul\":7044:7098   */\n      tag_376\n      jump\t// in\n    tag_528:\n        /* \"#utility.yul\":6763:7104   */\n      pop\n        /* \"#utility.yul\":6679:7104   */\n      swap4\n      swap3\n      pop\n      pop\n      pop\n      jump\t// out\n        /* \"#utility.yul\":7124:7464   */\n    tag_378:\n        /* \"#utility.yul\":7180:7185   */\n      0x00\n        /* \"#utility.yul\":7229:7232   */\n      dup3\n        /* \"#utility.yul\":7222:7226   */\n      0x1f\n        /* \"#utility.yul\":7214:7220   */\n      dup4\n        /* \"#utility.yul\":7210:7227   */\n      add\n        /* \"#utility.yul\":7206:7233   */\n      slt\n        /* \"#utility.yul\":7196:7318   */\n      tag_530\n      jumpi\n        /* \"#utility.yul\":7237:7316   */\n      tag_531\n      tag_371\n      jump\t// in\n    tag_531:\n        /* \"#utility.yul\":7196:7318   */\n    tag_530:\n        /* \"#utility.yul\":7354:7360   */\n      dup2\n        /* \"#utility.yul\":7341:7361   */\n      calldataload\n        /* \"#utility.yul\":7379:7458   */\n      tag_532\n        /* \"#utility.yul\":7454:7457   */\n      dup5\n        /* \"#utility.yul\":7446:7452   */\n      dup3\n        /* \"#utility.yul\":7439:7443   */\n      0x20\n        /* \"#utility.yul\":7431:7437   */\n      dup7\n        /* \"#utility.yul\":7427:7444   */\n      add\n        /* \"#utility.yul\":7379:7458   */\n      tag_377\n      jump\t// in\n    tag_532:\n        /* \"#utility.yul\":7370:7458   */\n      swap2\n      pop\n        /* \"#utility.yul\":7186:7464   */\n      pop\n        /* \"#utility.yul\":7124:7464   */\n      swap3\n      swap2\n      pop\n      pop\n      jump\t// out\n        /* \"#utility.yul\":7470:8595   */\n    tag_55:\n        /* \"#utility.yul\":7576:7582   */\n      0x00\n        /* \"#utility.yul\":7584:7590   */\n      0x00\n        /* \"#utility.yul\":7592:7598   */\n      0x00\n        /* \"#utility.yul\":7600:7606   */\n      0x00\n        /* \"#utility.yul\":7649:7652   */\n      0x80\n        /* \"#utility.yul\":7637:7646   */\n      dup6\n        /* \"#utility.yul\":7628:7635   */\n      dup8\n        /* \"#utility.yul\":7624:7647   */\n      sub\n        /* \"#utility.yul\":7620:7653   */\n      slt\n        /* \"#utility.yul\":7617:7737   */\n      iszero\n      tag_534\n      jumpi\n        /* \"#utility.yul\":7656:7735   */\n      tag_535\n      tag_351\n      jump\t// in\n    tag_535:\n        /* \"#utility.yul\":7617:7737   */\n    tag_534:\n        /* \"#utility.yul\":7804:7805   */\n      0x00\n        /* \"#utility.yul\":7793:7802   */\n      dup6\n        /* \"#utility.yul\":7789:7806   */\n      add\n        /* \"#utility.yul\":7776:7807   */\n      calldataload\n        /* \"#utility.yul\":7834:7852   */\n      0xffffffffffffffff\n        /* \"#utility.yul\":7826:7832   */\n      dup2\n        /* \"#utility.yul\":7823:7853   */\n      gt\n        /* \"#utility.yul\":7820:7937   */\n      iszero\n      tag_536\n      jumpi\n        /* \"#utility.yul\":7856:7935   */\n      tag_537\n      tag_352\n      jump\t// in\n    tag_537:\n        /* \"#utility.yul\":7820:7937   */\n    tag_536:\n        /* \"#utility.yul\":7961:8024   */\n      tag_538\n        /* \"#utility.yul\":8016:8023   */\n      dup8\n        /* \"#utility.yul\":8007:8013   */\n      dup3\n        /* \"#utility.yul\":7996:8005   */\n      dup9\n        /* \"#utility.yul\":7992:8014   */\n      add\n        /* \"#utility.yul\":7961:8024   */\n      tag_378\n      jump\t// in\n    tag_538:\n        /* \"#utility.yul\":7951:8024   */\n      swap5\n      pop\n        /* \"#utility.yul\":7747:8034   */\n      pop\n        /* \"#utility.yul\":8101:8103   */\n      0x20\n        /* \"#utility.yul\":8090:8099   */\n      dup6\n        /* \"#utility.yul\":8086:8104   */\n      add\n        /* \"#utility.yul\":8073:8105   */\n      calldataload\n        /* \"#utility.yul\":8132:8150   */\n      0xffffffffffffffff\n        /* \"#utility.yul\":8124:8130   */\n      dup2\n        /* \"#utility.yul\":8121:8151   */\n      gt\n        /* \"#utility.yul\":8118:8235   */\n      iszero\n      tag_539\n      jumpi\n        /* \"#utility.yul\":8154:8233   */\n      tag_540\n      tag_352\n      jump\t// in\n    tag_540:\n        /* \"#utility.yul\":8118:8235   */\n    tag_539:\n        /* \"#utility.yul\":8259:8322   */\n      tag_541\n        /* \"#utility.yul\":8314:8321   */\n      dup8\n        /* \"#utility.yul\":8305:8311   */\n      dup3\n        /* \"#utility.yul\":8294:8303   */\n      dup9\n        /* \"#utility.yul\":8290:8312   */\n      add\n        /* \"#utility.yul\":8259:8322   */\n      tag_378\n      jump\t// in\n    tag_541:\n        /* \"#utility.yul\":8249:8322   */\n      swap4\n      pop\n        /* \"#utility.yul\":8044:8332   */\n      pop\n        /* \"#utility.yul\":8371:8373   */\n      0x40\n        /* \"#utility.yul\":8397:8450   */\n      tag_542\n        /* \"#utility.yul\":8442:8449   */\n      dup8\n        /* \"#utility.yul\":8433:8439   */\n      dup3\n        /* \"#utility.yul\":8422:8431   */\n      dup9\n        /* \"#utility.yul\":8418:8440   */\n      add\n        /* \"#utility.yul\":8397:8450   */\n      tag_355\n      jump\t// in\n    tag_542:\n        /* \"#utility.yul\":8387:8450   */\n      swap3\n      pop\n        /* \"#utility.yul\":8342:8460   */\n      pop\n        /* \"#utility.yul\":8499:8501   */\n      0x60\n        /* \"#utility.yul\":8525:8578   */\n      tag_543\n        /* \"#utility.yul\":8570:8577   */\n      dup8\n        /* \"#utility.yul\":8561:8567   */\n      dup3\n        /* \"#utility.yul\":8550:8559   */\n      dup9\n        /* \"#utility.yul\":8546:8568   */\n      add\n        /* \"#utility.yul\":8525:8578   */\n      tag_355\n      jump\t// in\n    tag_543:\n        /* \"#utility.yul\":8515:8578   */\n      swap2\n      pop\n        /* \"#utility.yul\":8470:8588   */\n      pop\n        /* \"#utility.yul\":7470:8595   */\n      swap3\n      swap6\n      swap2\n      swap5\n      pop\n      swap3\n      pop\n      jump\t// out\n        /* \"#utility.yul\":8601:8823   */\n    tag_65:\n        /* \"#utility.yul\":8694:8698   */\n      0x00\n        /* \"#utility.yul\":8732:8734   */\n      0x20\n        /* \"#utility.yul\":8721:8730   */\n      dup3\n        /* \"#utility.yul\":8717:8735   */\n      add\n        /* \"#utility.yul\":8709:8735   */\n      swap1\n      pop\n        /* \"#utility.yul\":8745:8816   */\n      tag_545\n        /* \"#utility.yul\":8813:8814   */\n      0x00\n        /* \"#utility.yul\":8802:8811   */\n      dup4\n        /* \"#utility.yul\":8798:8815   */\n      add\n        /* \"#utility.yul\":8789:8795   */\n      dup5\n        /* \"#utility.yul\":8745:8816   */\n      tag_360\n      jump\t// in\n    tag_545:\n        /* \"#utility.yul\":8601:8823   */\n      swap3\n      swap2\n      pop\n      pop\n      jump\t// out\n        /* \"#utility.yul\":8829:8998   */\n    tag_379:\n        /* \"#utility.yul\":8969:8990   */\n      0x5461736b20646f6573206e6f7420657869737400000000000000000000000000\n        /* \"#utility.yul\":8965:8966   */\n      0x00\n        /* \"#utility.yul\":8957:8963   */\n      dup3\n        /* \"#utility.yul\":8953:8967   */\n      add\n        /* \"#utility.yul\":8946:8991   */\n      mstore\n        /* \"#utility.yul\":8829:8998   */\n      pop\n      jump\t// out\n        /* \"#utility.yul\":9004:9370   */\n    tag_380:\n        /* \"#utility.yul\":9146:9149   */\n      0x00\n        /* \"#utility.yul\":9167:9234   */\n      tag_548\n        /* \"#utility.yul\":9231:9233   */\n      0x13\n        /* \"#utility.yul\":9226:9229   */\n      dup4\n        /* \"#utility.yul\":9167:9234   */\n      tag_362\n      jump\t// in\n    tag_548:\n        /* \"#utility.yul\":9160:9234   */\n      swap2\n      pop\n        /* \"#utility.yul\":9243:9336   */\n      tag_549\n        /* \"#utility.yul\":9332:9335   */\n      dup3\n        /* \"#utility.yul\":9243:9336   */\n      tag_379\n      jump\t// in\n    tag_549:\n        /* \"#utility.yul\":9361:9363   */\n      0x20\n        /* \"#utility.yul\":9356:9359   */\n      dup3\n        /* \"#utility.yul\":9352:9364   */\n      add\n        /* \"#utility.yul\":9345:9364   */\n      swap1\n      pop\n        /* \"#utility.yul\":9004:9370   */\n      swap2\n      swap1\n      pop\n      jump\t// out\n        /* \"#utility.yul\":9376:9795   */\n    tag_89:\n        /* \"#utility.yul\":9542:9546   */\n      0x00\n        /* \"#utility.yul\":9580:9582   */\n      0x20\n        /* \"#utility.yul\":9569:9578   */\n      dup3\n        /* \"#utility.yul\":9565:9583   */\n      add\n        /* \"#utility.yul\":9557:9583   */\n      swap1\n      pop\n        /* \"#utility.yul\":9629:9638   */\n      dup2\n        /* \"#utility.yul\":9623:9627   */\n      dup2\n        /* \"#utility.yul\":9619:9639   */\n      sub\n        /* \"#utility.yul\":9615:9616   */\n      0x00\n        /* \"#utility.yul\":9604:9613   */\n      dup4\n        /* \"#utility.yul\":9600:9617   */\n      add\n        /* \"#utility.yul\":9593:9640   */\n      mstore\n        /* \"#utility.yul\":9657:9788   */\n      tag_551\n        /* \"#utility.yul\":9783:9787   */\n      dup2\n        /* \"#utility.yul\":9657:9788   */\n      tag_380\n      jump\t// in\n    tag_551:\n        /* \"#utility.yul\":9649:9788   */\n      swap1\n      pop\n        /* \"#utility.yul\":9376:9795   */\n      swap2\n      swap1\n      pop\n      jump\t// out\n        /* \"#utility.yul\":9801:10024   */\n    tag_381:\n        /* \"#utility.yul\":9941:9975   */\n      0x4f6e6c79204469737075746544414f2063616e207265736f6c76652064697370\n        /* \"#utility.yul\":9937:9938   */\n      0x00\n        /* \"#utility.yul\":9929:9935   */\n      dup3\n        /* \"#utility.yul\":9925:9939   */\n      add\n        /* \"#utility.yul\":9918:9976   */\n      mstore\n        /* \"#utility.yul\":10010:10016   */\n      0x7574657300000000000000000000000000000000000000000000000000000000\n        /* \"#utility.yul\":10005:10007   */\n      0x20\n        /* \"#utility.yul\":9997:10003   */\n      dup3\n        /* \"#utility.yul\":9993:10008   */\n      add\n        /* \"#utility.yul\":9986:10017   */\n      mstore\n        /* \"#utility.yul\":9801:10024   */\n      pop\n      jump\t// out\n        /* \"#utility.yul\":10030:10396   */\n    tag_382:\n        /* \"#utility.yul\":10172:10175   */\n      0x00\n        /* \"#utility.yul\":10193:10260   */\n      tag_554\n        /* \"#utility.yul\":10257:10259   */\n      0x24\n        /* \"#utility.yul\":10252:10255   */\n      dup4\n        /* \"#utility.yul\":10193:10260   */\n      tag_362\n      jump\t// in\n    tag_554:\n        /* \"#utility.yul\":10186:10260   */\n      swap2\n      pop\n        /* \"#utility.yul\":10269:10362   */\n      tag_555\n        /* \"#utility.yul\":10358:10361   */\n      dup3\n        /* \"#utility.yul\":10269:10362   */\n      tag_381\n      jump\t// in\n    tag_555:\n        /* \"#utility.yul\":10387:10389   */\n      0x40\n        /* \"#utility.yul\":10382:10385   */\n      dup3\n        /* \"#utility.yul\":10378:10390   */\n      add\n        /* \"#utility.yul\":10371:10390   */\n      swap1\n      pop\n        /* \"#utility.yul\":10030:10396   */\n      swap2\n      swap1\n      pop\n      jump\t// out\n        /* \"#utility.yul\":10402:10821   */\n    tag_93:\n        /* \"#utility.yul\":10568:10572   */\n      0x00\n        /* \"#utility.yul\":10606:10608   */\n      0x20\n        /* \"#utility.yul\":10595:10604   */\n      dup3\n        /* \"#utility.yul\":10591:10609   */\n      add\n        /* \"#utility.yul\":10583:10609   */\n      swap1\n      pop\n        /* \"#utility.yul\":10655:10664   */\n      dup2\n        /* \"#utility.yul\":10649:10653   */\n      dup2\n        /* \"#utility.yul\":10645:10665   */\n      sub\n        /* \"#utility.yul\":10641:10642   */\n      0x00\n        /* \"#utility.yul\":10630:10639   */\n      dup4\n        /* \"#utility.yul\":10626:10643   */\n      add\n        /* \"#utility.yul\":10619:10666   */\n      mstore\n        /* \"#utility.yul\":10683:10814   */\n      tag_557\n        /* \"#utility.yul\":10809:10813   */\n      dup2\n        /* \"#utility.yul\":10683:10814   */\n      tag_382\n      jump\t// in\n    tag_557:\n        /* \"#utility.yul\":10675:10814   */\n      swap1\n      pop\n        /* \"#utility.yul\":10402:10821   */\n      swap2\n      swap1\n      pop\n      jump\t// out\n        /* \"#utility.yul\":10827:11159   */\n    tag_98:\n        /* \"#utility.yul\":10948:10952   */\n      0x00\n        /* \"#utility.yul\":10986:10988   */\n      0x40\n        /* \"#utility.yul\":10975:10984   */\n      dup3\n        /* \"#utility.yul\":10971:10989   */\n      add\n        /* \"#utility.yul\":10963:10989   */\n      swap1\n      pop\n        /* \"#utility.yul\":10999:11070   */\n      tag_559\n        /* \"#utility.yul\":11067:11068   */\n      0x00\n        /* \"#utility.yul\":11056:11065   */\n      dup4\n        /* \"#utility.yul\":11052:11069   */\n      add\n        /* \"#utility.yul\":11043:11049   */\n      dup6\n        /* \"#utility.yul\":10999:11070   */\n      tag_360\n      jump\t// in\n    tag_559:\n        /* \"#utility.yul\":11080:11152   */\n      tag_560\n        /* \"#utility.yul\":11148:11150   */\n      0x20\n        /* \"#utility.yul\":11137:11146   */\n      dup4\n        /* \"#utility.yul\":11133:11151   */\n      add\n        /* \"#utility.yul\":11124:11130   */\n      dup5\n        /* \"#utility.yul\":11080:11152   */\n      tag_366\n      jump\t// in\n    tag_560:\n        /* \"#utility.yul\":10827:11159   */\n      swap4\n      swap3\n      pop\n      pop\n      pop\n      jump\t// out\n        /* \"#utility.yul\":11165:11263   */\n    tag_383:\n        /* \"#utility.yul\":11216:11222   */\n      0x00\n        /* \"#utility.yul\":11250:11255   */\n      dup2\n        /* \"#utility.yul\":11244:11256   */\n      mload\n        /* \"#utility.yul\":11234:11256   */\n      swap1\n      pop\n        /* \"#utility.yul\":11165:11263   */\n      swap2\n      swap1\n      pop\n      jump\t// out\n        /* \"#utility.yul\":11269:11416   */\n    tag_384:\n        /* \"#utility.yul\":11370:11381   */\n      0x00\n        /* \"#utility.yul\":11407:11410   */\n      dup2\n        /* \"#utility.yul\":11392:11410   */\n      swap1\n      pop\n        /* \"#utility.yul\":11269:11416   */\n      swap3\n      swap2\n      pop\n      pop\n      jump\t// out\n        /* \"#utility.yul\":11422:11808   */\n    tag_385:\n        /* \"#utility.yul\":11526:11529   */\n      0x00\n        /* \"#utility.yul\":11554:11592   */\n      tag_564\n        /* \"#utility.yul\":11586:11591   */\n      dup3\n        /* \"#utility.yul\":11554:11592   */\n      tag_383\n      jump\t// in\n    tag_564:\n        /* \"#utility.yul\":11608:11696   */\n      tag_565\n        /* \"#utility.yul\":11689:11695   */\n      dup2\n        /* \"#utility.yul\":11684:11687   */\n      dup6\n        /* \"#utility.yul\":11608:11696   */\n      tag_384\n      jump\t// in\n    tag_565:\n        /* \"#utility.yul\":11601:11696   */\n      swap4\n      pop\n        /* \"#utility.yul\":11705:11770   */\n      tag_566\n        /* \"#utility.yul\":11763:11769   */\n      dup2\n        /* \"#utility.yul\":11758:11761   */\n      dup6\n        /* \"#utility.yul\":11751:11755   */\n      0x20\n        /* \"#utility.yul\":11744:11749   */\n      dup7\n        /* \"#utility.yul\":11740:11756   */\n      add\n        /* \"#utility.yul\":11705:11770   */\n      tag_363\n      jump\t// in\n    tag_566:\n        /* \"#utility.yul\":11795:11801   */\n      dup1\n        /* \"#utility.yul\":11790:11793   */\n      dup5\n        /* \"#utility.yul\":11786:11802   */\n      add\n        /* \"#utility.yul\":11779:11802   */\n      swap2\n      pop\n        /* \"#utility.yul\":11530:11808   */\n      pop\n        /* \"#utility.yul\":11422:11808   */\n      swap3\n      swap2\n      pop\n      pop\n      jump\t// out\n        /* \"#utility.yul\":11814:12085   */\n    tag_100:\n        /* \"#utility.yul\":11944:11947   */\n      0x00\n        /* \"#utility.yul\":11966:12059   */\n      tag_568\n        /* \"#utility.yul\":12055:12058   */\n      dup3\n        /* \"#utility.yul\":12046:12052   */\n      dup5\n        /* \"#utility.yul\":11966:12059   */\n      tag_385\n      jump\t// in\n    tag_568:\n        /* \"#utility.yul\":11959:12059   */\n      swap2\n      pop\n        /* \"#utility.yul\":12076:12079   */\n      dup2\n        /* \"#utility.yul\":12069:12079   */\n      swap1\n      pop\n        /* \"#utility.yul\":11814:12085   */\n      swap3\n      swap2\n      pop\n      pop\n      jump\t// out\n        /* \"#utility.yul\":12091:12262   */\n    tag_386:\n        /* \"#utility.yul\":12231:12254   */\n      0x457363726f772072656c65617365206661696c65640000000000000000000000\n        /* \"#utility.yul\":12227:12228   */\n      0x00\n        /* \"#utility.yul\":12219:12225   */\n      dup3\n        /* \"#utility.yul\":12215:12229   */\n      add\n        /* \"#utility.yul\":12208:12255   */\n      mstore\n        /* \"#utility.yul\":12091:12262   */\n      pop\n      jump\t// out\n        /* \"#utility.yul\":12268:12634   */\n    tag_387:\n        /* \"#utility.yul\":12410:12413   */\n      0x00\n        /* \"#utility.yul\":12431:12498   */\n      tag_571\n        /* \"#utility.yul\":12495:12497   */\n      0x15\n        /* \"#utility.yul\":12490:12493   */\n      dup4\n        /* \"#utility.yul\":12431:12498   */\n      tag_362\n      jump\t// in\n    tag_571:\n        /* \"#utility.yul\":12424:12498   */\n      swap2\n      pop\n        /* \"#utility.yul\":12507:12600   */\n      tag_572\n        /* \"#utility.yul\":12596:12599   */\n      dup3\n        /* \"#utility.yul\":12507:12600   */\n      tag_386\n      jump\t// in\n    tag_572:\n        /* \"#utility.yul\":12625:12627   */\n      0x20\n        /* \"#utility.yul\":12620:12623   */\n      dup3\n        /* \"#utility.yul\":12616:12628   */\n      add\n        /* \"#utility.yul\":12609:12628   */\n      swap1\n      pop\n        /* \"#utility.yul\":12268:12634   */\n      swap2\n      swap1\n      pop\n      jump\t// out\n        /* \"#utility.yul\":12640:13059   */\n    tag_106:\n        /* \"#utility.yul\":12806:12810   */\n      0x00\n        /* \"#utility.yul\":12844:12846   */\n      0x20\n        /* \"#utility.yul\":12833:12842   */\n      dup3\n        /* \"#utility.yul\":12829:12847   */\n      add\n        /* \"#utility.yul\":12821:12847   */\n      swap1\n      pop\n        /* \"#utility.yul\":12893:12902   */\n      dup2\n        /* \"#utility.yul\":12887:12891   */\n      dup2\n        /* \"#utility.yul\":12883:12903   */\n      sub\n        /* \"#utility.yul\":12879:12880   */\n      0x00\n        /* \"#utility.yul\":12868:12877   */\n      dup4\n        /* \"#utility.yul\":12864:12881   */\n      add\n        /* \"#utility.yul\":12857:12904   */\n      mstore\n        /* \"#utility.yul\":12921:13052   */\n      tag_574\n        /* \"#utility.yul\":13047:13051   */\n      dup2\n        /* \"#utility.yul\":12921:13052   */\n      tag_387\n      jump\t// in\n    tag_574:\n        /* \"#utility.yul\":12913:13052   */\n      swap1\n      pop\n        /* \"#utility.yul\":12640:13059   */\n      swap2\n      swap1\n      pop\n      jump\t// out\n        /* \"#utility.yul\":13065:13417   */\n    tag_108:\n        /* \"#utility.yul\":13196:13200   */\n      0x00\n        /* \"#utility.yul\":13234:13236   */\n      0x40\n        /* \"#utility.yul\":13223:13232   */\n      dup3\n        /* \"#utility.yul\":13219:13237   */\n      add\n        /* \"#utility.yul\":13211:13237   */\n      swap1\n      pop\n        /* \"#utility.yul\":13247:13328   */\n      tag_576\n        /* \"#utility.yul\":13325:13326   */\n      0x00\n        /* \"#utility.yul\":13314:13323   */\n      dup4\n        /* \"#utility.yul\":13310:13327   */\n      add\n        /* \"#utility.yul\":13301:13307   */\n      dup6\n        /* \"#utility.yul\":13247:13328   */\n      tag_370\n      jump\t// in\n    tag_576:\n        /* \"#utility.yul\":13338:13410   */\n      tag_577\n        /* \"#utility.yul\":13406:13408   */\n      0x20\n        /* \"#utility.yul\":13395:13404   */\n      dup4\n        /* \"#utility.yul\":13391:13409   */\n      add\n        /* \"#utility.yul\":13382:13388   */\n      dup5\n        /* \"#utility.yul\":13338:13410   */\n      tag_366\n      jump\t// in\n    tag_577:\n        /* \"#utility.yul\":13065:13417   */\n      swap4\n      swap3\n      pop\n      pop\n      pop\n      jump\t// out\n        /* \"#utility.yul\":13423:13644   */\n    tag_388:\n        /* \"#utility.yul\":13563:13597   */\n      0x5461736b206973206e6f74206f70656e20666f72207061727469636970617469\n        /* \"#utility.yul\":13559:13560   */\n      0x00\n        /* \"#utility.yul\":13551:13557   */\n      dup3\n        /* \"#utility.yul\":13547:13561   */\n      add\n        /* \"#utility.yul\":13540:13598   */\n      mstore\n        /* \"#utility.yul\":13632:13636   */\n      0x6f6e000000000000000000000000000000000000000000000000000000000000\n        /* \"#utility.yul\":13627:13629   */\n      0x20\n        /* \"#utility.yul\":13619:13625   */\n      dup3\n        /* \"#utility.yul\":13615:13630   */\n      add\n        /* \"#utility.yul\":13608:13637   */\n      mstore\n        /* \"#utility.yul\":13423:13644   */\n      pop\n      jump\t// out\n        /* \"#utility.yul\":13650:14016   */\n    tag_389:\n        /* \"#utility.yul\":13792:13795   */\n      0x00\n        /* \"#utility.yul\":13813:13880   */\n      tag_580\n        /* \"#utility.yul\":13877:13879   */\n      0x22\n        /* \"#utility.yul\":13872:13875   */\n      dup4\n        /* \"#utility.yul\":13813:13880   */\n      tag_362\n      jump\t// in\n    tag_580:\n        /* \"#utility.yul\":13806:13880   */\n      swap2\n      pop\n        /* \"#utility.yul\":13889:13982   */\n      tag_581\n        /* \"#utility.yul\":13978:13981   */\n      dup3\n        /* \"#utility.yul\":13889:13982   */\n      tag_388\n      jump\t// in\n    tag_581:\n        /* \"#utility.yul\":14007:14009   */\n      0x40\n        /* \"#utility.yul\":14002:14005   */\n      dup3\n        /* \"#utility.yul\":13998:14010   */\n      add\n        /* \"#utility.yul\":13991:14010   */\n      swap1\n      pop\n        /* \"#utility.yul\":13650:14016   */\n      swap2\n      swap1\n      pop\n      jump\t// out\n        /* \"#utility.yul\":14022:14441   */\n    tag_119:\n        /* \"#utility.yul\":14188:14192   */\n      0x00\n        /* \"#utility.yul\":14226:14228   */\n      0x20\n        /* \"#utility.yul\":14215:14224   */\n      dup3\n        /* \"#utility.yul\":14211:14229   */\n      add\n        /* \"#utility.yul\":14203:14229   */\n      swap1\n      pop\n        /* \"#utility.yul\":14275:14284   */\n      dup2\n        /* \"#utility.yul\":14269:14273   */\n      dup2\n        /* \"#utility.yul\":14265:14285   */\n      sub\n        /* \"#utility.yul\":14261:14262   */\n      0x00\n        /* \"#utility.yul\":14250:14259   */\n      dup4\n        /* \"#utility.yul\":14246:14263   */\n      add\n        /* \"#utility.yul\":14239:14286   */\n      mstore\n        /* \"#utility.yul\":14303:14434   */\n      tag_583\n        /* \"#utility.yul\":14429:14433   */\n      dup2\n        /* \"#utility.yul\":14303:14434   */\n      tag_389\n      jump\t// in\n    tag_583:\n        /* \"#utility.yul\":14295:14434   */\n      swap1\n      pop\n        /* \"#utility.yul\":14022:14441   */\n      swap2\n      swap1\n      pop\n      jump\t// out\n        /* \"#utility.yul\":14447:14627   */\n    tag_125:\n        /* \"#utility.yul\":14495:14572   */\n      0x4e487b7100000000000000000000000000000000000000000000000000000000\n        /* \"#utility.yul\":14492:14493   */\n      0x00\n        /* \"#utility.yul\":14485:14573   */\n      mstore\n        /* \"#utility.yul\":14592:14596   */\n      0x32\n        /* \"#utility.yul\":14589:14590   */\n      0x04\n        /* \"#utility.yul\":14582:14597   */\n      mstore\n        /* \"#utility.yul\":14616:14620   */\n      0x24\n        /* \"#utility.yul\":14613:14614   */\n      0x00\n        /* \"#utility.yul\":14606:14621   */\n      revert\n        /* \"#utility.yul\":14633:14803   */\n    tag_390:\n        /* \"#utility.yul\":14773:14795   */\n      0x416c726561647920706172746963697061746564000000000000000000000000\n        /* \"#utility.yul\":14769:14770   */\n      0x00\n        /* \"#utility.yul\":14761:14767   */\n      dup3\n        /* \"#utility.yul\":14757:14771   */\n      add\n        /* \"#utility.yul\":14750:14796   */\n      mstore\n        /* \"#utility.yul\":14633:14803   */\n      pop\n      jump\t// out\n        /* \"#utility.yul\":14809:15175   */\n    tag_391:\n        /* \"#utility.yul\":14951:14954   */\n      0x00\n        /* \"#utility.yul\":14972:15039   */\n      tag_587\n        /* \"#utility.yul\":15036:15038   */\n      0x14\n        /* \"#utility.yul\":15031:15034   */\n      dup4\n        /* \"#utility.yul\":14972:15039   */\n      tag_362\n      jump\t// in\n    tag_587:\n        /* \"#utility.yul\":14965:15039   */\n      swap2\n      pop\n        /* \"#utility.yul\":15048:15141   */\n      tag_588\n        /* \"#utility.yul\":15137:15140   */\n      dup3\n        /* \"#utility.yul\":15048:15141   */\n      tag_390\n      jump\t// in\n    tag_588:\n        /* \"#utility.yul\":15166:15168   */\n      0x20\n        /* \"#utility.yul\":15161:15164   */\n      dup3\n        /* \"#utility.yul\":15157:15169   */\n      add\n        /* \"#utility.yul\":15150:15169   */\n      swap1\n      pop\n        /* \"#utility.yul\":14809:15175   */\n      swap2\n      swap1\n      pop\n      jump\t// out\n        /* \"#utility.yul\":15181:15600   */\n    tag_129:\n        /* \"#utility.yul\":15347:15351   */\n      0x00\n        /* \"#utility.yul\":15385:15387   */\n      0x20\n        /* \"#utility.yul\":15374:15383   */\n      dup3\n        /* \"#utility.yul\":15370:15388   */\n      add\n        /* \"#utility.yul\":15362:15388   */\n      swap1\n      pop\n        /* \"#utility.yul\":15434:15443   */\n      dup2\n        /* \"#utility.yul\":15428:15432   */\n      dup2\n        /* \"#utility.yul\":15424:15444   */\n      sub\n        /* \"#utility.yul\":15420:15421   */\n      0x00\n        /* \"#utility.yul\":15409:15418   */\n      dup4\n        /* \"#utility.yul\":15405:15422   */\n      add\n        /* \"#utility.yul\":15398:15445   */\n      mstore\n        /* \"#utility.yul\":15462:15593   */\n      tag_590\n        /* \"#utility.yul\":15588:15592   */\n      dup2\n        /* \"#utility.yul\":15462:15593   */\n      tag_391\n      jump\t// in\n    tag_590:\n        /* \"#utility.yul\":15454:15593   */\n      swap1\n      pop\n        /* \"#utility.yul\":15181:15600   */\n      swap2\n      swap1\n      pop\n      jump\t// out\n        /* \"#utility.yul\":15606:15780   */\n    tag_392:\n        /* \"#utility.yul\":15746:15772   */\n      0x4f6e6c792063726561746f722063616e206f7065726174650000000000000000\n        /* \"#utility.yul\":15742:15743   */\n      0x00\n        /* \"#utility.yul\":15734:15740   */\n      dup3\n        /* \"#utility.yul\":15730:15744   */\n      add\n        /* \"#utility.yul\":15723:15773   */\n      mstore\n        /* \"#utility.yul\":15606:15780   */\n      pop\n      jump\t// out\n        /* \"#utility.yul\":15786:16152   */\n    tag_393:\n        /* \"#utility.yul\":15928:15931   */\n      0x00\n        /* \"#utility.yul\":15949:16016   */\n      tag_593\n        /* \"#utility.yul\":16013:16015   */\n      0x18\n        /* \"#utility.yul\":16008:16011   */\n      dup4\n        /* \"#utility.yul\":15949:16016   */\n      tag_362\n      jump\t// in\n    tag_593:\n        /* \"#utility.yul\":15942:16016   */\n      swap2\n      pop\n        /* \"#utility.yul\":16025:16118   */\n      tag_594\n        /* \"#utility.yul\":16114:16117   */\n      dup3\n        /* \"#utility.yul\":16025:16118   */\n      tag_392\n      jump\t// in\n    tag_594:\n        /* \"#utility.yul\":16143:16145   */\n      0x20\n        /* \"#utility.yul\":16138:16141   */\n      dup3\n        /* \"#utility.yul\":16134:16146   */\n      add\n        /* \"#utility.yul\":16127:16146   */\n      swap1\n      pop\n        /* \"#utility.yul\":15786:16152   */\n      swap2\n      swap1\n      pop\n      jump\t// out\n        /* \"#utility.yul\":16158:16577   */\n    tag_137:\n        /* \"#utility.yul\":16324:16328   */\n      0x00\n        /* \"#utility.yul\":16362:16364   */\n      0x20\n        /* \"#utility.yul\":16351:16360   */\n      dup3\n        /* \"#utility.yul\":16347:16365   */\n      add\n        /* \"#utility.yul\":16339:16365   */\n      swap1\n      pop\n        /* \"#utility.yul\":16411:16420   */\n      dup2\n        /* \"#utility.yul\":16405:16409   */\n      dup2\n        /* \"#utility.yul\":16401:16421   */\n      sub\n        /* \"#utility.yul\":16397:16398   */\n      0x00\n        /* \"#utility.yul\":16386:16395   */\n      dup4\n        /* \"#utility.yul\":16382:16399   */\n      add\n        /* \"#utility.yul\":16375:16422   */\n      mstore\n        /* \"#utility.yul\":16439:16570   */\n      tag_596\n        /* \"#utility.yul\":16565:16569   */\n      dup2\n        /* \"#utility.yul\":16439:16570   */\n      tag_393\n      jump\t// in\n    tag_596:\n        /* \"#utility.yul\":16431:16570   */\n      swap1\n      pop\n        /* \"#utility.yul\":16158:16577   */\n      swap2\n      swap1\n      pop\n      jump\t// out\n        /* \"#utility.yul\":16583:16757   */\n    tag_394:\n        /* \"#utility.yul\":16723:16749   */\n      0x5461736b2063616e6e6f742062652063616e63656c6c65640000000000000000\n        /* \"#utility.yul\":16719:16720   */\n      0x00\n        /* \"#utility.yul\":16711:16717   */\n      dup3\n        /* \"#utility.yul\":16707:16721   */\n      add\n        /* \"#utility.yul\":16700:16750   */\n      mstore\n        /* \"#utility.yul\":16583:16757   */\n      pop\n      jump\t// out\n        /* \"#utility.yul\":16763:17129   */\n    tag_395:\n        /* \"#utility.yul\":16905:16908   */\n      0x00\n        /* \"#utility.yul\":16926:16993   */\n      tag_599\n        /* \"#utility.yul\":16990:16992   */\n      0x18\n        /* \"#utility.yul\":16985:16988   */\n      dup4\n        /* \"#utility.yul\":16926:16993   */\n      tag_362\n      jump\t// in\n    tag_599:\n        /* \"#utility.yul\":16919:16993   */\n      swap2\n      pop\n        /* \"#utility.yul\":17002:17095   */\n      tag_600\n        /* \"#utility.yul\":17091:17094   */\n      dup3\n        /* \"#utility.yul\":17002:17095   */\n      tag_394\n      jump\t// in\n    tag_600:\n        /* \"#utility.yul\":17120:17122   */\n      0x20\n        /* \"#utility.yul\":17115:17118   */\n      dup3\n        /* \"#utility.yul\":17111:17123   */\n      add\n        /* \"#utility.yul\":17104:17123   */\n      swap1\n      pop\n        /* \"#utility.yul\":16763:17129   */\n      swap2\n      swap1\n      pop\n      jump\t// out\n        /* \"#utility.yul\":17135:17554   */\n    tag_150:\n        /* \"#utility.yul\":17301:17305   */\n      0x00\n        /* \"#utility.yul\":17339:17341   */\n      0x20\n        /* \"#utility.yul\":17328:17337   */\n      dup3\n        /* \"#utility.yul\":17324:17342   */\n      add\n        /* \"#utility.yul\":17316:17342   */\n      swap1\n      pop\n        /* \"#utility.yul\":17388:17397   */\n      dup2\n        /* \"#utility.yul\":17382:17386   */\n      dup2\n        /* \"#utility.yul\":17378:17398   */\n      sub\n        /* \"#utility.yul\":17374:17375   */\n      0x00\n        /* \"#utility.yul\":17363:17372   */\n      dup4\n        /* \"#utility.yul\":17359:17376   */\n      add\n        /* \"#utility.yul\":17352:17399   */\n      mstore\n        /* \"#utility.yul\":17416:17547   */\n      tag_602\n        /* \"#utility.yul\":17542:17546   */\n      dup2\n        /* \"#utility.yul\":17416:17547   */\n      tag_395\n      jump\t// in\n    tag_602:\n        /* \"#utility.yul\":17408:17547   */\n      swap1\n      pop\n        /* \"#utility.yul\":17135:17554   */\n      swap2\n      swap1\n      pop\n      jump\t// out\n        /* \"#utility.yul\":17560:17730   */\n    tag_396:\n        /* \"#utility.yul\":17700:17722   */\n      0x457363726f7720726566756e64206661696c6564000000000000000000000000\n        /* \"#utility.yul\":17696:17697   */\n      0x00\n        /* \"#utility.yul\":17688:17694   */\n      dup3\n        /* \"#utility.yul\":17684:17698   */\n      add\n        /* \"#utility.yul\":17677:17723   */\n      mstore\n        /* \"#utility.yul\":17560:17730   */\n      pop\n      jump\t// out\n        /* \"#utility.yul\":17736:18102   */\n    tag_397:\n        /* \"#utility.yul\":17878:17881   */\n      0x00\n        /* \"#utility.yul\":17899:17966   */\n      tag_605\n        /* \"#utility.yul\":17963:17965   */\n      0x14\n        /* \"#utility.yul\":17958:17961   */\n      dup4\n        /* \"#utility.yul\":17899:17966   */\n      tag_362\n      jump\t// in\n    tag_605:\n        /* \"#utility.yul\":17892:17966   */\n      swap2\n      pop\n        /* \"#utility.yul\":17975:18068   */\n      tag_606\n        /* \"#utility.yul\":18064:18067   */\n      dup3\n        /* \"#utility.yul\":17975:18068   */\n      tag_396\n      jump\t// in\n    tag_606:\n        /* \"#utility.yul\":18093:18095   */\n      0x20\n        /* \"#utility.yul\":18088:18091   */\n      dup3\n        /* \"#utility.yul\":18084:18096   */\n      add\n        /* \"#utility.yul\":18077:18096   */\n      swap1\n      pop\n        /* \"#utility.yul\":17736:18102   */\n      swap2\n      swap1\n      pop\n      jump\t// out\n        /* \"#utility.yul\":18108:18527   */\n    tag_158:\n        /* \"#utility.yul\":18274:18278   */\n      0x00\n        /* \"#utility.yul\":18312:18314   */\n      0x20\n        /* \"#utility.yul\":18301:18310   */\n      dup3\n        /* \"#utility.yul\":18297:18315   */\n      add\n        /* \"#utility.yul\":18289:18315   */\n      swap1\n      pop\n        /* \"#utility.yul\":18361:18370   */\n      dup2\n        /* \"#utility.yul\":18355:18359   */\n      dup2\n        /* \"#utility.yul\":18351:18371   */\n      sub\n        /* \"#utility.yul\":18347:18348   */\n      0x00\n        /* \"#utility.yul\":18336:18345   */\n      dup4\n        /* \"#utility.yul\":18332:18349   */\n      add\n        /* \"#utility.yul\":18325:18372   */\n      mstore\n        /* \"#utility.yul\":18389:18520   */\n      tag_608\n        /* \"#utility.yul\":18515:18519   */\n      dup2\n        /* \"#utility.yul\":18389:18520   */\n      tag_397\n      jump\t// in\n    tag_608:\n        /* \"#utility.yul\":18381:18520   */\n      swap1\n      pop\n        /* \"#utility.yul\":18108:18527   */\n      swap2\n      swap1\n      pop\n      jump\t// out\n        /* \"#utility.yul\":18533:18713   */\n    tag_398:\n        /* \"#utility.yul\":18581:18658   */\n      0x4e487b7100000000000000000000000000000000000000000000000000000000\n        /* \"#utility.yul\":18578:18579   */\n      0x00\n        /* \"#utility.yul\":18571:18659   */\n      mstore\n        /* \"#utility.yul\":18678:18682   */\n      0x22\n        /* \"#utility.yul\":18675:18676   */\n      0x04\n        /* \"#utility.yul\":18668:18683   */\n      mstore\n        /* \"#utility.yul\":18702:18706   */\n      0x24\n        /* \"#utility.yul\":18699:18700   */\n      0x00\n        /* \"#utility.yul\":18692:18707   */\n      revert\n        /* \"#utility.yul\":18719:19039   */\n    tag_165:\n        /* \"#utility.yul\":18763:18769   */\n      0x00\n        /* \"#utility.yul\":18800:18801   */\n      0x02\n        /* \"#utility.yul\":18794:18798   */\n      dup3\n        /* \"#utility.yul\":18790:18802   */\n      div\n        /* \"#utility.yul\":18780:18802   */\n      swap1\n      pop\n        /* \"#utility.yul\":18847:18848   */\n      0x01\n        /* \"#utility.yul\":18841:18845   */\n      dup3\n        /* \"#utility.yul\":18837:18849   */\n      and\n        /* \"#utility.yul\":18868:18886   */\n      dup1\n        /* \"#utility.yul\":18858:18939   */\n      tag_611\n      jumpi\n        /* \"#utility.yul\":18924:18928   */\n      0x7f\n        /* \"#utility.yul\":18916:18922   */\n      dup3\n        /* \"#utility.yul\":18912:18929   */\n      and\n        /* \"#utility.yul\":18902:18929   */\n      swap2\n      pop\n        /* \"#utility.yul\":18858:18939   */\n    tag_611:\n        /* \"#utility.yul\":18986:18988   */\n      0x20\n        /* \"#utility.yul\":18978:18984   */\n      dup3\n        /* \"#utility.yul\":18975:18989   */\n      lt\n        /* \"#utility.yul\":18955:18973   */\n      dup2\n        /* \"#utility.yul\":18952:18990   */\n      sub\n        /* \"#utility.yul\":18949:19033   */\n      tag_612\n      jumpi\n        /* \"#utility.yul\":19005:19023   */\n      tag_613\n      tag_398\n      jump\t// in\n    tag_613:\n        /* \"#utility.yul\":18949:19033   */\n    tag_612:\n        /* \"#utility.yul\":18770:19039   */\n      pop\n        /* \"#utility.yul\":18719:19039   */\n      swap2\n      swap1\n      pop\n      jump\t// out\n        /* \"#utility.yul\":19045:19266   */\n    tag_399:\n        /* \"#utility.yul\":19185:19219   */\n      0x4f6e6c792077696e6e6572206f722063726561746f722063616e206469737075\n        /* \"#utility.yul\":19181:19182   */\n      0x00\n        /* \"#utility.yul\":19173:19179   */\n      dup3\n        /* \"#utility.yul\":19169:19183   */\n      add\n        /* \"#utility.yul\":19162:19220   */\n      mstore\n        /* \"#utility.yul\":19254:19258   */\n      0x7465000000000000000000000000000000000000000000000000000000000000\n        /* \"#utility.yul\":19249:19251   */\n      0x20\n        /* \"#utility.yul\":19241:19247   */\n      dup3\n        /* \"#utility.yul\":19237:19252   */\n      add\n        /* \"#utility.yul\":19230:19259   */\n      mstore\n        /* \"#utility.yul\":19045:19266   */\n      pop\n      jump\t// out\n        /* \"#utility.yul\":19272:19638   */\n    tag_400:\n        /* \"#utility.yul\":19414:19417   */\n      0x00\n        /* \"#utility.yul\":19435:19502   */\n      tag_616\n        /* \"#utility.yul\":19499:19501   */\n      0x22\n        /* \"#utility.yul\":19494:19497   */\n      dup4\n        /* \"#utility.yul\":19435:19502   */\n      tag_362\n      jump\t// in\n    tag_616:\n        /* \"#utility.yul\":19428:19502   */\n      swap2\n      pop\n        /* \"#utility.yul\":19511:19604   */\n      tag_617\n        /* \"#utility.yul\":19600:19603   */\n      dup3\n        /* \"#utility.yul\":19511:19604   */\n      tag_399\n      jump\t// in\n    tag_617:\n        /* \"#utility.yul\":19629:19631   */\n      0x40\n        /* \"#utility.yul\":19624:19627   */\n      dup3\n        /* \"#utility.yul\":19620:19632   */\n      add\n        /* \"#utility.yul\":19613:19632   */\n      swap1\n      pop\n        /* \"#utility.yul\":19272:19638   */\n      swap2\n      swap1\n      pop\n      jump\t// out\n        /* \"#utility.yul\":19644:20063   */\n    tag_182:\n        /* \"#utility.yul\":19810:19814   */\n      0x00\n        /* \"#utility.yul\":19848:19850   */\n      0x20\n        /* \"#utility.yul\":19837:19846   */\n      dup3\n        /* \"#utility.yul\":19833:19851   */\n      add\n        /* \"#utility.yul\":19825:19851   */\n      swap1\n      pop\n        /* \"#utility.yul\":19897:19906   */\n      dup2\n        /* \"#utility.yul\":19891:19895   */\n      dup2\n        /* \"#utility.yul\":19887:19907   */\n      sub\n        /* \"#utility.yul\":19883:19884   */\n      0x00\n        /* \"#utility.yul\":19872:19881   */\n      dup4\n        /* \"#utility.yul\":19868:19885   */\n      add\n        /* \"#utility.yul\":19861:19908   */\n      mstore\n        /* \"#utility.yul\":19925:20056   */\n      tag_619\n        /* \"#utility.yul\":20051:20055   */\n      dup2\n        /* \"#utility.yul\":19925:20056   */\n      tag_400\n      jump\t// in\n    tag_619:\n        /* \"#utility.yul\":19917:20056   */\n      swap1\n      pop\n        /* \"#utility.yul\":19644:20063   */\n      swap2\n      swap1\n      pop\n      jump\t// out\n        /* \"#utility.yul\":20069:20251   */\n    tag_401:\n        /* \"#utility.yul\":20209:20243   */\n      0x5461736b206973206e6f7420696e20496e50726f677265737320737461747573\n        /* \"#utility.yul\":20205:20206   */\n      0x00\n        /* \"#utility.yul\":20197:20203   */\n      dup3\n        /* \"#utility.yul\":20193:20207   */\n      add\n        /* \"#utility.yul\":20186:20244   */\n      mstore\n        /* \"#utility.yul\":20069:20251   */\n      pop\n      jump\t// out\n        /* \"#utility.yul\":20257:20623   */\n    tag_402:\n        /* \"#utility.yul\":20399:20402   */\n      0x00\n        /* \"#utility.yul\":20420:20487   */\n      tag_622\n        /* \"#utility.yul\":20484:20486   */\n      0x20\n        /* \"#utility.yul\":20479:20482   */\n      dup4\n        /* \"#utility.yul\":20420:20487   */\n      tag_362\n      jump\t// in\n    tag_622:\n        /* \"#utility.yul\":20413:20487   */\n      swap2\n      pop\n        /* \"#utility.yul\":20496:20589   */\n      tag_623\n        /* \"#utility.yul\":20585:20588   */\n      dup3\n        /* \"#utility.yul\":20496:20589   */\n      tag_401\n      jump\t// in\n    tag_623:\n        /* \"#utility.yul\":20614:20616   */\n      0x20\n        /* \"#utility.yul\":20609:20612   */\n      dup3\n        /* \"#utility.yul\":20605:20617   */\n      add\n        /* \"#utility.yul\":20598:20617   */\n      swap1\n      pop\n        /* \"#utility.yul\":20257:20623   */\n      swap2\n      swap1\n      pop\n      jump\t// out\n        /* \"#utility.yul\":20629:21048   */\n    tag_189:\n        /* \"#utility.yul\":20795:20799   */\n      0x00\n        /* \"#utility.yul\":20833:20835   */\n      0x20\n        /* \"#utility.yul\":20822:20831   */\n      dup3\n        /* \"#utility.yul\":20818:20836   */\n      add\n        /* \"#utility.yul\":20810:20836   */\n      swap1\n      pop\n        /* \"#utility.yul\":20882:20891   */\n      dup2\n        /* \"#utility.yul\":20876:20880   */\n      dup2\n        /* \"#utility.yul\":20872:20892   */\n      sub\n        /* \"#utility.yul\":20868:20869   */\n      0x00\n        /* \"#utility.yul\":20857:20866   */\n      dup4\n        /* \"#utility.yul\":20853:20870   */\n      add\n        /* \"#utility.yul\":20846:20893   */\n      mstore\n        /* \"#utility.yul\":20910:21041   */\n      tag_625\n        /* \"#utility.yul\":21036:21040   */\n      dup2\n        /* \"#utility.yul\":20910:21041   */\n      tag_402\n      jump\t// in\n    tag_625:\n        /* \"#utility.yul\":20902:21041   */\n      swap1\n      pop\n        /* \"#utility.yul\":20629:21048   */\n      swap2\n      swap1\n      pop\n      jump\t// out\n        /* \"#utility.yul\":21054:21227   */\n    tag_403:\n        /* \"#utility.yul\":21194:21219   */\n      0x446973707574652068616e646c696e67206661696c6564000000000000000000\n        /* \"#utility.yul\":21190:21191   */\n      0x00\n        /* \"#utility.yul\":21182:21188   */\n      dup3\n        /* \"#utility.yul\":21178:21192   */\n      add\n        /* \"#utility.yul\":21171:21220   */\n      mstore\n        /* \"#utility.yul\":21054:21227   */\n      pop\n      jump\t// out\n        /* \"#utility.yul\":21233:21599   */\n    tag_404:\n        /* \"#utility.yul\":21375:21378   */\n      0x00\n        /* \"#utility.yul\":21396:21463   */\n      tag_628\n        /* \"#utility.yul\":21460:21462   */\n      0x17\n        /* \"#utility.yul\":21455:21458   */\n      dup4\n        /* \"#utility.yul\":21396:21463   */\n      tag_362\n      jump\t// in\n    tag_628:\n        /* \"#utility.yul\":21389:21463   */\n      swap2\n      pop\n        /* \"#utility.yul\":21472:21565   */\n      tag_629\n        /* \"#utility.yul\":21561:21564   */\n      dup3\n        /* \"#utility.yul\":21472:21565   */\n      tag_403\n      jump\t// in\n    tag_629:\n        /* \"#utility.yul\":21590:21592   */\n      0x20\n        /* \"#utility.yul\":21585:21588   */\n      dup3\n        /* \"#utility.yul\":21581:21593   */\n      add\n        /* \"#utility.yul\":21574:21593   */\n      swap1\n      pop\n        /* \"#utility.yul\":21233:21599   */\n      swap2\n      swap1\n      pop\n      jump\t// out\n        /* \"#utility.yul\":21605:22024   */\n    tag_199:\n        /* \"#utility.yul\":21771:21775   */\n      0x00\n        /* \"#utility.yul\":21809:21811   */\n      0x20\n        /* \"#utility.yul\":21798:21807   */\n      dup3\n        /* \"#utility.yul\":21794:21812   */\n      add\n        /* \"#utility.yul\":21786:21812   */\n      swap1\n      pop\n        /* \"#utility.yul\":21858:21867   */\n      dup2\n        /* \"#utility.yul\":21852:21856   */\n      dup2\n        /* \"#utility.yul\":21848:21868   */\n      sub\n        /* \"#utility.yul\":21844:21845   */\n      0x00\n        /* \"#utility.yul\":21833:21842   */\n      dup4\n        /* \"#utility.yul\":21829:21846   */\n      add\n        /* \"#utility.yul\":21822:21869   */\n      mstore\n        /* \"#utility.yul\":21886:22017   */\n      tag_631\n        /* \"#utility.yul\":22012:22016   */\n      dup2\n        /* \"#utility.yul\":21886:22017   */\n      tag_404\n      jump\t// in\n    tag_631:\n        /* \"#utility.yul\":21878:22017   */\n      swap1\n      pop\n        /* \"#utility.yul\":21605:22024   */\n      swap2\n      swap1\n      pop\n      jump\t// out\n        /* \"#utility.yul\":22030:22209   */\n    tag_405:\n        /* \"#utility.yul\":22170:22201   */\n      0x5461736b206973206e6f7420696e204372656174656420737461747573000000\n        /* \"#utility.yul\":22166:22167   */\n      0x00\n        /* \"#utility.yul\":22158:22164   */\n      dup3\n        /* \"#utility.yul\":22154:22168   */\n      add\n        /* \"#utility.yul\":22147:22202   */\n      mstore\n        /* \"#utility.yul\":22030:22209   */\n      pop\n      jump\t// out\n        /* \"#utility.yul\":22215:22581   */\n    tag_406:\n        /* \"#utility.yul\":22357:22360   */\n      0x00\n        /* \"#utility.yul\":22378:22445   */\n      tag_634\n        /* \"#utility.yul\":22442:22444   */\n      0x1d\n        /* \"#utility.yul\":22437:22440   */\n      dup4\n        /* \"#utility.yul\":22378:22445   */\n      tag_362\n      jump\t// in\n    tag_634:\n        /* \"#utility.yul\":22371:22445   */\n      swap2\n      pop\n        /* \"#utility.yul\":22454:22547   */\n      tag_635\n        /* \"#utility.yul\":22543:22546   */\n      dup3\n        /* \"#utility.yul\":22454:22547   */\n      tag_405\n      jump\t// in\n    tag_635:\n        /* \"#utility.yul\":22572:22574   */\n      0x20\n        /* \"#utility.yul\":22567:22570   */\n      dup3\n        /* \"#utility.yul\":22563:22575   */\n      add\n        /* \"#utility.yul\":22556:22575   */\n      swap1\n      pop\n        /* \"#utility.yul\":22215:22581   */\n      swap2\n      swap1\n      pop\n      jump\t// out\n        /* \"#utility.yul\":22587:23006   */\n    tag_214:\n        /* \"#utility.yul\":22753:22757   */\n      0x00\n        /* \"#utility.yul\":22791:22793   */\n      0x20\n        /* \"#utility.yul\":22780:22789   */\n      dup3\n        /* \"#utility.yul\":22776:22794   */\n      add\n        /* \"#utility.yul\":22768:22794   */\n      swap1\n      pop\n        /* \"#utility.yul\":22840:22849   */\n      dup2\n        /* \"#utility.yul\":22834:22838   */\n      dup2\n        /* \"#utility.yul\":22830:22850   */\n      sub\n        /* \"#utility.yul\":22826:22827   */\n      0x00\n        /* \"#utility.yul\":22815:22824   */\n      dup4\n        /* \"#utility.yul\":22811:22828   */\n      add\n        /* \"#utility.yul\":22804:22851   */\n      mstore\n        /* \"#utility.yul\":22868:22999   */\n      tag_637\n        /* \"#utility.yul\":22994:22998   */\n      dup2\n        /* \"#utility.yul\":22868:22999   */\n      tag_406\n      jump\t// in\n    tag_637:\n        /* \"#utility.yul\":22860:22999   */\n      swap1\n      pop\n        /* \"#utility.yul\":22587:23006   */\n      swap2\n      swap1\n      pop\n      jump\t// out\n        /* \"#utility.yul\":23012:23181   */\n    tag_407:\n        /* \"#utility.yul\":23152:23173   */\n      0x42696464696e67206f70656e206661696c656400000000000000000000000000\n        /* \"#utility.yul\":23148:23149   */\n      0x00\n        /* \"#utility.yul\":23140:23146   */\n      dup3\n        /* \"#utility.yul\":23136:23150   */\n      add\n        /* \"#utility.yul\":23129:23174   */\n      mstore\n        /* \"#utility.yul\":23012:23181   */\n      pop\n      jump\t// out\n        /* \"#utility.yul\":23187:23553   */\n    tag_408:\n        /* \"#utility.yul\":23329:23332   */\n      0x00\n        /* \"#utility.yul\":23350:23417   */\n      tag_640\n        /* \"#utility.yul\":23414:23416   */\n      0x13\n        /* \"#utility.yul\":23409:23412   */\n      dup4\n        /* \"#utility.yul\":23350:23417   */\n      tag_362\n      jump\t// in\n    tag_640:\n        /* \"#utility.yul\":23343:23417   */\n      swap2\n      pop\n        /* \"#utility.yul\":23426:23519   */\n      tag_641\n        /* \"#utility.yul\":23515:23518   */\n      dup3\n        /* \"#utility.yul\":23426:23519   */\n      tag_407\n      jump\t// in\n    tag_641:\n        /* \"#utility.yul\":23544:23546   */\n      0x20\n        /* \"#utility.yul\":23539:23542   */\n      dup3\n        /* \"#utility.yul\":23535:23547   */\n      add\n        /* \"#utility.yul\":23528:23547   */\n      swap1\n      pop\n        /* \"#utility.yul\":23187:23553   */\n      swap2\n      swap1\n      pop\n      jump\t// out\n        /* \"#utility.yul\":23559:23978   */\n    tag_224:\n        /* \"#utility.yul\":23725:23729   */\n      0x00\n        /* \"#utility.yul\":23763:23765   */\n      0x20\n        /* \"#utility.yul\":23752:23761   */\n      dup3\n        /* \"#utility.yul\":23748:23766   */\n      add\n        /* \"#utility.yul\":23740:23766   */\n      swap1\n      pop\n        /* \"#utility.yul\":23812:23821   */\n      dup2\n        /* \"#utility.yul\":23806:23810   */\n      dup2\n        /* \"#utility.yul\":23802:23822   */\n      sub\n        /* \"#utility.yul\":23798:23799   */\n      0x00\n        /* \"#utility.yul\":23787:23796   */\n      dup4\n        /* \"#utility.yul\":23783:23800   */\n      add\n        /* \"#utility.yul\":23776:23823   */\n      mstore\n        /* \"#utility.yul\":23840:23971   */\n      tag_643\n        /* \"#utility.yul\":23966:23970   */\n      dup2\n        /* \"#utility.yul\":23840:23971   */\n      tag_408\n      jump\t// in\n    tag_643:\n        /* \"#utility.yul\":23832:23971   */\n      swap1\n      pop\n        /* \"#utility.yul\":23559:23978   */\n      swap2\n      swap1\n      pop\n      jump\t// out\n        /* \"#utility.yul\":23984:24209   */\n    tag_409:\n        /* \"#utility.yul\":24124:24158   */\n      0x526577617264206d75737420626520657175616c20746f207468652073656e74\n        /* \"#utility.yul\":24120:24121   */\n      0x00\n        /* \"#utility.yul\":24112:24118   */\n      dup3\n        /* \"#utility.yul\":24108:24122   */\n      add\n        /* \"#utility.yul\":24101:24159   */\n      mstore\n        /* \"#utility.yul\":24193:24201   */\n      0x2076616c75650000000000000000000000000000000000000000000000000000\n        /* \"#utility.yul\":24188:24190   */\n      0x20\n        /* \"#utility.yul\":24180:24186   */\n      dup3\n        /* \"#utility.yul\":24176:24191   */\n      add\n        /* \"#utility.yul\":24169:24202   */\n      mstore\n        /* \"#utility.yul\":23984:24209   */\n      pop\n      jump\t// out\n        /* \"#utility.yul\":24215:24581   */\n    tag_410:\n        /* \"#utility.yul\":24357:24360   */\n      0x00\n        /* \"#utility.yul\":24378:24445   */\n      tag_646\n        /* \"#utility.yul\":24442:24444   */\n      0x26\n        /* \"#utility.yul\":24437:24440   */\n      dup4\n        /* \"#utility.yul\":24378:24445   */\n      tag_362\n      jump\t// in\n    tag_646:\n        /* \"#utility.yul\":24371:24445   */\n      swap2\n      pop\n        /* \"#utility.yul\":24454:24547   */\n      tag_647\n        /* \"#utility.yul\":24543:24546   */\n      dup3\n        /* \"#utility.yul\":24454:24547   */\n      tag_409\n      jump\t// in\n    tag_647:\n        /* \"#utility.yul\":24572:24574   */\n      0x40\n        /* \"#utility.yul\":24567:24570   */\n      dup3\n        /* \"#utility.yul\":24563:24575   */\n      add\n        /* \"#utility.yul\":24556:24575   */\n      swap1\n      pop\n        /* \"#utility.yul\":24215:24581   */\n      swap2\n      swap1\n      pop\n      jump\t// out\n        /* \"#utility.yul\":24587:25006   */\n    tag_229:\n        /* \"#utility.yul\":24753:24757   */\n      0x00\n        /* \"#utility.yul\":24791:24793   */\n      0x20\n        /* \"#utility.yul\":24780:24789   */\n      dup3\n        /* \"#utility.yul\":24776:24794   */\n      add\n        /* \"#utility.yul\":24768:24794   */\n      swap1\n      pop\n        /* \"#utility.yul\":24840:24849   */\n      dup2\n        /* \"#utility.yul\":24834:24838   */\n      dup2\n        /* \"#utility.yul\":24830:24850   */\n      sub\n        /* \"#utility.yul\":24826:24827   */\n      0x00\n        /* \"#utility.yul\":24815:24824   */\n      dup4\n        /* \"#utility.yul\":24811:24828   */\n      add\n        /* \"#utility.yul\":24804:24851   */\n      mstore\n        /* \"#utility.yul\":24868:24999   */\n      tag_649\n        /* \"#utility.yul\":24994:24998   */\n      dup2\n        /* \"#utility.yul\":24868:24999   */\n      tag_410\n      jump\t// in\n    tag_649:\n        /* \"#utility.yul\":24860:24999   */\n      swap1\n      pop\n        /* \"#utility.yul\":24587:25006   */\n      swap2\n      swap1\n      pop\n      jump\t// out\n        /* \"#utility.yul\":25012:25194   */\n    tag_411:\n        /* \"#utility.yul\":25152:25186   */\n      0x526577617264206d7573742062652067726561746572207468616e207a65726f\n        /* \"#utility.yul\":25148:25149   */\n      0x00\n        /* \"#utility.yul\":25140:25146   */\n      dup3\n        /* \"#utility.yul\":25136:25150   */\n      add\n        /* \"#utility.yul\":25129:25187   */\n      mstore\n        /* \"#utility.yul\":25012:25194   */\n      pop\n      jump\t// out\n        /* \"#utility.yul\":25200:25566   */\n    tag_412:\n        /* \"#utility.yul\":25342:25345   */\n      0x00\n        /* \"#utility.yul\":25363:25430   */\n      tag_652\n        /* \"#utility.yul\":25427:25429   */\n      0x20\n        /* \"#utility.yul\":25422:25425   */\n      dup4\n        /* \"#utility.yul\":25363:25430   */\n      tag_362\n      jump\t// in\n    tag_652:\n        /* \"#utility.yul\":25356:25430   */\n      swap2\n      pop\n        /* \"#utility.yul\":25439:25532   */\n      tag_653\n        /* \"#utility.yul\":25528:25531   */\n      dup3\n        /* \"#utility.yul\":25439:25532   */\n      tag_411\n      jump\t// in\n    tag_653:\n        /* \"#utility.yul\":25557:25559   */\n      0x20\n        /* \"#utility.yul\":25552:25555   */\n      dup3\n        /* \"#utility.yul\":25548:25560   */\n      add\n        /* \"#utility.yul\":25541:25560   */\n      swap1\n      pop\n        /* \"#utility.yul\":25200:25566   */\n      swap2\n      swap1\n      pop\n      jump\t// out\n        /* \"#utility.yul\":25572:25991   */\n    tag_232:\n        /* \"#utility.yul\":25738:25742   */\n      0x00\n        /* \"#utility.yul\":25776:25778   */\n      0x20\n        /* \"#utility.yul\":25765:25774   */\n      dup3\n        /* \"#utility.yul\":25761:25779   */\n      add\n        /* \"#utility.yul\":25753:25779   */\n      swap1\n      pop\n        /* \"#utility.yul\":25825:25834   */\n      dup2\n        /* \"#utility.yul\":25819:25823   */\n      dup2\n        /* \"#utility.yul\":25815:25835   */\n      sub\n        /* \"#utility.yul\":25811:25812   */\n      0x00\n        /* \"#utility.yul\":25800:25809   */\n      dup4\n        /* \"#utility.yul\":25796:25813   */\n      add\n        /* \"#utility.yul\":25789:25836   */\n      mstore\n        /* \"#utility.yul\":25853:25984   */\n      tag_655\n        /* \"#utility.yul\":25979:25983   */\n      dup2\n        /* \"#utility.yul\":25853:25984   */\n      tag_412\n      jump\t// in\n    tag_655:\n        /* \"#utility.yul\":25845:25984   */\n      swap1\n      pop\n        /* \"#utility.yul\":25572:25991   */\n      swap2\n      swap1\n      pop\n      jump\t// out\n        /* \"#utility.yul\":25997:26173   */\n    tag_413:\n        /* \"#utility.yul\":26137:26165   */\n      0x5461736b207469746c652063616e6e6f7420626520656d707479000000000000\n        /* \"#utility.yul\":26133:26134   */\n      0x00\n        /* \"#utility.yul\":26125:26131   */\n      dup3\n        /* \"#utility.yul\":26121:26135   */\n      add\n        /* \"#utility.yul\":26114:26166   */\n      mstore\n        /* \"#utility.yul\":25997:26173   */\n      pop\n      jump\t// out\n        /* \"#utility.yul\":26179:26545   */\n    tag_414:\n        /* \"#utility.yul\":26321:26324   */\n      0x00\n        /* \"#utility.yul\":26342:26409   */\n      tag_658\n        /* \"#utility.yul\":26406:26408   */\n      0x1a\n        /* \"#utility.yul\":26401:26404   */\n      dup4\n        /* \"#utility.yul\":26342:26409   */\n      tag_362\n      jump\t// in\n    tag_658:\n        /* \"#utility.yul\":26335:26409   */\n      swap2\n      pop\n        /* \"#utility.yul\":26418:26511   */\n      tag_659\n        /* \"#utility.yul\":26507:26510   */\n      dup3\n        /* \"#utility.yul\":26418:26511   */\n      tag_413\n      jump\t// in\n    tag_659:\n        /* \"#utility.yul\":26536:26538   */\n      0x20\n        /* \"#utility.yul\":26531:26534   */\n      dup3\n        /* \"#utility.yul\":26527:26539   */\n      add\n        /* \"#utility.yul\":26520:26539   */\n      swap1\n      pop\n        /* \"#utility.yul\":26179:26545   */\n      swap2\n      swap1\n      pop\n      jump\t// out\n        /* \"#utility.yul\":26551:26970   */\n    tag_235:\n        /* \"#utility.yul\":26717:26721   */\n      0x00\n        /* \"#utility.yul\":26755:26757   */\n      0x20\n        /* \"#utility.yul\":26744:26753   */\n      dup3\n        /* \"#utility.yul\":26740:26758   */\n      add\n        /* \"#utility.yul\":26732:26758   */\n      swap1\n      pop\n        /* \"#utility.yul\":26804:26813   */\n      dup2\n        /* \"#utility.yul\":26798:26802   */\n      dup2\n        /* \"#utility.yul\":26794:26814   */\n      sub\n        /* \"#utility.yul\":26790:26791   */\n      0x00\n        /* \"#utility.yul\":26779:26788   */\n      dup4\n        /* \"#utility.yul\":26775:26792   */\n      add\n        /* \"#utility.yul\":26768:26815   */\n      mstore\n        /* \"#utility.yul\":26832:26963   */\n      tag_661\n        /* \"#utility.yul\":26958:26962   */\n      dup2\n        /* \"#utility.yul\":26832:26963   */\n      tag_414\n      jump\t// in\n    tag_661:\n        /* \"#utility.yul\":26824:26963   */\n      swap1\n      pop\n        /* \"#utility.yul\":26551:26970   */\n      swap2\n      swap1\n      pop\n      jump\t// out\n        /* \"#utility.yul\":26976:27151   */\n    tag_415:\n        /* \"#utility.yul\":27116:27143   */\n      0x4950465320686173682063616e6e6f7420626520656d70747900000000000000\n        /* \"#utility.yul\":27112:27113   */\n      0x00\n        /* \"#utility.yul\":27104:27110   */\n      dup3\n        /* \"#utility.yul\":27100:27114   */\n      add\n        /* \"#utility.yul\":27093:27144   */\n      mstore\n        /* \"#utility.yul\":26976:27151   */\n      pop\n      jump\t// out\n        /* \"#utility.yul\":27157:27523   */\n    tag_416:\n        /* \"#utility.yul\":27299:27302   */\n      0x00\n        /* \"#utility.yul\":27320:27387   */\n      tag_664\n        /* \"#utility.yul\":27384:27386   */\n      0x19\n        /* \"#utility.yul\":27379:27382   */\n      dup4\n        /* \"#utility.yul\":27320:27387   */\n      tag_362\n      jump\t// in\n    tag_664:\n        /* \"#utility.yul\":27313:27387   */\n      swap2\n      pop\n        /* \"#utility.yul\":27396:27489   */\n      tag_665\n        /* \"#utility.yul\":27485:27488   */\n      dup3\n        /* \"#utility.yul\":27396:27489   */\n      tag_415\n      jump\t// in\n    tag_665:\n        /* \"#utility.yul\":27514:27516   */\n      0x20\n        /* \"#utility.yul\":27509:27512   */\n      dup3\n        /* \"#utility.yul\":27505:27517   */\n      add\n        /* \"#utility.yul\":27498:27517   */\n      swap1\n      pop\n        /* \"#utility.yul\":27157:27523   */\n      swap2\n      swap1\n      pop\n      jump\t// out\n        /* \"#utility.yul\":27529:27948   */\n    tag_238:\n        /* \"#utility.yul\":27695:27699   */\n      0x00\n        /* \"#utility.yul\":27733:27735   */\n      0x20\n        /* \"#utility.yul\":27722:27731   */\n      dup3\n        /* \"#utility.yul\":27718:27736   */\n      add\n        /* \"#utility.yul\":27710:27736   */\n      swap1\n      pop\n        /* \"#utility.yul\":27782:27791   */\n      dup2\n        /* \"#utility.yul\":27776:27780   */\n      dup2\n        /* \"#utility.yul\":27772:27792   */\n      sub\n        /* \"#utility.yul\":27768:27769   */\n      0x00\n        /* \"#utility.yul\":27757:27766   */\n      dup4\n        /* \"#utility.yul\":27753:27770   */\n      add\n        /* \"#utility.yul\":27746:27793   */\n      mstore\n        /* \"#utility.yul\":27810:27941   */\n      tag_667\n        /* \"#utility.yul\":27936:27940   */\n      dup2\n        /* \"#utility.yul\":27810:27941   */\n      tag_416\n      jump\t// in\n    tag_667:\n        /* \"#utility.yul\":27802:27941   */\n      swap1\n      pop\n        /* \"#utility.yul\":27529:27948   */\n      swap2\n      swap1\n      pop\n      jump\t// out\n        /* \"#utility.yul\":27954:28134   */\n    tag_417:\n        /* \"#utility.yul\":28094:28126   */\n      0x446561646c696e65206d75737420626520696e20746865206675747572650000\n        /* \"#utility.yul\":28090:28091   */\n      0x00\n        /* \"#utility.yul\":28082:28088   */\n      dup3\n        /* \"#utility.yul\":28078:28092   */\n      add\n        /* \"#utility.yul\":28071:28127   */\n      mstore\n        /* \"#utility.yul\":27954:28134   */\n      pop\n      jump\t// out\n        /* \"#utility.yul\":28140:28506   */\n    tag_418:\n        /* \"#utility.yul\":28282:28285   */\n      0x00\n        /* \"#utility.yul\":28303:28370   */\n      tag_670\n        /* \"#utility.yul\":28367:28369   */\n      0x1e\n        /* \"#utility.yul\":28362:28365   */\n      dup4\n        /* \"#utility.yul\":28303:28370   */\n      tag_362\n      jump\t// in\n    tag_670:\n        /* \"#utility.yul\":28296:28370   */\n      swap2\n      pop\n        /* \"#utility.yul\":28379:28472   */\n      tag_671\n        /* \"#utility.yul\":28468:28471   */\n      dup3\n        /* \"#utility.yul\":28379:28472   */\n      tag_417\n      jump\t// in\n    tag_671:\n        /* \"#utility.yul\":28497:28499   */\n      0x20\n        /* \"#utility.yul\":28492:28495   */\n      dup3\n        /* \"#utility.yul\":28488:28500   */\n      add\n        /* \"#utility.yul\":28481:28500   */\n      swap1\n      pop\n        /* \"#utility.yul\":28140:28506   */\n      swap2\n      swap1\n      pop\n      jump\t// out\n        /* \"#utility.yul\":28512:28931   */\n    tag_241:\n        /* \"#utility.yul\":28678:28682   */\n      0x00\n        /* \"#utility.yul\":28716:28718   */\n      0x20\n        /* \"#utility.yul\":28705:28714   */\n      dup3\n        /* \"#utility.yul\":28701:28719   */\n      add\n        /* \"#utility.yul\":28693:28719   */\n      swap1\n      pop\n        /* \"#utility.yul\":28765:28774   */\n      dup2\n        /* \"#utility.yul\":28759:28763   */\n      dup2\n        /* \"#utility.yul\":28755:28775   */\n      sub\n        /* \"#utility.yul\":28751:28752   */\n      0x00\n        /* \"#utility.yul\":28740:28749   */\n      dup4\n        /* \"#utility.yul\":28736:28753   */\n      add\n        /* \"#utility.yul\":28729:28776   */\n      mstore\n        /* \"#utility.yul\":28793:28924   */\n      tag_673\n        /* \"#utility.yul\":28919:28923   */\n      dup2\n        /* \"#utility.yul\":28793:28924   */\n      tag_418\n      jump\t// in\n    tag_673:\n        /* \"#utility.yul\":28785:28924   */\n      swap1\n      pop\n        /* \"#utility.yul\":28512:28931   */\n      swap2\n      swap1\n      pop\n      jump\t// out\n        /* \"#utility.yul\":28937:29117   */\n    tag_419:\n        /* \"#utility.yul\":28985:29062   */\n      0x4e487b7100000000000000000000000000000000000000000000000000000000\n        /* \"#utility.yul\":28982:28983   */\n      0x00\n        /* \"#utility.yul\":28975:29063   */\n      mstore\n        /* \"#utility.yul\":29082:29086   */\n      0x11\n        /* \"#utility.yul\":29079:29080   */\n      0x04\n        /* \"#utility.yul\":29072:29087   */\n      mstore\n        /* \"#utility.yul\":29106:29110   */\n      0x24\n        /* \"#utility.yul\":29103:29104   */\n      0x00\n        /* \"#utility.yul\":29096:29111   */\n      revert\n        /* \"#utility.yul\":29123:29356   */\n    tag_243:\n        /* \"#utility.yul\":29162:29165   */\n      0x00\n        /* \"#utility.yul\":29185:29209   */\n      tag_676\n        /* \"#utility.yul\":29203:29208   */\n      dup3\n        /* \"#utility.yul\":29185:29209   */\n      tag_353\n      jump\t// in\n    tag_676:\n        /* \"#utility.yul\":29176:29209   */\n      swap2\n      pop\n        /* \"#utility.yul\":29231:29297   */\n      0xffffffffffffffffffffffffffffffffffffffffffffffffffffffffffffffff\n        /* \"#utility.yul\":29224:29229   */\n      dup3\n        /* \"#utility.yul\":29221:29298   */\n      sub\n        /* \"#utility.yul\":29218:29321   */\n      tag_677\n      jumpi\n        /* \"#utility.yul\":29301:29319   */\n      tag_678\n      tag_419\n      jump\t// in\n    tag_678:\n        /* \"#utility.yul\":29218:29321   */\n    tag_677:\n        /* \"#utility.yul\":29348:29349   */\n      0x01\n        /* \"#utility.yul\":29341:29346   */\n      dup3\n        /* \"#utility.yul\":29337:29350   */\n      add\n        /* \"#utility.yul\":29330:29350   */\n      swap1\n      pop\n        /* \"#utility.yul\":29123:29356   */\n      swap2\n      swap1\n      pop\n      jump\t// out\n        /* \"#utility.yul\":29362:29503   */\n    tag_420:\n        /* \"#utility.yul\":29411:29415   */\n      0x00\n        /* \"#utility.yul\":29434:29437   */\n      dup2\n        /* \"#utility.yul\":29426:29437   */\n      swap1\n      pop\n        /* \"#utility.yul\":29457:29460   */\n      dup2\n        /* \"#utility.yul\":29454:29455   */\n      0x00\n        /* \"#utility.yul\":29447:29461   */\n      mstore\n        /* \"#utility.yul\":29491:29495   */\n      0x20\n        /* \"#utility.yul\":29488:29489   */\n      0x00\n        /* \"#utility.yul\":29478:29496   */\n      keccak256\n        /* \"#utility.yul\":29470:29496   */\n      swap1\n      pop\n        /* \"#utility.yul\":29362:29503   */\n      swap2\n      swap1\n      pop\n      jump\t// out\n        /* \"#utility.yul\":29509:29602   */\n    tag_421:\n        /* \"#utility.yul\":29546:29552   */\n      0x00\n        /* \"#utility.yul\":29593:29595   */\n      0x20\n        /* \"#utility.yul\":29588:29590   */\n      0x1f\n        /* \"#utility.yul\":29581:29586   */\n      dup4\n        /* \"#utility.yul\":29577:29591   */\n      add\n        /* \"#utility.yul\":29573:29596   */\n      div\n        /* \"#utility.yul\":29563:29596   */\n      swap1\n      pop\n        /* \"#utility.yul\":29509:29602   */\n      swap2\n      swap1\n      pop\n      jump\t// out\n        /* \"#utility.yul\":29608:29715   */\n    tag_422:\n        /* \"#utility.yul\":29652:29660   */\n      0x00\n        /* \"#utility.yul\":29702:29707   */\n      dup3\n        /* \"#utility.yul\":29696:29700   */\n      dup3\n        /* \"#utility.yul\":29692:29708   */\n      shl\n        /* \"#utility.yul\":29671:29708   */\n      swap1\n      pop\n        /* \"#utility.yul\":29608:29715   */\n      swap3\n      swap2\n      pop\n      pop\n      jump\t// out\n        /* \"#utility.yul\":29721:30114   */\n    tag_423:\n        /* \"#utility.yul\":29790:29796   */\n      0x00\n        /* \"#utility.yul\":29840:29841   */\n      0x08\n        /* \"#utility.yul\":29828:29838   */\n      dup4\n        /* \"#utility.yul\":29824:29842   */\n      mul\n        /* \"#utility.yul\":29863:29960   */\n      tag_683\n        /* \"#utility.yul\":29893:29959   */\n      0xffffffffffffffffffffffffffffffffffffffffffffffffffffffffffffffff\n        /* \"#utility.yul\":29882:29891   */\n      dup3\n        /* \"#utility.yul\":29863:29960   */\n      tag_422\n      jump\t// in\n    tag_683:\n        /* \"#utility.yul\":29981:30020   */\n      tag_684\n        /* \"#utility.yul\":30011:30019   */\n      dup7\n        /* \"#utility.yul\":30000:30009   */\n      dup4\n        /* \"#utility.yul\":29981:30020   */\n      tag_422\n      jump\t// in\n    tag_684:\n        /* \"#utility.yul\":29969:30020   */\n      swap6\n      pop\n        /* \"#utility.yul\":30053:30057   */\n      dup1\n        /* \"#utility.yul\":30049:30058   */\n      not\n        /* \"#utility.yul\":30042:30047   */\n      dup5\n        /* \"#utility.yul\":30038:30059   */\n      and\n        /* \"#utility.yul\":30029:30059   */\n      swap4\n      pop\n        /* \"#utility.yul\":30102:30106   */\n      dup1\n        /* \"#utility.yul\":30092:30100   */\n      dup7\n        /* \"#utility.yul\":30088:30107   */\n      and\n        /* \"#utility.yul\":30081:30086   */\n      dup5\n        /* \"#utility.yul\":30078:30108   */\n      or\n        /* \"#utility.yul\":30068:30108   */\n      swap3\n      pop\n        /* \"#utility.yul\":29797:30114   */\n      pop\n      pop\n        /* \"#utility.yul\":29721:30114   */\n      swap4\n      swap3\n      pop\n      pop\n      pop\n      jump\t// out\n        /* \"#utility.yul\":30120:30180   */\n    tag_424:\n        /* \"#utility.yul\":30148:30151   */\n      0x00\n        /* \"#utility.yul\":30169:30174   */\n      dup2\n        /* \"#utility.yul\":30162:30174   */\n      swap1\n      pop\n        /* \"#utility.yul\":30120:30180   */\n      swap2\n      swap1\n      pop\n      jump\t// out\n        /* \"#utility.yul\":30186:30328   */\n    tag_425:\n        /* \"#utility.yul\":30236:30245   */\n      0x00\n        /* \"#utility.yul\":30269:30322   */\n      tag_687\n        /* \"#utility.yul\":30287:30321   */\n      tag_688\n        /* \"#utility.yul\":30296:30320   */\n      tag_689\n        /* \"#utility.yul\":30314:30319   */\n      dup5\n        /* \"#utility.yul\":30296:30320   */\n      tag_353\n      jump\t// in\n    tag_689:\n        /* \"#utility.yul\":30287:30321   */\n      tag_424\n      jump\t// in\n    tag_688:\n        /* \"#utility.yul\":30269:30322   */\n      tag_353\n      jump\t// in\n    tag_687:\n        /* \"#utility.yul\":30256:30322   */\n      swap1\n      pop\n        /* \"#utility.yul\":30186:30328   */\n      swap2\n      swap1\n      pop\n      jump\t// out\n        /* \"#utility.yul\":30334:30409   */\n    tag_426:\n        /* \"#utility.yul\":30377:30380   */\n      0x00\n        /* \"#utility.yul\":30398:30403   */\n      dup2\n        /* \"#utility.yul\":30391:30403   */\n      swap1\n      pop\n        /* \"#utility.yul\":30334:30409   */\n      swap2\n      swap1\n      pop\n      jump\t// out\n        /* \"#utility.yul\":30415:30684   */\n    tag_427:\n        /* \"#utility.yul\":30525:30564   */\n      tag_692\n        /* \"#utility.yul\":30556:30563   */\n      dup4\n        /* \"#utility.yul\":30525:30564   */\n      tag_425\n      jump\t// in\n    tag_692:\n        /* \"#utility.yul\":30586:30677   */\n      tag_693\n        /* \"#utility.yul\":30635:30676   */\n      tag_694\n        /* \"#utility.yul\":30659:30675   */\n      dup3\n        /* \"#utility.yul\":30635:30676   */\n      tag_426\n      jump\t// in\n    tag_694:\n        /* \"#utility.yul\":30627:30633   */\n      dup5\n        /* \"#utility.yul\":30620:30624   */\n      dup5\n        /* \"#utility.yul\":30614:30625   */\n      sload\n        /* \"#utility.yul\":30586:30677   */\n      tag_423\n      jump\t// in\n    tag_693:\n        /* \"#utility.yul\":30580:30584   */\n      dup3\n        /* \"#utility.yul\":30573:30678   */\n      sstore\n        /* \"#utility.yul\":30491:30684   */\n      pop\n        /* \"#utility.yul\":30415:30684   */\n      pop\n      pop\n      pop\n      jump\t// out\n        /* \"#utility.yul\":30690:30763   */\n    tag_428:\n        /* \"#utility.yul\":30735:30738   */\n      0x00\n        /* \"#utility.yul\":30756:30757   */\n      0x00\n        /* \"#utility.yul\":30749:30757   */\n      swap1\n      pop\n        /* \"#utility.yul\":30690:30763   */\n      swap1\n      jump\t// out\n        /* \"#utility.yul\":30769:30958   */\n    tag_429:\n        /* \"#utility.yul\":30846:30878   */\n      tag_697\n      tag_428\n      jump\t// in\n    tag_697:\n        /* \"#utility.yul\":30887:30952   */\n      tag_698\n        /* \"#utility.yul\":30945:30951   */\n      dup2\n        /* \"#utility.yul\":30937:30943   */\n      dup5\n        /* \"#utility.yul\":30931:30935   */\n      dup5\n        /* \"#utility.yul\":30887:30952   */\n      tag_427\n      jump\t// in\n    tag_698:\n        /* \"#utility.yul\":30822:30958   */\n      pop\n        /* \"#utility.yul\":30769:30958   */\n      pop\n      pop\n      jump\t// out\n        /* \"#utility.yul\":30964:31150   */\n    tag_430:\n        /* \"#utility.yul\":31024:31144   */\n    tag_700:\n        /* \"#utility.yul\":31041:31044   */\n      dup2\n        /* \"#utility.yul\":31034:31039   */\n      dup2\n        /* \"#utility.yul\":31031:31045   */\n      lt\n        /* \"#utility.yul\":31024:31144   */\n      iszero\n      tag_702\n      jumpi\n        /* \"#utility.yul\":31095:31134   */\n      tag_703\n        /* \"#utility.yul\":31132:31133   */\n      0x00\n        /* \"#utility.yul\":31125:31130   */\n      dup3\n        /* \"#utility.yul\":31095:31134   */\n      tag_429\n      jump\t// in\n    tag_703:\n        /* \"#utility.yul\":31068:31069   */\n      0x01\n        /* \"#utility.yul\":31061:31066   */\n      dup2\n        /* \"#utility.yul\":31057:31070   */\n      add\n        /* \"#utility.yul\":31048:31070   */\n      swap1\n      pop\n        /* \"#utility.yul\":31024:31144   */\n      jump(tag_700)\n    tag_702:\n        /* \"#utility.yul\":30964:31150   */\n      pop\n      pop\n      jump\t// out\n        /* \"#utility.yul\":31156:31699   */\n    tag_431:\n        /* \"#utility.yul\":31257:31259   */\n      0x1f\n        /* \"#utility.yul\":31252:31255   */\n      dup3\n        /* \"#utility.yul\":31249:31260   */\n      gt\n        /* \"#utility.yul\":31246:31692   */\n      iszero\n      tag_705\n      jumpi\n        /* \"#utility.yul\":31291:31329   */\n      tag_706\n        /* \"#utility.yul\":31323:31328   */\n      dup2\n        /* \"#utility.yul\":31291:31329   */\n      tag_420\n      jump\t// in\n    tag_706:\n        /* \"#utility.yul\":31375:31404   */\n      tag_707\n        /* \"#utility.yul\":31393:31403   */\n      dup5\n        /* \"#utility.yul\":31375:31404   */\n      tag_421\n      jump\t// in\n    tag_707:\n        /* \"#utility.yul\":31365:31373   */\n      dup2\n        /* \"#utility.yul\":31361:31405   */\n      add\n        /* \"#utility.yul\":31558:31560   */\n      0x20\n        /* \"#utility.yul\":31546:31556   */\n      dup6\n        /* \"#utility.yul\":31543:31561   */\n      lt\n        /* \"#utility.yul\":31540:31589   */\n      iszero\n      tag_708\n      jumpi\n        /* \"#utility.yul\":31579:31587   */\n      dup2\n        /* \"#utility.yul\":31564:31587   */\n      swap1\n      pop\n        /* \"#utility.yul\":31540:31589   */\n    tag_708:\n        /* \"#utility.yul\":31602:31682   */\n      tag_709\n        /* \"#utility.yul\":31658:31680   */\n      tag_710\n        /* \"#utility.yul\":31676:31679   */\n      dup6\n        /* \"#utility.yul\":31658:31680   */\n      tag_421\n      jump\t// in\n    tag_710:\n        /* \"#utility.yul\":31648:31656   */\n      dup4\n        /* \"#utility.yul\":31644:31681   */\n      add\n        /* \"#utility.yul\":31631:31642   */\n      dup3\n        /* \"#utility.yul\":31602:31682   */\n      tag_430\n      jump\t// in\n    tag_709:\n        /* \"#utility.yul\":31261:31692   */\n      pop\n      pop\n        /* \"#utility.yul\":31246:31692   */\n    tag_705:\n        /* \"#utility.yul\":31156:31699   */\n      pop\n      pop\n      pop\n      jump\t// out\n        /* \"#utility.yul\":31705:31822   */\n    tag_432:\n        /* \"#utility.yul\":31759:31767   */\n      0x00\n        /* \"#utility.yul\":31809:31814   */\n      dup3\n        /* \"#utility.yul\":31803:31807   */\n      dup3\n        /* \"#utility.yul\":31799:31815   */\n      shr\n        /* \"#utility.yul\":31778:31815   */\n      swap1\n      pop\n        /* \"#utility.yul\":31705:31822   */\n      swap3\n      swap2\n      pop\n      pop\n      jump\t// out\n        /* \"#utility.yul\":31828:31997   */\n    tag_433:\n        /* \"#utility.yul\":31872:31878   */\n      0x00\n        /* \"#utility.yul\":31905:31956   */\n      tag_713\n        /* \"#utility.yul\":31953:31954   */\n      0x00\n        /* \"#utility.yul\":31949:31955   */\n      not\n        /* \"#utility.yul\":31941:31946   */\n      dup5\n        /* \"#utility.yul\":31938:31939   */\n      0x08\n        /* \"#utility.yul\":31934:31947   */\n      mul\n        /* \"#utility.yul\":31905:31956   */\n      tag_432\n      jump\t// in\n    tag_713:\n        /* \"#utility.yul\":31901:31957   */\n      not\n        /* \"#utility.yul\":31986:31990   */\n      dup1\n        /* \"#utility.yul\":31980:31984   */\n      dup4\n        /* \"#utility.yul\":31976:31991   */\n      and\n        /* \"#utility.yul\":31966:31991   */\n      swap2\n      pop\n        /* \"#utility.yul\":31879:31997   */\n      pop\n        /* \"#utility.yul\":31828:31997   */\n      swap3\n      swap2\n      pop\n      pop\n      jump\t// out\n        /* \"#utility.yul\":32002:32297   */\n    tag_434:\n        /* \"#utility.yul\":32078:32082   */\n      0x00\n        /* \"#utility.yul\":32224:32253   */\n      tag_715\n        /* \"#utility.yul\":32249:32252   */\n      dup4\n        /* \"#utility.yul\":32243:32247   */\n      dup4\n        /* \"#utility.yul\":32224:32253   */\n      tag_433\n      jump\t// in\n    tag_715:\n        /* \"#utility.yul\":32216:32253   */\n      swap2\n      pop\n        /* \"#utility.yul\":32286:32289   */\n      dup3\n        /* \"#utility.yul\":32283:32284   */\n      0x02\n        /* \"#utility.yul\":32279:32290   */\n      mul\n        /* \"#utility.yul\":32273:32277   */\n      dup3\n        /* \"#utility.yul\":32270:32291   */\n      or\n        /* \"#utility.yul\":32262:32291   */\n      swap1\n      pop\n        /* \"#utility.yul\":32002:32297   */\n      swap3\n      swap2\n      pop\n      pop\n      jump\t// out\n        /* \"#utility.yul\":32302:33697   */\n    tag_251:\n        /* \"#utility.yul\":32419:32456   */\n      tag_717\n        /* \"#utility.yul\":32452:32455   */\n      dup3\n        /* \"#utility.yul\":32419:32456   */\n      tag_361\n      jump\t// in\n    tag_717:\n        /* \"#utility.yul\":32521:32539   */\n      0xffffffffffffffff\n        /* \"#utility.yul\":32513:32519   */\n      dup2\n        /* \"#utility.yul\":32510:32540   */\n      gt\n        /* \"#utility.yul\":32507:32563   */\n      iszero\n      tag_718\n      jumpi\n        /* \"#utility.yul\":32543:32561   */\n      tag_719\n      tag_248\n      jump\t// in\n    tag_719:\n        /* \"#utility.yul\":32507:32563   */\n    tag_718:\n        /* \"#utility.yul\":32587:32625   */\n      tag_720\n        /* \"#utility.yul\":32619:32623   */\n      dup3\n        /* \"#utility.yul\":32613:32624   */\n      sload\n        /* \"#utility.yul\":32587:32625   */\n      tag_165\n      jump\t// in\n    tag_720:\n        /* \"#utility.yul\":32672:32739   */\n      tag_721\n        /* \"#utility.yul\":32732:32738   */\n      dup3\n        /* \"#utility.yul\":32724:32730   */\n      dup3\n        /* \"#utility.yul\":32718:32722   */\n      dup6\n        /* \"#utility.yul\":32672:32739   */\n      tag_431\n      jump\t// in\n    tag_721:\n        /* \"#utility.yul\":32766:32767   */\n      0x00\n        /* \"#utility.yul\":32790:32794   */\n      0x20\n        /* \"#utility.yul\":32777:32794   */\n      swap1\n      pop\n        /* \"#utility.yul\":32822:32824   */\n      0x1f\n        /* \"#utility.yul\":32814:32820   */\n      dup4\n        /* \"#utility.yul\":32811:32825   */\n      gt\n        /* \"#utility.yul\":32839:32840   */\n      0x01\n        /* \"#utility.yul\":32834:33452   */\n      dup2\n      eq\n      tag_723\n      jumpi\n        /* \"#utility.yul\":33496:33497   */\n      0x00\n        /* \"#utility.yul\":33513:33519   */\n      dup5\n        /* \"#utility.yul\":33510:33587   */\n      iszero\n      tag_724\n      jumpi\n        /* \"#utility.yul\":33562:33571   */\n      dup3\n        /* \"#utility.yul\":33557:33560   */\n      dup8\n        /* \"#utility.yul\":33553:33572   */\n      add\n        /* \"#utility.yul\":33547:33573   */\n      mload\n        /* \"#utility.yul\":33538:33573   */\n      swap1\n      pop\n        /* \"#utility.yul\":33510:33587   */\n    tag_724:\n        /* \"#utility.yul\":33613:33680   */\n      tag_725\n        /* \"#utility.yul\":33673:33679   */\n      dup6\n        /* \"#utility.yul\":33666:33671   */\n      dup3\n        /* \"#utility.yul\":33613:33680   */\n      tag_434\n      jump\t// in\n    tag_725:\n        /* \"#utility.yul\":33607:33611   */\n      dup7\n        /* \"#utility.yul\":33600:33681   */\n      sstore\n        /* \"#utility.yul\":33469:33691   */\n      pop\n        /* \"#utility.yul\":32804:33691   */\n      jump(tag_722)\n        /* \"#utility.yul\":32834:33452   */\n    tag_723:\n        /* \"#utility.yul\":32886:32890   */\n      0x1f\n        /* \"#utility.yul\":32882:32891   */\n      not\n        /* \"#utility.yul\":32874:32880   */\n      dup5\n        /* \"#utility.yul\":32870:32892   */\n      and\n        /* \"#utility.yul\":32920:32957   */\n      tag_726\n        /* \"#utility.yul\":32952:32956   */\n      dup7\n        /* \"#utility.yul\":32920:32957   */\n      tag_420\n      jump\t// in\n    tag_726:\n        /* \"#utility.yul\":32979:32980   */\n      0x00\n        /* \"#utility.yul\":32993:33201   */\n    tag_727:\n        /* \"#utility.yul\":33007:33014   */\n      dup3\n        /* \"#utility.yul\":33004:33005   */\n      dup2\n        /* \"#utility.yul\":33001:33015   */\n      lt\n        /* \"#utility.yul\":32993:33201   */\n      iszero\n      tag_729\n      jumpi\n        /* \"#utility.yul\":33086:33095   */\n      dup5\n        /* \"#utility.yul\":33081:33084   */\n      dup10\n        /* \"#utility.yul\":33077:33096   */\n      add\n        /* \"#utility.yul\":33071:33097   */\n      mload\n        /* \"#utility.yul\":33063:33069   */\n      dup3\n        /* \"#utility.yul\":33056:33098   */\n      sstore\n        /* \"#utility.yul\":33137:33138   */\n      0x01\n        /* \"#utility.yul\":33129:33135   */\n      dup3\n        /* \"#utility.yul\":33125:33139   */\n      add\n        /* \"#utility.yul\":33115:33139   */\n      swap2\n      pop\n        /* \"#utility.yul\":33184:33186   */\n      0x20\n        /* \"#utility.yul\":33173:33182   */\n      dup6\n        /* \"#utility.yul\":33169:33187   */\n      add\n        /* \"#utility.yul\":33156:33187   */\n      swap5\n      pop\n        /* \"#utility.yul\":33030:33034   */\n      0x20\n        /* \"#utility.yul\":33027:33028   */\n      dup2\n        /* \"#utility.yul\":33023:33035   */\n      add\n        /* \"#utility.yul\":33018:33035   */\n      swap1\n      pop\n        /* \"#utility.yul\":32993:33201   */\n      jump(tag_727)\n    tag_729:\n        /* \"#utility.yul\":33229:33235   */\n      dup7\n        /* \"#utility.yul\":33220:33227   */\n      dup4\n        /* \"#utility.yul\":33217:33236   */\n      lt\n        /* \"#utility.yul\":33214:33393   */\n      iszero\n      tag_730\n      jumpi\n        /* \"#utility.yul\":33287:33296   */\n      dup5\n        /* \"#utility.yul\":33282:33285   */\n      dup10\n        /* \"#utility.yul\":33278:33297   */\n      add\n        /* \"#utility.yul\":33272:33298   */\n      mload\n        /* \"#utility.yul\":33330:33378   */\n      tag_731\n        /* \"#utility.yul\":33372:33376   */\n      0x1f\n        /* \"#utility.yul\":33364:33370   */\n      dup10\n        /* \"#utility.yul\":33360:33377   */\n      and\n        /* \"#utility.yul\":33349:33358   */\n      dup3\n        /* \"#utility.yul\":33330:33378   */\n      tag_433\n      jump\t// in\n    tag_731:\n        /* \"#utility.yul\":33322:33328   */\n      dup4\n        /* \"#utility.yul\":33315:33379   */\n      sstore\n        /* \"#utility.yul\":33237:33393   */\n      pop\n        /* \"#utility.yul\":33214:33393   */\n    tag_730:\n        /* \"#utility.yul\":33439:33440   */\n      0x01\n        /* \"#utility.yul\":33435:33436   */\n      0x02\n        /* \"#utility.yul\":33427:33433   */\n      dup9\n        /* \"#utility.yul\":33423:33437   */\n      mul\n        /* \"#utility.yul\":33419:33441   */\n      add\n        /* \"#utility.yul\":33413:33417   */\n      dup9\n        /* \"#utility.yul\":33406:33442   */\n      sstore\n        /* \"#utility.yul\":32841:33452   */\n      pop\n      pop\n      pop\n        /* \"#utility.yul\":32804:33691   */\n    tag_722:\n      pop\n        /* \"#utility.yul\":32394:33697   */\n      pop\n      pop\n      pop\n        /* \"#utility.yul\":32302:33697   */\n      pop\n      pop\n      jump\t// out\n        /* \"#utility.yul\":33703:33874   */\n    tag_435:\n        /* \"#utility.yul\":33843:33866   */\n      0x457363726f77206465706f736974206661696c65640000000000000000000000\n        /* \"#utility.yul\":33839:33840   */\n      0x00\n        /* \"#utility.yul\":33831:33837   */\n      dup3\n        /* \"#utility.yul\":33827:33841   */\n      add\n        /* \"#utility.yul\":33820:33867   */\n      mstore\n        /* \"#utility.yul\":33703:33874   */\n      pop\n      jump\t// out\n        /* \"#utility.yul\":33880:34246   */\n    tag_436:\n        /* \"#utility.yul\":34022:34025   */\n      0x00\n        /* \"#utility.yul\":34043:34110   */\n      tag_734\n        /* \"#utility.yul\":34107:34109   */\n      0x15\n        /* \"#utility.yul\":34102:34105   */\n      dup4\n        /* \"#utility.yul\":34043:34110   */\n      tag_362\n      jump\t// in\n    tag_734:\n        /* \"#utility.yul\":34036:34110   */\n      swap2\n      pop\n        /* \"#utility.yul\":34119:34212   */\n      tag_735\n        /* \"#utility.yul\":34208:34211   */\n      dup3\n        /* \"#utility.yul\":34119:34212   */\n      tag_435\n      jump\t// in\n    tag_735:\n        /* \"#utility.yul\":34237:34239   */\n      0x20\n        /* \"#utility.yul\":34232:34235   */\n      dup3\n        /* \"#utility.yul\":34228:34240   */\n      add\n        /* \"#utility.yul\":34221:34240   */\n      swap1\n      pop\n        /* \"#utility.yul\":33880:34246   */\n      swap2\n      swap1\n      pop\n      jump\t// out\n        /* \"#utility.yul\":34252:34671   */\n    tag_264:\n        /* \"#utility.yul\":34418:34422   */\n      0x00\n        /* \"#utility.yul\":34456:34458   */\n      0x20\n        /* \"#utility.yul\":34445:34454   */\n      dup3\n        /* \"#utility.yul\":34441:34459   */\n      add\n        /* \"#utility.yul\":34433:34459   */\n      swap1\n      pop\n        /* \"#utility.yul\":34505:34514   */\n      dup2\n        /* \"#utility.yul\":34499:34503   */\n      dup2\n        /* \"#utility.yul\":34495:34515   */\n      sub\n        /* \"#utility.yul\":34491:34492   */\n      0x00\n        /* \"#utility.yul\":34480:34489   */\n      dup4\n        /* \"#utility.yul\":34476:34493   */\n      add\n        /* \"#utility.yul\":34469:34516   */\n      mstore\n        /* \"#utility.yul\":34533:34664   */\n      tag_737\n        /* \"#utility.yul\":34659:34663   */\n      dup2\n        /* \"#utility.yul\":34533:34664   */\n      tag_436\n      jump\t// in\n    tag_737:\n        /* \"#utility.yul\":34525:34664   */\n      swap1\n      pop\n        /* \"#utility.yul\":34252:34671   */\n      swap2\n      swap1\n      pop\n      jump\t// out\n        /* \"#utility.yul\":34677:35100   */\n    tag_266:\n        /* \"#utility.yul\":34818:34822   */\n      0x00\n        /* \"#utility.yul\":34856:34858   */\n      0x40\n        /* \"#utility.yul\":34845:34854   */\n      dup3\n        /* \"#utility.yul\":34841:34859   */\n      add\n        /* \"#utility.yul\":34833:34859   */\n      swap1\n      pop\n        /* \"#utility.yul\":34869:34940   */\n      tag_739\n        /* \"#utility.yul\":34937:34938   */\n      0x00\n        /* \"#utility.yul\":34926:34935   */\n      dup4\n        /* \"#utility.yul\":34922:34939   */\n      add\n        /* \"#utility.yul\":34913:34919   */\n      dup6\n        /* \"#utility.yul\":34869:34940   */\n      tag_360\n      jump\t// in\n    tag_739:\n        /* \"#utility.yul\":34987:34996   */\n      dup2\n        /* \"#utility.yul\":34981:34985   */\n      dup2\n        /* \"#utility.yul\":34977:34997   */\n      sub\n        /* \"#utility.yul\":34972:34974   */\n      0x20\n        /* \"#utility.yul\":34961:34970   */\n      dup4\n        /* \"#utility.yul\":34957:34975   */\n      add\n        /* \"#utility.yul\":34950:34998   */\n      mstore\n        /* \"#utility.yul\":35015:35093   */\n      tag_740\n        /* \"#utility.yul\":35088:35092   */\n      dup2\n        /* \"#utility.yul\":35079:35085   */\n      dup5\n        /* \"#utility.yul\":35015:35093   */\n      tag_365\n      jump\t// in\n    tag_740:\n        /* \"#utility.yul\":35007:35093   */\n      swap1\n      pop\n        /* \"#utility.yul\":34677:35100   */\n      swap4\n      swap3\n      pop\n      pop\n      pop\n      jump\t// out\n        /* \"#utility.yul\":35106:35285   */\n    tag_437:\n        /* \"#utility.yul\":35246:35277   */\n      0x5461736b206973206e6f7420696e2042696464696e6720737461747573000000\n        /* \"#utility.yul\":35242:35243   */\n      0x00\n        /* \"#utility.yul\":35234:35240   */\n      dup3\n        /* \"#utility.yul\":35230:35244   */\n      add\n        /* \"#utility.yul\":35223:35278   */\n      mstore\n        /* \"#utility.yul\":35106:35285   */\n      pop\n      jump\t// out\n        /* \"#utility.yul\":35291:35657   */\n    tag_438:\n        /* \"#utility.yul\":35433:35436   */\n      0x00\n        /* \"#utility.yul\":35454:35521   */\n      tag_743\n        /* \"#utility.yul\":35518:35520   */\n      0x1d\n        /* \"#utility.yul\":35513:35516   */\n      dup4\n        /* \"#utility.yul\":35454:35521   */\n      tag_362\n      jump\t// in\n    tag_743:\n        /* \"#utility.yul\":35447:35521   */\n      swap2\n      pop\n        /* \"#utility.yul\":35530:35623   */\n      tag_744\n        /* \"#utility.yul\":35619:35622   */\n      dup3\n        /* \"#utility.yul\":35530:35623   */\n      tag_437\n      jump\t// in\n    tag_744:\n        /* \"#utility.yul\":35648:35650   */\n      0x20\n        /* \"#utility.yul\":35643:35646   */\n      dup3\n        /* \"#utility.yul\":35639:35651   */\n      add\n        /* \"#utility.yul\":35632:35651   */\n      swap1\n      pop\n        /* \"#utility.yul\":35291:35657   */\n      swap2\n      swap1\n      pop\n      jump\t// out\n        /* \"#utility.yul\":35663:36082   */\n    tag_280:\n        /* \"#utility.yul\":35829:35833   */\n      0x00\n        /* \"#utility.yul\":35867:35869   */\n      0x20\n        /* \"#utility.yul\":35856:35865   */\n      dup3\n        /* \"#utility.yul\":35852:35870   */\n      add\n        /* \"#utility.yul\":35844:35870   */\n      swap1\n      pop\n        /* \"#utility.yul\":35916:35925   */\n      dup2\n        /* \"#utility.yul\":35910:35914   */\n      dup2\n        /* \"#utility.yul\":35906:35926   */\n      sub\n        /* \"#utility.yul\":35902:35903   */\n      0x00\n        /* \"#utility.yul\":35891:35900   */\n      dup4\n        /* \"#utility.yul\":35887:35904   */\n      add\n        /* \"#utility.yul\":35880:35927   */\n      mstore\n        /* \"#utility.yul\":35944:36075   */\n      tag_746\n        /* \"#utility.yul\":36070:36074   */\n      dup2\n        /* \"#utility.yul\":35944:36075   */\n      tag_438\n      jump\t// in\n    tag_746:\n        /* \"#utility.yul\":35936:36075   */\n      swap1\n      pop\n        /* \"#utility.yul\":35663:36082   */\n      swap2\n      swap1\n      pop\n      jump\t// out\n        /* \"#utility.yul\":36088:36266   */\n    tag_439:\n        /* \"#utility.yul\":36228:36258   */\n      0x57696e6e6572206d7573742062652061207061727469636970616e7400000000\n        /* \"#utility.yul\":36224:36225   */\n      0x00\n        /* \"#utility.yul\":36216:36222   */\n      dup3\n        /* \"#utility.yul\":36212:36226   */\n      add\n        /* \"#utility.yul\":36205:36259   */\n      mstore\n        /* \"#utility.yul\":36088:36266   */\n      pop\n      jump\t// out\n        /* \"#utility.yul\":36272:36638   */\n    tag_440:\n        /* \"#utility.yul\":36414:36417   */\n      0x00\n        /* \"#utility.yul\":36435:36502   */\n      tag_749\n        /* \"#utility.yul\":36499:36501   */\n      0x1c\n        /* \"#utility.yul\":36494:36497   */\n      dup4\n        /* \"#utility.yul\":36435:36502   */\n      tag_362\n      jump\t// in\n    tag_749:\n        /* \"#utility.yul\":36428:36502   */\n      swap2\n      pop\n        /* \"#utility.yul\":36511:36604   */\n      tag_750\n        /* \"#utility.yul\":36600:36603   */\n      dup3\n        /* \"#utility.yul\":36511:36604   */\n      tag_439\n      jump\t// in\n    tag_750:\n        /* \"#utility.yul\":36629:36631   */\n      0x20\n        /* \"#utility.yul\":36624:36627   */\n      dup3\n        /* \"#utility.yul\":36620:36632   */\n      add\n        /* \"#utility.yul\":36613:36632   */\n      swap1\n      pop\n        /* \"#utility.yul\":36272:36638   */\n      swap2\n      swap1\n      pop\n      jump\t// out\n        /* \"#utility.yul\":36644:37063   */\n    tag_290:\n        /* \"#utility.yul\":36810:36814   */\n      0x00\n        /* \"#utility.yul\":36848:36850   */\n      0x20\n        /* \"#utility.yul\":36837:36846   */\n      dup3\n        /* \"#utility.yul\":36833:36851   */\n      add\n        /* \"#utility.yul\":36825:36851   */\n      swap1\n      pop\n        /* \"#utility.yul\":36897:36906   */\n      dup2\n        /* \"#utility.yul\":36891:36895   */\n      dup2\n        /* \"#utility.yul\":36887:36907   */\n      sub\n        /* \"#utility.yul\":36883:36884   */\n      0x00\n        /* \"#utility.yul\":36872:36881   */\n      dup4\n        /* \"#utility.yul\":36868:36885   */\n      add\n        /* \"#utility.yul\":36861:36908   */\n      mstore\n        /* \"#utility.yul\":36925:37056   */\n      tag_752\n        /* \"#utility.yul\":37051:37055   */\n      dup2\n        /* \"#utility.yul\":36925:37056   */\n      tag_440\n      jump\t// in\n    tag_752:\n        /* \"#utility.yul\":36917:37056   */\n      swap1\n      pop\n        /* \"#utility.yul\":36644:37063   */\n      swap2\n      swap1\n      pop\n      jump\t// out\n        /* \"#utility.yul\":37069:37289   */\n    tag_441:\n        /* \"#utility.yul\":37209:37243   */\n      0x4f6e6c792077696e6e65722063616e20636f6d706c6574652074686520746173\n        /* \"#utility.yul\":37205:37206   */\n      0x00\n        /* \"#utility.yul\":37197:37203   */\n      dup3\n        /* \"#utility.yul\":37193:37207   */\n      add\n        /* \"#utility.yul\":37186:37244   */\n      mstore\n        /* \"#utility.yul\":37278:37281   */\n      0x6b00000000000000000000000000000000000000000000000000000000000000\n        /* \"#utility.yul\":37273:37275   */\n      0x20\n        /* \"#utility.yul\":37265:37271   */\n      dup3\n        /* \"#utility.yul\":37261:37276   */\n      add\n        /* \"#utility.yul\":37254:37282   */\n      mstore\n        /* \"#utility.yul\":37069:37289   */\n      pop\n      jump\t// out\n        /* \"#utility.yul\":37295:37661   */\n    tag_442:\n        /* \"#utility.yul\":37437:37440   */\n      0x00\n        /* \"#utility.yul\":37458:37525   */\n      tag_755\n        /* \"#utility.yul\":37522:37524   */\n      0x21\n        /* \"#utility.yul\":37517:37520   */\n      dup4\n        /* \"#utility.yul\":37458:37525   */\n      tag_362\n      jump\t// in\n    tag_755:\n        /* \"#utility.yul\":37451:37525   */\n      swap2\n      pop\n        /* \"#utility.yul\":37534:37627   */\n      tag_756\n        /* \"#utility.yul\":37623:37626   */\n      dup3\n        /* \"#utility.yul\":37534:37627   */\n      tag_441\n      jump\t// in\n    tag_756:\n        /* \"#utility.yul\":37652:37654   */\n      0x40\n        /* \"#utility.yul\":37647:37650   */\n      dup3\n        /* \"#utility.yul\":37643:37655   */\n      add\n        /* \"#utility.yul\":37636:37655   */\n      swap1\n      pop\n        /* \"#utility.yul\":37295:37661   */\n      swap2\n      swap1\n      pop\n      jump\t// out\n        /* \"#utility.yul\":37667:38086   */\n    tag_300:\n        /* \"#utility.yul\":37833:37837   */\n      0x00\n        /* \"#utility.yul\":37871:37873   */\n      0x20\n        /* \"#utility.yul\":37860:37869   */\n      dup3\n        /* \"#utility.yul\":37856:37874   */\n      add\n        /* \"#utility.yul\":37848:37874   */\n      swap1\n      pop\n        /* \"#utility.yul\":37920:37929   */\n      dup2\n        /* \"#utility.yul\":37914:37918   */\n      dup2\n        /* \"#utility.yul\":37910:37930   */\n      sub\n        /* \"#utility.yul\":37906:37907   */\n      0x00\n        /* \"#utility.yul\":37895:37904   */\n      dup4\n        /* \"#utility.yul\":37891:37908   */\n      add\n        /* \"#utility.yul\":37884:37931   */\n      mstore\n        /* \"#utility.yul\":37948:38079   */\n      tag_758\n        /* \"#utility.yul\":38074:38078   */\n      dup2\n        /* \"#utility.yul\":37948:38079   */\n      tag_442\n      jump\t// in\n    tag_758:\n        /* \"#utility.yul\":37940:38079   */\n      swap1\n      pop\n        /* \"#utility.yul\":37667:38086   */\n      swap2\n      swap1\n      pop\n      jump\t// out\n        /* \"#utility.yul\":38092:38267   */\n    tag_443:\n        /* \"#utility.yul\":38232:38259   */\n      0x5461736b20616c72656164792068617320612077696e6e657200000000000000\n        /* \"#utility.yul\":38228:38229   */\n      0x00\n        /* \"#utility.yul\":38220:38226   */\n      dup3\n        /* \"#utility.yul\":38216:38230   */\n      add\n        /* \"#utility.yul\":38209:38260   */\n      mstore\n        /* \"#utility.yul\":38092:38267   */\n      pop\n      jump\t// out\n        /* \"#utility.yul\":38273:38639   */\n    tag_444:\n        /* \"#utility.yul\":38415:38418   */\n      0x00\n        /* \"#utility.yul\":38436:38503   */\n      tag_761\n        /* \"#utility.yul\":38500:38502   */\n      0x19\n        /* \"#utility.yul\":38495:38498   */\n      dup4\n        /* \"#utility.yul\":38436:38503   */\n      tag_362\n      jump\t// in\n    tag_761:\n        /* \"#utility.yul\":38429:38503   */\n      swap2\n      pop\n        /* \"#utility.yul\":38512:38605   */\n      tag_762\n        /* \"#utility.yul\":38601:38604   */\n      dup3\n        /* \"#utility.yul\":38512:38605   */\n      tag_443\n      jump\t// in\n    tag_762:\n        /* \"#utility.yul\":38630:38632   */\n      0x20\n        /* \"#utility.yul\":38625:38628   */\n      dup3\n        /* \"#utility.yul\":38621:38633   */\n      add\n        /* \"#utility.yul\":38614:38633   */\n      swap1\n      pop\n        /* \"#utility.yul\":38273:38639   */\n      swap2\n      swap1\n      pop\n      jump\t// out\n        /* \"#utility.yul\":38645:39064   */\n    tag_323:\n        /* \"#utility.yul\":38811:38815   */\n      0x00\n        /* \"#utility.yul\":38849:38851   */\n      0x20\n        /* \"#utility.yul\":38838:38847   */\n      dup3\n        /* \"#utility.yul\":38834:38852   */\n      add\n        /* \"#utility.yul\":38826:38852   */\n      swap1\n      pop\n        /* \"#utility.yul\":38898:38907   */\n      dup2\n        /* \"#utility.yul\":38892:38896   */\n      dup2\n        /* \"#utility.yul\":38888:38908   */\n      sub\n        /* \"#utility.yul\":38884:38885   */\n      0x00\n        /* \"#utility.yul\":38873:38882   */\n      dup4\n        /* \"#utility.yul\":38869:38886   */\n      add\n        /* \"#utility.yul\":38862:38909   */\n      mstore\n        /* \"#utility.yul\":38926:39057   */\n      tag_764\n        /* \"#utility.yul\":39052:39056   */\n      dup2\n        /* \"#utility.yul\":38926:39057   */\n      tag_444\n      jump\t// in\n    tag_764:\n        /* \"#utility.yul\":38918:39057   */\n      swap1\n      pop\n        /* \"#utility.yul\":38645:39064   */\n      swap2\n      swap1\n      pop\n      jump\t// out\n        /* \"#utility.yul\":39070:39236   */\n    tag_445:\n        /* \"#utility.yul\":39210:39228   */\n      0x5461736b206e6f74206578706972656400000000000000000000000000000000\n        /* \"#utility.yul\":39206:39207   */\n      0x00\n        /* \"#utility.yul\":39198:39204   */\n      dup3\n        /* \"#utility.yul\":39194:39208   */\n      add\n        /* \"#utility.yul\":39187:39229   */\n      mstore\n        /* \"#utility.yul\":39070:39236   */\n      pop\n      jump\t// out\n        /* \"#utility.yul\":39242:39608   */\n    tag_446:\n        /* \"#utility.yul\":39384:39387   */\n      0x00\n        /* \"#utility.yul\":39405:39472   */\n      tag_767\n        /* \"#utility.yul\":39469:39471   */\n      0x10\n        /* \"#utility.yul\":39464:39467   */\n      dup4\n        /* \"#utility.yul\":39405:39472   */\n      tag_362\n      jump\t// in\n    tag_767:\n        /* \"#utility.yul\":39398:39472   */\n      swap2\n      pop\n        /* \"#utility.yul\":39481:39574   */\n      tag_768\n        /* \"#utility.yul\":39570:39573   */\n      dup3\n        /* \"#utility.yul\":39481:39574   */\n      tag_445\n      jump\t// in\n    tag_768:\n        /* \"#utility.yul\":39599:39601   */\n      0x20\n        /* \"#utility.yul\":39594:39597   */\n      dup3\n        /* \"#utility.yul\":39590:39602   */\n      add\n        /* \"#utility.yul\":39583:39602   */\n      swap1\n      pop\n        /* \"#utility.yul\":39242:39608   */\n      swap2\n      swap1\n      pop\n      jump\t// out\n        /* \"#utility.yul\":39614:40033   */\n    tag_326:\n        /* \"#utility.yul\":39780:39784   */\n      0x00\n        /* \"#utility.yul\":39818:39820   */\n      0x20\n        /* \"#utility.yul\":39807:39816   */\n      dup3\n        /* \"#utility.yul\":39803:39821   */\n      add\n        /* \"#utility.yul\":39795:39821   */\n      swap1\n      pop\n        /* \"#utility.yul\":39867:39876   */\n      dup2\n        /* \"#utility.yul\":39861:39865   */\n      dup2\n        /* \"#utility.yul\":39857:39877   */\n      sub\n        /* \"#utility.yul\":39853:39854   */\n      0x00\n        /* \"#utility.yul\":39842:39851   */\n      dup4\n        /* \"#utility.yul\":39838:39855   */\n      add\n        /* \"#utility.yul\":39831:39878   */\n      mstore\n        /* \"#utility.yul\":39895:40026   */\n      tag_770\n        /* \"#utility.yul\":40021:40025   */\n      dup2\n        /* \"#utility.yul\":39895:40026   */\n      tag_446\n      jump\t// in\n    tag_770:\n        /* \"#utility.yul\":39887:40026   */\n      swap1\n      pop\n        /* \"#utility.yul\":39614:40033   */\n      swap2\n      swap1\n      pop\n      jump\t// out\n\n    auxdata: 0xa2646970667358221220720ee131e98e489df17fecf631f7c56e112ec5f681195ef98d0cc47e13fab89264736f6c634300081e0033\n}\n",
				"bytecode": {
					"linkReferences": {},
					"object": "6080604052604051613aaf380380613aaf83398181016040528101906100259190610159565b8260035f6101000a81548173ffffffffffffffffffffffffffffffffffffffff021916908373ffffffffffffffffffffffffffffffffffffffff1602179055508160045f6101000a81548173ffffffffffffffffffffffffffffffffffffffff021916908373ffffffffffffffffffffffffffffffffffffffff1602179055508060055f6101000a81548173ffffffffffffffffffffffffffffffffffffffff021916908373ffffffffffffffffffffffffffffffffffffffff1602179055505f600181905550346002819055505050506101a9565b5f5ffd5b5f73ffffffffffffffffffffffffffffffffffffffff82169050919050565b5f610128826100ff565b9050919050565b6101388161011e565b8114610142575f5ffd5b50565b5f815190506101538161012f565b92915050565b5f5f5f606084860312156101705761016f6100fb565b5b5f61017d86828701610145565b935050602061018e86828701610145565b925050604061019f86828701610145565b9150509250925092565b6138f9806101b65f395ff3fe6080604052600436106100e7575f3560e01c8063a4a268aa11610089578063e1e2955811610058578063e1e29558146102b8578063e2fdcc17146102e0578063e50333761461030a578063f1c2d0d914610332576100e7565b8063a4a268aa14610220578063ab4de6061461023c578063b6cb58a514610264578063b895c74a1461028e576100e7565b80638d977672116100c55780638d9776721461016357806390ca80df146101a657806397d9c23e146101d0578063a09e9c1d146101f8576100e7565b80630e33599d146100eb57806329e5fb09146101135780637eec20a81461013b575b5f5ffd5b3480156100f6575f5ffd5b50610111600480360381019061010c9190612614565b61035c565b005b34801561011e575f5ffd5b5061013960048036038101906101349190612652565b61065c565b005b348015610146575f5ffd5b50610161600480360381019061015c9190612652565b61086f565b005b34801561016e575f5ffd5b5061018960048036038101906101849190612652565b610c6b565b60405161019d98979695949392919061277e565b60405180910390f35b3480156101b1575f5ffd5b506101ba610e05565b6040516101c79190612808565b60405180910390f35b3480156101db575f5ffd5b506101f660048036038101906101f19190612652565b610e2a565b005b348015610203575f5ffd5b5061021e60048036038101906102199190612652565b6111b7565b005b61023a6004803603810190610235919061294d565b611504565b005b348015610247575f5ffd5b50610262600480360381019061025d9190612614565b611a17565b005b34801561026f575f5ffd5b50610278611d28565b60405161028591906129e9565b60405180910390f35b348015610299575f5ffd5b506102a2611d2e565b6040516102af91906129e9565b60405180910390f35b3480156102c3575f5ffd5b506102de60048036038101906102d99190612652565b611d34565b005b3480156102eb575f5ffd5b506102f46120b2565b6040516103019190612808565b60405180910390f35b348015610315575f5ffd5b50610330600480360381019061032b9190612652565b6120d7565b005b34801561033d575f5ffd5b50610346612454565b6040516103539190612808565b60405180910390f35b81805f5f8381526020019081526020015f205f0154146103b1576040517f08c379a00000000000000000000000000000000000000000000000000000000081526004016103a890612a4c565b60405180910390fd5b60055f9054906101000a900473ffffffffffffffffffffffffffffffffffffffff1673ffffffffffffffffffffffffffffffffffffffff163373ffffffffffffffffffffffffffffffffffffffff1614610440576040517f08c379a000000000000000000000000000000000000000000000000000000000815260040161043790612ada565b60405180910390fd5b5f5f5f8581526020019081526020015f209050828160050160016101000a81548173ffffffffffffffffffffffffffffffffffffffff021916908373ffffffffffffffffffffffffffffffffffffffff1602179055506003816005015f6101000a81548160ff021916908360048111156104bd576104bc61270b565b5b02179055505f60045f9054906101000a900473ffffffffffffffffffffffffffffffffffffffff1673ffffffffffffffffffffffffffffffffffffffff16858560405160240161050e929190612af8565b6040516020818303038152906040527f1af23a59000000000000000000000000000000000000000000000000000000007bffffffffffffffffffffffffffffffffffffffffffffffffffffffff19166020820180517bffffffffffffffffffffffffffffffffffffffffffffffffffffffff83818316178352505050506040516105989190612b63565b5f604051808303815f865af19150503d805f81146105d1576040519150601f19603f3d011682016040523d82523d5f602084013e6105d6565b606091505b505090508061061a576040517f08c379a000000000000000000000000000000000000000000000000000000000815260040161061190612bc3565b60405180910390fd5b847f4c15bbf33194d9c3d8bcb678f11efd3112f20ba2837209f1d04e622b9c50b68e60038660405161064d929190612be1565b60405180910390a25050505050565b80805f5f8381526020019081526020015f205f0154146106b1576040517f08c379a00000000000000000000000000000000000000000000000000000000081526004016106a890612a4c565b60405180910390fd5b5f5f5f8481526020019081526020015f209050600160048111156106d8576106d761270b565b5b816005015f9054906101000a900460ff1660048111156106fb576106fa61270b565b5b1461073b576040517f08c379a000000000000000000000000000000000000000000000000000000000815260040161073290612c78565b60405180910390fd5b5f5f90505b8160070180549050811015610807573373ffffffffffffffffffffffffffffffffffffffff1682600701828154811061077c5761077b612c96565b5b905f5260205f20015f9054906101000a900473ffffffffffffffffffffffffffffffffffffffff1673ffffffffffffffffffffffffffffffffffffffff16036107fa576040517f08c379a00000000000000000000000000000000000000000000000000000000081526004016107f190612d0d565b60405180910390fd5b8080600101915050610740565b508060070133908060018154018082558091505060019003905f5260205f20015f9091909190916101000a81548173ffffffffffffffffffffffffffffffffffffffff021916908373ffffffffffffffffffffffffffffffffffffffff160217905550505050565b80805f5f8381526020019081526020015f205f0154146108c4576040517f08c379a00000000000000000000000000000000000000000000000000000000081526004016108bb90612a4c565b60405180910390fd5b813373ffffffffffffffffffffffffffffffffffffffff165f5f8381526020019081526020015f206003015f9054906101000a900473ffffffffffffffffffffffffffffffffffffffff1673ffffffffffffffffffffffffffffffffffffffff1614610965576040517f08c379a000000000000000000000000000000000000000000000000000000000815260040161095c90612d75565b60405180910390fd5b5f5f5f8581526020019081526020015f2090505f600481111561098b5761098a61270b565b5b816005015f9054906101000a900460ff1660048111156109ae576109ad61270b565b5b14806109ee5750600160048111156109c9576109c861270b565b5b816005015f9054906101000a900460ff1660048111156109ec576109eb61270b565b5b145b610a2d576040517f08c379a0000000000000000000000000000000000000000000000000000000008152600401610a2490612ddd565b60405180910390fd5b5f60045f9054906101000a900473ffffffffffffffffffffffffffffffffffffffff1673ffffffffffffffffffffffffffffffffffffffff1685604051602401610a7791906129e9565b6040516020818303038152906040527f15f1bbfe000000000000000000000000000000000000000000000000000000007bffffffffffffffffffffffffffffffffffffffffffffffffffffffff19166020820180517bffffffffffffffffffffffffffffffffffffffffffffffffffffffff8381831617835250505050604051610b019190612b63565b5f604051808303815f865af19150503d805f8114610b3a576040519150601f19603f3d011682016040523d82523d5f602084013e610b3f565b606091505b5050905080610b83576040517f08c379a0000000000000000000000000000000000000000000000000000000008152600401610b7a90612e45565b60405180910390fd5b5f5f8681526020019081526020015f205f5f82015f9055600182015f610ba99190612479565b600282015f610bb89190612479565b600382015f6101000a81549073ffffffffffffffffffffffffffffffffffffffff0219169055600482015f9055600582015f6101000a81549060ff02191690556005820160016101000a81549073ffffffffffffffffffffffffffffffffffffffff0219169055600682015f9055600782015f610c3591906124b6565b5050847f36a2f40cfe61ace5baf26a6e4f86ffa75c62392fde263d354d42e0e718fa4bd160405160405180910390a25050505050565b5f602052805f5260405f205f91509050805f015490806001018054610c8f90612e90565b80601f0160208091040260200160405190810160405280929190818152602001828054610cbb90612e90565b8015610d065780601f10610cdd57610100808354040283529160200191610d06565b820191905f5260205f20905b815481529060010190602001808311610ce957829003601f168201915b505050505090806002018054610d1b90612e90565b80601f0160208091040260200160405190810160405280929190818152602001828054610d4790612e90565b8015610d925780601f10610d6957610100808354040283529160200191610d92565b820191905f5260205f20905b815481529060010190602001808311610d7557829003601f168201915b505050505090806003015f9054906101000a900473ffffffffffffffffffffffffffffffffffffffff1690806004015490806005015f9054906101000a900460ff16908060050160019054906101000a900473ffffffffffffffffffffffffffffffffffffffff16908060060154905088565b60035f9054906101000a900473ffffffffffffffffffffffffffffffffffffffff1681565b80805f5f8381526020019081526020015f205f015414610e7f576040517f08c379a0000000000000000000000000000000000000000000000000000000008152600401610e7690612a4c565b60405180910390fd5b5f5f5f8481526020019081526020015f2090508060050160019054906101000a900473ffffffffffffffffffffffffffffffffffffffff1673ffffffffffffffffffffffffffffffffffffffff163373ffffffffffffffffffffffffffffffffffffffff161480610f3e5750806003015f9054906101000a900473ffffffffffffffffffffffffffffffffffffffff1673ffffffffffffffffffffffffffffffffffffffff163373ffffffffffffffffffffffffffffffffffffffff16145b610f7d576040517f08c379a0000000000000000000000000000000000000000000000000000000008152600401610f7490612f30565b60405180910390fd5b60026004811115610f9157610f9061270b565b5b816005015f9054906101000a900460ff166004811115610fb457610fb361270b565b5b14610ff4576040517f08c379a0000000000000000000000000000000000000000000000000000000008152600401610feb90612f98565b60405180910390fd5b6004816005015f6101000a81548160ff0219169083600481111561101b5761101a61270b565b5b02179055505f60055f9054906101000a900473ffffffffffffffffffffffffffffffffffffffff1673ffffffffffffffffffffffffffffffffffffffff168460405160240161106a91906129e9565b6040516020818303038152906040527f4b54a379000000000000000000000000000000000000000000000000000000007bffffffffffffffffffffffffffffffffffffffffffffffffffffffff19166020820180517bffffffffffffffffffffffffffffffffffffffffffffffffffffffff83818316178352505050506040516110f49190612b63565b5f604051808303815f865af19150503d805f811461112d576040519150601f19603f3d011682016040523d82523d5f602084013e611132565b606091505b5050905080611176576040517f08c379a000000000000000000000000000000000000000000000000000000000815260040161116d90613000565b60405180910390fd5b837f4c15bbf33194d9c3d8bcb678f11efd3112f20ba2837209f1d04e622b9c50b68e60045f6040516111a9929190612be1565b60405180910390a250505050565b80805f5f8381526020019081526020015f205f01541461120c576040517f08c379a000000000000000000000000000000000000000000000000000000000815260040161120390612a4c565b60405180910390fd5b813373ffffffffffffffffffffffffffffffffffffffff165f5f8381526020019081526020015f206003015f9054906101000a900473ffffffffffffffffffffffffffffffffffffffff1673ffffffffffffffffffffffffffffffffffffffff16146112ad576040517f08c379a00000000000000000000000000000000000000000000000000000000081526004016112a490612d75565b60405180910390fd5b5f60048111156112c0576112bf61270b565b5b5f5f8581526020019081526020015f206005015f9054906101000a900460ff1660048111156112f2576112f161270b565b5b14611332576040517f08c379a000000000000000000000000000000000000000000000000000000000815260040161132990613068565b60405180910390fd5b60015f5f8581526020019081526020015f206005015f6101000a81548160ff021916908360048111156113685761136761270b565b5b02179055505f60035f9054906101000a900473ffffffffffffffffffffffffffffffffffffffff1673ffffffffffffffffffffffffffffffffffffffff16846040516024016113b791906129e9565b6040516020818303038152906040527fe38c8302000000000000000000000000000000000000000000000000000000007bffffffffffffffffffffffffffffffffffffffffffffffffffffffff19166020820180517bffffffffffffffffffffffffffffffffffffffffffffffffffffffff83818316178352505050506040516114419190612b63565b5f604051808303815f865af19150503d805f811461147a576040519150601f19603f3d011682016040523d82523d5f602084013e61147f565b606091505b50509050806114c3576040517f08c379a00000000000000000000000000000000000000000000000000000000081526004016114ba906130d0565b60405180910390fd5b837f4c15bbf33194d9c3d8bcb678f11efd3112f20ba2837209f1d04e622b9c50b68e60015f6040516114f6929190612be1565b60405180910390a250505050565b8160025414611548576040517f08c379a000000000000000000000000000000000000000000000000000000000815260040161153f9061315e565b60405180910390fd5b5f821161158a576040517f08c379a0000000000000000000000000000000000000000000000000000000008152600401611581906131c6565b60405180910390fd5b5f8451116115cd576040517f08c379a00000000000000000000000000000000000000000000000000000000081526004016115c49061322e565b60405180910390fd5b5f835111611610576040517f08c379a000000000000000000000000000000000000000000000000000000000815260040161160790613296565b60405180910390fd5b428111611652576040517f08c379a0000000000000000000000000000000000000000000000000000000008152600401611649906132fe565b60405180910390fd5b5f60015f81548092919061166590613349565b9190505590506040518061012001604052808281526020018681526020018581526020013373ffffffffffffffffffffffffffffffffffffffff1681526020018481526020015f60048111156116be576116bd61270b565b5b81526020015f73ffffffffffffffffffffffffffffffffffffffff1681526020018381526020015f67ffffffffffffffff8111156116ff576116fe612829565b5b60405190808252806020026020018201604052801561172d5781602001602082028036833780820191505090505b508152505f5f8381526020019081526020015f205f820151815f0155602082015181600101908161175e9190613530565b5060408201518160020190816117749190613530565b506060820151816003015f6101000a81548173ffffffffffffffffffffffffffffffffffffffff021916908373ffffffffffffffffffffffffffffffffffffffff1602179055506080820151816004015560a0820151816005015f6101000a81548160ff021916908360048111156117ef576117ee61270b565b5b021790555060c08201518160050160016101000a81548173ffffffffffffffffffffffffffffffffffffffff021916908373ffffffffffffffffffffffffffffffffffffffff16021790555060e082015181600601556101008201518160070190805190602001906118629291906124d4565b509050505f60045f9054906101000a900473ffffffffffffffffffffffffffffffffffffffff1673ffffffffffffffffffffffffffffffffffffffff1634836040516024016118b191906129e9565b6040516020818303038152906040527f3b76594d000000000000000000000000000000000000000000000000000000007bffffffffffffffffffffffffffffffffffffffffffffffffffffffff19166020820180517bffffffffffffffffffffffffffffffffffffffffffffffffffffffff838183161783525050505060405161193b9190612b63565b5f6040518083038185875af1925050503d805f8114611975576040519150601f19603f3d011682016040523d82523d5f602084013e61197a565b606091505b50509050806119be576040517f08c379a00000000000000000000000000000000000000000000000000000000081526004016119b590613649565b60405180910390fd5b3373ffffffffffffffffffffffffffffffffffffffff16827fedce45cc3fc2bea98c94b72104f4a750dcc91bd183a01870ed4f93a365eba5b98688604051611a07929190613667565b60405180910390a3505050505050565b81805f5f8381526020019081526020015f205f015414611a6c576040517f08c379a0000000000000000000000000000000000000000000000000000000008152600401611a6390612a4c565b60405180910390fd5b823373ffffffffffffffffffffffffffffffffffffffff165f5f8381526020019081526020015f206003015f9054906101000a900473ffffffffffffffffffffffffffffffffffffffff1673ffffffffffffffffffffffffffffffffffffffff1614611b0d576040517f08c379a0000000000000000000000000000000000000000000000000000000008152600401611b0490612d75565b60405180910390fd5b5f5f5f8681526020019081526020015f20905060016004811115611b3457611b3361270b565b5b816005015f9054906101000a900460ff166004811115611b5757611b5661270b565b5b14611b97576040517f08c379a0000000000000000000000000000000000000000000000000000000008152600401611b8e906136df565b60405180910390fd5b5f5f90505f5f90505b8260070180549050811015611c35578573ffffffffffffffffffffffffffffffffffffffff16836007018281548110611bdc57611bdb612c96565b5b905f5260205f20015f9054906101000a900473ffffffffffffffffffffffffffffffffffffffff1673ffffffffffffffffffffffffffffffffffffffff1603611c285760019150611c35565b8080600101915050611ba0565b5080611c76576040517f08c379a0000000000000000000000000000000000000000000000000000000008152600401611c6d90613747565b60405180910390fd5b848260050160016101000a81548173ffffffffffffffffffffffffffffffffffffffff021916908373ffffffffffffffffffffffffffffffffffffffff1602179055506002826005015f6101000a81548160ff02191690836004811115611ce057611cdf61270b565b5b0217905550857f4c15bbf33194d9c3d8bcb678f11efd3112f20ba2837209f1d04e622b9c50b68e600287604051611d18929190612be1565b60405180910390a2505050505050565b60015481565b60025481565b80805f5f8381526020019081526020015f205f015414611d89576040517f08c379a0000000000000000000000000000000000000000000000000000000008152600401611d8090612a4c565b60405180910390fd5b5f5f5f8481526020019081526020015f2090508060050160019054906101000a900473ffffffffffffffffffffffffffffffffffffffff1673ffffffffffffffffffffffffffffffffffffffff163373ffffffffffffffffffffffffffffffffffffffff1614611e2e576040517f08c379a0000000000000000000000000000000000000000000000000000000008152600401611e25906137d5565b60405180910390fd5b60026004811115611e4257611e4161270b565b5b816005015f9054906101000a900460ff166004811115611e6557611e6461270b565b5b14611ea5576040517f08c379a0000000000000000000000000000000000000000000000000000000008152600401611e9c90612f98565b60405180910390fd5b6003816005015f6101000a81548160ff02191690836004811115611ecc57611ecb61270b565b5b02179055505f60045f9054906101000a900473ffffffffffffffffffffffffffffffffffffffff1673ffffffffffffffffffffffffffffffffffffffff16848360050160019054906101000a900473ffffffffffffffffffffffffffffffffffffffff16604051602401611f41929190612af8565b6040516020818303038152906040527f1af23a59000000000000000000000000000000000000000000000000000000007bffffffffffffffffffffffffffffffffffffffffffffffffffffffff19166020820180517bffffffffffffffffffffffffffffffffffffffffffffffffffffffff8381831617835250505050604051611fcb9190612b63565b5f604051808303815f865af19150503d805f8114612004576040519150601f19603f3d011682016040523d82523d5f602084013e612009565b606091505b505090508061204d576040517f08c379a000000000000000000000000000000000000000000000000000000000815260040161204490612bc3565b60405180910390fd5b837f4c15bbf33194d9c3d8bcb678f11efd3112f20ba2837209f1d04e622b9c50b68e60038460050160019054906101000a900473ffffffffffffffffffffffffffffffffffffffff166040516120a4929190612be1565b60405180910390a250505050565b60045f9054906101000a900473ffffffffffffffffffffffffffffffffffffffff1681565b80805f5f8381526020019081526020015f205f01541461212c576040517f08c379a000000000000000000000000000000000000000000000000000000000815260040161212390612a4c565b60405180910390fd5b5f5f5f8481526020019081526020015f2090505f73ffffffffffffffffffffffffffffffffffffffff168160050160019054906101000a900473ffffffffffffffffffffffffffffffffffffffff1673ffffffffffffffffffffffffffffffffffffffff16146121d1576040517f08c379a00000000000000000000000000000000000000000000000000000000081526004016121c89061383d565b60405180910390fd5b80600601544211612217576040517f08c379a000000000000000000000000000000000000000000000000000000000815260040161220e906138a5565b60405180910390fd5b5f60045f9054906101000a900473ffffffffffffffffffffffffffffffffffffffff1673ffffffffffffffffffffffffffffffffffffffff168460405160240161226191906129e9565b6040516020818303038152906040527f15f1bbfe000000000000000000000000000000000000000000000000000000007bffffffffffffffffffffffffffffffffffffffffffffffffffffffff19166020820180517bffffffffffffffffffffffffffffffffffffffffffffffffffffffff83818316178352505050506040516122eb9190612b63565b5f604051808303815f865af19150503d805f8114612324576040519150601f19603f3d011682016040523d82523d5f602084013e612329565b606091505b505090508061236d576040517f08c379a000000000000000000000000000000000000000000000000000000000815260040161236490612e45565b60405180910390fd5b5f5f8581526020019081526020015f205f5f82015f9055600182015f6123939190612479565b600282015f6123a29190612479565b600382015f6101000a81549073ffffffffffffffffffffffffffffffffffffffff0219169055600482015f9055600582015f6101000a81549060ff02191690556005820160016101000a81549073ffffffffffffffffffffffffffffffffffffffff0219169055600682015f9055600782015f61241f91906124b6565b5050837f36a2f40cfe61ace5baf26a6e4f86ffa75c62392fde263d354d42e0e718fa4bd160405160405180910390a250505050565b60055f9054906101000a900473ffffffffffffffffffffffffffffffffffffffff1681565b50805461248590612e90565b5f825580601f1061249657506124b3565b601f0160209004905f5260205f20908101906124b2919061255b565b5b50565b5080545f8255905f5260205f20908101906124d1919061255b565b50565b828054828255905f5260205f2090810192821561254a579160200282015b82811115612549578251825f6101000a81548173ffffffffffffffffffffffffffffffffffffffff021916908373ffffffffffffffffffffffffffffffffffffffff160217905550916020019190600101906124f2565b5b509050612557919061255b565b5090565b5b80821115612572575f815f90555060010161255c565b5090565b5f604051905090565b5f5ffd5b5f5ffd5b5f819050919050565b61259981612587565b81146125a3575f5ffd5b50565b5f813590506125b481612590565b92915050565b5f73ffffffffffffffffffffffffffffffffffffffff82169050919050565b5f6125e3826125ba565b9050919050565b6125f3816125d9565b81146125fd575f5ffd5b50565b5f8135905061260e816125ea565b92915050565b5f5f6040838503121561262a5761262961257f565b5b5f612637858286016125a6565b925050602061264885828601612600565b9150509250929050565b5f602082840312156126675761266661257f565b5b5f612674848285016125a6565b91505092915050565b61268681612587565b82525050565b5f81519050919050565b5f82825260208201905092915050565b8281835e5f83830152505050565b5f601f19601f8301169050919050565b5f6126ce8261268c565b6126d88185612696565b93506126e88185602086016126a6565b6126f1816126b4565b840191505092915050565b612705816125d9565b82525050565b7f4e487b71000000000000000000000000000000000000000000000000000000005f52602160045260245ffd5b600581106127495761274861270b565b5b50565b5f81905061275982612738565b919050565b5f6127688261274c565b9050919050565b6127788161275e565b82525050565b5f610100820190506127925f83018b61267d565b81810360208301526127a4818a6126c4565b905081810360408301526127b881896126c4565b90506127c760608301886126fc565b6127d4608083018761267d565b6127e160a083018661276f565b6127ee60c08301856126fc565b6127fb60e083018461267d565b9998505050505050505050565b5f60208201905061281b5f8301846126fc565b92915050565b5f5ffd5b5f5ffd5b7f4e487b71000000000000000000000000000000000000000000000000000000005f52604160045260245ffd5b61285f826126b4565b810181811067ffffffffffffffff8211171561287e5761287d612829565b5b80604052505050565b5f612890612576565b905061289c8282612856565b919050565b5f67ffffffffffffffff8211156128bb576128ba612829565b5b6128c4826126b4565b9050602081019050919050565b828183375f83830152505050565b5f6128f16128ec846128a1565b612887565b90508281526020810184848401111561290d5761290c612825565b5b6129188482856128d1565b509392505050565b5f82601f83011261293457612933612821565b5b81356129448482602086016128df565b91505092915050565b5f5f5f5f608085870312156129655761296461257f565b5b5f85013567ffffffffffffffff81111561298257612981612583565b5b61298e87828801612920565b945050602085013567ffffffffffffffff8111156129af576129ae612583565b5b6129bb87828801612920565b93505060406129cc878288016125a6565b92505060606129dd878288016125a6565b91505092959194509250565b5f6020820190506129fc5f83018461267d565b92915050565b7f5461736b20646f6573206e6f74206578697374000000000000000000000000005f82015250565b5f612a36601383612696565b9150612a4182612a02565b602082019050919050565b5f6020820190508181035f830152612a6381612a2a565b9050919050565b7f4f6e6c79204469737075746544414f2063616e207265736f6c766520646973705f8201527f7574657300000000000000000000000000000000000000000000000000000000602082015250565b5f612ac4602483612696565b9150612acf82612a6a565b604082019050919050565b5f6020820190508181035f830152612af181612ab8565b9050919050565b5f604082019050612b0b5f83018561267d565b612b1860208301846126fc565b9392505050565b5f81519050919050565b5f81905092915050565b5f612b3d82612b1f565b612b478185612b29565b9350612b578185602086016126a6565b80840191505092915050565b5f612b6e8284612b33565b915081905092915050565b7f457363726f772072656c65617365206661696c656400000000000000000000005f82015250565b5f612bad601583612696565b9150612bb882612b79565b602082019050919050565b5f6020820190508181035f830152612bda81612ba1565b9050919050565b5f604082019050612bf45f83018561276f565b612c0160208301846126fc565b9392505050565b7f5461736b206973206e6f74206f70656e20666f722070617274696369706174695f8201527f6f6e000000000000000000000000000000000000000000000000000000000000602082015250565b5f612c62602283612696565b9150612c6d82612c08565b604082019050919050565b5f6020820190508181035f830152612c8f81612c56565b9050919050565b7f4e487b71000000000000000000000000000000000000000000000000000000005f52603260045260245ffd5b7f416c7265616479207061727469636970617465640000000000000000000000005f82015250565b5f612cf7601483612696565b9150612d0282612cc3565b602082019050919050565b5f6020820190508181035f830152612d2481612ceb565b9050919050565b7f4f6e6c792063726561746f722063616e206f70657261746500000000000000005f82015250565b5f612d5f601883612696565b9150612d6a82612d2b565b602082019050919050565b5f6020820190508181035f830152612d8c81612d53565b9050919050565b7f5461736b2063616e6e6f742062652063616e63656c6c656400000000000000005f82015250565b5f612dc7601883612696565b9150612dd282612d93565b602082019050919050565b5f6020820190508181035f830152612df481612dbb565b9050919050565b7f457363726f7720726566756e64206661696c65640000000000000000000000005f82015250565b5f612e2f601483612696565b9150612e3a82612dfb565b602082019050919050565b5f6020820190508181035f830152612e5c81612e23565b9050919050565b7f4e487b71000000000000000000000000000000000000000000000000000000005f52602260045260245ffd5b5f6002820490506001821680612ea757607f821691505b602082108103612eba57612eb9612e63565b5b50919050565b7f4f6e6c792077696e6e6572206f722063726561746f722063616e2064697370755f8201527f7465000000000000000000000000000000000000000000000000000000000000602082015250565b5f612f1a602283612696565b9150612f2582612ec0565b604082019050919050565b5f6020820190508181035f830152612f4781612f0e565b9050919050565b7f5461736b206973206e6f7420696e20496e50726f6772657373207374617475735f82015250565b5f612f82602083612696565b9150612f8d82612f4e565b602082019050919050565b5f6020820190508181035f830152612faf81612f76565b9050919050565b7f446973707574652068616e646c696e67206661696c65640000000000000000005f82015250565b5f612fea601783612696565b9150612ff582612fb6565b602082019050919050565b5f6020820190508181035f83015261301781612fde565b9050919050565b7f5461736b206973206e6f7420696e2043726561746564207374617475730000005f82015250565b5f613052601d83612696565b915061305d8261301e565b602082019050919050565b5f6020820190508181035f83015261307f81613046565b9050919050565b7f42696464696e67206f70656e206661696c6564000000000000000000000000005f82015250565b5f6130ba601383612696565b91506130c582613086565b602082019050919050565b5f6020820190508181035f8301526130e7816130ae565b9050919050565b7f526577617264206d75737420626520657175616c20746f207468652073656e745f8201527f2076616c75650000000000000000000000000000000000000000000000000000602082015250565b5f613148602683612696565b9150613153826130ee565b604082019050919050565b5f6020820190508181035f8301526131758161313c565b9050919050565b7f526577617264206d7573742062652067726561746572207468616e207a65726f5f82015250565b5f6131b0602083612696565b91506131bb8261317c565b602082019050919050565b5f6020820190508181035f8301526131dd816131a4565b9050919050565b7f5461736b207469746c652063616e6e6f7420626520656d7074790000000000005f82015250565b5f613218601a83612696565b9150613223826131e4565b602082019050919050565b5f6020820190508181035f8301526132458161320c565b9050919050565b7f4950465320686173682063616e6e6f7420626520656d707479000000000000005f82015250565b5f613280601983612696565b915061328b8261324c565b602082019050919050565b5f6020820190508181035f8301526132ad81613274565b9050919050565b7f446561646c696e65206d75737420626520696e207468652066757475726500005f82015250565b5f6132e8601e83612696565b91506132f3826132b4565b602082019050919050565b5f6020820190508181035f830152613315816132dc565b9050919050565b7f4e487b71000000000000000000000000000000000000000000000000000000005f52601160045260245ffd5b5f61335382612587565b91507fffffffffffffffffffffffffffffffffffffffffffffffffffffffffffffffff82036133855761338461331c565b5b600182019050919050565b5f819050815f5260205f209050919050565b5f6020601f8301049050919050565b5f82821b905092915050565b5f600883026133ec7fffffffffffffffffffffffffffffffffffffffffffffffffffffffffffffffff826133b1565b6133f686836133b1565b95508019841693508086168417925050509392505050565b5f819050919050565b5f61343161342c61342784612587565b61340e565b612587565b9050919050565b5f819050919050565b61344a83613417565b61345e61345682613438565b8484546133bd565b825550505050565b5f5f905090565b613475613466565b613480818484613441565b505050565b5b818110156134a3576134985f8261346d565b600181019050613486565b5050565b601f8211156134e8576134b981613390565b6134c2846133a2565b810160208510156134d1578190505b6134e56134dd856133a2565b830182613485565b50505b505050565b5f82821c905092915050565b5f6135085f19846008026134ed565b1980831691505092915050565b5f61352083836134f9565b9150826002028217905092915050565b6135398261268c565b67ffffffffffffffff81111561355257613551612829565b5b61355c8254612e90565b6135678282856134a7565b5f60209050601f831160018114613598575f8415613586578287015190505b6135908582613515565b8655506135f7565b601f1984166135a686613390565b5f5b828110156135cd578489015182556001820191506020850194506020810190506135a8565b868310156135ea57848901516135e6601f8916826134f9565b8355505b6001600288020188555050505b505050505050565b7f457363726f77206465706f736974206661696c656400000000000000000000005f82015250565b5f613633601583612696565b915061363e826135ff565b602082019050919050565b5f6020820190508181035f83015261366081613627565b9050919050565b5f60408201905061367a5f83018561267d565b818103602083015261368c81846126c4565b90509392505050565b7f5461736b206973206e6f7420696e2042696464696e67207374617475730000005f82015250565b5f6136c9601d83612696565b91506136d482613695565b602082019050919050565b5f6020820190508181035f8301526136f6816136bd565b9050919050565b7f57696e6e6572206d7573742062652061207061727469636970616e74000000005f82015250565b5f613731601c83612696565b915061373c826136fd565b602082019050919050565b5f6020820190508181035f83015261375e81613725565b9050919050565b7f4f6e6c792077696e6e65722063616e20636f6d706c65746520746865207461735f8201527f6b00000000000000000000000000000000000000000000000000000000000000602082015250565b5f6137bf602183612696565b91506137ca82613765565b604082019050919050565b5f6020820190508181035f8301526137ec816137b3565b9050919050565b7f5461736b20616c72656164792068617320612077696e6e6572000000000000005f82015250565b5f613827601983612696565b9150613832826137f3565b602082019050919050565b5f6020820190508181035f8301526138548161381b565b9050919050565b7f5461736b206e6f742065787069726564000000000000000000000000000000005f82015250565b5f61388f601083612696565b915061389a8261385b565b602082019050919050565b5f6020820190508181035f8301526138bc81613883565b905091905056fea2646970667358221220720ee131e98e489df17fecf631f7c56e112ec5f681195ef98d0cc47e13fab89264736f6c634300081e0033",
					"opcodes": "PUSH1 0x80 PUSH1 0x40 MSTORE PUSH1 0x40 MLOAD PUSH2 0x3AAF CODESIZE SUB DUP1 PUSH2 0x3AAF DUP4 CODECOPY DUP2 DUP2 ADD PUSH1 0x40 MSTORE DUP2 ADD SWAP1 PUSH2 0x25 SWAP2 SWAP1 PUSH2 0x159 JUMP JUMPDEST DUP3 PUSH1 0x3 PUSH0 PUSH2 0x100 EXP DUP2 SLOAD DUP2 PUSH20 0xFFFFFFFFFFFFFFFFFFFFFFFFFFFFFFFFFFFFFFFF MUL NOT AND SWAP1 DUP4 PUSH20 0xFFFFFFFFFFFFFFFFFFFFFFFFFFFFFFFFFFFFFFFF AND MUL OR SWAP1 SSTORE POP DUP2 PUSH1 0x4 PUSH0 PUSH2 0x100 EXP DUP2 SLOAD DUP2 PUSH20 0xFFFFFFFFFFFFFFFFFFFFFFFFFFFFFFFFFFFFFFFF MUL NOT AND SWAP1 DUP4 PUSH20 0xFFFFFFFFFFFFFFFFFFFFFFFFFFFFFFFFFFFFFFFF AND MUL OR SWAP1 SSTORE POP DUP1 PUSH1 0x5 PUSH0 PUSH2 0x100 EXP DUP2 SLOAD DUP2 PUSH20 0xFFFFFFFFFFFFFFFFFFFFFFFFFFFFFFFFFFFFFFFF MUL NOT AND SWAP1 DUP4 PUSH20 0xFFFFFFFFFFFFFFFFFFFFFFFFFFFFFFFFFFFFFFFF AND MUL OR SWAP1 SSTORE POP PUSH0 PUSH1 0x1 DUP2 SWAP1 SSTORE POP CALLVALUE PUSH1 0x2 DUP2 SWAP1 SSTORE POP POP POP POP PUSH2 0x1A9 JUMP JUMPDEST PUSH0 PUSH0 REVERT JUMPDEST PUSH0 PUSH20 0xFFFFFFFFFFFFFFFFFFFFFFFFFFFFFFFFFFFFFFFF DUP3 AND SWAP1 POP SWAP2 SWAP1 POP JUMP JUMPDEST PUSH0 PUSH2 0x128 DUP3 PUSH2 0xFF JUMP JUMPDEST SWAP1 POP SWAP2 SWAP1 POP JUMP JUMPDEST PUSH2 0x138 DUP2 PUSH2 0x11E JUMP JUMPDEST DUP2 EQ PUSH2 0x142 JUMPI PUSH0 PUSH0 REVERT JUMPDEST POP JUMP JUMPDEST PUSH0 DUP2 MLOAD SWAP1 POP PUSH2 0x153 DUP2 PUSH2 0x12F JUMP JUMPDEST SWAP3 SWAP2 POP POP JUMP JUMPDEST PUSH0 PUSH0 PUSH0 PUSH1 0x60 DUP5 DUP7 SUB SLT ISZERO PUSH2 0x170 JUMPI PUSH2 0x16F PUSH2 0xFB JUMP JUMPDEST JUMPDEST PUSH0 PUSH2 0x17D DUP7 DUP3 DUP8 ADD PUSH2 0x145 JUMP JUMPDEST SWAP4 POP POP PUSH1 0x20 PUSH2 0x18E DUP7 DUP3 DUP8 ADD PUSH2 0x145 JUMP JUMPDEST SWAP3 POP POP PUSH1 0x40 PUSH2 0x19F DUP7 DUP3 DUP8 ADD PUSH2 0x145 JUMP JUMPDEST SWAP2 POP POP SWAP3 POP SWAP3 POP SWAP3 JUMP JUMPDEST PUSH2 0x38F9 DUP1 PUSH2 0x1B6 PUSH0 CODECOPY PUSH0 RETURN INVALID PUSH1 0x80 PUSH1 0x40 MSTORE PUSH1 0x4 CALLDATASIZE LT PUSH2 0xE7 JUMPI PUSH0 CALLDATALOAD PUSH1 0xE0 SHR DUP1 PUSH4 0xA4A268AA GT PUSH2 0x89 JUMPI DUP1 PUSH4 0xE1E29558 GT PUSH2 0x58 JUMPI DUP1 PUSH4 0xE1E29558 EQ PUSH2 0x2B8 JUMPI DUP1 PUSH4 0xE2FDCC17 EQ PUSH2 0x2E0 JUMPI DUP1 PUSH4 0xE5033376 EQ PUSH2 0x30A JUMPI DUP1 PUSH4 0xF1C2D0D9 EQ PUSH2 0x332 JUMPI PUSH2 0xE7 JUMP JUMPDEST DUP1 PUSH4 0xA4A268AA EQ PUSH2 0x220 JUMPI DUP1 PUSH4 0xAB4DE606 EQ PUSH2 0x23C JUMPI DUP1 PUSH4 0xB6CB58A5 EQ PUSH2 0x264 JUMPI DUP1 PUSH4 0xB895C74A EQ PUSH2 0x28E JUMPI PUSH2 0xE7 JUMP JUMPDEST DUP1 PUSH4 0x8D977672 GT PUSH2 0xC5 JUMPI DUP1 PUSH4 0x8D977672 EQ PUSH2 0x163 JUMPI DUP1 PUSH4 0x90CA80DF EQ PUSH2 0x1A6 JUMPI DUP1 PUSH4 0x97D9C23E EQ PUSH2 0x1D0 JUMPI DUP1 PUSH4 0xA09E9C1D EQ PUSH2 0x1F8 JUMPI PUSH2 0xE7 JUMP JUMPDEST DUP1 PUSH4 0xE33599D EQ PUSH2 0xEB JUMPI DUP1 PUSH4 0x29E5FB09 EQ PUSH2 0x113 JUMPI DUP1 PUSH4 0x7EEC20A8 EQ PUSH2 0x13B JUMPI JUMPDEST PUSH0 PUSH0 REVERT JUMPDEST CALLVALUE DUP1 ISZERO PUSH2 0xF6 JUMPI PUSH0 PUSH0 REVERT JUMPDEST POP PUSH2 0x111 PUSH1 0x4 DUP1 CALLDATASIZE SUB DUP2 ADD SWAP1 PUSH2 0x10C SWAP2 SWAP1 PUSH2 0x2614 JUMP JUMPDEST PUSH2 0x35C JUMP JUMPDEST STOP JUMPDEST CALLVALUE DUP1 ISZERO PUSH2 0x11E JUMPI PUSH0 PUSH0 REVERT JUMPDEST POP PUSH2 0x139 PUSH1 0x4 DUP1 CALLDATASIZE SUB DUP2 ADD SWAP1 PUSH2 0x134 SWAP2 SWAP1 PUSH2 0x2652 JUMP JUMPDEST PUSH2 0x65C JUMP JUMPDEST STOP JUMPDEST CALLVALUE DUP1 ISZERO PUSH2 0x146 JUMPI PUSH0 PUSH0 REVERT JUMPDEST POP PUSH2 0x161 PUSH1 0x4 DUP1 CALLDATASIZE SUB DUP2 ADD SWAP1 PUSH2 0x15C SWAP2 SWAP1 PUSH2 0x2652 JUMP JUMPDEST PUSH2 0x86F JUMP JUMPDEST STOP JUMPDEST CALLVALUE DUP1 ISZERO PUSH2 0x16E JUMPI PUSH0 PUSH0 REVERT JUMPDEST POP PUSH2 0x189 PUSH1 0x4 DUP1 CALLDATASIZE SUB DUP2 ADD SWAP1 PUSH2 0x184 SWAP2 SWAP1 PUSH2 0x2652 JUMP JUMPDEST PUSH2 0xC6B JUMP JUMPDEST PUSH1 0x40 MLOAD PUSH2 0x19D SWAP9 SWAP8 SWAP7 SWAP6 SWAP5 SWAP4 SWAP3 SWAP2 SWAP1 PUSH2 0x277E JUMP JUMPDEST PUSH1 0x40 MLOAD DUP1 SWAP2 SUB SWAP1 RETURN JUMPDEST CALLVALUE DUP1 ISZERO PUSH2 0x1B1 JUMPI PUSH0 PUSH0 REVERT JUMPDEST POP PUSH2 0x1BA PUSH2 0xE05 JUMP JUMPDEST PUSH1 0x40 MLOAD PUSH2 0x1C7 SWAP2 SWAP1 PUSH2 0x2808 JUMP JUMPDEST PUSH1 0x40 MLOAD DUP1 SWAP2 SUB SWAP1 RETURN JUMPDEST CALLVALUE DUP1 ISZERO PUSH2 0x1DB JUMPI PUSH0 PUSH0 REVERT JUMPDEST POP PUSH2 0x1F6 PUSH1 0x4 DUP1 CALLDATASIZE SUB DUP2 ADD SWAP1 PUSH2 0x1F1 SWAP2 SWAP1 PUSH2 0x2652 JUMP JUMPDEST PUSH2 0xE2A JUMP JUMPDEST STOP JUMPDEST CALLVALUE DUP1 ISZERO PUSH2 0x203 JUMPI PUSH0 PUSH0 REVERT JUMPDEST POP PUSH2 0x21E PUSH1 0x4 DUP1 CALLDATASIZE SUB DUP2 ADD SWAP1 PUSH2 0x219 SWAP2 SWAP1 PUSH2 0x2652 JUMP JUMPDEST PUSH2 0x11B7 JUMP JUMPDEST STOP JUMPDEST PUSH2 0x23A PUSH1 0x4 DUP1 CALLDATASIZE SUB DUP2 ADD SWAP1 PUSH2 0x235 SWAP2 SWAP1 PUSH2 0x294D JUMP JUMPDEST PUSH2 0x1504 JUMP JUMPDEST STOP JUMPDEST CALLVALUE DUP1 ISZERO PUSH2 0x247 JUMPI PUSH0 PUSH0 REVERT JUMPDEST POP PUSH2 0x262 PUSH1 0x4 DUP1 CALLDATASIZE SUB DUP2 ADD SWAP1 PUSH2 0x25D SWAP2 SWAP1 PUSH2 0x2614 JUMP JUMPDEST PUSH2 0x1A17 JUMP JUMPDEST STOP JUMPDEST CALLVALUE DUP1 ISZERO PUSH2 0x26F JUMPI PUSH0 PUSH0 REVERT JUMPDEST POP PUSH2 0x278 PUSH2 0x1D28 JUMP JUMPDEST PUSH1 0x40 MLOAD PUSH2 0x285 SWAP2 SWAP1 PUSH2 0x29E9 JUMP JUMPDEST PUSH1 0x40 MLOAD DUP1 SWAP2 SUB SWAP1 RETURN JUMPDEST CALLVALUE DUP1 ISZERO PUSH2 0x299 JUMPI PUSH0 PUSH0 REVERT JUMPDEST POP PUSH2 0x2A2 PUSH2 0x1D2E JUMP JUMPDEST PUSH1 0x40 MLOAD PUSH2 0x2AF SWAP2 SWAP1 PUSH2 0x29E9 JUMP JUMPDEST PUSH1 0x40 MLOAD DUP1 SWAP2 SUB SWAP1 RETURN JUMPDEST CALLVALUE DUP1 ISZERO PUSH2 0x2C3 JUMPI PUSH0 PUSH0 REVERT JUMPDEST POP PUSH2 0x2DE PUSH1 0x4 DUP1 CALLDATASIZE SUB DUP2 ADD SWAP1 PUSH2 0x2D9 SWAP2 SWAP1 PUSH2 0x2652 JUMP JUMPDEST PUSH2 0x1D34 JUMP JUMPDEST STOP JUMPDEST CALLVALUE DUP1 ISZERO PUSH2 0x2EB JUMPI PUSH0 PUSH0 REVERT JUMPDEST POP PUSH2 0x2F4 PUSH2 0x20B2 JUMP JUMPDEST PUSH1 0x40 MLOAD PUSH2 0x301 SWAP2 SWAP1 PUSH2 0x2808 JUMP JUMPDEST PUSH1 0x40 MLOAD DUP1 SWAP2 SUB SWAP1 RETURN JUMPDEST CALLVALUE DUP1 ISZERO PUSH2 0x315 JUMPI PUSH0 PUSH0 REVERT JUMPDEST POP PUSH2 0x330 PUSH1 0x4 DUP1 CALLDATASIZE SUB DUP2 ADD SWAP1 PUSH2 0x32B SWAP2 SWAP1 PUSH2 0x2652 JUMP JUMPDEST PUSH2 0x20D7 JUMP JUMPDEST STOP JUMPDEST CALLVALUE DUP1 ISZERO PUSH2 0x33D JUMPI PUSH0 PUSH0 REVERT JUMPDEST POP PUSH2 0x346 PUSH2 0x2454 JUMP JUMPDEST PUSH1 0x40 MLOAD PUSH2 0x353 SWAP2 SWAP1 PUSH2 0x2808 JUMP JUMPDEST PUSH1 0x40 MLOAD DUP1 SWAP2 SUB SWAP1 RETURN JUMPDEST DUP2 DUP1 PUSH0 PUSH0 DUP4 DUP2 MSTORE PUSH1 0x20 ADD SWAP1 DUP2 MSTORE PUSH1 0x20 ADD PUSH0 KECCAK256 PUSH0 ADD SLOAD EQ PUSH2 0x3B1 JUMPI PUSH1 0x40 MLOAD PUSH32 0x8C379A000000000000000000000000000000000000000000000000000000000 DUP2 MSTORE PUSH1 0x4 ADD PUSH2 0x3A8 SWAP1 PUSH2 0x2A4C JUMP JUMPDEST PUSH1 0x40 MLOAD DUP1 SWAP2 SUB SWAP1 REVERT JUMPDEST PUSH1 0x5 PUSH0 SWAP1 SLOAD SWAP1 PUSH2 0x100 EXP SWAP1 DIV PUSH20 0xFFFFFFFFFFFFFFFFFFFFFFFFFFFFFFFFFFFFFFFF AND PUSH20 0xFFFFFFFFFFFFFFFFFFFFFFFFFFFFFFFFFFFFFFFF AND CALLER PUSH20 0xFFFFFFFFFFFFFFFFFFFFFFFFFFFFFFFFFFFFFFFF AND EQ PUSH2 0x440 JUMPI PUSH1 0x40 MLOAD PUSH32 0x8C379A000000000000000000000000000000000000000000000000000000000 DUP2 MSTORE PUSH1 0x4 ADD PUSH2 0x437 SWAP1 PUSH2 0x2ADA JUMP JUMPDEST PUSH1 0x40 MLOAD DUP1 SWAP2 SUB SWAP1 REVERT JUMPDEST PUSH0 PUSH0 PUSH0 DUP6 DUP2 MSTORE PUSH1 0x20 ADD SWAP1 DUP2 MSTORE PUSH1 0x20 ADD PUSH0 KECCAK256 SWAP1 POP DUP3 DUP2 PUSH1 0x5 ADD PUSH1 0x1 PUSH2 0x100 EXP DUP2 SLOAD DUP2 PUSH20 0xFFFFFFFFFFFFFFFFFFFFFFFFFFFFFFFFFFFFFFFF MUL NOT AND SWAP1 DUP4 PUSH20 0xFFFFFFFFFFFFFFFFFFFFFFFFFFFFFFFFFFFFFFFF AND MUL OR SWAP1 SSTORE POP PUSH1 0x3 DUP2 PUSH1 0x5 ADD PUSH0 PUSH2 0x100 EXP DUP2 SLOAD DUP2 PUSH1 0xFF MUL NOT AND SWAP1 DUP4 PUSH1 0x4 DUP2 GT ISZERO PUSH2 0x4BD JUMPI PUSH2 0x4BC PUSH2 0x270B JUMP JUMPDEST JUMPDEST MUL OR SWAP1 SSTORE POP PUSH0 PUSH1 0x4 PUSH0 SWAP1 SLOAD SWAP1 PUSH2 0x100 EXP SWAP1 DIV PUSH20 0xFFFFFFFFFFFFFFFFFFFFFFFFFFFFFFFFFFFFFFFF AND PUSH20 0xFFFFFFFFFFFFFFFFFFFFFFFFFFFFFFFFFFFFFFFF AND DUP6 DUP6 PUSH1 0x40 MLOAD PUSH1 0x24 ADD PUSH2 0x50E SWAP3 SWAP2 SWAP1 PUSH2 0x2AF8 JUMP JUMPDEST PUSH1 0x40 MLOAD PUSH1 0x20 DUP2 DUP4 SUB SUB DUP2 MSTORE SWAP1 PUSH1 0x40 MSTORE PUSH32 0x1AF23A5900000000000000000000000000000000000000000000000000000000 PUSH28 0xFFFFFFFFFFFFFFFFFFFFFFFFFFFFFFFFFFFFFFFFFFFFFFFFFFFFFFFF NOT AND PUSH1 0x20 DUP3 ADD DUP1 MLOAD PUSH28 0xFFFFFFFFFFFFFFFFFFFFFFFFFFFFFFFFFFFFFFFFFFFFFFFFFFFFFFFF DUP4 DUP2 DUP4 AND OR DUP4 MSTORE POP POP POP POP PUSH1 0x40 MLOAD PUSH2 0x598 SWAP2 SWAP1 PUSH2 0x2B63 JUMP JUMPDEST PUSH0 PUSH1 0x40 MLOAD DUP1 DUP4 SUB DUP2 PUSH0 DUP7 GAS CALL SWAP2 POP POP RETURNDATASIZE DUP1 PUSH0 DUP2 EQ PUSH2 0x5D1 JUMPI PUSH1 0x40 MLOAD SWAP2 POP PUSH1 0x1F NOT PUSH1 0x3F RETURNDATASIZE ADD AND DUP3 ADD PUSH1 0x40 MSTORE RETURNDATASIZE DUP3 MSTORE RETURNDATASIZE PUSH0 PUSH1 0x20 DUP5 ADD RETURNDATACOPY PUSH2 0x5D6 JUMP JUMPDEST PUSH1 0x60 SWAP2 POP JUMPDEST POP POP SWAP1 POP DUP1 PUSH2 0x61A JUMPI PUSH1 0x40 MLOAD PUSH32 0x8C379A000000000000000000000000000000000000000000000000000000000 DUP2 MSTORE PUSH1 0x4 ADD PUSH2 0x611 SWAP1 PUSH2 0x2BC3 JUMP JUMPDEST PUSH1 0x40 MLOAD DUP1 SWAP2 SUB SWAP1 REVERT JUMPDEST DUP5 PUSH32 0x4C15BBF33194D9C3D8BCB678F11EFD3112F20BA2837209F1D04E622B9C50B68E PUSH1 0x3 DUP7 PUSH1 0x40 MLOAD PUSH2 0x64D SWAP3 SWAP2 SWAP1 PUSH2 0x2BE1 JUMP JUMPDEST PUSH1 0x40 MLOAD DUP1 SWAP2 SUB SWAP1 LOG2 POP POP POP POP POP JUMP JUMPDEST DUP1 DUP1 PUSH0 PUSH0 DUP4 DUP2 MSTORE PUSH1 0x20 ADD SWAP1 DUP2 MSTORE PUSH1 0x20 ADD PUSH0 KECCAK256 PUSH0 ADD SLOAD EQ PUSH2 0x6B1 JUMPI PUSH1 0x40 MLOAD PUSH32 0x8C379A000000000000000000000000000000000000000000000000000000000 DUP2 MSTORE PUSH1 0x4 ADD PUSH2 0x6A8 SWAP1 PUSH2 0x2A4C JUMP JUMPDEST PUSH1 0x40 MLOAD DUP1 SWAP2 SUB SWAP1 REVERT JUMPDEST PUSH0 PUSH0 PUSH0 DUP5 DUP2 MSTORE PUSH1 0x20 ADD SWAP1 DUP2 MSTORE PUSH1 0x20 ADD PUSH0 KECCAK256 SWAP1 POP PUSH1 0x1 PUSH1 0x4 DUP2 GT ISZERO PUSH2 0x6D8 JUMPI PUSH2 0x6D7 PUSH2 0x270B JUMP JUMPDEST JUMPDEST DUP2 PUSH1 0x5 ADD PUSH0 SWAP1 SLOAD SWAP1 PUSH2 0x100 EXP SWAP1 DIV PUSH1 0xFF AND PUSH1 0x4 DUP2 GT ISZERO PUSH2 0x6FB JUMPI PUSH2 0x6FA PUSH2 0x270B JUMP JUMPDEST JUMPDEST EQ PUSH2 0x73B JUMPI PUSH1 0x40 MLOAD PUSH32 0x8C379A000000000000000000000000000000000000000000000000000000000 DUP2 MSTORE PUSH1 0x4 ADD PUSH2 0x732 SWAP1 PUSH2 0x2C78 JUMP JUMPDEST PUSH1 0x40 MLOAD DUP1 SWAP2 SUB SWAP1 REVERT JUMPDEST PUSH0 PUSH0 SWAP1 POP JUMPDEST DUP2 PUSH1 0x7 ADD DUP1 SLOAD SWAP1 POP DUP2 LT ISZERO PUSH2 0x807 JUMPI CALLER PUSH20 0xFFFFFFFFFFFFFFFFFFFFFFFFFFFFFFFFFFFFFFFF AND DUP3 PUSH1 0x7 ADD DUP3 DUP2 SLOAD DUP2 LT PUSH2 0x77C JUMPI PUSH2 0x77B PUSH2 0x2C96 JUMP JUMPDEST JUMPDEST SWAP1 PUSH0 MSTORE PUSH1 0x20 PUSH0 KECCAK256 ADD PUSH0 SWAP1 SLOAD SWAP1 PUSH2 0x100 EXP SWAP1 DIV PUSH20 0xFFFFFFFFFFFFFFFFFFFFFFFFFFFFFFFFFFFFFFFF AND PUSH20 0xFFFFFFFFFFFFFFFFFFFFFFFFFFFFFFFFFFFFFFFF AND SUB PUSH2 0x7FA JUMPI PUSH1 0x40 MLOAD PUSH32 0x8C379A000000000000000000000000000000000000000000000000000000000 DUP2 MSTORE PUSH1 0x4 ADD PUSH2 0x7F1 SWAP1 PUSH2 0x2D0D JUMP JUMPDEST PUSH1 0x40 MLOAD DUP1 SWAP2 SUB SWAP1 REVERT JUMPDEST DUP1 DUP1 PUSH1 0x1 ADD SWAP2 POP POP PUSH2 0x740 JUMP JUMPDEST POP DUP1 PUSH1 0x7 ADD CALLER SWAP1 DUP1 PUSH1 0x1 DUP2 SLOAD ADD DUP1 DUP3 SSTORE DUP1 SWAP2 POP POP PUSH1 0x1 SWAP1 SUB SWAP1 PUSH0 MSTORE PUSH1 0x20 PUSH0 KECCAK256 ADD PUSH0 SWAP1 SWAP2 SWAP1 SWAP2 SWAP1 SWAP2 PUSH2 0x100 EXP DUP2 SLOAD DUP2 PUSH20 0xFFFFFFFFFFFFFFFFFFFFFFFFFFFFFFFFFFFFFFFF MUL NOT AND SWAP1 DUP4 PUSH20 0xFFFFFFFFFFFFFFFFFFFFFFFFFFFFFFFFFFFFFFFF AND MUL OR SWAP1 SSTORE POP POP POP POP JUMP JUMPDEST DUP1 DUP1 PUSH0 PUSH0 DUP4 DUP2 MSTORE PUSH1 0x20 ADD SWAP1 DUP2 MSTORE PUSH1 0x20 ADD PUSH0 KECCAK256 PUSH0 ADD SLOAD EQ PUSH2 0x8C4 JUMPI PUSH1 0x40 MLOAD PUSH32 0x8C379A000000000000000000000000000000000000000000000000000000000 DUP2 MSTORE PUSH1 0x4 ADD PUSH2 0x8BB SWAP1 PUSH2 0x2A4C JUMP JUMPDEST PUSH1 0x40 MLOAD DUP1 SWAP2 SUB SWAP1 REVERT JUMPDEST DUP2 CALLER PUSH20 0xFFFFFFFFFFFFFFFFFFFFFFFFFFFFFFFFFFFFFFFF AND PUSH0 PUSH0 DUP4 DUP2 MSTORE PUSH1 0x20 ADD SWAP1 DUP2 MSTORE PUSH1 0x20 ADD PUSH0 KECCAK256 PUSH1 0x3 ADD PUSH0 SWAP1 SLOAD SWAP1 PUSH2 0x100 EXP SWAP1 DIV PUSH20 0xFFFFFFFFFFFFFFFFFFFFFFFFFFFFFFFFFFFFFFFF AND PUSH20 0xFFFFFFFFFFFFFFFFFFFFFFFFFFFFFFFFFFFFFFFF AND EQ PUSH2 0x965 JUMPI PUSH1 0x40 MLOAD PUSH32 0x8C379A000000000000000000000000000000000000000000000000000000000 DUP2 MSTORE PUSH1 0x4 ADD PUSH2 0x95C SWAP1 PUSH2 0x2D75 JUMP JUMPDEST PUSH1 0x40 MLOAD DUP1 SWAP2 SUB SWAP1 REVERT JUMPDEST PUSH0 PUSH0 PUSH0 DUP6 DUP2 MSTORE PUSH1 0x20 ADD SWAP1 DUP2 MSTORE PUSH1 0x20 ADD PUSH0 KECCAK256 SWAP1 POP PUSH0 PUSH1 0x4 DUP2 GT ISZERO PUSH2 0x98B JUMPI PUSH2 0x98A PUSH2 0x270B JUMP JUMPDEST JUMPDEST DUP2 PUSH1 0x5 ADD PUSH0 SWAP1 SLOAD SWAP1 PUSH2 0x100 EXP SWAP1 DIV PUSH1 0xFF AND PUSH1 0x4 DUP2 GT ISZERO PUSH2 0x9AE JUMPI PUSH2 0x9AD PUSH2 0x270B JUMP JUMPDEST JUMPDEST EQ DUP1 PUSH2 0x9EE JUMPI POP PUSH1 0x1 PUSH1 0x4 DUP2 GT ISZERO PUSH2 0x9C9 JUMPI PUSH2 0x9C8 PUSH2 0x270B JUMP JUMPDEST JUMPDEST DUP2 PUSH1 0x5 ADD PUSH0 SWAP1 SLOAD SWAP1 PUSH2 0x100 EXP SWAP1 DIV PUSH1 0xFF AND PUSH1 0x4 DUP2 GT ISZERO PUSH2 0x9EC JUMPI PUSH2 0x9EB PUSH2 0x270B JUMP JUMPDEST JUMPDEST EQ JUMPDEST PUSH2 0xA2D JUMPI PUSH1 0x40 MLOAD PUSH32 0x8C379A000000000000000000000000000000000000000000000000000000000 DUP2 MSTORE PUSH1 0x4 ADD PUSH2 0xA24 SWAP1 PUSH2 0x2DDD JUMP JUMPDEST PUSH1 0x40 MLOAD DUP1 SWAP2 SUB SWAP1 REVERT JUMPDEST PUSH0 PUSH1 0x4 PUSH0 SWAP1 SLOAD SWAP1 PUSH2 0x100 EXP SWAP1 DIV PUSH20 0xFFFFFFFFFFFFFFFFFFFFFFFFFFFFFFFFFFFFFFFF AND PUSH20 0xFFFFFFFFFFFFFFFFFFFFFFFFFFFFFFFFFFFFFFFF AND DUP6 PUSH1 0x40 MLOAD PUSH1 0x24 ADD PUSH2 0xA77 SWAP2 SWAP1 PUSH2 0x29E9 JUMP JUMPDEST PUSH1 0x40 MLOAD PUSH1 0x20 DUP2 DUP4 SUB SUB DUP2 MSTORE SWAP1 PUSH1 0x40 MSTORE PUSH32 0x15F1BBFE00000000000000000000000000000000000000000000000000000000 PUSH28 0xFFFFFFFFFFFFFFFFFFFFFFFFFFFFFFFFFFFFFFFFFFFFFFFFFFFFFFFF NOT AND PUSH1 0x20 DUP3 ADD DUP1 MLOAD PUSH28 0xFFFFFFFFFFFFFFFFFFFFFFFFFFFFFFFFFFFFFFFFFFFFFFFFFFFFFFFF DUP4 DUP2 DUP4 AND OR DUP4 MSTORE POP POP POP POP PUSH1 0x40 MLOAD PUSH2 0xB01 SWAP2 SWAP1 PUSH2 0x2B63 JUMP JUMPDEST PUSH0 PUSH1 0x40 MLOAD DUP1 DUP4 SUB DUP2 PUSH0 DUP7 GAS CALL SWAP2 POP POP RETURNDATASIZE DUP1 PUSH0 DUP2 EQ PUSH2 0xB3A JUMPI PUSH1 0x40 MLOAD SWAP2 POP PUSH1 0x1F NOT PUSH1 0x3F RETURNDATASIZE ADD AND DUP3 ADD PUSH1 0x40 MSTORE RETURNDATASIZE DUP3 MSTORE RETURNDATASIZE PUSH0 PUSH1 0x20 DUP5 ADD RETURNDATACOPY PUSH2 0xB3F JUMP JUMPDEST PUSH1 0x60 SWAP2 POP JUMPDEST POP POP SWAP1 POP DUP1 PUSH2 0xB83 JUMPI PUSH1 0x40 MLOAD PUSH32 0x8C379A000000000000000000000000000000000000000000000000000000000 DUP2 MSTORE PUSH1 0x4 ADD PUSH2 0xB7A SWAP1 PUSH2 0x2E45 JUMP JUMPDEST PUSH1 0x40 MLOAD DUP1 SWAP2 SUB SWAP1 REVERT JUMPDEST PUSH0 PUSH0 DUP7 DUP2 MSTORE PUSH1 0x20 ADD SWAP1 DUP2 MSTORE PUSH1 0x20 ADD PUSH0 KECCAK256 PUSH0 PUSH0 DUP3 ADD PUSH0 SWAP1 SSTORE PUSH1 0x1 DUP3 ADD PUSH0 PUSH2 0xBA9 SWAP2 SWAP1 PUSH2 0x2479 JUMP JUMPDEST PUSH1 0x2 DUP3 ADD PUSH0 PUSH2 0xBB8 SWAP2 SWAP1 PUSH2 0x2479 JUMP JUMPDEST PUSH1 0x3 DUP3 ADD PUSH0 PUSH2 0x100 EXP DUP2 SLOAD SWAP1 PUSH20 0xFFFFFFFFFFFFFFFFFFFFFFFFFFFFFFFFFFFFFFFF MUL NOT AND SWAP1 SSTORE PUSH1 0x4 DUP3 ADD PUSH0 SWAP1 SSTORE PUSH1 0x5 DUP3 ADD PUSH0 PUSH2 0x100 EXP DUP2 SLOAD SWAP1 PUSH1 0xFF MUL NOT AND SWAP1 SSTORE PUSH1 0x5 DUP3 ADD PUSH1 0x1 PUSH2 0x100 EXP DUP2 SLOAD SWAP1 PUSH20 0xFFFFFFFFFFFFFFFFFFFFFFFFFFFFFFFFFFFFFFFF MUL NOT AND SWAP1 SSTORE PUSH1 0x6 DUP3 ADD PUSH0 SWAP1 SSTORE PUSH1 0x7 DUP3 ADD PUSH0 PUSH2 0xC35 SWAP2 SWAP1 PUSH2 0x24B6 JUMP JUMPDEST POP POP DUP5 PUSH32 0x36A2F40CFE61ACE5BAF26A6E4F86FFA75C62392FDE263D354D42E0E718FA4BD1 PUSH1 0x40 MLOAD PUSH1 0x40 MLOAD DUP1 SWAP2 SUB SWAP1 LOG2 POP POP POP POP POP JUMP JUMPDEST PUSH0 PUSH1 0x20 MSTORE DUP1 PUSH0 MSTORE PUSH1 0x40 PUSH0 KECCAK256 PUSH0 SWAP2 POP SWAP1 POP DUP1 PUSH0 ADD SLOAD SWAP1 DUP1 PUSH1 0x1 ADD DUP1 SLOAD PUSH2 0xC8F SWAP1 PUSH2 0x2E90 JUMP JUMPDEST DUP1 PUSH1 0x1F ADD PUSH1 0x20 DUP1 SWAP2 DIV MUL PUSH1 0x20 ADD PUSH1 0x40 MLOAD SWAP1 DUP2 ADD PUSH1 0x40 MSTORE DUP1 SWAP3 SWAP2 SWAP1 DUP2 DUP2 MSTORE PUSH1 0x20 ADD DUP3 DUP1 SLOAD PUSH2 0xCBB SWAP1 PUSH2 0x2E90 JUMP JUMPDEST DUP1 ISZERO PUSH2 0xD06 JUMPI DUP1 PUSH1 0x1F LT PUSH2 0xCDD JUMPI PUSH2 0x100 DUP1 DUP4 SLOAD DIV MUL DUP4 MSTORE SWAP2 PUSH1 0x20 ADD SWAP2 PUSH2 0xD06 JUMP JUMPDEST DUP3 ADD SWAP2 SWAP1 PUSH0 MSTORE PUSH1 0x20 PUSH0 KECCAK256 SWAP1 JUMPDEST DUP2 SLOAD DUP2 MSTORE SWAP1 PUSH1 0x1 ADD SWAP1 PUSH1 0x20 ADD DUP1 DUP4 GT PUSH2 0xCE9 JUMPI DUP3 SWAP1 SUB PUSH1 0x1F AND DUP3 ADD SWAP2 JUMPDEST POP POP POP POP POP SWAP1 DUP1 PUSH1 0x2 ADD DUP1 SLOAD PUSH2 0xD1B SWAP1 PUSH2 0x2E90 JUMP JUMPDEST DUP1 PUSH1 0x1F ADD PUSH1 0x20 DUP1 SWAP2 DIV MUL PUSH1 0x20 ADD PUSH1 0x40 MLOAD SWAP1 DUP2 ADD PUSH1 0x40 MSTORE DUP1 SWAP3 SWAP2 SWAP1 DUP2 DUP2 MSTORE PUSH1 0x20 ADD DUP3 DUP1 SLOAD PUSH2 0xD47 SWAP1 PUSH2 0x2E90 JUMP JUMPDEST DUP1 ISZERO PUSH2 0xD92 JUMPI DUP1 PUSH1 0x1F LT PUSH2 0xD69 JUMPI PUSH2 0x100 DUP1 DUP4 SLOAD DIV MUL DUP4 MSTORE SWAP2 PUSH1 0x20 ADD SWAP2 PUSH2 0xD92 JUMP JUMPDEST DUP3 ADD SWAP2 SWAP1 PUSH0 MSTORE PUSH1 0x20 PUSH0 KECCAK256 SWAP1 JUMPDEST DUP2 SLOAD DUP2 MSTORE SWAP1 PUSH1 0x1 ADD SWAP1 PUSH1 0x20 ADD DUP1 DUP4 GT PUSH2 0xD75 JUMPI DUP3 SWAP1 SUB PUSH1 0x1F AND DUP3 ADD SWAP2 JUMPDEST POP POP POP POP POP SWAP1 DUP1 PUSH1 0x3 ADD PUSH0 SWAP1 SLOAD SWAP1 PUSH2 0x100 EXP SWAP1 DIV PUSH20 0xFFFFFFFFFFFFFFFFFFFFFFFFFFFFFFFFFFFFFFFF AND SWAP1 DUP1 PUSH1 0x4 ADD SLOAD SWAP1 DUP1 PUSH1 0x5 ADD PUSH0 SWAP1 SLOAD SWAP1 PUSH2 0x100 EXP SWAP1 DIV PUSH1 0xFF AND SWAP1 DUP1 PUSH1 0x5 ADD PUSH1 0x1 SWAP1 SLOAD SWAP1 PUSH2 0x100 EXP SWAP1 DIV PUSH20 0xFFFFFFFFFFFFFFFFFFFFFFFFFFFFFFFFFFFFFFFF AND SWAP1 DUP1 PUSH1 0x6 ADD SLOAD SWAP1 POP DUP9 JUMP JUMPDEST PUSH1 0x3 PUSH0 SWAP1 SLOAD SWAP1 PUSH2 0x100 EXP SWAP1 DIV PUSH20 0xFFFFFFFFFFFFFFFFFFFFFFFFFFFFFFFFFFFFFFFF AND DUP2 JUMP JUMPDEST DUP1 DUP1 PUSH0 PUSH0 DUP4 DUP2 MSTORE PUSH1 0x20 ADD SWAP1 DUP2 MSTORE PUSH1 0x20 ADD PUSH0 KECCAK256 PUSH0 ADD SLOAD EQ PUSH2 0xE7F JUMPI PUSH1 0x40 MLOAD PUSH32 0x8C379A000000000000000000000000000000000000000000000000000000000 DUP2 MSTORE PUSH1 0x4 ADD PUSH2 0xE76 SWAP1 PUSH2 0x2A4C JUMP JUMPDEST PUSH1 0x40 MLOAD DUP1 SWAP2 SUB SWAP1 REVERT JUMPDEST PUSH0 PUSH0 PUSH0 DUP5 DUP2 MSTORE PUSH1 0x20 ADD SWAP1 DUP2 MSTORE PUSH1 0x20 ADD PUSH0 KECCAK256 SWAP1 POP DUP1 PUSH1 0x5 ADD PUSH1 0x1 SWAP1 SLOAD SWAP1 PUSH2 0x100 EXP SWAP1 DIV PUSH20 0xFFFFFFFFFFFFFFFFFFFFFFFFFFFFFFFFFFFFFFFF AND PUSH20 0xFFFFFFFFFFFFFFFFFFFFFFFFFFFFFFFFFFFFFFFF AND CALLER PUSH20 0xFFFFFFFFFFFFFFFFFFFFFFFFFFFFFFFFFFFFFFFF AND EQ DUP1 PUSH2 0xF3E JUMPI POP DUP1 PUSH1 0x3 ADD PUSH0 SWAP1 SLOAD SWAP1 PUSH2 0x100 EXP SWAP1 DIV PUSH20 0xFFFFFFFFFFFFFFFFFFFFFFFFFFFFFFFFFFFFFFFF AND PUSH20 0xFFFFFFFFFFFFFFFFFFFFFFFFFFFFFFFFFFFFFFFF AND CALLER PUSH20 0xFFFFFFFFFFFFFFFFFFFFFFFFFFFFFFFFFFFFFFFF AND EQ JUMPDEST PUSH2 0xF7D JUMPI PUSH1 0x40 MLOAD PUSH32 0x8C379A000000000000000000000000000000000000000000000000000000000 DUP2 MSTORE PUSH1 0x4 ADD PUSH2 0xF74 SWAP1 PUSH2 0x2F30 JUMP JUMPDEST PUSH1 0x40 MLOAD DUP1 SWAP2 SUB SWAP1 REVERT JUMPDEST PUSH1 0x2 PUSH1 0x4 DUP2 GT ISZERO PUSH2 0xF91 JUMPI PUSH2 0xF90 PUSH2 0x270B JUMP JUMPDEST JUMPDEST DUP2 PUSH1 0x5 ADD PUSH0 SWAP1 SLOAD SWAP1 PUSH2 0x100 EXP SWAP1 DIV PUSH1 0xFF AND PUSH1 0x4 DUP2 GT ISZERO PUSH2 0xFB4 JUMPI PUSH2 0xFB3 PUSH2 0x270B JUMP JUMPDEST JUMPDEST EQ PUSH2 0xFF4 JUMPI PUSH1 0x40 MLOAD PUSH32 0x8C379A000000000000000000000000000000000000000000000000000000000 DUP2 MSTORE PUSH1 0x4 ADD PUSH2 0xFEB SWAP1 PUSH2 0x2F98 JUMP JUMPDEST PUSH1 0x40 MLOAD DUP1 SWAP2 SUB SWAP1 REVERT JUMPDEST PUSH1 0x4 DUP2 PUSH1 0x5 ADD PUSH0 PUSH2 0x100 EXP DUP2 SLOAD DUP2 PUSH1 0xFF MUL NOT AND SWAP1 DUP4 PUSH1 0x4 DUP2 GT ISZERO PUSH2 0x101B JUMPI PUSH2 0x101A PUSH2 0x270B JUMP JUMPDEST JUMPDEST MUL OR SWAP1 SSTORE POP PUSH0 PUSH1 0x5 PUSH0 SWAP1 SLOAD SWAP1 PUSH2 0x100 EXP SWAP1 DIV PUSH20 0xFFFFFFFFFFFFFFFFFFFFFFFFFFFFFFFFFFFFFFFF AND PUSH20 0xFFFFFFFFFFFFFFFFFFFFFFFFFFFFFFFFFFFFFFFF AND DUP5 PUSH1 0x40 MLOAD PUSH1 0x24 ADD PUSH2 0x106A SWAP2 SWAP1 PUSH2 0x29E9 JUMP JUMPDEST PUSH1 0x40 MLOAD PUSH1 0x20 DUP2 DUP4 SUB SUB DUP2 MSTORE SWAP1 PUSH1 0x40 MSTORE PUSH32 0x4B54A37900000000000000000000000000000000000000000000000000000000 PUSH28 0xFFFFFFFFFFFFFFFFFFFFFFFFFFFFFFFFFFFFFFFFFFFFFFFFFFFFFFFF NOT AND PUSH1 0x20 DUP3 ADD DUP1 MLOAD PUSH28 0xFFFFFFFFFFFFFFFFFFFFFFFFFFFFFFFFFFFFFFFFFFFFFFFFFFFFFFFF DUP4 DUP2 DUP4 AND OR DUP4 MSTORE POP POP POP POP PUSH1 0x40 MLOAD PUSH2 0x10F4 SWAP2 SWAP1 PUSH2 0x2B63 JUMP JUMPDEST PUSH0 PUSH1 0x40 MLOAD DUP1 DUP4 SUB DUP2 PUSH0 DUP7 GAS CALL SWAP2 POP POP RETURNDATASIZE DUP1 PUSH0 DUP2 EQ PUSH2 0x112D JUMPI PUSH1 0x40 MLOAD SWAP2 POP PUSH1 0x1F NOT PUSH1 0x3F RETURNDATASIZE ADD AND DUP3 ADD PUSH1 0x40 MSTORE RETURNDATASIZE DUP3 MSTORE RETURNDATASIZE PUSH0 PUSH1 0x20 DUP5 ADD RETURNDATACOPY PUSH2 0x1132 JUMP JUMPDEST PUSH1 0x60 SWAP2 POP JUMPDEST POP POP SWAP1 POP DUP1 PUSH2 0x1176 JUMPI PUSH1 0x40 MLOAD PUSH32 0x8C379A000000000000000000000000000000000000000000000000000000000 DUP2 MSTORE PUSH1 0x4 ADD PUSH2 0x116D SWAP1 PUSH2 0x3000 JUMP JUMPDEST PUSH1 0x40 MLOAD DUP1 SWAP2 SUB SWAP1 REVERT JUMPDEST DUP4 PUSH32 0x4C15BBF33194D9C3D8BCB678F11EFD3112F20BA2837209F1D04E622B9C50B68E PUSH1 0x4 PUSH0 PUSH1 0x40 MLOAD PUSH2 0x11A9 SWAP3 SWAP2 SWAP1 PUSH2 0x2BE1 JUMP JUMPDEST PUSH1 0x40 MLOAD DUP1 SWAP2 SUB SWAP1 LOG2 POP POP POP POP JUMP JUMPDEST DUP1 DUP1 PUSH0 PUSH0 DUP4 DUP2 MSTORE PUSH1 0x20 ADD SWAP1 DUP2 MSTORE PUSH1 0x20 ADD PUSH0 KECCAK256 PUSH0 ADD SLOAD EQ PUSH2 0x120C JUMPI PUSH1 0x40 MLOAD PUSH32 0x8C379A000000000000000000000000000000000000000000000000000000000 DUP2 MSTORE PUSH1 0x4 ADD PUSH2 0x1203 SWAP1 PUSH2 0x2A4C JUMP JUMPDEST PUSH1 0x40 MLOAD DUP1 SWAP2 SUB SWAP1 REVERT JUMPDEST DUP2 CALLER PUSH20 0xFFFFFFFFFFFFFFFFFFFFFFFFFFFFFFFFFFFFFFFF AND PUSH0 PUSH0 DUP4 DUP2 MSTORE PUSH1 0x20 ADD SWAP1 DUP2 MSTORE PUSH1 0x20 ADD PUSH0 KECCAK256 PUSH1 0x3 ADD PUSH0 SWAP1 SLOAD SWAP1 PUSH2 0x100 EXP SWAP1 DIV PUSH20 0xFFFFFFFFFFFFFFFFFFFFFFFFFFFFFFFFFFFFFFFF AND PUSH20 0xFFFFFFFFFFFFFFFFFFFFFFFFFFFFFFFFFFFFFFFF AND EQ PUSH2 0x12AD JUMPI PUSH1 0x40 MLOAD PUSH32 0x8C379A000000000000000000000000000000000000000000000000000000000 DUP2 MSTORE PUSH1 0x4 ADD PUSH2 0x12A4 SWAP1 PUSH2 0x2D75 JUMP JUMPDEST PUSH1 0x40 MLOAD DUP1 SWAP2 SUB SWAP1 REVERT JUMPDEST PUSH0 PUSH1 0x4 DUP2 GT ISZERO PUSH2 0x12C0 JUMPI PUSH2 0x12BF PUSH2 0x270B JUMP JUMPDEST JUMPDEST PUSH0 PUSH0 DUP6 DUP2 MSTORE PUSH1 0x20 ADD SWAP1 DUP2 MSTORE PUSH1 0x20 ADD PUSH0 KECCAK256 PUSH1 0x5 ADD PUSH0 SWAP1 SLOAD SWAP1 PUSH2 0x100 EXP SWAP1 DIV PUSH1 0xFF AND PUSH1 0x4 DUP2 GT ISZERO PUSH2 0x12F2 JUMPI PUSH2 0x12F1 PUSH2 0x270B JUMP JUMPDEST JUMPDEST EQ PUSH2 0x1332 JUMPI PUSH1 0x40 MLOAD PUSH32 0x8C379A000000000000000000000000000000000000000000000000000000000 DUP2 MSTORE PUSH1 0x4 ADD PUSH2 0x1329 SWAP1 PUSH2 0x3068 JUMP JUMPDEST PUSH1 0x40 MLOAD DUP1 SWAP2 SUB SWAP1 REVERT JUMPDEST PUSH1 0x1 PUSH0 PUSH0 DUP6 DUP2 MSTORE PUSH1 0x20 ADD SWAP1 DUP2 MSTORE PUSH1 0x20 ADD PUSH0 KECCAK256 PUSH1 0x5 ADD PUSH0 PUSH2 0x100 EXP DUP2 SLOAD DUP2 PUSH1 0xFF MUL NOT AND SWAP1 DUP4 PUSH1 0x4 DUP2 GT ISZERO PUSH2 0x1368 JUMPI PUSH2 0x1367 PUSH2 0x270B JUMP JUMPDEST JUMPDEST MUL OR SWAP1 SSTORE POP PUSH0 PUSH1 0x3 PUSH0 SWAP1 SLOAD SWAP1 PUSH2 0x100 EXP SWAP1 DIV PUSH20 0xFFFFFFFFFFFFFFFFFFFFFFFFFFFFFFFFFFFFFFFF AND PUSH20 0xFFFFFFFFFFFFFFFFFFFFFFFFFFFFFFFFFFFFFFFF AND DUP5 PUSH1 0x40 MLOAD PUSH1 0x24 ADD PUSH2 0x13B7 SWAP2 SWAP1 PUSH2 0x29E9 JUMP JUMPDEST PUSH1 0x40 MLOAD PUSH1 0x20 DUP2 DUP4 SUB SUB DUP2 MSTORE SWAP1 PUSH1 0x40 MSTORE PUSH32 0xE38C830200000000000000000000000000000000000000000000000000000000 PUSH28 0xFFFFFFFFFFFFFFFFFFFFFFFFFFFFFFFFFFFFFFFFFFFFFFFFFFFFFFFF NOT AND PUSH1 0x20 DUP3 ADD DUP1 MLOAD PUSH28 0xFFFFFFFFFFFFFFFFFFFFFFFFFFFFFFFFFFFFFFFFFFFFFFFFFFFFFFFF DUP4 DUP2 DUP4 AND OR DUP4 MSTORE POP POP POP POP PUSH1 0x40 MLOAD PUSH2 0x1441 SWAP2 SWAP1 PUSH2 0x2B63 JUMP JUMPDEST PUSH0 PUSH1 0x40 MLOAD DUP1 DUP4 SUB DUP2 PUSH0 DUP7 GAS CALL SWAP2 POP POP RETURNDATASIZE DUP1 PUSH0 DUP2 EQ PUSH2 0x147A JUMPI PUSH1 0x40 MLOAD SWAP2 POP PUSH1 0x1F NOT PUSH1 0x3F RETURNDATASIZE ADD AND DUP3 ADD PUSH1 0x40 MSTORE RETURNDATASIZE DUP3 MSTORE RETURNDATASIZE PUSH0 PUSH1 0x20 DUP5 ADD RETURNDATACOPY PUSH2 0x147F JUMP JUMPDEST PUSH1 0x60 SWAP2 POP JUMPDEST POP POP SWAP1 POP DUP1 PUSH2 0x14C3 JUMPI PUSH1 0x40 MLOAD PUSH32 0x8C379A000000000000000000000000000000000000000000000000000000000 DUP2 MSTORE PUSH1 0x4 ADD PUSH2 0x14BA SWAP1 PUSH2 0x30D0 JUMP JUMPDEST PUSH1 0x40 MLOAD DUP1 SWAP2 SUB SWAP1 REVERT JUMPDEST DUP4 PUSH32 0x4C15BBF33194D9C3D8BCB678F11EFD3112F20BA2837209F1D04E622B9C50B68E PUSH1 0x1 PUSH0 PUSH1 0x40 MLOAD PUSH2 0x14F6 SWAP3 SWAP2 SWAP1 PUSH2 0x2BE1 JUMP JUMPDEST PUSH1 0x40 MLOAD DUP1 SWAP2 SUB SWAP1 LOG2 POP POP POP POP JUMP JUMPDEST DUP2 PUSH1 0x2 SLOAD EQ PUSH2 0x1548 JUMPI PUSH1 0x40 MLOAD PUSH32 0x8C379A000000000000000000000000000000000000000000000000000000000 DUP2 MSTORE PUSH1 0x4 ADD PUSH2 0x153F SWAP1 PUSH2 0x315E JUMP JUMPDEST PUSH1 0x40 MLOAD DUP1 SWAP2 SUB SWAP1 REVERT JUMPDEST PUSH0 DUP3 GT PUSH2 0x158A JUMPI PUSH1 0x40 MLOAD PUSH32 0x8C379A000000000000000000000000000000000000000000000000000000000 DUP2 MSTORE PUSH1 0x4 ADD PUSH2 0x1581 SWAP1 PUSH2 0x31C6 JUMP JUMPDEST PUSH1 0x40 MLOAD DUP1 SWAP2 SUB SWAP1 REVERT JUMPDEST PUSH0 DUP5 MLOAD GT PUSH2 0x15CD JUMPI PUSH1 0x40 MLOAD PUSH32 0x8C379A000000000000000000000000000000000000000000000000000000000 DUP2 MSTORE PUSH1 0x4 ADD PUSH2 0x15C4 SWAP1 PUSH2 0x322E JUMP JUMPDEST PUSH1 0x40 MLOAD DUP1 SWAP2 SUB SWAP1 REVERT JUMPDEST PUSH0 DUP4 MLOAD GT PUSH2 0x1610 JUMPI PUSH1 0x40 MLOAD PUSH32 0x8C379A000000000000000000000000000000000000000000000000000000000 DUP2 MSTORE PUSH1 0x4 ADD PUSH2 0x1607 SWAP1 PUSH2 0x3296 JUMP JUMPDEST PUSH1 0x40 MLOAD DUP1 SWAP2 SUB SWAP1 REVERT JUMPDEST TIMESTAMP DUP2 GT PUSH2 0x1652 JUMPI PUSH1 0x40 MLOAD PUSH32 0x8C379A000000000000000000000000000000000000000000000000000000000 DUP2 MSTORE PUSH1 0x4 ADD PUSH2 0x1649 SWAP1 PUSH2 0x32FE JUMP JUMPDEST PUSH1 0x40 MLOAD DUP1 SWAP2 SUB SWAP1 REVERT JUMPDEST PUSH0 PUSH1 0x1 PUSH0 DUP2 SLOAD DUP1 SWAP3 SWAP2 SWAP1 PUSH2 0x1665 SWAP1 PUSH2 0x3349 JUMP JUMPDEST SWAP2 SWAP1 POP SSTORE SWAP1 POP PUSH1 0x40 MLOAD DUP1 PUSH2 0x120 ADD PUSH1 0x40 MSTORE DUP1 DUP3 DUP2 MSTORE PUSH1 0x20 ADD DUP7 DUP2 MSTORE PUSH1 0x20 ADD DUP6 DUP2 MSTORE PUSH1 0x20 ADD CALLER PUSH20 0xFFFFFFFFFFFFFFFFFFFFFFFFFFFFFFFFFFFFFFFF AND DUP2 MSTORE PUSH1 0x20 ADD DUP5 DUP2 MSTORE PUSH1 0x20 ADD PUSH0 PUSH1 0x4 DUP2 GT ISZERO PUSH2 0x16BE JUMPI PUSH2 0x16BD PUSH2 0x270B JUMP JUMPDEST JUMPDEST DUP2 MSTORE PUSH1 0x20 ADD PUSH0 PUSH20 0xFFFFFFFFFFFFFFFFFFFFFFFFFFFFFFFFFFFFFFFF AND DUP2 MSTORE PUSH1 0x20 ADD DUP4 DUP2 MSTORE PUSH1 0x20 ADD PUSH0 PUSH8 0xFFFFFFFFFFFFFFFF DUP2 GT ISZERO PUSH2 0x16FF JUMPI PUSH2 0x16FE PUSH2 0x2829 JUMP JUMPDEST JUMPDEST PUSH1 0x40 MLOAD SWAP1 DUP1 DUP3 MSTORE DUP1 PUSH1 0x20 MUL PUSH1 0x20 ADD DUP3 ADD PUSH1 0x40 MSTORE DUP1 ISZERO PUSH2 0x172D JUMPI DUP2 PUSH1 0x20 ADD PUSH1 0x20 DUP3 MUL DUP1 CALLDATASIZE DUP4 CALLDATACOPY DUP1 DUP3 ADD SWAP2 POP POP SWAP1 POP JUMPDEST POP DUP2 MSTORE POP PUSH0 PUSH0 DUP4 DUP2 MSTORE PUSH1 0x20 ADD SWAP1 DUP2 MSTORE PUSH1 0x20 ADD PUSH0 KECCAK256 PUSH0 DUP3 ADD MLOAD DUP2 PUSH0 ADD SSTORE PUSH1 0x20 DUP3 ADD MLOAD DUP2 PUSH1 0x1 ADD SWAP1 DUP2 PUSH2 0x175E SWAP2 SWAP1 PUSH2 0x3530 JUMP JUMPDEST POP PUSH1 0x40 DUP3 ADD MLOAD DUP2 PUSH1 0x2 ADD SWAP1 DUP2 PUSH2 0x1774 SWAP2 SWAP1 PUSH2 0x3530 JUMP JUMPDEST POP PUSH1 0x60 DUP3 ADD MLOAD DUP2 PUSH1 0x3 ADD PUSH0 PUSH2 0x100 EXP DUP2 SLOAD DUP2 PUSH20 0xFFFFFFFFFFFFFFFFFFFFFFFFFFFFFFFFFFFFFFFF MUL NOT AND SWAP1 DUP4 PUSH20 0xFFFFFFFFFFFFFFFFFFFFFFFFFFFFFFFFFFFFFFFF AND MUL OR SWAP1 SSTORE POP PUSH1 0x80 DUP3 ADD MLOAD DUP2 PUSH1 0x4 ADD SSTORE PUSH1 0xA0 DUP3 ADD MLOAD DUP2 PUSH1 0x5 ADD PUSH0 PUSH2 0x100 EXP DUP2 SLOAD DUP2 PUSH1 0xFF MUL NOT AND SWAP1 DUP4 PUSH1 0x4 DUP2 GT ISZERO PUSH2 0x17EF JUMPI PUSH2 0x17EE PUSH2 0x270B JUMP JUMPDEST JUMPDEST MUL OR SWAP1 SSTORE POP PUSH1 0xC0 DUP3 ADD MLOAD DUP2 PUSH1 0x5 ADD PUSH1 0x1 PUSH2 0x100 EXP DUP2 SLOAD DUP2 PUSH20 0xFFFFFFFFFFFFFFFFFFFFFFFFFFFFFFFFFFFFFFFF MUL NOT AND SWAP1 DUP4 PUSH20 0xFFFFFFFFFFFFFFFFFFFFFFFFFFFFFFFFFFFFFFFF AND MUL OR SWAP1 SSTORE POP PUSH1 0xE0 DUP3 ADD MLOAD DUP2 PUSH1 0x6 ADD SSTORE PUSH2 0x100 DUP3 ADD MLOAD DUP2 PUSH1 0x7 ADD SWAP1 DUP1 MLOAD SWAP1 PUSH1 0x20 ADD SWAP1 PUSH2 0x1862 SWAP3 SWAP2 SWAP1 PUSH2 0x24D4 JUMP JUMPDEST POP SWAP1 POP POP PUSH0 PUSH1 0x4 PUSH0 SWAP1 SLOAD SWAP1 PUSH2 0x100 EXP SWAP1 DIV PUSH20 0xFFFFFFFFFFFFFFFFFFFFFFFFFFFFFFFFFFFFFFFF AND PUSH20 0xFFFFFFFFFFFFFFFFFFFFFFFFFFFFFFFFFFFFFFFF AND CALLVALUE DUP4 PUSH1 0x40 MLOAD PUSH1 0x24 ADD PUSH2 0x18B1 SWAP2 SWAP1 PUSH2 0x29E9 JUMP JUMPDEST PUSH1 0x40 MLOAD PUSH1 0x20 DUP2 DUP4 SUB SUB DUP2 MSTORE SWAP1 PUSH1 0x40 MSTORE PUSH32 0x3B76594D00000000000000000000000000000000000000000000000000000000 PUSH28 0xFFFFFFFFFFFFFFFFFFFFFFFFFFFFFFFFFFFFFFFFFFFFFFFFFFFFFFFF NOT AND PUSH1 0x20 DUP3 ADD DUP1 MLOAD PUSH28 0xFFFFFFFFFFFFFFFFFFFFFFFFFFFFFFFFFFFFFFFFFFFFFFFFFFFFFFFF DUP4 DUP2 DUP4 AND OR DUP4 MSTORE POP POP POP POP PUSH1 0x40 MLOAD PUSH2 0x193B SWAP2 SWAP1 PUSH2 0x2B63 JUMP JUMPDEST PUSH0 PUSH1 0x40 MLOAD DUP1 DUP4 SUB DUP2 DUP6 DUP8 GAS CALL SWAP3 POP POP POP RETURNDATASIZE DUP1 PUSH0 DUP2 EQ PUSH2 0x1975 JUMPI PUSH1 0x40 MLOAD SWAP2 POP PUSH1 0x1F NOT PUSH1 0x3F RETURNDATASIZE ADD AND DUP3 ADD PUSH1 0x40 MSTORE RETURNDATASIZE DUP3 MSTORE RETURNDATASIZE PUSH0 PUSH1 0x20 DUP5 ADD RETURNDATACOPY PUSH2 0x197A JUMP JUMPDEST PUSH1 0x60 SWAP2 POP JUMPDEST POP POP SWAP1 POP DUP1 PUSH2 0x19BE JUMPI PUSH1 0x40 MLOAD PUSH32 0x8C379A000000000000000000000000000000000000000000000000000000000 DUP2 MSTORE PUSH1 0x4 ADD PUSH2 0x19B5 SWAP1 PUSH2 0x3649 JUMP JUMPDEST PUSH1 0x40 MLOAD DUP1 SWAP2 SUB SWAP1 REVERT JUMPDEST CALLER PUSH20 0xFFFFFFFFFFFFFFFFFFFFFFFFFFFFFFFFFFFFFFFF AND DUP3 PUSH32 0xEDCE45CC3FC2BEA98C94B72104F4A750DCC91BD183A01870ED4F93A365EBA5B9 DUP7 DUP9 PUSH1 0x40 MLOAD PUSH2 0x1A07 SWAP3 SWAP2 SWAP1 PUSH2 0x3667 JUMP JUMPDEST PUSH1 0x40 MLOAD DUP1 SWAP2 SUB SWAP1 LOG3 POP POP POP POP POP POP JUMP JUMPDEST DUP2 DUP1 PUSH0 PUSH0 DUP4 DUP2 MSTORE PUSH1 0x20 ADD SWAP1 DUP2 MSTORE PUSH1 0x20 ADD PUSH0 KECCAK256 PUSH0 ADD SLOAD EQ PUSH2 0x1A6C JUMPI PUSH1 0x40 MLOAD PUSH32 0x8C379A000000000000000000000000000000000000000000000000000000000 DUP2 MSTORE PUSH1 0x4 ADD PUSH2 0x1A63 SWAP1 PUSH2 0x2A4C JUMP JUMPDEST PUSH1 0x40 MLOAD DUP1 SWAP2 SUB SWAP1 REVERT JUMPDEST DUP3 CALLER PUSH20 0xFFFFFFFFFFFFFFFFFFFFFFFFFFFFFFFFFFFFFFFF AND PUSH0 PUSH0 DUP4 DUP2 MSTORE PUSH1 0x20 ADD SWAP1 DUP2 MSTORE PUSH1 0x20 ADD PUSH0 KECCAK256 PUSH1 0x3 ADD PUSH0 SWAP1 SLOAD SWAP1 PUSH2 0x100 EXP SWAP1 DIV PUSH20 0xFFFFFFFFFFFFFFFFFFFFFFFFFFFFFFFFFFFFFFFF AND PUSH20 0xFFFFFFFFFFFFFFFFFFFFFFFFFFFFFFFFFFFFFFFF AND EQ PUSH2 0x1B0D JUMPI PUSH1 0x40 MLOAD PUSH32 0x8C379A000000000000000000000000000000000000000000000000000000000 DUP2 MSTORE PUSH1 0x4 ADD PUSH2 0x1B04 SWAP1 PUSH2 0x2D75 JUMP JUMPDEST PUSH1 0x40 MLOAD DUP1 SWAP2 SUB SWAP1 REVERT JUMPDEST PUSH0 PUSH0 PUSH0 DUP7 DUP2 MSTORE PUSH1 0x20 ADD SWAP1 DUP2 MSTORE PUSH1 0x20 ADD PUSH0 KECCAK256 SWAP1 POP PUSH1 0x1 PUSH1 0x4 DUP2 GT ISZERO PUSH2 0x1B34 JUMPI PUSH2 0x1B33 PUSH2 0x270B JUMP JUMPDEST JUMPDEST DUP2 PUSH1 0x5 ADD PUSH0 SWAP1 SLOAD SWAP1 PUSH2 0x100 EXP SWAP1 DIV PUSH1 0xFF AND PUSH1 0x4 DUP2 GT ISZERO PUSH2 0x1B57 JUMPI PUSH2 0x1B56 PUSH2 0x270B JUMP JUMPDEST JUMPDEST EQ PUSH2 0x1B97 JUMPI PUSH1 0x40 MLOAD PUSH32 0x8C379A000000000000000000000000000000000000000000000000000000000 DUP2 MSTORE PUSH1 0x4 ADD PUSH2 0x1B8E SWAP1 PUSH2 0x36DF JUMP JUMPDEST PUSH1 0x40 MLOAD DUP1 SWAP2 SUB SWAP1 REVERT JUMPDEST PUSH0 PUSH0 SWAP1 POP PUSH0 PUSH0 SWAP1 POP JUMPDEST DUP3 PUSH1 0x7 ADD DUP1 SLOAD SWAP1 POP DUP2 LT ISZERO PUSH2 0x1C35 JUMPI DUP6 PUSH20 0xFFFFFFFFFFFFFFFFFFFFFFFFFFFFFFFFFFFFFFFF AND DUP4 PUSH1 0x7 ADD DUP3 DUP2 SLOAD DUP2 LT PUSH2 0x1BDC JUMPI PUSH2 0x1BDB PUSH2 0x2C96 JUMP JUMPDEST JUMPDEST SWAP1 PUSH0 MSTORE PUSH1 0x20 PUSH0 KECCAK256 ADD PUSH0 SWAP1 SLOAD SWAP1 PUSH2 0x100 EXP SWAP1 DIV PUSH20 0xFFFFFFFFFFFFFFFFFFFFFFFFFFFFFFFFFFFFFFFF AND PUSH20 0xFFFFFFFFFFFFFFFFFFFFFFFFFFFFFFFFFFFFFFFF AND SUB PUSH2 0x1C28 JUMPI PUSH1 0x1 SWAP2 POP PUSH2 0x1C35 JUMP JUMPDEST DUP1 DUP1 PUSH1 0x1 ADD SWAP2 POP POP PUSH2 0x1BA0 JUMP JUMPDEST POP DUP1 PUSH2 0x1C76 JUMPI PUSH1 0x40 MLOAD PUSH32 0x8C379A000000000000000000000000000000000000000000000000000000000 DUP2 MSTORE PUSH1 0x4 ADD PUSH2 0x1C6D SWAP1 PUSH2 0x3747 JUMP JUMPDEST PUSH1 0x40 MLOAD DUP1 SWAP2 SUB SWAP1 REVERT JUMPDEST DUP5 DUP3 PUSH1 0x5 ADD PUSH1 0x1 PUSH2 0x100 EXP DUP2 SLOAD DUP2 PUSH20 0xFFFFFFFFFFFFFFFFFFFFFFFFFFFFFFFFFFFFFFFF MUL NOT AND SWAP1 DUP4 PUSH20 0xFFFFFFFFFFFFFFFFFFFFFFFFFFFFFFFFFFFFFFFF AND MUL OR SWAP1 SSTORE POP PUSH1 0x2 DUP3 PUSH1 0x5 ADD PUSH0 PUSH2 0x100 EXP DUP2 SLOAD DUP2 PUSH1 0xFF MUL NOT AND SWAP1 DUP4 PUSH1 0x4 DUP2 GT ISZERO PUSH2 0x1CE0 JUMPI PUSH2 0x1CDF PUSH2 0x270B JUMP JUMPDEST JUMPDEST MUL OR SWAP1 SSTORE POP DUP6 PUSH32 0x4C15BBF33194D9C3D8BCB678F11EFD3112F20BA2837209F1D04E622B9C50B68E PUSH1 0x2 DUP8 PUSH1 0x40 MLOAD PUSH2 0x1D18 SWAP3 SWAP2 SWAP1 PUSH2 0x2BE1 JUMP JUMPDEST PUSH1 0x40 MLOAD DUP1 SWAP2 SUB SWAP1 LOG2 POP POP POP POP POP POP JUMP JUMPDEST PUSH1 0x1 SLOAD DUP2 JUMP JUMPDEST PUSH1 0x2 SLOAD DUP2 JUMP JUMPDEST DUP1 DUP1 PUSH0 PUSH0 DUP4 DUP2 MSTORE PUSH1 0x20 ADD SWAP1 DUP2 MSTORE PUSH1 0x20 ADD PUSH0 KECCAK256 PUSH0 ADD SLOAD EQ PUSH2 0x1D89 JUMPI PUSH1 0x40 MLOAD PUSH32 0x8C379A000000000000000000000000000000000000000000000000000000000 DUP2 MSTORE PUSH1 0x4 ADD PUSH2 0x1D80 SWAP1 PUSH2 0x2A4C JUMP JUMPDEST PUSH1 0x40 MLOAD DUP1 SWAP2 SUB SWAP1 REVERT JUMPDEST PUSH0 PUSH0 PUSH0 DUP5 DUP2 MSTORE PUSH1 0x20 ADD SWAP1 DUP2 MSTORE PUSH1 0x20 ADD PUSH0 KECCAK256 SWAP1 POP DUP1 PUSH1 0x5 ADD PUSH1 0x1 SWAP1 SLOAD SWAP1 PUSH2 0x100 EXP SWAP1 DIV PUSH20 0xFFFFFFFFFFFFFFFFFFFFFFFFFFFFFFFFFFFFFFFF AND PUSH20 0xFFFFFFFFFFFFFFFFFFFFFFFFFFFFFFFFFFFFFFFF AND CALLER PUSH20 0xFFFFFFFFFFFFFFFFFFFFFFFFFFFFFFFFFFFFFFFF AND EQ PUSH2 0x1E2E JUMPI PUSH1 0x40 MLOAD PUSH32 0x8C379A000000000000000000000000000000000000000000000000000000000 DUP2 MSTORE PUSH1 0x4 ADD PUSH2 0x1E25 SWAP1 PUSH2 0x37D5 JUMP JUMPDEST PUSH1 0x40 MLOAD DUP1 SWAP2 SUB SWAP1 REVERT JUMPDEST PUSH1 0x2 PUSH1 0x4 DUP2 GT ISZERO PUSH2 0x1E42 JUMPI PUSH2 0x1E41 PUSH2 0x270B JUMP JUMPDEST JUMPDEST DUP2 PUSH1 0x5 ADD PUSH0 SWAP1 SLOAD SWAP1 PUSH2 0x100 EXP SWAP1 DIV PUSH1 0xFF AND PUSH1 0x4 DUP2 GT ISZERO PUSH2 0x1E65 JUMPI PUSH2 0x1E64 PUSH2 0x270B JUMP JUMPDEST JUMPDEST EQ PUSH2 0x1EA5 JUMPI PUSH1 0x40 MLOAD PUSH32 0x8C379A000000000000000000000000000000000000000000000000000000000 DUP2 MSTORE PUSH1 0x4 ADD PUSH2 0x1E9C SWAP1 PUSH2 0x2F98 JUMP JUMPDEST PUSH1 0x40 MLOAD DUP1 SWAP2 SUB SWAP1 REVERT JUMPDEST PUSH1 0x3 DUP2 PUSH1 0x5 ADD PUSH0 PUSH2 0x100 EXP DUP2 SLOAD DUP2 PUSH1 0xFF MUL NOT AND SWAP1 DUP4 PUSH1 0x4 DUP2 GT ISZERO PUSH2 0x1ECC JUMPI PUSH2 0x1ECB PUSH2 0x270B JUMP JUMPDEST JUMPDEST MUL OR SWAP1 SSTORE POP PUSH0 PUSH1 0x4 PUSH0 SWAP1 SLOAD SWAP1 PUSH2 0x100 EXP SWAP1 DIV PUSH20 0xFFFFFFFFFFFFFFFFFFFFFFFFFFFFFFFFFFFFFFFF AND PUSH20 0xFFFFFFFFFFFFFFFFFFFFFFFFFFFFFFFFFFFFFFFF AND DUP5 DUP4 PUSH1 0x5 ADD PUSH1 0x1 SWAP1 SLOAD SWAP1 PUSH2 0x100 EXP SWAP1 DIV PUSH20 0xFFFFFFFFFFFFFFFFFFFFFFFFFFFFFFFFFFFFFFFF AND PUSH1 0x40 MLOAD PUSH1 0x24 ADD PUSH2 0x1F41 SWAP3 SWAP2 SWAP1 PUSH2 0x2AF8 JUMP JUMPDEST PUSH1 0x40 MLOAD PUSH1 0x20 DUP2 DUP4 SUB SUB DUP2 MSTORE SWAP1 PUSH1 0x40 MSTORE PUSH32 0x1AF23A5900000000000000000000000000000000000000000000000000000000 PUSH28 0xFFFFFFFFFFFFFFFFFFFFFFFFFFFFFFFFFFFFFFFFFFFFFFFFFFFFFFFF NOT AND PUSH1 0x20 DUP3 ADD DUP1 MLOAD PUSH28 0xFFFFFFFFFFFFFFFFFFFFFFFFFFFFFFFFFFFFFFFFFFFFFFFFFFFFFFFF DUP4 DUP2 DUP4 AND OR DUP4 MSTORE POP POP POP POP PUSH1 0x40 MLOAD PUSH2 0x1FCB SWAP2 SWAP1 PUSH2 0x2B63 JUMP JUMPDEST PUSH0 PUSH1 0x40 MLOAD DUP1 DUP4 SUB DUP2 PUSH0 DUP7 GAS CALL SWAP2 POP POP RETURNDATASIZE DUP1 PUSH0 DUP2 EQ PUSH2 0x2004 JUMPI PUSH1 0x40 MLOAD SWAP2 POP PUSH1 0x1F NOT PUSH1 0x3F RETURNDATASIZE ADD AND DUP3 ADD PUSH1 0x40 MSTORE RETURNDATASIZE DUP3 MSTORE RETURNDATASIZE PUSH0 PUSH1 0x20 DUP5 ADD RETURNDATACOPY PUSH2 0x2009 JUMP JUMPDEST PUSH1 0x60 SWAP2 POP JUMPDEST POP POP SWAP1 POP DUP1 PUSH2 0x204D JUMPI PUSH1 0x40 MLOAD PUSH32 0x8C379A000000000000000000000000000000000000000000000000000000000 DUP2 MSTORE PUSH1 0x4 ADD PUSH2 0x2044 SWAP1 PUSH2 0x2BC3 JUMP JUMPDEST PUSH1 0x40 MLOAD DUP1 SWAP2 SUB SWAP1 REVERT JUMPDEST DUP4 PUSH32 0x4C15BBF33194D9C3D8BCB678F11EFD3112F20BA2837209F1D04E622B9C50B68E PUSH1 0x3 DUP5 PUSH1 0x5 ADD PUSH1 0x1 SWAP1 SLOAD SWAP1 PUSH2 0x100 EXP SWAP1 DIV PUSH20 0xFFFFFFFFFFFFFFFFFFFFFFFFFFFFFFFFFFFFFFFF AND PUSH1 0x40 MLOAD PUSH2 0x20A4 SWAP3 SWAP2 SWAP1 PUSH2 0x2BE1 JUMP JUMPDEST PUSH1 0x40 MLOAD DUP1 SWAP2 SUB SWAP1 LOG2 POP POP POP POP JUMP JUMPDEST PUSH1 0x4 PUSH0 SWAP1 SLOAD SWAP1 PUSH2 0x100 EXP SWAP1 DIV PUSH20 0xFFFFFFFFFFFFFFFFFFFFFFFFFFFFFFFFFFFFFFFF AND DUP2 JUMP JUMPDEST DUP1 DUP1 PUSH0 PUSH0 DUP4 DUP2 MSTORE PUSH1 0x20 ADD SWAP1 DUP2 MSTORE PUSH1 0x20 ADD PUSH0 KECCAK256 PUSH0 ADD SLOAD EQ PUSH2 0x212C JUMPI PUSH1 0x40 MLOAD PUSH32 0x8C379A000000000000000000000000000000000000000000000000000000000 DUP2 MSTORE PUSH1 0x4 ADD PUSH2 0x2123 SWAP1 PUSH2 0x2A4C JUMP JUMPDEST PUSH1 0x40 MLOAD DUP1 SWAP2 SUB SWAP1 REVERT JUMPDEST PUSH0 PUSH0 PUSH0 DUP5 DUP2 MSTORE PUSH1 0x20 ADD SWAP1 DUP2 MSTORE PUSH1 0x20 ADD PUSH0 KECCAK256 SWAP1 POP PUSH0 PUSH20 0xFFFFFFFFFFFFFFFFFFFFFFFFFFFFFFFFFFFFFFFF AND DUP2 PUSH1 0x5 ADD PUSH1 0x1 SWAP1 SLOAD SWAP1 PUSH2 0x100 EXP SWAP1 DIV PUSH20 0xFFFFFFFFFFFFFFFFFFFFFFFFFFFFFFFFFFFFFFFF AND PUSH20 0xFFFFFFFFFFFFFFFFFFFFFFFFFFFFFFFFFFFFFFFF AND EQ PUSH2 0x21D1 JUMPI PUSH1 0x40 MLOAD PUSH32 0x8C379A000000000000000000000000000000000000000000000000000000000 DUP2 MSTORE PUSH1 0x4 ADD PUSH2 0x21C8 SWAP1 PUSH2 0x383D JUMP JUMPDEST PUSH1 0x40 MLOAD DUP1 SWAP2 SUB SWAP1 REVERT JUMPDEST DUP1 PUSH1 0x6 ADD SLOAD TIMESTAMP GT PUSH2 0x2217 JUMPI PUSH1 0x40 MLOAD PUSH32 0x8C379A000000000000000000000000000000000000000000000000000000000 DUP2 MSTORE PUSH1 0x4 ADD PUSH2 0x220E SWAP1 PUSH2 0x38A5 JUMP JUMPDEST PUSH1 0x40 MLOAD DUP1 SWAP2 SUB SWAP1 REVERT JUMPDEST PUSH0 PUSH1 0x4 PUSH0 SWAP1 SLOAD SWAP1 PUSH2 0x100 EXP SWAP1 DIV PUSH20 0xFFFFFFFFFFFFFFFFFFFFFFFFFFFFFFFFFFFFFFFF AND PUSH20 0xFFFFFFFFFFFFFFFFFFFFFFFFFFFFFFFFFFFFFFFF AND DUP5 PUSH1 0x40 MLOAD PUSH1 0x24 ADD PUSH2 0x2261 SWAP2 SWAP1 PUSH2 0x29E9 JUMP JUMPDEST PUSH1 0x40 MLOAD PUSH1 0x20 DUP2 DUP4 SUB SUB DUP2 MSTORE SWAP1 PUSH1 0x40 MSTORE PUSH32 0x15F1BBFE00000000000000000000000000000000000000000000000000000000 PUSH28 0xFFFFFFFFFFFFFFFFFFFFFFFFFFFFFFFFFFFFFFFFFFFFFFFFFFFFFFFF NOT AND PUSH1 0x20 DUP3 ADD DUP1 MLOAD PUSH28 0xFFFFFFFFFFFFFFFFFFFFFFFFFFFFFFFFFFFFFFFFFFFFFFFFFFFFFFFF DUP4 DUP2 DUP4 AND OR DUP4 MSTORE POP POP POP POP PUSH1 0x40 MLOAD PUSH2 0x22EB SWAP2 SWAP1 PUSH2 0x2B63 JUMP JUMPDEST PUSH0 PUSH1 0x40 MLOAD DUP1 DUP4 SUB DUP2 PUSH0 DUP7 GAS CALL SWAP2 POP POP RETURNDATASIZE DUP1 PUSH0 DUP2 EQ PUSH2 0x2324 JUMPI PUSH1 0x40 MLOAD SWAP2 POP PUSH1 0x1F NOT PUSH1 0x3F RETURNDATASIZE ADD AND DUP3 ADD PUSH1 0x40 MSTORE RETURNDATASIZE DUP3 MSTORE RETURNDATASIZE PUSH0 PUSH1 0x20 DUP5 ADD RETURNDATACOPY PUSH2 0x2329 JUMP JUMPDEST PUSH1 0x60 SWAP2 POP JUMPDEST POP POP SWAP1 POP DUP1 PUSH2 0x236D JUMPI PUSH1 0x40 MLOAD PUSH32 0x8C379A000000000000000000000000000000000000000000000000000000000 DUP2 MSTORE PUSH1 0x4 ADD PUSH2 0x2364 SWAP1 PUSH2 0x2E45 JUMP JUMPDEST PUSH1 0x40 MLOAD DUP1 SWAP2 SUB SWAP1 REVERT JUMPDEST PUSH0 PUSH0 DUP6 DUP2 MSTORE PUSH1 0x20 ADD SWAP1 DUP2 MSTORE PUSH1 0x20 ADD PUSH0 KECCAK256 PUSH0 PUSH0 DUP3 ADD PUSH0 SWAP1 SSTORE PUSH1 0x1 DUP3 ADD PUSH0 PUSH2 0x2393 SWAP2 SWAP1 PUSH2 0x2479 JUMP JUMPDEST PUSH1 0x2 DUP3 ADD PUSH0 PUSH2 0x23A2 SWAP2 SWAP1 PUSH2 0x2479 JUMP JUMPDEST PUSH1 0x3 DUP3 ADD PUSH0 PUSH2 0x100 EXP DUP2 SLOAD SWAP1 PUSH20 0xFFFFFFFFFFFFFFFFFFFFFFFFFFFFFFFFFFFFFFFF MUL NOT AND SWAP1 SSTORE PUSH1 0x4 DUP3 ADD PUSH0 SWAP1 SSTORE PUSH1 0x5 DUP3 ADD PUSH0 PUSH2 0x100 EXP DUP2 SLOAD SWAP1 PUSH1 0xFF MUL NOT AND SWAP1 SSTORE PUSH1 0x5 DUP3 ADD PUSH1 0x1 PUSH2 0x100 EXP DUP2 SLOAD SWAP1 PUSH20 0xFFFFFFFFFFFFFFFFFFFFFFFFFFFFFFFFFFFFFFFF MUL NOT AND SWAP1 SSTORE PUSH1 0x6 DUP3 ADD PUSH0 SWAP1 SSTORE PUSH1 0x7 DUP3 ADD PUSH0 PUSH2 0x241F SWAP2 SWAP1 PUSH2 0x24B6 JUMP JUMPDEST POP POP DUP4 PUSH32 0x36A2F40CFE61ACE5BAF26A6E4F86FFA75C62392FDE263D354D42E0E718FA4BD1 PUSH1 0x40 MLOAD PUSH1 0x40 MLOAD DUP1 SWAP2 SUB SWAP1 LOG2 POP POP POP POP JUMP JUMPDEST PUSH1 0x5 PUSH0 SWAP1 SLOAD SWAP1 PUSH2 0x100 EXP SWAP1 DIV PUSH20 0xFFFFFFFFFFFFFFFFFFFFFFFFFFFFFFFFFFFFFFFF AND DUP2 JUMP JUMPDEST POP DUP1 SLOAD PUSH2 0x2485 SWAP1 PUSH2 0x2E90 JUMP JUMPDEST PUSH0 DUP3 SSTORE DUP1 PUSH1 0x1F LT PUSH2 0x2496 JUMPI POP PUSH2 0x24B3 JUMP JUMPDEST PUSH1 0x1F ADD PUSH1 0x20 SWAP1 DIV SWAP1 PUSH0 MSTORE PUSH1 0x20 PUSH0 KECCAK256 SWAP1 DUP2 ADD SWAP1 PUSH2 0x24B2 SWAP2 SWAP1 PUSH2 0x255B JUMP JUMPDEST JUMPDEST POP JUMP JUMPDEST POP DUP1 SLOAD PUSH0 DUP3 SSTORE SWAP1 PUSH0 MSTORE PUSH1 0x20 PUSH0 KECCAK256 SWAP1 DUP2 ADD SWAP1 PUSH2 0x24D1 SWAP2 SWAP1 PUSH2 0x255B JUMP JUMPDEST POP JUMP JUMPDEST DUP3 DUP1 SLOAD DUP3 DUP3 SSTORE SWAP1 PUSH0 MSTORE PUSH1 0x20 PUSH0 KECCAK256 SWAP1 DUP2 ADD SWAP3 DUP3 ISZERO PUSH2 0x254A JUMPI SWAP2 PUSH1 0x20 MUL DUP3 ADD JUMPDEST DUP3 DUP2 GT ISZERO PUSH2 0x2549 JUMPI DUP3 MLOAD DUP3 PUSH0 PUSH2 0x100 EXP DUP2 SLOAD DUP2 PUSH20 0xFFFFFFFFFFFFFFFFFFFFFFFFFFFFFFFFFFFFFFFF MUL NOT AND SWAP1 DUP4 PUSH20 0xFFFFFFFFFFFFFFFFFFFFFFFFFFFFFFFFFFFFFFFF AND MUL OR SWAP1 SSTORE POP SWAP2 PUSH1 0x20 ADD SWAP2 SWAP1 PUSH1 0x1 ADD SWAP1 PUSH2 0x24F2 JUMP JUMPDEST JUMPDEST POP SWAP1 POP PUSH2 0x2557 SWAP2 SWAP1 PUSH2 0x255B JUMP JUMPDEST POP SWAP1 JUMP JUMPDEST JUMPDEST DUP1 DUP3 GT ISZERO PUSH2 0x2572 JUMPI PUSH0 DUP2 PUSH0 SWAP1 SSTORE POP PUSH1 0x1 ADD PUSH2 0x255C JUMP JUMPDEST POP SWAP1 JUMP JUMPDEST PUSH0 PUSH1 0x40 MLOAD SWAP1 POP SWAP1 JUMP JUMPDEST PUSH0 PUSH0 REVERT JUMPDEST PUSH0 PUSH0 REVERT JUMPDEST PUSH0 DUP2 SWAP1 POP SWAP2 SWAP1 POP JUMP JUMPDEST PUSH2 0x2599 DUP2 PUSH2 0x2587 JUMP JUMPDEST DUP2 EQ PUSH2 0x25A3 JUMPI PUSH0 PUSH0 REVERT JUMPDEST POP JUMP JUMPDEST PUSH0 DUP2 CALLDATALOAD SWAP1 POP PUSH2 0x25B4 DUP2 PUSH2 0x2590 JUMP JUMPDEST SWAP3 SWAP2 POP POP JUMP JUMPDEST PUSH0 PUSH20 0xFFFFFFFFFFFFFFFFFFFFFFFFFFFFFFFFFFFFFFFF DUP3 AND SWAP1 POP SWAP2 SWAP1 POP JUMP JUMPDEST PUSH0 PUSH2 0x25E3 DUP3 PUSH2 0x25BA JUMP JUMPDEST SWAP1 POP SWAP2 SWAP1 POP JUMP JUMPDEST PUSH2 0x25F3 DUP2 PUSH2 0x25D9 JUMP JUMPDEST DUP2 EQ PUSH2 0x25FD JUMPI PUSH0 PUSH0 REVERT JUMPDEST POP JUMP JUMPDEST PUSH0 DUP2 CALLDATALOAD SWAP1 POP PUSH2 0x260E DUP2 PUSH2 0x25EA JUMP JUMPDEST SWAP3 SWAP2 POP POP JUMP JUMPDEST PUSH0 PUSH0 PUSH1 0x40 DUP4 DUP6 SUB SLT ISZERO PUSH2 0x262A JUMPI PUSH2 0x2629 PUSH2 0x257F JUMP JUMPDEST JUMPDEST PUSH0 PUSH2 0x2637 DUP6 DUP3 DUP7 ADD PUSH2 0x25A6 JUMP JUMPDEST SWAP3 POP POP PUSH1 0x20 PUSH2 0x2648 DUP6 DUP3 DUP7 ADD PUSH2 0x2600 JUMP JUMPDEST SWAP2 POP POP SWAP3 POP SWAP3 SWAP1 POP JUMP JUMPDEST PUSH0 PUSH1 0x20 DUP3 DUP5 SUB SLT ISZERO PUSH2 0x2667 JUMPI PUSH2 0x2666 PUSH2 0x257F JUMP JUMPDEST JUMPDEST PUSH0 PUSH2 0x2674 DUP5 DUP3 DUP6 ADD PUSH2 0x25A6 JUMP JUMPDEST SWAP2 POP POP SWAP3 SWAP2 POP POP JUMP JUMPDEST PUSH2 0x2686 DUP2 PUSH2 0x2587 JUMP JUMPDEST DUP3 MSTORE POP POP JUMP JUMPDEST PUSH0 DUP2 MLOAD SWAP1 POP SWAP2 SWAP1 POP JUMP JUMPDEST PUSH0 DUP3 DUP3 MSTORE PUSH1 0x20 DUP3 ADD SWAP1 POP SWAP3 SWAP2 POP POP JUMP JUMPDEST DUP3 DUP2 DUP4 MCOPY PUSH0 DUP4 DUP4 ADD MSTORE POP POP POP JUMP JUMPDEST PUSH0 PUSH1 0x1F NOT PUSH1 0x1F DUP4 ADD AND SWAP1 POP SWAP2 SWAP1 POP JUMP JUMPDEST PUSH0 PUSH2 0x26CE DUP3 PUSH2 0x268C JUMP JUMPDEST PUSH2 0x26D8 DUP2 DUP6 PUSH2 0x2696 JUMP JUMPDEST SWAP4 POP PUSH2 0x26E8 DUP2 DUP6 PUSH1 0x20 DUP7 ADD PUSH2 0x26A6 JUMP JUMPDEST PUSH2 0x26F1 DUP2 PUSH2 0x26B4 JUMP JUMPDEST DUP5 ADD SWAP2 POP POP SWAP3 SWAP2 POP POP JUMP JUMPDEST PUSH2 0x2705 DUP2 PUSH2 0x25D9 JUMP JUMPDEST DUP3 MSTORE POP POP JUMP JUMPDEST PUSH32 0x4E487B7100000000000000000000000000000000000000000000000000000000 PUSH0 MSTORE PUSH1 0x21 PUSH1 0x4 MSTORE PUSH1 0x24 PUSH0 REVERT JUMPDEST PUSH1 0x5 DUP2 LT PUSH2 0x2749 JUMPI PUSH2 0x2748 PUSH2 0x270B JUMP JUMPDEST JUMPDEST POP JUMP JUMPDEST PUSH0 DUP2 SWAP1 POP PUSH2 0x2759 DUP3 PUSH2 0x2738 JUMP JUMPDEST SWAP2 SWAP1 POP JUMP JUMPDEST PUSH0 PUSH2 0x2768 DUP3 PUSH2 0x274C JUMP JUMPDEST SWAP1 POP SWAP2 SWAP1 POP JUMP JUMPDEST PUSH2 0x2778 DUP2 PUSH2 0x275E JUMP JUMPDEST DUP3 MSTORE POP POP JUMP JUMPDEST PUSH0 PUSH2 0x100 DUP3 ADD SWAP1 POP PUSH2 0x2792 PUSH0 DUP4 ADD DUP12 PUSH2 0x267D JUMP JUMPDEST DUP2 DUP2 SUB PUSH1 0x20 DUP4 ADD MSTORE PUSH2 0x27A4 DUP2 DUP11 PUSH2 0x26C4 JUMP JUMPDEST SWAP1 POP DUP2 DUP2 SUB PUSH1 0x40 DUP4 ADD MSTORE PUSH2 0x27B8 DUP2 DUP10 PUSH2 0x26C4 JUMP JUMPDEST SWAP1 POP PUSH2 0x27C7 PUSH1 0x60 DUP4 ADD DUP9 PUSH2 0x26FC JUMP JUMPDEST PUSH2 0x27D4 PUSH1 0x80 DUP4 ADD DUP8 PUSH2 0x267D JUMP JUMPDEST PUSH2 0x27E1 PUSH1 0xA0 DUP4 ADD DUP7 PUSH2 0x276F JUMP JUMPDEST PUSH2 0x27EE PUSH1 0xC0 DUP4 ADD DUP6 PUSH2 0x26FC JUMP JUMPDEST PUSH2 0x27FB PUSH1 0xE0 DUP4 ADD DUP5 PUSH2 0x267D JUMP JUMPDEST SWAP10 SWAP9 POP POP POP POP POP POP POP POP POP JUMP JUMPDEST PUSH0 PUSH1 0x20 DUP3 ADD SWAP1 POP PUSH2 0x281B PUSH0 DUP4 ADD DUP5 PUSH2 0x26FC JUMP JUMPDEST SWAP3 SWAP2 POP POP JUMP JUMPDEST PUSH0 PUSH0 REVERT JUMPDEST PUSH0 PUSH0 REVERT JUMPDEST PUSH32 0x4E487B7100000000000000000000000000000000000000000000000000000000 PUSH0 MSTORE PUSH1 0x41 PUSH1 0x4 MSTORE PUSH1 0x24 PUSH0 REVERT JUMPDEST PUSH2 0x285F DUP3 PUSH2 0x26B4 JUMP JUMPDEST DUP2 ADD DUP2 DUP2 LT PUSH8 0xFFFFFFFFFFFFFFFF DUP3 GT OR ISZERO PUSH2 0x287E JUMPI PUSH2 0x287D PUSH2 0x2829 JUMP JUMPDEST JUMPDEST DUP1 PUSH1 0x40 MSTORE POP POP POP JUMP JUMPDEST PUSH0 PUSH2 0x2890 PUSH2 0x2576 JUMP JUMPDEST SWAP1 POP PUSH2 0x289C DUP3 DUP3 PUSH2 0x2856 JUMP JUMPDEST SWAP2 SWAP1 POP JUMP JUMPDEST PUSH0 PUSH8 0xFFFFFFFFFFFFFFFF DUP3 GT ISZERO PUSH2 0x28BB JUMPI PUSH2 0x28BA PUSH2 0x2829 JUMP JUMPDEST JUMPDEST PUSH2 0x28C4 DUP3 PUSH2 0x26B4 JUMP JUMPDEST SWAP1 POP PUSH1 0x20 DUP2 ADD SWAP1 POP SWAP2 SWAP1 POP JUMP JUMPDEST DUP3 DUP2 DUP4 CALLDATACOPY PUSH0 DUP4 DUP4 ADD MSTORE POP POP POP JUMP JUMPDEST PUSH0 PUSH2 0x28F1 PUSH2 0x28EC DUP5 PUSH2 0x28A1 JUMP JUMPDEST PUSH2 0x2887 JUMP JUMPDEST SWAP1 POP DUP3 DUP2 MSTORE PUSH1 0x20 DUP2 ADD DUP5 DUP5 DUP5 ADD GT ISZERO PUSH2 0x290D JUMPI PUSH2 0x290C PUSH2 0x2825 JUMP JUMPDEST JUMPDEST PUSH2 0x2918 DUP5 DUP3 DUP6 PUSH2 0x28D1 JUMP JUMPDEST POP SWAP4 SWAP3 POP POP POP JUMP JUMPDEST PUSH0 DUP3 PUSH1 0x1F DUP4 ADD SLT PUSH2 0x2934 JUMPI PUSH2 0x2933 PUSH2 0x2821 JUMP JUMPDEST JUMPDEST DUP2 CALLDATALOAD PUSH2 0x2944 DUP5 DUP3 PUSH1 0x20 DUP7 ADD PUSH2 0x28DF JUMP JUMPDEST SWAP2 POP POP SWAP3 SWAP2 POP POP JUMP JUMPDEST PUSH0 PUSH0 PUSH0 PUSH0 PUSH1 0x80 DUP6 DUP8 SUB SLT ISZERO PUSH2 0x2965 JUMPI PUSH2 0x2964 PUSH2 0x257F JUMP JUMPDEST JUMPDEST PUSH0 DUP6 ADD CALLDATALOAD PUSH8 0xFFFFFFFFFFFFFFFF DUP2 GT ISZERO PUSH2 0x2982 JUMPI PUSH2 0x2981 PUSH2 0x2583 JUMP JUMPDEST JUMPDEST PUSH2 0x298E DUP8 DUP3 DUP9 ADD PUSH2 0x2920 JUMP JUMPDEST SWAP5 POP POP PUSH1 0x20 DUP6 ADD CALLDATALOAD PUSH8 0xFFFFFFFFFFFFFFFF DUP2 GT ISZERO PUSH2 0x29AF JUMPI PUSH2 0x29AE PUSH2 0x2583 JUMP JUMPDEST JUMPDEST PUSH2 0x29BB DUP8 DUP3 DUP9 ADD PUSH2 0x2920 JUMP JUMPDEST SWAP4 POP POP PUSH1 0x40 PUSH2 0x29CC DUP8 DUP3 DUP9 ADD PUSH2 0x25A6 JUMP JUMPDEST SWAP3 POP POP PUSH1 0x60 PUSH2 0x29DD DUP8 DUP3 DUP9 ADD PUSH2 0x25A6 JUMP JUMPDEST SWAP2 POP POP SWAP3 SWAP6 SWAP2 SWAP5 POP SWAP3 POP JUMP JUMPDEST PUSH0 PUSH1 0x20 DUP3 ADD SWAP1 POP PUSH2 0x29FC PUSH0 DUP4 ADD DUP5 PUSH2 0x267D JUMP JUMPDEST SWAP3 SWAP2 POP POP JUMP JUMPDEST PUSH32 0x5461736B20646F6573206E6F7420657869737400000000000000000000000000 PUSH0 DUP3 ADD MSTORE POP JUMP JUMPDEST PUSH0 PUSH2 0x2A36 PUSH1 0x13 DUP4 PUSH2 0x2696 JUMP JUMPDEST SWAP2 POP PUSH2 0x2A41 DUP3 PUSH2 0x2A02 JUMP JUMPDEST PUSH1 0x20 DUP3 ADD SWAP1 POP SWAP2 SWAP1 POP JUMP JUMPDEST PUSH0 PUSH1 0x20 DUP3 ADD SWAP1 POP DUP2 DUP2 SUB PUSH0 DUP4 ADD MSTORE PUSH2 0x2A63 DUP2 PUSH2 0x2A2A JUMP JUMPDEST SWAP1 POP SWAP2 SWAP1 POP JUMP JUMPDEST PUSH32 0x4F6E6C79204469737075746544414F2063616E207265736F6C76652064697370 PUSH0 DUP3 ADD MSTORE PUSH32 0x7574657300000000000000000000000000000000000000000000000000000000 PUSH1 0x20 DUP3 ADD MSTORE POP JUMP JUMPDEST PUSH0 PUSH2 0x2AC4 PUSH1 0x24 DUP4 PUSH2 0x2696 JUMP JUMPDEST SWAP2 POP PUSH2 0x2ACF DUP3 PUSH2 0x2A6A JUMP JUMPDEST PUSH1 0x40 DUP3 ADD SWAP1 POP SWAP2 SWAP1 POP JUMP JUMPDEST PUSH0 PUSH1 0x20 DUP3 ADD SWAP1 POP DUP2 DUP2 SUB PUSH0 DUP4 ADD MSTORE PUSH2 0x2AF1 DUP2 PUSH2 0x2AB8 JUMP JUMPDEST SWAP1 POP SWAP2 SWAP1 POP JUMP JUMPDEST PUSH0 PUSH1 0x40 DUP3 ADD SWAP1 POP PUSH2 0x2B0B PUSH0 DUP4 ADD DUP6 PUSH2 0x267D JUMP JUMPDEST PUSH2 0x2B18 PUSH1 0x20 DUP4 ADD DUP5 PUSH2 0x26FC JUMP JUMPDEST SWAP4 SWAP3 POP POP POP JUMP JUMPDEST PUSH0 DUP2 MLOAD SWAP1 POP SWAP2 SWAP1 POP JUMP JUMPDEST PUSH0 DUP2 SWAP1 POP SWAP3 SWAP2 POP POP JUMP JUMPDEST PUSH0 PUSH2 0x2B3D DUP3 PUSH2 0x2B1F JUMP JUMPDEST PUSH2 0x2B47 DUP2 DUP6 PUSH2 0x2B29 JUMP JUMPDEST SWAP4 POP PUSH2 0x2B57 DUP2 DUP6 PUSH1 0x20 DUP7 ADD PUSH2 0x26A6 JUMP JUMPDEST DUP1 DUP5 ADD SWAP2 POP POP SWAP3 SWAP2 POP POP JUMP JUMPDEST PUSH0 PUSH2 0x2B6E DUP3 DUP5 PUSH2 0x2B33 JUMP JUMPDEST SWAP2 POP DUP2 SWAP1 POP SWAP3 SWAP2 POP POP JUMP JUMPDEST PUSH32 0x457363726F772072656C65617365206661696C65640000000000000000000000 PUSH0 DUP3 ADD MSTORE POP JUMP JUMPDEST PUSH0 PUSH2 0x2BAD PUSH1 0x15 DUP4 PUSH2 0x2696 JUMP JUMPDEST SWAP2 POP PUSH2 0x2BB8 DUP3 PUSH2 0x2B79 JUMP JUMPDEST PUSH1 0x20 DUP3 ADD SWAP1 POP SWAP2 SWAP1 POP JUMP JUMPDEST PUSH0 PUSH1 0x20 DUP3 ADD SWAP1 POP DUP2 DUP2 SUB PUSH0 DUP4 ADD MSTORE PUSH2 0x2BDA DUP2 PUSH2 0x2BA1 JUMP JUMPDEST SWAP1 POP SWAP2 SWAP1 POP JUMP JUMPDEST PUSH0 PUSH1 0x40 DUP3 ADD SWAP1 POP PUSH2 0x2BF4 PUSH0 DUP4 ADD DUP6 PUSH2 0x276F JUMP JUMPDEST PUSH2 0x2C01 PUSH1 0x20 DUP4 ADD DUP5 PUSH2 0x26FC JUMP JUMPDEST SWAP4 SWAP3 POP POP POP JUMP JUMPDEST PUSH32 0x5461736B206973206E6F74206F70656E20666F72207061727469636970617469 PUSH0 DUP3 ADD MSTORE PUSH32 0x6F6E000000000000000000000000000000000000000000000000000000000000 PUSH1 0x20 DUP3 ADD MSTORE POP JUMP JUMPDEST PUSH0 PUSH2 0x2C62 PUSH1 0x22 DUP4 PUSH2 0x2696 JUMP JUMPDEST SWAP2 POP PUSH2 0x2C6D DUP3 PUSH2 0x2C08 JUMP JUMPDEST PUSH1 0x40 DUP3 ADD SWAP1 POP SWAP2 SWAP1 POP JUMP JUMPDEST PUSH0 PUSH1 0x20 DUP3 ADD SWAP1 POP DUP2 DUP2 SUB PUSH0 DUP4 ADD MSTORE PUSH2 0x2C8F DUP2 PUSH2 0x2C56 JUMP JUMPDEST SWAP1 POP SWAP2 SWAP1 POP JUMP JUMPDEST PUSH32 0x4E487B7100000000000000000000000000000000000000000000000000000000 PUSH0 MSTORE PUSH1 0x32 PUSH1 0x4 MSTORE PUSH1 0x24 PUSH0 REVERT JUMPDEST PUSH32 0x416C726561647920706172746963697061746564000000000000000000000000 PUSH0 DUP3 ADD MSTORE POP JUMP JUMPDEST PUSH0 PUSH2 0x2CF7 PUSH1 0x14 DUP4 PUSH2 0x2696 JUMP JUMPDEST SWAP2 POP PUSH2 0x2D02 DUP3 PUSH2 0x2CC3 JUMP JUMPDEST PUSH1 0x20 DUP3 ADD SWAP1 POP SWAP2 SWAP1 POP JUMP JUMPDEST PUSH0 PUSH1 0x20 DUP3 ADD SWAP1 POP DUP2 DUP2 SUB PUSH0 DUP4 ADD MSTORE PUSH2 0x2D24 DUP2 PUSH2 0x2CEB JUMP JUMPDEST SWAP1 POP SWAP2 SWAP1 POP JUMP JUMPDEST PUSH32 0x4F6E6C792063726561746F722063616E206F7065726174650000000000000000 PUSH0 DUP3 ADD MSTORE POP JUMP JUMPDEST PUSH0 PUSH2 0x2D5F PUSH1 0x18 DUP4 PUSH2 0x2696 JUMP JUMPDEST SWAP2 POP PUSH2 0x2D6A DUP3 PUSH2 0x2D2B JUMP JUMPDEST PUSH1 0x20 DUP3 ADD SWAP1 POP SWAP2 SWAP1 POP JUMP JUMPDEST PUSH0 PUSH1 0x20 DUP3 ADD SWAP1 POP DUP2 DUP2 SUB PUSH0 DUP4 ADD MSTORE PUSH2 0x2D8C DUP2 PUSH2 0x2D53 JUMP JUMPDEST SWAP1 POP SWAP2 SWAP1 POP JUMP JUMPDEST PUSH32 0x5461736B2063616E6E6F742062652063616E63656C6C65640000000000000000 PUSH0 DUP3 ADD MSTORE POP JUMP JUMPDEST PUSH0 PUSH2 0x2DC7 PUSH1 0x18 DUP4 PUSH2 0x2696 JUMP JUMPDEST SWAP2 POP PUSH2 0x2DD2 DUP3 PUSH2 0x2D93 JUMP JUMPDEST PUSH1 0x20 DUP3 ADD SWAP1 POP SWAP2 SWAP1 POP JUMP JUMPDEST PUSH0 PUSH1 0x20 DUP3 ADD SWAP1 POP DUP2 DUP2 SUB PUSH0 DUP4 ADD MSTORE PUSH2 0x2DF4 DUP2 PUSH2 0x2DBB JUMP JUMPDEST SWAP1 POP SWAP2 SWAP1 POP JUMP JUMPDEST PUSH32 0x457363726F7720726566756E64206661696C6564000000000000000000000000 PUSH0 DUP3 ADD MSTORE POP JUMP JUMPDEST PUSH0 PUSH2 0x2E2F PUSH1 0x14 DUP4 PUSH2 0x2696 JUMP JUMPDEST SWAP2 POP PUSH2 0x2E3A DUP3 PUSH2 0x2DFB JUMP JUMPDEST PUSH1 0x20 DUP3 ADD SWAP1 POP SWAP2 SWAP1 POP JUMP JUMPDEST PUSH0 PUSH1 0x20 DUP3 ADD SWAP1 POP DUP2 DUP2 SUB PUSH0 DUP4 ADD MSTORE PUSH2 0x2E5C DUP2 PUSH2 0x2E23 JUMP JUMPDEST SWAP1 POP SWAP2 SWAP1 POP JUMP JUMPDEST PUSH32 0x4E487B7100000000000000000000000000000000000000000000000000000000 PUSH0 MSTORE PUSH1 0x22 PUSH1 0x4 MSTORE PUSH1 0x24 PUSH0 REVERT JUMPDEST PUSH0 PUSH1 0x2 DUP3 DIV SWAP1 POP PUSH1 0x1 DUP3 AND DUP1 PUSH2 0x2EA7 JUMPI PUSH1 0x7F DUP3 AND SWAP2 POP JUMPDEST PUSH1 0x20 DUP3 LT DUP2 SUB PUSH2 0x2EBA JUMPI PUSH2 0x2EB9 PUSH2 0x2E63 JUMP JUMPDEST JUMPDEST POP SWAP2 SWAP1 POP JUMP JUMPDEST PUSH32 0x4F6E6C792077696E6E6572206F722063726561746F722063616E206469737075 PUSH0 DUP3 ADD MSTORE PUSH32 0x7465000000000000000000000000000000000000000000000000000000000000 PUSH1 0x20 DUP3 ADD MSTORE POP JUMP JUMPDEST PUSH0 PUSH2 0x2F1A PUSH1 0x22 DUP4 PUSH2 0x2696 JUMP JUMPDEST SWAP2 POP PUSH2 0x2F25 DUP3 PUSH2 0x2EC0 JUMP JUMPDEST PUSH1 0x40 DUP3 ADD SWAP1 POP SWAP2 SWAP1 POP JUMP JUMPDEST PUSH0 PUSH1 0x20 DUP3 ADD SWAP1 POP DUP2 DUP2 SUB PUSH0 DUP4 ADD MSTORE PUSH2 0x2F47 DUP2 PUSH2 0x2F0E JUMP JUMPDEST SWAP1 POP SWAP2 SWAP1 POP JUMP JUMPDEST PUSH32 0x5461736B206973206E6F7420696E20496E50726F677265737320737461747573 PUSH0 DUP3 ADD MSTORE POP JUMP JUMPDEST PUSH0 PUSH2 0x2F82 PUSH1 0x20 DUP4 PUSH2 0x2696 JUMP JUMPDEST SWAP2 POP PUSH2 0x2F8D DUP3 PUSH2 0x2F4E JUMP JUMPDEST PUSH1 0x20 DUP3 ADD SWAP1 POP SWAP2 SWAP1 POP JUMP JUMPDEST PUSH0 PUSH1 0x20 DUP3 ADD SWAP1 POP DUP2 DUP2 SUB PUSH0 DUP4 ADD MSTORE PUSH2 0x2FAF DUP2 PUSH2 0x2F76 JUMP JUMPDEST SWAP1 POP SWAP2 SWAP1 POP JUMP JUMPDEST PUSH32 0x446973707574652068616E646C696E67206661696C6564000000000000000000 PUSH0 DUP3 ADD MSTORE POP JUMP JUMPDEST PUSH0 PUSH2 0x2FEA PUSH1 0x17 DUP4 PUSH2 0x2696 JUMP JUMPDEST SWAP2 POP PUSH2 0x2FF5 DUP3 PUSH2 0x2FB6 JUMP JUMPDEST PUSH1 0x20 DUP3 ADD SWAP1 POP SWAP2 SWAP1 POP JUMP JUMPDEST PUSH0 PUSH1 0x20 DUP3 ADD SWAP1 POP DUP2 DUP2 SUB PUSH0 DUP4 ADD MSTORE PUSH2 0x3017 DUP2 PUSH2 0x2FDE JUMP JUMPDEST SWAP1 POP SWAP2 SWAP1 POP JUMP JUMPDEST PUSH32 0x5461736B206973206E6F7420696E204372656174656420737461747573000000 PUSH0 DUP3 ADD MSTORE POP JUMP JUMPDEST PUSH0 PUSH2 0x3052 PUSH1 0x1D DUP4 PUSH2 0x2696 JUMP JUMPDEST SWAP2 POP PUSH2 0x305D DUP3 PUSH2 0x301E JUMP JUMPDEST PUSH1 0x20 DUP3 ADD SWAP1 POP SWAP2 SWAP1 POP JUMP JUMPDEST PUSH0 PUSH1 0x20 DUP3 ADD SWAP1 POP DUP2 DUP2 SUB PUSH0 DUP4 ADD MSTORE PUSH2 0x307F DUP2 PUSH2 0x3046 JUMP JUMPDEST SWAP1 POP SWAP2 SWAP1 POP JUMP JUMPDEST PUSH32 0x42696464696E67206F70656E206661696C656400000000000000000000000000 PUSH0 DUP3 ADD MSTORE POP JUMP JUMPDEST PUSH0 PUSH2 0x30BA PUSH1 0x13 DUP4 PUSH2 0x2696 JUMP JUMPDEST SWAP2 POP PUSH2 0x30C5 DUP3 PUSH2 0x3086 JUMP JUMPDEST PUSH1 0x20 DUP3 ADD SWAP1 POP SWAP2 SWAP1 POP JUMP JUMPDEST PUSH0 PUSH1 0x20 DUP3 ADD SWAP1 POP DUP2 DUP2 SUB PUSH0 DUP4 ADD MSTORE PUSH2 0x30E7 DUP2 PUSH2 0x30AE JUMP JUMPDEST SWAP1 POP SWAP2 SWAP1 POP JUMP JUMPDEST PUSH32 0x526577617264206D75737420626520657175616C20746F207468652073656E74 PUSH0 DUP3 ADD MSTORE PUSH32 0x2076616C75650000000000000000000000000000000000000000000000000000 PUSH1 0x20 DUP3 ADD MSTORE POP JUMP JUMPDEST PUSH0 PUSH2 0x3148 PUSH1 0x26 DUP4 PUSH2 0x2696 JUMP JUMPDEST SWAP2 POP PUSH2 0x3153 DUP3 PUSH2 0x30EE JUMP JUMPDEST PUSH1 0x40 DUP3 ADD SWAP1 POP SWAP2 SWAP1 POP JUMP JUMPDEST PUSH0 PUSH1 0x20 DUP3 ADD SWAP1 POP DUP2 DUP2 SUB PUSH0 DUP4 ADD MSTORE PUSH2 0x3175 DUP2 PUSH2 0x313C JUMP JUMPDEST SWAP1 POP SWAP2 SWAP1 POP JUMP JUMPDEST PUSH32 0x526577617264206D7573742062652067726561746572207468616E207A65726F PUSH0 DUP3 ADD MSTORE POP JUMP JUMPDEST PUSH0 PUSH2 0x31B0 PUSH1 0x20 DUP4 PUSH2 0x2696 JUMP JUMPDEST SWAP2 POP PUSH2 0x31BB DUP3 PUSH2 0x317C JUMP JUMPDEST PUSH1 0x20 DUP3 ADD SWAP1 POP SWAP2 SWAP1 POP JUMP JUMPDEST PUSH0 PUSH1 0x20 DUP3 ADD SWAP1 POP DUP2 DUP2 SUB PUSH0 DUP4 ADD MSTORE PUSH2 0x31DD DUP2 PUSH2 0x31A4 JUMP JUMPDEST SWAP1 POP SWAP2 SWAP1 POP JUMP JUMPDEST PUSH32 0x5461736B207469746C652063616E6E6F7420626520656D707479000000000000 PUSH0 DUP3 ADD MSTORE POP JUMP JUMPDEST PUSH0 PUSH2 0x3218 PUSH1 0x1A DUP4 PUSH2 0x2696 JUMP JUMPDEST SWAP2 POP PUSH2 0x3223 DUP3 PUSH2 0x31E4 JUMP JUMPDEST PUSH1 0x20 DUP3 ADD SWAP1 POP SWAP2 SWAP1 POP JUMP JUMPDEST PUSH0 PUSH1 0x20 DUP3 ADD SWAP1 POP DUP2 DUP2 SUB PUSH0 DUP4 ADD MSTORE PUSH2 0x3245 DUP2 PUSH2 0x320C JUMP JUMPDEST SWAP1 POP SWAP2 SWAP1 POP JUMP JUMPDEST PUSH32 0x4950465320686173682063616E6E6F7420626520656D70747900000000000000 PUSH0 DUP3 ADD MSTORE POP JUMP JUMPDEST PUSH0 PUSH2 0x3280 PUSH1 0x19 DUP4 PUSH2 0x2696 JUMP JUMPDEST SWAP2 POP PUSH2 0x328B DUP3 PUSH2 0x324C JUMP JUMPDEST PUSH1 0x20 DUP3 ADD SWAP1 POP SWAP2 SWAP1 POP JUMP JUMPDEST PUSH0 PUSH1 0x20 DUP3 ADD SWAP1 POP DUP2 DUP2 SUB PUSH0 DUP4 ADD MSTORE PUSH2 0x32AD DUP2 PUSH2 0x3274 JUMP JUMPDEST SWAP1 POP SWAP2 SWAP1 POP JUMP JUMPDEST PUSH32 0x446561646C696E65206D75737420626520696E20746865206675747572650000 PUSH0 DUP3 ADD MSTORE POP JUMP JUMPDEST PUSH0 PUSH2 0x32E8 PUSH1 0x1E DUP4 PUSH2 0x2696 JUMP JUMPDEST SWAP2 POP PUSH2 0x32F3 DUP3 PUSH2 0x32B4 JUMP JUMPDEST PUSH1 0x20 DUP3 ADD SWAP1 POP SWAP2 SWAP1 POP JUMP JUMPDEST PUSH0 PUSH1 0x20 DUP3 ADD SWAP1 POP DUP2 DUP2 SUB PUSH0 DUP4 ADD MSTORE PUSH2 0x3315 DUP2 PUSH2 0x32DC JUMP JUMPDEST SWAP1 POP SWAP2 SWAP1 POP JUMP JUMPDEST PUSH32 0x4E487B7100000000000000000000000000000000000000000000000000000000 PUSH0 MSTORE PUSH1 0x11 PUSH1 0x4 MSTORE PUSH1 0x24 PUSH0 REVERT JUMPDEST PUSH0 PUSH2 0x3353 DUP3 PUSH2 0x2587 JUMP JUMPDEST SWAP2 POP PUSH32 0xFFFFFFFFFFFFFFFFFFFFFFFFFFFFFFFFFFFFFFFFFFFFFFFFFFFFFFFFFFFFFFFF DUP3 SUB PUSH2 0x3385 JUMPI PUSH2 0x3384 PUSH2 0x331C JUMP JUMPDEST JUMPDEST PUSH1 0x1 DUP3 ADD SWAP1 POP SWAP2 SWAP1 POP JUMP JUMPDEST PUSH0 DUP2 SWAP1 POP DUP2 PUSH0 MSTORE PUSH1 0x20 PUSH0 KECCAK256 SWAP1 POP SWAP2 SWAP1 POP JUMP JUMPDEST PUSH0 PUSH1 0x20 PUSH1 0x1F DUP4 ADD DIV SWAP1 POP SWAP2 SWAP1 POP JUMP JUMPDEST PUSH0 DUP3 DUP3 SHL SWAP1 POP SWAP3 SWAP2 POP POP JUMP JUMPDEST PUSH0 PUSH1 0x8 DUP4 MUL PUSH2 0x33EC PUSH32 0xFFFFFFFFFFFFFFFFFFFFFFFFFFFFFFFFFFFFFFFFFFFFFFFFFFFFFFFFFFFFFFFF DUP3 PUSH2 0x33B1 JUMP JUMPDEST PUSH2 0x33F6 DUP7 DUP4 PUSH2 0x33B1 JUMP JUMPDEST SWAP6 POP DUP1 NOT DUP5 AND SWAP4 POP DUP1 DUP7 AND DUP5 OR SWAP3 POP POP POP SWAP4 SWAP3 POP POP POP JUMP JUMPDEST PUSH0 DUP2 SWAP1 POP SWAP2 SWAP1 POP JUMP JUMPDEST PUSH0 PUSH2 0x3431 PUSH2 0x342C PUSH2 0x3427 DUP5 PUSH2 0x2587 JUMP JUMPDEST PUSH2 0x340E JUMP JUMPDEST PUSH2 0x2587 JUMP JUMPDEST SWAP1 POP SWAP2 SWAP1 POP JUMP JUMPDEST PUSH0 DUP2 SWAP1 POP SWAP2 SWAP1 POP JUMP JUMPDEST PUSH2 0x344A DUP4 PUSH2 0x3417 JUMP JUMPDEST PUSH2 0x345E PUSH2 0x3456 DUP3 PUSH2 0x3438 JUMP JUMPDEST DUP5 DUP5 SLOAD PUSH2 0x33BD JUMP JUMPDEST DUP3 SSTORE POP POP POP POP JUMP JUMPDEST PUSH0 PUSH0 SWAP1 POP SWAP1 JUMP JUMPDEST PUSH2 0x3475 PUSH2 0x3466 JUMP JUMPDEST PUSH2 0x3480 DUP2 DUP5 DUP5 PUSH2 0x3441 JUMP JUMPDEST POP POP POP JUMP JUMPDEST JUMPDEST DUP2 DUP2 LT ISZERO PUSH2 0x34A3 JUMPI PUSH2 0x3498 PUSH0 DUP3 PUSH2 0x346D JUMP JUMPDEST PUSH1 0x1 DUP2 ADD SWAP1 POP PUSH2 0x3486 JUMP JUMPDEST POP POP JUMP JUMPDEST PUSH1 0x1F DUP3 GT ISZERO PUSH2 0x34E8 JUMPI PUSH2 0x34B9 DUP2 PUSH2 0x3390 JUMP JUMPDEST PUSH2 0x34C2 DUP5 PUSH2 0x33A2 JUMP JUMPDEST DUP2 ADD PUSH1 0x20 DUP6 LT ISZERO PUSH2 0x34D1 JUMPI DUP2 SWAP1 POP JUMPDEST PUSH2 0x34E5 PUSH2 0x34DD DUP6 PUSH2 0x33A2 JUMP JUMPDEST DUP4 ADD DUP3 PUSH2 0x3485 JUMP JUMPDEST POP POP JUMPDEST POP POP POP JUMP JUMPDEST PUSH0 DUP3 DUP3 SHR SWAP1 POP SWAP3 SWAP2 POP POP JUMP JUMPDEST PUSH0 PUSH2 0x3508 PUSH0 NOT DUP5 PUSH1 0x8 MUL PUSH2 0x34ED JUMP JUMPDEST NOT DUP1 DUP4 AND SWAP2 POP POP SWAP3 SWAP2 POP POP JUMP JUMPDEST PUSH0 PUSH2 0x3520 DUP4 DUP4 PUSH2 0x34F9 JUMP JUMPDEST SWAP2 POP DUP3 PUSH1 0x2 MUL DUP3 OR SWAP1 POP SWAP3 SWAP2 POP POP JUMP JUMPDEST PUSH2 0x3539 DUP3 PUSH2 0x268C JUMP JUMPDEST PUSH8 0xFFFFFFFFFFFFFFFF DUP2 GT ISZERO PUSH2 0x3552 JUMPI PUSH2 0x3551 PUSH2 0x2829 JUMP JUMPDEST JUMPDEST PUSH2 0x355C DUP3 SLOAD PUSH2 0x2E90 JUMP JUMPDEST PUSH2 0x3567 DUP3 DUP3 DUP6 PUSH2 0x34A7 JUMP JUMPDEST PUSH0 PUSH1 0x20 SWAP1 POP PUSH1 0x1F DUP4 GT PUSH1 0x1 DUP2 EQ PUSH2 0x3598 JUMPI PUSH0 DUP5 ISZERO PUSH2 0x3586 JUMPI DUP3 DUP8 ADD MLOAD SWAP1 POP JUMPDEST PUSH2 0x3590 DUP6 DUP3 PUSH2 0x3515 JUMP JUMPDEST DUP7 SSTORE POP PUSH2 0x35F7 JUMP JUMPDEST PUSH1 0x1F NOT DUP5 AND PUSH2 0x35A6 DUP7 PUSH2 0x3390 JUMP JUMPDEST PUSH0 JUMPDEST DUP3 DUP2 LT ISZERO PUSH2 0x35CD JUMPI DUP5 DUP10 ADD MLOAD DUP3 SSTORE PUSH1 0x1 DUP3 ADD SWAP2 POP PUSH1 0x20 DUP6 ADD SWAP5 POP PUSH1 0x20 DUP2 ADD SWAP1 POP PUSH2 0x35A8 JUMP JUMPDEST DUP7 DUP4 LT ISZERO PUSH2 0x35EA JUMPI DUP5 DUP10 ADD MLOAD PUSH2 0x35E6 PUSH1 0x1F DUP10 AND DUP3 PUSH2 0x34F9 JUMP JUMPDEST DUP4 SSTORE POP JUMPDEST PUSH1 0x1 PUSH1 0x2 DUP9 MUL ADD DUP9 SSTORE POP POP POP JUMPDEST POP POP POP POP POP POP JUMP JUMPDEST PUSH32 0x457363726F77206465706F736974206661696C65640000000000000000000000 PUSH0 DUP3 ADD MSTORE POP JUMP JUMPDEST PUSH0 PUSH2 0x3633 PUSH1 0x15 DUP4 PUSH2 0x2696 JUMP JUMPDEST SWAP2 POP PUSH2 0x363E DUP3 PUSH2 0x35FF JUMP JUMPDEST PUSH1 0x20 DUP3 ADD SWAP1 POP SWAP2 SWAP1 POP JUMP JUMPDEST PUSH0 PUSH1 0x20 DUP3 ADD SWAP1 POP DUP2 DUP2 SUB PUSH0 DUP4 ADD MSTORE PUSH2 0x3660 DUP2 PUSH2 0x3627 JUMP JUMPDEST SWAP1 POP SWAP2 SWAP1 POP JUMP JUMPDEST PUSH0 PUSH1 0x40 DUP3 ADD SWAP1 POP PUSH2 0x367A PUSH0 DUP4 ADD DUP6 PUSH2 0x267D JUMP JUMPDEST DUP2 DUP2 SUB PUSH1 0x20 DUP4 ADD MSTORE PUSH2 0x368C DUP2 DUP5 PUSH2 0x26C4 JUMP JUMPDEST SWAP1 POP SWAP4 SWAP3 POP POP POP JUMP JUMPDEST PUSH32 0x5461736B206973206E6F7420696E2042696464696E6720737461747573000000 PUSH0 DUP3 ADD MSTORE POP JUMP JUMPDEST PUSH0 PUSH2 0x36C9 PUSH1 0x1D DUP4 PUSH2 0x2696 JUMP JUMPDEST SWAP2 POP PUSH2 0x36D4 DUP3 PUSH2 0x3695 JUMP JUMPDEST PUSH1 0x20 DUP3 ADD SWAP1 POP SWAP2 SWAP1 POP JUMP JUMPDEST PUSH0 PUSH1 0x20 DUP3 ADD SWAP1 POP DUP2 DUP2 SUB PUSH0 DUP4 ADD MSTORE PUSH2 0x36F6 DUP2 PUSH2 0x36BD JUMP JUMPDEST SWAP1 POP SWAP2 SWAP1 POP JUMP JUMPDEST PUSH32 0x57696E6E6572206D7573742062652061207061727469636970616E7400000000 PUSH0 DUP3 ADD MSTORE POP JUMP JUMPDEST PUSH0 PUSH2 0x3731 PUSH1 0x1C DUP4 PUSH2 0x2696 JUMP JUMPDEST SWAP2 POP PUSH2 0x373C DUP3 PUSH2 0x36FD JUMP JUMPDEST PUSH1 0x20 DUP3 ADD SWAP1 POP SWAP2 SWAP1 POP JUMP JUMPDEST PUSH0 PUSH1 0x20 DUP3 ADD SWAP1 POP DUP2 DUP2 SUB PUSH0 DUP4 ADD MSTORE PUSH2 0x375E DUP2 PUSH2 0x3725 JUMP JUMPDEST SWAP1 POP SWAP2 SWAP1 POP JUMP JUMPDEST PUSH32 0x4F6E6C792077696E6E65722063616E20636F6D706C6574652074686520746173 PUSH0 DUP3 ADD MSTORE PUSH32 0x6B00000000000000000000000000000000000000000000000000000000000000 PUSH1 0x20 DUP3 ADD MSTORE POP JUMP JUMPDEST PUSH0 PUSH2 0x37BF PUSH1 0x21 DUP4 PUSH2 0x2696 JUMP JUMPDEST SWAP2 POP PUSH2 0x37CA DUP3 PUSH2 0x3765 JUMP JUMPDEST PUSH1 0x40 DUP3 ADD SWAP1 POP SWAP2 SWAP1 POP JUMP JUMPDEST PUSH0 PUSH1 0x20 DUP3 ADD SWAP1 POP DUP2 DUP2 SUB PUSH0 DUP4 ADD MSTORE PUSH2 0x37EC DUP2 PUSH2 0x37B3 JUMP JUMPDEST SWAP1 POP SWAP2 SWAP1 POP JUMP JUMPDEST PUSH32 0x5461736B20616C72656164792068617320612077696E6E657200000000000000 PUSH0 DUP3 ADD MSTORE POP JUMP JUMPDEST PUSH0 PUSH2 0x3827 PUSH1 0x19 DUP4 PUSH2 0x2696 JUMP JUMPDEST SWAP2 POP PUSH2 0x3832 DUP3 PUSH2 0x37F3 JUMP JUMPDEST PUSH1 0x20 DUP3 ADD SWAP1 POP SWAP2 SWAP1 POP JUMP JUMPDEST PUSH0 PUSH1 0x20 DUP3 ADD SWAP1 POP DUP2 DUP2 SUB PUSH0 DUP4 ADD MSTORE PUSH2 0x3854 DUP2 PUSH2 0x381B JUMP JUMPDEST SWAP1 POP SWAP2 SWAP1 POP JUMP JUMPDEST PUSH32 0x5461736B206E6F74206578706972656400000000000000000000000000000000 PUSH0 DUP3 ADD MSTORE POP JUMP JUMPDEST PUSH0 PUSH2 0x388F PUSH1 0x10 DUP4 PUSH2 0x2696 JUMP JUMPDEST SWAP2 POP PUSH2 0x389A DUP3 PUSH2 0x385B JUMP JUMPDEST PUSH1 0x20 DUP3 ADD SWAP1 POP SWAP2 SWAP1 POP JUMP JUMPDEST PUSH0 PUSH1 0x20 DUP3 ADD SWAP1 POP DUP2 DUP2 SUB PUSH0 DUP4 ADD MSTORE PUSH2 0x38BC DUP2 PUSH2 0x3883 JUMP JUMPDEST SWAP1 POP SWAP2 SWAP1 POP JUMP INVALID LOG2 PUSH5 0x6970667358 0x22 SLT KECCAK256 PUSH19 0xEE131E98E489DF17FECF631F7C56E112EC5F6 DUP2 NOT MCOPY EXTDELEGATECALL DUP14 0xC 0xC4 PUSH31 0x13FAB89264736F6C634300081E003300000000000000000000000000000000 "
				},
				"gasEstimates": {
					"creation": {
						"codeDepositCost": "2917000",
						"executionCost": "infinite",
						"totalCost": "infinite"
					},
					"external": {
						"_value()": "2514",
						"biddingSystem()": "2553",
						"cancelTask(uint256)": "infinite",
						"completeTask(uint256)": "infinite",
						"createTask(string,string,uint256,uint256)": "infinite",
						"disputeDAO()": "2596",
						"disputeTask(uint256)": "infinite",
						"escrow()": "2552",
						"participateInTask(uint256)": "infinite",
						"removeExpiredTask(uint256)": "infinite",
						"resolveDispute(uint256,address)": "infinite",
						"selectWinner(uint256,address)": "infinite",
						"startBidding(uint256)": "infinite",
						"taskCount()": "2492",
						"tasks(uint256)": "infinite"
					}
				},
				"methodIdentifiers": {
					"_value()": "b895c74a",
					"biddingSystem()": "90ca80df",
					"cancelTask(uint256)": "7eec20a8",
					"completeTask(uint256)": "e1e29558",
					"createTask(string,string,uint256,uint256)": "a4a268aa",
					"disputeDAO()": "f1c2d0d9",
					"disputeTask(uint256)": "97d9c23e",
					"escrow()": "e2fdcc17",
					"participateInTask(uint256)": "29e5fb09",
					"removeExpiredTask(uint256)": "e5033376",
					"resolveDispute(uint256,address)": "0e33599d",
					"selectWinner(uint256,address)": "ab4de606",
					"startBidding(uint256)": "a09e9c1d",
					"taskCount()": "b6cb58a5",
					"tasks(uint256)": "8d977672"
				}
			},
			"storageLayout": {
				"storage": [
					{
						"astId": 33,
						"contract": "TaskFactory.sol:TaskFactory",
						"label": "tasks",
						"offset": 0,
						"slot": "0",
						"type": "t_mapping(t_uint256,t_struct(Task)28_storage)"
					},
					{
						"astId": 35,
						"contract": "TaskFactory.sol:TaskFactory",
						"label": "taskCount",
						"offset": 0,
						"slot": "1",
						"type": "t_uint256"
					},
					{
						"astId": 37,
						"contract": "TaskFactory.sol:TaskFactory",
						"label": "_value",
						"offset": 0,
						"slot": "2",
						"type": "t_uint256"
					},
					{
						"astId": 39,
						"contract": "TaskFactory.sol:TaskFactory",
						"label": "biddingSystem",
						"offset": 0,
						"slot": "3",
						"type": "t_address"
					},
					{
						"astId": 41,
						"contract": "TaskFactory.sol:TaskFactory",
						"label": "escrow",
						"offset": 0,
						"slot": "4",
						"type": "t_address"
					},
					{
						"astId": 43,
						"contract": "TaskFactory.sol:TaskFactory",
						"label": "disputeDAO",
						"offset": 0,
						"slot": "5",
						"type": "t_address"
					}
				],
				"types": {
					"t_address": {
						"encoding": "inplace",
						"label": "address",
						"numberOfBytes": "20"
					},
					"t_array(t_address)dyn_storage": {
						"base": "t_address",
						"encoding": "dynamic_array",
						"label": "address[]",
						"numberOfBytes": "32"
					},
					"t_enum(TaskStatus)7": {
						"encoding": "inplace",
						"label": "enum TaskFactory.TaskStatus",
						"numberOfBytes": "1"
					},
					"t_mapping(t_uint256,t_struct(Task)28_storage)": {
						"encoding": "mapping",
						"key": "t_uint256",
						"label": "mapping(uint256 => struct TaskFactory.Task)",
						"numberOfBytes": "32",
						"value": "t_struct(Task)28_storage"
					},
					"t_string_storage": {
						"encoding": "bytes",
						"label": "string",
						"numberOfBytes": "32"
					},
					"t_struct(Task)28_storage": {
						"encoding": "inplace",
						"label": "struct TaskFactory.Task",
						"members": [
							{
								"astId": 9,
								"contract": "TaskFactory.sol:TaskFactory",
								"label": "id",
								"offset": 0,
								"slot": "0",
								"type": "t_uint256"
							},
							{
								"astId": 11,
								"contract": "TaskFactory.sol:TaskFactory",
								"label": "title",
								"offset": 0,
								"slot": "1",
								"type": "t_string_storage"
							},
							{
								"astId": 13,
								"contract": "TaskFactory.sol:TaskFactory",
								"label": "ipfsHash",
								"offset": 0,
								"slot": "2",
								"type": "t_string_storage"
							},
							{
								"astId": 15,
								"contract": "TaskFactory.sol:TaskFactory",
								"label": "creator",
								"offset": 0,
								"slot": "3",
								"type": "t_address"
							},
							{
								"astId": 17,
								"contract": "TaskFactory.sol:TaskFactory",
								"label": "reward",
								"offset": 0,
								"slot": "4",
								"type": "t_uint256"
							},
							{
								"astId": 20,
								"contract": "TaskFactory.sol:TaskFactory",
								"label": "status",
								"offset": 0,
								"slot": "5",
								"type": "t_enum(TaskStatus)7"
							},
							{
								"astId": 22,
								"contract": "TaskFactory.sol:TaskFactory",
								"label": "winner",
								"offset": 1,
								"slot": "5",
								"type": "t_address"
							},
							{
								"astId": 24,
								"contract": "TaskFactory.sol:TaskFactory",
								"label": "deadline",
								"offset": 0,
								"slot": "6",
								"type": "t_uint256"
							},
							{
								"astId": 27,
								"contract": "TaskFactory.sol:TaskFactory",
								"label": "participants",
								"offset": 0,
								"slot": "7",
								"type": "t_array(t_address)dyn_storage"
							}
						],
						"numberOfBytes": "256"
					},
					"t_uint256": {
						"encoding": "inplace",
						"label": "uint256",
						"numberOfBytes": "32"
					}
				}
			},
			"userdoc": {
				"kind": "user",
				"methods": {},
				"version": 1
			}
		}
	}
}