{
	"data": {
		"bytecode": {
			"linkReferences": {},
			"object": "608060405267016345785d8a000060025560038080556004805460ff60a01b19169055600555348015602f575f5ffd5b50604051611681380380611681833981016040819052604c916087565b600480546001600160a01b0319166001600160a01b038316908117909155156082576004805460ff60a01b1916600160a01b1790555b5060b2565b5f602082840312156096575f5ffd5b81516001600160a01b038116811460ab575f5ffd5b9392505050565b6115c2806100bf5f395ff3fe60806040526004361061011b575f3560e01c80635bb478081161009d578063d23254b411610062578063d23254b414610336578063d369506c14610375578063dca5f6b01461038a578063e21875e21461040a578063eff2c3ec1461042a575f5ffd5b80635bb478081461028f5780636058e685146102ae5780638e230e6f146102c2578063afa9c5b0146102e1578063c9bc0c1114610317575f5ffd5b806343859632116100e357806343859632146101bb57806347e2a6e6146102045780634b54a379146102305780634dc35f7a1461024f5780634fc8a20d14610264575f5ffd5b806302d947ef1461011f5780632249c562146101405780632def66201461017c578063375b3c0a146101905780633a4b66f1146101b3575b5f5ffd5b34801561012a575f5ffd5b5061013e610139366004611407565b61048f565b005b34801561014b575f5ffd5b5061015f61015a366004611431565b61088d565b6040516001600160a01b0390911681526020015b60405180910390f35b348015610187575f5ffd5b5061013e6108c1565b34801561019b575f5ffd5b506101a560025481565b604051908152602001610173565b61013e61098e565b3480156101c6575f5ffd5b506101f46101d5366004611407565b600760209081525f928352604080842090915290825290205460ff1681565b6040519015158152602001610173565b34801561020f575f5ffd5b5061022361021e366004611451565b610b07565b6040516101739190611468565b34801561023b575f5ffd5b5061013e61024a366004611451565b610b70565b34801561025a575f5ffd5b506101a560055481565b34801561026f575f5ffd5b506101a561027e366004611451565b60096020525f908152604090205481565b34801561029a575f5ffd5b5061013e6102a93660046114b3565b611117565b3480156102b9575f5ffd5b506102236111d6565b3480156102cd575f5ffd5b5061015f6102dc366004611451565b61134d565b3480156102ec575f5ffd5b506101a56102fb366004611407565b600a60209081525f928352604080842090915290825290205481565b348015610322575f5ffd5b5060045461015f906001600160a01b031681565b348015610341575f5ffd5b5061015f610350366004611407565b600860209081525f92835260408084209091529082529020546001600160a01b031681565b348015610380575f5ffd5b506101a560035481565b348015610395575f5ffd5b506103da6103a43660046114b3565b5f6020819052908152604090208054600182015460028301546003909301546001600160a01b0390921692909160ff9091169084565b604080516001600160a01b0390951685526020850193909352901515918301919091526060820152608001610173565b348015610415575f5ffd5b506004546101f490600160a01b900460ff1681565b348015610435575f5ffd5b506104746104443660046114b3565b6001600160a01b03165f90815260208190526040902060018101546002820154600390920154909260ff90921691565b60408051938452911515602084015290820152606001610173565b335f9081526020819052604090206002015460ff166104e35760405162461bcd60e51b815260206004820152600b60248201526a2737ba103090353ab937b960a91b60448201526064015b60405180910390fd5b5f805b5f84815260066020526040902054811015610547575f84815260066020526040902080543391908390811061051d5761051d6114d3565b5f918252602090912001546001600160a01b03160361053f5760019150610547565b6001016104e6565b508061058a5760405162461bcd60e51b81526020600482015260126024820152712737ba1039b2b632b1ba32b210353ab937b960711b60448201526064016104da565b5f83815260076020908152604080832033845290915290205460ff16156105e35760405162461bcd60e51b815260206004820152600d60248201526c105b1c9958591e481d9bdd1959609a1b60448201526064016104da565b5f83815260076020908152604080832033808552908352818420805460ff1916600117905586845260088352818420908452825280832080546001600160a01b0387166001600160a01b03199091168117909155868452600a83528184209084529091528120805491610655836114fb565b90915550505f838152600960205260408120805491610673836114fb565b90915550506040516001600160a01b0383168152339084907ff6c8f1f54b2f54fb963820203fdef5b9aefb56ae2c4dd8b6133e151791a07f369060200160405180910390a36003545f848152600960205260409020540361088857815f805b5f8681526006602052604090205481101561076c575f86815260086020908152604080832060069092528220805483919085908110610713576107136114d3565b5f9182526020808320909101546001600160a01b0390811684528382019490945260409283018220548b8352600a82528383209416808352939052205490915083811115610762578093508194505b50506001016106d2565b50600454604051602481018790526001600160a01b0384811660448301525f92169060640160408051601f198184030181529181526020820180516001600160e01b0316630e33599d60e01b179052516107c69190611513565b5f604051808303815f865af19150503d805f81146107ff576040519150601f19603f3d011682016040523d82523d5f602084013e610804565b606091505b50509050806108465760405162461bcd60e51b815260206004820152600e60248201526d14995cdbdb1d994819985a5b195960921b60448201526064016104da565b6040516001600160a01b038416815286907ff77ceb5e091d2da041bc760667f9d5fe7a756949eaf29250ad0e60ca6f4c27d99060200160405180910390a25050505b505050565b6006602052815f5260405f2081815481106108a6575f80fd5b5f918252602090912001546001600160a01b03169150829050565b335f908152602081905260409020600281015460ff166109115760405162461bcd60e51b815260206004820152600b60248201526a2737ba103090353ab937b960a91b60448201526064016104da565b60018101805460028301805460ff191690555f918290556040519091339183156108fc0291849190818181858888f19350505050158015610954573d5f5f3e3d5ffd5b5060405181815233907f610a1d949cc1ca7d4391b2530deda84f33b5f02dbd462643f21cd8a1b3cd573f9060200160405180910390a25050565b6002543410156109d55760405162461bcd60e51b8152602060048201526012602482015271496e73756666696369656e74207374616b6560701b60448201526064016104da565b335f9081526020819052604090206002015460ff1615610a275760405162461bcd60e51b815260206004820152600d60248201526c20b63932b0b23c90353ab937b960991b60448201526064016104da565b604080516080810182523380825234602080840182815260018587018181525f60608801818152878252818652898220985189546001600160a01b039091166001600160a01b0319918216178a55945189850155915160028901805491151560ff1990921691909117905590516003909701969096558054808201825595527fb10e2d527612073b26eecdfd717e6a320cf44b4afac2b0732d9fcbe2b7fa0cf6909401805490941683179093559251928352917fc9626d754b3720da351a26831dc4d1481cb9f2dd7ec9ba5356f710bcf4354b59910160405180910390a2565b5f81815260066020908152604091829020805483518184028101840190945280845260609392830182828015610b6457602002820191905f5260205f20905b81546001600160a01b03168152600190910190602001808311610b46575b50505050509050919050565b6004546001600160a01b03163314610bbd5760405162461bcd60e51b815260206004820152601060248201526f4f6e6c79205461736b466163746f727960801b60448201526064016104da565b5f8181526006602052604090205415610c185760405162461bcd60e51b815260206004820152601760248201527f4469737075746520616c7265616479207374617274656400000000000000000060448201526064016104da565b6003546001541015610c605760405162461bcd60e51b81526020600482015260116024820152704e6f7420656e6f756768206a75726f727360781b60448201526064016104da565b6001545f9067ffffffffffffffff811115610c7d57610c7d611529565b604051908082528060200260200182016040528015610ca6578160200160208202803683370190505b5090505f805b600154811015610d75575f60018281548110610cca57610cca6114d3565b5f9182526020808320909101546001600160a01b03168083529082905260409091206002015490915060ff168015610d2857506005546001600160a01b0382165f90815260208190526040902060030154610d25919061153d565b85115b15610d6c57808484610d39816114fb565b955081518110610d4b57610d4b6114d3565b60200260200101906001600160a01b031690816001600160a01b0316815250505b50600101610cac565b505f60035467ffffffffffffffff811115610d9257610d92611529565b604051908082528060200260200182016040528015610dbb578160200160208202803683370190505b506040805142602080830191909152818301889052825180830384018152606090920190925280519101209091505f90815b60035483108015610e075750610e04856002611556565b81105b15610f0b575f86868484604051602001610e2b929190918252602082015260400190565b604051602081830303815290604052805190602001205f1c610e4d919061156d565b81518110610e5d57610e5d6114d3565b602090810291909101015190505f805b85811015610eb857826001600160a01b0316878281518110610e9157610e916114d3565b60200260200101516001600160a01b031603610eb05760019150610eb8565b600101610e6d565b5080610ef75781868681518110610ed157610ed16114d3565b6001600160a01b039092166020928302919091019091015284610ef3816114fb565b9550505b82610f01816114fb565b9350505050610ded565b600354831015611017575f5b60015481108015610f29575060035484105b15611015575f60018281548110610f4257610f426114d3565b5f9182526020808320909101546001600160a01b03168083529082905260409091206002015490915060ff1615611002575f805b86811015610fc157826001600160a01b0316888281518110610f9a57610f9a6114d3565b60200260200101516001600160a01b031603610fb95760019150610fc1565b600101610f76565b50806110005781878781518110610fda57610fda6114d3565b6001600160a01b039092166020928302919091019091015285610ffc816114fb565b9650505b505b508061100d816114fb565b915050610f17565b505b60035483146110685760405162461bcd60e51b815260206004820152601860248201527f4e6f7420656e6f75676820756e69717565206a75726f7273000000000000000060448201526064016104da565b5f878152600660209081526040909120855161108692870190611375565b505f5b84518110156110d557875f5f8784815181106110a7576110a76114d3565b6020908102919091018101516001600160a01b031682528101919091526040015f2060030155600101611089565b50867f5623bb8130ac6988ab91c966d08c23b84de074a147bb0a3677a9e322b0a5145b856040516111069190611468565b60405180910390a250505050505050565b600454600160a01b900460ff16156111675760405162461bcd60e51b8152602060048201526013602482015272119858dd1bdc9e48185b1c9958591e481cd95d606a1b60448201526064016104da565b6001600160a01b0381166111af5760405162461bcd60e51b815260206004820152600f60248201526e496e76616c6964206164647265737360881b60448201526064016104da565b600480546001600160a81b0319166001600160a01b0390921691909117600160a01b179055565b60605f805b60015481101561123f575f5f600183815481106111fa576111fa6114d3565b5f9182526020808320909101546001600160a01b0316835282019290925260400190206002015460ff16156112375781611233816114fb565b9250505b6001016111db565b505f8167ffffffffffffffff81111561125a5761125a611529565b604051908082528060200260200182016040528015611283578160200160208202803683370190505b5090505f805b600154811015611344575f5f600183815481106112a8576112a86114d3565b5f9182526020808320909101546001600160a01b0316835282019290925260400190206002015460ff161561133c57600181815481106112ea576112ea6114d3565b5f918252602090912001546001600160a01b03168383611309816114fb565b94508151811061131b5761131b6114d3565b60200260200101906001600160a01b031690816001600160a01b0316815250505b600101611289565b50909392505050565b6001818154811061135c575f80fd5b5f918252602090912001546001600160a01b0316905081565b828054828255905f5260205f209081019282156113c8579160200282015b828111156113c857825182546001600160a01b0319166001600160a01b03909116178255602090920191600190910190611393565b506113d49291506113d8565b5090565b5b808211156113d4575f81556001016113d9565b80356001600160a01b0381168114611402575f5ffd5b919050565b5f5f60408385031215611418575f5ffd5b82359150611428602084016113ec565b90509250929050565b5f5f60408385031215611442575f5ffd5b50508035926020909101359150565b5f60208284031215611461575f5ffd5b5035919050565b602080825282518282018190525f918401906040840190835b818110156114a85783516001600160a01b0316835260209384019390920191600101611481565b509095945050505050565b5f602082840312156114c3575f5ffd5b6114cc826113ec565b9392505050565b634e487b7160e01b5f52603260045260245ffd5b634e487b7160e01b5f52601160045260245ffd5b5f6001820161150c5761150c6114e7565b5060010190565b5f82518060208501845e5f920191825250919050565b634e487b7160e01b5f52604160045260245ffd5b80820180821115611550576115506114e7565b92915050565b8082028115828204841417611550576115506114e7565b5f8261158757634e487b7160e01b5f52601260045260245ffd5b50069056fea2646970667358221220f65d3a8d1302ba39acd49af2d49176732df98196e0efc6bf86fe3d425d7c38e264736f6c634300081e0033",
			"opcodes": "PUSH1 0x80 PUSH1 0x40 MSTORE PUSH8 0x16345785D8A0000 PUSH1 0x2 SSTORE PUSH1 0x3 DUP1 DUP1 SSTORE PUSH1 0x4 DUP1 SLOAD PUSH1 0xFF PUSH1 0xA0 SHL NOT AND SWAP1 SSTORE PUSH1 0x5 SSTORE CALLVALUE DUP1 ISZERO PUSH1 0x2F JUMPI PUSH0 PUSH0 REVERT JUMPDEST POP PUSH1 0x40 MLOAD PUSH2 0x1681 CODESIZE SUB DUP1 PUSH2 0x1681 DUP4 CODECOPY DUP2 ADD PUSH1 0x40 DUP2 SWAP1 MSTORE PUSH1 0x4C SWAP2 PUSH1 0x87 JUMP JUMPDEST PUSH1 0x4 DUP1 SLOAD PUSH1 0x1 PUSH1 0x1 PUSH1 0xA0 SHL SUB NOT AND PUSH1 0x1 PUSH1 0x1 PUSH1 0xA0 SHL SUB DUP4 AND SWAP1 DUP2 OR SWAP1 SWAP2 SSTORE ISZERO PUSH1 0x82 JUMPI PUSH1 0x4 DUP1 SLOAD PUSH1 0xFF PUSH1 0xA0 SHL NOT AND PUSH1 0x1 PUSH1 0xA0 SHL OR SWAP1 SSTORE JUMPDEST POP PUSH1 0xB2 JUMP JUMPDEST PUSH0 PUSH1 0x20 DUP3 DUP5 SUB SLT ISZERO PUSH1 0x96 JUMPI PUSH0 PUSH0 REVERT JUMPDEST DUP2 MLOAD PUSH1 0x1 PUSH1 0x1 PUSH1 0xA0 SHL SUB DUP2 AND DUP2 EQ PUSH1 0xAB JUMPI PUSH0 PUSH0 REVERT JUMPDEST SWAP4 SWAP3 POP POP POP JUMP JUMPDEST PUSH2 0x15C2 DUP1 PUSH2 0xBF PUSH0 CODECOPY PUSH0 RETURN INVALID PUSH1 0x80 PUSH1 0x40 MSTORE PUSH1 0x4 CALLDATASIZE LT PUSH2 0x11B JUMPI PUSH0 CALLDATALOAD PUSH1 0xE0 SHR DUP1 PUSH4 0x5BB47808 GT PUSH2 0x9D JUMPI DUP1 PUSH4 0xD23254B4 GT PUSH2 0x62 JUMPI DUP1 PUSH4 0xD23254B4 EQ PUSH2 0x336 JUMPI DUP1 PUSH4 0xD369506C EQ PUSH2 0x375 JUMPI DUP1 PUSH4 0xDCA5F6B0 EQ PUSH2 0x38A JUMPI DUP1 PUSH4 0xE21875E2 EQ PUSH2 0x40A JUMPI DUP1 PUSH4 0xEFF2C3EC EQ PUSH2 0x42A JUMPI PUSH0 PUSH0 REVERT JUMPDEST DUP1 PUSH4 0x5BB47808 EQ PUSH2 0x28F JUMPI DUP1 PUSH4 0x6058E685 EQ PUSH2 0x2AE JUMPI DUP1 PUSH4 0x8E230E6F EQ PUSH2 0x2C2 JUMPI DUP1 PUSH4 0xAFA9C5B0 EQ PUSH2 0x2E1 JUMPI DUP1 PUSH4 0xC9BC0C11 EQ PUSH2 0x317 JUMPI PUSH0 PUSH0 REVERT JUMPDEST DUP1 PUSH4 0x43859632 GT PUSH2 0xE3 JUMPI DUP1 PUSH4 0x43859632 EQ PUSH2 0x1BB JUMPI DUP1 PUSH4 0x47E2A6E6 EQ PUSH2 0x204 JUMPI DUP1 PUSH4 0x4B54A379 EQ PUSH2 0x230 JUMPI DUP1 PUSH4 0x4DC35F7A EQ PUSH2 0x24F JUMPI DUP1 PUSH4 0x4FC8A20D EQ PUSH2 0x264 JUMPI PUSH0 PUSH0 REVERT JUMPDEST DUP1 PUSH4 0x2D947EF EQ PUSH2 0x11F JUMPI DUP1 PUSH4 0x2249C562 EQ PUSH2 0x140 JUMPI DUP1 PUSH4 0x2DEF6620 EQ PUSH2 0x17C JUMPI DUP1 PUSH4 0x375B3C0A EQ PUSH2 0x190 JUMPI DUP1 PUSH4 0x3A4B66F1 EQ PUSH2 0x1B3 JUMPI JUMPDEST PUSH0 PUSH0 REVERT JUMPDEST CALLVALUE DUP1 ISZERO PUSH2 0x12A JUMPI PUSH0 PUSH0 REVERT JUMPDEST POP PUSH2 0x13E PUSH2 0x139 CALLDATASIZE PUSH1 0x4 PUSH2 0x1407 JUMP JUMPDEST PUSH2 0x48F JUMP JUMPDEST STOP JUMPDEST CALLVALUE DUP1 ISZERO PUSH2 0x14B JUMPI PUSH0 PUSH0 REVERT JUMPDEST POP PUSH2 0x15F PUSH2 0x15A CALLDATASIZE PUSH1 0x4 PUSH2 0x1431 JUMP JUMPDEST PUSH2 0x88D JUMP JUMPDEST PUSH1 0x40 MLOAD PUSH1 0x1 PUSH1 0x1 PUSH1 0xA0 SHL SUB SWAP1 SWAP2 AND DUP2 MSTORE PUSH1 0x20 ADD JUMPDEST PUSH1 0x40 MLOAD DUP1 SWAP2 SUB SWAP1 RETURN JUMPDEST CALLVALUE DUP1 ISZERO PUSH2 0x187 JUMPI PUSH0 PUSH0 REVERT JUMPDEST POP PUSH2 0x13E PUSH2 0x8C1 JUMP JUMPDEST CALLVALUE DUP1 ISZERO PUSH2 0x19B JUMPI PUSH0 PUSH0 REVERT JUMPDEST POP PUSH2 0x1A5 PUSH1 0x2 SLOAD DUP2 JUMP JUMPDEST PUSH1 0x40 MLOAD SWAP1 DUP2 MSTORE PUSH1 0x20 ADD PUSH2 0x173 JUMP JUMPDEST PUSH2 0x13E PUSH2 0x98E JUMP JUMPDEST CALLVALUE DUP1 ISZERO PUSH2 0x1C6 JUMPI PUSH0 PUSH0 REVERT JUMPDEST POP PUSH2 0x1F4 PUSH2 0x1D5 CALLDATASIZE PUSH1 0x4 PUSH2 0x1407 JUMP JUMPDEST PUSH1 0x7 PUSH1 0x20 SWAP1 DUP2 MSTORE PUSH0 SWAP3 DUP4 MSTORE PUSH1 0x40 DUP1 DUP5 KECCAK256 SWAP1 SWAP2 MSTORE SWAP1 DUP3 MSTORE SWAP1 KECCAK256 SLOAD PUSH1 0xFF AND DUP2 JUMP JUMPDEST PUSH1 0x40 MLOAD SWAP1 ISZERO ISZERO DUP2 MSTORE PUSH1 0x20 ADD PUSH2 0x173 JUMP JUMPDEST CALLVALUE DUP1 ISZERO PUSH2 0x20F JUMPI PUSH0 PUSH0 REVERT JUMPDEST POP PUSH2 0x223 PUSH2 0x21E CALLDATASIZE PUSH1 0x4 PUSH2 0x1451 JUMP JUMPDEST PUSH2 0xB07 JUMP JUMPDEST PUSH1 0x40 MLOAD PUSH2 0x173 SWAP2 SWAP1 PUSH2 0x1468 JUMP JUMPDEST CALLVALUE DUP1 ISZERO PUSH2 0x23B JUMPI PUSH0 PUSH0 REVERT JUMPDEST POP PUSH2 0x13E PUSH2 0x24A CALLDATASIZE PUSH1 0x4 PUSH2 0x1451 JUMP JUMPDEST PUSH2 0xB70 JUMP JUMPDEST CALLVALUE DUP1 ISZERO PUSH2 0x25A JUMPI PUSH0 PUSH0 REVERT JUMPDEST POP PUSH2 0x1A5 PUSH1 0x5 SLOAD DUP2 JUMP JUMPDEST CALLVALUE DUP1 ISZERO PUSH2 0x26F JUMPI PUSH0 PUSH0 REVERT JUMPDEST POP PUSH2 0x1A5 PUSH2 0x27E CALLDATASIZE PUSH1 0x4 PUSH2 0x1451 JUMP JUMPDEST PUSH1 0x9 PUSH1 0x20 MSTORE PUSH0 SWAP1 DUP2 MSTORE PUSH1 0x40 SWAP1 KECCAK256 SLOAD DUP2 JUMP JUMPDEST CALLVALUE DUP1 ISZERO PUSH2 0x29A JUMPI PUSH0 PUSH0 REVERT JUMPDEST POP PUSH2 0x13E PUSH2 0x2A9 CALLDATASIZE PUSH1 0x4 PUSH2 0x14B3 JUMP JUMPDEST PUSH2 0x1117 JUMP JUMPDEST CALLVALUE DUP1 ISZERO PUSH2 0x2B9 JUMPI PUSH0 PUSH0 REVERT JUMPDEST POP PUSH2 0x223 PUSH2 0x11D6 JUMP JUMPDEST CALLVALUE DUP1 ISZERO PUSH2 0x2CD JUMPI PUSH0 PUSH0 REVERT JUMPDEST POP PUSH2 0x15F PUSH2 0x2DC CALLDATASIZE PUSH1 0x4 PUSH2 0x1451 JUMP JUMPDEST PUSH2 0x134D JUMP JUMPDEST CALLVALUE DUP1 ISZERO PUSH2 0x2EC JUMPI PUSH0 PUSH0 REVERT JUMPDEST POP PUSH2 0x1A5 PUSH2 0x2FB CALLDATASIZE PUSH1 0x4 PUSH2 0x1407 JUMP JUMPDEST PUSH1 0xA PUSH1 0x20 SWAP1 DUP2 MSTORE PUSH0 SWAP3 DUP4 MSTORE PUSH1 0x40 DUP1 DUP5 KECCAK256 SWAP1 SWAP2 MSTORE SWAP1 DUP3 MSTORE SWAP1 KECCAK256 SLOAD DUP2 JUMP JUMPDEST CALLVALUE DUP1 ISZERO PUSH2 0x322 JUMPI PUSH0 PUSH0 REVERT JUMPDEST POP PUSH1 0x4 SLOAD PUSH2 0x15F SWAP1 PUSH1 0x1 PUSH1 0x1 PUSH1 0xA0 SHL SUB AND DUP2 JUMP JUMPDEST CALLVALUE DUP1 ISZERO PUSH2 0x341 JUMPI PUSH0 PUSH0 REVERT JUMPDEST POP PUSH2 0x15F PUSH2 0x350 CALLDATASIZE PUSH1 0x4 PUSH2 0x1407 JUMP JUMPDEST PUSH1 0x8 PUSH1 0x20 SWAP1 DUP2 MSTORE PUSH0 SWAP3 DUP4 MSTORE PUSH1 0x40 DUP1 DUP5 KECCAK256 SWAP1 SWAP2 MSTORE SWAP1 DUP3 MSTORE SWAP1 KECCAK256 SLOAD PUSH1 0x1 PUSH1 0x1 PUSH1 0xA0 SHL SUB AND DUP2 JUMP JUMPDEST CALLVALUE DUP1 ISZERO PUSH2 0x380 JUMPI PUSH0 PUSH0 REVERT JUMPDEST POP PUSH2 0x1A5 PUSH1 0x3 SLOAD DUP2 JUMP JUMPDEST CALLVALUE DUP1 ISZERO PUSH2 0x395 JUMPI PUSH0 PUSH0 REVERT JUMPDEST POP PUSH2 0x3DA PUSH2 0x3A4 CALLDATASIZE PUSH1 0x4 PUSH2 0x14B3 JUMP JUMPDEST PUSH0 PUSH1 0x20 DUP2 SWAP1 MSTORE SWAP1 DUP2 MSTORE PUSH1 0x40 SWAP1 KECCAK256 DUP1 SLOAD PUSH1 0x1 DUP3 ADD SLOAD PUSH1 0x2 DUP4 ADD SLOAD PUSH1 0x3 SWAP1 SWAP4 ADD SLOAD PUSH1 0x1 PUSH1 0x1 PUSH1 0xA0 SHL SUB SWAP1 SWAP3 AND SWAP3 SWAP1 SWAP2 PUSH1 0xFF SWAP1 SWAP2 AND SWAP1 DUP5 JUMP JUMPDEST PUSH1 0x40 DUP1 MLOAD PUSH1 0x1 PUSH1 0x1 PUSH1 0xA0 SHL SUB SWAP1 SWAP6 AND DUP6 MSTORE PUSH1 0x20 DUP6 ADD SWAP4 SWAP1 SWAP4 MSTORE SWAP1 ISZERO ISZERO SWAP2 DUP4 ADD SWAP2 SWAP1 SWAP2 MSTORE PUSH1 0x60 DUP3 ADD MSTORE PUSH1 0x80 ADD PUSH2 0x173 JUMP JUMPDEST CALLVALUE DUP1 ISZERO PUSH2 0x415 JUMPI PUSH0 PUSH0 REVERT JUMPDEST POP PUSH1 0x4 SLOAD PUSH2 0x1F4 SWAP1 PUSH1 0x1 PUSH1 0xA0 SHL SWAP1 DIV PUSH1 0xFF AND DUP2 JUMP JUMPDEST CALLVALUE DUP1 ISZERO PUSH2 0x435 JUMPI PUSH0 PUSH0 REVERT JUMPDEST POP PUSH2 0x474 PUSH2 0x444 CALLDATASIZE PUSH1 0x4 PUSH2 0x14B3 JUMP JUMPDEST PUSH1 0x1 PUSH1 0x1 PUSH1 0xA0 SHL SUB AND PUSH0 SWAP1 DUP2 MSTORE PUSH1 0x20 DUP2 SWAP1 MSTORE PUSH1 0x40 SWAP1 KECCAK256 PUSH1 0x1 DUP2 ADD SLOAD PUSH1 0x2 DUP3 ADD SLOAD PUSH1 0x3 SWAP1 SWAP3 ADD SLOAD SWAP1 SWAP3 PUSH1 0xFF SWAP1 SWAP3 AND SWAP2 JUMP JUMPDEST PUSH1 0x40 DUP1 MLOAD SWAP4 DUP5 MSTORE SWAP2 ISZERO ISZERO PUSH1 0x20 DUP5 ADD MSTORE SWAP1 DUP3 ADD MSTORE PUSH1 0x60 ADD PUSH2 0x173 JUMP JUMPDEST CALLER PUSH0 SWAP1 DUP2 MSTORE PUSH1 0x20 DUP2 SWAP1 MSTORE PUSH1 0x40 SWAP1 KECCAK256 PUSH1 0x2 ADD SLOAD PUSH1 0xFF AND PUSH2 0x4E3 JUMPI PUSH1 0x40 MLOAD PUSH3 0x461BCD PUSH1 0xE5 SHL DUP2 MSTORE PUSH1 0x20 PUSH1 0x4 DUP3 ADD MSTORE PUSH1 0xB PUSH1 0x24 DUP3 ADD MSTORE PUSH11 0x2737BA103090353AB937B9 PUSH1 0xA9 SHL PUSH1 0x44 DUP3 ADD MSTORE PUSH1 0x64 ADD JUMPDEST PUSH1 0x40 MLOAD DUP1 SWAP2 SUB SWAP1 REVERT JUMPDEST PUSH0 DUP1 JUMPDEST PUSH0 DUP5 DUP2 MSTORE PUSH1 0x6 PUSH1 0x20 MSTORE PUSH1 0x40 SWAP1 KECCAK256 SLOAD DUP2 LT ISZERO PUSH2 0x547 JUMPI PUSH0 DUP5 DUP2 MSTORE PUSH1 0x6 PUSH1 0x20 MSTORE PUSH1 0x40 SWAP1 KECCAK256 DUP1 SLOAD CALLER SWAP2 SWAP1 DUP4 SWAP1 DUP2 LT PUSH2 0x51D JUMPI PUSH2 0x51D PUSH2 0x14D3 JUMP JUMPDEST PUSH0 SWAP2 DUP3 MSTORE PUSH1 0x20 SWAP1 SWAP2 KECCAK256 ADD SLOAD PUSH1 0x1 PUSH1 0x1 PUSH1 0xA0 SHL SUB AND SUB PUSH2 0x53F JUMPI PUSH1 0x1 SWAP2 POP PUSH2 0x547 JUMP JUMPDEST PUSH1 0x1 ADD PUSH2 0x4E6 JUMP JUMPDEST POP DUP1 PUSH2 0x58A JUMPI PUSH1 0x40 MLOAD PUSH3 0x461BCD PUSH1 0xE5 SHL DUP2 MSTORE PUSH1 0x20 PUSH1 0x4 DUP3 ADD MSTORE PUSH1 0x12 PUSH1 0x24 DUP3 ADD MSTORE PUSH18 0x2737BA1039B2B632B1BA32B210353AB937B9 PUSH1 0x71 SHL PUSH1 0x44 DUP3 ADD MSTORE PUSH1 0x64 ADD PUSH2 0x4DA JUMP JUMPDEST PUSH0 DUP4 DUP2 MSTORE PUSH1 0x7 PUSH1 0x20 SWAP1 DUP2 MSTORE PUSH1 0x40 DUP1 DUP4 KECCAK256 CALLER DUP5 MSTORE SWAP1 SWAP2 MSTORE SWAP1 KECCAK256 SLOAD PUSH1 0xFF AND ISZERO PUSH2 0x5E3 JUMPI PUSH1 0x40 MLOAD PUSH3 0x461BCD PUSH1 0xE5 SHL DUP2 MSTORE PUSH1 0x20 PUSH1 0x4 DUP3 ADD MSTORE PUSH1 0xD PUSH1 0x24 DUP3 ADD MSTORE PUSH13 0x105B1C9958591E481D9BDD1959 PUSH1 0x9A SHL PUSH1 0x44 DUP3 ADD MSTORE PUSH1 0x64 ADD PUSH2 0x4DA JUMP JUMPDEST PUSH0 DUP4 DUP2 MSTORE PUSH1 0x7 PUSH1 0x20 SWAP1 DUP2 MSTORE PUSH1 0x40 DUP1 DUP4 KECCAK256 CALLER DUP1 DUP6 MSTORE SWAP1 DUP4 MSTORE DUP2 DUP5 KECCAK256 DUP1 SLOAD PUSH1 0xFF NOT AND PUSH1 0x1 OR SWAP1 SSTORE DUP7 DUP5 MSTORE PUSH1 0x8 DUP4 MSTORE DUP2 DUP5 KECCAK256 SWAP1 DUP5 MSTORE DUP3 MSTORE DUP1 DUP4 KECCAK256 DUP1 SLOAD PUSH1 0x1 PUSH1 0x1 PUSH1 0xA0 SHL SUB DUP8 AND PUSH1 0x1 PUSH1 0x1 PUSH1 0xA0 SHL SUB NOT SWAP1 SWAP2 AND DUP2 OR SWAP1 SWAP2 SSTORE DUP7 DUP5 MSTORE PUSH1 0xA DUP4 MSTORE DUP2 DUP5 KECCAK256 SWAP1 DUP5 MSTORE SWAP1 SWAP2 MSTORE DUP2 KECCAK256 DUP1 SLOAD SWAP2 PUSH2 0x655 DUP4 PUSH2 0x14FB JUMP JUMPDEST SWAP1 SWAP2 SSTORE POP POP PUSH0 DUP4 DUP2 MSTORE PUSH1 0x9 PUSH1 0x20 MSTORE PUSH1 0x40 DUP2 KECCAK256 DUP1 SLOAD SWAP2 PUSH2 0x673 DUP4 PUSH2 0x14FB JUMP JUMPDEST SWAP1 SWAP2 SSTORE POP POP PUSH1 0x40 MLOAD PUSH1 0x1 PUSH1 0x1 PUSH1 0xA0 SHL SUB DUP4 AND DUP2 MSTORE CALLER SWAP1 DUP5 SWAP1 PUSH32 0xF6C8F1F54B2F54FB963820203FDEF5B9AEFB56AE2C4DD8B6133E151791A07F36 SWAP1 PUSH1 0x20 ADD PUSH1 0x40 MLOAD DUP1 SWAP2 SUB SWAP1 LOG3 PUSH1 0x3 SLOAD PUSH0 DUP5 DUP2 MSTORE PUSH1 0x9 PUSH1 0x20 MSTORE PUSH1 0x40 SWAP1 KECCAK256 SLOAD SUB PUSH2 0x888 JUMPI DUP2 PUSH0 DUP1 JUMPDEST PUSH0 DUP7 DUP2 MSTORE PUSH1 0x6 PUSH1 0x20 MSTORE PUSH1 0x40 SWAP1 KECCAK256 SLOAD DUP2 LT ISZERO PUSH2 0x76C JUMPI PUSH0 DUP7 DUP2 MSTORE PUSH1 0x8 PUSH1 0x20 SWAP1 DUP2 MSTORE PUSH1 0x40 DUP1 DUP4 KECCAK256 PUSH1 0x6 SWAP1 SWAP3 MSTORE DUP3 KECCAK256 DUP1 SLOAD DUP4 SWAP2 SWAP1 DUP6 SWAP1 DUP2 LT PUSH2 0x713 JUMPI PUSH2 0x713 PUSH2 0x14D3 JUMP JUMPDEST PUSH0 SWAP2 DUP3 MSTORE PUSH1 0x20 DUP1 DUP4 KECCAK256 SWAP1 SWAP2 ADD SLOAD PUSH1 0x1 PUSH1 0x1 PUSH1 0xA0 SHL SUB SWAP1 DUP2 AND DUP5 MSTORE DUP4 DUP3 ADD SWAP5 SWAP1 SWAP5 MSTORE PUSH1 0x40 SWAP3 DUP4 ADD DUP3 KECCAK256 SLOAD DUP12 DUP4 MSTORE PUSH1 0xA DUP3 MSTORE DUP4 DUP4 KECCAK256 SWAP5 AND DUP1 DUP4 MSTORE SWAP4 SWAP1 MSTORE KECCAK256 SLOAD SWAP1 SWAP2 POP DUP4 DUP2 GT ISZERO PUSH2 0x762 JUMPI DUP1 SWAP4 POP DUP2 SWAP5 POP JUMPDEST POP POP PUSH1 0x1 ADD PUSH2 0x6D2 JUMP JUMPDEST POP PUSH1 0x4 SLOAD PUSH1 0x40 MLOAD PUSH1 0x24 DUP2 ADD DUP8 SWAP1 MSTORE PUSH1 0x1 PUSH1 0x1 PUSH1 0xA0 SHL SUB DUP5 DUP2 AND PUSH1 0x44 DUP4 ADD MSTORE PUSH0 SWAP3 AND SWAP1 PUSH1 0x64 ADD PUSH1 0x40 DUP1 MLOAD PUSH1 0x1F NOT DUP2 DUP5 SUB ADD DUP2 MSTORE SWAP2 DUP2 MSTORE PUSH1 0x20 DUP3 ADD DUP1 MLOAD PUSH1 0x1 PUSH1 0x1 PUSH1 0xE0 SHL SUB AND PUSH4 0xE33599D PUSH1 0xE0 SHL OR SWAP1 MSTORE MLOAD PUSH2 0x7C6 SWAP2 SWAP1 PUSH2 0x1513 JUMP JUMPDEST PUSH0 PUSH1 0x40 MLOAD DUP1 DUP4 SUB DUP2 PUSH0 DUP7 GAS CALL SWAP2 POP POP RETURNDATASIZE DUP1 PUSH0 DUP2 EQ PUSH2 0x7FF JUMPI PUSH1 0x40 MLOAD SWAP2 POP PUSH1 0x1F NOT PUSH1 0x3F RETURNDATASIZE ADD AND DUP3 ADD PUSH1 0x40 MSTORE RETURNDATASIZE DUP3 MSTORE RETURNDATASIZE PUSH0 PUSH1 0x20 DUP5 ADD RETURNDATACOPY PUSH2 0x804 JUMP JUMPDEST PUSH1 0x60 SWAP2 POP JUMPDEST POP POP SWAP1 POP DUP1 PUSH2 0x846 JUMPI PUSH1 0x40 MLOAD PUSH3 0x461BCD PUSH1 0xE5 SHL DUP2 MSTORE PUSH1 0x20 PUSH1 0x4 DUP3 ADD MSTORE PUSH1 0xE PUSH1 0x24 DUP3 ADD MSTORE PUSH14 0x14995CDBDB1D994819985A5B1959 PUSH1 0x92 SHL PUSH1 0x44 DUP3 ADD MSTORE PUSH1 0x64 ADD PUSH2 0x4DA JUMP JUMPDEST PUSH1 0x40 MLOAD PUSH1 0x1 PUSH1 0x1 PUSH1 0xA0 SHL SUB DUP5 AND DUP2 MSTORE DUP7 SWAP1 PUSH32 0xF77CEB5E091D2DA041BC760667F9D5FE7A756949EAF29250AD0E60CA6F4C27D9 SWAP1 PUSH1 0x20 ADD PUSH1 0x40 MLOAD DUP1 SWAP2 SUB SWAP1 LOG2 POP POP POP JUMPDEST POP POP POP JUMP JUMPDEST PUSH1 0x6 PUSH1 0x20 MSTORE DUP2 PUSH0 MSTORE PUSH1 0x40 PUSH0 KECCAK256 DUP2 DUP2 SLOAD DUP2 LT PUSH2 0x8A6 JUMPI PUSH0 DUP1 REVERT JUMPDEST PUSH0 SWAP2 DUP3 MSTORE PUSH1 0x20 SWAP1 SWAP2 KECCAK256 ADD SLOAD PUSH1 0x1 PUSH1 0x1 PUSH1 0xA0 SHL SUB AND SWAP2 POP DUP3 SWAP1 POP JUMP JUMPDEST CALLER PUSH0 SWAP1 DUP2 MSTORE PUSH1 0x20 DUP2 SWAP1 MSTORE PUSH1 0x40 SWAP1 KECCAK256 PUSH1 0x2 DUP2 ADD SLOAD PUSH1 0xFF AND PUSH2 0x911 JUMPI PUSH1 0x40 MLOAD PUSH3 0x461BCD PUSH1 0xE5 SHL DUP2 MSTORE PUSH1 0x20 PUSH1 0x4 DUP3 ADD MSTORE PUSH1 0xB PUSH1 0x24 DUP3 ADD MSTORE PUSH11 0x2737BA103090353AB937B9 PUSH1 0xA9 SHL PUSH1 0x44 DUP3 ADD MSTORE PUSH1 0x64 ADD PUSH2 0x4DA JUMP JUMPDEST PUSH1 0x1 DUP2 ADD DUP1 SLOAD PUSH1 0x2 DUP4 ADD DUP1 SLOAD PUSH1 0xFF NOT AND SWAP1 SSTORE PUSH0 SWAP2 DUP3 SWAP1 SSTORE PUSH1 0x40 MLOAD SWAP1 SWAP2 CALLER SWAP2 DUP4 ISZERO PUSH2 0x8FC MUL SWAP2 DUP5 SWAP2 SWAP1 DUP2 DUP2 DUP2 DUP6 DUP9 DUP9 CALL SWAP4 POP POP POP POP ISZERO DUP1 ISZERO PUSH2 0x954 JUMPI RETURNDATASIZE PUSH0 PUSH0 RETURNDATACOPY RETURNDATASIZE PUSH0 REVERT JUMPDEST POP PUSH1 0x40 MLOAD DUP2 DUP2 MSTORE CALLER SWAP1 PUSH32 0x610A1D949CC1CA7D4391B2530DEDA84F33B5F02DBD462643F21CD8A1B3CD573F SWAP1 PUSH1 0x20 ADD PUSH1 0x40 MLOAD DUP1 SWAP2 SUB SWAP1 LOG2 POP POP JUMP JUMPDEST PUSH1 0x2 SLOAD CALLVALUE LT ISZERO PUSH2 0x9D5 JUMPI PUSH1 0x40 MLOAD PUSH3 0x461BCD PUSH1 0xE5 SHL DUP2 MSTORE PUSH1 0x20 PUSH1 0x4 DUP3 ADD MSTORE PUSH1 0x12 PUSH1 0x24 DUP3 ADD MSTORE PUSH18 0x496E73756666696369656E74207374616B65 PUSH1 0x70 SHL PUSH1 0x44 DUP3 ADD MSTORE PUSH1 0x64 ADD PUSH2 0x4DA JUMP JUMPDEST CALLER PUSH0 SWAP1 DUP2 MSTORE PUSH1 0x20 DUP2 SWAP1 MSTORE PUSH1 0x40 SWAP1 KECCAK256 PUSH1 0x2 ADD SLOAD PUSH1 0xFF AND ISZERO PUSH2 0xA27 JUMPI PUSH1 0x40 MLOAD PUSH3 0x461BCD PUSH1 0xE5 SHL DUP2 MSTORE PUSH1 0x20 PUSH1 0x4 DUP3 ADD MSTORE PUSH1 0xD PUSH1 0x24 DUP3 ADD MSTORE PUSH13 0x20B63932B0B23C90353AB937B9 PUSH1 0x99 SHL PUSH1 0x44 DUP3 ADD MSTORE PUSH1 0x64 ADD PUSH2 0x4DA JUMP JUMPDEST PUSH1 0x40 DUP1 MLOAD PUSH1 0x80 DUP2 ADD DUP3 MSTORE CALLER DUP1 DUP3 MSTORE CALLVALUE PUSH1 0x20 DUP1 DUP5 ADD DUP3 DUP2 MSTORE PUSH1 0x1 DUP6 DUP8 ADD DUP2 DUP2 MSTORE PUSH0 PUSH1 0x60 DUP9 ADD DUP2 DUP2 MSTORE DUP8 DUP3 MSTORE DUP2 DUP7 MSTORE DUP10 DUP3 KECCAK256 SWAP9 MLOAD DUP10 SLOAD PUSH1 0x1 PUSH1 0x1 PUSH1 0xA0 SHL SUB SWAP1 SWAP2 AND PUSH1 0x1 PUSH1 0x1 PUSH1 0xA0 SHL SUB NOT SWAP2 DUP3 AND OR DUP11 SSTORE SWAP5 MLOAD DUP10 DUP6 ADD SSTORE SWAP2 MLOAD PUSH1 0x2 DUP10 ADD DUP1 SLOAD SWAP2 ISZERO ISZERO PUSH1 0xFF NOT SWAP1 SWAP3 AND SWAP2 SWAP1 SWAP2 OR SWAP1 SSTORE SWAP1 MLOAD PUSH1 0x3 SWAP1 SWAP8 ADD SWAP7 SWAP1 SWAP7 SSTORE DUP1 SLOAD DUP1 DUP3 ADD DUP3 SSTORE SWAP6 MSTORE PUSH32 0xB10E2D527612073B26EECDFD717E6A320CF44B4AFAC2B0732D9FCBE2B7FA0CF6 SWAP1 SWAP5 ADD DUP1 SLOAD SWAP1 SWAP5 AND DUP4 OR SWAP1 SWAP4 SSTORE SWAP3 MLOAD SWAP3 DUP4 MSTORE SWAP2 PUSH32 0xC9626D754B3720DA351A26831DC4D1481CB9F2DD7EC9BA5356F710BCF4354B59 SWAP2 ADD PUSH1 0x40 MLOAD DUP1 SWAP2 SUB SWAP1 LOG2 JUMP JUMPDEST PUSH0 DUP2 DUP2 MSTORE PUSH1 0x6 PUSH1 0x20 SWAP1 DUP2 MSTORE PUSH1 0x40 SWAP2 DUP3 SWAP1 KECCAK256 DUP1 SLOAD DUP4 MLOAD DUP2 DUP5 MUL DUP2 ADD DUP5 ADD SWAP1 SWAP5 MSTORE DUP1 DUP5 MSTORE PUSH1 0x60 SWAP4 SWAP3 DUP4 ADD DUP3 DUP3 DUP1 ISZERO PUSH2 0xB64 JUMPI PUSH1 0x20 MUL DUP3 ADD SWAP2 SWAP1 PUSH0 MSTORE PUSH1 0x20 PUSH0 KECCAK256 SWAP1 JUMPDEST DUP2 SLOAD PUSH1 0x1 PUSH1 0x1 PUSH1 0xA0 SHL SUB AND DUP2 MSTORE PUSH1 0x1 SWAP1 SWAP2 ADD SWAP1 PUSH1 0x20 ADD DUP1 DUP4 GT PUSH2 0xB46 JUMPI JUMPDEST POP POP POP POP POP SWAP1 POP SWAP2 SWAP1 POP JUMP JUMPDEST PUSH1 0x4 SLOAD PUSH1 0x1 PUSH1 0x1 PUSH1 0xA0 SHL SUB AND CALLER EQ PUSH2 0xBBD JUMPI PUSH1 0x40 MLOAD PUSH3 0x461BCD PUSH1 0xE5 SHL DUP2 MSTORE PUSH1 0x20 PUSH1 0x4 DUP3 ADD MSTORE PUSH1 0x10 PUSH1 0x24 DUP3 ADD MSTORE PUSH16 0x4F6E6C79205461736B466163746F7279 PUSH1 0x80 SHL PUSH1 0x44 DUP3 ADD MSTORE PUSH1 0x64 ADD PUSH2 0x4DA JUMP JUMPDEST PUSH0 DUP2 DUP2 MSTORE PUSH1 0x6 PUSH1 0x20 MSTORE PUSH1 0x40 SWAP1 KECCAK256 SLOAD ISZERO PUSH2 0xC18 JUMPI PUSH1 0x40 MLOAD PUSH3 0x461BCD PUSH1 0xE5 SHL DUP2 MSTORE PUSH1 0x20 PUSH1 0x4 DUP3 ADD MSTORE PUSH1 0x17 PUSH1 0x24 DUP3 ADD MSTORE PUSH32 0x4469737075746520616C72656164792073746172746564000000000000000000 PUSH1 0x44 DUP3 ADD MSTORE PUSH1 0x64 ADD PUSH2 0x4DA JUMP JUMPDEST PUSH1 0x3 SLOAD PUSH1 0x1 SLOAD LT ISZERO PUSH2 0xC60 JUMPI PUSH1 0x40 MLOAD PUSH3 0x461BCD PUSH1 0xE5 SHL DUP2 MSTORE PUSH1 0x20 PUSH1 0x4 DUP3 ADD MSTORE PUSH1 0x11 PUSH1 0x24 DUP3 ADD MSTORE PUSH17 0x4E6F7420656E6F756768206A75726F7273 PUSH1 0x78 SHL PUSH1 0x44 DUP3 ADD MSTORE PUSH1 0x64 ADD PUSH2 0x4DA JUMP JUMPDEST PUSH1 0x1 SLOAD PUSH0 SWAP1 PUSH8 0xFFFFFFFFFFFFFFFF DUP2 GT ISZERO PUSH2 0xC7D JUMPI PUSH2 0xC7D PUSH2 0x1529 JUMP JUMPDEST PUSH1 0x40 MLOAD SWAP1 DUP1 DUP3 MSTORE DUP1 PUSH1 0x20 MUL PUSH1 0x20 ADD DUP3 ADD PUSH1 0x40 MSTORE DUP1 ISZERO PUSH2 0xCA6 JUMPI DUP2 PUSH1 0x20 ADD PUSH1 0x20 DUP3 MUL DUP1 CALLDATASIZE DUP4 CALLDATACOPY ADD SWAP1 POP JUMPDEST POP SWAP1 POP PUSH0 DUP1 JUMPDEST PUSH1 0x1 SLOAD DUP2 LT ISZERO PUSH2 0xD75 JUMPI PUSH0 PUSH1 0x1 DUP3 DUP2 SLOAD DUP2 LT PUSH2 0xCCA JUMPI PUSH2 0xCCA PUSH2 0x14D3 JUMP JUMPDEST PUSH0 SWAP2 DUP3 MSTORE PUSH1 0x20 DUP1 DUP4 KECCAK256 SWAP1 SWAP2 ADD SLOAD PUSH1 0x1 PUSH1 0x1 PUSH1 0xA0 SHL SUB AND DUP1 DUP4 MSTORE SWAP1 DUP3 SWAP1 MSTORE PUSH1 0x40 SWAP1 SWAP2 KECCAK256 PUSH1 0x2 ADD SLOAD SWAP1 SWAP2 POP PUSH1 0xFF AND DUP1 ISZERO PUSH2 0xD28 JUMPI POP PUSH1 0x5 SLOAD PUSH1 0x1 PUSH1 0x1 PUSH1 0xA0 SHL SUB DUP3 AND PUSH0 SWAP1 DUP2 MSTORE PUSH1 0x20 DUP2 SWAP1 MSTORE PUSH1 0x40 SWAP1 KECCAK256 PUSH1 0x3 ADD SLOAD PUSH2 0xD25 SWAP2 SWAP1 PUSH2 0x153D JUMP JUMPDEST DUP6 GT JUMPDEST ISZERO PUSH2 0xD6C JUMPI DUP1 DUP5 DUP5 PUSH2 0xD39 DUP2 PUSH2 0x14FB JUMP JUMPDEST SWAP6 POP DUP2 MLOAD DUP2 LT PUSH2 0xD4B JUMPI PUSH2 0xD4B PUSH2 0x14D3 JUMP JUMPDEST PUSH1 0x20 MUL PUSH1 0x20 ADD ADD SWAP1 PUSH1 0x1 PUSH1 0x1 PUSH1 0xA0 SHL SUB AND SWAP1 DUP2 PUSH1 0x1 PUSH1 0x1 PUSH1 0xA0 SHL SUB AND DUP2 MSTORE POP POP JUMPDEST POP PUSH1 0x1 ADD PUSH2 0xCAC JUMP JUMPDEST POP PUSH0 PUSH1 0x3 SLOAD PUSH8 0xFFFFFFFFFFFFFFFF DUP2 GT ISZERO PUSH2 0xD92 JUMPI PUSH2 0xD92 PUSH2 0x1529 JUMP JUMPDEST PUSH1 0x40 MLOAD SWAP1 DUP1 DUP3 MSTORE DUP1 PUSH1 0x20 MUL PUSH1 0x20 ADD DUP3 ADD PUSH1 0x40 MSTORE DUP1 ISZERO PUSH2 0xDBB JUMPI DUP2 PUSH1 0x20 ADD PUSH1 0x20 DUP3 MUL DUP1 CALLDATASIZE DUP4 CALLDATACOPY ADD SWAP1 POP JUMPDEST POP PUSH1 0x40 DUP1 MLOAD TIMESTAMP PUSH1 0x20 DUP1 DUP4 ADD SWAP2 SWAP1 SWAP2 MSTORE DUP2 DUP4 ADD DUP9 SWAP1 MSTORE DUP3 MLOAD DUP1 DUP4 SUB DUP5 ADD DUP2 MSTORE PUSH1 0x60 SWAP1 SWAP3 ADD SWAP1 SWAP3 MSTORE DUP1 MLOAD SWAP2 ADD KECCAK256 SWAP1 SWAP2 POP PUSH0 SWAP1 DUP2 JUMPDEST PUSH1 0x3 SLOAD DUP4 LT DUP1 ISZERO PUSH2 0xE07 JUMPI POP PUSH2 0xE04 DUP6 PUSH1 0x2 PUSH2 0x1556 JUMP JUMPDEST DUP2 LT JUMPDEST ISZERO PUSH2 0xF0B JUMPI PUSH0 DUP7 DUP7 DUP5 DUP5 PUSH1 0x40 MLOAD PUSH1 0x20 ADD PUSH2 0xE2B SWAP3 SWAP2 SWAP1 SWAP2 DUP3 MSTORE PUSH1 0x20 DUP3 ADD MSTORE PUSH1 0x40 ADD SWAP1 JUMP JUMPDEST PUSH1 0x40 MLOAD PUSH1 0x20 DUP2 DUP4 SUB SUB DUP2 MSTORE SWAP1 PUSH1 0x40 MSTORE DUP1 MLOAD SWAP1 PUSH1 0x20 ADD KECCAK256 PUSH0 SHR PUSH2 0xE4D SWAP2 SWAP1 PUSH2 0x156D JUMP JUMPDEST DUP2 MLOAD DUP2 LT PUSH2 0xE5D JUMPI PUSH2 0xE5D PUSH2 0x14D3 JUMP JUMPDEST PUSH1 0x20 SWAP1 DUP2 MUL SWAP2 SWAP1 SWAP2 ADD ADD MLOAD SWAP1 POP PUSH0 DUP1 JUMPDEST DUP6 DUP2 LT ISZERO PUSH2 0xEB8 JUMPI DUP3 PUSH1 0x1 PUSH1 0x1 PUSH1 0xA0 SHL SUB AND DUP8 DUP3 DUP2 MLOAD DUP2 LT PUSH2 0xE91 JUMPI PUSH2 0xE91 PUSH2 0x14D3 JUMP JUMPDEST PUSH1 0x20 MUL PUSH1 0x20 ADD ADD MLOAD PUSH1 0x1 PUSH1 0x1 PUSH1 0xA0 SHL SUB AND SUB PUSH2 0xEB0 JUMPI PUSH1 0x1 SWAP2 POP PUSH2 0xEB8 JUMP JUMPDEST PUSH1 0x1 ADD PUSH2 0xE6D JUMP JUMPDEST POP DUP1 PUSH2 0xEF7 JUMPI DUP2 DUP7 DUP7 DUP2 MLOAD DUP2 LT PUSH2 0xED1 JUMPI PUSH2 0xED1 PUSH2 0x14D3 JUMP JUMPDEST PUSH1 0x1 PUSH1 0x1 PUSH1 0xA0 SHL SUB SWAP1 SWAP3 AND PUSH1 0x20 SWAP3 DUP4 MUL SWAP2 SWAP1 SWAP2 ADD SWAP1 SWAP2 ADD MSTORE DUP5 PUSH2 0xEF3 DUP2 PUSH2 0x14FB JUMP JUMPDEST SWAP6 POP POP JUMPDEST DUP3 PUSH2 0xF01 DUP2 PUSH2 0x14FB JUMP JUMPDEST SWAP4 POP POP POP POP PUSH2 0xDED JUMP JUMPDEST PUSH1 0x3 SLOAD DUP4 LT ISZERO PUSH2 0x1017 JUMPI PUSH0 JUMPDEST PUSH1 0x1 SLOAD DUP2 LT DUP1 ISZERO PUSH2 0xF29 JUMPI POP PUSH1 0x3 SLOAD DUP5 LT JUMPDEST ISZERO PUSH2 0x1015 JUMPI PUSH0 PUSH1 0x1 DUP3 DUP2 SLOAD DUP2 LT PUSH2 0xF42 JUMPI PUSH2 0xF42 PUSH2 0x14D3 JUMP JUMPDEST PUSH0 SWAP2 DUP3 MSTORE PUSH1 0x20 DUP1 DUP4 KECCAK256 SWAP1 SWAP2 ADD SLOAD PUSH1 0x1 PUSH1 0x1 PUSH1 0xA0 SHL SUB AND DUP1 DUP4 MSTORE SWAP1 DUP3 SWAP1 MSTORE PUSH1 0x40 SWAP1 SWAP2 KECCAK256 PUSH1 0x2 ADD SLOAD SWAP1 SWAP2 POP PUSH1 0xFF AND ISZERO PUSH2 0x1002 JUMPI PUSH0 DUP1 JUMPDEST DUP7 DUP2 LT ISZERO PUSH2 0xFC1 JUMPI DUP3 PUSH1 0x1 PUSH1 0x1 PUSH1 0xA0 SHL SUB AND DUP9 DUP3 DUP2 MLOAD DUP2 LT PUSH2 0xF9A JUMPI PUSH2 0xF9A PUSH2 0x14D3 JUMP JUMPDEST PUSH1 0x20 MUL PUSH1 0x20 ADD ADD MLOAD PUSH1 0x1 PUSH1 0x1 PUSH1 0xA0 SHL SUB AND SUB PUSH2 0xFB9 JUMPI PUSH1 0x1 SWAP2 POP PUSH2 0xFC1 JUMP JUMPDEST PUSH1 0x1 ADD PUSH2 0xF76 JUMP JUMPDEST POP DUP1 PUSH2 0x1000 JUMPI DUP2 DUP8 DUP8 DUP2 MLOAD DUP2 LT PUSH2 0xFDA JUMPI PUSH2 0xFDA PUSH2 0x14D3 JUMP JUMPDEST PUSH1 0x1 PUSH1 0x1 PUSH1 0xA0 SHL SUB SWAP1 SWAP3 AND PUSH1 0x20 SWAP3 DUP4 MUL SWAP2 SWAP1 SWAP2 ADD SWAP1 SWAP2 ADD MSTORE DUP6 PUSH2 0xFFC DUP2 PUSH2 0x14FB JUMP JUMPDEST SWAP7 POP POP JUMPDEST POP JUMPDEST POP DUP1 PUSH2 0x100D DUP2 PUSH2 0x14FB JUMP JUMPDEST SWAP2 POP POP PUSH2 0xF17 JUMP JUMPDEST POP JUMPDEST PUSH1 0x3 SLOAD DUP4 EQ PUSH2 0x1068 JUMPI PUSH1 0x40 MLOAD PUSH3 0x461BCD PUSH1 0xE5 SHL DUP2 MSTORE PUSH1 0x20 PUSH1 0x4 DUP3 ADD MSTORE PUSH1 0x18 PUSH1 0x24 DUP3 ADD MSTORE PUSH32 0x4E6F7420656E6F75676820756E69717565206A75726F72730000000000000000 PUSH1 0x44 DUP3 ADD MSTORE PUSH1 0x64 ADD PUSH2 0x4DA JUMP JUMPDEST PUSH0 DUP8 DUP2 MSTORE PUSH1 0x6 PUSH1 0x20 SWAP1 DUP2 MSTORE PUSH1 0x40 SWAP1 SWAP2 KECCAK256 DUP6 MLOAD PUSH2 0x1086 SWAP3 DUP8 ADD SWAP1 PUSH2 0x1375 JUMP JUMPDEST POP PUSH0 JUMPDEST DUP5 MLOAD DUP2 LT ISZERO PUSH2 0x10D5 JUMPI DUP8 PUSH0 PUSH0 DUP8 DUP5 DUP2 MLOAD DUP2 LT PUSH2 0x10A7 JUMPI PUSH2 0x10A7 PUSH2 0x14D3 JUMP JUMPDEST PUSH1 0x20 SWAP1 DUP2 MUL SWAP2 SWAP1 SWAP2 ADD DUP2 ADD MLOAD PUSH1 0x1 PUSH1 0x1 PUSH1 0xA0 SHL SUB AND DUP3 MSTORE DUP2 ADD SWAP2 SWAP1 SWAP2 MSTORE PUSH1 0x40 ADD PUSH0 KECCAK256 PUSH1 0x3 ADD SSTORE PUSH1 0x1 ADD PUSH2 0x1089 JUMP JUMPDEST POP DUP7 PUSH32 0x5623BB8130AC6988AB91C966D08C23B84DE074A147BB0A3677A9E322B0A5145B DUP6 PUSH1 0x40 MLOAD PUSH2 0x1106 SWAP2 SWAP1 PUSH2 0x1468 JUMP JUMPDEST PUSH1 0x40 MLOAD DUP1 SWAP2 SUB SWAP1 LOG2 POP POP POP POP POP POP POP JUMP JUMPDEST PUSH1 0x4 SLOAD PUSH1 0x1 PUSH1 0xA0 SHL SWAP1 DIV PUSH1 0xFF AND ISZERO PUSH2 0x1167 JUMPI PUSH1 0x40 MLOAD PUSH3 0x461BCD PUSH1 0xE5 SHL DUP2 MSTORE PUSH1 0x20 PUSH1 0x4 DUP3 ADD MSTORE PUSH1 0x13 PUSH1 0x24 DUP3 ADD MSTORE PUSH19 0x119858DD1BDC9E48185B1C9958591E481CD95D PUSH1 0x6A SHL PUSH1 0x44 DUP3 ADD MSTORE PUSH1 0x64 ADD PUSH2 0x4DA JUMP JUMPDEST PUSH1 0x1 PUSH1 0x1 PUSH1 0xA0 SHL SUB DUP2 AND PUSH2 0x11AF JUMPI PUSH1 0x40 MLOAD PUSH3 0x461BCD PUSH1 0xE5 SHL DUP2 MSTORE PUSH1 0x20 PUSH1 0x4 DUP3 ADD MSTORE PUSH1 0xF PUSH1 0x24 DUP3 ADD MSTORE PUSH15 0x496E76616C69642061646472657373 PUSH1 0x88 SHL PUSH1 0x44 DUP3 ADD MSTORE PUSH1 0x64 ADD PUSH2 0x4DA JUMP JUMPDEST PUSH1 0x4 DUP1 SLOAD PUSH1 0x1 PUSH1 0x1 PUSH1 0xA8 SHL SUB NOT AND PUSH1 0x1 PUSH1 0x1 PUSH1 0xA0 SHL SUB SWAP1 SWAP3 AND SWAP2 SWAP1 SWAP2 OR PUSH1 0x1 PUSH1 0xA0 SHL OR SWAP1 SSTORE JUMP JUMPDEST PUSH1 0x60 PUSH0 DUP1 JUMPDEST PUSH1 0x1 SLOAD DUP2 LT ISZERO PUSH2 0x123F JUMPI PUSH0 PUSH0 PUSH1 0x1 DUP4 DUP2 SLOAD DUP2 LT PUSH2 0x11FA JUMPI PUSH2 0x11FA PUSH2 0x14D3 JUMP JUMPDEST PUSH0 SWAP2 DUP3 MSTORE PUSH1 0x20 DUP1 DUP4 KECCAK256 SWAP1 SWAP2 ADD SLOAD PUSH1 0x1 PUSH1 0x1 PUSH1 0xA0 SHL SUB AND DUP4 MSTORE DUP3 ADD SWAP3 SWAP1 SWAP3 MSTORE PUSH1 0x40 ADD SWAP1 KECCAK256 PUSH1 0x2 ADD SLOAD PUSH1 0xFF AND ISZERO PUSH2 0x1237 JUMPI DUP2 PUSH2 0x1233 DUP2 PUSH2 0x14FB JUMP JUMPDEST SWAP3 POP POP JUMPDEST PUSH1 0x1 ADD PUSH2 0x11DB JUMP JUMPDEST POP PUSH0 DUP2 PUSH8 0xFFFFFFFFFFFFFFFF DUP2 GT ISZERO PUSH2 0x125A JUMPI PUSH2 0x125A PUSH2 0x1529 JUMP JUMPDEST PUSH1 0x40 MLOAD SWAP1 DUP1 DUP3 MSTORE DUP1 PUSH1 0x20 MUL PUSH1 0x20 ADD DUP3 ADD PUSH1 0x40 MSTORE DUP1 ISZERO PUSH2 0x1283 JUMPI DUP2 PUSH1 0x20 ADD PUSH1 0x20 DUP3 MUL DUP1 CALLDATASIZE DUP4 CALLDATACOPY ADD SWAP1 POP JUMPDEST POP SWAP1 POP PUSH0 DUP1 JUMPDEST PUSH1 0x1 SLOAD DUP2 LT ISZERO PUSH2 0x1344 JUMPI PUSH0 PUSH0 PUSH1 0x1 DUP4 DUP2 SLOAD DUP2 LT PUSH2 0x12A8 JUMPI PUSH2 0x12A8 PUSH2 0x14D3 JUMP JUMPDEST PUSH0 SWAP2 DUP3 MSTORE PUSH1 0x20 DUP1 DUP4 KECCAK256 SWAP1 SWAP2 ADD SLOAD PUSH1 0x1 PUSH1 0x1 PUSH1 0xA0 SHL SUB AND DUP4 MSTORE DUP3 ADD SWAP3 SWAP1 SWAP3 MSTORE PUSH1 0x40 ADD SWAP1 KECCAK256 PUSH1 0x2 ADD SLOAD PUSH1 0xFF AND ISZERO PUSH2 0x133C JUMPI PUSH1 0x1 DUP2 DUP2 SLOAD DUP2 LT PUSH2 0x12EA JUMPI PUSH2 0x12EA PUSH2 0x14D3 JUMP JUMPDEST PUSH0 SWAP2 DUP3 MSTORE PUSH1 0x20 SWAP1 SWAP2 KECCAK256 ADD SLOAD PUSH1 0x1 PUSH1 0x1 PUSH1 0xA0 SHL SUB AND DUP4 DUP4 PUSH2 0x1309 DUP2 PUSH2 0x14FB JUMP JUMPDEST SWAP5 POP DUP2 MLOAD DUP2 LT PUSH2 0x131B JUMPI PUSH2 0x131B PUSH2 0x14D3 JUMP JUMPDEST PUSH1 0x20 MUL PUSH1 0x20 ADD ADD SWAP1 PUSH1 0x1 PUSH1 0x1 PUSH1 0xA0 SHL SUB AND SWAP1 DUP2 PUSH1 0x1 PUSH1 0x1 PUSH1 0xA0 SHL SUB AND DUP2 MSTORE POP POP JUMPDEST PUSH1 0x1 ADD PUSH2 0x1289 JUMP JUMPDEST POP SWAP1 SWAP4 SWAP3 POP POP POP JUMP JUMPDEST PUSH1 0x1 DUP2 DUP2 SLOAD DUP2 LT PUSH2 0x135C JUMPI PUSH0 DUP1 REVERT JUMPDEST PUSH0 SWAP2 DUP3 MSTORE PUSH1 0x20 SWAP1 SWAP2 KECCAK256 ADD SLOAD PUSH1 0x1 PUSH1 0x1 PUSH1 0xA0 SHL SUB AND SWAP1 POP DUP2 JUMP JUMPDEST DUP3 DUP1 SLOAD DUP3 DUP3 SSTORE SWAP1 PUSH0 MSTORE PUSH1 0x20 PUSH0 KECCAK256 SWAP1 DUP2 ADD SWAP3 DUP3 ISZERO PUSH2 0x13C8 JUMPI SWAP2 PUSH1 0x20 MUL DUP3 ADD JUMPDEST DUP3 DUP2 GT ISZERO PUSH2 0x13C8 JUMPI DUP3 MLOAD DUP3 SLOAD PUSH1 0x1 PUSH1 0x1 PUSH1 0xA0 SHL SUB NOT AND PUSH1 0x1 PUSH1 0x1 PUSH1 0xA0 SHL SUB SWAP1 SWAP2 AND OR DUP3 SSTORE PUSH1 0x20 SWAP1 SWAP3 ADD SWAP2 PUSH1 0x1 SWAP1 SWAP2 ADD SWAP1 PUSH2 0x1393 JUMP JUMPDEST POP PUSH2 0x13D4 SWAP3 SWAP2 POP PUSH2 0x13D8 JUMP JUMPDEST POP SWAP1 JUMP JUMPDEST JUMPDEST DUP1 DUP3 GT ISZERO PUSH2 0x13D4 JUMPI PUSH0 DUP2 SSTORE PUSH1 0x1 ADD PUSH2 0x13D9 JUMP JUMPDEST DUP1 CALLDATALOAD PUSH1 0x1 PUSH1 0x1 PUSH1 0xA0 SHL SUB DUP2 AND DUP2 EQ PUSH2 0x1402 JUMPI PUSH0 PUSH0 REVERT JUMPDEST SWAP2 SWAP1 POP JUMP JUMPDEST PUSH0 PUSH0 PUSH1 0x40 DUP4 DUP6 SUB SLT ISZERO PUSH2 0x1418 JUMPI PUSH0 PUSH0 REVERT JUMPDEST DUP3 CALLDATALOAD SWAP2 POP PUSH2 0x1428 PUSH1 0x20 DUP5 ADD PUSH2 0x13EC JUMP JUMPDEST SWAP1 POP SWAP3 POP SWAP3 SWAP1 POP JUMP JUMPDEST PUSH0 PUSH0 PUSH1 0x40 DUP4 DUP6 SUB SLT ISZERO PUSH2 0x1442 JUMPI PUSH0 PUSH0 REVERT JUMPDEST POP POP DUP1 CALLDATALOAD SWAP3 PUSH1 0x20 SWAP1 SWAP2 ADD CALLDATALOAD SWAP2 POP JUMP JUMPDEST PUSH0 PUSH1 0x20 DUP3 DUP5 SUB SLT ISZERO PUSH2 0x1461 JUMPI PUSH0 PUSH0 REVERT JUMPDEST POP CALLDATALOAD SWAP2 SWAP1 POP JUMP JUMPDEST PUSH1 0x20 DUP1 DUP3 MSTORE DUP3 MLOAD DUP3 DUP3 ADD DUP2 SWAP1 MSTORE PUSH0 SWAP2 DUP5 ADD SWAP1 PUSH1 0x40 DUP5 ADD SWAP1 DUP4 JUMPDEST DUP2 DUP2 LT ISZERO PUSH2 0x14A8 JUMPI DUP4 MLOAD PUSH1 0x1 PUSH1 0x1 PUSH1 0xA0 SHL SUB AND DUP4 MSTORE PUSH1 0x20 SWAP4 DUP5 ADD SWAP4 SWAP1 SWAP3 ADD SWAP2 PUSH1 0x1 ADD PUSH2 0x1481 JUMP JUMPDEST POP SWAP1 SWAP6 SWAP5 POP POP POP POP POP JUMP JUMPDEST PUSH0 PUSH1 0x20 DUP3 DUP5 SUB SLT ISZERO PUSH2 0x14C3 JUMPI PUSH0 PUSH0 REVERT JUMPDEST PUSH2 0x14CC DUP3 PUSH2 0x13EC JUMP JUMPDEST SWAP4 SWAP3 POP POP POP JUMP JUMPDEST PUSH4 0x4E487B71 PUSH1 0xE0 SHL PUSH0 MSTORE PUSH1 0x32 PUSH1 0x4 MSTORE PUSH1 0x24 PUSH0 REVERT JUMPDEST PUSH4 0x4E487B71 PUSH1 0xE0 SHL PUSH0 MSTORE PUSH1 0x11 PUSH1 0x4 MSTORE PUSH1 0x24 PUSH0 REVERT JUMPDEST PUSH0 PUSH1 0x1 DUP3 ADD PUSH2 0x150C JUMPI PUSH2 0x150C PUSH2 0x14E7 JUMP JUMPDEST POP PUSH1 0x1 ADD SWAP1 JUMP JUMPDEST PUSH0 DUP3 MLOAD DUP1 PUSH1 0x20 DUP6 ADD DUP5 MCOPY PUSH0 SWAP3 ADD SWAP2 DUP3 MSTORE POP SWAP2 SWAP1 POP JUMP JUMPDEST PUSH4 0x4E487B71 PUSH1 0xE0 SHL PUSH0 MSTORE PUSH1 0x41 PUSH1 0x4 MSTORE PUSH1 0x24 PUSH0 REVERT JUMPDEST DUP1 DUP3 ADD DUP1 DUP3 GT ISZERO PUSH2 0x1550 JUMPI PUSH2 0x1550 PUSH2 0x14E7 JUMP JUMPDEST SWAP3 SWAP2 POP POP JUMP JUMPDEST DUP1 DUP3 MUL DUP2 ISZERO DUP3 DUP3 DIV DUP5 EQ OR PUSH2 0x1550 JUMPI PUSH2 0x1550 PUSH2 0x14E7 JUMP JUMPDEST PUSH0 DUP3 PUSH2 0x1587 JUMPI PUSH4 0x4E487B71 PUSH1 0xE0 SHL PUSH0 MSTORE PUSH1 0x12 PUSH1 0x4 MSTORE PUSH1 0x24 PUSH0 REVERT JUMPDEST POP MOD SWAP1 JUMP INVALID LOG2 PUSH5 0x6970667358 0x22 SLT KECCAK256 0xF6 TSTORE GASPRICE DUP14 SGT MUL 0xBA CODECOPY 0xAC 0xD4 SWAP11 CALLCODE 0xD4 SWAP2 PUSH23 0x732DF98196E0EFC6BF86FE3D425D7C38E264736F6C6343 STOP ADDMOD 0x1E STOP CALLER "
		},
		"gasEstimates": {
			"creation": {
				"codeDepositCost": "1114000",
				"executionCost": "infinite",
				"totalCost": "infinite"
			},
			"external": {
				"candidateVotes(uint256,address)": "2702",
				"disputeJurors(uint256,uint256)": "4734",
				"factorySet()": "2414",
				"getActiveJurors()": "infinite",
				"getDisputeJurors(uint256)": "infinite",
				"getJurorInfo(address)": "6937",
				"handleDispute(uint256)": "infinite",
				"hasVoted(uint256,address)": "2648",
				"jurorCooldown()": "2383",
				"jurorList(uint256)": "4667",
				"jurors(address)": "9062",
				"jurorsPerDispute()": "2338",
				"minStake()": "2384",
				"setFactory(address)": "26779",
				"stake()": "130289",
				"taskFactory()": "2436",
				"unstake()": "infinite",
				"vote(uint256,address)": "infinite",
				"voteCount(uint256)": "2546",
				"votes(uint256,address)": "2663"
			}
		},
		"methodIdentifiers": {
			"candidateVotes(uint256,address)": "afa9c5b0",
			"disputeJurors(uint256,uint256)": "2249c562",
			"factorySet()": "e21875e2",
			"getActiveJurors()": "6058e685",
			"getDisputeJurors(uint256)": "47e2a6e6",
			"getJurorInfo(address)": "eff2c3ec",
			"handleDispute(uint256)": "4b54a379",
			"hasVoted(uint256,address)": "43859632",
			"jurorCooldown()": "4dc35f7a",
			"jurorList(uint256)": "8e230e6f",
			"jurors(address)": "dca5f6b0",
			"jurorsPerDispute()": "d369506c",
			"minStake()": "375b3c0a",
			"setFactory(address)": "5bb47808",
			"stake()": "3a4b66f1",
			"taskFactory()": "c9bc0c11",
			"unstake()": "2def6620",
			"vote(uint256,address)": "02d947ef",
			"voteCount(uint256)": "4fc8a20d",
			"votes(uint256,address)": "d23254b4"
		}
	},
	"abi": [
		{
			"inputs": [
				{
					"internalType": "address",
					"name": "_taskFactory",
					"type": "address"
				}
			],
			"stateMutability": "nonpayable",
			"type": "constructor"
		},
		{
			"anonymous": false,
			"inputs": [
				{
					"indexed": true,
					"internalType": "uint256",
					"name": "disputeId",
					"type": "uint256"
				},
				{
					"indexed": false,
					"internalType": "address",
					"name": "winner",
					"type": "address"
				}
			],
			"name": "DisputeResolved",
			"type": "event"
		},
		{
			"anonymous": false,
			"inputs": [
				{
					"indexed": true,
					"internalType": "uint256",
					"name": "disputeId",
					"type": "uint256"
				},
				{
					"indexed": false,
					"internalType": "address[]",
					"name": "jurors",
					"type": "address[]"
				}
			],
			"name": "DisputeStarted",
			"type": "event"
		},
		{
			"anonymous": false,
			"inputs": [
				{
					"indexed": true,
					"internalType": "address",
					"name": "juror",
					"type": "address"
				},
				{
					"indexed": false,
					"internalType": "uint256",
					"name": "amount",
					"type": "uint256"
				}
			],
			"name": "JurorStaked",
			"type": "event"
		},
		{
			"anonymous": false,
			"inputs": [
				{
					"indexed": true,
					"internalType": "address",
					"name": "juror",
					"type": "address"
				},
				{
					"indexed": false,
					"internalType": "uint256",
					"name": "amount",
					"type": "uint256"
				}
			],
			"name": "JurorUnstaked",
			"type": "event"
		},
		{
			"anonymous": false,
			"inputs": [
				{
					"indexed": true,
					"internalType": "uint256",
					"name": "disputeId",
					"type": "uint256"
				},
				{
					"indexed": true,
					"internalType": "address",
					"name": "juror",
					"type": "address"
				},
				{
					"indexed": false,
					"internalType": "address",
					"name": "winner",
					"type": "address"
				}
			],
			"name": "Voted",
			"type": "event"
		},
		{
			"inputs": [
				{
					"internalType": "uint256",
					"name": "",
					"type": "uint256"
				},
				{
					"internalType": "address",
					"name": "",
					"type": "address"
				}
			],
			"name": "candidateVotes",
			"outputs": [
				{
					"internalType": "uint256",
					"name": "",
					"type": "uint256"
				}
			],
			"stateMutability": "view",
			"type": "function"
		},
		{
			"inputs": [
				{
					"internalType": "uint256",
					"name": "",
					"type": "uint256"
				},
				{
					"internalType": "uint256",
					"name": "",
					"type": "uint256"
				}
			],
			"name": "disputeJurors",
			"outputs": [
				{
					"internalType": "address",
					"name": "",
					"type": "address"
				}
			],
			"stateMutability": "view",
			"type": "function"
		},
		{
			"inputs": [],
			"name": "factorySet",
			"outputs": [
				{
					"internalType": "bool",
					"name": "",
					"type": "bool"
				}
			],
			"stateMutability": "view",
			"type": "function"
		},
		{
			"inputs": [],
			"name": "getActiveJurors",
			"outputs": [
				{
					"internalType": "address[]",
					"name": "",
					"type": "address[]"
				}
			],
			"stateMutability": "view",
			"type": "function"
		},
		{
			"inputs": [
				{
					"internalType": "uint256",
					"name": "disputeId",
					"type": "uint256"
				}
			],
			"name": "getDisputeJurors",
			"outputs": [
				{
					"internalType": "address[]",
					"name": "",
					"type": "address[]"
				}
			],
			"stateMutability": "view",
			"type": "function"
		},
		{
			"inputs": [
				{
					"internalType": "address",
					"name": "_jurorAddr",
					"type": "address"
				}
			],
			"name": "getJurorInfo",
			"outputs": [
				{
					"internalType": "uint256",
					"name": "stakeAmount",
					"type": "uint256"
				},
				{
					"internalType": "bool",
					"name": "isActive",
					"type": "bool"
				},
				{
					"internalType": "uint256",
					"name": "lastDisputeId",
					"type": "uint256"
				}
			],
			"stateMutability": "view",
			"type": "function"
		},
		{
			"inputs": [
				{
					"internalType": "uint256",
					"name": "disputeId",
					"type": "uint256"
				}
			],
			"name": "handleDispute",
			"outputs": [],
			"stateMutability": "nonpayable",
			"type": "function"
		},
		{
			"inputs": [
				{
					"internalType": "uint256",
					"name": "",
					"type": "uint256"
				},
				{
					"internalType": "address",
					"name": "",
					"type": "address"
				}
			],
			"name": "hasVoted",
			"outputs": [
				{
					"internalType": "bool",
					"name": "",
					"type": "bool"
				}
			],
			"stateMutability": "view",
			"type": "function"
		},
		{
			"inputs": [],
			"name": "jurorCooldown",
			"outputs": [
				{
					"internalType": "uint256",
					"name": "",
					"type": "uint256"
				}
			],
			"stateMutability": "view",
			"type": "function"
		},
		{
			"inputs": [
				{
					"internalType": "uint256",
					"name": "",
					"type": "uint256"
				}
			],
			"name": "jurorList",
			"outputs": [
				{
					"internalType": "address",
					"name": "",
					"type": "address"
				}
			],
			"stateMutability": "view",
			"type": "function"
		},
		{
			"inputs": [
				{
					"internalType": "address",
					"name": "",
					"type": "address"
				}
			],
			"name": "jurors",
			"outputs": [
				{
					"internalType": "address",
					"name": "addr",
					"type": "address"
				},
				{
					"internalType": "uint256",
					"name": "stakeAmount",
					"type": "uint256"
				},
				{
					"internalType": "bool",
					"name": "isActive",
					"type": "bool"
				},
				{
					"internalType": "uint256",
					"name": "lastDisputeId",
					"type": "uint256"
				}
			],
			"stateMutability": "view",
			"type": "function"
		},
		{
			"inputs": [],
			"name": "jurorsPerDispute",
			"outputs": [
				{
					"internalType": "uint256",
					"name": "",
					"type": "uint256"
				}
			],
			"stateMutability": "view",
			"type": "function"
		},
		{
			"inputs": [],
			"name": "minStake",
			"outputs": [
				{
					"internalType": "uint256",
					"name": "",
					"type": "uint256"
				}
			],
			"stateMutability": "view",
			"type": "function"
		},
		{
			"inputs": [
				{
					"internalType": "address",
					"name": "_factory",
					"type": "address"
				}
			],
			"name": "setFactory",
			"outputs": [],
			"stateMutability": "nonpayable",
			"type": "function"
		},
		{
			"inputs": [],
			"name": "stake",
			"outputs": [],
			"stateMutability": "payable",
			"type": "function"
		},
		{
			"inputs": [],
			"name": "taskFactory",
			"outputs": [
				{
					"internalType": "address",
					"name": "",
					"type": "address"
				}
			],
			"stateMutability": "view",
			"type": "function"
		},
		{
			"inputs": [],
			"name": "unstake",
			"outputs": [],
			"stateMutability": "nonpayable",
			"type": "function"
		},
		{
			"inputs": [
				{
					"internalType": "uint256",
					"name": "disputeId",
					"type": "uint256"
				},
				{
					"internalType": "address",
					"name": "winner",
					"type": "address"
				}
			],
			"name": "vote",
			"outputs": [],
			"stateMutability": "nonpayable",
			"type": "function"
		},
		{
			"inputs": [
				{
					"internalType": "uint256",
					"name": "",
					"type": "uint256"
				}
			],
			"name": "voteCount",
			"outputs": [
				{
					"internalType": "uint256",
					"name": "",
					"type": "uint256"
				}
			],
			"stateMutability": "view",
			"type": "function"
		},
		{
			"inputs": [
				{
					"internalType": "uint256",
					"name": "",
					"type": "uint256"
				},
				{
					"internalType": "address",
					"name": "",
					"type": "address"
				}
			],
			"name": "votes",
			"outputs": [
				{
					"internalType": "address",
					"name": "",
					"type": "address"
				}
			],
			"stateMutability": "view",
			"type": "function"
		}
	]
}