{
	"data": {
		"bytecode": {
			"linkReferences": {},
			"object": "608060405234801561000f575f5ffd5b50604051613f5e380380613f5e83398101604081905261002e916102af565b600380546001600160a01b038086166001600160a01b0319928316179092556004805485841690831617815560058054938516939092169290921790555f600281905560408051808201909152918252637765623360e01b602080840191909152600191829052527fcc69885fda6bcc1a4ace058b4a62bf5e179ea78fd58a1ccd71c22cc9b688792f906100c29082610387565b506040805180820190915260058152640aa925eaab60db1b60208083019190915260025f52600190527fd9d16d34ffb15ba3a3d852f0d403e2ce1d691fb54de27ac87cd2f993f3ec330f906101179082610387565b5060408051808201909152601081526f26b0b935b2ba10283937b6b7ba34b7b760811b60208083019190915260035f52600190527f7dfe757ecd65cbd7922a9c0161e935dd7fdbcc0e999689c7d31633896b1fc60b906101779082610387565b5060408051808201909152601281527121b7b73a32b73a10283937b23ab1ba34b7b760711b60208083019190915260045f52600190527fedc95719e9a3b28dd8e80877cb5880a9be7de1a13fc8b05e7999683b6b567643906101d99082610387565b5060408051808201909152600e81526d4461746120416e616c797469637360901b60208083019190915260055f52600190527fe2689cd4a84e23ad2f564004f1c9013e9589d260bde6380aba3ca7e09e4df40c906102379082610387565b5060408051808201909152600581526427ba3432b960d91b6020808301919091525f8052600190527fa6eef7e35abe7026729641147f7915573c7e97b47efa546f5f6e3230263bcb499061028b9082610387565b50505050610441565b80516001600160a01b03811681146102aa575f5ffd5b919050565b5f5f5f606084860312156102c1575f5ffd5b6102ca84610294565b92506102d860208501610294565b91506102e660408501610294565b90509250925092565b634e487b7160e01b5f52604160045260245ffd5b600181811c9082168061031757607f821691505b60208210810361033557634e487b7160e01b5f52602260045260245ffd5b50919050565b601f82111561038257805f5260205f20601f840160051c810160208510156103605750805b601f840160051c820191505b8181101561037f575f815560010161036c565b50505b505050565b81516001600160401b038111156103a0576103a06102ef565b6103b4816103ae8454610303565b8461033b565b6020601f8211600181146103e6575f83156103cf5750848201515b5f19600385901b1c1916600184901b17845561037f565b5f84815260208120601f198516915b8281101561041557878501518255602094850194600190920191016103f5565b508482101561043257868401515f19600387901b60f8161c191681555b50505050600190811b01905550565b613b108061044e5f395ff3fe608060405260043610610131575f3560e01c8063976217cd116100a8578063ab4de6061161006d578063ab4de606146103ad578063b6cb58a5146103cc578063cf3797d4146103e1578063e2fdcc17146103f4578063e503337614610413578063f1c2d0d914610432575f5ffd5b8063976217cd1461030057806397d9c23e1461032c578063982ae1121461034b578063a09e9c1d1461036a578063a5bbe22b14610389575f5ffd5b8063779900b4116100f9578063779900b4146101e85780637869099c146102095780637eec20a8146102355780638d9776721461025457806390ca80df1461028b578063964858fb146102c2575f5ffd5b806316b6106e1461013557806323a43ec81461016a57806329e5fb091461018b57806359f01043146101aa57806368e7f9f5146101c9575b5f5ffd5b348015610140575f5ffd5b5061015461014f36600461327f565b610451565b60405161016191906132c4565b60405180910390f35b348015610175575f5ffd5b5061018961018436600461327f565b6104e8565b005b348015610196575f5ffd5b506101896101a536600461327f565b61075a565b3480156101b5575f5ffd5b506101896101c43660046132dd565b6108bf565b3480156101d4575f5ffd5b506101896101e33660046133ae565b610b9f565b3480156101f3575f5ffd5b506101fc610d9f565b604051610161919061357e565b348015610214575f5ffd5b5061022861022336600461327f565b611197565b60405161016191906135e1565b348015610240575f5ffd5b5061018961024f36600461327f565b611231565b34801561025f575f5ffd5b5061027361026e36600461327f565b6114be565b6040516101619c9b9a9998979695949392919061362c565b348015610296575f5ffd5b506003546102aa906001600160a01b031681565b6040516001600160a01b039091168152602001610161565b3480156102cd575f5ffd5b506102f06102dc36600461327f565b60066020525f908152604090205460ff1681565b6040519015158152602001610161565b34801561030b575f5ffd5b5061031f61031a36600461327f565b61174a565b60405161016191906136e3565b348015610337575f5ffd5b5061018961034636600461327f565b611aef565b348015610356575f5ffd5b506101fc610365366004613710565b611e1d565b348015610375575f5ffd5b5061018961038436600461327f565b61228f565b348015610394575f5ffd5b5061039f6201518081565b604051908152602001610161565b3480156103b8575f5ffd5b506101896103c7366004613729565b61247b565b3480156103d7575f5ffd5b5061039f60025481565b6101896103ef366004613753565b61265a565b3480156103ff575f5ffd5b506004546102aa906001600160a01b031681565b34801561041e575f5ffd5b5061018961042d36600461327f565b612e3d565b34801561043d575f5ffd5b506005546102aa906001600160a01b031681565b60016020525f908152604090208054610469906137d1565b80601f0160208091040260200160405190810160405280929190818152602001828054610495906137d1565b80156104e05780601f106104b7576101008083540402835291602001916104e0565b820191905f5260205f20905b8154815290600101906020018083116104c357829003601f168201915b505050505081565b5f818152602081905260409020548190811461051f5760405162461bcd60e51b815260040161051690613803565b60405180910390fd5b5f828152602081905260409020600a81015460ff16156105775760405162461bcd60e51b815260206004820152601360248201527215185cdac8185b1c9958591e481b1bd8dad959606a1b6044820152606401610516565b600460068083015460ff1690811115610592576105926133f2565b14806105b4575060068181015460ff16818111156105b2576105b26133f2565b145b80156105c35750806009015442115b6106085760405162461bcd60e51b81526020600482015260166024820152754e6f7420656c696769626c6520746f20736574746c6560501b6044820152606401610516565b600460068083015460ff1690811115610623576106236133f2565b0361063c57600a8101805460ff19166001179055505050565b60068181015460ff1681811115610655576106556133f2565b03610755576004805490820154604051602481018690526001600160a01b0391821660448201525f92919091169060640160408051601f198184030181529181526020820180516001600160e01b0316637796992960e01b179052516106bb9190613830565b5f604051808303815f865af19150503d805f81146106f4576040519150601f19603f3d011682016040523d82523d5f602084013e6106f9565b606091505b505090508061071a5760405162461bcd60e51b815260040161051690613846565b600a8201805460ff1916600117905560405184905f516020613abb5f395f51905f529061074b906006905f90613874565b60405180910390a2505b505050565b5f81815260208190526040902054819081146107885760405162461bcd60e51b815260040161051690613803565b5f828152602081905260409020600160068083015460ff16908111156107b0576107b06133f2565b146108085760405162461bcd60e51b815260206004820152602260248201527f5461736b206973206e6f74206f70656e20666f7220706172746963697061746960448201526137b760f11b6064820152608401610516565b5f5b600882015481101561089557336001600160a01b03168260080182815481106108355761083561389a565b5f918252602090912001546001600160a01b03160361088d5760405162461bcd60e51b8152602060048201526014602482015273105b1c9958591e481c185c9d1a58da5c185d195960621b6044820152606401610516565b60010161080a565b5060080180546001810182555f91825260209091200180546001600160a01b031916331790555050565b5f82815260208190526040902054829081146108ed5760405162461bcd60e51b815260040161051690613803565b5f8381526020819052604090206004015483906001600160a01b031633146109275760405162461bcd60e51b8152600401610516906138ae565b5f8481526020818152604080832060069092529091205460ff1661098d5760405162461bcd60e51b815260206004820152601d60248201527f5461736b20766572696669636174696f6e206e6f742070656e64696e670000006044820152606401610516565b600360068083015460ff16908111156109a8576109a86133f2565b146109ff5760405162461bcd60e51b815260206004820152602160248201527f5461736b206e6f742070656e64696e6720656d706c6f79657220636f6e6669726044820152606d60f81b6064820152608401610516565b610a0c62015180426138f9565b6009820155600a8101805460ff191690558315610b605760068101805460ff191660049081179182905554604051602481018890526001600160a01b03610100909304831660448201525f929091169060640160408051601f198184030181529181526020820180516001600160e01b0316631af23a5960e01b17905251610a949190613830565b5f604051808303815f865af19150503d805f8114610acd576040519150601f19603f3d011682016040523d82523d5f602084013e610ad2565b606091505b5050905080610b1b5760405162461bcd60e51b8152602060048201526015602482015274115cd8dc9bddc81c995b19585cd94819985a5b1959605a1b6044820152606401610516565b855f516020613abb5f395f51905f5260048460060160019054906101000a90046001600160a01b0316604051610b52929190613874565b60405180910390a250610b98565b6006818101805460ff19168217905560405186915f516020613abb5f395f51905f5291610b8f91905f90613874565b60405180910390a25b5050505050565b5f8281526020819052604090205482908114610bcd5760405162461bcd60e51b815260040161051690613803565b5f838152602081905260409020600681015461010090046001600160a01b03163314610c475760405162461bcd60e51b8152602060048201526024808201527f4f6e6c792077696e6e65722063616e20726571756573742076657269666963616044820152633a34b7b760e11b6064820152608401610516565b600260068083015460ff1690811115610c6257610c626133f2565b14610caf5760405162461bcd60e51b815260206004820181905260248201527f5461736b206973206e6f7420696e20496e50726f6772657373207374617475736044820152606401610516565b5f8481526006602052604090205460ff1615610d0d5760405162461bcd60e51b815260206004820152601c60248201527f566572696669636174696f6e20616c72656164792070656e64696e67000000006044820152606401610516565b5f835111610d5d5760405162461bcd60e51b815260206004820152601e60248201527f436f6d706c6574696f6e2055524c2063616e6e6f7420626520656d70747900006044820152606401610516565b60038101610d6b8482613956565b506006810180546003919060ff1916600183021790555050505f91825250600660205260409020805460ff19166001179055565b60605f60025467ffffffffffffffff811115610dbd57610dbd61330f565b604051908082528060200260200182016040528015610df657816020015b610de361312e565b815260200190600190039081610ddb5790505b5090505f5b600254811015611191575f818152602081815260409182902082516101a08101909352805483526001810180549192840191610e36906137d1565b80601f0160208091040260200160405190810160405280929190818152602001828054610e62906137d1565b8015610ead5780601f10610e8457610100808354040283529160200191610ead565b820191905f5260205f20905b815481529060010190602001808311610e9057829003601f168201915b50505050508152602001600282018054610ec6906137d1565b80601f0160208091040260200160405190810160405280929190818152602001828054610ef2906137d1565b8015610f3d5780601f10610f1457610100808354040283529160200191610f3d565b820191905f5260205f20905b815481529060010190602001808311610f2057829003601f168201915b50505050508152602001600382018054610f56906137d1565b80601f0160208091040260200160405190810160405280929190818152602001828054610f82906137d1565b8015610fcd5780601f10610fa457610100808354040283529160200191610fcd565b820191905f5260205f20905b815481529060010190602001808311610fb057829003601f168201915b505050918352505060048201546001600160a01b031660208201526005820154604082015260068083015460609092019160ff1690811115611011576110116133f2565b6006811115611022576110226133f2565b81526020016006820160019054906101000a90046001600160a01b03166001600160a01b03166001600160a01b0316815260200160078201548152602001600882018054806020026020016040519081016040528092919081815260200182805480156110b657602002820191905f5260205f20905b81546001600160a01b03168152600190910190602001808311611098575b505050918352505060098201546020820152600a82015460ff1615156040820152600b820180546060909201916110ec906137d1565b80601f0160208091040260200160405190810160405280929190818152602001828054611118906137d1565b80156111635780601f1061113a57610100808354040283529160200191611163565b820191905f5260205f20905b81548152906001019060200180831161114657829003601f168201915b50505050508152505082828151811061117e5761117e61389a565b6020908102919091010152600101610dfb565b50919050565b5f81815260208190526040902054606090829081146111c85760405162461bcd60e51b815260040161051690613803565b5f83815260208181526040918290206008018054835181840281018401909452808452909183018282801561122457602002820191905f5260205f20905b81546001600160a01b03168152600190910190602001808311611206575b5050505050915050919050565b5f818152602081905260409020548190811461125f5760405162461bcd60e51b815260040161051690613803565b5f8281526020819052604090206004015482906001600160a01b031633146112995760405162461bcd60e51b8152600401610516906138ae565b5f8381526020819052604081209060068083015460ff16908111156112c0576112c06133f2565b14806112e45750600160068083015460ff16908111156112e2576112e26133f2565b145b6113305760405162461bcd60e51b815260206004820152601860248201527f5461736b2063616e6e6f742062652063616e63656c6c656400000000000000006044820152606401610516565b6004805490820154604051602481018790526001600160a01b0391821660448201525f92919091169060640160408051601f198184030181529181526020820180516001600160e01b0316637796992960e01b179052516113919190613830565b5f604051808303815f865af19150503d805f81146113ca576040519150601f19603f3d011682016040523d82523d5f602084013e6113cf565b606091505b50509050806113f05760405162461bcd60e51b815260040161051690613846565b5f8581526020819052604081208181559061140e60018301826131b3565b61141b600283015f6131b3565b611428600383015f6131b3565b6004820180546001600160a01b03191690555f600583018190556006830180546001600160a81b0319169055600783018190556114699060088401906131ed565b5f60098301819055600a8301805460ff1916905561148b90600b8401906131b3565b505060405185907f36a2f40cfe61ace5baf26a6e4f86ffa75c62392fde263d354d42e0e718fa4bd1905f90a25050505050565b5f60208190529081526040902080546001820180549192916114df906137d1565b80601f016020809104026020016040519081016040528092919081815260200182805461150b906137d1565b80156115565780601f1061152d57610100808354040283529160200191611556565b820191905f5260205f20905b81548152906001019060200180831161153957829003601f168201915b50505050509080600201805461156b906137d1565b80601f0160208091040260200160405190810160405280929190818152602001828054611597906137d1565b80156115e25780601f106115b9576101008083540402835291602001916115e2565b820191905f5260205f20905b8154815290600101906020018083116115c557829003601f168201915b5050505050908060030180546115f7906137d1565b80601f0160208091040260200160405190810160405280929190818152602001828054611623906137d1565b801561166e5780601f106116455761010080835404028352916020019161166e565b820191905f5260205f20905b81548152906001019060200180831161165157829003601f168201915b5050505060048301546005840154600685015460078601546009870154600a880154600b8901805498996001600160a01b039788169996985060ff80871698610100909704909616969495939493909216926116c9906137d1565b80601f01602080910402602001604051908101604052809291908181526020018280546116f5906137d1565b80156117405780601f1061171757610100808354040283529160200191611740565b820191905f5260205f20905b81548152906001019060200180831161172357829003601f168201915b505050505090508c565b61175261312e565b5f82815260208190526040902054829081146117805760405162461bcd60e51b815260040161051690613803565b5f838152602081815260409182902082516101a081019093528054835260018101805491928401916117b1906137d1565b80601f01602080910402602001604051908101604052809291908181526020018280546117dd906137d1565b80156118285780601f106117ff57610100808354040283529160200191611828565b820191905f5260205f20905b81548152906001019060200180831161180b57829003601f168201915b50505050508152602001600282018054611841906137d1565b80601f016020809104026020016040519081016040528092919081815260200182805461186d906137d1565b80156118b85780601f1061188f576101008083540402835291602001916118b8565b820191905f5260205f20905b81548152906001019060200180831161189b57829003601f168201915b505050505081526020016003820180546118d1906137d1565b80601f01602080910402602001604051908101604052809291908181526020018280546118fd906137d1565b80156119485780601f1061191f57610100808354040283529160200191611948565b820191905f5260205f20905b81548152906001019060200180831161192b57829003601f168201915b505050918352505060048201546001600160a01b031660208201526005820154604082015260068083015460609092019160ff169081111561198c5761198c6133f2565b600681111561199d5761199d6133f2565b81526020016006820160019054906101000a90046001600160a01b03166001600160a01b03166001600160a01b031681526020016007820154815260200160088201805480602002602001604051908101604052809291908181526020018280548015611a3157602002820191905f5260205f20905b81546001600160a01b03168152600190910190602001808311611a13575b505050918352505060098201546020820152600a82015460ff1615156040820152600b82018054606090920191611a67906137d1565b80601f0160208091040260200160405190810160405280929190818152602001828054611a93906137d1565b8015611ade5780601f10611ab557610100808354040283529160200191611ade565b820191905f5260205f20905b815481529060010190602001808311611ac157829003601f168201915b505050505081525050915050919050565b5f8181526020819052604090205481908114611b1d5760405162461bcd60e51b815260040161051690613803565b5f828152602081905260409020600460068083015460ff1690811115611b4557611b456133f2565b1480611b67575060068181015460ff1681811115611b6557611b656133f2565b145b8015611b785750600a81015460ff16155b15611d5e57600681015461010090046001600160a01b03163314611bfa5760405162461bcd60e51b815260206004820152603360248201527f4f6e6c792077696e6e65722063616e206469737075746520616674657220656d604482015272706c6f79657220636f6e6669726d2f64656e7960681b6064820152608401610516565b8060090154421115611c475760405162461bcd60e51b8152602060048201526016602482015275111a5cdc1d5d19481c195c9a5bd908195e1c1a5c995960521b6044820152606401610516565b6006810180546005919060ff19166001835b0217905550600554604051602481018590525f916001600160a01b03169060440160408051601f198184030181529181526020820180516001600160e01b0316634b54a37960e01b17905251611caf9190613830565b5f604051808303815f865af19150503d805f8114611ce8576040519150601f19603f3d011682016040523d82523d5f602084013e611ced565b606091505b5050905080611d3e5760405162461bcd60e51b815260206004820152601760248201527f446973707574652068616e646c696e67206661696c65640000000000000000006044820152606401610516565b835f516020613abb5f395f51905f5260055f60405161074b929190613874565b600681015461010090046001600160a01b0316331480611d8a575060048101546001600160a01b031633145b8015611dae5750600260068083015460ff1690811115611dac57611dac6133f2565b145b15611dc9576006810180546005919060ff1916600183611c59565b60405162461bcd60e51b815260206004820152602360248201527f4e6f207269676874206f722077726f6e672073746174757320746f206469737060448201526275746560e81b6064820152608401610516565b60605f805b600254811015611e65575f818152602081905260409020600401546001600160a01b03808616911603611e5d5781611e5981613a11565b9250505b600101611e22565b505f8167ffffffffffffffff811115611e8057611e8061330f565b604051908082528060200260200182016040528015611eb957816020015b611ea661312e565b815260200190600190039081611e9e5790505b5090505f805b600254811015612285575f818152602081905260409020600401546001600160a01b0380881691160361227d575f818152602081815260409182902082516101a08101909352805483526001810180549192840191611f1d906137d1565b80601f0160208091040260200160405190810160405280929190818152602001828054611f49906137d1565b8015611f945780601f10611f6b57610100808354040283529160200191611f94565b820191905f5260205f20905b815481529060010190602001808311611f7757829003601f168201915b50505050508152602001600282018054611fad906137d1565b80601f0160208091040260200160405190810160405280929190818152602001828054611fd9906137d1565b80156120245780601f10611ffb57610100808354040283529160200191612024565b820191905f5260205f20905b81548152906001019060200180831161200757829003601f168201915b5050505050815260200160038201805461203d906137d1565b80601f0160208091040260200160405190810160405280929190818152602001828054612069906137d1565b80156120b45780601f1061208b576101008083540402835291602001916120b4565b820191905f5260205f20905b81548152906001019060200180831161209757829003601f168201915b505050918352505060048201546001600160a01b031660208201526005820154604082015260068083015460609092019160ff16908111156120f8576120f86133f2565b6006811115612109576121096133f2565b81526020016006820160019054906101000a90046001600160a01b03166001600160a01b03166001600160a01b03168152602001600782015481526020016008820180548060200260200160405190810160405280929190818152602001828054801561219d57602002820191905f5260205f20905b81546001600160a01b0316815260019091019060200180831161217f575b505050918352505060098201546020820152600a82015460ff1615156040820152600b820180546060909201916121d3906137d1565b80601f01602080910402602001604051908101604052809291908181526020018280546121ff906137d1565b801561224a5780601f106122215761010080835404028352916020019161224a565b820191905f5260205f20905b81548152906001019060200180831161222d57829003601f168201915b50505050508152505083838061225f90613a11565b9450815181106122715761227161389a565b60200260200101819052505b600101611ebf565b5090949350505050565b5f81815260208190526040902054819081146122bd5760405162461bcd60e51b815260040161051690613803565b5f8281526020819052604090206004015482906001600160a01b031633146122f75760405162461bcd60e51b8152600401610516906138ae565b5f83815260208190526040812060069081015460ff169081111561231d5761231d6133f2565b1461236a5760405162461bcd60e51b815260206004820152601d60248201527f5461736b206973206e6f7420696e2043726561746564207374617475730000006044820152606401610516565b5f83815260208190526040808220600601805460ff191660011790556003549051602481018690526001600160a01b039091169060440160408051601f198184030181529181526020820180516001600160e01b03166371c6418160e11b179052516123d69190613830565b5f604051808303815f865af19150503d805f811461240f576040519150601f19603f3d011682016040523d82523d5f602084013e612414565b606091505b505090508061245b5760405162461bcd60e51b8152602060048201526013602482015272109a59191a5b99c81bdc195b8819985a5b1959606a1b6044820152606401610516565b835f516020613abb5f395f51905f5260015f60405161074b929190613874565b5f82815260208190526040902054829081146124a95760405162461bcd60e51b815260040161051690613803565b5f8381526020819052604090206004015483906001600160a01b031633146124e35760405162461bcd60e51b8152600401610516906138ae565b5f848152602081905260409020600160068083015460ff169081111561250b5761250b6133f2565b146125585760405162461bcd60e51b815260206004820152601d60248201527f5461736b206973206e6f7420696e2042696464696e67207374617475730000006044820152606401610516565b5f805b60088301548110156125b057856001600160a01b03168360080182815481106125865761258661389a565b5f918252602090912001546001600160a01b0316036125a857600191506125b0565b60010161255b565b50806125fe5760405162461bcd60e51b815260206004820152601c60248201527f57696e6e6572206d7573742062652061207061727469636970616e74000000006044820152606401610516565b60068201805460026001600160a81b03199091166101006001600160a01b0389160260ff191617811790915560405187915f516020613abb5f395f51905f529161264a91908990613874565b60405180910390a2505050505050565b8234146126b85760405162461bcd60e51b815260206004820152602660248201527f526577617264206d75737420626520657175616c20746f207468652073656e746044820152652076616c756560d01b6064820152608401610516565b5f83116127075760405162461bcd60e51b815260206004820181905260248201527f526577617264206d7573742062652067726561746572207468616e207a65726f6044820152606401610516565b5f8551116127575760405162461bcd60e51b815260206004820152601a60248201527f5461736b207469746c652063616e6e6f7420626520656d7074790000000000006044820152606401610516565b5f8451116127a75760405162461bcd60e51b815260206004820152601960248201527f4950465320686173682063616e6e6f7420626520656d707479000000000000006044820152606401610516565b4282116127f65760405162461bcd60e51b815260206004820152601e60248201527f446561646c696e65206d75737420626520696e207468652066757475726500006044820152606401610516565b6040516427ba3432b960d91b602082015260250160408051601f1981840301815282825280516020918201205f8581526001835292909220919261283b929101613a29565b6040516020818303038152906040528051906020012014806128b55750604051640aa925eaab60db1b602082015260250160408051601f1981840301815282825280516020918201205f8581526001835292909220919261289d929101613a29565b60405160208183030381529060405280519060200120145b8061292157506040516d4461746120416e616c797469637360901b6020820152602e0160408051601f1981840301815282825280516020918201205f85815260018352929092209192612909929101613a29565b60405160208183030381529060405280519060200120145b8061299157506040517121b7b73a32b73a10283937b23ab1ba34b7b760711b602082015260320160408051601f1981840301815282825280516020918201205f85815260018352929092209192612979929101613a29565b60405160208183030381529060405280519060200120145b806129ff57506040516f26b0b935b2ba10283937b6b7ba34b7b760811b602082015260300160408051601f1981840301815282825280516020918201205f858152600183529290922091926129e7929101613a29565b60405160208183030381529060405280519060200120145b80612a615750604051637765623360e01b602082015260240160408051601f1981840301815282825280516020918201205f85815260018352929092209192612a49929101613a29565b60405160208183030381529060405280519060200120145b612aa15760405162461bcd60e51b8152602060048201526011602482015270496e76616c6964207461736b207479706560781b6044820152606401610516565b600280545f9182612ab183613a11565b919050559050604051806101a0016040528082815260200187815260200186815260200160405180602001604052805f8152508152602001336001600160a01b031681526020018581526020015f6006811115612b1057612b106133f2565b81525f602080830182905260408084018890528051838152808301825260608501526080840183905260a0840183905286835260019091529020805460c090920191612b5b906137d1565b80601f0160208091040260200160405190810160405280929190818152602001828054612b87906137d1565b8015612bd25780601f10612ba957610100808354040283529160200191612bd2565b820191905f5260205f20905b815481529060010190602001808311612bb557829003601f168201915b5050509190925250505f8281526020818152604090912082518155908201516001820190612c009082613956565b5060408201516002820190612c159082613956565b5060608201516003820190612c2a9082613956565b5060808201516004820180546001600160a01b0319166001600160a01b0390921691909117905560a0820151600582015560c082015160068083018054909160ff19909116906001908490811115612c8457612c846133f2565b021790555060e0820151600682018054610100600160a81b0319166101006001600160a01b03909316830217905582015160078201556101208201518051612cd6916008840191602090910190613208565b506101408201516009820155610160820151600a8201805460ff1916911515919091179055610180820151600b820190612d109082613956565b5050600454604051602481018490525f92506001600160a01b0390911690349060440160408051601f198184030181529181526020820180516001600160e01b0316633b76594d60e01b17905251612d689190613830565b5f6040518083038185875af1925050503d805f8114612da2576040519150601f19603f3d011682016040523d82523d5f602084013e612da7565b606091505b5050905080612df05760405162461bcd60e51b8152602060048201526015602482015274115cd8dc9bddc819195c1bdcda5d0819985a5b1959605a1b6044820152606401610516565b336001600160a01b0316827fedce45cc3fc2bea98c94b72104f4a750dcc91bd183a01870ed4f93a365eba5b98789604051612e2c929190613a9a565b60405180910390a350505050505050565b5f8181526020819052604090205481908114612e6b5760405162461bcd60e51b815260040161051690613803565b5f828152602081905260409020600681015461010090046001600160a01b031615612ed85760405162461bcd60e51b815260206004820152601960248201527f5461736b20616c72656164792068617320612077696e6e6572000000000000006044820152606401610516565b5f60068083015460ff1690811115612ef257612ef26133f2565b1480612f165750600160068083015460ff1690811115612f1457612f146133f2565b145b612f5b5760405162461bcd60e51b815260206004820152601660248201527515185cdac818d85b9b9bdd081899481c995b5bdd995960521b6044820152606401610516565b80600701544211612fa15760405162461bcd60e51b815260206004820152601060248201526f15185cdac81b9bdd08195e1c1a5c995960821b6044820152606401610516565b6004805490820154604051602481018690526001600160a01b0391821660448201525f92919091169060640160408051601f198184030181529181526020820180516001600160e01b0316637796992960e01b179052516130029190613830565b5f604051808303815f865af19150503d805f811461303b576040519150601f19603f3d011682016040523d82523d5f602084013e613040565b606091505b50509050806130615760405162461bcd60e51b815260040161051690613846565b5f8481526020819052604081208181559061307f60018301826131b3565b61308c600283015f6131b3565b613099600383015f6131b3565b6004820180546001600160a01b03191690555f600583018190556006830180546001600160a81b0319169055600783018190556130da9060088401906131ed565b5f60098301819055600a8301805460ff191690556130fc90600b8401906131b3565b505060405184907f36a2f40cfe61ace5baf26a6e4f86ffa75c62392fde263d354d42e0e718fa4bd1905f90a250505050565b604051806101a001604052805f81526020016060815260200160608152602001606081526020015f6001600160a01b031681526020015f81526020015f600681111561317c5761317c6133f2565b81526020015f6001600160a01b031681526020015f8152602001606081526020015f81526020015f15158152602001606081525090565b5080546131bf906137d1565b5f825580601f106131ce575050565b601f0160209004905f5260205f20908101906131ea919061326b565b50565b5080545f8255905f5260205f20908101906131ea919061326b565b828054828255905f5260205f2090810192821561325b579160200282015b8281111561325b57825182546001600160a01b0319166001600160a01b03909116178255602090920191600190910190613226565b5061326792915061326b565b5090565b5b80821115613267575f815560010161326c565b5f6020828403121561328f575f5ffd5b5035919050565b5f81518084528060208401602086015e5f602082860101526020601f19601f83011685010191505092915050565b602081525f6132d66020830184613296565b9392505050565b5f5f604083850312156132ee575f5ffd5b8235915060208301358015158114613304575f5ffd5b809150509250929050565b634e487b7160e01b5f52604160045260245ffd5b5f82601f830112613332575f5ffd5b813567ffffffffffffffff81111561334c5761334c61330f565b604051601f8201601f19908116603f0116810167ffffffffffffffff8111828210171561337b5761337b61330f565b604052818152838201602001851015613392575f5ffd5b816020850160208301375f918101602001919091529392505050565b5f5f604083850312156133bf575f5ffd5b82359150602083013567ffffffffffffffff8111156133dc575f5ffd5b6133e885828601613323565b9150509250929050565b634e487b7160e01b5f52602160045260245ffd5b6007811061342257634e487b7160e01b5f52602160045260245ffd5b9052565b5f8151808452602084019350602083015f5b8281101561345f5781516001600160a01b0316865260209586019590910190600101613438565b5093949350505050565b805182525f60208201516101a060208501526134896101a0850182613296565b9050604083015184820360408601526134a28282613296565b915050606083015184820360608601526134bc8282613296565b91505060808301516134d960808601826001600160a01b03169052565b5060a083015160a085015260c08301516134f660c0860182613406565b5060e083015161351160e08601826001600160a01b03169052565b506101008301516101008501526101208301518482036101208601526135378282613426565b91505061014083015161014085015261016083015161355b61016086018215159052565b506101808301518482036101808601526135758282613296565b95945050505050565b5f602082016020835280845180835260408501915060408160051b8601019250602086015f5b828110156135d557603f198786030184526135c0858351613469565b945060209384019391909101906001016135a4565b50929695505050505050565b602080825282518282018190525f918401906040840190835b818110156136215783516001600160a01b03168352602093840193909201916001016135fa565b509095945050505050565b8c815261018060208201525f61364661018083018e613296565b8281036040840152613658818e613296565b9050828103606084015261366c818d613296565b6001600160a01b038c16608085015260a084018b9052905061369160c084018a613406565b6001600160a01b03881660e084015286610100840152856101208401526136bd61014084018615159052565b8281036101608401526136d08185613296565b9f9e505050505050505050505050505050565b602081525f6132d66020830184613469565b80356001600160a01b038116811461370b575f5ffd5b919050565b5f60208284031215613720575f5ffd5b6132d6826136f5565b5f5f6040838503121561373a575f5ffd5b8235915061374a602084016136f5565b90509250929050565b5f5f5f5f5f60a08688031215613767575f5ffd5b853567ffffffffffffffff81111561377d575f5ffd5b61378988828901613323565b955050602086013567ffffffffffffffff8111156137a5575f5ffd5b6137b188828901613323565b959895975050505060408401359360608101359360809091013592509050565b600181811c908216806137e557607f821691505b60208210810361119157634e487b7160e01b5f52602260045260245ffd5b60208082526013908201527215185cdac8191bd95cc81b9bdd08195e1a5cdd606a1b604082015260600190565b5f82518060208501845e5f920191825250919050565b602080825260149082015273115cd8dc9bddc81c99599d5b990819985a5b195960621b604082015260600190565b604081016138828285613406565b6001600160a01b039290921660209190910152919050565b634e487b7160e01b5f52603260045260245ffd5b60208082526018908201527f4f6e6c792063726561746f722063616e206f7065726174650000000000000000604082015260600190565b634e487b7160e01b5f52601160045260245ffd5b8082018082111561390c5761390c6138e5565b92915050565b601f82111561075557805f5260205f20601f840160051c810160208510156139375750805b601f840160051c820191505b81811015610b98575f8155600101613943565b815167ffffffffffffffff8111156139705761397061330f565b6139848161397e84546137d1565b84613912565b6020601f8211600181146139b6575f831561399f5750848201515b5f19600385901b1c1916600184901b178455610b98565b5f84815260208120601f198516915b828110156139e557878501518255602094850194600190920191016139c5565b5084821015613a0257868401515f19600387901b60f8161c191681555b50505050600190811b01905550565b5f60018201613a2257613a226138e5565b5060010190565b5f5f8354613a36816137d1565b600182168015613a4d5760018114613a6257613a8f565b60ff1983168652811515820286019350613a8f565b865f5260205f205f5b83811015613a8757815488820152600190910190602001613a6b565b505081860193505b509195945050505050565b828152604060208201525f613ab26040830184613296565b94935050505056fe4c15bbf33194d9c3d8bcb678f11efd3112f20ba2837209f1d04e622b9c50b68ea2646970667358221220ecde5ae2fd0f4f635d844215d0d8f75e870b69e196459557c2fbcda52319464864736f6c634300081e0033",
			"opcodes": "PUSH1 0x80 PUSH1 0x40 MSTORE CALLVALUE DUP1 ISZERO PUSH2 0xF JUMPI PUSH0 PUSH0 REVERT JUMPDEST POP PUSH1 0x40 MLOAD PUSH2 0x3F5E CODESIZE SUB DUP1 PUSH2 0x3F5E DUP4 CODECOPY DUP2 ADD PUSH1 0x40 DUP2 SWAP1 MSTORE PUSH2 0x2E SWAP2 PUSH2 0x2AF JUMP JUMPDEST PUSH1 0x3 DUP1 SLOAD PUSH1 0x1 PUSH1 0x1 PUSH1 0xA0 SHL SUB DUP1 DUP7 AND PUSH1 0x1 PUSH1 0x1 PUSH1 0xA0 SHL SUB NOT SWAP3 DUP4 AND OR SWAP1 SWAP3 SSTORE PUSH1 0x4 DUP1 SLOAD DUP6 DUP5 AND SWAP1 DUP4 AND OR DUP2 SSTORE PUSH1 0x5 DUP1 SLOAD SWAP4 DUP6 AND SWAP4 SWAP1 SWAP3 AND SWAP3 SWAP1 SWAP3 OR SWAP1 SSTORE PUSH0 PUSH1 0x2 DUP2 SWAP1 SSTORE PUSH1 0x40 DUP1 MLOAD DUP1 DUP3 ADD SWAP1 SWAP2 MSTORE SWAP2 DUP3 MSTORE PUSH4 0x77656233 PUSH1 0xE0 SHL PUSH1 0x20 DUP1 DUP5 ADD SWAP2 SWAP1 SWAP2 MSTORE PUSH1 0x1 SWAP2 DUP3 SWAP1 MSTORE MSTORE PUSH32 0xCC69885FDA6BCC1A4ACE058B4A62BF5E179EA78FD58A1CCD71C22CC9B688792F SWAP1 PUSH2 0xC2 SWAP1 DUP3 PUSH2 0x387 JUMP JUMPDEST POP PUSH1 0x40 DUP1 MLOAD DUP1 DUP3 ADD SWAP1 SWAP2 MSTORE PUSH1 0x5 DUP2 MSTORE PUSH5 0xAA925EAAB PUSH1 0xDB SHL PUSH1 0x20 DUP1 DUP4 ADD SWAP2 SWAP1 SWAP2 MSTORE PUSH1 0x2 PUSH0 MSTORE PUSH1 0x1 SWAP1 MSTORE PUSH32 0xD9D16D34FFB15BA3A3D852F0D403E2CE1D691FB54DE27AC87CD2F993F3EC330F SWAP1 PUSH2 0x117 SWAP1 DUP3 PUSH2 0x387 JUMP JUMPDEST POP PUSH1 0x40 DUP1 MLOAD DUP1 DUP3 ADD SWAP1 SWAP2 MSTORE PUSH1 0x10 DUP2 MSTORE PUSH16 0x26B0B935B2BA10283937B6B7BA34B7B7 PUSH1 0x81 SHL PUSH1 0x20 DUP1 DUP4 ADD SWAP2 SWAP1 SWAP2 MSTORE PUSH1 0x3 PUSH0 MSTORE PUSH1 0x1 SWAP1 MSTORE PUSH32 0x7DFE757ECD65CBD7922A9C0161E935DD7FDBCC0E999689C7D31633896B1FC60B SWAP1 PUSH2 0x177 SWAP1 DUP3 PUSH2 0x387 JUMP JUMPDEST POP PUSH1 0x40 DUP1 MLOAD DUP1 DUP3 ADD SWAP1 SWAP2 MSTORE PUSH1 0x12 DUP2 MSTORE PUSH18 0x21B7B73A32B73A10283937B23AB1BA34B7B7 PUSH1 0x71 SHL PUSH1 0x20 DUP1 DUP4 ADD SWAP2 SWAP1 SWAP2 MSTORE PUSH1 0x4 PUSH0 MSTORE PUSH1 0x1 SWAP1 MSTORE PUSH32 0xEDC95719E9A3B28DD8E80877CB5880A9BE7DE1A13FC8B05E7999683B6B567643 SWAP1 PUSH2 0x1D9 SWAP1 DUP3 PUSH2 0x387 JUMP JUMPDEST POP PUSH1 0x40 DUP1 MLOAD DUP1 DUP3 ADD SWAP1 SWAP2 MSTORE PUSH1 0xE DUP2 MSTORE PUSH14 0x4461746120416E616C7974696373 PUSH1 0x90 SHL PUSH1 0x20 DUP1 DUP4 ADD SWAP2 SWAP1 SWAP2 MSTORE PUSH1 0x5 PUSH0 MSTORE PUSH1 0x1 SWAP1 MSTORE PUSH32 0xE2689CD4A84E23AD2F564004F1C9013E9589D260BDE6380ABA3CA7E09E4DF40C SWAP1 PUSH2 0x237 SWAP1 DUP3 PUSH2 0x387 JUMP JUMPDEST POP PUSH1 0x40 DUP1 MLOAD DUP1 DUP3 ADD SWAP1 SWAP2 MSTORE PUSH1 0x5 DUP2 MSTORE PUSH5 0x27BA3432B9 PUSH1 0xD9 SHL PUSH1 0x20 DUP1 DUP4 ADD SWAP2 SWAP1 SWAP2 MSTORE PUSH0 DUP1 MSTORE PUSH1 0x1 SWAP1 MSTORE PUSH32 0xA6EEF7E35ABE7026729641147F7915573C7E97B47EFA546F5F6E3230263BCB49 SWAP1 PUSH2 0x28B SWAP1 DUP3 PUSH2 0x387 JUMP JUMPDEST POP POP POP POP PUSH2 0x441 JUMP JUMPDEST DUP1 MLOAD PUSH1 0x1 PUSH1 0x1 PUSH1 0xA0 SHL SUB DUP2 AND DUP2 EQ PUSH2 0x2AA JUMPI PUSH0 PUSH0 REVERT JUMPDEST SWAP2 SWAP1 POP JUMP JUMPDEST PUSH0 PUSH0 PUSH0 PUSH1 0x60 DUP5 DUP7 SUB SLT ISZERO PUSH2 0x2C1 JUMPI PUSH0 PUSH0 REVERT JUMPDEST PUSH2 0x2CA DUP5 PUSH2 0x294 JUMP JUMPDEST SWAP3 POP PUSH2 0x2D8 PUSH1 0x20 DUP6 ADD PUSH2 0x294 JUMP JUMPDEST SWAP2 POP PUSH2 0x2E6 PUSH1 0x40 DUP6 ADD PUSH2 0x294 JUMP JUMPDEST SWAP1 POP SWAP3 POP SWAP3 POP SWAP3 JUMP JUMPDEST PUSH4 0x4E487B71 PUSH1 0xE0 SHL PUSH0 MSTORE PUSH1 0x41 PUSH1 0x4 MSTORE PUSH1 0x24 PUSH0 REVERT JUMPDEST PUSH1 0x1 DUP2 DUP2 SHR SWAP1 DUP3 AND DUP1 PUSH2 0x317 JUMPI PUSH1 0x7F DUP3 AND SWAP2 POP JUMPDEST PUSH1 0x20 DUP3 LT DUP2 SUB PUSH2 0x335 JUMPI PUSH4 0x4E487B71 PUSH1 0xE0 SHL PUSH0 MSTORE PUSH1 0x22 PUSH1 0x4 MSTORE PUSH1 0x24 PUSH0 REVERT JUMPDEST POP SWAP2 SWAP1 POP JUMP JUMPDEST PUSH1 0x1F DUP3 GT ISZERO PUSH2 0x382 JUMPI DUP1 PUSH0 MSTORE PUSH1 0x20 PUSH0 KECCAK256 PUSH1 0x1F DUP5 ADD PUSH1 0x5 SHR DUP2 ADD PUSH1 0x20 DUP6 LT ISZERO PUSH2 0x360 JUMPI POP DUP1 JUMPDEST PUSH1 0x1F DUP5 ADD PUSH1 0x5 SHR DUP3 ADD SWAP2 POP JUMPDEST DUP2 DUP2 LT ISZERO PUSH2 0x37F JUMPI PUSH0 DUP2 SSTORE PUSH1 0x1 ADD PUSH2 0x36C JUMP JUMPDEST POP POP JUMPDEST POP POP POP JUMP JUMPDEST DUP2 MLOAD PUSH1 0x1 PUSH1 0x1 PUSH1 0x40 SHL SUB DUP2 GT ISZERO PUSH2 0x3A0 JUMPI PUSH2 0x3A0 PUSH2 0x2EF JUMP JUMPDEST PUSH2 0x3B4 DUP2 PUSH2 0x3AE DUP5 SLOAD PUSH2 0x303 JUMP JUMPDEST DUP5 PUSH2 0x33B JUMP JUMPDEST PUSH1 0x20 PUSH1 0x1F DUP3 GT PUSH1 0x1 DUP2 EQ PUSH2 0x3E6 JUMPI PUSH0 DUP4 ISZERO PUSH2 0x3CF JUMPI POP DUP5 DUP3 ADD MLOAD JUMPDEST PUSH0 NOT PUSH1 0x3 DUP6 SWAP1 SHL SHR NOT AND PUSH1 0x1 DUP5 SWAP1 SHL OR DUP5 SSTORE PUSH2 0x37F JUMP JUMPDEST PUSH0 DUP5 DUP2 MSTORE PUSH1 0x20 DUP2 KECCAK256 PUSH1 0x1F NOT DUP6 AND SWAP2 JUMPDEST DUP3 DUP2 LT ISZERO PUSH2 0x415 JUMPI DUP8 DUP6 ADD MLOAD DUP3 SSTORE PUSH1 0x20 SWAP5 DUP6 ADD SWAP5 PUSH1 0x1 SWAP1 SWAP3 ADD SWAP2 ADD PUSH2 0x3F5 JUMP JUMPDEST POP DUP5 DUP3 LT ISZERO PUSH2 0x432 JUMPI DUP7 DUP5 ADD MLOAD PUSH0 NOT PUSH1 0x3 DUP8 SWAP1 SHL PUSH1 0xF8 AND SHR NOT AND DUP2 SSTORE JUMPDEST POP POP POP POP PUSH1 0x1 SWAP1 DUP2 SHL ADD SWAP1 SSTORE POP JUMP JUMPDEST PUSH2 0x3B10 DUP1 PUSH2 0x44E PUSH0 CODECOPY PUSH0 RETURN INVALID PUSH1 0x80 PUSH1 0x40 MSTORE PUSH1 0x4 CALLDATASIZE LT PUSH2 0x131 JUMPI PUSH0 CALLDATALOAD PUSH1 0xE0 SHR DUP1 PUSH4 0x976217CD GT PUSH2 0xA8 JUMPI DUP1 PUSH4 0xAB4DE606 GT PUSH2 0x6D JUMPI DUP1 PUSH4 0xAB4DE606 EQ PUSH2 0x3AD JUMPI DUP1 PUSH4 0xB6CB58A5 EQ PUSH2 0x3CC JUMPI DUP1 PUSH4 0xCF3797D4 EQ PUSH2 0x3E1 JUMPI DUP1 PUSH4 0xE2FDCC17 EQ PUSH2 0x3F4 JUMPI DUP1 PUSH4 0xE5033376 EQ PUSH2 0x413 JUMPI DUP1 PUSH4 0xF1C2D0D9 EQ PUSH2 0x432 JUMPI PUSH0 PUSH0 REVERT JUMPDEST DUP1 PUSH4 0x976217CD EQ PUSH2 0x300 JUMPI DUP1 PUSH4 0x97D9C23E EQ PUSH2 0x32C JUMPI DUP1 PUSH4 0x982AE112 EQ PUSH2 0x34B JUMPI DUP1 PUSH4 0xA09E9C1D EQ PUSH2 0x36A JUMPI DUP1 PUSH4 0xA5BBE22B EQ PUSH2 0x389 JUMPI PUSH0 PUSH0 REVERT JUMPDEST DUP1 PUSH4 0x779900B4 GT PUSH2 0xF9 JUMPI DUP1 PUSH4 0x779900B4 EQ PUSH2 0x1E8 JUMPI DUP1 PUSH4 0x7869099C EQ PUSH2 0x209 JUMPI DUP1 PUSH4 0x7EEC20A8 EQ PUSH2 0x235 JUMPI DUP1 PUSH4 0x8D977672 EQ PUSH2 0x254 JUMPI DUP1 PUSH4 0x90CA80DF EQ PUSH2 0x28B JUMPI DUP1 PUSH4 0x964858FB EQ PUSH2 0x2C2 JUMPI PUSH0 PUSH0 REVERT JUMPDEST DUP1 PUSH4 0x16B6106E EQ PUSH2 0x135 JUMPI DUP1 PUSH4 0x23A43EC8 EQ PUSH2 0x16A JUMPI DUP1 PUSH4 0x29E5FB09 EQ PUSH2 0x18B JUMPI DUP1 PUSH4 0x59F01043 EQ PUSH2 0x1AA JUMPI DUP1 PUSH4 0x68E7F9F5 EQ PUSH2 0x1C9 JUMPI JUMPDEST PUSH0 PUSH0 REVERT JUMPDEST CALLVALUE DUP1 ISZERO PUSH2 0x140 JUMPI PUSH0 PUSH0 REVERT JUMPDEST POP PUSH2 0x154 PUSH2 0x14F CALLDATASIZE PUSH1 0x4 PUSH2 0x327F JUMP JUMPDEST PUSH2 0x451 JUMP JUMPDEST PUSH1 0x40 MLOAD PUSH2 0x161 SWAP2 SWAP1 PUSH2 0x32C4 JUMP JUMPDEST PUSH1 0x40 MLOAD DUP1 SWAP2 SUB SWAP1 RETURN JUMPDEST CALLVALUE DUP1 ISZERO PUSH2 0x175 JUMPI PUSH0 PUSH0 REVERT JUMPDEST POP PUSH2 0x189 PUSH2 0x184 CALLDATASIZE PUSH1 0x4 PUSH2 0x327F JUMP JUMPDEST PUSH2 0x4E8 JUMP JUMPDEST STOP JUMPDEST CALLVALUE DUP1 ISZERO PUSH2 0x196 JUMPI PUSH0 PUSH0 REVERT JUMPDEST POP PUSH2 0x189 PUSH2 0x1A5 CALLDATASIZE PUSH1 0x4 PUSH2 0x327F JUMP JUMPDEST PUSH2 0x75A JUMP JUMPDEST CALLVALUE DUP1 ISZERO PUSH2 0x1B5 JUMPI PUSH0 PUSH0 REVERT JUMPDEST POP PUSH2 0x189 PUSH2 0x1C4 CALLDATASIZE PUSH1 0x4 PUSH2 0x32DD JUMP JUMPDEST PUSH2 0x8BF JUMP JUMPDEST CALLVALUE DUP1 ISZERO PUSH2 0x1D4 JUMPI PUSH0 PUSH0 REVERT JUMPDEST POP PUSH2 0x189 PUSH2 0x1E3 CALLDATASIZE PUSH1 0x4 PUSH2 0x33AE JUMP JUMPDEST PUSH2 0xB9F JUMP JUMPDEST CALLVALUE DUP1 ISZERO PUSH2 0x1F3 JUMPI PUSH0 PUSH0 REVERT JUMPDEST POP PUSH2 0x1FC PUSH2 0xD9F JUMP JUMPDEST PUSH1 0x40 MLOAD PUSH2 0x161 SWAP2 SWAP1 PUSH2 0x357E JUMP JUMPDEST CALLVALUE DUP1 ISZERO PUSH2 0x214 JUMPI PUSH0 PUSH0 REVERT JUMPDEST POP PUSH2 0x228 PUSH2 0x223 CALLDATASIZE PUSH1 0x4 PUSH2 0x327F JUMP JUMPDEST PUSH2 0x1197 JUMP JUMPDEST PUSH1 0x40 MLOAD PUSH2 0x161 SWAP2 SWAP1 PUSH2 0x35E1 JUMP JUMPDEST CALLVALUE DUP1 ISZERO PUSH2 0x240 JUMPI PUSH0 PUSH0 REVERT JUMPDEST POP PUSH2 0x189 PUSH2 0x24F CALLDATASIZE PUSH1 0x4 PUSH2 0x327F JUMP JUMPDEST PUSH2 0x1231 JUMP JUMPDEST CALLVALUE DUP1 ISZERO PUSH2 0x25F JUMPI PUSH0 PUSH0 REVERT JUMPDEST POP PUSH2 0x273 PUSH2 0x26E CALLDATASIZE PUSH1 0x4 PUSH2 0x327F JUMP JUMPDEST PUSH2 0x14BE JUMP JUMPDEST PUSH1 0x40 MLOAD PUSH2 0x161 SWAP13 SWAP12 SWAP11 SWAP10 SWAP9 SWAP8 SWAP7 SWAP6 SWAP5 SWAP4 SWAP3 SWAP2 SWAP1 PUSH2 0x362C JUMP JUMPDEST CALLVALUE DUP1 ISZERO PUSH2 0x296 JUMPI PUSH0 PUSH0 REVERT JUMPDEST POP PUSH1 0x3 SLOAD PUSH2 0x2AA SWAP1 PUSH1 0x1 PUSH1 0x1 PUSH1 0xA0 SHL SUB AND DUP2 JUMP JUMPDEST PUSH1 0x40 MLOAD PUSH1 0x1 PUSH1 0x1 PUSH1 0xA0 SHL SUB SWAP1 SWAP2 AND DUP2 MSTORE PUSH1 0x20 ADD PUSH2 0x161 JUMP JUMPDEST CALLVALUE DUP1 ISZERO PUSH2 0x2CD JUMPI PUSH0 PUSH0 REVERT JUMPDEST POP PUSH2 0x2F0 PUSH2 0x2DC CALLDATASIZE PUSH1 0x4 PUSH2 0x327F JUMP JUMPDEST PUSH1 0x6 PUSH1 0x20 MSTORE PUSH0 SWAP1 DUP2 MSTORE PUSH1 0x40 SWAP1 KECCAK256 SLOAD PUSH1 0xFF AND DUP2 JUMP JUMPDEST PUSH1 0x40 MLOAD SWAP1 ISZERO ISZERO DUP2 MSTORE PUSH1 0x20 ADD PUSH2 0x161 JUMP JUMPDEST CALLVALUE DUP1 ISZERO PUSH2 0x30B JUMPI PUSH0 PUSH0 REVERT JUMPDEST POP PUSH2 0x31F PUSH2 0x31A CALLDATASIZE PUSH1 0x4 PUSH2 0x327F JUMP JUMPDEST PUSH2 0x174A JUMP JUMPDEST PUSH1 0x40 MLOAD PUSH2 0x161 SWAP2 SWAP1 PUSH2 0x36E3 JUMP JUMPDEST CALLVALUE DUP1 ISZERO PUSH2 0x337 JUMPI PUSH0 PUSH0 REVERT JUMPDEST POP PUSH2 0x189 PUSH2 0x346 CALLDATASIZE PUSH1 0x4 PUSH2 0x327F JUMP JUMPDEST PUSH2 0x1AEF JUMP JUMPDEST CALLVALUE DUP1 ISZERO PUSH2 0x356 JUMPI PUSH0 PUSH0 REVERT JUMPDEST POP PUSH2 0x1FC PUSH2 0x365 CALLDATASIZE PUSH1 0x4 PUSH2 0x3710 JUMP JUMPDEST PUSH2 0x1E1D JUMP JUMPDEST CALLVALUE DUP1 ISZERO PUSH2 0x375 JUMPI PUSH0 PUSH0 REVERT JUMPDEST POP PUSH2 0x189 PUSH2 0x384 CALLDATASIZE PUSH1 0x4 PUSH2 0x327F JUMP JUMPDEST PUSH2 0x228F JUMP JUMPDEST CALLVALUE DUP1 ISZERO PUSH2 0x394 JUMPI PUSH0 PUSH0 REVERT JUMPDEST POP PUSH2 0x39F PUSH3 0x15180 DUP2 JUMP JUMPDEST PUSH1 0x40 MLOAD SWAP1 DUP2 MSTORE PUSH1 0x20 ADD PUSH2 0x161 JUMP JUMPDEST CALLVALUE DUP1 ISZERO PUSH2 0x3B8 JUMPI PUSH0 PUSH0 REVERT JUMPDEST POP PUSH2 0x189 PUSH2 0x3C7 CALLDATASIZE PUSH1 0x4 PUSH2 0x3729 JUMP JUMPDEST PUSH2 0x247B JUMP JUMPDEST CALLVALUE DUP1 ISZERO PUSH2 0x3D7 JUMPI PUSH0 PUSH0 REVERT JUMPDEST POP PUSH2 0x39F PUSH1 0x2 SLOAD DUP2 JUMP JUMPDEST PUSH2 0x189 PUSH2 0x3EF CALLDATASIZE PUSH1 0x4 PUSH2 0x3753 JUMP JUMPDEST PUSH2 0x265A JUMP JUMPDEST CALLVALUE DUP1 ISZERO PUSH2 0x3FF JUMPI PUSH0 PUSH0 REVERT JUMPDEST POP PUSH1 0x4 SLOAD PUSH2 0x2AA SWAP1 PUSH1 0x1 PUSH1 0x1 PUSH1 0xA0 SHL SUB AND DUP2 JUMP JUMPDEST CALLVALUE DUP1 ISZERO PUSH2 0x41E JUMPI PUSH0 PUSH0 REVERT JUMPDEST POP PUSH2 0x189 PUSH2 0x42D CALLDATASIZE PUSH1 0x4 PUSH2 0x327F JUMP JUMPDEST PUSH2 0x2E3D JUMP JUMPDEST CALLVALUE DUP1 ISZERO PUSH2 0x43D JUMPI PUSH0 PUSH0 REVERT JUMPDEST POP PUSH1 0x5 SLOAD PUSH2 0x2AA SWAP1 PUSH1 0x1 PUSH1 0x1 PUSH1 0xA0 SHL SUB AND DUP2 JUMP JUMPDEST PUSH1 0x1 PUSH1 0x20 MSTORE PUSH0 SWAP1 DUP2 MSTORE PUSH1 0x40 SWAP1 KECCAK256 DUP1 SLOAD PUSH2 0x469 SWAP1 PUSH2 0x37D1 JUMP JUMPDEST DUP1 PUSH1 0x1F ADD PUSH1 0x20 DUP1 SWAP2 DIV MUL PUSH1 0x20 ADD PUSH1 0x40 MLOAD SWAP1 DUP2 ADD PUSH1 0x40 MSTORE DUP1 SWAP3 SWAP2 SWAP1 DUP2 DUP2 MSTORE PUSH1 0x20 ADD DUP3 DUP1 SLOAD PUSH2 0x495 SWAP1 PUSH2 0x37D1 JUMP JUMPDEST DUP1 ISZERO PUSH2 0x4E0 JUMPI DUP1 PUSH1 0x1F LT PUSH2 0x4B7 JUMPI PUSH2 0x100 DUP1 DUP4 SLOAD DIV MUL DUP4 MSTORE SWAP2 PUSH1 0x20 ADD SWAP2 PUSH2 0x4E0 JUMP JUMPDEST DUP3 ADD SWAP2 SWAP1 PUSH0 MSTORE PUSH1 0x20 PUSH0 KECCAK256 SWAP1 JUMPDEST DUP2 SLOAD DUP2 MSTORE SWAP1 PUSH1 0x1 ADD SWAP1 PUSH1 0x20 ADD DUP1 DUP4 GT PUSH2 0x4C3 JUMPI DUP3 SWAP1 SUB PUSH1 0x1F AND DUP3 ADD SWAP2 JUMPDEST POP POP POP POP POP DUP2 JUMP JUMPDEST PUSH0 DUP2 DUP2 MSTORE PUSH1 0x20 DUP2 SWAP1 MSTORE PUSH1 0x40 SWAP1 KECCAK256 SLOAD DUP2 SWAP1 DUP2 EQ PUSH2 0x51F JUMPI PUSH1 0x40 MLOAD PUSH3 0x461BCD PUSH1 0xE5 SHL DUP2 MSTORE PUSH1 0x4 ADD PUSH2 0x516 SWAP1 PUSH2 0x3803 JUMP JUMPDEST PUSH1 0x40 MLOAD DUP1 SWAP2 SUB SWAP1 REVERT JUMPDEST PUSH0 DUP3 DUP2 MSTORE PUSH1 0x20 DUP2 SWAP1 MSTORE PUSH1 0x40 SWAP1 KECCAK256 PUSH1 0xA DUP2 ADD SLOAD PUSH1 0xFF AND ISZERO PUSH2 0x577 JUMPI PUSH1 0x40 MLOAD PUSH3 0x461BCD PUSH1 0xE5 SHL DUP2 MSTORE PUSH1 0x20 PUSH1 0x4 DUP3 ADD MSTORE PUSH1 0x13 PUSH1 0x24 DUP3 ADD MSTORE PUSH19 0x15185CDAC8185B1C9958591E481B1BD8DAD959 PUSH1 0x6A SHL PUSH1 0x44 DUP3 ADD MSTORE PUSH1 0x64 ADD PUSH2 0x516 JUMP JUMPDEST PUSH1 0x4 PUSH1 0x6 DUP1 DUP4 ADD SLOAD PUSH1 0xFF AND SWAP1 DUP2 GT ISZERO PUSH2 0x592 JUMPI PUSH2 0x592 PUSH2 0x33F2 JUMP JUMPDEST EQ DUP1 PUSH2 0x5B4 JUMPI POP PUSH1 0x6 DUP2 DUP2 ADD SLOAD PUSH1 0xFF AND DUP2 DUP2 GT ISZERO PUSH2 0x5B2 JUMPI PUSH2 0x5B2 PUSH2 0x33F2 JUMP JUMPDEST EQ JUMPDEST DUP1 ISZERO PUSH2 0x5C3 JUMPI POP DUP1 PUSH1 0x9 ADD SLOAD TIMESTAMP GT JUMPDEST PUSH2 0x608 JUMPI PUSH1 0x40 MLOAD PUSH3 0x461BCD PUSH1 0xE5 SHL DUP2 MSTORE PUSH1 0x20 PUSH1 0x4 DUP3 ADD MSTORE PUSH1 0x16 PUSH1 0x24 DUP3 ADD MSTORE PUSH22 0x4E6F7420656C696769626C6520746F20736574746C65 PUSH1 0x50 SHL PUSH1 0x44 DUP3 ADD MSTORE PUSH1 0x64 ADD PUSH2 0x516 JUMP JUMPDEST PUSH1 0x4 PUSH1 0x6 DUP1 DUP4 ADD SLOAD PUSH1 0xFF AND SWAP1 DUP2 GT ISZERO PUSH2 0x623 JUMPI PUSH2 0x623 PUSH2 0x33F2 JUMP JUMPDEST SUB PUSH2 0x63C JUMPI PUSH1 0xA DUP2 ADD DUP1 SLOAD PUSH1 0xFF NOT AND PUSH1 0x1 OR SWAP1 SSTORE POP POP POP JUMP JUMPDEST PUSH1 0x6 DUP2 DUP2 ADD SLOAD PUSH1 0xFF AND DUP2 DUP2 GT ISZERO PUSH2 0x655 JUMPI PUSH2 0x655 PUSH2 0x33F2 JUMP JUMPDEST SUB PUSH2 0x755 JUMPI PUSH1 0x4 DUP1 SLOAD SWAP1 DUP3 ADD SLOAD PUSH1 0x40 MLOAD PUSH1 0x24 DUP2 ADD DUP7 SWAP1 MSTORE PUSH1 0x1 PUSH1 0x1 PUSH1 0xA0 SHL SUB SWAP2 DUP3 AND PUSH1 0x44 DUP3 ADD MSTORE PUSH0 SWAP3 SWAP2 SWAP1 SWAP2 AND SWAP1 PUSH1 0x64 ADD PUSH1 0x40 DUP1 MLOAD PUSH1 0x1F NOT DUP2 DUP5 SUB ADD DUP2 MSTORE SWAP2 DUP2 MSTORE PUSH1 0x20 DUP3 ADD DUP1 MLOAD PUSH1 0x1 PUSH1 0x1 PUSH1 0xE0 SHL SUB AND PUSH4 0x77969929 PUSH1 0xE0 SHL OR SWAP1 MSTORE MLOAD PUSH2 0x6BB SWAP2 SWAP1 PUSH2 0x3830 JUMP JUMPDEST PUSH0 PUSH1 0x40 MLOAD DUP1 DUP4 SUB DUP2 PUSH0 DUP7 GAS CALL SWAP2 POP POP RETURNDATASIZE DUP1 PUSH0 DUP2 EQ PUSH2 0x6F4 JUMPI PUSH1 0x40 MLOAD SWAP2 POP PUSH1 0x1F NOT PUSH1 0x3F RETURNDATASIZE ADD AND DUP3 ADD PUSH1 0x40 MSTORE RETURNDATASIZE DUP3 MSTORE RETURNDATASIZE PUSH0 PUSH1 0x20 DUP5 ADD RETURNDATACOPY PUSH2 0x6F9 JUMP JUMPDEST PUSH1 0x60 SWAP2 POP JUMPDEST POP POP SWAP1 POP DUP1 PUSH2 0x71A JUMPI PUSH1 0x40 MLOAD PUSH3 0x461BCD PUSH1 0xE5 SHL DUP2 MSTORE PUSH1 0x4 ADD PUSH2 0x516 SWAP1 PUSH2 0x3846 JUMP JUMPDEST PUSH1 0xA DUP3 ADD DUP1 SLOAD PUSH1 0xFF NOT AND PUSH1 0x1 OR SWAP1 SSTORE PUSH1 0x40 MLOAD DUP5 SWAP1 PUSH0 MLOAD PUSH1 0x20 PUSH2 0x3ABB PUSH0 CODECOPY PUSH0 MLOAD SWAP1 PUSH0 MSTORE SWAP1 PUSH2 0x74B SWAP1 PUSH1 0x6 SWAP1 PUSH0 SWAP1 PUSH2 0x3874 JUMP JUMPDEST PUSH1 0x40 MLOAD DUP1 SWAP2 SUB SWAP1 LOG2 POP JUMPDEST POP POP POP JUMP JUMPDEST PUSH0 DUP2 DUP2 MSTORE PUSH1 0x20 DUP2 SWAP1 MSTORE PUSH1 0x40 SWAP1 KECCAK256 SLOAD DUP2 SWAP1 DUP2 EQ PUSH2 0x788 JUMPI PUSH1 0x40 MLOAD PUSH3 0x461BCD PUSH1 0xE5 SHL DUP2 MSTORE PUSH1 0x4 ADD PUSH2 0x516 SWAP1 PUSH2 0x3803 JUMP JUMPDEST PUSH0 DUP3 DUP2 MSTORE PUSH1 0x20 DUP2 SWAP1 MSTORE PUSH1 0x40 SWAP1 KECCAK256 PUSH1 0x1 PUSH1 0x6 DUP1 DUP4 ADD SLOAD PUSH1 0xFF AND SWAP1 DUP2 GT ISZERO PUSH2 0x7B0 JUMPI PUSH2 0x7B0 PUSH2 0x33F2 JUMP JUMPDEST EQ PUSH2 0x808 JUMPI PUSH1 0x40 MLOAD PUSH3 0x461BCD PUSH1 0xE5 SHL DUP2 MSTORE PUSH1 0x20 PUSH1 0x4 DUP3 ADD MSTORE PUSH1 0x22 PUSH1 0x24 DUP3 ADD MSTORE PUSH32 0x5461736B206973206E6F74206F70656E20666F72207061727469636970617469 PUSH1 0x44 DUP3 ADD MSTORE PUSH2 0x37B7 PUSH1 0xF1 SHL PUSH1 0x64 DUP3 ADD MSTORE PUSH1 0x84 ADD PUSH2 0x516 JUMP JUMPDEST PUSH0 JUMPDEST PUSH1 0x8 DUP3 ADD SLOAD DUP2 LT ISZERO PUSH2 0x895 JUMPI CALLER PUSH1 0x1 PUSH1 0x1 PUSH1 0xA0 SHL SUB AND DUP3 PUSH1 0x8 ADD DUP3 DUP2 SLOAD DUP2 LT PUSH2 0x835 JUMPI PUSH2 0x835 PUSH2 0x389A JUMP JUMPDEST PUSH0 SWAP2 DUP3 MSTORE PUSH1 0x20 SWAP1 SWAP2 KECCAK256 ADD SLOAD PUSH1 0x1 PUSH1 0x1 PUSH1 0xA0 SHL SUB AND SUB PUSH2 0x88D JUMPI PUSH1 0x40 MLOAD PUSH3 0x461BCD PUSH1 0xE5 SHL DUP2 MSTORE PUSH1 0x20 PUSH1 0x4 DUP3 ADD MSTORE PUSH1 0x14 PUSH1 0x24 DUP3 ADD MSTORE PUSH20 0x105B1C9958591E481C185C9D1A58DA5C185D1959 PUSH1 0x62 SHL PUSH1 0x44 DUP3 ADD MSTORE PUSH1 0x64 ADD PUSH2 0x516 JUMP JUMPDEST PUSH1 0x1 ADD PUSH2 0x80A JUMP JUMPDEST POP PUSH1 0x8 ADD DUP1 SLOAD PUSH1 0x1 DUP2 ADD DUP3 SSTORE PUSH0 SWAP2 DUP3 MSTORE PUSH1 0x20 SWAP1 SWAP2 KECCAK256 ADD DUP1 SLOAD PUSH1 0x1 PUSH1 0x1 PUSH1 0xA0 SHL SUB NOT AND CALLER OR SWAP1 SSTORE POP POP JUMP JUMPDEST PUSH0 DUP3 DUP2 MSTORE PUSH1 0x20 DUP2 SWAP1 MSTORE PUSH1 0x40 SWAP1 KECCAK256 SLOAD DUP3 SWAP1 DUP2 EQ PUSH2 0x8ED JUMPI PUSH1 0x40 MLOAD PUSH3 0x461BCD PUSH1 0xE5 SHL DUP2 MSTORE PUSH1 0x4 ADD PUSH2 0x516 SWAP1 PUSH2 0x3803 JUMP JUMPDEST PUSH0 DUP4 DUP2 MSTORE PUSH1 0x20 DUP2 SWAP1 MSTORE PUSH1 0x40 SWAP1 KECCAK256 PUSH1 0x4 ADD SLOAD DUP4 SWAP1 PUSH1 0x1 PUSH1 0x1 PUSH1 0xA0 SHL SUB AND CALLER EQ PUSH2 0x927 JUMPI PUSH1 0x40 MLOAD PUSH3 0x461BCD PUSH1 0xE5 SHL DUP2 MSTORE PUSH1 0x4 ADD PUSH2 0x516 SWAP1 PUSH2 0x38AE JUMP JUMPDEST PUSH0 DUP5 DUP2 MSTORE PUSH1 0x20 DUP2 DUP2 MSTORE PUSH1 0x40 DUP1 DUP4 KECCAK256 PUSH1 0x6 SWAP1 SWAP3 MSTORE SWAP1 SWAP2 KECCAK256 SLOAD PUSH1 0xFF AND PUSH2 0x98D JUMPI PUSH1 0x40 MLOAD PUSH3 0x461BCD PUSH1 0xE5 SHL DUP2 MSTORE PUSH1 0x20 PUSH1 0x4 DUP3 ADD MSTORE PUSH1 0x1D PUSH1 0x24 DUP3 ADD MSTORE PUSH32 0x5461736B20766572696669636174696F6E206E6F742070656E64696E67000000 PUSH1 0x44 DUP3 ADD MSTORE PUSH1 0x64 ADD PUSH2 0x516 JUMP JUMPDEST PUSH1 0x3 PUSH1 0x6 DUP1 DUP4 ADD SLOAD PUSH1 0xFF AND SWAP1 DUP2 GT ISZERO PUSH2 0x9A8 JUMPI PUSH2 0x9A8 PUSH2 0x33F2 JUMP JUMPDEST EQ PUSH2 0x9FF JUMPI PUSH1 0x40 MLOAD PUSH3 0x461BCD PUSH1 0xE5 SHL DUP2 MSTORE PUSH1 0x20 PUSH1 0x4 DUP3 ADD MSTORE PUSH1 0x21 PUSH1 0x24 DUP3 ADD MSTORE PUSH32 0x5461736B206E6F742070656E64696E6720656D706C6F79657220636F6E666972 PUSH1 0x44 DUP3 ADD MSTORE PUSH1 0x6D PUSH1 0xF8 SHL PUSH1 0x64 DUP3 ADD MSTORE PUSH1 0x84 ADD PUSH2 0x516 JUMP JUMPDEST PUSH2 0xA0C PUSH3 0x15180 TIMESTAMP PUSH2 0x38F9 JUMP JUMPDEST PUSH1 0x9 DUP3 ADD SSTORE PUSH1 0xA DUP2 ADD DUP1 SLOAD PUSH1 0xFF NOT AND SWAP1 SSTORE DUP4 ISZERO PUSH2 0xB60 JUMPI PUSH1 0x6 DUP2 ADD DUP1 SLOAD PUSH1 0xFF NOT AND PUSH1 0x4 SWAP1 DUP2 OR SWAP2 DUP3 SWAP1 SSTORE SLOAD PUSH1 0x40 MLOAD PUSH1 0x24 DUP2 ADD DUP9 SWAP1 MSTORE PUSH1 0x1 PUSH1 0x1 PUSH1 0xA0 SHL SUB PUSH2 0x100 SWAP1 SWAP4 DIV DUP4 AND PUSH1 0x44 DUP3 ADD MSTORE PUSH0 SWAP3 SWAP1 SWAP2 AND SWAP1 PUSH1 0x64 ADD PUSH1 0x40 DUP1 MLOAD PUSH1 0x1F NOT DUP2 DUP5 SUB ADD DUP2 MSTORE SWAP2 DUP2 MSTORE PUSH1 0x20 DUP3 ADD DUP1 MLOAD PUSH1 0x1 PUSH1 0x1 PUSH1 0xE0 SHL SUB AND PUSH4 0x1AF23A59 PUSH1 0xE0 SHL OR SWAP1 MSTORE MLOAD PUSH2 0xA94 SWAP2 SWAP1 PUSH2 0x3830 JUMP JUMPDEST PUSH0 PUSH1 0x40 MLOAD DUP1 DUP4 SUB DUP2 PUSH0 DUP7 GAS CALL SWAP2 POP POP RETURNDATASIZE DUP1 PUSH0 DUP2 EQ PUSH2 0xACD JUMPI PUSH1 0x40 MLOAD SWAP2 POP PUSH1 0x1F NOT PUSH1 0x3F RETURNDATASIZE ADD AND DUP3 ADD PUSH1 0x40 MSTORE RETURNDATASIZE DUP3 MSTORE RETURNDATASIZE PUSH0 PUSH1 0x20 DUP5 ADD RETURNDATACOPY PUSH2 0xAD2 JUMP JUMPDEST PUSH1 0x60 SWAP2 POP JUMPDEST POP POP SWAP1 POP DUP1 PUSH2 0xB1B JUMPI PUSH1 0x40 MLOAD PUSH3 0x461BCD PUSH1 0xE5 SHL DUP2 MSTORE PUSH1 0x20 PUSH1 0x4 DUP3 ADD MSTORE PUSH1 0x15 PUSH1 0x24 DUP3 ADD MSTORE PUSH21 0x115CD8DC9BDDC81C995B19585CD94819985A5B1959 PUSH1 0x5A SHL PUSH1 0x44 DUP3 ADD MSTORE PUSH1 0x64 ADD PUSH2 0x516 JUMP JUMPDEST DUP6 PUSH0 MLOAD PUSH1 0x20 PUSH2 0x3ABB PUSH0 CODECOPY PUSH0 MLOAD SWAP1 PUSH0 MSTORE PUSH1 0x4 DUP5 PUSH1 0x6 ADD PUSH1 0x1 SWAP1 SLOAD SWAP1 PUSH2 0x100 EXP SWAP1 DIV PUSH1 0x1 PUSH1 0x1 PUSH1 0xA0 SHL SUB AND PUSH1 0x40 MLOAD PUSH2 0xB52 SWAP3 SWAP2 SWAP1 PUSH2 0x3874 JUMP JUMPDEST PUSH1 0x40 MLOAD DUP1 SWAP2 SUB SWAP1 LOG2 POP PUSH2 0xB98 JUMP JUMPDEST PUSH1 0x6 DUP2 DUP2 ADD DUP1 SLOAD PUSH1 0xFF NOT AND DUP3 OR SWAP1 SSTORE PUSH1 0x40 MLOAD DUP7 SWAP2 PUSH0 MLOAD PUSH1 0x20 PUSH2 0x3ABB PUSH0 CODECOPY PUSH0 MLOAD SWAP1 PUSH0 MSTORE SWAP2 PUSH2 0xB8F SWAP2 SWAP1 PUSH0 SWAP1 PUSH2 0x3874 JUMP JUMPDEST PUSH1 0x40 MLOAD DUP1 SWAP2 SUB SWAP1 LOG2 JUMPDEST POP POP POP POP POP JUMP JUMPDEST PUSH0 DUP3 DUP2 MSTORE PUSH1 0x20 DUP2 SWAP1 MSTORE PUSH1 0x40 SWAP1 KECCAK256 SLOAD DUP3 SWAP1 DUP2 EQ PUSH2 0xBCD JUMPI PUSH1 0x40 MLOAD PUSH3 0x461BCD PUSH1 0xE5 SHL DUP2 MSTORE PUSH1 0x4 ADD PUSH2 0x516 SWAP1 PUSH2 0x3803 JUMP JUMPDEST PUSH0 DUP4 DUP2 MSTORE PUSH1 0x20 DUP2 SWAP1 MSTORE PUSH1 0x40 SWAP1 KECCAK256 PUSH1 0x6 DUP2 ADD SLOAD PUSH2 0x100 SWAP1 DIV PUSH1 0x1 PUSH1 0x1 PUSH1 0xA0 SHL SUB AND CALLER EQ PUSH2 0xC47 JUMPI PUSH1 0x40 MLOAD PUSH3 0x461BCD PUSH1 0xE5 SHL DUP2 MSTORE PUSH1 0x20 PUSH1 0x4 DUP3 ADD MSTORE PUSH1 0x24 DUP1 DUP3 ADD MSTORE PUSH32 0x4F6E6C792077696E6E65722063616E2072657175657374207665726966696361 PUSH1 0x44 DUP3 ADD MSTORE PUSH4 0x3A34B7B7 PUSH1 0xE1 SHL PUSH1 0x64 DUP3 ADD MSTORE PUSH1 0x84 ADD PUSH2 0x516 JUMP JUMPDEST PUSH1 0x2 PUSH1 0x6 DUP1 DUP4 ADD SLOAD PUSH1 0xFF AND SWAP1 DUP2 GT ISZERO PUSH2 0xC62 JUMPI PUSH2 0xC62 PUSH2 0x33F2 JUMP JUMPDEST EQ PUSH2 0xCAF JUMPI PUSH1 0x40 MLOAD PUSH3 0x461BCD PUSH1 0xE5 SHL DUP2 MSTORE PUSH1 0x20 PUSH1 0x4 DUP3 ADD DUP2 SWAP1 MSTORE PUSH1 0x24 DUP3 ADD MSTORE PUSH32 0x5461736B206973206E6F7420696E20496E50726F677265737320737461747573 PUSH1 0x44 DUP3 ADD MSTORE PUSH1 0x64 ADD PUSH2 0x516 JUMP JUMPDEST PUSH0 DUP5 DUP2 MSTORE PUSH1 0x6 PUSH1 0x20 MSTORE PUSH1 0x40 SWAP1 KECCAK256 SLOAD PUSH1 0xFF AND ISZERO PUSH2 0xD0D JUMPI PUSH1 0x40 MLOAD PUSH3 0x461BCD PUSH1 0xE5 SHL DUP2 MSTORE PUSH1 0x20 PUSH1 0x4 DUP3 ADD MSTORE PUSH1 0x1C PUSH1 0x24 DUP3 ADD MSTORE PUSH32 0x566572696669636174696F6E20616C72656164792070656E64696E6700000000 PUSH1 0x44 DUP3 ADD MSTORE PUSH1 0x64 ADD PUSH2 0x516 JUMP JUMPDEST PUSH0 DUP4 MLOAD GT PUSH2 0xD5D JUMPI PUSH1 0x40 MLOAD PUSH3 0x461BCD PUSH1 0xE5 SHL DUP2 MSTORE PUSH1 0x20 PUSH1 0x4 DUP3 ADD MSTORE PUSH1 0x1E PUSH1 0x24 DUP3 ADD MSTORE PUSH32 0x436F6D706C6574696F6E2055524C2063616E6E6F7420626520656D7074790000 PUSH1 0x44 DUP3 ADD MSTORE PUSH1 0x64 ADD PUSH2 0x516 JUMP JUMPDEST PUSH1 0x3 DUP2 ADD PUSH2 0xD6B DUP5 DUP3 PUSH2 0x3956 JUMP JUMPDEST POP PUSH1 0x6 DUP2 ADD DUP1 SLOAD PUSH1 0x3 SWAP2 SWAP1 PUSH1 0xFF NOT AND PUSH1 0x1 DUP4 MUL OR SWAP1 SSTORE POP POP POP PUSH0 SWAP2 DUP3 MSTORE POP PUSH1 0x6 PUSH1 0x20 MSTORE PUSH1 0x40 SWAP1 KECCAK256 DUP1 SLOAD PUSH1 0xFF NOT AND PUSH1 0x1 OR SWAP1 SSTORE JUMP JUMPDEST PUSH1 0x60 PUSH0 PUSH1 0x2 SLOAD PUSH8 0xFFFFFFFFFFFFFFFF DUP2 GT ISZERO PUSH2 0xDBD JUMPI PUSH2 0xDBD PUSH2 0x330F JUMP JUMPDEST PUSH1 0x40 MLOAD SWAP1 DUP1 DUP3 MSTORE DUP1 PUSH1 0x20 MUL PUSH1 0x20 ADD DUP3 ADD PUSH1 0x40 MSTORE DUP1 ISZERO PUSH2 0xDF6 JUMPI DUP2 PUSH1 0x20 ADD JUMPDEST PUSH2 0xDE3 PUSH2 0x312E JUMP JUMPDEST DUP2 MSTORE PUSH1 0x20 ADD SWAP1 PUSH1 0x1 SWAP1 SUB SWAP1 DUP2 PUSH2 0xDDB JUMPI SWAP1 POP JUMPDEST POP SWAP1 POP PUSH0 JUMPDEST PUSH1 0x2 SLOAD DUP2 LT ISZERO PUSH2 0x1191 JUMPI PUSH0 DUP2 DUP2 MSTORE PUSH1 0x20 DUP2 DUP2 MSTORE PUSH1 0x40 SWAP2 DUP3 SWAP1 KECCAK256 DUP3 MLOAD PUSH2 0x1A0 DUP2 ADD SWAP1 SWAP4 MSTORE DUP1 SLOAD DUP4 MSTORE PUSH1 0x1 DUP2 ADD DUP1 SLOAD SWAP2 SWAP3 DUP5 ADD SWAP2 PUSH2 0xE36 SWAP1 PUSH2 0x37D1 JUMP JUMPDEST DUP1 PUSH1 0x1F ADD PUSH1 0x20 DUP1 SWAP2 DIV MUL PUSH1 0x20 ADD PUSH1 0x40 MLOAD SWAP1 DUP2 ADD PUSH1 0x40 MSTORE DUP1 SWAP3 SWAP2 SWAP1 DUP2 DUP2 MSTORE PUSH1 0x20 ADD DUP3 DUP1 SLOAD PUSH2 0xE62 SWAP1 PUSH2 0x37D1 JUMP JUMPDEST DUP1 ISZERO PUSH2 0xEAD JUMPI DUP1 PUSH1 0x1F LT PUSH2 0xE84 JUMPI PUSH2 0x100 DUP1 DUP4 SLOAD DIV MUL DUP4 MSTORE SWAP2 PUSH1 0x20 ADD SWAP2 PUSH2 0xEAD JUMP JUMPDEST DUP3 ADD SWAP2 SWAP1 PUSH0 MSTORE PUSH1 0x20 PUSH0 KECCAK256 SWAP1 JUMPDEST DUP2 SLOAD DUP2 MSTORE SWAP1 PUSH1 0x1 ADD SWAP1 PUSH1 0x20 ADD DUP1 DUP4 GT PUSH2 0xE90 JUMPI DUP3 SWAP1 SUB PUSH1 0x1F AND DUP3 ADD SWAP2 JUMPDEST POP POP POP POP POP DUP2 MSTORE PUSH1 0x20 ADD PUSH1 0x2 DUP3 ADD DUP1 SLOAD PUSH2 0xEC6 SWAP1 PUSH2 0x37D1 JUMP JUMPDEST DUP1 PUSH1 0x1F ADD PUSH1 0x20 DUP1 SWAP2 DIV MUL PUSH1 0x20 ADD PUSH1 0x40 MLOAD SWAP1 DUP2 ADD PUSH1 0x40 MSTORE DUP1 SWAP3 SWAP2 SWAP1 DUP2 DUP2 MSTORE PUSH1 0x20 ADD DUP3 DUP1 SLOAD PUSH2 0xEF2 SWAP1 PUSH2 0x37D1 JUMP JUMPDEST DUP1 ISZERO PUSH2 0xF3D JUMPI DUP1 PUSH1 0x1F LT PUSH2 0xF14 JUMPI PUSH2 0x100 DUP1 DUP4 SLOAD DIV MUL DUP4 MSTORE SWAP2 PUSH1 0x20 ADD SWAP2 PUSH2 0xF3D JUMP JUMPDEST DUP3 ADD SWAP2 SWAP1 PUSH0 MSTORE PUSH1 0x20 PUSH0 KECCAK256 SWAP1 JUMPDEST DUP2 SLOAD DUP2 MSTORE SWAP1 PUSH1 0x1 ADD SWAP1 PUSH1 0x20 ADD DUP1 DUP4 GT PUSH2 0xF20 JUMPI DUP3 SWAP1 SUB PUSH1 0x1F AND DUP3 ADD SWAP2 JUMPDEST POP POP POP POP POP DUP2 MSTORE PUSH1 0x20 ADD PUSH1 0x3 DUP3 ADD DUP1 SLOAD PUSH2 0xF56 SWAP1 PUSH2 0x37D1 JUMP JUMPDEST DUP1 PUSH1 0x1F ADD PUSH1 0x20 DUP1 SWAP2 DIV MUL PUSH1 0x20 ADD PUSH1 0x40 MLOAD SWAP1 DUP2 ADD PUSH1 0x40 MSTORE DUP1 SWAP3 SWAP2 SWAP1 DUP2 DUP2 MSTORE PUSH1 0x20 ADD DUP3 DUP1 SLOAD PUSH2 0xF82 SWAP1 PUSH2 0x37D1 JUMP JUMPDEST DUP1 ISZERO PUSH2 0xFCD JUMPI DUP1 PUSH1 0x1F LT PUSH2 0xFA4 JUMPI PUSH2 0x100 DUP1 DUP4 SLOAD DIV MUL DUP4 MSTORE SWAP2 PUSH1 0x20 ADD SWAP2 PUSH2 0xFCD JUMP JUMPDEST DUP3 ADD SWAP2 SWAP1 PUSH0 MSTORE PUSH1 0x20 PUSH0 KECCAK256 SWAP1 JUMPDEST DUP2 SLOAD DUP2 MSTORE SWAP1 PUSH1 0x1 ADD SWAP1 PUSH1 0x20 ADD DUP1 DUP4 GT PUSH2 0xFB0 JUMPI DUP3 SWAP1 SUB PUSH1 0x1F AND DUP3 ADD SWAP2 JUMPDEST POP POP POP SWAP2 DUP4 MSTORE POP POP PUSH1 0x4 DUP3 ADD SLOAD PUSH1 0x1 PUSH1 0x1 PUSH1 0xA0 SHL SUB AND PUSH1 0x20 DUP3 ADD MSTORE PUSH1 0x5 DUP3 ADD SLOAD PUSH1 0x40 DUP3 ADD MSTORE PUSH1 0x6 DUP1 DUP4 ADD SLOAD PUSH1 0x60 SWAP1 SWAP3 ADD SWAP2 PUSH1 0xFF AND SWAP1 DUP2 GT ISZERO PUSH2 0x1011 JUMPI PUSH2 0x1011 PUSH2 0x33F2 JUMP JUMPDEST PUSH1 0x6 DUP2 GT ISZERO PUSH2 0x1022 JUMPI PUSH2 0x1022 PUSH2 0x33F2 JUMP JUMPDEST DUP2 MSTORE PUSH1 0x20 ADD PUSH1 0x6 DUP3 ADD PUSH1 0x1 SWAP1 SLOAD SWAP1 PUSH2 0x100 EXP SWAP1 DIV PUSH1 0x1 PUSH1 0x1 PUSH1 0xA0 SHL SUB AND PUSH1 0x1 PUSH1 0x1 PUSH1 0xA0 SHL SUB AND PUSH1 0x1 PUSH1 0x1 PUSH1 0xA0 SHL SUB AND DUP2 MSTORE PUSH1 0x20 ADD PUSH1 0x7 DUP3 ADD SLOAD DUP2 MSTORE PUSH1 0x20 ADD PUSH1 0x8 DUP3 ADD DUP1 SLOAD DUP1 PUSH1 0x20 MUL PUSH1 0x20 ADD PUSH1 0x40 MLOAD SWAP1 DUP2 ADD PUSH1 0x40 MSTORE DUP1 SWAP3 SWAP2 SWAP1 DUP2 DUP2 MSTORE PUSH1 0x20 ADD DUP3 DUP1 SLOAD DUP1 ISZERO PUSH2 0x10B6 JUMPI PUSH1 0x20 MUL DUP3 ADD SWAP2 SWAP1 PUSH0 MSTORE PUSH1 0x20 PUSH0 KECCAK256 SWAP1 JUMPDEST DUP2 SLOAD PUSH1 0x1 PUSH1 0x1 PUSH1 0xA0 SHL SUB AND DUP2 MSTORE PUSH1 0x1 SWAP1 SWAP2 ADD SWAP1 PUSH1 0x20 ADD DUP1 DUP4 GT PUSH2 0x1098 JUMPI JUMPDEST POP POP POP SWAP2 DUP4 MSTORE POP POP PUSH1 0x9 DUP3 ADD SLOAD PUSH1 0x20 DUP3 ADD MSTORE PUSH1 0xA DUP3 ADD SLOAD PUSH1 0xFF AND ISZERO ISZERO PUSH1 0x40 DUP3 ADD MSTORE PUSH1 0xB DUP3 ADD DUP1 SLOAD PUSH1 0x60 SWAP1 SWAP3 ADD SWAP2 PUSH2 0x10EC SWAP1 PUSH2 0x37D1 JUMP JUMPDEST DUP1 PUSH1 0x1F ADD PUSH1 0x20 DUP1 SWAP2 DIV MUL PUSH1 0x20 ADD PUSH1 0x40 MLOAD SWAP1 DUP2 ADD PUSH1 0x40 MSTORE DUP1 SWAP3 SWAP2 SWAP1 DUP2 DUP2 MSTORE PUSH1 0x20 ADD DUP3 DUP1 SLOAD PUSH2 0x1118 SWAP1 PUSH2 0x37D1 JUMP JUMPDEST DUP1 ISZERO PUSH2 0x1163 JUMPI DUP1 PUSH1 0x1F LT PUSH2 0x113A JUMPI PUSH2 0x100 DUP1 DUP4 SLOAD DIV MUL DUP4 MSTORE SWAP2 PUSH1 0x20 ADD SWAP2 PUSH2 0x1163 JUMP JUMPDEST DUP3 ADD SWAP2 SWAP1 PUSH0 MSTORE PUSH1 0x20 PUSH0 KECCAK256 SWAP1 JUMPDEST DUP2 SLOAD DUP2 MSTORE SWAP1 PUSH1 0x1 ADD SWAP1 PUSH1 0x20 ADD DUP1 DUP4 GT PUSH2 0x1146 JUMPI DUP3 SWAP1 SUB PUSH1 0x1F AND DUP3 ADD SWAP2 JUMPDEST POP POP POP POP POP DUP2 MSTORE POP POP DUP3 DUP3 DUP2 MLOAD DUP2 LT PUSH2 0x117E JUMPI PUSH2 0x117E PUSH2 0x389A JUMP JUMPDEST PUSH1 0x20 SWAP1 DUP2 MUL SWAP2 SWAP1 SWAP2 ADD ADD MSTORE PUSH1 0x1 ADD PUSH2 0xDFB JUMP JUMPDEST POP SWAP2 SWAP1 POP JUMP JUMPDEST PUSH0 DUP2 DUP2 MSTORE PUSH1 0x20 DUP2 SWAP1 MSTORE PUSH1 0x40 SWAP1 KECCAK256 SLOAD PUSH1 0x60 SWAP1 DUP3 SWAP1 DUP2 EQ PUSH2 0x11C8 JUMPI PUSH1 0x40 MLOAD PUSH3 0x461BCD PUSH1 0xE5 SHL DUP2 MSTORE PUSH1 0x4 ADD PUSH2 0x516 SWAP1 PUSH2 0x3803 JUMP JUMPDEST PUSH0 DUP4 DUP2 MSTORE PUSH1 0x20 DUP2 DUP2 MSTORE PUSH1 0x40 SWAP2 DUP3 SWAP1 KECCAK256 PUSH1 0x8 ADD DUP1 SLOAD DUP4 MLOAD DUP2 DUP5 MUL DUP2 ADD DUP5 ADD SWAP1 SWAP5 MSTORE DUP1 DUP5 MSTORE SWAP1 SWAP2 DUP4 ADD DUP3 DUP3 DUP1 ISZERO PUSH2 0x1224 JUMPI PUSH1 0x20 MUL DUP3 ADD SWAP2 SWAP1 PUSH0 MSTORE PUSH1 0x20 PUSH0 KECCAK256 SWAP1 JUMPDEST DUP2 SLOAD PUSH1 0x1 PUSH1 0x1 PUSH1 0xA0 SHL SUB AND DUP2 MSTORE PUSH1 0x1 SWAP1 SWAP2 ADD SWAP1 PUSH1 0x20 ADD DUP1 DUP4 GT PUSH2 0x1206 JUMPI JUMPDEST POP POP POP POP POP SWAP2 POP POP SWAP2 SWAP1 POP JUMP JUMPDEST PUSH0 DUP2 DUP2 MSTORE PUSH1 0x20 DUP2 SWAP1 MSTORE PUSH1 0x40 SWAP1 KECCAK256 SLOAD DUP2 SWAP1 DUP2 EQ PUSH2 0x125F JUMPI PUSH1 0x40 MLOAD PUSH3 0x461BCD PUSH1 0xE5 SHL DUP2 MSTORE PUSH1 0x4 ADD PUSH2 0x516 SWAP1 PUSH2 0x3803 JUMP JUMPDEST PUSH0 DUP3 DUP2 MSTORE PUSH1 0x20 DUP2 SWAP1 MSTORE PUSH1 0x40 SWAP1 KECCAK256 PUSH1 0x4 ADD SLOAD DUP3 SWAP1 PUSH1 0x1 PUSH1 0x1 PUSH1 0xA0 SHL SUB AND CALLER EQ PUSH2 0x1299 JUMPI PUSH1 0x40 MLOAD PUSH3 0x461BCD PUSH1 0xE5 SHL DUP2 MSTORE PUSH1 0x4 ADD PUSH2 0x516 SWAP1 PUSH2 0x38AE JUMP JUMPDEST PUSH0 DUP4 DUP2 MSTORE PUSH1 0x20 DUP2 SWAP1 MSTORE PUSH1 0x40 DUP2 KECCAK256 SWAP1 PUSH1 0x6 DUP1 DUP4 ADD SLOAD PUSH1 0xFF AND SWAP1 DUP2 GT ISZERO PUSH2 0x12C0 JUMPI PUSH2 0x12C0 PUSH2 0x33F2 JUMP JUMPDEST EQ DUP1 PUSH2 0x12E4 JUMPI POP PUSH1 0x1 PUSH1 0x6 DUP1 DUP4 ADD SLOAD PUSH1 0xFF AND SWAP1 DUP2 GT ISZERO PUSH2 0x12E2 JUMPI PUSH2 0x12E2 PUSH2 0x33F2 JUMP JUMPDEST EQ JUMPDEST PUSH2 0x1330 JUMPI PUSH1 0x40 MLOAD PUSH3 0x461BCD PUSH1 0xE5 SHL DUP2 MSTORE PUSH1 0x20 PUSH1 0x4 DUP3 ADD MSTORE PUSH1 0x18 PUSH1 0x24 DUP3 ADD MSTORE PUSH32 0x5461736B2063616E6E6F742062652063616E63656C6C65640000000000000000 PUSH1 0x44 DUP3 ADD MSTORE PUSH1 0x64 ADD PUSH2 0x516 JUMP JUMPDEST PUSH1 0x4 DUP1 SLOAD SWAP1 DUP3 ADD SLOAD PUSH1 0x40 MLOAD PUSH1 0x24 DUP2 ADD DUP8 SWAP1 MSTORE PUSH1 0x1 PUSH1 0x1 PUSH1 0xA0 SHL SUB SWAP2 DUP3 AND PUSH1 0x44 DUP3 ADD MSTORE PUSH0 SWAP3 SWAP2 SWAP1 SWAP2 AND SWAP1 PUSH1 0x64 ADD PUSH1 0x40 DUP1 MLOAD PUSH1 0x1F NOT DUP2 DUP5 SUB ADD DUP2 MSTORE SWAP2 DUP2 MSTORE PUSH1 0x20 DUP3 ADD DUP1 MLOAD PUSH1 0x1 PUSH1 0x1 PUSH1 0xE0 SHL SUB AND PUSH4 0x77969929 PUSH1 0xE0 SHL OR SWAP1 MSTORE MLOAD PUSH2 0x1391 SWAP2 SWAP1 PUSH2 0x3830 JUMP JUMPDEST PUSH0 PUSH1 0x40 MLOAD DUP1 DUP4 SUB DUP2 PUSH0 DUP7 GAS CALL SWAP2 POP POP RETURNDATASIZE DUP1 PUSH0 DUP2 EQ PUSH2 0x13CA JUMPI PUSH1 0x40 MLOAD SWAP2 POP PUSH1 0x1F NOT PUSH1 0x3F RETURNDATASIZE ADD AND DUP3 ADD PUSH1 0x40 MSTORE RETURNDATASIZE DUP3 MSTORE RETURNDATASIZE PUSH0 PUSH1 0x20 DUP5 ADD RETURNDATACOPY PUSH2 0x13CF JUMP JUMPDEST PUSH1 0x60 SWAP2 POP JUMPDEST POP POP SWAP1 POP DUP1 PUSH2 0x13F0 JUMPI PUSH1 0x40 MLOAD PUSH3 0x461BCD PUSH1 0xE5 SHL DUP2 MSTORE PUSH1 0x4 ADD PUSH2 0x516 SWAP1 PUSH2 0x3846 JUMP JUMPDEST PUSH0 DUP6 DUP2 MSTORE PUSH1 0x20 DUP2 SWAP1 MSTORE PUSH1 0x40 DUP2 KECCAK256 DUP2 DUP2 SSTORE SWAP1 PUSH2 0x140E PUSH1 0x1 DUP4 ADD DUP3 PUSH2 0x31B3 JUMP JUMPDEST PUSH2 0x141B PUSH1 0x2 DUP4 ADD PUSH0 PUSH2 0x31B3 JUMP JUMPDEST PUSH2 0x1428 PUSH1 0x3 DUP4 ADD PUSH0 PUSH2 0x31B3 JUMP JUMPDEST PUSH1 0x4 DUP3 ADD DUP1 SLOAD PUSH1 0x1 PUSH1 0x1 PUSH1 0xA0 SHL SUB NOT AND SWAP1 SSTORE PUSH0 PUSH1 0x5 DUP4 ADD DUP2 SWAP1 SSTORE PUSH1 0x6 DUP4 ADD DUP1 SLOAD PUSH1 0x1 PUSH1 0x1 PUSH1 0xA8 SHL SUB NOT AND SWAP1 SSTORE PUSH1 0x7 DUP4 ADD DUP2 SWAP1 SSTORE PUSH2 0x1469 SWAP1 PUSH1 0x8 DUP5 ADD SWAP1 PUSH2 0x31ED JUMP JUMPDEST PUSH0 PUSH1 0x9 DUP4 ADD DUP2 SWAP1 SSTORE PUSH1 0xA DUP4 ADD DUP1 SLOAD PUSH1 0xFF NOT AND SWAP1 SSTORE PUSH2 0x148B SWAP1 PUSH1 0xB DUP5 ADD SWAP1 PUSH2 0x31B3 JUMP JUMPDEST POP POP PUSH1 0x40 MLOAD DUP6 SWAP1 PUSH32 0x36A2F40CFE61ACE5BAF26A6E4F86FFA75C62392FDE263D354D42E0E718FA4BD1 SWAP1 PUSH0 SWAP1 LOG2 POP POP POP POP POP JUMP JUMPDEST PUSH0 PUSH1 0x20 DUP2 SWAP1 MSTORE SWAP1 DUP2 MSTORE PUSH1 0x40 SWAP1 KECCAK256 DUP1 SLOAD PUSH1 0x1 DUP3 ADD DUP1 SLOAD SWAP2 SWAP3 SWAP2 PUSH2 0x14DF SWAP1 PUSH2 0x37D1 JUMP JUMPDEST DUP1 PUSH1 0x1F ADD PUSH1 0x20 DUP1 SWAP2 DIV MUL PUSH1 0x20 ADD PUSH1 0x40 MLOAD SWAP1 DUP2 ADD PUSH1 0x40 MSTORE DUP1 SWAP3 SWAP2 SWAP1 DUP2 DUP2 MSTORE PUSH1 0x20 ADD DUP3 DUP1 SLOAD PUSH2 0x150B SWAP1 PUSH2 0x37D1 JUMP JUMPDEST DUP1 ISZERO PUSH2 0x1556 JUMPI DUP1 PUSH1 0x1F LT PUSH2 0x152D JUMPI PUSH2 0x100 DUP1 DUP4 SLOAD DIV MUL DUP4 MSTORE SWAP2 PUSH1 0x20 ADD SWAP2 PUSH2 0x1556 JUMP JUMPDEST DUP3 ADD SWAP2 SWAP1 PUSH0 MSTORE PUSH1 0x20 PUSH0 KECCAK256 SWAP1 JUMPDEST DUP2 SLOAD DUP2 MSTORE SWAP1 PUSH1 0x1 ADD SWAP1 PUSH1 0x20 ADD DUP1 DUP4 GT PUSH2 0x1539 JUMPI DUP3 SWAP1 SUB PUSH1 0x1F AND DUP3 ADD SWAP2 JUMPDEST POP POP POP POP POP SWAP1 DUP1 PUSH1 0x2 ADD DUP1 SLOAD PUSH2 0x156B SWAP1 PUSH2 0x37D1 JUMP JUMPDEST DUP1 PUSH1 0x1F ADD PUSH1 0x20 DUP1 SWAP2 DIV MUL PUSH1 0x20 ADD PUSH1 0x40 MLOAD SWAP1 DUP2 ADD PUSH1 0x40 MSTORE DUP1 SWAP3 SWAP2 SWAP1 DUP2 DUP2 MSTORE PUSH1 0x20 ADD DUP3 DUP1 SLOAD PUSH2 0x1597 SWAP1 PUSH2 0x37D1 JUMP JUMPDEST DUP1 ISZERO PUSH2 0x15E2 JUMPI DUP1 PUSH1 0x1F LT PUSH2 0x15B9 JUMPI PUSH2 0x100 DUP1 DUP4 SLOAD DIV MUL DUP4 MSTORE SWAP2 PUSH1 0x20 ADD SWAP2 PUSH2 0x15E2 JUMP JUMPDEST DUP3 ADD SWAP2 SWAP1 PUSH0 MSTORE PUSH1 0x20 PUSH0 KECCAK256 SWAP1 JUMPDEST DUP2 SLOAD DUP2 MSTORE SWAP1 PUSH1 0x1 ADD SWAP1 PUSH1 0x20 ADD DUP1 DUP4 GT PUSH2 0x15C5 JUMPI DUP3 SWAP1 SUB PUSH1 0x1F AND DUP3 ADD SWAP2 JUMPDEST POP POP POP POP POP SWAP1 DUP1 PUSH1 0x3 ADD DUP1 SLOAD PUSH2 0x15F7 SWAP1 PUSH2 0x37D1 JUMP JUMPDEST DUP1 PUSH1 0x1F ADD PUSH1 0x20 DUP1 SWAP2 DIV MUL PUSH1 0x20 ADD PUSH1 0x40 MLOAD SWAP1 DUP2 ADD PUSH1 0x40 MSTORE DUP1 SWAP3 SWAP2 SWAP1 DUP2 DUP2 MSTORE PUSH1 0x20 ADD DUP3 DUP1 SLOAD PUSH2 0x1623 SWAP1 PUSH2 0x37D1 JUMP JUMPDEST DUP1 ISZERO PUSH2 0x166E JUMPI DUP1 PUSH1 0x1F LT PUSH2 0x1645 JUMPI PUSH2 0x100 DUP1 DUP4 SLOAD DIV MUL DUP4 MSTORE SWAP2 PUSH1 0x20 ADD SWAP2 PUSH2 0x166E JUMP JUMPDEST DUP3 ADD SWAP2 SWAP1 PUSH0 MSTORE PUSH1 0x20 PUSH0 KECCAK256 SWAP1 JUMPDEST DUP2 SLOAD DUP2 MSTORE SWAP1 PUSH1 0x1 ADD SWAP1 PUSH1 0x20 ADD DUP1 DUP4 GT PUSH2 0x1651 JUMPI DUP3 SWAP1 SUB PUSH1 0x1F AND DUP3 ADD SWAP2 JUMPDEST POP POP POP POP PUSH1 0x4 DUP4 ADD SLOAD PUSH1 0x5 DUP5 ADD SLOAD PUSH1 0x6 DUP6 ADD SLOAD PUSH1 0x7 DUP7 ADD SLOAD PUSH1 0x9 DUP8 ADD SLOAD PUSH1 0xA DUP9 ADD SLOAD PUSH1 0xB DUP10 ADD DUP1 SLOAD SWAP9 SWAP10 PUSH1 0x1 PUSH1 0x1 PUSH1 0xA0 SHL SUB SWAP8 DUP9 AND SWAP10 SWAP7 SWAP9 POP PUSH1 0xFF DUP1 DUP8 AND SWAP9 PUSH2 0x100 SWAP1 SWAP8 DIV SWAP1 SWAP7 AND SWAP7 SWAP5 SWAP6 SWAP4 SWAP5 SWAP4 SWAP1 SWAP3 AND SWAP3 PUSH2 0x16C9 SWAP1 PUSH2 0x37D1 JUMP JUMPDEST DUP1 PUSH1 0x1F ADD PUSH1 0x20 DUP1 SWAP2 DIV MUL PUSH1 0x20 ADD PUSH1 0x40 MLOAD SWAP1 DUP2 ADD PUSH1 0x40 MSTORE DUP1 SWAP3 SWAP2 SWAP1 DUP2 DUP2 MSTORE PUSH1 0x20 ADD DUP3 DUP1 SLOAD PUSH2 0x16F5 SWAP1 PUSH2 0x37D1 JUMP JUMPDEST DUP1 ISZERO PUSH2 0x1740 JUMPI DUP1 PUSH1 0x1F LT PUSH2 0x1717 JUMPI PUSH2 0x100 DUP1 DUP4 SLOAD DIV MUL DUP4 MSTORE SWAP2 PUSH1 0x20 ADD SWAP2 PUSH2 0x1740 JUMP JUMPDEST DUP3 ADD SWAP2 SWAP1 PUSH0 MSTORE PUSH1 0x20 PUSH0 KECCAK256 SWAP1 JUMPDEST DUP2 SLOAD DUP2 MSTORE SWAP1 PUSH1 0x1 ADD SWAP1 PUSH1 0x20 ADD DUP1 DUP4 GT PUSH2 0x1723 JUMPI DUP3 SWAP1 SUB PUSH1 0x1F AND DUP3 ADD SWAP2 JUMPDEST POP POP POP POP POP SWAP1 POP DUP13 JUMP JUMPDEST PUSH2 0x1752 PUSH2 0x312E JUMP JUMPDEST PUSH0 DUP3 DUP2 MSTORE PUSH1 0x20 DUP2 SWAP1 MSTORE PUSH1 0x40 SWAP1 KECCAK256 SLOAD DUP3 SWAP1 DUP2 EQ PUSH2 0x1780 JUMPI PUSH1 0x40 MLOAD PUSH3 0x461BCD PUSH1 0xE5 SHL DUP2 MSTORE PUSH1 0x4 ADD PUSH2 0x516 SWAP1 PUSH2 0x3803 JUMP JUMPDEST PUSH0 DUP4 DUP2 MSTORE PUSH1 0x20 DUP2 DUP2 MSTORE PUSH1 0x40 SWAP2 DUP3 SWAP1 KECCAK256 DUP3 MLOAD PUSH2 0x1A0 DUP2 ADD SWAP1 SWAP4 MSTORE DUP1 SLOAD DUP4 MSTORE PUSH1 0x1 DUP2 ADD DUP1 SLOAD SWAP2 SWAP3 DUP5 ADD SWAP2 PUSH2 0x17B1 SWAP1 PUSH2 0x37D1 JUMP JUMPDEST DUP1 PUSH1 0x1F ADD PUSH1 0x20 DUP1 SWAP2 DIV MUL PUSH1 0x20 ADD PUSH1 0x40 MLOAD SWAP1 DUP2 ADD PUSH1 0x40 MSTORE DUP1 SWAP3 SWAP2 SWAP1 DUP2 DUP2 MSTORE PUSH1 0x20 ADD DUP3 DUP1 SLOAD PUSH2 0x17DD SWAP1 PUSH2 0x37D1 JUMP JUMPDEST DUP1 ISZERO PUSH2 0x1828 JUMPI DUP1 PUSH1 0x1F LT PUSH2 0x17FF JUMPI PUSH2 0x100 DUP1 DUP4 SLOAD DIV MUL DUP4 MSTORE SWAP2 PUSH1 0x20 ADD SWAP2 PUSH2 0x1828 JUMP JUMPDEST DUP3 ADD SWAP2 SWAP1 PUSH0 MSTORE PUSH1 0x20 PUSH0 KECCAK256 SWAP1 JUMPDEST DUP2 SLOAD DUP2 MSTORE SWAP1 PUSH1 0x1 ADD SWAP1 PUSH1 0x20 ADD DUP1 DUP4 GT PUSH2 0x180B JUMPI DUP3 SWAP1 SUB PUSH1 0x1F AND DUP3 ADD SWAP2 JUMPDEST POP POP POP POP POP DUP2 MSTORE PUSH1 0x20 ADD PUSH1 0x2 DUP3 ADD DUP1 SLOAD PUSH2 0x1841 SWAP1 PUSH2 0x37D1 JUMP JUMPDEST DUP1 PUSH1 0x1F ADD PUSH1 0x20 DUP1 SWAP2 DIV MUL PUSH1 0x20 ADD PUSH1 0x40 MLOAD SWAP1 DUP2 ADD PUSH1 0x40 MSTORE DUP1 SWAP3 SWAP2 SWAP1 DUP2 DUP2 MSTORE PUSH1 0x20 ADD DUP3 DUP1 SLOAD PUSH2 0x186D SWAP1 PUSH2 0x37D1 JUMP JUMPDEST DUP1 ISZERO PUSH2 0x18B8 JUMPI DUP1 PUSH1 0x1F LT PUSH2 0x188F JUMPI PUSH2 0x100 DUP1 DUP4 SLOAD DIV MUL DUP4 MSTORE SWAP2 PUSH1 0x20 ADD SWAP2 PUSH2 0x18B8 JUMP JUMPDEST DUP3 ADD SWAP2 SWAP1 PUSH0 MSTORE PUSH1 0x20 PUSH0 KECCAK256 SWAP1 JUMPDEST DUP2 SLOAD DUP2 MSTORE SWAP1 PUSH1 0x1 ADD SWAP1 PUSH1 0x20 ADD DUP1 DUP4 GT PUSH2 0x189B JUMPI DUP3 SWAP1 SUB PUSH1 0x1F AND DUP3 ADD SWAP2 JUMPDEST POP POP POP POP POP DUP2 MSTORE PUSH1 0x20 ADD PUSH1 0x3 DUP3 ADD DUP1 SLOAD PUSH2 0x18D1 SWAP1 PUSH2 0x37D1 JUMP JUMPDEST DUP1 PUSH1 0x1F ADD PUSH1 0x20 DUP1 SWAP2 DIV MUL PUSH1 0x20 ADD PUSH1 0x40 MLOAD SWAP1 DUP2 ADD PUSH1 0x40 MSTORE DUP1 SWAP3 SWAP2 SWAP1 DUP2 DUP2 MSTORE PUSH1 0x20 ADD DUP3 DUP1 SLOAD PUSH2 0x18FD SWAP1 PUSH2 0x37D1 JUMP JUMPDEST DUP1 ISZERO PUSH2 0x1948 JUMPI DUP1 PUSH1 0x1F LT PUSH2 0x191F JUMPI PUSH2 0x100 DUP1 DUP4 SLOAD DIV MUL DUP4 MSTORE SWAP2 PUSH1 0x20 ADD SWAP2 PUSH2 0x1948 JUMP JUMPDEST DUP3 ADD SWAP2 SWAP1 PUSH0 MSTORE PUSH1 0x20 PUSH0 KECCAK256 SWAP1 JUMPDEST DUP2 SLOAD DUP2 MSTORE SWAP1 PUSH1 0x1 ADD SWAP1 PUSH1 0x20 ADD DUP1 DUP4 GT PUSH2 0x192B JUMPI DUP3 SWAP1 SUB PUSH1 0x1F AND DUP3 ADD SWAP2 JUMPDEST POP POP POP SWAP2 DUP4 MSTORE POP POP PUSH1 0x4 DUP3 ADD SLOAD PUSH1 0x1 PUSH1 0x1 PUSH1 0xA0 SHL SUB AND PUSH1 0x20 DUP3 ADD MSTORE PUSH1 0x5 DUP3 ADD SLOAD PUSH1 0x40 DUP3 ADD MSTORE PUSH1 0x6 DUP1 DUP4 ADD SLOAD PUSH1 0x60 SWAP1 SWAP3 ADD SWAP2 PUSH1 0xFF AND SWAP1 DUP2 GT ISZERO PUSH2 0x198C JUMPI PUSH2 0x198C PUSH2 0x33F2 JUMP JUMPDEST PUSH1 0x6 DUP2 GT ISZERO PUSH2 0x199D JUMPI PUSH2 0x199D PUSH2 0x33F2 JUMP JUMPDEST DUP2 MSTORE PUSH1 0x20 ADD PUSH1 0x6 DUP3 ADD PUSH1 0x1 SWAP1 SLOAD SWAP1 PUSH2 0x100 EXP SWAP1 DIV PUSH1 0x1 PUSH1 0x1 PUSH1 0xA0 SHL SUB AND PUSH1 0x1 PUSH1 0x1 PUSH1 0xA0 SHL SUB AND PUSH1 0x1 PUSH1 0x1 PUSH1 0xA0 SHL SUB AND DUP2 MSTORE PUSH1 0x20 ADD PUSH1 0x7 DUP3 ADD SLOAD DUP2 MSTORE PUSH1 0x20 ADD PUSH1 0x8 DUP3 ADD DUP1 SLOAD DUP1 PUSH1 0x20 MUL PUSH1 0x20 ADD PUSH1 0x40 MLOAD SWAP1 DUP2 ADD PUSH1 0x40 MSTORE DUP1 SWAP3 SWAP2 SWAP1 DUP2 DUP2 MSTORE PUSH1 0x20 ADD DUP3 DUP1 SLOAD DUP1 ISZERO PUSH2 0x1A31 JUMPI PUSH1 0x20 MUL DUP3 ADD SWAP2 SWAP1 PUSH0 MSTORE PUSH1 0x20 PUSH0 KECCAK256 SWAP1 JUMPDEST DUP2 SLOAD PUSH1 0x1 PUSH1 0x1 PUSH1 0xA0 SHL SUB AND DUP2 MSTORE PUSH1 0x1 SWAP1 SWAP2 ADD SWAP1 PUSH1 0x20 ADD DUP1 DUP4 GT PUSH2 0x1A13 JUMPI JUMPDEST POP POP POP SWAP2 DUP4 MSTORE POP POP PUSH1 0x9 DUP3 ADD SLOAD PUSH1 0x20 DUP3 ADD MSTORE PUSH1 0xA DUP3 ADD SLOAD PUSH1 0xFF AND ISZERO ISZERO PUSH1 0x40 DUP3 ADD MSTORE PUSH1 0xB DUP3 ADD DUP1 SLOAD PUSH1 0x60 SWAP1 SWAP3 ADD SWAP2 PUSH2 0x1A67 SWAP1 PUSH2 0x37D1 JUMP JUMPDEST DUP1 PUSH1 0x1F ADD PUSH1 0x20 DUP1 SWAP2 DIV MUL PUSH1 0x20 ADD PUSH1 0x40 MLOAD SWAP1 DUP2 ADD PUSH1 0x40 MSTORE DUP1 SWAP3 SWAP2 SWAP1 DUP2 DUP2 MSTORE PUSH1 0x20 ADD DUP3 DUP1 SLOAD PUSH2 0x1A93 SWAP1 PUSH2 0x37D1 JUMP JUMPDEST DUP1 ISZERO PUSH2 0x1ADE JUMPI DUP1 PUSH1 0x1F LT PUSH2 0x1AB5 JUMPI PUSH2 0x100 DUP1 DUP4 SLOAD DIV MUL DUP4 MSTORE SWAP2 PUSH1 0x20 ADD SWAP2 PUSH2 0x1ADE JUMP JUMPDEST DUP3 ADD SWAP2 SWAP1 PUSH0 MSTORE PUSH1 0x20 PUSH0 KECCAK256 SWAP1 JUMPDEST DUP2 SLOAD DUP2 MSTORE SWAP1 PUSH1 0x1 ADD SWAP1 PUSH1 0x20 ADD DUP1 DUP4 GT PUSH2 0x1AC1 JUMPI DUP3 SWAP1 SUB PUSH1 0x1F AND DUP3 ADD SWAP2 JUMPDEST POP POP POP POP POP DUP2 MSTORE POP POP SWAP2 POP POP SWAP2 SWAP1 POP JUMP JUMPDEST PUSH0 DUP2 DUP2 MSTORE PUSH1 0x20 DUP2 SWAP1 MSTORE PUSH1 0x40 SWAP1 KECCAK256 SLOAD DUP2 SWAP1 DUP2 EQ PUSH2 0x1B1D JUMPI PUSH1 0x40 MLOAD PUSH3 0x461BCD PUSH1 0xE5 SHL DUP2 MSTORE PUSH1 0x4 ADD PUSH2 0x516 SWAP1 PUSH2 0x3803 JUMP JUMPDEST PUSH0 DUP3 DUP2 MSTORE PUSH1 0x20 DUP2 SWAP1 MSTORE PUSH1 0x40 SWAP1 KECCAK256 PUSH1 0x4 PUSH1 0x6 DUP1 DUP4 ADD SLOAD PUSH1 0xFF AND SWAP1 DUP2 GT ISZERO PUSH2 0x1B45 JUMPI PUSH2 0x1B45 PUSH2 0x33F2 JUMP JUMPDEST EQ DUP1 PUSH2 0x1B67 JUMPI POP PUSH1 0x6 DUP2 DUP2 ADD SLOAD PUSH1 0xFF AND DUP2 DUP2 GT ISZERO PUSH2 0x1B65 JUMPI PUSH2 0x1B65 PUSH2 0x33F2 JUMP JUMPDEST EQ JUMPDEST DUP1 ISZERO PUSH2 0x1B78 JUMPI POP PUSH1 0xA DUP2 ADD SLOAD PUSH1 0xFF AND ISZERO JUMPDEST ISZERO PUSH2 0x1D5E JUMPI PUSH1 0x6 DUP2 ADD SLOAD PUSH2 0x100 SWAP1 DIV PUSH1 0x1 PUSH1 0x1 PUSH1 0xA0 SHL SUB AND CALLER EQ PUSH2 0x1BFA JUMPI PUSH1 0x40 MLOAD PUSH3 0x461BCD PUSH1 0xE5 SHL DUP2 MSTORE PUSH1 0x20 PUSH1 0x4 DUP3 ADD MSTORE PUSH1 0x33 PUSH1 0x24 DUP3 ADD MSTORE PUSH32 0x4F6E6C792077696E6E65722063616E206469737075746520616674657220656D PUSH1 0x44 DUP3 ADD MSTORE PUSH19 0x706C6F79657220636F6E6669726D2F64656E79 PUSH1 0x68 SHL PUSH1 0x64 DUP3 ADD MSTORE PUSH1 0x84 ADD PUSH2 0x516 JUMP JUMPDEST DUP1 PUSH1 0x9 ADD SLOAD TIMESTAMP GT ISZERO PUSH2 0x1C47 JUMPI PUSH1 0x40 MLOAD PUSH3 0x461BCD PUSH1 0xE5 SHL DUP2 MSTORE PUSH1 0x20 PUSH1 0x4 DUP3 ADD MSTORE PUSH1 0x16 PUSH1 0x24 DUP3 ADD MSTORE PUSH22 0x111A5CDC1D5D19481C195C9A5BD908195E1C1A5C9959 PUSH1 0x52 SHL PUSH1 0x44 DUP3 ADD MSTORE PUSH1 0x64 ADD PUSH2 0x516 JUMP JUMPDEST PUSH1 0x6 DUP2 ADD DUP1 SLOAD PUSH1 0x5 SWAP2 SWAP1 PUSH1 0xFF NOT AND PUSH1 0x1 DUP4 JUMPDEST MUL OR SWAP1 SSTORE POP PUSH1 0x5 SLOAD PUSH1 0x40 MLOAD PUSH1 0x24 DUP2 ADD DUP6 SWAP1 MSTORE PUSH0 SWAP2 PUSH1 0x1 PUSH1 0x1 PUSH1 0xA0 SHL SUB AND SWAP1 PUSH1 0x44 ADD PUSH1 0x40 DUP1 MLOAD PUSH1 0x1F NOT DUP2 DUP5 SUB ADD DUP2 MSTORE SWAP2 DUP2 MSTORE PUSH1 0x20 DUP3 ADD DUP1 MLOAD PUSH1 0x1 PUSH1 0x1 PUSH1 0xE0 SHL SUB AND PUSH4 0x4B54A379 PUSH1 0xE0 SHL OR SWAP1 MSTORE MLOAD PUSH2 0x1CAF SWAP2 SWAP1 PUSH2 0x3830 JUMP JUMPDEST PUSH0 PUSH1 0x40 MLOAD DUP1 DUP4 SUB DUP2 PUSH0 DUP7 GAS CALL SWAP2 POP POP RETURNDATASIZE DUP1 PUSH0 DUP2 EQ PUSH2 0x1CE8 JUMPI PUSH1 0x40 MLOAD SWAP2 POP PUSH1 0x1F NOT PUSH1 0x3F RETURNDATASIZE ADD AND DUP3 ADD PUSH1 0x40 MSTORE RETURNDATASIZE DUP3 MSTORE RETURNDATASIZE PUSH0 PUSH1 0x20 DUP5 ADD RETURNDATACOPY PUSH2 0x1CED JUMP JUMPDEST PUSH1 0x60 SWAP2 POP JUMPDEST POP POP SWAP1 POP DUP1 PUSH2 0x1D3E JUMPI PUSH1 0x40 MLOAD PUSH3 0x461BCD PUSH1 0xE5 SHL DUP2 MSTORE PUSH1 0x20 PUSH1 0x4 DUP3 ADD MSTORE PUSH1 0x17 PUSH1 0x24 DUP3 ADD MSTORE PUSH32 0x446973707574652068616E646C696E67206661696C6564000000000000000000 PUSH1 0x44 DUP3 ADD MSTORE PUSH1 0x64 ADD PUSH2 0x516 JUMP JUMPDEST DUP4 PUSH0 MLOAD PUSH1 0x20 PUSH2 0x3ABB PUSH0 CODECOPY PUSH0 MLOAD SWAP1 PUSH0 MSTORE PUSH1 0x5 PUSH0 PUSH1 0x40 MLOAD PUSH2 0x74B SWAP3 SWAP2 SWAP1 PUSH2 0x3874 JUMP JUMPDEST PUSH1 0x6 DUP2 ADD SLOAD PUSH2 0x100 SWAP1 DIV PUSH1 0x1 PUSH1 0x1 PUSH1 0xA0 SHL SUB AND CALLER EQ DUP1 PUSH2 0x1D8A JUMPI POP PUSH1 0x4 DUP2 ADD SLOAD PUSH1 0x1 PUSH1 0x1 PUSH1 0xA0 SHL SUB AND CALLER EQ JUMPDEST DUP1 ISZERO PUSH2 0x1DAE JUMPI POP PUSH1 0x2 PUSH1 0x6 DUP1 DUP4 ADD SLOAD PUSH1 0xFF AND SWAP1 DUP2 GT ISZERO PUSH2 0x1DAC JUMPI PUSH2 0x1DAC PUSH2 0x33F2 JUMP JUMPDEST EQ JUMPDEST ISZERO PUSH2 0x1DC9 JUMPI PUSH1 0x6 DUP2 ADD DUP1 SLOAD PUSH1 0x5 SWAP2 SWAP1 PUSH1 0xFF NOT AND PUSH1 0x1 DUP4 PUSH2 0x1C59 JUMP JUMPDEST PUSH1 0x40 MLOAD PUSH3 0x461BCD PUSH1 0xE5 SHL DUP2 MSTORE PUSH1 0x20 PUSH1 0x4 DUP3 ADD MSTORE PUSH1 0x23 PUSH1 0x24 DUP3 ADD MSTORE PUSH32 0x4E6F207269676874206F722077726F6E672073746174757320746F2064697370 PUSH1 0x44 DUP3 ADD MSTORE PUSH3 0x757465 PUSH1 0xE8 SHL PUSH1 0x64 DUP3 ADD MSTORE PUSH1 0x84 ADD PUSH2 0x516 JUMP JUMPDEST PUSH1 0x60 PUSH0 DUP1 JUMPDEST PUSH1 0x2 SLOAD DUP2 LT ISZERO PUSH2 0x1E65 JUMPI PUSH0 DUP2 DUP2 MSTORE PUSH1 0x20 DUP2 SWAP1 MSTORE PUSH1 0x40 SWAP1 KECCAK256 PUSH1 0x4 ADD SLOAD PUSH1 0x1 PUSH1 0x1 PUSH1 0xA0 SHL SUB DUP1 DUP7 AND SWAP2 AND SUB PUSH2 0x1E5D JUMPI DUP2 PUSH2 0x1E59 DUP2 PUSH2 0x3A11 JUMP JUMPDEST SWAP3 POP POP JUMPDEST PUSH1 0x1 ADD PUSH2 0x1E22 JUMP JUMPDEST POP PUSH0 DUP2 PUSH8 0xFFFFFFFFFFFFFFFF DUP2 GT ISZERO PUSH2 0x1E80 JUMPI PUSH2 0x1E80 PUSH2 0x330F JUMP JUMPDEST PUSH1 0x40 MLOAD SWAP1 DUP1 DUP3 MSTORE DUP1 PUSH1 0x20 MUL PUSH1 0x20 ADD DUP3 ADD PUSH1 0x40 MSTORE DUP1 ISZERO PUSH2 0x1EB9 JUMPI DUP2 PUSH1 0x20 ADD JUMPDEST PUSH2 0x1EA6 PUSH2 0x312E JUMP JUMPDEST DUP2 MSTORE PUSH1 0x20 ADD SWAP1 PUSH1 0x1 SWAP1 SUB SWAP1 DUP2 PUSH2 0x1E9E JUMPI SWAP1 POP JUMPDEST POP SWAP1 POP PUSH0 DUP1 JUMPDEST PUSH1 0x2 SLOAD DUP2 LT ISZERO PUSH2 0x2285 JUMPI PUSH0 DUP2 DUP2 MSTORE PUSH1 0x20 DUP2 SWAP1 MSTORE PUSH1 0x40 SWAP1 KECCAK256 PUSH1 0x4 ADD SLOAD PUSH1 0x1 PUSH1 0x1 PUSH1 0xA0 SHL SUB DUP1 DUP9 AND SWAP2 AND SUB PUSH2 0x227D JUMPI PUSH0 DUP2 DUP2 MSTORE PUSH1 0x20 DUP2 DUP2 MSTORE PUSH1 0x40 SWAP2 DUP3 SWAP1 KECCAK256 DUP3 MLOAD PUSH2 0x1A0 DUP2 ADD SWAP1 SWAP4 MSTORE DUP1 SLOAD DUP4 MSTORE PUSH1 0x1 DUP2 ADD DUP1 SLOAD SWAP2 SWAP3 DUP5 ADD SWAP2 PUSH2 0x1F1D SWAP1 PUSH2 0x37D1 JUMP JUMPDEST DUP1 PUSH1 0x1F ADD PUSH1 0x20 DUP1 SWAP2 DIV MUL PUSH1 0x20 ADD PUSH1 0x40 MLOAD SWAP1 DUP2 ADD PUSH1 0x40 MSTORE DUP1 SWAP3 SWAP2 SWAP1 DUP2 DUP2 MSTORE PUSH1 0x20 ADD DUP3 DUP1 SLOAD PUSH2 0x1F49 SWAP1 PUSH2 0x37D1 JUMP JUMPDEST DUP1 ISZERO PUSH2 0x1F94 JUMPI DUP1 PUSH1 0x1F LT PUSH2 0x1F6B JUMPI PUSH2 0x100 DUP1 DUP4 SLOAD DIV MUL DUP4 MSTORE SWAP2 PUSH1 0x20 ADD SWAP2 PUSH2 0x1F94 JUMP JUMPDEST DUP3 ADD SWAP2 SWAP1 PUSH0 MSTORE PUSH1 0x20 PUSH0 KECCAK256 SWAP1 JUMPDEST DUP2 SLOAD DUP2 MSTORE SWAP1 PUSH1 0x1 ADD SWAP1 PUSH1 0x20 ADD DUP1 DUP4 GT PUSH2 0x1F77 JUMPI DUP3 SWAP1 SUB PUSH1 0x1F AND DUP3 ADD SWAP2 JUMPDEST POP POP POP POP POP DUP2 MSTORE PUSH1 0x20 ADD PUSH1 0x2 DUP3 ADD DUP1 SLOAD PUSH2 0x1FAD SWAP1 PUSH2 0x37D1 JUMP JUMPDEST DUP1 PUSH1 0x1F ADD PUSH1 0x20 DUP1 SWAP2 DIV MUL PUSH1 0x20 ADD PUSH1 0x40 MLOAD SWAP1 DUP2 ADD PUSH1 0x40 MSTORE DUP1 SWAP3 SWAP2 SWAP1 DUP2 DUP2 MSTORE PUSH1 0x20 ADD DUP3 DUP1 SLOAD PUSH2 0x1FD9 SWAP1 PUSH2 0x37D1 JUMP JUMPDEST DUP1 ISZERO PUSH2 0x2024 JUMPI DUP1 PUSH1 0x1F LT PUSH2 0x1FFB JUMPI PUSH2 0x100 DUP1 DUP4 SLOAD DIV MUL DUP4 MSTORE SWAP2 PUSH1 0x20 ADD SWAP2 PUSH2 0x2024 JUMP JUMPDEST DUP3 ADD SWAP2 SWAP1 PUSH0 MSTORE PUSH1 0x20 PUSH0 KECCAK256 SWAP1 JUMPDEST DUP2 SLOAD DUP2 MSTORE SWAP1 PUSH1 0x1 ADD SWAP1 PUSH1 0x20 ADD DUP1 DUP4 GT PUSH2 0x2007 JUMPI DUP3 SWAP1 SUB PUSH1 0x1F AND DUP3 ADD SWAP2 JUMPDEST POP POP POP POP POP DUP2 MSTORE PUSH1 0x20 ADD PUSH1 0x3 DUP3 ADD DUP1 SLOAD PUSH2 0x203D SWAP1 PUSH2 0x37D1 JUMP JUMPDEST DUP1 PUSH1 0x1F ADD PUSH1 0x20 DUP1 SWAP2 DIV MUL PUSH1 0x20 ADD PUSH1 0x40 MLOAD SWAP1 DUP2 ADD PUSH1 0x40 MSTORE DUP1 SWAP3 SWAP2 SWAP1 DUP2 DUP2 MSTORE PUSH1 0x20 ADD DUP3 DUP1 SLOAD PUSH2 0x2069 SWAP1 PUSH2 0x37D1 JUMP JUMPDEST DUP1 ISZERO PUSH2 0x20B4 JUMPI DUP1 PUSH1 0x1F LT PUSH2 0x208B JUMPI PUSH2 0x100 DUP1 DUP4 SLOAD DIV MUL DUP4 MSTORE SWAP2 PUSH1 0x20 ADD SWAP2 PUSH2 0x20B4 JUMP JUMPDEST DUP3 ADD SWAP2 SWAP1 PUSH0 MSTORE PUSH1 0x20 PUSH0 KECCAK256 SWAP1 JUMPDEST DUP2 SLOAD DUP2 MSTORE SWAP1 PUSH1 0x1 ADD SWAP1 PUSH1 0x20 ADD DUP1 DUP4 GT PUSH2 0x2097 JUMPI DUP3 SWAP1 SUB PUSH1 0x1F AND DUP3 ADD SWAP2 JUMPDEST POP POP POP SWAP2 DUP4 MSTORE POP POP PUSH1 0x4 DUP3 ADD SLOAD PUSH1 0x1 PUSH1 0x1 PUSH1 0xA0 SHL SUB AND PUSH1 0x20 DUP3 ADD MSTORE PUSH1 0x5 DUP3 ADD SLOAD PUSH1 0x40 DUP3 ADD MSTORE PUSH1 0x6 DUP1 DUP4 ADD SLOAD PUSH1 0x60 SWAP1 SWAP3 ADD SWAP2 PUSH1 0xFF AND SWAP1 DUP2 GT ISZERO PUSH2 0x20F8 JUMPI PUSH2 0x20F8 PUSH2 0x33F2 JUMP JUMPDEST PUSH1 0x6 DUP2 GT ISZERO PUSH2 0x2109 JUMPI PUSH2 0x2109 PUSH2 0x33F2 JUMP JUMPDEST DUP2 MSTORE PUSH1 0x20 ADD PUSH1 0x6 DUP3 ADD PUSH1 0x1 SWAP1 SLOAD SWAP1 PUSH2 0x100 EXP SWAP1 DIV PUSH1 0x1 PUSH1 0x1 PUSH1 0xA0 SHL SUB AND PUSH1 0x1 PUSH1 0x1 PUSH1 0xA0 SHL SUB AND PUSH1 0x1 PUSH1 0x1 PUSH1 0xA0 SHL SUB AND DUP2 MSTORE PUSH1 0x20 ADD PUSH1 0x7 DUP3 ADD SLOAD DUP2 MSTORE PUSH1 0x20 ADD PUSH1 0x8 DUP3 ADD DUP1 SLOAD DUP1 PUSH1 0x20 MUL PUSH1 0x20 ADD PUSH1 0x40 MLOAD SWAP1 DUP2 ADD PUSH1 0x40 MSTORE DUP1 SWAP3 SWAP2 SWAP1 DUP2 DUP2 MSTORE PUSH1 0x20 ADD DUP3 DUP1 SLOAD DUP1 ISZERO PUSH2 0x219D JUMPI PUSH1 0x20 MUL DUP3 ADD SWAP2 SWAP1 PUSH0 MSTORE PUSH1 0x20 PUSH0 KECCAK256 SWAP1 JUMPDEST DUP2 SLOAD PUSH1 0x1 PUSH1 0x1 PUSH1 0xA0 SHL SUB AND DUP2 MSTORE PUSH1 0x1 SWAP1 SWAP2 ADD SWAP1 PUSH1 0x20 ADD DUP1 DUP4 GT PUSH2 0x217F JUMPI JUMPDEST POP POP POP SWAP2 DUP4 MSTORE POP POP PUSH1 0x9 DUP3 ADD SLOAD PUSH1 0x20 DUP3 ADD MSTORE PUSH1 0xA DUP3 ADD SLOAD PUSH1 0xFF AND ISZERO ISZERO PUSH1 0x40 DUP3 ADD MSTORE PUSH1 0xB DUP3 ADD DUP1 SLOAD PUSH1 0x60 SWAP1 SWAP3 ADD SWAP2 PUSH2 0x21D3 SWAP1 PUSH2 0x37D1 JUMP JUMPDEST DUP1 PUSH1 0x1F ADD PUSH1 0x20 DUP1 SWAP2 DIV MUL PUSH1 0x20 ADD PUSH1 0x40 MLOAD SWAP1 DUP2 ADD PUSH1 0x40 MSTORE DUP1 SWAP3 SWAP2 SWAP1 DUP2 DUP2 MSTORE PUSH1 0x20 ADD DUP3 DUP1 SLOAD PUSH2 0x21FF SWAP1 PUSH2 0x37D1 JUMP JUMPDEST DUP1 ISZERO PUSH2 0x224A JUMPI DUP1 PUSH1 0x1F LT PUSH2 0x2221 JUMPI PUSH2 0x100 DUP1 DUP4 SLOAD DIV MUL DUP4 MSTORE SWAP2 PUSH1 0x20 ADD SWAP2 PUSH2 0x224A JUMP JUMPDEST DUP3 ADD SWAP2 SWAP1 PUSH0 MSTORE PUSH1 0x20 PUSH0 KECCAK256 SWAP1 JUMPDEST DUP2 SLOAD DUP2 MSTORE SWAP1 PUSH1 0x1 ADD SWAP1 PUSH1 0x20 ADD DUP1 DUP4 GT PUSH2 0x222D JUMPI DUP3 SWAP1 SUB PUSH1 0x1F AND DUP3 ADD SWAP2 JUMPDEST POP POP POP POP POP DUP2 MSTORE POP POP DUP4 DUP4 DUP1 PUSH2 0x225F SWAP1 PUSH2 0x3A11 JUMP JUMPDEST SWAP5 POP DUP2 MLOAD DUP2 LT PUSH2 0x2271 JUMPI PUSH2 0x2271 PUSH2 0x389A JUMP JUMPDEST PUSH1 0x20 MUL PUSH1 0x20 ADD ADD DUP2 SWAP1 MSTORE POP JUMPDEST PUSH1 0x1 ADD PUSH2 0x1EBF JUMP JUMPDEST POP SWAP1 SWAP5 SWAP4 POP POP POP POP JUMP JUMPDEST PUSH0 DUP2 DUP2 MSTORE PUSH1 0x20 DUP2 SWAP1 MSTORE PUSH1 0x40 SWAP1 KECCAK256 SLOAD DUP2 SWAP1 DUP2 EQ PUSH2 0x22BD JUMPI PUSH1 0x40 MLOAD PUSH3 0x461BCD PUSH1 0xE5 SHL DUP2 MSTORE PUSH1 0x4 ADD PUSH2 0x516 SWAP1 PUSH2 0x3803 JUMP JUMPDEST PUSH0 DUP3 DUP2 MSTORE PUSH1 0x20 DUP2 SWAP1 MSTORE PUSH1 0x40 SWAP1 KECCAK256 PUSH1 0x4 ADD SLOAD DUP3 SWAP1 PUSH1 0x1 PUSH1 0x1 PUSH1 0xA0 SHL SUB AND CALLER EQ PUSH2 0x22F7 JUMPI PUSH1 0x40 MLOAD PUSH3 0x461BCD PUSH1 0xE5 SHL DUP2 MSTORE PUSH1 0x4 ADD PUSH2 0x516 SWAP1 PUSH2 0x38AE JUMP JUMPDEST PUSH0 DUP4 DUP2 MSTORE PUSH1 0x20 DUP2 SWAP1 MSTORE PUSH1 0x40 DUP2 KECCAK256 PUSH1 0x6 SWAP1 DUP2 ADD SLOAD PUSH1 0xFF AND SWAP1 DUP2 GT ISZERO PUSH2 0x231D JUMPI PUSH2 0x231D PUSH2 0x33F2 JUMP JUMPDEST EQ PUSH2 0x236A JUMPI PUSH1 0x40 MLOAD PUSH3 0x461BCD PUSH1 0xE5 SHL DUP2 MSTORE PUSH1 0x20 PUSH1 0x4 DUP3 ADD MSTORE PUSH1 0x1D PUSH1 0x24 DUP3 ADD MSTORE PUSH32 0x5461736B206973206E6F7420696E204372656174656420737461747573000000 PUSH1 0x44 DUP3 ADD MSTORE PUSH1 0x64 ADD PUSH2 0x516 JUMP JUMPDEST PUSH0 DUP4 DUP2 MSTORE PUSH1 0x20 DUP2 SWAP1 MSTORE PUSH1 0x40 DUP1 DUP3 KECCAK256 PUSH1 0x6 ADD DUP1 SLOAD PUSH1 0xFF NOT AND PUSH1 0x1 OR SWAP1 SSTORE PUSH1 0x3 SLOAD SWAP1 MLOAD PUSH1 0x24 DUP2 ADD DUP7 SWAP1 MSTORE PUSH1 0x1 PUSH1 0x1 PUSH1 0xA0 SHL SUB SWAP1 SWAP2 AND SWAP1 PUSH1 0x44 ADD PUSH1 0x40 DUP1 MLOAD PUSH1 0x1F NOT DUP2 DUP5 SUB ADD DUP2 MSTORE SWAP2 DUP2 MSTORE PUSH1 0x20 DUP3 ADD DUP1 MLOAD PUSH1 0x1 PUSH1 0x1 PUSH1 0xE0 SHL SUB AND PUSH4 0x71C64181 PUSH1 0xE1 SHL OR SWAP1 MSTORE MLOAD PUSH2 0x23D6 SWAP2 SWAP1 PUSH2 0x3830 JUMP JUMPDEST PUSH0 PUSH1 0x40 MLOAD DUP1 DUP4 SUB DUP2 PUSH0 DUP7 GAS CALL SWAP2 POP POP RETURNDATASIZE DUP1 PUSH0 DUP2 EQ PUSH2 0x240F JUMPI PUSH1 0x40 MLOAD SWAP2 POP PUSH1 0x1F NOT PUSH1 0x3F RETURNDATASIZE ADD AND DUP3 ADD PUSH1 0x40 MSTORE RETURNDATASIZE DUP3 MSTORE RETURNDATASIZE PUSH0 PUSH1 0x20 DUP5 ADD RETURNDATACOPY PUSH2 0x2414 JUMP JUMPDEST PUSH1 0x60 SWAP2 POP JUMPDEST POP POP SWAP1 POP DUP1 PUSH2 0x245B JUMPI PUSH1 0x40 MLOAD PUSH3 0x461BCD PUSH1 0xE5 SHL DUP2 MSTORE PUSH1 0x20 PUSH1 0x4 DUP3 ADD MSTORE PUSH1 0x13 PUSH1 0x24 DUP3 ADD MSTORE PUSH19 0x109A59191A5B99C81BDC195B8819985A5B1959 PUSH1 0x6A SHL PUSH1 0x44 DUP3 ADD MSTORE PUSH1 0x64 ADD PUSH2 0x516 JUMP JUMPDEST DUP4 PUSH0 MLOAD PUSH1 0x20 PUSH2 0x3ABB PUSH0 CODECOPY PUSH0 MLOAD SWAP1 PUSH0 MSTORE PUSH1 0x1 PUSH0 PUSH1 0x40 MLOAD PUSH2 0x74B SWAP3 SWAP2 SWAP1 PUSH2 0x3874 JUMP JUMPDEST PUSH0 DUP3 DUP2 MSTORE PUSH1 0x20 DUP2 SWAP1 MSTORE PUSH1 0x40 SWAP1 KECCAK256 SLOAD DUP3 SWAP1 DUP2 EQ PUSH2 0x24A9 JUMPI PUSH1 0x40 MLOAD PUSH3 0x461BCD PUSH1 0xE5 SHL DUP2 MSTORE PUSH1 0x4 ADD PUSH2 0x516 SWAP1 PUSH2 0x3803 JUMP JUMPDEST PUSH0 DUP4 DUP2 MSTORE PUSH1 0x20 DUP2 SWAP1 MSTORE PUSH1 0x40 SWAP1 KECCAK256 PUSH1 0x4 ADD SLOAD DUP4 SWAP1 PUSH1 0x1 PUSH1 0x1 PUSH1 0xA0 SHL SUB AND CALLER EQ PUSH2 0x24E3 JUMPI PUSH1 0x40 MLOAD PUSH3 0x461BCD PUSH1 0xE5 SHL DUP2 MSTORE PUSH1 0x4 ADD PUSH2 0x516 SWAP1 PUSH2 0x38AE JUMP JUMPDEST PUSH0 DUP5 DUP2 MSTORE PUSH1 0x20 DUP2 SWAP1 MSTORE PUSH1 0x40 SWAP1 KECCAK256 PUSH1 0x1 PUSH1 0x6 DUP1 DUP4 ADD SLOAD PUSH1 0xFF AND SWAP1 DUP2 GT ISZERO PUSH2 0x250B JUMPI PUSH2 0x250B PUSH2 0x33F2 JUMP JUMPDEST EQ PUSH2 0x2558 JUMPI PUSH1 0x40 MLOAD PUSH3 0x461BCD PUSH1 0xE5 SHL DUP2 MSTORE PUSH1 0x20 PUSH1 0x4 DUP3 ADD MSTORE PUSH1 0x1D PUSH1 0x24 DUP3 ADD MSTORE PUSH32 0x5461736B206973206E6F7420696E2042696464696E6720737461747573000000 PUSH1 0x44 DUP3 ADD MSTORE PUSH1 0x64 ADD PUSH2 0x516 JUMP JUMPDEST PUSH0 DUP1 JUMPDEST PUSH1 0x8 DUP4 ADD SLOAD DUP2 LT ISZERO PUSH2 0x25B0 JUMPI DUP6 PUSH1 0x1 PUSH1 0x1 PUSH1 0xA0 SHL SUB AND DUP4 PUSH1 0x8 ADD DUP3 DUP2 SLOAD DUP2 LT PUSH2 0x2586 JUMPI PUSH2 0x2586 PUSH2 0x389A JUMP JUMPDEST PUSH0 SWAP2 DUP3 MSTORE PUSH1 0x20 SWAP1 SWAP2 KECCAK256 ADD SLOAD PUSH1 0x1 PUSH1 0x1 PUSH1 0xA0 SHL SUB AND SUB PUSH2 0x25A8 JUMPI PUSH1 0x1 SWAP2 POP PUSH2 0x25B0 JUMP JUMPDEST PUSH1 0x1 ADD PUSH2 0x255B JUMP JUMPDEST POP DUP1 PUSH2 0x25FE JUMPI PUSH1 0x40 MLOAD PUSH3 0x461BCD PUSH1 0xE5 SHL DUP2 MSTORE PUSH1 0x20 PUSH1 0x4 DUP3 ADD MSTORE PUSH1 0x1C PUSH1 0x24 DUP3 ADD MSTORE PUSH32 0x57696E6E6572206D7573742062652061207061727469636970616E7400000000 PUSH1 0x44 DUP3 ADD MSTORE PUSH1 0x64 ADD PUSH2 0x516 JUMP JUMPDEST PUSH1 0x6 DUP3 ADD DUP1 SLOAD PUSH1 0x2 PUSH1 0x1 PUSH1 0x1 PUSH1 0xA8 SHL SUB NOT SWAP1 SWAP2 AND PUSH2 0x100 PUSH1 0x1 PUSH1 0x1 PUSH1 0xA0 SHL SUB DUP10 AND MUL PUSH1 0xFF NOT AND OR DUP2 OR SWAP1 SWAP2 SSTORE PUSH1 0x40 MLOAD DUP8 SWAP2 PUSH0 MLOAD PUSH1 0x20 PUSH2 0x3ABB PUSH0 CODECOPY PUSH0 MLOAD SWAP1 PUSH0 MSTORE SWAP2 PUSH2 0x264A SWAP2 SWAP1 DUP10 SWAP1 PUSH2 0x3874 JUMP JUMPDEST PUSH1 0x40 MLOAD DUP1 SWAP2 SUB SWAP1 LOG2 POP POP POP POP POP POP JUMP JUMPDEST DUP3 CALLVALUE EQ PUSH2 0x26B8 JUMPI PUSH1 0x40 MLOAD PUSH3 0x461BCD PUSH1 0xE5 SHL DUP2 MSTORE PUSH1 0x20 PUSH1 0x4 DUP3 ADD MSTORE PUSH1 0x26 PUSH1 0x24 DUP3 ADD MSTORE PUSH32 0x526577617264206D75737420626520657175616C20746F207468652073656E74 PUSH1 0x44 DUP3 ADD MSTORE PUSH6 0x2076616C7565 PUSH1 0xD0 SHL PUSH1 0x64 DUP3 ADD MSTORE PUSH1 0x84 ADD PUSH2 0x516 JUMP JUMPDEST PUSH0 DUP4 GT PUSH2 0x2707 JUMPI PUSH1 0x40 MLOAD PUSH3 0x461BCD PUSH1 0xE5 SHL DUP2 MSTORE PUSH1 0x20 PUSH1 0x4 DUP3 ADD DUP2 SWAP1 MSTORE PUSH1 0x24 DUP3 ADD MSTORE PUSH32 0x526577617264206D7573742062652067726561746572207468616E207A65726F PUSH1 0x44 DUP3 ADD MSTORE PUSH1 0x64 ADD PUSH2 0x516 JUMP JUMPDEST PUSH0 DUP6 MLOAD GT PUSH2 0x2757 JUMPI PUSH1 0x40 MLOAD PUSH3 0x461BCD PUSH1 0xE5 SHL DUP2 MSTORE PUSH1 0x20 PUSH1 0x4 DUP3 ADD MSTORE PUSH1 0x1A PUSH1 0x24 DUP3 ADD MSTORE PUSH32 0x5461736B207469746C652063616E6E6F7420626520656D707479000000000000 PUSH1 0x44 DUP3 ADD MSTORE PUSH1 0x64 ADD PUSH2 0x516 JUMP JUMPDEST PUSH0 DUP5 MLOAD GT PUSH2 0x27A7 JUMPI PUSH1 0x40 MLOAD PUSH3 0x461BCD PUSH1 0xE5 SHL DUP2 MSTORE PUSH1 0x20 PUSH1 0x4 DUP3 ADD MSTORE PUSH1 0x19 PUSH1 0x24 DUP3 ADD MSTORE PUSH32 0x4950465320686173682063616E6E6F7420626520656D70747900000000000000 PUSH1 0x44 DUP3 ADD MSTORE PUSH1 0x64 ADD PUSH2 0x516 JUMP JUMPDEST TIMESTAMP DUP3 GT PUSH2 0x27F6 JUMPI PUSH1 0x40 MLOAD PUSH3 0x461BCD PUSH1 0xE5 SHL DUP2 MSTORE PUSH1 0x20 PUSH1 0x4 DUP3 ADD MSTORE PUSH1 0x1E PUSH1 0x24 DUP3 ADD MSTORE PUSH32 0x446561646C696E65206D75737420626520696E20746865206675747572650000 PUSH1 0x44 DUP3 ADD MSTORE PUSH1 0x64 ADD PUSH2 0x516 JUMP JUMPDEST PUSH1 0x40 MLOAD PUSH5 0x27BA3432B9 PUSH1 0xD9 SHL PUSH1 0x20 DUP3 ADD MSTORE PUSH1 0x25 ADD PUSH1 0x40 DUP1 MLOAD PUSH1 0x1F NOT DUP2 DUP5 SUB ADD DUP2 MSTORE DUP3 DUP3 MSTORE DUP1 MLOAD PUSH1 0x20 SWAP2 DUP3 ADD KECCAK256 PUSH0 DUP6 DUP2 MSTORE PUSH1 0x1 DUP4 MSTORE SWAP3 SWAP1 SWAP3 KECCAK256 SWAP2 SWAP3 PUSH2 0x283B SWAP3 SWAP2 ADD PUSH2 0x3A29 JUMP JUMPDEST PUSH1 0x40 MLOAD PUSH1 0x20 DUP2 DUP4 SUB SUB DUP2 MSTORE SWAP1 PUSH1 0x40 MSTORE DUP1 MLOAD SWAP1 PUSH1 0x20 ADD KECCAK256 EQ DUP1 PUSH2 0x28B5 JUMPI POP PUSH1 0x40 MLOAD PUSH5 0xAA925EAAB PUSH1 0xDB SHL PUSH1 0x20 DUP3 ADD MSTORE PUSH1 0x25 ADD PUSH1 0x40 DUP1 MLOAD PUSH1 0x1F NOT DUP2 DUP5 SUB ADD DUP2 MSTORE DUP3 DUP3 MSTORE DUP1 MLOAD PUSH1 0x20 SWAP2 DUP3 ADD KECCAK256 PUSH0 DUP6 DUP2 MSTORE PUSH1 0x1 DUP4 MSTORE SWAP3 SWAP1 SWAP3 KECCAK256 SWAP2 SWAP3 PUSH2 0x289D SWAP3 SWAP2 ADD PUSH2 0x3A29 JUMP JUMPDEST PUSH1 0x40 MLOAD PUSH1 0x20 DUP2 DUP4 SUB SUB DUP2 MSTORE SWAP1 PUSH1 0x40 MSTORE DUP1 MLOAD SWAP1 PUSH1 0x20 ADD KECCAK256 EQ JUMPDEST DUP1 PUSH2 0x2921 JUMPI POP PUSH1 0x40 MLOAD PUSH14 0x4461746120416E616C7974696373 PUSH1 0x90 SHL PUSH1 0x20 DUP3 ADD MSTORE PUSH1 0x2E ADD PUSH1 0x40 DUP1 MLOAD PUSH1 0x1F NOT DUP2 DUP5 SUB ADD DUP2 MSTORE DUP3 DUP3 MSTORE DUP1 MLOAD PUSH1 0x20 SWAP2 DUP3 ADD KECCAK256 PUSH0 DUP6 DUP2 MSTORE PUSH1 0x1 DUP4 MSTORE SWAP3 SWAP1 SWAP3 KECCAK256 SWAP2 SWAP3 PUSH2 0x2909 SWAP3 SWAP2 ADD PUSH2 0x3A29 JUMP JUMPDEST PUSH1 0x40 MLOAD PUSH1 0x20 DUP2 DUP4 SUB SUB DUP2 MSTORE SWAP1 PUSH1 0x40 MSTORE DUP1 MLOAD SWAP1 PUSH1 0x20 ADD KECCAK256 EQ JUMPDEST DUP1 PUSH2 0x2991 JUMPI POP PUSH1 0x40 MLOAD PUSH18 0x21B7B73A32B73A10283937B23AB1BA34B7B7 PUSH1 0x71 SHL PUSH1 0x20 DUP3 ADD MSTORE PUSH1 0x32 ADD PUSH1 0x40 DUP1 MLOAD PUSH1 0x1F NOT DUP2 DUP5 SUB ADD DUP2 MSTORE DUP3 DUP3 MSTORE DUP1 MLOAD PUSH1 0x20 SWAP2 DUP3 ADD KECCAK256 PUSH0 DUP6 DUP2 MSTORE PUSH1 0x1 DUP4 MSTORE SWAP3 SWAP1 SWAP3 KECCAK256 SWAP2 SWAP3 PUSH2 0x2979 SWAP3 SWAP2 ADD PUSH2 0x3A29 JUMP JUMPDEST PUSH1 0x40 MLOAD PUSH1 0x20 DUP2 DUP4 SUB SUB DUP2 MSTORE SWAP1 PUSH1 0x40 MSTORE DUP1 MLOAD SWAP1 PUSH1 0x20 ADD KECCAK256 EQ JUMPDEST DUP1 PUSH2 0x29FF JUMPI POP PUSH1 0x40 MLOAD PUSH16 0x26B0B935B2BA10283937B6B7BA34B7B7 PUSH1 0x81 SHL PUSH1 0x20 DUP3 ADD MSTORE PUSH1 0x30 ADD PUSH1 0x40 DUP1 MLOAD PUSH1 0x1F NOT DUP2 DUP5 SUB ADD DUP2 MSTORE DUP3 DUP3 MSTORE DUP1 MLOAD PUSH1 0x20 SWAP2 DUP3 ADD KECCAK256 PUSH0 DUP6 DUP2 MSTORE PUSH1 0x1 DUP4 MSTORE SWAP3 SWAP1 SWAP3 KECCAK256 SWAP2 SWAP3 PUSH2 0x29E7 SWAP3 SWAP2 ADD PUSH2 0x3A29 JUMP JUMPDEST PUSH1 0x40 MLOAD PUSH1 0x20 DUP2 DUP4 SUB SUB DUP2 MSTORE SWAP1 PUSH1 0x40 MSTORE DUP1 MLOAD SWAP1 PUSH1 0x20 ADD KECCAK256 EQ JUMPDEST DUP1 PUSH2 0x2A61 JUMPI POP PUSH1 0x40 MLOAD PUSH4 0x77656233 PUSH1 0xE0 SHL PUSH1 0x20 DUP3 ADD MSTORE PUSH1 0x24 ADD PUSH1 0x40 DUP1 MLOAD PUSH1 0x1F NOT DUP2 DUP5 SUB ADD DUP2 MSTORE DUP3 DUP3 MSTORE DUP1 MLOAD PUSH1 0x20 SWAP2 DUP3 ADD KECCAK256 PUSH0 DUP6 DUP2 MSTORE PUSH1 0x1 DUP4 MSTORE SWAP3 SWAP1 SWAP3 KECCAK256 SWAP2 SWAP3 PUSH2 0x2A49 SWAP3 SWAP2 ADD PUSH2 0x3A29 JUMP JUMPDEST PUSH1 0x40 MLOAD PUSH1 0x20 DUP2 DUP4 SUB SUB DUP2 MSTORE SWAP1 PUSH1 0x40 MSTORE DUP1 MLOAD SWAP1 PUSH1 0x20 ADD KECCAK256 EQ JUMPDEST PUSH2 0x2AA1 JUMPI PUSH1 0x40 MLOAD PUSH3 0x461BCD PUSH1 0xE5 SHL DUP2 MSTORE PUSH1 0x20 PUSH1 0x4 DUP3 ADD MSTORE PUSH1 0x11 PUSH1 0x24 DUP3 ADD MSTORE PUSH17 0x496E76616C6964207461736B2074797065 PUSH1 0x78 SHL PUSH1 0x44 DUP3 ADD MSTORE PUSH1 0x64 ADD PUSH2 0x516 JUMP JUMPDEST PUSH1 0x2 DUP1 SLOAD PUSH0 SWAP2 DUP3 PUSH2 0x2AB1 DUP4 PUSH2 0x3A11 JUMP JUMPDEST SWAP2 SWAP1 POP SSTORE SWAP1 POP PUSH1 0x40 MLOAD DUP1 PUSH2 0x1A0 ADD PUSH1 0x40 MSTORE DUP1 DUP3 DUP2 MSTORE PUSH1 0x20 ADD DUP8 DUP2 MSTORE PUSH1 0x20 ADD DUP7 DUP2 MSTORE PUSH1 0x20 ADD PUSH1 0x40 MLOAD DUP1 PUSH1 0x20 ADD PUSH1 0x40 MSTORE DUP1 PUSH0 DUP2 MSTORE POP DUP2 MSTORE PUSH1 0x20 ADD CALLER PUSH1 0x1 PUSH1 0x1 PUSH1 0xA0 SHL SUB AND DUP2 MSTORE PUSH1 0x20 ADD DUP6 DUP2 MSTORE PUSH1 0x20 ADD PUSH0 PUSH1 0x6 DUP2 GT ISZERO PUSH2 0x2B10 JUMPI PUSH2 0x2B10 PUSH2 0x33F2 JUMP JUMPDEST DUP2 MSTORE PUSH0 PUSH1 0x20 DUP1 DUP4 ADD DUP3 SWAP1 MSTORE PUSH1 0x40 DUP1 DUP5 ADD DUP9 SWAP1 MSTORE DUP1 MLOAD DUP4 DUP2 MSTORE DUP1 DUP4 ADD DUP3 MSTORE PUSH1 0x60 DUP6 ADD MSTORE PUSH1 0x80 DUP5 ADD DUP4 SWAP1 MSTORE PUSH1 0xA0 DUP5 ADD DUP4 SWAP1 MSTORE DUP7 DUP4 MSTORE PUSH1 0x1 SWAP1 SWAP2 MSTORE SWAP1 KECCAK256 DUP1 SLOAD PUSH1 0xC0 SWAP1 SWAP3 ADD SWAP2 PUSH2 0x2B5B SWAP1 PUSH2 0x37D1 JUMP JUMPDEST DUP1 PUSH1 0x1F ADD PUSH1 0x20 DUP1 SWAP2 DIV MUL PUSH1 0x20 ADD PUSH1 0x40 MLOAD SWAP1 DUP2 ADD PUSH1 0x40 MSTORE DUP1 SWAP3 SWAP2 SWAP1 DUP2 DUP2 MSTORE PUSH1 0x20 ADD DUP3 DUP1 SLOAD PUSH2 0x2B87 SWAP1 PUSH2 0x37D1 JUMP JUMPDEST DUP1 ISZERO PUSH2 0x2BD2 JUMPI DUP1 PUSH1 0x1F LT PUSH2 0x2BA9 JUMPI PUSH2 0x100 DUP1 DUP4 SLOAD DIV MUL DUP4 MSTORE SWAP2 PUSH1 0x20 ADD SWAP2 PUSH2 0x2BD2 JUMP JUMPDEST DUP3 ADD SWAP2 SWAP1 PUSH0 MSTORE PUSH1 0x20 PUSH0 KECCAK256 SWAP1 JUMPDEST DUP2 SLOAD DUP2 MSTORE SWAP1 PUSH1 0x1 ADD SWAP1 PUSH1 0x20 ADD DUP1 DUP4 GT PUSH2 0x2BB5 JUMPI DUP3 SWAP1 SUB PUSH1 0x1F AND DUP3 ADD SWAP2 JUMPDEST POP POP POP SWAP2 SWAP1 SWAP3 MSTORE POP POP PUSH0 DUP3 DUP2 MSTORE PUSH1 0x20 DUP2 DUP2 MSTORE PUSH1 0x40 SWAP1 SWAP2 KECCAK256 DUP3 MLOAD DUP2 SSTORE SWAP1 DUP3 ADD MLOAD PUSH1 0x1 DUP3 ADD SWAP1 PUSH2 0x2C00 SWAP1 DUP3 PUSH2 0x3956 JUMP JUMPDEST POP PUSH1 0x40 DUP3 ADD MLOAD PUSH1 0x2 DUP3 ADD SWAP1 PUSH2 0x2C15 SWAP1 DUP3 PUSH2 0x3956 JUMP JUMPDEST POP PUSH1 0x60 DUP3 ADD MLOAD PUSH1 0x3 DUP3 ADD SWAP1 PUSH2 0x2C2A SWAP1 DUP3 PUSH2 0x3956 JUMP JUMPDEST POP PUSH1 0x80 DUP3 ADD MLOAD PUSH1 0x4 DUP3 ADD DUP1 SLOAD PUSH1 0x1 PUSH1 0x1 PUSH1 0xA0 SHL SUB NOT AND PUSH1 0x1 PUSH1 0x1 PUSH1 0xA0 SHL SUB SWAP1 SWAP3 AND SWAP2 SWAP1 SWAP2 OR SWAP1 SSTORE PUSH1 0xA0 DUP3 ADD MLOAD PUSH1 0x5 DUP3 ADD SSTORE PUSH1 0xC0 DUP3 ADD MLOAD PUSH1 0x6 DUP1 DUP4 ADD DUP1 SLOAD SWAP1 SWAP2 PUSH1 0xFF NOT SWAP1 SWAP2 AND SWAP1 PUSH1 0x1 SWAP1 DUP5 SWAP1 DUP2 GT ISZERO PUSH2 0x2C84 JUMPI PUSH2 0x2C84 PUSH2 0x33F2 JUMP JUMPDEST MUL OR SWAP1 SSTORE POP PUSH1 0xE0 DUP3 ADD MLOAD PUSH1 0x6 DUP3 ADD DUP1 SLOAD PUSH2 0x100 PUSH1 0x1 PUSH1 0xA8 SHL SUB NOT AND PUSH2 0x100 PUSH1 0x1 PUSH1 0x1 PUSH1 0xA0 SHL SUB SWAP1 SWAP4 AND DUP4 MUL OR SWAP1 SSTORE DUP3 ADD MLOAD PUSH1 0x7 DUP3 ADD SSTORE PUSH2 0x120 DUP3 ADD MLOAD DUP1 MLOAD PUSH2 0x2CD6 SWAP2 PUSH1 0x8 DUP5 ADD SWAP2 PUSH1 0x20 SWAP1 SWAP2 ADD SWAP1 PUSH2 0x3208 JUMP JUMPDEST POP PUSH2 0x140 DUP3 ADD MLOAD PUSH1 0x9 DUP3 ADD SSTORE PUSH2 0x160 DUP3 ADD MLOAD PUSH1 0xA DUP3 ADD DUP1 SLOAD PUSH1 0xFF NOT AND SWAP2 ISZERO ISZERO SWAP2 SWAP1 SWAP2 OR SWAP1 SSTORE PUSH2 0x180 DUP3 ADD MLOAD PUSH1 0xB DUP3 ADD SWAP1 PUSH2 0x2D10 SWAP1 DUP3 PUSH2 0x3956 JUMP JUMPDEST POP POP PUSH1 0x4 SLOAD PUSH1 0x40 MLOAD PUSH1 0x24 DUP2 ADD DUP5 SWAP1 MSTORE PUSH0 SWAP3 POP PUSH1 0x1 PUSH1 0x1 PUSH1 0xA0 SHL SUB SWAP1 SWAP2 AND SWAP1 CALLVALUE SWAP1 PUSH1 0x44 ADD PUSH1 0x40 DUP1 MLOAD PUSH1 0x1F NOT DUP2 DUP5 SUB ADD DUP2 MSTORE SWAP2 DUP2 MSTORE PUSH1 0x20 DUP3 ADD DUP1 MLOAD PUSH1 0x1 PUSH1 0x1 PUSH1 0xE0 SHL SUB AND PUSH4 0x3B76594D PUSH1 0xE0 SHL OR SWAP1 MSTORE MLOAD PUSH2 0x2D68 SWAP2 SWAP1 PUSH2 0x3830 JUMP JUMPDEST PUSH0 PUSH1 0x40 MLOAD DUP1 DUP4 SUB DUP2 DUP6 DUP8 GAS CALL SWAP3 POP POP POP RETURNDATASIZE DUP1 PUSH0 DUP2 EQ PUSH2 0x2DA2 JUMPI PUSH1 0x40 MLOAD SWAP2 POP PUSH1 0x1F NOT PUSH1 0x3F RETURNDATASIZE ADD AND DUP3 ADD PUSH1 0x40 MSTORE RETURNDATASIZE DUP3 MSTORE RETURNDATASIZE PUSH0 PUSH1 0x20 DUP5 ADD RETURNDATACOPY PUSH2 0x2DA7 JUMP JUMPDEST PUSH1 0x60 SWAP2 POP JUMPDEST POP POP SWAP1 POP DUP1 PUSH2 0x2DF0 JUMPI PUSH1 0x40 MLOAD PUSH3 0x461BCD PUSH1 0xE5 SHL DUP2 MSTORE PUSH1 0x20 PUSH1 0x4 DUP3 ADD MSTORE PUSH1 0x15 PUSH1 0x24 DUP3 ADD MSTORE PUSH21 0x115CD8DC9BDDC819195C1BDCDA5D0819985A5B1959 PUSH1 0x5A SHL PUSH1 0x44 DUP3 ADD MSTORE PUSH1 0x64 ADD PUSH2 0x516 JUMP JUMPDEST CALLER PUSH1 0x1 PUSH1 0x1 PUSH1 0xA0 SHL SUB AND DUP3 PUSH32 0xEDCE45CC3FC2BEA98C94B72104F4A750DCC91BD183A01870ED4F93A365EBA5B9 DUP8 DUP10 PUSH1 0x40 MLOAD PUSH2 0x2E2C SWAP3 SWAP2 SWAP1 PUSH2 0x3A9A JUMP JUMPDEST PUSH1 0x40 MLOAD DUP1 SWAP2 SUB SWAP1 LOG3 POP POP POP POP POP POP POP JUMP JUMPDEST PUSH0 DUP2 DUP2 MSTORE PUSH1 0x20 DUP2 SWAP1 MSTORE PUSH1 0x40 SWAP1 KECCAK256 SLOAD DUP2 SWAP1 DUP2 EQ PUSH2 0x2E6B JUMPI PUSH1 0x40 MLOAD PUSH3 0x461BCD PUSH1 0xE5 SHL DUP2 MSTORE PUSH1 0x4 ADD PUSH2 0x516 SWAP1 PUSH2 0x3803 JUMP JUMPDEST PUSH0 DUP3 DUP2 MSTORE PUSH1 0x20 DUP2 SWAP1 MSTORE PUSH1 0x40 SWAP1 KECCAK256 PUSH1 0x6 DUP2 ADD SLOAD PUSH2 0x100 SWAP1 DIV PUSH1 0x1 PUSH1 0x1 PUSH1 0xA0 SHL SUB AND ISZERO PUSH2 0x2ED8 JUMPI PUSH1 0x40 MLOAD PUSH3 0x461BCD PUSH1 0xE5 SHL DUP2 MSTORE PUSH1 0x20 PUSH1 0x4 DUP3 ADD MSTORE PUSH1 0x19 PUSH1 0x24 DUP3 ADD MSTORE PUSH32 0x5461736B20616C72656164792068617320612077696E6E657200000000000000 PUSH1 0x44 DUP3 ADD MSTORE PUSH1 0x64 ADD PUSH2 0x516 JUMP JUMPDEST PUSH0 PUSH1 0x6 DUP1 DUP4 ADD SLOAD PUSH1 0xFF AND SWAP1 DUP2 GT ISZERO PUSH2 0x2EF2 JUMPI PUSH2 0x2EF2 PUSH2 0x33F2 JUMP JUMPDEST EQ DUP1 PUSH2 0x2F16 JUMPI POP PUSH1 0x1 PUSH1 0x6 DUP1 DUP4 ADD SLOAD PUSH1 0xFF AND SWAP1 DUP2 GT ISZERO PUSH2 0x2F14 JUMPI PUSH2 0x2F14 PUSH2 0x33F2 JUMP JUMPDEST EQ JUMPDEST PUSH2 0x2F5B JUMPI PUSH1 0x40 MLOAD PUSH3 0x461BCD PUSH1 0xE5 SHL DUP2 MSTORE PUSH1 0x20 PUSH1 0x4 DUP3 ADD MSTORE PUSH1 0x16 PUSH1 0x24 DUP3 ADD MSTORE PUSH22 0x15185CDAC818D85B9B9BDD081899481C995B5BDD9959 PUSH1 0x52 SHL PUSH1 0x44 DUP3 ADD MSTORE PUSH1 0x64 ADD PUSH2 0x516 JUMP JUMPDEST DUP1 PUSH1 0x7 ADD SLOAD TIMESTAMP GT PUSH2 0x2FA1 JUMPI PUSH1 0x40 MLOAD PUSH3 0x461BCD PUSH1 0xE5 SHL DUP2 MSTORE PUSH1 0x20 PUSH1 0x4 DUP3 ADD MSTORE PUSH1 0x10 PUSH1 0x24 DUP3 ADD MSTORE PUSH16 0x15185CDAC81B9BDD08195E1C1A5C9959 PUSH1 0x82 SHL PUSH1 0x44 DUP3 ADD MSTORE PUSH1 0x64 ADD PUSH2 0x516 JUMP JUMPDEST PUSH1 0x4 DUP1 SLOAD SWAP1 DUP3 ADD SLOAD PUSH1 0x40 MLOAD PUSH1 0x24 DUP2 ADD DUP7 SWAP1 MSTORE PUSH1 0x1 PUSH1 0x1 PUSH1 0xA0 SHL SUB SWAP2 DUP3 AND PUSH1 0x44 DUP3 ADD MSTORE PUSH0 SWAP3 SWAP2 SWAP1 SWAP2 AND SWAP1 PUSH1 0x64 ADD PUSH1 0x40 DUP1 MLOAD PUSH1 0x1F NOT DUP2 DUP5 SUB ADD DUP2 MSTORE SWAP2 DUP2 MSTORE PUSH1 0x20 DUP3 ADD DUP1 MLOAD PUSH1 0x1 PUSH1 0x1 PUSH1 0xE0 SHL SUB AND PUSH4 0x77969929 PUSH1 0xE0 SHL OR SWAP1 MSTORE MLOAD PUSH2 0x3002 SWAP2 SWAP1 PUSH2 0x3830 JUMP JUMPDEST PUSH0 PUSH1 0x40 MLOAD DUP1 DUP4 SUB DUP2 PUSH0 DUP7 GAS CALL SWAP2 POP POP RETURNDATASIZE DUP1 PUSH0 DUP2 EQ PUSH2 0x303B JUMPI PUSH1 0x40 MLOAD SWAP2 POP PUSH1 0x1F NOT PUSH1 0x3F RETURNDATASIZE ADD AND DUP3 ADD PUSH1 0x40 MSTORE RETURNDATASIZE DUP3 MSTORE RETURNDATASIZE PUSH0 PUSH1 0x20 DUP5 ADD RETURNDATACOPY PUSH2 0x3040 JUMP JUMPDEST PUSH1 0x60 SWAP2 POP JUMPDEST POP POP SWAP1 POP DUP1 PUSH2 0x3061 JUMPI PUSH1 0x40 MLOAD PUSH3 0x461BCD PUSH1 0xE5 SHL DUP2 MSTORE PUSH1 0x4 ADD PUSH2 0x516 SWAP1 PUSH2 0x3846 JUMP JUMPDEST PUSH0 DUP5 DUP2 MSTORE PUSH1 0x20 DUP2 SWAP1 MSTORE PUSH1 0x40 DUP2 KECCAK256 DUP2 DUP2 SSTORE SWAP1 PUSH2 0x307F PUSH1 0x1 DUP4 ADD DUP3 PUSH2 0x31B3 JUMP JUMPDEST PUSH2 0x308C PUSH1 0x2 DUP4 ADD PUSH0 PUSH2 0x31B3 JUMP JUMPDEST PUSH2 0x3099 PUSH1 0x3 DUP4 ADD PUSH0 PUSH2 0x31B3 JUMP JUMPDEST PUSH1 0x4 DUP3 ADD DUP1 SLOAD PUSH1 0x1 PUSH1 0x1 PUSH1 0xA0 SHL SUB NOT AND SWAP1 SSTORE PUSH0 PUSH1 0x5 DUP4 ADD DUP2 SWAP1 SSTORE PUSH1 0x6 DUP4 ADD DUP1 SLOAD PUSH1 0x1 PUSH1 0x1 PUSH1 0xA8 SHL SUB NOT AND SWAP1 SSTORE PUSH1 0x7 DUP4 ADD DUP2 SWAP1 SSTORE PUSH2 0x30DA SWAP1 PUSH1 0x8 DUP5 ADD SWAP1 PUSH2 0x31ED JUMP JUMPDEST PUSH0 PUSH1 0x9 DUP4 ADD DUP2 SWAP1 SSTORE PUSH1 0xA DUP4 ADD DUP1 SLOAD PUSH1 0xFF NOT AND SWAP1 SSTORE PUSH2 0x30FC SWAP1 PUSH1 0xB DUP5 ADD SWAP1 PUSH2 0x31B3 JUMP JUMPDEST POP POP PUSH1 0x40 MLOAD DUP5 SWAP1 PUSH32 0x36A2F40CFE61ACE5BAF26A6E4F86FFA75C62392FDE263D354D42E0E718FA4BD1 SWAP1 PUSH0 SWAP1 LOG2 POP POP POP POP JUMP JUMPDEST PUSH1 0x40 MLOAD DUP1 PUSH2 0x1A0 ADD PUSH1 0x40 MSTORE DUP1 PUSH0 DUP2 MSTORE PUSH1 0x20 ADD PUSH1 0x60 DUP2 MSTORE PUSH1 0x20 ADD PUSH1 0x60 DUP2 MSTORE PUSH1 0x20 ADD PUSH1 0x60 DUP2 MSTORE PUSH1 0x20 ADD PUSH0 PUSH1 0x1 PUSH1 0x1 PUSH1 0xA0 SHL SUB AND DUP2 MSTORE PUSH1 0x20 ADD PUSH0 DUP2 MSTORE PUSH1 0x20 ADD PUSH0 PUSH1 0x6 DUP2 GT ISZERO PUSH2 0x317C JUMPI PUSH2 0x317C PUSH2 0x33F2 JUMP JUMPDEST DUP2 MSTORE PUSH1 0x20 ADD PUSH0 PUSH1 0x1 PUSH1 0x1 PUSH1 0xA0 SHL SUB AND DUP2 MSTORE PUSH1 0x20 ADD PUSH0 DUP2 MSTORE PUSH1 0x20 ADD PUSH1 0x60 DUP2 MSTORE PUSH1 0x20 ADD PUSH0 DUP2 MSTORE PUSH1 0x20 ADD PUSH0 ISZERO ISZERO DUP2 MSTORE PUSH1 0x20 ADD PUSH1 0x60 DUP2 MSTORE POP SWAP1 JUMP JUMPDEST POP DUP1 SLOAD PUSH2 0x31BF SWAP1 PUSH2 0x37D1 JUMP JUMPDEST PUSH0 DUP3 SSTORE DUP1 PUSH1 0x1F LT PUSH2 0x31CE JUMPI POP POP JUMP JUMPDEST PUSH1 0x1F ADD PUSH1 0x20 SWAP1 DIV SWAP1 PUSH0 MSTORE PUSH1 0x20 PUSH0 KECCAK256 SWAP1 DUP2 ADD SWAP1 PUSH2 0x31EA SWAP2 SWAP1 PUSH2 0x326B JUMP JUMPDEST POP JUMP JUMPDEST POP DUP1 SLOAD PUSH0 DUP3 SSTORE SWAP1 PUSH0 MSTORE PUSH1 0x20 PUSH0 KECCAK256 SWAP1 DUP2 ADD SWAP1 PUSH2 0x31EA SWAP2 SWAP1 PUSH2 0x326B JUMP JUMPDEST DUP3 DUP1 SLOAD DUP3 DUP3 SSTORE SWAP1 PUSH0 MSTORE PUSH1 0x20 PUSH0 KECCAK256 SWAP1 DUP2 ADD SWAP3 DUP3 ISZERO PUSH2 0x325B JUMPI SWAP2 PUSH1 0x20 MUL DUP3 ADD JUMPDEST DUP3 DUP2 GT ISZERO PUSH2 0x325B JUMPI DUP3 MLOAD DUP3 SLOAD PUSH1 0x1 PUSH1 0x1 PUSH1 0xA0 SHL SUB NOT AND PUSH1 0x1 PUSH1 0x1 PUSH1 0xA0 SHL SUB SWAP1 SWAP2 AND OR DUP3 SSTORE PUSH1 0x20 SWAP1 SWAP3 ADD SWAP2 PUSH1 0x1 SWAP1 SWAP2 ADD SWAP1 PUSH2 0x3226 JUMP JUMPDEST POP PUSH2 0x3267 SWAP3 SWAP2 POP PUSH2 0x326B JUMP JUMPDEST POP SWAP1 JUMP JUMPDEST JUMPDEST DUP1 DUP3 GT ISZERO PUSH2 0x3267 JUMPI PUSH0 DUP2 SSTORE PUSH1 0x1 ADD PUSH2 0x326C JUMP JUMPDEST PUSH0 PUSH1 0x20 DUP3 DUP5 SUB SLT ISZERO PUSH2 0x328F JUMPI PUSH0 PUSH0 REVERT JUMPDEST POP CALLDATALOAD SWAP2 SWAP1 POP JUMP JUMPDEST PUSH0 DUP2 MLOAD DUP1 DUP5 MSTORE DUP1 PUSH1 0x20 DUP5 ADD PUSH1 0x20 DUP7 ADD MCOPY PUSH0 PUSH1 0x20 DUP3 DUP7 ADD ADD MSTORE PUSH1 0x20 PUSH1 0x1F NOT PUSH1 0x1F DUP4 ADD AND DUP6 ADD ADD SWAP2 POP POP SWAP3 SWAP2 POP POP JUMP JUMPDEST PUSH1 0x20 DUP2 MSTORE PUSH0 PUSH2 0x32D6 PUSH1 0x20 DUP4 ADD DUP5 PUSH2 0x3296 JUMP JUMPDEST SWAP4 SWAP3 POP POP POP JUMP JUMPDEST PUSH0 PUSH0 PUSH1 0x40 DUP4 DUP6 SUB SLT ISZERO PUSH2 0x32EE JUMPI PUSH0 PUSH0 REVERT JUMPDEST DUP3 CALLDATALOAD SWAP2 POP PUSH1 0x20 DUP4 ADD CALLDATALOAD DUP1 ISZERO ISZERO DUP2 EQ PUSH2 0x3304 JUMPI PUSH0 PUSH0 REVERT JUMPDEST DUP1 SWAP2 POP POP SWAP3 POP SWAP3 SWAP1 POP JUMP JUMPDEST PUSH4 0x4E487B71 PUSH1 0xE0 SHL PUSH0 MSTORE PUSH1 0x41 PUSH1 0x4 MSTORE PUSH1 0x24 PUSH0 REVERT JUMPDEST PUSH0 DUP3 PUSH1 0x1F DUP4 ADD SLT PUSH2 0x3332 JUMPI PUSH0 PUSH0 REVERT JUMPDEST DUP2 CALLDATALOAD PUSH8 0xFFFFFFFFFFFFFFFF DUP2 GT ISZERO PUSH2 0x334C JUMPI PUSH2 0x334C PUSH2 0x330F JUMP JUMPDEST PUSH1 0x40 MLOAD PUSH1 0x1F DUP3 ADD PUSH1 0x1F NOT SWAP1 DUP2 AND PUSH1 0x3F ADD AND DUP2 ADD PUSH8 0xFFFFFFFFFFFFFFFF DUP2 GT DUP3 DUP3 LT OR ISZERO PUSH2 0x337B JUMPI PUSH2 0x337B PUSH2 0x330F JUMP JUMPDEST PUSH1 0x40 MSTORE DUP2 DUP2 MSTORE DUP4 DUP3 ADD PUSH1 0x20 ADD DUP6 LT ISZERO PUSH2 0x3392 JUMPI PUSH0 PUSH0 REVERT JUMPDEST DUP2 PUSH1 0x20 DUP6 ADD PUSH1 0x20 DUP4 ADD CALLDATACOPY PUSH0 SWAP2 DUP2 ADD PUSH1 0x20 ADD SWAP2 SWAP1 SWAP2 MSTORE SWAP4 SWAP3 POP POP POP JUMP JUMPDEST PUSH0 PUSH0 PUSH1 0x40 DUP4 DUP6 SUB SLT ISZERO PUSH2 0x33BF JUMPI PUSH0 PUSH0 REVERT JUMPDEST DUP3 CALLDATALOAD SWAP2 POP PUSH1 0x20 DUP4 ADD CALLDATALOAD PUSH8 0xFFFFFFFFFFFFFFFF DUP2 GT ISZERO PUSH2 0x33DC JUMPI PUSH0 PUSH0 REVERT JUMPDEST PUSH2 0x33E8 DUP6 DUP3 DUP7 ADD PUSH2 0x3323 JUMP JUMPDEST SWAP2 POP POP SWAP3 POP SWAP3 SWAP1 POP JUMP JUMPDEST PUSH4 0x4E487B71 PUSH1 0xE0 SHL PUSH0 MSTORE PUSH1 0x21 PUSH1 0x4 MSTORE PUSH1 0x24 PUSH0 REVERT JUMPDEST PUSH1 0x7 DUP2 LT PUSH2 0x3422 JUMPI PUSH4 0x4E487B71 PUSH1 0xE0 SHL PUSH0 MSTORE PUSH1 0x21 PUSH1 0x4 MSTORE PUSH1 0x24 PUSH0 REVERT JUMPDEST SWAP1 MSTORE JUMP JUMPDEST PUSH0 DUP2 MLOAD DUP1 DUP5 MSTORE PUSH1 0x20 DUP5 ADD SWAP4 POP PUSH1 0x20 DUP4 ADD PUSH0 JUMPDEST DUP3 DUP2 LT ISZERO PUSH2 0x345F JUMPI DUP2 MLOAD PUSH1 0x1 PUSH1 0x1 PUSH1 0xA0 SHL SUB AND DUP7 MSTORE PUSH1 0x20 SWAP6 DUP7 ADD SWAP6 SWAP1 SWAP2 ADD SWAP1 PUSH1 0x1 ADD PUSH2 0x3438 JUMP JUMPDEST POP SWAP4 SWAP5 SWAP4 POP POP POP POP JUMP JUMPDEST DUP1 MLOAD DUP3 MSTORE PUSH0 PUSH1 0x20 DUP3 ADD MLOAD PUSH2 0x1A0 PUSH1 0x20 DUP6 ADD MSTORE PUSH2 0x3489 PUSH2 0x1A0 DUP6 ADD DUP3 PUSH2 0x3296 JUMP JUMPDEST SWAP1 POP PUSH1 0x40 DUP4 ADD MLOAD DUP5 DUP3 SUB PUSH1 0x40 DUP7 ADD MSTORE PUSH2 0x34A2 DUP3 DUP3 PUSH2 0x3296 JUMP JUMPDEST SWAP2 POP POP PUSH1 0x60 DUP4 ADD MLOAD DUP5 DUP3 SUB PUSH1 0x60 DUP7 ADD MSTORE PUSH2 0x34BC DUP3 DUP3 PUSH2 0x3296 JUMP JUMPDEST SWAP2 POP POP PUSH1 0x80 DUP4 ADD MLOAD PUSH2 0x34D9 PUSH1 0x80 DUP7 ADD DUP3 PUSH1 0x1 PUSH1 0x1 PUSH1 0xA0 SHL SUB AND SWAP1 MSTORE JUMP JUMPDEST POP PUSH1 0xA0 DUP4 ADD MLOAD PUSH1 0xA0 DUP6 ADD MSTORE PUSH1 0xC0 DUP4 ADD MLOAD PUSH2 0x34F6 PUSH1 0xC0 DUP7 ADD DUP3 PUSH2 0x3406 JUMP JUMPDEST POP PUSH1 0xE0 DUP4 ADD MLOAD PUSH2 0x3511 PUSH1 0xE0 DUP7 ADD DUP3 PUSH1 0x1 PUSH1 0x1 PUSH1 0xA0 SHL SUB AND SWAP1 MSTORE JUMP JUMPDEST POP PUSH2 0x100 DUP4 ADD MLOAD PUSH2 0x100 DUP6 ADD MSTORE PUSH2 0x120 DUP4 ADD MLOAD DUP5 DUP3 SUB PUSH2 0x120 DUP7 ADD MSTORE PUSH2 0x3537 DUP3 DUP3 PUSH2 0x3426 JUMP JUMPDEST SWAP2 POP POP PUSH2 0x140 DUP4 ADD MLOAD PUSH2 0x140 DUP6 ADD MSTORE PUSH2 0x160 DUP4 ADD MLOAD PUSH2 0x355B PUSH2 0x160 DUP7 ADD DUP3 ISZERO ISZERO SWAP1 MSTORE JUMP JUMPDEST POP PUSH2 0x180 DUP4 ADD MLOAD DUP5 DUP3 SUB PUSH2 0x180 DUP7 ADD MSTORE PUSH2 0x3575 DUP3 DUP3 PUSH2 0x3296 JUMP JUMPDEST SWAP6 SWAP5 POP POP POP POP POP JUMP JUMPDEST PUSH0 PUSH1 0x20 DUP3 ADD PUSH1 0x20 DUP4 MSTORE DUP1 DUP5 MLOAD DUP1 DUP4 MSTORE PUSH1 0x40 DUP6 ADD SWAP2 POP PUSH1 0x40 DUP2 PUSH1 0x5 SHL DUP7 ADD ADD SWAP3 POP PUSH1 0x20 DUP7 ADD PUSH0 JUMPDEST DUP3 DUP2 LT ISZERO PUSH2 0x35D5 JUMPI PUSH1 0x3F NOT DUP8 DUP7 SUB ADD DUP5 MSTORE PUSH2 0x35C0 DUP6 DUP4 MLOAD PUSH2 0x3469 JUMP JUMPDEST SWAP5 POP PUSH1 0x20 SWAP4 DUP5 ADD SWAP4 SWAP2 SWAP1 SWAP2 ADD SWAP1 PUSH1 0x1 ADD PUSH2 0x35A4 JUMP JUMPDEST POP SWAP3 SWAP7 SWAP6 POP POP POP POP POP POP JUMP JUMPDEST PUSH1 0x20 DUP1 DUP3 MSTORE DUP3 MLOAD DUP3 DUP3 ADD DUP2 SWAP1 MSTORE PUSH0 SWAP2 DUP5 ADD SWAP1 PUSH1 0x40 DUP5 ADD SWAP1 DUP4 JUMPDEST DUP2 DUP2 LT ISZERO PUSH2 0x3621 JUMPI DUP4 MLOAD PUSH1 0x1 PUSH1 0x1 PUSH1 0xA0 SHL SUB AND DUP4 MSTORE PUSH1 0x20 SWAP4 DUP5 ADD SWAP4 SWAP1 SWAP3 ADD SWAP2 PUSH1 0x1 ADD PUSH2 0x35FA JUMP JUMPDEST POP SWAP1 SWAP6 SWAP5 POP POP POP POP POP JUMP JUMPDEST DUP13 DUP2 MSTORE PUSH2 0x180 PUSH1 0x20 DUP3 ADD MSTORE PUSH0 PUSH2 0x3646 PUSH2 0x180 DUP4 ADD DUP15 PUSH2 0x3296 JUMP JUMPDEST DUP3 DUP2 SUB PUSH1 0x40 DUP5 ADD MSTORE PUSH2 0x3658 DUP2 DUP15 PUSH2 0x3296 JUMP JUMPDEST SWAP1 POP DUP3 DUP2 SUB PUSH1 0x60 DUP5 ADD MSTORE PUSH2 0x366C DUP2 DUP14 PUSH2 0x3296 JUMP JUMPDEST PUSH1 0x1 PUSH1 0x1 PUSH1 0xA0 SHL SUB DUP13 AND PUSH1 0x80 DUP6 ADD MSTORE PUSH1 0xA0 DUP5 ADD DUP12 SWAP1 MSTORE SWAP1 POP PUSH2 0x3691 PUSH1 0xC0 DUP5 ADD DUP11 PUSH2 0x3406 JUMP JUMPDEST PUSH1 0x1 PUSH1 0x1 PUSH1 0xA0 SHL SUB DUP9 AND PUSH1 0xE0 DUP5 ADD MSTORE DUP7 PUSH2 0x100 DUP5 ADD MSTORE DUP6 PUSH2 0x120 DUP5 ADD MSTORE PUSH2 0x36BD PUSH2 0x140 DUP5 ADD DUP7 ISZERO ISZERO SWAP1 MSTORE JUMP JUMPDEST DUP3 DUP2 SUB PUSH2 0x160 DUP5 ADD MSTORE PUSH2 0x36D0 DUP2 DUP6 PUSH2 0x3296 JUMP JUMPDEST SWAP16 SWAP15 POP POP POP POP POP POP POP POP POP POP POP POP POP POP POP JUMP JUMPDEST PUSH1 0x20 DUP2 MSTORE PUSH0 PUSH2 0x32D6 PUSH1 0x20 DUP4 ADD DUP5 PUSH2 0x3469 JUMP JUMPDEST DUP1 CALLDATALOAD PUSH1 0x1 PUSH1 0x1 PUSH1 0xA0 SHL SUB DUP2 AND DUP2 EQ PUSH2 0x370B JUMPI PUSH0 PUSH0 REVERT JUMPDEST SWAP2 SWAP1 POP JUMP JUMPDEST PUSH0 PUSH1 0x20 DUP3 DUP5 SUB SLT ISZERO PUSH2 0x3720 JUMPI PUSH0 PUSH0 REVERT JUMPDEST PUSH2 0x32D6 DUP3 PUSH2 0x36F5 JUMP JUMPDEST PUSH0 PUSH0 PUSH1 0x40 DUP4 DUP6 SUB SLT ISZERO PUSH2 0x373A JUMPI PUSH0 PUSH0 REVERT JUMPDEST DUP3 CALLDATALOAD SWAP2 POP PUSH2 0x374A PUSH1 0x20 DUP5 ADD PUSH2 0x36F5 JUMP JUMPDEST SWAP1 POP SWAP3 POP SWAP3 SWAP1 POP JUMP JUMPDEST PUSH0 PUSH0 PUSH0 PUSH0 PUSH0 PUSH1 0xA0 DUP7 DUP9 SUB SLT ISZERO PUSH2 0x3767 JUMPI PUSH0 PUSH0 REVERT JUMPDEST DUP6 CALLDATALOAD PUSH8 0xFFFFFFFFFFFFFFFF DUP2 GT ISZERO PUSH2 0x377D JUMPI PUSH0 PUSH0 REVERT JUMPDEST PUSH2 0x3789 DUP9 DUP3 DUP10 ADD PUSH2 0x3323 JUMP JUMPDEST SWAP6 POP POP PUSH1 0x20 DUP7 ADD CALLDATALOAD PUSH8 0xFFFFFFFFFFFFFFFF DUP2 GT ISZERO PUSH2 0x37A5 JUMPI PUSH0 PUSH0 REVERT JUMPDEST PUSH2 0x37B1 DUP9 DUP3 DUP10 ADD PUSH2 0x3323 JUMP JUMPDEST SWAP6 SWAP9 SWAP6 SWAP8 POP POP POP POP PUSH1 0x40 DUP5 ADD CALLDATALOAD SWAP4 PUSH1 0x60 DUP2 ADD CALLDATALOAD SWAP4 PUSH1 0x80 SWAP1 SWAP2 ADD CALLDATALOAD SWAP3 POP SWAP1 POP JUMP JUMPDEST PUSH1 0x1 DUP2 DUP2 SHR SWAP1 DUP3 AND DUP1 PUSH2 0x37E5 JUMPI PUSH1 0x7F DUP3 AND SWAP2 POP JUMPDEST PUSH1 0x20 DUP3 LT DUP2 SUB PUSH2 0x1191 JUMPI PUSH4 0x4E487B71 PUSH1 0xE0 SHL PUSH0 MSTORE PUSH1 0x22 PUSH1 0x4 MSTORE PUSH1 0x24 PUSH0 REVERT JUMPDEST PUSH1 0x20 DUP1 DUP3 MSTORE PUSH1 0x13 SWAP1 DUP3 ADD MSTORE PUSH19 0x15185CDAC8191BD95CC81B9BDD08195E1A5CDD PUSH1 0x6A SHL PUSH1 0x40 DUP3 ADD MSTORE PUSH1 0x60 ADD SWAP1 JUMP JUMPDEST PUSH0 DUP3 MLOAD DUP1 PUSH1 0x20 DUP6 ADD DUP5 MCOPY PUSH0 SWAP3 ADD SWAP2 DUP3 MSTORE POP SWAP2 SWAP1 POP JUMP JUMPDEST PUSH1 0x20 DUP1 DUP3 MSTORE PUSH1 0x14 SWAP1 DUP3 ADD MSTORE PUSH20 0x115CD8DC9BDDC81C99599D5B990819985A5B1959 PUSH1 0x62 SHL PUSH1 0x40 DUP3 ADD MSTORE PUSH1 0x60 ADD SWAP1 JUMP JUMPDEST PUSH1 0x40 DUP2 ADD PUSH2 0x3882 DUP3 DUP6 PUSH2 0x3406 JUMP JUMPDEST PUSH1 0x1 PUSH1 0x1 PUSH1 0xA0 SHL SUB SWAP3 SWAP1 SWAP3 AND PUSH1 0x20 SWAP2 SWAP1 SWAP2 ADD MSTORE SWAP2 SWAP1 POP JUMP JUMPDEST PUSH4 0x4E487B71 PUSH1 0xE0 SHL PUSH0 MSTORE PUSH1 0x32 PUSH1 0x4 MSTORE PUSH1 0x24 PUSH0 REVERT JUMPDEST PUSH1 0x20 DUP1 DUP3 MSTORE PUSH1 0x18 SWAP1 DUP3 ADD MSTORE PUSH32 0x4F6E6C792063726561746F722063616E206F7065726174650000000000000000 PUSH1 0x40 DUP3 ADD MSTORE PUSH1 0x60 ADD SWAP1 JUMP JUMPDEST PUSH4 0x4E487B71 PUSH1 0xE0 SHL PUSH0 MSTORE PUSH1 0x11 PUSH1 0x4 MSTORE PUSH1 0x24 PUSH0 REVERT JUMPDEST DUP1 DUP3 ADD DUP1 DUP3 GT ISZERO PUSH2 0x390C JUMPI PUSH2 0x390C PUSH2 0x38E5 JUMP JUMPDEST SWAP3 SWAP2 POP POP JUMP JUMPDEST PUSH1 0x1F DUP3 GT ISZERO PUSH2 0x755 JUMPI DUP1 PUSH0 MSTORE PUSH1 0x20 PUSH0 KECCAK256 PUSH1 0x1F DUP5 ADD PUSH1 0x5 SHR DUP2 ADD PUSH1 0x20 DUP6 LT ISZERO PUSH2 0x3937 JUMPI POP DUP1 JUMPDEST PUSH1 0x1F DUP5 ADD PUSH1 0x5 SHR DUP3 ADD SWAP2 POP JUMPDEST DUP2 DUP2 LT ISZERO PUSH2 0xB98 JUMPI PUSH0 DUP2 SSTORE PUSH1 0x1 ADD PUSH2 0x3943 JUMP JUMPDEST DUP2 MLOAD PUSH8 0xFFFFFFFFFFFFFFFF DUP2 GT ISZERO PUSH2 0x3970 JUMPI PUSH2 0x3970 PUSH2 0x330F JUMP JUMPDEST PUSH2 0x3984 DUP2 PUSH2 0x397E DUP5 SLOAD PUSH2 0x37D1 JUMP JUMPDEST DUP5 PUSH2 0x3912 JUMP JUMPDEST PUSH1 0x20 PUSH1 0x1F DUP3 GT PUSH1 0x1 DUP2 EQ PUSH2 0x39B6 JUMPI PUSH0 DUP4 ISZERO PUSH2 0x399F JUMPI POP DUP5 DUP3 ADD MLOAD JUMPDEST PUSH0 NOT PUSH1 0x3 DUP6 SWAP1 SHL SHR NOT AND PUSH1 0x1 DUP5 SWAP1 SHL OR DUP5 SSTORE PUSH2 0xB98 JUMP JUMPDEST PUSH0 DUP5 DUP2 MSTORE PUSH1 0x20 DUP2 KECCAK256 PUSH1 0x1F NOT DUP6 AND SWAP2 JUMPDEST DUP3 DUP2 LT ISZERO PUSH2 0x39E5 JUMPI DUP8 DUP6 ADD MLOAD DUP3 SSTORE PUSH1 0x20 SWAP5 DUP6 ADD SWAP5 PUSH1 0x1 SWAP1 SWAP3 ADD SWAP2 ADD PUSH2 0x39C5 JUMP JUMPDEST POP DUP5 DUP3 LT ISZERO PUSH2 0x3A02 JUMPI DUP7 DUP5 ADD MLOAD PUSH0 NOT PUSH1 0x3 DUP8 SWAP1 SHL PUSH1 0xF8 AND SHR NOT AND DUP2 SSTORE JUMPDEST POP POP POP POP PUSH1 0x1 SWAP1 DUP2 SHL ADD SWAP1 SSTORE POP JUMP JUMPDEST PUSH0 PUSH1 0x1 DUP3 ADD PUSH2 0x3A22 JUMPI PUSH2 0x3A22 PUSH2 0x38E5 JUMP JUMPDEST POP PUSH1 0x1 ADD SWAP1 JUMP JUMPDEST PUSH0 PUSH0 DUP4 SLOAD PUSH2 0x3A36 DUP2 PUSH2 0x37D1 JUMP JUMPDEST PUSH1 0x1 DUP3 AND DUP1 ISZERO PUSH2 0x3A4D JUMPI PUSH1 0x1 DUP2 EQ PUSH2 0x3A62 JUMPI PUSH2 0x3A8F JUMP JUMPDEST PUSH1 0xFF NOT DUP4 AND DUP7 MSTORE DUP2 ISZERO ISZERO DUP3 MUL DUP7 ADD SWAP4 POP PUSH2 0x3A8F JUMP JUMPDEST DUP7 PUSH0 MSTORE PUSH1 0x20 PUSH0 KECCAK256 PUSH0 JUMPDEST DUP4 DUP2 LT ISZERO PUSH2 0x3A87 JUMPI DUP2 SLOAD DUP9 DUP3 ADD MSTORE PUSH1 0x1 SWAP1 SWAP2 ADD SWAP1 PUSH1 0x20 ADD PUSH2 0x3A6B JUMP JUMPDEST POP POP DUP2 DUP7 ADD SWAP4 POP JUMPDEST POP SWAP2 SWAP6 SWAP5 POP POP POP POP POP JUMP JUMPDEST DUP3 DUP2 MSTORE PUSH1 0x40 PUSH1 0x20 DUP3 ADD MSTORE PUSH0 PUSH2 0x3AB2 PUSH1 0x40 DUP4 ADD DUP5 PUSH2 0x3296 JUMP JUMPDEST SWAP5 SWAP4 POP POP POP POP JUMP INVALID 0x4C ISZERO 0xBB RETURN BALANCE SWAP5 0xD9 0xC3 0xD8 0xBC 0xB6 PUSH25 0xF11EFD3112F20BA2837209F1D04E622B9C50B68EA264697066 PUSH20 0x58221220ECDE5AE2FD0F4F635D844215D0D8F75E DUP8 SIGNEXTEND PUSH10 0xE196459557C2FBCDA523 NOT CHAINID BASEFEE PUSH5 0x736F6C6343 STOP ADDMOD 0x1E STOP CALLER "
		},
		"gasEstimates": {
			"creation": {
				"codeDepositCost": "3024000",
				"executionCost": "infinite",
				"totalCost": "infinite"
			},
			"external": {
				"DISPUTE_PERIOD()": "305",
				"TaskType(uint256)": "infinite",
				"biddingSystem()": "2447",
				"cancelTask(uint256)": "infinite",
				"createTask(string,string,uint256,uint256,uint256)": "infinite",
				"disputeDAO()": "2468",
				"disputeTask(uint256)": "infinite",
				"employerConfirmTask(uint256,bool)": "infinite",
				"escrow()": "2424",
				"getAllTasks()": "infinite",
				"getTaskById(uint256)": "infinite",
				"getTaskByOwner(address)": "infinite",
				"getTaskParticipants(uint256)": "infinite",
				"participateInTask(uint256)": "infinite",
				"removeExpiredTask(uint256)": "infinite",
				"requestTaskVerification(uint256,string)": "infinite",
				"selectWinner(uint256,address)": "infinite",
				"settleTask(uint256)": "infinite",
				"startBidding(uint256)": "infinite",
				"taskCount()": "2338",
				"taskVerificationPending(uint256)": "2580",
				"tasks(uint256)": "infinite"
			}
		},
		"methodIdentifiers": {
			"DISPUTE_PERIOD()": "a5bbe22b",
			"TaskType(uint256)": "16b6106e",
			"biddingSystem()": "90ca80df",
			"cancelTask(uint256)": "7eec20a8",
			"createTask(string,string,uint256,uint256,uint256)": "cf3797d4",
			"disputeDAO()": "f1c2d0d9",
			"disputeTask(uint256)": "97d9c23e",
			"employerConfirmTask(uint256,bool)": "59f01043",
			"escrow()": "e2fdcc17",
			"getAllTasks()": "779900b4",
			"getTaskById(uint256)": "976217cd",
			"getTaskByOwner(address)": "982ae112",
			"getTaskParticipants(uint256)": "7869099c",
			"participateInTask(uint256)": "29e5fb09",
			"removeExpiredTask(uint256)": "e5033376",
			"requestTaskVerification(uint256,string)": "68e7f9f5",
			"selectWinner(uint256,address)": "ab4de606",
			"settleTask(uint256)": "23a43ec8",
			"startBidding(uint256)": "a09e9c1d",
			"taskCount()": "b6cb58a5",
			"taskVerificationPending(uint256)": "964858fb",
			"tasks(uint256)": "8d977672"
		}
	},
	"abi": [
		{
			"inputs": [
				{
					"internalType": "address",
					"name": "_biddingSystem",
					"type": "address"
				},
				{
					"internalType": "address",
					"name": "_escrow",
					"type": "address"
				},
				{
					"internalType": "address",
					"name": "_disputeDAO",
					"type": "address"
				}
			],
			"stateMutability": "nonpayable",
			"type": "constructor"
		},
		{
			"anonymous": false,
			"inputs": [
				{
					"indexed": true,
					"internalType": "uint256",
					"name": "taskId",
					"type": "uint256"
				},
				{
					"indexed": true,
					"internalType": "address",
					"name": "creator",
					"type": "address"
				},
				{
					"indexed": false,
					"internalType": "uint256",
					"name": "reward",
					"type": "uint256"
				},
				{
					"indexed": false,
					"internalType": "string",
					"name": "ipfsHash",
					"type": "string"
				}
			],
			"name": "TaskCreated",
			"type": "event"
		},
		{
			"anonymous": false,
			"inputs": [
				{
					"indexed": true,
					"internalType": "uint256",
					"name": "taskId",
					"type": "uint256"
				}
			],
			"name": "TaskRemoved",
			"type": "event"
		},
		{
			"anonymous": false,
			"inputs": [
				{
					"indexed": true,
					"internalType": "uint256",
					"name": "taskId",
					"type": "uint256"
				},
				{
					"indexed": false,
					"internalType": "enum TaskFactory.TaskStatus",
					"name": "status",
					"type": "uint8"
				},
				{
					"indexed": false,
					"internalType": "address",
					"name": "winner",
					"type": "address"
				}
			],
			"name": "TaskUpdated",
			"type": "event"
		},
		{
			"inputs": [],
			"name": "DISPUTE_PERIOD",
			"outputs": [
				{
					"internalType": "uint256",
					"name": "",
					"type": "uint256"
				}
			],
			"stateMutability": "view",
			"type": "function"
		},
		{
			"inputs": [
				{
					"internalType": "uint256",
					"name": "",
					"type": "uint256"
				}
			],
			"name": "TaskType",
			"outputs": [
				{
					"internalType": "string",
					"name": "",
					"type": "string"
				}
			],
			"stateMutability": "view",
			"type": "function"
		},
		{
			"inputs": [],
			"name": "biddingSystem",
			"outputs": [
				{
					"internalType": "address",
					"name": "",
					"type": "address"
				}
			],
			"stateMutability": "view",
			"type": "function"
		},
		{
			"inputs": [
				{
					"internalType": "uint256",
					"name": "_taskId",
					"type": "uint256"
				}
			],
			"name": "cancelTask",
			"outputs": [],
			"stateMutability": "nonpayable",
			"type": "function"
		},
		{
			"inputs": [
				{
					"internalType": "string",
					"name": "_taskTitle",
					"type": "string"
				},
				{
					"internalType": "string",
					"name": "_ipfsHash",
					"type": "string"
				},
				{
					"internalType": "uint256",
					"name": "_reward",
					"type": "uint256"
				},
				{
					"internalType": "uint256",
					"name": "_deadline",
					"type": "uint256"
				},
				{
					"internalType": "uint256",
					"name": "_taskTypeNumber",
					"type": "uint256"
				}
			],
			"name": "createTask",
			"outputs": [],
			"stateMutability": "payable",
			"type": "function"
		},
		{
			"inputs": [],
			"name": "disputeDAO",
			"outputs": [
				{
					"internalType": "address",
					"name": "",
					"type": "address"
				}
			],
			"stateMutability": "view",
			"type": "function"
		},
		{
			"inputs": [
				{
					"internalType": "uint256",
					"name": "_taskId",
					"type": "uint256"
				}
			],
			"name": "disputeTask",
			"outputs": [],
			"stateMutability": "nonpayable",
			"type": "function"
		},
		{
			"inputs": [
				{
					"internalType": "uint256",
					"name": "taskId",
					"type": "uint256"
				},
				{
					"internalType": "bool",
					"name": "isConfirm",
					"type": "bool"
				}
			],
			"name": "employerConfirmTask",
			"outputs": [],
			"stateMutability": "nonpayable",
			"type": "function"
		},
		{
			"inputs": [],
			"name": "escrow",
			"outputs": [
				{
					"internalType": "address",
					"name": "",
					"type": "address"
				}
			],
			"stateMutability": "view",
			"type": "function"
		},
		{
			"inputs": [],
			"name": "getAllTasks",
			"outputs": [
				{
					"components": [
						{
							"internalType": "uint256",
							"name": "id",
							"type": "uint256"
						},
						{
							"internalType": "string",
							"name": "title",
							"type": "string"
						},
						{
							"internalType": "string",
							"name": "ipfsHash",
							"type": "string"
						},
						{
							"internalType": "string",
							"name": "completeUrl",
							"type": "string"
						},
						{
							"internalType": "address",
							"name": "creator",
							"type": "address"
						},
						{
							"internalType": "uint256",
							"name": "reward",
							"type": "uint256"
						},
						{
							"internalType": "enum TaskFactory.TaskStatus",
							"name": "status",
							"type": "uint8"
						},
						{
							"internalType": "address",
							"name": "winner",
							"type": "address"
						},
						{
							"internalType": "uint256",
							"name": "deadline",
							"type": "uint256"
						},
						{
							"internalType": "address[]",
							"name": "participants",
							"type": "address[]"
						},
						{
							"internalType": "uint256",
							"name": "disputeDeadline",
							"type": "uint256"
						},
						{
							"internalType": "bool",
							"name": "locked",
							"type": "bool"
						},
						{
							"internalType": "string",
							"name": "taskType",
							"type": "string"
						}
					],
					"internalType": "struct TaskFactory.Task[]",
					"name": "",
					"type": "tuple[]"
				}
			],
			"stateMutability": "view",
			"type": "function"
		},
		{
			"inputs": [
				{
					"internalType": "uint256",
					"name": "_taskId",
					"type": "uint256"
				}
			],
			"name": "getTaskById",
			"outputs": [
				{
					"components": [
						{
							"internalType": "uint256",
							"name": "id",
							"type": "uint256"
						},
						{
							"internalType": "string",
							"name": "title",
							"type": "string"
						},
						{
							"internalType": "string",
							"name": "ipfsHash",
							"type": "string"
						},
						{
							"internalType": "string",
							"name": "completeUrl",
							"type": "string"
						},
						{
							"internalType": "address",
							"name": "creator",
							"type": "address"
						},
						{
							"internalType": "uint256",
							"name": "reward",
							"type": "uint256"
						},
						{
							"internalType": "enum TaskFactory.TaskStatus",
							"name": "status",
							"type": "uint8"
						},
						{
							"internalType": "address",
							"name": "winner",
							"type": "address"
						},
						{
							"internalType": "uint256",
							"name": "deadline",
							"type": "uint256"
						},
						{
							"internalType": "address[]",
							"name": "participants",
							"type": "address[]"
						},
						{
							"internalType": "uint256",
							"name": "disputeDeadline",
							"type": "uint256"
						},
						{
							"internalType": "bool",
							"name": "locked",
							"type": "bool"
						},
						{
							"internalType": "string",
							"name": "taskType",
							"type": "string"
						}
					],
					"internalType": "struct TaskFactory.Task",
					"name": "",
					"type": "tuple"
				}
			],
			"stateMutability": "view",
			"type": "function"
		},
		{
			"inputs": [
				{
					"internalType": "address",
					"name": "_owner",
					"type": "address"
				}
			],
			"name": "getTaskByOwner",
			"outputs": [
				{
					"components": [
						{
							"internalType": "uint256",
							"name": "id",
							"type": "uint256"
						},
						{
							"internalType": "string",
							"name": "title",
							"type": "string"
						},
						{
							"internalType": "string",
							"name": "ipfsHash",
							"type": "string"
						},
						{
							"internalType": "string",
							"name": "completeUrl",
							"type": "string"
						},
						{
							"internalType": "address",
							"name": "creator",
							"type": "address"
						},
						{
							"internalType": "uint256",
							"name": "reward",
							"type": "uint256"
						},
						{
							"internalType": "enum TaskFactory.TaskStatus",
							"name": "status",
							"type": "uint8"
						},
						{
							"internalType": "address",
							"name": "winner",
							"type": "address"
						},
						{
							"internalType": "uint256",
							"name": "deadline",
							"type": "uint256"
						},
						{
							"internalType": "address[]",
							"name": "participants",
							"type": "address[]"
						},
						{
							"internalType": "uint256",
							"name": "disputeDeadline",
							"type": "uint256"
						},
						{
							"internalType": "bool",
							"name": "locked",
							"type": "bool"
						},
						{
							"internalType": "string",
							"name": "taskType",
							"type": "string"
						}
					],
					"internalType": "struct TaskFactory.Task[]",
					"name": "",
					"type": "tuple[]"
				}
			],
			"stateMutability": "view",
			"type": "function"
		},
		{
			"inputs": [
				{
					"internalType": "uint256",
					"name": "_taskId",
					"type": "uint256"
				}
			],
			"name": "getTaskParticipants",
			"outputs": [
				{
					"internalType": "address[]",
					"name": "",
					"type": "address[]"
				}
			],
			"stateMutability": "view",
			"type": "function"
		},
		{
			"inputs": [
				{
					"internalType": "uint256",
					"name": "_taskId",
					"type": "uint256"
				}
			],
			"name": "participateInTask",
			"outputs": [],
			"stateMutability": "nonpayable",
			"type": "function"
		},
		{
			"inputs": [
				{
					"internalType": "uint256",
					"name": "_taskId",
					"type": "uint256"
				}
			],
			"name": "removeExpiredTask",
			"outputs": [],
			"stateMutability": "nonpayable",
			"type": "function"
		},
		{
			"inputs": [
				{
					"internalType": "uint256",
					"name": "_taskId",
					"type": "uint256"
				},
				{
					"internalType": "string",
					"name": "_completeUrl",
					"type": "string"
				}
			],
			"name": "requestTaskVerification",
			"outputs": [],
			"stateMutability": "nonpayable",
			"type": "function"
		},
		{
			"inputs": [
				{
					"internalType": "uint256",
					"name": "_taskId",
					"type": "uint256"
				},
				{
					"internalType": "address",
					"name": "_winner",
					"type": "address"
				}
			],
			"name": "selectWinner",
			"outputs": [],
			"stateMutability": "nonpayable",
			"type": "function"
		},
		{
			"inputs": [
				{
					"internalType": "uint256",
					"name": "_taskId",
					"type": "uint256"
				}
			],
			"name": "settleTask",
			"outputs": [],
			"stateMutability": "nonpayable",
			"type": "function"
		},
		{
			"inputs": [
				{
					"internalType": "uint256",
					"name": "_taskId",
					"type": "uint256"
				}
			],
			"name": "startBidding",
			"outputs": [],
			"stateMutability": "nonpayable",
			"type": "function"
		},
		{
			"inputs": [],
			"name": "taskCount",
			"outputs": [
				{
					"internalType": "uint256",
					"name": "",
					"type": "uint256"
				}
			],
			"stateMutability": "view",
			"type": "function"
		},
		{
			"inputs": [
				{
					"internalType": "uint256",
					"name": "",
					"type": "uint256"
				}
			],
			"name": "taskVerificationPending",
			"outputs": [
				{
					"internalType": "bool",
					"name": "",
					"type": "bool"
				}
			],
			"stateMutability": "view",
			"type": "function"
		},
		{
			"inputs": [
				{
					"internalType": "uint256",
					"name": "",
					"type": "uint256"
				}
			],
			"name": "tasks",
			"outputs": [
				{
					"internalType": "uint256",
					"name": "id",
					"type": "uint256"
				},
				{
					"internalType": "string",
					"name": "title",
					"type": "string"
				},
				{
					"internalType": "string",
					"name": "ipfsHash",
					"type": "string"
				},
				{
					"internalType": "string",
					"name": "completeUrl",
					"type": "string"
				},
				{
					"internalType": "address",
					"name": "creator",
					"type": "address"
				},
				{
					"internalType": "uint256",
					"name": "reward",
					"type": "uint256"
				},
				{
					"internalType": "enum TaskFactory.TaskStatus",
					"name": "status",
					"type": "uint8"
				},
				{
					"internalType": "address",
					"name": "winner",
					"type": "address"
				},
				{
					"internalType": "uint256",
					"name": "deadline",
					"type": "uint256"
				},
				{
					"internalType": "uint256",
					"name": "disputeDeadline",
					"type": "uint256"
				},
				{
					"internalType": "bool",
					"name": "locked",
					"type": "bool"
				},
				{
					"internalType": "string",
					"name": "taskType",
					"type": "string"
				}
			],
			"stateMutability": "view",
			"type": "function"
		}
	]
}